{
  "_format": "hh-sol-artifact-1",
  "contractName": "RenderFore",
  "sourceName": "contracts/Renderers/RenderFore.sol",
  "abi": [
    {
      "inputs": [
        {
          "internalType": "address[]",
          "name": "renderers",
          "type": "address[]"
        }
      ],
      "stateMutability": "nonpayable",
      "type": "constructor"
    },
    {
      "inputs": [
        {
          "components": [
            {
              "internalType": "string",
              "name": "name",
              "type": "string"
            },
            {
              "internalType": "uint256",
              "name": "id",
              "type": "uint256"
            },
            {
              "components": [
                {
                  "internalType": "enum MainWeapon",
                  "name": "mainWeapon",
                  "type": "uint8"
                },
                {
                  "internalType": "enum Armor",
                  "name": "armor",
                  "type": "uint8"
                },
                {
                  "internalType": "enum Shields",
                  "name": "shields",
                  "type": "uint8"
                },
                {
                  "internalType": "enum Special",
                  "name": "special",
                  "type": "uint8"
                }
              ],
              "internalType": "struct Equipment",
              "name": "equipment",
              "type": "tuple"
            },
            {
              "components": [
                {
                  "internalType": "uint256",
                  "name": "serialNumber",
                  "type": "uint256"
                },
                {
                  "components": [
                    {
                      "internalType": "uint16",
                      "name": "h1",
                      "type": "uint16"
                    },
                    {
                      "internalType": "uint8",
                      "name": "s1",
                      "type": "uint8"
                    },
                    {
                      "internalType": "uint8",
                      "name": "l1",
                      "type": "uint8"
                    },
                    {
                      "internalType": "uint16",
                      "name": "h2",
                      "type": "uint16"
                    },
                    {
                      "internalType": "uint8",
                      "name": "s2",
                      "type": "uint8"
                    },
                    {
                      "internalType": "uint8",
                      "name": "l2",
                      "type": "uint8"
                    },
                    {
                      "internalType": "uint16",
                      "name": "h3",
                      "type": "uint16"
                    },
                    {
                      "internalType": "uint8",
                      "name": "s3",
                      "type": "uint8"
                    },
                    {
                      "internalType": "uint8",
                      "name": "l3",
                      "type": "uint8"
                    }
                  ],
                  "internalType": "struct Colors",
                  "name": "colors",
                  "type": "tuple"
                },
                {
                  "internalType": "uint16",
                  "name": "variant",
                  "type": "uint16"
                },
                {
                  "internalType": "uint8",
                  "name": "accuracy",
                  "type": "uint8"
                },
                {
                  "internalType": "uint8",
                  "name": "hull",
                  "type": "uint8"
                },
                {
                  "internalType": "uint8",
                  "name": "speed",
                  "type": "uint8"
                }
              ],
              "internalType": "struct Traits",
              "name": "traits",
              "type": "tuple"
            },
            {
              "components": [
                {
                  "internalType": "uint32",
                  "name": "shipsDestroyed",
                  "type": "uint32"
                },
                {
                  "internalType": "uint16",
                  "name": "costsVersion",
                  "type": "uint16"
                },
                {
                  "internalType": "uint16",
                  "name": "cost",
                  "type": "uint16"
                },
                {
                  "internalType": "uint16",
                  "name": "modified",
                  "type": "uint16"
                },
                {
                  "internalType": "bool",
                  "name": "shiny",
                  "type": "bool"
                },
                {
                  "internalType": "bool",
                  "name": "constructed",
                  "type": "bool"
                },
                {
                  "internalType": "bool",
                  "name": "inFleet",
                  "type": "bool"
                },
                {
                  "internalType": "bool",
                  "name": "isFreeShip",
                  "type": "bool"
                },
                {
                  "internalType": "uint256",
                  "name": "timestampDestroyed",
                  "type": "uint256"
                }
              ],
              "internalType": "struct ShipData",
              "name": "shipData",
              "type": "tuple"
            },
            {
              "internalType": "address",
              "name": "owner",
              "type": "address"
            }
          ],
          "internalType": "struct Ship",
          "name": "ship",
          "type": "tuple"
        }
      ],
      "name": "render",
      "outputs": [
        {
          "internalType": "string",
          "name": "",
          "type": "string"
        }
      ],
      "stateMutability": "view",
      "type": "function"
    },
    {
      "inputs": [],
      "name": "renderFore0",
      "outputs": [
        {
          "internalType": "contract IReturnSVG",
          "name": "",
          "type": "address"
        }
      ],
      "stateMutability": "view",
      "type": "function"
    },
    {
      "inputs": [],
      "name": "renderFore1",
      "outputs": [
        {
          "internalType": "contract IReturnSVG",
          "name": "",
          "type": "address"
        }
      ],
      "stateMutability": "view",
      "type": "function"
    },
    {
      "inputs": [],
      "name": "renderFore2",
      "outputs": [
        {
          "internalType": "contract IReturnSVG",
          "name": "",
          "type": "address"
        }
      ],
      "stateMutability": "view",
      "type": "function"
    },
    {
      "inputs": [],
      "name": "renderForePerfect",
      "outputs": [
        {
          "internalType": "contract IReturnSVG",
          "name": "",
          "type": "address"
        }
      ],
      "stateMutability": "view",
      "type": "function"
    }
  ],
  "bytecode": "0x61010060405234801561001157600080fd5b50604051610e36380380610e3683398101604081905261003091610191565b80516004146100935760405162461bcd60e51b815260206004820152602560248201527f496e76616c69642072656e64657265727320617272617920696e2052656e646560448201526472466f726560d81b606482015260840160405180910390fd5b806000815181106100a6576100a6610260565b60200260200101516001600160a01b03166080816001600160a01b031681525050806001815181106100da576100da610260565b60200260200101516001600160a01b031660a0816001600160a01b0316815250508060028151811061010e5761010e610260565b60200260200101516001600160a01b031660c0816001600160a01b0316815250508060038151811061014257610142610260565b60209081029190910101516001600160a01b031660e05250610276565b634e487b7160e01b600052604160045260246000fd5b80516001600160a01b038116811461018c57600080fd5b919050565b6000602082840312156101a357600080fd5b81516001600160401b038111156101b957600080fd5b8201601f810184136101ca57600080fd5b80516001600160401b038111156101e3576101e361015f565b604051600582901b90603f8201601f191681016001600160401b03811182821017156102115761021161015f565b60405291825260208184018101929081018784111561022f57600080fd5b6020850194505b838510156102555761024785610175565b815260209485019401610236565b509695505050505050565b634e487b7160e01b600052603260045260246000fd5b60805160a05160c05160e051610b6e6102c86000396000818160c501526101d80152600081816061015261032d01526000818161011301526102e101526000818160ec01526102820152610b6e6000f3fe608060405234801561001057600080fd5b50600436106100575760003560e01c80631c494d0d1461005c5780635394d872146100a057806372d64159146100c0578063a076e03c146100e7578063a6bc3d841461010e575b600080fd5b6100837f000000000000000000000000000000000000000000000000000000000000000081565b6040516001600160a01b0390911681526020015b60405180910390f35b6100b36100ae3660046106f1565b610135565b6040516100979190610843565b6100837f000000000000000000000000000000000000000000000000000000000000000081565b6100837f000000000000000000000000000000000000000000000000000000000000000081565b6100837f000000000000000000000000000000000000000000000000000000000000000081565b606081606001516060015160ff16600214801561015d575081606001516080015160ff166002145b80156101745750816060015160a0015160ff166002145b80156101bc5750600382604001516020015160078111156101975761019761085d565b14806101bc5750600382604001516040015160078111156101ba576101ba61085d565b145b15610258576040516329ca6c3960e11b81526001600160a01b037f00000000000000000000000000000000000000000000000000000000000000001690635394d8729061020d908590600401610a07565b600060405180830381865afa15801561022a573d6000803e3d6000fd5b505050506040513d6000823e601f3d908101601f191682016040526102529190810190610ac2565b92915050565b81606001516060015160ff166000036102b7576040516329ca6c3960e11b81526001600160a01b037f00000000000000000000000000000000000000000000000000000000000000001690635394d8729061020d908590600401610a07565b81606001516060015160ff16600103610316576040516329ca6c3960e11b81526001600160a01b037f00000000000000000000000000000000000000000000000000000000000000001690635394d8729061020d908590600401610a07565b6040516329ca6c3960e11b81526001600160a01b037f00000000000000000000000000000000000000000000000000000000000000001690635394d8729061020d908590600401610a07565b919050565b634e487b7160e01b600052604160045260246000fd5b60405160c081016001600160401b038111828210171561039f5761039f610367565b60405290565b60405161012081016001600160401b038111828210171561039f5761039f610367565b604051601f8201601f191681016001600160401b03811182821017156103f0576103f0610367565b604052919050565b60006001600160401b0382111561041157610411610367565b50601f01601f191660200190565b6008811061042c57600080fd5b50565b60006080828403121561044157600080fd5b604051608081016001600160401b038111828210171561046357610463610367565b60405290508082356104748161041f565b815260208301356104848161041f565b602082015260408301356104978161041f565b604082015260608301356104aa8161041f565b6060919091015292915050565b803561ffff8116811461036257600080fd5b803560ff8116811461036257600080fd5b60008183036101c08112156104ee57600080fd5b6104f661037d565b833581529150610120601f198201121561050f57600080fd5b506105186103a5565b610524602084016104b7565b8152610532604084016104c9565b6020820152610543606084016104c9565b6040820152610554608084016104b7565b606082015261056560a084016104c9565b608082015261057660c084016104c9565b60a082015261058760e084016104b7565b60c082015261059961010084016104c9565b60e08201526105ab61012084016104c9565b61010082015260208201526105c361014083016104b7565b60408201526105d561016083016104c9565b60608201526105e761018083016104c9565b60808201526105f96101a083016104c9565b60a082015292915050565b803563ffffffff8116811461036257600080fd5b8035801515811461036257600080fd5b6000610120828403121561063b57600080fd5b6106436103a5565b905061064e82610604565b815261065c602083016104b7565b602082015261066d604083016104b7565b604082015261067e606083016104b7565b606082015261068f60808301610618565b60808201526106a060a08301610618565b60a08201526106b160c08301610618565b60c08201526106c260e08301610618565b60e08201526101009182013591810191909152919050565b80356001600160a01b038116811461036257600080fd5b60006020828403121561070357600080fd5b81356001600160401b0381111561071957600080fd5b82016103c0818503121561072c57600080fd5b61073461037d565b81356001600160401b0381111561074a57600080fd5b8201601f8101861361075b57600080fd5b803561076e610769826103f8565b6103c8565b81815287602083850101111561078357600080fd5b816020840160208301376000602092820183015283528381013590830152506107af856040840161042f565b60408201526107c18560c084016104da565b60608201526107d4856102808401610628565b60808201526107e66103a083016106da565b60a0820152949350505050565b60005b8381101561080e5781810151838201526020016107f6565b50506000910152565b6000815180845261082f8160208601602086016107f3565b601f01601f19169290920160200192915050565b6020815260006108566020830184610817565b9392505050565b634e487b7160e01b600052602160045260246000fd5b6008811061042c57634e487b7160e01b600052602160045260246000fd5b80518252602081015161ffff815116602084015260ff602082015116604084015260408101516108c6606085018260ff169052565b50606081015161ffff8116608085015250608081015160ff811660a08501525060a081015160ff811660c08501525060c081015161ffff811660e08501525060e081015160ff811661010085015250610100015160ff811661012084015250604081015161ffff811661014084015250606081015160ff811661016084015250608081015160ff81166101808401525060a0015160ff166101a09190910152565b63ffffffff815116825261ffff60208201511660208301526040810151610994604084018261ffff169052565b5060608101516109aa606084018261ffff169052565b5060808101516109be608084018215159052565b5060a08101516109d260a084018215159052565b5060c08101516109e660c084018215159052565b5060e08101516109fa60e084018215159052565b5061010090810151910152565b60208152600082516103c06020840152610a256103e0840182610817565b90506020840151604084015260408401518051610a4181610873565b60608501526020810151610a5481610873565b60808501526040810151610a6781610873565b60a085015260600151610a7981610873565b60c08401526060840151610a9060e0850182610891565b506080840151610aa46102a0850182610967565b5060a08401516001600160a01b0381166103c0850152509392505050565b600060208284031215610ad457600080fd5b81516001600160401b03811115610aea57600080fd5b8201601f81018413610afb57600080fd5b8051610b09610769826103f8565b818152856020838501011115610b1e57600080fd5b610b2f8260208301602086016107f3565b9594505050505056fea26469706673582212201c1c88d4caaf4c27de63b2a7c1c7edf2006770f3064989a7c0232de4d535eb6a64736f6c634300081c0033",
  "linkReferences": {},
  "deployedLinkReferences": {}
}