{
  "_format": "hh-sol-artifact-1",
  "contractName": "ShipAttributes",
  "sourceName": "contracts/ShipAttributes.sol",
  "abi": [
    {
      "inputs": [
        {
          "internalType": "address",
          "name": "_ships",
          "type": "address"
        }
      ],
      "stateMutability": "nonpayable",
      "type": "constructor"
    },
    {
      "inputs": [],
      "name": "InvalidAttributesVersion",
      "type": "error"
    },
    {
      "inputs": [],
      "name": "InvalidCostsVersion",
      "type": "error"
    },
    {
      "inputs": [
        {
          "internalType": "address",
          "name": "owner",
          "type": "address"
        }
      ],
      "name": "OwnableInvalidOwner",
      "type": "error"
    },
    {
      "inputs": [
        {
          "internalType": "address",
          "name": "account",
          "type": "address"
        }
      ],
      "name": "OwnableUnauthorizedAccount",
      "type": "error"
    },
    {
      "inputs": [],
      "name": "ShipNotFound",
      "type": "error"
    },
    {
      "anonymous": false,
      "inputs": [
        {
          "indexed": true,
          "internalType": "address",
          "name": "previousOwner",
          "type": "address"
        },
        {
          "indexed": true,
          "internalType": "address",
          "name": "newOwner",
          "type": "address"
        }
      ],
      "name": "OwnershipTransferred",
      "type": "event"
    },
    {
      "inputs": [
        {
          "internalType": "uint16",
          "name": "",
          "type": "uint16"
        }
      ],
      "name": "attributesVersions",
      "outputs": [
        {
          "internalType": "uint16",
          "name": "version",
          "type": "uint16"
        },
        {
          "internalType": "uint8",
          "name": "baseHull",
          "type": "uint8"
        },
        {
          "internalType": "uint8",
          "name": "baseSpeed",
          "type": "uint8"
        }
      ],
      "stateMutability": "view",
      "type": "function"
    },
    {
      "inputs": [
        {
          "components": [
            {
              "internalType": "string",
              "name": "name",
              "type": "string"
            },
            {
              "internalType": "uint256",
              "name": "id",
              "type": "uint256"
            },
            {
              "components": [
                {
                  "internalType": "enum MainWeapon",
                  "name": "mainWeapon",
                  "type": "uint8"
                },
                {
                  "internalType": "enum Armor",
                  "name": "armor",
                  "type": "uint8"
                },
                {
                  "internalType": "enum Shields",
                  "name": "shields",
                  "type": "uint8"
                },
                {
                  "internalType": "enum Special",
                  "name": "special",
                  "type": "uint8"
                }
              ],
              "internalType": "struct Equipment",
              "name": "equipment",
              "type": "tuple"
            },
            {
              "components": [
                {
                  "internalType": "uint256",
                  "name": "serialNumber",
                  "type": "uint256"
                },
                {
                  "components": [
                    {
                      "internalType": "uint16",
                      "name": "h1",
                      "type": "uint16"
                    },
                    {
                      "internalType": "uint8",
                      "name": "s1",
                      "type": "uint8"
                    },
                    {
                      "internalType": "uint8",
                      "name": "l1",
                      "type": "uint8"
                    },
                    {
                      "internalType": "uint16",
                      "name": "h2",
                      "type": "uint16"
                    },
                    {
                      "internalType": "uint8",
                      "name": "s2",
                      "type": "uint8"
                    },
                    {
                      "internalType": "uint8",
                      "name": "l2",
                      "type": "uint8"
                    }
                  ],
                  "internalType": "struct Colors",
                  "name": "colors",
                  "type": "tuple"
                },
                {
                  "internalType": "uint8",
                  "name": "variant",
                  "type": "uint8"
                },
                {
                  "internalType": "uint8",
                  "name": "accuracy",
                  "type": "uint8"
                },
                {
                  "internalType": "uint8",
                  "name": "hull",
                  "type": "uint8"
                },
                {
                  "internalType": "uint8",
                  "name": "speed",
                  "type": "uint8"
                }
              ],
              "internalType": "struct Traits",
              "name": "traits",
              "type": "tuple"
            },
            {
              "components": [
                {
                  "internalType": "uint32",
                  "name": "shipsDestroyed",
                  "type": "uint32"
                },
                {
                  "internalType": "uint16",
                  "name": "costsVersion",
                  "type": "uint16"
                },
                {
                  "internalType": "uint16",
                  "name": "cost",
                  "type": "uint16"
                },
                {
                  "internalType": "bool",
                  "name": "shiny",
                  "type": "bool"
                },
                {
                  "internalType": "bool",
                  "name": "constructed",
                  "type": "bool"
                },
                {
                  "internalType": "bool",
                  "name": "inFleet",
                  "type": "bool"
                },
                {
                  "internalType": "uint256",
                  "name": "timestampDestroyed",
                  "type": "uint256"
                }
              ],
              "internalType": "struct ShipData",
              "name": "shipData",
              "type": "tuple"
            },
            {
              "internalType": "address",
              "name": "owner",
              "type": "address"
            }
          ],
          "internalType": "struct Ship",
          "name": "_ship",
          "type": "tuple"
        }
      ],
      "name": "calculateShipAttributes",
      "outputs": [
        {
          "components": [
            {
              "internalType": "uint16",
              "name": "version",
              "type": "uint16"
            },
            {
              "internalType": "uint8",
              "name": "range",
              "type": "uint8"
            },
            {
              "internalType": "uint8",
              "name": "gunDamage",
              "type": "uint8"
            },
            {
              "internalType": "uint8",
              "name": "hullPoints",
              "type": "uint8"
            },
            {
              "internalType": "uint8",
              "name": "maxHullPoints",
              "type": "uint8"
            },
            {
              "internalType": "uint8",
              "name": "movement",
              "type": "uint8"
            },
            {
              "internalType": "uint8",
              "name": "damageReduction",
              "type": "uint8"
            },
            {
              "internalType": "uint8",
              "name": "reactorCriticalTimer",
              "type": "uint8"
            },
            {
              "internalType": "uint8[]",
              "name": "statusEffects",
              "type": "uint8[]"
            }
          ],
          "internalType": "struct Attributes",
          "name": "",
          "type": "tuple"
        }
      ],
      "stateMutability": "view",
      "type": "function"
    },
    {
      "inputs": [
        {
          "internalType": "uint256",
          "name": "_shipId",
          "type": "uint256"
        }
      ],
      "name": "calculateShipAttributesById",
      "outputs": [
        {
          "components": [
            {
              "internalType": "uint16",
              "name": "version",
              "type": "uint16"
            },
            {
              "internalType": "uint8",
              "name": "range",
              "type": "uint8"
            },
            {
              "internalType": "uint8",
              "name": "gunDamage",
              "type": "uint8"
            },
            {
              "internalType": "uint8",
              "name": "hullPoints",
              "type": "uint8"
            },
            {
              "internalType": "uint8",
              "name": "maxHullPoints",
              "type": "uint8"
            },
            {
              "internalType": "uint8",
              "name": "movement",
              "type": "uint8"
            },
            {
              "internalType": "uint8",
              "name": "damageReduction",
              "type": "uint8"
            },
            {
              "internalType": "uint8",
              "name": "reactorCriticalTimer",
              "type": "uint8"
            },
            {
              "internalType": "uint8[]",
              "name": "statusEffects",
              "type": "uint8[]"
            }
          ],
          "internalType": "struct Attributes",
          "name": "",
          "type": "tuple"
        }
      ],
      "stateMutability": "view",
      "type": "function"
    },
    {
      "inputs": [
        {
          "internalType": "uint256[]",
          "name": "_shipIds",
          "type": "uint256[]"
        }
      ],
      "name": "calculateShipAttributesByIds",
      "outputs": [
        {
          "components": [
            {
              "internalType": "uint16",
              "name": "version",
              "type": "uint16"
            },
            {
              "internalType": "uint8",
              "name": "range",
              "type": "uint8"
            },
            {
              "internalType": "uint8",
              "name": "gunDamage",
              "type": "uint8"
            },
            {
              "internalType": "uint8",
              "name": "hullPoints",
              "type": "uint8"
            },
            {
              "internalType": "uint8",
              "name": "maxHullPoints",
              "type": "uint8"
            },
            {
              "internalType": "uint8",
              "name": "movement",
              "type": "uint8"
            },
            {
              "internalType": "uint8",
              "name": "damageReduction",
              "type": "uint8"
            },
            {
              "internalType": "uint8",
              "name": "reactorCriticalTimer",
              "type": "uint8"
            },
            {
              "internalType": "uint8[]",
              "name": "statusEffects",
              "type": "uint8[]"
            }
          ],
          "internalType": "struct Attributes[]",
          "name": "",
          "type": "tuple[]"
        }
      ],
      "stateMutability": "view",
      "type": "function"
    },
    {
      "inputs": [
        {
          "components": [
            {
              "internalType": "string",
              "name": "name",
              "type": "string"
            },
            {
              "internalType": "uint256",
              "name": "id",
              "type": "uint256"
            },
            {
              "components": [
                {
                  "internalType": "enum MainWeapon",
                  "name": "mainWeapon",
                  "type": "uint8"
                },
                {
                  "internalType": "enum Armor",
                  "name": "armor",
                  "type": "uint8"
                },
                {
                  "internalType": "enum Shields",
                  "name": "shields",
                  "type": "uint8"
                },
                {
                  "internalType": "enum Special",
                  "name": "special",
                  "type": "uint8"
                }
              ],
              "internalType": "struct Equipment",
              "name": "equipment",
              "type": "tuple"
            },
            {
              "components": [
                {
                  "internalType": "uint256",
                  "name": "serialNumber",
                  "type": "uint256"
                },
                {
                  "components": [
                    {
                      "internalType": "uint16",
                      "name": "h1",
                      "type": "uint16"
                    },
                    {
                      "internalType": "uint8",
                      "name": "s1",
                      "type": "uint8"
                    },
                    {
                      "internalType": "uint8",
                      "name": "l1",
                      "type": "uint8"
                    },
                    {
                      "internalType": "uint16",
                      "name": "h2",
                      "type": "uint16"
                    },
                    {
                      "internalType": "uint8",
                      "name": "s2",
                      "type": "uint8"
                    },
                    {
                      "internalType": "uint8",
                      "name": "l2",
                      "type": "uint8"
                    }
                  ],
                  "internalType": "struct Colors",
                  "name": "colors",
                  "type": "tuple"
                },
                {
                  "internalType": "uint8",
                  "name": "variant",
                  "type": "uint8"
                },
                {
                  "internalType": "uint8",
                  "name": "accuracy",
                  "type": "uint8"
                },
                {
                  "internalType": "uint8",
                  "name": "hull",
                  "type": "uint8"
                },
                {
                  "internalType": "uint8",
                  "name": "speed",
                  "type": "uint8"
                }
              ],
              "internalType": "struct Traits",
              "name": "traits",
              "type": "tuple"
            },
            {
              "components": [
                {
                  "internalType": "uint32",
                  "name": "shipsDestroyed",
                  "type": "uint32"
                },
                {
                  "internalType": "uint16",
                  "name": "costsVersion",
                  "type": "uint16"
                },
                {
                  "internalType": "uint16",
                  "name": "cost",
                  "type": "uint16"
                },
                {
                  "internalType": "bool",
                  "name": "shiny",
                  "type": "bool"
                },
                {
                  "internalType": "bool",
                  "name": "constructed",
                  "type": "bool"
                },
                {
                  "internalType": "bool",
                  "name": "inFleet",
                  "type": "bool"
                },
                {
                  "internalType": "uint256",
                  "name": "timestampDestroyed",
                  "type": "uint256"
                }
              ],
              "internalType": "struct ShipData",
              "name": "shipData",
              "type": "tuple"
            },
            {
              "internalType": "address",
              "name": "owner",
              "type": "address"
            }
          ],
          "internalType": "struct Ship",
          "name": "ship",
          "type": "tuple"
        }
      ],
      "name": "calculateShipCost",
      "outputs": [
        {
          "internalType": "uint16",
          "name": "",
          "type": "uint16"
        }
      ],
      "stateMutability": "view",
      "type": "function"
    },
    {
      "inputs": [],
      "name": "costs",
      "outputs": [
        {
          "internalType": "uint16",
          "name": "version",
          "type": "uint16"
        },
        {
          "internalType": "uint8",
          "name": "baseCost",
          "type": "uint8"
        }
      ],
      "stateMutability": "view",
      "type": "function"
    },
    {
      "inputs": [
        {
          "internalType": "uint256",
          "name": "num",
          "type": "uint256"
        }
      ],
      "name": "countDigits",
      "outputs": [
        {
          "internalType": "uint256",
          "name": "",
          "type": "uint256"
        }
      ],
      "stateMutability": "pure",
      "type": "function"
    },
    {
      "inputs": [],
      "name": "currentAttributesVersion",
      "outputs": [
        {
          "internalType": "uint16",
          "name": "",
          "type": "uint16"
        }
      ],
      "stateMutability": "view",
      "type": "function"
    },
    {
      "inputs": [
        {
          "internalType": "enum Armor",
          "name": "_armor",
          "type": "uint8"
        }
      ],
      "name": "getArmorData",
      "outputs": [
        {
          "components": [
            {
              "internalType": "uint8",
              "name": "damageReduction",
              "type": "uint8"
            },
            {
              "internalType": "int8",
              "name": "movement",
              "type": "int8"
            }
          ],
          "internalType": "struct ArmorData",
          "name": "",
          "type": "tuple"
        }
      ],
      "stateMutability": "view",
      "type": "function"
    },
    {
      "inputs": [
        {
          "internalType": "uint16",
          "name": "_version",
          "type": "uint16"
        }
      ],
      "name": "getAttributesVersionBase",
      "outputs": [
        {
          "internalType": "uint16",
          "name": "version",
          "type": "uint16"
        },
        {
          "internalType": "uint8",
          "name": "baseHull",
          "type": "uint8"
        },
        {
          "internalType": "uint8",
          "name": "baseSpeed",
          "type": "uint8"
        }
      ],
      "stateMutability": "view",
      "type": "function"
    },
    {
      "inputs": [],
      "name": "getCosts",
      "outputs": [
        {
          "internalType": "uint256",
          "name": "",
          "type": "uint256"
        },
        {
          "components": [
            {
              "internalType": "uint16",
              "name": "version",
              "type": "uint16"
            },
            {
              "internalType": "uint8",
              "name": "baseCost",
              "type": "uint8"
            },
            {
              "internalType": "uint8[]",
              "name": "accuracy",
              "type": "uint8[]"
            },
            {
              "internalType": "uint8[]",
              "name": "hull",
              "type": "uint8[]"
            },
            {
              "internalType": "uint8[]",
              "name": "speed",
              "type": "uint8[]"
            },
            {
              "internalType": "uint8[]",
              "name": "mainWeapon",
              "type": "uint8[]"
            },
            {
              "internalType": "uint8[]",
              "name": "armor",
              "type": "uint8[]"
            },
            {
              "internalType": "uint8[]",
              "name": "shields",
              "type": "uint8[]"
            },
            {
              "internalType": "uint8[]",
              "name": "special",
              "type": "uint8[]"
            }
          ],
          "internalType": "struct Costs",
          "name": "",
          "type": "tuple"
        }
      ],
      "stateMutability": "view",
      "type": "function"
    },
    {
      "inputs": [],
      "name": "getCurrentAttributesVersion",
      "outputs": [
        {
          "internalType": "uint16",
          "name": "",
          "type": "uint16"
        }
      ],
      "stateMutability": "view",
      "type": "function"
    },
    {
      "inputs": [],
      "name": "getCurrentCostsVersion",
      "outputs": [
        {
          "internalType": "uint16",
          "name": "",
          "type": "uint16"
        }
      ],
      "stateMutability": "view",
      "type": "function"
    },
    {
      "inputs": [
        {
          "internalType": "enum MainWeapon",
          "name": "_weapon",
          "type": "uint8"
        }
      ],
      "name": "getGunData",
      "outputs": [
        {
          "components": [
            {
              "internalType": "uint8",
              "name": "range",
              "type": "uint8"
            },
            {
              "internalType": "uint8",
              "name": "damage",
              "type": "uint8"
            },
            {
              "internalType": "int8",
              "name": "movement",
              "type": "int8"
            }
          ],
          "internalType": "struct GunData",
          "name": "",
          "type": "tuple"
        }
      ],
      "stateMutability": "view",
      "type": "function"
    },
    {
      "inputs": [
        {
          "internalType": "uint256",
          "name": "_shipsDestroyed",
          "type": "uint256"
        }
      ],
      "name": "getRank",
      "outputs": [
        {
          "internalType": "uint8",
          "name": "",
          "type": "uint8"
        }
      ],
      "stateMutability": "pure",
      "type": "function"
    },
    {
      "inputs": [
        {
          "internalType": "enum Shields",
          "name": "_shields",
          "type": "uint8"
        }
      ],
      "name": "getShieldData",
      "outputs": [
        {
          "components": [
            {
              "internalType": "uint8",
              "name": "damageReduction",
              "type": "uint8"
            },
            {
              "internalType": "int8",
              "name": "movement",
              "type": "int8"
            }
          ],
          "internalType": "struct ShieldData",
          "name": "",
          "type": "tuple"
        }
      ],
      "stateMutability": "view",
      "type": "function"
    },
    {
      "inputs": [
        {
          "internalType": "enum Special",
          "name": "_special",
          "type": "uint8"
        }
      ],
      "name": "getSpecialData",
      "outputs": [
        {
          "components": [
            {
              "internalType": "uint8",
              "name": "range",
              "type": "uint8"
            },
            {
              "internalType": "uint8",
              "name": "strength",
              "type": "uint8"
            },
            {
              "internalType": "int8",
              "name": "movement",
              "type": "int8"
            }
          ],
          "internalType": "struct SpecialData",
          "name": "",
          "type": "tuple"
        }
      ],
      "stateMutability": "view",
      "type": "function"
    },
    {
      "inputs": [
        {
          "internalType": "enum Special",
          "name": "_special",
          "type": "uint8"
        }
      ],
      "name": "getSpecialRange",
      "outputs": [
        {
          "internalType": "uint8",
          "name": "",
          "type": "uint8"
        }
      ],
      "stateMutability": "view",
      "type": "function"
    },
    {
      "inputs": [
        {
          "internalType": "enum Special",
          "name": "_special",
          "type": "uint8"
        }
      ],
      "name": "getSpecialStrength",
      "outputs": [
        {
          "internalType": "uint8",
          "name": "",
          "type": "uint8"
        }
      ],
      "stateMutability": "view",
      "type": "function"
    },
    {
      "inputs": [],
      "name": "owner",
      "outputs": [
        {
          "internalType": "address",
          "name": "",
          "type": "address"
        }
      ],
      "stateMutability": "view",
      "type": "function"
    },
    {
      "inputs": [],
      "name": "renounceOwnership",
      "outputs": [],
      "stateMutability": "nonpayable",
      "type": "function"
    },
    {
      "inputs": [
        {
          "internalType": "uint8",
          "name": "_baseHull",
          "type": "uint8"
        },
        {
          "internalType": "uint8",
          "name": "_baseSpeed",
          "type": "uint8"
        },
        {
          "components": [
            {
              "internalType": "uint8",
              "name": "range",
              "type": "uint8"
            },
            {
              "internalType": "uint8",
              "name": "damage",
              "type": "uint8"
            },
            {
              "internalType": "int8",
              "name": "movement",
              "type": "int8"
            }
          ],
          "internalType": "struct GunData[]",
          "name": "_guns",
          "type": "tuple[]"
        },
        {
          "components": [
            {
              "internalType": "uint8",
              "name": "damageReduction",
              "type": "uint8"
            },
            {
              "internalType": "int8",
              "name": "movement",
              "type": "int8"
            }
          ],
          "internalType": "struct ArmorData[]",
          "name": "_armors",
          "type": "tuple[]"
        },
        {
          "components": [
            {
              "internalType": "uint8",
              "name": "damageReduction",
              "type": "uint8"
            },
            {
              "internalType": "int8",
              "name": "movement",
              "type": "int8"
            }
          ],
          "internalType": "struct ShieldData[]",
          "name": "_shields",
          "type": "tuple[]"
        },
        {
          "components": [
            {
              "internalType": "uint8",
              "name": "range",
              "type": "uint8"
            },
            {
              "internalType": "uint8",
              "name": "strength",
              "type": "uint8"
            },
            {
              "internalType": "int8",
              "name": "movement",
              "type": "int8"
            }
          ],
          "internalType": "struct SpecialData[]",
          "name": "_specials",
          "type": "tuple[]"
        },
        {
          "internalType": "uint8[]",
          "name": "_foreAccuracy",
          "type": "uint8[]"
        },
        {
          "internalType": "uint8[]",
          "name": "_engineSpeeds",
          "type": "uint8[]"
        }
      ],
      "name": "setAllAttributes",
      "outputs": [],
      "stateMutability": "nonpayable",
      "type": "function"
    },
    {
      "inputs": [
        {
          "components": [
            {
              "internalType": "uint16",
              "name": "version",
              "type": "uint16"
            },
            {
              "internalType": "uint8",
              "name": "baseCost",
              "type": "uint8"
            },
            {
              "internalType": "uint8[]",
              "name": "accuracy",
              "type": "uint8[]"
            },
            {
              "internalType": "uint8[]",
              "name": "hull",
              "type": "uint8[]"
            },
            {
              "internalType": "uint8[]",
              "name": "speed",
              "type": "uint8[]"
            },
            {
              "internalType": "uint8[]",
              "name": "mainWeapon",
              "type": "uint8[]"
            },
            {
              "internalType": "uint8[]",
              "name": "armor",
              "type": "uint8[]"
            },
            {
              "internalType": "uint8[]",
              "name": "shields",
              "type": "uint8[]"
            },
            {
              "internalType": "uint8[]",
              "name": "special",
              "type": "uint8[]"
            }
          ],
          "internalType": "struct Costs",
          "name": "_costs",
          "type": "tuple"
        }
      ],
      "name": "setCosts",
      "outputs": [],
      "stateMutability": "nonpayable",
      "type": "function"
    },
    {
      "inputs": [
        {
          "internalType": "uint16",
          "name": "_version",
          "type": "uint16"
        }
      ],
      "name": "setCurrentAttributesVersion",
      "outputs": [],
      "stateMutability": "nonpayable",
      "type": "function"
    },
    {
      "inputs": [
        {
          "internalType": "address",
          "name": "_ships",
          "type": "address"
        }
      ],
      "name": "setShipsAddress",
      "outputs": [],
      "stateMutability": "nonpayable",
      "type": "function"
    },
    {
      "inputs": [],
      "name": "ships",
      "outputs": [
        {
          "internalType": "contract IShips",
          "name": "",
          "type": "address"
        }
      ],
      "stateMutability": "view",
      "type": "function"
    },
    {
      "inputs": [
        {
          "internalType": "address",
          "name": "newOwner",
          "type": "address"
        }
      ],
      "name": "transferOwnership",
      "outputs": [],
      "stateMutability": "nonpayable",
      "type": "function"
    }
  ],
  "bytecode": "0x608060405234801561001057600080fd5b50604051613d4f380380613d4f83398101604081905261002f91610e0c565b338061005557604051631e4fbdf760e01b81526000600482015260240160405180910390fd5b61005e81610d01565b50600180546001600160a01b0319166001600160a01b0383161781556003805461ffff191690911781556004805462ffffff1916623200011790556040805160608101825260008152600a60208201526019918101919091526100c49160059190610d51565b506040805160608101825260008152600a60208201526019918101919091526100f1906006906003610d51565b506040805160608101825260008152600a602082015260199181019190915261011e906007906003610d51565b506040805160808101825260198152601e602082015260289181018290526060810191909152610152906008906004610d51565b50604080516080810182526000815260056020820152600a91810191909152600f6060820152610186906009906004610d51565b506040805160808101825260008152600a60208201819052601492820192909252601e60608201526101ba91906004610d51565b506040805160808101825260008152600a6020820152601491810191909152600f60608201526101ee90600b906004610d51565b50600060026000600161ffff168152602001908152602001600020905060018160000160006101000a81548161ffff021916908361ffff16021790555060648160000160026101000a81548160ff021916908360ff16021790555060038160000160036101000a81548160ff021916908360ff16021790555080600101600090806001815401808255809150506001900390600052602060002090602091828204019190069091909190916101000a81548160ff021916908360ff16021790555080600101601990806001815401808255809150506001900390600052602060002090602091828204019190069091909190916101000a81548160ff021916908360ff16021790555080600101603290806001815401808255809150506001900390600052602060002090602091828204019190069091909190916101000a81548160ff021916908360ff16021790555080600201600090806001815401808255809150506001900390600052602060002090602091828204019190069091909190916101000a81548160ff021916908360ff16021790555080600201600190806001815401808255809150506001900390600052602060002090602091828204019190069091909190916101000a81548160ff021916908360ff16021790555080600201600290806001815401808255809150506001900390600052602060002090602091828204019190069091909190916101000a81548160ff021916908360ff160217905550806003016040518060600160405280600660ff168152602001601960ff1681526020016000800b8152509080600181540180825580915050600190039060005260206000200160009091909190915060008201518160000160006101000a81548160ff021916908360ff16021790555060208201518160000160016101000a81548160ff021916908360ff16021790555060408201518160000160026101000a81548160ff021916908360000b60ff1602179055505050806003016040518060600160405280600a60ff168152602001601460ff1681526020016000800b8152509080600181540180825580915050600190039060005260206000200160009091909190915060008201518160000160006101000a81548160ff021916908360ff16021790555060208201518160000160016101000a81548160ff021916908360ff16021790555060408201518160000160026101000a81548160ff021916908360000b60ff1602179055505050806003016040518060600160405280600860ff168152602001601e60ff16815260200160001960000b8152509080600181540180825580915050600190039060005260206000200160009091909190915060008201518160000160006101000a81548160ff021916908360ff16021790555060208201518160000160016101000a81548160ff021916908360ff16021790555060408201518160000160026101000a81548160ff021916908360000b60ff1602179055505050806003016040518060600160405280600360ff168152602001602860ff1681526020016000800b8152509080600181540180825580915050600190039060005260206000200160009091909190915060008201518160000160006101000a81548160ff021916908360ff16021790555060208201518160000160016101000a81548160ff021916908360ff16021790555060408201518160000160026101000a81548160ff021916908360000b60ff1602179055505050806004016040518060400160405280600060ff168152602001600160000b8152509080600181540180825580915050600190039060005260206000200160009091909190915060008201518160000160006101000a81548160ff021916908360ff16021790555060208201518160000160016101000a81548160ff021916908360000b60ff1602179055505050806004016040518060400160405280600f60ff1681526020016000800b8152509080600181540180825580915050600190039060005260206000200160009091909190915060008201518160000160006101000a81548160ff021916908360ff16021790555060208201518160000160016101000a81548160ff021916908360000b60ff1602179055505050806004016040518060400160405280601e60ff16815260200160001960000b8152509080600181540180825580915050600190039060005260206000200160009091909190915060008201518160000160006101000a81548160ff021916908360ff16021790555060208201518160000160016101000a81548160ff021916908360000b60ff1602179055505050806004016040518060400160405280602d60ff16815260200160011960000b8152509080600181540180825580915050600190039060005260206000200160009091909190915060008201518160000160006101000a81548160ff021916908360ff16021790555060208201518160000160016101000a81548160ff021916908360000b60ff1602179055505050806005016040518060400160405280600060ff168152602001600160000b8152509080600181540180825580915050600190039060005260206000200160009091909190915060008201518160000160006101000a81548160ff021916908360ff16021790555060208201518160000160016101000a81548160ff021916908360000b60ff1602179055505050806005016040518060400160405280600f60ff168152602001600160000b8152509080600181540180825580915050600190039060005260206000200160009091909190915060008201518160000160006101000a81548160ff021916908360ff16021790555060208201518160000160016101000a81548160ff021916908360000b60ff1602179055505050806005016040518060400160405280601e60ff1681526020016000800b8152509080600181540180825580915050600190039060005260206000200160009091909190915060008201518160000160006101000a81548160ff021916908360ff16021790555060208201518160000160016101000a81548160ff021916908360000b60ff1602179055505050806005016040518060400160405280602d60ff16815260200160001960000b8152509080600181540180825580915050600190039060005260206000200160009091909190915060008201518160000160006101000a81548160ff021916908360ff16021790555060208201518160000160016101000a81548160ff021916908360000b60ff1602179055505050806006016040518060600160405280600060ff168152602001600060ff1681526020016000800b8152509080600181540180825580915050600190039060005260206000200160009091909190915060008201518160000160006101000a81548160ff021916908360ff160217905550602082810151825460409485015162ffff001990911661010060ff938416810262ff000019908116929092176201000093851684021790955585516060808201885260018083528287018181526000848b0181815260069c8d01805480860182558184528b84209751908801805495519351918c1661ffff1996871617938c168e02939093178916908b168a02179091558b518086018d529c8d5260148d8b019081528d8d01838152825480870184558385529e519e88018054925191519f8c1692861692909217908b168d021788169d8a1689029d909d17909c558a519384018b5260048452600f9884019889529983018a81528b549283018c559a90995290519101805495519851918516959097169490941796831690940295909517909216911690920291909117905550610e3c565b600080546001600160a01b038381166001600160a01b0319831681178455604051919092169283917f8be0079c531659141344cd1fd0a4f28419497f9722a3daafe3b4186f6b6457e09190a35050565b82805482825590600052602060002090601f01602090048101928215610de75791602002820160005b83821115610db857835183826101000a81548160ff021916908360ff1602179055509260200192600101602081600001049283019260010302610d7a565b8015610de55782816101000a81549060ff0219169055600101602081600001049283019260010302610db8565b505b50610df3929150610df7565b5090565b5b80821115610df35760008155600101610df8565b600060208284031215610e1e57600080fd5b81516001600160a01b0381168114610e3557600080fd5b9392505050565b612f0480610e4b6000396000f3fe608060405234801561001057600080fd5b50600436106101a95760003560e01c80639636c762116100f9578063ceb3a61211610097578063e7fae62511610071578063e7fae6251461045e578063f2fde38b14610471578063fe367db314610484578063ff758d021461049757600080fd5b8063ceb3a61214610425578063d5d233f814610438578063e197c6271461044b57600080fd5b8063a918e521116100d3578063a918e521146103bf578063ab67a783146103df578063bbf8218a146103f2578063c5b64b7a1461040557600080fd5b80639636c7621461034e578063a5099bae1461036f578063a89a24f81461038257600080fd5b80634f5e1e0611610166578063776d62f611610140578063776d62f6146102c65780637e0b245f146102fb5780638da5cb5b1461031b5780638e1b4a831461034057600080fd5b80634f5e1e0614610286578063670fa22e14610299578063715018a6146102be57600080fd5b806303075018146101ae5780630f0bba00146101cd57806311fa2bae1461022a5780631d727ba5146102455780633130f7ce1461025a578063321eed3514610266575b600080fd5b6101b66104aa565b6040516101c4929190611db3565b60405180910390f35b6102066101db366004611ee1565b60026020526000908152604090205461ffff81169060ff620100008204811691630100000090041683565b6040805161ffff909416845260ff92831660208501529116908201526060016101c4565b60035461ffff165b60405161ffff90911681526020016101c4565b610258610253366004612086565b610871565b005b60045461ffff16610232565b61027961027436600461221c565b61099f565b6040516101c49190612361565b61025861029436600461255a565b610af6565b6102ac6102a736600461269a565b610eca565b60405160ff90911681526020016101c4565b610258610f26565b6004546102df9061ffff81169062010000900460ff1682565b6040805161ffff909316835260ff9091166020830152016101c4565b61030e61030936600461269a565b610f3a565b6040516101c491906126b7565b6000546001600160a01b03165b6040516001600160a01b0390911681526020016101c4565b6003546102329061ffff1681565b61036161035c3660046126d4565b610fbe565b6040519081526020016101c4565b6102ac61037d3660046126d4565b610fff565b610206610390366004611ee1565b61ffff9081166000908152600260205260409020549081169160ff620100008304811692630100000090041690565b6103d26103cd36600461269a565b61100a565b6040516101c491906126ed565b6102326103ed366004612989565b6110a5565b600154610328906001600160a01b031681565b610418610413366004612989565b61130d565b6040516101c49190612a86565b6102ac61043336600461269a565b61168e565b610258610446366004612a99565b6116e5565b6104186104593660046126d4565b61170f565b6103d261046c36600461269a565b6117c0565b61025861047f366004612a99565b611808565b61030e61049236600461269a565b61184b565b6102586104a5366004611ee1565b61188a565b6000610502604051806101200160405280600061ffff168152602001600060ff168152602001606081526020016060815260200160608152602001606081526020016060815260200160608152602001606081525090565b60048054604080516101208101825261ffff83168082526201000090930460ff1660208083019190915260058054845181840281018401865281815295969593948694908601939092919083018282801561059a57602002820191906000526020600020906000905b825461010083900a900460ff1681526020600192830181810494850194909303909202910180841161056b5790505b505050505081526020016002820180548060200260200160405190810160405280929190818152602001828054801561061057602002820191906000526020600020906000905b825461010083900a900460ff168152602060019283018181049485019490930390920291018084116105e15790505b505050505081526020016003820180548060200260200160405190810160405280929190818152602001828054801561068657602002820191906000526020600020906000905b825461010083900a900460ff168152602060019283018181049485019490930390920291018084116106575790505b50505050508152602001600482018054806020026020016040519081016040528092919081815260200182805480156106fc57602002820191906000526020600020906000905b825461010083900a900460ff168152602060019283018181049485019490930390920291018084116106cd5790505b505050505081526020016005820180548060200260200160405190810160405280929190818152602001828054801561077257602002820191906000526020600020906000905b825461010083900a900460ff168152602060019283018181049485019490930390920291018084116107435790505b50505050508152602001600682018054806020026020016040519081016040528092919081815260200182805480156107e857602002820191906000526020600020906000905b825461010083900a900460ff168152602060019283018181049485019490930390920291018084116107b95790505b505050505081526020016007820180548060200260200160405190810160405280929190818152602001828054801561085e57602002820191906000526020600020906000905b825461010083900a900460ff1681526020600192830181810494850194909303909202910180841161082f5790505b5050505050815250509050915091509091565b6108796118aa565b6004805461ffff1690600061088d83612acc565b82546101009290920a61ffff8181021990931691831602179091558251600480546020808701519390941662ffffff19909116176201000060ff909316929092029190911781556040840151805185945091926108f09260059290910190611bd9565b506060820151805161090c916002840191602090910190611bd9565b5060808201518051610928916003840191602090910190611bd9565b5060a08201518051610944916004840191602090910190611bd9565b5060c08201518051610960916005840191602090910190611bd9565b5060e0820151805161097c916006840191602090910190611bd9565b506101008201518051610999916007840191602090910190611bd9565b50505050565b6060600082516001600160401b038111156109bc576109bc611efe565b6040519080825280602002602001820160405280156109f557816020015b6109e2611c7f565b8152602001906001900390816109da5790505b50905060005b8351811015610aef5760015484516000916001600160a01b031690634025b22d90879085908110610a2e57610a2e612aed565b60200260200101516040518263ffffffff1660e01b8152600401610a5491815260200190565b600060405180830381865afa158015610a71573d6000803e3d6000fd5b505050506040513d6000823e601f3d908101601f19168201604052610a999190810190612d0a565b90508060200151600003610ac0576040516303c113ad60e61b815260040160405180910390fd5b610ac98161130d565b838381518110610adb57610adb612aed565b6020908102919091010152506001016109fb565b5092915050565b610afe6118aa565b6003805461ffff16906000610b1283612acc565b91906101000a81548161ffff021916908361ffff160217905550506000600360009054906101000a900461ffff1690506000600260008361ffff1661ffff1681526020019081526020016000209050818160000160006101000a81548161ffff021916908361ffff160217905550898160000160026101000a81548160ff021916908360ff160217905550888160000160036101000a81548160ff021916908360ff160217905550806003016000610bca9190611ccd565b60005b8851811015610c4d5781600301898281518110610bec57610bec612aed565b6020908102919091018101518254600181810185556000948552938390208251910180549383015160409093015160ff908116620100000262ff0000199482166101000261ffff199096169190931617939093179190911617905501610bcd565b50610c5c600482016000611ceb565b60005b8751811015610cc35781600401888281518110610c7e57610c7e612aed565b602090810291909101810151825460018181018555600094855293839020825191018054929093015160ff9081166101000261ffff1990931691161717905501610c5f565b50610cd2600582016000611ceb565b60005b8651811015610d395781600501878281518110610cf457610cf4612aed565b602090810291909101810151825460018181018555600094855293839020825191018054929093015160ff9081166101000261ffff1990931691161717905501610cd5565b50610d48600682016000611ccd565b60005b8551811015610dcb5781600601868281518110610d6a57610d6a612aed565b6020908102919091018101518254600181810185556000948552938390208251910180549383015160409093015160ff908116620100000262ff0000199482166101000261ffff199096169190931617939093179190911617905501610d4b565b50610dda600182016000611d09565b60005b8451811015610e445781600101858281518110610dfc57610dfc612aed565b602090810291909101810151825460018181018555600094855293839020928104909201805460ff928316601f9094166101000a938402929093021990921617905501610ddd565b50610e53600282016000611d09565b60005b8351811015610ebd5781600201848281518110610e7557610e75612aed565b602090810291909101810151825460018181018555600094855293839020928104909201805460ff928316601f9094166101000a938402929093021990921617905501610e56565b5050505050505050505050565b6003805461ffff16600090815260026020526040812090916006909101908390811115610ef957610ef9612e10565b60ff1681548110610f0c57610f0c612aed565b600091825260209091200154610100900460ff1692915050565b610f2e6118aa565b610f3860006118d7565b565b60408051808201909152600080825260208201526003805461ffff166000908152600260205260409020600401908390811115610f7957610f79612e10565b60ff1681548110610f8c57610f8c612aed565b600091825260208083206040805180820190915292015460ff81168352610100900490920b9181019190915292915050565b600081600003610fd057506001919050565b60005b8215610ff95780610fe381612e26565b9150610ff29050600a84612e3f565b9250610fd3565b92915050565b6000610ff982610fbe565b60408051606081018252600080825260208201819052918101919091526003805461ffff166000908152600260205260409020810190839081111561105157611051612e10565b60ff168154811061106457611064612aed565b6000918252602080832060408051606081018252919093015460ff8082168352610100820416928201929092526201000090910490920b9082015292915050565b600080600460070183604001516060015160038111156110c7576110c7612e10565b60ff16815481106110da576110da612aed565b90600052602060002090602091828204019190069054906101000a900460ff166004600601846040015160400151600381111561111957611119612e10565b60ff168154811061112c5761112c612aed565b90600052602060002090602091828204019190069054906101000a900460ff166004600501856040015160200151600381111561116b5761116b612e10565b60ff168154811061117e5761117e612aed565b90600052602060002090602091828204019190069054906101000a900460ff166004800186604001516000015160038111156111bc576111bc612e10565b60ff16815481106111cf576111cf612aed565b90600052602060002090602091828204019190069054906101000a900460ff166004600301876060015160a0015160ff168154811061121057611210612aed565b90600052602060002090602091828204019190069054906101000a900460ff16600460020188606001516080015160ff168154811061125157611251612aed565b90600052602060002090602091828204019190069054906101000a900460ff16600460010189606001516060015160ff168154811061129257611292612aed565b6000918252602091829020918104909101546004546112c792601f166101000a90910460ff9081169162010000900416612e61565b6112d19190612e61565b6112db9190612e61565b6112e59190612e61565b6112ef9190612e61565b6112f99190612e61565b6113039190612e61565b60ff169392505050565b611315611c7f565b816020015160000361133a576040516303c113ad60e61b815260040160405180910390fd5b600061135383608001516000015163ffffffff16610fff565b905060008160ff1660010361136a575060006113c5565b8160ff1660020361137d5750600a6113c5565b8160ff16600303611390575060146113c5565b8160ff166004036113a35750601e6113c5565b8160ff166005036113b6575060286113c5565b60068260ff16106113c5575060325b6113cd611c7f565b6003805461ffff168083526000908152600260205260409081902090870151519082019181111561140057611400612e10565b60ff168154811061141357611413612aed565b600091825260208083209091015460ff90811691840182905260649161143b91861690612e7a565b6114459190612e3f565b905080826020018181516114599190612e61565b60ff90811690915260035461ffff16600090815260026020526040812060608a810151015160019091018054929450921690811061149957611499612aed565b600091825260209182902082820401549185015160ff601f9092166101000a909204811692506064916114ce91849116612e7a565b6114d89190612e3f565b915081836020018181516114ec9190612e61565b60ff169052506003805461ffff166000908152600260205260409081902090890151519082019181111561152257611522612e10565b60ff168154811061153557611535612aed565b60009182526020909120015460ff6101009091048116604085018190526064916115629190871690612e7a565b61156c9190612e3f565b915081836040018181516115809190612e61565b60ff1690525061158f87611927565b60ff908116606085018190526064916115ab9190871690612e7a565b6115b59190612e3f565b915081836060018181516115c99190612e61565b60ff9081169091526060850151166080850152506115e687611974565b60ff90811660a085018190526064916116029190871690612e7a565b61160c9190612e3f565b9150818360a0018181516116209190612e61565b60ff1690525061162f87611b1d565b60ff90811660c0850181905260649161164b9190871690612e7a565b6116559190612e3f565b9150818360c0018181516116699190612e61565b60ff169052505060408051600081526020810190915261010083015250949350505050565b6003805461ffff166000908152600260205260408120909160069091019083908111156116bd576116bd612e10565b60ff16815481106116d0576116d0612aed565b60009182526020909120015460ff1692915050565b6116ed6118aa565b600180546001600160a01b0319166001600160a01b0392909216919091179055565b611717611c7f565b600154604051634025b22d60e01b8152600481018490526000916001600160a01b031690634025b22d90602401600060405180830381865afa158015611761573d6000803e3d6000fd5b505050506040513d6000823e601f3d908101601f191682016040526117899190810190612d0a565b905080602001516000036117b0576040516303c113ad60e61b815260040160405180910390fd5b6117b98161130d565b9392505050565b60408051606081018252600080825260208201819052918101919091526003805461ffff16600090815260026020526040902060060190839081111561105157611051612e10565b6118106118aa565b6001600160a01b03811661183f57604051631e4fbdf760e01b8152600060048201526024015b60405180910390fd5b611848816118d7565b50565b60408051808201909152600080825260208201526003805461ffff166000908152600260205260409020600501908390811115610f7957610f79612e10565b6118926118aa565b6003805461ffff191661ffff92909216919091179055565b6000546001600160a01b03163314610f385760405163118cdaa760e01b8152336004820152602401611836565b600080546001600160a01b038381166001600160a01b0319831681178455604051919092169283917f8be0079c531659141344cd1fd0a4f28419497f9722a3daafe3b4186f6b6457e09190a35050565b60035461ffff16600090815260026020526040812080546060840151608001516201000090910460ff1690839061195f90600a612e91565b905061196b8183612e61565b95945050505050565b60035461ffff1660009081526002602052604081208054606084015160a00151630100000090910460ff16906119aa9082612ead565b905060008260030185604001516000015160038111156119cc576119cc612e10565b60ff16815481106119df576119df612aed565b9060005260206000200160000160029054906101000a900460000b90506000836004018660400151602001516003811115611a1c57611a1c612e10565b60ff1681548110611a2f57611a2f612aed565b60009182526020822001546040808901510151610100909104820b925060058601906003811115611a6257611a62612e10565b60ff1681548110611a7557611a75612aed565b6000918252602082200154604089015160600151610100909104820b925060068701906003811115611aa957611aa9612e10565b60ff1681548110611abc57611abc612aed565b6000918252602082200154620100009004900b90508082611add8587612ead565b611ae79190612ead565b611af19190612ead565b611afb9086612ead565b945060008560000b13611b0f576000611b11565b845b98975050505050505050565b6003805461ffff1660009081526002602090815260408083209085015190910151919290918391600484019190811115611b5957611b59612e10565b60ff1681548110611b6c57611b6c612aed565b600091825260209091200154611b859060ff1682612e61565b9050816005018460400151604001516003811115611ba557611ba5612e10565b60ff1681548110611bb857611bb8612aed565b600091825260209091200154611bd19060ff1682612e61565b949350505050565b82805482825590600052602060002090601f01602090048101928215611c6f5791602002820160005b83821115611c4057835183826101000a81548160ff021916908360ff1602179055509260200192600101602081600001049283019260010302611c02565b8015611c6d5782816101000a81549060ff0219169055600101602081600001049283019260010302611c40565b505b50611c7b929150611d2a565b5090565b604080516101208101825260008082526020820181905291810182905260608082018390526080820183905260a0820183905260c0820183905260e082019290925261010081019190915290565b50805460008255906000526020600020908101906118489190611d3f565b50805460008255906000526020600020908101906118489190611d5a565b50805460008255601f01602090049060005260206000209081019061184891905b5b80821115611c7b5760008155600101611d2b565b5b80821115611c7b57805462ffffff19168155600101611d40565b5b80821115611c7b57805461ffff19168155600101611d5b565b600081518084526020840193506020830160005b82811015611da957815160ff16865260209586019590910190600101611d88565b5093949350505050565b82815260406020820152611dce60408201835161ffff169052565b60006020830151611de4606084018260ff169052565b5060408301516101206080840152611e00610160840182611d74565b90506060840151603f198483030160a0850152611e1d8282611d74565b9150506080840151603f198483030160c0850152611e3b8282611d74565b91505060a0840151603f198483030160e0850152611e598282611d74565b91505060c0840151603f1984830301610100850152611e788282611d74565b91505060e0840151603f1984830301610120850152611e978282611d74565b915050610100840151603f1984830301610140850152611eb78282611d74565b9695505050505050565b61ffff8116811461184857600080fd5b8035611edc81611ec1565b919050565b600060208284031215611ef357600080fd5b81356117b981611ec1565b634e487b7160e01b600052604160045260246000fd5b60405161012081016001600160401b0381118282101715611f3757611f37611efe565b60405290565b604051608081016001600160401b0381118282101715611f3757611f37611efe565b60405160c081016001600160401b0381118282101715611f3757611f37611efe565b60405160e081016001600160401b0381118282101715611f3757611f37611efe565b604051601f8201601f191681016001600160401b0381118282101715611fcb57611fcb611efe565b604052919050565b60ff8116811461184857600080fd5b8035611edc81611fd3565b60006001600160401b0382111561200657612006611efe565b5060051b60200190565b600082601f83011261202157600080fd5b813561203461202f82611fed565b611fa3565b8082825260208201915060208360051b86010192508583111561205657600080fd5b602085015b8381101561207c57803561206e81611fd3565b83526020928301920161205b565b5095945050505050565b60006020828403121561209857600080fd5b81356001600160401b038111156120ae57600080fd5b820161012081850312156120c157600080fd5b6120c9611f14565b6120d282611ed1565b81526120e060208301611fe2565b602082015260408201356001600160401b038111156120fe57600080fd5b61210a86828501612010565b60408301525060608201356001600160401b0381111561212957600080fd5b61213586828501612010565b60608301525060808201356001600160401b0381111561215457600080fd5b61216086828501612010565b60808301525060a08201356001600160401b0381111561217f57600080fd5b61218b86828501612010565b60a08301525060c08201356001600160401b038111156121aa57600080fd5b6121b686828501612010565b60c08301525060e08201356001600160401b038111156121d557600080fd5b6121e186828501612010565b60e0830152506101008201356001600160401b0381111561220157600080fd5b61220d86828501612010565b61010083015250949350505050565b60006020828403121561222e57600080fd5b81356001600160401b0381111561224457600080fd5b8201601f8101841361225557600080fd5b803561226361202f82611fed565b8082825260208201915060208360051b85010192508683111561228557600080fd5b6020840193505b82841015611eb757833582526020938401939091019061228c565b805161ffff168252600060208201516122c5602085018260ff169052565b5060408201516122da604085018260ff169052565b5060608201516122ef606085018260ff169052565b506080820151612304608085018260ff169052565b5060a082015161231960a085018260ff169052565b5060c082015161232e60c085018260ff169052565b5060e082015161234360e085018260ff169052565b50610100820151610120610100850152611bd1610120850182611d74565b6000602082016020835280845180835260408501915060408160051b86010192506020860160005b828110156123ba57603f198786030184526123a58583516122a7565b94506020938401939190910190600101612389565b50929695505050505050565b8035600081900b8114611edc57600080fd5b600082601f8301126123e957600080fd5b81356020830160006123fd61202f84611fed565b83815260609093028201929050602081018684111561241b57600080fd5b8383101561207c57600060608489031215612434578081fd5b604051606081016001600160401b038111828210171561245657612456611efe565b6040528435915061246682611fd3565b90815260208401359061247882611fd3565b81602082015261248a604086016123c6565b60408201528252506060929092019160200161241b565b600082601f8301126124b257600080fd5b81356020830160006124c661202f84611fed565b83815260069390931b820192905060208101868411156124e557600080fd5b8383101561207c576000604084890312156124fe578081fd5b604080519081016001600160401b038111828210171561252057612520611efe565b6040528435915061253082611fd3565b81815261253f602086016123c6565b602082015280835250506020810190506040830192506124e5565b600080600080600080600080610100898b03121561257757600080fd5b61258089611fe2565b975061258e60208a01611fe2565b965060408901356001600160401b038111156125a957600080fd5b6125b58b828c016123d8565b96505060608901356001600160401b038111156125d157600080fd5b6125dd8b828c016124a1565b95505060808901356001600160401b038111156125f957600080fd5b6126058b828c016124a1565b94505060a08901356001600160401b0381111561262157600080fd5b61262d8b828c016123d8565b93505060c08901356001600160401b0381111561264957600080fd5b6126558b828c01612010565b92505060e08901356001600160401b0381111561267157600080fd5b61267d8b828c01612010565b9150509295985092959890939650565b6004811061184857600080fd5b6000602082840312156126ac57600080fd5b81356117b98161268d565b815160ff16815260208083015160000b9082015260408101610ff9565b6000602082840312156126e657600080fd5b5035919050565b60608101610ff9828460ff815116825260ff6020820151166020830152604081015160000b60408301525050565b60006001600160401b0382111561273457612734611efe565b50601f01601f191660200190565b60006080828403121561275457600080fd5b61275c611f3d565b905081356127698161268d565b815260208201356127798161268d565b6020820152604082013561278c8161268d565b6040820152606082013561279f8161268d565b606082015292915050565b60008183036101608112156127be57600080fd5b6127c6611f5f565b83358152915060c0601f19820112156127de57600080fd5b506127e7611f5f565b60208301356127f581611ec1565b8152604083013561280581611fd3565b6020820152606083013561281881611fd3565b6040820152608083013561282b81611ec1565b606082015260a083013561283e81611fd3565b608082015260c083013561285181611fd3565b60a0820152602082015261286760e08301611fe2565b60408201526128796101008301611fe2565b606082015261288b6101208301611fe2565b608082015261289d6101408301611fe2565b60a082015292915050565b63ffffffff8116811461184857600080fd5b801515811461184857600080fd5b8035611edc816128ba565b600060e082840312156128e557600080fd5b6128ed611f81565b905081356128fa816128a8565b8152602082013561290a81611ec1565b6020820152604082013561291d81611ec1565b60408201526060820135612930816128ba565b6060820152612941608083016128c8565b608082015261295260a083016128c8565b60a082015260c09182013591810191909152919050565b6001600160a01b038116811461184857600080fd5b8035611edc81612969565b60006020828403121561299b57600080fd5b81356001600160401b038111156129b157600080fd5b820161032081850312156129c457600080fd5b6129cc611f5f565b81356001600160401b038111156129e257600080fd5b8201601f810186136129f357600080fd5b8035612a0161202f8261271b565b818152876020838501011115612a1657600080fd5b81602084016020830137600060209282018301528352838101359083015250612a428560408401612742565b6040820152612a548560c084016127aa565b6060820152612a678561022084016128d3565b6080820152612a79610300830161297e565b60a0820152949350505050565b6020815260006117b960208301846122a7565b600060208284031215612aab57600080fd5b81356117b981612969565b634e487b7160e01b600052601160045260246000fd5b600061ffff821661ffff8103612ae457612ae4612ab6565b60010192915050565b634e487b7160e01b600052603260045260246000fd5b600060808284031215612b1557600080fd5b612b1d611f3d565b90508151612b2a8161268d565b81526020820151612b3a8161268d565b60208201526040820151612b4d8161268d565b6040820152606082015161279f8161268d565b8051611edc81611fd3565b6000818303610160811215612b7f57600080fd5b612b87611f5f565b83518152915060c0601f1982011215612b9f57600080fd5b50612ba8611f5f565b6020830151612bb681611ec1565b81526040830151612bc681611fd3565b60208201526060830151612bd981611fd3565b60408201526080830151612bec81611ec1565b606082015260a0830151612bff81611fd3565b608082015260c0830151612c1281611fd3565b60a08201526020820152612c2860e08301612b60565b6040820152612c3a6101008301612b60565b6060820152612c4c6101208301612b60565b608082015261289d6101408301612b60565b8051611edc816128ba565b600060e08284031215612c7b57600080fd5b612c83611f81565b90508151612c90816128a8565b81526020820151612ca081611ec1565b60208201526040820151612cb381611ec1565b60408201526060820151612cc6816128ba565b6060820152612cd760808301612c5e565b6080820152612ce860a08301612c5e565b60a082015260c09182015191810191909152919050565b8051611edc81612969565b600060208284031215612d1c57600080fd5b81516001600160401b03811115612d3257600080fd5b82016103208185031215612d4557600080fd5b612d4d611f5f565b81516001600160401b03811115612d6357600080fd5b8201601f81018613612d7457600080fd5b8051612d8261202f8261271b565b818152876020838501011115612d9757600080fd5b60005b82811015612db657602081850181015183830182015201612d9a565b50600060209282018301528352838101519083015250612dd98560408401612b03565b6040820152612deb8560c08401612b6b565b6060820152612dfe856102208401612c69565b6080820152612a796103008301612cff565b634e487b7160e01b600052602160045260246000fd5b600060018201612e3857612e38612ab6565b5060010190565b600082612e5c57634e487b7160e01b600052601260045260246000fd5b500490565b60ff8181168382160190811115610ff957610ff9612ab6565b8082028115828204841417610ff957610ff9612ab6565b60ff8181168382160290811690818114610aef57610aef612ab6565b600081810b9083900b01607f8113607f1982121715610ff957610ff9612ab656fea264697066735822122054c74e8445971d1ec1af38e37d92c8977f22f8c9687d3b59e784f510b2b94fb264736f6c634300081c0033",
  "linkReferences": {},
  "deployedLinkReferences": {}
}