{
  "_format": "hh-sol-artifact-1",
  "contractName": "Ships",
  "sourceName": "contracts/Ships.sol",
  "abi": [
    {
      "inputs": [
        {
          "internalType": "address",
          "name": "_renderer",
          "type": "address"
        }
      ],
      "stateMutability": "nonpayable",
      "type": "constructor"
    },
    {
      "inputs": [],
      "name": "ArrayLengthMismatch",
      "type": "error"
    },
    {
      "inputs": [
        {
          "internalType": "uint256",
          "name": "",
          "type": "uint256"
        }
      ],
      "name": "CannotRecycleFreeShip",
      "type": "error"
    },
    {
      "inputs": [],
      "name": "ClaimCooldownNotPassed",
      "type": "error"
    },
    {
      "inputs": [
        {
          "internalType": "address",
          "name": "sender",
          "type": "address"
        },
        {
          "internalType": "uint256",
          "name": "tokenId",
          "type": "uint256"
        },
        {
          "internalType": "address",
          "name": "owner",
          "type": "address"
        }
      ],
      "name": "ERC721IncorrectOwner",
      "type": "error"
    },
    {
      "inputs": [
        {
          "internalType": "address",
          "name": "operator",
          "type": "address"
        },
        {
          "internalType": "uint256",
          "name": "tokenId",
          "type": "uint256"
        }
      ],
      "name": "ERC721InsufficientApproval",
      "type": "error"
    },
    {
      "inputs": [
        {
          "internalType": "address",
          "name": "approver",
          "type": "address"
        }
      ],
      "name": "ERC721InvalidApprover",
      "type": "error"
    },
    {
      "inputs": [
        {
          "internalType": "address",
          "name": "operator",
          "type": "address"
        }
      ],
      "name": "ERC721InvalidOperator",
      "type": "error"
    },
    {
      "inputs": [
        {
          "internalType": "address",
          "name": "owner",
          "type": "address"
        }
      ],
      "name": "ERC721InvalidOwner",
      "type": "error"
    },
    {
      "inputs": [
        {
          "internalType": "address",
          "name": "receiver",
          "type": "address"
        }
      ],
      "name": "ERC721InvalidReceiver",
      "type": "error"
    },
    {
      "inputs": [
        {
          "internalType": "address",
          "name": "sender",
          "type": "address"
        }
      ],
      "name": "ERC721InvalidSender",
      "type": "error"
    },
    {
      "inputs": [
        {
          "internalType": "uint256",
          "name": "tokenId",
          "type": "uint256"
        }
      ],
      "name": "ERC721NonexistentToken",
      "type": "error"
    },
    {
      "inputs": [
        {
          "internalType": "address",
          "name": "",
          "type": "address"
        }
      ],
      "name": "InsufficientPurchases",
      "type": "error"
    },
    {
      "inputs": [
        {
          "internalType": "uint256",
          "name": "_tier",
          "type": "uint256"
        },
        {
          "internalType": "uint256",
          "name": "_amount",
          "type": "uint256"
        }
      ],
      "name": "InvalidPurchase",
      "type": "error"
    },
    {
      "inputs": [],
      "name": "InvalidReferral",
      "type": "error"
    },
    {
      "inputs": [
        {
          "internalType": "uint16",
          "name": "",
          "type": "uint16"
        }
      ],
      "name": "InvalidVariant",
      "type": "error"
    },
    {
      "inputs": [],
      "name": "MintPaused",
      "type": "error"
    },
    {
      "inputs": [
        {
          "internalType": "address",
          "name": "",
          "type": "address"
        }
      ],
      "name": "NotAuthorized",
      "type": "error"
    },
    {
      "inputs": [
        {
          "internalType": "uint256",
          "name": "",
          "type": "uint256"
        }
      ],
      "name": "NotYourShip",
      "type": "error"
    },
    {
      "inputs": [
        {
          "internalType": "address",
          "name": "owner",
          "type": "address"
        }
      ],
      "name": "OwnableInvalidOwner",
      "type": "error"
    },
    {
      "inputs": [
        {
          "internalType": "address",
          "name": "account",
          "type": "address"
        }
      ],
      "name": "OwnableUnauthorizedAccount",
      "type": "error"
    },
    {
      "inputs": [],
      "name": "ReentrancyGuardReentrantCall",
      "type": "error"
    },
    {
      "inputs": [],
      "name": "ReferralTransferFailed",
      "type": "error"
    },
    {
      "inputs": [
        {
          "internalType": "uint256",
          "name": "",
          "type": "uint256"
        }
      ],
      "name": "ShipAlreadyDestroyed",
      "type": "error"
    },
    {
      "inputs": [
        {
          "internalType": "uint256",
          "name": "",
          "type": "uint256"
        }
      ],
      "name": "ShipConstructed",
      "type": "error"
    },
    {
      "inputs": [],
      "name": "ShipDestroyed",
      "type": "error"
    },
    {
      "inputs": [
        {
          "internalType": "uint256",
          "name": "",
          "type": "uint256"
        }
      ],
      "name": "ShipInFleet",
      "type": "error"
    },
    {
      "inputs": [],
      "name": "WithdrawalFailed",
      "type": "error"
    },
    {
      "anonymous": false,
      "inputs": [
        {
          "indexed": true,
          "internalType": "address",
          "name": "owner",
          "type": "address"
        },
        {
          "indexed": true,
          "internalType": "address",
          "name": "approved",
          "type": "address"
        },
        {
          "indexed": true,
          "internalType": "uint256",
          "name": "tokenId",
          "type": "uint256"
        }
      ],
      "name": "Approval",
      "type": "event"
    },
    {
      "anonymous": false,
      "inputs": [
        {
          "indexed": true,
          "internalType": "address",
          "name": "owner",
          "type": "address"
        },
        {
          "indexed": true,
          "internalType": "address",
          "name": "operator",
          "type": "address"
        },
        {
          "indexed": false,
          "internalType": "bool",
          "name": "approved",
          "type": "bool"
        }
      ],
      "name": "ApprovalForAll",
      "type": "event"
    },
    {
      "anonymous": false,
      "inputs": [
        {
          "indexed": false,
          "internalType": "uint256",
          "name": "tokenId",
          "type": "uint256"
        }
      ],
      "name": "Locked",
      "type": "event"
    },
    {
      "anonymous": false,
      "inputs": [
        {
          "indexed": false,
          "internalType": "uint256",
          "name": "_tokenId",
          "type": "uint256"
        }
      ],
      "name": "MetadataUpdate",
      "type": "event"
    },
    {
      "anonymous": false,
      "inputs": [
        {
          "indexed": true,
          "internalType": "address",
          "name": "previousOwner",
          "type": "address"
        },
        {
          "indexed": true,
          "internalType": "address",
          "name": "newOwner",
          "type": "address"
        }
      ],
      "name": "OwnershipTransferred",
      "type": "event"
    },
    {
      "anonymous": false,
      "inputs": [
        {
          "indexed": true,
          "internalType": "address",
          "name": "from",
          "type": "address"
        },
        {
          "indexed": true,
          "internalType": "address",
          "name": "to",
          "type": "address"
        },
        {
          "indexed": true,
          "internalType": "uint256",
          "name": "tokenId",
          "type": "uint256"
        }
      ],
      "name": "Transfer",
      "type": "event"
    },
    {
      "anonymous": false,
      "inputs": [
        {
          "indexed": false,
          "internalType": "uint256",
          "name": "tokenId",
          "type": "uint256"
        }
      ],
      "name": "Unlocked",
      "type": "event"
    },
    {
      "inputs": [
        {
          "internalType": "address",
          "name": "",
          "type": "address"
        }
      ],
      "name": "amountPurchased",
      "outputs": [
        {
          "internalType": "uint256",
          "name": "",
          "type": "uint256"
        }
      ],
      "stateMutability": "view",
      "type": "function"
    },
    {
      "inputs": [
        {
          "internalType": "address",
          "name": "to",
          "type": "address"
        },
        {
          "internalType": "uint256",
          "name": "tokenId",
          "type": "uint256"
        }
      ],
      "name": "approve",
      "outputs": [],
      "stateMutability": "nonpayable",
      "type": "function"
    },
    {
      "inputs": [
        {
          "internalType": "address",
          "name": "owner",
          "type": "address"
        }
      ],
      "name": "balanceOf",
      "outputs": [
        {
          "internalType": "uint256",
          "name": "",
          "type": "uint256"
        }
      ],
      "stateMutability": "view",
      "type": "function"
    },
    {
      "inputs": [],
      "name": "claimCooldownPeriod",
      "outputs": [
        {
          "internalType": "uint256",
          "name": "",
          "type": "uint256"
        }
      ],
      "stateMutability": "view",
      "type": "function"
    },
    {
      "inputs": [
        {
          "internalType": "uint16",
          "name": "_variant",
          "type": "uint16"
        }
      ],
      "name": "claimFreeShips",
      "outputs": [],
      "stateMutability": "nonpayable",
      "type": "function"
    },
    {
      "inputs": [],
      "name": "config",
      "outputs": [
        {
          "internalType": "address",
          "name": "gameAddress",
          "type": "address"
        },
        {
          "internalType": "address",
          "name": "lobbyAddress",
          "type": "address"
        },
        {
          "internalType": "address",
          "name": "fleetsAddress",
          "type": "address"
        },
        {
          "internalType": "contract IRenderMetadata",
          "name": "metadataRenderer",
          "type": "address"
        },
        {
          "internalType": "contract IRandomManager",
          "name": "randomManager",
          "type": "address"
        },
        {
          "internalType": "contract IGenerateNewShip",
          "name": "shipGenerator",
          "type": "address"
        },
        {
          "internalType": "contract IShipAttributes",
          "name": "shipAttributes",
          "type": "address"
        }
      ],
      "stateMutability": "view",
      "type": "function"
    },
    {
      "inputs": [],
      "name": "constructAllMyShips",
      "outputs": [],
      "stateMutability": "nonpayable",
      "type": "function"
    },
    {
      "inputs": [
        {
          "internalType": "uint256",
          "name": "_id",
          "type": "uint256"
        }
      ],
      "name": "constructShip",
      "outputs": [],
      "stateMutability": "nonpayable",
      "type": "function"
    },
    {
      "inputs": [
        {
          "internalType": "uint256[]",
          "name": "_ids",
          "type": "uint256[]"
        }
      ],
      "name": "constructShips",
      "outputs": [],
      "stateMutability": "nonpayable",
      "type": "function"
    },
    {
      "inputs": [
        {
          "internalType": "address",
          "name": "_to",
          "type": "address"
        },
        {
          "internalType": "uint256",
          "name": "_amount",
          "type": "uint256"
        },
        {
          "internalType": "uint16",
          "name": "_variant",
          "type": "uint16"
        },
        {
          "internalType": "uint8",
          "name": "_tier",
          "type": "uint8"
        }
      ],
      "name": "createShips",
      "outputs": [],
      "stateMutability": "nonpayable",
      "type": "function"
    },
    {
      "inputs": [
        {
          "internalType": "uint256",
          "name": "_id",
          "type": "uint256"
        },
        {
          "components": [
            {
              "internalType": "string",
              "name": "name",
              "type": "string"
            },
            {
              "internalType": "uint256",
              "name": "id",
              "type": "uint256"
            },
            {
              "components": [
                {
                  "internalType": "enum MainWeapon",
                  "name": "mainWeapon",
                  "type": "uint8"
                },
                {
                  "internalType": "enum Armor",
                  "name": "armor",
                  "type": "uint8"
                },
                {
                  "internalType": "enum Shields",
                  "name": "shields",
                  "type": "uint8"
                },
                {
                  "internalType": "enum Special",
                  "name": "special",
                  "type": "uint8"
                }
              ],
              "internalType": "struct Equipment",
              "name": "equipment",
              "type": "tuple"
            },
            {
              "components": [
                {
                  "internalType": "uint256",
                  "name": "serialNumber",
                  "type": "uint256"
                },
                {
                  "components": [
                    {
                      "internalType": "uint16",
                      "name": "h1",
                      "type": "uint16"
                    },
                    {
                      "internalType": "uint8",
                      "name": "s1",
                      "type": "uint8"
                    },
                    {
                      "internalType": "uint8",
                      "name": "l1",
                      "type": "uint8"
                    },
                    {
                      "internalType": "uint16",
                      "name": "h2",
                      "type": "uint16"
                    },
                    {
                      "internalType": "uint8",
                      "name": "s2",
                      "type": "uint8"
                    },
                    {
                      "internalType": "uint8",
                      "name": "l2",
                      "type": "uint8"
                    },
                    {
                      "internalType": "uint16",
                      "name": "h3",
                      "type": "uint16"
                    },
                    {
                      "internalType": "uint8",
                      "name": "s3",
                      "type": "uint8"
                    },
                    {
                      "internalType": "uint8",
                      "name": "l3",
                      "type": "uint8"
                    }
                  ],
                  "internalType": "struct Colors",
                  "name": "colors",
                  "type": "tuple"
                },
                {
                  "internalType": "uint16",
                  "name": "variant",
                  "type": "uint16"
                },
                {
                  "internalType": "uint8",
                  "name": "accuracy",
                  "type": "uint8"
                },
                {
                  "internalType": "uint8",
                  "name": "hull",
                  "type": "uint8"
                },
                {
                  "internalType": "uint8",
                  "name": "speed",
                  "type": "uint8"
                }
              ],
              "internalType": "struct Traits",
              "name": "traits",
              "type": "tuple"
            },
            {
              "components": [
                {
                  "internalType": "uint32",
                  "name": "shipsDestroyed",
                  "type": "uint32"
                },
                {
                  "internalType": "uint16",
                  "name": "costsVersion",
                  "type": "uint16"
                },
                {
                  "internalType": "uint16",
                  "name": "cost",
                  "type": "uint16"
                },
                {
                  "internalType": "uint16",
                  "name": "modified",
                  "type": "uint16"
                },
                {
                  "internalType": "bool",
                  "name": "shiny",
                  "type": "bool"
                },
                {
                  "internalType": "bool",
                  "name": "constructed",
                  "type": "bool"
                },
                {
                  "internalType": "bool",
                  "name": "inFleet",
                  "type": "bool"
                },
                {
                  "internalType": "bool",
                  "name": "isFreeShip",
                  "type": "bool"
                },
                {
                  "internalType": "uint256",
                  "name": "timestampDestroyed",
                  "type": "uint256"
                }
              ],
              "internalType": "struct ShipData",
              "name": "shipData",
              "type": "tuple"
            },
            {
              "internalType": "address",
              "name": "owner",
              "type": "address"
            }
          ],
          "internalType": "struct Ship",
          "name": "_ship",
          "type": "tuple"
        }
      ],
      "name": "customizeShip",
      "outputs": [],
      "stateMutability": "nonpayable",
      "type": "function"
    },
    {
      "inputs": [
        {
          "internalType": "uint256",
          "name": "tokenId",
          "type": "uint256"
        }
      ],
      "name": "getApproved",
      "outputs": [
        {
          "internalType": "address",
          "name": "",
          "type": "address"
        }
      ],
      "stateMutability": "view",
      "type": "function"
    },
    {
      "inputs": [],
      "name": "getPurchaseInfo",
      "outputs": [
        {
          "internalType": "uint8[]",
          "name": "_tierShips",
          "type": "uint8[]"
        },
        {
          "internalType": "uint256[]",
          "name": "_tierPrices",
          "type": "uint256[]"
        }
      ],
      "stateMutability": "view",
      "type": "function"
    },
    {
      "inputs": [
        {
          "internalType": "uint256",
          "name": "_id",
          "type": "uint256"
        }
      ],
      "name": "getShip",
      "outputs": [
        {
          "components": [
            {
              "internalType": "string",
              "name": "name",
              "type": "string"
            },
            {
              "internalType": "uint256",
              "name": "id",
              "type": "uint256"
            },
            {
              "components": [
                {
                  "internalType": "enum MainWeapon",
                  "name": "mainWeapon",
                  "type": "uint8"
                },
                {
                  "internalType": "enum Armor",
                  "name": "armor",
                  "type": "uint8"
                },
                {
                  "internalType": "enum Shields",
                  "name": "shields",
                  "type": "uint8"
                },
                {
                  "internalType": "enum Special",
                  "name": "special",
                  "type": "uint8"
                }
              ],
              "internalType": "struct Equipment",
              "name": "equipment",
              "type": "tuple"
            },
            {
              "components": [
                {
                  "internalType": "uint256",
                  "name": "serialNumber",
                  "type": "uint256"
                },
                {
                  "components": [
                    {
                      "internalType": "uint16",
                      "name": "h1",
                      "type": "uint16"
                    },
                    {
                      "internalType": "uint8",
                      "name": "s1",
                      "type": "uint8"
                    },
                    {
                      "internalType": "uint8",
                      "name": "l1",
                      "type": "uint8"
                    },
                    {
                      "internalType": "uint16",
                      "name": "h2",
                      "type": "uint16"
                    },
                    {
                      "internalType": "uint8",
                      "name": "s2",
                      "type": "uint8"
                    },
                    {
                      "internalType": "uint8",
                      "name": "l2",
                      "type": "uint8"
                    },
                    {
                      "internalType": "uint16",
                      "name": "h3",
                      "type": "uint16"
                    },
                    {
                      "internalType": "uint8",
                      "name": "s3",
                      "type": "uint8"
                    },
                    {
                      "internalType": "uint8",
                      "name": "l3",
                      "type": "uint8"
                    }
                  ],
                  "internalType": "struct Colors",
                  "name": "colors",
                  "type": "tuple"
                },
                {
                  "internalType": "uint16",
                  "name": "variant",
                  "type": "uint16"
                },
                {
                  "internalType": "uint8",
                  "name": "accuracy",
                  "type": "uint8"
                },
                {
                  "internalType": "uint8",
                  "name": "hull",
                  "type": "uint8"
                },
                {
                  "internalType": "uint8",
                  "name": "speed",
                  "type": "uint8"
                }
              ],
              "internalType": "struct Traits",
              "name": "traits",
              "type": "tuple"
            },
            {
              "components": [
                {
                  "internalType": "uint32",
                  "name": "shipsDestroyed",
                  "type": "uint32"
                },
                {
                  "internalType": "uint16",
                  "name": "costsVersion",
                  "type": "uint16"
                },
                {
                  "internalType": "uint16",
                  "name": "cost",
                  "type": "uint16"
                },
                {
                  "internalType": "uint16",
                  "name": "modified",
                  "type": "uint16"
                },
                {
                  "internalType": "bool",
                  "name": "shiny",
                  "type": "bool"
                },
                {
                  "internalType": "bool",
                  "name": "constructed",
                  "type": "bool"
                },
                {
                  "internalType": "bool",
                  "name": "inFleet",
                  "type": "bool"
                },
                {
                  "internalType": "bool",
                  "name": "isFreeShip",
                  "type": "bool"
                },
                {
                  "internalType": "uint256",
                  "name": "timestampDestroyed",
                  "type": "uint256"
                }
              ],
              "internalType": "struct ShipData",
              "name": "shipData",
              "type": "tuple"
            },
            {
              "internalType": "address",
              "name": "owner",
              "type": "address"
            }
          ],
          "internalType": "struct Ship",
          "name": "",
          "type": "tuple"
        }
      ],
      "stateMutability": "view",
      "type": "function"
    },
    {
      "inputs": [
        {
          "internalType": "address",
          "name": "_owner",
          "type": "address"
        }
      ],
      "name": "getShipIdsOwned",
      "outputs": [
        {
          "internalType": "uint256[]",
          "name": "",
          "type": "uint256[]"
        }
      ],
      "stateMutability": "view",
      "type": "function"
    },
    {
      "inputs": [
        {
          "internalType": "uint256[]",
          "name": "_ids",
          "type": "uint256[]"
        }
      ],
      "name": "getShipsByIds",
      "outputs": [
        {
          "components": [
            {
              "internalType": "string",
              "name": "name",
              "type": "string"
            },
            {
              "internalType": "uint256",
              "name": "id",
              "type": "uint256"
            },
            {
              "components": [
                {
                  "internalType": "enum MainWeapon",
                  "name": "mainWeapon",
                  "type": "uint8"
                },
                {
                  "internalType": "enum Armor",
                  "name": "armor",
                  "type": "uint8"
                },
                {
                  "internalType": "enum Shields",
                  "name": "shields",
                  "type": "uint8"
                },
                {
                  "internalType": "enum Special",
                  "name": "special",
                  "type": "uint8"
                }
              ],
              "internalType": "struct Equipment",
              "name": "equipment",
              "type": "tuple"
            },
            {
              "components": [
                {
                  "internalType": "uint256",
                  "name": "serialNumber",
                  "type": "uint256"
                },
                {
                  "components": [
                    {
                      "internalType": "uint16",
                      "name": "h1",
                      "type": "uint16"
                    },
                    {
                      "internalType": "uint8",
                      "name": "s1",
                      "type": "uint8"
                    },
                    {
                      "internalType": "uint8",
                      "name": "l1",
                      "type": "uint8"
                    },
                    {
                      "internalType": "uint16",
                      "name": "h2",
                      "type": "uint16"
                    },
                    {
                      "internalType": "uint8",
                      "name": "s2",
                      "type": "uint8"
                    },
                    {
                      "internalType": "uint8",
                      "name": "l2",
                      "type": "uint8"
                    },
                    {
                      "internalType": "uint16",
                      "name": "h3",
                      "type": "uint16"
                    },
                    {
                      "internalType": "uint8",
                      "name": "s3",
                      "type": "uint8"
                    },
                    {
                      "internalType": "uint8",
                      "name": "l3",
                      "type": "uint8"
                    }
                  ],
                  "internalType": "struct Colors",
                  "name": "colors",
                  "type": "tuple"
                },
                {
                  "internalType": "uint16",
                  "name": "variant",
                  "type": "uint16"
                },
                {
                  "internalType": "uint8",
                  "name": "accuracy",
                  "type": "uint8"
                },
                {
                  "internalType": "uint8",
                  "name": "hull",
                  "type": "uint8"
                },
                {
                  "internalType": "uint8",
                  "name": "speed",
                  "type": "uint8"
                }
              ],
              "internalType": "struct Traits",
              "name": "traits",
              "type": "tuple"
            },
            {
              "components": [
                {
                  "internalType": "uint32",
                  "name": "shipsDestroyed",
                  "type": "uint32"
                },
                {
                  "internalType": "uint16",
                  "name": "costsVersion",
                  "type": "uint16"
                },
                {
                  "internalType": "uint16",
                  "name": "cost",
                  "type": "uint16"
                },
                {
                  "internalType": "uint16",
                  "name": "modified",
                  "type": "uint16"
                },
                {
                  "internalType": "bool",
                  "name": "shiny",
                  "type": "bool"
                },
                {
                  "internalType": "bool",
                  "name": "constructed",
                  "type": "bool"
                },
                {
                  "internalType": "bool",
                  "name": "inFleet",
                  "type": "bool"
                },
                {
                  "internalType": "bool",
                  "name": "isFreeShip",
                  "type": "bool"
                },
                {
                  "internalType": "uint256",
                  "name": "timestampDestroyed",
                  "type": "uint256"
                }
              ],
              "internalType": "struct ShipData",
              "name": "shipData",
              "type": "tuple"
            },
            {
              "internalType": "address",
              "name": "owner",
              "type": "address"
            }
          ],
          "internalType": "struct Ship[]",
          "name": "",
          "type": "tuple[]"
        }
      ],
      "stateMutability": "view",
      "type": "function"
    },
    {
      "inputs": [
        {
          "internalType": "uint256",
          "name": "_trait",
          "type": "uint256"
        }
      ],
      "name": "getTierOfTrait",
      "outputs": [
        {
          "internalType": "uint8",
          "name": "",
          "type": "uint8"
        }
      ],
      "stateMutability": "pure",
      "type": "function"
    },
    {
      "inputs": [
        {
          "internalType": "address",
          "name": "",
          "type": "address"
        }
      ],
      "name": "isAllowedToCreateShips",
      "outputs": [
        {
          "internalType": "bool",
          "name": "",
          "type": "bool"
        }
      ],
      "stateMutability": "view",
      "type": "function"
    },
    {
      "inputs": [
        {
          "internalType": "address",
          "name": "owner",
          "type": "address"
        },
        {
          "internalType": "address",
          "name": "operator",
          "type": "address"
        }
      ],
      "name": "isApprovedForAll",
      "outputs": [
        {
          "internalType": "bool",
          "name": "",
          "type": "bool"
        }
      ],
      "stateMutability": "view",
      "type": "function"
    },
    {
      "inputs": [
        {
          "internalType": "uint256",
          "name": "_id",
          "type": "uint256"
        }
      ],
      "name": "isShipDestroyed",
      "outputs": [
        {
          "internalType": "bool",
          "name": "",
          "type": "bool"
        }
      ],
      "stateMutability": "view",
      "type": "function"
    },
    {
      "inputs": [
        {
          "internalType": "address",
          "name": "",
          "type": "address"
        }
      ],
      "name": "lastClaimTimestamp",
      "outputs": [
        {
          "internalType": "uint256",
          "name": "",
          "type": "uint256"
        }
      ],
      "stateMutability": "view",
      "type": "function"
    },
    {
      "inputs": [],
      "name": "maxVariant",
      "outputs": [
        {
          "internalType": "uint16",
          "name": "",
          "type": "uint16"
        }
      ],
      "stateMutability": "view",
      "type": "function"
    },
    {
      "inputs": [],
      "name": "name",
      "outputs": [
        {
          "internalType": "string",
          "name": "",
          "type": "string"
        }
      ],
      "stateMutability": "view",
      "type": "function"
    },
    {
      "inputs": [],
      "name": "owner",
      "outputs": [
        {
          "internalType": "address",
          "name": "",
          "type": "address"
        }
      ],
      "stateMutability": "view",
      "type": "function"
    },
    {
      "inputs": [
        {
          "internalType": "uint256",
          "name": "tokenId",
          "type": "uint256"
        }
      ],
      "name": "ownerOf",
      "outputs": [
        {
          "internalType": "address",
          "name": "",
          "type": "address"
        }
      ],
      "stateMutability": "view",
      "type": "function"
    },
    {
      "inputs": [],
      "name": "paused",
      "outputs": [
        {
          "internalType": "bool",
          "name": "",
          "type": "bool"
        }
      ],
      "stateMutability": "view",
      "type": "function"
    },
    {
      "inputs": [
        {
          "internalType": "address",
          "name": "_to",
          "type": "address"
        },
        {
          "internalType": "uint8",
          "name": "_tier",
          "type": "uint8"
        },
        {
          "internalType": "address",
          "name": "_referral",
          "type": "address"
        },
        {
          "internalType": "uint16",
          "name": "_variant",
          "type": "uint16"
        }
      ],
      "name": "purchaseWithFlow",
      "outputs": [],
      "stateMutability": "payable",
      "type": "function"
    },
    {
      "inputs": [],
      "name": "recycleReward",
      "outputs": [
        {
          "internalType": "uint256",
          "name": "",
          "type": "uint256"
        }
      ],
      "stateMutability": "view",
      "type": "function"
    },
    {
      "inputs": [
        {
          "internalType": "address",
          "name": "",
          "type": "address"
        }
      ],
      "name": "referralCount",
      "outputs": [
        {
          "internalType": "uint256",
          "name": "",
          "type": "uint256"
        }
      ],
      "stateMutability": "view",
      "type": "function"
    },
    {
      "inputs": [],
      "name": "renounceOwnership",
      "outputs": [],
      "stateMutability": "nonpayable",
      "type": "function"
    },
    {
      "inputs": [
        {
          "internalType": "address",
          "name": "from",
          "type": "address"
        },
        {
          "internalType": "address",
          "name": "to",
          "type": "address"
        },
        {
          "internalType": "uint256",
          "name": "tokenId",
          "type": "uint256"
        }
      ],
      "name": "safeTransferFrom",
      "outputs": [],
      "stateMutability": "nonpayable",
      "type": "function"
    },
    {
      "inputs": [
        {
          "internalType": "address",
          "name": "from",
          "type": "address"
        },
        {
          "internalType": "address",
          "name": "to",
          "type": "address"
        },
        {
          "internalType": "uint256",
          "name": "tokenId",
          "type": "uint256"
        },
        {
          "internalType": "bytes",
          "name": "data",
          "type": "bytes"
        }
      ],
      "name": "safeTransferFrom",
      "outputs": [],
      "stateMutability": "nonpayable",
      "type": "function"
    },
    {
      "inputs": [
        {
          "internalType": "address",
          "name": "operator",
          "type": "address"
        },
        {
          "internalType": "bool",
          "name": "approved",
          "type": "bool"
        }
      ],
      "name": "setApprovalForAll",
      "outputs": [],
      "stateMutability": "nonpayable",
      "type": "function"
    },
    {
      "inputs": [
        {
          "internalType": "uint256",
          "name": "_newCooldownPeriod",
          "type": "uint256"
        }
      ],
      "name": "setClaimCooldownPeriod",
      "outputs": [],
      "stateMutability": "nonpayable",
      "type": "function"
    },
    {
      "inputs": [
        {
          "internalType": "address",
          "name": "_gameAddress",
          "type": "address"
        },
        {
          "internalType": "address",
          "name": "_lobbyAddress",
          "type": "address"
        },
        {
          "internalType": "address",
          "name": "_fleetsAddress",
          "type": "address"
        },
        {
          "internalType": "address",
          "name": "_shipGenerator",
          "type": "address"
        },
        {
          "internalType": "address",
          "name": "_randomManager",
          "type": "address"
        },
        {
          "internalType": "address",
          "name": "_metadataRenderer",
          "type": "address"
        },
        {
          "internalType": "address",
          "name": "_shipAttributes",
          "type": "address"
        },
        {
          "internalType": "address",
          "name": "_universalCredits",
          "type": "address"
        }
      ],
      "name": "setConfig",
      "outputs": [],
      "stateMutability": "nonpayable",
      "type": "function"
    },
    {
      "inputs": [
        {
          "internalType": "uint256",
          "name": "_id",
          "type": "uint256"
        }
      ],
      "name": "setCostOfShip",
      "outputs": [],
      "stateMutability": "nonpayable",
      "type": "function"
    },
    {
      "inputs": [
        {
          "internalType": "uint256",
          "name": "_id",
          "type": "uint256"
        },
        {
          "internalType": "bool",
          "name": "_inFleet",
          "type": "bool"
        }
      ],
      "name": "setInFleet",
      "outputs": [],
      "stateMutability": "nonpayable",
      "type": "function"
    },
    {
      "inputs": [
        {
          "internalType": "address",
          "name": "_address",
          "type": "address"
        },
        {
          "internalType": "bool",
          "name": "_isAllowed",
          "type": "bool"
        }
      ],
      "name": "setIsAllowedToCreateShips",
      "outputs": [],
      "stateMutability": "nonpayable",
      "type": "function"
    },
    {
      "inputs": [
        {
          "internalType": "uint16",
          "name": "_maxVariant",
          "type": "uint16"
        }
      ],
      "name": "setMaxVariant",
      "outputs": [],
      "stateMutability": "nonpayable",
      "type": "function"
    },
    {
      "inputs": [
        {
          "internalType": "bool",
          "name": "_paused",
          "type": "bool"
        }
      ],
      "name": "setPaused",
      "outputs": [],
      "stateMutability": "nonpayable",
      "type": "function"
    },
    {
      "inputs": [
        {
          "internalType": "uint8[]",
          "name": "_tierShips",
          "type": "uint8[]"
        },
        {
          "internalType": "uint256[]",
          "name": "_tierPrices",
          "type": "uint256[]"
        }
      ],
      "name": "setPurchaseInfo",
      "outputs": [],
      "stateMutability": "nonpayable",
      "type": "function"
    },
    {
      "inputs": [
        {
          "internalType": "uint256",
          "name": "_newReward",
          "type": "uint256"
        }
      ],
      "name": "setRecycleReward",
      "outputs": [],
      "stateMutability": "nonpayable",
      "type": "function"
    },
    {
      "inputs": [
        {
          "internalType": "uint256",
          "name": "_id",
          "type": "uint256"
        },
        {
          "internalType": "uint256",
          "name": "_destroyerId",
          "type": "uint256"
        }
      ],
      "name": "setTimestampDestroyed",
      "outputs": [],
      "stateMutability": "nonpayable",
      "type": "function"
    },
    {
      "inputs": [
        {
          "internalType": "uint256[]",
          "name": "_shipIds",
          "type": "uint256[]"
        }
      ],
      "name": "shipBreaker",
      "outputs": [],
      "stateMutability": "nonpayable",
      "type": "function"
    },
    {
      "inputs": [],
      "name": "shipCount",
      "outputs": [
        {
          "internalType": "uint256",
          "name": "",
          "type": "uint256"
        }
      ],
      "stateMutability": "view",
      "type": "function"
    },
    {
      "inputs": [
        {
          "internalType": "uint256",
          "name": "",
          "type": "uint256"
        }
      ],
      "name": "ships",
      "outputs": [
        {
          "internalType": "string",
          "name": "name",
          "type": "string"
        },
        {
          "internalType": "uint256",
          "name": "id",
          "type": "uint256"
        },
        {
          "components": [
            {
              "internalType": "enum MainWeapon",
              "name": "mainWeapon",
              "type": "uint8"
            },
            {
              "internalType": "enum Armor",
              "name": "armor",
              "type": "uint8"
            },
            {
              "internalType": "enum Shields",
              "name": "shields",
              "type": "uint8"
            },
            {
              "internalType": "enum Special",
              "name": "special",
              "type": "uint8"
            }
          ],
          "internalType": "struct Equipment",
          "name": "equipment",
          "type": "tuple"
        },
        {
          "components": [
            {
              "internalType": "uint256",
              "name": "serialNumber",
              "type": "uint256"
            },
            {
              "components": [
                {
                  "internalType": "uint16",
                  "name": "h1",
                  "type": "uint16"
                },
                {
                  "internalType": "uint8",
                  "name": "s1",
                  "type": "uint8"
                },
                {
                  "internalType": "uint8",
                  "name": "l1",
                  "type": "uint8"
                },
                {
                  "internalType": "uint16",
                  "name": "h2",
                  "type": "uint16"
                },
                {
                  "internalType": "uint8",
                  "name": "s2",
                  "type": "uint8"
                },
                {
                  "internalType": "uint8",
                  "name": "l2",
                  "type": "uint8"
                },
                {
                  "internalType": "uint16",
                  "name": "h3",
                  "type": "uint16"
                },
                {
                  "internalType": "uint8",
                  "name": "s3",
                  "type": "uint8"
                },
                {
                  "internalType": "uint8",
                  "name": "l3",
                  "type": "uint8"
                }
              ],
              "internalType": "struct Colors",
              "name": "colors",
              "type": "tuple"
            },
            {
              "internalType": "uint16",
              "name": "variant",
              "type": "uint16"
            },
            {
              "internalType": "uint8",
              "name": "accuracy",
              "type": "uint8"
            },
            {
              "internalType": "uint8",
              "name": "hull",
              "type": "uint8"
            },
            {
              "internalType": "uint8",
              "name": "speed",
              "type": "uint8"
            }
          ],
          "internalType": "struct Traits",
          "name": "traits",
          "type": "tuple"
        },
        {
          "components": [
            {
              "internalType": "uint32",
              "name": "shipsDestroyed",
              "type": "uint32"
            },
            {
              "internalType": "uint16",
              "name": "costsVersion",
              "type": "uint16"
            },
            {
              "internalType": "uint16",
              "name": "cost",
              "type": "uint16"
            },
            {
              "internalType": "uint16",
              "name": "modified",
              "type": "uint16"
            },
            {
              "internalType": "bool",
              "name": "shiny",
              "type": "bool"
            },
            {
              "internalType": "bool",
              "name": "constructed",
              "type": "bool"
            },
            {
              "internalType": "bool",
              "name": "inFleet",
              "type": "bool"
            },
            {
              "internalType": "bool",
              "name": "isFreeShip",
              "type": "bool"
            },
            {
              "internalType": "uint256",
              "name": "timestampDestroyed",
              "type": "uint256"
            }
          ],
          "internalType": "struct ShipData",
          "name": "shipData",
          "type": "tuple"
        },
        {
          "internalType": "address",
          "name": "owner",
          "type": "address"
        }
      ],
      "stateMutability": "view",
      "type": "function"
    },
    {
      "inputs": [
        {
          "internalType": "bytes4",
          "name": "interfaceId",
          "type": "bytes4"
        }
      ],
      "name": "supportsInterface",
      "outputs": [
        {
          "internalType": "bool",
          "name": "",
          "type": "bool"
        }
      ],
      "stateMutability": "view",
      "type": "function"
    },
    {
      "inputs": [],
      "name": "symbol",
      "outputs": [
        {
          "internalType": "string",
          "name": "",
          "type": "string"
        }
      ],
      "stateMutability": "view",
      "type": "function"
    },
    {
      "inputs": [
        {
          "internalType": "uint256",
          "name": "",
          "type": "uint256"
        }
      ],
      "name": "tierPrices",
      "outputs": [
        {
          "internalType": "uint256",
          "name": "",
          "type": "uint256"
        }
      ],
      "stateMutability": "view",
      "type": "function"
    },
    {
      "inputs": [
        {
          "internalType": "uint256",
          "name": "",
          "type": "uint256"
        }
      ],
      "name": "tierShips",
      "outputs": [
        {
          "internalType": "uint8",
          "name": "",
          "type": "uint8"
        }
      ],
      "stateMutability": "view",
      "type": "function"
    },
    {
      "inputs": [
        {
          "internalType": "uint256",
          "name": "_id",
          "type": "uint256"
        }
      ],
      "name": "tokenURI",
      "outputs": [
        {
          "internalType": "string",
          "name": "",
          "type": "string"
        }
      ],
      "stateMutability": "view",
      "type": "function"
    },
    {
      "inputs": [
        {
          "internalType": "address",
          "name": "from",
          "type": "address"
        },
        {
          "internalType": "address",
          "name": "to",
          "type": "address"
        },
        {
          "internalType": "uint256",
          "name": "tokenId",
          "type": "uint256"
        }
      ],
      "name": "transferFrom",
      "outputs": [],
      "stateMutability": "nonpayable",
      "type": "function"
    },
    {
      "inputs": [
        {
          "internalType": "address",
          "name": "newOwner",
          "type": "address"
        }
      ],
      "name": "transferOwnership",
      "outputs": [],
      "stateMutability": "nonpayable",
      "type": "function"
    },
    {
      "inputs": [],
      "name": "universalCredits",
      "outputs": [
        {
          "internalType": "contract IUniversalCredits",
          "name": "",
          "type": "address"
        }
      ],
      "stateMutability": "view",
      "type": "function"
    },
    {
      "inputs": [],
      "name": "withdraw",
      "outputs": [],
      "stateMutability": "nonpayable",
      "type": "function"
    }
  ],
  "bytecode": "0x60806040526224ea00600d556018805462ffff00191661010017905567016345785d8a0000601b5534801561003357600080fd5b5060405161639138038061639183398101604081905261005291610303565b336040518060400160405280600e81526020016d57617270666c6f7720536869707360901b815250604051806040016040528060048152602001630534849560e41b81525081600090816100a691906103d2565b5060016100b382826103d2565b5050506001600160a01b0381166100e457604051631e4fbdf760e01b81526000600482015260240160405180910390fd5b6100ed816101b0565b506001600755601280546001600160a01b0319166001600160a01b0383161790556040805160a0810182526005808252600b6020830152601c92820192909252603c6060820152607d60808201526101489160169190610202565b506040805160a0810182526745400a8fd53300008152678aa39c121a270000602082015268015ace5098e9030000918101919091526802b5c0282441c70000606082015268056ba3d73af34f000060808201526101a99060179060056102a8565b5050610490565b600680546001600160a01b038381166001600160a01b0319831681179093556040519116919082907f8be0079c531659141344cd1fd0a4f28419497f9722a3daafe3b4186f6b6457e090600090a35050565b82805482825590600052602060002090601f016020900481019282156102985791602002820160005b8382111561026957835183826101000a81548160ff021916908360ff160217905550926020019260010160208160000104928301926001030261022b565b80156102965782816101000a81549060ff0219169055600101602081600001049283019260010302610269565b505b506102a49291506102ee565b5090565b828054828255906000526020600020908101928215610298579160200282015b8281111561029857825182906001600160481b03169055916020019190600101906102c8565b5b808211156102a457600081556001016102ef565b60006020828403121561031557600080fd5b81516001600160a01b038116811461032c57600080fd5b9392505050565b634e487b7160e01b600052604160045260246000fd5b600181811c9082168061035d57607f821691505b60208210810361037d57634e487b7160e01b600052602260045260246000fd5b50919050565b601f8211156103cd57806000526020600020601f840160051c810160208510156103aa5750805b601f840160051c820191505b818110156103ca57600081556001016103b6565b50505b505050565b81516001600160401b038111156103eb576103eb610333565b6103ff816103f98454610349565b84610383565b6020601f821160018114610433576000831561041b5750848201515b600019600385901b1c1916600184901b1784556103ca565b600084815260208120601f198516915b828110156104635787850151825560209485019460019092019101610443565b50848210156104815786840151600019600387901b60f8161c191681555b50505050600190811b01905550565b615ef28061049f6000396000f3fe60806040526004361061034f5760003560e01c80636e0f7a48116101c6578063977216c2116100f7578063db74559b11610095578063e6b5c3351161006f578063e6b5c33514610a9f578063e985e9c514610abf578063f25a034214610adf578063f2fde38b14610b0c57600080fd5b8063db74559b14610a32578063dd77071214610a5f578063dd81d5bf14610a7f57600080fd5b8063b88d4fde116100d1578063b88d4fde146109af578063bd9d518b146109cf578063c87b56dd146109fc578063d08acd9314610a1c57600080fd5b8063977216c214610959578063a22cb46514610979578063b4e847a01461099957600080fd5b80637d9e9d30116101645780638c79d7e31161013e5780638c79d7e3146108d45780638da5cb5b146108f4578063959601011461091257806395d89b411461094457600080fd5b80637d9e9d301461087f5780637eebe99d1461089f5780638163997c146108bf57600080fd5b8063715018a6116101a0578063715018a61461078c57806375bfe420146107a157806378fa901c146107d157806379502c55146107f157600080fd5b80636e0f7a481461073657806370a0823114610756578063710cbc441461077657600080fd5b80634025b22d116102a057806359e651e01161023e578063600917ff11610218578063600917ff1461069e57806361212431146106b15780636352211e146106e357806368382aad1461070357600080fd5b806359e651e0146106375780635b91bbca146106645780635c975abb1461068457600080fd5b8063446c00f71161027a578063446c00f7146105a257806348cfc19e146105c25780634d4e8dfa146105e5578063514c2ece1461061757600080fd5b80634025b22d1461053557806342842e0e146105625780634346b1501461058257600080fd5b806311a960cd1161030d5780631a0111aa116102e75780631a0111aa146104c057806323b872dd146104e0578063300eccab146105005780633ccfd60b1461052057600080fd5b806311a960cd1461046057806316c38b3c1461048057806317225941146104a057600080fd5b8062dbc7381461035457806301ffc9a71461037657806306fdde03146103ab578063074ba79d146103cd578063081812fc14610408578063095ea7b314610440575b600080fd5b34801561036057600080fd5b5061037461036f36600461443f565b610b2c565b005b34801561038257600080fd5b506103966103913660046144fe565b610bc2565b60405190151581526020015b60405180910390f35b3480156103b757600080fd5b506103c0610c14565b6040516103a2919061456b565b3480156103d957600080fd5b506103fa6103e836600461457e565b600c6020526000908152604090205481565b6040519081526020016103a2565b34801561041457600080fd5b5061042861042336600461459b565b610ca6565b6040516001600160a01b0390911681526020016103a2565b34801561044c57600080fd5b5061037461045b3660046145b4565b610ccf565b34801561046c57600080fd5b5061037461047b3660046145e0565b610cde565b34801561048c57600080fd5b5061037461049b36600461461b565b610ea3565b3480156104ac57600080fd5b50601a54610428906001600160a01b031681565b3480156104cc57600080fd5b506103746104db366004614683565b610ebe565b3480156104ec57600080fd5b506103746104fb3660046146f2565b610f06565b34801561050c57600080fd5b506103fa61051b36600461459b565b610f91565b34801561052c57600080fd5b50610374610fb2565b34801561054157600080fd5b5061055561055036600461459b565b611042565b6040516103a291906149a6565b34801561056e57600080fd5b5061037461057d3660046146f2565b6114e1565b34801561058e57600080fd5b5061037461059d3660046149b9565b611501565b3480156105ae57600080fd5b506103746105bd36600461459b565b611688565b3480156105ce57600080fd5b506105d76116d7565b6040516103a2929190614a36565b3480156105f157600080fd5b5061060561060036600461459b565b6117a8565b6040516103a296959493929190614a91565b34801561062357600080fd5b5061037461063236600461459b565b611c0e565b34801561064357600080fd5b5061065761065236600461457e565b611c1b565b6040516103a29190614af3565b34801561067057600080fd5b5061037461067f366004614b21565b611c3f565b34801561069057600080fd5b506018546103969060ff1681565b6103746106ac366004614b58565b611cd8565b3480156106bd57600080fd5b506106d16106cc36600461459b565b611e5c565b60405160ff90911681526020016103a2565b3480156106ef57600080fd5b506104286106fe36600461459b565b611e90565b34801561070f57600080fd5b5060185461072390610100900461ffff1681565b60405161ffff90911681526020016103a2565b34801561074257600080fd5b506106d161075136600461459b565b611e9b565b34801561076257600080fd5b506103fa61077136600461457e565b611ec3565b34801561078257600080fd5b506103fa600d5481565b34801561079857600080fd5b50610374611f0b565b3480156107ad57600080fd5b506103966107bc36600461457e565b60196020526000908152604090205460ff1681565b3480156107dd57600080fd5b506103746107ec366004614bb4565b611f1f565b3480156107fd57600080fd5b50600f54601054601154601254601354601454601554610836966001600160a01b03908116968116958116948116938116928116911687565b604080516001600160a01b039889168152968816602088015294871694860194909452918516606085015284166080840152831660a083015290911660c082015260e0016103a2565b34801561088b57600080fd5b5061037461089a3660046149b9565b611fed565b3480156108ab57600080fd5b506103746108ba366004614bfc565b612021565b3480156108cb57600080fd5b50610374612105565b3480156108e057600080fd5b506103746108ef366004614c2c565b612199565b34801561090057600080fd5b506006546001600160a01b0316610428565b34801561091e57600080fd5b5061039661092d36600461459b565b600090815260086020526040902060070154151590565b34801561095057600080fd5b506103c06121cc565b34801561096557600080fd5b5061037461097436600461459b565b6121db565b34801561098557600080fd5b50610374610994366004614c2c565b6121e8565b3480156109a557600080fd5b506103fa60095481565b3480156109bb57600080fd5b506103746109ca366004614d72565b6121f3565b3480156109db57600080fd5b506103fa6109ea36600461457e565b600b6020526000908152604090205481565b348015610a0857600080fd5b506103c0610a1736600461459b565b61220b565b348015610a2857600080fd5b506103fa601b5481565b348015610a3e57600080fd5b506103fa610a4d36600461457e565b600e6020526000908152604090205481565b348015610a6b57600080fd5b50610374610a7a366004614df1565b61228f565b348015610a8b57600080fd5b50610374610a9a36600461459b565b6125ef565b348015610aab57600080fd5b50610374610aba366004614b21565b612b53565b348015610acb57600080fd5b50610396610ada366004614e34565b612b79565b348015610aeb57600080fd5b50610aff610afa3660046149b9565b612ba7565b6040516103a29190614e62565b348015610b1857600080fd5b50610374610b2736600461457e565b6130e5565b610b34613120565b600f80546001600160a01b03199081166001600160a01b039a8b1617909155601080548216988a1698909817909755601180548816968916969096179095556014805487169488169490941790935560138054861692871692909217909155601280548516918616919091179055601580548416918516919091179055601a80549092169216919091179055565b60006001600160e01b031982166380ac58cd60e01b1480610bf357506001600160e01b03198216635b5e139f60e01b145b80610c0e57506301ffc9a760e01b6001600160e01b03198316145b92915050565b606060008054610c2390614ec7565b80601f0160208091040260200160405190810160405280929190818152602001828054610c4f90614ec7565b8015610c9c5780601f10610c7157610100808354040283529160200191610c9c565b820191906000526020600020905b815481529060010190602001808311610c7f57829003601f168201915b5050505050905090565b6000610cb18261314d565b506000828152600460205260409020546001600160a01b0316610c0e565b610cda828233613186565b5050565b6006546001600160a01b03163314801590610d045750600f546001600160a01b03163314155b15610d2957604051634a0bfec160e01b81523360048201526024015b60405180910390fd5b60008281526008602052604090206007015415610d5c5760405163163fe02b60e11b815260048101839052602401610d20565b600082815260086020526040908190204260079091015551600080516020615e9d83398151915290610d919084815260200190565b60405180910390a16000818152600860205260408120600601805463ffffffff1691610dbc83614f17565b825463ffffffff9182166101009390930a928302919092021990911617905550600081815260086020819052604090912001546001600160a01b03168015610e6b57601a54601b546040516340c10f1960e01b81526001600160a01b03848116600483015260029290921c60248201529116906340c10f1990604401600060405180830381600087803b158015610e5257600080fd5b505af1158015610e66573d6000803e3d6000fd5b505050505b6040518381527ff8e1a15aba9398e019f0b49df1a4fde98ee17ae345cb5f6b5e2c27f5033e8ce79060200160405180910390a1505050565b610eab613120565b6018805460ff1916911515919091179055565b610ec6613120565b828114610ee65760405163512509d360e11b815260040160405180910390fd5b610ef260168585614203565b50610eff601783836142ac565b5050505050565b6001600160a01b038216610f3057604051633250574960e11b815260006004820152602401610d20565b6000610f3d838333613193565b9050836001600160a01b0316816001600160a01b031614610f8b576040516364283d7b60e01b81526001600160a01b0380861660048301526024820184905282166044820152606401610d20565b50505050565b60178181548110610fa157600080fd5b600091825260209091200154905081565b610fba613120565b6000610fce6006546001600160a01b031690565b6001600160a01b03164760405160006040518083038185875af1925050503d8060008114611018576040519150601f19603f3d011682016040523d82523d6000602084013e61101d565b606091505b505090508061103f576040516327fcd9d160e01b815260040160405180910390fd5b50565b61104a6142e7565b60008281526008602052604090819020815160c0810190925280548290829061107290614ec7565b80601f016020809104026020016040519081016040528092919081815260200182805461109e90614ec7565b80156110eb5780601f106110c0576101008083540402835291602001916110eb565b820191906000526020600020905b8154815290600101906020018083116110ce57829003601f168201915b5050509183525050600182015460208201526040805160808101825260028401805492909301929091829060ff16600781111561112a5761112a614733565b600781111561113b5761113b614733565b81528154602090910190610100900460ff16600781111561115e5761115e614733565b600781111561116f5761116f614733565b8152815460209091019062010000900460ff16600781111561119357611193614733565b60078111156111a4576111a4614733565b815281546020909101906301000000900460ff1660078111156111c9576111c9614733565b60078111156111da576111da614733565b815250508152602001600382016040518060c00160405290816000820154815260200160018201604051806101200160405290816000820160009054906101000a900461ffff1661ffff1661ffff1681526020016000820160029054906101000a900460ff1660ff1660ff1681526020016000820160039054906101000a900460ff1660ff1660ff1681526020016000820160049054906101000a900461ffff1661ffff1661ffff1681526020016000820160069054906101000a900460ff1660ff1660ff1681526020016000820160079054906101000a900460ff1660ff1660ff1681526020016000820160089054906101000a900461ffff1661ffff1661ffff16815260200160008201600a9054906101000a900460ff1660ff1660ff16815260200160008201600b9054906101000a900460ff1660ff1660ff168152505081526020016002820160009054906101000a900461ffff1661ffff1661ffff1681526020016002820160029054906101000a900460ff1660ff1660ff1681526020016002820160039054906101000a900460ff1660ff1660ff1681526020016002820160049054906101000a900460ff1660ff1660ff1681525050815260200160068201604051806101200160405290816000820160009054906101000a900463ffffffff1663ffffffff1663ffffffff1681526020016000820160049054906101000a900461ffff1661ffff1661ffff1681526020016000820160069054906101000a900461ffff1661ffff1661ffff1681526020016000820160089054906101000a900461ffff1661ffff1661ffff16815260200160008201600a9054906101000a900460ff1615151515815260200160008201600b9054906101000a900460ff1615151515815260200160008201600c9054906101000a900460ff1615151515815260200160008201600d9054906101000a900460ff1615151515815260200160018201548152505081526020016008820160009054906101000a90046001600160a01b03166001600160a01b03166001600160a01b0316815250509050919050565b6114fc838383604051806020016040528060008152506121f3565b505050565b611509613397565b6000805b8281101561161157600084848381811061152957611529614f3c565b60209081029290920135600081815260089384905260409020928301549093506001600160a01b0316331490506115755760405162dd34af60e41b815260048101839052602401610d20565b6006810154600160681b900460ff16156115a55760405163c4d9079d60e01b815260048101839052602401610d20565b600781015415156000816115bb57601b546115c2565b601b5460011c5b426007850155604051858152909150600080516020615e9d8339815191529060200160405180910390a16115f5846133c1565b6115ff8187614f52565b9550506001909301925061150d915050565b50801561167d57601a546040516340c10f1960e01b8152336004820152602481018390526001600160a01b03909116906340c10f1990604401600060405180830381600087803b15801561166457600080fd5b505af1158015611678573d6000803e3d6000fd5b505050505b50610cda6001600755565b6006546001600160a01b031633148015906116ae5750600f546001600160a01b03163314155b156116ce57604051634a0bfec160e01b8152336004820152602401610d20565b61103f816133fc565b606080601660178180548060200260200160405190810160405280929190818152602001828054801561174757602002820191906000526020600020906000905b825461010083900a900460ff168152602060019283018181049485019490930390920291018084116117185790505b505050505091508080548060200260200160405190810160405280929190818152602001828054801561179957602002820191906000526020600020905b815481526020019060010190808311611785575b50505050509050915091509091565b6008602052600090815260409020805481906117c390614ec7565b80601f01602080910402602001604051908101604052809291908181526020018280546117ef90614ec7565b801561183c5780601f106118115761010080835404028352916020019161183c565b820191906000526020600020905b81548152906001019060200180831161181f57829003601f168201915b505050505090806001015490806002016040518060800160405290816000820160009054906101000a900460ff16600781111561187b5761187b614733565b600781111561188c5761188c614733565b81528154602090910190610100900460ff1660078111156118af576118af614733565b60078111156118c0576118c0614733565b8152815460209091019062010000900460ff1660078111156118e4576118e4614733565b60078111156118f5576118f5614733565b815281546020909101906301000000900460ff16600781111561191a5761191a614733565b600781111561192b5761192b614733565b8152505090806003016040518060c00160405290816000820154815260200160018201604051806101200160405290816000820160009054906101000a900461ffff1661ffff1661ffff1681526020016000820160029054906101000a900460ff1660ff1660ff1681526020016000820160039054906101000a900460ff1660ff1660ff1681526020016000820160049054906101000a900461ffff1661ffff1661ffff1681526020016000820160069054906101000a900460ff1660ff1660ff1681526020016000820160079054906101000a900460ff1660ff1660ff1681526020016000820160089054906101000a900461ffff1661ffff1661ffff16815260200160008201600a9054906101000a900460ff1660ff1660ff16815260200160008201600b9054906101000a900460ff1660ff1660ff168152505081526020016002820160009054906101000a900461ffff1661ffff1661ffff1681526020016002820160029054906101000a900460ff1660ff1660ff1681526020016002820160039054906101000a900460ff1660ff1660ff1681526020016002820160049054906101000a900460ff1660ff1660ff16815250509080600601604051806101200160405290816000820160009054906101000a900463ffffffff1663ffffffff1663ffffffff1681526020016000820160049054906101000a900461ffff1661ffff1661ffff1681526020016000820160069054906101000a900461ffff1661ffff1661ffff1681526020016000820160089054906101000a900461ffff1661ffff1661ffff16815260200160008201600a9054906101000a900460ff1615151515815260200160008201600b9054906101000a900460ff1615151515815260200160008201600c9054906101000a900460ff1615151515815260200160008201600d9054906101000a900460ff16151515158152602001600182015481525050908060080160009054906101000a90046001600160a01b0316905086565b611c16613120565b600d55565b6001600160a01b0381166000908152600a60205260409020606090610c0e906134a9565b336000908152600b6020526040902054600d544290611c5e9083614f52565b811015611c7e576040516337a193d360e21b815260040160405180910390fd5b60005b600a811015611cc357611c96338560006134bd565b6009546000908152600860205260409020600601805460ff60681b1916600160681b179055600101611c81565b50336000908152600b60205260409020555050565b611ce0613397565b60178360ff1681548110611cf657611cf6614f3c565b90600052602060002001543414611d2b576040516312a1605d60e31b815260ff84166004820152346024820152604401610d20565b6001600160a01b038216611d525760405163119833d760e11b815260040160405180910390fd5b600060168460ff1681548110611d6a57611d6a614f3c565b60009182526020808320908204015460ff601f9092166101000a9004169150611d94856001614f65565b905060005b82811015611df6578160ff16811015611de257600081611dba886001614f65565b60ff16611dc79190614f7e565b9050611ddc8886611dd784613660565b6134bd565b50611dee565b611dee878560006134bd565b600101611d99565b50611e22848360178860ff1681548110611e1257611e12614f3c565b90600052602060002001546136cb565b6001600160a01b0386166000908152600c602052604081208054849290611e4a908490614f52565b9091555050600160075550610f8b9050565b60168181548110611e6c57600080fd5b9060005260206000209060209182820401919006915054906101000a900460ff1681565b6000610c0e8261314d565b600060328210611ebb5760508210611eb4576002610c0e565b6001610c0e565b600092915050565b60006001600160a01b038216611eef576040516322718ad960e21b815260006004820152602401610d20565b506001600160a01b031660009081526003602052604090205490565b611f13613120565b611f1d60006137f6565b565b3360009081526019602052604090205460ff16611f5157604051634a0bfec160e01b8152336004820152602401610d20565b6000611f5e826001614f65565b905060005b84811015611fb8578160ff16811015611fa457600081611f84856001614f65565b611f8e9190614f91565b9050611f9e8786611dd784613660565b50611fb0565b611fb0868560006134bd565b600101611f63565b506001600160a01b0385166000908152600c602052604081208054869290611fe1908490614f52565b90915550505050505050565b60005b818110156114fc5761201983838381811061200d5761200d614f3c565b905060200201356125ef565b600101611ff0565b6010546001600160a01b031633148015906120475750600f546001600160a01b03163314155b801561205e57506011546001600160a01b03163314155b1561207e57604051634a0bfec160e01b8152336004820152602401610d20565b6000828152600860205260409020600601805482158015600160601b0260ff60601b19909216919091179091556120d557604051828152600080516020615e9d833981519152906020015b60405180910390a15050565b6040518281527ff27b6ce5b2f5e68ddb2fd95a8a909d4ecf1daaac270935fff052feacb24f1842906020016120c9565b336000908152600a6020526040812061211d906134a9565b905060005b8151811015610cda576008600083838151811061214157612141614f3c565b60200260200101518152602001908152602001600020600601600001600b9054906101000a900460ff166121915761219182828151811061218457612184614f3c565b60200260200101516125ef565b600101612122565b6121a1613120565b6001600160a01b03919091166000908152601960205260409020805460ff1916911515919091179055565b606060018054610c2390614ec7565b6121e3613120565b601b55565b610cda338383613848565b6121fe848484610f06565b610f8b33858585856138e7565b601254600082815260086020526040908190209051637c1d0bcb60e01b81526060926001600160a01b031691637c1d0bcb9161224a919060040161520c565b600060405180830381865afa158015612267573d6000803e3d6000fd5b505050506040513d6000823e601f3d908101601f19168201604052610c0e9190810190615264565b6040518281527ff8e1a15aba9398e019f0b49df1a4fde98ee17ae345cb5f6b5e2c27f5033e8ce79060200160405180910390a1600082815260086020908152604080832033845260199092529091205460ff1661230157604051634a0bfec160e01b8152336004820152602401610d20565b600781015415612324576040516398586ca160e01b815260040160405180910390fd5b6006810154600160601b900460ff16156123545760405163128379f760e11b815260048101849052602401610d20565b60006123688261236385615506565b613a11565b905061237483806155a8565b8391612381919083615635565b50612394610240840161022085016156f4565b60058301805460ff92909216620100000262ff0000199092169190911790556123c5610260840161024085016156f4565b60058301805460ff9290921663010000000263ff000000199092169190911790556123f8610280840161026085016156f4565b60058301805460ff929092166401000000000264ff000000001990921691909117905561242d61022084016102008501614b21565b60058301805461ffff191661ffff9290921691909117905560e0830160048301612457828261572b565b5050604083016002830161246b82826158b8565b5061248090506103208401610300850161461b565b600683015460ff600160501b909104161515901515146124cb576124ac6103208401610300850161461b565b600683018054911515600160501b0260ff60501b199092169190911790555b6006820154600160581b900460ff161561252057600682018054829190600890612501908490600160401b900461ffff1661596e565b92506101000a81548161ffff021916908361ffff1602179055506125e6565b60068201805460ff60581b1961ffff8416600160401b02166bff00ffff00000000000000001990911617600160581b179055601554604080516318987be760e11b815290516001600160a01b0390921691633130f7ce916004808201926020929091908290030181865afa15801561259c573d6000803e3d6000fd5b505050506040513d601f19601f820116820180604052508101906125c09190615993565b60068301805461ffff929092166401000000000265ffff00000000199092169190911790555b610f8b846133fc565b6040518181527ff8e1a15aba9398e019f0b49df1a4fde98ee17ae345cb5f6b5e2c27f5033e8ce79060200160405180910390a16000818152600860208190526040909120908101546001600160a01b031633146126615760405162dd34af60e41b815260048101839052602401610d20565b6006810154600160581b900460ff161561269157604051635331ce1f60e11b815260048101839052602401610d20565b6013546003820154604051632f09b60960e21b815260048101919091526000916001600160a01b03169063bc26d824906024016020604051808303816000875af11580156126e3573d6000803e3d6000fd5b505050506040513d601f19601f8201168201806040525081019061270791906159b0565b60145460038401546005850154604051637017ac9560e11b81526004810188905260248101929092526001600160401b038416604483015261ffff1660648201529192506000916001600160a01b039091169063e02f592a90608401600060405180830381865afa158015612780573d6000803e3d6000fd5b505050506040513d6000823e601f3d908101601f191682016040526127a89190810190615bd6565b805190915083906127b99082615cf5565b508060600151836003016000820151816000015560208201518160010160008201518160000160006101000a81548161ffff021916908361ffff16021790555060208201518160000160026101000a81548160ff021916908360ff16021790555060408201518160000160036101000a81548160ff021916908360ff16021790555060608201518160000160046101000a81548161ffff021916908361ffff16021790555060808201518160000160066101000a81548160ff021916908360ff16021790555060a08201518160000160076101000a81548160ff021916908360ff16021790555060c08201518160000160086101000a81548161ffff021916908361ffff16021790555060e082015181600001600a6101000a81548160ff021916908360ff16021790555061010082015181600001600b6101000a81548160ff021916908360ff160217905550505060408201518160020160006101000a81548161ffff021916908361ffff16021790555060608201518160020160026101000a81548160ff021916908360ff16021790555060808201518160020160036101000a81548160ff021916908360ff16021790555060a08201518160020160046101000a81548160ff021916908360ff16021790555090505080604001518360020160008201518160000160006101000a81548160ff021916908360078111156129c4576129c4614733565b021790555060208201518154829061ff0019166101008360078111156129ec576129ec614733565b021790555060408201518154829062ff0000191662010000836007811115612a1657612a16614733565b021790555060608201518154829063ff00000019166301000000836007811115612a4257612a42614733565b021790555050506080808201510151600684018054911515600160501b0260ff60501b198316811790915563ffffffff908116911617600003612aa15760808101515160068401805463ffffffff191663ffffffff9092169190911790555b601554604080516318987be760e11b815290516001600160a01b0390921691633130f7ce916004808201926020929091908290030181865afa158015612aeb573d6000803e3d6000fd5b505050506040513d601f19601f82011682018060405250810190612b0f9190615993565b60068401805460ff60581b1961ffff9390931664010000000002929092166bff0000000000ffff000000001990921691909117600160581b179055610f8b846133fc565b612b5b613120565b6018805461ffff9092166101000262ffff0019909216919091179055565b6001600160a01b03918216600090815260056020908152604080832093909416825291909152205460ff1690565b60606000826001600160401b03811115612bc357612bc3614c5a565b604051908082528060200260200182016040528015612bfc57816020015b612be96142e7565b815260200190600190039081612be15790505b50905060005b838110156130dd5760086000868684818110612c2057612c20614f3c565b9050602002013581526020019081526020016000206040518060c0016040529081600082018054612c5090614ec7565b80601f0160208091040260200160405190810160405280929190818152602001828054612c7c90614ec7565b8015612cc95780601f10612c9e57610100808354040283529160200191612cc9565b820191906000526020600020905b815481529060010190602001808311612cac57829003601f168201915b5050509183525050600182015460208201526040805160808101825260028401805492909301929091829060ff166007811115612d0857612d08614733565b6007811115612d1957612d19614733565b81528154602090910190610100900460ff166007811115612d3c57612d3c614733565b6007811115612d4d57612d4d614733565b8152815460209091019062010000900460ff166007811115612d7157612d71614733565b6007811115612d8257612d82614733565b815281546020909101906301000000900460ff166007811115612da757612da7614733565b6007811115612db857612db8614733565b815250508152602001600382016040518060c00160405290816000820154815260200160018201604051806101200160405290816000820160009054906101000a900461ffff1661ffff1661ffff1681526020016000820160029054906101000a900460ff1660ff1660ff1681526020016000820160039054906101000a900460ff1660ff1660ff1681526020016000820160049054906101000a900461ffff1661ffff1661ffff1681526020016000820160069054906101000a900460ff1660ff1660ff1681526020016000820160079054906101000a900460ff1660ff1660ff1681526020016000820160089054906101000a900461ffff1661ffff1661ffff16815260200160008201600a9054906101000a900460ff1660ff1660ff16815260200160008201600b9054906101000a900460ff1660ff1660ff168152505081526020016002820160009054906101000a900461ffff1661ffff1661ffff1681526020016002820160029054906101000a900460ff1660ff1660ff1681526020016002820160039054906101000a900460ff1660ff1660ff1681526020016002820160049054906101000a900460ff1660ff1660ff1681525050815260200160068201604051806101200160405290816000820160009054906101000a900463ffffffff1663ffffffff1663ffffffff1681526020016000820160049054906101000a900461ffff1661ffff1661ffff1681526020016000820160069054906101000a900461ffff1661ffff1661ffff1681526020016000820160089054906101000a900461ffff1661ffff1661ffff16815260200160008201600a9054906101000a900460ff1615151515815260200160008201600b9054906101000a900460ff1615151515815260200160008201600c9054906101000a900460ff1615151515815260200160008201600d9054906101000a900460ff1615151515815260200160018201548152505081526020016008820160009054906101000a90046001600160a01b03166001600160a01b03166001600160a01b0316815250508282815181106130ca576130ca614f3c565b6020908102919091010152600101612c02565b509392505050565b6130ed613120565b6001600160a01b03811661311757604051631e4fbdf760e01b815260006004820152602401610d20565b61103f816137f6565b6006546001600160a01b03163314611f1d5760405163118cdaa760e01b8152336004820152602401610d20565b6000818152600260205260408120546001600160a01b031680610c0e57604051637e27328960e01b815260048101849052602401610d20565b6114fc8383836001613ced565b60006001600160a01b038416156131d457600083815260086020526040902060070154156131d4576040516398586ca160e01b815260040160405180910390fd5b600083815260086020526040902060060154600160601b900460ff16156132115760405163128379f760e11b815260048101849052602401610d20565b600083815260086020819052604090912001546001600160a01b031680156132f5576001600160a01b0381166000908152600c6020526040902054600a111561327857604051637c0df70b60e11b81526001600160a01b0382166004820152602401610d20565b6001600160a01b038516158015906132a857506001600160a01b0385166000908152600c6020526040902054600a115b156132d157604051637c0df70b60e11b81526001600160a01b0386166004820152602401610d20565b6001600160a01b0381166000908152600a602052604090206132f39085613df3565b505b6001600160a01b03851615613353576001600160a01b0385166000908152600a602052604090206133269085613dff565b5060008481526008602081905260409091200180546001600160a01b0319166001600160a01b0387161790555b6001600160a01b03851661338357604051848152600080516020615e9d8339815191529060200160405180910390a15b61338e858585613e0b565b95945050505050565b6002600754036133ba57604051633ee5aeb560e01b815260040160405180910390fd5b6002600755565b60006133d06000836000613193565b90506001600160a01b038116610cda57604051637e27328960e01b815260048101839052602401610d20565b60008181526008602052604090819020601554915163863bea7f60e01b815290916001600160a01b03169063863bea7f9061343b90849060040161520c565b602060405180830381865afa158015613458573d6000803e3d6000fd5b505050506040513d601f19601f8201168201806040525081019061347c9190615993565b6006909101805461ffff9290921666010000000000000267ffff0000000000001990921691909117905550565b606060006134b683613f04565b9392505050565b60185460ff16156134e157604051636be9245d60e11b815260040160405180910390fd5b60185461ffff61010090910481169083161180613500575061ffff8216155b1561352457604051633a6d207560e11b815261ffff83166004820152602401610d20565b6009805490600061353483615db3565b909155505060095460008181526008602090815260408083206001810194909455601354815163f8413b0760e01b815291516001600160a01b039091169363f8413b07936004848101949193929183900301908290875af115801561359d573d6000803e3d6000fd5b505050506040513d601f19601f820116820180604052508101906135c19190615dcc565b600382015560058101805461ffff191661ffff858116919091179091558216156135fb5760068101805463ffffffff191661ffff84161790555b61360784600954613f60565b6008810180546001600160a01b0319166001600160a01b0386161790556009546040519081527ff27b6ce5b2f5e68ddb2fd95a8a909d4ecf1daaac270935fff052feacb24f18429060200160405180910390a150505050565b600060068260ff161061367657506103e8919050565b8160ff1660050361368a575061012c919050565b8160ff1660040361369d57506064919050565b8160ff166003036136b05750601e919050565b8160ff166002036136c35750600a919050565b506001919050565b6001600160a01b0383166000908152600e6020526040812080548492906136f3908490614f52565b90915550506001600160a01b0383166000908152600e6020526040812054620186a08110613724576032915061375f565b61c3508110613736576023915061375f565b6127108110613748576014915061375f565b6103e8811061375a57600a915061375f565b600091505b6000606461376d8486615de5565b6137779190615dfc565b90506000866001600160a01b03168260405160006040518083038185875af1925050503d80600081146137c6576040519150601f19603f3d011682016040523d82523d6000602084013e6137cb565b606091505b50509050806137ed576040516387df070960e01b815260040160405180910390fd5b50505050505050565b600680546001600160a01b038381166001600160a01b0319831681179093556040519116919082907f8be0079c531659141344cd1fd0a4f28419497f9722a3daafe3b4186f6b6457e090600090a35050565b6001600160a01b03821661387a57604051630b61174360e31b81526001600160a01b0383166004820152602401610d20565b6001600160a01b03838116600081815260056020908152604080832094871680845294825291829020805460ff191686151590811790915591519182527f17307eab39ab6107e8899845ad3d59bd9653f200f220920489ca2b5937696c31910160405180910390a3505050565b6001600160a01b0383163b15610eff57604051630a85bd0160e11b81526001600160a01b0384169063150b7a0290613929908890889087908790600401615e1e565b6020604051808303816000875af1925050508015613964575060408051601f3d908101601f1916820190925261396191810190615e51565b60015b6139cd573d808015613992576040519150601f19603f3d011682016040523d82523d6000602084013e613997565b606091505b5080516000036139c557604051633250574960e11b81526001600160a01b0385166004820152602401610d20565b805181602001fd5b6001600160e01b03198116630a85bd0160e11b14613a0957604051633250574960e11b81526001600160a01b0385166004820152602401610d20565b505050505050565b60408101515160009081906007811115613a2d57613a2d614733565b600285015460ff166007811115613a4657613a46614733565b14613a595780613a5581615e6e565b9150505b8260400151602001516007811115613a7357613a73614733565b6002850154610100900460ff166007811115613a9157613a91614733565b14613aa45780613aa081615e6e565b9150505b8260400151604001516007811115613abe57613abe614733565b600285015462010000900460ff166007811115613add57613add614733565b14613af05780613aec81615e6e565b9150505b8260400151606001516007811115613b0a57613b0a614733565b60028501546301000000900460ff166007811115613b2a57613b2a614733565b14613b3d5780613b3981615e6e565b9150505b6005840154606080850151015160009160ff620100009091048116911611613b845760608481015101516005860154613b7f919062010000900460ff16614f91565b613ba4565b60058501546060858101510151613ba49162010000900460ff1690614f91565b600586015460608601516080015191925060009160ff63010000009092048216911611613bf2576060850151608001516005870154613bed91906301000000900460ff16614f91565b613c14565b6005860154606086015160800151613c14916301000000900460ff1690614f91565b6005870154606087015160a0015191925060009160ff6401000000009092048216911611613c6457606086015160a001516005880154613c5f9190640100000000900460ff16614f91565b613c87565b6005870154606087015160a00151613c8791640100000000900460ff1690614f91565b905080613c948385614f65565b613c9e9190614f65565b613cab9060ff168561596e565b9350856080015160800151151587600601600001600a9054906101000a900460ff16151514613ce257613cdf60038561596e565b93505b509195945050505050565b8080613d0157506001600160a01b03821615155b15613dc3576000613d118461314d565b90506001600160a01b03831615801590613d3d5750826001600160a01b0316816001600160a01b031614155b8015613d505750613d4e8184612b79565b155b15613d795760405163a9fbf51f60e01b81526001600160a01b0384166004820152602401610d20565b8115613dc15783856001600160a01b0316826001600160a01b03167f8c5be1e5ebec7d5bd14f71427d1e84f3dd0314c0f7b2291e5b200ac8c7c3b92560405160405180910390a45b505b5050600090815260046020526040902080546001600160a01b0319166001600160a01b0392909216919091179055565b60006134b68383613f7a565b60006134b6838361406d565b6000828152600260205260408120546001600160a01b0390811690831615613e3857613e388184866140bc565b6001600160a01b03811615613e7657613e55600085600080613ced565b6001600160a01b038116600090815260036020526040902080546000190190555b6001600160a01b03851615613ea5576001600160a01b0385166000908152600360205260409020805460010190555b60008481526002602052604080822080546001600160a01b0319166001600160a01b0389811691821790925591518793918516917fddf252ad1be2c89b69c2b068fc378daa952ba7f163c4a11628f55a4df523b3ef91a4949350505050565b606081600001805480602002602001604051908101604052809291908181526020018280548015613f5457602002820191906000526020600020905b815481526020019060010190808311613f40575b50505050509050919050565b610cda828260405180602001604052806000815250614120565b60008181526001830160205260408120548015614063576000613f9e600183614f7e565b8554909150600090613fb290600190614f7e565b9050808214614017576000866000018281548110613fd257613fd2614f3c565b9060005260206000200154905080876000018481548110613ff557613ff5614f3c565b6000918252602080832090910192909255918252600188019052604090208390555b855486908061402857614028615e86565b600190038181906000526020600020016000905590558560010160008681526020019081526020016000206000905560019350505050610c0e565b6000915050610c0e565b60008181526001830160205260408120546140b457508154600181810184556000848152602080822090930184905584548482528286019093526040902091909155610c0e565b506000610c0e565b6140c7838383614138565b6114fc576001600160a01b0383166140f557604051637e27328960e01b815260048101829052602401610d20565b60405163177e802f60e01b81526001600160a01b038316600482015260248101829052604401610d20565b61412a838361419e565b6114fc3360008585856138e7565b60006001600160a01b038316158015906141965750826001600160a01b0316846001600160a01b0316148061417257506141728484612b79565b8061419657506000828152600460205260409020546001600160a01b038481169116145b949350505050565b6001600160a01b0382166141c857604051633250574960e11b815260006004820152602401610d20565b60006141d683836000613193565b90506001600160a01b038116156114fc576040516339e3563760e11b815260006004820152602401610d20565b82805482825590600052602060002090601f0160209004810192821561429c5791602002820160005b8382111561426d57833560ff1683826101000a81548160ff021916908360ff160217905550926020019260010160208160000104928301926001030261422c565b801561429a5782816101000a81549060ff021916905560010160208160000104928301926001030261426d565b505b506142a8929150614405565b5090565b82805482825590600052602060002090810192821561429c579160200282015b8281111561429c5782358255916020019190600101906142cc565b6040518060c00160405280606081526020016000815260200161432b6040805160808101909152806000815260200160008152602001600081526020016000905290565b81526020016143ac6040805160c0808201835260008083528351610120810185528181526020818101839052948101829052606081018290526080810182905260a0810182905291820181905260e0820181905261010082015290918201908152600060208201819052604082018190526060820181905260809091015290565b8152604080516101208101825260008082526020828101829052928201819052606082018190526080820181905260a0820181905260c0820181905260e082018190526101008201529101908152600060209091015290565b5b808211156142a85760008155600101614406565b6001600160a01b038116811461103f57600080fd5b803561443a8161441a565b919050565b600080600080600080600080610100898b03121561445c57600080fd5b88356144678161441a565b975060208901356144778161441a565b965060408901356144878161441a565b955060608901356144978161441a565b945060808901356144a78161441a565b935060a08901356144b78161441a565b925060c08901356144c78161441a565b915060e08901356144d78161441a565b809150509295985092959890939650565b6001600160e01b03198116811461103f57600080fd5b60006020828403121561451057600080fd5b81356134b6816144e8565b60005b8381101561453657818101518382015260200161451e565b50506000910152565b6000815180845261455781602086016020860161451b565b601f01601f19169290920160200192915050565b6020815260006134b6602083018461453f565b60006020828403121561459057600080fd5b81356134b68161441a565b6000602082840312156145ad57600080fd5b5035919050565b600080604083850312156145c757600080fd5b82356145d28161441a565b946020939093013593505050565b600080604083850312156145f357600080fd5b50508035926020909101359150565b801515811461103f57600080fd5b803561443a81614602565b60006020828403121561462d57600080fd5b81356134b681614602565b60008083601f84011261464a57600080fd5b5081356001600160401b0381111561466157600080fd5b6020830191508360208260051b850101111561467c57600080fd5b9250929050565b6000806000806040858703121561469957600080fd5b84356001600160401b038111156146af57600080fd5b6146bb87828801614638565b90955093505060208501356001600160401b038111156146da57600080fd5b6146e687828801614638565b95989497509550505050565b60008060006060848603121561470757600080fd5b83356147128161441a565b925060208401356147228161441a565b929592945050506040919091013590565b634e487b7160e01b600052602160045260246000fd5b6008811061103f57634e487b7160e01b600052602160045260246000fd5b805161477281614749565b8252602081015161478281614749565b6020830152604081015161479581614749565b604083015260608101516147a881614749565b806060840152505050565b80518252602081015161ffff815116602084015260ff602082015116604084015260408101516147e8606085018260ff169052565b50606081015161ffff8116608085015250608081015160ff811660a08501525060a081015160ff811660c08501525060c081015161ffff811660e08501525060e081015160ff811661010085015250610100015160ff811661012084015250604081015161ffff811661014084015250606081015160ff811661016084015250608081015160ff81166101808401525060a0015160ff166101a09190910152565b63ffffffff815116825261ffff602082015116602083015260408101516148b6604084018261ffff169052565b5060608101516148cc606084018261ffff169052565b5060808101516148e0608084018215159052565b5060a08101516148f460a084018215159052565b5060c081015161490860c084018215159052565b5060e081015161491c60e084018215159052565b5061010090810151910152565b600081516103c084526149406103c085018261453f565b905060208301516020850152604083015161495e6040860182614767565b50606083015161497160c08601826147b3565b506080830151614985610280860182614889565b5060a092909201516001600160a01b03166103a09390930192909252919050565b6020815260006134b66020830184614929565b600080602083850312156149cc57600080fd5b82356001600160401b038111156149e257600080fd5b6149ee85828601614638565b90969095509350505050565b600081518084526020840193506020830160005b82811015614a2c578151865260209586019590910190600101614a0e565b5093949350505050565b6040808252835190820181905260009060208501906060840190835b81811015614a7357835160ff16835260209384019390920191600101614a52565b50508381036020850152614a8781866149fa565b9695505050505050565b6103c081526000614aa66103c083018961453f565b9050866020830152614abb6040830187614767565b614ac860c08301866147b3565b614ad6610280830185614889565b6001600160a01b03929092166103a0919091015295945050505050565b6020815260006134b660208301846149fa565b61ffff8116811461103f57600080fd5b803561443a81614b06565b600060208284031215614b3357600080fd5b81356134b681614b06565b60ff8116811461103f57600080fd5b803561443a81614b3e565b60008060008060808587031215614b6e57600080fd5b8435614b798161441a565b93506020850135614b8981614b3e565b92506040850135614b998161441a565b91506060850135614ba981614b06565b939692955090935050565b60008060008060808587031215614bca57600080fd5b8435614bd58161441a565b9350602085013592506040850135614bec81614b06565b91506060850135614ba981614b3e565b60008060408385031215614c0f57600080fd5b823591506020830135614c2181614602565b809150509250929050565b60008060408385031215614c3f57600080fd5b8235614c4a8161441a565b91506020830135614c2181614602565b634e487b7160e01b600052604160045260246000fd5b604051608081016001600160401b0381118282101715614c9257614c92614c5a565b60405290565b60405160c081016001600160401b0381118282101715614c9257614c92614c5a565b60405161012081016001600160401b0381118282101715614c9257614c92614c5a565b604051601f8201601f191681016001600160401b0381118282101715614d0557614d05614c5a565b604052919050565b60006001600160401b03821115614d2657614d26614c5a565b50601f01601f191660200190565b6000614d47614d4284614d0d565b614cdd565b9050828152838383011115614d5b57600080fd5b828260208301376000602084830101529392505050565b60008060008060808587031215614d8857600080fd5b8435614d938161441a565b93506020850135614da38161441a565b92506040850135915060608501356001600160401b03811115614dc557600080fd5b8501601f81018713614dd657600080fd5b614de587823560208401614d34565b91505092959194509250565b60008060408385031215614e0457600080fd5b8235915060208301356001600160401b03811115614e2157600080fd5b83016103c08186031215614c2157600080fd5b60008060408385031215614e4757600080fd5b8235614e528161441a565b91506020830135614c218161441a565b6000602082016020835280845180835260408501915060408160051b86010192506020860160005b82811015614ebb57603f19878603018452614ea6858351614929565b94506020938401939190910190600101614e8a565b50929695505050505050565b600181811c90821680614edb57607f821691505b602082108103614efb57634e487b7160e01b600052602260045260246000fd5b50919050565b634e487b7160e01b600052601160045260246000fd5b600063ffffffff821663ffffffff8103614f3357614f33614f01565b60010192915050565b634e487b7160e01b600052603260045260246000fd5b80820180821115610c0e57610c0e614f01565b60ff8181168382160190811115610c0e57610c0e614f01565b81810381811115610c0e57610c0e614f01565b60ff8281168282160390811115610c0e57610c0e614f01565b805460ff8116614fb981614749565b8352600881901c60ff16614fcc81614749565b6020840152601081901c60ff16614fe281614749565b604084015260181c60ff166147a881614749565b805463ffffffff81168352602081811c61ffff1690840152603081901c61ffff166040840152604081901c61ffff16606084015261503e6080840160ff8360501c1615159052565b61505260a0840160ff8360581c1615159052565b61506660c0840160ff8360601c1615159052565b61507a60e0840160ff8360681c1615159052565b50600101546101009190910152565b6103c08252600080825461509c81614ec7565b806103c087015260018216600081146150bc57600181146150da57615110565b60ff1983166103e08801526103e082151560051b8801019350615110565b85600052602060002060005b838110156151065781548982016103e001526001909101906020016150e6565b88016103e0019450505b5050506001830154602085015261512d6040850160028501614faa565b600383015460c0850152600483015461ffff80821660e087015260ff601083811c8216610100890152601884811c83166101208a0152602085811c85166101408b0152603086901c84166101608b0152603886901c84166101808b0152604086901c85166101a08b0152605086901c84166101c08b015260589590951c83166101e08a015260058801549384166102008a01529083901c821661022089015282901c8116610240880152911c166102608501526151f1610280850160068501614ff6565b60088301546001600160a01b03166103a085018190526130dd565b6020815260006134b66020830184615089565b600082601f83011261523057600080fd5b815161523e614d4282614d0d565b81815284602083860101111561525357600080fd5b61419682602083016020870161451b565b60006020828403121561527657600080fd5b81516001600160401b0381111561528c57600080fd5b6141968482850161521f565b6008811061103f57600080fd5b6000608082840312156152b757600080fd5b6152bf614c70565b905081356152cc81615298565b815260208201356152dc81615298565b602082015260408201356152ef81615298565b6040820152606082013561530281615298565b606082015292915050565b60008183036101c081121561532157600080fd5b615329614c98565b833581529150610120601f198201121561534257600080fd5b5061534b614cba565b61535760208401614b16565b815261536560408401614b4d565b602082015261537660608401614b4d565b604082015261538760808401614b16565b606082015261539860a08401614b4d565b60808201526153a960c08401614b4d565b60a08201526153ba60e08401614b16565b60c08201526153cc6101008401614b4d565b60e08201526153de6101208401614b4d565b61010082015260208201526153f66101408301614b16565b60408201526154086101608301614b4d565b606082015261541a6101808301614b4d565b608082015261542c6101a08301614b4d565b60a082015292915050565b63ffffffff8116811461103f57600080fd5b803561443a81615437565b6000610120828403121561546757600080fd5b61546f614cba565b905061547a82615449565b815261548860208301614b16565b602082015261549960408301614b16565b60408201526154aa60608301614b16565b60608201526154bb60808301614610565b60808201526154cc60a08301614610565b60a08201526154dd60c08301614610565b60c08201526154ee60e08301614610565b60e08201526101009182013591810191909152919050565b60006103c0823603121561551957600080fd5b615521614c98565b82356001600160401b0381111561553757600080fd5b830136601f82011261554857600080fd5b61555736823560208401614d34565b8252506020838101359082015261557136604085016152a5565b60408201526155833660c0850161530d565b6060820152615596366102808501615454565b608082015261542c6103a0840161442f565b6000808335601e198436030181126155bf57600080fd5b8301803591506001600160401b038211156155d957600080fd5b60200191503681900382131561467c57600080fd5b601f8211156114fc57806000526020600020601f840160051c810160208510156156155750805b601f840160051c820191505b81811015610eff5760008155600101615621565b6001600160401b0383111561564c5761564c614c5a565b6156608361565a8354614ec7565b836155ee565b6000601f841160018114615694576000851561567c5750838201355b600019600387901b1c1916600186901b178355610eff565b600083815260209020601f19861690835b828110156156c557868501358255602094850194600190920191016156a5565b50868210156156e25760001960f88860031b161c19848701351681555b505060018560011b0183555050505050565b60006020828403121561570657600080fd5b81356134b681614b3e565b60008135610c0e81614b06565b60008135610c0e81614b3e565b813561573681614b06565b61ffff811661ffff19835416178255506000602083013561575681614b3e565b8254909150819062ff00001916601082901b62ff000016178355505061579b6157816040840161571e565b825463ff000000191660189190911b63ff00000016178255565b6157c86157aa60608401615711565b825465ffff00000000191660209190911b65ffff0000000016178255565b6157f76157d76080840161571e565b825466ff000000000000191660309190911b66ff00000000000016178255565b61582861580660a0840161571e565b825467ff00000000000000191660389190911b67ff0000000000000016178255565b61585d61583760c08401615711565b825469ffff0000000000000000191660409190911b69ffff000000000000000016178255565b61588a61586c60e0840161571e565b82805460ff60501b191660509290921b60ff60501b16919091179055565b610cda61589a610100840161571e565b82805460ff60581b191660589290921b60ff60581b16919091179055565b81356158c381615298565b6158cc81614749565b815460ff821691508160ff19821617835560208401356158eb81615298565b6158f481614749565b61ff008160081b168361ffff198416171792505050808255604083013561591a81615298565b61592381614749565b62ff0000601082901b1662ff000019831617915050808255606083013561594981615298565b61595281614749565b63ff000000601882901b1663ff00000019831617835550505050565b61ffff8181168382160190811115610c0e57610c0e614f01565b805161443a81614b06565b6000602082840312156159a557600080fd5b81516134b681614b06565b6000602082840312156159c257600080fd5b81516001600160401b03811681146134b657600080fd5b805161443a81614b3e565b60008183036101c08112156159f857600080fd5b615a00614c98565b835181529150610120601f1982011215615a1957600080fd5b50615a22614cba565b615a2e60208401615988565b8152615a3c604084016159d9565b6020820152615a4d606084016159d9565b6040820152615a5e60808401615988565b6060820152615a6f60a084016159d9565b6080820152615a8060c084016159d9565b60a0820152615a9160e08401615988565b60c0820152615aa361010084016159d9565b60e0820152615ab561012084016159d9565b6101008201526020820152615acd6101408301615988565b6040820152615adf61016083016159d9565b6060820152615af161018083016159d9565b608082015261542c6101a083016159d9565b805161443a81615437565b805161443a81614602565b60006101208284031215615b2c57600080fd5b615b34614cba565b9050615b3f82615b03565b8152615b4d60208301615988565b6020820152615b5e60408301615988565b6040820152615b6f60608301615988565b6060820152615b8060808301615b0e565b6080820152615b9160a08301615b0e565b60a0820152615ba260c08301615b0e565b60c0820152615bb360e08301615b0e565b60e08201526101009182015191810191909152919050565b805161443a8161441a565b600060208284031215615be857600080fd5b81516001600160401b03811115615bfe57600080fd5b82018084036103c0811215615c1257600080fd5b615c1a614c98565b82516001600160401b03811115615c3057600080fd5b615c3c8782860161521f565b825250602083810151908201526080603f1983011215615c5b57600080fd5b615c63614c70565b91506040830151615c7381615298565b82526060830151615c8381615298565b60208301526080830151615c9681615298565b604083015260a0830151615ca981615298565b606083015260408101829052615cc28660c085016159e4565b6060820152615cd5866102808501615b19565b6080820152615ce76103a08401615bcb565b60a082015295945050505050565b81516001600160401b03811115615d0e57615d0e614c5a565b615d2281615d1c8454614ec7565b846155ee565b6020601f821160018114615d565760008315615d3e5750848201515b600019600385901b1c1916600184901b178455610eff565b600084815260208120601f198516915b82811015615d865787850151825560209485019460019092019101615d66565b5084821015615da45786840151600019600387901b60f8161c191681555b50505050600190811b01905550565b600060018201615dc557615dc5614f01565b5060010190565b600060208284031215615dde57600080fd5b5051919050565b8082028115828204841417610c0e57610c0e614f01565b600082615e1957634e487b7160e01b600052601260045260246000fd5b500490565b6001600160a01b0385811682528416602082015260408101839052608060608201819052600090614a879083018461453f565b600060208284031215615e6357600080fd5b81516134b6816144e8565b600061ffff821661ffff8103614f3357614f33614f01565b634e487b7160e01b600052603160045260246000fdfe032bc66be43dbccb7487781d168eb7bda224628a3b2c3388bdf69b532a3a1611a2646970667358221220ec22c94e3b25f3cbb82dbd289048d8a32e31c4e5254bffcc99526e65ac209c8864736f6c634300081c0033",
  "linkReferences": {},
  "deployedLinkReferences": {}
}