{
  "_format": "hh-sol-artifact-1",
  "contractName": "TutorialClaim",
  "sourceName": "contracts/TutorialClaim.sol",
  "abi": [
    {
      "inputs": [
        {
          "internalType": "address",
          "name": "_ships",
          "type": "address"
        },
        {
          "internalType": "address",
          "name": "_gameResults",
          "type": "address"
        }
      ],
      "stateMutability": "nonpayable",
      "type": "constructor"
    },
    {
      "inputs": [],
      "name": "ReentrancyGuardReentrantCall",
      "type": "error"
    },
    {
      "inputs": [],
      "name": "TutorialAlreadyCompleted",
      "type": "error"
    },
    {
      "inputs": [],
      "name": "ZeroAddress",
      "type": "error"
    },
    {
      "anonymous": false,
      "inputs": [
        {
          "indexed": true,
          "internalType": "address",
          "name": "player",
          "type": "address"
        },
        {
          "indexed": false,
          "internalType": "bool",
          "name": "winPath",
          "type": "bool"
        },
        {
          "indexed": false,
          "internalType": "uint8",
          "name": "shipsCreated",
          "type": "uint8"
        }
      ],
      "name": "TutorialCompleted",
      "type": "event"
    },
    {
      "inputs": [],
      "name": "completeTutorialLossPath",
      "outputs": [],
      "stateMutability": "nonpayable",
      "type": "function"
    },
    {
      "inputs": [],
      "name": "completeTutorialWinPath",
      "outputs": [],
      "stateMutability": "nonpayable",
      "type": "function"
    },
    {
      "inputs": [],
      "name": "gameResults",
      "outputs": [
        {
          "internalType": "contract ITutorialGameResults",
          "name": "",
          "type": "address"
        }
      ],
      "stateMutability": "view",
      "type": "function"
    },
    {
      "inputs": [],
      "name": "ships",
      "outputs": [
        {
          "internalType": "contract ITutorialShips",
          "name": "",
          "type": "address"
        }
      ],
      "stateMutability": "view",
      "type": "function"
    },
    {
      "inputs": [
        {
          "internalType": "address",
          "name": "",
          "type": "address"
        }
      ],
      "name": "tutorialCompleted",
      "outputs": [
        {
          "internalType": "bool",
          "name": "",
          "type": "bool"
        }
      ],
      "stateMutability": "view",
      "type": "function"
    }
  ],
  "bytecode": "0x60c060405234801561001057600080fd5b50604051610c51380380610c5183398101604081905261002f916100a2565b60016000556001600160a01b038216158061005157506001600160a01b038116155b1561006f5760405163d92e233d60e01b815260040160405180910390fd5b6001600160a01b039182166080521660a0526100d5565b80516001600160a01b038116811461009d57600080fd5b919050565b600080604083850312156100b557600080fd5b6100be83610086565b91506100cc60208401610086565b90509250929050565b60805160a051610b4461010d6000396000818160cd015281816101480152610235015260008181609901526104520152610b446000f3fe608060405234801561001057600080fd5b50600436106100575760003560e01c8063a64effb31461005c578063bbf8218a14610094578063ce720bca146100c8578063d1f4b4ca146100ef578063e75568eb146100f9575b600080fd5b61007f61006a3660046107e5565b60016020526000908152604090205460ff1681565b60405190151581526020015b60405180910390f35b6100bb7f000000000000000000000000000000000000000000000000000000000000000081565b60405161008b9190610815565b6100bb7f000000000000000000000000000000000000000000000000000000000000000081565b6100f7610101565b005b6100f76101e6565b6101096102c3565b610112336102ed565b6101243361011f3361034e565b61043b565b6101313361011f336104d1565b6040516301fe422760e21b81526001600160a01b037f000000000000000000000000000000000000000000000000000000000000000016906307f9089c9061017d903390600401610815565b600060405180830381600087803b15801561019757600080fd5b505af11580156101ab573d6000803e3d6000fd5b5050604080516001815260026020820152339350600080516020610aef8339815191529250015b60405180910390a26101e46001600055565b565b6101ee6102c3565b6101f7336102ed565b6102043361011f336105bd565b6102113361011f3361034e565b61021e3361011f336104d1565b604051633449239160e01b81526001600160a01b037f0000000000000000000000000000000000000000000000000000000000000000169063344923919061026a903390600401610815565b600060405180830381600087803b15801561028457600080fd5b505af1158015610298573d6000803e3d6000fd5b5050604080516000815260036020820152339350600080516020610aef8339815191529250016101d2565b6002600054036102e657604051633ee5aeb560e01b815260040160405180910390fd5b6002600055565b6001600160a01b03811660009081526001602052604090205460ff16156103275760405163942030d560e01b815260040160405180910390fd5b6001600160a01b03166000908152600160208190526040909120805460ff19169091179055565b6103566106c7565b6040805180820182526008815267159a59da5b185b9d60c21b6020808301919091529083526001600160a01b039390931660a080840191909152815160808082018452600180835260008388018190528386018290526002606080860182905288880195909552865160c08082018952838252885161012081018a5260fa8152605a818d0152603c818b015261010e818901526050818801526032818a015290810184905260e080820185905261010082018590529a820152968701528584018290528583018190529385019390935290840192909252908201519092019190915290565b60405163614008f160e01b81526001600160a01b037f0000000000000000000000000000000000000000000000000000000000000000169063614008f1906104899085908590600401610a0c565b6020604051808303816000875af11580156104a8573d6000803e3d6000fd5b505050506040513d601f19601f820116820180604052508101906104cc9190610ad5565b505050565b6104d96106c7565b604080518082018252600881526714d95b9d1a5b995b60c21b6020808301919091529083526001600160a01b039390931660a0808401919091528151608080820184526000808352600283880152828501819052606080840182905286860193909352845160c08082018752828252865161012081018852609681526046818b015260378189015260aa81870152603c81860152602d8188015290810183905260e080820184905261010082018490529882015260039581019590955260018584018190528583018290529385015290840192909252908201519092019190915290565b6105c56106c7565b60408051808201825260088152675265736f6c75746560c01b602082015282526001600160a01b03831660a08301528051608081019091528060038152602001600081526020016002815260200160019052604080830191909152805160c08082018352600080835283516101208101855260c88152605060208281019190915260328287015260dc6060808401919091526046608080850191909152602860a08086019190915295840185905260e08085018690526101008501959095529186019290925260019585018690526002828601819052818601819052938501939093528501929092528084018051600a90528051909101839052510152919050565b6040518060c00160405280606081526020016000815260200161070b6040805160808101909152806000815260200160008152602001600081526020016000905290565b815260200161078c6040805160c0808201835260008083528351610120810185528181526020818101839052948101829052606081018290526080810182905260a0810182905291820181905260e0820181905261010082015290918201908152600060208201819052604082018190526060820181905260809091015290565b8152604080516101208101825260008082526020828101829052928201819052606082018190526080820181905260a0820181905260c0820181905260e082018190526101008201529101908152600060209091015290565b6000602082840312156107f757600080fd5b81356001600160a01b038116811461080e57600080fd5b9392505050565b6001600160a01b0391909116815260200190565b6008811061084757634e487b7160e01b600052602160045260246000fd5b50565b805161085581610829565b8252602081015161086581610829565b6020830152604081015161087881610829565b6040830152606081015161088b81610829565b806060840152505050565b80518252602081015161ffff815116602084015260ff602082015116604084015260408101516108cb606085018260ff169052565b50606081015161ffff8116608085015250608081015160ff811660a08501525060a081015160ff811660c08501525060c081015161ffff811660e08501525060e081015160ff811661010085015250610100015160ff811661012084015250604081015161ffff811661014084015250606081015160ff811661016084015250608081015160ff81166101808401525060a0015160ff166101a09190910152565b63ffffffff815116825261ffff60208201511660208301526040810151610999604084018261ffff169052565b5060608101516109af606084018261ffff169052565b5060808101516109c3608084018215159052565b5060a08101516109d760a084018215159052565b5060c08101516109eb60c084018215159052565b5060e08101516109ff60e084018215159052565b5061010090810151910152565b60018060a01b038316815260406020820152600082516103c0604084015280518061040085015260005b81811015610a54576020818401810151610420878401015201610a36565b50600061042082860101526020850151606085015260408501519150610a7d608085018361084a565b60608501519150610a92610100850183610896565b60808501519150610aa76102c085018361096c565b60a08501516001600160a01b0381166103e08601529150601f01601f19169290920161042001949350505050565b600060208284031215610ae757600080fd5b505191905056fe35668a91e205ed81abb585a8906577b836b143930c8e59664d0dbb5f8ae2e97ea26469706673582212201bc6d37f69a24a747de1e4f43a567feafed7a3632baf2607685d5f74f16849cf64736f6c634300081c0033",
  "linkReferences": {},
  "deployedLinkReferences": {}
}