{
  "_format": "hh-sol-artifact-1",
  "contractName": "ShipAttributes",
  "sourceName": "contracts/ShipAttributes.sol",
  "abi": [
    {
      "inputs": [
        {
          "internalType": "address",
          "name": "_ships",
          "type": "address"
        }
      ],
      "stateMutability": "nonpayable",
      "type": "constructor"
    },
    {
      "inputs": [],
      "name": "InvalidAttributesVersion",
      "type": "error"
    },
    {
      "inputs": [],
      "name": "InvalidCostsVersion",
      "type": "error"
    },
    {
      "inputs": [
        {
          "internalType": "address",
          "name": "owner",
          "type": "address"
        }
      ],
      "name": "OwnableInvalidOwner",
      "type": "error"
    },
    {
      "inputs": [
        {
          "internalType": "address",
          "name": "account",
          "type": "address"
        }
      ],
      "name": "OwnableUnauthorizedAccount",
      "type": "error"
    },
    {
      "inputs": [],
      "name": "ShipNotFound",
      "type": "error"
    },
    {
      "anonymous": false,
      "inputs": [
        {
          "indexed": true,
          "internalType": "address",
          "name": "previousOwner",
          "type": "address"
        },
        {
          "indexed": true,
          "internalType": "address",
          "name": "newOwner",
          "type": "address"
        }
      ],
      "name": "OwnershipTransferred",
      "type": "event"
    },
    {
      "inputs": [
        {
          "internalType": "uint16",
          "name": "",
          "type": "uint16"
        }
      ],
      "name": "attributesVersions",
      "outputs": [
        {
          "internalType": "uint16",
          "name": "version",
          "type": "uint16"
        },
        {
          "internalType": "uint8",
          "name": "baseHull",
          "type": "uint8"
        },
        {
          "internalType": "uint8",
          "name": "baseSpeed",
          "type": "uint8"
        }
      ],
      "stateMutability": "view",
      "type": "function"
    },
    {
      "inputs": [
        {
          "components": [
            {
              "internalType": "string",
              "name": "name",
              "type": "string"
            },
            {
              "internalType": "uint256",
              "name": "id",
              "type": "uint256"
            },
            {
              "components": [
                {
                  "internalType": "enum MainWeapon",
                  "name": "mainWeapon",
                  "type": "uint8"
                },
                {
                  "internalType": "enum Armor",
                  "name": "armor",
                  "type": "uint8"
                },
                {
                  "internalType": "enum Shields",
                  "name": "shields",
                  "type": "uint8"
                },
                {
                  "internalType": "enum Special",
                  "name": "special",
                  "type": "uint8"
                }
              ],
              "internalType": "struct Equipment",
              "name": "equipment",
              "type": "tuple"
            },
            {
              "components": [
                {
                  "internalType": "uint256",
                  "name": "serialNumber",
                  "type": "uint256"
                },
                {
                  "components": [
                    {
                      "internalType": "uint16",
                      "name": "h1",
                      "type": "uint16"
                    },
                    {
                      "internalType": "uint8",
                      "name": "s1",
                      "type": "uint8"
                    },
                    {
                      "internalType": "uint8",
                      "name": "l1",
                      "type": "uint8"
                    },
                    {
                      "internalType": "uint16",
                      "name": "h2",
                      "type": "uint16"
                    },
                    {
                      "internalType": "uint8",
                      "name": "s2",
                      "type": "uint8"
                    },
                    {
                      "internalType": "uint8",
                      "name": "l2",
                      "type": "uint8"
                    },
                    {
                      "internalType": "uint16",
                      "name": "h3",
                      "type": "uint16"
                    },
                    {
                      "internalType": "uint8",
                      "name": "s3",
                      "type": "uint8"
                    },
                    {
                      "internalType": "uint8",
                      "name": "l3",
                      "type": "uint8"
                    }
                  ],
                  "internalType": "struct Colors",
                  "name": "colors",
                  "type": "tuple"
                },
                {
                  "internalType": "uint16",
                  "name": "variant",
                  "type": "uint16"
                },
                {
                  "internalType": "uint8",
                  "name": "accuracy",
                  "type": "uint8"
                },
                {
                  "internalType": "uint8",
                  "name": "hull",
                  "type": "uint8"
                },
                {
                  "internalType": "uint8",
                  "name": "speed",
                  "type": "uint8"
                }
              ],
              "internalType": "struct Traits",
              "name": "traits",
              "type": "tuple"
            },
            {
              "components": [
                {
                  "internalType": "uint32",
                  "name": "shipsDestroyed",
                  "type": "uint32"
                },
                {
                  "internalType": "uint16",
                  "name": "costsVersion",
                  "type": "uint16"
                },
                {
                  "internalType": "uint16",
                  "name": "cost",
                  "type": "uint16"
                },
                {
                  "internalType": "uint16",
                  "name": "modified",
                  "type": "uint16"
                },
                {
                  "internalType": "bool",
                  "name": "shiny",
                  "type": "bool"
                },
                {
                  "internalType": "bool",
                  "name": "constructed",
                  "type": "bool"
                },
                {
                  "internalType": "bool",
                  "name": "inFleet",
                  "type": "bool"
                },
                {
                  "internalType": "bool",
                  "name": "isFreeShip",
                  "type": "bool"
                },
                {
                  "internalType": "uint256",
                  "name": "timestampDestroyed",
                  "type": "uint256"
                }
              ],
              "internalType": "struct ShipData",
              "name": "shipData",
              "type": "tuple"
            },
            {
              "internalType": "address",
              "name": "owner",
              "type": "address"
            }
          ],
          "internalType": "struct Ship",
          "name": "_ship",
          "type": "tuple"
        }
      ],
      "name": "calculateShipAttributes",
      "outputs": [
        {
          "components": [
            {
              "internalType": "uint16",
              "name": "version",
              "type": "uint16"
            },
            {
              "internalType": "uint8",
              "name": "range",
              "type": "uint8"
            },
            {
              "internalType": "uint8",
              "name": "gunDamage",
              "type": "uint8"
            },
            {
              "internalType": "uint8",
              "name": "hullPoints",
              "type": "uint8"
            },
            {
              "internalType": "uint8",
              "name": "maxHullPoints",
              "type": "uint8"
            },
            {
              "internalType": "uint8",
              "name": "movement",
              "type": "uint8"
            },
            {
              "internalType": "uint8",
              "name": "damageReduction",
              "type": "uint8"
            },
            {
              "internalType": "uint8",
              "name": "reactorCriticalTimer",
              "type": "uint8"
            },
            {
              "internalType": "uint8[]",
              "name": "statusEffects",
              "type": "uint8[]"
            }
          ],
          "internalType": "struct Attributes",
          "name": "",
          "type": "tuple"
        }
      ],
      "stateMutability": "view",
      "type": "function"
    },
    {
      "inputs": [
        {
          "internalType": "uint256",
          "name": "_shipId",
          "type": "uint256"
        }
      ],
      "name": "calculateShipAttributesById",
      "outputs": [
        {
          "components": [
            {
              "internalType": "uint16",
              "name": "version",
              "type": "uint16"
            },
            {
              "internalType": "uint8",
              "name": "range",
              "type": "uint8"
            },
            {
              "internalType": "uint8",
              "name": "gunDamage",
              "type": "uint8"
            },
            {
              "internalType": "uint8",
              "name": "hullPoints",
              "type": "uint8"
            },
            {
              "internalType": "uint8",
              "name": "maxHullPoints",
              "type": "uint8"
            },
            {
              "internalType": "uint8",
              "name": "movement",
              "type": "uint8"
            },
            {
              "internalType": "uint8",
              "name": "damageReduction",
              "type": "uint8"
            },
            {
              "internalType": "uint8",
              "name": "reactorCriticalTimer",
              "type": "uint8"
            },
            {
              "internalType": "uint8[]",
              "name": "statusEffects",
              "type": "uint8[]"
            }
          ],
          "internalType": "struct Attributes",
          "name": "",
          "type": "tuple"
        }
      ],
      "stateMutability": "view",
      "type": "function"
    },
    {
      "inputs": [
        {
          "internalType": "uint256[]",
          "name": "_shipIds",
          "type": "uint256[]"
        }
      ],
      "name": "calculateShipAttributesByIds",
      "outputs": [
        {
          "components": [
            {
              "internalType": "uint16",
              "name": "version",
              "type": "uint16"
            },
            {
              "internalType": "uint8",
              "name": "range",
              "type": "uint8"
            },
            {
              "internalType": "uint8",
              "name": "gunDamage",
              "type": "uint8"
            },
            {
              "internalType": "uint8",
              "name": "hullPoints",
              "type": "uint8"
            },
            {
              "internalType": "uint8",
              "name": "maxHullPoints",
              "type": "uint8"
            },
            {
              "internalType": "uint8",
              "name": "movement",
              "type": "uint8"
            },
            {
              "internalType": "uint8",
              "name": "damageReduction",
              "type": "uint8"
            },
            {
              "internalType": "uint8",
              "name": "reactorCriticalTimer",
              "type": "uint8"
            },
            {
              "internalType": "uint8[]",
              "name": "statusEffects",
              "type": "uint8[]"
            }
          ],
          "internalType": "struct Attributes[]",
          "name": "",
          "type": "tuple[]"
        }
      ],
      "stateMutability": "view",
      "type": "function"
    },
    {
      "inputs": [
        {
          "components": [
            {
              "internalType": "string",
              "name": "name",
              "type": "string"
            },
            {
              "internalType": "uint256",
              "name": "id",
              "type": "uint256"
            },
            {
              "components": [
                {
                  "internalType": "enum MainWeapon",
                  "name": "mainWeapon",
                  "type": "uint8"
                },
                {
                  "internalType": "enum Armor",
                  "name": "armor",
                  "type": "uint8"
                },
                {
                  "internalType": "enum Shields",
                  "name": "shields",
                  "type": "uint8"
                },
                {
                  "internalType": "enum Special",
                  "name": "special",
                  "type": "uint8"
                }
              ],
              "internalType": "struct Equipment",
              "name": "equipment",
              "type": "tuple"
            },
            {
              "components": [
                {
                  "internalType": "uint256",
                  "name": "serialNumber",
                  "type": "uint256"
                },
                {
                  "components": [
                    {
                      "internalType": "uint16",
                      "name": "h1",
                      "type": "uint16"
                    },
                    {
                      "internalType": "uint8",
                      "name": "s1",
                      "type": "uint8"
                    },
                    {
                      "internalType": "uint8",
                      "name": "l1",
                      "type": "uint8"
                    },
                    {
                      "internalType": "uint16",
                      "name": "h2",
                      "type": "uint16"
                    },
                    {
                      "internalType": "uint8",
                      "name": "s2",
                      "type": "uint8"
                    },
                    {
                      "internalType": "uint8",
                      "name": "l2",
                      "type": "uint8"
                    },
                    {
                      "internalType": "uint16",
                      "name": "h3",
                      "type": "uint16"
                    },
                    {
                      "internalType": "uint8",
                      "name": "s3",
                      "type": "uint8"
                    },
                    {
                      "internalType": "uint8",
                      "name": "l3",
                      "type": "uint8"
                    }
                  ],
                  "internalType": "struct Colors",
                  "name": "colors",
                  "type": "tuple"
                },
                {
                  "internalType": "uint16",
                  "name": "variant",
                  "type": "uint16"
                },
                {
                  "internalType": "uint8",
                  "name": "accuracy",
                  "type": "uint8"
                },
                {
                  "internalType": "uint8",
                  "name": "hull",
                  "type": "uint8"
                },
                {
                  "internalType": "uint8",
                  "name": "speed",
                  "type": "uint8"
                }
              ],
              "internalType": "struct Traits",
              "name": "traits",
              "type": "tuple"
            },
            {
              "components": [
                {
                  "internalType": "uint32",
                  "name": "shipsDestroyed",
                  "type": "uint32"
                },
                {
                  "internalType": "uint16",
                  "name": "costsVersion",
                  "type": "uint16"
                },
                {
                  "internalType": "uint16",
                  "name": "cost",
                  "type": "uint16"
                },
                {
                  "internalType": "uint16",
                  "name": "modified",
                  "type": "uint16"
                },
                {
                  "internalType": "bool",
                  "name": "shiny",
                  "type": "bool"
                },
                {
                  "internalType": "bool",
                  "name": "constructed",
                  "type": "bool"
                },
                {
                  "internalType": "bool",
                  "name": "inFleet",
                  "type": "bool"
                },
                {
                  "internalType": "bool",
                  "name": "isFreeShip",
                  "type": "bool"
                },
                {
                  "internalType": "uint256",
                  "name": "timestampDestroyed",
                  "type": "uint256"
                }
              ],
              "internalType": "struct ShipData",
              "name": "shipData",
              "type": "tuple"
            },
            {
              "internalType": "address",
              "name": "owner",
              "type": "address"
            }
          ],
          "internalType": "struct Ship",
          "name": "ship",
          "type": "tuple"
        }
      ],
      "name": "calculateShipCost",
      "outputs": [
        {
          "internalType": "uint16",
          "name": "",
          "type": "uint16"
        }
      ],
      "stateMutability": "view",
      "type": "function"
    },
    {
      "inputs": [],
      "name": "costs",
      "outputs": [
        {
          "internalType": "uint16",
          "name": "version",
          "type": "uint16"
        },
        {
          "internalType": "uint8",
          "name": "baseCost",
          "type": "uint8"
        }
      ],
      "stateMutability": "view",
      "type": "function"
    },
    {
      "inputs": [],
      "name": "currentAttributesVersion",
      "outputs": [
        {
          "internalType": "uint16",
          "name": "",
          "type": "uint16"
        }
      ],
      "stateMutability": "view",
      "type": "function"
    },
    {
      "inputs": [
        {
          "internalType": "enum Armor",
          "name": "_armor",
          "type": "uint8"
        }
      ],
      "name": "getArmorData",
      "outputs": [
        {
          "components": [
            {
              "internalType": "uint8",
              "name": "damageReduction",
              "type": "uint8"
            },
            {
              "internalType": "int8",
              "name": "movement",
              "type": "int8"
            }
          ],
          "internalType": "struct ArmorData",
          "name": "",
          "type": "tuple"
        }
      ],
      "stateMutability": "view",
      "type": "function"
    },
    {
      "inputs": [
        {
          "internalType": "uint16",
          "name": "_version",
          "type": "uint16"
        }
      ],
      "name": "getAttributesVersionBase",
      "outputs": [
        {
          "internalType": "uint16",
          "name": "version",
          "type": "uint16"
        },
        {
          "internalType": "uint8",
          "name": "baseHull",
          "type": "uint8"
        },
        {
          "internalType": "uint8",
          "name": "baseSpeed",
          "type": "uint8"
        }
      ],
      "stateMutability": "view",
      "type": "function"
    },
    {
      "inputs": [],
      "name": "getCosts",
      "outputs": [
        {
          "internalType": "uint256",
          "name": "",
          "type": "uint256"
        },
        {
          "components": [
            {
              "internalType": "uint16",
              "name": "version",
              "type": "uint16"
            },
            {
              "internalType": "uint8",
              "name": "baseCost",
              "type": "uint8"
            },
            {
              "internalType": "uint8[]",
              "name": "accuracy",
              "type": "uint8[]"
            },
            {
              "internalType": "uint8[]",
              "name": "hull",
              "type": "uint8[]"
            },
            {
              "internalType": "uint8[]",
              "name": "speed",
              "type": "uint8[]"
            },
            {
              "internalType": "uint8[]",
              "name": "mainWeapon",
              "type": "uint8[]"
            },
            {
              "internalType": "uint8[]",
              "name": "armor",
              "type": "uint8[]"
            },
            {
              "internalType": "uint8[]",
              "name": "shields",
              "type": "uint8[]"
            },
            {
              "internalType": "uint8[]",
              "name": "special",
              "type": "uint8[]"
            }
          ],
          "internalType": "struct Costs",
          "name": "",
          "type": "tuple"
        }
      ],
      "stateMutability": "view",
      "type": "function"
    },
    {
      "inputs": [],
      "name": "getCurrentAttributesVersion",
      "outputs": [
        {
          "internalType": "uint16",
          "name": "",
          "type": "uint16"
        }
      ],
      "stateMutability": "view",
      "type": "function"
    },
    {
      "inputs": [],
      "name": "getCurrentCostsVersion",
      "outputs": [
        {
          "internalType": "uint16",
          "name": "",
          "type": "uint16"
        }
      ],
      "stateMutability": "view",
      "type": "function"
    },
    {
      "inputs": [
        {
          "internalType": "enum MainWeapon",
          "name": "_weapon",
          "type": "uint8"
        }
      ],
      "name": "getGunData",
      "outputs": [
        {
          "components": [
            {
              "internalType": "uint8",
              "name": "range",
              "type": "uint8"
            },
            {
              "internalType": "uint8",
              "name": "damage",
              "type": "uint8"
            },
            {
              "internalType": "int8",
              "name": "movement",
              "type": "int8"
            }
          ],
          "internalType": "struct GunData",
          "name": "",
          "type": "tuple"
        }
      ],
      "stateMutability": "view",
      "type": "function"
    },
    {
      "inputs": [
        {
          "internalType": "uint256",
          "name": "_shipsDestroyed",
          "type": "uint256"
        }
      ],
      "name": "getRank",
      "outputs": [
        {
          "internalType": "uint8",
          "name": "",
          "type": "uint8"
        }
      ],
      "stateMutability": "pure",
      "type": "function"
    },
    {
      "inputs": [
        {
          "internalType": "enum Shields",
          "name": "_shields",
          "type": "uint8"
        }
      ],
      "name": "getShieldData",
      "outputs": [
        {
          "components": [
            {
              "internalType": "uint8",
              "name": "damageReduction",
              "type": "uint8"
            },
            {
              "internalType": "int8",
              "name": "movement",
              "type": "int8"
            }
          ],
          "internalType": "struct ShieldData",
          "name": "",
          "type": "tuple"
        }
      ],
      "stateMutability": "view",
      "type": "function"
    },
    {
      "inputs": [
        {
          "internalType": "enum Special",
          "name": "_special",
          "type": "uint8"
        }
      ],
      "name": "getSpecialData",
      "outputs": [
        {
          "components": [
            {
              "internalType": "uint8",
              "name": "range",
              "type": "uint8"
            },
            {
              "internalType": "uint8",
              "name": "strength",
              "type": "uint8"
            },
            {
              "internalType": "int8",
              "name": "movement",
              "type": "int8"
            }
          ],
          "internalType": "struct SpecialData",
          "name": "",
          "type": "tuple"
        }
      ],
      "stateMutability": "view",
      "type": "function"
    },
    {
      "inputs": [
        {
          "internalType": "enum Special",
          "name": "_special",
          "type": "uint8"
        }
      ],
      "name": "getSpecialRange",
      "outputs": [
        {
          "internalType": "uint8",
          "name": "",
          "type": "uint8"
        }
      ],
      "stateMutability": "view",
      "type": "function"
    },
    {
      "inputs": [
        {
          "internalType": "enum Special",
          "name": "_special",
          "type": "uint8"
        }
      ],
      "name": "getSpecialStrength",
      "outputs": [
        {
          "internalType": "uint8",
          "name": "",
          "type": "uint8"
        }
      ],
      "stateMutability": "view",
      "type": "function"
    },
    {
      "inputs": [],
      "name": "owner",
      "outputs": [
        {
          "internalType": "address",
          "name": "",
          "type": "address"
        }
      ],
      "stateMutability": "view",
      "type": "function"
    },
    {
      "inputs": [],
      "name": "renounceOwnership",
      "outputs": [],
      "stateMutability": "nonpayable",
      "type": "function"
    },
    {
      "inputs": [
        {
          "internalType": "uint8",
          "name": "_baseHull",
          "type": "uint8"
        },
        {
          "internalType": "uint8",
          "name": "_baseSpeed",
          "type": "uint8"
        },
        {
          "components": [
            {
              "internalType": "uint8",
              "name": "range",
              "type": "uint8"
            },
            {
              "internalType": "uint8",
              "name": "damage",
              "type": "uint8"
            },
            {
              "internalType": "int8",
              "name": "movement",
              "type": "int8"
            }
          ],
          "internalType": "struct GunData[]",
          "name": "_guns",
          "type": "tuple[]"
        },
        {
          "components": [
            {
              "internalType": "uint8",
              "name": "damageReduction",
              "type": "uint8"
            },
            {
              "internalType": "int8",
              "name": "movement",
              "type": "int8"
            }
          ],
          "internalType": "struct ArmorData[]",
          "name": "_armors",
          "type": "tuple[]"
        },
        {
          "components": [
            {
              "internalType": "uint8",
              "name": "damageReduction",
              "type": "uint8"
            },
            {
              "internalType": "int8",
              "name": "movement",
              "type": "int8"
            }
          ],
          "internalType": "struct ShieldData[]",
          "name": "_shields",
          "type": "tuple[]"
        },
        {
          "components": [
            {
              "internalType": "uint8",
              "name": "range",
              "type": "uint8"
            },
            {
              "internalType": "uint8",
              "name": "strength",
              "type": "uint8"
            },
            {
              "internalType": "int8",
              "name": "movement",
              "type": "int8"
            }
          ],
          "internalType": "struct SpecialData[]",
          "name": "_specials",
          "type": "tuple[]"
        },
        {
          "internalType": "uint8[]",
          "name": "_foreAccuracy",
          "type": "uint8[]"
        },
        {
          "internalType": "uint8[]",
          "name": "_hull",
          "type": "uint8[]"
        },
        {
          "internalType": "uint8[]",
          "name": "_engineSpeeds",
          "type": "uint8[]"
        }
      ],
      "name": "setAllAttributes",
      "outputs": [],
      "stateMutability": "nonpayable",
      "type": "function"
    },
    {
      "inputs": [
        {
          "components": [
            {
              "internalType": "uint16",
              "name": "version",
              "type": "uint16"
            },
            {
              "internalType": "uint8",
              "name": "baseCost",
              "type": "uint8"
            },
            {
              "internalType": "uint8[]",
              "name": "accuracy",
              "type": "uint8[]"
            },
            {
              "internalType": "uint8[]",
              "name": "hull",
              "type": "uint8[]"
            },
            {
              "internalType": "uint8[]",
              "name": "speed",
              "type": "uint8[]"
            },
            {
              "internalType": "uint8[]",
              "name": "mainWeapon",
              "type": "uint8[]"
            },
            {
              "internalType": "uint8[]",
              "name": "armor",
              "type": "uint8[]"
            },
            {
              "internalType": "uint8[]",
              "name": "shields",
              "type": "uint8[]"
            },
            {
              "internalType": "uint8[]",
              "name": "special",
              "type": "uint8[]"
            }
          ],
          "internalType": "struct Costs",
          "name": "_costs",
          "type": "tuple"
        }
      ],
      "name": "setCosts",
      "outputs": [],
      "stateMutability": "nonpayable",
      "type": "function"
    },
    {
      "inputs": [
        {
          "internalType": "uint16",
          "name": "_version",
          "type": "uint16"
        }
      ],
      "name": "setCurrentAttributesVersion",
      "outputs": [],
      "stateMutability": "nonpayable",
      "type": "function"
    },
    {
      "inputs": [
        {
          "internalType": "address",
          "name": "_ships",
          "type": "address"
        }
      ],
      "name": "setShipsAddress",
      "outputs": [],
      "stateMutability": "nonpayable",
      "type": "function"
    },
    {
      "inputs": [],
      "name": "ships",
      "outputs": [
        {
          "internalType": "contract IShips",
          "name": "",
          "type": "address"
        }
      ],
      "stateMutability": "view",
      "type": "function"
    },
    {
      "inputs": [
        {
          "internalType": "address",
          "name": "newOwner",
          "type": "address"
        }
      ],
      "name": "transferOwnership",
      "outputs": [],
      "stateMutability": "nonpayable",
      "type": "function"
    }
  ],
  "bytecode": "0x608060405234801561001057600080fd5b506040516140a13803806140a183398101604081905261002f91611024565b338061005557604051631e4fbdf760e01b81526000600482015260240160405180910390fd5b61005e81610f19565b50600180546001600160a01b0319166001600160a01b0383161781556003805461ffff191690911781556004805462ffffff1916623200011790556040805160608101825260008152600a60208201526019918101919091526100c49160059190610f69565b506040805160608101825260008152600a60208201526019918101919091526100f1906006906003610f69565b506040805160608101825260008152600a602082015260199181019190915261011e906007906003610f69565b506040805160808101825260198152601e602082015260289181018290526060810191909152610152906008906004610f69565b50604080516080810182526000815260056020820152600a91810191909152600f6060820152610186906009906004610f69565b506040805160808101825260008152600a60208201819052601492820192909252601e60608201526101ba91906004610f69565b506040805160808101825260008152600a6020820152601491810191909152600f60608201526101ee90600b906004610f69565b50600060026000600161ffff168152602001908152602001600020905060018160000160006101000a81548161ffff021916908361ffff16021790555060648160000160026101000a81548160ff021916908360ff16021790555060038160000160036101000a81548160ff021916908360ff16021790555080600101600090806001815401808255809150506001900390600052602060002090602091828204019190069091909190916101000a81548160ff021916908360ff16021790555080600101601990806001815401808255809150506001900390600052602060002090602091828204019190069091909190916101000a81548160ff021916908360ff16021790555080600101603290806001815401808255809150506001900390600052602060002090602091828204019190069091909190916101000a81548160ff021916908360ff16021790555080600201600090806001815401808255809150506001900390600052602060002090602091828204019190069091909190916101000a81548160ff021916908360ff16021790555080600201600a90806001815401808255809150506001900390600052602060002090602091828204019190069091909190916101000a81548160ff021916908360ff16021790555080600201601490806001815401808255809150506001900390600052602060002090602091828204019190069091909190916101000a81548160ff021916908360ff16021790555080600301600090806001815401808255809150506001900390600052602060002090602091828204019190069091909190916101000a81548160ff021916908360ff16021790555080600301600190806001815401808255809150506001900390600052602060002090602091828204019190069091909190916101000a81548160ff021916908360ff16021790555080600301600290806001815401808255809150506001900390600052602060002090602091828204019190069091909190916101000a81548160ff021916908360ff160217905550806004016040518060600160405280600360ff168152602001603260ff1681526020016000800b8152509080600181540180825580915050600190039060005260206000200160009091909190915060008201518160000160006101000a81548160ff021916908360ff16021790555060208201518160000160016101000a81548160ff021916908360ff16021790555060408201518160000160026101000a81548160ff021916908360000b60ff1602179055505050806004016040518060600160405280600660ff168152602001602860ff1681526020016000800b8152509080600181540180825580915050600190039060005260206000200160009091909190915060008201518160000160006101000a81548160ff021916908360ff16021790555060208201518160000160016101000a81548160ff021916908360ff16021790555060408201518160000160026101000a81548160ff021916908360000b60ff1602179055505050806004016040518060600160405280600460ff168152602001603c60ff16815260200160001960000b8152509080600181540180825580915050600190039060005260206000200160009091909190915060008201518160000160006101000a81548160ff021916908360ff16021790555060208201518160000160016101000a81548160ff021916908360ff16021790555060408201518160000160026101000a81548160ff021916908360000b60ff1602179055505050806004016040518060600160405280600260ff168152602001605060ff1681526020016000800b8152509080600181540180825580915050600190039060005260206000200160009091909190915060008201518160000160006101000a81548160ff021916908360ff16021790555060208201518160000160016101000a81548160ff021916908360ff16021790555060408201518160000160026101000a81548160ff021916908360000b60ff1602179055505050806005016040518060400160405280600060ff168152602001600160000b8152509080600181540180825580915050600190039060005260206000200160009091909190915060008201518160000160006101000a81548160ff021916908360ff16021790555060208201518160000160016101000a81548160ff021916908360000b60ff1602179055505050806005016040518060400160405280600f60ff1681526020016000800b8152509080600181540180825580915050600190039060005260206000200160009091909190915060008201518160000160006101000a81548160ff021916908360ff16021790555060208201518160000160016101000a81548160ff021916908360000b60ff1602179055505050806005016040518060400160405280601e60ff16815260200160001960000b8152509080600181540180825580915050600190039060005260206000200160009091909190915060008201518160000160006101000a81548160ff021916908360ff16021790555060208201518160000160016101000a81548160ff021916908360000b60ff1602179055505050806005016040518060400160405280602d60ff16815260200160011960000b8152509080600181540180825580915050600190039060005260206000200160009091909190915060008201518160000160006101000a81548160ff021916908360ff16021790555060208201518160000160016101000a81548160ff021916908360000b60ff1602179055505050806006016040518060400160405280600060ff168152602001600160000b8152509080600181540180825580915050600190039060005260206000200160009091909190915060008201518160000160006101000a81548160ff021916908360ff16021790555060208201518160000160016101000a81548160ff021916908360000b60ff1602179055505050806006016040518060400160405280600f60ff168152602001600160000b8152509080600181540180825580915050600190039060005260206000200160009091909190915060008201518160000160006101000a81548160ff021916908360ff16021790555060208201518160000160016101000a81548160ff021916908360000b60ff1602179055505050806006016040518060400160405280601e60ff1681526020016000800b8152509080600181540180825580915050600190039060005260206000200160009091909190915060008201518160000160006101000a81548160ff021916908360ff16021790555060208201518160000160016101000a81548160ff021916908360000b60ff1602179055505050806006016040518060400160405280602d60ff16815260200160001960000b8152509080600181540180825580915050600190039060005260206000200160009091909190915060008201518160000160006101000a81548160ff021916908360ff16021790555060208201518160000160016101000a81548160ff021916908360000b60ff1602179055505050806007016040518060600160405280600060ff168152602001600060ff1681526020016000800b8152509080600181540180825580915050600190039060005260206000200160009091909190915060008201518160000160006101000a81548160ff021916908360ff16021790555060208201518160000160016101000a81548160ff021916908360ff16021790555060408201518160000160026101000a81548160ff021916908360000b60ff1602179055505050806007016040518060600160405280600160ff168152602001600160ff1681526020016000800b8152509080600181540180825580915050600190039060005260206000200160009091909190915060008201518160000160006101000a81548160ff021916908360ff16021790555060208201518160000160016101000a81548160ff021916908360ff16021790555060408201518160000160026101000a81548160ff021916908360000b60ff1602179055505050806007016040518060600160405280600360ff168152602001602860ff1681526020016000800b8152509080600181540180825580915050600190039060005260206000200160009091909190915060008201518160000160006101000a81548160ff021916908360ff16021790555060208201518160000160016101000a81548160ff021916908360ff16021790555060408201518160000160026101000a81548160ff021916908360000b60ff1602179055505050806007016040518060600160405280600360ff168152602001601e60ff1681526020016000800b8152509080600181540180825580915050600190039060005260206000200160009091909190915060008201518160000160006101000a81548160ff021916908360ff16021790555060208201518160000160016101000a81548160ff021916908360ff16021790555060408201518160000160026101000a81548160ff021916908360000b60ff16021790555050505050611054565b600080546001600160a01b038381166001600160a01b0319831681178455604051919092169283917f8be0079c531659141344cd1fd0a4f28419497f9722a3daafe3b4186f6b6457e09190a35050565b82805482825590600052602060002090601f01602090048101928215610fff5791602002820160005b83821115610fd057835183826101000a81548160ff021916908360ff1602179055509260200192600101602081600001049283019260010302610f92565b8015610ffd5782816101000a81549060ff0219169055600101602081600001049283019260010302610fd0565b505b5061100b92915061100f565b5090565b5b8082111561100b5760008155600101611010565b60006020828403121561103657600080fd5b81516001600160a01b038116811461104d57600080fd5b9392505050565b61303e806110636000396000f3fe608060405234801561001057600080fd5b506004361061018e5760003560e01c80638e1b4a83116100de578063ceb3a61211610097578063e7fae62511610071578063e7fae62514610422578063f2fde38b14610435578063fe367db314610448578063ff758d021461045b57600080fd5b8063ceb3a612146103e9578063d5d233f8146103fc578063e197c6271461040f57600080fd5b80638e1b4a8314610338578063a5099bae14610346578063a89a24f814610359578063a89f746514610396578063a918e521146103b6578063bbf8218a146103d657600080fd5b80634792235f1161014b578063776d62f611610125578063776d62f6146102ab5780637e0b245f146102e0578063863bea7f146103005780638da5cb5b1461031357600080fd5b80634792235f1461026b578063670fa22e1461027e578063715018a6146102a357600080fd5b806303075018146101935780630f0bba00146101b257806311fa2bae1461020f5780631d727ba51461022a5780633130f7ce1461023f578063321eed351461024b575b600080fd5b61019b61046e565b6040516101a9929190611e6b565b60405180910390f35b6101eb6101c0366004611f94565b60026020526000908152604090205461ffff81169060ff620100008204811691630100000090041683565b6040805161ffff909416845260ff92831660208501529116908201526060016101a9565b60035461ffff165b60405161ffff90911681526020016101a9565b61023d610238366004612117565b610835565b005b60045461ffff16610217565b61025e6102593660046122ad565b610963565b6040516101a991906123f2565b61023d6102793660046125eb565b610aba565b61029161028c366004612756565b610f08565b60405160ff90911681526020016101a9565b61023d610f61565b6004546102c49061ffff81169062010000900460ff1682565b6040805161ffff909316835260ff9091166020830152016101a9565b6102f36102ee366004612756565b610f75565b6040516101a99190612773565b61021761030e366004612a53565b610ff8565b6000546001600160a01b03165b6040516001600160a01b0390911681526020016101a9565b6003546102179061ffff1681565b610291610354366004612b50565b611260565b6101eb610367366004611f94565b61ffff9081166000908152600260205260409020549081169160ff620100008304811692630100000090041690565b6103a96103a4366004612a53565b6112c1565b6040516101a99190612b69565b6103c96103c4366004612756565b611648565b6040516101a99190612b7c565b600154610320906001600160a01b031681565b6102916103f7366004612756565b6116df565b61023d61040a366004612baa565b611733565b6103a961041d366004612b50565b61175d565b6103c9610430366004612756565b61180e565b61023d610443366004612baa565b611853565b6102f3610456366004612756565b611896565b61023d610469366004611f94565b6118d4565b60006104c6604051806101200160405280600061ffff168152602001600060ff168152602001606081526020016060815260200160608152602001606081526020016060815260200160608152602001606081525090565b60048054604080516101208101825261ffff83168082526201000090930460ff1660208083019190915260058054845181840281018401865281815295969593948694908601939092919083018282801561055e57602002820191906000526020600020906000905b825461010083900a900460ff1681526020600192830181810494850194909303909202910180841161052f5790505b50505050508152602001600282018054806020026020016040519081016040528092919081815260200182805480156105d457602002820191906000526020600020906000905b825461010083900a900460ff168152602060019283018181049485019490930390920291018084116105a55790505b505050505081526020016003820180548060200260200160405190810160405280929190818152602001828054801561064a57602002820191906000526020600020906000905b825461010083900a900460ff1681526020600192830181810494850194909303909202910180841161061b5790505b50505050508152602001600482018054806020026020016040519081016040528092919081815260200182805480156106c057602002820191906000526020600020906000905b825461010083900a900460ff168152602060019283018181049485019490930390920291018084116106915790505b505050505081526020016005820180548060200260200160405190810160405280929190818152602001828054801561073657602002820191906000526020600020906000905b825461010083900a900460ff168152602060019283018181049485019490930390920291018084116107075790505b50505050508152602001600682018054806020026020016040519081016040528092919081815260200182805480156107ac57602002820191906000526020600020906000905b825461010083900a900460ff1681526020600192830181810494850194909303909202910180841161077d5790505b505050505081526020016007820180548060200260200160405190810160405280929190818152602001828054801561082257602002820191906000526020600020906000905b825461010083900a900460ff168152602060019283018181049485019490930390920291018084116107f35790505b5050505050815250509050915091509091565b61083d6118f4565b6004805461ffff1690600061085183612bdd565b82546101009290920a61ffff8181021990931691831602179091558251600480546020808701519390941662ffffff19909116176201000060ff909316929092029190911781556040840151805185945091926108b49260059290910190611c91565b50606082015180516108d0916002840191602090910190611c91565b50608082015180516108ec916003840191602090910190611c91565b5060a08201518051610908916004840191602090910190611c91565b5060c08201518051610924916005840191602090910190611c91565b5060e08201518051610940916006840191602090910190611c91565b50610100820151805161095d916007840191602090910190611c91565b50505050565b6060600082516001600160401b0381111561098057610980611fb1565b6040519080825280602002602001820160405280156109b957816020015b6109a6611d37565b81526020019060019003908161099e5790505b50905060005b8351811015610ab35760015484516000916001600160a01b031690634025b22d908790859081106109f2576109f2612bfe565b60200260200101516040518263ffffffff1660e01b8152600401610a1891815260200190565b600060405180830381865afa158015610a35573d6000803e3d6000fd5b505050506040513d6000823e601f3d908101601f19168201604052610a5d9190810190612e79565b90508060200151600003610a84576040516303c113ad60e61b815260040160405180910390fd5b610a8d816112c1565b838381518110610a9f57610a9f612bfe565b6020908102919091010152506001016109bf565b5092915050565b610ac26118f4565b6003805461ffff16906000610ad683612bdd565b91906101000a81548161ffff021916908361ffff160217905550506000600360009054906101000a900461ffff1690506000600260008361ffff1661ffff1681526020019081526020016000209050818160000160006101000a81548161ffff021916908361ffff1602179055508a8160000160026101000a81548160ff021916908360ff160217905550898160000160036101000a81548160ff021916908360ff160217905550806004016000610b8e9190611d85565b60005b8951811015610c1157816004018a8281518110610bb057610bb0612bfe565b6020908102919091018101518254600181810185556000948552938390208251910180549383015160409093015160ff908116620100000262ff0000199482166101000261ffff199096169190931617939093179190911617905501610b91565b50610c20600582016000611da3565b60005b8851811015610c875781600501898281518110610c4257610c42612bfe565b602090810291909101810151825460018181018555600094855293839020825191018054929093015160ff9081166101000261ffff1990931691161717905501610c23565b50610c96600682016000611da3565b60005b8751811015610cfd5781600601888281518110610cb857610cb8612bfe565b602090810291909101810151825460018181018555600094855293839020825191018054929093015160ff9081166101000261ffff1990931691161717905501610c99565b50610d0c600782016000611d85565b60005b8651811015610d8f5781600701878281518110610d2e57610d2e612bfe565b6020908102919091018101518254600181810185556000948552938390208251910180549383015160409093015160ff908116620100000262ff0000199482166101000261ffff199096169190931617939093179190911617905501610d0f565b50610d9e600182016000611dc1565b60005b8551811015610e085781600101868281518110610dc057610dc0612bfe565b602090810291909101810151825460018181018555600094855293839020928104909201805460ff928316601f9094166101000a938402929093021990921617905501610da1565b50610e17600282016000611dc1565b60005b8451811015610e815781600201858281518110610e3957610e39612bfe565b602090810291909101810151825460018181018555600094855293839020928104909201805460ff928316601f9094166101000a938402929093021990921617905501610e1a565b50610e90600382016000611dc1565b60005b8351811015610efa5781600301848281518110610eb257610eb2612bfe565b602090810291909101810151825460018181018555600094855293839020928104909201805460ff928316601f9094166101000a938402929093021990921617905501610e93565b505050505050505050505050565b60035461ffff1660009081526002602052604081206007908101908390811115610f3457610f34612f7f565b60ff1681548110610f4757610f47612bfe565b600091825260209091200154610100900460ff1692915050565b610f696118f4565b610f736000611921565b565b604080518082019091526000808252602082015260035461ffff166000908152600260205260409020600501826007811115610fb357610fb3612f7f565b60ff1681548110610fc657610fc6612bfe565b600091825260208083206040805180820190915292015460ff81168352610100900490920b9181019190915292915050565b6000806004600701836040015160600151600781111561101a5761101a612f7f565b60ff168154811061102d5761102d612bfe565b90600052602060002090602091828204019190069054906101000a900460ff166004600601846040015160400151600781111561106c5761106c612f7f565b60ff168154811061107f5761107f612bfe565b90600052602060002090602091828204019190069054906101000a900460ff16600460050185604001516020015160078111156110be576110be612f7f565b60ff16815481106110d1576110d1612bfe565b90600052602060002090602091828204019190069054906101000a900460ff1660048001866040015160000151600781111561110f5761110f612f7f565b60ff168154811061112257611122612bfe565b90600052602060002090602091828204019190069054906101000a900460ff166004600301876060015160a0015160ff168154811061116357611163612bfe565b90600052602060002090602091828204019190069054906101000a900460ff16600460020188606001516080015160ff16815481106111a4576111a4612bfe565b90600052602060002090602091828204019190069054906101000a900460ff16600460010189606001516060015160ff16815481106111e5576111e5612bfe565b60009182526020918290209181049091015460045461121a92601f166101000a90910460ff9081169162010000900416612f95565b6112249190612f95565b61122e9190612f95565b6112389190612f95565b6112429190612f95565b61124c9190612f95565b6112569190612f95565b60ff169392505050565b60006103e8821061127357506006919050565b61012c821061128457506005919050565b6064821061129457506004919050565b601e82106112a457506003919050565b600a82106112b457506002919050565b506001919050565b919050565b6112c9611d37565b81602001516000036112ee576040516303c113ad60e61b815260040160405180910390fd5b600061130783608001516000015163ffffffff16611260565b905060008160ff1660010361131e57506000611379565b8160ff166002036113315750600a611379565b8160ff1660030361134457506014611379565b8160ff166004036113575750601e611379565b8160ff1660050361136a57506028611379565b60068260ff1610611379575060325b611381611d37565b60035461ffff1680825260009081526002602052604090819020908601515160049091019060078111156113b7576113b7612f7f565b60ff16815481106113ca576113ca612bfe565b600091825260208083209091015460ff9081169184018290526064916113f291861690612fae565b6113fc9190612fc5565b905080826020018181516114109190612f95565b60ff90811690915260035461ffff16600090815260026020526040812060608a810151015160019091018054929450921690811061145057611450612bfe565b600091825260209182902082820401549185015160ff601f9092166101000a9092048116925060649161148591849116612fae565b61148f9190612fc5565b915081836020018181516114a39190612f95565b60ff1690525060035461ffff1660009081526002602052604090819020908801515160049091019060078111156114dc576114dc612f7f565b60ff16815481106114ef576114ef612bfe565b60009182526020909120015460ff61010090910481166040850181905260649161151c9190871690612fae565b6115269190612fc5565b9150818360400181815161153a9190612f95565b60ff1690525061154987611971565b60ff908116606085018190526064916115659190871690612fae565b61156f9190612fc5565b915081836060018181516115839190612f95565b60ff9081169091526060850151166080850152506115a0876119f0565b60ff90811660a085018190526064916115bc9190871690612fae565b6115c69190612fc5565b9150818360a0018181516115da9190612f95565b60ff169052506115e987611bd9565b60ff90811660c085018190526064916116059190871690612fae565b61160f9190612fc5565b9150818360c0018181516116239190612f95565b60ff169052505060408051600081526020810190915261010083015250949350505050565b604080516060810182526000808252602080830182905282840182905260035461ffff168252600290529190912060040182600781111561168b5761168b612f7f565b60ff168154811061169e5761169e612bfe565b6000918252602080832060408051606081018252919093015460ff8082168352610100820416928201929092526201000090910490920b9082015292915050565b60035461ffff166000908152600260205260408120600790810190839081111561170b5761170b612f7f565b60ff168154811061171e5761171e612bfe565b60009182526020909120015460ff1692915050565b61173b6118f4565b600180546001600160a01b0319166001600160a01b0392909216919091179055565b611765611d37565b600154604051634025b22d60e01b8152600481018490526000916001600160a01b031690634025b22d90602401600060405180830381865afa1580156117af573d6000803e3d6000fd5b505050506040513d6000823e601f3d908101601f191682016040526117d79190810190612e79565b905080602001516000036117fe576040516303c113ad60e61b815260040160405180910390fd5b611807816112c1565b9392505050565b604080516060810182526000808252602080830182905282840182905260035461ffff1682526002905291909120600790810190839081111561168b5761168b612f7f565b61185b6118f4565b6001600160a01b03811661188a57604051631e4fbdf760e01b8152600060048201526024015b60405180910390fd5b61189381611921565b50565b604080518082019091526000808252602082015260035461ffff166000908152600260205260409020600601826007811115610fb357610fb3612f7f565b6118dc6118f4565b6003805461ffff191661ffff92909216919091179055565b6000546001600160a01b03163314610f735760405163118cdaa760e01b8152336004820152602401611881565b600080546001600160a01b038381166001600160a01b0319831681178455604051919092169283917f8be0079c531659141344cd1fd0a4f28419497f9722a3daafe3b4186f6b6457e09190a35050565b60035461ffff166000908152600260208190526040822080546060850151608001519282018054929360ff620100009093048316938693919091169081106119bb576119bb612bfe565b60009182526020918290209181049091015460ff601f9092166101000a90041690506119e78183612f95565b95945050505050565b6003805461ffff1660009081526002602052604081208054606085015160a00151938201805493949293630100000090920460ff9081169391929116908110611a3b57611a3b612bfe565b90600052602060002090602091828204019190069054906101000a900460ff1681611a669190612fe7565b90506000826004018560400151600001516007811115611a8857611a88612f7f565b60ff1681548110611a9b57611a9b612bfe565b9060005260206000200160000160029054906101000a900460000b90506000836005018660400151602001516007811115611ad857611ad8612f7f565b60ff1681548110611aeb57611aeb612bfe565b60009182526020822001546040808901510151610100909104820b925060068601906007811115611b1e57611b1e612f7f565b60ff1681548110611b3157611b31612bfe565b6000918252602082200154604089015160600151610100909104820b925060078088019190811115611b6557611b65612f7f565b60ff1681548110611b7857611b78612bfe565b6000918252602082200154620100009004900b90508082611b998587612fe7565b611ba39190612fe7565b611bad9190612fe7565b611bb79086612fe7565b945060008560000b13611bcb576000611bcd565b845b98975050505050505050565b60035461ffff1660009081526002602090815260408083209084015190910151829060058301906007811115611c1157611c11612f7f565b60ff1681548110611c2457611c24612bfe565b600091825260209091200154611c3d9060ff1682612f95565b9050816006018460400151604001516007811115611c5d57611c5d612f7f565b60ff1681548110611c7057611c70612bfe565b600091825260209091200154611c899060ff1682612f95565b949350505050565b82805482825590600052602060002090601f01602090048101928215611d275791602002820160005b83821115611cf857835183826101000a81548160ff021916908360ff1602179055509260200192600101602081600001049283019260010302611cba565b8015611d255782816101000a81549060ff0219169055600101602081600001049283019260010302611cf8565b505b50611d33929150611de2565b5090565b604080516101208101825260008082526020820181905291810182905260608082018390526080820183905260a0820183905260c0820183905260e082019290925261010081019190915290565b50805460008255906000526020600020908101906118939190611df7565b50805460008255906000526020600020908101906118939190611e12565b50805460008255601f01602090049060005260206000209081019061189391905b5b80821115611d335760008155600101611de3565b5b80821115611d3357805462ffffff19168155600101611df8565b5b80821115611d3357805461ffff19168155600101611e13565b600081518084526020840193506020830160005b82811015611e6157815160ff16865260209586019590910190600101611e40565b5093949350505050565b82815260406020820152611e8660408201835161ffff169052565b60006020830151611e9c606084018260ff169052565b5060408301516101206080840152611eb8610160840182611e2c565b90506060840151603f198483030160a0850152611ed58282611e2c565b9150506080840151603f198483030160c0850152611ef38282611e2c565b91505060a0840151603f198483030160e0850152611f118282611e2c565b91505060c0840151603f1984830301610100850152611f308282611e2c565b91505060e0840151603f1984830301610120850152611f4f8282611e2c565b915050610100840151603f1984830301610140850152611f6f8282611e2c565b9695505050505050565b61ffff8116811461189357600080fd5b80356112bc81611f79565b600060208284031215611fa657600080fd5b813561180781611f79565b634e487b7160e01b600052604160045260246000fd5b60405161012081016001600160401b0381118282101715611fea57611fea611fb1565b60405290565b604051608081016001600160401b0381118282101715611fea57611fea611fb1565b60405160c081016001600160401b0381118282101715611fea57611fea611fb1565b604051601f8201601f191681016001600160401b038111828210171561205c5761205c611fb1565b604052919050565b60ff8116811461189357600080fd5b80356112bc81612064565b60006001600160401b0382111561209757612097611fb1565b5060051b60200190565b600082601f8301126120b257600080fd5b81356120c56120c08261207e565b612034565b8082825260208201915060208360051b8601019250858311156120e757600080fd5b602085015b8381101561210d5780356120ff81612064565b8352602092830192016120ec565b5095945050505050565b60006020828403121561212957600080fd5b81356001600160401b0381111561213f57600080fd5b8201610120818503121561215257600080fd5b61215a611fc7565b61216382611f89565b815261217160208301612073565b602082015260408201356001600160401b0381111561218f57600080fd5b61219b868285016120a1565b60408301525060608201356001600160401b038111156121ba57600080fd5b6121c6868285016120a1565b60608301525060808201356001600160401b038111156121e557600080fd5b6121f1868285016120a1565b60808301525060a08201356001600160401b0381111561221057600080fd5b61221c868285016120a1565b60a08301525060c08201356001600160401b0381111561223b57600080fd5b612247868285016120a1565b60c08301525060e08201356001600160401b0381111561226657600080fd5b612272868285016120a1565b60e0830152506101008201356001600160401b0381111561229257600080fd5b61229e868285016120a1565b61010083015250949350505050565b6000602082840312156122bf57600080fd5b81356001600160401b038111156122d557600080fd5b8201601f810184136122e657600080fd5b80356122f46120c08261207e565b8082825260208201915060208360051b85010192508683111561231657600080fd5b6020840193505b82841015611f6f57833582526020938401939091019061231d565b805161ffff16825260006020820151612356602085018260ff169052565b50604082015161236b604085018260ff169052565b506060820151612380606085018260ff169052565b506080820151612395608085018260ff169052565b5060a08201516123aa60a085018260ff169052565b5060c08201516123bf60c085018260ff169052565b5060e08201516123d460e085018260ff169052565b50610100820151610120610100850152611c89610120850182611e2c565b6000602082016020835280845180835260408501915060408160051b86010192506020860160005b8281101561244b57603f19878603018452612436858351612338565b9450602093840193919091019060010161241a565b50929695505050505050565b8035600081900b81146112bc57600080fd5b600082601f83011261247a57600080fd5b813560208301600061248e6120c08461207e565b8381526060909302820192905060208101868411156124ac57600080fd5b8383101561210d576000606084890312156124c5578081fd5b604051606081016001600160401b03811182821017156124e7576124e7611fb1565b604052843591506124f782612064565b90815260208401359061250982612064565b81602082015261251b60408601612457565b6040820152825250606092909201916020016124ac565b600082601f83011261254357600080fd5b81356020830160006125576120c08461207e565b83815260069390931b8201929050602081018684111561257657600080fd5b8383101561210d5760006040848903121561258f578081fd5b604080519081016001600160401b03811182821017156125b1576125b1611fb1565b604052843591506125c182612064565b8181526125d060208601612457565b60208201528083525050602081019050604083019250612576565b60008060008060008060008060006101208a8c03121561260a57600080fd5b6126138a612073565b985061262160208b01612073565b975060408a01356001600160401b0381111561263c57600080fd5b6126488c828d01612469565b97505060608a01356001600160401b0381111561266457600080fd5b6126708c828d01612532565b96505060808a01356001600160401b0381111561268c57600080fd5b6126988c828d01612532565b95505060a08a01356001600160401b038111156126b457600080fd5b6126c08c828d01612469565b94505060c08a01356001600160401b038111156126dc57600080fd5b6126e88c828d016120a1565b93505060e08a01356001600160401b0381111561270457600080fd5b6127108c828d016120a1565b9250506101008a01356001600160401b0381111561272d57600080fd5b6127398c828d016120a1565b9150509295985092959850929598565b6008811061189357600080fd5b60006020828403121561276857600080fd5b813561180781612749565b815160ff16815260208083015160000b90820152604081015b92915050565b60006001600160401b038211156127ab576127ab611fb1565b50601f01601f191660200190565b6000608082840312156127cb57600080fd5b6127d3611ff0565b905081356127e081612749565b815260208201356127f081612749565b6020820152604082013561280381612749565b6040820152606082013561281681612749565b606082015292915050565b60008183036101c081121561283557600080fd5b61283d612012565b833581529150610120601f198201121561285657600080fd5b5061285f611fc7565b61286b60208401611f89565b815261287960408401612073565b602082015261288a60608401612073565b604082015261289b60808401611f89565b60608201526128ac60a08401612073565b60808201526128bd60c08401612073565b60a08201526128ce60e08401611f89565b60c08201526128e06101008401612073565b60e08201526128f26101208401612073565b610100820152602082015261290a6101408301611f89565b604082015261291c6101608301612073565b606082015261292e6101808301612073565b60808201526129406101a08301612073565b60a082015292915050565b63ffffffff8116811461189357600080fd5b80356112bc8161294b565b801515811461189357600080fd5b80356112bc81612968565b6000610120828403121561299457600080fd5b61299c611fc7565b90506129a78261295d565b81526129b560208301611f89565b60208201526129c660408301611f89565b60408201526129d760608301611f89565b60608201526129e860808301612976565b60808201526129f960a08301612976565b60a0820152612a0a60c08301612976565b60c0820152612a1b60e08301612976565b60e08201526101009182013591810191909152919050565b6001600160a01b038116811461189357600080fd5b80356112bc81612a33565b600060208284031215612a6557600080fd5b81356001600160401b03811115612a7b57600080fd5b82016103c08185031215612a8e57600080fd5b612a96612012565b81356001600160401b03811115612aac57600080fd5b8201601f81018613612abd57600080fd5b8035612acb6120c082612792565b818152876020838501011115612ae057600080fd5b81602084016020830137600060209282018301528352838101359083015250612b0c85604084016127b9565b6040820152612b1e8560c08401612821565b6060820152612b31856102808401612981565b6080820152612b436103a08301612a48565b60a0820152949350505050565b600060208284031215612b6257600080fd5b5035919050565b6020815260006118076020830184612338565b6060810161278c828460ff815116825260ff6020820151166020830152604081015160000b60408301525050565b600060208284031215612bbc57600080fd5b813561180781612a33565b634e487b7160e01b600052601160045260246000fd5b600061ffff821661ffff8103612bf557612bf5612bc7565b60010192915050565b634e487b7160e01b600052603260045260246000fd5b600060808284031215612c2657600080fd5b612c2e611ff0565b90508151612c3b81612749565b81526020820151612c4b81612749565b60208201526040820151612c5e81612749565b6040820152606082015161281681612749565b80516112bc81611f79565b80516112bc81612064565b60008183036101c0811215612c9b57600080fd5b612ca3612012565b835181529150610120601f1982011215612cbc57600080fd5b50612cc5611fc7565b612cd160208401612c71565b8152612cdf60408401612c7c565b6020820152612cf060608401612c7c565b6040820152612d0160808401612c71565b6060820152612d1260a08401612c7c565b6080820152612d2360c08401612c7c565b60a0820152612d3460e08401612c71565b60c0820152612d466101008401612c7c565b60e0820152612d586101208401612c7c565b6101008201526020820152612d706101408301612c71565b6040820152612d826101608301612c7c565b6060820152612d946101808301612c7c565b60808201526129406101a08301612c7c565b80516112bc8161294b565b80516112bc81612968565b60006101208284031215612dcf57600080fd5b612dd7611fc7565b9050612de282612da6565b8152612df060208301612c71565b6020820152612e0160408301612c71565b6040820152612e1260608301612c71565b6060820152612e2360808301612db1565b6080820152612e3460a08301612db1565b60a0820152612e4560c08301612db1565b60c0820152612e5660e08301612db1565b60e08201526101009182015191810191909152919050565b80516112bc81612a33565b600060208284031215612e8b57600080fd5b81516001600160401b03811115612ea157600080fd5b82016103c08185031215612eb457600080fd5b612ebc612012565b81516001600160401b03811115612ed257600080fd5b8201601f81018613612ee357600080fd5b8051612ef16120c082612792565b818152876020838501011115612f0657600080fd5b60005b82811015612f2557602081850181015183830182015201612f09565b50600060209282018301528352838101519083015250612f488560408401612c14565b6040820152612f5a8560c08401612c87565b6060820152612f6d856102808401612dbc565b6080820152612b436103a08301612e6e565b634e487b7160e01b600052602160045260246000fd5b60ff818116838216019081111561278c5761278c612bc7565b808202811582820484141761278c5761278c612bc7565b600082612fe257634e487b7160e01b600052601260045260246000fd5b500490565b600081810b9083900b01607f8113607f198212171561278c5761278c612bc756fea26469706673582212208a21bd7f6214cfee566bb792628281dcafd7f6810cb975f6309081c11b90bbf664736f6c634300081c0033",
  "linkReferences": {},
  "deployedLinkReferences": {}
}