{
  "_format": "hh-sol-artifact-1",
  "contractName": "GameResults",
  "sourceName": "contracts/GameResults.sol",
  "abi": [
    {
      "inputs": [],
      "stateMutability": "nonpayable",
      "type": "constructor"
    },
    {
      "inputs": [],
      "name": "GameAlreadyRecorded",
      "type": "error"
    },
    {
      "inputs": [],
      "name": "GameNotFound",
      "type": "error"
    },
    {
      "inputs": [],
      "name": "InvalidGameResult",
      "type": "error"
    },
    {
      "inputs": [],
      "name": "NotGameContract",
      "type": "error"
    },
    {
      "inputs": [],
      "name": "NotTutorialClaimContract",
      "type": "error"
    },
    {
      "inputs": [
        {
          "internalType": "address",
          "name": "owner",
          "type": "address"
        }
      ],
      "name": "OwnableInvalidOwner",
      "type": "error"
    },
    {
      "inputs": [
        {
          "internalType": "address",
          "name": "account",
          "type": "address"
        }
      ],
      "name": "OwnableUnauthorizedAccount",
      "type": "error"
    },
    {
      "anonymous": false,
      "inputs": [
        {
          "indexed": true,
          "internalType": "address",
          "name": "gameContract",
          "type": "address"
        }
      ],
      "name": "GameContractSet",
      "type": "event"
    },
    {
      "anonymous": false,
      "inputs": [
        {
          "indexed": true,
          "internalType": "uint256",
          "name": "gameId",
          "type": "uint256"
        },
        {
          "indexed": true,
          "internalType": "address",
          "name": "winner",
          "type": "address"
        },
        {
          "indexed": true,
          "internalType": "address",
          "name": "loser",
          "type": "address"
        },
        {
          "indexed": false,
          "internalType": "uint256",
          "name": "timestamp",
          "type": "uint256"
        }
      ],
      "name": "GameResultRecorded",
      "type": "event"
    },
    {
      "anonymous": false,
      "inputs": [
        {
          "indexed": true,
          "internalType": "address",
          "name": "previousOwner",
          "type": "address"
        },
        {
          "indexed": true,
          "internalType": "address",
          "name": "newOwner",
          "type": "address"
        }
      ],
      "name": "OwnershipTransferred",
      "type": "event"
    },
    {
      "anonymous": false,
      "inputs": [
        {
          "indexed": true,
          "internalType": "address",
          "name": "player",
          "type": "address"
        },
        {
          "indexed": false,
          "internalType": "uint256",
          "name": "wins",
          "type": "uint256"
        },
        {
          "indexed": false,
          "internalType": "uint256",
          "name": "losses",
          "type": "uint256"
        },
        {
          "indexed": false,
          "internalType": "uint256",
          "name": "totalGames",
          "type": "uint256"
        }
      ],
      "name": "PlayerStatsUpdated",
      "type": "event"
    },
    {
      "anonymous": false,
      "inputs": [
        {
          "indexed": true,
          "internalType": "address",
          "name": "tutorialClaimContract",
          "type": "address"
        }
      ],
      "name": "TutorialClaimContractSet",
      "type": "event"
    },
    {
      "inputs": [
        {
          "internalType": "address",
          "name": "_player",
          "type": "address"
        }
      ],
      "name": "addLoss",
      "outputs": [],
      "stateMutability": "nonpayable",
      "type": "function"
    },
    {
      "inputs": [
        {
          "internalType": "address",
          "name": "_player",
          "type": "address"
        }
      ],
      "name": "addWin",
      "outputs": [],
      "stateMutability": "nonpayable",
      "type": "function"
    },
    {
      "inputs": [],
      "name": "gameContract",
      "outputs": [
        {
          "internalType": "address",
          "name": "",
          "type": "address"
        }
      ],
      "stateMutability": "view",
      "type": "function"
    },
    {
      "inputs": [
        {
          "internalType": "uint256",
          "name": "",
          "type": "uint256"
        }
      ],
      "name": "gameResults",
      "outputs": [
        {
          "internalType": "uint256",
          "name": "gameId",
          "type": "uint256"
        },
        {
          "internalType": "address",
          "name": "winner",
          "type": "address"
        },
        {
          "internalType": "address",
          "name": "loser",
          "type": "address"
        },
        {
          "internalType": "uint256",
          "name": "timestamp",
          "type": "uint256"
        }
      ],
      "stateMutability": "view",
      "type": "function"
    },
    {
      "inputs": [
        {
          "internalType": "uint256",
          "name": "_gameId",
          "type": "uint256"
        }
      ],
      "name": "getGameResult",
      "outputs": [
        {
          "components": [
            {
              "internalType": "uint256",
              "name": "gameId",
              "type": "uint256"
            },
            {
              "internalType": "address",
              "name": "winner",
              "type": "address"
            },
            {
              "internalType": "address",
              "name": "loser",
              "type": "address"
            },
            {
              "internalType": "uint256",
              "name": "timestamp",
              "type": "uint256"
            }
          ],
          "internalType": "struct GameResult",
          "name": "",
          "type": "tuple"
        }
      ],
      "stateMutability": "view",
      "type": "function"
    },
    {
      "inputs": [
        {
          "internalType": "address",
          "name": "_player",
          "type": "address"
        }
      ],
      "name": "getPlayerStats",
      "outputs": [
        {
          "components": [
            {
              "internalType": "uint256",
              "name": "wins",
              "type": "uint256"
            },
            {
              "internalType": "uint256",
              "name": "losses",
              "type": "uint256"
            },
            {
              "internalType": "uint256",
              "name": "totalGames",
              "type": "uint256"
            }
          ],
          "internalType": "struct PlayerStats",
          "name": "",
          "type": "tuple"
        }
      ],
      "stateMutability": "view",
      "type": "function"
    },
    {
      "inputs": [
        {
          "internalType": "address",
          "name": "_player",
          "type": "address"
        }
      ],
      "name": "getPlayerTotalGames",
      "outputs": [
        {
          "internalType": "uint256",
          "name": "",
          "type": "uint256"
        }
      ],
      "stateMutability": "view",
      "type": "function"
    },
    {
      "inputs": [
        {
          "internalType": "address",
          "name": "_player",
          "type": "address"
        }
      ],
      "name": "getPlayerWinRate",
      "outputs": [
        {
          "internalType": "uint256",
          "name": "",
          "type": "uint256"
        }
      ],
      "stateMutability": "view",
      "type": "function"
    },
    {
      "inputs": [
        {
          "internalType": "uint256",
          "name": "_limit",
          "type": "uint256"
        }
      ],
      "name": "getTopPlayersByWins",
      "outputs": [
        {
          "internalType": "address[]",
          "name": "",
          "type": "address[]"
        }
      ],
      "stateMutability": "view",
      "type": "function"
    },
    {
      "inputs": [
        {
          "internalType": "uint256",
          "name": "_gameId",
          "type": "uint256"
        }
      ],
      "name": "isGameResultRecorded",
      "outputs": [
        {
          "internalType": "bool",
          "name": "",
          "type": "bool"
        }
      ],
      "stateMutability": "view",
      "type": "function"
    },
    {
      "inputs": [],
      "name": "owner",
      "outputs": [
        {
          "internalType": "address",
          "name": "",
          "type": "address"
        }
      ],
      "stateMutability": "view",
      "type": "function"
    },
    {
      "inputs": [
        {
          "internalType": "address",
          "name": "",
          "type": "address"
        }
      ],
      "name": "playerStats",
      "outputs": [
        {
          "internalType": "uint256",
          "name": "wins",
          "type": "uint256"
        },
        {
          "internalType": "uint256",
          "name": "losses",
          "type": "uint256"
        },
        {
          "internalType": "uint256",
          "name": "totalGames",
          "type": "uint256"
        }
      ],
      "stateMutability": "view",
      "type": "function"
    },
    {
      "inputs": [
        {
          "internalType": "uint256",
          "name": "_gameId",
          "type": "uint256"
        },
        {
          "internalType": "address",
          "name": "_winner",
          "type": "address"
        },
        {
          "internalType": "address",
          "name": "_loser",
          "type": "address"
        }
      ],
      "name": "recordGameResult",
      "outputs": [],
      "stateMutability": "nonpayable",
      "type": "function"
    },
    {
      "inputs": [],
      "name": "renounceOwnership",
      "outputs": [],
      "stateMutability": "nonpayable",
      "type": "function"
    },
    {
      "inputs": [
        {
          "internalType": "address",
          "name": "_gameContract",
          "type": "address"
        }
      ],
      "name": "setGameContract",
      "outputs": [],
      "stateMutability": "nonpayable",
      "type": "function"
    },
    {
      "inputs": [
        {
          "internalType": "address",
          "name": "_tutorialClaimContract",
          "type": "address"
        }
      ],
      "name": "setTutorialClaimContract",
      "outputs": [],
      "stateMutability": "nonpayable",
      "type": "function"
    },
    {
      "inputs": [],
      "name": "totalGamesTracked",
      "outputs": [
        {
          "internalType": "uint256",
          "name": "",
          "type": "uint256"
        }
      ],
      "stateMutability": "view",
      "type": "function"
    },
    {
      "inputs": [
        {
          "internalType": "address",
          "name": "newOwner",
          "type": "address"
        }
      ],
      "name": "transferOwnership",
      "outputs": [],
      "stateMutability": "nonpayable",
      "type": "function"
    },
    {
      "inputs": [],
      "name": "tutorialClaimContract",
      "outputs": [
        {
          "internalType": "address",
          "name": "",
          "type": "address"
        }
      ],
      "stateMutability": "view",
      "type": "function"
    }
  ],
  "bytecode": "0x6080604052348015600f57600080fd5b503380603557604051631e4fbdf760e01b81526000600482015260240160405180910390fd5b603c816041565b506091565b600080546001600160a01b038381166001600160a01b0319831681178455604051919092169283917f8be0079c531659141344cd1fd0a4f28419497f9722a3daafe3b4186f6b6457e09190a35050565b610b6b806100a06000396000f3fe608060405234801561001057600080fd5b50600436106100f15760003560e01c806307f9089c146100f6578063344923911461010b578063405ebd4d1461011e5780634244d10f146101315780634fd66eae146101705780635c13e57a146101a557806367249716146101ae5780636c644ee8146101dc578063715018a61461020e5780638da5cb5b14610216578063c44d70981461022b578063cdafbbb61461023e578063d3f330091461027b578063d6c6eb9f1461028e578063d927a7c6146102a1578063ea7459f2146102b4578063ed2df26d146102c7578063f2fde38b1461031b578063fdba1b7c1461032e575b600080fd5b6101096101043660046109e7565b6103a1565b005b6101096101193660046109e7565b610401565b61010961012c3660046109e7565b61045e565b61015d61013f3660046109e7565b6001600160a01b031660009081526001602052604090206002015490565b6040519081526020015b60405180910390f35b61018361017e3660046109e7565b6104b0565b6040805182518152602080840151908201529181015190820152606001610167565b61015d60035481565b6101cf6101bc366004610a02565b5060408051600081526020810190915290565b6040516101679190610a1b565b6101fe6101ea366004610a02565b600090815260026020526040902054151590565b6040519015158152602001610167565b610109610515565b61021e610529565b6040516101679190610a67565b6101096102393660046109e7565b610538565b61026c61024c3660046109e7565b600160208190526000918252604090912080549181015460029091015483565b60405161016793929190610a7b565b60045461021e906001600160a01b031681565b61010961029c366004610a91565b61058a565b60055461021e906001600160a01b031681565b61015d6102c23660046109e7565b610745565b6102da6102d5366004610a02565b6107b5565b60408051825181526020808401516001600160a01b039081169183019190915283830151169181019190915260609182015191810191909152608001610167565b6101096103293660046109e7565b61084a565b61037161033c366004610a02565b6002602081905260009182526040909120805460018201549282015460039092015490926001600160a01b0390811692169084565b60405161016794939291909384526001600160a01b03928316602085015291166040830152606082015260800190565b6005546001600160a01b031633146103cc5760405163976a435160e01b815260040160405180910390fd5b6001600160a01b0381166103f357604051636f756dcf60e01b815260040160405180910390fd5b6103fe81600161088e565b50565b6005546001600160a01b0316331461042c5760405163976a435160e01b815260040160405180910390fd5b6001600160a01b03811661045357604051636f756dcf60e01b815260040160405180910390fd5b6103fe81600061088e565b610466610949565b600480546001600160a01b0319166001600160a01b0383169081179091556040517f0fda64424e106ff66a5173d9c3ec7fb2f234f4488457686975a66fe3371fd0f290600090a250565b6104d460405180606001604052806000815260200160008152602001600081525090565b506001600160a01b03166000908152600160208181526040928390208351606081018552815481529281015491830191909152600201549181019190915290565b61051d610949565b610527600061097b565b565b6000546001600160a01b031690565b610540610949565b600580546001600160a01b0319166001600160a01b0383169081179091556040517fe1ddd0ea7b5d69ae9123e132f09d3110730b8ac8466d62ba85e0196ffac975a890600090a250565b6004546001600160a01b031633146105b557604051636aff438160e11b815260040160405180910390fd5b6001600160a01b03821615806105d257506001600160a01b038116155b156105f057604051636f756dcf60e01b815260040160405180910390fd5b806001600160a01b0316826001600160a01b03160361062257604051636f756dcf60e01b815260040160405180910390fd5b6000838152600260205260409020541561064f576040516365b054cf60e11b815260040160405180910390fd5b604080516080810182528481526001600160a01b038085166020808401918252858316848601908152426060860190815260008a815260029384905296909620945185559151600180860180549286166001600160a01b0319938416179055925191850180549290941691161790915591516003909101556106d290839061088e565b6106dd81600061088e565b600380549060006106ed83610ae3565b9190505550806001600160a01b0316826001600160a01b0316847f34852417629096e51d9324f8c0badde146751c8012495651872371eb6318204f4260405161073891815260200190565b60405180910390a4505050565b6001600160a01b0381166000908152600160208181526040808420815160608101835281548152938101549284019290925260029091015490820181905282036107925750600092915050565b604081015181516107a4906064610afc565b6107ae9190610b13565b9392505050565b60408051608081018252600080825260208201819052918101829052606081019190915260008281526002602081815260408084208151608081018352815480825260018301546001600160a01b039081169583019590955294820154909316918301919091526003015460608201529103610844576040516309b3c62760e21b815260040160405180910390fd5b92915050565b610852610949565b6001600160a01b038116610885576000604051631e4fbdf760e01b815260040161087c9190610a67565b60405180910390fd5b6103fe8161097b565b6001600160a01b038216600090815260016020526040902081156108c45780548160006108ba83610ae3565b91905055506108dc565b6001810180549060006108d683610ae3565b91905055505b6002810180549060006108ee83610ae3565b9190505550826001600160a01b03167fa59fa8b79115e096a83695b3285fad27bd9f0565a3e52f114745d15c9c7e748682600001548360010154846002015460405161093c93929190610a7b565b60405180910390a2505050565b33610952610529565b6001600160a01b031614610527573360405163118cdaa760e01b815260040161087c9190610a67565b600080546001600160a01b038381166001600160a01b0319831681178455604051919092169283917f8be0079c531659141344cd1fd0a4f28419497f9722a3daafe3b4186f6b6457e09190a35050565b80356001600160a01b03811681146109e257600080fd5b919050565b6000602082840312156109f957600080fd5b6107ae826109cb565b600060208284031215610a1457600080fd5b5035919050565b602080825282518282018190526000918401906040840190835b81811015610a5c5783516001600160a01b0316835260209384019390920191600101610a35565b509095945050505050565b6001600160a01b0391909116815260200190565b9283526020830191909152604082015260600190565b600080600060608486031215610aa657600080fd5b83359250610ab6602085016109cb565b9150610ac4604085016109cb565b90509250925092565b634e487b7160e01b600052601160045260246000fd5b600060018201610af557610af5610acd565b5060010190565b808202811582820484141761084457610844610acd565b600082610b3057634e487b7160e01b600052601260045260246000fd5b50049056fea2646970667358221220e0383f90c057cd00ddfddafaf2aba8ea580b125044487591a46d4bd3fa85548e64736f6c634300081c0033",
  "linkReferences": {},
  "deployedLinkReferences": {}
}