{
  "_format": "hh-sol-artifact-1",
  "contractName": "Lobbies",
  "sourceName": "contracts/Lobbies.sol",
  "abi": [
    {
      "inputs": [
        {
          "internalType": "address",
          "name": "_ships",
          "type": "address"
        }
      ],
      "stateMutability": "nonpayable",
      "type": "constructor"
    },
    {
      "inputs": [],
      "name": "CannotLeaveStartedGame",
      "type": "error"
    },
    {
      "inputs": [],
      "name": "CreatorTimeoutNotReached",
      "type": "error"
    },
    {
      "inputs": [],
      "name": "FleetAlreadyCreated",
      "type": "error"
    },
    {
      "inputs": [],
      "name": "InsufficientFee",
      "type": "error"
    },
    {
      "inputs": [],
      "name": "InvalidFleetCost",
      "type": "error"
    },
    {
      "inputs": [],
      "name": "InvalidShipCount",
      "type": "error"
    },
    {
      "inputs": [],
      "name": "InvalidTurnTime",
      "type": "error"
    },
    {
      "inputs": [],
      "name": "LobbyAlreadyStarted",
      "type": "error"
    },
    {
      "inputs": [],
      "name": "LobbyCreationPaused",
      "type": "error"
    },
    {
      "inputs": [],
      "name": "LobbyFull",
      "type": "error"
    },
    {
      "inputs": [],
      "name": "LobbyNotFound",
      "type": "error"
    },
    {
      "inputs": [],
      "name": "LobbyNotOpen",
      "type": "error"
    },
    {
      "inputs": [],
      "name": "NotInLobby",
      "type": "error"
    },
    {
      "inputs": [],
      "name": "NotLobbyCreator",
      "type": "error"
    },
    {
      "inputs": [],
      "name": "NotLobbyJoiner",
      "type": "error"
    },
    {
      "inputs": [
        {
          "internalType": "address",
          "name": "owner",
          "type": "address"
        }
      ],
      "name": "OwnableInvalidOwner",
      "type": "error"
    },
    {
      "inputs": [
        {
          "internalType": "address",
          "name": "account",
          "type": "address"
        }
      ],
      "name": "OwnableUnauthorizedAccount",
      "type": "error"
    },
    {
      "inputs": [],
      "name": "PlayerAlreadyInLobby",
      "type": "error"
    },
    {
      "inputs": [],
      "name": "PlayerInTimeout",
      "type": "error"
    },
    {
      "inputs": [],
      "name": "ReentrancyGuardReentrantCall",
      "type": "error"
    },
    {
      "inputs": [],
      "name": "ShipAlreadyInFleet",
      "type": "error"
    },
    {
      "inputs": [],
      "name": "ShipCostVersionMismatch",
      "type": "error"
    },
    {
      "inputs": [],
      "name": "ShipNotOwned",
      "type": "error"
    },
    {
      "inputs": [],
      "name": "TimeoutNotReached",
      "type": "error"
    },
    {
      "anonymous": false,
      "inputs": [
        {
          "indexed": true,
          "internalType": "address",
          "name": "player",
          "type": "address"
        },
        {
          "indexed": false,
          "internalType": "uint256",
          "name": "amount",
          "type": "uint256"
        }
      ],
      "name": "AdditionalLobbyFeePaid",
      "type": "event"
    },
    {
      "anonymous": false,
      "inputs": [
        {
          "indexed": true,
          "internalType": "uint256",
          "name": "lobbyId",
          "type": "uint256"
        }
      ],
      "name": "GameStarted",
      "type": "event"
    },
    {
      "anonymous": false,
      "inputs": [
        {
          "indexed": true,
          "internalType": "uint256",
          "name": "lobbyId",
          "type": "uint256"
        },
        {
          "indexed": true,
          "internalType": "address",
          "name": "player",
          "type": "address"
        }
      ],
      "name": "LobbyAbandoned",
      "type": "event"
    },
    {
      "anonymous": false,
      "inputs": [
        {
          "indexed": true,
          "internalType": "uint256",
          "name": "lobbyId",
          "type": "uint256"
        },
        {
          "indexed": true,
          "internalType": "address",
          "name": "creator",
          "type": "address"
        },
        {
          "indexed": false,
          "internalType": "uint256",
          "name": "costLimit",
          "type": "uint256"
        },
        {
          "indexed": false,
          "internalType": "uint256",
          "name": "turnTime",
          "type": "uint256"
        },
        {
          "indexed": false,
          "internalType": "bool",
          "name": "creatorGoesFirst",
          "type": "bool"
        },
        {
          "indexed": false,
          "internalType": "uint256",
          "name": "selectedMapId",
          "type": "uint256"
        },
        {
          "indexed": false,
          "internalType": "uint256",
          "name": "maxScore",
          "type": "uint256"
        }
      ],
      "name": "LobbyCreated",
      "type": "event"
    },
    {
      "anonymous": false,
      "inputs": [
        {
          "indexed": true,
          "internalType": "uint256",
          "name": "lobbyId",
          "type": "uint256"
        },
        {
          "indexed": true,
          "internalType": "address",
          "name": "newCreator",
          "type": "address"
        }
      ],
      "name": "LobbyReset",
      "type": "event"
    },
    {
      "anonymous": false,
      "inputs": [
        {
          "indexed": true,
          "internalType": "uint256",
          "name": "lobbyId",
          "type": "uint256"
        }
      ],
      "name": "LobbyTerminated",
      "type": "event"
    },
    {
      "anonymous": false,
      "inputs": [
        {
          "indexed": true,
          "internalType": "address",
          "name": "previousOwner",
          "type": "address"
        },
        {
          "indexed": true,
          "internalType": "address",
          "name": "newOwner",
          "type": "address"
        }
      ],
      "name": "OwnershipTransferred",
      "type": "event"
    },
    {
      "anonymous": false,
      "inputs": [
        {
          "indexed": true,
          "internalType": "uint256",
          "name": "lobbyId",
          "type": "uint256"
        },
        {
          "indexed": true,
          "internalType": "address",
          "name": "joiner",
          "type": "address"
        }
      ],
      "name": "PlayerJoinedLobby",
      "type": "event"
    },
    {
      "inputs": [],
      "name": "KICK_PENALTY_PER_HOUR",
      "outputs": [
        {
          "internalType": "uint256",
          "name": "",
          "type": "uint256"
        }
      ],
      "stateMutability": "view",
      "type": "function"
    },
    {
      "inputs": [],
      "name": "MAX_TURN_TIME",
      "outputs": [
        {
          "internalType": "uint256",
          "name": "",
          "type": "uint256"
        }
      ],
      "stateMutability": "view",
      "type": "function"
    },
    {
      "inputs": [],
      "name": "MIN_TIMEOUT",
      "outputs": [
        {
          "internalType": "uint256",
          "name": "",
          "type": "uint256"
        }
      ],
      "stateMutability": "view",
      "type": "function"
    },
    {
      "inputs": [],
      "name": "MIN_TURN_TIME",
      "outputs": [
        {
          "internalType": "uint256",
          "name": "",
          "type": "uint256"
        }
      ],
      "stateMutability": "view",
      "type": "function"
    },
    {
      "inputs": [],
      "name": "additionalLobbyFee",
      "outputs": [
        {
          "internalType": "uint256",
          "name": "",
          "type": "uint256"
        }
      ],
      "stateMutability": "view",
      "type": "function"
    },
    {
      "inputs": [
        {
          "internalType": "uint256",
          "name": "_lobbyId",
          "type": "uint256"
        },
        {
          "internalType": "uint256[]",
          "name": "_shipIds",
          "type": "uint256[]"
        }
      ],
      "name": "createFleet",
      "outputs": [],
      "stateMutability": "nonpayable",
      "type": "function"
    },
    {
      "inputs": [
        {
          "internalType": "uint256",
          "name": "_costLimit",
          "type": "uint256"
        },
        {
          "internalType": "uint256",
          "name": "_turnTime",
          "type": "uint256"
        },
        {
          "internalType": "bool",
          "name": "_creatorGoesFirst",
          "type": "bool"
        },
        {
          "internalType": "uint256",
          "name": "_selectedMapId",
          "type": "uint256"
        },
        {
          "internalType": "uint256",
          "name": "_maxScore",
          "type": "uint256"
        }
      ],
      "name": "createLobby",
      "outputs": [],
      "stateMutability": "payable",
      "type": "function"
    },
    {
      "inputs": [],
      "name": "fleets",
      "outputs": [
        {
          "internalType": "contract IFleets",
          "name": "",
          "type": "address"
        }
      ],
      "stateMutability": "view",
      "type": "function"
    },
    {
      "inputs": [],
      "name": "freeGamesPerAddress",
      "outputs": [
        {
          "internalType": "uint256",
          "name": "",
          "type": "uint256"
        }
      ],
      "stateMutability": "view",
      "type": "function"
    },
    {
      "inputs": [],
      "name": "game",
      "outputs": [
        {
          "internalType": "contract Game",
          "name": "",
          "type": "address"
        }
      ],
      "stateMutability": "view",
      "type": "function"
    },
    {
      "inputs": [
        {
          "internalType": "address",
          "name": "_player",
          "type": "address"
        }
      ],
      "name": "getAllLobbiesForPlayerWithDupes",
      "outputs": [
        {
          "components": [
            {
              "components": [
                {
                  "internalType": "uint256",
                  "name": "id",
                  "type": "uint256"
                },
                {
                  "internalType": "address",
                  "name": "creator",
                  "type": "address"
                },
                {
                  "internalType": "uint256",
                  "name": "costLimit",
                  "type": "uint256"
                },
                {
                  "internalType": "uint256",
                  "name": "createdAt",
                  "type": "uint256"
                }
              ],
              "internalType": "struct LobbyBasic",
              "name": "basic",
              "type": "tuple"
            },
            {
              "components": [
                {
                  "internalType": "address",
                  "name": "joiner",
                  "type": "address"
                },
                {
                  "internalType": "uint256",
                  "name": "creatorFleetId",
                  "type": "uint256"
                },
                {
                  "internalType": "uint256",
                  "name": "joinerFleetId",
                  "type": "uint256"
                },
                {
                  "internalType": "uint256",
                  "name": "joinedAt",
                  "type": "uint256"
                },
                {
                  "internalType": "uint256",
                  "name": "joinerFleetSetAt",
                  "type": "uint256"
                }
              ],
              "internalType": "struct LobbyPlayers",
              "name": "players",
              "type": "tuple"
            },
            {
              "components": [
                {
                  "internalType": "bool",
                  "name": "creatorGoesFirst",
                  "type": "bool"
                },
                {
                  "internalType": "uint256",
                  "name": "turnTime",
                  "type": "uint256"
                },
                {
                  "internalType": "uint256",
                  "name": "selectedMapId",
                  "type": "uint256"
                },
                {
                  "internalType": "uint256",
                  "name": "maxScore",
                  "type": "uint256"
                }
              ],
              "internalType": "struct LobbyGameConfig",
              "name": "gameConfig",
              "type": "tuple"
            },
            {
              "components": [
                {
                  "internalType": "enum LobbyStatus",
                  "name": "status",
                  "type": "uint8"
                },
                {
                  "internalType": "uint256",
                  "name": "gameStartedAt",
                  "type": "uint256"
                }
              ],
              "internalType": "struct LobbyState",
              "name": "state",
              "type": "tuple"
            }
          ],
          "internalType": "struct Lobby[]",
          "name": "",
          "type": "tuple[]"
        }
      ],
      "stateMutability": "view",
      "type": "function"
    },
    {
      "inputs": [
        {
          "internalType": "uint256[]",
          "name": "_lobbyIds",
          "type": "uint256[]"
        }
      ],
      "name": "getLobbiesFromIds",
      "outputs": [
        {
          "components": [
            {
              "components": [
                {
                  "internalType": "uint256",
                  "name": "id",
                  "type": "uint256"
                },
                {
                  "internalType": "address",
                  "name": "creator",
                  "type": "address"
                },
                {
                  "internalType": "uint256",
                  "name": "costLimit",
                  "type": "uint256"
                },
                {
                  "internalType": "uint256",
                  "name": "createdAt",
                  "type": "uint256"
                }
              ],
              "internalType": "struct LobbyBasic",
              "name": "basic",
              "type": "tuple"
            },
            {
              "components": [
                {
                  "internalType": "address",
                  "name": "joiner",
                  "type": "address"
                },
                {
                  "internalType": "uint256",
                  "name": "creatorFleetId",
                  "type": "uint256"
                },
                {
                  "internalType": "uint256",
                  "name": "joinerFleetId",
                  "type": "uint256"
                },
                {
                  "internalType": "uint256",
                  "name": "joinedAt",
                  "type": "uint256"
                },
                {
                  "internalType": "uint256",
                  "name": "joinerFleetSetAt",
                  "type": "uint256"
                }
              ],
              "internalType": "struct LobbyPlayers",
              "name": "players",
              "type": "tuple"
            },
            {
              "components": [
                {
                  "internalType": "bool",
                  "name": "creatorGoesFirst",
                  "type": "bool"
                },
                {
                  "internalType": "uint256",
                  "name": "turnTime",
                  "type": "uint256"
                },
                {
                  "internalType": "uint256",
                  "name": "selectedMapId",
                  "type": "uint256"
                },
                {
                  "internalType": "uint256",
                  "name": "maxScore",
                  "type": "uint256"
                }
              ],
              "internalType": "struct LobbyGameConfig",
              "name": "gameConfig",
              "type": "tuple"
            },
            {
              "components": [
                {
                  "internalType": "enum LobbyStatus",
                  "name": "status",
                  "type": "uint8"
                },
                {
                  "internalType": "uint256",
                  "name": "gameStartedAt",
                  "type": "uint256"
                }
              ],
              "internalType": "struct LobbyState",
              "name": "state",
              "type": "tuple"
            }
          ],
          "internalType": "struct Lobby[]",
          "name": "",
          "type": "tuple[]"
        }
      ],
      "stateMutability": "view",
      "type": "function"
    },
    {
      "inputs": [
        {
          "internalType": "uint256",
          "name": "_lobbyId",
          "type": "uint256"
        }
      ],
      "name": "getLobby",
      "outputs": [
        {
          "components": [
            {
              "components": [
                {
                  "internalType": "uint256",
                  "name": "id",
                  "type": "uint256"
                },
                {
                  "internalType": "address",
                  "name": "creator",
                  "type": "address"
                },
                {
                  "internalType": "uint256",
                  "name": "costLimit",
                  "type": "uint256"
                },
                {
                  "internalType": "uint256",
                  "name": "createdAt",
                  "type": "uint256"
                }
              ],
              "internalType": "struct LobbyBasic",
              "name": "basic",
              "type": "tuple"
            },
            {
              "components": [
                {
                  "internalType": "address",
                  "name": "joiner",
                  "type": "address"
                },
                {
                  "internalType": "uint256",
                  "name": "creatorFleetId",
                  "type": "uint256"
                },
                {
                  "internalType": "uint256",
                  "name": "joinerFleetId",
                  "type": "uint256"
                },
                {
                  "internalType": "uint256",
                  "name": "joinedAt",
                  "type": "uint256"
                },
                {
                  "internalType": "uint256",
                  "name": "joinerFleetSetAt",
                  "type": "uint256"
                }
              ],
              "internalType": "struct LobbyPlayers",
              "name": "players",
              "type": "tuple"
            },
            {
              "components": [
                {
                  "internalType": "bool",
                  "name": "creatorGoesFirst",
                  "type": "bool"
                },
                {
                  "internalType": "uint256",
                  "name": "turnTime",
                  "type": "uint256"
                },
                {
                  "internalType": "uint256",
                  "name": "selectedMapId",
                  "type": "uint256"
                },
                {
                  "internalType": "uint256",
                  "name": "maxScore",
                  "type": "uint256"
                }
              ],
              "internalType": "struct LobbyGameConfig",
              "name": "gameConfig",
              "type": "tuple"
            },
            {
              "components": [
                {
                  "internalType": "enum LobbyStatus",
                  "name": "status",
                  "type": "uint8"
                },
                {
                  "internalType": "uint256",
                  "name": "gameStartedAt",
                  "type": "uint256"
                }
              ],
              "internalType": "struct LobbyState",
              "name": "state",
              "type": "tuple"
            }
          ],
          "internalType": "struct Lobby",
          "name": "",
          "type": "tuple"
        }
      ],
      "stateMutability": "view",
      "type": "function"
    },
    {
      "inputs": [],
      "name": "getOpenLobbies",
      "outputs": [
        {
          "internalType": "uint256[]",
          "name": "",
          "type": "uint256[]"
        }
      ],
      "stateMutability": "view",
      "type": "function"
    },
    {
      "inputs": [],
      "name": "getOpenLobbyCount",
      "outputs": [
        {
          "internalType": "uint256",
          "name": "",
          "type": "uint256"
        }
      ],
      "stateMutability": "view",
      "type": "function"
    },
    {
      "inputs": [
        {
          "internalType": "address",
          "name": "_player",
          "type": "address"
        }
      ],
      "name": "getPlayerLobbies",
      "outputs": [
        {
          "internalType": "uint256[]",
          "name": "",
          "type": "uint256[]"
        }
      ],
      "stateMutability": "view",
      "type": "function"
    },
    {
      "inputs": [
        {
          "internalType": "address",
          "name": "_player",
          "type": "address"
        }
      ],
      "name": "getPlayerLobbyCount",
      "outputs": [
        {
          "internalType": "uint256",
          "name": "",
          "type": "uint256"
        }
      ],
      "stateMutability": "view",
      "type": "function"
    },
    {
      "inputs": [
        {
          "internalType": "address",
          "name": "_player",
          "type": "address"
        }
      ],
      "name": "getPlayerState",
      "outputs": [
        {
          "components": [
            {
              "internalType": "uint256",
              "name": "activeLobbyId",
              "type": "uint256"
            },
            {
              "internalType": "uint256",
              "name": "activeLobbiesCount",
              "type": "uint256"
            },
            {
              "internalType": "bool",
              "name": "hasActiveLobby",
              "type": "bool"
            },
            {
              "internalType": "uint256",
              "name": "kickCount",
              "type": "uint256"
            },
            {
              "internalType": "uint256",
              "name": "lastKickTime",
              "type": "uint256"
            }
          ],
          "internalType": "struct PlayerLobbyState",
          "name": "",
          "type": "tuple"
        }
      ],
      "stateMutability": "view",
      "type": "function"
    },
    {
      "inputs": [
        {
          "internalType": "address",
          "name": "_player",
          "type": "address"
        }
      ],
      "name": "getPlayerTimeoutEnd",
      "outputs": [
        {
          "internalType": "uint256",
          "name": "",
          "type": "uint256"
        }
      ],
      "stateMutability": "view",
      "type": "function"
    },
    {
      "inputs": [
        {
          "internalType": "uint256",
          "name": "_lobbyId",
          "type": "uint256"
        }
      ],
      "name": "isLobbyOpen",
      "outputs": [
        {
          "internalType": "bool",
          "name": "",
          "type": "bool"
        }
      ],
      "stateMutability": "view",
      "type": "function"
    },
    {
      "inputs": [
        {
          "internalType": "uint256",
          "name": "_id",
          "type": "uint256"
        }
      ],
      "name": "isLobbyOpenForJoining",
      "outputs": [
        {
          "internalType": "bool",
          "name": "",
          "type": "bool"
        }
      ],
      "stateMutability": "view",
      "type": "function"
    },
    {
      "inputs": [
        {
          "internalType": "address",
          "name": "_player",
          "type": "address"
        },
        {
          "internalType": "uint256",
          "name": "_lobbyId",
          "type": "uint256"
        }
      ],
      "name": "isPlayerInLobby",
      "outputs": [
        {
          "internalType": "bool",
          "name": "",
          "type": "bool"
        }
      ],
      "stateMutability": "view",
      "type": "function"
    },
    {
      "inputs": [
        {
          "internalType": "uint256",
          "name": "_lobbyId",
          "type": "uint256"
        }
      ],
      "name": "joinLobby",
      "outputs": [],
      "stateMutability": "nonpayable",
      "type": "function"
    },
    {
      "inputs": [
        {
          "internalType": "uint256",
          "name": "_lobbyId",
          "type": "uint256"
        }
      ],
      "name": "leaveLobby",
      "outputs": [],
      "stateMutability": "nonpayable",
      "type": "function"
    },
    {
      "inputs": [
        {
          "internalType": "uint256",
          "name": "",
          "type": "uint256"
        }
      ],
      "name": "lobbies",
      "outputs": [
        {
          "components": [
            {
              "internalType": "uint256",
              "name": "id",
              "type": "uint256"
            },
            {
              "internalType": "address",
              "name": "creator",
              "type": "address"
            },
            {
              "internalType": "uint256",
              "name": "costLimit",
              "type": "uint256"
            },
            {
              "internalType": "uint256",
              "name": "createdAt",
              "type": "uint256"
            }
          ],
          "internalType": "struct LobbyBasic",
          "name": "basic",
          "type": "tuple"
        },
        {
          "components": [
            {
              "internalType": "address",
              "name": "joiner",
              "type": "address"
            },
            {
              "internalType": "uint256",
              "name": "creatorFleetId",
              "type": "uint256"
            },
            {
              "internalType": "uint256",
              "name": "joinerFleetId",
              "type": "uint256"
            },
            {
              "internalType": "uint256",
              "name": "joinedAt",
              "type": "uint256"
            },
            {
              "internalType": "uint256",
              "name": "joinerFleetSetAt",
              "type": "uint256"
            }
          ],
          "internalType": "struct LobbyPlayers",
          "name": "players",
          "type": "tuple"
        },
        {
          "components": [
            {
              "internalType": "bool",
              "name": "creatorGoesFirst",
              "type": "bool"
            },
            {
              "internalType": "uint256",
              "name": "turnTime",
              "type": "uint256"
            },
            {
              "internalType": "uint256",
              "name": "selectedMapId",
              "type": "uint256"
            },
            {
              "internalType": "uint256",
              "name": "maxScore",
              "type": "uint256"
            }
          ],
          "internalType": "struct LobbyGameConfig",
          "name": "gameConfig",
          "type": "tuple"
        },
        {
          "components": [
            {
              "internalType": "enum LobbyStatus",
              "name": "status",
              "type": "uint8"
            },
            {
              "internalType": "uint256",
              "name": "gameStartedAt",
              "type": "uint256"
            }
          ],
          "internalType": "struct LobbyState",
          "name": "state",
          "type": "tuple"
        }
      ],
      "stateMutability": "view",
      "type": "function"
    },
    {
      "inputs": [],
      "name": "lobbyCount",
      "outputs": [
        {
          "internalType": "uint256",
          "name": "",
          "type": "uint256"
        }
      ],
      "stateMutability": "view",
      "type": "function"
    },
    {
      "inputs": [],
      "name": "owner",
      "outputs": [
        {
          "internalType": "address",
          "name": "",
          "type": "address"
        }
      ],
      "stateMutability": "view",
      "type": "function"
    },
    {
      "inputs": [],
      "name": "paused",
      "outputs": [
        {
          "internalType": "bool",
          "name": "",
          "type": "bool"
        }
      ],
      "stateMutability": "view",
      "type": "function"
    },
    {
      "inputs": [
        {
          "internalType": "address",
          "name": "",
          "type": "address"
        }
      ],
      "name": "playerStates",
      "outputs": [
        {
          "internalType": "uint256",
          "name": "activeLobbyId",
          "type": "uint256"
        },
        {
          "internalType": "uint256",
          "name": "activeLobbiesCount",
          "type": "uint256"
        },
        {
          "internalType": "bool",
          "name": "hasActiveLobby",
          "type": "bool"
        },
        {
          "internalType": "uint256",
          "name": "kickCount",
          "type": "uint256"
        },
        {
          "internalType": "uint256",
          "name": "lastKickTime",
          "type": "uint256"
        }
      ],
      "stateMutability": "view",
      "type": "function"
    },
    {
      "inputs": [
        {
          "internalType": "uint256",
          "name": "_lobbyId",
          "type": "uint256"
        }
      ],
      "name": "quitWithPenalty",
      "outputs": [],
      "stateMutability": "nonpayable",
      "type": "function"
    },
    {
      "inputs": [],
      "name": "renounceOwnership",
      "outputs": [],
      "stateMutability": "nonpayable",
      "type": "function"
    },
    {
      "inputs": [
        {
          "internalType": "uint256",
          "name": "_fee",
          "type": "uint256"
        }
      ],
      "name": "setAdditionalLobbyFee",
      "outputs": [],
      "stateMutability": "nonpayable",
      "type": "function"
    },
    {
      "inputs": [
        {
          "internalType": "address",
          "name": "_fleetsAddress",
          "type": "address"
        }
      ],
      "name": "setFleetsAddress",
      "outputs": [],
      "stateMutability": "nonpayable",
      "type": "function"
    },
    {
      "inputs": [
        {
          "internalType": "uint256",
          "name": "_count",
          "type": "uint256"
        }
      ],
      "name": "setFreeGamesPerAddress",
      "outputs": [],
      "stateMutability": "nonpayable",
      "type": "function"
    },
    {
      "inputs": [
        {
          "internalType": "address",
          "name": "_gameAddress",
          "type": "address"
        }
      ],
      "name": "setGameAddress",
      "outputs": [],
      "stateMutability": "nonpayable",
      "type": "function"
    },
    {
      "inputs": [
        {
          "internalType": "bool",
          "name": "_paused",
          "type": "bool"
        }
      ],
      "name": "setPaused",
      "outputs": [],
      "stateMutability": "nonpayable",
      "type": "function"
    },
    {
      "inputs": [],
      "name": "ships",
      "outputs": [
        {
          "internalType": "contract Ships",
          "name": "",
          "type": "address"
        }
      ],
      "stateMutability": "view",
      "type": "function"
    },
    {
      "inputs": [
        {
          "internalType": "uint256",
          "name": "_lobbyId",
          "type": "uint256"
        }
      ],
      "name": "timeoutJoiner",
      "outputs": [],
      "stateMutability": "nonpayable",
      "type": "function"
    },
    {
      "inputs": [
        {
          "internalType": "address",
          "name": "newOwner",
          "type": "address"
        }
      ],
      "name": "transferOwnership",
      "outputs": [],
      "stateMutability": "nonpayable",
      "type": "function"
    },
    {
      "inputs": [],
      "name": "withdraw",
      "outputs": [],
      "stateMutability": "nonpayable",
      "type": "function"
    }
  ],
  "bytecode": "0x60806040526001600655670de0b6b3a764000060075534801561002157600080fd5b50604051612e09380380612e09833981016040819052610040916100e9565b338061006657604051631e4fbdf760e01b81526000600482015260240160405180910390fd5b61006f81610099565b5060018055600280546001600160a01b0319166001600160a01b0392909216919091179055610119565b600080546001600160a01b038381166001600160a01b0319831681178455604051919092169283917f8be0079c531659141344cd1fd0a4f28419497f9722a3daafe3b4186f6b6457e09190a35050565b6000602082840312156100fb57600080fd5b81516001600160a01b038116811461011257600080fd5b9392505050565b612ce1806101286000396000f3fe60806040526004361061023b5760003560e01c8063948428f01161012e578063cd335414116100ab578063eff3d3061161006f578063eff3d3061461073a578063f25205f314610750578063f2fde38b14610770578063faa5bf8914610790578063ff465523146107a557600080fd5b8063cd3354141461063d578063d15e55b71461065d578063dc273b3f146106da578063e9173b3a146106fa578063ea1ad1f61461071a57600080fd5b8063bbf8218a116100f2578063bbf8218a1461056c578063c01ca43f1461058c578063c3fe3e28146105f0578063c623130b14610610578063ca1df1701461062757600080fd5b8063948428f0146104e15780639ed4ce1414610501578063a875cae514610516578063b6d810881461052c578063b83e5c7e1461054c57600080fd5b8063543ad1df116101bc578063711953ef11610180578063711953ef1461044e578063715018a61461046e57806374262da2146104835780638da5cb5b146104a35780639263af22146104c157600080fd5b8063543ad1df146103ab5780635c975abb146103c1578063618e6fa7146103eb578063669bcb0e146103fe5780636e8fb4c61461041e57600080fd5b806330fff6b01161020357806330fff6b0146102f15780633ccfd60b14610311578063452c09f41461032657806348915d91146103535780634e12b6f91461038b57600080fd5b806308a314dc1461024057806316c38b3c146102765780631fba1bdf146102985780632aa9c679146102c65780632eaeb161146102db575b600080fd5b34801561024c57600080fd5b5061026061025b3660046127bf565b6107d2565b60405161026d91906128fc565b60405180910390f35b34801561028257600080fd5b50610296610291366004612960565b6109a9565b005b3480156102a457600080fd5b506102b86102b3366004612992565b6109c4565b60405190815260200161026d565b3480156102d257600080fd5b506102b8603c81565b3480156102e757600080fd5b506102b8610e1081565b3480156102fd57600080fd5b5061029661030c3660046129ad565b610a18565b34801561031d57600080fd5b50610296610ca2565b34801561033257600080fd5b50610346610341366004612992565b610d46565b60405161026d91906129c6565b34801561035f57600080fd5b50600454610373906001600160a01b031681565b6040516001600160a01b03909116815260200161026d565b34801561039757600080fd5b506102966103a63660046129ad565b610d6a565b3480156103b757600080fd5b506102b861012c81565b3480156103cd57600080fd5b506008546103db9060ff1681565b604051901515815260200161026d565b6102966103f93660046129fe565b610d77565b34801561040a57600080fd5b506102966104193660046129ad565b610f88565b34801561042a57600080fd5b5061043e6104393660046129ad565b610f95565b60405161026d9493929190612a45565b34801561045a57600080fd5b50610296610469366004612992565b61109d565b34801561047a57600080fd5b506102966110c7565b34801561048f57600080fd5b5061029661049e3660046129ad565b6110db565b3480156104af57600080fd5b506000546001600160a01b0316610373565b3480156104cd57600080fd5b506102966104dc366004612af2565b6112d9565b3480156104ed57600080fd5b506102966104fc3660046129ad565b61176b565b34801561050d57600080fd5b506102b8611ae1565b34801561052257600080fd5b506102b860075481565b34801561053857600080fd5b506103db6105473660046129ad565b611af2565b34801561055857600080fd5b50610296610567366004612992565b611aff565b34801561057857600080fd5b50600254610373906001600160a01b031681565b34801561059857600080fd5b506105ac6105a7366004612992565b611b29565b60405161026d9190600060a0820190508251825260208301516020830152604083015115156040830152606083015160608301526080830151608083015292915050565b3480156105fc57600080fd5b50600354610373906001600160a01b031681565b34801561061c57600080fd5b506102b86201518081565b34801561063357600080fd5b506102b860065481565b34801561064957600080fd5b506102b8610658366004612992565b611bba565b34801561066957600080fd5b506106ab610678366004612992565b600a60205260009081526040902080546001820154600283015460038401546004909401549293919260ff909116919085565b60405161026d959493929190948552602085019390935290151560408401526060830152608082015260a00190565b3480156106e657600080fd5b506103db6106f5366004612b3e565b611bdb565b34801561070657600080fd5b506102966107153660046129ad565b611bfd565b34801561072657600080fd5b50610260610735366004612992565b611dee565b34801561074657600080fd5b506102b860055481565b34801561075c57600080fd5b506103db61076b3660046129ad565b61216f565b34801561077c57600080fd5b5061029661078b366004612992565b6121b3565b34801561079c57600080fd5b506103466121ee565b3480156107b157600080fd5b506107c56107c03660046129ad565b6121fa565b60405161026d9190612b68565b606060008267ffffffffffffffff8111156107ef576107ef612b77565b60405190808252806020026020018201604052801561082857816020015b6108156126b0565b81526020019060019003908161080d5790505b50905060005b8381101561099f576009600086868481811061084c5761084c612b8d565b602090810292909201358352508181019290925260409081016000208151610100810183528154608080830191825260018401546001600160a01b0390811660a08086019190915260028087015460c0870152600387015460e0870152938552865190810187526004860154909116815260058501548188015260068501548187015260078501546060808301919091526008860154828401528488019190915285519182018652600985015460ff90811615158352600a86015497830197909752600b85015482870152600c85015482820152838601919091528451808601909552600d840180549396949591870194919390928492919091169081111561095757610957612801565b600281111561096857610968612801565b81526020016001820154815250508152505082828151811061098c5761098c612b8d565b602090810291909101015260010161082e565b5090505b92915050565b6109b1612323565b6008805460ff1916911515919091179055565b6001600160a01b0381166000908152600a60205260408120600381015482036109f05750600092915050565b610e108160030154610a029190612bb9565b8160040154610a119190612bd0565b9392505050565b610a20612350565b60008181526009602052604081208054909103610a50576040516374315adb60e01b815260040160405180910390fd5b60048101546001600160a01b03163314610a7d57604051639d2663a360e01b815260040160405180910390fd5b6001600d82015460ff166002811115610a9857610a98612801565b14610ab6576040516374f165fb60e11b815260040160405180910390fd5b6006810154600003610adb576040516353507d5160e11b815260040160405180910390fd5b600581015415610afe576040516304d3525b60e51b815260040160405180910390fd5b600a8101546008820154610b129190612bd0565b421015610b32576040516322fce56360e11b815260040160405180910390fd5b600480546006830154604051630f2bf13b60e41b8152928301526001600160a01b03169063f2bf13b090602401600060405180830381600087803b158015610b7957600080fd5b505af1158015610b8d573d6000803e3d6000fd5b5050505060018101546001600160a01b03166000908152600a602052604081206003810180549192610bbe83612be3565b9091555050426004808301919091556002808301805460ff199081169091556000808555928501546001600160a01b039081168452600a60205260408420928301805490921690915591815560018401549091610c1c91168561237a565b6004830154610c34906001600160a01b03168561237a565b610c3d8461239c565b6004830180546001600160a01b0319169055600d8301805460ff191690556000600584018190556006840181905560405185917fcb7662b1678001afa152fed432f46cdaa4318053fa7acba681da4b416a59123c91a2505050610c9f60018055565b50565b610caa612323565b600080546040516001600160a01b039091169047908381818185875af1925050503d8060008114610cf7576040519150601f19603f3d011682016040523d82523d6000602084013e610cfc565b606091505b5050905080610c9f5760405162461bcd60e51b815260206004820152601160248201527015da5d1a191c985dd85b0819985a5b1959607a1b60448201526064015b60405180910390fd5b6001600160a01b0381166000908152600b602052604090206060906109a3906123ab565b610d72612323565b600755565b610d7f612350565b60085460ff1615610da357604051635083854f60e11b815260040160405180910390fd5b61012c841080610db557506201518084115b15610dd35760405163079900bb60e31b815260040160405180910390fd5b336000908152600a60205260409020600381015415610e34576000610e108260030154610e009190612bb9565b8260040154610e0f9190612bd0565b905080421015610e325760405163c56b424b60e01b815260040160405180910390fd5b505b600654816001015410610e6357600754341015610e635760405162976f7560e21b815260040160405180910390fd5b60058054906000610e7383612be3565b90915550506005805460008181526009602081905260408220928355600180840180546001600160a01b0319163317905560028085018c9055600d8501805460ff1990811690915542600387015592850180548b1515908516179055600a85018b9055600b8501899055600c85018890558601805490921681179091559254845591830180549192610f0483612be3565b9190505550610f15336005546123b8565b610f2060055461239c565b600554604080518981526020810189905287151581830152606081018790526080810186905290513392917fc0594b072d40bf82c20f44fa41a55144b097ebd9b07f9a37ba466d40e1f43aab919081900360a00190a35050610f8160018055565b5050505050565b610f90612323565b600655565b6009602081815260009283526040928390208351608080820186528254825260018301546001600160a01b0390811683860152600280850154848901526003850154606080860191909152885160a081018a52600487015490931683526005860154838801526006860154838a0152600786015483820152600886015483850152885193840189529685015460ff90811615158452600a86015496840196909652600b85015483890152600c850154968301969096528651808801909752600d84018054939791969295919390928492919091169081111561107957611079612801565b600281111561108a5761108a612801565b8152602001600182015481525050905084565b6110a5612323565b600380546001600160a01b0319166001600160a01b0392909216919091179055565b6110cf612323565b6110d960006123da565b565b6110e3612350565b60008181526009602052604081208054909103611113576040516374315adb60e01b815260040160405180910390fd5b60018101546001600160a01b03163314611140576040516386e3479160e01b815260040160405180910390fd5b6001600d82015460ff16600281111561115b5761115b612801565b14611179576040516374f165fb60e11b815260040160405180910390fd5b60048101546001600160a01b03166111a4576040516374315adb60e01b815260040160405180910390fd5b6006810154156111c7576040516304d3525b60e51b815260040160405180910390fd5b600a81015460078201546111db9190612bd0565b4210156111fb576040516326c015ab60e21b815260040160405180910390fd5b60048101546001600160a01b03166000908152600a60205260408120600381018054919261122883612be3565b90915550504260048083019190915560028201805460ff191690556000825582015461125d906001600160a01b03168461237a565b6112668361239c565b6004820180546001600160a01b0319169055600d8201805460ff191690556000600583018190556006830181905560018301546040516001600160a01b039091169185917fee8b079adb6e971a80670fe597ec6fd06cb3699ea8771fe1b5554c79a7c0b8fd9190a35050610c9f60018055565b6112e1612350565b60008381526009602052604081208054909103611311576040516374315adb60e01b815260040160405180910390fd5b6001600d82015460ff16600281111561132c5761132c612801565b1461134a576040516374f165fb60e11b815260040160405180910390fd5b60018101546001600160a01b03163314801590611374575060048101546001600160a01b03163314155b15611392576040516353507d5160e11b815260040160405180910390fd5b60018101546001600160a01b0316331480156113b15750600581015415155b156113cf576040516304d3525b60e51b815260040160405180910390fd5b60048101546001600160a01b0316331480156113ee5750600681015415155b1561140c576040516304d3525b60e51b815260040160405180910390fd5b600480546002830154604051631cd86ad960e11b81526000936001600160a01b03909316926339b0d5b292611449928a9233928b928b9201612bfc565b6020604051808303816000875af1158015611468573d6000803e3d6000fd5b505050506040513d601f19601f8201168201806040525081019061148c9190612c52565b60018301549091506001600160a01b031633036114cb576005820181905560068201546000036114c65760098201805460ff191660011790555b6114f2565b6006820181905560058201546000036114eb5760098201805460ff191690555b4260088301555b6005820154158015906115085750600682015415155b1561175b57600d8201805460ff1916600217905542600e83015560405185907f50ad08f58a27f2851d7e3a1b3a6a46b290f2ce677e99642d30ff639721e7779090600090a26001820154611565906001600160a01b03168661237a565b600482015461157d906001600160a01b03168661237a565b6115868561242a565b6001808301546001600160a01b039081166000908152600a602052604080822060048701549093168252902091810154909190156115d6576001820180549060006115d083612c6b565b91905055505b6001810154156115f8576001810180549060006115f283612c6b565b91905055505b6002808301805460ff19908116909155600080855591830180549091169055815561162287612435565b600360009054906101000a90046001600160a01b03166001600160a01b031663e8d64aee888660000160010160009054906101000a90046001600160a01b03168760040160000160009054906101000a90046001600160a01b0316886004016001015489600401600201548a60090160000160009054906101000a900460ff168b600901600101548c600901600201548d600901600301546040518a63ffffffff1660e01b8152600401611726999897969594939291909889526001600160a01b0397881660208a015295909616604088015260608701939093526080860191909152151560a085015260c084015260e08301919091526101008201526101200190565b600060405180830381600087803b15801561174057600080fd5b505af1158015611754573d6000803e3d6000fd5b5050505050505b505061176660018055565b505050565b611773612350565b600081815260096020526040812080549091036117a3576040516374315adb60e01b815260040160405180910390fd5b60018101546001600160a01b031633148015906117cd575060048101546001600160a01b03163314155b156117eb576040516353507d5160e11b815260040160405180910390fd5b6002600d82015460ff16600281111561180657611806612801565b036118245760405163604163d360e11b815260040160405180910390fd5b336000908152600a6020526040902080548314611854576040516353507d5160e11b815260040160405180910390fd5b60018201546001600160a01b031633036119d4576005820154156118d957600480546005840154604051630f2bf13b60e41b8152928301526001600160a01b03169063f2bf13b090602401600060405180830381600087803b1580156118b957600080fd5b505af11580156118cd573d6000803e3d6000fd5b50506000600585015550505b60048201546001600160a01b03161561199957600482018054600180850180546001600160a01b0384166001600160a01b03199182168117909255909216909255600d8401805460ff199081169091556000828152600a60205260409020600281018054909216909317905584825590611953338661237a565b61195c8561239c565b6040516001600160a01b0383169086907fee8b079adb6e971a80670fe597ec6fd06cb3699ea8771fe1b5554c79a7c0b8fd90600090a35050611aa4565b6119a283612435565b604051339084907f9b5e662ea3d6238d43ff6f148df4451e32553992239658d2fbca40e78f0cb5d790600090a3611aa4565b600682015415611a4557600480546006840154604051630f2bf13b60e41b8152928301526001600160a01b03169063f2bf13b090602401600060405180830381600087803b158015611a2557600080fd5b505af1158015611a39573d6000803e3d6000fd5b50506000600685015550505b6004820180546001600160a01b0319169055600d8201805460ff19169055611a6d338461237a565b611a768361239c565b604051339084907f9b5e662ea3d6238d43ff6f148df4451e32553992239658d2fbca40e78f0cb5d790600090a35b60028101805460ff1916905560008155600181015415611ad657600181018054906000611ad083612c6b565b91905055505b5050610c9f60018055565b6000611aed600c6124a2565b905090565b60006109a3600c836124ac565b611b07612323565b600480546001600160a01b0319166001600160a01b0392909216919091179055565b611b5d6040518060a00160405280600081526020016000815260200160001515815260200160008152602001600081525090565b506001600160a01b03166000908152600a6020908152604091829020825160a08101845281548152600182015492810192909252600281015460ff1615159282019290925260038201546060820152600490910154608082015290565b6001600160a01b0381166000908152600b602052604081206109a3906124a2565b6001600160a01b0382166000908152600b60205260408120610a1190836124ac565b611c05612350565b60008181526009602052604081208054909103611c35576040516374315adb60e01b815260040160405180910390fd5b6000600d82015460ff166002811115611c5057611c50612801565b14611c6e576040516374f165fb60e11b815260040160405180910390fd5b6001810154336001600160a01b0390911603611c9d5760405163e24fd63160e01b815260040160405180910390fd5b60048101546001600160a01b031615611cc95760405163be02dee760e01b815260040160405180910390fd5b336000908152600a60205260409020600281015460ff1615611cfe5760405163e24fd63160e01b815260040160405180910390fd5b600381015415611d50576000610e108260030154611d1c9190612bb9565b8260040154611d2b9190612bd0565b905080421015611d4e5760405163c56b424b60e01b815260040160405180910390fd5b505b6004820180546001600160a01b03191633179055600d8201805460ff1990811660019081179092554260078501556002830180549091168217905583825581018054906000611d9e83612be3565b9190505550611dad33846123b8565b611db68361242a565b604051339084907f9b8e9742090654a785c549aefcfcd7cc7f18215ee64c50e9d93f4b153a0e56e490600090a35050610c9f60018055565b6001600160a01b0381166000908152600b60205260408120606091600c90611e15826124a2565b611e1e846124a2565b611e289190612bd0565b67ffffffffffffffff811115611e4057611e40612b77565b604051908082528060200260200182016040528015611e7957816020015b611e666126b0565b815260200190600190039081611e5e5790505b50905060005b611e88846124a2565b811015611fe75760096000611e9d86846124c4565b815260208082019290925260409081016000208151610100810183528154608080830191825260018401546001600160a01b0390811660a08086019190915260028087015460c0870152600387015460e0870152938552865190810187526004860154909116815260058501548188015260068501548187015260078501546060808301919091526008860154828401528488019190915285519182018652600985015460ff90811615158352600a86015497830197909752600b85015482870152600c85015482820152838601919091528451808601909552600d8401805493969495918701949193909284929190911690811115611f9f57611f9f612801565b6002811115611fb057611fb0612801565b815260200160018201548152505081525050828281518110611fd457611fd4612b8d565b6020908102919091010152600101611e7f565b5060005b611ff4836124a2565b811015612166576009600061200985846124c4565b815260208082019290925260409081016000208151610100810183528154608080830191825260018401546001600160a01b0390811660a08086019190915260028087015460c0870152600387015460e0870152938552865190810187526004860154909116815260058501548188015260068501548187015260078501546060808301919091526008860154828401528488019190915285519182018652600985015460ff90811615158352600a86015497830197909752600b85015482870152600c85015482820152838601919091528451808601909552600d840180549396949591870194919390928492919091169081111561210b5761210b612801565b600281111561211c5761211c612801565b8152602001600182015481525050815250508282612139876124a2565b6121439190612bd0565b8151811061215357612153612b8d565b6020908102919091010152600101611feb565b50949350505050565b600081815260096020526040812081600d82015460ff16600281111561219757612197612801565b148015610a115750600401546001600160a01b03161592915050565b6121bb612323565b6001600160a01b0381166121e557604051631e4fbdf760e01b815260006004820152602401610d3d565b610c9f816123da565b6060611aed600c6123ab565b6122026126b0565b6000828152600960208181526040928390208351610100810185528154608080830191825260018401546001600160a01b0390811660a08086019190915260028087015460c0870152600387015460e08701529385528851908101895260048601549091168152600585015481870152600685015481890152600785015460608083019190915260088601548284015284870191909152875191820188529584015460ff90811615158252600a85015495820195909552600b84015481880152600c84015481870152828701528551808701909652600d8301805492969395870194909284929116908111156122fa576122fa612801565b600281111561230b5761230b612801565b81526001919091015460209091015290525092915050565b6000546001600160a01b031633146110d95760405163118cdaa760e01b8152336004820152602401610d3d565b60026001540361237357604051633ee5aeb560e01b815260040160405180910390fd5b6002600155565b6001600160a01b0382166000908152600b6020526040902061176690826124d0565b6123a7600c826124dc565b5050565b60606000610a11836124e8565b6001600160a01b0382166000908152600b6020526040902061176690826124dc565b600080546001600160a01b038381166001600160a01b0319831681178455604051919092169283917f8be0079c531659141344cd1fd0a4f28419497f9722a3daafe3b4186f6b6457e09190a35050565b6123a7600c826124d0565b600081815260096020526040902060018101546001600160a01b03161561246e57600181015461246e906001600160a01b03168361237a565b60048101546001600160a01b031615612499576004810154612499906001600160a01b03168361237a565b6123a78261242a565b60006109a3825490565b60008181526001830160205260408120541515610a11565b6000610a118383612544565b6000610a11838361256e565b6000610a118383612661565b60608160000180548060200260200160405190810160405280929190818152602001828054801561253857602002820191906000526020600020905b815481526020019060010190808311612524575b50505050509050919050565b600082600001828154811061255b5761255b612b8d565b9060005260206000200154905092915050565b60008181526001830160205260408120548015612657576000612592600183612c82565b85549091506000906125a690600190612c82565b905080821461260b5760008660000182815481106125c6576125c6612b8d565b90600052602060002001549050808760000184815481106125e9576125e9612b8d565b6000918252602080832090910192909255918252600188019052604090208390555b855486908061261c5761261c612c95565b6001900381819060005260206000200160009055905585600101600086815260200190815260200160002060009055600193505050506109a3565b60009150506109a3565b60008181526001830160205260408120546126a8575081546001818101845560008481526020808220909301849055845484825282860190935260409020919091556109a3565b5060006109a3565b60408051610100810190915260006080820181815260a0830182905260c0830182905260e08301919091528190815260200161271d6040518060a0016040528060006001600160a01b03168152602001600081526020016000815260200160008152602001600081525090565b815260200161274f60405180608001604052806000151581526020016000815260200160008152602001600081525090565b815260200161276e604080518082019091526000808252602082015290565b905290565b60008083601f84011261278557600080fd5b50813567ffffffffffffffff81111561279d57600080fd5b6020830191508360208260051b85010111156127b857600080fd5b9250929050565b600080602083850312156127d257600080fd5b823567ffffffffffffffff8111156127e957600080fd5b6127f585828601612773565b90969095509350505050565b634e487b7160e01b600052602160045260246000fd5b80516003811061283757634e487b7160e01b600052602160045260246000fd5b8252602090810151910152565b612876828251805182526020808201516001600160a01b03169083015260408082015190830152606090810151910152565b60208101516128b9608084018280516001600160a01b03168252602080820151908301526040808201519083015260608082015190830152608090810151910152565b50604081810151805115156101208501526020810151610140850152908101516101608401526060908101516101808401528101516117666101a0840182612817565b602080825282518282018190526000918401906040840190835b8181101561294057612929838551612844565b602093909301926101e09290920191600101612916565b509095945050505050565b8035801515811461295b57600080fd5b919050565b60006020828403121561297257600080fd5b610a118261294b565b80356001600160a01b038116811461295b57600080fd5b6000602082840312156129a457600080fd5b610a118261297b565b6000602082840312156129bf57600080fd5b5035919050565b602080825282518282018190526000918401906040840190835b818110156129405783518352602093840193909201916001016129e0565b600080600080600060a08688031215612a1657600080fd5b8535945060208601359350612a2d6040870161294b565b94979396509394606081013594506080013592915050565b845181526020808601516001600160a01b03169082015260408086015190820152606080860151908201526101e0810184516001600160a01b0316608083810191909152602086015160a0840152604086015160c0840152606086015160e084015285015161010083015283511515610120830152602084015161014083015260408401516101608301526060840151610180830152612ae96101a0830184612817565b95945050505050565b600080600060408486031215612b0757600080fd5b83359250602084013567ffffffffffffffff811115612b2557600080fd5b612b3186828701612773565b9497909650939450505050565b60008060408385031215612b5157600080fd5b612b5a8361297b565b946020939093013593505050565b6101e081016109a38284612844565b634e487b7160e01b600052604160045260246000fd5b634e487b7160e01b600052603260045260246000fd5b634e487b7160e01b600052601160045260246000fd5b80820281158282048414176109a3576109a3612ba3565b808201808211156109a3576109a3612ba3565b600060018201612bf557612bf5612ba3565b5060010190565b8581526001600160a01b0385166020820152608060408201819052810183905260006001600160fb1b03841115612c3257600080fd5b8360051b808660a08501376060830193909352500160a001949350505050565b600060208284031215612c6457600080fd5b5051919050565b600081612c7a57612c7a612ba3565b506000190190565b818103818111156109a3576109a3612ba3565b634e487b7160e01b600052603160045260246000fdfea2646970667358221220176fb12bcdb1980d45eafbdaeef1e7c7a0f8641c3f005ff99fe8a1b708c2ddf164736f6c634300081c0033",
  "linkReferences": {},
  "deployedLinkReferences": {}
}