{
  "_format": "hh-sol-artifact-1",
  "contractName": "Fleets",
  "sourceName": "contracts/Fleets.sol",
  "abi": [
    {
      "inputs": [
        {
          "internalType": "address",
          "name": "_ships",
          "type": "address"
        }
      ],
      "stateMutability": "nonpayable",
      "type": "constructor"
    },
    {
      "inputs": [],
      "name": "ArrayLengthMismatch",
      "type": "error"
    },
    {
      "inputs": [],
      "name": "DuplicatePosition",
      "type": "error"
    },
    {
      "inputs": [],
      "name": "FleetNotFound",
      "type": "error"
    },
    {
      "inputs": [],
      "name": "InvalidFleetCost",
      "type": "error"
    },
    {
      "inputs": [],
      "name": "InvalidPosition",
      "type": "error"
    },
    {
      "inputs": [],
      "name": "NotLobbiesContract",
      "type": "error"
    },
    {
      "inputs": [
        {
          "internalType": "address",
          "name": "owner",
          "type": "address"
        }
      ],
      "name": "OwnableInvalidOwner",
      "type": "error"
    },
    {
      "inputs": [
        {
          "internalType": "address",
          "name": "account",
          "type": "address"
        }
      ],
      "name": "OwnableUnauthorizedAccount",
      "type": "error"
    },
    {
      "inputs": [],
      "name": "ShipAlreadyInFleet",
      "type": "error"
    },
    {
      "inputs": [],
      "name": "ShipCostVersionMismatch",
      "type": "error"
    },
    {
      "inputs": [],
      "name": "ShipNotFound",
      "type": "error"
    },
    {
      "inputs": [],
      "name": "ShipNotOwned",
      "type": "error"
    },
    {
      "anonymous": false,
      "inputs": [
        {
          "indexed": true,
          "internalType": "uint256",
          "name": "fleetId",
          "type": "uint256"
        }
      ],
      "name": "FleetCleared",
      "type": "event"
    },
    {
      "anonymous": false,
      "inputs": [
        {
          "indexed": true,
          "internalType": "uint256",
          "name": "fleetId",
          "type": "uint256"
        },
        {
          "indexed": true,
          "internalType": "uint256",
          "name": "lobbyId",
          "type": "uint256"
        },
        {
          "indexed": true,
          "internalType": "address",
          "name": "owner",
          "type": "address"
        }
      ],
      "name": "FleetCreated",
      "type": "event"
    },
    {
      "anonymous": false,
      "inputs": [
        {
          "indexed": true,
          "internalType": "address",
          "name": "previousOwner",
          "type": "address"
        },
        {
          "indexed": true,
          "internalType": "address",
          "name": "newOwner",
          "type": "address"
        }
      ],
      "name": "OwnershipTransferred",
      "type": "event"
    },
    {
      "inputs": [
        {
          "internalType": "uint256",
          "name": "_fleetId",
          "type": "uint256"
        }
      ],
      "name": "clearFleet",
      "outputs": [],
      "stateMutability": "nonpayable",
      "type": "function"
    },
    {
      "inputs": [
        {
          "internalType": "uint256",
          "name": "_lobbyId",
          "type": "uint256"
        },
        {
          "internalType": "address",
          "name": "_owner",
          "type": "address"
        },
        {
          "internalType": "uint256[]",
          "name": "_shipIds",
          "type": "uint256[]"
        },
        {
          "components": [
            {
              "internalType": "int16",
              "name": "row",
              "type": "int16"
            },
            {
              "internalType": "int16",
              "name": "col",
              "type": "int16"
            }
          ],
          "internalType": "struct Position[]",
          "name": "_startingPositions",
          "type": "tuple[]"
        },
        {
          "internalType": "uint256",
          "name": "_costLimit",
          "type": "uint256"
        },
        {
          "internalType": "bool",
          "name": "_isCreator",
          "type": "bool"
        }
      ],
      "name": "createFleet",
      "outputs": [
        {
          "internalType": "uint256",
          "name": "",
          "type": "uint256"
        }
      ],
      "stateMutability": "nonpayable",
      "type": "function"
    },
    {
      "inputs": [],
      "name": "fleetCount",
      "outputs": [
        {
          "internalType": "uint256",
          "name": "",
          "type": "uint256"
        }
      ],
      "stateMutability": "view",
      "type": "function"
    },
    {
      "inputs": [
        {
          "internalType": "uint256",
          "name": "",
          "type": "uint256"
        }
      ],
      "name": "fleets",
      "outputs": [
        {
          "internalType": "uint256",
          "name": "id",
          "type": "uint256"
        },
        {
          "internalType": "uint256",
          "name": "lobbyId",
          "type": "uint256"
        },
        {
          "internalType": "address",
          "name": "owner",
          "type": "address"
        },
        {
          "internalType": "uint256",
          "name": "totalCost",
          "type": "uint256"
        },
        {
          "internalType": "bool",
          "name": "isComplete",
          "type": "bool"
        }
      ],
      "stateMutability": "view",
      "type": "function"
    },
    {
      "inputs": [],
      "name": "gameAddress",
      "outputs": [
        {
          "internalType": "address",
          "name": "",
          "type": "address"
        }
      ],
      "stateMutability": "view",
      "type": "function"
    },
    {
      "inputs": [
        {
          "internalType": "uint256",
          "name": "_fleetId",
          "type": "uint256"
        }
      ],
      "name": "getFleet",
      "outputs": [
        {
          "components": [
            {
              "internalType": "uint256",
              "name": "id",
              "type": "uint256"
            },
            {
              "internalType": "uint256",
              "name": "lobbyId",
              "type": "uint256"
            },
            {
              "internalType": "address",
              "name": "owner",
              "type": "address"
            },
            {
              "internalType": "uint256[]",
              "name": "shipIds",
              "type": "uint256[]"
            },
            {
              "components": [
                {
                  "internalType": "int16",
                  "name": "row",
                  "type": "int16"
                },
                {
                  "internalType": "int16",
                  "name": "col",
                  "type": "int16"
                }
              ],
              "internalType": "struct Position[]",
              "name": "startingPositions",
              "type": "tuple[]"
            },
            {
              "internalType": "uint256",
              "name": "totalCost",
              "type": "uint256"
            },
            {
              "internalType": "bool",
              "name": "isComplete",
              "type": "bool"
            }
          ],
          "internalType": "struct Fleet",
          "name": "",
          "type": "tuple"
        }
      ],
      "stateMutability": "view",
      "type": "function"
    },
    {
      "inputs": [
        {
          "internalType": "uint256",
          "name": "_fleetId",
          "type": "uint256"
        }
      ],
      "name": "getFleetShipIdsAndPositions",
      "outputs": [
        {
          "internalType": "uint256[]",
          "name": "shipIds",
          "type": "uint256[]"
        },
        {
          "components": [
            {
              "internalType": "int16",
              "name": "row",
              "type": "int16"
            },
            {
              "internalType": "int16",
              "name": "col",
              "type": "int16"
            }
          ],
          "internalType": "struct Position[]",
          "name": "startingPositions",
          "type": "tuple[]"
        }
      ],
      "stateMutability": "view",
      "type": "function"
    },
    {
      "inputs": [
        {
          "internalType": "uint256",
          "name": "_fleetId",
          "type": "uint256"
        },
        {
          "internalType": "uint256",
          "name": "_shipId",
          "type": "uint256"
        }
      ],
      "name": "isShipInFleet",
      "outputs": [
        {
          "internalType": "bool",
          "name": "",
          "type": "bool"
        }
      ],
      "stateMutability": "view",
      "type": "function"
    },
    {
      "inputs": [],
      "name": "lobbiesAddress",
      "outputs": [
        {
          "internalType": "address",
          "name": "",
          "type": "address"
        }
      ],
      "stateMutability": "view",
      "type": "function"
    },
    {
      "inputs": [],
      "name": "owner",
      "outputs": [
        {
          "internalType": "address",
          "name": "",
          "type": "address"
        }
      ],
      "stateMutability": "view",
      "type": "function"
    },
    {
      "inputs": [
        {
          "internalType": "uint256",
          "name": "_fleetId",
          "type": "uint256"
        },
        {
          "internalType": "uint256",
          "name": "_shipId",
          "type": "uint256"
        }
      ],
      "name": "removeShipFromFleet",
      "outputs": [],
      "stateMutability": "nonpayable",
      "type": "function"
    },
    {
      "inputs": [],
      "name": "renounceOwnership",
      "outputs": [],
      "stateMutability": "nonpayable",
      "type": "function"
    },
    {
      "inputs": [
        {
          "internalType": "address",
          "name": "_gameAddress",
          "type": "address"
        }
      ],
      "name": "setGameAddress",
      "outputs": [],
      "stateMutability": "nonpayable",
      "type": "function"
    },
    {
      "inputs": [
        {
          "internalType": "address",
          "name": "_lobbiesAddress",
          "type": "address"
        }
      ],
      "name": "setLobbiesAddress",
      "outputs": [],
      "stateMutability": "nonpayable",
      "type": "function"
    },
    {
      "inputs": [
        {
          "internalType": "address",
          "name": "_shipAttributes",
          "type": "address"
        }
      ],
      "name": "setShipAttributes",
      "outputs": [],
      "stateMutability": "nonpayable",
      "type": "function"
    },
    {
      "inputs": [],
      "name": "shipAttributes",
      "outputs": [
        {
          "internalType": "contract IShipAttributes",
          "name": "",
          "type": "address"
        }
      ],
      "stateMutability": "view",
      "type": "function"
    },
    {
      "inputs": [],
      "name": "ships",
      "outputs": [
        {
          "internalType": "contract Ships",
          "name": "",
          "type": "address"
        }
      ],
      "stateMutability": "view",
      "type": "function"
    },
    {
      "inputs": [
        {
          "internalType": "address",
          "name": "newOwner",
          "type": "address"
        }
      ],
      "name": "transferOwnership",
      "outputs": [],
      "stateMutability": "nonpayable",
      "type": "function"
    }
  ],
  "bytecode": "0x608060405234801561001057600080fd5b50604051611dcb380380611dcb83398101604081905261002f916100d4565b338061005557604051631e4fbdf760e01b81526000600482015260240160405180910390fd5b61005e81610084565b50600180546001600160a01b0319166001600160a01b0392909216919091179055610104565b600080546001600160a01b038381166001600160a01b0319831681178455604051919092169283917f8be0079c531659141344cd1fd0a4f28419497f9722a3daafe3b4186f6b6457e09190a35050565b6000602082840312156100e657600080fd5b81516001600160a01b03811681146100fd57600080fd5b9392505050565b611cb8806101136000396000f3fe608060405234801561001057600080fd5b50600436106101165760003560e01c80638da5cb5b116100a2578063bbf8218a11610071578063bbf8218a146102b6578063eab56f7e146102c9578063f2bf13b0146102dc578063f2fde38b146102ef578063f9740c751461030257600080fd5b80638da5cb5b146101ee57806391dde70a146101ff578063a168d87314610220578063b8b4b1731461023357600080fd5b806341f5f5e9116100e957806341f5f5e9146101a45780634f245eda146101b75780636808070a146101c0578063711953ef146101d3578063715018a6146101e657600080fd5b806316bc82201461011b57806318fb5fa41461014357806327ffe52114610164578063336d7d7b14610179575b600080fd5b61012e610129366004611330565b610322565b60405190151581526020015b60405180910390f35b6101566101513660046113d1565b6104c0565b60405190815260200161013a565b610177610172366004611330565b610a97565b005b60035461018c906001600160a01b031681565b6040516001600160a01b03909116815260200161013a565b60025461018c906001600160a01b031681565b61015660065481565b6101776101ce3660046114b0565b610d03565b6101776101e13660046114b0565b610d2d565b610177610d57565b6000546001600160a01b031661018c565b61021261020d3660046114d4565b610d6b565b60405161013a929190611539565b60045461018c906001600160a01b031681565b61027e6102413660046114d4565b600560208190526000918252604090912080546001820154600283015493830154600690930154919390926001600160a01b039091169160ff1685565b6040805195865260208601949094526001600160a01b039092169284019290925260608301919091521515608082015260a00161013a565b60015461018c906001600160a01b031681565b6101776102d73660046114b0565b610ece565b6101776102ea3660046114d4565b610ef8565b6101776102fd3660046114b0565b61103f565b6103156103103660046114d4565b611082565b60405161013a9190611591565b600082815260056020526040812054810361035057604051631524e51160e01b815260040160405180910390fd5b6000838152600560209081526040808320815160e0810183528154815260018201548185015260028201546001600160a01b0316818401526003820180548451818702810187019095528085529194929360608601939092908301828280156103d857602002820191906000526020600020905b8154815260200190600101908083116103c4575b5050505050815260200160048201805480602002602001604051908101604052809291908181526020016000905b828210156104485760008481526020908190206040805180820190915290840154600181810b835262010000909104810b828401529083529092019101610406565b505050908252506005820154602082015260069091015460ff161515604090910152905060005b8160600151518110156104b35783826060015182815181106104935761049361164d565b6020026020010151036104ab576001925050506104ba565b60010161046f565b5060009150505b92915050565b6003546000906001600160a01b031633146104ee57604051638671306560e01b815260040160405180910390fd5b85841461050e5760405163512509d360e11b815260040160405180910390fd5b60005b8481101561060a57600086868381811061052d5761052d61164d565b9050604002018036038101906105439190611706565b9050831561058b576000816020015160010b128061056857506003816020015160010b135b156105865760405163673f032f60e11b815260040160405180910390fd5b6105c6565b600d816020015160010b12806105a857506010816020015160010b135b156105c65760405163673f032f60e11b815260040160405180910390fd5b6000816000015160010b12806105e35750600a816000015160010b135b156106015760405163673f032f60e11b815260040160405180910390fd5b50600101610511565b50600680546000918261061c8361177d565b90915550506006546000818152600560205260409020818155600181018c90556002810180546001600160a01b0319166001600160a01b038d16179055610667600382018b8b611298565b5060005b878110156106bf57816004018989838181106106895761068961164d565b835460018101855560009485526020909420604090910292909201929190910190506106b58282611796565b505060010161066b565b5060005b898110156108865760008b8b838181106106df576106df61164d565b600154604051634025b22d60e01b815260209290920293909301356004820181905293506000926001600160a01b03169150634025b22d90602401600060405180830381865afa158015610737573d6000803e3d6000fd5b505050506040513d6000823e601f3d908101601f1916820160405261075f9190810190611aa2565b90508d6001600160a01b03168160a001516001600160a01b03161461079757604051630b18e5d760e21b815260040160405180910390fd5b806080015160c00151156107bd5760405162f2f12360e21b815260040160405180910390fd5b600260009054906101000a90046001600160a01b03166001600160a01b0316633130f7ce6040518163ffffffff1660e01b8152600401602060405180830381865afa158015610810573d6000803e3d6000fd5b505050506040513d601f19601f820116820180604052508101906108349190611bd6565b61ffff1681608001516020015161ffff16146108635760405163524ca82960e11b815260040160405180910390fd5b60808101516040015161087a9061ffff1687611bf1565b955050506001016106c3565b50858311156108a857604051639451e34760e01b815260040160405180910390fd5b6005810183905560068101805460ff191660011790556108c66112e3565b60005b888110156109b25760008a8a838181106108e5576108e561164d565b9050604002018036038101906108fb9190611706565b90506000816020015160010b826000015160010b601161091b9190611c04565b6109259190611bf1565b9050600061093561010083611c31565b9050600061094561010084611c45565b90506001811b86836002811061095d5761095d61164d565b602002015116156109815760405163e13355df60e01b815260040160405180910390fd5b6001811b8683600281106109975761099761164d565b60200201805190911790525050600190920191506108c99050565b5060005b8a811015610a4d576001546001600160a01b0316637eebe99d8d8d848181106109e1576109e161164d565b6040516001600160e01b031960e086901b1681526020909102929092013560048301525060016024820152604401600060405180830381600087803b158015610a2957600080fd5b505af1158015610a3d573d6000803e3d6000fd5b5050600190920191506109b69050565b508b6001600160a01b03168d847fc230eb2bb5e08173bc7b7883549c1a71bce5365714bd5bf519f908239dbe801060405160405180910390a450909b9a5050505050505050505050565b6003546001600160a01b03163314801590610abd57506004546001600160a01b03163314155b15610adb57604051638671306560e01b815260040160405180910390fd5b60008281526005602052604081208054909103610b0b57604051631524e51160e01b815260040160405180910390fd5b60005b6003820154811015610ce95782826003018281548110610b3057610b3061164d565b906000526020600020015403610ce157805b6003830154610b5390600190611c59565b811015610bad5760038301610b69826001611bf1565b81548110610b7957610b7961164d565b9060005260206000200154836003018281548110610b9957610b9961164d565b600091825260209091200155600101610b42565b5081600301805480610bc157610bc1611c6c565b6000828152602081206000199083018101829055909101909155600154604051637eebe99d60e01b81526004810186905260248101929092526001600160a01b031690637eebe99d90604401600060405180830381600087803b158015610c2757600080fd5b505af1158015610c3b573d6000803e3d6000fd5b5050600154604051634025b22d60e01b815260048101879052600093506001600160a01b039091169150634025b22d90602401600060405180830381865afa158015610c8b573d6000803e3d6000fd5b505050506040513d6000823e601f3d908101601f19168201604052610cb39190810190611aa2565b905080608001516040015161ffff16836005016000828254610cd59190611c59565b90915550505050505050565b600101610b0e565b506040516303c113ad60e61b815260040160405180910390fd5b610d0b61121b565b600280546001600160a01b0319166001600160a01b0392909216919091179055565b610d3561121b565b600480546001600160a01b0319166001600160a01b0392909216919091179055565b610d5f61121b565b610d696000611248565b565b60008181526005602052604081205460609182919003610d9e57604051631524e51160e01b815260040160405180910390fd5b6000838152600560209081526040808320815160e0810183528154815260018201548185015260028201546001600160a01b031681840152600382018054845181870281018701909552808552919492936060860193909290830182828015610e2657602002820191906000526020600020905b815481526020019060010190808311610e12575b5050505050815260200160048201805480602002602001604051908101604052809291908181526020016000905b82821015610e965760008481526020908190206040805180820190915290840154600181810b835262010000909104810b828401529083529092019101610e54565b505050908252506005820154602082015260069091015460ff1615156040909101526060810151608090910151909590945092505050565b610ed661121b565b600380546001600160a01b0319166001600160a01b0392909216919091179055565b6003546001600160a01b03163314610f2357604051638671306560e01b815260040160405180910390fd5b60008181526005602052604081208054909103610f5357604051631524e51160e01b815260040160405180910390fd5b60005b6003820154811015611001576001546003830180546001600160a01b0390921691637eebe99d919084908110610f8e57610f8e61164d565b906000526020600020015460006040518363ffffffff1660e01b8152600401610fc39291909182521515602082015260400190565b600060405180830381600087803b158015610fdd57600080fd5b505af1158015610ff1573d6000803e3d6000fd5b505060019092019150610f569050565b50611010600382016000611301565b60405182907f9ff71619d0e9826e43962fb25978600608f9e12936460c6181abde88a4fdbcfc90600090a25050565b61104761121b565b6001600160a01b03811661107657604051631e4fbdf760e01b8152600060048201526024015b60405180910390fd5b61107f81611248565b50565b6110cd6040518060e00160405280600081526020016000815260200160006001600160a01b031681526020016060815260200160608152602001600081526020016000151581525090565b60008281526005602052604081205490036110fb57604051631524e51160e01b815260040160405180910390fd5b600082815260056020908152604091829020825160e0810184528154815260018201548184015260028201546001600160a01b031681850152600382018054855181860281018601909652808652919492936060860193929083018282801561118357602002820191906000526020600020905b81548152602001906001019080831161116f575b5050505050815260200160048201805480602002602001604051908101604052809291908181526020016000905b828210156111f35760008481526020908190206040805180820190915290840154600181810b835262010000909104810b8284015290835290920191016111b1565b505050908252506005820154602082015260069091015460ff16151560409091015292915050565b6000546001600160a01b03163314610d695760405163118cdaa760e01b815233600482015260240161106d565b600080546001600160a01b038381166001600160a01b0319831681178455604051919092169283917f8be0079c531659141344cd1fd0a4f28419497f9722a3daafe3b4186f6b6457e09190a35050565b8280548282559060005260206000209081019282156112d3579160200282015b828111156112d35782358255916020019190600101906112b8565b506112df92915061131b565b5090565b60405180604001604052806002906020820280368337509192915050565b508054600082559060005260206000209081019061107f91905b5b808211156112df576000815560010161131c565b6000806040838503121561134357600080fd5b50508035926020909101359150565b6001600160a01b038116811461107f57600080fd5b60008083601f84011261137957600080fd5b50813567ffffffffffffffff81111561139157600080fd5b6020830191508360208260061b85010111156113ac57600080fd5b9250929050565b801515811461107f57600080fd5b80356113cc816113b3565b919050565b60008060008060008060008060c0898b0312156113ed57600080fd5b8835975060208901356113ff81611352565b9650604089013567ffffffffffffffff81111561141b57600080fd5b8901601f81018b1361142c57600080fd5b803567ffffffffffffffff81111561144357600080fd5b8b60208260051b840101111561145857600080fd5b60209190910196509450606089013567ffffffffffffffff81111561147c57600080fd5b6114888b828c01611367565b909550935050608089013591506114a160a08a016113c1565b90509295985092959890939650565b6000602082840312156114c257600080fd5b81356114cd81611352565b9392505050565b6000602082840312156114e657600080fd5b5035919050565b600081518084526020840193506020830160005b8281101561152f5781518051600190810b8852602091820151810b8289015260409097019692019101611501565b5093949350505050565b6040808252835190820181905260009060208501906060840190835b81811015611573578351835260209384019390920191600101611555565b5050838103602085015261158781866114ed565b9695505050505050565b6020815260006101008201835160208401526020840151604084015260018060a01b036040850151166060840152606084015160e0608085015281815180845261012086019150602083019350600092505b8083101561160657835182526020820191506020840193506001830192506115e3565b506080860151858203601f190160a0870152925061162481846114ed565b9250505060a084015160c084015260c084015161164560e085018215159052565b509392505050565b634e487b7160e01b600052603260045260246000fd5b634e487b7160e01b600052604160045260246000fd5b60405160c0810167ffffffffffffffff8111828210171561169c5761169c611663565b60405290565b604051610120810167ffffffffffffffff8111828210171561169c5761169c611663565b604051601f8201601f1916810167ffffffffffffffff811182821017156116ef576116ef611663565b604052919050565b8060010b811461107f57600080fd5b6000604082840312801561171957600080fd5b506040805190810167ffffffffffffffff8111828210171561173d5761173d611663565b604052823561174b816116f7565b8152602083013561175b816116f7565b60208201529392505050565b634e487b7160e01b600052601160045260246000fd5b60006001820161178f5761178f611767565b5060010190565b81356117a1816116f7565b815461ffff19811661ffff831617835560208401356117bf816116f7565b8060101b63ffff00001661ffff841663ffffffff198416171784555050505050565b6008811061107f57600080fd5b60006080828403121561180057600080fd5b6040516080810167ffffffffffffffff8111828210171561182357611823611663565b80604052508091508251611836816117e1565b81526020830151611846816117e1565b60208201526040830151611859816117e1565b6040820152606083015161186c816117e1565b6060919091015292915050565b805161ffff811681146113cc57600080fd5b805160ff811681146113cc57600080fd5b60008183036101c08112156118b057600080fd5b6118b8611679565b835181529150610120601f19820112156118d157600080fd5b506118da6116a2565b6118e660208401611879565b81526118f46040840161188b565b60208201526119056060840161188b565b604082015261191660808401611879565b606082015261192760a0840161188b565b608082015261193860c0840161188b565b60a082015261194960e08401611879565b60c082015261195b610100840161188b565b60e082015261196d610120840161188b565b61010082015260208201526119856101408301611879565b6040820152611997610160830161188b565b60608201526119a9610180830161188b565b60808201526119bb6101a0830161188b565b60a082015292915050565b805163ffffffff811681146113cc57600080fd5b80516113cc816113b3565b600061012082840312156119f857600080fd5b611a006116a2565b9050611a0b826119c6565b8152611a1960208301611879565b6020820152611a2a60408301611879565b6040820152611a3b60608301611879565b6060820152611a4c608083016119da565b6080820152611a5d60a083016119da565b60a0820152611a6e60c083016119da565b60c0820152611a7f60e083016119da565b60e08201526101009182015191810191909152919050565b80516113cc81611352565b600060208284031215611ab457600080fd5b815167ffffffffffffffff811115611acb57600080fd5b82016103c08185031215611ade57600080fd5b611ae6611679565b815167ffffffffffffffff811115611afd57600080fd5b8201601f81018613611b0e57600080fd5b805167ffffffffffffffff811115611b2857611b28611663565b611b3b601f8201601f19166020016116c6565b818152876020838501011115611b5057600080fd5b60005b82811015611b6f57602081850181015183830182015201611b53565b50600060209282018301528352838101519083015250611b9285604084016117ee565b6040820152611ba48560c0840161189c565b6060820152611bb78561028084016119e5565b6080820152611bc96103a08301611a97565b60a0820152949350505050565b600060208284031215611be857600080fd5b6114cd82611879565b808201808211156104ba576104ba611767565b80820281158282048414176104ba576104ba611767565b634e487b7160e01b600052601260045260246000fd5b600082611c4057611c40611c1b565b500490565b600082611c5457611c54611c1b565b500690565b818103818111156104ba576104ba611767565b634e487b7160e01b600052603160045260246000fdfea2646970667358221220939c94b274d6d1a5cb1f892d00370d2cdfead8cafd9d6d05641c5b7bc04daa2c64736f6c634300081c0033",
  "linkReferences": {},
  "deployedLinkReferences": {}
}