{
  "_format": "hh-sol-artifact-1",
  "contractName": "UniversalCredits",
  "sourceName": "contracts/UniversalCredits.sol",
  "abi": [
    {
      "inputs": [],
      "stateMutability": "nonpayable",
      "type": "constructor"
    },
    {
      "inputs": [
        {
          "internalType": "address",
          "name": "spender",
          "type": "address"
        },
        {
          "internalType": "uint256",
          "name": "allowance",
          "type": "uint256"
        },
        {
          "internalType": "uint256",
          "name": "needed",
          "type": "uint256"
        }
      ],
      "name": "ERC20InsufficientAllowance",
      "type": "error"
    },
    {
      "inputs": [
        {
          "internalType": "address",
          "name": "sender",
          "type": "address"
        },
        {
          "internalType": "uint256",
          "name": "balance",
          "type": "uint256"
        },
        {
          "internalType": "uint256",
          "name": "needed",
          "type": "uint256"
        }
      ],
      "name": "ERC20InsufficientBalance",
      "type": "error"
    },
    {
      "inputs": [
        {
          "internalType": "address",
          "name": "approver",
          "type": "address"
        }
      ],
      "name": "ERC20InvalidApprover",
      "type": "error"
    },
    {
      "inputs": [
        {
          "internalType": "address",
          "name": "receiver",
          "type": "address"
        }
      ],
      "name": "ERC20InvalidReceiver",
      "type": "error"
    },
    {
      "inputs": [
        {
          "internalType": "address",
          "name": "sender",
          "type": "address"
        }
      ],
      "name": "ERC20InvalidSender",
      "type": "error"
    },
    {
      "inputs": [
        {
          "internalType": "address",
          "name": "spender",
          "type": "address"
        }
      ],
      "name": "ERC20InvalidSpender",
      "type": "error"
    },
    {
      "inputs": [],
      "name": "MintNotActive",
      "type": "error"
    },
    {
      "inputs": [
        {
          "internalType": "address",
          "name": "",
          "type": "address"
        }
      ],
      "name": "NotAuthorized",
      "type": "error"
    },
    {
      "inputs": [
        {
          "internalType": "address",
          "name": "owner",
          "type": "address"
        }
      ],
      "name": "OwnableInvalidOwner",
      "type": "error"
    },
    {
      "inputs": [
        {
          "internalType": "address",
          "name": "account",
          "type": "address"
        }
      ],
      "name": "OwnableUnauthorizedAccount",
      "type": "error"
    },
    {
      "anonymous": false,
      "inputs": [
        {
          "indexed": true,
          "internalType": "address",
          "name": "owner",
          "type": "address"
        },
        {
          "indexed": true,
          "internalType": "address",
          "name": "spender",
          "type": "address"
        },
        {
          "indexed": false,
          "internalType": "uint256",
          "name": "value",
          "type": "uint256"
        }
      ],
      "name": "Approval",
      "type": "event"
    },
    {
      "anonymous": false,
      "inputs": [
        {
          "indexed": true,
          "internalType": "address",
          "name": "previousOwner",
          "type": "address"
        },
        {
          "indexed": true,
          "internalType": "address",
          "name": "newOwner",
          "type": "address"
        }
      ],
      "name": "OwnershipTransferred",
      "type": "event"
    },
    {
      "anonymous": false,
      "inputs": [
        {
          "indexed": true,
          "internalType": "address",
          "name": "from",
          "type": "address"
        },
        {
          "indexed": true,
          "internalType": "address",
          "name": "to",
          "type": "address"
        },
        {
          "indexed": false,
          "internalType": "uint256",
          "name": "value",
          "type": "uint256"
        }
      ],
      "name": "Transfer",
      "type": "event"
    },
    {
      "inputs": [
        {
          "internalType": "address",
          "name": "owner",
          "type": "address"
        },
        {
          "internalType": "address",
          "name": "spender",
          "type": "address"
        }
      ],
      "name": "allowance",
      "outputs": [
        {
          "internalType": "uint256",
          "name": "",
          "type": "uint256"
        }
      ],
      "stateMutability": "view",
      "type": "function"
    },
    {
      "inputs": [
        {
          "internalType": "address",
          "name": "spender",
          "type": "address"
        },
        {
          "internalType": "uint256",
          "name": "value",
          "type": "uint256"
        }
      ],
      "name": "approve",
      "outputs": [
        {
          "internalType": "bool",
          "name": "",
          "type": "bool"
        }
      ],
      "stateMutability": "nonpayable",
      "type": "function"
    },
    {
      "inputs": [
        {
          "internalType": "address",
          "name": "",
          "type": "address"
        }
      ],
      "name": "authorizedToMint",
      "outputs": [
        {
          "internalType": "bool",
          "name": "",
          "type": "bool"
        }
      ],
      "stateMutability": "view",
      "type": "function"
    },
    {
      "inputs": [
        {
          "internalType": "address",
          "name": "account",
          "type": "address"
        }
      ],
      "name": "balanceOf",
      "outputs": [
        {
          "internalType": "uint256",
          "name": "",
          "type": "uint256"
        }
      ],
      "stateMutability": "view",
      "type": "function"
    },
    {
      "inputs": [],
      "name": "decimals",
      "outputs": [
        {
          "internalType": "uint8",
          "name": "",
          "type": "uint8"
        }
      ],
      "stateMutability": "view",
      "type": "function"
    },
    {
      "inputs": [
        {
          "internalType": "address",
          "name": "_to",
          "type": "address"
        },
        {
          "internalType": "uint256",
          "name": "_amount",
          "type": "uint256"
        }
      ],
      "name": "mint",
      "outputs": [],
      "stateMutability": "nonpayable",
      "type": "function"
    },
    {
      "inputs": [],
      "name": "mintIsActive",
      "outputs": [
        {
          "internalType": "bool",
          "name": "",
          "type": "bool"
        }
      ],
      "stateMutability": "view",
      "type": "function"
    },
    {
      "inputs": [
        {
          "internalType": "address",
          "name": "",
          "type": "address"
        }
      ],
      "name": "mintedAmount",
      "outputs": [
        {
          "internalType": "uint256",
          "name": "",
          "type": "uint256"
        }
      ],
      "stateMutability": "view",
      "type": "function"
    },
    {
      "inputs": [],
      "name": "name",
      "outputs": [
        {
          "internalType": "string",
          "name": "",
          "type": "string"
        }
      ],
      "stateMutability": "view",
      "type": "function"
    },
    {
      "inputs": [],
      "name": "owner",
      "outputs": [
        {
          "internalType": "address",
          "name": "",
          "type": "address"
        }
      ],
      "stateMutability": "view",
      "type": "function"
    },
    {
      "inputs": [],
      "name": "renounceOwnership",
      "outputs": [],
      "stateMutability": "nonpayable",
      "type": "function"
    },
    {
      "inputs": [
        {
          "internalType": "address",
          "name": "_address",
          "type": "address"
        },
        {
          "internalType": "bool",
          "name": "_authorized",
          "type": "bool"
        }
      ],
      "name": "setAuthorizedToMint",
      "outputs": [],
      "stateMutability": "nonpayable",
      "type": "function"
    },
    {
      "inputs": [
        {
          "internalType": "bool",
          "name": "_mintIsActive",
          "type": "bool"
        }
      ],
      "name": "setMintIsActive",
      "outputs": [],
      "stateMutability": "nonpayable",
      "type": "function"
    },
    {
      "inputs": [],
      "name": "symbol",
      "outputs": [
        {
          "internalType": "string",
          "name": "",
          "type": "string"
        }
      ],
      "stateMutability": "view",
      "type": "function"
    },
    {
      "inputs": [],
      "name": "totalSupply",
      "outputs": [
        {
          "internalType": "uint256",
          "name": "",
          "type": "uint256"
        }
      ],
      "stateMutability": "view",
      "type": "function"
    },
    {
      "inputs": [
        {
          "internalType": "address",
          "name": "to",
          "type": "address"
        },
        {
          "internalType": "uint256",
          "name": "value",
          "type": "uint256"
        }
      ],
      "name": "transfer",
      "outputs": [
        {
          "internalType": "bool",
          "name": "",
          "type": "bool"
        }
      ],
      "stateMutability": "nonpayable",
      "type": "function"
    },
    {
      "inputs": [
        {
          "internalType": "address",
          "name": "from",
          "type": "address"
        },
        {
          "internalType": "address",
          "name": "to",
          "type": "address"
        },
        {
          "internalType": "uint256",
          "name": "value",
          "type": "uint256"
        }
      ],
      "name": "transferFrom",
      "outputs": [
        {
          "internalType": "bool",
          "name": "",
          "type": "bool"
        }
      ],
      "stateMutability": "nonpayable",
      "type": "function"
    },
    {
      "inputs": [
        {
          "internalType": "address",
          "name": "newOwner",
          "type": "address"
        }
      ],
      "name": "transferOwnership",
      "outputs": [],
      "stateMutability": "nonpayable",
      "type": "function"
    },
    {
      "inputs": [],
      "name": "withdrawAll",
      "outputs": [],
      "stateMutability": "nonpayable",
      "type": "function"
    }
  ],
  "bytecode": "0x608060405234801561001057600080fd5b503360405180604001604052806011815260200170556e6976657273616c204372656469747360781b81525060405180604001604052806002815260200161554360f01b815250816003908161006691906101a4565b50600461007382826101a4565b5050506001600160a01b0381166100a457604051631e4fbdf760e01b81526000600482015260240160405180910390fd5b6100ad816100b3565b50610262565b600580546001600160a01b038381166001600160a01b0319831681179093556040519116919082907f8be0079c531659141344cd1fd0a4f28419497f9722a3daafe3b4186f6b6457e090600090a35050565b634e487b7160e01b600052604160045260246000fd5b600181811c9082168061012f57607f821691505b60208210810361014f57634e487b7160e01b600052602260045260246000fd5b50919050565b601f82111561019f57806000526020600020601f840160051c8101602085101561017c5750805b601f840160051c820191505b8181101561019c5760008155600101610188565b50505b505050565b81516001600160401b038111156101bd576101bd610105565b6101d1816101cb845461011b565b84610155565b6020601f82116001811461020557600083156101ed5750848201515b600019600385901b1c1916600184901b17845561019c565b600084815260208120601f198516915b828110156102355787850151825560209485019460019092019101610215565b50848210156102535786840151600019600387901b60f8161c191681555b50505050600190811b01905550565b610b52806102716000396000f3fe608060405234801561001057600080fd5b50600436106101215760003560e01c806379482c60116100ad578063a9059cbb11610071578063a9059cbb14610256578063d19653fb14610269578063dd62ed3e1461027c578063f2fde38b146102b5578063fbbf8cc3146102c857600080fd5b806379482c60146101f5578063853828b6146102085780638da5cb5b1461021057806395d89b411461022b5780639c23bec91461023357600080fd5b8063313ce567116100f4578063313ce5671461018c57806340c10f191461019b578063471a4294146101b057806370a08231146101c4578063715018a6146101ed57600080fd5b806306fdde0314610126578063095ea7b31461014457806318160ddd1461016757806323b872dd14610179575b600080fd5b61012e6102e8565b60405161013b9190610946565b60405180910390f35b6101576101523660046109b0565b61037a565b604051901515815260200161013b565b6002545b60405190815260200161013b565b6101576101873660046109da565b610394565b6040516012815260200161013b565b6101ae6101a93660046109b0565b6103b8565b005b60055461015790600160a01b900460ff1681565b61016b6101d2366004610a17565b6001600160a01b031660009081526020819052604090205490565b6101ae610427565b6101ae610203366004610a49565b61043b565b6101ae61046e565b6005546040516001600160a01b03909116815260200161013b565b61012e610524565b610157610241366004610a17565b60066020526000908152604090205460ff1681565b6101576102643660046109b0565b610533565b6101ae610277366004610a7c565b610541565b61016b61028a366004610a97565b6001600160a01b03918216600090815260016020908152604080832093909416825291909152205490565b6101ae6102c3366004610a17565b610567565b61016b6102d6366004610a17565b60076020526000908152604090205481565b6060600380546102f790610ac1565b80601f016020809104026020016040519081016040528092919081815260200182805461032390610ac1565b80156103705780601f1061034557610100808354040283529160200191610370565b820191906000526020600020905b81548152906001019060200180831161035357829003601f168201915b5050505050905090565b6000336103888185856105a2565b60019150505b92915050565b6000336103a28582856105b4565b6103ad858585610633565b506001949350505050565b600554600160a01b900460ff166103e25760405163914edb0f60e01b815260040160405180910390fd5b3360009081526006602052604090205460ff1661041957604051634a0bfec160e01b81523360048201526024015b60405180910390fd5b6104238282610692565b5050565b61042f6106c8565b61043960006106f5565b565b6104436106c8565b6001600160a01b03919091166000908152600660205260409020805460ff1916911515919091179055565b6104766106c8565b600061048a6005546001600160a01b031690565b6001600160a01b03164760405160006040518083038185875af1925050503d80600081146104d4576040519150601f19603f3d011682016040523d82523d6000602084013e6104d9565b606091505b50509050806105215760405162461bcd60e51b81526020600482015260146024820152732330b4b632b2103a379039b2b7321022ba3432b960611b6044820152606401610410565b50565b6060600480546102f790610ac1565b600033610388818585610633565b6105496106c8565b60058054911515600160a01b0260ff60a01b19909216919091179055565b61056f6106c8565b6001600160a01b03811661059957604051631e4fbdf760e01b815260006004820152602401610410565b610521816106f5565b6105af8383836001610747565b505050565b6001600160a01b0383811660009081526001602090815260408083209386168352929052205460001981101561062d578181101561061e57604051637dc7a0d960e11b81526001600160a01b03841660048201526024810182905260448101839052606401610410565b61062d84848484036000610747565b50505050565b6001600160a01b03831661065d57604051634b637e8f60e11b815260006004820152602401610410565b6001600160a01b0382166106875760405163ec442f0560e01b815260006004820152602401610410565b6105af83838361081c565b6001600160a01b0382166106bc5760405163ec442f0560e01b815260006004820152602401610410565b6104236000838361081c565b6005546001600160a01b031633146104395760405163118cdaa760e01b8152336004820152602401610410565b600580546001600160a01b038381166001600160a01b0319831681179093556040519116919082907f8be0079c531659141344cd1fd0a4f28419497f9722a3daafe3b4186f6b6457e090600090a35050565b6001600160a01b0384166107715760405163e602df0560e01b815260006004820152602401610410565b6001600160a01b03831661079b57604051634a1406b160e11b815260006004820152602401610410565b6001600160a01b038085166000908152600160209081526040808320938716835292905220829055801561062d57826001600160a01b0316846001600160a01b03167f8c5be1e5ebec7d5bd14f71427d1e84f3dd0314c0f7b2291e5b200ac8c7c3b9258460405161080e91815260200190565b60405180910390a350505050565b6001600160a01b03831661084757806002600082825461083c9190610afb565b909155506108b99050565b6001600160a01b0383166000908152602081905260409020548181101561089a5760405163391434e360e21b81526001600160a01b03851660048201526024810182905260448101839052606401610410565b6001600160a01b03841660009081526020819052604090209082900390555b6001600160a01b0382166108d5576002805482900390556108f4565b6001600160a01b03821660009081526020819052604090208054820190555b816001600160a01b0316836001600160a01b03167fddf252ad1be2c89b69c2b068fc378daa952ba7f163c4a11628f55a4df523b3ef8360405161093991815260200190565b60405180910390a3505050565b602081526000825180602084015260005b818110156109745760208186018101516040868401015201610957565b506000604082850101526040601f19601f83011684010191505092915050565b80356001600160a01b03811681146109ab57600080fd5b919050565b600080604083850312156109c357600080fd5b6109cc83610994565b946020939093013593505050565b6000806000606084860312156109ef57600080fd5b6109f884610994565b9250610a0660208501610994565b929592945050506040919091013590565b600060208284031215610a2957600080fd5b610a3282610994565b9392505050565b803580151581146109ab57600080fd5b60008060408385031215610a5c57600080fd5b610a6583610994565b9150610a7360208401610a39565b90509250929050565b600060208284031215610a8e57600080fd5b610a3282610a39565b60008060408385031215610aaa57600080fd5b610ab383610994565b9150610a7360208401610994565b600181811c90821680610ad557607f821691505b602082108103610af557634e487b7160e01b600052602260045260246000fd5b50919050565b8082018082111561038e57634e487b7160e01b600052601160045260246000fdfea2646970667358221220c2aceb6ad2fbe21294dc2736e0ad4bf83b2b7d573efc7212f142debcffc8fc7664736f6c634300081c0033",
  "linkReferences": {},
  "deployedLinkReferences": {}
}