{
  "_format": "hh-sol-artifact-1",
  "contractName": "Lobbies",
  "sourceName": "contracts/Lobbies.sol",
  "abi": [
    {
      "inputs": [
        {
          "internalType": "address",
          "name": "_ships",
          "type": "address"
        }
      ],
      "stateMutability": "nonpayable",
      "type": "constructor"
    },
    {
      "inputs": [],
      "name": "CannotLeaveStartedGame",
      "type": "error"
    },
    {
      "inputs": [],
      "name": "CreatorTimeoutNotReached",
      "type": "error"
    },
    {
      "inputs": [],
      "name": "FleetAlreadyCreated",
      "type": "error"
    },
    {
      "inputs": [],
      "name": "InsufficientFee",
      "type": "error"
    },
    {
      "inputs": [],
      "name": "InvalidFleetCost",
      "type": "error"
    },
    {
      "inputs": [],
      "name": "InvalidShipCount",
      "type": "error"
    },
    {
      "inputs": [],
      "name": "InvalidTurnTime",
      "type": "error"
    },
    {
      "inputs": [],
      "name": "LobbyAlreadyStarted",
      "type": "error"
    },
    {
      "inputs": [],
      "name": "LobbyCreationPaused",
      "type": "error"
    },
    {
      "inputs": [],
      "name": "LobbyFull",
      "type": "error"
    },
    {
      "inputs": [],
      "name": "LobbyNotFound",
      "type": "error"
    },
    {
      "inputs": [],
      "name": "LobbyNotOpen",
      "type": "error"
    },
    {
      "inputs": [],
      "name": "NotInLobby",
      "type": "error"
    },
    {
      "inputs": [],
      "name": "NotLobbyCreator",
      "type": "error"
    },
    {
      "inputs": [],
      "name": "NotLobbyJoiner",
      "type": "error"
    },
    {
      "inputs": [
        {
          "internalType": "address",
          "name": "owner",
          "type": "address"
        }
      ],
      "name": "OwnableInvalidOwner",
      "type": "error"
    },
    {
      "inputs": [
        {
          "internalType": "address",
          "name": "account",
          "type": "address"
        }
      ],
      "name": "OwnableUnauthorizedAccount",
      "type": "error"
    },
    {
      "inputs": [],
      "name": "PlayerAlreadyInLobby",
      "type": "error"
    },
    {
      "inputs": [],
      "name": "PlayerInTimeout",
      "type": "error"
    },
    {
      "inputs": [],
      "name": "ReentrancyGuardReentrantCall",
      "type": "error"
    },
    {
      "inputs": [],
      "name": "ShipAlreadyInFleet",
      "type": "error"
    },
    {
      "inputs": [],
      "name": "ShipCostVersionMismatch",
      "type": "error"
    },
    {
      "inputs": [],
      "name": "ShipNotOwned",
      "type": "error"
    },
    {
      "inputs": [],
      "name": "TimeoutNotReached",
      "type": "error"
    },
    {
      "anonymous": false,
      "inputs": [
        {
          "indexed": true,
          "internalType": "address",
          "name": "player",
          "type": "address"
        },
        {
          "indexed": false,
          "internalType": "uint256",
          "name": "amount",
          "type": "uint256"
        }
      ],
      "name": "AdditionalLobbyFeePaid",
      "type": "event"
    },
    {
      "anonymous": false,
      "inputs": [
        {
          "indexed": true,
          "internalType": "uint256",
          "name": "lobbyId",
          "type": "uint256"
        }
      ],
      "name": "GameStarted",
      "type": "event"
    },
    {
      "anonymous": false,
      "inputs": [
        {
          "indexed": true,
          "internalType": "uint256",
          "name": "lobbyId",
          "type": "uint256"
        },
        {
          "indexed": true,
          "internalType": "address",
          "name": "player",
          "type": "address"
        }
      ],
      "name": "LobbyAbandoned",
      "type": "event"
    },
    {
      "anonymous": false,
      "inputs": [
        {
          "indexed": true,
          "internalType": "uint256",
          "name": "lobbyId",
          "type": "uint256"
        },
        {
          "indexed": true,
          "internalType": "address",
          "name": "creator",
          "type": "address"
        },
        {
          "indexed": false,
          "internalType": "uint256",
          "name": "costLimit",
          "type": "uint256"
        },
        {
          "indexed": false,
          "internalType": "uint256",
          "name": "turnTime",
          "type": "uint256"
        },
        {
          "indexed": false,
          "internalType": "bool",
          "name": "creatorGoesFirst",
          "type": "bool"
        },
        {
          "indexed": false,
          "internalType": "uint256",
          "name": "selectedMapId",
          "type": "uint256"
        },
        {
          "indexed": false,
          "internalType": "uint256",
          "name": "maxScore",
          "type": "uint256"
        }
      ],
      "name": "LobbyCreated",
      "type": "event"
    },
    {
      "anonymous": false,
      "inputs": [
        {
          "indexed": true,
          "internalType": "uint256",
          "name": "lobbyId",
          "type": "uint256"
        },
        {
          "indexed": true,
          "internalType": "address",
          "name": "newCreator",
          "type": "address"
        }
      ],
      "name": "LobbyReset",
      "type": "event"
    },
    {
      "anonymous": false,
      "inputs": [
        {
          "indexed": true,
          "internalType": "uint256",
          "name": "lobbyId",
          "type": "uint256"
        }
      ],
      "name": "LobbyTerminated",
      "type": "event"
    },
    {
      "anonymous": false,
      "inputs": [
        {
          "indexed": true,
          "internalType": "address",
          "name": "previousOwner",
          "type": "address"
        },
        {
          "indexed": true,
          "internalType": "address",
          "name": "newOwner",
          "type": "address"
        }
      ],
      "name": "OwnershipTransferred",
      "type": "event"
    },
    {
      "anonymous": false,
      "inputs": [
        {
          "indexed": true,
          "internalType": "uint256",
          "name": "lobbyId",
          "type": "uint256"
        },
        {
          "indexed": true,
          "internalType": "address",
          "name": "joiner",
          "type": "address"
        }
      ],
      "name": "PlayerJoinedLobby",
      "type": "event"
    },
    {
      "inputs": [],
      "name": "KICK_PENALTY_PER_HOUR",
      "outputs": [
        {
          "internalType": "uint256",
          "name": "",
          "type": "uint256"
        }
      ],
      "stateMutability": "view",
      "type": "function"
    },
    {
      "inputs": [],
      "name": "MAX_TURN_TIME",
      "outputs": [
        {
          "internalType": "uint256",
          "name": "",
          "type": "uint256"
        }
      ],
      "stateMutability": "view",
      "type": "function"
    },
    {
      "inputs": [],
      "name": "MIN_TIMEOUT",
      "outputs": [
        {
          "internalType": "uint256",
          "name": "",
          "type": "uint256"
        }
      ],
      "stateMutability": "view",
      "type": "function"
    },
    {
      "inputs": [],
      "name": "MIN_TURN_TIME",
      "outputs": [
        {
          "internalType": "uint256",
          "name": "",
          "type": "uint256"
        }
      ],
      "stateMutability": "view",
      "type": "function"
    },
    {
      "inputs": [],
      "name": "additionalLobbyFee",
      "outputs": [
        {
          "internalType": "uint256",
          "name": "",
          "type": "uint256"
        }
      ],
      "stateMutability": "view",
      "type": "function"
    },
    {
      "inputs": [
        {
          "internalType": "uint256",
          "name": "_lobbyId",
          "type": "uint256"
        },
        {
          "internalType": "uint256[]",
          "name": "_shipIds",
          "type": "uint256[]"
        }
      ],
      "name": "createFleet",
      "outputs": [],
      "stateMutability": "nonpayable",
      "type": "function"
    },
    {
      "inputs": [
        {
          "internalType": "uint256",
          "name": "_costLimit",
          "type": "uint256"
        },
        {
          "internalType": "uint256",
          "name": "_turnTime",
          "type": "uint256"
        },
        {
          "internalType": "bool",
          "name": "_creatorGoesFirst",
          "type": "bool"
        },
        {
          "internalType": "uint256",
          "name": "_selectedMapId",
          "type": "uint256"
        },
        {
          "internalType": "uint256",
          "name": "_maxScore",
          "type": "uint256"
        }
      ],
      "name": "createLobby",
      "outputs": [],
      "stateMutability": "payable",
      "type": "function"
    },
    {
      "inputs": [],
      "name": "fleets",
      "outputs": [
        {
          "internalType": "contract IFleets",
          "name": "",
          "type": "address"
        }
      ],
      "stateMutability": "view",
      "type": "function"
    },
    {
      "inputs": [],
      "name": "freeGamesPerAddress",
      "outputs": [
        {
          "internalType": "uint256",
          "name": "",
          "type": "uint256"
        }
      ],
      "stateMutability": "view",
      "type": "function"
    },
    {
      "inputs": [],
      "name": "game",
      "outputs": [
        {
          "internalType": "contract Game",
          "name": "",
          "type": "address"
        }
      ],
      "stateMutability": "view",
      "type": "function"
    },
    {
      "inputs": [
        {
          "internalType": "uint256[]",
          "name": "_lobbyIds",
          "type": "uint256[]"
        }
      ],
      "name": "getLobbiesFromIds",
      "outputs": [
        {
          "components": [
            {
              "components": [
                {
                  "internalType": "uint256",
                  "name": "id",
                  "type": "uint256"
                },
                {
                  "internalType": "address",
                  "name": "creator",
                  "type": "address"
                },
                {
                  "internalType": "uint256",
                  "name": "costLimit",
                  "type": "uint256"
                },
                {
                  "internalType": "uint256",
                  "name": "createdAt",
                  "type": "uint256"
                }
              ],
              "internalType": "struct LobbyBasic",
              "name": "basic",
              "type": "tuple"
            },
            {
              "components": [
                {
                  "internalType": "address",
                  "name": "joiner",
                  "type": "address"
                },
                {
                  "internalType": "uint256",
                  "name": "creatorFleetId",
                  "type": "uint256"
                },
                {
                  "internalType": "uint256",
                  "name": "joinerFleetId",
                  "type": "uint256"
                },
                {
                  "internalType": "uint256",
                  "name": "joinedAt",
                  "type": "uint256"
                },
                {
                  "internalType": "uint256",
                  "name": "joinerFleetSetAt",
                  "type": "uint256"
                }
              ],
              "internalType": "struct LobbyPlayers",
              "name": "players",
              "type": "tuple"
            },
            {
              "components": [
                {
                  "internalType": "bool",
                  "name": "creatorGoesFirst",
                  "type": "bool"
                },
                {
                  "internalType": "uint256",
                  "name": "turnTime",
                  "type": "uint256"
                },
                {
                  "internalType": "uint256",
                  "name": "selectedMapId",
                  "type": "uint256"
                },
                {
                  "internalType": "uint256",
                  "name": "maxScore",
                  "type": "uint256"
                }
              ],
              "internalType": "struct LobbyGameConfig",
              "name": "gameConfig",
              "type": "tuple"
            },
            {
              "components": [
                {
                  "internalType": "enum LobbyStatus",
                  "name": "status",
                  "type": "uint8"
                },
                {
                  "internalType": "uint256",
                  "name": "gameStartedAt",
                  "type": "uint256"
                }
              ],
              "internalType": "struct LobbyState",
              "name": "state",
              "type": "tuple"
            }
          ],
          "internalType": "struct Lobby[]",
          "name": "",
          "type": "tuple[]"
        }
      ],
      "stateMutability": "view",
      "type": "function"
    },
    {
      "inputs": [
        {
          "internalType": "uint256",
          "name": "_lobbyId",
          "type": "uint256"
        }
      ],
      "name": "getLobby",
      "outputs": [
        {
          "components": [
            {
              "components": [
                {
                  "internalType": "uint256",
                  "name": "id",
                  "type": "uint256"
                },
                {
                  "internalType": "address",
                  "name": "creator",
                  "type": "address"
                },
                {
                  "internalType": "uint256",
                  "name": "costLimit",
                  "type": "uint256"
                },
                {
                  "internalType": "uint256",
                  "name": "createdAt",
                  "type": "uint256"
                }
              ],
              "internalType": "struct LobbyBasic",
              "name": "basic",
              "type": "tuple"
            },
            {
              "components": [
                {
                  "internalType": "address",
                  "name": "joiner",
                  "type": "address"
                },
                {
                  "internalType": "uint256",
                  "name": "creatorFleetId",
                  "type": "uint256"
                },
                {
                  "internalType": "uint256",
                  "name": "joinerFleetId",
                  "type": "uint256"
                },
                {
                  "internalType": "uint256",
                  "name": "joinedAt",
                  "type": "uint256"
                },
                {
                  "internalType": "uint256",
                  "name": "joinerFleetSetAt",
                  "type": "uint256"
                }
              ],
              "internalType": "struct LobbyPlayers",
              "name": "players",
              "type": "tuple"
            },
            {
              "components": [
                {
                  "internalType": "bool",
                  "name": "creatorGoesFirst",
                  "type": "bool"
                },
                {
                  "internalType": "uint256",
                  "name": "turnTime",
                  "type": "uint256"
                },
                {
                  "internalType": "uint256",
                  "name": "selectedMapId",
                  "type": "uint256"
                },
                {
                  "internalType": "uint256",
                  "name": "maxScore",
                  "type": "uint256"
                }
              ],
              "internalType": "struct LobbyGameConfig",
              "name": "gameConfig",
              "type": "tuple"
            },
            {
              "components": [
                {
                  "internalType": "enum LobbyStatus",
                  "name": "status",
                  "type": "uint8"
                },
                {
                  "internalType": "uint256",
                  "name": "gameStartedAt",
                  "type": "uint256"
                }
              ],
              "internalType": "struct LobbyState",
              "name": "state",
              "type": "tuple"
            }
          ],
          "internalType": "struct Lobby",
          "name": "",
          "type": "tuple"
        }
      ],
      "stateMutability": "view",
      "type": "function"
    },
    {
      "inputs": [],
      "name": "getOpenLobbies",
      "outputs": [
        {
          "internalType": "uint256[]",
          "name": "",
          "type": "uint256[]"
        }
      ],
      "stateMutability": "view",
      "type": "function"
    },
    {
      "inputs": [],
      "name": "getOpenLobbyCount",
      "outputs": [
        {
          "internalType": "uint256",
          "name": "",
          "type": "uint256"
        }
      ],
      "stateMutability": "view",
      "type": "function"
    },
    {
      "inputs": [
        {
          "internalType": "address",
          "name": "_player",
          "type": "address"
        }
      ],
      "name": "getPlayerLobbies",
      "outputs": [
        {
          "internalType": "uint256[]",
          "name": "",
          "type": "uint256[]"
        }
      ],
      "stateMutability": "view",
      "type": "function"
    },
    {
      "inputs": [
        {
          "internalType": "address",
          "name": "_player",
          "type": "address"
        }
      ],
      "name": "getPlayerLobbyCount",
      "outputs": [
        {
          "internalType": "uint256",
          "name": "",
          "type": "uint256"
        }
      ],
      "stateMutability": "view",
      "type": "function"
    },
    {
      "inputs": [
        {
          "internalType": "address",
          "name": "_player",
          "type": "address"
        }
      ],
      "name": "getPlayerState",
      "outputs": [
        {
          "components": [
            {
              "internalType": "uint256",
              "name": "activeLobbyId",
              "type": "uint256"
            },
            {
              "internalType": "uint256",
              "name": "activeLobbiesCount",
              "type": "uint256"
            },
            {
              "internalType": "bool",
              "name": "hasActiveLobby",
              "type": "bool"
            },
            {
              "internalType": "uint256",
              "name": "kickCount",
              "type": "uint256"
            },
            {
              "internalType": "uint256",
              "name": "lastKickTime",
              "type": "uint256"
            }
          ],
          "internalType": "struct PlayerLobbyState",
          "name": "",
          "type": "tuple"
        }
      ],
      "stateMutability": "view",
      "type": "function"
    },
    {
      "inputs": [
        {
          "internalType": "address",
          "name": "_player",
          "type": "address"
        }
      ],
      "name": "getPlayerTimeoutEnd",
      "outputs": [
        {
          "internalType": "uint256",
          "name": "",
          "type": "uint256"
        }
      ],
      "stateMutability": "view",
      "type": "function"
    },
    {
      "inputs": [
        {
          "internalType": "uint256",
          "name": "_lobbyId",
          "type": "uint256"
        }
      ],
      "name": "isLobbyOpen",
      "outputs": [
        {
          "internalType": "bool",
          "name": "",
          "type": "bool"
        }
      ],
      "stateMutability": "view",
      "type": "function"
    },
    {
      "inputs": [
        {
          "internalType": "uint256",
          "name": "_id",
          "type": "uint256"
        }
      ],
      "name": "isLobbyOpenForJoining",
      "outputs": [
        {
          "internalType": "bool",
          "name": "",
          "type": "bool"
        }
      ],
      "stateMutability": "view",
      "type": "function"
    },
    {
      "inputs": [
        {
          "internalType": "address",
          "name": "_player",
          "type": "address"
        },
        {
          "internalType": "uint256",
          "name": "_lobbyId",
          "type": "uint256"
        }
      ],
      "name": "isPlayerInLobby",
      "outputs": [
        {
          "internalType": "bool",
          "name": "",
          "type": "bool"
        }
      ],
      "stateMutability": "view",
      "type": "function"
    },
    {
      "inputs": [
        {
          "internalType": "uint256",
          "name": "_lobbyId",
          "type": "uint256"
        }
      ],
      "name": "joinLobby",
      "outputs": [],
      "stateMutability": "nonpayable",
      "type": "function"
    },
    {
      "inputs": [
        {
          "internalType": "uint256",
          "name": "_lobbyId",
          "type": "uint256"
        }
      ],
      "name": "leaveLobby",
      "outputs": [],
      "stateMutability": "nonpayable",
      "type": "function"
    },
    {
      "inputs": [
        {
          "internalType": "uint256",
          "name": "",
          "type": "uint256"
        }
      ],
      "name": "lobbies",
      "outputs": [
        {
          "components": [
            {
              "internalType": "uint256",
              "name": "id",
              "type": "uint256"
            },
            {
              "internalType": "address",
              "name": "creator",
              "type": "address"
            },
            {
              "internalType": "uint256",
              "name": "costLimit",
              "type": "uint256"
            },
            {
              "internalType": "uint256",
              "name": "createdAt",
              "type": "uint256"
            }
          ],
          "internalType": "struct LobbyBasic",
          "name": "basic",
          "type": "tuple"
        },
        {
          "components": [
            {
              "internalType": "address",
              "name": "joiner",
              "type": "address"
            },
            {
              "internalType": "uint256",
              "name": "creatorFleetId",
              "type": "uint256"
            },
            {
              "internalType": "uint256",
              "name": "joinerFleetId",
              "type": "uint256"
            },
            {
              "internalType": "uint256",
              "name": "joinedAt",
              "type": "uint256"
            },
            {
              "internalType": "uint256",
              "name": "joinerFleetSetAt",
              "type": "uint256"
            }
          ],
          "internalType": "struct LobbyPlayers",
          "name": "players",
          "type": "tuple"
        },
        {
          "components": [
            {
              "internalType": "bool",
              "name": "creatorGoesFirst",
              "type": "bool"
            },
            {
              "internalType": "uint256",
              "name": "turnTime",
              "type": "uint256"
            },
            {
              "internalType": "uint256",
              "name": "selectedMapId",
              "type": "uint256"
            },
            {
              "internalType": "uint256",
              "name": "maxScore",
              "type": "uint256"
            }
          ],
          "internalType": "struct LobbyGameConfig",
          "name": "gameConfig",
          "type": "tuple"
        },
        {
          "components": [
            {
              "internalType": "enum LobbyStatus",
              "name": "status",
              "type": "uint8"
            },
            {
              "internalType": "uint256",
              "name": "gameStartedAt",
              "type": "uint256"
            }
          ],
          "internalType": "struct LobbyState",
          "name": "state",
          "type": "tuple"
        }
      ],
      "stateMutability": "view",
      "type": "function"
    },
    {
      "inputs": [],
      "name": "lobbyCount",
      "outputs": [
        {
          "internalType": "uint256",
          "name": "",
          "type": "uint256"
        }
      ],
      "stateMutability": "view",
      "type": "function"
    },
    {
      "inputs": [],
      "name": "owner",
      "outputs": [
        {
          "internalType": "address",
          "name": "",
          "type": "address"
        }
      ],
      "stateMutability": "view",
      "type": "function"
    },
    {
      "inputs": [],
      "name": "paused",
      "outputs": [
        {
          "internalType": "bool",
          "name": "",
          "type": "bool"
        }
      ],
      "stateMutability": "view",
      "type": "function"
    },
    {
      "inputs": [
        {
          "internalType": "address",
          "name": "",
          "type": "address"
        }
      ],
      "name": "playerStates",
      "outputs": [
        {
          "internalType": "uint256",
          "name": "activeLobbyId",
          "type": "uint256"
        },
        {
          "internalType": "uint256",
          "name": "activeLobbiesCount",
          "type": "uint256"
        },
        {
          "internalType": "bool",
          "name": "hasActiveLobby",
          "type": "bool"
        },
        {
          "internalType": "uint256",
          "name": "kickCount",
          "type": "uint256"
        },
        {
          "internalType": "uint256",
          "name": "lastKickTime",
          "type": "uint256"
        }
      ],
      "stateMutability": "view",
      "type": "function"
    },
    {
      "inputs": [
        {
          "internalType": "uint256",
          "name": "_lobbyId",
          "type": "uint256"
        }
      ],
      "name": "quitWithPenalty",
      "outputs": [],
      "stateMutability": "nonpayable",
      "type": "function"
    },
    {
      "inputs": [],
      "name": "renounceOwnership",
      "outputs": [],
      "stateMutability": "nonpayable",
      "type": "function"
    },
    {
      "inputs": [
        {
          "internalType": "uint256",
          "name": "_fee",
          "type": "uint256"
        }
      ],
      "name": "setAdditionalLobbyFee",
      "outputs": [],
      "stateMutability": "nonpayable",
      "type": "function"
    },
    {
      "inputs": [
        {
          "internalType": "address",
          "name": "_fleetsAddress",
          "type": "address"
        }
      ],
      "name": "setFleetsAddress",
      "outputs": [],
      "stateMutability": "nonpayable",
      "type": "function"
    },
    {
      "inputs": [
        {
          "internalType": "uint256",
          "name": "_count",
          "type": "uint256"
        }
      ],
      "name": "setFreeGamesPerAddress",
      "outputs": [],
      "stateMutability": "nonpayable",
      "type": "function"
    },
    {
      "inputs": [
        {
          "internalType": "address",
          "name": "_gameAddress",
          "type": "address"
        }
      ],
      "name": "setGameAddress",
      "outputs": [],
      "stateMutability": "nonpayable",
      "type": "function"
    },
    {
      "inputs": [
        {
          "internalType": "bool",
          "name": "_paused",
          "type": "bool"
        }
      ],
      "name": "setPaused",
      "outputs": [],
      "stateMutability": "nonpayable",
      "type": "function"
    },
    {
      "inputs": [],
      "name": "ships",
      "outputs": [
        {
          "internalType": "contract Ships",
          "name": "",
          "type": "address"
        }
      ],
      "stateMutability": "view",
      "type": "function"
    },
    {
      "inputs": [
        {
          "internalType": "uint256",
          "name": "_lobbyId",
          "type": "uint256"
        }
      ],
      "name": "timeoutJoiner",
      "outputs": [],
      "stateMutability": "nonpayable",
      "type": "function"
    },
    {
      "inputs": [
        {
          "internalType": "address",
          "name": "newOwner",
          "type": "address"
        }
      ],
      "name": "transferOwnership",
      "outputs": [],
      "stateMutability": "nonpayable",
      "type": "function"
    },
    {
      "inputs": [],
      "name": "withdraw",
      "outputs": [],
      "stateMutability": "nonpayable",
      "type": "function"
    }
  ],
  "bytecode": "0x60806040526001600655670de0b6b3a764000060075534801561002157600080fd5b50604051612908380380612908833981016040819052610040916100e9565b338061006657604051631e4fbdf760e01b81526000600482015260240160405180910390fd5b61006f81610099565b5060018055600280546001600160a01b0319166001600160a01b0392909216919091179055610119565b600080546001600160a01b038381166001600160a01b0319831681178455604051919092169283917f8be0079c531659141344cd1fd0a4f28419497f9722a3daafe3b4186f6b6457e09190a35050565b6000602082840312156100fb57600080fd5b81516001600160a01b038116811461011257600080fd5b9392505050565b6127e0806101286000396000f3fe6080604052600436106102305760003560e01c80639263af221161012e578063ca1df170116100ab578063eff3d3061161006f578063eff3d3061461070f578063f25205f314610725578063f2fde38b14610745578063faa5bf8914610765578063ff4655231461077a57600080fd5b8063ca1df1701461061c578063cd33541414610632578063d15e55b714610652578063dc273b3f146106cf578063e9173b3a146106ef57600080fd5b8063b83e5c7e116100f2578063b83e5c7e14610541578063bbf8218a14610561578063c01ca43f14610581578063c3fe3e28146105e5578063c623130b1461060557600080fd5b80639263af22146104b6578063948428f0146104d65780639ed4ce14146104f6578063a875cae51461050b578063b6d810881461052157600080fd5b80634e12b6f9116101bc5780636e8fb4c6116101805780636e8fb4c614610413578063711953ef14610443578063715018a61461046357806374262da2146104785780638da5cb5b1461049857600080fd5b80634e12b6f914610380578063543ad1df146103a05780635c975abb146103b6578063618e6fa7146103e0578063669bcb0e146103f357600080fd5b80632eaeb161116102035780632eaeb161146102d057806330fff6b0146102e65780633ccfd60b14610306578063452c09f41461031b57806348915d911461034857600080fd5b806308a314dc1461023557806316c38b3c1461026b5780631fba1bdf1461028d5780632aa9c679146102bb575b600080fd5b34801561024157600080fd5b506102556102503660046122be565b6107a7565b60405161026291906123fb565b60405180910390f35b34801561027757600080fd5b5061028b61028636600461245f565b61097e565b005b34801561029957600080fd5b506102ad6102a8366004612491565b610999565b604051908152602001610262565b3480156102c757600080fd5b506102ad603c81565b3480156102dc57600080fd5b506102ad610e1081565b3480156102f257600080fd5b5061028b6103013660046124ac565b6109ed565b34801561031257600080fd5b5061028b610c77565b34801561032757600080fd5b5061033b610336366004612491565b610d1b565b60405161026291906124c5565b34801561035457600080fd5b50600454610368906001600160a01b031681565b6040516001600160a01b039091168152602001610262565b34801561038c57600080fd5b5061028b61039b3660046124ac565b610d3f565b3480156103ac57600080fd5b506102ad61012c81565b3480156103c257600080fd5b506008546103d09060ff1681565b6040519015158152602001610262565b61028b6103ee3660046124fd565b610d4c565b3480156103ff57600080fd5b5061028b61040e3660046124ac565b610f5d565b34801561041f57600080fd5b5061043361042e3660046124ac565b610f6a565b6040516102629493929190612544565b34801561044f57600080fd5b5061028b61045e366004612491565b611072565b34801561046f57600080fd5b5061028b61109c565b34801561048457600080fd5b5061028b6104933660046124ac565b6110b0565b3480156104a457600080fd5b506000546001600160a01b0316610368565b3480156104c257600080fd5b5061028b6104d13660046125f1565b6112ae565b3480156104e257600080fd5b5061028b6104f13660046124ac565b611707565b34801561050257600080fd5b506102ad61199b565b34801561051757600080fd5b506102ad60075481565b34801561052d57600080fd5b506103d061053c3660046124ac565b6119ac565b34801561054d57600080fd5b5061028b61055c366004612491565b6119b9565b34801561056d57600080fd5b50600254610368906001600160a01b031681565b34801561058d57600080fd5b506105a161059c366004612491565b6119e3565b6040516102629190600060a0820190508251825260208301516020830152604083015115156040830152606083015160608301526080830151608083015292915050565b3480156105f157600080fd5b50600354610368906001600160a01b031681565b34801561061157600080fd5b506102ad6201518081565b34801561062857600080fd5b506102ad60065481565b34801561063e57600080fd5b506102ad61064d366004612491565b611a74565b34801561065e57600080fd5b506106a061066d366004612491565b600a60205260009081526040902080546001820154600283015460038401546004909401549293919260ff909116919085565b604051610262959493929190948552602085019390935290151560408401526060830152608082015260a00190565b3480156106db57600080fd5b506103d06106ea36600461263d565b611a95565b3480156106fb57600080fd5b5061028b61070a3660046124ac565b611ab7565b34801561071b57600080fd5b506102ad60055481565b34801561073157600080fd5b506103d06107403660046124ac565b611ca8565b34801561075157600080fd5b5061028b610760366004612491565b611cec565b34801561077157600080fd5b5061033b611d27565b34801561078657600080fd5b5061079a6107953660046124ac565b611d33565b6040516102629190612667565b606060008267ffffffffffffffff8111156107c4576107c4612676565b6040519080825280602002602001820160405280156107fd57816020015b6107ea6121af565b8152602001906001900390816107e25790505b50905060005b8381101561097457600960008686848181106108215761082161268c565b602090810292909201358352508181019290925260409081016000208151610100810183528154608080830191825260018401546001600160a01b0390811660a08086019190915260028087015460c0870152600387015460e0870152938552865190810187526004860154909116815260058501548188015260068501548187015260078501546060808301919091526008860154828401528488019190915285519182018652600985015460ff90811615158352600a86015497830197909752600b85015482870152600c85015482820152838601919091528451808601909552600d840180549396949591870194919390928492919091169081111561092c5761092c612300565b600281111561093d5761093d612300565b8152602001600182015481525050815250508282815181106109615761096161268c565b6020908102919091010152600101610803565b5090505b92915050565b610986611e5c565b6008805460ff1916911515919091179055565b6001600160a01b0381166000908152600a60205260408120600381015482036109c55750600092915050565b610e1081600301546109d791906126b8565b81600401546109e691906126cf565b9392505050565b6109f5611e89565b60008181526009602052604081208054909103610a25576040516374315adb60e01b815260040160405180910390fd5b60048101546001600160a01b03163314610a5257604051639d2663a360e01b815260040160405180910390fd5b6001600d82015460ff166002811115610a6d57610a6d612300565b14610a8b576040516374f165fb60e11b815260040160405180910390fd5b6006810154600003610ab0576040516353507d5160e11b815260040160405180910390fd5b600581015415610ad3576040516304d3525b60e51b815260040160405180910390fd5b600a8101546008820154610ae791906126cf565b421015610b07576040516322fce56360e11b815260040160405180910390fd5b600480546006830154604051630f2bf13b60e41b8152928301526001600160a01b03169063f2bf13b090602401600060405180830381600087803b158015610b4e57600080fd5b505af1158015610b62573d6000803e3d6000fd5b5050505060018101546001600160a01b03166000908152600a602052604081206003810180549192610b93836126e2565b9091555050426004808301919091556002808301805460ff199081169091556000808555928501546001600160a01b039081168452600a60205260408420928301805490921690915591815560018401549091610bf1911685611eb3565b6004830154610c09906001600160a01b031685611eb3565b610c1284611ed5565b6004830180546001600160a01b0319169055600d8301805460ff191690556000600584018190556006840181905560405185917fcb7662b1678001afa152fed432f46cdaa4318053fa7acba681da4b416a59123c91a2505050610c7460018055565b50565b610c7f611e5c565b600080546040516001600160a01b039091169047908381818185875af1925050503d8060008114610ccc576040519150601f19603f3d011682016040523d82523d6000602084013e610cd1565b606091505b5050905080610c745760405162461bcd60e51b815260206004820152601160248201527015da5d1a191c985dd85b0819985a5b1959607a1b60448201526064015b60405180910390fd5b6001600160a01b0381166000908152600b6020526040902060609061097890611ee4565b610d47611e5c565b600755565b610d54611e89565b60085460ff1615610d7857604051635083854f60e11b815260040160405180910390fd5b61012c841080610d8a57506201518084115b15610da85760405163079900bb60e31b815260040160405180910390fd5b336000908152600a60205260409020600381015415610e09576000610e108260030154610dd591906126b8565b8260040154610de491906126cf565b905080421015610e075760405163c56b424b60e01b815260040160405180910390fd5b505b600654816001015410610e3857600754341015610e385760405162976f7560e21b815260040160405180910390fd5b60058054906000610e48836126e2565b90915550506005805460008181526009602081905260408220928355600180840180546001600160a01b0319163317905560028085018c9055600d8501805460ff1990811690915542600387015592850180548b1515908516179055600a85018b9055600b8501899055600c85018890558601805490921681179091559254845591830180549192610ed9836126e2565b9190505550610eea33600554611ef1565b610ef5600554611ed5565b600554604080518981526020810189905287151581830152606081018790526080810186905290513392917fc0594b072d40bf82c20f44fa41a55144b097ebd9b07f9a37ba466d40e1f43aab919081900360a00190a35050610f5660018055565b5050505050565b610f65611e5c565b600655565b6009602081815260009283526040928390208351608080820186528254825260018301546001600160a01b0390811683860152600280850154848901526003850154606080860191909152885160a081018a52600487015490931683526005860154838801526006860154838a0152600786015483820152600886015483850152885193840189529685015460ff90811615158452600a86015496840196909652600b85015483890152600c850154968301969096528651808801909752600d84018054939791969295919390928492919091169081111561104e5761104e612300565b600281111561105f5761105f612300565b8152602001600182015481525050905084565b61107a611e5c565b600380546001600160a01b0319166001600160a01b0392909216919091179055565b6110a4611e5c565b6110ae6000611f13565b565b6110b8611e89565b600081815260096020526040812080549091036110e8576040516374315adb60e01b815260040160405180910390fd5b60018101546001600160a01b03163314611115576040516386e3479160e01b815260040160405180910390fd5b6001600d82015460ff16600281111561113057611130612300565b1461114e576040516374f165fb60e11b815260040160405180910390fd5b60048101546001600160a01b0316611179576040516374315adb60e01b815260040160405180910390fd5b60068101541561119c576040516304d3525b60e51b815260040160405180910390fd5b600a81015460078201546111b091906126cf565b4210156111d0576040516326c015ab60e21b815260040160405180910390fd5b60048101546001600160a01b03166000908152600a6020526040812060038101805491926111fd836126e2565b90915550504260048083019190915560028201805460ff1916905560008255820154611232906001600160a01b031684611eb3565b61123b83611ed5565b6004820180546001600160a01b0319169055600d8201805460ff191690556000600583018190556006830181905560018301546040516001600160a01b039091169185917fee8b079adb6e971a80670fe597ec6fd06cb3699ea8771fe1b5554c79a7c0b8fd9190a35050610c7460018055565b6112b6611e89565b600083815260096020526040812080549091036112e6576040516374315adb60e01b815260040160405180910390fd5b6001600d82015460ff16600281111561130157611301612300565b1461131f576040516374f165fb60e11b815260040160405180910390fd5b60018101546001600160a01b03163314801590611349575060048101546001600160a01b03163314155b15611367576040516353507d5160e11b815260040160405180910390fd5b60018101546001600160a01b0316331480156113865750600581015415155b156113a4576040516304d3525b60e51b815260040160405180910390fd5b60048101546001600160a01b0316331480156113c35750600681015415155b156113e1576040516304d3525b60e51b815260040160405180910390fd5b600480546002830154604051631cd86ad960e11b81526000936001600160a01b03909316926339b0d5b29261141e928a9233928b928b92016126fb565b6020604051808303816000875af115801561143d573d6000803e3d6000fd5b505050506040513d601f19601f820116820180604052508101906114619190612751565b60018301549091506001600160a01b031633036114a05760058201819055600682015460000361149b5760098201805460ff191660011790555b6114c7565b6006820181905560058201546000036114c05760098201805460ff191690555b4260088301555b6005820154158015906114dd5750600682015415155b156116f757600d8201805460ff1916600217905542600e83015560405185907f50ad08f58a27f2851d7e3a1b3a6a46b290f2ce677e99642d30ff639721e7779090600090a26001808301546001600160a01b039081166000908152600a602052604080822060048701549093168252902091810154909190156115725760018201805490600061156c8361276a565b91905055505b6001810154156115945760018101805490600061158e8361276a565b91905055505b6002808301805460ff1990811690915560008085559183018054909116905581556115be87611f63565b600360009054906101000a90046001600160a01b03166001600160a01b031663e8d64aee888660000160010160009054906101000a90046001600160a01b03168760040160000160009054906101000a90046001600160a01b0316886004016001015489600401600201548a60090160000160009054906101000a900460ff168b600901600101548c600901600201548d600901600301546040518a63ffffffff1660e01b81526004016116c2999897969594939291909889526001600160a01b0397881660208a015295909616604088015260608701939093526080860191909152151560a085015260c084015260e08301919091526101008201526101200190565b600060405180830381600087803b1580156116dc57600080fd5b505af11580156116f0573d6000803e3d6000fd5b5050505050505b505061170260018055565b505050565b61170f611e89565b6000818152600960205260408120805490910361173f576040516374315adb60e01b815260040160405180910390fd5b60018101546001600160a01b03163314801590611769575060048101546001600160a01b03163314155b15611787576040516353507d5160e11b815260040160405180910390fd5b6002600d82015460ff1660028111156117a2576117a2612300565b036117c05760405163604163d360e11b815260040160405180910390fd5b336000908152600a60205260409020805483146117f0576040516353507d5160e11b815260040160405180910390fd5b60018201546001600160a01b031633036118ff5760048201546001600160a01b0316156118c457600482018054600180850180546001600160a01b0384166001600160a01b03199182168117909255909216909255600d8401805460ff199081169091556000828152600a6020526040902060028101805490921690931790558482559061187e3386611eb3565b61188785611ed5565b6040516001600160a01b0383169086907fee8b079adb6e971a80670fe597ec6fd06cb3699ea8771fe1b5554c79a7c0b8fd90600090a3505061195e565b6118cd83611f63565b604051339084907f9b5e662ea3d6238d43ff6f148df4451e32553992239658d2fbca40e78f0cb5d790600090a361195e565b6004820180546001600160a01b0319169055600d8201805460ff191690556119273384611eb3565b61193083611ed5565b604051339084907f9b5e662ea3d6238d43ff6f148df4451e32553992239658d2fbca40e78f0cb5d790600090a35b60028101805460ff19169055600081556001810154156119905760018101805490600061198a8361276a565b91905055505b5050610c7460018055565b60006119a7600c611fd0565b905090565b6000610978600c83611fda565b6119c1611e5c565b600480546001600160a01b0319166001600160a01b0392909216919091179055565b611a176040518060a00160405280600081526020016000815260200160001515815260200160008152602001600081525090565b506001600160a01b03166000908152600a6020908152604091829020825160a08101845281548152600182015492810192909252600281015460ff1615159282019290925260038201546060820152600490910154608082015290565b6001600160a01b0381166000908152600b6020526040812061097890611fd0565b6001600160a01b0382166000908152600b602052604081206109e69083611fda565b611abf611e89565b60008181526009602052604081208054909103611aef576040516374315adb60e01b815260040160405180910390fd5b6000600d82015460ff166002811115611b0a57611b0a612300565b14611b28576040516374f165fb60e11b815260040160405180910390fd5b6001810154336001600160a01b0390911603611b575760405163e24fd63160e01b815260040160405180910390fd5b60048101546001600160a01b031615611b835760405163be02dee760e01b815260040160405180910390fd5b336000908152600a60205260409020600281015460ff1615611bb85760405163e24fd63160e01b815260040160405180910390fd5b600381015415611c0a576000610e108260030154611bd691906126b8565b8260040154611be591906126cf565b905080421015611c085760405163c56b424b60e01b815260040160405180910390fd5b505b6004820180546001600160a01b03191633179055600d8201805460ff1990811660019081179092554260078501556002830180549091168217905583825581018054906000611c58836126e2565b9190505550611c673384611ef1565b611c7083611ff2565b604051339084907f9b8e9742090654a785c549aefcfcd7cc7f18215ee64c50e9d93f4b153a0e56e490600090a35050610c7460018055565b600081815260096020526040812081600d82015460ff166002811115611cd057611cd0612300565b1480156109e65750600401546001600160a01b03161592915050565b611cf4611e5c565b6001600160a01b038116611d1e57604051631e4fbdf760e01b815260006004820152602401610d12565b610c7481611f13565b60606119a7600c611ee4565b611d3b6121af565b6000828152600960208181526040928390208351610100810185528154608080830191825260018401546001600160a01b0390811660a08086019190915260028087015460c0870152600387015460e08701529385528851908101895260048601549091168152600585015481870152600685015481890152600785015460608083019190915260088601548284015284870191909152875191820188529584015460ff90811615158252600a85015495820195909552600b84015481880152600c84015481870152828701528551808701909652600d830180549296939587019490928492911690811115611e3357611e33612300565b6002811115611e4457611e44612300565b81526001919091015460209091015290525092915050565b6000546001600160a01b031633146110ae5760405163118cdaa760e01b8152336004820152602401610d12565b600260015403611eac57604051633ee5aeb560e01b815260040160405180910390fd5b6002600155565b6001600160a01b0382166000908152600b602052604090206117029082611ff9565b611ee0600c82612005565b5050565b606060006109e683612011565b6001600160a01b0382166000908152600b602052604090206117029082612005565b600080546001600160a01b038381166001600160a01b0319831681178455604051919092169283917f8be0079c531659141344cd1fd0a4f28419497f9722a3daafe3b4186f6b6457e09190a35050565b600081815260096020526040902060018101546001600160a01b031615611f9c576001810154611f9c906001600160a01b031683611eb3565b60048101546001600160a01b031615611fc7576004810154611fc7906001600160a01b031683611eb3565b611ee082611ff2565b6000610978825490565b600081815260018301602052604081205415156109e6565b611ee0600c825b60006109e6838361206d565b60006109e68383612160565b60608160000180548060200260200160405190810160405280929190818152602001828054801561206157602002820191906000526020600020905b81548152602001906001019080831161204d575b50505050509050919050565b60008181526001830160205260408120548015612156576000612091600183612781565b85549091506000906120a590600190612781565b905080821461210a5760008660000182815481106120c5576120c561268c565b90600052602060002001549050808760000184815481106120e8576120e861268c565b6000918252602080832090910192909255918252600188019052604090208390555b855486908061211b5761211b612794565b600190038181906000526020600020016000905590558560010160008681526020019081526020016000206000905560019350505050610978565b6000915050610978565b60008181526001830160205260408120546121a757508154600181810184556000848152602080822090930184905584548482528286019093526040902091909155610978565b506000610978565b60408051610100810190915260006080820181815260a0830182905260c0830182905260e08301919091528190815260200161221c6040518060a0016040528060006001600160a01b03168152602001600081526020016000815260200160008152602001600081525090565b815260200161224e60405180608001604052806000151581526020016000815260200160008152602001600081525090565b815260200161226d604080518082019091526000808252602082015290565b905290565b60008083601f84011261228457600080fd5b50813567ffffffffffffffff81111561229c57600080fd5b6020830191508360208260051b85010111156122b757600080fd5b9250929050565b600080602083850312156122d157600080fd5b823567ffffffffffffffff8111156122e857600080fd5b6122f485828601612272565b90969095509350505050565b634e487b7160e01b600052602160045260246000fd5b80516003811061233657634e487b7160e01b600052602160045260246000fd5b8252602090810151910152565b612375828251805182526020808201516001600160a01b03169083015260408082015190830152606090810151910152565b60208101516123b8608084018280516001600160a01b03168252602080820151908301526040808201519083015260608082015190830152608090810151910152565b50604081810151805115156101208501526020810151610140850152908101516101608401526060908101516101808401528101516117026101a0840182612316565b602080825282518282018190526000918401906040840190835b8181101561243f57612428838551612343565b602093909301926101e09290920191600101612415565b509095945050505050565b8035801515811461245a57600080fd5b919050565b60006020828403121561247157600080fd5b6109e68261244a565b80356001600160a01b038116811461245a57600080fd5b6000602082840312156124a357600080fd5b6109e68261247a565b6000602082840312156124be57600080fd5b5035919050565b602080825282518282018190526000918401906040840190835b8181101561243f5783518352602093840193909201916001016124df565b600080600080600060a0868803121561251557600080fd5b853594506020860135935061252c6040870161244a565b94979396509394606081013594506080013592915050565b845181526020808601516001600160a01b03169082015260408086015190820152606080860151908201526101e0810184516001600160a01b0316608083810191909152602086015160a0840152604086015160c0840152606086015160e0840152850151610100830152835115156101208301526020840151610140830152604084015161016083015260608401516101808301526125e86101a0830184612316565b95945050505050565b60008060006040848603121561260657600080fd5b83359250602084013567ffffffffffffffff81111561262457600080fd5b61263086828701612272565b9497909650939450505050565b6000806040838503121561265057600080fd5b6126598361247a565b946020939093013593505050565b6101e081016109788284612343565b634e487b7160e01b600052604160045260246000fd5b634e487b7160e01b600052603260045260246000fd5b634e487b7160e01b600052601160045260246000fd5b8082028115828204841417610978576109786126a2565b80820180821115610978576109786126a2565b6000600182016126f4576126f46126a2565b5060010190565b8581526001600160a01b0385166020820152608060408201819052810183905260006001600160fb1b0384111561273157600080fd5b8360051b808660a08501376060830193909352500160a001949350505050565b60006020828403121561276357600080fd5b5051919050565b600081612779576127796126a2565b506000190190565b81810381811115610978576109786126a2565b634e487b7160e01b600052603160045260246000fdfea26469706673582212208277fc977d0e5ceecd7a5ce3ba6b3f0320d3dde86d1914ec1fbabd1e009eba6464736f6c634300081c0033",
  "linkReferences": {},
  "deployedLinkReferences": {}
}