{
  "_format": "hh-sol-artifact-1",
  "contractName": "TutorialClaim",
  "sourceName": "contracts/TutorialClaim.sol",
  "abi": [
    {
      "inputs": [
        {
          "internalType": "address",
          "name": "_ships",
          "type": "address"
        },
        {
          "internalType": "address",
          "name": "_gameResults",
          "type": "address"
        }
      ],
      "stateMutability": "nonpayable",
      "type": "constructor"
    },
    {
      "inputs": [],
      "name": "ReentrancyGuardReentrantCall",
      "type": "error"
    },
    {
      "inputs": [],
      "name": "TutorialAlreadyCompleted",
      "type": "error"
    },
    {
      "inputs": [],
      "name": "ZeroAddress",
      "type": "error"
    },
    {
      "anonymous": false,
      "inputs": [
        {
          "indexed": true,
          "internalType": "address",
          "name": "player",
          "type": "address"
        },
        {
          "indexed": false,
          "internalType": "bool",
          "name": "winPath",
          "type": "bool"
        },
        {
          "indexed": false,
          "internalType": "uint8",
          "name": "shipsCreated",
          "type": "uint8"
        }
      ],
      "name": "TutorialCompleted",
      "type": "event"
    },
    {
      "inputs": [],
      "name": "completeTutorialLossPath",
      "outputs": [],
      "stateMutability": "nonpayable",
      "type": "function"
    },
    {
      "inputs": [],
      "name": "completeTutorialWinPath",
      "outputs": [],
      "stateMutability": "nonpayable",
      "type": "function"
    },
    {
      "inputs": [],
      "name": "gameResults",
      "outputs": [
        {
          "internalType": "contract ITutorialGameResults",
          "name": "",
          "type": "address"
        }
      ],
      "stateMutability": "view",
      "type": "function"
    },
    {
      "inputs": [],
      "name": "ships",
      "outputs": [
        {
          "internalType": "contract ITutorialShips",
          "name": "",
          "type": "address"
        }
      ],
      "stateMutability": "view",
      "type": "function"
    },
    {
      "inputs": [
        {
          "internalType": "address",
          "name": "",
          "type": "address"
        }
      ],
      "name": "tutorialCompleted",
      "outputs": [
        {
          "internalType": "bool",
          "name": "",
          "type": "bool"
        }
      ],
      "stateMutability": "view",
      "type": "function"
    }
  ],
  "bytecode": "0x60c060405234801561001057600080fd5b50604051610c42380380610c4283398101604081905261002f916100a2565b60016000556001600160a01b038216158061005157506001600160a01b038116155b1561006f5760405163d92e233d60e01b815260040160405180910390fd5b6001600160a01b039182166080521660a0526100d5565b80516001600160a01b038116811461009d57600080fd5b919050565b600080604083850312156100b557600080fd5b6100be83610086565b91506100cc60208401610086565b90509250929050565b60805160a051610b3561010d6000396000818160d801528181610151015261024b015260008181609901526104770152610b356000f3fe608060405234801561001057600080fd5b50600436106100575760003560e01c8063a64effb31461005c578063bbf8218a14610094578063ce720bca146100d3578063d1f4b4ca146100fa578063e75568eb14610104575b600080fd5b61007f61006a36600461080a565b60016020526000908152604090205460ff1681565b60405190151581526020015b60405180910390f35b6100bb7f000000000000000000000000000000000000000000000000000000000000000081565b6040516001600160a01b03909116815260200161008b565b6100bb7f000000000000000000000000000000000000000000000000000000000000000081565b61010261010c565b005b6101026101fe565b6101146102e8565b61011d33610312565b61012f3361012a33610373565b610460565b61013c3361012a336104f6565b6040516301fe422760e21b81523360048201527f00000000000000000000000000000000000000000000000000000000000000006001600160a01b0316906307f9089c90602401600060405180830381600087803b15801561019d57600080fd5b505af11580156101b1573d6000803e3d6000fd5b50506040805160018152600260208201523393507f35668a91e205ed81abb585a8906577b836b143930c8e59664d0dbb5f8ae2e97e9250015b60405180910390a26101fc6001600055565b565b6102066102e8565b61020f33610312565b61021c3361012a336105e2565b6102293361012a33610373565b6102363361012a336104f6565b604051633449239160e01b81523360048201527f00000000000000000000000000000000000000000000000000000000000000006001600160a01b031690633449239190602401600060405180830381600087803b15801561029757600080fd5b505af11580156102ab573d6000803e3d6000fd5b50506040805160008152600360208201523393507f35668a91e205ed81abb585a8906577b836b143930c8e59664d0dbb5f8ae2e97e9250016101ea565b60026000540361030b57604051633ee5aeb560e01b815260040160405180910390fd5b6002600055565b6001600160a01b03811660009081526001602052604090205460ff161561034c5760405163942030d560e01b815260040160405180910390fd5b6001600160a01b03166000908152600160208190526040909120805460ff19169091179055565b61037b6106ec565b6040805180820182526008815267159a59da5b185b9d60c21b6020808301919091529083526001600160a01b039390931660a080840191909152815160808082018452600180835260008388018190528386018290526002606080860182905288880195909552865160c08082018952838252885161012081018a5260fa8152605a818d0152603c818b015261010e818901526050818801526032818a015290810184905260e080820185905261010082018590529a820152968701528584018290528583018190529385019390935290840192909252908201519092019190915290565b60405163614008f160e01b81526001600160a01b037f0000000000000000000000000000000000000000000000000000000000000000169063614008f1906104ae9085908590600401610a1d565b6020604051808303816000875af11580156104cd573d6000803e3d6000fd5b505050506040513d601f19601f820116820180604052508101906104f19190610ae6565b505050565b6104fe6106ec565b604080518082018252600881526714d95b9d1a5b995b60c21b6020808301919091529083526001600160a01b039390931660a0808401919091528151608080820184526000808352600283880152828501819052606080840182905286860193909352845160c08082018752828252865161012081018852609681526046818b015260378189015260aa81870152603c81860152602d8188015290810183905260e080820184905261010082018490529882015260039581019590955260018584018190528583018290529385015290840192909252908201519092019190915290565b6105ea6106ec565b60408051808201825260088152675265736f6c75746560c01b602082015282526001600160a01b03831660a08301528051608081019091528060038152602001600081526020016002815260200160019052604080830191909152805160c08082018352600080835283516101208101855260c88152605060208281019190915260328287015260dc6060808401919091526046608080850191909152602860a08086019190915295840185905260e08085018690526101008501959095529186019290925260019585018690526002828601819052818601819052938501939093528501929092528084018051600a90528051909101839052510152919050565b6040518060c0016040528060608152602001600081526020016107306040805160808101909152806000815260200160008152602001600081526020016000905290565b81526020016107b16040805160c0808201835260008083528351610120810185528181526020818101839052948101829052606081018290526080810182905260a0810182905291820181905260e0820181905261010082015290918201908152600060208201819052604082018190526060820181905260809091015290565b8152604080516101208101825260008082526020828101829052928201819052606082018190526080820181905260a0820181905260c0820181905260e082018190526101008201529101908152600060209091015290565b60006020828403121561081c57600080fd5b81356001600160a01b038116811461083357600080fd5b9392505050565b6008811061085857634e487b7160e01b600052602160045260246000fd5b50565b80516108668161083a565b825260208101516108768161083a565b602083015260408101516108898161083a565b6040830152606081015161089c8161083a565b806060840152505050565b80518252602081015161ffff815116602084015260ff602082015116604084015260408101516108dc606085018260ff169052565b50606081015161ffff8116608085015250608081015160ff811660a08501525060a081015160ff811660c08501525060c081015161ffff811660e08501525060e081015160ff811661010085015250610100015160ff811661012084015250604081015161ffff811661014084015250606081015160ff811661016084015250608081015160ff81166101808401525060a0015160ff166101a09190910152565b63ffffffff815116825261ffff602082015116602083015260408101516109aa604084018261ffff169052565b5060608101516109c0606084018261ffff169052565b5060808101516109d4608084018215159052565b5060a08101516109e860a084018215159052565b5060c08101516109fc60c084018215159052565b5060e0810151610a1060e084018215159052565b5061010090810151910152565b60018060a01b038316815260406020820152600082516103c0604084015280518061040085015260005b81811015610a65576020818401810151610420878401015201610a47565b50600061042082860101526020850151606085015260408501519150610a8e608085018361085b565b60608501519150610aa36101008501836108a7565b60808501519150610ab86102c085018361097d565b60a08501516001600160a01b0381166103e08601529150601f01601f19169290920161042001949350505050565b600060208284031215610af857600080fd5b505191905056fea264697066735822122014cc8cde99dedd4c3efe3601107f3755662cae366f78144c70c218ed88a9f7bc64736f6c634300081c0033",
  "linkReferences": {},
  "deployedLinkReferences": {}
}