{
  "_format": "hh-sol-artifact-1",
  "contractName": "Lobbies",
  "sourceName": "contracts/Lobbies.sol",
  "abi": [
    {
      "inputs": [
        {
          "internalType": "address",
          "name": "_ships",
          "type": "address"
        }
      ],
      "stateMutability": "nonpayable",
      "type": "constructor"
    },
    {
      "inputs": [],
      "name": "CannotLeaveStartedGame",
      "type": "error"
    },
    {
      "inputs": [],
      "name": "CreatorTimeoutNotReached",
      "type": "error"
    },
    {
      "inputs": [],
      "name": "FleetAlreadyCreated",
      "type": "error"
    },
    {
      "inputs": [],
      "name": "InsufficientFee",
      "type": "error"
    },
    {
      "inputs": [],
      "name": "InsufficientUTC",
      "type": "error"
    },
    {
      "inputs": [],
      "name": "InvalidFleetCost",
      "type": "error"
    },
    {
      "inputs": [],
      "name": "InvalidMapId",
      "type": "error"
    },
    {
      "inputs": [],
      "name": "InvalidShipCount",
      "type": "error"
    },
    {
      "inputs": [],
      "name": "InvalidTurnTime",
      "type": "error"
    },
    {
      "inputs": [],
      "name": "LobbyAlreadyStarted",
      "type": "error"
    },
    {
      "inputs": [],
      "name": "LobbyCreationPaused",
      "type": "error"
    },
    {
      "inputs": [],
      "name": "LobbyFull",
      "type": "error"
    },
    {
      "inputs": [],
      "name": "LobbyNotFound",
      "type": "error"
    },
    {
      "inputs": [],
      "name": "LobbyNotOpen",
      "type": "error"
    },
    {
      "inputs": [],
      "name": "LobbyNotReserved",
      "type": "error"
    },
    {
      "inputs": [],
      "name": "MaxFleetCostExceeded",
      "type": "error"
    },
    {
      "inputs": [],
      "name": "NotInLobby",
      "type": "error"
    },
    {
      "inputs": [],
      "name": "NotLobbyCreator",
      "type": "error"
    },
    {
      "inputs": [],
      "name": "NotLobbyJoiner",
      "type": "error"
    },
    {
      "inputs": [],
      "name": "NotReservedJoiner",
      "type": "error"
    },
    {
      "inputs": [
        {
          "internalType": "address",
          "name": "owner",
          "type": "address"
        }
      ],
      "name": "OwnableInvalidOwner",
      "type": "error"
    },
    {
      "inputs": [
        {
          "internalType": "address",
          "name": "account",
          "type": "address"
        }
      ],
      "name": "OwnableUnauthorizedAccount",
      "type": "error"
    },
    {
      "inputs": [],
      "name": "PlayerAlreadyInLobby",
      "type": "error"
    },
    {
      "inputs": [],
      "name": "PlayerInTimeout",
      "type": "error"
    },
    {
      "inputs": [],
      "name": "ReentrancyGuardReentrantCall",
      "type": "error"
    },
    {
      "inputs": [],
      "name": "ShipAlreadyInFleet",
      "type": "error"
    },
    {
      "inputs": [],
      "name": "ShipCostVersionMismatch",
      "type": "error"
    },
    {
      "inputs": [],
      "name": "ShipNotOwned",
      "type": "error"
    },
    {
      "inputs": [],
      "name": "TimeoutNotReached",
      "type": "error"
    },
    {
      "inputs": [],
      "name": "UTCTransferFailed",
      "type": "error"
    },
    {
      "anonymous": false,
      "inputs": [
        {
          "indexed": true,
          "internalType": "uint256",
          "name": "lobbyId",
          "type": "uint256"
        },
        {
          "indexed": true,
          "internalType": "address",
          "name": "player",
          "type": "address"
        },
        {
          "indexed": false,
          "internalType": "uint256",
          "name": "fleetId",
          "type": "uint256"
        }
      ],
      "name": "FleetCreated",
      "type": "event"
    },
    {
      "anonymous": false,
      "inputs": [
        {
          "indexed": true,
          "internalType": "uint256",
          "name": "lobbyId",
          "type": "uint256"
        },
        {
          "indexed": true,
          "internalType": "address",
          "name": "joiner",
          "type": "address"
        }
      ],
      "name": "GameAccepted",
      "type": "event"
    },
    {
      "anonymous": false,
      "inputs": [
        {
          "indexed": true,
          "internalType": "uint256",
          "name": "lobbyId",
          "type": "uint256"
        },
        {
          "indexed": true,
          "internalType": "address",
          "name": "joiner",
          "type": "address"
        }
      ],
      "name": "GameRejected",
      "type": "event"
    },
    {
      "anonymous": false,
      "inputs": [
        {
          "indexed": true,
          "internalType": "uint256",
          "name": "lobbyId",
          "type": "uint256"
        },
        {
          "indexed": true,
          "internalType": "address",
          "name": "reservedJoiner",
          "type": "address"
        }
      ],
      "name": "GameReserved",
      "type": "event"
    },
    {
      "anonymous": false,
      "inputs": [
        {
          "indexed": true,
          "internalType": "uint256",
          "name": "lobbyId",
          "type": "uint256"
        }
      ],
      "name": "GameStarted",
      "type": "event"
    },
    {
      "anonymous": false,
      "inputs": [
        {
          "indexed": true,
          "internalType": "uint256",
          "name": "lobbyId",
          "type": "uint256"
        },
        {
          "indexed": true,
          "internalType": "address",
          "name": "player",
          "type": "address"
        }
      ],
      "name": "LobbyAbandoned",
      "type": "event"
    },
    {
      "anonymous": false,
      "inputs": [
        {
          "indexed": true,
          "internalType": "uint256",
          "name": "lobbyId",
          "type": "uint256"
        },
        {
          "indexed": true,
          "internalType": "address",
          "name": "creator",
          "type": "address"
        },
        {
          "indexed": false,
          "internalType": "uint256",
          "name": "costLimit",
          "type": "uint256"
        },
        {
          "indexed": false,
          "internalType": "uint256",
          "name": "turnTime",
          "type": "uint256"
        },
        {
          "indexed": false,
          "internalType": "bool",
          "name": "creatorGoesFirst",
          "type": "bool"
        },
        {
          "indexed": false,
          "internalType": "uint256",
          "name": "selectedMapId",
          "type": "uint256"
        },
        {
          "indexed": false,
          "internalType": "uint256",
          "name": "maxScore",
          "type": "uint256"
        }
      ],
      "name": "LobbyCreated",
      "type": "event"
    },
    {
      "anonymous": false,
      "inputs": [
        {
          "indexed": true,
          "internalType": "uint256",
          "name": "lobbyId",
          "type": "uint256"
        },
        {
          "indexed": true,
          "internalType": "address",
          "name": "newCreator",
          "type": "address"
        }
      ],
      "name": "LobbyReset",
      "type": "event"
    },
    {
      "anonymous": false,
      "inputs": [
        {
          "indexed": true,
          "internalType": "uint256",
          "name": "lobbyId",
          "type": "uint256"
        }
      ],
      "name": "LobbyTerminated",
      "type": "event"
    },
    {
      "anonymous": false,
      "inputs": [
        {
          "indexed": false,
          "internalType": "uint256",
          "name": "newLimit",
          "type": "uint256"
        }
      ],
      "name": "MaxFleetCostLimitUpdated",
      "type": "event"
    },
    {
      "anonymous": false,
      "inputs": [
        {
          "indexed": true,
          "internalType": "address",
          "name": "previousOwner",
          "type": "address"
        },
        {
          "indexed": true,
          "internalType": "address",
          "name": "newOwner",
          "type": "address"
        }
      ],
      "name": "OwnershipTransferred",
      "type": "event"
    },
    {
      "anonymous": false,
      "inputs": [
        {
          "indexed": true,
          "internalType": "uint256",
          "name": "lobbyId",
          "type": "uint256"
        },
        {
          "indexed": true,
          "internalType": "address",
          "name": "joiner",
          "type": "address"
        }
      ],
      "name": "PlayerJoinedLobby",
      "type": "event"
    },
    {
      "inputs": [],
      "name": "KICK_PENALTY_PER_HOUR",
      "outputs": [
        {
          "internalType": "uint256",
          "name": "",
          "type": "uint256"
        }
      ],
      "stateMutability": "view",
      "type": "function"
    },
    {
      "inputs": [],
      "name": "MAX_TURN_TIME",
      "outputs": [
        {
          "internalType": "uint256",
          "name": "",
          "type": "uint256"
        }
      ],
      "stateMutability": "view",
      "type": "function"
    },
    {
      "inputs": [],
      "name": "MIN_TIMEOUT",
      "outputs": [
        {
          "internalType": "uint256",
          "name": "",
          "type": "uint256"
        }
      ],
      "stateMutability": "view",
      "type": "function"
    },
    {
      "inputs": [],
      "name": "MIN_TURN_TIME",
      "outputs": [
        {
          "internalType": "uint256",
          "name": "",
          "type": "uint256"
        }
      ],
      "stateMutability": "view",
      "type": "function"
    },
    {
      "inputs": [
        {
          "internalType": "uint256",
          "name": "_lobbyId",
          "type": "uint256"
        }
      ],
      "name": "acceptGame",
      "outputs": [],
      "stateMutability": "nonpayable",
      "type": "function"
    },
    {
      "inputs": [],
      "name": "additionalLobbyFee",
      "outputs": [
        {
          "internalType": "uint256",
          "name": "",
          "type": "uint256"
        }
      ],
      "stateMutability": "view",
      "type": "function"
    },
    {
      "inputs": [
        {
          "internalType": "uint256",
          "name": "_lobbyId",
          "type": "uint256"
        },
        {
          "internalType": "uint256[]",
          "name": "_shipIds",
          "type": "uint256[]"
        },
        {
          "components": [
            {
              "internalType": "int16",
              "name": "row",
              "type": "int16"
            },
            {
              "internalType": "int16",
              "name": "col",
              "type": "int16"
            }
          ],
          "internalType": "struct Position[]",
          "name": "_startingPositions",
          "type": "tuple[]"
        }
      ],
      "name": "createFleet",
      "outputs": [],
      "stateMutability": "nonpayable",
      "type": "function"
    },
    {
      "inputs": [
        {
          "internalType": "uint256",
          "name": "_costLimit",
          "type": "uint256"
        },
        {
          "internalType": "uint256",
          "name": "_turnTime",
          "type": "uint256"
        },
        {
          "internalType": "bool",
          "name": "_creatorGoesFirst",
          "type": "bool"
        },
        {
          "internalType": "uint256",
          "name": "_selectedMapId",
          "type": "uint256"
        },
        {
          "internalType": "uint256",
          "name": "_maxScore",
          "type": "uint256"
        },
        {
          "internalType": "address",
          "name": "_reservedJoiner",
          "type": "address"
        }
      ],
      "name": "createLobby",
      "outputs": [],
      "stateMutability": "payable",
      "type": "function"
    },
    {
      "inputs": [
        {
          "internalType": "address",
          "name": "_creator",
          "type": "address"
        },
        {
          "internalType": "address",
          "name": "_joiner",
          "type": "address"
        },
        {
          "internalType": "uint256",
          "name": "_costLimit",
          "type": "uint256"
        },
        {
          "internalType": "uint256",
          "name": "_turnTime",
          "type": "uint256"
        },
        {
          "internalType": "uint256",
          "name": "_selectedMapId",
          "type": "uint256"
        },
        {
          "internalType": "uint256",
          "name": "_maxScore",
          "type": "uint256"
        }
      ],
      "name": "createLobbyForAddresses",
      "outputs": [],
      "stateMutability": "nonpayable",
      "type": "function"
    },
    {
      "inputs": [],
      "name": "fleets",
      "outputs": [
        {
          "internalType": "contract IFleets",
          "name": "",
          "type": "address"
        }
      ],
      "stateMutability": "view",
      "type": "function"
    },
    {
      "inputs": [],
      "name": "freeGamesPerAddress",
      "outputs": [
        {
          "internalType": "uint256",
          "name": "",
          "type": "uint256"
        }
      ],
      "stateMutability": "view",
      "type": "function"
    },
    {
      "inputs": [],
      "name": "game",
      "outputs": [
        {
          "internalType": "contract Game",
          "name": "",
          "type": "address"
        }
      ],
      "stateMutability": "view",
      "type": "function"
    },
    {
      "inputs": [
        {
          "internalType": "address",
          "name": "_player",
          "type": "address"
        }
      ],
      "name": "getAllLobbiesForPlayerWithDupes",
      "outputs": [
        {
          "components": [
            {
              "components": [
                {
                  "internalType": "uint256",
                  "name": "id",
                  "type": "uint256"
                },
                {
                  "internalType": "address",
                  "name": "creator",
                  "type": "address"
                },
                {
                  "internalType": "uint256",
                  "name": "costLimit",
                  "type": "uint256"
                },
                {
                  "internalType": "uint256",
                  "name": "createdAt",
                  "type": "uint256"
                }
              ],
              "internalType": "struct LobbyBasic",
              "name": "basic",
              "type": "tuple"
            },
            {
              "components": [
                {
                  "internalType": "address",
                  "name": "joiner",
                  "type": "address"
                },
                {
                  "internalType": "address",
                  "name": "reservedJoiner",
                  "type": "address"
                },
                {
                  "internalType": "uint256",
                  "name": "creatorFleetId",
                  "type": "uint256"
                },
                {
                  "internalType": "uint256",
                  "name": "joinerFleetId",
                  "type": "uint256"
                },
                {
                  "internalType": "uint256",
                  "name": "joinedAt",
                  "type": "uint256"
                },
                {
                  "internalType": "uint256",
                  "name": "joinerFleetSetAt",
                  "type": "uint256"
                }
              ],
              "internalType": "struct LobbyPlayers",
              "name": "players",
              "type": "tuple"
            },
            {
              "components": [
                {
                  "internalType": "bool",
                  "name": "creatorGoesFirst",
                  "type": "bool"
                },
                {
                  "internalType": "uint256",
                  "name": "turnTime",
                  "type": "uint256"
                },
                {
                  "internalType": "uint256",
                  "name": "selectedMapId",
                  "type": "uint256"
                },
                {
                  "internalType": "uint256",
                  "name": "maxScore",
                  "type": "uint256"
                }
              ],
              "internalType": "struct LobbyGameConfig",
              "name": "gameConfig",
              "type": "tuple"
            },
            {
              "components": [
                {
                  "internalType": "enum LobbyStatus",
                  "name": "status",
                  "type": "uint8"
                },
                {
                  "internalType": "uint256",
                  "name": "gameStartedAt",
                  "type": "uint256"
                }
              ],
              "internalType": "struct LobbyState",
              "name": "state",
              "type": "tuple"
            }
          ],
          "internalType": "struct Lobby[]",
          "name": "",
          "type": "tuple[]"
        }
      ],
      "stateMutability": "view",
      "type": "function"
    },
    {
      "inputs": [
        {
          "internalType": "uint256[]",
          "name": "_lobbyIds",
          "type": "uint256[]"
        }
      ],
      "name": "getLobbiesFromIds",
      "outputs": [
        {
          "components": [
            {
              "components": [
                {
                  "internalType": "uint256",
                  "name": "id",
                  "type": "uint256"
                },
                {
                  "internalType": "address",
                  "name": "creator",
                  "type": "address"
                },
                {
                  "internalType": "uint256",
                  "name": "costLimit",
                  "type": "uint256"
                },
                {
                  "internalType": "uint256",
                  "name": "createdAt",
                  "type": "uint256"
                }
              ],
              "internalType": "struct LobbyBasic",
              "name": "basic",
              "type": "tuple"
            },
            {
              "components": [
                {
                  "internalType": "address",
                  "name": "joiner",
                  "type": "address"
                },
                {
                  "internalType": "address",
                  "name": "reservedJoiner",
                  "type": "address"
                },
                {
                  "internalType": "uint256",
                  "name": "creatorFleetId",
                  "type": "uint256"
                },
                {
                  "internalType": "uint256",
                  "name": "joinerFleetId",
                  "type": "uint256"
                },
                {
                  "internalType": "uint256",
                  "name": "joinedAt",
                  "type": "uint256"
                },
                {
                  "internalType": "uint256",
                  "name": "joinerFleetSetAt",
                  "type": "uint256"
                }
              ],
              "internalType": "struct LobbyPlayers",
              "name": "players",
              "type": "tuple"
            },
            {
              "components": [
                {
                  "internalType": "bool",
                  "name": "creatorGoesFirst",
                  "type": "bool"
                },
                {
                  "internalType": "uint256",
                  "name": "turnTime",
                  "type": "uint256"
                },
                {
                  "internalType": "uint256",
                  "name": "selectedMapId",
                  "type": "uint256"
                },
                {
                  "internalType": "uint256",
                  "name": "maxScore",
                  "type": "uint256"
                }
              ],
              "internalType": "struct LobbyGameConfig",
              "name": "gameConfig",
              "type": "tuple"
            },
            {
              "components": [
                {
                  "internalType": "enum LobbyStatus",
                  "name": "status",
                  "type": "uint8"
                },
                {
                  "internalType": "uint256",
                  "name": "gameStartedAt",
                  "type": "uint256"
                }
              ],
              "internalType": "struct LobbyState",
              "name": "state",
              "type": "tuple"
            }
          ],
          "internalType": "struct Lobby[]",
          "name": "",
          "type": "tuple[]"
        }
      ],
      "stateMutability": "view",
      "type": "function"
    },
    {
      "inputs": [
        {
          "internalType": "uint256",
          "name": "_lobbyId",
          "type": "uint256"
        }
      ],
      "name": "getLobby",
      "outputs": [
        {
          "components": [
            {
              "components": [
                {
                  "internalType": "uint256",
                  "name": "id",
                  "type": "uint256"
                },
                {
                  "internalType": "address",
                  "name": "creator",
                  "type": "address"
                },
                {
                  "internalType": "uint256",
                  "name": "costLimit",
                  "type": "uint256"
                },
                {
                  "internalType": "uint256",
                  "name": "createdAt",
                  "type": "uint256"
                }
              ],
              "internalType": "struct LobbyBasic",
              "name": "basic",
              "type": "tuple"
            },
            {
              "components": [
                {
                  "internalType": "address",
                  "name": "joiner",
                  "type": "address"
                },
                {
                  "internalType": "address",
                  "name": "reservedJoiner",
                  "type": "address"
                },
                {
                  "internalType": "uint256",
                  "name": "creatorFleetId",
                  "type": "uint256"
                },
                {
                  "internalType": "uint256",
                  "name": "joinerFleetId",
                  "type": "uint256"
                },
                {
                  "internalType": "uint256",
                  "name": "joinedAt",
                  "type": "uint256"
                },
                {
                  "internalType": "uint256",
                  "name": "joinerFleetSetAt",
                  "type": "uint256"
                }
              ],
              "internalType": "struct LobbyPlayers",
              "name": "players",
              "type": "tuple"
            },
            {
              "components": [
                {
                  "internalType": "bool",
                  "name": "creatorGoesFirst",
                  "type": "bool"
                },
                {
                  "internalType": "uint256",
                  "name": "turnTime",
                  "type": "uint256"
                },
                {
                  "internalType": "uint256",
                  "name": "selectedMapId",
                  "type": "uint256"
                },
                {
                  "internalType": "uint256",
                  "name": "maxScore",
                  "type": "uint256"
                }
              ],
              "internalType": "struct LobbyGameConfig",
              "name": "gameConfig",
              "type": "tuple"
            },
            {
              "components": [
                {
                  "internalType": "enum LobbyStatus",
                  "name": "status",
                  "type": "uint8"
                },
                {
                  "internalType": "uint256",
                  "name": "gameStartedAt",
                  "type": "uint256"
                }
              ],
              "internalType": "struct LobbyState",
              "name": "state",
              "type": "tuple"
            }
          ],
          "internalType": "struct Lobby",
          "name": "",
          "type": "tuple"
        }
      ],
      "stateMutability": "view",
      "type": "function"
    },
    {
      "inputs": [],
      "name": "getOpenLobbies",
      "outputs": [
        {
          "internalType": "uint256[]",
          "name": "",
          "type": "uint256[]"
        }
      ],
      "stateMutability": "view",
      "type": "function"
    },
    {
      "inputs": [],
      "name": "getOpenLobbyCount",
      "outputs": [
        {
          "internalType": "uint256",
          "name": "",
          "type": "uint256"
        }
      ],
      "stateMutability": "view",
      "type": "function"
    },
    {
      "inputs": [
        {
          "internalType": "address",
          "name": "_player",
          "type": "address"
        }
      ],
      "name": "getPlayerLobbies",
      "outputs": [
        {
          "internalType": "uint256[]",
          "name": "",
          "type": "uint256[]"
        }
      ],
      "stateMutability": "view",
      "type": "function"
    },
    {
      "inputs": [
        {
          "internalType": "address",
          "name": "_player",
          "type": "address"
        }
      ],
      "name": "getPlayerLobbyCount",
      "outputs": [
        {
          "internalType": "uint256",
          "name": "",
          "type": "uint256"
        }
      ],
      "stateMutability": "view",
      "type": "function"
    },
    {
      "inputs": [
        {
          "internalType": "address",
          "name": "_player",
          "type": "address"
        }
      ],
      "name": "getPlayerState",
      "outputs": [
        {
          "components": [
            {
              "internalType": "uint256",
              "name": "activeLobbyId",
              "type": "uint256"
            },
            {
              "internalType": "uint256",
              "name": "activeLobbiesCount",
              "type": "uint256"
            },
            {
              "internalType": "bool",
              "name": "hasActiveLobby",
              "type": "bool"
            },
            {
              "internalType": "uint256",
              "name": "kickCount",
              "type": "uint256"
            },
            {
              "internalType": "uint256",
              "name": "lastKickTime",
              "type": "uint256"
            }
          ],
          "internalType": "struct PlayerLobbyState",
          "name": "",
          "type": "tuple"
        }
      ],
      "stateMutability": "view",
      "type": "function"
    },
    {
      "inputs": [
        {
          "internalType": "address",
          "name": "_player",
          "type": "address"
        }
      ],
      "name": "getPlayerTimeoutEnd",
      "outputs": [
        {
          "internalType": "uint256",
          "name": "",
          "type": "uint256"
        }
      ],
      "stateMutability": "view",
      "type": "function"
    },
    {
      "inputs": [
        {
          "internalType": "uint256",
          "name": "_lobbyId",
          "type": "uint256"
        }
      ],
      "name": "isLobbyOpen",
      "outputs": [
        {
          "internalType": "bool",
          "name": "",
          "type": "bool"
        }
      ],
      "stateMutability": "view",
      "type": "function"
    },
    {
      "inputs": [
        {
          "internalType": "uint256",
          "name": "_id",
          "type": "uint256"
        }
      ],
      "name": "isLobbyOpenForJoining",
      "outputs": [
        {
          "internalType": "bool",
          "name": "",
          "type": "bool"
        }
      ],
      "stateMutability": "view",
      "type": "function"
    },
    {
      "inputs": [
        {
          "internalType": "address",
          "name": "_player",
          "type": "address"
        },
        {
          "internalType": "uint256",
          "name": "_lobbyId",
          "type": "uint256"
        }
      ],
      "name": "isPlayerInLobby",
      "outputs": [
        {
          "internalType": "bool",
          "name": "",
          "type": "bool"
        }
      ],
      "stateMutability": "view",
      "type": "function"
    },
    {
      "inputs": [
        {
          "internalType": "uint256",
          "name": "_lobbyId",
          "type": "uint256"
        }
      ],
      "name": "joinLobby",
      "outputs": [],
      "stateMutability": "payable",
      "type": "function"
    },
    {
      "inputs": [
        {
          "internalType": "uint256",
          "name": "_lobbyId",
          "type": "uint256"
        }
      ],
      "name": "leaveLobby",
      "outputs": [],
      "stateMutability": "nonpayable",
      "type": "function"
    },
    {
      "inputs": [
        {
          "internalType": "uint256",
          "name": "",
          "type": "uint256"
        }
      ],
      "name": "lobbies",
      "outputs": [
        {
          "components": [
            {
              "internalType": "uint256",
              "name": "id",
              "type": "uint256"
            },
            {
              "internalType": "address",
              "name": "creator",
              "type": "address"
            },
            {
              "internalType": "uint256",
              "name": "costLimit",
              "type": "uint256"
            },
            {
              "internalType": "uint256",
              "name": "createdAt",
              "type": "uint256"
            }
          ],
          "internalType": "struct LobbyBasic",
          "name": "basic",
          "type": "tuple"
        },
        {
          "components": [
            {
              "internalType": "address",
              "name": "joiner",
              "type": "address"
            },
            {
              "internalType": "address",
              "name": "reservedJoiner",
              "type": "address"
            },
            {
              "internalType": "uint256",
              "name": "creatorFleetId",
              "type": "uint256"
            },
            {
              "internalType": "uint256",
              "name": "joinerFleetId",
              "type": "uint256"
            },
            {
              "internalType": "uint256",
              "name": "joinedAt",
              "type": "uint256"
            },
            {
              "internalType": "uint256",
              "name": "joinerFleetSetAt",
              "type": "uint256"
            }
          ],
          "internalType": "struct LobbyPlayers",
          "name": "players",
          "type": "tuple"
        },
        {
          "components": [
            {
              "internalType": "bool",
              "name": "creatorGoesFirst",
              "type": "bool"
            },
            {
              "internalType": "uint256",
              "name": "turnTime",
              "type": "uint256"
            },
            {
              "internalType": "uint256",
              "name": "selectedMapId",
              "type": "uint256"
            },
            {
              "internalType": "uint256",
              "name": "maxScore",
              "type": "uint256"
            }
          ],
          "internalType": "struct LobbyGameConfig",
          "name": "gameConfig",
          "type": "tuple"
        },
        {
          "components": [
            {
              "internalType": "enum LobbyStatus",
              "name": "status",
              "type": "uint8"
            },
            {
              "internalType": "uint256",
              "name": "gameStartedAt",
              "type": "uint256"
            }
          ],
          "internalType": "struct LobbyState",
          "name": "state",
          "type": "tuple"
        }
      ],
      "stateMutability": "view",
      "type": "function"
    },
    {
      "inputs": [],
      "name": "lobbyCount",
      "outputs": [
        {
          "internalType": "uint256",
          "name": "",
          "type": "uint256"
        }
      ],
      "stateMutability": "view",
      "type": "function"
    },
    {
      "inputs": [],
      "name": "maps",
      "outputs": [
        {
          "internalType": "contract IMaps",
          "name": "",
          "type": "address"
        }
      ],
      "stateMutability": "view",
      "type": "function"
    },
    {
      "inputs": [],
      "name": "maxFleetCostLimit",
      "outputs": [
        {
          "internalType": "uint256",
          "name": "",
          "type": "uint256"
        }
      ],
      "stateMutability": "view",
      "type": "function"
    },
    {
      "inputs": [],
      "name": "owner",
      "outputs": [
        {
          "internalType": "address",
          "name": "",
          "type": "address"
        }
      ],
      "stateMutability": "view",
      "type": "function"
    },
    {
      "inputs": [],
      "name": "paused",
      "outputs": [
        {
          "internalType": "bool",
          "name": "",
          "type": "bool"
        }
      ],
      "stateMutability": "view",
      "type": "function"
    },
    {
      "inputs": [
        {
          "internalType": "address",
          "name": "",
          "type": "address"
        }
      ],
      "name": "playerStates",
      "outputs": [
        {
          "internalType": "uint256",
          "name": "activeLobbyId",
          "type": "uint256"
        },
        {
          "internalType": "uint256",
          "name": "activeLobbiesCount",
          "type": "uint256"
        },
        {
          "internalType": "bool",
          "name": "hasActiveLobby",
          "type": "bool"
        },
        {
          "internalType": "uint256",
          "name": "kickCount",
          "type": "uint256"
        },
        {
          "internalType": "uint256",
          "name": "lastKickTime",
          "type": "uint256"
        }
      ],
      "stateMutability": "view",
      "type": "function"
    },
    {
      "inputs": [
        {
          "internalType": "uint256",
          "name": "_lobbyId",
          "type": "uint256"
        }
      ],
      "name": "quitWithPenalty",
      "outputs": [],
      "stateMutability": "nonpayable",
      "type": "function"
    },
    {
      "inputs": [
        {
          "internalType": "uint256",
          "name": "_lobbyId",
          "type": "uint256"
        }
      ],
      "name": "rejectGame",
      "outputs": [],
      "stateMutability": "nonpayable",
      "type": "function"
    },
    {
      "inputs": [],
      "name": "renounceOwnership",
      "outputs": [],
      "stateMutability": "nonpayable",
      "type": "function"
    },
    {
      "inputs": [
        {
          "internalType": "uint256",
          "name": "_fee",
          "type": "uint256"
        }
      ],
      "name": "setAdditionalLobbyFee",
      "outputs": [],
      "stateMutability": "nonpayable",
      "type": "function"
    },
    {
      "inputs": [
        {
          "internalType": "address",
          "name": "_fleetsAddress",
          "type": "address"
        }
      ],
      "name": "setFleetsAddress",
      "outputs": [],
      "stateMutability": "nonpayable",
      "type": "function"
    },
    {
      "inputs": [
        {
          "internalType": "uint256",
          "name": "_count",
          "type": "uint256"
        }
      ],
      "name": "setFreeGamesPerAddress",
      "outputs": [],
      "stateMutability": "nonpayable",
      "type": "function"
    },
    {
      "inputs": [
        {
          "internalType": "address",
          "name": "_gameAddress",
          "type": "address"
        }
      ],
      "name": "setGameAddress",
      "outputs": [],
      "stateMutability": "nonpayable",
      "type": "function"
    },
    {
      "inputs": [
        {
          "internalType": "address",
          "name": "_mapsAddress",
          "type": "address"
        }
      ],
      "name": "setMapsAddress",
      "outputs": [],
      "stateMutability": "nonpayable",
      "type": "function"
    },
    {
      "inputs": [
        {
          "internalType": "uint256",
          "name": "_maxFleetCostLimit",
          "type": "uint256"
        }
      ],
      "name": "setMaxFleetCostLimit",
      "outputs": [],
      "stateMutability": "nonpayable",
      "type": "function"
    },
    {
      "inputs": [
        {
          "internalType": "bool",
          "name": "_paused",
          "type": "bool"
        }
      ],
      "name": "setPaused",
      "outputs": [],
      "stateMutability": "nonpayable",
      "type": "function"
    },
    {
      "inputs": [
        {
          "internalType": "address",
          "name": "_universalCredits",
          "type": "address"
        }
      ],
      "name": "setUniversalCreditsAddress",
      "outputs": [],
      "stateMutability": "nonpayable",
      "type": "function"
    },
    {
      "inputs": [],
      "name": "ships",
      "outputs": [
        {
          "internalType": "contract Ships",
          "name": "",
          "type": "address"
        }
      ],
      "stateMutability": "view",
      "type": "function"
    },
    {
      "inputs": [
        {
          "internalType": "uint256",
          "name": "_lobbyId",
          "type": "uint256"
        }
      ],
      "name": "timeoutJoiner",
      "outputs": [],
      "stateMutability": "nonpayable",
      "type": "function"
    },
    {
      "inputs": [
        {
          "internalType": "address",
          "name": "newOwner",
          "type": "address"
        }
      ],
      "name": "transferOwnership",
      "outputs": [],
      "stateMutability": "nonpayable",
      "type": "function"
    },
    {
      "inputs": [],
      "name": "universalCredits",
      "outputs": [
        {
          "internalType": "contract IERC20",
          "name": "",
          "type": "address"
        }
      ],
      "stateMutability": "view",
      "type": "function"
    },
    {
      "inputs": [],
      "name": "withdraw",
      "outputs": [],
      "stateMutability": "nonpayable",
      "type": "function"
    }
  ],
  "bytecode": "0x60806040526001600855670de0b6b3a76400006009556107d0600a5534801561002757600080fd5b50604051613c27380380613c27833981016040819052610046916100ef565b338061006c57604051631e4fbdf760e01b81526000600482015260240160405180910390fd5b6100758161009f565b5060018055600280546001600160a01b0319166001600160a01b039290921691909117905561011f565b600080546001600160a01b038381166001600160a01b0319831681178455604051919092169283917f8be0079c531659141344cd1fd0a4f28419497f9722a3daafe3b4186f6b6457e09190a35050565b60006020828403121561010157600080fd5b81516001600160a01b038116811461011857600080fd5b9392505050565b613af98061012e6000396000f3fe6080604052600436106102ae5760003560e01c8063948428f011610175578063cd335414116100dc578063ea1ad1f611610095578063f25205f31161006f578063f25205f3146108cc578063f2fde38b146108ec578063faa5bf891461090c578063ff4655231461092157600080fd5b8063ea1ad1f614610876578063ea720b4814610896578063eff3d306146108b657600080fd5b8063cd3354141461077d578063d15e55b71461079d578063dc273b3f1461081a578063e1db36631461083a578063e3bf490d14610850578063e9173b3a1461086357600080fd5b8063b83e5c7e1161012e578063b83e5c7e1461068c578063bbf8218a146106ac578063c01ca43f146106cc578063c3fe3e2814610730578063c623130b14610750578063ca1df1701461076757600080fd5b8063948428f0146105e15780639ed4ce1414610601578063a7fecd7014610616578063a875cae514610636578063aa717f051461064c578063b6d810881461066c57600080fd5b806348915d9111610219578063669bcb0e116101d2578063669bcb0e1461051e5780636e8fb4c61461053e578063711953ef1461056e578063715018a61461058e57806374262da2146105a35780638da5cb5b146105c357600080fd5b806348915d911461045e5780634e12b6f91461047e578063543ad1df1461049e5780635c975abb146104b45780635fa4d4e9146104de578063605bd5ff146104fe57600080fd5b80632eaeb1611161026b5780632eaeb161146103a657806330fff6b0146103bc578063311cfc8c146103dc5780633ccfd60b146103fc5780633deaec2b14610411578063452c09f41461043157600080fd5b806308a314dc146102b357806316c38b3c146102e9578063172259411461030b5780631fba1bdf146103435780632681cbb8146103715780632aa9c67914610391575b600080fd5b3480156102bf57600080fd5b506102d36102ce36600461348c565b61094e565b6040516102e091906135dd565b60405180910390f35b3480156102f557600080fd5b5061030961030436600461363a565b610b35565b005b34801561031757600080fd5b5060065461032b906001600160a01b031681565b6040516001600160a01b0390911681526020016102e0565b34801561034f57600080fd5b5061036361035e366004613673565b610b50565b6040519081526020016102e0565b34801561037d57600080fd5b5061030961038c36600461368e565b610ba4565b34801561039d57600080fd5b50610363603c81565b3480156103b257600080fd5b50610363610e1081565b3480156103c857600080fd5b506103096103d736600461373e565b611081565b3480156103e857600080fd5b506103096103f7366004613757565b61130b565b34801561040857600080fd5b50610309611631565b34801561041d57600080fd5b5060055461032b906001600160a01b031681565b34801561043d57600080fd5b5061045161044c366004613673565b6116d5565b6040516102e091906137ac565b34801561046a57600080fd5b5060045461032b906001600160a01b031681565b34801561048a57600080fd5b5061030961049936600461373e565b6116f9565b3480156104aa57600080fd5b5061036361012c81565b3480156104c057600080fd5b50600b546104ce9060ff1681565b60405190151581526020016102e0565b3480156104ea57600080fd5b506103096104f936600461373e565b611706565b34801561050a57600080fd5b5061030961051936600461373e565b611844565b34801561052a57600080fd5b5061030961053936600461373e565b611a7f565b34801561054a57600080fd5b5061055e61055936600461373e565b611a8c565b6040516102e094939291906137e4565b34801561057a57600080fd5b50610309610589366004613673565b611ba0565b34801561059a57600080fd5b50610309611bca565b3480156105af57600080fd5b506103096105be36600461373e565b611bde565b3480156105cf57600080fd5b506000546001600160a01b031661032b565b3480156105ed57600080fd5b506103096105fc36600461373e565b611ddc565b34801561060d57600080fd5b50610363612152565b34801561062257600080fd5b5061030961063136600461373e565b612163565b34801561064257600080fd5b5061036360095481565b34801561065857600080fd5b50610309610667366004613673565b6121a6565b34801561067857600080fd5b506104ce61068736600461373e565b6121d0565b34801561069857600080fd5b506103096106a7366004613673565b6121dd565b3480156106b857600080fd5b5060025461032b906001600160a01b031681565b3480156106d857600080fd5b506106ec6106e7366004613673565b612207565b6040516102e09190600060a0820190508251825260208301516020830152604083015115156040830152606083015160608301526080830151608083015292915050565b34801561073c57600080fd5b5060035461032b906001600160a01b031681565b34801561075c57600080fd5b506103636201518081565b34801561077357600080fd5b5061036360085481565b34801561078957600080fd5b50610363610798366004613673565b612298565b3480156107a957600080fd5b506107eb6107b8366004613673565b600d60205260009081526040902080546001820154600283015460038401546004909401549293919260ff909116919085565b6040516102e0959493929190948552602085019390935290151560408401526060830152608082015260a00190565b34801561082657600080fd5b506104ce610835366004613863565b6122b9565b34801561084657600080fd5b50610363600a5481565b61030961085e36600461388d565b6122db565b61030961087136600461373e565b6127f1565b34801561088257600080fd5b506102d3610891366004613673565b612a49565b3480156108a257600080fd5b506103096108b1366004613673565b612dea565b3480156108c257600080fd5b5061036360075481565b3480156108d857600080fd5b506104ce6108e736600461373e565b612e14565b3480156108f857600080fd5b50610309610907366004613673565b612e58565b34801561091857600080fd5b50610451612e93565b34801561092d57600080fd5b5061094161093c36600461373e565b612e9f565b6040516102e091906138e7565b606060008267ffffffffffffffff81111561096b5761096b6138f6565b6040519080825280602002602001820160405280156109a457816020015b61099161336d565b8152602001906001900390816109895790505b50905060005b83811015610b2b57600c60008686848181106109c8576109c861390c565b602090810292909201358352508181019290925260409081016000208151610100810183528154608080830191825260018401546001600160a01b0390811660a08086019190915260028087015460c080880191909152600388015460e08801529486528751948501885260048701548316855260058701549092168489015260068601548488015260078601546060808601919091526008870154858501526009870154918501919091528488019390935285519182018652600a85015460ff90811615158352600b86015497830197909752600c85015482870152600d85015482840152838601919091528451808601909552600e840180549396949592870194929390928492911690811115610ae357610ae3613513565b6002811115610af457610af4613513565b815260200160018201548152505081525050828281518110610b1857610b1861390c565b60209081029190910101526001016109aa565b5090505b92915050565b610b3d612fdb565b600b805460ff1916911515919091179055565b6001600160a01b0381166000908152600d6020526040812060038101548203610b7c5750600092915050565b610e108160030154610b8e9190613938565b8160040154610b9d919061394f565b9392505050565b610bac613008565b6000858152600c602052604081208054909103610bdc576040516374315adb60e01b815260040160405180910390fd5b6001600e82015460ff166002811115610bf757610bf7613513565b14610c15576040516374f165fb60e11b815260040160405180910390fd5b60018101546001600160a01b03163314801590610c3f575060048101546001600160a01b03163314155b15610c5d576040516353507d5160e11b815260040160405180910390fd5b60018101546001600160a01b031633148015610c7c5750600681015415155b15610c9a576040516304d3525b60e51b815260040160405180910390fd5b60048101546001600160a01b031633148015610cb95750600781015415155b15610cd7576040516304d3525b60e51b815260040160405180910390fd5b600181015460048054600284015460405163063ed7e960e21b8152336001600160a01b039586168114956000959416936318fb5fa493610d25938e93928e928e928e928e92918d9101613974565b6020604051808303816000875af1158015610d44573d6000803e3d6000fd5b505050506040513d601f19601f82011682018060405250810190610d689190613a34565b60018401549091506001600160a01b03163303610da757600683018190556007830154600003610da257600a8301805460ff191660011790555b610dce565b600783018190556006830154600003610dc757600a8301805460ff191690555b4260098401555b604051818152339089907f72a1a8c971b9d32d9472c3451f6e01ccb95e97125322e3cf3386a3fed86ee6589060200160405180910390a3600683015415801590610e1b5750600783015415155b1561106e57600e8301805460ff1916600217905542600f84015560405188907f50ad08f58a27f2851d7e3a1b3a6a46b290f2ce677e99642d30ff639721e7779090600090a26001830154610e78906001600160a01b031689613032565b6004830154610e90906001600160a01b031689613032565b610e9988613059565b6001808401546001600160a01b039081166000908152600d60205260408082206004880154909316825290209181015490919015610ee957600182018054906000610ee383613a4d565b91905055505b600181015415610f0b57600181018054906000610f0583613a4d565b91905055505b6002808301805460ff199081169091556000808555918301805490911690558155610f358a613068565b600360009054906101000a90046001600160a01b03166001600160a01b031663e8d64aee8b8760000160010160009054906101000a90046001600160a01b03168860040160000160009054906101000a90046001600160a01b031689600401600201548a600401600301548b600a0160000160009054906101000a900460ff168c600a01600101548d600a01600201548e600a01600301546040518a63ffffffff1660e01b8152600401611039999897969594939291909889526001600160a01b0397881660208a015295909616604088015260608701939093526080860191909152151560a085015260c084015260e08301919091526101008201526101200190565b600060405180830381600087803b15801561105357600080fd5b505af1158015611067573d6000803e3d6000fd5b5050505050505b50505061107a60018055565b5050505050565b611089613008565b6000818152600c6020526040812080549091036110b9576040516374315adb60e01b815260040160405180910390fd5b60048101546001600160a01b031633146110e657604051639d2663a360e01b815260040160405180910390fd5b6001600e82015460ff16600281111561110157611101613513565b1461111f576040516374f165fb60e11b815260040160405180910390fd5b6007810154600003611144576040516353507d5160e11b815260040160405180910390fd5b600681015415611167576040516304d3525b60e51b815260040160405180910390fd5b600b810154600982015461117b919061394f565b42101561119b576040516322fce56360e11b815260040160405180910390fd5b600480546007830154604051630f2bf13b60e41b8152928301526001600160a01b03169063f2bf13b090602401600060405180830381600087803b1580156111e257600080fd5b505af11580156111f6573d6000803e3d6000fd5b5050505060018101546001600160a01b03166000908152600d60205260408120600381018054919261122783613a64565b9091555050426004808301919091556002808301805460ff199081169091556000808555928501546001600160a01b039081168452600d60205260408420928301805490921690915591815560018401549091611285911685613032565b600483015461129d906001600160a01b031685613032565b6112a6846130d5565b6004830180546001600160a01b0319169055600e8301805460ff191690556000600684018190556007840181905560405185917fcb7662b1678001afa152fed432f46cdaa4318053fa7acba681da4b416a59123c91a250505061130860018055565b50565b611313612fdb565b61012c83108061132557506201518083115b156113435760405163079900bb60e31b815260040160405180910390fd5b846001600160a01b0316866001600160a01b0316036113755760405163e24fd63160e01b815260040160405180910390fd5b600a5484111561139857604051632dc5079f60e21b815260040160405180910390fd5b8115611451576005546001600160a01b03166113c757604051635e09313960e11b815260040160405180910390fd5b600554604051635a1114e360e01b8152600481018490526001600160a01b0390911690635a1114e390602401602060405180830381865afa158015611410573d6000803e3d6000fd5b505050506040513d601f19601f820116820180604052508101906114349190613a7d565b61145157604051635e09313960e11b815260040160405180910390fd5b6007805490600061146183613a64565b90915550506007546000818152600c60205260409020908155600180820180546001600160a01b0319166001600160a01b038a1617905560028201869055600e8201805460ff1916828002179055504260038201819055600b8201859055600c8201849055600d8083018490556004830180546001600160a01b0319166001600160a01b038a811691909117909155600884019290925590881660009081526020919091526040812060028101805460ff19166001908117909155600754825581018054919261153083613a64565b90915550506001600160a01b0387166000908152600d6020526040812060028101805460ff19166001908117909155600754825581018054919261157383613a64565b9190505550611584896007546130e0565b611590886007546130e0565b6007546040805189815260208101899052600081830152606081018890526080810187905290516001600160a01b038c1692917fc0594b072d40bf82c20f44fa41a55144b097ebd9b07f9a37ba466d40e1f43aab919081900360a00190a36007546040516001600160a01b038a1691907f9b8e9742090654a785c549aefcfcd7cc7f18215ee64c50e9d93f4b153a0e56e490600090a3505050505050505050565b611639612fdb565b600080546040516001600160a01b039091169047908381818185875af1925050503d8060008114611686576040519150601f19603f3d011682016040523d82523d6000602084013e61168b565b606091505b50509050806113085760405162461bcd60e51b815260206004820152601160248201527015da5d1a191c985dd85b0819985a5b1959607a1b60448201526064015b60405180910390fd5b6001600160a01b0381166000908152600e60205260409020606090610b2f90613102565b611701612fdb565b600955565b61170e613008565b6000818152600c60205260408120805490910361173e576040516374315adb60e01b815260040160405180910390fd5b60058101546001600160a01b0316611769576040516351f507bf60e01b815260040160405180910390fd5b60058101546001600160a01b0316331461179657604051635129ad3360e01b815260040160405180910390fd5b6000600e82015460ff1660028111156117b1576117b1613513565b146117cf576040516374f165fb60e11b815260040160405180910390fd5b60048101546001600160a01b0316156117fb5760405163be02dee760e01b815260040160405180910390fd5b6005810180546001600160a01b0319169055604051339083907fa110fa95df5f7ac61e7a54c5c66fbaa35d5c7800f9e70a6c48ee3799816b097890600090a35061130860018055565b61184c613008565b6000818152600c60205260408120805490910361187c576040516374315adb60e01b815260040160405180910390fd5b60058101546001600160a01b03166118a7576040516351f507bf60e01b815260040160405180910390fd5b60058101546001600160a01b031633146118d457604051635129ad3360e01b815260040160405180910390fd5b6000600e82015460ff1660028111156118ef576118ef613513565b1461190d576040516374f165fb60e11b815260040160405180910390fd5b60048101546001600160a01b0316156119395760405163be02dee760e01b815260040160405180910390fd5b336000908152600d6020526040902060038101541561199a576000610e1082600301546119669190613938565b8260040154611975919061394f565b9050804210156119985760405163c56b424b60e01b815260040160405180910390fd5b505b600482018054336001600160a01b031991821617909155600e8301805460ff191660011790554260088401556005830180549091169055600281015460ff166119f05760028101805460ff191660011790558281555b600181018054906000611a0283613a64565b9190505550611a1133846130e0565b611a1a83613059565b604051339084907f46d8ac857a1f0ab9f251eb5ddc275e09a3c21a0ce9763cbeeeea22b0bb87b12990600090a3604051339084907f9b8e9742090654a785c549aefcfcd7cc7f18215ee64c50e9d93f4b153a0e56e490600090a3505061130860018055565b611a87612fdb565b600855565b600c602081815260009283526040928390208351608080820186528254825260018301546001600160a01b0390811683860152600280850154848901526003850154606080860191909152885160c081018a526004870154841681526005870154909316838801526006860154838a0152600786015483820152600886015483850152600986015460a084015288519384018952600a86015460ff90811615158552600b870154978501979097529685015483890152600d850154968301969096528651808801909752600e840180549397919692959193909284929190911690811115611b7c57611b7c613513565b6002811115611b8d57611b8d613513565b8152602001600182015481525050905084565b611ba8612fdb565b600380546001600160a01b0319166001600160a01b0392909216919091179055565b611bd2612fdb565b611bdc600061310f565b565b611be6613008565b6000818152600c602052604081208054909103611c16576040516374315adb60e01b815260040160405180910390fd5b60018101546001600160a01b03163314611c43576040516386e3479160e01b815260040160405180910390fd5b6001600e82015460ff166002811115611c5e57611c5e613513565b14611c7c576040516374f165fb60e11b815260040160405180910390fd5b60048101546001600160a01b0316611ca7576040516374315adb60e01b815260040160405180910390fd5b600781015415611cca576040516304d3525b60e51b815260040160405180910390fd5b600b8101546008820154611cde919061394f565b421015611cfe576040516326c015ab60e21b815260040160405180910390fd5b60048101546001600160a01b03166000908152600d602052604081206003810180549192611d2b83613a64565b90915550504260048083019190915560028201805460ff1916905560008255820154611d60906001600160a01b031684613032565b611d69836130d5565b6004820180546001600160a01b0319169055600e8201805460ff191690556000600683018190556007830181905560018301546040516001600160a01b039091169185917fee8b079adb6e971a80670fe597ec6fd06cb3699ea8771fe1b5554c79a7c0b8fd9190a3505061130860018055565b611de4613008565b6000818152600c602052604081208054909103611e14576040516374315adb60e01b815260040160405180910390fd5b60018101546001600160a01b03163314801590611e3e575060048101546001600160a01b03163314155b15611e5c576040516353507d5160e11b815260040160405180910390fd5b6002600e82015460ff166002811115611e7757611e77613513565b03611e955760405163604163d360e11b815260040160405180910390fd5b336000908152600d6020526040902080548314611ec5576040516353507d5160e11b815260040160405180910390fd5b60018201546001600160a01b0316330361204557600682015415611f4a57600480546006840154604051630f2bf13b60e41b8152928301526001600160a01b03169063f2bf13b090602401600060405180830381600087803b158015611f2a57600080fd5b505af1158015611f3e573d6000803e3d6000fd5b50506000600685015550505b60048201546001600160a01b03161561200a57600482018054600180850180546001600160a01b0384166001600160a01b03199182168117909255909216909255600e8401805460ff199081169091556000828152600d60205260409020600281018054909216909317905584825590611fc43386613032565b611fcd856130d5565b6040516001600160a01b0383169086907fee8b079adb6e971a80670fe597ec6fd06cb3699ea8771fe1b5554c79a7c0b8fd90600090a35050612115565b61201383613068565b604051339084907f9b5e662ea3d6238d43ff6f148df4451e32553992239658d2fbca40e78f0cb5d790600090a3612115565b6007820154156120b657600480546007840154604051630f2bf13b60e41b8152928301526001600160a01b03169063f2bf13b090602401600060405180830381600087803b15801561209657600080fd5b505af11580156120aa573d6000803e3d6000fd5b50506000600785015550505b6004820180546001600160a01b0319169055600e8201805460ff191690556120de3384613032565b6120e7836130d5565b604051339084907f9b5e662ea3d6238d43ff6f148df4451e32553992239658d2fbca40e78f0cb5d790600090a35b60028101805460ff19169055600081556001810154156121475760018101805490600061214183613a4d565b91905055505b505061130860018055565b600061215e600f61315f565b905090565b61216b612fdb565b600a8190556040518181527ff1df9480e914c2fa686d97464e9bcfb5b9023403de35ffb3d09432b219e3b2cc9060200160405180910390a150565b6121ae612fdb565b600580546001600160a01b0319166001600160a01b0392909216919091179055565b6000610b2f600f83613169565b6121e5612fdb565b600480546001600160a01b0319166001600160a01b0392909216919091179055565b61223b6040518060a00160405280600081526020016000815260200160001515815260200160008152602001600081525090565b506001600160a01b03166000908152600d6020908152604091829020825160a08101845281548152600182015492810192909252600281015460ff1615159282019290925260038201546060820152600490910154608082015290565b6001600160a01b0381166000908152600e60205260408120610b2f9061315f565b6001600160a01b0382166000908152600e60205260408120610b9d9083613169565b6122e3613008565b600b5460ff161561230757604051635083854f60e11b815260040160405180910390fd5b61012c85108061231957506201518085115b156123375760405163079900bb60e31b815260040160405180910390fd5b600a5486111561235a57604051632dc5079f60e21b815260040160405180910390fd5b336001600160a01b038216036123835760405163e24fd63160e01b815260040160405180910390fd5b821561243c576005546001600160a01b03166123b257604051635e09313960e11b815260040160405180910390fd5b600554604051635a1114e360e01b8152600481018590526001600160a01b0390911690635a1114e390602401602060405180830381865afa1580156123fb573d6000803e3d6000fd5b505050506040513d601f19601f8201168201806040525081019061241f9190613a7d565b61243c57604051635e09313960e11b815260040160405180910390fd5b336000908152600d6020526040902060038101541561249d576000610e1082600301546124699190613938565b8260040154612478919061394f565b90508042101561249b5760405163c56b424b60e01b815260040160405180910390fd5b505b6001600160a01b03821615612635576006546001600160a01b03166124d55760405163505500eb60e11b815260040160405180910390fd5b6006546040516370a0823160e01b8152336004820152670de0b6b3a7640000916000916001600160a01b03909116906370a0823190602401602060405180830381865afa15801561252a573d6000803e3d6000fd5b505050506040513d601f19601f8201168201806040525081019061254e9190613a34565b9050818110156125715760405163b591b78560e01b815260040160405180910390fd5b6006546040516323b872dd60e01b8152336004820152306024820152604481018490526001600160a01b03909116906323b872dd906064016020604051808303816000875af11580156125c8573d6000803e3d6000fd5b505050506040513d601f19601f820116820180604052508101906125ec9190613a7d565b61262e5760405162461bcd60e51b8152602060048201526013602482015272155510c81d1c985b9cd9995c8819985a5b1959606a1b60448201526064016116cc565b5050612664565b600854816001015410612664576009543410156126645760405162976f7560e21b815260040160405180910390fd5b6007805490600061267483613a64565b90915550506007546000818152600c60205260408120918255600180830180546001600160a01b03191633179055600283018a9055600e83018054909160ff1990911690830217905550426003820155600a8101805460ff1916871515179055600b8101879055600c8101859055600d81018490556001600160a01b03831615612745576005810180546001600160a01b0319166001600160a01b0385169081179091556007546040517fcf0e9c1d4173a093432687b3472963d633bf5b7fc07bc553f4272e92af79d7db90600090a35b60028201805460ff1916600190811790915560075483558201805490600061276c83613a64565b919050555061277d336007546130e0565b6127886007546130d5565b600754604080518a8152602081018a905288151581830152606081018890526080810187905290513392917fc0594b072d40bf82c20f44fa41a55144b097ebd9b07f9a37ba466d40e1f43aab919081900360a00190a350506127e960018055565b505050505050565b6127f9613008565b6000818152600c602052604081208054909103612829576040516374315adb60e01b815260040160405180910390fd5b6000600e82015460ff16600281111561284457612844613513565b14612862576040516374f165fb60e11b815260040160405180910390fd5b6001810154336001600160a01b03909116036128915760405163e24fd63160e01b815260040160405180910390fd5b60048101546001600160a01b0316156128bd5760405163be02dee760e01b815260040160405180910390fd5b60058101546001600160a01b0316156128fd5760058101546001600160a01b031633146128fd57604051635129ad3360e01b815260040160405180910390fd5b336000908152600d6020526040902060038101541561295e576000610e10826003015461292a9190613938565b8260040154612939919061394f565b90508042101561295c5760405163c56b424b60e01b815260040160405180910390fd5b505b60058201546001600160a01b031661299f5760085481600101541061299f5760095434101561299f5760405162976f7560e21b815260040160405180910390fd5b6004820180546001600160a01b03191633179055600e8201805460ff19166001179055426008830155600281015460ff166129e75760028101805460ff191660011790558281555b6001810180549060006129f983613a64565b9190505550612a0833846130e0565b612a1183613059565b604051339084907f9b8e9742090654a785c549aefcfcd7cc7f18215ee64c50e9d93f4b153a0e56e490600090a3505061130860018055565b6001600160a01b0381166000908152600e60205260408120606091600f90612a708261315f565b612a798461315f565b612a83919061394f565b67ffffffffffffffff811115612a9b57612a9b6138f6565b604051908082528060200260200182016040528015612ad457816020015b612ac161336d565b815260200190600190039081612ab95790505b50905060005b612ae38461315f565b811015612c5257600c6000612af88684613181565b815260208082019290925260409081016000208151610100810183528154608080830191825260018401546001600160a01b0390811660a08086019190915260028087015460c080880191909152600388015460e08801529486528751948501885260048701548316855260058701549092168489015260068601548488015260078601546060808601919091526008870154858501526009870154918501919091528488019390935285519182018652600a85015460ff90811615158352600b86015497830197909752600c85015482870152600d85015482840152838601919091528451808601909552600e840180549396949592870194929390928492911690811115612c0a57612c0a613513565b6002811115612c1b57612c1b613513565b815260200160018201548152505081525050828281518110612c3f57612c3f61390c565b6020908102919091010152600101612ada565b5060005b612c5f8361315f565b811015612de157600c6000612c748584613181565b815260208082019290925260409081016000208151610100810183528154608080830191825260018401546001600160a01b0390811660a08086019190915260028087015460c080880191909152600388015460e08801529486528751948501885260048701548316855260058701549092168489015260068601548488015260078601546060808601919091526008870154858501526009870154918501919091528488019390935285519182018652600a85015460ff90811615158352600b86015497830197909752600c85015482870152600d85015482840152838601919091528451808601909552600e840180549396949592870194929390928492911690811115612d8657612d86613513565b6002811115612d9757612d97613513565b8152602001600182015481525050815250508282612db48761315f565b612dbe919061394f565b81518110612dce57612dce61390c565b6020908102919091010152600101612c56565b50949350505050565b612df2612fdb565b600680546001600160a01b0319166001600160a01b0392909216919091179055565b6000818152600c6020526040812081600e82015460ff166002811115612e3c57612e3c613513565b148015610b9d5750600401546001600160a01b03161592915050565b612e60612fdb565b6001600160a01b038116612e8a57604051631e4fbdf760e01b8152600060048201526024016116cc565b6113088161310f565b606061215e600f613102565b612ea761336d565b6000828152600c60208181526040928390208351610100810185528154608080830191825260018401546001600160a01b0390811660a08086019190915260028087015460c080880191909152600388015460e088015294865289519485018a526004870154831685526005870154909216848801526006860154848a015260078601546060808601919091526008870154858501526009870154918501919091528487019390935287519182018852600a85015460ff90811615158352600b860154968301969096529584015481880152600d84015481830152828701528551808701909652600e83018054929693959187019490928492911690811115612fb257612fb2613513565b6002811115612fc357612fc3613513565b81526001919091015460209091015290525092915050565b6000546001600160a01b03163314611bdc5760405163118cdaa760e01b81523360048201526024016116cc565b60026001540361302b57604051633ee5aeb560e01b815260040160405180910390fd5b6002600155565b6001600160a01b0382166000908152600e60205260409020613054908261318d565b505050565b613064600f8261318d565b5050565b6000818152600c6020526040902060018101546001600160a01b0316156130a15760018101546130a1906001600160a01b031683613032565b60048101546001600160a01b0316156130cc5760048101546130cc906001600160a01b031683613032565b61306482613059565b613064600f82613199565b6001600160a01b0382166000908152600e602052604090206130549082613199565b60606000610b9d836131a5565b600080546001600160a01b038381166001600160a01b0319831681178455604051919092169283917f8be0079c531659141344cd1fd0a4f28419497f9722a3daafe3b4186f6b6457e09190a35050565b6000610b2f825490565b60008181526001830160205260408120541515610b9d565b6000610b9d8383613201565b6000610b9d838361322b565b6000610b9d838361331e565b6060816000018054806020026020016040519081016040528092919081815260200182805480156131f557602002820191906000526020600020905b8154815260200190600101908083116131e1575b50505050509050919050565b60008260000182815481106132185761321861390c565b9060005260206000200154905092915050565b6000818152600183016020526040812054801561331457600061324f600183613a9a565b855490915060009061326390600190613a9a565b90508082146132c85760008660000182815481106132835761328361390c565b90600052602060002001549050808760000184815481106132a6576132a661390c565b6000918252602080832090910192909255918252600188019052604090208390555b85548690806132d9576132d9613aad565b600190038181906000526020600020016000905590558560010160008681526020019081526020016000206000905560019350505050610b2f565b6000915050610b2f565b600081815260018301602052604081205461336557508154600181810184556000848152602080822090930184905584548482528286019093526040902091909155610b2f565b506000610b2f565b60408051610100810190915260006080820181815260a0830182905260c0830182905260e0830191909152819081526020016133ea6040518060c0016040528060006001600160a01b0316815260200160006001600160a01b03168152602001600081526020016000815260200160008152602001600081525090565b815260200161341c60405180608001604052806000151581526020016000815260200160008152602001600081525090565b815260200161343b604080518082019091526000808252602082015290565b905290565b60008083601f84011261345257600080fd5b50813567ffffffffffffffff81111561346a57600080fd5b6020830191508360208260051b850101111561348557600080fd5b9250929050565b6000806020838503121561349f57600080fd5b823567ffffffffffffffff8111156134b657600080fd5b6134c285828601613440565b90969095509350505050565b80516001600160a01b0390811683526020808301519091169083015260408082015190830152606080820151908301526080808201519083015260a090810151910152565b634e487b7160e01b600052602160045260246000fd5b80516003811061354957634e487b7160e01b600052602160045260246000fd5b8252602090810151910152565b613588828251805182526020808201516001600160a01b03169083015260408082015190830152606090810151910152565b602081015161359a60808401826134ce565b50604081810151805115156101408501526020810151610160850152908101516101808401526060908101516101a08401528101516130546101c0840182613529565b602080825282518282018190526000918401906040840190835b818110156136215761360a838551613556565b6020939093019261020092909201916001016135f7565b509095945050505050565b801515811461130857600080fd5b60006020828403121561364c57600080fd5b8135610b9d8161362c565b80356001600160a01b038116811461366e57600080fd5b919050565b60006020828403121561368557600080fd5b610b9d82613657565b6000806000806000606086880312156136a657600080fd5b85359450602086013567ffffffffffffffff8111156136c457600080fd5b6136d088828901613440565b909550935050604086013567ffffffffffffffff8111156136f057600080fd5b8601601f8101881361370157600080fd5b803567ffffffffffffffff81111561371857600080fd5b8860208260061b840101111561372d57600080fd5b959894975092955050506020019190565b60006020828403121561375057600080fd5b5035919050565b60008060008060008060c0878903121561377057600080fd5b61377987613657565b955061378760208801613657565b95989597505050506040840135936060810135936080820135935060a0909101359150565b602080825282518282018190526000918401906040840190835b818110156136215783518352602093840193909201916001016137c6565b845181526020808601516001600160a01b0316908201526040808601519082015260608086015190820152610200810161382160808301866134ce565b835115156101408301526020840151610160830152604084015161018083015260608401516101a083015261385a6101c0830184613529565b95945050505050565b6000806040838503121561387657600080fd5b61387f83613657565b946020939093013593505050565b60008060008060008060c087890312156138a657600080fd5b863595506020870135945060408701356138bf8161362c565b935060608701359250608087013591506138db60a08801613657565b90509295509295509295565b6102008101610b2f8284613556565b634e487b7160e01b600052604160045260246000fd5b634e487b7160e01b600052603260045260246000fd5b634e487b7160e01b600052601160045260246000fd5b8082028115828204841417610b2f57610b2f613922565b80820180821115610b2f57610b2f613922565b8035600181900b811461366e57600080fd5b8881526001600160a01b038816602082015260c060408201819052810186905260006001600160fb1b038711156139aa57600080fd5b8660051b808960e0850137820182810360e0908101606085015281018690528690600090610100015b87821015613a0e576139e483613962565b60010b81526139f560208401613962565b600190810b6020830152604093840193920191016139d3565b6080850187905285151560a08601529250613a27915050565b9998505050505050505050565b600060208284031215613a4657600080fd5b5051919050565b600081613a5c57613a5c613922565b506000190190565b600060018201613a7657613a76613922565b5060010190565b600060208284031215613a8f57600080fd5b8151610b9d8161362c565b81810381811115610b2f57610b2f613922565b634e487b7160e01b600052603160045260246000fdfea2646970667358221220abfa37bd3f2507efd31b3241724acc45a08a3d16a071e34d3d321cb50be06a6964736f6c634300081c0033",
  "linkReferences": {},
  "deployedLinkReferences": {}
}