{
  "_format": "hh-sol-artifact-1",
  "contractName": "RenderFore",
  "sourceName": "contracts/Renderers/RenderFore.sol",
  "abi": [
    {
      "inputs": [
        {
          "internalType": "address[]",
          "name": "renderers",
          "type": "address[]"
        }
      ],
      "stateMutability": "nonpayable",
      "type": "constructor"
    },
    {
      "inputs": [
        {
          "components": [
            {
              "internalType": "string",
              "name": "name",
              "type": "string"
            },
            {
              "internalType": "uint256",
              "name": "id",
              "type": "uint256"
            },
            {
              "components": [
                {
                  "internalType": "enum MainWeapon",
                  "name": "mainWeapon",
                  "type": "uint8"
                },
                {
                  "internalType": "enum Armor",
                  "name": "armor",
                  "type": "uint8"
                },
                {
                  "internalType": "enum Shields",
                  "name": "shields",
                  "type": "uint8"
                },
                {
                  "internalType": "enum Special",
                  "name": "special",
                  "type": "uint8"
                }
              ],
              "internalType": "struct Equipment",
              "name": "equipment",
              "type": "tuple"
            },
            {
              "components": [
                {
                  "internalType": "uint256",
                  "name": "serialNumber",
                  "type": "uint256"
                },
                {
                  "components": [
                    {
                      "internalType": "uint16",
                      "name": "h1",
                      "type": "uint16"
                    },
                    {
                      "internalType": "uint8",
                      "name": "s1",
                      "type": "uint8"
                    },
                    {
                      "internalType": "uint8",
                      "name": "l1",
                      "type": "uint8"
                    },
                    {
                      "internalType": "uint16",
                      "name": "h2",
                      "type": "uint16"
                    },
                    {
                      "internalType": "uint8",
                      "name": "s2",
                      "type": "uint8"
                    },
                    {
                      "internalType": "uint8",
                      "name": "l2",
                      "type": "uint8"
                    },
                    {
                      "internalType": "uint16",
                      "name": "h3",
                      "type": "uint16"
                    },
                    {
                      "internalType": "uint8",
                      "name": "s3",
                      "type": "uint8"
                    },
                    {
                      "internalType": "uint8",
                      "name": "l3",
                      "type": "uint8"
                    }
                  ],
                  "internalType": "struct Colors",
                  "name": "colors",
                  "type": "tuple"
                },
                {
                  "internalType": "uint16",
                  "name": "variant",
                  "type": "uint16"
                },
                {
                  "internalType": "uint8",
                  "name": "accuracy",
                  "type": "uint8"
                },
                {
                  "internalType": "uint8",
                  "name": "hull",
                  "type": "uint8"
                },
                {
                  "internalType": "uint8",
                  "name": "speed",
                  "type": "uint8"
                }
              ],
              "internalType": "struct Traits",
              "name": "traits",
              "type": "tuple"
            },
            {
              "components": [
                {
                  "internalType": "uint32",
                  "name": "shipsDestroyed",
                  "type": "uint32"
                },
                {
                  "internalType": "uint16",
                  "name": "costsVersion",
                  "type": "uint16"
                },
                {
                  "internalType": "uint16",
                  "name": "cost",
                  "type": "uint16"
                },
                {
                  "internalType": "uint16",
                  "name": "modified",
                  "type": "uint16"
                },
                {
                  "internalType": "bool",
                  "name": "shiny",
                  "type": "bool"
                },
                {
                  "internalType": "bool",
                  "name": "constructed",
                  "type": "bool"
                },
                {
                  "internalType": "bool",
                  "name": "inFleet",
                  "type": "bool"
                },
                {
                  "internalType": "bool",
                  "name": "isFreeShip",
                  "type": "bool"
                },
                {
                  "internalType": "uint256",
                  "name": "timestampDestroyed",
                  "type": "uint256"
                }
              ],
              "internalType": "struct ShipData",
              "name": "shipData",
              "type": "tuple"
            },
            {
              "internalType": "address",
              "name": "owner",
              "type": "address"
            }
          ],
          "internalType": "struct Ship",
          "name": "ship",
          "type": "tuple"
        }
      ],
      "name": "render",
      "outputs": [
        {
          "internalType": "string",
          "name": "",
          "type": "string"
        }
      ],
      "stateMutability": "view",
      "type": "function"
    },
    {
      "inputs": [],
      "name": "renderFore0",
      "outputs": [
        {
          "internalType": "contract IReturnSVG",
          "name": "",
          "type": "address"
        }
      ],
      "stateMutability": "view",
      "type": "function"
    },
    {
      "inputs": [],
      "name": "renderFore1",
      "outputs": [
        {
          "internalType": "contract IReturnSVG",
          "name": "",
          "type": "address"
        }
      ],
      "stateMutability": "view",
      "type": "function"
    },
    {
      "inputs": [],
      "name": "renderFore2",
      "outputs": [
        {
          "internalType": "contract IReturnSVG",
          "name": "",
          "type": "address"
        }
      ],
      "stateMutability": "view",
      "type": "function"
    },
    {
      "inputs": [],
      "name": "renderForePerfect",
      "outputs": [
        {
          "internalType": "contract IReturnSVG",
          "name": "",
          "type": "address"
        }
      ],
      "stateMutability": "view",
      "type": "function"
    }
  ],
  "bytecode": "0x61010060405234801561001157600080fd5b50604051610e3e380380610e3e83398101604081905261003091610191565b80516004146100935760405162461bcd60e51b815260206004820152602560248201527f496e76616c69642072656e64657265727320617272617920696e2052656e646560448201526472466f726560d81b606482015260840160405180910390fd5b806000815181106100a6576100a6610260565b60200260200101516001600160a01b03166080816001600160a01b031681525050806001815181106100da576100da610260565b60200260200101516001600160a01b031660a0816001600160a01b0316815250508060028151811061010e5761010e610260565b60200260200101516001600160a01b031660c0816001600160a01b0316815250508060038151811061014257610142610260565b60209081029190910101516001600160a01b031660e05250610276565b634e487b7160e01b600052604160045260246000fd5b80516001600160a01b038116811461018c57600080fd5b919050565b6000602082840312156101a357600080fd5b81516001600160401b038111156101b957600080fd5b8201601f810184136101ca57600080fd5b80516001600160401b038111156101e3576101e361015f565b604051600582901b90603f8201601f191681016001600160401b03811182821017156102115761021161015f565b60405291825260208184018101929081018784111561022f57600080fd5b6020850194505b838510156102555761024785610175565b815260209485019401610236565b509695505050505050565b634e487b7160e01b600052603260045260246000fd5b60805160a05160c05160e051610b766102c86000396000818160c501526101d80152600081816061015261032d01526000818161011301526102e101526000818160ec01526102820152610b766000f3fe608060405234801561001057600080fd5b50600436106100575760003560e01c80631c494d0d1461005c5780635394d872146100a057806372d64159146100c0578063a076e03c146100e7578063a6bc3d841461010e575b600080fd5b6100837f000000000000000000000000000000000000000000000000000000000000000081565b6040516001600160a01b0390911681526020015b60405180910390f35b6100b36100ae3660046106f6565b610135565b604051610097919061084a565b6100837f000000000000000000000000000000000000000000000000000000000000000081565b6100837f000000000000000000000000000000000000000000000000000000000000000081565b6100837f000000000000000000000000000000000000000000000000000000000000000081565b606081606001516060015160ff16600214801561015d575081606001516080015160ff166002145b80156101745750816060015160a0015160ff166002145b80156101bc57506003826040015160200151600781111561019757610197610864565b14806101bc5750600382604001516040015160078111156101ba576101ba610864565b145b15610258576040516329ca6c3960e11b81526001600160a01b037f00000000000000000000000000000000000000000000000000000000000000001690635394d8729061020d908590600401610a0e565b600060405180830381865afa15801561022a573d6000803e3d6000fd5b505050506040513d6000823e601f3d908101601f191682016040526102529190810190610ac9565b92915050565b81606001516060015160ff166000036102b7576040516329ca6c3960e11b81526001600160a01b037f00000000000000000000000000000000000000000000000000000000000000001690635394d8729061020d908590600401610a0e565b81606001516060015160ff16600103610316576040516329ca6c3960e11b81526001600160a01b037f00000000000000000000000000000000000000000000000000000000000000001690635394d8729061020d908590600401610a0e565b6040516329ca6c3960e11b81526001600160a01b037f00000000000000000000000000000000000000000000000000000000000000001690635394d8729061020d908590600401610a0e565b919050565b634e487b7160e01b600052604160045260246000fd5b60405160c0810167ffffffffffffffff811182821017156103a0576103a0610367565b60405290565b604051610120810167ffffffffffffffff811182821017156103a0576103a0610367565b604051601f8201601f1916810167ffffffffffffffff811182821017156103f3576103f3610367565b604052919050565b600067ffffffffffffffff82111561041557610415610367565b50601f01601f191660200190565b6008811061043057600080fd5b50565b60006080828403121561044557600080fd5b6040516080810167ffffffffffffffff8111828210171561046857610468610367565b604052905080823561047981610423565b8152602083013561048981610423565b6020820152604083013561049c81610423565b604082015260608301356104af81610423565b6060919091015292915050565b803561ffff8116811461036257600080fd5b803560ff8116811461036257600080fd5b60008183036101c08112156104f357600080fd5b6104fb61037d565b833581529150610120601f198201121561051457600080fd5b5061051d6103a6565b610529602084016104bc565b8152610537604084016104ce565b6020820152610548606084016104ce565b6040820152610559608084016104bc565b606082015261056a60a084016104ce565b608082015261057b60c084016104ce565b60a082015261058c60e084016104bc565b60c082015261059e61010084016104ce565b60e08201526105b061012084016104ce565b61010082015260208201526105c861014083016104bc565b60408201526105da61016083016104ce565b60608201526105ec61018083016104ce565b60808201526105fe6101a083016104ce565b60a082015292915050565b803563ffffffff8116811461036257600080fd5b8035801515811461036257600080fd5b6000610120828403121561064057600080fd5b6106486103a6565b905061065382610609565b8152610661602083016104bc565b6020820152610672604083016104bc565b6040820152610683606083016104bc565b60608201526106946080830161061d565b60808201526106a560a0830161061d565b60a08201526106b660c0830161061d565b60c08201526106c760e0830161061d565b60e08201526101009182013591810191909152919050565b80356001600160a01b038116811461036257600080fd5b60006020828403121561070857600080fd5b813567ffffffffffffffff81111561071f57600080fd5b82016103c0818503121561073257600080fd5b61073a61037d565b813567ffffffffffffffff81111561075157600080fd5b8201601f8101861361076257600080fd5b8035610775610770826103fb565b6103ca565b81815287602083850101111561078a57600080fd5b816020840160208301376000602092820183015283528381013590830152506107b68560408401610433565b60408201526107c88560c084016104df565b60608201526107db85610280840161062d565b60808201526107ed6103a083016106df565b60a0820152949350505050565b60005b838110156108155781810151838201526020016107fd565b50506000910152565b600081518084526108368160208601602086016107fa565b601f01601f19169290920160200192915050565b60208152600061085d602083018461081e565b9392505050565b634e487b7160e01b600052602160045260246000fd5b6008811061043057634e487b7160e01b600052602160045260246000fd5b80518252602081015161ffff815116602084015260ff602082015116604084015260408101516108cd606085018260ff169052565b50606081015161ffff8116608085015250608081015160ff811660a08501525060a081015160ff811660c08501525060c081015161ffff811660e08501525060e081015160ff811661010085015250610100015160ff811661012084015250604081015161ffff811661014084015250606081015160ff811661016084015250608081015160ff81166101808401525060a0015160ff166101a09190910152565b63ffffffff815116825261ffff6020820151166020830152604081015161099b604084018261ffff169052565b5060608101516109b1606084018261ffff169052565b5060808101516109c5608084018215159052565b5060a08101516109d960a084018215159052565b5060c08101516109ed60c084018215159052565b5060e0810151610a0160e084018215159052565b5061010090810151910152565b60208152600082516103c06020840152610a2c6103e084018261081e565b90506020840151604084015260408401518051610a488161087a565b60608501526020810151610a5b8161087a565b60808501526040810151610a6e8161087a565b60a085015260600151610a808161087a565b60c08401526060840151610a9760e0850182610898565b506080840151610aab6102a085018261096e565b5060a08401516001600160a01b0381166103c0850152509392505050565b600060208284031215610adb57600080fd5b815167ffffffffffffffff811115610af257600080fd5b8201601f81018413610b0357600080fd5b8051610b11610770826103fb565b818152856020838501011115610b2657600080fd5b610b378260208301602086016107fa565b9594505050505056fea26469706673582212208b829e01bf6585951b335da0b4ce351dbe6c0048a33d28ce45e490545a0e7ce364736f6c634300081c0033",
  "linkReferences": {},
  "deployedLinkReferences": {}
}