{
  "_format": "hh-sol-artifact-1",
  "contractName": "RandomManager",
  "sourceName": "contracts/RandomManager.sol",
  "abi": [
    {
      "inputs": [
        {
          "internalType": "uint256",
          "name": "_requestId",
          "type": "uint256"
        }
      ],
      "name": "fulfillRandomRequest",
      "outputs": [
        {
          "internalType": "uint64",
          "name": "",
          "type": "uint64"
        }
      ],
      "stateMutability": "nonpayable",
      "type": "function"
    },
    {
      "inputs": [],
      "name": "requestRandomness",
      "outputs": [
        {
          "internalType": "uint256",
          "name": "",
          "type": "uint256"
        }
      ],
      "stateMutability": "nonpayable",
      "type": "function"
    }
  ],
  "bytecode": "0x6080604052348015600f57600080fd5b506101918061001f6000396000f3fe608060405234801561001057600080fd5b50600436106100365760003560e01c8063bc26d8241461003b578063f8413b071461006c575b600080fd5b61004e61004936600461011b565b610082565b60405167ffffffffffffffff90911681526020015b60405180910390f35b6100746100cb565b604051908152602001610063565b60008054818061009183610134565b90915550506040805144602082015290810183905260009060600160408051601f1981840301815291905280516020909101209392505050565b6000805481806100da83610134565b9091555050600080546040516100fd914491602001918252602082015260400190565b60408051601f19818403018152919052805160209091012092915050565b60006020828403121561012d57600080fd5b5035919050565b60006001820161015457634e487b7160e01b600052601160045260246000fd5b506001019056fea26469706673582212204dc68338cc4e337f32f921eea1519027f7f60e3989292cb80cdcb573d1aaff5764736f6c634300081c0033",
  "linkReferences": {},
  "deployedLinkReferences": {}
}