{
  "_format": "hh-sol-artifact-1",
  "contractName": "Game",
  "sourceName": "contracts/Game.sol",
  "abi": [
    {
      "inputs": [
        {
          "internalType": "address",
          "name": "_ships",
          "type": "address"
        },
        {
          "internalType": "address",
          "name": "_shipAttributes",
          "type": "address"
        }
      ],
      "stateMutability": "nonpayable",
      "type": "constructor"
    },
    {
      "inputs": [],
      "name": "ActionRequired",
      "type": "error"
    },
    {
      "inputs": [],
      "name": "GameNotFound",
      "type": "error"
    },
    {
      "inputs": [],
      "name": "InvalidMove",
      "type": "error"
    },
    {
      "inputs": [],
      "name": "InvalidPosition",
      "type": "error"
    },
    {
      "inputs": [],
      "name": "NotInGame",
      "type": "error"
    },
    {
      "inputs": [],
      "name": "NotLobbiesContract",
      "type": "error"
    },
    {
      "inputs": [],
      "name": "NotYourTurn",
      "type": "error"
    },
    {
      "inputs": [
        {
          "internalType": "address",
          "name": "owner",
          "type": "address"
        }
      ],
      "name": "OwnableInvalidOwner",
      "type": "error"
    },
    {
      "inputs": [
        {
          "internalType": "address",
          "name": "account",
          "type": "address"
        }
      ],
      "name": "OwnableUnauthorizedAccount",
      "type": "error"
    },
    {
      "inputs": [],
      "name": "PositionOccupied",
      "type": "error"
    },
    {
      "inputs": [],
      "name": "ShipAlreadyMoved",
      "type": "error"
    },
    {
      "inputs": [],
      "name": "ShipDestroyed",
      "type": "error"
    },
    {
      "inputs": [],
      "name": "ShipNotFound",
      "type": "error"
    },
    {
      "inputs": [],
      "name": "ShipNotOwned",
      "type": "error"
    },
    {
      "inputs": [],
      "name": "TurnTimeoutExceeded",
      "type": "error"
    },
    {
      "inputs": [],
      "name": "TurnTimeoutNotReached",
      "type": "error"
    },
    {
      "anonymous": false,
      "inputs": [
        {
          "indexed": true,
          "internalType": "uint256",
          "name": "gameId",
          "type": "uint256"
        },
        {
          "indexed": true,
          "internalType": "uint256",
          "name": "lobbyId",
          "type": "uint256"
        },
        {
          "indexed": false,
          "internalType": "address",
          "name": "creator",
          "type": "address"
        },
        {
          "indexed": false,
          "internalType": "address",
          "name": "joiner",
          "type": "address"
        }
      ],
      "name": "GameStarted",
      "type": "event"
    },
    {
      "anonymous": false,
      "inputs": [
        {
          "indexed": true,
          "internalType": "address",
          "name": "previousOwner",
          "type": "address"
        },
        {
          "indexed": true,
          "internalType": "address",
          "name": "newOwner",
          "type": "address"
        }
      ],
      "name": "OwnershipTransferred",
      "type": "event"
    },
    {
      "inputs": [],
      "name": "GRID_HEIGHT",
      "outputs": [
        {
          "internalType": "int16",
          "name": "",
          "type": "int16"
        }
      ],
      "stateMutability": "view",
      "type": "function"
    },
    {
      "inputs": [],
      "name": "GRID_WIDTH",
      "outputs": [
        {
          "internalType": "int16",
          "name": "",
          "type": "int16"
        }
      ],
      "stateMutability": "view",
      "type": "function"
    },
    {
      "inputs": [
        {
          "internalType": "uint256",
          "name": "_gameId",
          "type": "uint256"
        },
        {
          "internalType": "uint256[]",
          "name": "_shipIds",
          "type": "uint256[]"
        }
      ],
      "name": "calculateFleetAttributes",
      "outputs": [],
      "stateMutability": "nonpayable",
      "type": "function"
    },
    {
      "inputs": [
        {
          "internalType": "uint256",
          "name": "_gameId",
          "type": "uint256"
        },
        {
          "internalType": "uint256",
          "name": "_shipId",
          "type": "uint256"
        }
      ],
      "name": "calculateShipAttributes",
      "outputs": [],
      "stateMutability": "nonpayable",
      "type": "function"
    },
    {
      "inputs": [
        {
          "internalType": "uint256",
          "name": "_gameId",
          "type": "uint256"
        },
        {
          "internalType": "uint256",
          "name": "_shipId",
          "type": "uint256"
        }
      ],
      "name": "debugDestroyShip",
      "outputs": [],
      "stateMutability": "nonpayable",
      "type": "function"
    },
    {
      "inputs": [
        {
          "internalType": "uint256",
          "name": "_gameId",
          "type": "uint256"
        },
        {
          "internalType": "uint256",
          "name": "_shipId",
          "type": "uint256"
        }
      ],
      "name": "debugMarkShipAsMoved",
      "outputs": [],
      "stateMutability": "nonpayable",
      "type": "function"
    },
    {
      "inputs": [
        {
          "internalType": "uint256",
          "name": "_gameId",
          "type": "uint256"
        },
        {
          "internalType": "uint256",
          "name": "_shipId",
          "type": "uint256"
        }
      ],
      "name": "debugSetHullPointsToZero",
      "outputs": [],
      "stateMutability": "nonpayable",
      "type": "function"
    },
    {
      "inputs": [
        {
          "internalType": "uint256",
          "name": "_gameId",
          "type": "uint256"
        },
        {
          "internalType": "uint256",
          "name": "_shipId",
          "type": "uint256"
        },
        {
          "internalType": "uint8",
          "name": "_timer",
          "type": "uint8"
        }
      ],
      "name": "debugSetReactorCriticalTimer",
      "outputs": [],
      "stateMutability": "nonpayable",
      "type": "function"
    },
    {
      "inputs": [
        {
          "internalType": "uint256",
          "name": "_gameId",
          "type": "uint256"
        },
        {
          "internalType": "uint256",
          "name": "_shipId",
          "type": "uint256"
        },
        {
          "internalType": "int16",
          "name": "_row",
          "type": "int16"
        },
        {
          "internalType": "int16",
          "name": "_col",
          "type": "int16"
        }
      ],
      "name": "debugSetShipPosition",
      "outputs": [],
      "stateMutability": "nonpayable",
      "type": "function"
    },
    {
      "inputs": [
        {
          "internalType": "uint256",
          "name": "_gameId",
          "type": "uint256"
        }
      ],
      "name": "flee",
      "outputs": [],
      "stateMutability": "nonpayable",
      "type": "function"
    },
    {
      "inputs": [],
      "name": "fleets",
      "outputs": [
        {
          "internalType": "contract IFleets",
          "name": "",
          "type": "address"
        }
      ],
      "stateMutability": "view",
      "type": "function"
    },
    {
      "inputs": [
        {
          "internalType": "uint256",
          "name": "_gameId",
          "type": "uint256"
        }
      ],
      "name": "forceMoveOnTimeout",
      "outputs": [],
      "stateMutability": "nonpayable",
      "type": "function"
    },
    {
      "inputs": [],
      "name": "gameCount",
      "outputs": [
        {
          "internalType": "uint256",
          "name": "",
          "type": "uint256"
        }
      ],
      "stateMutability": "view",
      "type": "function"
    },
    {
      "inputs": [],
      "name": "gameResults",
      "outputs": [
        {
          "internalType": "contract IGameResults",
          "name": "",
          "type": "address"
        }
      ],
      "stateMutability": "view",
      "type": "function"
    },
    {
      "inputs": [
        {
          "internalType": "uint256",
          "name": "",
          "type": "uint256"
        }
      ],
      "name": "games",
      "outputs": [
        {
          "components": [
            {
              "internalType": "uint256",
              "name": "gameId",
              "type": "uint256"
            },
            {
              "internalType": "uint256",
              "name": "lobbyId",
              "type": "uint256"
            },
            {
              "internalType": "address",
              "name": "creator",
              "type": "address"
            },
            {
              "internalType": "address",
              "name": "joiner",
              "type": "address"
            },
            {
              "internalType": "uint256",
              "name": "creatorFleetId",
              "type": "uint256"
            },
            {
              "internalType": "uint256",
              "name": "joinerFleetId",
              "type": "uint256"
            },
            {
              "internalType": "bool",
              "name": "creatorGoesFirst",
              "type": "bool"
            },
            {
              "internalType": "uint256",
              "name": "startedAt",
              "type": "uint256"
            },
            {
              "internalType": "address",
              "name": "winner",
              "type": "address"
            }
          ],
          "internalType": "struct GameMetadata",
          "name": "metadata",
          "type": "tuple"
        },
        {
          "components": [
            {
              "internalType": "address",
              "name": "currentTurn",
              "type": "address"
            },
            {
              "internalType": "uint256",
              "name": "turnTime",
              "type": "uint256"
            },
            {
              "internalType": "uint256",
              "name": "turnStartTime",
              "type": "uint256"
            },
            {
              "internalType": "uint256",
              "name": "currentRound",
              "type": "uint256"
            }
          ],
          "internalType": "struct GameTurnState",
          "name": "turnState",
          "type": "tuple"
        },
        {
          "components": [
            {
              "internalType": "int16",
              "name": "gridWidth",
              "type": "int16"
            },
            {
              "internalType": "int16",
              "name": "gridHeight",
              "type": "int16"
            }
          ],
          "internalType": "struct GameGridDimensions",
          "name": "gridDimensions",
          "type": "tuple"
        },
        {
          "internalType": "uint256",
          "name": "maxScore",
          "type": "uint256"
        },
        {
          "internalType": "uint256",
          "name": "creatorScore",
          "type": "uint256"
        },
        {
          "internalType": "uint256",
          "name": "joinerScore",
          "type": "uint256"
        }
      ],
      "stateMutability": "view",
      "type": "function"
    },
    {
      "inputs": [
        {
          "internalType": "uint256",
          "name": "_gameId",
          "type": "uint256"
        }
      ],
      "name": "getAllShipPositions",
      "outputs": [
        {
          "components": [
            {
              "internalType": "uint256",
              "name": "shipId",
              "type": "uint256"
            },
            {
              "components": [
                {
                  "internalType": "int16",
                  "name": "row",
                  "type": "int16"
                },
                {
                  "internalType": "int16",
                  "name": "col",
                  "type": "int16"
                }
              ],
              "internalType": "struct Position",
              "name": "position",
              "type": "tuple"
            },
            {
              "internalType": "bool",
              "name": "isCreator",
              "type": "bool"
            }
          ],
          "internalType": "struct ShipPosition[]",
          "name": "",
          "type": "tuple[]"
        }
      ],
      "stateMutability": "view",
      "type": "function"
    },
    {
      "inputs": [
        {
          "internalType": "uint256",
          "name": "_gameId",
          "type": "uint256"
        },
        {
          "internalType": "uint256[]",
          "name": "_creatorShipIds",
          "type": "uint256[]"
        },
        {
          "internalType": "uint256[]",
          "name": "_joinerShipIds",
          "type": "uint256[]"
        }
      ],
      "name": "getGame",
      "outputs": [
        {
          "components": [
            {
              "components": [
                {
                  "internalType": "uint256",
                  "name": "gameId",
                  "type": "uint256"
                },
                {
                  "internalType": "uint256",
                  "name": "lobbyId",
                  "type": "uint256"
                },
                {
                  "internalType": "address",
                  "name": "creator",
                  "type": "address"
                },
                {
                  "internalType": "address",
                  "name": "joiner",
                  "type": "address"
                },
                {
                  "internalType": "uint256",
                  "name": "creatorFleetId",
                  "type": "uint256"
                },
                {
                  "internalType": "uint256",
                  "name": "joinerFleetId",
                  "type": "uint256"
                },
                {
                  "internalType": "bool",
                  "name": "creatorGoesFirst",
                  "type": "bool"
                },
                {
                  "internalType": "uint256",
                  "name": "startedAt",
                  "type": "uint256"
                },
                {
                  "internalType": "address",
                  "name": "winner",
                  "type": "address"
                }
              ],
              "internalType": "struct GameMetadata",
              "name": "metadata",
              "type": "tuple"
            },
            {
              "components": [
                {
                  "internalType": "address",
                  "name": "currentTurn",
                  "type": "address"
                },
                {
                  "internalType": "uint256",
                  "name": "turnTime",
                  "type": "uint256"
                },
                {
                  "internalType": "uint256",
                  "name": "turnStartTime",
                  "type": "uint256"
                },
                {
                  "internalType": "uint256",
                  "name": "currentRound",
                  "type": "uint256"
                }
              ],
              "internalType": "struct GameTurnState",
              "name": "turnState",
              "type": "tuple"
            },
            {
              "components": [
                {
                  "internalType": "int16",
                  "name": "gridWidth",
                  "type": "int16"
                },
                {
                  "internalType": "int16",
                  "name": "gridHeight",
                  "type": "int16"
                }
              ],
              "internalType": "struct GameGridDimensions",
              "name": "gridDimensions",
              "type": "tuple"
            },
            {
              "internalType": "uint256",
              "name": "maxScore",
              "type": "uint256"
            },
            {
              "internalType": "uint256",
              "name": "creatorScore",
              "type": "uint256"
            },
            {
              "internalType": "uint256",
              "name": "joinerScore",
              "type": "uint256"
            },
            {
              "components": [
                {
                  "internalType": "uint16",
                  "name": "version",
                  "type": "uint16"
                },
                {
                  "internalType": "uint8",
                  "name": "range",
                  "type": "uint8"
                },
                {
                  "internalType": "uint8",
                  "name": "gunDamage",
                  "type": "uint8"
                },
                {
                  "internalType": "uint8",
                  "name": "hullPoints",
                  "type": "uint8"
                },
                {
                  "internalType": "uint8",
                  "name": "maxHullPoints",
                  "type": "uint8"
                },
                {
                  "internalType": "uint8",
                  "name": "movement",
                  "type": "uint8"
                },
                {
                  "internalType": "uint8",
                  "name": "damageReduction",
                  "type": "uint8"
                },
                {
                  "internalType": "uint8",
                  "name": "reactorCriticalTimer",
                  "type": "uint8"
                },
                {
                  "internalType": "uint8[]",
                  "name": "statusEffects",
                  "type": "uint8[]"
                }
              ],
              "internalType": "struct Attributes[]",
              "name": "shipAttributes",
              "type": "tuple[]"
            },
            {
              "components": [
                {
                  "internalType": "uint256",
                  "name": "shipId",
                  "type": "uint256"
                },
                {
                  "components": [
                    {
                      "internalType": "int16",
                      "name": "row",
                      "type": "int16"
                    },
                    {
                      "internalType": "int16",
                      "name": "col",
                      "type": "int16"
                    }
                  ],
                  "internalType": "struct Position",
                  "name": "position",
                  "type": "tuple"
                },
                {
                  "internalType": "bool",
                  "name": "isCreator",
                  "type": "bool"
                }
              ],
              "internalType": "struct ShipPosition[]",
              "name": "shipPositions",
              "type": "tuple[]"
            },
            {
              "internalType": "uint256[]",
              "name": "creatorActiveShipIds",
              "type": "uint256[]"
            },
            {
              "internalType": "uint256[]",
              "name": "joinerActiveShipIds",
              "type": "uint256[]"
            }
          ],
          "internalType": "struct GameDataView",
          "name": "",
          "type": "tuple"
        }
      ],
      "stateMutability": "view",
      "type": "function"
    },
    {
      "inputs": [
        {
          "internalType": "address",
          "name": "_player",
          "type": "address"
        }
      ],
      "name": "getGamesForPlayer",
      "outputs": [
        {
          "components": [
            {
              "components": [
                {
                  "internalType": "uint256",
                  "name": "gameId",
                  "type": "uint256"
                },
                {
                  "internalType": "uint256",
                  "name": "lobbyId",
                  "type": "uint256"
                },
                {
                  "internalType": "address",
                  "name": "creator",
                  "type": "address"
                },
                {
                  "internalType": "address",
                  "name": "joiner",
                  "type": "address"
                },
                {
                  "internalType": "uint256",
                  "name": "creatorFleetId",
                  "type": "uint256"
                },
                {
                  "internalType": "uint256",
                  "name": "joinerFleetId",
                  "type": "uint256"
                },
                {
                  "internalType": "bool",
                  "name": "creatorGoesFirst",
                  "type": "bool"
                },
                {
                  "internalType": "uint256",
                  "name": "startedAt",
                  "type": "uint256"
                },
                {
                  "internalType": "address",
                  "name": "winner",
                  "type": "address"
                }
              ],
              "internalType": "struct GameMetadata",
              "name": "metadata",
              "type": "tuple"
            },
            {
              "components": [
                {
                  "internalType": "address",
                  "name": "currentTurn",
                  "type": "address"
                },
                {
                  "internalType": "uint256",
                  "name": "turnTime",
                  "type": "uint256"
                },
                {
                  "internalType": "uint256",
                  "name": "turnStartTime",
                  "type": "uint256"
                },
                {
                  "internalType": "uint256",
                  "name": "currentRound",
                  "type": "uint256"
                }
              ],
              "internalType": "struct GameTurnState",
              "name": "turnState",
              "type": "tuple"
            },
            {
              "components": [
                {
                  "internalType": "int16",
                  "name": "gridWidth",
                  "type": "int16"
                },
                {
                  "internalType": "int16",
                  "name": "gridHeight",
                  "type": "int16"
                }
              ],
              "internalType": "struct GameGridDimensions",
              "name": "gridDimensions",
              "type": "tuple"
            },
            {
              "internalType": "uint256",
              "name": "maxScore",
              "type": "uint256"
            },
            {
              "internalType": "uint256",
              "name": "creatorScore",
              "type": "uint256"
            },
            {
              "internalType": "uint256",
              "name": "joinerScore",
              "type": "uint256"
            },
            {
              "components": [
                {
                  "internalType": "uint16",
                  "name": "version",
                  "type": "uint16"
                },
                {
                  "internalType": "uint8",
                  "name": "range",
                  "type": "uint8"
                },
                {
                  "internalType": "uint8",
                  "name": "gunDamage",
                  "type": "uint8"
                },
                {
                  "internalType": "uint8",
                  "name": "hullPoints",
                  "type": "uint8"
                },
                {
                  "internalType": "uint8",
                  "name": "maxHullPoints",
                  "type": "uint8"
                },
                {
                  "internalType": "uint8",
                  "name": "movement",
                  "type": "uint8"
                },
                {
                  "internalType": "uint8",
                  "name": "damageReduction",
                  "type": "uint8"
                },
                {
                  "internalType": "uint8",
                  "name": "reactorCriticalTimer",
                  "type": "uint8"
                },
                {
                  "internalType": "uint8[]",
                  "name": "statusEffects",
                  "type": "uint8[]"
                }
              ],
              "internalType": "struct Attributes[]",
              "name": "shipAttributes",
              "type": "tuple[]"
            },
            {
              "components": [
                {
                  "internalType": "uint256",
                  "name": "shipId",
                  "type": "uint256"
                },
                {
                  "components": [
                    {
                      "internalType": "int16",
                      "name": "row",
                      "type": "int16"
                    },
                    {
                      "internalType": "int16",
                      "name": "col",
                      "type": "int16"
                    }
                  ],
                  "internalType": "struct Position",
                  "name": "position",
                  "type": "tuple"
                },
                {
                  "internalType": "bool",
                  "name": "isCreator",
                  "type": "bool"
                }
              ],
              "internalType": "struct ShipPosition[]",
              "name": "shipPositions",
              "type": "tuple[]"
            },
            {
              "internalType": "uint256[]",
              "name": "creatorActiveShipIds",
              "type": "uint256[]"
            },
            {
              "internalType": "uint256[]",
              "name": "joinerActiveShipIds",
              "type": "uint256[]"
            }
          ],
          "internalType": "struct GameDataView[]",
          "name": "",
          "type": "tuple[]"
        }
      ],
      "stateMutability": "view",
      "type": "function"
    },
    {
      "inputs": [
        {
          "internalType": "uint256[]",
          "name": "_gameIds",
          "type": "uint256[]"
        }
      ],
      "name": "getGamesFromIds",
      "outputs": [
        {
          "components": [
            {
              "components": [
                {
                  "internalType": "uint256",
                  "name": "gameId",
                  "type": "uint256"
                },
                {
                  "internalType": "uint256",
                  "name": "lobbyId",
                  "type": "uint256"
                },
                {
                  "internalType": "address",
                  "name": "creator",
                  "type": "address"
                },
                {
                  "internalType": "address",
                  "name": "joiner",
                  "type": "address"
                },
                {
                  "internalType": "uint256",
                  "name": "creatorFleetId",
                  "type": "uint256"
                },
                {
                  "internalType": "uint256",
                  "name": "joinerFleetId",
                  "type": "uint256"
                },
                {
                  "internalType": "bool",
                  "name": "creatorGoesFirst",
                  "type": "bool"
                },
                {
                  "internalType": "uint256",
                  "name": "startedAt",
                  "type": "uint256"
                },
                {
                  "internalType": "address",
                  "name": "winner",
                  "type": "address"
                }
              ],
              "internalType": "struct GameMetadata",
              "name": "metadata",
              "type": "tuple"
            },
            {
              "components": [
                {
                  "internalType": "address",
                  "name": "currentTurn",
                  "type": "address"
                },
                {
                  "internalType": "uint256",
                  "name": "turnTime",
                  "type": "uint256"
                },
                {
                  "internalType": "uint256",
                  "name": "turnStartTime",
                  "type": "uint256"
                },
                {
                  "internalType": "uint256",
                  "name": "currentRound",
                  "type": "uint256"
                }
              ],
              "internalType": "struct GameTurnState",
              "name": "turnState",
              "type": "tuple"
            },
            {
              "components": [
                {
                  "internalType": "int16",
                  "name": "gridWidth",
                  "type": "int16"
                },
                {
                  "internalType": "int16",
                  "name": "gridHeight",
                  "type": "int16"
                }
              ],
              "internalType": "struct GameGridDimensions",
              "name": "gridDimensions",
              "type": "tuple"
            },
            {
              "internalType": "uint256",
              "name": "maxScore",
              "type": "uint256"
            },
            {
              "internalType": "uint256",
              "name": "creatorScore",
              "type": "uint256"
            },
            {
              "internalType": "uint256",
              "name": "joinerScore",
              "type": "uint256"
            },
            {
              "components": [
                {
                  "internalType": "uint16",
                  "name": "version",
                  "type": "uint16"
                },
                {
                  "internalType": "uint8",
                  "name": "range",
                  "type": "uint8"
                },
                {
                  "internalType": "uint8",
                  "name": "gunDamage",
                  "type": "uint8"
                },
                {
                  "internalType": "uint8",
                  "name": "hullPoints",
                  "type": "uint8"
                },
                {
                  "internalType": "uint8",
                  "name": "maxHullPoints",
                  "type": "uint8"
                },
                {
                  "internalType": "uint8",
                  "name": "movement",
                  "type": "uint8"
                },
                {
                  "internalType": "uint8",
                  "name": "damageReduction",
                  "type": "uint8"
                },
                {
                  "internalType": "uint8",
                  "name": "reactorCriticalTimer",
                  "type": "uint8"
                },
                {
                  "internalType": "uint8[]",
                  "name": "statusEffects",
                  "type": "uint8[]"
                }
              ],
              "internalType": "struct Attributes[]",
              "name": "shipAttributes",
              "type": "tuple[]"
            },
            {
              "components": [
                {
                  "internalType": "uint256",
                  "name": "shipId",
                  "type": "uint256"
                },
                {
                  "components": [
                    {
                      "internalType": "int16",
                      "name": "row",
                      "type": "int16"
                    },
                    {
                      "internalType": "int16",
                      "name": "col",
                      "type": "int16"
                    }
                  ],
                  "internalType": "struct Position",
                  "name": "position",
                  "type": "tuple"
                },
                {
                  "internalType": "bool",
                  "name": "isCreator",
                  "type": "bool"
                }
              ],
              "internalType": "struct ShipPosition[]",
              "name": "shipPositions",
              "type": "tuple[]"
            },
            {
              "internalType": "uint256[]",
              "name": "creatorActiveShipIds",
              "type": "uint256[]"
            },
            {
              "internalType": "uint256[]",
              "name": "joinerActiveShipIds",
              "type": "uint256[]"
            }
          ],
          "internalType": "struct GameDataView[]",
          "name": "",
          "type": "tuple[]"
        }
      ],
      "stateMutability": "view",
      "type": "function"
    },
    {
      "inputs": [
        {
          "internalType": "address",
          "name": "_player",
          "type": "address"
        }
      ],
      "name": "getPlayerGameIds",
      "outputs": [
        {
          "internalType": "uint256[]",
          "name": "",
          "type": "uint256[]"
        }
      ],
      "stateMutability": "view",
      "type": "function"
    },
    {
      "inputs": [
        {
          "internalType": "uint256",
          "name": "_gameId",
          "type": "uint256"
        },
        {
          "internalType": "uint256",
          "name": "_shipId",
          "type": "uint256"
        }
      ],
      "name": "getShipAttributes",
      "outputs": [
        {
          "components": [
            {
              "internalType": "uint16",
              "name": "version",
              "type": "uint16"
            },
            {
              "internalType": "uint8",
              "name": "range",
              "type": "uint8"
            },
            {
              "internalType": "uint8",
              "name": "gunDamage",
              "type": "uint8"
            },
            {
              "internalType": "uint8",
              "name": "hullPoints",
              "type": "uint8"
            },
            {
              "internalType": "uint8",
              "name": "maxHullPoints",
              "type": "uint8"
            },
            {
              "internalType": "uint8",
              "name": "movement",
              "type": "uint8"
            },
            {
              "internalType": "uint8",
              "name": "damageReduction",
              "type": "uint8"
            },
            {
              "internalType": "uint8",
              "name": "reactorCriticalTimer",
              "type": "uint8"
            },
            {
              "internalType": "uint8[]",
              "name": "statusEffects",
              "type": "uint8[]"
            }
          ],
          "internalType": "struct Attributes",
          "name": "",
          "type": "tuple"
        }
      ],
      "stateMutability": "view",
      "type": "function"
    },
    {
      "inputs": [
        {
          "internalType": "uint256",
          "name": "target",
          "type": "uint256"
        }
      ],
      "name": "lastDamage",
      "outputs": [
        {
          "internalType": "uint256",
          "name": "lastDamager",
          "type": "uint256"
        }
      ],
      "stateMutability": "view",
      "type": "function"
    },
    {
      "inputs": [],
      "name": "lobbiesAddress",
      "outputs": [
        {
          "internalType": "address",
          "name": "",
          "type": "address"
        }
      ],
      "stateMutability": "view",
      "type": "function"
    },
    {
      "inputs": [],
      "name": "maps",
      "outputs": [
        {
          "internalType": "contract IMaps",
          "name": "",
          "type": "address"
        }
      ],
      "stateMutability": "view",
      "type": "function"
    },
    {
      "inputs": [
        {
          "internalType": "uint256",
          "name": "_gameId",
          "type": "uint256"
        },
        {
          "internalType": "uint256",
          "name": "_shipId",
          "type": "uint256"
        },
        {
          "internalType": "int16",
          "name": "_newRow",
          "type": "int16"
        },
        {
          "internalType": "int16",
          "name": "_newCol",
          "type": "int16"
        },
        {
          "internalType": "enum ActionType",
          "name": "actionType",
          "type": "uint8"
        },
        {
          "internalType": "uint256",
          "name": "targetShipId",
          "type": "uint256"
        }
      ],
      "name": "moveShip",
      "outputs": [],
      "stateMutability": "nonpayable",
      "type": "function"
    },
    {
      "inputs": [],
      "name": "owner",
      "outputs": [
        {
          "internalType": "address",
          "name": "",
          "type": "address"
        }
      ],
      "stateMutability": "view",
      "type": "function"
    },
    {
      "inputs": [
        {
          "internalType": "address",
          "name": "",
          "type": "address"
        },
        {
          "internalType": "uint256",
          "name": "",
          "type": "uint256"
        }
      ],
      "name": "playerGames",
      "outputs": [
        {
          "internalType": "uint256",
          "name": "",
          "type": "uint256"
        }
      ],
      "stateMutability": "view",
      "type": "function"
    },
    {
      "inputs": [],
      "name": "renounceOwnership",
      "outputs": [],
      "stateMutability": "nonpayable",
      "type": "function"
    },
    {
      "inputs": [
        {
          "internalType": "address",
          "name": "_mapsAddress",
          "type": "address"
        },
        {
          "internalType": "address",
          "name": "_lobbiesAddress",
          "type": "address"
        },
        {
          "internalType": "address",
          "name": "_fleetsAddress",
          "type": "address"
        },
        {
          "internalType": "address",
          "name": "_gameResultsAddress",
          "type": "address"
        },
        {
          "internalType": "address",
          "name": "_shipAttributesAddress",
          "type": "address"
        }
      ],
      "name": "setAddresses",
      "outputs": [],
      "stateMutability": "nonpayable",
      "type": "function"
    },
    {
      "inputs": [],
      "name": "shipAttributes",
      "outputs": [
        {
          "internalType": "contract IShipAttributes",
          "name": "",
          "type": "address"
        }
      ],
      "stateMutability": "view",
      "type": "function"
    },
    {
      "inputs": [],
      "name": "ships",
      "outputs": [
        {
          "internalType": "contract IShips",
          "name": "",
          "type": "address"
        }
      ],
      "stateMutability": "view",
      "type": "function"
    },
    {
      "inputs": [
        {
          "internalType": "uint256",
          "name": "_lobbyId",
          "type": "uint256"
        },
        {
          "internalType": "address",
          "name": "_creator",
          "type": "address"
        },
        {
          "internalType": "address",
          "name": "_joiner",
          "type": "address"
        },
        {
          "internalType": "uint256",
          "name": "_creatorFleetId",
          "type": "uint256"
        },
        {
          "internalType": "uint256",
          "name": "_joinerFleetId",
          "type": "uint256"
        },
        {
          "internalType": "bool",
          "name": "_creatorGoesFirst",
          "type": "bool"
        },
        {
          "internalType": "uint256",
          "name": "_turnTime",
          "type": "uint256"
        },
        {
          "internalType": "uint256",
          "name": "_selectedMapId",
          "type": "uint256"
        },
        {
          "internalType": "uint256",
          "name": "_maxScore",
          "type": "uint256"
        }
      ],
      "name": "startGame",
      "outputs": [],
      "stateMutability": "nonpayable",
      "type": "function"
    },
    {
      "inputs": [
        {
          "internalType": "address",
          "name": "newOwner",
          "type": "address"
        }
      ],
      "name": "transferOwnership",
      "outputs": [],
      "stateMutability": "nonpayable",
      "type": "function"
    }
  ],
  "bytecode": "0x608060405234801561001057600080fd5b5060405161602d38038061602d83398101604081905261002f916100fc565b338061005557604051631e4fbdf760e01b81526000600482015260240160405180910390fd5b61005e81610090565b50600180546001600160a01b039384166001600160a01b0319918216179091556003805492909316911617905561012f565b600080546001600160a01b038381166001600160a01b0319831681178455604051919092169283917f8be0079c531659141344cd1fd0a4f28419497f9722a3daafe3b4186f6b6457e09190a35050565b80516001600160a01b03811681146100f757600080fd5b919050565b6000806040838503121561010f57600080fd5b610118836100e0565b9150610126602084016100e0565b90509250929050565b615eef8061013e6000396000f3fe608060405234801561001057600080fd5b50600436106101fb5760003560e01c80635dd68acd1161011a5780639c91fe67116100ad578063d78ffe581161007c578063d78ffe5814610572578063e8d64aee14610585578063ecd1406d14610598578063edf59b3c146105ab578063f2fde38b146105be57600080fd5b80639c91fe6714610526578063bbf8218a14610539578063beaa8fa41461054c578063ce720bca1461055f57600080fd5b80637c767cb9116100e95780637c767cb9146104cf57806384cb37ea146104e25780638da5cb5b146104f557806390de1d9b1461050657600080fd5b80635dd68acd146104815780636eb0f9d214610494578063715018a6146104a75780637b2fe23b146104af57600080fd5b80633deaec2b116101925780634bf11ad2116101615780634bf11ad21461043d5780634d1975b41461044557806355cebda81461044e578063566adcd01461046157600080fd5b80633deaec2b146103e457806341f5f5e9146103f7578063423bb46f1461040a57806348915d911461042a57600080fd5b8063179c0318116101ce578063179c03181461036b57806318d7261d1461038b578063235e78eb1461039e578063336d7d7b146103b957600080fd5b80630a5694c2146102005780630aa1b26614610226578063100017cb14610246578063117a5b901461025b575b600080fd5b61021361020e366004614df5565b6105d1565b6040519081526020015b60405180910390f35b610239610234366004614e21565b610602565b60405161021d91906151a5565b61025961025436600461520a565b610621565b005b61035961026936600461522c565b600760208181526000928352604092839020835161012081018552815481526001808301548285015260028301546001600160a01b0390811683880152600384015481166060808501919091526004850154608080860191909152600586015460a0860152600686015460ff16151560c08601529685015460e0850152600885015482166101008501528751968701885260098501549091168652600a84015486860152600b84015486880152600c840154908601528551808701909652600d83015480820b8752620100009004900b92850192909252600e810154600f82015460109092015492949290919086565b60405161021d96959493929190615245565b61037e610379366004615401565b610637565b60405161021d9190615471565b61025961039936600461520a565b610ced565b6103a6603c81565b60405160019190910b815260200161021d565b6005546103cc906001600160a01b031681565b6040516001600160a01b03909116815260200161021d565b6004546103cc906001600160a01b031681565b6003546103cc906001600160a01b031681565b61041d61041836600461520a565b610d42565b60405161021d9190615484565b6002546103cc906001600160a01b031681565b6103a6602881565b61021360085481565b61025961045c36600461520a565b610eb9565b61047461046f36600461522c565b61102d565b60405161021d9190615497565b61025961048f3660046154aa565b611228565b6102396104a236600461551b565b61128f565b610259611394565b6104c26104bd366004614e21565b6113a8565b60405161021d919061554f565b6102596104dd366004615579565b611414565b6102596104f036600461522c565b6114b6565b6000546001600160a01b03166103cc565b61021361051436600461522c565b600a6020526000908152604090205481565b6102596105343660046155bf565b611583565b6001546103cc906001600160a01b031681565b61025961055a366004615605565b6115ba565b6006546103cc906001600160a01b031681565b61025961058036600461522c565b611b52565b61025961059336600461567a565b611c32565b6102596105a636600461570f565b611e66565b6102596105b936600461520a565b611eae565b6102596105cc366004614e21565b611eeb565b600960205281600052604060002081815481106105ed57600080fd5b90600052602060002001600091509150505481565b6060600061060f836113a8565b905061061a8161128f565b9392505050565b610629611f2e565b6106338282611f5b565b5050565b61063f614ba9565b600084815260076020526040812054900361066d576040516309b3c62760e21b815260040160405180910390fd5b60008481526007602052604081208351855191929161068c919061575e565b90506000816001600160401b038111156106a8576106a86152be565b6040519080825280602002602001820160405280156106e157816020015b6106ce614c74565b8152602001906001900390816106c65790505b50905060005b86518110156108355783601101600088838151811061070857610708615771565b6020908102919091018101518252818101929092526040908101600020815161012081018352815461ffff8116825260ff62010000820481168387015263010000008204811683860152600160201b820481166060840152600160281b820481166080840152600160301b8204811660a0840152600160381b8204811660c0840152600160401b9091041660e08201526001820180548451818702810187019095528085529194929361010086019390929083018282801561080757602002820191906000526020600020906000905b825461010083900a900460ff168152602060019283018181049485019490930390920291018084116107d85790505b50505050508152505082828151811061082257610822615771565b60209081029190910101526001016106e7565b5060005b85518110156109935783601101600087838151811061085a5761085a615771565b6020908102919091018101518252818101929092526040908101600020815161012081018352815461ffff8116825260ff62010000820481168387015263010000008204811683860152600160201b820481166060840152600160281b820481166080840152600160301b8204811660a0840152600160381b8204811660c0840152600160401b9091041660e08201526001820180548451818702810187019095528085529194929361010086019390929083018282801561095957602002820191906000526020600020906000905b825461010083900a900460ff1681526020600192830181810494850194909303909202910180841161092a5790505b50505050508152505082828951610970919061575e565b8151811061098057610980615771565b6020908102919091010152600101610839565b50600061099f8861102d565b60028501546001600160a01b0390811660009081526015870160205260408082206003890154909316825281209293509091906109db83612262565b6001600160401b038111156109f2576109f26152be565b604051908082528060200260200182016040528015610a1b578160200160208202803683370190505b5090506000610a2983612262565b6001600160401b03811115610a4057610a406152be565b604051908082528060200260200182016040528015610a69578160200160208202803683370190505b5090506000610a7785612262565b905060005b81811015610ab357610a8e868261226c565b848281518110610aa057610aa0615771565b6020908102919091010152600101610a7c565b506000610abf85612262565b905060005b81811015610afb57610ad6868261226c565b848281518110610ae857610ae8615771565b6020908102919091010152600101610ac4565b506040518061014001604052808b6000016040518061012001604052908160008201548152602001600182015481526020016002820160009054906101000a90046001600160a01b03166001600160a01b03166001600160a01b031681526020016003820160009054906101000a90046001600160a01b03166001600160a01b03166001600160a01b0316815260200160048201548152602001600582015481526020016006820160009054906101000a900460ff16151515158152602001600782015481526020016008820160009054906101000a90046001600160a01b03166001600160a01b03166001600160a01b03168152505081526020018b6009016040518060800160405290816000820160009054906101000a90046001600160a01b03166001600160a01b03166001600160a01b03168152602001600182015481526020016002820154815260200160038201548152505081526020018b600d016040518060400160405290816000820160009054906101000a900460010b60010b60010b81526020016000820160029054906101000a900460010b60010b60010b8152505081526020018b600e015481526020018b600f015481526020018b601001548152602001898152602001888152602001858152602001848152509a50505050505050505050509392505050565b610cf5611f2e565b6000918252600760209081526040808420838552601181018352818520805464ff0000000019169055600c810154855260140182528084209284529190529020805460ff19166001179055565b610d4a614c74565b6000838152600760205260408120549003610d78576040516309b3c62760e21b815260040160405180910390fd5b600083815260076020908152604080832085845260110190915281208054909161ffff9091169003610dbd576040516303c113ad60e61b815260040160405180910390fd5b6040805161012081018252825461ffff8116825260ff620100008204811660208085019190915263010000008304821684860152600160201b830482166060850152600160281b830482166080850152600160301b8304821660a0850152600160381b8304821660c0850152600160401b9092041660e083015260018401805484518184028101840190955280855292938593610100860193919291830182828015610ea657602002820191906000526020600020906000905b825461010083900a900460ff16815260206001928301818104948501949093039092029101808411610e775790505b5050505050815250509150505b92915050565b600082815260076020908152604080832084845260118101909252808320600354915163e197c62760e01b8152600481018690529293909290916001600160a01b03169063e197c62790602401600060405180830381865afa158015610f23573d6000803e3d6000fd5b505050506040513d6000823e601f3d908101601f19168201604052610f4b919081019061580b565b8051835460208084015160408501516060860151608087015160a088015160c089015160ff908116600160381b0267ff0000000000000019928216600160301b0266ff00000000000019948316600160281b029490941666ffff000000000019958316600160201b0264ff00000000199784166301000000029790971664ffff0000001993909816620100000262ffffff19909a1661ffff909b169a909a17989098171694909417929092171694909417939093179290921617845561010082015180519293506110259260018601929190910190614cc2565b505050505050565b6000818152600760205260408120546060910361105d576040516309b3c62760e21b815260040160405180910390fd5b600082815260076020526040812090805b6028600182900b12156110e65760005b603c600182900b12156110dd57600182810b600090815260128601602090815260408083209385900b8352929052205480158015906110c157506110c181612278565b156110d457836110d081615905565b9450505b5060010161107e565b5060010161106e565b506000816001600160401b03811115611101576111016152be565b60405190808252806020026020018201604052801561113a57816020015b611127614d68565b81526020019060019003908161111f5790505b5090506000805b6028600182900b121561121d5760005b603c600182900b121561121457600182810b600090815260128801602090815260408083209385900b835292905220548015801590611194575061119481612278565b1561120b5760006111a58a836122ed565b9050604051806060016040528083815260200160405180604001604052808760010b81526020018660010b81525081526020018215158152508686815181106111f0576111f0615771565b6020026020010181905250848061120690615905565b955050505b50600101611151565b50600101611141565b509095945050505050565b611230611f2e565b600480546001600160a01b03199081166001600160a01b03978816179091556005805482169587169590951790945560028054851693861693909317909255600680548416918516919091179055600380549092169216919091179055565b6060600082516001600160401b038111156112ac576112ac6152be565b6040519080825280602002602001820160405280156112e557816020015b6112d2614ba9565b8152602001906001900390816112ca5790505b50905060005b835181101561138d5761136884828151811061130957611309615771565b602002602001015160006001600160401b0381111561132a5761132a6152be565b604051908082528060200260200182016040528015611353578160200160208202803683370190505b50604080516000815260208101909152610637565b82828151811061137a5761137a615771565b60209081029190910101526001016112eb565b5092915050565b61139c611f2e565b6113a66000612329565b565b6001600160a01b03811660009081526009602090815260409182902080548351818402810184019094528084526060939283018282801561140857602002820191906000526020600020905b8154815260200190600101908083116113f4575b50505050509050919050565b61141c611f2e565b6000938452600760209081526040808620858752601381018084528288208054600181810b8b526012909401808752858b206201000092839004860b8c528752858b208b90558551808701875298850b808a529790940b8887018181528a8c5293875297518254935161ffff90811690920263ffffffff199094169116179190911790559286529181528185209285529190915290912055565b600081815260076020526040902060088101546001600160a01b0316156114f0576040516321e08b4d60e21b815260040160405180910390fd5b60028101546001600160a01b0316331480159061151a575060038101546001600160a01b03163314155b156115385760405163218286cb60e11b815260040160405180910390fd5b60028101546000906001600160a01b031633146115625760028201546001600160a01b0316611571565b60038201546001600160a01b03165b905061157e838233612379565b505050565b60005b815181101561157e576115b2838383815181106115a5576115a5615771565b6020026020010151610eb9565b600101611586565b60008681526007602052604081205490036115e8576040516309b3c62760e21b815260040160405180910390fd5b600086815260076020526040902060088101546001600160a01b031615611622576040516321e08b4d60e21b815260040160405180910390fd5b60098101546001600160a01b0316331461164f57604051631cc191eb60e31b815260040160405180910390fd5b600154604051634025b22d60e01b8152600481018890526000916001600160a01b031690634025b22d90602401600060405180830381865afa158015611699573d6000803e3d6000fd5b505050506040513d6000823e601f3d908101601f191682016040526116c19190810190615b5e565b905080602001516000036116e8576040516303c113ad60e61b815260040160405180910390fd5b60a08101516001600160a01b0316331461171557604051630b18e5d760e21b815260040160405180910390fd5b608081015160c001511561173c576040516398586ca160e01b815260040160405180910390fd5b6000878152601183016020526040812080549091600160201b90910460ff16900361177a576040516398586ca160e01b815260040160405180910390fd5b60025460048481015460405162b5e41160e51b815291820152602481018a90526001600160a01b03909116906316bc822090604401602060405180830381865afa1580156117cc573d6000803e3d6000fd5b505050506040513d601f19601f820116820180604052508101906117f09190615c8f565b1580156118785750600254600584015460405162b5e41160e51b81526001600160a01b03909216916316bc822091611835918c90600401918252602082015260400190565b602060405180830381865afa158015611852573d6000803e3d6000fd5b505050506040513d601f19601f820116820180604052508101906118769190615c8f565b155b15611896576040516303c113ad60e61b815260040160405180910390fd5b600c830154600090815260148401602090815260408083208b845290915290205460ff16156118d857604051637d64fb5d60e01b815260040160405180910390fd5b60008881526013840160205260408120805490919060018a810b91900b14801561190f57508154600189810b62010000909204900b145b905080611a1b576040805180820182528354600181810b835262010000909104810b60208084019190915283518085019094528c820b8452908b900b9083015260009161195c9190612469565b60008c8152601188016020526040902080549192509060ff600160301b909104811690831611156119a0576040516321e08b4d60e21b815260040160405180910390fd5b602860018c900b1215806119b95750603c60018b900b12155b156119d75760405163673f032f60e11b815260040160405180910390fd5b60018b810b60009081526012890160209081526040808320938e900b8352929052205415611a1857604051638243205760e01b815260040160405180910390fd5b50505b80611add57604080518082019091528254600181810b835262010000909104900b6020820152611add908c908c908c8c60009485526007602090815260408087208551600190810b895260128201808552838a2097850151820b8a5296845282892089905594850b8089529583528188209390940b8088529282528087208690558051808201825294855284820192835294865260139092019091529190922091518254915161ffff908116620100000263ffffffff19909316911617179055565b600c850154600090815260148601602090815260408083208d84529091529020805460ff19166001179055611b17858c8c8c8c8c8c6124fd565b611b208b6129dd565b15611b3357611b2e8b6129f4565b611b3c565b611b3c8b612a7f565b505042600b909301929092555050505050505050565b6000818152600760205260408120549003611b80576040516309b3c62760e21b815260040160405180910390fd5b611b8981612b47565b611ba65760405163023e733b60e61b815260040160405180910390fd5b600081815260076020526040902060098101546001600160a01b03163303611be157604051631cc191eb60e31b815260040160405180910390fd5b60028101546001600160a01b03163314801590611c0b575060038101546001600160a01b03163314155b15611c295760405163218286cb60e11b815260040160405180910390fd5b61063382612b72565b6005546001600160a01b03163314611c5d57604051638671306560e01b815260040160405180910390fd5b60088054906000611c6d83615905565b90915550506008546000818152600760208190526040909120918255600182018b90556002820180546001600160a01b03808d166001600160a01b031992831617909255600384018054928c1692909116919091179055600482018890556005820187905560068201805487151560ff19909116179055429082015584611cf45787611cf6565b885b6009820180546001600160a01b0319166001600160a01b0392909216919091179055600a810184905542600b8201556001600c820155600d8101805463ffffffff19166228003c179055600e81018290558215611db25760048054600854604051636a5257fd60e11b815292830152602482018590526001600160a01b03169063d4a4affa90604401600060405180830381600087803b158015611d9957600080fd5b505af1158015611dad573d6000803e3d6000fd5b505050505b611dbf6008548888612c02565b611dcc6008548888612dca565b6001600160a01b038981166000818152600960209081526040808320600880548254600180820185559387528587200155958e16808552828520875481549384018255908652948490209091019390935593548451938452908301919091528c9290917f9f0b80476ce7b05cfe8b0800d21f0b0f2704c8eb948fa5d5e87997ec901f96d1910160405180910390a350505050505050505050565b611e6e611f2e565b6000928352600760209081526040808520938552601190930190529120805460ff909216600160401b0268ff000000000000000019909216919091179055565b611eb6611f2e565b6000918252600760209081526040808420600c810154855260140182528084209284529190529020805460ff19166001179055565b611ef3611f2e565b6001600160a01b038116611f2257604051631e4fbdf760e01b8152600060048201526024015b60405180910390fd5b611f2b81612329565b50565b6000546001600160a01b031633146113a65760405163118cdaa760e01b8152336004820152602401611f19565b6000828152600760205260408120549003611f89576040516309b3c62760e21b815260040160405180910390fd5b6000828152600760205260408082206001549151634025b22d60e01b8152600481018590529092916001600160a01b031690634025b22d90602401600060405180830381865afa158015611fe1573d6000803e3d6000fd5b505050506040513d6000823e601f3d908101601f191682016040526120099190810190615b5e565b90508060200151600003612030576040516303c113ad60e61b815260040160405180910390fd5b60025460048381015460405162b5e41160e51b815291820152602481018590526000916001600160a01b0316906316bc822090604401602060405180830381865afa158015612083573d6000803e3d6000fd5b505050506040513d601f19601f820116820180604052508101906120a79190615c8f565b600254600585015460405162b5e41160e51b81529293506000926001600160a01b03909216916316bc8220916120ea918990600401918252602082015260400190565b602060405180830381865afa158015612107573d6000803e3d6000fd5b505050506040513d601f19601f8201168201806040525081019061212b9190615c8f565b905081158015612139575080155b15612157576040516303c113ad60e61b815260040160405180910390fd5b608083015160c001511561217e576040516398586ca160e01b815260040160405180910390fd5b600085815260138501602090815260408083208054600181810b865260128a01855283862062010000909204810b8652908452828520859055600c89015485526014890184528285208a86528452828520805460ff19168217905554600a909352928190205490516311a960cd60e01b81526004810189905260248101919091526001600160a01b03909116906311a960cd90604401600060405180830381600087803b15801561222e57600080fd5b505af1158015612242573d6000803e3d6000fd5b505050506122508787612ed5565b61225987612f33565b50505050505050565b6000610eb3825490565b600061061a8383612fbf565b600154604051639596010160e01b8152600481018390526000916001600160a01b031690639596010190602401602060405180830381865afa1580156122c2573d6000803e3d6000fd5b505050506040513d601f19601f820116820180604052508101906122e69190615c8f565b1592915050565b600082815260076020908152604080832060028101546001600160a01b031684526015810190925282206123219084612fe9565b949350505050565b600080546001600160a01b038381166001600160a01b0319831681178455604051919092169283917f8be0079c531659141344cd1fd0a4f28419497f9722a3daafe3b4186f6b6457e09190a35050565b60008381526007602052604090206008810180546001600160a01b0319166001600160a01b038581169190911790915560065416156124215760065460405163d6c6eb9f60e01b8152600481018690526001600160a01b03858116602483015284811660448301529091169063d6c6eb9f90606401600060405180830381600087803b15801561240857600080fd5b505af115801561241c573d6000803e3d6000fd5b505050505b600281015460048201546124429186916001600160a01b0390911690613001565b600381015460058201546124639186916001600160a01b0390911690613001565b50505050565b600080826000015160010b846000015160010b13612494578351835161248f9190615cac565b6124a2565b825184516124a29190615cac565b90506000836020015160010b856020015160010b136124d457846020015184602001516124cf9190615cac565b6124e8565b836020015185602001516124e89190615cac565b90506124f48183615ccf565b95945050505050565b600154604051634025b22d60e01b8152600481018790526000916001600160a01b031690634025b22d90602401600060405180830381865afa158015612547573d6000803e3d6000fd5b505050506040513d6000823e601f3d908101601f1916820160405261256f9190810190615b5e565b9050600083600581111561258557612585615ce8565b146129d357600183600581111561259e5761259e615ce8565b0361291d57600154604051634025b22d60e01b8152600481018490526000916001600160a01b031690634025b22d90602401600060405180830381865afa1580156125ed573d6000803e3d6000fd5b505050506040513d6000823e601f3d908101601f191682016040526126159190810190615b5e565b9050806020015160000361263c576040516303c113ad60e61b815260040160405180910390fd5b608081015160c0015115612663576040516398586ca160e01b815260040160405180910390fd5b8160a001516001600160a01b03168160a001516001600160a01b03160361269d576040516321e08b4d60e21b815260040160405180910390fd5b604080518082018252600188810b825287810b602080840191909152600087815260138e0182528481208551808701909652805480850b875262010000900490930b9185019190915291929091906126f6908490612469565b60008b815260118e016020526040902080549192509060ff6201000090910481169083161115612739576040516321e08b4d60e21b815260040160405180910390fd5b60018260ff161180156127de5750600480548454604051638383c99560e01b81529283018f905260018d810b60248501528c810b604485015281810b606485015262010000909104900b60848301526001600160a01b031690638383c9959060a401602060405180830381865afa1580156127b8573d6000803e3d6000fd5b505050506040513d601f19601f820116820180604052508101906127dc9190615c8f565b155b156127fc576040516321e08b4d60e21b815260040160405180910390fd5b600087815260118e016020526040812080549091600160201b90910460ff16900361285e578054600160401b900460ff1681600861283983615cfe565b91906101000a81548160ff021916908360ff1602179055505050505050505050612259565b8154815460ff6301000000909204821691600160381b90910416600060646128868385615d1d565b6128909190615d3a565b61289d9060ff8516615d6c565b8454909150600160201b900460ff1661ffff8216106128d857835464ff000000001916845560008b8152600a602052604090208f905561290f565b8354819085906004906128f6908490600160201b900460ff16615d86565b92506101000a81548160ff021916908360ff1602179055505b5050505050505050506129d3565b600283600581111561293157612931615ce8565b036129455761294087876130be565b6129d3565b600383600581111561295957612959615ce8565b0361296b576129408787878786613476565b600483600581111561297f5761297f615ce8565b036129915761294087878787866136eb565b60058360058111156129a5576129a5615ce8565b036129ba57612940878260a00151878761387d565b6040516321e08b4d60e21b815260040160405180910390fd5b5050505050505050565b6000806129ec83613a2b613a7f565b159392505050565b6000818152600760205260409020612a0b82613b6e565b600c81018054906000612a1d83615905565b9190505550612a2b82613d36565b600681015460ff16612a4a5760038101546001600160a01b0316612a59565b60028101546001600160a01b03165b60099190910180546001600160a01b0319166001600160a01b0390921691909117905550565b6000818152600760205260409020600281015460098201546001600160a01b03918216911603612af8576003810154600090612ac59084906001600160a01b0316613ec4565b9050801561157e5760038201546009830180546001600160a01b0319166001600160a01b03909216919091179055505050565b6002810154600090612b149084906001600160a01b0316613ec4565b9050801561157e5760028201546009830180546001600160a01b0319166001600160a01b03909216919091179055505050565b6000818152600760205260408120600a810154600b820154612b69919061575e565b42119392505050565b6000818152600760205260409020600281015460098201546001600160a01b03918216911603612bba576002810154612bb59083906001600160a01b0316613f6f565b612bd3565b6003810154612bd39083906001600160a01b0316613f6f565b612bdc826129dd565b15612bef57612bea826129f4565b612bf8565b612bf882612a7f565b42600b9091015550565b6000838152600760205260408082206002549151634ce29c2760e11b8152600481018690529092916001600160a01b0316906399c5384e90602401600060405180830381865afa158015612c5a573d6000803e3d6000fd5b505050506040513d6000823e601f3d908101601f19168201604052612c829190810190615d9f565b905060005b8151811015612cf35760028301546001600160a01b0316600090815260158401602052604090208251612cd49190849084908110612cc757612cc7615771565b602002602001015161402c565b50612ceb868383815181106115a5576115a5615771565b600101612c87565b50600254604051634ce29c2760e11b8152600481018590526000916001600160a01b0316906399c5384e90602401600060405180830381865afa158015612d3e573d6000803e3d6000fd5b505050506040513d6000823e601f3d908101601f19168201604052612d669190810190615d9f565b905060005b81518110156122595760038401546001600160a01b0316600090815260158501602052604090208251612dab9190849084908110612cc757612cc7615771565b50612dc2878383815181106115a5576115a5615771565b600101612d6b565b600083815260076020908152604080832060028101546001600160a01b031684526015810190925282209091612dff82612262565b905060005b81811015612e40576000612e18848361226c565b90506000612e27836002615e34565b9050612e368983836000614038565b5050600101612e04565b5060038301546001600160a01b03166000908152601584016020526040812090612e6982612262565b905060005b81811015612eca576000612e82848361226c565b90506000612e91836002615e34565b612e9d60016028615cac565b612ea79190615cac565b9050612ec08b8383612ebb6001603c615cac565b614038565b5050600101612e6e565b505050505050505050565b600082815260076020908152604080832060028101546001600160a01b0316845260158101909252909120612f0a9083614128565b5060038101546001600160a01b0316600090815260158201602052604090206124639083614128565b60008181526007602052604090206002810154612f5a9083906001600160a01b0316614134565b612f8057600381015460028201546106339184916001600160a01b039182169116612379565b6003810154612f999083906001600160a01b0316614134565b61063357600281015460038201546106339184916001600160a01b039182169116612379565b6000826000018281548110612fd657612fd6615771565b9060005260206000200154905092915050565b6000818152600183016020526040812054151561061a565b60008381526007602090815260408083206001600160a01b0386168452601581019092528220909161303282612262565b905060005b8181101561225957600061304b848361226c565b6002546040516327ffe52160e01b815260048101899052602481018390529192506001600160a01b0316906327ffe52190604401600060405180830381600087803b15801561309957600080fd5b505af11580156130ad573d6000803e3d6000fd5b505060019093019250613037915050565b60008281526007602052604081205490036130ec576040516309b3c62760e21b815260040160405180910390fd5b6000828152600760205260408082206001549151634025b22d60e01b8152600481018590529092916001600160a01b031690634025b22d90602401600060405180830381865afa158015613144573d6000803e3d6000fd5b505050506040513d6000823e601f3d908101601f1916820160405261316c9190810190615b5e565b90508060200151600003613193576040516303c113ad60e61b815260040160405180910390fd5b60025460048381015460405162b5e41160e51b815291820152602481018590526000916001600160a01b0316906316bc822090604401602060405180830381865afa1580156131e6573d6000803e3d6000fd5b505050506040513d601f19601f8201168201806040525081019061320a9190615c8f565b600254600585015460405162b5e41160e51b81529293506000926001600160a01b03909216916316bc82209161324d918990600401918252602082015260400190565b602060405180830381865afa15801561326a573d6000803e3d6000fd5b505050506040513d601f19601f8201168201806040525081019061328e9190615c8f565b90508115801561329c575080155b156132ba576040516303c113ad60e61b815260040160405180910390fd5b608083015160c00151156132e1576040516398586ca160e01b815260040160405180910390fd5b600085815260138501602090815260408083208054600181810b865260128a01855283862062010000909204810b8652908452828520859055600c89015485526014890184528285208a86529093529220805460ff1916909117905582156133b0576002546004868101546040516327ffe52160e01b815291820152602481018890526001600160a01b03909116906327ffe52190604401600060405180830381600087803b15801561339357600080fd5b505af11580156133a7573d6000803e3d6000fd5b50505050613421565b60025460058601546040516327ffe52160e01b81526001600160a01b03909216916327ffe521916133ee918a90600401918252602082015260400190565b600060405180830381600087803b15801561340857600080fd5b505af115801561341c573d6000803e3d6000fd5b505050505b60008681526011860160205260408120805468ffffffffffffffffff191681559061344f6001830182614daa565b505060008681526013860160205260409020805463ffffffff191690556122508787612ed5565b60008581526007602052604081205490036134a4576040516309b3c62760e21b815260040160405180910390fd5b6000858152600760205260408082206001549151634025b22d60e01b8152600481018590529092916001600160a01b031690634025b22d90602401600060405180830381865afa1580156134fc573d6000803e3d6000fd5b505050506040513d6000823e601f3d908101601f191682016040526135249190810190615b5e565b9050806020015160000361354b576040516303c113ad60e61b815260040160405180910390fd5b608081015160c0015115613572576040516398586ca160e01b815260040160405180910390fd5b600154604051634025b22d60e01b8152600481018890526000916001600160a01b031690634025b22d90602401600060405180830381865afa1580156135bc573d6000803e3d6000fd5b505050506040513d6000823e601f3d908101601f191682016040526135e49190810190615b5e565b90508060a001516001600160a01b03168260a001516001600160a01b031614613620576040516321e08b4d60e21b815260040160405180910390fd5b600084815260118401602052604090208054600160201b900460ff161561365a576040516321e08b4d60e21b815260040160405180910390fd5b600085815260138501602090815260408083208151808301835260018c810b82528b810b828601528351808501909452825480820b8552620100009004900b9383019390935292906136ad908390612469565b90508060ff166001146136d3576040516321e08b4d60e21b815260040160405180910390fd5b6136dd8c896130be565b505050505050505050505050565b600154604051634025b22d60e01b8152600481018390526000916001600160a01b031690634025b22d90602401600060405180830381865afa158015613735573d6000803e3d6000fd5b505050506040513d6000823e601f3d908101601f1916820160405261375d9190810190615b5e565b90508060200151600003613784576040516303c113ad60e61b815260040160405180910390fd5b608081015160c00151156137ab576040516398586ca160e01b815260040160405180910390fd5b600154604051634025b22d60e01b8152600481018790526000916001600160a01b031690634025b22d90602401600060405180830381865afa1580156137f5573d6000803e3d6000fd5b505050506040513d6000823e601f3d908101601f1916820160405261381d9190810190615b5e565b90506000816040015160600151600381111561383b5761383b615ce8565b03613859576040516321e08b4d60e21b815260040160405180910390fd5b6138678786868685876141a5565b61225987878787878660400151606001516142af565b600084815260076020526040808220600480549251630349370d60e41b8152908101889052600186810b602483015285900b60448201529092916001600160a01b03169063349370d0906064016020604051808303816000875af11580156138e9573d6000803e3d6000fd5b505050506040513d601f19601f8201168201806040525081019061390d9190615e4b565b905060ff8116156110255760028201546001600160a01b0390811690861603613952578060ff1682600f016000828254613947919061575e565b909155506139879050565b60038201546001600160a01b0390811690861603613987578060ff16826010016000828254613981919061575e565b90915550505b81600e015482600f01541015806139a6575081600e0154826010015410155b15611025576000826010015483600f015410156139d05760038301546001600160a01b03166139df565b60028301546001600160a01b03165b60028401549091506000906001600160a01b03808416911614613a0f5760028401546001600160a01b0316613a1e565b60038401546001600160a01b03165b90506129d3888383612379565b6000828152600760205260408120613a43848461431a565b613a51576000915050610eb3565b600c810154600090815260149091016020908152604080832085845290915290205460ff1615905092915050565b600082815260076020908152604080832060028101546001600160a01b039081168552601582019093528184206003820154909316845290832090919083613ac683612262565b905060005b81811015613b0c576000613adf858361226c565b9050613aef89828a63ffffffff16565b15613b035760019650505050505050610eb3565b50600101613acb565b506000613b1883612262565b905060005b81811015613b5f576000613b31858361226c565b9050613b418a828b63ffffffff16565b15613b56576001975050505050505050610eb3565b50600101613b1d565b50600098975050505050505050565b60008181526007602052604080822081516064808252610ca0820190935290929181602001602082028036833750505060028301546001600160a01b0316600090815260158401602052604081209192509081613bca82612262565b905060005b81811015613c50576000613be3848361226c565b9050613bee81612278565b8015613c16575060008181526011880160205260409020546003600160401b90910460ff1610155b15613c475780868681518110613c2e57613c2e615771565b602090810291909101015284613c4381615905565b9550505b50600101613bcf565b5060038501546001600160a01b03166000908152601586016020526040812090613c7982612262565b905060005b81811015613cff576000613c92848361226c565b9050613c9d81612278565b8015613cc55750600081815260118a0160205260409020546003600160401b90910460ff1610155b15613cf65780888881518110613cdd57613cdd615771565b602090810291909101015286613cf281615905565b9750505b50600101613c7e565b5060005b85811015612eca57613d2e89888381518110613d2157613d21615771565b6020026020010151611f5b565b600101613d03565b600081815260076020908152604080832060028101546001600160a01b031684526015810190925282209091613d6b82612262565b905060005b81811015613e03576000613d84848361226c565b9050613d8f81612278565b8015613db357506000818152601186016020526040902054600160201b900460ff16155b15613dfa57600081815260118601602052604090208054600160401b900460ff16906008613de083615cfe565b91906101000a81548160ff021916908360ff160217905550505b50600101613d70565b5060038301546001600160a01b03166000908152601584016020526040812090613e2c82612262565b905060005b81811015612259576000613e45848361226c565b9050613e5081612278565b8015613e7457506000818152601188016020526040902054600160201b900460ff16155b15613ebb57600081815260118801602052604090208054600160401b900460ff16906008613ea183615cfe565b91906101000a81548160ff021916908360ff160217905550505b50600101613e31565b60008281526007602090815260408083206001600160a01b038516845260158101909252822082613ef482612262565b905060005b81811015613f62576000613f0d848361226c565b9050613f19888261431a565b8015613f465750600c8501546000908152601486016020908152604080832084845290915290205460ff16155b15613f5957600195505050505050610eb3565b50600101613ef9565b5060009695505050505050565b60008281526007602090815260408083206001600160a01b03851684526015810190925282209091613fa082612262565b905060005b81811015611025576000613fb9848361226c565b9050613fc5878261431a565b8015613ff25750600c8501546000908152601486016020908152604080832084845290915290205460ff16155b1561402357600c850154600090815260148601602090815260408083208484529091529020805460ff191660011790555b50600101613fa5565b600061061a83836143f1565b60008481526007602052604090206028600184900b12158061405f5750603c600183900b12155b1561407d5760405163673f032f60e11b815260040160405180910390fd5b600183810b600090815260128301602090815260408083209386900b83529290522054156140be57604051638243205760e01b815260040160405180910390fd5b600192830b600081815260128301602090815260408083209590960b8083529481528582208790558551808701875292835282810194855295815260139092019094529190912091518254915161ffff908116620100000263ffffffff1990931691161717905550565b600061061a8383614440565b60008281526007602090815260408083206001600160a01b03851684526015810190925282208261416482612262565b905060005b81811015613f6257600061417d848361226c565b9050614189888261431a565b1561419c57600195505050505050610eb3565b50600101614169565b600282604001516060015160038111156141c1576141c1615ce8565b0361421a578160a001516001600160a01b03168160a001516001600160a01b031614614200576040516321e08b4d60e21b815260040160405180910390fd5b61421586868686866040015160600151614533565b611025565b6001826040015160600151600381111561423657614236615ce8565b03614275578160a001516001600160a01b03168160a001516001600160a01b031603614200576040516321e08b4d60e21b815260040160405180910390fd5b6003826040015160600151600381111561429157614291615ce8565b14611025576040516321e08b4d60e21b815260040160405180910390fd5b60028160038111156142c3576142c3615ce8565b036142d2576142158683614646565b60018160038111156142e6576142e6615ce8565b036142f5576142158683614755565b600381600381111561430957614309615ce8565b036129ba5761421586868686614839565b6000828152600760205260408082206001549151634025b22d60e01b815260048101859052909183916001600160a01b0390911690634025b22d90602401600060405180830381865afa158015614375573d6000803e3d6000fd5b505050506040513d6000823e601f3d908101601f1916820160405261439d9190810190615b5e565b9050806080015160c001516000146143ba57600092505050610eb3565b6000848152601183016020526040812054600160201b900460ff1690036143e657600092505050610eb3565b506001949350505050565b600081815260018301602052604081205461443857508154600181810184556000848152602080822090930184905584548482528286019093526040902091909155610eb3565b506000610eb3565b60008181526001830160205260408120548015614529576000614464600183615e68565b855490915060009061447890600190615e68565b90508082146144dd57600086600001828154811061449857614498615771565b90600052602060002001549050808760000184815481106144bb576144bb615771565b6000918252602080832090910192909255918252600188019052604090208390555b85548690806144ee576144ee615e7b565b600190038181906000526020600020016000905590558560010160008681526020019081526020016000206000905560019350505050610eb3565b6000915050610eb3565b60008581526007602090815260408083208584526013810183528184208251808401845260018a810b825289900b948101949094526003549251636759d30960e11b8152919490939290916001600160a01b039091169063ceb3a6129061459e908890600401615e91565b602060405180830381865afa1580156145bb573d6000803e3d6000fd5b505050506040513d601f19601f820116820180604052508101906145df9190615e4b565b604080518082019091528454600181810b835262010000909104900b6020820152909150600090614611908490612469565b90508160ff168160ff16111561463a576040516321e08b4d60e21b815260040160405180910390fd5b50505050505050505050565b6000828152600760209081526040808320848452601181019092528083206003549151633387d11760e11b81529293909290916001600160a01b03169063670fa22e9061469890600290600401615e91565b602060405180830381865afa1580156146b5573d6000803e3d6000fd5b505050506040513d601f19601f820116820180604052508101906146d99190615e4b565b82549091506000906146f6908390600160201b900460ff16615ccf565b835490915060ff600160281b90910481169082161115614734578254600160201b60ff600160281b8304160264ff0000000019909116178355611025565b825460ff8216600160201b0264ff0000000019909116178355505050505050565b6000828152600760209081526040808320848452601181019092528083206003549151633387d11760e11b81529293909290916001600160a01b03169063670fa22e906147a790600190600401615e91565b602060405180830381865afa1580156147c4573d6000803e3d6000fd5b505050506040513d601f19601f820116820180604052508101906147e89190615e4b565b6000858152600a6020526040902085905582549091508190839060089061481a908490600160401b900460ff16615ccf565b92506101000a81548160ff021916908360ff1602179055505050505050565b600084815260076020526040808220600380549251636759d30960e11b81529193926001600160a01b03169163ceb3a6129161487791600401615e91565b602060405180830381865afa158015614894573d6000803e3d6000fd5b505050506040513d601f19601f820116820180604052508101906148b89190615e4b565b60038054604051633387d11760e11b81529293506000926001600160a01b039091169163670fa22e916148ee9190600401615e91565b602060405180830381865afa15801561490b573d6000803e3d6000fd5b505050506040513d601f19601f8201168201806040525081019061492f9190615e4b565b60028401546001600160a01b03166000908152601585016020526040902090915061496590889088908890889087908790614994565b60038301546001600160a01b031660009081526015840160205260409020612259908890889088908890879087905b6000878152600760205260408120906149ac83612262565b60408051808201909152600189810b825288900b602082015290915060005b82811015614b9c5760006149df868361226c565b600154604051634025b22d60e01b8152600481018390529192506000916001600160a01b0390911690634025b22d90602401600060405180830381865afa158015614a2e573d6000803e3d6000fd5b505050506040513d6000823e601f3d908101601f19168201604052614a569190810190615b5e565b9050806080015160c00151600014614a6f575050614b94565b6000828152601187016020526040812054600160201b900460ff169003614a97575050614b94565b6000828152601387016020908152604080832081518083019092528054600181810b845262010000909104900b92820192909252909190614ad9908790612469565b90508a60ff168160ff1611158015614af157508d8414155b15614b8f578d600a600086815260200190815260200160002081905550600088601101600086815260200190815260200160002090508060000160049054906101000a900460ff1660ff168b60ff1610614b5657805464ff0000000019168155614b8d565b80548b908290600490614b74908490600160201b900460ff16615d86565b92506101000a81548160ff021916908360ff1602179055505b505b505050505b6001016149cb565b5050505050505050505050565b604080516102608101825260006101408201818152610160830182905261018083018290526101a083018290526101c083018290526101e083018290526102008301829052610220830182905261024083018290528252825160808101845281815260208082018390528185018390526060820183905280840191909152835180850185528281529081019190915290918201908152602001600081526020016000815260200160008152602001606081526020016060815260200160608152602001606081525090565b604080516101208101825260008082526020820181905291810182905260608082018390526080820183905260a0820183905260c0820183905260e082019290925261010081019190915290565b82805482825590600052602060002090601f01602090048101928215614d585791602002820160005b83821115614d2957835183826101000a81548160ff021916908360ff1602179055509260200192600101602081600001049283019260010302614ceb565b8015614d565782816101000a81549060ff0219169055600101602081600001049283019260010302614d29565b505b50614d64929150614dcb565b5090565b604051806060016040528060008152602001614d9d6040518060400160405280600060010b8152602001600060010b81525090565b8152600060209091015290565b50805460008255601f016020900490600052602060002090810190611f2b91905b5b80821115614d645760008155600101614dcc565b6001600160a01b0381168114611f2b57600080fd5b60008060408385031215614e0857600080fd5b8235614e1381614de0565b946020939093013593505050565b600060208284031215614e3357600080fd5b813561061a81614de0565b805182526020810151602083015260018060a01b03604082015116604083015260018060a01b0360608201511660608301526080810151608083015260a081015160a083015260c0810151614e9760c084018215159052565b5060e081015160e083015261010081015161157e6101008401826001600160a01b03169052565b600081518084526020840193506020830160005b82811015614ef357815160ff16865260209586019590910190600101614ed2565b5093949350505050565b805161ffff16825260006020820151614f1b602085018260ff169052565b506040820151614f30604085018260ff169052565b506060820151614f45606085018260ff169052565b506080820151614f5a608085018260ff169052565b5060a0820151614f6f60a085018260ff169052565b5060c0820151614f8460c085018260ff169052565b5060e0820151614f9960e085018260ff169052565b50610100820151610120610100850152612321610120850182614ebe565b600082825180855260208501945060208160051b8301016020850160005b8381101561500757601f19858403018852614ff1838351614efd565b6020988901989093509190910190600101614fd5565b50909695505050505050565b600081518084526020840193506020830160005b82811015614ef3578151600081518852602082015161505c60208a0182805160010b8252602081015160010b60208301525050565b5050604001511515606087015260809095019460209190910190600101615027565b600081518084526020840193506020830160005b82811015614ef3578151865260209586019590910190600101615092565b6150bb828251614e3e565b60208181015180516001600160a01b031661012085015290810151610140840152604081015161016084015260608101516101808401526000905060408201518051600190810b6101a08601526020820151900b6101c08501525060608201516101e0840152608082015161020084015260a082015161022084015260c08201516102c06102408501526151536102c0850182614fb7565b905060e083015184820361026086015261516d8282615013565b915050610100830151848203610280860152615189828261507e565b9150506101208301518482036102a08601526124f4828261507e565b6000602082016020835280845180835260408501915060408160051b86010192506020860160005b828110156151fe57603f198786030184526151e98583516150b0565b945060209384019391909101906001016151cd565b50929695505050505050565b6000806040838503121561521d57600080fd5b50508035926020909101359150565b60006020828403121561523e57600080fd5b5035919050565b61024081016152548289614e3e565b86516001600160a01b031661012083015260208088015161014084015260408801516101608401526060909701516101808301528551600190810b6101a0840152959096015190940b6101c08501526101e084019290925261020083015261022090910152919050565b634e487b7160e01b600052604160045260246000fd5b60405161012081016001600160401b03811182821017156152f7576152f76152be565b60405290565b60405160c081016001600160401b03811182821017156152f7576152f76152be565b60405160e081016001600160401b03811182821017156152f7576152f76152be565b604051601f8201601f191681016001600160401b0381118282101715615369576153696152be565b604052919050565b60006001600160401b0382111561538a5761538a6152be565b5060051b60200190565b600082601f8301126153a557600080fd5b81356153b86153b382615371565b615341565b8082825260208201915060208360051b8601019250858311156153da57600080fd5b602085015b838110156153f75780358352602092830192016153df565b5095945050505050565b60008060006060848603121561541657600080fd5b8335925060208401356001600160401b0381111561543357600080fd5b61543f86828701615394565b92505060408401356001600160401b0381111561545b57600080fd5b61546786828701615394565b9150509250925092565b60208152600061061a60208301846150b0565b60208152600061061a6020830184614efd565b60208152600061061a6020830184615013565b600080600080600060a086880312156154c257600080fd5b85356154cd81614de0565b945060208601356154dd81614de0565b935060408601356154ed81614de0565b925060608601356154fd81614de0565b9150608086013561550d81614de0565b809150509295509295909350565b60006020828403121561552d57600080fd5b81356001600160401b0381111561554357600080fd5b61232184828501615394565b60208152600061061a602083018461507e565b8035600181900b811461557457600080fd5b919050565b6000806000806080858703121561558f57600080fd5b84359350602085013592506155a660408601615562565b91506155b460608601615562565b905092959194509250565b600080604083850312156155d257600080fd5b8235915060208301356001600160401b038111156155ef57600080fd5b6155fb85828601615394565b9150509250929050565b60008060008060008060c0878903121561561e57600080fd5b863595506020870135945061563560408801615562565b935061564360608801615562565b925060808701356006811061565757600080fd5b9598949750929591949360a090920135925050565b8015158114611f2b57600080fd5b60008060008060008060008060006101208a8c03121561569957600080fd5b8935985060208a01356156ab81614de0565b975060408a01356156bb81614de0565b965060608a0135955060808a0135945060a08a01356156d98161566c565b989b979a5095989497939693955050505060c08201359160e0810135916101009091013590565b60ff81168114611f2b57600080fd5b60008060006060848603121561572457600080fd5b8335925060208401359150604084013561573d81615700565b809150509250925092565b634e487b7160e01b600052601160045260246000fd5b80820180821115610eb357610eb3615748565b634e487b7160e01b600052603260045260246000fd5b805161ffff8116811461557457600080fd5b805161557481615700565b600082601f8301126157b557600080fd5b81516157c36153b382615371565b8082825260208201915060208360051b8601019250858311156157e557600080fd5b602085015b838110156153f75780516157fd81615700565b8352602092830192016157ea565b60006020828403121561581d57600080fd5b81516001600160401b0381111561583357600080fd5b8201610120818503121561584657600080fd5b61584e6152d4565b61585782615787565b815261586560208301615799565b602082015261587660408301615799565b604082015261588760608301615799565b606082015261589860808301615799565b60808201526158a960a08301615799565b60a08201526158ba60c08301615799565b60c08201526158cb60e08301615799565b60e08201526101008201516001600160401b038111156158ea57600080fd5b6158f6868285016157a4565b61010083015250949350505050565b60006001820161591757615917615748565b5060010190565b60048110611f2b57600080fd5b60006080828403121561593d57600080fd5b604051608081016001600160401b038111828210171561595f5761595f6152be565b806040525080915082516159728161591e565b815260208301516159828161591e565b602082015260408301516159958161591e565b604082015260608301516159a88161591e565b6060919091015292915050565b60008183036101608112156159c957600080fd5b6159d16152fd565b83518152915060c0601f19820112156159e957600080fd5b506159f26152fd565b6159fe60208401615787565b81526040830151615a0e81615700565b60208201526060830151615a2181615700565b6040820152615a3260808401615787565b606082015260a0830151615a4581615700565b608082015260c0830151615a5881615700565b60a08201526020820152615a6e60e08301615799565b6040820152615a806101008301615799565b6060820152615a926101208301615799565b6080820152615aa46101408301615799565b60a082015292915050565b80516155748161566c565b600060e08284031215615acc57600080fd5b615ad461531f565b9050815163ffffffff81168114615aea57600080fd5b8152615af860208301615787565b6020820152615b0960408301615787565b6040820152615b1a60608301615aaf565b6060820152615b2b60808301615aaf565b6080820152615b3c60a08301615aaf565b60a082015260c09182015191810191909152919050565b805161557481614de0565b600060208284031215615b7057600080fd5b81516001600160401b03811115615b8657600080fd5b82016103208185031215615b9957600080fd5b615ba16152fd565b81516001600160401b03811115615bb757600080fd5b8201601f81018613615bc857600080fd5b80516001600160401b03811115615be157615be16152be565b615bf4601f8201601f1916602001615341565b818152876020838501011115615c0957600080fd5b60005b82811015615c2857602081850181015183830182015201615c0c565b50600060209282018301528352838101519083015250615c4b856040840161592b565b6040820152615c5d8560c084016159b5565b6060820152615c70856102208401615aba565b6080820152615c826103008301615b53565b60a0820152949350505050565b600060208284031215615ca157600080fd5b815161061a8161566c565b600182810b9082900b03617fff198112617fff82131715610eb357610eb3615748565b60ff8181168382160190811115610eb357610eb3615748565b634e487b7160e01b600052602160045260246000fd5b600060ff821660ff8103615d1457615d14615748565b60010192915050565b61ffff818116838216029081169081811461138d5761138d615748565b600061ffff831680615d5c57634e487b7160e01b600052601260045260246000fd5b8061ffff84160491505092915050565b61ffff8281168282160390811115610eb357610eb3615748565b60ff8281168282160390811115610eb357610eb3615748565b600060208284031215615db157600080fd5b81516001600160401b03811115615dc757600080fd5b8201601f81018413615dd857600080fd5b8051615de66153b382615371565b8082825260208201915060208360051b850101925086831115615e0857600080fd5b6020840193505b82841015615e2a578351825260209384019390910190615e0f565b9695505050505050565b8082028115828204841417610eb357610eb3615748565b600060208284031215615e5d57600080fd5b815161061a81615700565b81810381811115610eb357610eb3615748565b634e487b7160e01b600052603160045260246000fd5b6020810160048310615eb357634e487b7160e01b600052602160045260246000fd5b9190529056fea2646970667358221220f5b83d8e7d3b7b8c19b50e626c3e91bf651f234dcb8d379d9e01c57be25b9d4d64736f6c634300081c0033",
  "linkReferences": {},
  "deployedLinkReferences": {}
}