{
  "_format": "hh-sol-artifact-1",
  "contractName": "Game",
  "sourceName": "contracts/Game.sol",
  "abi": [
    {
      "inputs": [
        {
          "internalType": "address",
          "name": "_ships",
          "type": "address"
        },
        {
          "internalType": "address",
          "name": "_shipAttributes",
          "type": "address"
        }
      ],
      "stateMutability": "nonpayable",
      "type": "constructor"
    },
    {
      "inputs": [],
      "name": "ActionRequired",
      "type": "error"
    },
    {
      "inputs": [],
      "name": "GameNotFound",
      "type": "error"
    },
    {
      "inputs": [],
      "name": "InvalidMove",
      "type": "error"
    },
    {
      "inputs": [],
      "name": "InvalidPosition",
      "type": "error"
    },
    {
      "inputs": [],
      "name": "NotInGame",
      "type": "error"
    },
    {
      "inputs": [],
      "name": "NotLobbiesContract",
      "type": "error"
    },
    {
      "inputs": [],
      "name": "NotYourTurn",
      "type": "error"
    },
    {
      "inputs": [
        {
          "internalType": "address",
          "name": "owner",
          "type": "address"
        }
      ],
      "name": "OwnableInvalidOwner",
      "type": "error"
    },
    {
      "inputs": [
        {
          "internalType": "address",
          "name": "account",
          "type": "address"
        }
      ],
      "name": "OwnableUnauthorizedAccount",
      "type": "error"
    },
    {
      "inputs": [],
      "name": "PositionOccupied",
      "type": "error"
    },
    {
      "inputs": [],
      "name": "ShipAlreadyMoved",
      "type": "error"
    },
    {
      "inputs": [],
      "name": "ShipDestroyed",
      "type": "error"
    },
    {
      "inputs": [],
      "name": "ShipNotFound",
      "type": "error"
    },
    {
      "inputs": [],
      "name": "ShipNotOwned",
      "type": "error"
    },
    {
      "inputs": [],
      "name": "TurnTimeoutExceeded",
      "type": "error"
    },
    {
      "inputs": [],
      "name": "TurnTimeoutNotReached",
      "type": "error"
    },
    {
      "anonymous": false,
      "inputs": [
        {
          "indexed": true,
          "internalType": "uint256",
          "name": "gameId",
          "type": "uint256"
        },
        {
          "indexed": true,
          "internalType": "uint256",
          "name": "lobbyId",
          "type": "uint256"
        },
        {
          "indexed": false,
          "internalType": "address",
          "name": "creator",
          "type": "address"
        },
        {
          "indexed": false,
          "internalType": "address",
          "name": "joiner",
          "type": "address"
        }
      ],
      "name": "GameStarted",
      "type": "event"
    },
    {
      "anonymous": false,
      "inputs": [
        {
          "indexed": true,
          "internalType": "uint256",
          "name": "gameId",
          "type": "uint256"
        }
      ],
      "name": "GameUpdate",
      "type": "event"
    },
    {
      "anonymous": false,
      "inputs": [
        {
          "indexed": true,
          "internalType": "uint256",
          "name": "gameId",
          "type": "uint256"
        },
        {
          "indexed": false,
          "internalType": "uint256",
          "name": "shipId",
          "type": "uint256"
        },
        {
          "indexed": false,
          "internalType": "int16",
          "name": "newRow",
          "type": "int16"
        },
        {
          "indexed": false,
          "internalType": "int16",
          "name": "newCol",
          "type": "int16"
        },
        {
          "indexed": false,
          "internalType": "enum ActionType",
          "name": "actionType",
          "type": "uint8"
        },
        {
          "indexed": false,
          "internalType": "uint256",
          "name": "targetShipId",
          "type": "uint256"
        }
      ],
      "name": "Move",
      "type": "event"
    },
    {
      "anonymous": false,
      "inputs": [
        {
          "indexed": true,
          "internalType": "address",
          "name": "previousOwner",
          "type": "address"
        },
        {
          "indexed": true,
          "internalType": "address",
          "name": "newOwner",
          "type": "address"
        }
      ],
      "name": "OwnershipTransferred",
      "type": "event"
    },
    {
      "inputs": [],
      "name": "GRID_HEIGHT",
      "outputs": [
        {
          "internalType": "int16",
          "name": "",
          "type": "int16"
        }
      ],
      "stateMutability": "view",
      "type": "function"
    },
    {
      "inputs": [],
      "name": "GRID_WIDTH",
      "outputs": [
        {
          "internalType": "int16",
          "name": "",
          "type": "int16"
        }
      ],
      "stateMutability": "view",
      "type": "function"
    },
    {
      "inputs": [
        {
          "internalType": "uint256",
          "name": "_gameId",
          "type": "uint256"
        }
      ],
      "name": "_getShipsWithZeroHP",
      "outputs": [
        {
          "internalType": "uint256[]",
          "name": "",
          "type": "uint256[]"
        }
      ],
      "stateMutability": "view",
      "type": "function"
    },
    {
      "inputs": [
        {
          "internalType": "uint256",
          "name": "_gameId",
          "type": "uint256"
        },
        {
          "internalType": "uint256[]",
          "name": "_shipIds",
          "type": "uint256[]"
        }
      ],
      "name": "calculateFleetAttributes",
      "outputs": [],
      "stateMutability": "nonpayable",
      "type": "function"
    },
    {
      "inputs": [
        {
          "internalType": "uint256",
          "name": "_gameId",
          "type": "uint256"
        },
        {
          "internalType": "uint256",
          "name": "_shipId",
          "type": "uint256"
        }
      ],
      "name": "calculateShipAttributes",
      "outputs": [],
      "stateMutability": "nonpayable",
      "type": "function"
    },
    {
      "inputs": [
        {
          "internalType": "uint256",
          "name": "_gameId",
          "type": "uint256"
        }
      ],
      "name": "debugAutoPassTurn",
      "outputs": [],
      "stateMutability": "nonpayable",
      "type": "function"
    },
    {
      "inputs": [
        {
          "internalType": "uint256",
          "name": "_gameId",
          "type": "uint256"
        },
        {
          "internalType": "uint256",
          "name": "_shipId",
          "type": "uint256"
        }
      ],
      "name": "debugDestroyShip",
      "outputs": [],
      "stateMutability": "nonpayable",
      "type": "function"
    },
    {
      "inputs": [
        {
          "internalType": "uint256",
          "name": "_gameId",
          "type": "uint256"
        }
      ],
      "name": "debugIncrementReactorCriticalTimerForZeroHPShips",
      "outputs": [],
      "stateMutability": "nonpayable",
      "type": "function"
    },
    {
      "inputs": [
        {
          "internalType": "uint256",
          "name": "_gameId",
          "type": "uint256"
        },
        {
          "internalType": "uint256",
          "name": "_shipId",
          "type": "uint256"
        }
      ],
      "name": "debugMarkShipAsMoved",
      "outputs": [],
      "stateMutability": "nonpayable",
      "type": "function"
    },
    {
      "inputs": [
        {
          "internalType": "uint256",
          "name": "_gameId",
          "type": "uint256"
        },
        {
          "internalType": "uint256",
          "name": "_shipId",
          "type": "uint256"
        }
      ],
      "name": "debugSetHullPointsToZero",
      "outputs": [],
      "stateMutability": "nonpayable",
      "type": "function"
    },
    {
      "inputs": [
        {
          "internalType": "uint256",
          "name": "_gameId",
          "type": "uint256"
        },
        {
          "internalType": "uint256",
          "name": "_shipId",
          "type": "uint256"
        },
        {
          "internalType": "uint8",
          "name": "_timer",
          "type": "uint8"
        }
      ],
      "name": "debugSetReactorCriticalTimer",
      "outputs": [],
      "stateMutability": "nonpayable",
      "type": "function"
    },
    {
      "inputs": [
        {
          "internalType": "uint256",
          "name": "_gameId",
          "type": "uint256"
        },
        {
          "internalType": "uint256",
          "name": "_shipId",
          "type": "uint256"
        },
        {
          "internalType": "int16",
          "name": "_row",
          "type": "int16"
        },
        {
          "internalType": "int16",
          "name": "_col",
          "type": "int16"
        }
      ],
      "name": "debugSetShipPosition",
      "outputs": [],
      "stateMutability": "nonpayable",
      "type": "function"
    },
    {
      "inputs": [
        {
          "internalType": "uint256",
          "name": "_gameId",
          "type": "uint256"
        }
      ],
      "name": "flee",
      "outputs": [],
      "stateMutability": "nonpayable",
      "type": "function"
    },
    {
      "inputs": [],
      "name": "fleets",
      "outputs": [
        {
          "internalType": "contract IFleets",
          "name": "",
          "type": "address"
        }
      ],
      "stateMutability": "view",
      "type": "function"
    },
    {
      "inputs": [
        {
          "internalType": "uint256",
          "name": "_gameId",
          "type": "uint256"
        }
      ],
      "name": "forceMoveOnTimeout",
      "outputs": [],
      "stateMutability": "nonpayable",
      "type": "function"
    },
    {
      "inputs": [],
      "name": "gameCount",
      "outputs": [
        {
          "internalType": "uint256",
          "name": "",
          "type": "uint256"
        }
      ],
      "stateMutability": "view",
      "type": "function"
    },
    {
      "inputs": [],
      "name": "gameResults",
      "outputs": [
        {
          "internalType": "contract IGameResults",
          "name": "",
          "type": "address"
        }
      ],
      "stateMutability": "view",
      "type": "function"
    },
    {
      "inputs": [
        {
          "internalType": "uint256",
          "name": "_gameId",
          "type": "uint256"
        }
      ],
      "name": "getAllShipPositions",
      "outputs": [
        {
          "components": [
            {
              "internalType": "uint256",
              "name": "shipId",
              "type": "uint256"
            },
            {
              "components": [
                {
                  "internalType": "int16",
                  "name": "row",
                  "type": "int16"
                },
                {
                  "internalType": "int16",
                  "name": "col",
                  "type": "int16"
                }
              ],
              "internalType": "struct Position",
              "name": "position",
              "type": "tuple"
            },
            {
              "internalType": "bool",
              "name": "isCreator",
              "type": "bool"
            }
          ],
          "internalType": "struct ShipPosition[]",
          "name": "",
          "type": "tuple[]"
        }
      ],
      "stateMutability": "view",
      "type": "function"
    },
    {
      "inputs": [
        {
          "internalType": "uint256",
          "name": "_gameId",
          "type": "uint256"
        }
      ],
      "name": "getGame",
      "outputs": [
        {
          "components": [
            {
              "components": [
                {
                  "internalType": "uint256",
                  "name": "gameId",
                  "type": "uint256"
                },
                {
                  "internalType": "uint256",
                  "name": "lobbyId",
                  "type": "uint256"
                },
                {
                  "internalType": "address",
                  "name": "creator",
                  "type": "address"
                },
                {
                  "internalType": "address",
                  "name": "joiner",
                  "type": "address"
                },
                {
                  "internalType": "uint256",
                  "name": "creatorFleetId",
                  "type": "uint256"
                },
                {
                  "internalType": "uint256",
                  "name": "joinerFleetId",
                  "type": "uint256"
                },
                {
                  "internalType": "bool",
                  "name": "creatorGoesFirst",
                  "type": "bool"
                },
                {
                  "internalType": "uint256",
                  "name": "startedAt",
                  "type": "uint256"
                },
                {
                  "internalType": "address",
                  "name": "winner",
                  "type": "address"
                }
              ],
              "internalType": "struct GameMetadata",
              "name": "metadata",
              "type": "tuple"
            },
            {
              "components": [
                {
                  "internalType": "address",
                  "name": "currentTurn",
                  "type": "address"
                },
                {
                  "internalType": "uint256",
                  "name": "turnTime",
                  "type": "uint256"
                },
                {
                  "internalType": "uint256",
                  "name": "turnStartTime",
                  "type": "uint256"
                },
                {
                  "internalType": "uint256",
                  "name": "currentRound",
                  "type": "uint256"
                }
              ],
              "internalType": "struct GameTurnState",
              "name": "turnState",
              "type": "tuple"
            },
            {
              "components": [
                {
                  "internalType": "int16",
                  "name": "gridWidth",
                  "type": "int16"
                },
                {
                  "internalType": "int16",
                  "name": "gridHeight",
                  "type": "int16"
                }
              ],
              "internalType": "struct GameGridDimensions",
              "name": "gridDimensions",
              "type": "tuple"
            },
            {
              "internalType": "uint256",
              "name": "maxScore",
              "type": "uint256"
            },
            {
              "internalType": "uint256",
              "name": "creatorScore",
              "type": "uint256"
            },
            {
              "internalType": "uint256",
              "name": "joinerScore",
              "type": "uint256"
            },
            {
              "internalType": "uint256[]",
              "name": "shipIds",
              "type": "uint256[]"
            },
            {
              "components": [
                {
                  "internalType": "uint16",
                  "name": "version",
                  "type": "uint16"
                },
                {
                  "internalType": "uint8",
                  "name": "range",
                  "type": "uint8"
                },
                {
                  "internalType": "uint8",
                  "name": "gunDamage",
                  "type": "uint8"
                },
                {
                  "internalType": "uint8",
                  "name": "hullPoints",
                  "type": "uint8"
                },
                {
                  "internalType": "uint8",
                  "name": "maxHullPoints",
                  "type": "uint8"
                },
                {
                  "internalType": "uint8",
                  "name": "movement",
                  "type": "uint8"
                },
                {
                  "internalType": "uint8",
                  "name": "damageReduction",
                  "type": "uint8"
                },
                {
                  "internalType": "uint8",
                  "name": "reactorCriticalTimer",
                  "type": "uint8"
                },
                {
                  "internalType": "uint8[]",
                  "name": "statusEffects",
                  "type": "uint8[]"
                }
              ],
              "internalType": "struct Attributes[]",
              "name": "shipAttributes",
              "type": "tuple[]"
            },
            {
              "components": [
                {
                  "internalType": "uint256",
                  "name": "shipId",
                  "type": "uint256"
                },
                {
                  "components": [
                    {
                      "internalType": "int16",
                      "name": "row",
                      "type": "int16"
                    },
                    {
                      "internalType": "int16",
                      "name": "col",
                      "type": "int16"
                    }
                  ],
                  "internalType": "struct Position",
                  "name": "position",
                  "type": "tuple"
                },
                {
                  "internalType": "bool",
                  "name": "isCreator",
                  "type": "bool"
                }
              ],
              "internalType": "struct ShipPosition[]",
              "name": "shipPositions",
              "type": "tuple[]"
            },
            {
              "internalType": "uint256[]",
              "name": "creatorActiveShipIds",
              "type": "uint256[]"
            },
            {
              "internalType": "uint256[]",
              "name": "joinerActiveShipIds",
              "type": "uint256[]"
            },
            {
              "internalType": "uint256[]",
              "name": "creatorMovedShipIds",
              "type": "uint256[]"
            },
            {
              "internalType": "uint256[]",
              "name": "joinerMovedShipIds",
              "type": "uint256[]"
            }
          ],
          "internalType": "struct GameDataView",
          "name": "",
          "type": "tuple"
        }
      ],
      "stateMutability": "view",
      "type": "function"
    },
    {
      "inputs": [
        {
          "internalType": "address",
          "name": "_player",
          "type": "address"
        }
      ],
      "name": "getGamesForPlayer",
      "outputs": [
        {
          "components": [
            {
              "components": [
                {
                  "internalType": "uint256",
                  "name": "gameId",
                  "type": "uint256"
                },
                {
                  "internalType": "uint256",
                  "name": "lobbyId",
                  "type": "uint256"
                },
                {
                  "internalType": "address",
                  "name": "creator",
                  "type": "address"
                },
                {
                  "internalType": "address",
                  "name": "joiner",
                  "type": "address"
                },
                {
                  "internalType": "uint256",
                  "name": "creatorFleetId",
                  "type": "uint256"
                },
                {
                  "internalType": "uint256",
                  "name": "joinerFleetId",
                  "type": "uint256"
                },
                {
                  "internalType": "bool",
                  "name": "creatorGoesFirst",
                  "type": "bool"
                },
                {
                  "internalType": "uint256",
                  "name": "startedAt",
                  "type": "uint256"
                },
                {
                  "internalType": "address",
                  "name": "winner",
                  "type": "address"
                }
              ],
              "internalType": "struct GameMetadata",
              "name": "metadata",
              "type": "tuple"
            },
            {
              "components": [
                {
                  "internalType": "address",
                  "name": "currentTurn",
                  "type": "address"
                },
                {
                  "internalType": "uint256",
                  "name": "turnTime",
                  "type": "uint256"
                },
                {
                  "internalType": "uint256",
                  "name": "turnStartTime",
                  "type": "uint256"
                },
                {
                  "internalType": "uint256",
                  "name": "currentRound",
                  "type": "uint256"
                }
              ],
              "internalType": "struct GameTurnState",
              "name": "turnState",
              "type": "tuple"
            },
            {
              "components": [
                {
                  "internalType": "int16",
                  "name": "gridWidth",
                  "type": "int16"
                },
                {
                  "internalType": "int16",
                  "name": "gridHeight",
                  "type": "int16"
                }
              ],
              "internalType": "struct GameGridDimensions",
              "name": "gridDimensions",
              "type": "tuple"
            },
            {
              "internalType": "uint256",
              "name": "maxScore",
              "type": "uint256"
            },
            {
              "internalType": "uint256",
              "name": "creatorScore",
              "type": "uint256"
            },
            {
              "internalType": "uint256",
              "name": "joinerScore",
              "type": "uint256"
            },
            {
              "internalType": "uint256[]",
              "name": "shipIds",
              "type": "uint256[]"
            },
            {
              "components": [
                {
                  "internalType": "uint16",
                  "name": "version",
                  "type": "uint16"
                },
                {
                  "internalType": "uint8",
                  "name": "range",
                  "type": "uint8"
                },
                {
                  "internalType": "uint8",
                  "name": "gunDamage",
                  "type": "uint8"
                },
                {
                  "internalType": "uint8",
                  "name": "hullPoints",
                  "type": "uint8"
                },
                {
                  "internalType": "uint8",
                  "name": "maxHullPoints",
                  "type": "uint8"
                },
                {
                  "internalType": "uint8",
                  "name": "movement",
                  "type": "uint8"
                },
                {
                  "internalType": "uint8",
                  "name": "damageReduction",
                  "type": "uint8"
                },
                {
                  "internalType": "uint8",
                  "name": "reactorCriticalTimer",
                  "type": "uint8"
                },
                {
                  "internalType": "uint8[]",
                  "name": "statusEffects",
                  "type": "uint8[]"
                }
              ],
              "internalType": "struct Attributes[]",
              "name": "shipAttributes",
              "type": "tuple[]"
            },
            {
              "components": [
                {
                  "internalType": "uint256",
                  "name": "shipId",
                  "type": "uint256"
                },
                {
                  "components": [
                    {
                      "internalType": "int16",
                      "name": "row",
                      "type": "int16"
                    },
                    {
                      "internalType": "int16",
                      "name": "col",
                      "type": "int16"
                    }
                  ],
                  "internalType": "struct Position",
                  "name": "position",
                  "type": "tuple"
                },
                {
                  "internalType": "bool",
                  "name": "isCreator",
                  "type": "bool"
                }
              ],
              "internalType": "struct ShipPosition[]",
              "name": "shipPositions",
              "type": "tuple[]"
            },
            {
              "internalType": "uint256[]",
              "name": "creatorActiveShipIds",
              "type": "uint256[]"
            },
            {
              "internalType": "uint256[]",
              "name": "joinerActiveShipIds",
              "type": "uint256[]"
            },
            {
              "internalType": "uint256[]",
              "name": "creatorMovedShipIds",
              "type": "uint256[]"
            },
            {
              "internalType": "uint256[]",
              "name": "joinerMovedShipIds",
              "type": "uint256[]"
            }
          ],
          "internalType": "struct GameDataView[]",
          "name": "",
          "type": "tuple[]"
        }
      ],
      "stateMutability": "view",
      "type": "function"
    },
    {
      "inputs": [
        {
          "internalType": "uint256[]",
          "name": "_gameIds",
          "type": "uint256[]"
        }
      ],
      "name": "getGamesFromIds",
      "outputs": [
        {
          "components": [
            {
              "components": [
                {
                  "internalType": "uint256",
                  "name": "gameId",
                  "type": "uint256"
                },
                {
                  "internalType": "uint256",
                  "name": "lobbyId",
                  "type": "uint256"
                },
                {
                  "internalType": "address",
                  "name": "creator",
                  "type": "address"
                },
                {
                  "internalType": "address",
                  "name": "joiner",
                  "type": "address"
                },
                {
                  "internalType": "uint256",
                  "name": "creatorFleetId",
                  "type": "uint256"
                },
                {
                  "internalType": "uint256",
                  "name": "joinerFleetId",
                  "type": "uint256"
                },
                {
                  "internalType": "bool",
                  "name": "creatorGoesFirst",
                  "type": "bool"
                },
                {
                  "internalType": "uint256",
                  "name": "startedAt",
                  "type": "uint256"
                },
                {
                  "internalType": "address",
                  "name": "winner",
                  "type": "address"
                }
              ],
              "internalType": "struct GameMetadata",
              "name": "metadata",
              "type": "tuple"
            },
            {
              "components": [
                {
                  "internalType": "address",
                  "name": "currentTurn",
                  "type": "address"
                },
                {
                  "internalType": "uint256",
                  "name": "turnTime",
                  "type": "uint256"
                },
                {
                  "internalType": "uint256",
                  "name": "turnStartTime",
                  "type": "uint256"
                },
                {
                  "internalType": "uint256",
                  "name": "currentRound",
                  "type": "uint256"
                }
              ],
              "internalType": "struct GameTurnState",
              "name": "turnState",
              "type": "tuple"
            },
            {
              "components": [
                {
                  "internalType": "int16",
                  "name": "gridWidth",
                  "type": "int16"
                },
                {
                  "internalType": "int16",
                  "name": "gridHeight",
                  "type": "int16"
                }
              ],
              "internalType": "struct GameGridDimensions",
              "name": "gridDimensions",
              "type": "tuple"
            },
            {
              "internalType": "uint256",
              "name": "maxScore",
              "type": "uint256"
            },
            {
              "internalType": "uint256",
              "name": "creatorScore",
              "type": "uint256"
            },
            {
              "internalType": "uint256",
              "name": "joinerScore",
              "type": "uint256"
            },
            {
              "internalType": "uint256[]",
              "name": "shipIds",
              "type": "uint256[]"
            },
            {
              "components": [
                {
                  "internalType": "uint16",
                  "name": "version",
                  "type": "uint16"
                },
                {
                  "internalType": "uint8",
                  "name": "range",
                  "type": "uint8"
                },
                {
                  "internalType": "uint8",
                  "name": "gunDamage",
                  "type": "uint8"
                },
                {
                  "internalType": "uint8",
                  "name": "hullPoints",
                  "type": "uint8"
                },
                {
                  "internalType": "uint8",
                  "name": "maxHullPoints",
                  "type": "uint8"
                },
                {
                  "internalType": "uint8",
                  "name": "movement",
                  "type": "uint8"
                },
                {
                  "internalType": "uint8",
                  "name": "damageReduction",
                  "type": "uint8"
                },
                {
                  "internalType": "uint8",
                  "name": "reactorCriticalTimer",
                  "type": "uint8"
                },
                {
                  "internalType": "uint8[]",
                  "name": "statusEffects",
                  "type": "uint8[]"
                }
              ],
              "internalType": "struct Attributes[]",
              "name": "shipAttributes",
              "type": "tuple[]"
            },
            {
              "components": [
                {
                  "internalType": "uint256",
                  "name": "shipId",
                  "type": "uint256"
                },
                {
                  "components": [
                    {
                      "internalType": "int16",
                      "name": "row",
                      "type": "int16"
                    },
                    {
                      "internalType": "int16",
                      "name": "col",
                      "type": "int16"
                    }
                  ],
                  "internalType": "struct Position",
                  "name": "position",
                  "type": "tuple"
                },
                {
                  "internalType": "bool",
                  "name": "isCreator",
                  "type": "bool"
                }
              ],
              "internalType": "struct ShipPosition[]",
              "name": "shipPositions",
              "type": "tuple[]"
            },
            {
              "internalType": "uint256[]",
              "name": "creatorActiveShipIds",
              "type": "uint256[]"
            },
            {
              "internalType": "uint256[]",
              "name": "joinerActiveShipIds",
              "type": "uint256[]"
            },
            {
              "internalType": "uint256[]",
              "name": "creatorMovedShipIds",
              "type": "uint256[]"
            },
            {
              "internalType": "uint256[]",
              "name": "joinerMovedShipIds",
              "type": "uint256[]"
            }
          ],
          "internalType": "struct GameDataView[]",
          "name": "",
          "type": "tuple[]"
        }
      ],
      "stateMutability": "view",
      "type": "function"
    },
    {
      "inputs": [
        {
          "internalType": "address",
          "name": "_player",
          "type": "address"
        }
      ],
      "name": "getPlayerGameIds",
      "outputs": [
        {
          "internalType": "uint256[]",
          "name": "",
          "type": "uint256[]"
        }
      ],
      "stateMutability": "view",
      "type": "function"
    },
    {
      "inputs": [
        {
          "internalType": "uint256",
          "name": "_gameId",
          "type": "uint256"
        },
        {
          "internalType": "uint256",
          "name": "_shipId",
          "type": "uint256"
        }
      ],
      "name": "getShipAttributes",
      "outputs": [
        {
          "components": [
            {
              "internalType": "uint16",
              "name": "version",
              "type": "uint16"
            },
            {
              "internalType": "uint8",
              "name": "range",
              "type": "uint8"
            },
            {
              "internalType": "uint8",
              "name": "gunDamage",
              "type": "uint8"
            },
            {
              "internalType": "uint8",
              "name": "hullPoints",
              "type": "uint8"
            },
            {
              "internalType": "uint8",
              "name": "maxHullPoints",
              "type": "uint8"
            },
            {
              "internalType": "uint8",
              "name": "movement",
              "type": "uint8"
            },
            {
              "internalType": "uint8",
              "name": "damageReduction",
              "type": "uint8"
            },
            {
              "internalType": "uint8",
              "name": "reactorCriticalTimer",
              "type": "uint8"
            },
            {
              "internalType": "uint8[]",
              "name": "statusEffects",
              "type": "uint8[]"
            }
          ],
          "internalType": "struct Attributes",
          "name": "",
          "type": "tuple"
        }
      ],
      "stateMutability": "view",
      "type": "function"
    },
    {
      "inputs": [
        {
          "internalType": "uint256",
          "name": "target",
          "type": "uint256"
        }
      ],
      "name": "lastDamage",
      "outputs": [
        {
          "internalType": "uint256",
          "name": "lastDamager",
          "type": "uint256"
        }
      ],
      "stateMutability": "view",
      "type": "function"
    },
    {
      "inputs": [],
      "name": "lobbiesAddress",
      "outputs": [
        {
          "internalType": "address",
          "name": "",
          "type": "address"
        }
      ],
      "stateMutability": "view",
      "type": "function"
    },
    {
      "inputs": [],
      "name": "maps",
      "outputs": [
        {
          "internalType": "contract IMaps",
          "name": "",
          "type": "address"
        }
      ],
      "stateMutability": "view",
      "type": "function"
    },
    {
      "inputs": [
        {
          "internalType": "uint256",
          "name": "_gameId",
          "type": "uint256"
        },
        {
          "internalType": "uint256",
          "name": "_shipId",
          "type": "uint256"
        },
        {
          "internalType": "int16",
          "name": "_newRow",
          "type": "int16"
        },
        {
          "internalType": "int16",
          "name": "_newCol",
          "type": "int16"
        },
        {
          "internalType": "enum ActionType",
          "name": "actionType",
          "type": "uint8"
        },
        {
          "internalType": "uint256",
          "name": "targetShipId",
          "type": "uint256"
        }
      ],
      "name": "moveShip",
      "outputs": [],
      "stateMutability": "nonpayable",
      "type": "function"
    },
    {
      "inputs": [],
      "name": "owner",
      "outputs": [
        {
          "internalType": "address",
          "name": "",
          "type": "address"
        }
      ],
      "stateMutability": "view",
      "type": "function"
    },
    {
      "inputs": [
        {
          "internalType": "address",
          "name": "",
          "type": "address"
        },
        {
          "internalType": "uint256",
          "name": "",
          "type": "uint256"
        }
      ],
      "name": "playerGames",
      "outputs": [
        {
          "internalType": "uint256",
          "name": "",
          "type": "uint256"
        }
      ],
      "stateMutability": "view",
      "type": "function"
    },
    {
      "inputs": [],
      "name": "renounceOwnership",
      "outputs": [],
      "stateMutability": "nonpayable",
      "type": "function"
    },
    {
      "inputs": [
        {
          "internalType": "address",
          "name": "_mapsAddress",
          "type": "address"
        },
        {
          "internalType": "address",
          "name": "_lobbiesAddress",
          "type": "address"
        },
        {
          "internalType": "address",
          "name": "_fleetsAddress",
          "type": "address"
        },
        {
          "internalType": "address",
          "name": "_gameResultsAddress",
          "type": "address"
        },
        {
          "internalType": "address",
          "name": "_shipAttributesAddress",
          "type": "address"
        }
      ],
      "name": "setAddresses",
      "outputs": [],
      "stateMutability": "nonpayable",
      "type": "function"
    },
    {
      "inputs": [],
      "name": "shipAttributes",
      "outputs": [
        {
          "internalType": "contract IShipAttributes",
          "name": "",
          "type": "address"
        }
      ],
      "stateMutability": "view",
      "type": "function"
    },
    {
      "inputs": [],
      "name": "ships",
      "outputs": [
        {
          "internalType": "contract IShips",
          "name": "",
          "type": "address"
        }
      ],
      "stateMutability": "view",
      "type": "function"
    },
    {
      "inputs": [
        {
          "internalType": "uint256",
          "name": "_lobbyId",
          "type": "uint256"
        },
        {
          "internalType": "address",
          "name": "_creator",
          "type": "address"
        },
        {
          "internalType": "address",
          "name": "_joiner",
          "type": "address"
        },
        {
          "internalType": "uint256",
          "name": "_creatorFleetId",
          "type": "uint256"
        },
        {
          "internalType": "uint256",
          "name": "_joinerFleetId",
          "type": "uint256"
        },
        {
          "internalType": "bool",
          "name": "_creatorGoesFirst",
          "type": "bool"
        },
        {
          "internalType": "uint256",
          "name": "_turnTime",
          "type": "uint256"
        },
        {
          "internalType": "uint256",
          "name": "_selectedMapId",
          "type": "uint256"
        },
        {
          "internalType": "uint256",
          "name": "_maxScore",
          "type": "uint256"
        }
      ],
      "name": "startGame",
      "outputs": [],
      "stateMutability": "nonpayable",
      "type": "function"
    },
    {
      "inputs": [
        {
          "internalType": "address",
          "name": "newOwner",
          "type": "address"
        }
      ],
      "name": "transferOwnership",
      "outputs": [],
      "stateMutability": "nonpayable",
      "type": "function"
    }
  ],
  "bytecode": "0x608060405234801561001057600080fd5b506040516160c83803806160c883398101604081905261002f916100fc565b338061005557604051631e4fbdf760e01b81526000600482015260240160405180910390fd5b61005e81610090565b50600180546001600160a01b039384166001600160a01b0319918216179091556003805492909316911617905561012f565b600080546001600160a01b038381166001600160a01b0319831681178455604051919092169283917f8be0079c531659141344cd1fd0a4f28419497f9722a3daafe3b4186f6b6457e09190a35050565b80516001600160a01b03811681146100f757600080fd5b919050565b6000806040838503121561010f57600080fd5b610118836100e0565b9150610126602084016100e0565b90509250929050565b615f8a8061013e6000396000f3fe608060405234801561001057600080fd5b50600436106102115760003560e01c8063715018a611610125578063bbf8218a116100ad578063e88f1c3e1161007c578063e88f1c3e146104b1578063e8d64aee146104c4578063ecd1406d146104d7578063edf59b3c146104ea578063f2fde38b146104fd57600080fd5b8063bbf8218a14610465578063beaa8fa414610478578063ce720bca1461048b578063d78ffe581461049e57600080fd5b80638da5cb5b116100f45780638da5cb5b146103ee57806390de1d9b146103ff5780639c91fe671461041f578063a2f77bcc14610432578063b0a586021461045257600080fd5b8063715018a6146103ad5780637b2fe23b146103b55780637c767cb9146103c857806384cb37ea146103db57600080fd5b806341f5f5e9116101a85780634d1975b4116101775780634d1975b41461034b57806355cebda814610354578063566adcd0146103675780635dd68acd146103875780636eb0f9d21461039a57600080fd5b806341f5f5e9146102fd578063423bb46f1461031057806348915d91146103305780634bf11ad21461034357600080fd5b8063235e78eb116101e4578063235e78eb14610284578063336d7d7b1461029f5780633deaec2b146102ca5780633e7d9688146102dd57600080fd5b80630a5694c2146102165780630aa1b2661461023c578063100017cb1461025c57806318d7261d14610271575b600080fd5b610229610224366004614e05565b610510565b6040519081526020015b60405180910390f35b61024f61024a366004614e31565b610541565b6040516102339190615209565b61026f61026a36600461526e565b610560565b005b61026f61027f36600461526e565b610576565b61028c601981565b60405160019190910b8152602001610233565b6005546102b2906001600160a01b031681565b6040516001600160a01b039091168152602001610233565b6004546102b2906001600160a01b031681565b6102f06102eb366004615290565b6105a9565b60405161023391906152a9565b6003546102b2906001600160a01b031681565b61032361031e36600461526e565b6105cc565b60405161023391906152e1565b6002546102b2906001600160a01b031681565b61028c600d81565b61022960085481565b61026f61036236600461526e565b610742565b61037a610375366004615290565b6108b6565b60405161023391906152f4565b61026f610395366004615307565b610ab1565b61024f6103a83660046154dd565b610b18565b61026f610bcb565b6102f06103c3366004614e31565b610bdf565b61026f6103d6366004615520565b610c4b565b61026f6103e9366004615290565b610ced565b6000546001600160a01b03166102b2565b61022961040d366004615290565b600a6020526000908152604090205481565b61026f61042d36600461556a565b610de5565b610445610440366004615290565b610e21565b60405161023391906155b0565b61026f610460366004615290565b6114d0565b6001546102b2906001600160a01b031681565b61026f6104863660046155c3565b6114e4565b6006546102b2906001600160a01b031681565b61026f6104ac366004615290565b611a54565b61026f6104bf366004615290565b611b63565b61026f6104d236600461563c565b611b74565b61026f6104e53660046156d1565b611da8565b61026f6104f836600461526e565b611df0565b61026f61050b366004614e31565b611e13565b6009602052816000526040600020818154811061052c57600080fd5b90600052602060002001600091509150505481565b6060600061054e83610bdf565b905061055981610b18565b9392505050565b610568611e53565b6105728282611e80565b5050565b61057e611e53565b60008281526007602052604090206105968383612100565b6105a3816014018361213b565b50505050565b60008181526007602052604090206060906105c690601601612147565b92915050565b6105d4614aad565b6000838152600760205260408120549003610602576040516309b3c62760e21b815260040160405180910390fd5b600083815260076020908152604080832085845260110190915281208054909161ffff9091169003610647576040516303c113ad60e61b815260040160405180910390fd5b6040805161012081018252825461ffff8116825260ff620100008204811660208085019190915263010000008304821684860152600160201b830482166060850152600160281b830482166080850152600160301b8304821660a0850152600160381b8304821660c0850152600160401b9092041660e08301526001840180548451818402810184019095528085529293859361010086019391929183018282801561073057602002820191906000526020600020906000905b825461010083900a900460ff168152602060019283018181049485019490930390920291018084116107015790505b50505050508152505091505092915050565b600082815260076020908152604080832084845260118101909252808320600354915163e197c62760e01b8152600481018690529293909290916001600160a01b03169063e197c62790602401600060405180830381865afa1580156107ac573d6000803e3d6000fd5b505050506040513d6000823e601f3d908101601f191682016040526107d49190810190615793565b8051835460208084015160408501516060860151608087015160a088015160c089015160ff908116600160381b0267ff0000000000000019928216600160301b0266ff00000000000019948316600160281b029490941666ffff000000000019958316600160201b0264ff00000000199784166301000000029790971664ffff0000001993909816620100000262ffffff19909a1661ffff909b169a909a17989098171694909417929092171694909417939093179290921617845561010082015180519293506108ae9260018601929190910190614afb565b505050505050565b600081815260076020526040812054606091036108e6576040516309b3c62760e21b815260040160405180910390fd5b600082815260076020526040812090805b600d600182900b121561096f5760005b6019600182900b121561096657600182810b600090815260128601602090815260408083209385900b83529290522054801580159061094a575061094a816121de565b1561095d5783610959816158a3565b9450505b50600101610907565b506001016108f7565b506000816001600160401b0381111561098a5761098a615378565b6040519080825280602002602001820160405280156109c357816020015b6109b0614ba1565b8152602001906001900390816109a85790505b5090506000805b600d600182900b1215610aa65760005b6019600182900b1215610a9d57600182810b600090815260128801602090815260408083209385900b835292905220548015801590610a1d5750610a1d816121de565b15610a94576000610a2e8a83612253565b9050604051806060016040528083815260200160405180604001604052808760010b81526020018660010b8152508152602001821515815250868681518110610a7957610a796158bc565b60200260200101819052508480610a8f906158a3565b955050505b506001016109da565b506001016109ca565b509095945050505050565b610ab9611e53565b600480546001600160a01b03199081166001600160a01b03978816179091556005805482169587169590951790945560028054851693861693909317909255600680548416918516919091179055600380549092169216919091179055565b6060600082516001600160401b03811115610b3557610b35615378565b604051908082528060200260200182016040528015610b6e57816020015b610b5b614be3565b815260200190600190039081610b535790505b50905060005b8351811015610bc457610b9f848281518110610b9257610b926158bc565b6020026020010151610e21565b828281518110610bb157610bb16158bc565b6020908102919091010152600101610b74565b5092915050565b610bd3611e53565b610bdd600061228f565b565b6001600160a01b038116600090815260096020908152604091829020805483518184028101840190945280845260609392830182828015610c3f57602002820191906000526020600020905b815481526020019060010190808311610c2b575b50505050509050919050565b610c53611e53565b6000938452600760209081526040808620858752601381018084528288208054600181810b8b526012909401808752858b206201000092839004860b8c528752858b208b90558551808701875298850b808a529790940b8887018181528a8c5293875297518254935161ffff90811690920263ffffffff199094169116179190911790559286529181528185209285529190915290912055565b600081815260076020526040902060088101546001600160a01b031615610d27576040516321e08b4d60e21b815260040160405180910390fd5b60028101546001600160a01b03163314801590610d51575060038101546001600160a01b03163314155b15610d6f5760405163218286cb60e11b815260040160405180910390fd5b60028101546000906001600160a01b03163314610d995760028201546001600160a01b0316610da8565b60038201546001600160a01b03165b9050610db58382336122df565b60405183907f6a3ca207a2adb9eea136eff413ec2c22f745a146fe60eed5f593fbacb99347d390600090a2505050565b60005b8151811015610e1c57610e1483838381518110610e0757610e076158bc565b6020026020010151610742565b600101610de8565b505050565b610e29614be3565b6000828152600760205260408120549003610e57576040516309b3c62760e21b815260040160405180910390fd5b600082815260076020908152604080832060028101546001600160a01b03908116855260188201909352818420600382015490931684529083209092610e9c83612147565b90506000610ea983612147565b9050600081518351610ebb91906158d2565b90506000816001600160401b03811115610ed757610ed7615378565b604051908082528060200260200182016040528015610f1057816020015b610efd614aad565b815260200190600190039081610ef55790505b5090506000826001600160401b03811115610f2d57610f2d615378565b604051908082528060200260200182016040528015610f56578160200160208202803683370190505b50905060005b85518110156110e157886011016000878381518110610f7d57610f7d6158bc565b6020908102919091018101518252818101929092526040908101600020815161012081018352815461ffff8116825260ff62010000820481168387015263010000008204811683860152600160201b820481166060840152600160281b820481166080840152600160301b8204811660a0840152600160381b8204811660c0840152600160401b9091041660e08201526001820180548451818702810187019095528085529194929361010086019390929083018282801561107c57602002820191906000526020600020906000905b825461010083900a900460ff1681526020600192830181810494850194909303909202910180841161104d5790505b505050505081525050838281518110611097576110976158bc565b60200260200101819052508581815181106110b4576110b46158bc565b60200260200101518282815181106110ce576110ce6158bc565b6020908102919091010152600101610f5c565b5060005b845181101561128257886011016000868381518110611106576111066158bc565b6020908102919091018101518252818101929092526040908101600020815161012081018352815461ffff8116825260ff62010000820481168387015263010000008204811683860152600160201b820481166060840152600160281b820481166080840152600160301b8204811660a0840152600160381b8204811660c0840152600160401b9091041660e08201526001820180548451818702810187019095528085529194929361010086019390929083018282801561120557602002820191906000526020600020906000905b825461010083900a900460ff168152602060019283018181049485019490930390920291018084116111d65790505b5050505050815250508382885161121c91906158d2565b8151811061122c5761122c6158bc565b6020026020010181905250848181518110611249576112496158bc565b60200260200101518282885161125f91906158d2565b8151811061126f5761126f6158bc565b60209081029190910101526001016110e5565b50600061128e8b6108b6565b60028a01549091506000906112ad908d906001600160a01b03166123c9565b60038b01549091506000906112cc908e906001600160a01b03166123c9565b9050604051806101a001604052808c6000016040518061012001604052908160008201548152602001600182015481526020016002820160009054906101000a90046001600160a01b03166001600160a01b03166001600160a01b031681526020016003820160009054906101000a90046001600160a01b03166001600160a01b03166001600160a01b0316815260200160048201548152602001600582015481526020016006820160009054906101000a900460ff16151515158152602001600782015481526020016008820160009054906101000a90046001600160a01b03166001600160a01b03166001600160a01b03168152505081526020018c6009016040518060800160405290816000820160009054906101000a90046001600160a01b03166001600160a01b03166001600160a01b03168152602001600182015481526020016002820154815260200160038201548152505081526020018c600d016040518060400160405290816000820160009054906101000a900460010b60010b60010b81526020016000820160029054906101000a900460010b60010b60010b8152505081526020018c600e015481526020018c600f015481526020018c601001548152602001858152602001868152602001848152602001898152602001888152602001838152602001828152509b505050505050505050505050919050565b6114d8611e53565b6114e1816124f6565b50565b6000868152600760205260408120549003611512576040516309b3c62760e21b815260040160405180910390fd5b600086815260076020526040902060088101546001600160a01b03161561154c576040516321e08b4d60e21b815260040160405180910390fd5b60098101546001600160a01b0316331461157957604051631cc191eb60e31b815260040160405180910390fd5b600061158487612586565b60a08101519091506001600160a01b031633146115b457604051630b18e5d760e21b815260040160405180910390fd5b6000878152601183016020526040812080549091600160201b90910460ff1690036115f2576040516398586ca160e01b815260040160405180910390fd5b60025460048481015460405162b5e41160e51b815291820152602481018a90526001600160a01b03909116906316bc822090604401602060405180830381865afa158015611644573d6000803e3d6000fd5b505050506040513d601f19601f8201168201806040525081019061166891906158f0565b1580156116f05750600254600584015460405162b5e41160e51b81526001600160a01b03909216916316bc8220916116ad918c90600401918252602082015260400190565b602060405180830381865afa1580156116ca573d6000803e3d6000fd5b505050506040513d601f19601f820116820180604052508101906116ee91906158f0565b155b1561170e576040516303c113ad60e61b815260040160405180910390fd5b61171b836014018961264e565b1561173957604051637d64fb5d60e01b815260040160405180910390fd5b60008881526013840160205260408120805490919060018a810b91900b14801561177057508154600189810b62010000909204900b145b90508061187c576040805180820182528354600181810b835262010000909104810b60208084019190915283518085019094528c820b8452908b900b908301526000916117bd9190612666565b60008c8152601188016020526040902080549192509060ff600160301b90910481169083161115611801576040516321e08b4d60e21b815260040160405180910390fd5b600d60018c900b12158061181a5750601960018b900b12155b156118385760405163673f032f60e11b815260040160405180910390fd5b60018b810b60009081526012890160209081526040808320938e900b835292905220541561187957604051638243205760e01b815260040160405180910390fd5b50505b806119925760008560120160008460000160009054906101000a900460010b60010b60010b815260200190815260200160002060008460000160029054906101000a900460010b60010b60010b815260200190815260200160002081905550898560120160008b60010b60010b815260200190815260200160002060008a60010b60010b81526020019081526020016000208190555060405180604001604052808a60010b81526020018960010b8152508560130160008c815260200190815260200160002060008201518160000160006101000a81548161ffff021916908360010b61ffff16021790555060208201518160000160026101000a81548161ffff021916908360010b61ffff1602179055509050505b61199f856014018b6126fa565b506119af858c8c8c8c8c8c612706565b6119b88b612849565b156119cb576119c68b6128e8565b6119d4565b6119d48b61297f565b42600b8601556040518b907fc270fd1a8022d2356b9443b4bd22fa0653313da67bc52e9440ff28696cd3bf1190611a14908d908d908d908d908d90615923565b60405180910390a26040518b907f6a3ca207a2adb9eea136eff413ec2c22f745a146fe60eed5f593fbacb99347d390600090a25050505050505050505050565b6000818152600760205260408120549003611a82576040516309b3c62760e21b815260040160405180910390fd5b611a8b81612a99565b611aa85760405163023e733b60e61b815260040160405180910390fd5b600081815260076020526040902060098101546001600160a01b03163303611ae357604051631cc191eb60e31b815260040160405180910390fd5b60028101546001600160a01b03163314801590611b0d575060038101546001600160a01b03163314155b15611b2b5760405163218286cb60e11b815260040160405180910390fd5b611b34826124f6565b60405182907f6a3ca207a2adb9eea136eff413ec2c22f745a146fe60eed5f593fbacb99347d390600090a25050565b611b6b611e53565b6114e181612ac4565b6005546001600160a01b03163314611b9f57604051638671306560e01b815260040160405180910390fd5b60088054906000611baf836158a3565b90915550506008546000818152600760208190526040909120918255600182018b90556002820180546001600160a01b03808d166001600160a01b031992831617909255600384018054928c1692909116919091179055600482018890556005820187905560068201805487151560ff19909116179055429082015584611c365787611c38565b885b6009820180546001600160a01b0319166001600160a01b0392909216919091179055600a810184905542600b8201556001600c820155600d8101805463ffffffff1916620d0019179055600e81018290558215611cf45760048054600854604051636a5257fd60e11b815292830152602482018590526001600160a01b03169063d4a4affa90604401600060405180830381600087803b158015611cdb57600080fd5b505af1158015611cef573d6000803e3d6000fd5b505050505b611d016008548888612b7a565b611d0e6008548888612d44565b6001600160a01b038981166000818152600960209081526040808320600880548254600180820185559387528587200155958e16808552828520875481549384018255908652948490209091019390935593548451938452908301919091528c9290917f9f0b80476ce7b05cfe8b0800d21f0b0f2704c8eb948fa5d5e87997ec901f96d1910160405180910390a350505050505050505050565b611db0611e53565b6000928352600760209081526040808520938552601190930190529120805460ff909216600160401b0268ff000000000000000019909216919091179055565b611df8611e53565b60008281526007602052604090206105a360148201836126fa565b611e1b611e53565b6001600160a01b038116611e4a57604051631e4fbdf760e01b8152600060048201526024015b60405180910390fd5b6114e18161228f565b6000546001600160a01b03163314610bdd5760405163118cdaa760e01b8152336004820152602401611e41565b6000828152600760205260408120549003611eae576040516309b3c62760e21b815260040160405180910390fd5b600082815260076020526040812090611ec683612586565b60025460048481015460405162b5e41160e51b815291820152602481018690529192506000916001600160a01b03909116906316bc822090604401602060405180830381865afa158015611f1e573d6000803e3d6000fd5b505050506040513d601f19601f82011682018060405250810190611f4291906158f0565b600254600585015460405162b5e41160e51b81529293506000926001600160a01b03909216916316bc822091611f85918990600401918252602082015260400190565b602060405180830381865afa158015611fa2573d6000803e3d6000fd5b505050506040513d601f19601f82011682018060405250810190611fc691906158f0565b905081158015611fd4575080155b15611ff2576040516303c113ad60e61b815260040160405180910390fd5b608083015160c0015115612019576040516398586ca160e01b815260040160405180910390fd5b600085815260138501602090815260408083208054600181810b865260128a01855283862062010000909204900b855290925282209190915561205f601486018761213b565b5061206d856016018761213b565b506001546000878152600a6020526040908190205490516311a960cd60e01b81526004810189905260248101919091526001600160a01b03909116906311a960cd90604401600060405180830381600087803b1580156120cc57600080fd5b505af11580156120e0573d6000803e3d6000fd5b505050506120ee8787612f05565b6120f787612f63565b50505050505050565b6000828152600760208181526040808420858552601181018352908420805464ff00000000191690559285905252610e1c90601601826126fa565b60006105598383612fef565b60606000612154836130e2565b90506000816001600160401b0381111561217057612170615378565b604051908082528060200260200182016040528015612199578160200160208202803683370190505b50905060005b828110156121d6576121b185826130ec565b8282815181106121c3576121c36158bc565b602090810291909101015260010161219f565b509392505050565b600154604051639596010160e01b8152600481018390526000916001600160a01b031690639596010190602401602060405180830381865afa158015612228573d6000803e3d6000fd5b505050506040513d601f19601f8201168201806040525081019061224c91906158f0565b1592915050565b600082815260076020908152604080832060028101546001600160a01b03168452601881019092528220612287908461264e565b949350505050565b600080546001600160a01b038381166001600160a01b0319831681178455604051919092169283917f8be0079c531659141344cd1fd0a4f28419497f9722a3daafe3b4186f6b6457e09190a35050565b60008381526007602052604090206008810180546001600160a01b0319166001600160a01b038581169190911790915560065416156123875760065460405163d6c6eb9f60e01b8152600481018690526001600160a01b03858116602483015284811660448301529091169063d6c6eb9f90606401600060405180830381600087803b15801561236e57600080fd5b505af1158015612382573d6000803e3d6000fd5b505050505b600281015460048201546123a89186916001600160a01b03909116906130f8565b600381015460058201546105a39186916001600160a01b03909116906130f8565b60008281526007602090815260408083206001600160a01b0385168452601881019092528220606092806123fc836130e2565b905060005b8181101561244057600061241585836130ec565b9050612424866014018261264e565b156124375783612433816158a3565b9450505b50600101612401565b506000826001600160401b0381111561245b5761245b615378565b604051908082528060200260200182016040528015612484578160200160208202803683370190505b5090506000805b838110156124e857600061249f87836130ec565b90506124ae886014018261264e565b156124df57808484815181106124c6576124c66158bc565b6020908102919091010152826124db816158a3565b9350505b5060010161248b565b509098975050505050505050565b6000818152600760205260409020600281015460098201546001600160a01b0391821691160361253e5760028101546125399083906001600160a01b03166131b5565b612557565b60038101546125579083906001600160a01b03166131b5565b61256082612849565b156125735761256e826128e8565b61257c565b61257c8261297f565b42600b9091015550565b61258e614cc3565b600154604051634025b22d60e01b8152600481018490526000916001600160a01b031690634025b22d90602401600060405180830381865afa1580156125d8573d6000803e3d6000fd5b505050506040513d6000823e601f3d908101601f191682016040526126009190810190615b94565b90508060200151600003612627576040516303c113ad60e61b815260040160405180910390fd5b608081015160c00151156105c6576040516398586ca160e01b815260040160405180910390fd5b60008181526001830160205260408120541515610559565b600080826000015160010b846000015160010b13612691578351835161268c9190615cc5565b61269f565b8251845161269f9190615cc5565b90506000836020015160010b856020015160010b136126d157846020015184602001516126cc9190615cc5565b6126e5565b836020015185602001516126e59190615cc5565b90506126f18183615ce8565b95945050505050565b6000610559838361323e565b600154604051634025b22d60e01b8152600481018790526000916001600160a01b031690634025b22d90602401600060405180830381865afa158015612750573d6000803e3d6000fd5b505050506040513d6000823e601f3d908101601f191682016040526127789190810190615b94565b905061278a878260a00151878761328d565b600083600581111561279e5761279e61590d565b1461283f5760018360058111156127b7576127b761590d565b036127d0576127cb8888888888878761343b565b61283f565b60028360058111156127e4576127e461590d565b036127f3576127cb8787613703565b60038360058111156128075761280761590d565b03612819576127cb8787878786613a2a565b600483600581111561282d5761282d61590d565b0361283f5761283f8787878786613bee565b5050505050505050565b600081815260076020908152604080832060038101546001600160a01b03168452601881019092528220829061287e906130e2565b60028301546001600160a01b0316600090815260188401602052604090206128a5906130e2565b6128af91906158d2565b905060006128bf836014016130e2565b905060006128cf846016016130e2565b9050826128dc82846158d2565b10159695505050505050565b60008181526007602052604090206128ff82613cf5565b600c81018054906000612911836158a3565b919050555061292281601401613ec8565b61292b82612ac4565b600681015460ff1661294a5760038101546001600160a01b0316612959565b60028101546001600160a01b03165b60099190910180546001600160a01b0319166001600160a01b0390921691909117905550565b6000818152600760205260409020600281015460098201546001600160a01b03918216911603612a215760038101546000906129c59084906001600160a01b0316613ed1565b60028301549091506000906129e49085906001600160a01b0316613f65565b905081806129f0575080155b156105a35760038301546009840180546001600160a01b0319166001600160a01b0390921691909117905550505050565b6002810154600090612a3d9084906001600160a01b0316613ed1565b6003830154909150600090612a5c9085906001600160a01b0316613f65565b90508180612a68575080155b156105a35760028301546009840180546001600160a01b0319166001600160a01b0390921691909117905550505050565b6000818152600760205260408120600a810154600b820154612abb91906158d2565b42119392505050565b600081815260076020526040812090612adf601683016130e2565b905060005b818110156105a3576000612afb84601601836130ec565b9050612b06816121de565b8015612b2a57506000818152601185016020526040902054600160201b900460ff16155b15612b7157600081815260118501602052604090208054600160401b900460ff16906008612b5783615d01565b91906101000a81548160ff021916908360ff160217905550505b50600101612ae4565b60008381526007602052604080822060025491516348eef38560e11b8152600481018690529092916001600160a01b0316906391dde70a90602401600060405180830381865afa158015612bd2573d6000803e3d6000fd5b505050506040513d6000823e601f3d908101601f19168201604052612bfa9190810190615dba565b50905060005b8151811015612c6c5760028301546001600160a01b0316600090815260188401602052604090208251612c4d9190849084908110612c4057612c406158bc565b60200260200101516126fa565b50612c6486838381518110610e0757610e076158bc565b600101612c00565b506002546040516348eef38560e11b8152600481018590526000916001600160a01b0316906391dde70a90602401600060405180830381865afa158015612cb7573d6000803e3d6000fd5b505050506040513d6000823e601f3d908101601f19168201604052612cdf9190810190615dba565b50905060005b81518110156120f75760038401546001600160a01b0316600090815260188501602052604090208251612d259190849084908110612c4057612c406158bc565b50612d3c87838381518110610e0757610e076158bc565b600101612ce5565b6002546040516348eef38560e11b81526004810184905260009182916001600160a01b03909116906391dde70a90602401600060405180830381865afa158015612d92573d6000803e3d6000fd5b505050506040513d6000823e601f3d908101601f19168201604052612dba9190810190615dba565b9150915060005b8251811015612e24576000838281518110612dde57612dde6158bc565b602002602001015190506000838381518110612dfc57612dfc6158bc565b60200260200101519050612e1a888383600001518460200151613fd6565b5050600101612dc1565b506002546040516348eef38560e11b81526004810185905260009182916001600160a01b03909116906391dde70a90602401600060405180830381865afa158015612e73573d6000803e3d6000fd5b505050506040513d6000823e601f3d908101601f19168201604052612e9b9190810190615dba565b9150915060005b825181101561283f576000838281518110612ebf57612ebf6158bc565b602002602001015190506000838381518110612edd57612edd6158bc565b60200260200101519050612efb8a8383600001518460200151613fd6565b5050600101612ea2565b600082815260076020908152604080832060028101546001600160a01b0316845260188101909252909120612f3a908361213b565b5060038101546001600160a01b0316600090815260188201602052604090206105a3908361213b565b60008181526007602052604090206002810154612f8a9083906001600160a01b03166140c6565b612fb057600381015460028201546105729184916001600160a01b0391821691166122df565b6003810154612fc99083906001600160a01b03166140c6565b61057257600281015460038201546105729184916001600160a01b0391821691166122df565b600081815260018301602052604081205480156130d8576000613013600183615e72565b855490915060009061302790600190615e72565b905080821461308c576000866000018281548110613047576130476158bc565b906000526020600020015490508087600001848154811061306a5761306a6158bc565b6000918252602080832090910192909255918252600188019052604090208390555b855486908061309d5761309d615e85565b6001900381819060005260206000200160009055905585600101600086815260200190815260200160002060009055600193505050506105c6565b60009150506105c6565b60006105c6825490565b60006105598383614137565b60008381526007602090815260408083206001600160a01b03861684526018810190925282209091613129826130e2565b905060005b818110156120f757600061314284836130ec565b6002546040516327ffe52160e01b815260048101899052602481018390529192506001600160a01b0316906327ffe52190604401600060405180830381600087803b15801561319057600080fd5b505af11580156131a4573d6000803e3d6000fd5b50506001909301925061312e915050565b60008281526007602090815260408083206001600160a01b038516845260188101909252822090916131e6826130e2565b905060005b818110156108ae5760006131ff84836130ec565b905061320b8782614161565b8015613221575061321f856014018261264e565b155b156132355761323385601401826126fa565b505b506001016131eb565b6000818152600183016020526040812054613285575081546001818101845560008481526020808220909301849055845484825282860190935260409020919091556105c6565b5060006105c6565b600084815260076020526040808220600480549251630349370d60e41b8152908101889052600186810b602483015285900b60448201529092916001600160a01b03169063349370d0906064016020604051808303816000875af11580156132f9573d6000803e3d6000fd5b505050506040513d601f19601f8201168201806040525081019061331d9190615e9b565b905060ff8116156108ae5760028201546001600160a01b0390811690861603613362578060ff1682600f01600082825461335791906158d2565b909155506133979050565b60038201546001600160a01b0390811690861603613397578060ff1682601001600082825461339191906158d2565b90915550505b81600e015482600f01541015806133b6575081600e0154826010015410155b156108ae576000826010015483600f015410156133e05760038301546001600160a01b03166133ef565b60028301546001600160a01b03165b60028401549091506000906001600160a01b0380841691161461341f5760028401546001600160a01b031661342e565b60038401546001600160a01b03165b905061283f8883836122df565b600061344683612586565b90508160a001516001600160a01b03168160a001516001600160a01b031603613482576040516321e08b4d60e21b815260040160405180910390fd5b604080518082018252600187810b825286810b602080840191909152600087815260138d0182528481208551808701909652805480850b875262010000900490930b9185019190915291929091906134db908490612666565b60008a815260118d016020526040902080549192509060ff620100009091048116908316111561351e576040516321e08b4d60e21b815260040160405180910390fd5b60018260ff161180156135c35750600480548454604051638383c99560e01b81529283018e905260018c810b60248501528b810b604485015281810b606485015262010000909104900b60848301526001600160a01b031690638383c9959060a401602060405180830381865afa15801561359d573d6000803e3d6000fd5b505050506040513d601f19601f820116820180604052508101906135c191906158f0565b155b156135e1576040516321e08b4d60e21b815260040160405180910390fd5b600087815260118d016020526040812080549091600160201b90910460ff169003613642578054600160401b900460ff1681600861361e83615d01565b91906101000a81548160ff021916908360ff160217905550505050505050506120f7565b8154815460ff6301000000909204821691600160381b909104166000606461366a8385615eb8565b6136749190615ed5565b6136819060ff8516615f07565b8454909150600160201b900460ff1661ffff8216106136ba576136a48f8c612100565b60008b8152600a602052604090208e90556136f1565b8354819085906004906136d8908490600160201b900460ff16615f21565b92506101000a81548160ff021916908360ff1602179055505b50505050505050505050505050505050565b6000828152600760205260408120549003613731576040516309b3c62760e21b815260040160405180910390fd5b60008281526007602052604081209061374983612586565b60025460048481015460405162b5e41160e51b815291820152602481018690529192506000916001600160a01b03909116906316bc822090604401602060405180830381865afa1580156137a1573d6000803e3d6000fd5b505050506040513d601f19601f820116820180604052508101906137c591906158f0565b600254600585015460405162b5e41160e51b81529293506000926001600160a01b03909216916316bc822091613808918990600401918252602082015260400190565b602060405180830381865afa158015613825573d6000803e3d6000fd5b505050506040513d601f19601f8201168201806040525081019061384991906158f0565b905081158015613857575080155b15613875576040516303c113ad60e61b815260040160405180910390fd5b608083015160c001511561389c576040516398586ca160e01b815260040160405180910390fd5b600085815260138501602090815260408083208054600181810b865260128a01855283862062010000909204900b85529092528220919091556138e2601486018761213b565b506138f0856016018761213b565b508215613964576002546004868101546040516327ffe52160e01b815291820152602481018890526001600160a01b03909116906327ffe52190604401600060405180830381600087803b15801561394757600080fd5b505af115801561395b573d6000803e3d6000fd5b505050506139d5565b60025460058601546040516327ffe52160e01b81526001600160a01b03909216916327ffe521916139a2918a90600401918252602082015260400190565b600060405180830381600087803b1580156139bc57600080fd5b505af11580156139d0573d6000803e3d6000fd5b505050505b60008681526011860160205260408120805468ffffffffffffffffff1916815590613a036001830182614dba565b505060008681526013860160205260409020805463ffffffff191690556120ee8787612f05565b6000858152600760205260408120549003613a58576040516309b3c62760e21b815260040160405180910390fd5b600085815260076020526040812090613a7083612586565b600154604051634025b22d60e01b8152600481018990529192506000916001600160a01b0390911690634025b22d90602401600060405180830381865afa158015613abf573d6000803e3d6000fd5b505050506040513d6000823e601f3d908101601f19168201604052613ae79190810190615b94565b90508060a001516001600160a01b03168260a001516001600160a01b031614613b23576040516321e08b4d60e21b815260040160405180910390fd5b600084815260118401602052604090208054600160201b900460ff1615613b5d576040516321e08b4d60e21b815260040160405180910390fd5b600085815260138501602090815260408083208151808301835260018c810b82528b810b828601528351808501909452825480820b8552620100009004900b938301939093529290613bb0908390612666565b90508060ff16600114613bd6576040516321e08b4d60e21b815260040160405180910390fd5b613be08c89613703565b505050505050505050505050565b600154604051634025b22d60e01b8152600481018690526000916001600160a01b031690634025b22d90602401600060405180830381865afa158015613c38573d6000803e3d6000fd5b505050506040513d6000823e601f3d908101601f19168201604052613c609190810190615b94565b905060008160400151606001516003811115613c7e57613c7e61590d565b03613c9c576040516321e08b4d60e21b815260040160405180910390fd5b613ca4614cc3565b60038260400151606001516003811115613cc057613cc061590d565b14613cd157613cce83612586565b90505b613cdf878686868686614238565b6120f7878787878787604001516060015161434a565b60008181526007602052604080822081516064808252610ca0820190935290929181602001602082028036833750505060028301546001600160a01b0316600090815260188401602052604081209192509081613d51826130e2565b905060005b81811015613dd7576000613d6a84836130ec565b9050613d75816121de565b8015613d9d575060008181526011880160205260409020546003600160401b90910460ff1610155b15613dce5780868681518110613db557613db56158bc565b602090810291909101015284613dca816158a3565b9550505b50600101613d56565b5060038501546001600160a01b03166000908152601886016020526040812090613e00826130e2565b905060005b81811015613e86576000613e1984836130ec565b9050613e24816121de565b8015613e4c5750600081815260118a0160205260409020546003600160401b90910460ff1610155b15613e7d5780888881518110613e6457613e646158bc565b602090810291909101015286613e79816158a3565b9750505b50600101613e05565b5060005b85811015613ebd57613eb589888381518110613ea857613ea86158bc565b6020026020010151611e80565b600101613e8a565b505050505050505050565b6114e1816143ba565b60008281526007602090815260408083206001600160a01b038516845260188101909252822082613f01826130e2565b905060005b81811015613f58576000613f1a84836130ec565b9050613f268882614161565b8015613f3c5750613f3a856014018261264e565b155b15613f4f576001955050505050506105c6565b50600101613f06565b5060009695505050505050565b60008281526007602090815260408083206001600160a01b038516845260188101909252822082613f95826130e2565b905060005b81811015613f58576000613fae84836130ec565b9050613fba8882614161565b15613fcd576001955050505050506105c6565b50600101613f9a565b6000848152600760205260409020600d600184900b121580613ffd57506019600183900b12155b1561401b5760405163673f032f60e11b815260040160405180910390fd5b600183810b600090815260128301602090815260408083209386900b835292905220541561405c57604051638243205760e01b815260040160405180910390fd5b600192830b600081815260128301602090815260408083209590960b8083529481528582208790558551808701875292835282810194855295815260139092019094529190912091518254915161ffff908116620100000263ffffffff1990931691161717905550565b60008281526007602090815260408083206001600160a01b0385168452601881019092528220826140f6826130e2565b905060005b81811015613f5857600061410f84836130ec565b905061411b8882614161565b1561412e576001955050505050506105c6565b506001016140fb565b600082600001828154811061414e5761414e6158bc565b9060005260206000200154905092915050565b6000828152600760205260408082206001549151634025b22d60e01b815260048101859052909183916001600160a01b0390911690634025b22d90602401600060405180830381865afa1580156141bc573d6000803e3d6000fd5b505050506040513d6000823e601f3d908101601f191682016040526141e49190810190615b94565b9050806080015160c00151600014614201576000925050506105c6565b6000848152601183016020526040812054600160201b900460ff16900361422d576000925050506105c6565b506001949350505050565b60408201516060015160028160038111156142555761425561590d565b03614299578260a001516001600160a01b03168260a001516001600160a01b031614614294576040516321e08b4d60e21b815260040160405180910390fd5b614324565b60018160038111156142ad576142ad61590d565b036142ec578260a001516001600160a01b03168260a001516001600160a01b031603614294576040516321e08b4d60e21b815260040160405180910390fd5b60038160038111156143005761430061590d565b0361430b57506108ae565b6040516321e08b4d60e21b815260040160405180910390fd5b60038160038111156143385761433861590d565b146120f7576120f7878787878561441c565b600281600381111561435e5761435e61590d565b036143725761436d868361452f565b6108ae565b60018160038111156143865761438661590d565b036143955761436d8683614653565b60038160038111156143a9576143a961590d565b0361430b5761436d86868686614737565b60006143c4825490565b905060005b81811015614414578260010160008460000183815481106143ec576143ec6158bc565b90600052602060002001548152602001908152602001600020600090558060010190506143c9565b505060009055565b60008581526007602090815260408083208584526013810183528184208251808401845260018a810b825289900b948101949094526003549251636759d30960e11b8152919490939290916001600160a01b039091169063ceb3a61290614487908890600401615f3a565b602060405180830381865afa1580156144a4573d6000803e3d6000fd5b505050506040513d601f19601f820116820180604052508101906144c89190615e9b565b604080518082019091528454600181810b835262010000909104900b60208201529091506000906144fa908490612666565b90508160ff168160ff161115614523576040516321e08b4d60e21b815260040160405180910390fd5b50505050505050505050565b6000828152600760209081526040808320848452601181019092528083206003549151633387d11760e11b81529293909290916001600160a01b03169063670fa22e9061458190600290600401615f3a565b602060405180830381865afa15801561459e573d6000803e3d6000fd5b505050506040513d601f19601f820116820180604052508101906145c29190615e9b565b82549091506000906145df908390600160201b900460ff16615ce8565b835490915060ff600160281b9091048116908216111561461d578254600160201b60ff600160281b8304160264ff0000000019909116178355614635565b825464ff000000001916600160201b60ff8316021783555b8254600160201b900460ff16156108ae576120f7846016018661213b565b6000828152600760209081526040808320848452601181019092528083206003549151633387d11760e11b81529293909290916001600160a01b03169063670fa22e906146a590600190600401615f3a565b602060405180830381865afa1580156146c2573d6000803e3d6000fd5b505050506040513d601f19601f820116820180604052508101906146e69190615e9b565b6000858152600a60205260409020859055825490915081908390600890614718908490600160401b900460ff16615ce8565b92506101000a81548160ff021916908360ff1602179055505050505050565b600084815260076020526040808220600380549251636759d30960e11b81529193926001600160a01b03169163ceb3a6129161477591600401615f3a565b602060405180830381865afa158015614792573d6000803e3d6000fd5b505050506040513d601f19601f820116820180604052508101906147b69190615e9b565b60038054604051633387d11760e11b81529293506000926001600160a01b039091169163670fa22e916147ec9190600401615f3a565b602060405180830381865afa158015614809573d6000803e3d6000fd5b505050506040513d601f19601f8201168201806040525081019061482d9190615e9b565b60028401546001600160a01b03166000908152601885016020526040902090915061486390889088908890889087908790614892565b60038301546001600160a01b0316600090815260188401602052604090206120f7908890889088908890879087905b6000878152600760205260408120906148aa836130e2565b60408051808201909152600189810b825288900b602082015290915060005b82811015614aa05760006148dd86836130ec565b600154604051634025b22d60e01b8152600481018390529192506000916001600160a01b0390911690634025b22d90602401600060405180830381865afa15801561492c573d6000803e3d6000fd5b505050506040513d6000823e601f3d908101601f191682016040526149549190810190615b94565b9050806080015160c0015160001461496d575050614a98565b6000828152601187016020526040812054600160201b900460ff169003614995575050614a98565b6000828152601387016020908152604080832081518083019092528054600181810b845262010000909104900b928201929092529091906149d7908790612666565b90508a60ff168160ff16111580156149ef57508d8414155b15614a93578d600a60008681526020019081526020016000208190555087601101600085815260200190815260200160002060000160049054906101000a900460ff1660ff168a60ff1610614a4d57614a488f85612100565b614a93565b6000848152601189016020526040902080548b9190600490614a7a908490600160201b900460ff16615f21565b92506101000a81548160ff021916908360ff1602179055505b505050505b6001016148c9565b5050505050505050505050565b604080516101208101825260008082526020820181905291810182905260608082018390526080820183905260a0820183905260c0820183905260e082019290925261010081019190915290565b82805482825590600052602060002090601f01602090048101928215614b915791602002820160005b83821115614b6257835183826101000a81548160ff021916908360ff1602179055509260200192600101602081600001049283019260010302614b24565b8015614b8f5782816101000a81549060ff0219169055600101602081600001049283019260010302614b62565b505b50614b9d929150614ddb565b5090565b604051806060016040528060008152602001614bd66040518060400160405280600060010b8152602001600060010b81525090565b8152600060209091015290565b604080516102c08101825260006101a082018181526101c083018290526101e08301829052610200830182905261022083018290526102408301829052610260830182905261028083018290526102a083018290528252825160808101845281815260208082018390528185018390526060820183905280840191909152835180850185528281529081019190915290918201908152602001600081526020016000815260200160008152602001606081526020016060815260200160608152602001606081526020016060815260200160608152602001606081525090565b6040518060c001604052806060815260200160008152602001614d076040805160808101909152806000815260200160008152602001600081526020016000905290565b8152602001614d716040805160c080820183526000808352835191820184528082526020828101829052938201819052606082018190526080820181905260a082015290918201908152600060208201819052604082018190526060820181905260809091015290565b81526040805160e08101825260008082526020828101829052928201819052606082018190526080820181905260a0820181905260c08201529101908152600060209091015290565b50805460008255601f0160209004906000526020600020908101906114e191905b5b80821115614b9d5760008155600101614ddc565b6001600160a01b03811681146114e157600080fd5b60008060408385031215614e1857600080fd5b8235614e2381614df0565b946020939093013593505050565b600060208284031215614e4357600080fd5b813561055981614df0565b805182526020810151602083015260018060a01b03604082015116604083015260018060a01b0360608201511660608301526080810151608083015260a081015160a083015260c0810151614ea760c084018215159052565b5060e081015160e0830152610100810151610e1c6101008401826001600160a01b03169052565b600081518084526020840193506020830160005b82811015614f00578151865260209586019590910190600101614ee2565b5093949350505050565b600081518084526020840193506020830160005b82811015614f0057815160ff16865260209586019590910190600101614f1e565b805161ffff16825260006020820151614f5d602085018260ff169052565b506040820151614f72604085018260ff169052565b506060820151614f87606085018260ff169052565b506080820151614f9c608085018260ff169052565b5060a0820151614fb160a085018260ff169052565b5060c0820151614fc660c085018260ff169052565b5060e0820151614fdb60e085018260ff169052565b50610100820151610120610100850152612287610120850182614f0a565b600082825180855260208501945060208160051b8301016020850160005b8381101561504957601f19858403018852615033838351614f3f565b6020988901989093509190910190600101615017565b50909695505050505050565b600081518084526020840193506020830160005b82811015614f00578151600081518852602082015161509e60208a0182805160010b8252602081015160010b60208301525050565b5050604001511515606087015260809095019460209190910190600101615069565b6150cb828251614e4e565b60208181015180516001600160a01b031661012085015290810151610140840152604081015161016084015260608101516101808401526000905060408201518051600190810b6101a08601526020820151900b6101c08501525060608201516101e0840152608082015161020084015260a082015161022084015260c0820151610320610240850152615163610320850182614ece565b905060e083015184820361026086015261517d8282614ff9565b9150506101008301518482036102808601526151998282615055565b9150506101208301518482036102a08601526151b58282614ece565b9150506101408301518482036102c08601526151d18282614ece565b9150506101608301518482036102e08601526151ed8282614ece565b9150506101808301518482036103008601526126f18282614ece565b6000602082016020835280845180835260408501915060408160051b86010192506020860160005b8281101561526257603f1987860301845261524d8583516150c0565b94506020938401939190910190600101615231565b50929695505050505050565b6000806040838503121561528157600080fd5b50508035926020909101359150565b6000602082840312156152a257600080fd5b5035919050565b602080825282518282018190526000918401906040840190835b81811015610aa65783518352602093840193909201916001016152c3565b6020815260006105596020830184614f3f565b6020815260006105596020830184615055565b600080600080600060a0868803121561531f57600080fd5b853561532a81614df0565b9450602086013561533a81614df0565b9350604086013561534a81614df0565b9250606086013561535a81614df0565b9150608086013561536a81614df0565b809150509295509295909350565b634e487b7160e01b600052604160045260246000fd5b60405161012081016001600160401b03811182821017156153b1576153b1615378565b60405290565b60405160c081016001600160401b03811182821017156153b1576153b1615378565b60405160e081016001600160401b03811182821017156153b1576153b1615378565b604080519081016001600160401b03811182821017156153b1576153b1615378565b604051601f8201601f191681016001600160401b038111828210171561544557615445615378565b604052919050565b60006001600160401b0382111561546657615466615378565b5060051b60200190565b600082601f83011261548157600080fd5b813561549461548f8261544d565b61541d565b8082825260208201915060208360051b8601019250858311156154b657600080fd5b602085015b838110156154d35780358352602092830192016154bb565b5095945050505050565b6000602082840312156154ef57600080fd5b81356001600160401b0381111561550557600080fd5b61228784828501615470565b8060010b81146114e157600080fd5b6000806000806080858703121561553657600080fd5b8435935060208501359250604085013561554f81615511565b9150606085013561555f81615511565b939692955090935050565b6000806040838503121561557d57600080fd5b8235915060208301356001600160401b0381111561559a57600080fd5b6155a685828601615470565b9150509250929050565b60208152600061055960208301846150c0565b60008060008060008060c087890312156155dc57600080fd5b863595506020870135945060408701356155f581615511565b9350606087013561560581615511565b925060808701356006811061561957600080fd5b9598949750929591949360a090920135925050565b80151581146114e157600080fd5b60008060008060008060008060006101208a8c03121561565b57600080fd5b8935985060208a013561566d81614df0565b975060408a013561567d81614df0565b965060608a0135955060808a0135945060a08a013561569b8161562e565b989b979a5095989497939693955050505060c08201359160e0810135916101009091013590565b60ff811681146114e157600080fd5b6000806000606084860312156156e657600080fd5b833592506020840135915060408401356156ff816156c2565b809150509250925092565b805161ffff8116811461571c57600080fd5b919050565b805161571c816156c2565b600082601f83011261573d57600080fd5b815161574b61548f8261544d565b8082825260208201915060208360051b86010192508583111561576d57600080fd5b602085015b838110156154d3578051615785816156c2565b835260209283019201615772565b6000602082840312156157a557600080fd5b81516001600160401b038111156157bb57600080fd5b820161012081850312156157ce57600080fd5b6157d661538e565b6157df8261570a565b81526157ed60208301615721565b60208201526157fe60408301615721565b604082015261580f60608301615721565b606082015261582060808301615721565b608082015261583160a08301615721565b60a082015261584260c08301615721565b60c082015261585360e08301615721565b60e08201526101008201516001600160401b0381111561587257600080fd5b61587e8682850161572c565b61010083015250949350505050565b634e487b7160e01b600052601160045260246000fd5b6000600182016158b5576158b561588d565b5060010190565b634e487b7160e01b600052603260045260246000fd5b808201808211156105c6576105c661588d565b805161571c8161562e565b60006020828403121561590257600080fd5b81516105598161562e565b634e487b7160e01b600052602160045260246000fd5b858152600185810b602083015284900b604082015260a081016006841061594c5761594c61590d565b6060820193909352608001529392505050565b600481106114e157600080fd5b60006080828403121561597e57600080fd5b604051608081016001600160401b03811182821017156159a0576159a0615378565b806040525080915082516159b38161595f565b815260208301516159c38161595f565b602082015260408301516159d68161595f565b604082015260608301516159e98161595f565b6060919091015292915050565b6000818303610160811215615a0a57600080fd5b615a126153b7565b83518152915060c0601f1982011215615a2a57600080fd5b50615a336153b7565b615a3f6020840161570a565b81526040830151615a4f816156c2565b60208201526060830151615a62816156c2565b6040820152615a736080840161570a565b606082015260a0830151615a86816156c2565b608082015260c0830151615a99816156c2565b60a08201526020820152615aaf60e08301615721565b6040820152615ac16101008301615721565b6060820152615ad36101208301615721565b6080820152615ae56101408301615721565b60a082015292915050565b600060e08284031215615b0257600080fd5b615b0a6153d9565b9050815163ffffffff81168114615b2057600080fd5b8152615b2e6020830161570a565b6020820152615b3f6040830161570a565b6040820152615b50606083016158e5565b6060820152615b61608083016158e5565b6080820152615b7260a083016158e5565b60a082015260c09182015191810191909152919050565b805161571c81614df0565b600060208284031215615ba657600080fd5b81516001600160401b03811115615bbc57600080fd5b82016103208185031215615bcf57600080fd5b615bd76153b7565b81516001600160401b03811115615bed57600080fd5b8201601f81018613615bfe57600080fd5b80516001600160401b03811115615c1757615c17615378565b615c2a601f8201601f191660200161541d565b818152876020838501011115615c3f57600080fd5b60005b82811015615c5e57602081850181015183830182015201615c42565b50600060209282018301528352838101519083015250615c81856040840161596c565b6040820152615c938560c084016159f6565b6060820152615ca6856102208401615af0565b6080820152615cb86103008301615b89565b60a0820152949350505050565b600182810b9082900b03617fff198112617fff821317156105c6576105c661588d565b60ff81811683821601908111156105c6576105c661588d565b600060ff821660ff8103615d1757615d1761588d565b60010192915050565b600082601f830112615d3157600080fd5b8151615d3f61548f8261544d565b8082825260208201915060208360061b860101925085831115615d6157600080fd5b602085015b838110156154d35760408188031215615d7e57600080fd5b615d866153fb565b8151615d9181615511565b81526020820151615da181615511565b6020828101919091529084529290920191604001615d66565b60008060408385031215615dcd57600080fd5b82516001600160401b03811115615de357600080fd5b8301601f81018513615df457600080fd5b8051615e0261548f8261544d565b8082825260208201915060208360051b850101925087831115615e2457600080fd5b6020840193505b82841015615e46578351825260209384019390910190615e2b565b8095505050505060208301516001600160401b03811115615e6657600080fd5b6155a685828601615d20565b818103818111156105c6576105c661588d565b634e487b7160e01b600052603160045260246000fd5b600060208284031215615ead57600080fd5b8151610559816156c2565b61ffff8181168382160290811690818114610bc457610bc461588d565b600061ffff831680615ef757634e487b7160e01b600052601260045260246000fd5b8061ffff84160491505092915050565b61ffff82811682821603908111156105c6576105c661588d565b60ff82811682821603908111156105c6576105c661588d565b6020810160048310615f4e57615f4e61590d565b9190529056fea26469706673582212206c2aa999d8917e70a326a82f671e5cee3183ec80310af62de41762a219bbbaf464736f6c634300081c0033",
  "linkReferences": {},
  "deployedLinkReferences": {}
}