{
  "_format": "hh-sol-artifact-1",
  "contractName": "ImageRenderer",
  "sourceName": "contracts/ImageRenderer.sol",
  "abi": [
    {
      "inputs": [
        {
          "internalType": "address",
          "name": "_renderSpecial",
          "type": "address"
        },
        {
          "internalType": "address",
          "name": "_renderAft",
          "type": "address"
        },
        {
          "internalType": "address",
          "name": "_renderWeapon",
          "type": "address"
        },
        {
          "internalType": "address",
          "name": "_renderBody",
          "type": "address"
        },
        {
          "internalType": "address",
          "name": "_renderFore",
          "type": "address"
        }
      ],
      "stateMutability": "nonpayable",
      "type": "constructor"
    },
    {
      "inputs": [],
      "name": "renderAft",
      "outputs": [
        {
          "internalType": "contract IRenderComponent",
          "name": "",
          "type": "address"
        }
      ],
      "stateMutability": "view",
      "type": "function"
    },
    {
      "inputs": [],
      "name": "renderBody",
      "outputs": [
        {
          "internalType": "contract IRenderComponent",
          "name": "",
          "type": "address"
        }
      ],
      "stateMutability": "view",
      "type": "function"
    },
    {
      "inputs": [],
      "name": "renderFore",
      "outputs": [
        {
          "internalType": "contract IRenderComponent",
          "name": "",
          "type": "address"
        }
      ],
      "stateMutability": "view",
      "type": "function"
    },
    {
      "inputs": [
        {
          "components": [
            {
              "internalType": "string",
              "name": "name",
              "type": "string"
            },
            {
              "internalType": "uint256",
              "name": "id",
              "type": "uint256"
            },
            {
              "components": [
                {
                  "internalType": "enum MainWeapon",
                  "name": "mainWeapon",
                  "type": "uint8"
                },
                {
                  "internalType": "enum Armor",
                  "name": "armor",
                  "type": "uint8"
                },
                {
                  "internalType": "enum Shields",
                  "name": "shields",
                  "type": "uint8"
                },
                {
                  "internalType": "enum Special",
                  "name": "special",
                  "type": "uint8"
                }
              ],
              "internalType": "struct Equipment",
              "name": "equipment",
              "type": "tuple"
            },
            {
              "components": [
                {
                  "internalType": "uint256",
                  "name": "serialNumber",
                  "type": "uint256"
                },
                {
                  "components": [
                    {
                      "internalType": "uint16",
                      "name": "h1",
                      "type": "uint16"
                    },
                    {
                      "internalType": "uint8",
                      "name": "s1",
                      "type": "uint8"
                    },
                    {
                      "internalType": "uint8",
                      "name": "l1",
                      "type": "uint8"
                    },
                    {
                      "internalType": "uint16",
                      "name": "h2",
                      "type": "uint16"
                    },
                    {
                      "internalType": "uint8",
                      "name": "s2",
                      "type": "uint8"
                    },
                    {
                      "internalType": "uint8",
                      "name": "l2",
                      "type": "uint8"
                    },
                    {
                      "internalType": "uint16",
                      "name": "h3",
                      "type": "uint16"
                    },
                    {
                      "internalType": "uint8",
                      "name": "s3",
                      "type": "uint8"
                    },
                    {
                      "internalType": "uint8",
                      "name": "l3",
                      "type": "uint8"
                    }
                  ],
                  "internalType": "struct Colors",
                  "name": "colors",
                  "type": "tuple"
                },
                {
                  "internalType": "uint16",
                  "name": "variant",
                  "type": "uint16"
                },
                {
                  "internalType": "uint8",
                  "name": "accuracy",
                  "type": "uint8"
                },
                {
                  "internalType": "uint8",
                  "name": "hull",
                  "type": "uint8"
                },
                {
                  "internalType": "uint8",
                  "name": "speed",
                  "type": "uint8"
                }
              ],
              "internalType": "struct Traits",
              "name": "traits",
              "type": "tuple"
            },
            {
              "components": [
                {
                  "internalType": "uint32",
                  "name": "shipsDestroyed",
                  "type": "uint32"
                },
                {
                  "internalType": "uint16",
                  "name": "costsVersion",
                  "type": "uint16"
                },
                {
                  "internalType": "uint16",
                  "name": "cost",
                  "type": "uint16"
                },
                {
                  "internalType": "uint16",
                  "name": "modified",
                  "type": "uint16"
                },
                {
                  "internalType": "bool",
                  "name": "shiny",
                  "type": "bool"
                },
                {
                  "internalType": "bool",
                  "name": "constructed",
                  "type": "bool"
                },
                {
                  "internalType": "bool",
                  "name": "inFleet",
                  "type": "bool"
                },
                {
                  "internalType": "bool",
                  "name": "isFreeShip",
                  "type": "bool"
                },
                {
                  "internalType": "uint256",
                  "name": "timestampDestroyed",
                  "type": "uint256"
                }
              ],
              "internalType": "struct ShipData",
              "name": "shipData",
              "type": "tuple"
            },
            {
              "internalType": "address",
              "name": "owner",
              "type": "address"
            }
          ],
          "internalType": "struct Ship",
          "name": "ship",
          "type": "tuple"
        }
      ],
      "name": "renderShip",
      "outputs": [
        {
          "internalType": "string",
          "name": "",
          "type": "string"
        }
      ],
      "stateMutability": "view",
      "type": "function"
    },
    {
      "inputs": [],
      "name": "renderSpecial",
      "outputs": [
        {
          "internalType": "contract IRenderComponent",
          "name": "",
          "type": "address"
        }
      ],
      "stateMutability": "view",
      "type": "function"
    },
    {
      "inputs": [],
      "name": "renderWeapon",
      "outputs": [
        {
          "internalType": "contract IRenderComponent",
          "name": "",
          "type": "address"
        }
      ],
      "stateMutability": "view",
      "type": "function"
    }
  ],
  "bytecode": "0x61012060405234801561001157600080fd5b506040516112ab3803806112ab83398101604081905261003091610075565b6001600160a01b0394851660805292841660a05290831660c052821660e05216610100526100da565b80516001600160a01b038116811461007057600080fd5b919050565b600080600080600060a0868803121561008d57600080fd5b61009686610059565b94506100a460208701610059565b93506100b260408701610059565b92506100c060608701610059565b91506100ce60808701610059565b90509295509295909350565b60805160a05160c05160e0516101005161116d61013e6000396000818160d001526104c90152600081816101450152610415015260008181606c015261036101526000818160f701526102ad01526000818161011e01526101e4015261116d6000f3fe608060405234801561001057600080fd5b50600436106100625760003560e01c806322b176171461006757806324b757b8146100ab5780634144d231146100cb5780635b8fc4f3146100f2578063c9ff31d114610119578063f8bc249f14610140575b600080fd5b61008e7f000000000000000000000000000000000000000000000000000000000000000081565b6040516001600160a01b0390911681526020015b60405180910390f35b6100be6100b9366004610b19565b610167565b6040516100a29190610c6d565b61008e7f000000000000000000000000000000000000000000000000000000000000000081565b61008e7f000000000000000000000000000000000000000000000000000000000000000081565b61008e7f000000000000000000000000000000000000000000000000000000000000000081565b61008e7f000000000000000000000000000000000000000000000000000000000000000081565b60808101516101000151606090156101985760405180608001604052806042815260200161101d6042913992915050565b816080015160a001516101c4576040518060800160405280604281526020016110b66042913992915050565b600060405180608001604052806057815260200161105f605791399050807f00000000000000000000000000000000000000000000000000000000000000006001600160a01b0316635394d872856040518263ffffffff1660e01b815260040161022e9190610e14565b600060405180830381865afa15801561024b573d6000803e3d6000fd5b505050506040513d6000823e601f3d908101601f191682016040526102739190810190610ecf565b604051602001610284929190610f46565b60408051601f19818403018152908290526329ca6c3960e11b8252915081906001600160a01b037f00000000000000000000000000000000000000000000000000000000000000001690635394d872906102e2908790600401610e14565b600060405180830381865afa1580156102ff573d6000803e3d6000fd5b505050506040513d6000823e601f3d908101601f191682016040526103279190810190610ecf565b604051602001610338929190610f46565b60408051601f19818403018152908290526329ca6c3960e11b8252915081906001600160a01b037f00000000000000000000000000000000000000000000000000000000000000001690635394d87290610396908790600401610e14565b600060405180830381865afa1580156103b3573d6000803e3d6000fd5b505050506040513d6000823e601f3d908101601f191682016040526103db9190810190610ecf565b6040516020016103ec929190610f46565b60408051601f19818403018152908290526329ca6c3960e11b8252915081906001600160a01b037f00000000000000000000000000000000000000000000000000000000000000001690635394d8729061044a908790600401610e14565b600060405180830381865afa158015610467573d6000803e3d6000fd5b505050506040513d6000823e601f3d908101601f1916820160405261048f9190810190610ecf565b6040516020016104a0929190610f46565b60408051601f19818403018152908290526329ca6c3960e11b8252915081906001600160a01b037f00000000000000000000000000000000000000000000000000000000000000001690635394d872906104fe908790600401610e14565b600060405180830381865afa15801561051b573d6000803e3d6000fd5b505050506040513d6000823e601f3d908101601f191682016040526105439190810190610ecf565b604051602001610554929190610f46565b60408051601f19818403018152828201825260068352651e17b9bb339f60d11b6020848101919091529151909350610590928492909101610f46565b604051602081830303815290604052905060006105ac826105d7565b9050806040516020016105bf9190610f75565b60405160208183030381529060405292505050919050565b60606105fd826040518060600160405280604081526020016110f8604091396001610603565b92915050565b60608351600003610623575060408051602081019091526000815261077e565b6000826106545760038551600461063a9190610fd0565b610645906002610fe7565b61064f9190610ffa565b610679565b6003855160026106649190610fe7565b61066e9190610ffa565b610679906004610fd0565b905060008167ffffffffffffffff81111561069657610696610785565b6040519080825280601f01601f1916602001820160405280156106c0576020820181803683370190505b50905060018501602082018788518901602081018051600082525b82841015610736576003840193508351603f8160121c168701518653600186019550603f81600c1c168701518653600186019550603f8160061c168701518653600186019550603f81168701518653506001850194506106db565b9052505085156107775760038851066001811461075a576002811461076d57610775565b603d6001830353603d6002830353610775565b603d60018303535b505b5090925050505b9392505050565b634e487b7160e01b600052604160045260246000fd5b60405160c0810167ffffffffffffffff811182821017156107be576107be610785565b60405290565b604051610120810167ffffffffffffffff811182821017156107be576107be610785565b604051601f8201601f1916810167ffffffffffffffff8111828210171561081157610811610785565b604052919050565b600067ffffffffffffffff82111561083357610833610785565b50601f01601f191660200190565b6008811061084e57600080fd5b50565b60006080828403121561086357600080fd5b6040516080810167ffffffffffffffff8111828210171561088657610886610785565b604052905080823561089781610841565b815260208301356108a781610841565b602082015260408301356108ba81610841565b604082015260608301356108cd81610841565b6060919091015292915050565b803561ffff811681146108ec57600080fd5b919050565b803560ff811681146108ec57600080fd5b60008183036101c081121561091657600080fd5b61091e61079b565b833581529150610120601f198201121561093757600080fd5b506109406107c4565b61094c602084016108da565b815261095a604084016108f1565b602082015261096b606084016108f1565b604082015261097c608084016108da565b606082015261098d60a084016108f1565b608082015261099e60c084016108f1565b60a08201526109af60e084016108da565b60c08201526109c161010084016108f1565b60e08201526109d361012084016108f1565b61010082015260208201526109eb61014083016108da565b60408201526109fd61016083016108f1565b6060820152610a0f61018083016108f1565b6080820152610a216101a083016108f1565b60a082015292915050565b803563ffffffff811681146108ec57600080fd5b803580151581146108ec57600080fd5b60006101208284031215610a6357600080fd5b610a6b6107c4565b9050610a7682610a2c565b8152610a84602083016108da565b6020820152610a95604083016108da565b6040820152610aa6606083016108da565b6060820152610ab760808301610a40565b6080820152610ac860a08301610a40565b60a0820152610ad960c08301610a40565b60c0820152610aea60e08301610a40565b60e08201526101009182013591810191909152919050565b80356001600160a01b03811681146108ec57600080fd5b600060208284031215610b2b57600080fd5b813567ffffffffffffffff811115610b4257600080fd5b82016103c08185031215610b5557600080fd5b610b5d61079b565b813567ffffffffffffffff811115610b7457600080fd5b8201601f81018613610b8557600080fd5b8035610b98610b9382610819565b6107e8565b818152876020838501011115610bad57600080fd5b81602084016020830137600060209282018301528352838101359083015250610bd98560408401610851565b6040820152610beb8560c08401610902565b6060820152610bfe856102808401610a50565b6080820152610c106103a08301610b02565b60a0820152949350505050565b60005b83811015610c38578181015183820152602001610c20565b50506000910152565b60008151808452610c59816020860160208601610c1d565b601f01601f19169290920160200192915050565b60208152600061077e6020830184610c41565b6008811061084e57634e487b7160e01b600052602160045260246000fd5b80518252602081015161ffff815116602084015260ff60208201511660408401526040810151610cd3606085018260ff169052565b50606081015161ffff8116608085015250608081015160ff811660a08501525060a081015160ff811660c08501525060c081015161ffff811660e08501525060e081015160ff811661010085015250610100015160ff811661012084015250604081015161ffff811661014084015250606081015160ff811661016084015250608081015160ff81166101808401525060a0015160ff166101a09190910152565b63ffffffff815116825261ffff60208201511660208301526040810151610da1604084018261ffff169052565b506060810151610db7606084018261ffff169052565b506080810151610dcb608084018215159052565b5060a0810151610ddf60a084018215159052565b5060c0810151610df360c084018215159052565b5060e0810151610e0760e084018215159052565b5061010090810151910152565b60208152600082516103c06020840152610e326103e0840182610c41565b90506020840151604084015260408401518051610e4e81610c80565b60608501526020810151610e6181610c80565b60808501526040810151610e7481610c80565b60a085015260600151610e8681610c80565b60c08401526060840151610e9d60e0850182610c9e565b506080840151610eb16102a0850182610d74565b5060a08401516001600160a01b0381166103c0850152509392505050565b600060208284031215610ee157600080fd5b815167ffffffffffffffff811115610ef857600080fd5b8201601f81018413610f0957600080fd5b8051610f17610b9382610819565b818152856020838501011115610f2c57600080fd5b610f3d826020830160208601610c1d565b95945050505050565b60008351610f58818460208801610c1d565b835190830190610f6c818360208801610c1d565b01949350505050565b7f646174613a696d6167652f7376672b786d6c3b6261736536342c000000000000815260008251610fad81601a850160208701610c1d565b91909101601a0192915050565b634e487b7160e01b600052601160045260246000fd5b80820281158282048414176105fd576105fd610fba565b808201808211156105fd576105fd610fba565b60008261101757634e487b7160e01b600052601260045260246000fd5b50049056fe697066733a2f2f6261666b7265696765337a36696f70736d67797a656669646879646261696b7069707877727374717a75796c7732793263347276776e6e3679766d3c73766720786d6c6e733d22687474703a2f2f7777772e77332e6f72672f323030302f737667222076696577426f783d223020302032353620323536222077696474683d2232353622206865696768743d22323536223e697066733a2f2f6261666b726569626333666472647377346c377a7934776a7267616c76666867366b666433776d696a7765666e79336e786a3532343478327472344142434445464748494a4b4c4d4e4f505152535455565758595a6162636465666768696a6b6c6d6e6f707172737475767778797a303132333435363738392b2fa264697066735822122039a85427c3d53ed1b5b15cbc0cf56d735ad263940951f2e46c05bd59bb0866f564736f6c634300081c0033",
  "linkReferences": {},
  "deployedLinkReferences": {}
}