{
  "_format": "hh-sol-artifact-1",
  "contractName": "Maps",
  "sourceName": "contracts/Maps.sol",
  "abi": [
    {
      "inputs": [],
      "stateMutability": "nonpayable",
      "type": "constructor"
    },
    {
      "inputs": [],
      "name": "InvalidPosition",
      "type": "error"
    },
    {
      "inputs": [],
      "name": "MapNotFound",
      "type": "error"
    },
    {
      "inputs": [],
      "name": "NotGameContract",
      "type": "error"
    },
    {
      "inputs": [
        {
          "internalType": "address",
          "name": "owner",
          "type": "address"
        }
      ],
      "name": "OwnableInvalidOwner",
      "type": "error"
    },
    {
      "inputs": [
        {
          "internalType": "address",
          "name": "account",
          "type": "address"
        }
      ],
      "name": "OwnableUnauthorizedAccount",
      "type": "error"
    },
    {
      "anonymous": false,
      "inputs": [
        {
          "indexed": true,
          "internalType": "address",
          "name": "previousOwner",
          "type": "address"
        },
        {
          "indexed": true,
          "internalType": "address",
          "name": "newOwner",
          "type": "address"
        }
      ],
      "name": "OwnershipTransferred",
      "type": "event"
    },
    {
      "inputs": [],
      "name": "GRID_HEIGHT",
      "outputs": [
        {
          "internalType": "int16",
          "name": "",
          "type": "int16"
        }
      ],
      "stateMutability": "view",
      "type": "function"
    },
    {
      "inputs": [],
      "name": "GRID_WIDTH",
      "outputs": [
        {
          "internalType": "int16",
          "name": "",
          "type": "int16"
        }
      ],
      "stateMutability": "view",
      "type": "function"
    },
    {
      "inputs": [
        {
          "internalType": "uint256",
          "name": "_gameId",
          "type": "uint256"
        },
        {
          "internalType": "uint256",
          "name": "_mapId",
          "type": "uint256"
        }
      ],
      "name": "applyPresetMapToGame",
      "outputs": [],
      "stateMutability": "nonpayable",
      "type": "function"
    },
    {
      "inputs": [
        {
          "internalType": "uint256",
          "name": "_gameId",
          "type": "uint256"
        },
        {
          "internalType": "uint256",
          "name": "_mapId",
          "type": "uint256"
        }
      ],
      "name": "applyPresetScoringMapToGame",
      "outputs": [],
      "stateMutability": "nonpayable",
      "type": "function"
    },
    {
      "inputs": [
        {
          "internalType": "uint256",
          "name": "",
          "type": "uint256"
        },
        {
          "internalType": "int16",
          "name": "",
          "type": "int16"
        },
        {
          "internalType": "int16",
          "name": "",
          "type": "int16"
        }
      ],
      "name": "blockedTiles",
      "outputs": [
        {
          "internalType": "bool",
          "name": "",
          "type": "bool"
        }
      ],
      "stateMutability": "view",
      "type": "function"
    },
    {
      "inputs": [
        {
          "components": [
            {
              "internalType": "int16",
              "name": "row",
              "type": "int16"
            },
            {
              "internalType": "int16",
              "name": "col",
              "type": "int16"
            }
          ],
          "internalType": "struct Position[]",
          "name": "_blockedPositions",
          "type": "tuple[]"
        },
        {
          "components": [
            {
              "internalType": "int16",
              "name": "row",
              "type": "int16"
            },
            {
              "internalType": "int16",
              "name": "col",
              "type": "int16"
            },
            {
              "internalType": "uint8",
              "name": "points",
              "type": "uint8"
            },
            {
              "internalType": "bool",
              "name": "onlyOnce",
              "type": "bool"
            }
          ],
          "internalType": "struct ScoringPosition[]",
          "name": "_scoringPositions",
          "type": "tuple[]"
        }
      ],
      "name": "createPresetMap",
      "outputs": [],
      "stateMutability": "nonpayable",
      "type": "function"
    },
    {
      "inputs": [
        {
          "components": [
            {
              "internalType": "int16",
              "name": "row",
              "type": "int16"
            },
            {
              "internalType": "int16",
              "name": "col",
              "type": "int16"
            }
          ],
          "internalType": "struct Position[]",
          "name": "_blockedPositions",
          "type": "tuple[]"
        }
      ],
      "name": "createPresetMap",
      "outputs": [],
      "stateMutability": "nonpayable",
      "type": "function"
    },
    {
      "inputs": [
        {
          "components": [
            {
              "internalType": "int16",
              "name": "row",
              "type": "int16"
            },
            {
              "internalType": "int16",
              "name": "col",
              "type": "int16"
            },
            {
              "internalType": "uint8",
              "name": "points",
              "type": "uint8"
            },
            {
              "internalType": "bool",
              "name": "onlyOnce",
              "type": "bool"
            }
          ],
          "internalType": "struct ScoringPosition[]",
          "name": "_scoringPositions",
          "type": "tuple[]"
        }
      ],
      "name": "createPresetScoringMap",
      "outputs": [],
      "stateMutability": "nonpayable",
      "type": "function"
    },
    {
      "inputs": [],
      "name": "gameAddress",
      "outputs": [
        {
          "internalType": "address",
          "name": "",
          "type": "address"
        }
      ],
      "stateMutability": "view",
      "type": "function"
    },
    {
      "inputs": [],
      "name": "getAllPresetMapIds",
      "outputs": [
        {
          "internalType": "uint256[]",
          "name": "mapIds",
          "type": "uint256[]"
        }
      ],
      "stateMutability": "view",
      "type": "function"
    },
    {
      "inputs": [],
      "name": "getAllPresetMaps",
      "outputs": [
        {
          "internalType": "uint256[]",
          "name": "mapIds",
          "type": "uint256[]"
        },
        {
          "components": [
            {
              "internalType": "int16",
              "name": "row",
              "type": "int16"
            },
            {
              "internalType": "int16",
              "name": "col",
              "type": "int16"
            }
          ],
          "internalType": "struct Position[][]",
          "name": "blockedPositions",
          "type": "tuple[][]"
        },
        {
          "components": [
            {
              "internalType": "int16",
              "name": "row",
              "type": "int16"
            },
            {
              "internalType": "int16",
              "name": "col",
              "type": "int16"
            },
            {
              "internalType": "uint8",
              "name": "points",
              "type": "uint8"
            },
            {
              "internalType": "bool",
              "name": "onlyOnce",
              "type": "bool"
            }
          ],
          "internalType": "struct ScoringPosition[][]",
          "name": "scoringPositions",
          "type": "tuple[][]"
        }
      ],
      "stateMutability": "view",
      "type": "function"
    },
    {
      "inputs": [
        {
          "internalType": "uint256",
          "name": "_gameId",
          "type": "uint256"
        }
      ],
      "name": "getGameMapState",
      "outputs": [
        {
          "components": [
            {
              "internalType": "int16",
              "name": "row",
              "type": "int16"
            },
            {
              "internalType": "int16",
              "name": "col",
              "type": "int16"
            }
          ],
          "internalType": "struct Position[]",
          "name": "blockedPositions",
          "type": "tuple[]"
        },
        {
          "components": [
            {
              "internalType": "int16",
              "name": "row",
              "type": "int16"
            },
            {
              "internalType": "int16",
              "name": "col",
              "type": "int16"
            },
            {
              "internalType": "uint8",
              "name": "points",
              "type": "uint8"
            },
            {
              "internalType": "bool",
              "name": "onlyOnce",
              "type": "bool"
            }
          ],
          "internalType": "struct ScoringPosition[]",
          "name": "scoringPositions",
          "type": "tuple[]"
        }
      ],
      "stateMutability": "view",
      "type": "function"
    },
    {
      "inputs": [
        {
          "internalType": "uint256",
          "name": "_mapId",
          "type": "uint256"
        }
      ],
      "name": "getPresetMap",
      "outputs": [
        {
          "components": [
            {
              "internalType": "int16",
              "name": "row",
              "type": "int16"
            },
            {
              "internalType": "int16",
              "name": "col",
              "type": "int16"
            }
          ],
          "internalType": "struct Position[]",
          "name": "",
          "type": "tuple[]"
        }
      ],
      "stateMutability": "view",
      "type": "function"
    },
    {
      "inputs": [
        {
          "internalType": "uint256",
          "name": "_mapId",
          "type": "uint256"
        }
      ],
      "name": "getPresetScoringMap",
      "outputs": [
        {
          "components": [
            {
              "internalType": "int16",
              "name": "row",
              "type": "int16"
            },
            {
              "internalType": "int16",
              "name": "col",
              "type": "int16"
            },
            {
              "internalType": "uint8",
              "name": "points",
              "type": "uint8"
            },
            {
              "internalType": "bool",
              "name": "onlyOnce",
              "type": "bool"
            }
          ],
          "internalType": "struct ScoringPosition[]",
          "name": "",
          "type": "tuple[]"
        }
      ],
      "stateMutability": "view",
      "type": "function"
    },
    {
      "inputs": [
        {
          "internalType": "uint256",
          "name": "_gameId",
          "type": "uint256"
        },
        {
          "internalType": "int16",
          "name": "_row",
          "type": "int16"
        },
        {
          "internalType": "int16",
          "name": "_col",
          "type": "int16"
        }
      ],
      "name": "getScoreAndZeroOut",
      "outputs": [
        {
          "internalType": "uint8",
          "name": "",
          "type": "uint8"
        }
      ],
      "stateMutability": "nonpayable",
      "type": "function"
    },
    {
      "inputs": [
        {
          "internalType": "uint256",
          "name": "_gameId",
          "type": "uint256"
        },
        {
          "internalType": "int16",
          "name": "_row0",
          "type": "int16"
        },
        {
          "internalType": "int16",
          "name": "_col0",
          "type": "int16"
        },
        {
          "internalType": "int16",
          "name": "_row1",
          "type": "int16"
        },
        {
          "internalType": "int16",
          "name": "_col1",
          "type": "int16"
        }
      ],
      "name": "hasMaps",
      "outputs": [
        {
          "internalType": "bool",
          "name": "",
          "type": "bool"
        }
      ],
      "stateMutability": "view",
      "type": "function"
    },
    {
      "inputs": [
        {
          "internalType": "uint256",
          "name": "_gameId",
          "type": "uint256"
        },
        {
          "internalType": "int16",
          "name": "_row",
          "type": "int16"
        },
        {
          "internalType": "int16",
          "name": "_col",
          "type": "int16"
        }
      ],
      "name": "isTileBlocked",
      "outputs": [
        {
          "internalType": "bool",
          "name": "",
          "type": "bool"
        }
      ],
      "stateMutability": "view",
      "type": "function"
    },
    {
      "inputs": [
        {
          "internalType": "uint256",
          "name": "_gameId",
          "type": "uint256"
        },
        {
          "internalType": "int16",
          "name": "_row",
          "type": "int16"
        },
        {
          "internalType": "int16",
          "name": "_col",
          "type": "int16"
        }
      ],
      "name": "isTileScoring",
      "outputs": [
        {
          "internalType": "uint8",
          "name": "",
          "type": "uint8"
        }
      ],
      "stateMutability": "view",
      "type": "function"
    },
    {
      "inputs": [
        {
          "internalType": "uint256",
          "name": "_gameId",
          "type": "uint256"
        },
        {
          "internalType": "int16",
          "name": "_row",
          "type": "int16"
        },
        {
          "internalType": "int16",
          "name": "_col",
          "type": "int16"
        }
      ],
      "name": "isTileScoringSafe",
      "outputs": [
        {
          "internalType": "uint8",
          "name": "",
          "type": "uint8"
        }
      ],
      "stateMutability": "view",
      "type": "function"
    },
    {
      "inputs": [],
      "name": "mapCount",
      "outputs": [
        {
          "internalType": "uint256",
          "name": "",
          "type": "uint256"
        }
      ],
      "stateMutability": "view",
      "type": "function"
    },
    {
      "inputs": [
        {
          "internalType": "uint256",
          "name": "_mapId",
          "type": "uint256"
        }
      ],
      "name": "mapExists",
      "outputs": [
        {
          "internalType": "bool",
          "name": "",
          "type": "bool"
        }
      ],
      "stateMutability": "view",
      "type": "function"
    },
    {
      "inputs": [
        {
          "internalType": "uint256",
          "name": "",
          "type": "uint256"
        },
        {
          "internalType": "int16",
          "name": "",
          "type": "int16"
        },
        {
          "internalType": "int16",
          "name": "",
          "type": "int16"
        }
      ],
      "name": "onlyOnceTiles",
      "outputs": [
        {
          "internalType": "bool",
          "name": "",
          "type": "bool"
        }
      ],
      "stateMutability": "view",
      "type": "function"
    },
    {
      "inputs": [],
      "name": "owner",
      "outputs": [
        {
          "internalType": "address",
          "name": "",
          "type": "address"
        }
      ],
      "stateMutability": "view",
      "type": "function"
    },
    {
      "inputs": [
        {
          "internalType": "uint256",
          "name": "",
          "type": "uint256"
        },
        {
          "internalType": "int16",
          "name": "",
          "type": "int16"
        },
        {
          "internalType": "int16",
          "name": "",
          "type": "int16"
        }
      ],
      "name": "presetBlockedMaps",
      "outputs": [
        {
          "internalType": "bool",
          "name": "",
          "type": "bool"
        }
      ],
      "stateMutability": "view",
      "type": "function"
    },
    {
      "inputs": [
        {
          "internalType": "uint256",
          "name": "",
          "type": "uint256"
        },
        {
          "internalType": "int16",
          "name": "",
          "type": "int16"
        },
        {
          "internalType": "int16",
          "name": "",
          "type": "int16"
        }
      ],
      "name": "presetOnlyOnceMaps",
      "outputs": [
        {
          "internalType": "bool",
          "name": "",
          "type": "bool"
        }
      ],
      "stateMutability": "view",
      "type": "function"
    },
    {
      "inputs": [
        {
          "internalType": "uint256",
          "name": "",
          "type": "uint256"
        },
        {
          "internalType": "int16",
          "name": "",
          "type": "int16"
        },
        {
          "internalType": "int16",
          "name": "",
          "type": "int16"
        }
      ],
      "name": "presetScoringMaps",
      "outputs": [
        {
          "internalType": "uint8",
          "name": "",
          "type": "uint8"
        }
      ],
      "stateMutability": "view",
      "type": "function"
    },
    {
      "inputs": [],
      "name": "renounceOwnership",
      "outputs": [],
      "stateMutability": "nonpayable",
      "type": "function"
    },
    {
      "inputs": [
        {
          "internalType": "uint256",
          "name": "",
          "type": "uint256"
        },
        {
          "internalType": "int16",
          "name": "",
          "type": "int16"
        },
        {
          "internalType": "int16",
          "name": "",
          "type": "int16"
        }
      ],
      "name": "scoringTiles",
      "outputs": [
        {
          "internalType": "uint8",
          "name": "",
          "type": "uint8"
        }
      ],
      "stateMutability": "view",
      "type": "function"
    },
    {
      "inputs": [
        {
          "internalType": "uint256",
          "name": "_gameId",
          "type": "uint256"
        },
        {
          "internalType": "int16",
          "name": "_row",
          "type": "int16"
        },
        {
          "internalType": "int16",
          "name": "_col",
          "type": "int16"
        },
        {
          "internalType": "bool",
          "name": "_blocked",
          "type": "bool"
        }
      ],
      "name": "setBlockedTile",
      "outputs": [],
      "stateMutability": "nonpayable",
      "type": "function"
    },
    {
      "inputs": [
        {
          "internalType": "address",
          "name": "_gameAddress",
          "type": "address"
        }
      ],
      "name": "setGameAddress",
      "outputs": [],
      "stateMutability": "nonpayable",
      "type": "function"
    },
    {
      "inputs": [
        {
          "internalType": "uint256",
          "name": "_gameId",
          "type": "uint256"
        },
        {
          "internalType": "int16",
          "name": "_row",
          "type": "int16"
        },
        {
          "internalType": "int16",
          "name": "_col",
          "type": "int16"
        },
        {
          "internalType": "uint8",
          "name": "_points",
          "type": "uint8"
        }
      ],
      "name": "setScoringTile",
      "outputs": [],
      "stateMutability": "nonpayable",
      "type": "function"
    },
    {
      "inputs": [
        {
          "internalType": "address",
          "name": "newOwner",
          "type": "address"
        }
      ],
      "name": "transferOwnership",
      "outputs": [],
      "stateMutability": "nonpayable",
      "type": "function"
    },
    {
      "inputs": [
        {
          "internalType": "uint256",
          "name": "_mapId",
          "type": "uint256"
        },
        {
          "components": [
            {
              "internalType": "int16",
              "name": "row",
              "type": "int16"
            },
            {
              "internalType": "int16",
              "name": "col",
              "type": "int16"
            }
          ],
          "internalType": "struct Position[]",
          "name": "_blockedPositions",
          "type": "tuple[]"
        }
      ],
      "name": "updatePresetMap",
      "outputs": [],
      "stateMutability": "nonpayable",
      "type": "function"
    },
    {
      "inputs": [
        {
          "internalType": "uint256",
          "name": "_mapId",
          "type": "uint256"
        },
        {
          "components": [
            {
              "internalType": "int16",
              "name": "row",
              "type": "int16"
            },
            {
              "internalType": "int16",
              "name": "col",
              "type": "int16"
            }
          ],
          "internalType": "struct Position[]",
          "name": "_blockedPositions",
          "type": "tuple[]"
        },
        {
          "components": [
            {
              "internalType": "int16",
              "name": "row",
              "type": "int16"
            },
            {
              "internalType": "int16",
              "name": "col",
              "type": "int16"
            },
            {
              "internalType": "uint8",
              "name": "points",
              "type": "uint8"
            },
            {
              "internalType": "bool",
              "name": "onlyOnce",
              "type": "bool"
            }
          ],
          "internalType": "struct ScoringPosition[]",
          "name": "_scoringPositions",
          "type": "tuple[]"
        }
      ],
      "name": "updatePresetMap",
      "outputs": [],
      "stateMutability": "nonpayable",
      "type": "function"
    },
    {
      "inputs": [
        {
          "internalType": "uint256",
          "name": "_mapId",
          "type": "uint256"
        },
        {
          "components": [
            {
              "internalType": "int16",
              "name": "row",
              "type": "int16"
            },
            {
              "internalType": "int16",
              "name": "col",
              "type": "int16"
            },
            {
              "internalType": "uint8",
              "name": "points",
              "type": "uint8"
            },
            {
              "internalType": "bool",
              "name": "onlyOnce",
              "type": "bool"
            }
          ],
          "internalType": "struct ScoringPosition[]",
          "name": "_scoringPositions",
          "type": "tuple[]"
        }
      ],
      "name": "updatePresetScoringMap",
      "outputs": [],
      "stateMutability": "nonpayable",
      "type": "function"
    }
  ],
  "bytecode": "0x6080604052348015600f57600080fd5b503380603557604051631e4fbdf760e01b81526000600482015260240160405180910390fd5b603c816041565b506091565b600080546001600160a01b038381166001600160a01b0319831681178455604051919092169283917f8be0079c531659141344cd1fd0a4f28419497f9722a3daafe3b4186f6b6457e09190a35050565b613021806100a06000396000f3fe608060405234801561001057600080fd5b50600436106101a15760003560e01c8063046e8d0b146101a65780630a312b88146101ef578063235e78eb14610223578063349370d01461023e5780633bf0684b146102635780633fa0bb061461027857806341779f5b1461028b5780634bf11ad2146102a057806357406856146102a85780635a1114e3146102bb57806363228ab7146102ce5780636858bd4014610302578063709faade14610315578063711953ef14610328578063715018a61461033b5780638383c9951461034357806386e8a1a0146103565780638da5cb5b1461036957806396c95ece1461037e578063a168d87314610395578063a2ec85bc146103a8578063c95eeaad146103bb578063c9965537146103ef578063ccc0e35214610423578063ce4693f814610436578063d0bc9bbb14610456578063d4a4affa14610477578063dc32d63b1461048a578063dd91835e1461049d578063edc6e555146104b0578063f2fde38b146104c3578063f342d002146104d6578063f5ea3dc91461050a578063fae435b414610521578063fd844b6e14610541575b600080fd5b6101da6101b43660046126cd565b600160209081526000938452604080852082529284528284209052825290205460ff1681565b60405190151581526020015b60405180910390f35b6101da6101fd3660046126cd565b600560209081526000938452604080852082529284528284209052825290205460ff1681565b61022b601181565b60405160019190910b81526020016101e6565b61025161024c3660046126cd565b610554565b60405160ff90911681526020016101e6565b610276610271366004612709565b6105e5565b005b6102766102863660046129cd565b610773565b610293610789565b6040516101e69190612a70565b61022b600b81565b6102766102b6366004612a83565b61081c565b6101da6102c9366004612af1565b610a0f565b6102516102dc3660046126cd565b600360209081526000938452604080852082529284528284209052825290205460ff1681565b6101da6103103660046126cd565b610a28565b610276610323366004612b0a565b610aa9565b610276610336366004612b57565b610b40565b610276610b6a565b6101da610351366004612b80565b610b7e565b610276610364366004612bde565b610c71565b610371610ded565b6040516101e69190612c00565b610386610dfc565b6040516101e693929190612cb4565b600854610371906001600160a01b031681565b6102516103b63660046126cd565b610f95565b6101da6103c93660046126cd565b600660209081526000938452604080852082529284528284209052825290205460ff1681565b6101da6103fd3660046126cd565b600260209081526000938452604080852082529284528284209052825290205460ff1681565b610276610431366004612d87565b611006565b610449610444366004612af1565b61104c565b6040516101e69190612dc3565b610469610464366004612af1565b6111f8565b6040516101e6929190612dd6565b610276610485366004612bde565b611506565b6102516104983660046126cd565b6116f2565b6102766104ab366004612dfb565b611746565b6102766104be366004612e2f565b61178b565b6102766104d1366004612b57565b61181f565b6102516104e43660046126cd565b600460209081526000938452604080852082529284528284209052825290205460ff1681565b61051360075481565b6040519081526020016101e6565b61053461052f366004612af1565b611863565b6040516101e69190612e71565b61027661054f366004612e84565b611a58565b6000838152600360209081526040808320600186810b8086529184528285209086900b808652908452828520548886526005855283862092865291845282852090855290925282205460ff9182169116156105db576000858152600360209081526040808320600188810b85529083528184209087900b84529091529020805460ff191690555b90505b9392505050565b6105ed611d8d565b8215806105fb575060075483115b1561061957604051639ff5bfb960e01b815260040160405180910390fd5b600061062484611dbf565b905060005b815181101561069257600082828151811061064657610646612ef4565b60209081029190910181015160008881526002835260408082208351600190810b845290855281832093850151810b83529290935291909120805460ff19169055919091019050610629565b5060005b8281101561076c5760008484838181106106b2576106b2612ef4565b9050604002018036038101906106c89190612f0a565b90506000816000015160010b12806106e857508051600b60019190910b12155b806106fa57506000816020015160010b125b806107105750601160010b816020015160010b12155b1561072e5760405163673f032f60e11b815260040160405180910390fd5b60008681526002602090815260408083208451600190810b855290835281842094830151810b8452939091529020805460ff19168217905501610696565b5050505050565b61077b611d8d565b6107858282611f61565b5050565b600754606090806001600160401b038111156107a7576107a7612788565b6040519080825280602002602001820160405280156107d0578160200160208202803683370190505b50915060015b8181116108175780836107ea600183612f3c565b815181106107fa576107fa612ef4565b60209081029190910101528061080f81612f4f565b9150506107d6565b505090565b610824611d8d565b821580610832575060075483115b1561085057604051639ff5bfb960e01b815260040160405180910390fd5b600061085b8461215e565b905060005b81518110156108f357600082828151811061087d5761087d612ef4565b60209081029190910181015160008881526004835260408082208351600190810b84529085528183208486018051830b8552908652828420805460ff199081169091558c8552600687528385209551830b85529486528284209051820b8452909452902080549091169055919091019050610860565b5060005b8281101561076c57600084848381811061091357610913612ef4565b9050608002018036038101906109299190612f68565b90506000816000015160010b128061094957508051600b60019190910b12155b8061095b57506000816020015160010b125b806109715750601160010b816020015160010b12155b1561098f5760405163673f032f60e11b815260040160405180910390fd5b6040808201516000888152600460209081528382208551600190810b84529082528483208287018051830b8552908352858420805460ff90961660ff1996871617905560608701518c8552600684528685209751830b85529683528584209051820b845290915292902080549315159390911692909217909155016108f7565b60008082118015610a2257506007548211155b92915050565b6000808360010b1280610a405750600b600184900b12155b80610a4e575060008260010b125b80610a5e57506011600183900b12155b15610a7c5760405163673f032f60e11b815260040160405180910390fd5b50600092835260016020818152604080862094830b86529381528385209290910b84525290205460ff1690565b610ab1611d8d565b60008360010b1280610ac85750600b600184900b12155b80610ad6575060008260010b125b80610ae657506011600183900b12155b15610b045760405163673f032f60e11b815260040160405180910390fd5b6000938452600360209081526040808620600195860b875282528086209390940b8552919091529120805460ff191660ff909216919091179055565b610b48611d8d565b600880546001600160a01b0319166001600160a01b0392909216919091179055565b610b72611d8d565b610b7c6000612353565b565b6000808560010b1280610b965750600b600186900b12155b80610ba4575060008460010b125b80610bb457506011600185900b12155b80610bc2575060008360010b125b80610bd25750600b600184900b12155b80610be0575060008260010b125b80610bf057506011600183900b12155b15610c0e5760405163673f032f60e11b815260040160405180910390fd5b610c198686866123a3565b15610c2657506000610c68565b8260010b8560010b148015610c4057508160010b8460010b145b15610c5857610c508684846123a3565b159050610c68565b610c6586868686866123e6565b90505b95945050505050565b6008546001600160a01b03163314801590610ca55750610c8f610ded565b6001600160a01b0316336001600160a01b031614155b15610cc357604051636aff438160e11b815260040160405180910390fd5b801580610cd1575060075481115b15610cef57604051639ff5bfb960e01b815260040160405180910390fd5b6000610cfa8261215e565b905060005b8151811015610de7576000828281518110610d1c57610d1c612ef4565b60209081029190910181015160008681526004835260408082208351600190810b84529085528183208486018051830b8552908652828420548b8552600387528385208651840b865287528385208251840b86528752838520805460ff1990811660ff938416179091558b8652600688528486208751850b875288528486208351850b87528852848620548d8752600589528587209751850b87529688528486209251840b865291909652919092208054939094161515921691909117909155919091019050610cff565b50505050565b6000546001600160a01b031690565b606080606060006007549050806001600160401b03811115610e2057610e20612788565b604051908082528060200260200182016040528015610e49578160200160208202803683370190505b509350806001600160401b03811115610e6457610e64612788565b604051908082528060200260200182016040528015610e9757816020015b6060815260200190600190039081610e825790505b509250806001600160401b03811115610eb257610eb2612788565b604051908082528060200260200182016040528015610ee557816020015b6060815260200190600190039081610ed05790505b50915060015b818111610f8e578085610eff600183612f3c565b81518110610f0f57610f0f612ef4565b602002602001018181525050610f2481611dbf565b84610f30600184612f3c565b81518110610f4057610f40612ef4565b6020026020010181905250610f548161215e565b83610f60600184612f3c565b81518110610f7057610f70612ef4565b60200260200101819052508080610f8690612f4f565b915050610eeb565b5050909192565b6000808360010b1280610fad5750600b600184900b12155b80610fbb575060008260010b125b80610fcb57506011600183900b12155b15610fd8575060006105de565b506000928352600360209081526040808520600194850b865282528085209290930b84525290205460ff1690565b61100e611d8d565b6040805160008082526020820190925261104991611042565b61102f612678565b8152602001906001900390816110275790505b5082611f61565b50565b606081158061105c575060075482115b1561107a57604051639ff5bfb960e01b815260040160405180910390fd5b6000805b600b600182900b12156110ec5760005b6011600182900b12156110e3576000858152600260209081526040808320600186810b85529083528184209085900b845290915290205460ff16156110db57826110d781612f4f565b9350505b60010161108e565b5060010161107e565b506000816001600160401b0381111561110757611107612788565b60405190808252806020026020018201604052801561114057816020015b61112d612678565b8152602001906001900390816111255790505b5090506000805b600b600182900b12156111ee5760005b6011600182900b12156111e5576000878152600260209081526040808320600186810b85529083528184209085900b845290915290205460ff16156111dd5760405180604001604052808360010b81526020018260010b8152508484815181106111c3576111c3612ef4565b602002602001018190525082806111d990612f4f565b9350505b600101611157565b50600101611147565b5090949350505050565b6060806000805b600b600182900b121561126a5760005b6011600182900b121561126157600086815260016020818152604080842086840b855282528084209285900b845291905290205460ff1615611259578261125581612f4f565b9350505b60010161120f565b506001016111ff565b506000805b600b600182900b12156112dd5760005b6011600182900b12156112d4576000878152600360209081526040808320600186810b85529083528184209085900b845290915290205460ff16156112cc57826112c881612f4f565b9350505b60010161127f565b5060010161126f565b50816001600160401b038111156112f6576112f6612788565b60405190808252806020026020018201604052801561132f57816020015b61131c612678565b8152602001906001900390816113145790505b509350806001600160401b0381111561134a5761134a612788565b60405190808252806020026020018201604052801561138357816020015b61137061268f565b8152602001906001900390816113685790505b50925060008060005b600b600182900b12156114fc5760005b6011600182900b12156114f357600089815260016020818152604080842086840b855282528084209285900b845291905290205460ff161561141f5760405180604001604052808360010b81526020018260010b81525088858151811061140557611405612ef4565b6020026020010181905250838061141b90612f4f565b9450505b6000898152600360209081526040808320600186810b85529083528184209085900b845290915290205460ff16156114eb5760408051608081018252600184810b8083529084900b602080840182905260008e815260038252858120848252825285812083825282528581205460ff908116868801528f82526005835286822094825293825285812092815291905292909220549091161515606082015287518890859081106114d1576114d1612ef4565b602002602001018190525082806114e790612f4f565b9350505b60010161139c565b5060010161138c565b5050505050915091565b6008546001600160a01b0316331480159061153a5750611524610ded565b6001600160a01b0316336001600160a01b031614155b1561155857604051636aff438160e11b815260040160405180910390fd5b801580611566575060075481115b1561158457604051639ff5bfb960e01b815260040160405180910390fd5b600061158f82611dbf565b905060005b81518110156115f95760008282815181106115b1576115b1612ef4565b6020908102919091018101516000878152600180845260408083208451830b8452855280832093850151820b83529290935220805460ff191682179055919091019050611594565b5060006116058361215e565b905060005b815181101561076c57600082828151811061162757611627612ef4565b60209081029190910181015160008781526004835260408082208351600190810b84529085528183208486018051830b8552908652828420548c8552600387528385208651840b865287528385208251840b86528752838520805460ff1990811660ff938416179091558c8652600688528486208751850b875288528486208351850b87528852848620548e8752600589528587209751850b87529688528486209251840b86529190965291909220805493909416151592169190911790915591909101905061160a565b6000808360010b128061170a5750600b600184900b12155b80611718575060008260010b125b8061172857506011600183900b12155b15610fd85760405163673f032f60e11b815260040160405180910390fd5b61174e611d8d565b6040805160008082526020820190925261104991839190611785565b61177261268f565b81526020019060019003908161176a5790505b50611f61565b611793611d8d565b60008360010b12806117aa5750600b600184900b12155b806117b8575060008260010b125b806117c857506011600183900b12155b156117e65760405163673f032f60e11b815260040160405180910390fd5b600093845260016020818152604080872095830b87529481528486209390910b8552919091529120805460ff1916911515919091179055565b611827611d8d565b6001600160a01b03811661185a576000604051631e4fbdf760e01b81526004016118519190612c00565b60405180910390fd5b61104981612353565b6060811580611873575060075482115b1561189157604051639ff5bfb960e01b815260040160405180910390fd5b6000805b600b600182900b12156119035760005b6011600182900b12156118fa576000858152600460209081526040808320600186810b85529083528184209085900b845290915290205460ff16156118f257826118ee81612f4f565b9350505b6001016118a5565b50600101611895565b506000816001600160401b0381111561191e5761191e612788565b60405190808252806020026020018201604052801561195757816020015b61194461268f565b81526020019060019003908161193c5790505b5090506000805b600b600182900b12156111ee5760005b6011600182900b1215611a4f576000878152600460209081526040808320600186810b85529083528184209085900b845290915290205460ff1615611a475760408051608081018252600184810b8083529084900b602080840182905260008c815260048252858120848252825285812083825282528581205460ff908116868801528d8252600683528682209482529382528581209281529190529290922054909116151560608201528451859085908110611a2d57611a2d612ef4565b60200260200101819052508280611a4390612f4f565b9350505b60010161196e565b5060010161195e565b611a60611d8d565b821580611a6e575060075483115b15611a8c57604051639ff5bfb960e01b815260040160405180910390fd5b6000611a9784611dbf565b905060005b8151811015611b05576000828281518110611ab957611ab9612ef4565b60209081029190910181015160008881526002835260408082208351600190810b845290855281832093850151810b83529290935291909120805460ff19169055919091019050611a9c565b506000611b118561215e565b905060005b8151811015611ba9576000828281518110611b3357611b33612ef4565b60209081029190910181015160008981526004835260408082208351600190810b84529085528183208486018051830b8552908652828420805460ff199081169091558d8552600687528385209551830b85529486528284209051820b8452909452902080549091169055919091019050611b16565b5060005b8451811015611c76576000858281518110611bca57611bca612ef4565b602002602001015190506000816000015160010b1280611bf257508051600b60019190910b12155b80611c0457506000816020015160010b125b80611c1a5750601160010b816020015160010b12155b15611c385760405163673f032f60e11b815260040160405180910390fd5b60008781526002602090815260408083208451600190810b855290835281842094830151810b8452939091529020805460ff19168217905501611bad565b5060005b8351811015611d85576000848281518110611c9757611c97612ef4565b602002602001015190506000816000015160010b1280611cbf57508051600b60019190910b12155b80611cd157506000816020015160010b125b80611ce75750601160010b816020015160010b12155b15611d055760405163673f032f60e11b815260040160405180910390fd5b6040808201516000898152600460209081528382208551600190810b84529082528483208287018051830b8552908352858420805460ff90961660ff1996871617905560608701518d8552600684528685209751830b85529683528584209051820b84529091529290208054931515939091169290921790915501611c7a565b505050505050565b33611d96610ded565b6001600160a01b031614610b7c573360405163118cdaa760e01b81526004016118519190612c00565b6060811580611dcf575060075482115b15611ded57604051639ff5bfb960e01b815260040160405180910390fd5b6000805b600b600182900b1215611e5f5760005b6011600182900b1215611e56576000858152600260209081526040808320600186810b85529083528184209085900b845290915290205460ff1615611e4e5782611e4a81612f4f565b9350505b600101611e01565b50600101611df1565b506000816001600160401b03811115611e7a57611e7a612788565b604051908082528060200260200182016040528015611eb357816020015b611ea0612678565b815260200190600190039081611e985790505b5090506000805b600b600182900b12156111ee5760005b6011600182900b1215611f58576000878152600260209081526040808320600186810b85529083528184209085900b845290915290205460ff1615611f505760405180604001604052808360010b81526020018260010b815250848481518110611f3657611f36612ef4565b60200260200101819052508280611f4c90612f4f565b9350505b600101611eca565b50600101611eba565b60078054906000611f7183612f4f565b919050555060005b8251811015612045576000838281518110611f9657611f96612ef4565b602002602001015190506000816000015160010b1280611fbe57508051600b60019190910b12155b80611fd057506000816020015160010b125b80611fe65750601160010b816020015160010b12155b156120045760405163673f032f60e11b815260040160405180910390fd5b60075460009081526002602090815260408083208451600190810b855290835281842094830151810b8452939091529020805460ff19168217905501611f79565b5060005b815181101561215957600082828151811061206657612066612ef4565b602002602001015190506000816000015160010b128061208e57508051600b60019190910b12155b806120a057506000816020015160010b125b806120b65750601160010b816020015160010b12155b156120d45760405163673f032f60e11b815260040160405180910390fd5b604080820151600780546000908152600460209081528482208651600190810b84529082528583208288018051830b8552908352868420805460ff90971660ff19978816179055606088015194548452600683528684209751820b84529682528583209651810b83529590529290922080549215159290911691909117905501612049565b505050565b606081158061216e575060075482115b1561218c57604051639ff5bfb960e01b815260040160405180910390fd5b6000805b600b600182900b12156121fe5760005b6011600182900b12156121f5576000858152600460209081526040808320600186810b85529083528184209085900b845290915290205460ff16156121ed57826121e981612f4f565b9350505b6001016121a0565b50600101612190565b506000816001600160401b0381111561221957612219612788565b60405190808252806020026020018201604052801561225257816020015b61223f61268f565b8152602001906001900390816122375790505b5090506000805b600b600182900b12156111ee5760005b6011600182900b121561234a576000878152600460209081526040808320600186810b85529083528184209085900b845290915290205460ff16156123425760408051608081018252600184810b8083529084900b602080840182905260008c815260048252858120848252825285812083825282528581205460ff908116868801528d825260068352868220948252938252858120928152919052929092205490911615156060820152845185908590811061232857612328612ef4565b6020026020010181905250828061233e90612f4f565b9350505b600101612269565b50600101612259565b600080546001600160a01b038381166001600160a01b0319831681178455604051919092169283917f8be0079c531659141344cd1fd0a4f28419497f9722a3daafe3b4186f6b6457e09190a35050565b6000808360010b12806123bb5750600b600184900b12155b806123c9575060008260010b125b806123d957506011600183900b12155b15610a7c575060016105de565b6000808560010b8460010b13612405576124008487612f84565b61240f565b61240f8685612f84565b905060008560010b8460010b1361242f5761242a8487612f84565b612439565b6124398685612f84565b905060008760010b8660010b13612466578760010b8660010b1261245e576000612469565b600019612469565b60015b905060008760010b8660010b13612496578760010b8660010b1261248e576000612499565b600019612499565b60015b905060006124a78585612f84565b905089895b8960010b8260010b1480156124c657508860010b8160010b145b156124e5576124d68d83836123a3565b15975050505050505050610c68565b600183810b811b9081900b6000036125b55761250b8e846125068886612fa7565b6123a3565b801561252657506125268e6125208886612fa7565b846123a3565b1561253c57600098505050505050505050610c68565b6125468583612fa7565b91506125528885612f84565b935061255e8684612fa7565b925061256a8785612fa7565b93508a60010b8360010b14158061258757508960010b8260010b14155b801561259957506125998e84846123a3565b156125af57600098505050505050505050610c68565b506124ac565b6125be88612fca565b60010b8160010b1315612626576125d58885612f84565b93506125e18583612fa7565b91508a60010b8360010b1415806125fe57508960010b8260010b14155b801561261057506126108e84846123a3565b1561262657600098505050505050505050610c68565b8660010b8160010b12156125af5761263e8785612fa7565b935061264a8684612fa7565b92508a60010b8360010b14158061258757508960010b8260010b1415801561259957506125998e84846123a3565b604080518082019091526000808252602082015290565b60408051608081018252600080825260208201819052918101829052606081019190915290565b8035600181900b81146126c857600080fd5b919050565b6000806000606084860312156126e257600080fd5b833592506126f2602085016126b6565b9150612700604085016126b6565b90509250925092565b60008060006040848603121561271e57600080fd5b8335925060208401356001600160401b0381111561273b57600080fd5b8401601f8101861361274c57600080fd5b80356001600160401b0381111561276257600080fd5b8660208260061b840101111561277757600080fd5b939660209190910195509293505050565b634e487b7160e01b600052604160045260246000fd5b604051601f8201601f191681016001600160401b03811182821017156127c6576127c6612788565b604052919050565b60006001600160401b038211156127e7576127e7612788565b5060051b60200190565b60006040828403121561280357600080fd5b604080519081016001600160401b038111828210171561282557612825612788565b604052905080612834836126b6565b8152612842602084016126b6565b60208201525092915050565b600082601f83011261285f57600080fd5b813561287261286d826127ce565b61279e565b8082825260208201915060208360061b86010192508583111561289457600080fd5b602085015b838110156128bb576128ab87826127f1565b8352602090920191604001612899565b5095945050505050565b803560ff811681146126c857600080fd5b803580151581146126c857600080fd5b6000608082840312156128f857600080fd5b604051608081016001600160401b038111828210171561291a5761291a612788565b604052905080612929836126b6565b8152612937602084016126b6565b6020820152612948604084016128c5565b6040820152612959606084016128d6565b60608201525092915050565b600082601f83011261297657600080fd5b813561298461286d826127ce565b8082825260208201915060208360071b8601019250858311156129a657600080fd5b602085015b838110156128bb576129bd87826128e6565b83526020909201916080016129ab565b600080604083850312156129e057600080fd5b82356001600160401b038111156129f657600080fd5b612a028582860161284e565b92505060208301356001600160401b03811115612a1e57600080fd5b612a2a85828601612965565b9150509250929050565b600081518084526020840193506020830160005b82811015612a66578151865260209586019590910190600101612a48565b5093949350505050565b6020815260006105de6020830184612a34565b600080600060408486031215612a9857600080fd5b8335925060208401356001600160401b03811115612ab557600080fd5b8401601f81018613612ac657600080fd5b80356001600160401b03811115612adc57600080fd5b8660208260071b840101111561277757600080fd5b600060208284031215612b0357600080fd5b5035919050565b60008060008060808587031215612b2057600080fd5b84359350612b30602086016126b6565b9250612b3e604086016126b6565b9150612b4c606086016128c5565b905092959194509250565b600060208284031215612b6957600080fd5b81356001600160a01b03811681146105de57600080fd5b600080600080600060a08688031215612b9857600080fd5b85359450612ba8602087016126b6565b9350612bb6604087016126b6565b9250612bc4606087016126b6565b9150612bd2608087016126b6565b90509295509295909350565b60008060408385031215612bf157600080fd5b50508035926020909101359150565b6001600160a01b0391909116815260200190565b600081518084526020840193506020830160005b82811015612a665781518051600190810b8852602091820151810b8289015260409097019692019101612c28565b600081518084526020840193506020830160005b82811015612a665781518051600190810b8852602080830151820b818a015260408084015160ff16908a015260609283015115159289019290925260809097019692019101612c6a565b606081526000612cc76060830186612a34565b828103602084015280855180835260208301915060208160051b8401016020880160005b83811015612d1d57601f19868403018552612d07838351612c14565b6020958601959093509190910190600101612ceb565b50508581036040870152865180825260208083019550909350600584901b820181019250870160005b84811015612d7857601f19838503018652612d62848351612c56565b6020968701969094509190910190600101612d46565b50919998505050505050505050565b600060208284031215612d9957600080fd5b81356001600160401b03811115612daf57600080fd5b612dbb84828501612965565b949350505050565b6020815260006105de6020830184612c14565b604081526000612de96040830185612c14565b8281036020840152610c688185612c56565b600060208284031215612e0d57600080fd5b81356001600160401b03811115612e2357600080fd5b612dbb8482850161284e565b60008060008060808587031215612e4557600080fd5b84359350612e55602086016126b6565b9250612e63604086016126b6565b9150612b4c606086016128d6565b6020815260006105de6020830184612c56565b600080600060608486031215612e9957600080fd5b8335925060208401356001600160401b03811115612eb657600080fd5b612ec28682870161284e565b92505060408401356001600160401b03811115612ede57600080fd5b612eea86828701612965565b9150509250925092565b634e487b7160e01b600052603260045260246000fd5b600060408284031215612f1c57600080fd5b6105de83836127f1565b634e487b7160e01b600052601160045260246000fd5b81810381811115610a2257610a22612f26565b600060018201612f6157612f61612f26565b5060010190565b600060808284031215612f7a57600080fd5b6105de83836128e6565b600182810b9082900b03617fff198112617fff82131715610a2257610a22612f26565b600181810b9083900b01617fff8113617fff1982121715610a2257610a22612f26565b60008160010b617fff198103612fe257612fe2612f26565b6000039291505056fea2646970667358221220c9d7828598e03ac3adc5d75db02f1fb85832c98c372bc08d8ae3e7c3c3911bf264736f6c634300081c0033",
  "linkReferences": {},
  "deployedLinkReferences": {}
}