{
  "_format": "hh-sol-artifact-1",
  "contractName": "DroneYard",
  "sourceName": "contracts/DroneYard.sol",
  "abi": [
    {
      "inputs": [
        {
          "internalType": "address",
          "name": "_ships",
          "type": "address"
        },
        {
          "internalType": "address",
          "name": "_universalCredits",
          "type": "address"
        },
        {
          "internalType": "address",
          "name": "_shipPurchaser",
          "type": "address"
        },
        {
          "internalType": "address",
          "name": "_shipNames",
          "type": "address"
        }
      ],
      "stateMutability": "nonpayable",
      "type": "constructor"
    },
    {
      "inputs": [],
      "name": "ArmorAndShieldsBothSet",
      "type": "error"
    },
    {
      "inputs": [
        {
          "internalType": "uint256",
          "name": "_required",
          "type": "uint256"
        },
        {
          "internalType": "uint256",
          "name": "_available",
          "type": "uint256"
        }
      ],
      "name": "InsufficientFunds",
      "type": "error"
    },
    {
      "inputs": [],
      "name": "InvalidModification",
      "type": "error"
    },
    {
      "inputs": [
        {
          "internalType": "uint8",
          "name": "_value",
          "type": "uint8"
        }
      ],
      "name": "InvalidTraitValue",
      "type": "error"
    },
    {
      "inputs": [
        {
          "internalType": "uint256",
          "name": "_shipId",
          "type": "uint256"
        }
      ],
      "name": "NotShipOwner",
      "type": "error"
    },
    {
      "inputs": [],
      "name": "ReentrancyGuardReentrantCall",
      "type": "error"
    },
    {
      "inputs": [
        {
          "internalType": "uint256",
          "name": "_shipId",
          "type": "uint256"
        }
      ],
      "name": "ShipInFleet",
      "type": "error"
    },
    {
      "inputs": [
        {
          "internalType": "uint256",
          "name": "_shipId",
          "type": "uint256"
        }
      ],
      "name": "ShipNotConstructed",
      "type": "error"
    },
    {
      "inputs": [
        {
          "internalType": "uint256",
          "name": "_shipId",
          "type": "uint256"
        },
        {
          "components": [
            {
              "internalType": "string",
              "name": "name",
              "type": "string"
            },
            {
              "internalType": "uint256",
              "name": "id",
              "type": "uint256"
            },
            {
              "components": [
                {
                  "internalType": "enum MainWeapon",
                  "name": "mainWeapon",
                  "type": "uint8"
                },
                {
                  "internalType": "enum Armor",
                  "name": "armor",
                  "type": "uint8"
                },
                {
                  "internalType": "enum Shields",
                  "name": "shields",
                  "type": "uint8"
                },
                {
                  "internalType": "enum Special",
                  "name": "special",
                  "type": "uint8"
                }
              ],
              "internalType": "struct Equipment",
              "name": "equipment",
              "type": "tuple"
            },
            {
              "components": [
                {
                  "internalType": "uint256",
                  "name": "serialNumber",
                  "type": "uint256"
                },
                {
                  "components": [
                    {
                      "internalType": "uint16",
                      "name": "h1",
                      "type": "uint16"
                    },
                    {
                      "internalType": "uint8",
                      "name": "s1",
                      "type": "uint8"
                    },
                    {
                      "internalType": "uint8",
                      "name": "l1",
                      "type": "uint8"
                    },
                    {
                      "internalType": "uint16",
                      "name": "h2",
                      "type": "uint16"
                    },
                    {
                      "internalType": "uint8",
                      "name": "s2",
                      "type": "uint8"
                    },
                    {
                      "internalType": "uint8",
                      "name": "l2",
                      "type": "uint8"
                    },
                    {
                      "internalType": "uint16",
                      "name": "h3",
                      "type": "uint16"
                    },
                    {
                      "internalType": "uint8",
                      "name": "s3",
                      "type": "uint8"
                    },
                    {
                      "internalType": "uint8",
                      "name": "l3",
                      "type": "uint8"
                    }
                  ],
                  "internalType": "struct Colors",
                  "name": "colors",
                  "type": "tuple"
                },
                {
                  "internalType": "uint16",
                  "name": "variant",
                  "type": "uint16"
                },
                {
                  "internalType": "uint8",
                  "name": "accuracy",
                  "type": "uint8"
                },
                {
                  "internalType": "uint8",
                  "name": "hull",
                  "type": "uint8"
                },
                {
                  "internalType": "uint8",
                  "name": "speed",
                  "type": "uint8"
                }
              ],
              "internalType": "struct Traits",
              "name": "traits",
              "type": "tuple"
            },
            {
              "components": [
                {
                  "internalType": "uint32",
                  "name": "shipsDestroyed",
                  "type": "uint32"
                },
                {
                  "internalType": "uint16",
                  "name": "costsVersion",
                  "type": "uint16"
                },
                {
                  "internalType": "uint16",
                  "name": "cost",
                  "type": "uint16"
                },
                {
                  "internalType": "uint16",
                  "name": "modified",
                  "type": "uint16"
                },
                {
                  "internalType": "bool",
                  "name": "shiny",
                  "type": "bool"
                },
                {
                  "internalType": "bool",
                  "name": "constructed",
                  "type": "bool"
                },
                {
                  "internalType": "bool",
                  "name": "inFleet",
                  "type": "bool"
                },
                {
                  "internalType": "bool",
                  "name": "isFreeShip",
                  "type": "bool"
                },
                {
                  "internalType": "uint256",
                  "name": "timestampDestroyed",
                  "type": "uint256"
                }
              ],
              "internalType": "struct ShipData",
              "name": "shipData",
              "type": "tuple"
            },
            {
              "internalType": "address",
              "name": "owner",
              "type": "address"
            }
          ],
          "internalType": "struct Ship",
          "name": "_newShip",
          "type": "tuple"
        }
      ],
      "name": "calculateCostToModify",
      "outputs": [
        {
          "internalType": "uint256",
          "name": "",
          "type": "uint256"
        }
      ],
      "stateMutability": "view",
      "type": "function"
    },
    {
      "inputs": [
        {
          "internalType": "uint256",
          "name": "_shipId",
          "type": "uint256"
        },
        {
          "components": [
            {
              "internalType": "string",
              "name": "name",
              "type": "string"
            },
            {
              "internalType": "uint256",
              "name": "id",
              "type": "uint256"
            },
            {
              "components": [
                {
                  "internalType": "enum MainWeapon",
                  "name": "mainWeapon",
                  "type": "uint8"
                },
                {
                  "internalType": "enum Armor",
                  "name": "armor",
                  "type": "uint8"
                },
                {
                  "internalType": "enum Shields",
                  "name": "shields",
                  "type": "uint8"
                },
                {
                  "internalType": "enum Special",
                  "name": "special",
                  "type": "uint8"
                }
              ],
              "internalType": "struct Equipment",
              "name": "equipment",
              "type": "tuple"
            },
            {
              "components": [
                {
                  "internalType": "uint256",
                  "name": "serialNumber",
                  "type": "uint256"
                },
                {
                  "components": [
                    {
                      "internalType": "uint16",
                      "name": "h1",
                      "type": "uint16"
                    },
                    {
                      "internalType": "uint8",
                      "name": "s1",
                      "type": "uint8"
                    },
                    {
                      "internalType": "uint8",
                      "name": "l1",
                      "type": "uint8"
                    },
                    {
                      "internalType": "uint16",
                      "name": "h2",
                      "type": "uint16"
                    },
                    {
                      "internalType": "uint8",
                      "name": "s2",
                      "type": "uint8"
                    },
                    {
                      "internalType": "uint8",
                      "name": "l2",
                      "type": "uint8"
                    },
                    {
                      "internalType": "uint16",
                      "name": "h3",
                      "type": "uint16"
                    },
                    {
                      "internalType": "uint8",
                      "name": "s3",
                      "type": "uint8"
                    },
                    {
                      "internalType": "uint8",
                      "name": "l3",
                      "type": "uint8"
                    }
                  ],
                  "internalType": "struct Colors",
                  "name": "colors",
                  "type": "tuple"
                },
                {
                  "internalType": "uint16",
                  "name": "variant",
                  "type": "uint16"
                },
                {
                  "internalType": "uint8",
                  "name": "accuracy",
                  "type": "uint8"
                },
                {
                  "internalType": "uint8",
                  "name": "hull",
                  "type": "uint8"
                },
                {
                  "internalType": "uint8",
                  "name": "speed",
                  "type": "uint8"
                }
              ],
              "internalType": "struct Traits",
              "name": "traits",
              "type": "tuple"
            },
            {
              "components": [
                {
                  "internalType": "uint32",
                  "name": "shipsDestroyed",
                  "type": "uint32"
                },
                {
                  "internalType": "uint16",
                  "name": "costsVersion",
                  "type": "uint16"
                },
                {
                  "internalType": "uint16",
                  "name": "cost",
                  "type": "uint16"
                },
                {
                  "internalType": "uint16",
                  "name": "modified",
                  "type": "uint16"
                },
                {
                  "internalType": "bool",
                  "name": "shiny",
                  "type": "bool"
                },
                {
                  "internalType": "bool",
                  "name": "constructed",
                  "type": "bool"
                },
                {
                  "internalType": "bool",
                  "name": "inFleet",
                  "type": "bool"
                },
                {
                  "internalType": "bool",
                  "name": "isFreeShip",
                  "type": "bool"
                },
                {
                  "internalType": "uint256",
                  "name": "timestampDestroyed",
                  "type": "uint256"
                }
              ],
              "internalType": "struct ShipData",
              "name": "shipData",
              "type": "tuple"
            },
            {
              "internalType": "address",
              "name": "owner",
              "type": "address"
            }
          ],
          "internalType": "struct Ship",
          "name": "_newShip",
          "type": "tuple"
        }
      ],
      "name": "modifyShip",
      "outputs": [],
      "stateMutability": "nonpayable",
      "type": "function"
    },
    {
      "inputs": [],
      "name": "shipNames",
      "outputs": [
        {
          "internalType": "contract IOnchainRandomShipNames",
          "name": "",
          "type": "address"
        }
      ],
      "stateMutability": "view",
      "type": "function"
    },
    {
      "inputs": [],
      "name": "shipPurchaser",
      "outputs": [
        {
          "internalType": "contract IShipPurchaser",
          "name": "",
          "type": "address"
        }
      ],
      "stateMutability": "view",
      "type": "function"
    },
    {
      "inputs": [],
      "name": "ships",
      "outputs": [
        {
          "internalType": "contract IShips",
          "name": "",
          "type": "address"
        }
      ],
      "stateMutability": "view",
      "type": "function"
    },
    {
      "inputs": [],
      "name": "universalCredits",
      "outputs": [
        {
          "internalType": "contract IERC20",
          "name": "",
          "type": "address"
        }
      ],
      "stateMutability": "view",
      "type": "function"
    },
    {
      "inputs": [
        {
          "internalType": "uint256",
          "name": "_shipId",
          "type": "uint256"
        },
        {
          "components": [
            {
              "internalType": "string",
              "name": "name",
              "type": "string"
            },
            {
              "internalType": "uint256",
              "name": "id",
              "type": "uint256"
            },
            {
              "components": [
                {
                  "internalType": "enum MainWeapon",
                  "name": "mainWeapon",
                  "type": "uint8"
                },
                {
                  "internalType": "enum Armor",
                  "name": "armor",
                  "type": "uint8"
                },
                {
                  "internalType": "enum Shields",
                  "name": "shields",
                  "type": "uint8"
                },
                {
                  "internalType": "enum Special",
                  "name": "special",
                  "type": "uint8"
                }
              ],
              "internalType": "struct Equipment",
              "name": "equipment",
              "type": "tuple"
            },
            {
              "components": [
                {
                  "internalType": "uint256",
                  "name": "serialNumber",
                  "type": "uint256"
                },
                {
                  "components": [
                    {
                      "internalType": "uint16",
                      "name": "h1",
                      "type": "uint16"
                    },
                    {
                      "internalType": "uint8",
                      "name": "s1",
                      "type": "uint8"
                    },
                    {
                      "internalType": "uint8",
                      "name": "l1",
                      "type": "uint8"
                    },
                    {
                      "internalType": "uint16",
                      "name": "h2",
                      "type": "uint16"
                    },
                    {
                      "internalType": "uint8",
                      "name": "s2",
                      "type": "uint8"
                    },
                    {
                      "internalType": "uint8",
                      "name": "l2",
                      "type": "uint8"
                    },
                    {
                      "internalType": "uint16",
                      "name": "h3",
                      "type": "uint16"
                    },
                    {
                      "internalType": "uint8",
                      "name": "s3",
                      "type": "uint8"
                    },
                    {
                      "internalType": "uint8",
                      "name": "l3",
                      "type": "uint8"
                    }
                  ],
                  "internalType": "struct Colors",
                  "name": "colors",
                  "type": "tuple"
                },
                {
                  "internalType": "uint16",
                  "name": "variant",
                  "type": "uint16"
                },
                {
                  "internalType": "uint8",
                  "name": "accuracy",
                  "type": "uint8"
                },
                {
                  "internalType": "uint8",
                  "name": "hull",
                  "type": "uint8"
                },
                {
                  "internalType": "uint8",
                  "name": "speed",
                  "type": "uint8"
                }
              ],
              "internalType": "struct Traits",
              "name": "traits",
              "type": "tuple"
            },
            {
              "components": [
                {
                  "internalType": "uint32",
                  "name": "shipsDestroyed",
                  "type": "uint32"
                },
                {
                  "internalType": "uint16",
                  "name": "costsVersion",
                  "type": "uint16"
                },
                {
                  "internalType": "uint16",
                  "name": "cost",
                  "type": "uint16"
                },
                {
                  "internalType": "uint16",
                  "name": "modified",
                  "type": "uint16"
                },
                {
                  "internalType": "bool",
                  "name": "shiny",
                  "type": "bool"
                },
                {
                  "internalType": "bool",
                  "name": "constructed",
                  "type": "bool"
                },
                {
                  "internalType": "bool",
                  "name": "inFleet",
                  "type": "bool"
                },
                {
                  "internalType": "bool",
                  "name": "isFreeShip",
                  "type": "bool"
                },
                {
                  "internalType": "uint256",
                  "name": "timestampDestroyed",
                  "type": "uint256"
                }
              ],
              "internalType": "struct ShipData",
              "name": "shipData",
              "type": "tuple"
            },
            {
              "internalType": "address",
              "name": "owner",
              "type": "address"
            }
          ],
          "internalType": "struct Ship",
          "name": "_newShip",
          "type": "tuple"
        }
      ],
      "name": "validateShip",
      "outputs": [
        {
          "internalType": "bool",
          "name": "",
          "type": "bool"
        }
      ],
      "stateMutability": "view",
      "type": "function"
    }
  ],
  "bytecode": "0x61010060405234801561001157600080fd5b506040516118bb3803806118bb83398101604081905261003091610073565b60016000556001600160a01b0393841660805291831660a052821660c0521660e0526100c7565b80516001600160a01b038116811461006e57600080fd5b919050565b6000806000806080858703121561008957600080fd5b61009285610057565b93506100a060208601610057565b92506100ae60408601610057565b91506100bc60608601610057565b905092959194509250565b60805160a05160c05160e05161178c61012f600039600061011f01526000818160f801526102680152600081816077015281816106670152610740015260008181610146015281816101a00152818161034e015281816105290152610847015261178c6000f3fe608060405234801561001057600080fd5b506004361061006d5760003560e01c8063172259411461007257806377bbe8eb146100af5780637f4a83a1146100d05780638d8d6ae8146100f3578063a355a6da1461011a578063bbf8218a14610141578063e84ee00714610168575b600080fd5b6100997f000000000000000000000000000000000000000000000000000000000000000081565b6040516100a69190610b3d565b60405180910390f35b6100c26100bd366004610f0f565b61017d565b6040519081526020016100a6565b6100e36100de366004610f0f565b61032b565b60405190151581526020016100a6565b6100997f000000000000000000000000000000000000000000000000000000000000000081565b6100997f000000000000000000000000000000000000000000000000000000000000000081565b6100997f000000000000000000000000000000000000000000000000000000000000000081565b61017b610176366004610f0f565b610508565b005b604051634025b22d60e01b81526004810183905260009081906001600160a01b037f00000000000000000000000000000000000000000000000000000000000000001690634025b22d90602401600060405180830381865afa1580156101e7573d6000803e3d6000fd5b505050506040513d6000823e601f3d908101601f1916820160405261020f91908101906112a6565b905080602001516000036102365760405163279d13d360e21b815260040160405180910390fd5b600061024282856108c3565b60405163300eccab60e01b81526000600482018190529192506005906001600160a01b037f0000000000000000000000000000000000000000000000000000000000000000169063300eccab90602401602060405180830381865afa1580156102af573d6000803e3d6000fd5b505050506040513d601f19601f820116820180604052508101906102d391906113a3565b6102dd91906113d2565b9050816000036102f1579250610325915050565b600160005b83811015610313576103096002836113f4565b91506001016102f6565b5061031e81836113f4565b9450505050505b92915050565b604051634025b22d60e01b81526004810183905260009081906001600160a01b037f00000000000000000000000000000000000000000000000000000000000000001690634025b22d90602401600060405180830381865afa158015610395573d6000803e3d6000fd5b505050506040513d6000823e601f3d908101601f191682016040526103bd91908101906112a6565b905080602001516000036103e45760405163279d13d360e21b815260040160405180910390fd5b600283606001516060015160ff161115610424576060808401510151604051630de2ab3f60e41b815260ff90911660048201526024015b60405180910390fd5b600283606001516080015160ff16111561046057606083015160800151604051630de2ab3f60e41b815260ff909116600482015260240161041b565b6002836060015160a0015160ff16111561049c57606083015160a00151604051630de2ab3f60e41b815260ff909116600482015260240161041b565b600083604001516020015160078111156104b8576104b861140b565b141580156104e05750600083604001516040015160078111156104dd576104dd61140b565b14155b156104fe5760405163358953a760e21b815260040160405180910390fd5b5060019392505050565b6105106108ef565b604051634025b22d60e01b8152600481018390526000907f00000000000000000000000000000000000000000000000000000000000000006001600160a01b031690634025b22d90602401600060405180830381865afa158015610578573d6000803e3d6000fd5b505050506040513d6000823e601f3d908101601f191682016040526105a091908101906112a6565b905080602001516000036105c75760405163279d13d360e21b815260040160405180910390fd5b60a08101516001600160a01b031633146105f757604051636be934ab60e11b81526004810184905260240161041b565b806080015160a00151610620576040516343f03e0f60e11b81526004810184905260240161041b565b806080015160c001511561064a5760405163128379f760e11b81526004810184905260240161041b565b610654838361032b565b506000610661848461017d565b905060007f00000000000000000000000000000000000000000000000000000000000000006001600160a01b03166370a08231336040518263ffffffff1660e01b81526004016106b19190610b3d565b602060405180830381865afa1580156106ce573d6000803e3d6000fd5b505050506040513d601f19601f820116820180604052508101906106f291906113a3565b90508181101561071e5760405162fae2d560e21b8152600481018390526024810182905260440161041b565b6040516323b872dd60e01b8152336004820152306024820152604481018390527f00000000000000000000000000000000000000000000000000000000000000006001600160a01b0316906323b872dd906064016020604051808303816000875af1158015610791573d6000803e3d6000fd5b505050506040513d601f19601f820116820180604052508101906107b59190611421565b6107f75760405162461bcd60e51b8152602060048201526013602482015272155510c81d1c985b9cd9995c8819985a5b1959606a1b604482015260640161041b565b606080840180515191860180519290925251602090810151915181019190915283518552840185905260a0808401516001600160a01b0390811691860191909152604051636ebb838960e11b81527f00000000000000000000000000000000000000000000000000000000000000009091169063dd770712906108809088908890600401611625565b600060405180830381600087803b15801561089a57600080fd5b505af11580156108ae573d6000803e3d6000fd5b505050505050506108bf6001600055565b5050565b60808201516060015160009061ffff166108dd8484610919565b6108e790826116cc565b949350505050565b60026000540361091257604051633ee5aeb560e01b815260040160405180910390fd5b6002600055565b604081015151600090819060078111156109355761093561140b565b604085015151600781111561094c5761094c61140b565b1461095f578061095b816116df565b9150505b82604001516020015160078111156109795761097961140b565b84604001516020015160078111156109935761099361140b565b146109a657806109a2816116df565b9150505b82604001516040015160078111156109c0576109c061140b565b84604001516040015160078111156109da576109da61140b565b146109ed57806109e9816116df565b9150505b8260400151606001516007811115610a0757610a0761140b565b8460400151606001516007811115610a2157610a2161140b565b14610a345780610a30816116df565b9150505b600084606001516060015160ff1684606001516060015160ff16610a5891906116f8565b9050600085606001516080015160ff1685606001516080015160ff16610a7e91906116f8565b90506000866060015160a0015160ff16866060015160a0015160ff16610aa491906116f8565b90506000610ab182610b1e565b610aba84610b1e565b610ac386610b1e565b610acd919061171b565b610ad7919061171b565b61ffff169050610ae781866116cc565b94508660800151608001511515886080015160800151151514610b1257610b0f6003866116cc565b94505b50929695505050505050565b6000808260010b1215610b3957610b3482611735565b610325565b5090565b6001600160a01b0391909116815260200190565b634e487b7160e01b600052604160045260246000fd5b604051608081016001600160401b0381118282101715610b8957610b89610b51565b60405290565b60405160c081016001600160401b0381118282101715610b8957610b89610b51565b60405161012081016001600160401b0381118282101715610b8957610b89610b51565b604051601f8201601f191681016001600160401b0381118282101715610bfc57610bfc610b51565b604052919050565b60006001600160401b03821115610c1d57610c1d610b51565b50601f01601f191660200190565b60088110610c3857600080fd5b50565b600060808284031215610c4d57600080fd5b610c55610b67565b90508135610c6281610c2b565b81526020820135610c7281610c2b565b60208201526040820135610c8581610c2b565b60408201526060820135610c9881610c2b565b606082015292915050565b61ffff81168114610c3857600080fd5b8035610cbe81610ca3565b919050565b60ff81168114610c3857600080fd5b8035610cbe81610cc3565b60008183036101c0811215610cf157600080fd5b610cf9610b8f565b833581529150610120601f1982011215610d1257600080fd5b50610d1b610bb1565b610d2760208401610cb3565b8152610d3560408401610cd2565b6020820152610d4660608401610cd2565b6040820152610d5760808401610cb3565b6060820152610d6860a08401610cd2565b6080820152610d7960c08401610cd2565b60a0820152610d8a60e08401610cb3565b60c0820152610d9c6101008401610cd2565b60e0820152610dae6101208401610cd2565b6101008201526020820152610dc66101408301610cb3565b6040820152610dd86101608301610cd2565b6060820152610dea6101808301610cd2565b6080820152610dfc6101a08301610cd2565b60a082015292915050565b63ffffffff81168114610c3857600080fd5b8035610cbe81610e07565b8015158114610c3857600080fd5b8035610cbe81610e24565b60006101208284031215610e5057600080fd5b610e58610bb1565b9050610e6382610e19565b8152610e7160208301610cb3565b6020820152610e8260408301610cb3565b6040820152610e9360608301610cb3565b6060820152610ea460808301610e32565b6080820152610eb560a08301610e32565b60a0820152610ec660c08301610e32565b60c0820152610ed760e08301610e32565b60e08201526101009182013591810191909152919050565b6001600160a01b0381168114610c3857600080fd5b8035610cbe81610eef565b60008060408385031215610f2257600080fd5b8235915060208301356001600160401b03811115610f3f57600080fd5b83016103c08186031215610f5257600080fd5b610f5a610b8f565b81356001600160401b03811115610f7057600080fd5b8201601f81018713610f8157600080fd5b8035610f94610f8f82610c04565b610bd4565b818152886020838501011115610fa957600080fd5b81602084016020830137600060209282018301528352838101359083015250610fd58660408401610c3b565b6040820152610fe78660c08401610cdd565b6060820152610ffa866102808401610e3d565b608082015261100c6103a08301610f04565b60a082015280925050509250929050565b60005b83811015611038578181015183820152602001611020565b50506000910152565b60006080828403121561105357600080fd5b61105b610b67565b9050815161106881610c2b565b8152602082015161107881610c2b565b6020820152604082015161108b81610c2b565b60408201526060820151610c9881610c2b565b8051610cbe81610ca3565b8051610cbe81610cc3565b60008183036101c08112156110c857600080fd5b6110d0610b8f565b835181529150610120601f19820112156110e957600080fd5b506110f2610bb1565b6110fe6020840161109e565b815261110c604084016110a9565b602082015261111d606084016110a9565b604082015261112e6080840161109e565b606082015261113f60a084016110a9565b608082015261115060c084016110a9565b60a082015261116160e0840161109e565b60c082015261117361010084016110a9565b60e082015261118561012084016110a9565b610100820152602082015261119d610140830161109e565b60408201526111af61016083016110a9565b60608201526111c161018083016110a9565b6080820152610dfc6101a083016110a9565b8051610cbe81610e07565b8051610cbe81610e24565b600061012082840312156111fc57600080fd5b611204610bb1565b905061120f826111d3565b815261121d6020830161109e565b602082015261122e6040830161109e565b604082015261123f6060830161109e565b6060820152611250608083016111de565b608082015261126160a083016111de565b60a082015261127260c083016111de565b60c082015261128360e083016111de565b60e08201526101009182015191810191909152919050565b8051610cbe81610eef565b6000602082840312156112b857600080fd5b81516001600160401b038111156112ce57600080fd5b82016103c081850312156112e157600080fd5b6112e9610b8f565b81516001600160401b038111156112ff57600080fd5b8201601f8101861361131057600080fd5b805161131e610f8f82610c04565b81815287602083850101111561133357600080fd5b61134482602083016020860161101d565b835250506020828101519082015261135f8560408401611041565b60408201526113718560c084016110b4565b60608201526113848561028084016111e9565b60808201526113966103a0830161129b565b60a0820152949350505050565b6000602082840312156113b557600080fd5b5051919050565b634e487b7160e01b600052601160045260246000fd5b6000826113ef57634e487b7160e01b600052601260045260246000fd5b500490565b8082028115828204841417610325576103256113bc565b634e487b7160e01b600052602160045260246000fd5b60006020828403121561143357600080fd5b815161143e81610e24565b9392505050565b60088110610c3857634e487b7160e01b600052602160045260246000fd5b805161146e81611445565b8252602081015161147e81611445565b6020830152604081015161149181611445565b604083015260608101516114a481611445565b806060840152505050565b80518252602081015161ffff815116602084015260ff602082015116604084015260408101516114e4606085018260ff169052565b50606081015161ffff8116608085015250608081015160ff811660a08501525060a081015160ff811660c08501525060c081015161ffff811660e08501525060e081015160ff811661010085015250610100015160ff811661012084015250604081015161ffff811661014084015250606081015160ff811661016084015250608081015160ff81166101808401525060a0015160ff166101a09190910152565b63ffffffff815116825261ffff602082015116602083015260408101516115b2604084018261ffff169052565b5060608101516115c8606084018261ffff169052565b5060808101516115dc608084018215159052565b5060a08101516115f060a084018215159052565b5060c081015161160460c084018215159052565b5060e081015161161860e084018215159052565b5061010090810151910152565b82815260406020820152600082516103c060408401528051806104008501526116568161042086016020850161101d565b60208501516060850152604085015191506116746080850183611463565b606085015191506116896101008501836114af565b6080850151915061169e6102c0850183611585565b60a08501516001600160a01b0381166103e08601529150601f01601f19169290920161042001949350505050565b80820180821115610325576103256113bc565b6000600182016116f1576116f16113bc565b5060010190565b600182810b9082900b03617fff198112617fff82131715610325576103256113bc565b61ffff8181168382160190811115610325576103256113bc565b60008160010b617fff19810361174d5761174d6113bc565b6000039291505056fea26469706673582212204547f3cbbbaee8742782626135d39fd4a971f1c7d14bf5bd0175793c7bddd17964736f6c634300081c0033",
  "linkReferences": {},
  "deployedLinkReferences": {}
}