{
  "_format": "hh-sol-artifact-1",
  "contractName": "Game",
  "sourceName": "contracts/Game.sol",
  "abi": [
    {
      "inputs": [
        {
          "internalType": "address",
          "name": "_ships",
          "type": "address"
        },
        {
          "internalType": "address",
          "name": "_shipAttributes",
          "type": "address"
        }
      ],
      "stateMutability": "nonpayable",
      "type": "constructor"
    },
    {
      "inputs": [],
      "name": "ActionRequired",
      "type": "error"
    },
    {
      "inputs": [],
      "name": "GameNotFound",
      "type": "error"
    },
    {
      "inputs": [],
      "name": "InvalidMove",
      "type": "error"
    },
    {
      "inputs": [],
      "name": "InvalidPosition",
      "type": "error"
    },
    {
      "inputs": [],
      "name": "NotInGame",
      "type": "error"
    },
    {
      "inputs": [],
      "name": "NotLobbiesContract",
      "type": "error"
    },
    {
      "inputs": [],
      "name": "NotYourTurn",
      "type": "error"
    },
    {
      "inputs": [
        {
          "internalType": "address",
          "name": "owner",
          "type": "address"
        }
      ],
      "name": "OwnableInvalidOwner",
      "type": "error"
    },
    {
      "inputs": [
        {
          "internalType": "address",
          "name": "account",
          "type": "address"
        }
      ],
      "name": "OwnableUnauthorizedAccount",
      "type": "error"
    },
    {
      "inputs": [],
      "name": "PositionOccupied",
      "type": "error"
    },
    {
      "inputs": [],
      "name": "ShipAlreadyMoved",
      "type": "error"
    },
    {
      "inputs": [],
      "name": "ShipDestroyed",
      "type": "error"
    },
    {
      "inputs": [],
      "name": "ShipNotFound",
      "type": "error"
    },
    {
      "inputs": [],
      "name": "ShipNotOwned",
      "type": "error"
    },
    {
      "inputs": [],
      "name": "TurnTimeoutExceeded",
      "type": "error"
    },
    {
      "inputs": [],
      "name": "TurnTimeoutNotReached",
      "type": "error"
    },
    {
      "anonymous": false,
      "inputs": [
        {
          "indexed": true,
          "internalType": "uint256",
          "name": "gameId",
          "type": "uint256"
        },
        {
          "indexed": true,
          "internalType": "uint256",
          "name": "lobbyId",
          "type": "uint256"
        },
        {
          "indexed": false,
          "internalType": "address",
          "name": "creator",
          "type": "address"
        },
        {
          "indexed": false,
          "internalType": "address",
          "name": "joiner",
          "type": "address"
        }
      ],
      "name": "GameStarted",
      "type": "event"
    },
    {
      "anonymous": false,
      "inputs": [
        {
          "indexed": true,
          "internalType": "uint256",
          "name": "gameId",
          "type": "uint256"
        }
      ],
      "name": "GameUpdate",
      "type": "event"
    },
    {
      "anonymous": false,
      "inputs": [
        {
          "indexed": true,
          "internalType": "uint256",
          "name": "gameId",
          "type": "uint256"
        },
        {
          "indexed": false,
          "internalType": "uint256",
          "name": "shipId",
          "type": "uint256"
        },
        {
          "indexed": false,
          "internalType": "int16",
          "name": "oldRow",
          "type": "int16"
        },
        {
          "indexed": false,
          "internalType": "int16",
          "name": "oldCol",
          "type": "int16"
        },
        {
          "indexed": false,
          "internalType": "int16",
          "name": "newRow",
          "type": "int16"
        },
        {
          "indexed": false,
          "internalType": "int16",
          "name": "newCol",
          "type": "int16"
        },
        {
          "indexed": false,
          "internalType": "enum ActionType",
          "name": "actionType",
          "type": "uint8"
        },
        {
          "indexed": false,
          "internalType": "uint256",
          "name": "targetShipId",
          "type": "uint256"
        }
      ],
      "name": "Move",
      "type": "event"
    },
    {
      "anonymous": false,
      "inputs": [
        {
          "indexed": true,
          "internalType": "address",
          "name": "previousOwner",
          "type": "address"
        },
        {
          "indexed": true,
          "internalType": "address",
          "name": "newOwner",
          "type": "address"
        }
      ],
      "name": "OwnershipTransferred",
      "type": "event"
    },
    {
      "inputs": [],
      "name": "GRID_HEIGHT",
      "outputs": [
        {
          "internalType": "int16",
          "name": "",
          "type": "int16"
        }
      ],
      "stateMutability": "view",
      "type": "function"
    },
    {
      "inputs": [],
      "name": "GRID_WIDTH",
      "outputs": [
        {
          "internalType": "int16",
          "name": "",
          "type": "int16"
        }
      ],
      "stateMutability": "view",
      "type": "function"
    },
    {
      "inputs": [
        {
          "internalType": "uint256",
          "name": "_gameId",
          "type": "uint256"
        }
      ],
      "name": "_getShipsWithZeroHP",
      "outputs": [
        {
          "internalType": "uint256[]",
          "name": "",
          "type": "uint256[]"
        }
      ],
      "stateMutability": "view",
      "type": "function"
    },
    {
      "inputs": [
        {
          "internalType": "uint256",
          "name": "_gameId",
          "type": "uint256"
        },
        {
          "internalType": "uint256[]",
          "name": "_shipIds",
          "type": "uint256[]"
        }
      ],
      "name": "calculateFleetAttributes",
      "outputs": [],
      "stateMutability": "nonpayable",
      "type": "function"
    },
    {
      "inputs": [
        {
          "internalType": "uint256",
          "name": "_gameId",
          "type": "uint256"
        },
        {
          "internalType": "uint256",
          "name": "_shipId",
          "type": "uint256"
        }
      ],
      "name": "calculateShipAttributes",
      "outputs": [],
      "stateMutability": "nonpayable",
      "type": "function"
    },
    {
      "inputs": [
        {
          "internalType": "uint256",
          "name": "_gameId",
          "type": "uint256"
        },
        {
          "internalType": "uint256",
          "name": "_shipId",
          "type": "uint256"
        }
      ],
      "name": "debugDestroyShip",
      "outputs": [],
      "stateMutability": "nonpayable",
      "type": "function"
    },
    {
      "inputs": [
        {
          "internalType": "uint256",
          "name": "_gameId",
          "type": "uint256"
        }
      ],
      "name": "debugIncrementReactorCriticalTimerForZeroHPShips",
      "outputs": [],
      "stateMutability": "nonpayable",
      "type": "function"
    },
    {
      "inputs": [
        {
          "internalType": "uint256",
          "name": "_gameId",
          "type": "uint256"
        },
        {
          "internalType": "uint256",
          "name": "_shipId",
          "type": "uint256"
        }
      ],
      "name": "debugMarkShipAsMoved",
      "outputs": [],
      "stateMutability": "nonpayable",
      "type": "function"
    },
    {
      "inputs": [
        {
          "internalType": "uint256",
          "name": "_gameId",
          "type": "uint256"
        },
        {
          "internalType": "uint256",
          "name": "_shipId",
          "type": "uint256"
        }
      ],
      "name": "debugSetHullPointsToZero",
      "outputs": [],
      "stateMutability": "nonpayable",
      "type": "function"
    },
    {
      "inputs": [
        {
          "internalType": "uint256",
          "name": "_gameId",
          "type": "uint256"
        },
        {
          "internalType": "uint256",
          "name": "_shipId",
          "type": "uint256"
        },
        {
          "internalType": "uint8",
          "name": "_timer",
          "type": "uint8"
        }
      ],
      "name": "debugSetReactorCriticalTimer",
      "outputs": [],
      "stateMutability": "nonpayable",
      "type": "function"
    },
    {
      "inputs": [
        {
          "internalType": "uint256",
          "name": "_gameId",
          "type": "uint256"
        },
        {
          "internalType": "uint256",
          "name": "_shipId",
          "type": "uint256"
        },
        {
          "internalType": "int16",
          "name": "_row",
          "type": "int16"
        },
        {
          "internalType": "int16",
          "name": "_col",
          "type": "int16"
        }
      ],
      "name": "debugSetShipPosition",
      "outputs": [],
      "stateMutability": "nonpayable",
      "type": "function"
    },
    {
      "inputs": [
        {
          "internalType": "uint256",
          "name": "_gameId",
          "type": "uint256"
        }
      ],
      "name": "endGameOnTimeout",
      "outputs": [],
      "stateMutability": "nonpayable",
      "type": "function"
    },
    {
      "inputs": [
        {
          "internalType": "uint256",
          "name": "_gameId",
          "type": "uint256"
        }
      ],
      "name": "flee",
      "outputs": [],
      "stateMutability": "nonpayable",
      "type": "function"
    },
    {
      "inputs": [],
      "name": "fleets",
      "outputs": [
        {
          "internalType": "contract IFleets",
          "name": "",
          "type": "address"
        }
      ],
      "stateMutability": "view",
      "type": "function"
    },
    {
      "inputs": [],
      "name": "gameCount",
      "outputs": [
        {
          "internalType": "uint256",
          "name": "",
          "type": "uint256"
        }
      ],
      "stateMutability": "view",
      "type": "function"
    },
    {
      "inputs": [],
      "name": "gameResults",
      "outputs": [
        {
          "internalType": "contract IGameResults",
          "name": "",
          "type": "address"
        }
      ],
      "stateMutability": "view",
      "type": "function"
    },
    {
      "inputs": [
        {
          "internalType": "uint256",
          "name": "_gameId",
          "type": "uint256"
        }
      ],
      "name": "getAllShipPositions",
      "outputs": [
        {
          "components": [
            {
              "internalType": "uint256",
              "name": "shipId",
              "type": "uint256"
            },
            {
              "components": [
                {
                  "internalType": "int16",
                  "name": "row",
                  "type": "int16"
                },
                {
                  "internalType": "int16",
                  "name": "col",
                  "type": "int16"
                }
              ],
              "internalType": "struct Position",
              "name": "position",
              "type": "tuple"
            },
            {
              "internalType": "bool",
              "name": "isCreator",
              "type": "bool"
            }
          ],
          "internalType": "struct ShipPosition[]",
          "name": "",
          "type": "tuple[]"
        }
      ],
      "stateMutability": "view",
      "type": "function"
    },
    {
      "inputs": [
        {
          "internalType": "uint256",
          "name": "_gameId",
          "type": "uint256"
        }
      ],
      "name": "getGame",
      "outputs": [
        {
          "components": [
            {
              "components": [
                {
                  "internalType": "uint256",
                  "name": "gameId",
                  "type": "uint256"
                },
                {
                  "internalType": "uint256",
                  "name": "lobbyId",
                  "type": "uint256"
                },
                {
                  "internalType": "address",
                  "name": "creator",
                  "type": "address"
                },
                {
                  "internalType": "address",
                  "name": "joiner",
                  "type": "address"
                },
                {
                  "internalType": "uint256",
                  "name": "creatorFleetId",
                  "type": "uint256"
                },
                {
                  "internalType": "uint256",
                  "name": "joinerFleetId",
                  "type": "uint256"
                },
                {
                  "internalType": "bool",
                  "name": "creatorGoesFirst",
                  "type": "bool"
                },
                {
                  "internalType": "uint256",
                  "name": "startedAt",
                  "type": "uint256"
                },
                {
                  "internalType": "address",
                  "name": "winner",
                  "type": "address"
                }
              ],
              "internalType": "struct GameMetadata",
              "name": "metadata",
              "type": "tuple"
            },
            {
              "components": [
                {
                  "internalType": "address",
                  "name": "currentTurn",
                  "type": "address"
                },
                {
                  "internalType": "uint256",
                  "name": "turnTime",
                  "type": "uint256"
                },
                {
                  "internalType": "uint256",
                  "name": "turnStartTime",
                  "type": "uint256"
                },
                {
                  "internalType": "uint256",
                  "name": "currentRound",
                  "type": "uint256"
                }
              ],
              "internalType": "struct GameTurnState",
              "name": "turnState",
              "type": "tuple"
            },
            {
              "components": [
                {
                  "internalType": "int16",
                  "name": "gridWidth",
                  "type": "int16"
                },
                {
                  "internalType": "int16",
                  "name": "gridHeight",
                  "type": "int16"
                }
              ],
              "internalType": "struct GameGridDimensions",
              "name": "gridDimensions",
              "type": "tuple"
            },
            {
              "internalType": "uint256",
              "name": "maxScore",
              "type": "uint256"
            },
            {
              "internalType": "uint256",
              "name": "creatorScore",
              "type": "uint256"
            },
            {
              "internalType": "uint256",
              "name": "joinerScore",
              "type": "uint256"
            },
            {
              "components": [
                {
                  "internalType": "uint256",
                  "name": "shipId",
                  "type": "uint256"
                },
                {
                  "internalType": "int16",
                  "name": "oldRow",
                  "type": "int16"
                },
                {
                  "internalType": "int16",
                  "name": "oldCol",
                  "type": "int16"
                },
                {
                  "internalType": "int16",
                  "name": "newRow",
                  "type": "int16"
                },
                {
                  "internalType": "int16",
                  "name": "newCol",
                  "type": "int16"
                },
                {
                  "internalType": "enum ActionType",
                  "name": "actionType",
                  "type": "uint8"
                },
                {
                  "internalType": "uint256",
                  "name": "targetShipId",
                  "type": "uint256"
                },
                {
                  "internalType": "uint256",
                  "name": "timestamp",
                  "type": "uint256"
                }
              ],
              "internalType": "struct LastMove",
              "name": "lastMove",
              "type": "tuple"
            },
            {
              "internalType": "uint256[]",
              "name": "shipIds",
              "type": "uint256[]"
            },
            {
              "components": [
                {
                  "internalType": "uint16",
                  "name": "version",
                  "type": "uint16"
                },
                {
                  "internalType": "uint8",
                  "name": "range",
                  "type": "uint8"
                },
                {
                  "internalType": "uint8",
                  "name": "gunDamage",
                  "type": "uint8"
                },
                {
                  "internalType": "uint8",
                  "name": "hullPoints",
                  "type": "uint8"
                },
                {
                  "internalType": "uint8",
                  "name": "maxHullPoints",
                  "type": "uint8"
                },
                {
                  "internalType": "uint8",
                  "name": "movement",
                  "type": "uint8"
                },
                {
                  "internalType": "uint8",
                  "name": "damageReduction",
                  "type": "uint8"
                },
                {
                  "internalType": "uint8",
                  "name": "reactorCriticalTimer",
                  "type": "uint8"
                },
                {
                  "internalType": "uint8[]",
                  "name": "statusEffects",
                  "type": "uint8[]"
                }
              ],
              "internalType": "struct Attributes[]",
              "name": "shipAttributes",
              "type": "tuple[]"
            },
            {
              "components": [
                {
                  "internalType": "uint256",
                  "name": "shipId",
                  "type": "uint256"
                },
                {
                  "components": [
                    {
                      "internalType": "int16",
                      "name": "row",
                      "type": "int16"
                    },
                    {
                      "internalType": "int16",
                      "name": "col",
                      "type": "int16"
                    }
                  ],
                  "internalType": "struct Position",
                  "name": "position",
                  "type": "tuple"
                },
                {
                  "internalType": "bool",
                  "name": "isCreator",
                  "type": "bool"
                }
              ],
              "internalType": "struct ShipPosition[]",
              "name": "shipPositions",
              "type": "tuple[]"
            },
            {
              "internalType": "uint256[]",
              "name": "creatorActiveShipIds",
              "type": "uint256[]"
            },
            {
              "internalType": "uint256[]",
              "name": "joinerActiveShipIds",
              "type": "uint256[]"
            },
            {
              "internalType": "uint256[]",
              "name": "creatorMovedShipIds",
              "type": "uint256[]"
            },
            {
              "internalType": "uint256[]",
              "name": "joinerMovedShipIds",
              "type": "uint256[]"
            }
          ],
          "internalType": "struct GameDataView",
          "name": "",
          "type": "tuple"
        }
      ],
      "stateMutability": "view",
      "type": "function"
    },
    {
      "inputs": [
        {
          "internalType": "address",
          "name": "_player",
          "type": "address"
        }
      ],
      "name": "getGamesForPlayer",
      "outputs": [
        {
          "components": [
            {
              "components": [
                {
                  "internalType": "uint256",
                  "name": "gameId",
                  "type": "uint256"
                },
                {
                  "internalType": "uint256",
                  "name": "lobbyId",
                  "type": "uint256"
                },
                {
                  "internalType": "address",
                  "name": "creator",
                  "type": "address"
                },
                {
                  "internalType": "address",
                  "name": "joiner",
                  "type": "address"
                },
                {
                  "internalType": "uint256",
                  "name": "creatorFleetId",
                  "type": "uint256"
                },
                {
                  "internalType": "uint256",
                  "name": "joinerFleetId",
                  "type": "uint256"
                },
                {
                  "internalType": "bool",
                  "name": "creatorGoesFirst",
                  "type": "bool"
                },
                {
                  "internalType": "uint256",
                  "name": "startedAt",
                  "type": "uint256"
                },
                {
                  "internalType": "address",
                  "name": "winner",
                  "type": "address"
                }
              ],
              "internalType": "struct GameMetadata",
              "name": "metadata",
              "type": "tuple"
            },
            {
              "components": [
                {
                  "internalType": "address",
                  "name": "currentTurn",
                  "type": "address"
                },
                {
                  "internalType": "uint256",
                  "name": "turnTime",
                  "type": "uint256"
                },
                {
                  "internalType": "uint256",
                  "name": "turnStartTime",
                  "type": "uint256"
                },
                {
                  "internalType": "uint256",
                  "name": "currentRound",
                  "type": "uint256"
                }
              ],
              "internalType": "struct GameTurnState",
              "name": "turnState",
              "type": "tuple"
            },
            {
              "components": [
                {
                  "internalType": "int16",
                  "name": "gridWidth",
                  "type": "int16"
                },
                {
                  "internalType": "int16",
                  "name": "gridHeight",
                  "type": "int16"
                }
              ],
              "internalType": "struct GameGridDimensions",
              "name": "gridDimensions",
              "type": "tuple"
            },
            {
              "internalType": "uint256",
              "name": "maxScore",
              "type": "uint256"
            },
            {
              "internalType": "uint256",
              "name": "creatorScore",
              "type": "uint256"
            },
            {
              "internalType": "uint256",
              "name": "joinerScore",
              "type": "uint256"
            },
            {
              "components": [
                {
                  "internalType": "uint256",
                  "name": "shipId",
                  "type": "uint256"
                },
                {
                  "internalType": "int16",
                  "name": "oldRow",
                  "type": "int16"
                },
                {
                  "internalType": "int16",
                  "name": "oldCol",
                  "type": "int16"
                },
                {
                  "internalType": "int16",
                  "name": "newRow",
                  "type": "int16"
                },
                {
                  "internalType": "int16",
                  "name": "newCol",
                  "type": "int16"
                },
                {
                  "internalType": "enum ActionType",
                  "name": "actionType",
                  "type": "uint8"
                },
                {
                  "internalType": "uint256",
                  "name": "targetShipId",
                  "type": "uint256"
                },
                {
                  "internalType": "uint256",
                  "name": "timestamp",
                  "type": "uint256"
                }
              ],
              "internalType": "struct LastMove",
              "name": "lastMove",
              "type": "tuple"
            },
            {
              "internalType": "uint256[]",
              "name": "shipIds",
              "type": "uint256[]"
            },
            {
              "components": [
                {
                  "internalType": "uint16",
                  "name": "version",
                  "type": "uint16"
                },
                {
                  "internalType": "uint8",
                  "name": "range",
                  "type": "uint8"
                },
                {
                  "internalType": "uint8",
                  "name": "gunDamage",
                  "type": "uint8"
                },
                {
                  "internalType": "uint8",
                  "name": "hullPoints",
                  "type": "uint8"
                },
                {
                  "internalType": "uint8",
                  "name": "maxHullPoints",
                  "type": "uint8"
                },
                {
                  "internalType": "uint8",
                  "name": "movement",
                  "type": "uint8"
                },
                {
                  "internalType": "uint8",
                  "name": "damageReduction",
                  "type": "uint8"
                },
                {
                  "internalType": "uint8",
                  "name": "reactorCriticalTimer",
                  "type": "uint8"
                },
                {
                  "internalType": "uint8[]",
                  "name": "statusEffects",
                  "type": "uint8[]"
                }
              ],
              "internalType": "struct Attributes[]",
              "name": "shipAttributes",
              "type": "tuple[]"
            },
            {
              "components": [
                {
                  "internalType": "uint256",
                  "name": "shipId",
                  "type": "uint256"
                },
                {
                  "components": [
                    {
                      "internalType": "int16",
                      "name": "row",
                      "type": "int16"
                    },
                    {
                      "internalType": "int16",
                      "name": "col",
                      "type": "int16"
                    }
                  ],
                  "internalType": "struct Position",
                  "name": "position",
                  "type": "tuple"
                },
                {
                  "internalType": "bool",
                  "name": "isCreator",
                  "type": "bool"
                }
              ],
              "internalType": "struct ShipPosition[]",
              "name": "shipPositions",
              "type": "tuple[]"
            },
            {
              "internalType": "uint256[]",
              "name": "creatorActiveShipIds",
              "type": "uint256[]"
            },
            {
              "internalType": "uint256[]",
              "name": "joinerActiveShipIds",
              "type": "uint256[]"
            },
            {
              "internalType": "uint256[]",
              "name": "creatorMovedShipIds",
              "type": "uint256[]"
            },
            {
              "internalType": "uint256[]",
              "name": "joinerMovedShipIds",
              "type": "uint256[]"
            }
          ],
          "internalType": "struct GameDataView[]",
          "name": "",
          "type": "tuple[]"
        }
      ],
      "stateMutability": "view",
      "type": "function"
    },
    {
      "inputs": [
        {
          "internalType": "uint256[]",
          "name": "_gameIds",
          "type": "uint256[]"
        }
      ],
      "name": "getGamesFromIds",
      "outputs": [
        {
          "components": [
            {
              "components": [
                {
                  "internalType": "uint256",
                  "name": "gameId",
                  "type": "uint256"
                },
                {
                  "internalType": "uint256",
                  "name": "lobbyId",
                  "type": "uint256"
                },
                {
                  "internalType": "address",
                  "name": "creator",
                  "type": "address"
                },
                {
                  "internalType": "address",
                  "name": "joiner",
                  "type": "address"
                },
                {
                  "internalType": "uint256",
                  "name": "creatorFleetId",
                  "type": "uint256"
                },
                {
                  "internalType": "uint256",
                  "name": "joinerFleetId",
                  "type": "uint256"
                },
                {
                  "internalType": "bool",
                  "name": "creatorGoesFirst",
                  "type": "bool"
                },
                {
                  "internalType": "uint256",
                  "name": "startedAt",
                  "type": "uint256"
                },
                {
                  "internalType": "address",
                  "name": "winner",
                  "type": "address"
                }
              ],
              "internalType": "struct GameMetadata",
              "name": "metadata",
              "type": "tuple"
            },
            {
              "components": [
                {
                  "internalType": "address",
                  "name": "currentTurn",
                  "type": "address"
                },
                {
                  "internalType": "uint256",
                  "name": "turnTime",
                  "type": "uint256"
                },
                {
                  "internalType": "uint256",
                  "name": "turnStartTime",
                  "type": "uint256"
                },
                {
                  "internalType": "uint256",
                  "name": "currentRound",
                  "type": "uint256"
                }
              ],
              "internalType": "struct GameTurnState",
              "name": "turnState",
              "type": "tuple"
            },
            {
              "components": [
                {
                  "internalType": "int16",
                  "name": "gridWidth",
                  "type": "int16"
                },
                {
                  "internalType": "int16",
                  "name": "gridHeight",
                  "type": "int16"
                }
              ],
              "internalType": "struct GameGridDimensions",
              "name": "gridDimensions",
              "type": "tuple"
            },
            {
              "internalType": "uint256",
              "name": "maxScore",
              "type": "uint256"
            },
            {
              "internalType": "uint256",
              "name": "creatorScore",
              "type": "uint256"
            },
            {
              "internalType": "uint256",
              "name": "joinerScore",
              "type": "uint256"
            },
            {
              "components": [
                {
                  "internalType": "uint256",
                  "name": "shipId",
                  "type": "uint256"
                },
                {
                  "internalType": "int16",
                  "name": "oldRow",
                  "type": "int16"
                },
                {
                  "internalType": "int16",
                  "name": "oldCol",
                  "type": "int16"
                },
                {
                  "internalType": "int16",
                  "name": "newRow",
                  "type": "int16"
                },
                {
                  "internalType": "int16",
                  "name": "newCol",
                  "type": "int16"
                },
                {
                  "internalType": "enum ActionType",
                  "name": "actionType",
                  "type": "uint8"
                },
                {
                  "internalType": "uint256",
                  "name": "targetShipId",
                  "type": "uint256"
                },
                {
                  "internalType": "uint256",
                  "name": "timestamp",
                  "type": "uint256"
                }
              ],
              "internalType": "struct LastMove",
              "name": "lastMove",
              "type": "tuple"
            },
            {
              "internalType": "uint256[]",
              "name": "shipIds",
              "type": "uint256[]"
            },
            {
              "components": [
                {
                  "internalType": "uint16",
                  "name": "version",
                  "type": "uint16"
                },
                {
                  "internalType": "uint8",
                  "name": "range",
                  "type": "uint8"
                },
                {
                  "internalType": "uint8",
                  "name": "gunDamage",
                  "type": "uint8"
                },
                {
                  "internalType": "uint8",
                  "name": "hullPoints",
                  "type": "uint8"
                },
                {
                  "internalType": "uint8",
                  "name": "maxHullPoints",
                  "type": "uint8"
                },
                {
                  "internalType": "uint8",
                  "name": "movement",
                  "type": "uint8"
                },
                {
                  "internalType": "uint8",
                  "name": "damageReduction",
                  "type": "uint8"
                },
                {
                  "internalType": "uint8",
                  "name": "reactorCriticalTimer",
                  "type": "uint8"
                },
                {
                  "internalType": "uint8[]",
                  "name": "statusEffects",
                  "type": "uint8[]"
                }
              ],
              "internalType": "struct Attributes[]",
              "name": "shipAttributes",
              "type": "tuple[]"
            },
            {
              "components": [
                {
                  "internalType": "uint256",
                  "name": "shipId",
                  "type": "uint256"
                },
                {
                  "components": [
                    {
                      "internalType": "int16",
                      "name": "row",
                      "type": "int16"
                    },
                    {
                      "internalType": "int16",
                      "name": "col",
                      "type": "int16"
                    }
                  ],
                  "internalType": "struct Position",
                  "name": "position",
                  "type": "tuple"
                },
                {
                  "internalType": "bool",
                  "name": "isCreator",
                  "type": "bool"
                }
              ],
              "internalType": "struct ShipPosition[]",
              "name": "shipPositions",
              "type": "tuple[]"
            },
            {
              "internalType": "uint256[]",
              "name": "creatorActiveShipIds",
              "type": "uint256[]"
            },
            {
              "internalType": "uint256[]",
              "name": "joinerActiveShipIds",
              "type": "uint256[]"
            },
            {
              "internalType": "uint256[]",
              "name": "creatorMovedShipIds",
              "type": "uint256[]"
            },
            {
              "internalType": "uint256[]",
              "name": "joinerMovedShipIds",
              "type": "uint256[]"
            }
          ],
          "internalType": "struct GameDataView[]",
          "name": "",
          "type": "tuple[]"
        }
      ],
      "stateMutability": "view",
      "type": "function"
    },
    {
      "inputs": [
        {
          "internalType": "address",
          "name": "_player",
          "type": "address"
        }
      ],
      "name": "getPlayerGameIds",
      "outputs": [
        {
          "internalType": "uint256[]",
          "name": "",
          "type": "uint256[]"
        }
      ],
      "stateMutability": "view",
      "type": "function"
    },
    {
      "inputs": [
        {
          "internalType": "uint256",
          "name": "_gameId",
          "type": "uint256"
        },
        {
          "internalType": "uint256",
          "name": "_shipId",
          "type": "uint256"
        }
      ],
      "name": "getShipAttributes",
      "outputs": [
        {
          "components": [
            {
              "internalType": "uint16",
              "name": "version",
              "type": "uint16"
            },
            {
              "internalType": "uint8",
              "name": "range",
              "type": "uint8"
            },
            {
              "internalType": "uint8",
              "name": "gunDamage",
              "type": "uint8"
            },
            {
              "internalType": "uint8",
              "name": "hullPoints",
              "type": "uint8"
            },
            {
              "internalType": "uint8",
              "name": "maxHullPoints",
              "type": "uint8"
            },
            {
              "internalType": "uint8",
              "name": "movement",
              "type": "uint8"
            },
            {
              "internalType": "uint8",
              "name": "damageReduction",
              "type": "uint8"
            },
            {
              "internalType": "uint8",
              "name": "reactorCriticalTimer",
              "type": "uint8"
            },
            {
              "internalType": "uint8[]",
              "name": "statusEffects",
              "type": "uint8[]"
            }
          ],
          "internalType": "struct Attributes",
          "name": "",
          "type": "tuple"
        }
      ],
      "stateMutability": "view",
      "type": "function"
    },
    {
      "inputs": [
        {
          "internalType": "uint256",
          "name": "target",
          "type": "uint256"
        }
      ],
      "name": "lastDamage",
      "outputs": [
        {
          "internalType": "uint256",
          "name": "lastDamager",
          "type": "uint256"
        }
      ],
      "stateMutability": "view",
      "type": "function"
    },
    {
      "inputs": [],
      "name": "lobbiesAddress",
      "outputs": [
        {
          "internalType": "address",
          "name": "",
          "type": "address"
        }
      ],
      "stateMutability": "view",
      "type": "function"
    },
    {
      "inputs": [],
      "name": "maps",
      "outputs": [
        {
          "internalType": "contract IMaps",
          "name": "",
          "type": "address"
        }
      ],
      "stateMutability": "view",
      "type": "function"
    },
    {
      "inputs": [
        {
          "internalType": "uint256",
          "name": "_gameId",
          "type": "uint256"
        },
        {
          "internalType": "uint256",
          "name": "_shipId",
          "type": "uint256"
        },
        {
          "internalType": "int16",
          "name": "_newRow",
          "type": "int16"
        },
        {
          "internalType": "int16",
          "name": "_newCol",
          "type": "int16"
        },
        {
          "internalType": "enum ActionType",
          "name": "actionType",
          "type": "uint8"
        },
        {
          "internalType": "uint256",
          "name": "targetShipId",
          "type": "uint256"
        }
      ],
      "name": "moveShip",
      "outputs": [],
      "stateMutability": "nonpayable",
      "type": "function"
    },
    {
      "inputs": [],
      "name": "owner",
      "outputs": [
        {
          "internalType": "address",
          "name": "",
          "type": "address"
        }
      ],
      "stateMutability": "view",
      "type": "function"
    },
    {
      "inputs": [
        {
          "internalType": "address",
          "name": "",
          "type": "address"
        },
        {
          "internalType": "uint256",
          "name": "",
          "type": "uint256"
        }
      ],
      "name": "playerGames",
      "outputs": [
        {
          "internalType": "uint256",
          "name": "",
          "type": "uint256"
        }
      ],
      "stateMutability": "view",
      "type": "function"
    },
    {
      "inputs": [],
      "name": "renounceOwnership",
      "outputs": [],
      "stateMutability": "nonpayable",
      "type": "function"
    },
    {
      "inputs": [
        {
          "internalType": "address",
          "name": "_mapsAddress",
          "type": "address"
        },
        {
          "internalType": "address",
          "name": "_lobbiesAddress",
          "type": "address"
        },
        {
          "internalType": "address",
          "name": "_fleetsAddress",
          "type": "address"
        },
        {
          "internalType": "address",
          "name": "_gameResultsAddress",
          "type": "address"
        },
        {
          "internalType": "address",
          "name": "_shipAttributesAddress",
          "type": "address"
        }
      ],
      "name": "setAddresses",
      "outputs": [],
      "stateMutability": "nonpayable",
      "type": "function"
    },
    {
      "inputs": [],
      "name": "shipAttributes",
      "outputs": [
        {
          "internalType": "contract IShipAttributes",
          "name": "",
          "type": "address"
        }
      ],
      "stateMutability": "view",
      "type": "function"
    },
    {
      "inputs": [],
      "name": "ships",
      "outputs": [
        {
          "internalType": "contract IShips",
          "name": "",
          "type": "address"
        }
      ],
      "stateMutability": "view",
      "type": "function"
    },
    {
      "inputs": [
        {
          "internalType": "uint256",
          "name": "_lobbyId",
          "type": "uint256"
        },
        {
          "internalType": "address",
          "name": "_creator",
          "type": "address"
        },
        {
          "internalType": "address",
          "name": "_joiner",
          "type": "address"
        },
        {
          "internalType": "uint256",
          "name": "_creatorFleetId",
          "type": "uint256"
        },
        {
          "internalType": "uint256",
          "name": "_joinerFleetId",
          "type": "uint256"
        },
        {
          "internalType": "bool",
          "name": "_creatorGoesFirst",
          "type": "bool"
        },
        {
          "internalType": "uint256",
          "name": "_turnTime",
          "type": "uint256"
        },
        {
          "internalType": "uint256",
          "name": "_selectedMapId",
          "type": "uint256"
        },
        {
          "internalType": "uint256",
          "name": "_maxScore",
          "type": "uint256"
        }
      ],
      "name": "startGame",
      "outputs": [],
      "stateMutability": "nonpayable",
      "type": "function"
    },
    {
      "inputs": [
        {
          "internalType": "address",
          "name": "newOwner",
          "type": "address"
        }
      ],
      "name": "transferOwnership",
      "outputs": [],
      "stateMutability": "nonpayable",
      "type": "function"
    }
  ],
  "bytecode": "0x608060405234801561001057600080fd5b506040516160b23803806160b283398101604081905261002f916100fc565b338061005557604051631e4fbdf760e01b81526000600482015260240160405180910390fd5b61005e81610090565b50600180546001600160a01b039384166001600160a01b0319918216179091556003805492909316911617905561012f565b600080546001600160a01b038381166001600160a01b0319831681178455604051919092169283917f8be0079c531659141344cd1fd0a4f28419497f9722a3daafe3b4186f6b6457e09190a35050565b80516001600160a01b03811681146100f757600080fd5b919050565b6000806040838503121561010f57600080fd5b610118836100e0565b9150610126602084016100e0565b90509250929050565b615f748061013e6000396000f3fe608060405234801561001057600080fd5b50600436106102065760003560e01c80636eb0f9d21161011a578063a2f77bcc116100ad578063e88f1c3e1161007c578063e88f1c3e14610493578063e8d64aee146104a6578063ecd1406d146104b9578063edf59b3c146104cc578063f2fde38b146104df57600080fd5b8063a2f77bcc1461043a578063bbf8218a1461045a578063beaa8fa41461046d578063ce720bca1461048057600080fd5b806384cb37ea116100e957806384cb37ea146103e35780638da5cb5b146103f657806390de1d9b146104075780639c91fe671461042757600080fd5b80636eb0f9d2146103a2578063715018a6146103b55780637b2fe23b146103bd5780637c767cb9146103d057600080fd5b80633e7d96881161019d5780634bf11ad21161016c5780634bf11ad21461034b5780634d1975b41461035357806355cebda81461035c578063566adcd01461036f5780635dd68acd1461038f57600080fd5b80633e7d9688146102e557806341f5f5e914610305578063423bb46f1461031857806348915d911461033857600080fd5b80631b8c9e90116101d95780631b8c9e9014610279578063235e78eb1461028c578063336d7d7b146102a75780633deaec2b146102d257600080fd5b80630a5694c21461020b5780630aa1b26614610231578063100017cb1461025157806318d7261d14610266575b600080fd5b61021e610219366004614bfb565b6104f2565b6040519081526020015b60405180910390f35b61024461023f366004614c27565b610523565b60405161022891906150a1565b61026461025f366004615106565b610542565b005b610264610274366004615106565b610558565b610264610287366004615128565b61058b565b610294601181565b60405160019190910b8152602001610228565b6005546102ba906001600160a01b031681565b6040516001600160a01b039091168152602001610228565b6004546102ba906001600160a01b031681565b6102f86102f3366004615128565b610687565b6040516102289190615141565b6003546102ba906001600160a01b031681565b61032b610326366004615106565b6106aa565b6040516102289190615179565b6002546102ba906001600160a01b031681565b610294600b81565b61021e60085481565b61026461036a366004615106565b6107fb565b61038261037d366004615128565b61096f565b604051610228919061518c565b61026461039d36600461519f565b610b45565b6102446103b0366004615375565b610bac565b610264610c5f565b6102f86103cb366004614c27565b610c73565b6102646103de3660046153b8565b610cdf565b6102646103f1366004615128565b610d81565b6000546001600160a01b03166102ba565b61021e610415366004615128565b600a6020526000908152604090205481565b610264610435366004615402565b610e79565b61044d610448366004615128565b610eb5565b6040516102289190615448565b6001546102ba906001600160a01b031681565b61026461047b36600461545b565b61161f565b6006546102ba906001600160a01b031681565b6102646104a1366004615128565b611d8c565b6102646104b43660046154d4565b611da0565b6102646104c7366004615569565b612048565b6102646104da366004615106565b61208b565b6102646104ed366004614c27565b6120ae565b6009602052816000526040600020818154811061050e57600080fd5b90600052602060002001600091509150505481565b6060600061053083610c73565b905061053b81610bac565b9392505050565b61054a6120ee565b610554828261211b565b5050565b6105606120ee565b60008281526007602052604090206105788383612127565b6105858160180183612162565b50505050565b6105948161216e565b61059d8161219c565b6105ba5760405163023e733b60e61b815260040160405180910390fd5b600081815260076020526040902060098101546001600160a01b031633036105f557604051631cc191eb60e31b815260040160405180910390fd5b60028101546001600160a01b0316331480159061061f575060038101546001600160a01b03163314155b1561063d5760405163218286cb60e11b815260040160405180910390fd5b600981015461065890839033906001600160a01b03166121c7565b60405182907f6a3ca207a2adb9eea136eff413ec2c22f745a146fe60eed5f593fbacb99347d390600090a25050565b60008181526007602052604090206060906106a490601a016122b1565b92915050565b6106b261482f565b6106bb8361216e565b600083815260076020908152604080832085845260150190915281208054909161ffff9091169003610700576040516303c113ad60e61b815260040160405180910390fd5b6040805161012081018252825461ffff8116825260ff620100008204811660208085019190915263010000008304821684860152600160201b830482166060850152600160281b830482166080850152600160301b8304821660a0850152600160381b8304821660c0850152600160401b9092041660e0830152600184018054845181840281018401909552808552929385936101008601939192918301828280156107e957602002820191906000526020600020906000905b825461010083900a900460ff168152602060019283018181049485019490930390920291018084116107ba5790505b50505050508152505091505092915050565b600082815260076020908152604080832084845260158101909252808320600354915163e197c62760e01b8152600481018690529293909290916001600160a01b03169063e197c62790602401600060405180830381865afa158015610865573d6000803e3d6000fd5b505050506040513d6000823e601f3d908101601f1916820160405261088d919081019061562b565b8051835460208084015160408501516060860151608087015160a088015160c089015160ff908116600160381b0267ff0000000000000019928216600160301b0266ff00000000000019948316600160281b029490941666ffff000000000019958316600160201b0264ff00000000199784166301000000029790971664ffff0000001993909816620100000262ffffff19909a1661ffff909b169a909a1798909817169490941792909217169490941793909317929092161784556101008201518051929350610967926001860192919091019061487d565b505050505050565b606061097a8261216e565b600082815260076020526040812090805b600b600182900b1215610a035760005b6011600182900b12156109fa57600182810b600090815260168601602090815260408083209385900b8352929052205480158015906109de57506109de81612348565b156109f157836109ed8161573b565b9450505b5060010161099b565b5060010161098b565b506000816001600160401b03811115610a1e57610a1e615210565b604051908082528060200260200182016040528015610a5757816020015b610a44614923565b815260200190600190039081610a3c5790505b5090506000805b600b600182900b1215610b3a5760005b6011600182900b1215610b3157600182810b600090815260168801602090815260408083209385900b835292905220548015801590610ab15750610ab181612348565b15610b28576000610ac28a836123bd565b9050604051806060016040528083815260200160405180604001604052808760010b81526020018660010b8152508152602001821515815250868681518110610b0d57610b0d615754565b60200260200101819052508480610b239061573b565b955050505b50600101610a6e565b50600101610a5e565b509095945050505050565b610b4d6120ee565b600480546001600160a01b03199081166001600160a01b03978816179091556005805482169587169590951790945560028054851693861693909317909255600680548416918516919091179055600380549092169216919091179055565b6060600082516001600160401b03811115610bc957610bc9615210565b604051908082528060200260200182016040528015610c0257816020015b610bef614965565b815260200190600190039081610be75790505b50905060005b8351811015610c5857610c33848281518110610c2657610c26615754565b6020026020010151610eb5565b828281518110610c4557610c45615754565b6020908102919091010152600101610c08565b5092915050565b610c676120ee565b610c7160006123f9565b565b6001600160a01b038116600090815260096020908152604091829020805483518184028101840190945280845260609392830182828015610cd357602002820191906000526020600020905b815481526020019060010190808311610cbf575b50505050509050919050565b610ce76120ee565b6000938452600760209081526040808620858752601781018084528288208054600181810b8b526016909401808752858b206201000092839004860b8c528752858b208b90558551808701875298850b808a529790940b8887018181528a8c5293875297518254935161ffff90811690920263ffffffff199094169116179190911790559286529181528185209285529190915290912055565b600081815260076020526040902060088101546001600160a01b031615610dbb576040516321e08b4d60e21b815260040160405180910390fd5b60028101546001600160a01b03163314801590610de5575060038101546001600160a01b03163314155b15610e035760405163218286cb60e11b815260040160405180910390fd5b60028101546000906001600160a01b03163314610e2d5760028201546001600160a01b0316610e3c565b60038201546001600160a01b03165b9050610e498382336121c7565b60405183907f6a3ca207a2adb9eea136eff413ec2c22f745a146fe60eed5f593fbacb99347d390600090a2505050565b60005b8151811015610eb057610ea883838381518110610e9b57610e9b615754565b60200260200101516107fb565b600101610e7c565b505050565b610ebd614965565b610ec68261216e565b600082815260076020908152604080832060028101546001600160a01b039081168552601c8201909352818420600382015490931684529083209092610f0b836122b1565b90506000610f18836122b1565b9050600081518351610f2a919061576a565b90506000816001600160401b03811115610f4657610f46615210565b604051908082528060200260200182016040528015610f7f57816020015b610f6c61482f565b815260200190600190039081610f645790505b5090506000826001600160401b03811115610f9c57610f9c615210565b604051908082528060200260200182016040528015610fc5578160200160208202803683370190505b50905060005b855181101561115057886015016000878381518110610fec57610fec615754565b6020908102919091018101518252818101929092526040908101600020815161012081018352815461ffff8116825260ff62010000820481168387015263010000008204811683860152600160201b820481166060840152600160281b820481166080840152600160301b8204811660a0840152600160381b8204811660c0840152600160401b9091041660e0820152600182018054845181870281018701909552808552919492936101008601939092908301828280156110eb57602002820191906000526020600020906000905b825461010083900a900460ff168152602060019283018181049485019490930390920291018084116110bc5790505b50505050508152505083828151811061110657611106615754565b602002602001018190525085818151811061112357611123615754565b602002602001015182828151811061113d5761113d615754565b6020908102919091010152600101610fcb565b5060005b84518110156112f15788601501600086838151811061117557611175615754565b6020908102919091018101518252818101929092526040908101600020815161012081018352815461ffff8116825260ff62010000820481168387015263010000008204811683860152600160201b820481166060840152600160281b820481166080840152600160301b8204811660a0840152600160381b8204811660c0840152600160401b9091041660e08201526001820180548451818702810187019095528085529194929361010086019390929083018282801561127457602002820191906000526020600020906000905b825461010083900a900460ff168152602060019283018181049485019490930390920291018084116112455790505b5050505050815250508382885161128b919061576a565b8151811061129b5761129b615754565b60200260200101819052508481815181106112b8576112b8615754565b6020026020010151828288516112ce919061576a565b815181106112de576112de615754565b6020908102919091010152600101611154565b5060006112fd8b61096f565b60028a015490915060009061131c908d906001600160a01b0316612449565b60038b015490915060009061133b908e906001600160a01b0316612449565b9050604051806101c001604052808c6000016040518061012001604052908160008201548152602001600182015481526020016002820160009054906101000a90046001600160a01b03166001600160a01b03166001600160a01b031681526020016003820160009054906101000a90046001600160a01b03166001600160a01b03166001600160a01b0316815260200160048201548152602001600582015481526020016006820160009054906101000a900460ff16151515158152602001600782015481526020016008820160009054906101000a90046001600160a01b03166001600160a01b03166001600160a01b03168152505081526020018c6009016040518060800160405290816000820160009054906101000a90046001600160a01b03166001600160a01b03166001600160a01b03168152602001600182015481526020016002820154815260200160038201548152505081526020018c600d016040518060400160405290816000820160009054906101000a900460010b60010b60010b81526020016000820160029054906101000a900460010b60010b60010b8152505081526020018c600e015481526020018c600f015481526020018c6010015481526020018c60110160405180610100016040529081600082015481526020016001820160009054906101000a900460010b60010b60010b81526020016001820160029054906101000a900460010b60010b60010b81526020016001820160049054906101000a900460010b60010b60010b81526020016001820160069054906101000a900460010b60010b60010b81526020016001820160089054906101000a900460ff1660058111156115b7576115b7614cc4565b60058111156115c8576115c8614cc4565b8152602001600282015481526020016003820154815250508152602001858152602001868152602001848152602001898152602001888152602001838152602001828152509b505050505050505050505050919050565b6116288661216e565b600086815260076020526040902060088101546001600160a01b031615611662576040516321e08b4d60e21b815260040160405180910390fd5b60098101546001600160a01b0316331461168f57604051631cc191eb60e31b815260040160405180910390fd5b600061169a87612576565b60a08101519091506001600160a01b031633146116ca57604051630b18e5d760e21b815260040160405180910390fd5b6000878152601583016020526040902060028560058111156116ee576116ee614cc4565b1415801561170557508054600160201b900460ff16155b15611723576040516398586ca160e01b815260040160405180910390fd5b60025460048481015460405162b5e41160e51b815291820152602481018a90526001600160a01b03909116906316bc822090604401602060405180830381865afa158015611775573d6000803e3d6000fd5b505050506040513d601f19601f820116820180604052508101906117999190615788565b1580156118215750600254600584015460405162b5e41160e51b81526001600160a01b03909216916316bc8220916117de918c90600401918252602082015260400190565b602060405180830381865afa1580156117fb573d6000803e3d6000fd5b505050506040513d601f19601f8201168201806040525081019061181f9190615788565b155b1561183f576040516303c113ad60e61b815260040160405180910390fd5b600285600581111561185357611853614cc4565b141580156118695750611869836018018961263f565b1561188757604051637d64fb5d60e01b815260040160405180910390fd5b600088815260178401602052604090208054600181810b91620100009004900b60028860058111156118bb576118bb614cc4565b14611b2b57825460009060018c810b91900b1480156118e75750835460018b810b62010000909204900b145b905080611a05576040805180820182528554600181810b835262010000909104810b60208084019190915283518085019094528e820b8452908d900b908301526000916119349190612657565b60008e815260158a016020526040902080549192509060ff600160301b90910481169083161115611978576040516321e08b4d60e21b815260040160405180910390fd5b600b60018e900b1215806119915750601160018d900b12155b156119af5760405163673f032f60e11b815260040160405180910390fd5b8860160160008e60010b60010b815260200190815260200160002060008d60010b60010b815260200190815260200160002054600014611a0257604051638243205760e01b815260040160405180910390fd5b50505b80611b1b5760008760160160008660000160009054906101000a900460010b60010b60010b815260200190815260200160002060008660000160029054906101000a900460010b60010b60010b8152602001908152602001600020819055508b8760160160008d60010b60010b815260200190815260200160002060008c60010b60010b81526020019081526020016000208190555060405180604001604052808c60010b81526020018b60010b8152508760170160008e815260200190815260200160002060008201518160000160006101000a81548161ffff021916908360010b61ffff16021790555060208201518160000160026101000a81548161ffff021916908360010b61ffff1602179055509050505b611b28876018018d6126eb565b50505b611b3a868d8d8d8d8d8d6126f7565b611b438c612836565b15611b5657611b518c61288e565b611b5f565b611b5f8c612c3f565b42600b87015560408051610100810182528c8152600184810b602083015283900b918101919091526060810160028a6005811115611b9f57611b9f614cc4565b14611baa578b611bae565b6000195b60010b815260200160028a6005811115611bca57611bca614cc4565b14611bd5578a611bd9565b6000195b60010b8152602001896005811115611bf357611bf3614cc4565b815260208082018a905242604092830152825160118a019081559083015160128a018054938501516060860151608087015161ffff908116600160301b0267ffff00000000000019928216600160201b029290921667ffffffff0000000019938216620100000263ffffffff1990981691909516179590951716919091179290921780835560a084015191929060ff60401b1916600160401b836005811115611c9e57611c9e614cc4565b021790555060c0820151816002015560e082015181600301559050508b7f8616d884e76378dabf68f6048a294fb93ec62a579068ada00ef52b7b88511c528c848460026005811115611cf257611cf2614cc4565b8d6005811115611d0457611d04614cc4565b14611d0f578e611d13565b6000195b60028e6005811115611d2757611d27614cc4565b14611d32578e611d36565b6000195b8e8e604051611d4b97969594939291906157a5565b60405180910390a26040518c907f6a3ca207a2adb9eea136eff413ec2c22f745a146fe60eed5f593fbacb99347d390600090a2505050505050505050505050565b611d946120ee565b611d9d81612d59565b50565b6005546001600160a01b03163314611dcb57604051638671306560e01b815260040160405180910390fd5b60088054906000611ddb8361573b565b90915550506008546000818152600760208190526040909120918255600182018b90556002820180546001600160a01b03808d166001600160a01b031992831617909255600384018054928c1692909116919091179055600482018890556005820187905560068201805487151560ff19909116179055429082015584611e625787611e64565b885b6009820180546001600160a01b0319166001600160a01b0392909216919091179055600a810184905542600b8201556001600c820155600d8101805463ffffffff1916620b0011179055600e81018290558215611f205760048054600854604051636a5257fd60e11b815292830152602482018590526001600160a01b03169063d4a4affa90604401600060405180830381600087803b158015611f0757600080fd5b505af1158015611f1b573d6000803e3d6000fd5b505050505b611f2d6008548888612e5c565b611f3a600854888861302f565b600854600090815260076020908152604080832060038101546001600160a01b03168452601c8101909252909120611f71906131f0565b60028201546001600160a01b03166000908152601c830160205260409020611f98906131f0565b611fa2919061576a565b601d8201556000601e82018190556001600160a01b038b8116808352600960209081526040808520600880548254600180820185559389528589200155948f16808752828720865481549384018255908852968490209091019590955592548351928352908201939093528d92917f9f0b80476ce7b05cfe8b0800d21f0b0f2704c8eb948fa5d5e87997ec901f96d1910160405180910390a35050505050505050505050565b6120506120ee565b6000928352600760209081526040808520938552601590930190529120805460ff909216600160401b0260ff60401b19909216919091179055565b6120936120ee565b600082815260076020526040902061058560188201836126eb565b6120b66120ee565b6001600160a01b0381166120e557604051631e4fbdf760e01b8152600060048201526024015b60405180910390fd5b611d9d816123f9565b6000546001600160a01b03163314610c715760405163118cdaa760e01b81523360048201526024016120dc565b610554828260006131fa565b6000828152600760208181526040808420858552601581018352908420805464ff00000000191690559285905252610eb090601a01826126eb565b600061053b838361359f565b6000818152600760205260408120549003611d9d576040516309b3c62760e21b815260040160405180910390fd5b6000818152600760205260408120600a810154600b8201546121be919061576a565b42119392505050565b60008381526007602052604090206008810180546001600160a01b0319166001600160a01b0385811691909117909155600654161561226f5760065460405163d6c6eb9f60e01b8152600481018690526001600160a01b03858116602483015284811660448301529091169063d6c6eb9f90606401600060405180830381600087803b15801561225657600080fd5b505af115801561226a573d6000803e3d6000fd5b505050505b600281015460048201546122909186916001600160a01b0390911690613692565b600381015460058201546105859186916001600160a01b0390911690613692565b606060006122be836131f0565b90506000816001600160401b038111156122da576122da615210565b604051908082528060200260200182016040528015612303578160200160208202803683370190505b50905060005b828110156123405761231b858261374f565b82828151811061232d5761232d615754565b6020908102919091010152600101612309565b509392505050565b600154604051639596010160e01b8152600481018390526000916001600160a01b031690639596010190602401602060405180830381865afa158015612392573d6000803e3d6000fd5b505050506040513d601f19601f820116820180604052508101906123b69190615788565b1592915050565b600082815260076020908152604080832060028101546001600160a01b03168452601c810190925282206123f1908461263f565b949350505050565b600080546001600160a01b038381166001600160a01b0319831681178455604051919092169283917f8be0079c531659141344cd1fd0a4f28419497f9722a3daafe3b4186f6b6457e09190a35050565b60008281526007602090815260408083206001600160a01b0385168452601c810190925282206060928061247c836131f0565b905060005b818110156124c0576000612495858361374f565b90506124a4866018018261263f565b156124b757836124b38161573b565b9450505b50600101612481565b506000826001600160401b038111156124db576124db615210565b604051908082528060200260200182016040528015612504578160200160208202803683370190505b5090506000805b8381101561256857600061251f878361374f565b905061252e886018018261263f565b1561255f578084848151811061254657612546615754565b60209081029190910101528261255b8161573b565b9350505b5060010161250b565b509098975050505050505050565b61257e614a92565b600154604051634025b22d60e01b8152600481018490526000916001600160a01b031690634025b22d90602401600060405180830381865afa1580156125c8573d6000803e3d6000fd5b505050506040513d6000823e601f3d908101601f191682016040526125f09190810190615a5d565b90508060200151600003612617576040516303c113ad60e61b815260040160405180910390fd5b60808101516101000151156106a4576040516398586ca160e01b815260040160405180910390fd5b6000818152600183016020526040812054151561053b565b600080826000015160010b846000015160010b13612682578351835161267d9190615b8e565b612690565b825184516126909190615b8e565b90506000836020015160010b856020015160010b136126c257846020015184602001516126bd9190615b8e565b6126d6565b836020015185602001516126d69190615b8e565b90506126e28183615bb1565b95945050505050565b600061053b838361375b565b600154604051634025b22d60e01b8152600481018790526000916001600160a01b031690634025b22d90602401600060405180830381865afa158015612741573d6000803e3d6000fd5b505050506040513d6000823e601f3d908101601f191682016040526127699190810190615a5d565b9050600083600581111561277f5761277f614cc4565b1461282c57600183600581111561279857612798614cc4565b036127b1576127ac888888888887876137aa565b61282c565b60028360058111156127c5576127c5614cc4565b036127d4576127ac8787613a98565b60038360058111156127e8576127e8614cc4565b03612806576040516321e08b4d60e21b815260040160405180910390fd5b600483600581111561281a5761281a614cc4565b0361282c5761282c8787878786613aa4565b5050505050505050565b600081815260076020526040812081612851601883016131f0565b9050600061286183601a016131f0565b905082601d015483601e01548284612879919061576a565b612883919061576a565b101595945050505050565b60008181526007602052604080822060048054925163d0bc9bbb60e01b81529081018590529092916001600160a01b03169063d0bc9bbb90602401600060405180830381865afa1580156128e6573d6000803e3d6000fd5b505050506040513d6000823e601f3d908101601f1916820160405261290e9190810190615c64565b8051909250905060005b81811015612b0257600083828151811061293457612934615754565b6020908102919091018101518051600190810b600090815260168901845260408082208486015190930b82529190935282205490925090819003612979575050612afa565b6000818152601587016020526040812054600160201b900460ff1690036129a1575050612afa565b6004805483516020850151604051630349370d60e41b81529384018b9052600191820b6024850152900b60448301526000916001600160a01b039091169063349370d0906064016020604051808303816000875af1158015612a07573d6000803e3d6000fd5b505050506040513d601f19601f82011682018060405250810190612a2b9190615d85565b90508060ff16600003612a4057505050612afa565b612a4a88836123bd565b15612aa9578060ff1687600f016000828254612a66919061576a565b9091555050600e870154600f88015410612aa45760028701546003880154612a9c918a916001600160a01b0391821691166121c7565b505050612b02565b612af6565b8060ff16876010016000828254612ac0919061576a565b9091555050600e870154601088015410612af65760038701546002880154612a9c918a916001600160a01b0391821691166121c7565b5050505b600101612918565b50600c83018054906000612b158361573b565b9190505550612b2683601801613bab565b6000601e840155612b3684612d59565b60038301546001600160a01b03166000908152601c840160205260409020612b5d906131f0565b60028401546001600160a01b03166000908152601c850160205260409020612b84906131f0565b612b8e919061576a565b601d840155600683015460009060ff16612bb55760038401546001600160a01b0316612bc4565b60028401546001600160a01b03165b600685015490915060009060ff16612be95760028501546001600160a01b0316612bf8565b60038501546001600160a01b03165b90508460090160030154600116600114612c125780612c14565b815b60099590950180546001600160a01b0319166001600160a01b03909616959095179094555050505050565b6000818152600760205260409020600281015460098201546001600160a01b03918216911603612ce1576003810154600090612c859084906001600160a01b0316613bb4565b6002830154909150600090612ca49085906001600160a01b0316613c48565b90508180612cb0575080155b156105855760038301546009840180546001600160a01b0319166001600160a01b0390921691909117905550505050565b6002810154600090612cfd9084906001600160a01b0316613bb4565b6003830154909150600090612d1c9085906001600160a01b0316613c48565b90508180612d28575080155b156105855760028301546009840180546001600160a01b0319166001600160a01b0390921691909117905550505050565b600081815260076020526040812090612d74601a83016131f0565b905060005b81811015610585576000612d9084601a018361374f565b9050612d9b81612348565b8015612dbf57506000818152601585016020526040902054600160201b900460ff16155b15612e4957600081815260158501602052604090208054600160401b900460ff16906008612dec83615da2565b82546101009290920a60ff81810219909316918316021790915560008381526015870160205260409020546003600160401b909104909116109050612e4957612e35858261211b565b612e4184601a016131f0565b925050612d79565b81612e538161573b565b92505050612d79565b60008381526007602052604080822060025491516348eef38560e11b8152600481018690529092916001600160a01b0316906391dde70a90602401600060405180830381865afa158015612eb4573d6000803e3d6000fd5b505050506040513d6000823e601f3d908101601f19168201604052612edc9190810190615dc1565b50905060005b8151811015612f4e5760028301546001600160a01b03166000908152601c8401602052604090208251612f2f9190849084908110612f2257612f22615754565b60200260200101516126eb565b50612f4686838381518110610e9b57610e9b615754565b600101612ee2565b506002546040516348eef38560e11b8152600481018590526000916001600160a01b0316906391dde70a90602401600060405180830381865afa158015612f99573d6000803e3d6000fd5b505050506040513d6000823e601f3d908101601f19168201604052612fc19190810190615dc1565b50905060005b81518110156130265760038401546001600160a01b03166000908152601c85016020526040902082516130079190849084908110612f2257612f22615754565b5061301e87838381518110610e9b57610e9b615754565b600101612fc7565b50505050505050565b6002546040516348eef38560e11b81526004810184905260009182916001600160a01b03909116906391dde70a90602401600060405180830381865afa15801561307d573d6000803e3d6000fd5b505050506040513d6000823e601f3d908101601f191682016040526130a59190810190615dc1565b9150915060005b825181101561310f5760008382815181106130c9576130c9615754565b6020026020010151905060008383815181106130e7576130e7615754565b60200260200101519050613105888383600001518460200151613cb9565b50506001016130ac565b506002546040516348eef38560e11b81526004810185905260009182916001600160a01b03909116906391dde70a90602401600060405180830381865afa15801561315e573d6000803e3d6000fd5b505050506040513d6000823e601f3d908101601f191682016040526131869190810190615dc1565b9150915060005b825181101561282c5760008382815181106131aa576131aa615754565b6020026020010151905060008383815181106131c8576131c8615754565b602002602001015190506131e68a8383600001518460200151613cb9565b505060010161318d565b60006106a4825490565b6132038361216e565b60008381526007602052604081209061321b84612576565b60025460048481015460405162b5e41160e51b815291820152602481018790529192506000916001600160a01b03909116906316bc822090604401602060405180830381865afa158015613273573d6000803e3d6000fd5b505050506040513d601f19601f820116820180604052508101906132979190615788565b600254600585015460405162b5e41160e51b81529293506000926001600160a01b03909216916316bc8220916132da918a90600401918252602082015260400190565b602060405180830381865afa1580156132f7573d6000803e3d6000fd5b505050506040513d601f19601f8201168201806040525081019061331b9190615788565b905081158015613329575080155b15613347576040516303c113ad60e61b815260040160405180910390fd5b608083015161010001511561336f576040516398586ca160e01b815260040160405180910390fd5b600086815260178501602090815260408083208054600181810b865260168a01855283862062010000909204900b85529092528220919091556133b56018860188612162565b506133c385601a0188612162565b50601e850180549060006133d68361573b565b91905055508515613515578215613454576002546004868101546040516327ffe52160e01b815291820152602481018990526001600160a01b03909116906327ffe52190604401600060405180830381600087803b15801561343757600080fd5b505af115801561344b573d6000803e3d6000fd5b505050506134c5565b60025460058601546040516327ffe52160e01b81526001600160a01b03909216916327ffe52191613492918b90600401918252602082015260400190565b600060405180830381600087803b1580156134ac57600080fd5b505af11580156134c0573d6000803e3d6000fd5b505050505b60008781526015860160205260408120805468ffffffffffffffffff19168155906134f36001830182614bb0565b505060008781526017860160205260409020805463ffffffff1916905561358c565b6001546000888152600a6020526040908190205490516311a960cd60e01b8152600481018a905260248101919091526001600160a01b03909116906311a960cd90604401600060405180830381600087803b15801561357357600080fd5b505af1158015613587573d6000803e3d6000fd5b505050505b6135968888613da9565b61282c88613e07565b600081815260018301602052604081205480156136885760006135c3600183615e79565b85549091506000906135d790600190615e79565b905080821461363c5760008660000182815481106135f7576135f7615754565b906000526020600020015490508087600001848154811061361a5761361a615754565b6000918252602080832090910192909255918252600188019052604090208390555b855486908061364d5761364d615e8c565b6001900381819060005260206000200160009055905585600101600086815260200190815260200160002060009055600193505050506106a4565b60009150506106a4565b60008381526007602090815260408083206001600160a01b0386168452601c8101909252822090916136c3826131f0565b905060005b818110156130265760006136dc848361374f565b6002546040516327ffe52160e01b815260048101899052602481018390529192506001600160a01b0316906327ffe52190604401600060405180830381600087803b15801561372a57600080fd5b505af115801561373e573d6000803e3d6000fd5b5050600190930192506136c8915050565b600061053b8383613e93565b60008181526001830160205260408120546137a2575081546001818101845560008481526020808220909301849055845484825282860190935260409020919091556106a4565b5060006106a4565b60006137b583612576565b90508160a001516001600160a01b03168160a001516001600160a01b0316036137f1576040516321e08b4d60e21b815260040160405180910390fd5b604080518082018252600187810b825286810b602080840191909152600087815260178d0182528481208551808701909652805480850b875262010000900490930b91850191909152919290919061384a908490612657565b60008a815260158d016020526040902080549192509060ff620100009091048116908316111561388d576040516321e08b4d60e21b815260040160405180910390fd5b60018260ff161180156139325750600480548454604051638383c99560e01b81529283018e905260018c810b60248501528b810b604485015281810b606485015262010000909104900b60848301526001600160a01b031690638383c9959060a401602060405180830381865afa15801561390c573d6000803e3d6000fd5b505050506040513d601f19601f820116820180604052508101906139309190615788565b155b15613950576040516321e08b4d60e21b815260040160405180910390fd5b600087815260158d016020526040812080549091600160201b90910460ff1690036139d7578054600160401b900460ff1681600861398d83615da2565b91906101000a81548160ff021916908360ff1602179055505060038160000160089054906101000a900460ff1660ff16106139cc576139cc8c8961211b565b505050505050613026565b8154815460ff6301000000909204821691600160381b90910416600060646139ff8385615ea2565b613a099190615ebf565b613a169060ff8516615ef1565b8454909150600160201b900460ff1661ffff821610613a4f57613a398f8c612127565b60008b8152600a602052604090208e9055613a86565b835481908590600490613a6d908490600160201b900460ff16615f0b565b92506101000a81548160ff021916908360ff1602179055505b50505050505050505050505050505050565b610554828260016131fa565b600154604051634025b22d60e01b8152600481018690526000916001600160a01b031690634025b22d90602401600060405180830381865afa158015613aee573d6000803e3d6000fd5b505050506040513d6000823e601f3d908101601f19168201604052613b169190810190615a5d565b905060008160400151606001516007811115613b3457613b34614cc4565b03613b52576040516321e08b4d60e21b815260040160405180910390fd5b613b5a614a92565b60038260400151606001516007811115613b7657613b76614cc4565b14613b8757613b8483612576565b90505b613b95878686868686613ebd565b6130268787878787876040015160600151613fcf565b611d9d81614040565b60008281526007602090815260408083206001600160a01b0385168452601c8101909252822082613be4826131f0565b905060005b81811015613c3b576000613bfd848361374f565b9050613c0988826140a2565b8015613c1f5750613c1d856018018261263f565b155b15613c32576001955050505050506106a4565b50600101613be9565b5060009695505050505050565b60008281526007602090815260408083206001600160a01b0385168452601c8101909252822082613c78826131f0565b905060005b81811015613c3b576000613c91848361374f565b9050613c9d88826140a2565b15613cb0576001955050505050506106a4565b50600101613c7d565b6000848152600760205260409020600b600184900b121580613ce057506011600183900b12155b15613cfe5760405163673f032f60e11b815260040160405180910390fd5b600183810b600090815260168301602090815260408083209386900b8352929052205415613d3f57604051638243205760e01b815260040160405180910390fd5b600192830b600081815260168301602090815260408083209590960b8083529481528582208790558551808701875292835282810194855295815260179092019094529190912091518254915161ffff908116620100000263ffffffff1990931691161717905550565b600082815260076020908152604080832060028101546001600160a01b03168452601c8101909252909120613dde9083612162565b5060038101546001600160a01b03166000908152601c8201602052604090206105859083612162565b60008181526007602052604090206002810154613e2e9083906001600160a01b031661417a565b613e5457600381015460028201546105549184916001600160a01b0391821691166121c7565b6003810154613e6d9083906001600160a01b031661417a565b61055457600281015460038201546105549184916001600160a01b0391821691166121c7565b6000826000018281548110613eaa57613eaa615754565b9060005260206000200154905092915050565b6040820151606001516002816007811115613eda57613eda614cc4565b03613f1e578260a001516001600160a01b03168260a001516001600160a01b031614613f19576040516321e08b4d60e21b815260040160405180910390fd5b613fa9565b6001816007811115613f3257613f32614cc4565b03613f71578260a001516001600160a01b03168260a001516001600160a01b031603613f19576040516321e08b4d60e21b815260040160405180910390fd5b6003816007811115613f8557613f85614cc4565b03613f905750610967565b6040516321e08b4d60e21b815260040160405180910390fd5b6003816007811115613fbd57613fbd614cc4565b146130265761302687878787856141eb565b6002816007811115613fe357613fe3614cc4565b03613ff757613ff286836142fe565b610967565b600181600781111561400b5761400b614cc4565b0361401b57613ff2868684614422565b600381600781111561402f5761402f614cc4565b03613f9057613ff286868686614525565b600061404a825490565b905060005b8181101561409a5782600101600084600001838154811061407257614072615754565b906000526020600020015481526020019081526020016000206000905580600101905061404f565b505060009055565b6000828152600760205260408082206001549151634025b22d60e01b815260048101859052909183916001600160a01b0390911690634025b22d90602401600060405180830381865afa1580156140fd573d6000803e3d6000fd5b505050506040513d6000823e601f3d908101601f191682016040526141259190810190615a5d565b905080608001516101000151600014614143576000925050506106a4565b6000848152601583016020526040812054600160201b900460ff16900361416f576000925050506106a4565b506001949350505050565b60008281526007602090815260408083206001600160a01b0385168452601c81019092528220826141aa826131f0565b905060005b81811015613c3b5760006141c3848361374f565b90506141cf88826140a2565b156141e2576001955050505050506106a4565b506001016141af565b60008581526007602090815260408083208584526017810183528184208251808401845260018a810b825289900b948101949094526003549251636759d30960e11b8152919490939290916001600160a01b039091169063ceb3a61290614256908890600401615f24565b602060405180830381865afa158015614273573d6000803e3d6000fd5b505050506040513d601f19601f820116820180604052508101906142979190615d85565b604080518082019091528454600181810b835262010000909104900b60208201529091506000906142c9908490612657565b90508160ff168160ff1611156142f2576040516321e08b4d60e21b815260040160405180910390fd5b50505050505050505050565b6000828152600760209081526040808320848452601581019092528083206003549151633387d11760e11b81529293909290916001600160a01b03169063670fa22e9061435090600290600401615f24565b602060405180830381865afa15801561436d573d6000803e3d6000fd5b505050506040513d601f19601f820116820180604052508101906143919190615d85565b82549091506000906143ae908390600160201b900460ff16615bb1565b835490915060ff600160281b909104811690821611156143ec578254600160201b60ff600160281b8304160264ff0000000019909116178355614404565b825464ff000000001916600160201b60ff8316021783555b8254600160201b900460ff16156109675761302684601a0186612162565b6000838152600760209081526040808320848452601581019092528083206003549151633387d11760e11b81529293909290916001600160a01b03169063670fa22e9061447490600190600401615f24565b602060405180830381865afa158015614491573d6000803e3d6000fd5b505050506040513d601f19601f820116820180604052508101906144b59190615d85565b6000858152600a602052604090208690558254909150819083906008906144e7908490600160401b900460ff16615bb1565b92506101000a81548160ff021916908360ff16021790555060038260000160089054906101000a900460ff1660ff161061096757610967868561211b565b600084815260076020526040808220600380549251636759d30960e11b81529193926001600160a01b03169163ceb3a6129161456391600401615f24565b602060405180830381865afa158015614580573d6000803e3d6000fd5b505050506040513d601f19601f820116820180604052508101906145a49190615d85565b60038054604051633387d11760e11b81529293506000926001600160a01b039091169163670fa22e916145da9190600401615f24565b602060405180830381865afa1580156145f7573d6000803e3d6000fd5b505050506040513d601f19601f8201168201806040525081019061461b9190615d85565b60028401546001600160a01b03166000908152601c85016020526040902090915061465190889088908890889087908790614680565b60038301546001600160a01b03166000908152601c840160205260409020613026908890889088908890879087905b600087815260076020526040812090614698836131f0565b60408051808201909152600189810b825288900b602082015290915060005b828110156148225760006146cb868361374f565b6000818152601787016020908152604080832081518083019092528054600181810b845262010000909104900b928201929092529293509161470e908690612657565b90508960ff168160ff161115801561472657508c8314155b15614817578c600a600085815260200190815260200160002081905550600087601501600085815260200190815260200160002060000160079054906101000a900460ff16905060648160ff168b60ff166147819190615ea2565b61478b9190615ebf565b6147989060ff8c16615ef1565b600085815260158a016020526040902054909a5060ff600160201b9091048116908b16106147cf576147ca8f85612127565b614815565b6000848152601589016020526040902080548b91906004906147fc908490600160201b900460ff16615f0b565b92506101000a81548160ff021916908360ff1602179055505b505b5050506001016146b7565b5050505050505050505050565b604080516101208101825260008082526020820181905291810182905260608082018390526080820183905260a0820183905260c0820183905260e082019290925261010081019190915290565b82805482825590600052602060002090601f016020900481019282156149135791602002820160005b838211156148e457835183826101000a81548160ff021916908360ff16021790555092602001926001016020816000010492830192600103026148a6565b80156149115782816101000a81549060ff02191690556001016020816000010492830192600103026148e4565b505b5061491f929150614bd1565b5090565b6040518060600160405280600081526020016149586040518060400160405280600060010b8152602001600060010b81525090565b8152600060209091015290565b604080516102e08101825260006101c082018181526101e08301829052610200830182905261022083018290526102408301829052610260830182905261028083018290526102a083018290526102c083018290528252825160808101845281815260208082018390528185018390526060820183905280840191909152835180850185528281529081019190915290918201908152602001600081526020016000815260200160008152602001614a5b604080516101008101825260008082526020820181905291810182905260608101829052608081018290529060a0820190815260200160008152602001600081525090565b8152602001606081526020016060815260200160608152602001606081526020016060815260200160608152602001606081525090565b6040518060c001604052806060815260200160008152602001614ad66040805160808101909152806000815260200160008152602001600081526020016000905290565b8152602001614b576040805160c0808201835260008083528351610120810185528181526020818101839052948101829052606081018290526080810182905260a0810182905291820181905260e0820181905261010082015290918201908152600060208201819052604082018190526060820181905260809091015290565b8152604080516101208101825260008082526020828101829052928201819052606082018190526080820181905260a0820181905260c0820181905260e082018190526101008201529101908152600060209091015290565b50805460008255601f016020900490600052602060002090810190611d9d91905b5b8082111561491f5760008155600101614bd2565b6001600160a01b0381168114611d9d57600080fd5b60008060408385031215614c0e57600080fd5b8235614c1981614be6565b946020939093013593505050565b600060208284031215614c3957600080fd5b813561053b81614be6565b805182526020810151602083015260018060a01b03604082015116604083015260018060a01b0360608201511660608301526080810151608083015260a081015160a083015260c0810151614c9d60c084018215159052565b5060e081015160e0830152610100810151610eb06101008401826001600160a01b03169052565b634e487b7160e01b600052602160045260246000fd5b60068110614cea57614cea614cc4565b9052565b80518252602081015160010b6020830152604081015160010b6040830152606081015160010b60608301526080810151614d2d608084018260010b9052565b5060a0810151614d4060a0840182614cda565b5060c0818101519083015260e090810151910152565b600081518084526020840193506020830160005b82811015614d88578151865260209586019590910190600101614d6a565b5093949350505050565b600081518084526020840193506020830160005b82811015614d8857815160ff16865260209586019590910190600101614da6565b805161ffff16825260006020820151614de5602085018260ff169052565b506040820151614dfa604085018260ff169052565b506060820151614e0f606085018260ff169052565b506080820151614e24608085018260ff169052565b5060a0820151614e3960a085018260ff169052565b5060c0820151614e4e60c085018260ff169052565b5060e0820151614e6360e085018260ff169052565b506101008201516101206101008501526123f1610120850182614d92565b600082825180855260208501945060208160051b8301016020850160005b83811015614ed157601f19858403018852614ebb838351614dc7565b6020988901989093509190910190600101614e9f565b50909695505050505050565b600081518084526020840193506020830160005b82811015614d885781516000815188526020820151614f2660208a0182805160010b8252602081015160010b60208301525050565b5050604001511515606087015260809095019460209190910190600101614ef1565b614f53828251614c44565b60208181015180516001600160a01b0316610120850152808201516101408501526040808201516101608601526060918201516101808601528301518051600190810b6101a087015292015190910b6101c08401528101516101e0830152608081015161020083015260a081015161022083015260c0810151600090614fdd610240850182614cee565b5060e0820151610420610340850152614ffa610420850182614d56565b90506101008301518482036103608601526150158282614e81565b9150506101208301518482036103808601526150318282614edd565b9150506101408301518482036103a086015261504d8282614d56565b9150506101608301518482036103c08601526150698282614d56565b9150506101808301518482036103e08601526150858282614d56565b9150506101a08301518482036104008601526126e28282614d56565b6000602082016020835280845180835260408501915060408160051b86010192506020860160005b828110156150fa57603f198786030184526150e5858351614f48565b945060209384019391909101906001016150c9565b50929695505050505050565b6000806040838503121561511957600080fd5b50508035926020909101359150565b60006020828403121561513a57600080fd5b5035919050565b602080825282518282018190526000918401906040840190835b81811015610b3a57835183526020938401939092019160010161515b565b60208152600061053b6020830184614dc7565b60208152600061053b6020830184614edd565b600080600080600060a086880312156151b757600080fd5b85356151c281614be6565b945060208601356151d281614be6565b935060408601356151e281614be6565b925060608601356151f281614be6565b9150608086013561520281614be6565b809150509295509295909350565b634e487b7160e01b600052604160045260246000fd5b60405161012081016001600160401b038111828210171561524957615249615210565b60405290565b604051608081016001600160401b038111828210171561524957615249615210565b60405160c081016001600160401b038111828210171561524957615249615210565b604080519081016001600160401b038111828210171561524957615249615210565b604051601f8201601f191681016001600160401b03811182821017156152dd576152dd615210565b604052919050565b60006001600160401b038211156152fe576152fe615210565b5060051b60200190565b600082601f83011261531957600080fd5b813561532c615327826152e5565b6152b5565b8082825260208201915060208360051b86010192508583111561534e57600080fd5b602085015b8381101561536b578035835260209283019201615353565b5095945050505050565b60006020828403121561538757600080fd5b81356001600160401b0381111561539d57600080fd5b6123f184828501615308565b8060010b8114611d9d57600080fd5b600080600080608085870312156153ce57600080fd5b843593506020850135925060408501356153e7816153a9565b915060608501356153f7816153a9565b939692955090935050565b6000806040838503121561541557600080fd5b8235915060208301356001600160401b0381111561543257600080fd5b61543e85828601615308565b9150509250929050565b60208152600061053b6020830184614f48565b60008060008060008060c0878903121561547457600080fd5b8635955060208701359450604087013561548d816153a9565b9350606087013561549d816153a9565b92506080870135600681106154b157600080fd5b9598949750929591949360a090920135925050565b8015158114611d9d57600080fd5b60008060008060008060008060006101208a8c0312156154f357600080fd5b8935985060208a013561550581614be6565b975060408a013561551581614be6565b965060608a0135955060808a0135945060a08a0135615533816154c6565b989b979a5095989497939693955050505060c08201359160e0810135916101009091013590565b60ff81168114611d9d57600080fd5b60008060006060848603121561557e57600080fd5b833592506020840135915060408401356155978161555a565b809150509250925092565b805161ffff811681146155b457600080fd5b919050565b80516155b48161555a565b600082601f8301126155d557600080fd5b81516155e3615327826152e5565b8082825260208201915060208360051b86010192508583111561560557600080fd5b602085015b8381101561536b57805161561d8161555a565b83526020928301920161560a565b60006020828403121561563d57600080fd5b81516001600160401b0381111561565357600080fd5b8201610120818503121561566657600080fd5b61566e615226565b615677826155a2565b8152615685602083016155b9565b6020820152615696604083016155b9565b60408201526156a7606083016155b9565b60608201526156b8608083016155b9565b60808201526156c960a083016155b9565b60a08201526156da60c083016155b9565b60c08201526156eb60e083016155b9565b60e08201526101008201516001600160401b0381111561570a57600080fd5b615716868285016155c4565b61010083015250949350505050565b634e487b7160e01b600052601160045260246000fd5b60006001820161574d5761574d615725565b5060010190565b634e487b7160e01b600052603260045260246000fd5b808201808211156106a4576106a4615725565b80516155b4816154c6565b60006020828403121561579a57600080fd5b815161053b816154c6565b878152600187810b602083015286810b604083015285810b606083015284900b608082015260e081016157db60a0830185614cda565b8260c083015298975050505050505050565b60088110611d9d57600080fd5b60006080828403121561580c57600080fd5b61581461524f565b90508151615821816157ed565b81526020820151615831816157ed565b60208201526040820151615844816157ed565b60408201526060820151615857816157ed565b606082015292915050565b60008183036101c081121561587657600080fd5b61587e615271565b835181529150610120601f198201121561589757600080fd5b506158a0615226565b6158ac602084016155a2565b81526158ba604084016155b9565b60208201526158cb606084016155b9565b60408201526158dc608084016155a2565b60608201526158ed60a084016155b9565b60808201526158fe60c084016155b9565b60a082015261590f60e084016155a2565b60c082015261592161010084016155b9565b60e082015261593361012084016155b9565b610100820152602082015261594b61014083016155a2565b604082015261595d61016083016155b9565b606082015261596f61018083016155b9565b60808201526159816101a083016155b9565b60a082015292915050565b805163ffffffff811681146155b457600080fd5b600061012082840312156159b357600080fd5b6159bb615226565b90506159c68261598c565b81526159d4602083016155a2565b60208201526159e5604083016155a2565b60408201526159f6606083016155a2565b6060820152615a076080830161577d565b6080820152615a1860a0830161577d565b60a0820152615a2960c0830161577d565b60c0820152615a3a60e0830161577d565b60e08201526101009182015191810191909152919050565b80516155b481614be6565b600060208284031215615a6f57600080fd5b81516001600160401b03811115615a8557600080fd5b82016103c08185031215615a9857600080fd5b615aa0615271565b81516001600160401b03811115615ab657600080fd5b8201601f81018613615ac757600080fd5b80516001600160401b03811115615ae057615ae0615210565b615af3601f8201601f19166020016152b5565b818152876020838501011115615b0857600080fd5b60005b82811015615b2757602081850181015183830182015201615b0b565b50600060209282018301528352838101519083015250615b4a85604084016157fa565b6040820152615b5c8560c08401615862565b6060820152615b6f8561028084016159a0565b6080820152615b816103a08301615a52565b60a0820152949350505050565b600182810b9082900b03617fff198112617fff821317156106a4576106a4615725565b60ff81811683821601908111156106a4576106a4615725565b600082601f830112615bdb57600080fd5b8151615be9615327826152e5565b8082825260208201915060208360061b860101925085831115615c0b57600080fd5b602085015b8381101561536b5760408188031215615c2857600080fd5b615c30615293565b8151615c3b816153a9565b81526020820151615c4b816153a9565b6020828101919091529084529290920191604001615c10565b60008060408385031215615c7757600080fd5b82516001600160401b03811115615c8d57600080fd5b615c9985828601615bca565b92505060208301516001600160401b03811115615cb557600080fd5b8301601f81018513615cc657600080fd5b8051615cd4615327826152e5565b8082825260208201915060208360071b850101925087831115615cf657600080fd5b6020840193505b82841015615d775760808489031215615d1557600080fd5b615d1d61524f565b8451615d28816153a9565b81526020850151615d38816153a9565b60208201526040850151615d4b8161555a565b60408201526060850151615d5e816154c6565b6060820152825260809390930192602090910190615cfd565b809450505050509250929050565b600060208284031215615d9757600080fd5b815161053b8161555a565b600060ff821660ff8103615db857615db8615725565b60010192915050565b60008060408385031215615dd457600080fd5b82516001600160401b03811115615dea57600080fd5b8301601f81018513615dfb57600080fd5b8051615e09615327826152e5565b8082825260208201915060208360051b850101925087831115615e2b57600080fd5b6020840193505b82841015615e4d578351825260209384019390910190615e32565b8095505050505060208301516001600160401b03811115615e6d57600080fd5b61543e85828601615bca565b818103818111156106a4576106a4615725565b634e487b7160e01b600052603160045260246000fd5b61ffff8181168382160290811690818114610c5857610c58615725565b600061ffff831680615ee157634e487b7160e01b600052601260045260246000fd5b8061ffff84160491505092915050565b61ffff82811682821603908111156106a4576106a4615725565b60ff82811682821603908111156106a4576106a4615725565b6020810160088310615f3857615f38614cc4565b9190529056fea2646970667358221220046ef7ed956831b6bec0611e06a4def654dfe8c7ea5ee700d5579c00c46f3a1d64736f6c634300081c0033",
  "linkReferences": {},
  "deployedLinkReferences": {}
}