{
  "_format": "hh-sol-artifact-1",
  "contractName": "RenderWeapon",
  "sourceName": "contracts/Renderers/RenderWeapon.sol",
  "abi": [
    {
      "inputs": [
        {
          "internalType": "address[]",
          "name": "renderers",
          "type": "address[]"
        }
      ],
      "stateMutability": "nonpayable",
      "type": "constructor"
    },
    {
      "inputs": [
        {
          "components": [
            {
              "internalType": "string",
              "name": "name",
              "type": "string"
            },
            {
              "internalType": "uint256",
              "name": "id",
              "type": "uint256"
            },
            {
              "components": [
                {
                  "internalType": "enum MainWeapon",
                  "name": "mainWeapon",
                  "type": "uint8"
                },
                {
                  "internalType": "enum Armor",
                  "name": "armor",
                  "type": "uint8"
                },
                {
                  "internalType": "enum Shields",
                  "name": "shields",
                  "type": "uint8"
                },
                {
                  "internalType": "enum Special",
                  "name": "special",
                  "type": "uint8"
                }
              ],
              "internalType": "struct Equipment",
              "name": "equipment",
              "type": "tuple"
            },
            {
              "components": [
                {
                  "internalType": "uint256",
                  "name": "serialNumber",
                  "type": "uint256"
                },
                {
                  "components": [
                    {
                      "internalType": "uint16",
                      "name": "h1",
                      "type": "uint16"
                    },
                    {
                      "internalType": "uint8",
                      "name": "s1",
                      "type": "uint8"
                    },
                    {
                      "internalType": "uint8",
                      "name": "l1",
                      "type": "uint8"
                    },
                    {
                      "internalType": "uint16",
                      "name": "h2",
                      "type": "uint16"
                    },
                    {
                      "internalType": "uint8",
                      "name": "s2",
                      "type": "uint8"
                    },
                    {
                      "internalType": "uint8",
                      "name": "l2",
                      "type": "uint8"
                    }
                  ],
                  "internalType": "struct Colors",
                  "name": "colors",
                  "type": "tuple"
                },
                {
                  "internalType": "uint8",
                  "name": "variant",
                  "type": "uint8"
                },
                {
                  "internalType": "uint8",
                  "name": "accuracy",
                  "type": "uint8"
                },
                {
                  "internalType": "uint8",
                  "name": "hull",
                  "type": "uint8"
                },
                {
                  "internalType": "uint8",
                  "name": "speed",
                  "type": "uint8"
                }
              ],
              "internalType": "struct Traits",
              "name": "traits",
              "type": "tuple"
            },
            {
              "components": [
                {
                  "internalType": "uint32",
                  "name": "shipsDestroyed",
                  "type": "uint32"
                },
                {
                  "internalType": "uint16",
                  "name": "costsVersion",
                  "type": "uint16"
                },
                {
                  "internalType": "uint16",
                  "name": "cost",
                  "type": "uint16"
                },
                {
                  "internalType": "bool",
                  "name": "shiny",
                  "type": "bool"
                },
                {
                  "internalType": "bool",
                  "name": "constructed",
                  "type": "bool"
                },
                {
                  "internalType": "bool",
                  "name": "inFleet",
                  "type": "bool"
                },
                {
                  "internalType": "uint256",
                  "name": "timestampDestroyed",
                  "type": "uint256"
                }
              ],
              "internalType": "struct ShipData",
              "name": "shipData",
              "type": "tuple"
            },
            {
              "internalType": "address",
              "name": "owner",
              "type": "address"
            }
          ],
          "internalType": "struct Ship",
          "name": "ship",
          "type": "tuple"
        }
      ],
      "name": "render",
      "outputs": [
        {
          "internalType": "string",
          "name": "",
          "type": "string"
        }
      ],
      "stateMutability": "view",
      "type": "function"
    },
    {
      "inputs": [],
      "name": "renderWeapon1",
      "outputs": [
        {
          "internalType": "contract IReturnSVG",
          "name": "",
          "type": "address"
        }
      ],
      "stateMutability": "view",
      "type": "function"
    },
    {
      "inputs": [],
      "name": "renderWeapon2",
      "outputs": [
        {
          "internalType": "contract IReturnSVG",
          "name": "",
          "type": "address"
        }
      ],
      "stateMutability": "view",
      "type": "function"
    },
    {
      "inputs": [],
      "name": "renderWeapon3",
      "outputs": [
        {
          "internalType": "contract IReturnSVG",
          "name": "",
          "type": "address"
        }
      ],
      "stateMutability": "view",
      "type": "function"
    },
    {
      "inputs": [],
      "name": "renderWeapon4",
      "outputs": [
        {
          "internalType": "contract IReturnSVG",
          "name": "",
          "type": "address"
        }
      ],
      "stateMutability": "view",
      "type": "function"
    }
  ],
  "bytecode": "0x61010060405234801561001157600080fd5b50604051610d36380380610d3683398101604081905261003091610193565b80516004146100955760405162461bcd60e51b815260206004820152602760248201527f496e76616c69642072656e64657265727320617272617920696e2052656e6465604482015266392bb2b0b837b760c91b606482015260840160405180910390fd5b806000815181106100a8576100a8610262565b60200260200101516001600160a01b03166080816001600160a01b031681525050806001815181106100dc576100dc610262565b60200260200101516001600160a01b031660a0816001600160a01b0316815250508060028151811061011057610110610262565b60200260200101516001600160a01b031660c0816001600160a01b0316815250508060038151811061014457610144610262565b60209081029190910101516001600160a01b031660e05250610278565b634e487b7160e01b600052604160045260246000fd5b80516001600160a01b038116811461018e57600080fd5b919050565b6000602082840312156101a557600080fd5b81516001600160401b038111156101bb57600080fd5b8201601f810184136101cc57600080fd5b80516001600160401b038111156101e5576101e5610161565b604051600582901b90603f8201601f191681016001600160401b038111828210171561021357610213610161565b60405291825260208184018101929081018784111561023157600080fd5b6020850194505b838510156102575761024985610177565b815260209485019401610238565b509695505050505050565b634e487b7160e01b600052603260045260246000fd5b60805160a05160c05160e051610a6c6102ca60003960008181606101526102f501526000818160a5015261028b01526000818160cc0152610221015260008181610113015261016c0152610a6c6000f3fe608060405234801561001057600080fd5b50600436106100575760003560e01c8063319471a11461005c5780633da61edc146100a057806372ba5179146100c7578063d01c7c84146100ee578063e06fc48d1461010e575b600080fd5b6100837f000000000000000000000000000000000000000000000000000000000000000081565b6040516001600160a01b0390911681526020015b60405180910390f35b6100837f000000000000000000000000000000000000000000000000000000000000000081565b6100837f000000000000000000000000000000000000000000000000000000000000000081565b6101016100fc36600461066c565b610135565b60405161009791906107c0565b6100837f000000000000000000000000000000000000000000000000000000000000000081565b606060006040830151516003811115610150576101506107da565b036101ec576040516334071f2160e21b81526001600160a01b037f0000000000000000000000000000000000000000000000000000000000000000169063d01c7c84906101a1908590600401610904565b600060405180830381865afa1580156101be573d6000803e3d6000fd5b505050506040513d6000823e601f3d908101601f191682016040526101e691908101906109bf565b92915050565b60016040830151516003811115610205576102056107da565b03610256576040516334071f2160e21b81526001600160a01b037f0000000000000000000000000000000000000000000000000000000000000000169063d01c7c84906101a1908590600401610904565b6002604083015151600381111561026f5761026f6107da565b036102c0576040516334071f2160e21b81526001600160a01b037f0000000000000000000000000000000000000000000000000000000000000000169063d01c7c84906101a1908590600401610904565b600360408301515160038111156102d9576102d96107da565b0361032a576040516334071f2160e21b81526001600160a01b037f0000000000000000000000000000000000000000000000000000000000000000169063d01c7c84906101a1908590600401610904565b505060408051602081019091526000815290565b634e487b7160e01b600052604160045260246000fd5b60405160c0810167ffffffffffffffff811182821017156103775761037761033e565b60405290565b60405160e0810167ffffffffffffffff811182821017156103775761037761033e565b604051601f8201601f1916810167ffffffffffffffff811182821017156103c9576103c961033e565b604052919050565b600067ffffffffffffffff8211156103eb576103eb61033e565b50601f01601f191660200190565b6004811061040657600080fd5b50565b60006080828403121561041b57600080fd5b6040516080810167ffffffffffffffff8111828210171561043e5761043e61033e565b604052905080823561044f816103f9565b8152602083013561045f816103f9565b60208201526040830135610472816103f9565b60408201526060830135610485816103f9565b6060919091015292915050565b803561ffff811681146104a457600080fd5b919050565b803560ff811681146104a457600080fd5b60008183036101608112156104ce57600080fd5b6104d6610354565b83358152915060c0601f19820112156104ee57600080fd5b506104f7610354565b61050360208401610492565b8152610511604084016104a9565b6020820152610522606084016104a9565b604082015261053360808401610492565b606082015261054460a084016104a9565b608082015261055560c084016104a9565b60a0820152602082015261056b60e083016104a9565b604082015261057d61010083016104a9565b606082015261058f61012083016104a9565b60808201526105a161014083016104a9565b60a082015292915050565b803580151581146104a457600080fd5b600060e082840312156105ce57600080fd5b6105d661037d565b9050813563ffffffff811681146105ec57600080fd5b81526105fa60208301610492565b602082015261060b60408301610492565b604082015261061c606083016105ac565b606082015261062d608083016105ac565b608082015261063e60a083016105ac565b60a082015260c09182013591810191909152919050565b80356001600160a01b03811681146104a457600080fd5b60006020828403121561067e57600080fd5b813567ffffffffffffffff81111561069557600080fd5b820161032081850312156106a857600080fd5b6106b0610354565b813567ffffffffffffffff8111156106c757600080fd5b8201601f810186136106d857600080fd5b80356106eb6106e6826103d1565b6103a0565b81815287602083850101111561070057600080fd5b8160208401602083013760006020928201830152835283810135908301525061072c8560408401610409565b604082015261073e8560c084016104ba565b60608201526107518561022084016105bc565b60808201526107636103008301610655565b60a0820152949350505050565b60005b8381101561078b578181015183820152602001610773565b50506000910152565b600081518084526107ac816020860160208601610770565b601f01601f19169290920160200192915050565b6020815260006107d36020830184610794565b9392505050565b634e487b7160e01b600052602160045260246000fd5b6004811061040657634e487b7160e01b600052602160045260246000fd5b80518252602081015161ffff815116602084015260ff602082015116604084015260ff604082015116606084015261ffff606082015116608084015260ff60808201511660a084015260ff60a08201511660c084015250604081015161087960e084018260ff169052565b50606081015160ff9081166101008401526080820151811661012084015260a0909101511661014090910152565b63ffffffff815116825261ffff602082015116602083015261ffff604082015116604083015260608101511515606083015260808101511515608083015260a08101516108f860a084018215159052565b5060c090810151910152565b60208152600082516103206020840152610922610340840182610794565b9050602084015160408401526040840151805161093e816107f0565b60608501526020810151610951816107f0565b60808501526040810151610964816107f0565b60a085015260600151610976816107f0565b60c0840152606084015161098d60e085018261080e565b5060808401516109a16102408501826108a7565b5060a08401516001600160a01b038116610320850152509392505050565b6000602082840312156109d157600080fd5b815167ffffffffffffffff8111156109e857600080fd5b8201601f810184136109f957600080fd5b8051610a076106e6826103d1565b818152856020838501011115610a1c57600080fd5b610a2d826020830160208601610770565b9594505050505056fea264697066735822122086738fde46b09a6c1cd3f73b0873a11da5f2babadc89ae2e422e95afa79223b864736f6c634300081c0033",
  "linkReferences": {},
  "deployedLinkReferences": {}
}