{
  "_format": "hh-sol-artifact-1",
  "contractName": "Ships",
  "sourceName": "contracts/Ships.sol",
  "abi": [
    {
      "inputs": [
        {
          "internalType": "address",
          "name": "_renderer",
          "type": "address"
        }
      ],
      "stateMutability": "nonpayable",
      "type": "constructor"
    },
    {
      "inputs": [],
      "name": "ArrayLengthMismatch",
      "type": "error"
    },
    {
      "inputs": [
        {
          "internalType": "address",
          "name": "sender",
          "type": "address"
        },
        {
          "internalType": "uint256",
          "name": "tokenId",
          "type": "uint256"
        },
        {
          "internalType": "address",
          "name": "owner",
          "type": "address"
        }
      ],
      "name": "ERC721IncorrectOwner",
      "type": "error"
    },
    {
      "inputs": [
        {
          "internalType": "address",
          "name": "operator",
          "type": "address"
        },
        {
          "internalType": "uint256",
          "name": "tokenId",
          "type": "uint256"
        }
      ],
      "name": "ERC721InsufficientApproval",
      "type": "error"
    },
    {
      "inputs": [
        {
          "internalType": "address",
          "name": "approver",
          "type": "address"
        }
      ],
      "name": "ERC721InvalidApprover",
      "type": "error"
    },
    {
      "inputs": [
        {
          "internalType": "address",
          "name": "operator",
          "type": "address"
        }
      ],
      "name": "ERC721InvalidOperator",
      "type": "error"
    },
    {
      "inputs": [
        {
          "internalType": "address",
          "name": "owner",
          "type": "address"
        }
      ],
      "name": "ERC721InvalidOwner",
      "type": "error"
    },
    {
      "inputs": [
        {
          "internalType": "address",
          "name": "receiver",
          "type": "address"
        }
      ],
      "name": "ERC721InvalidReceiver",
      "type": "error"
    },
    {
      "inputs": [
        {
          "internalType": "address",
          "name": "sender",
          "type": "address"
        }
      ],
      "name": "ERC721InvalidSender",
      "type": "error"
    },
    {
      "inputs": [
        {
          "internalType": "uint256",
          "name": "tokenId",
          "type": "uint256"
        }
      ],
      "name": "ERC721NonexistentToken",
      "type": "error"
    },
    {
      "inputs": [
        {
          "internalType": "address",
          "name": "",
          "type": "address"
        }
      ],
      "name": "InsufficientPurchases",
      "type": "error"
    },
    {
      "inputs": [],
      "name": "InvalidId",
      "type": "error"
    },
    {
      "inputs": [
        {
          "internalType": "uint256",
          "name": "_tier",
          "type": "uint256"
        },
        {
          "internalType": "uint256",
          "name": "_amount",
          "type": "uint256"
        }
      ],
      "name": "InvalidPurchase",
      "type": "error"
    },
    {
      "inputs": [],
      "name": "InvalidReferral",
      "type": "error"
    },
    {
      "inputs": [],
      "name": "InvalidRenderer",
      "type": "error"
    },
    {
      "inputs": [],
      "name": "MintPaused",
      "type": "error"
    },
    {
      "inputs": [
        {
          "internalType": "address",
          "name": "",
          "type": "address"
        }
      ],
      "name": "NotAuthorized",
      "type": "error"
    },
    {
      "inputs": [
        {
          "internalType": "uint256",
          "name": "",
          "type": "uint256"
        }
      ],
      "name": "NotYourShip",
      "type": "error"
    },
    {
      "inputs": [],
      "name": "OldShipCost",
      "type": "error"
    },
    {
      "inputs": [
        {
          "internalType": "address",
          "name": "owner",
          "type": "address"
        }
      ],
      "name": "OwnableInvalidOwner",
      "type": "error"
    },
    {
      "inputs": [
        {
          "internalType": "address",
          "name": "account",
          "type": "address"
        }
      ],
      "name": "OwnableUnauthorizedAccount",
      "type": "error"
    },
    {
      "inputs": [],
      "name": "ReentrancyGuardReentrantCall",
      "type": "error"
    },
    {
      "inputs": [
        {
          "internalType": "uint256",
          "name": "",
          "type": "uint256"
        }
      ],
      "name": "ShipAlreadyDestroyed",
      "type": "error"
    },
    {
      "inputs": [
        {
          "internalType": "uint256",
          "name": "",
          "type": "uint256"
        }
      ],
      "name": "ShipConstructed",
      "type": "error"
    },
    {
      "inputs": [],
      "name": "ShipDestroyed",
      "type": "error"
    },
    {
      "inputs": [
        {
          "internalType": "uint256",
          "name": "",
          "type": "uint256"
        }
      ],
      "name": "ShipInFleet",
      "type": "error"
    },
    {
      "inputs": [],
      "name": "ShipInGame",
      "type": "error"
    },
    {
      "inputs": [],
      "name": "ShipInLobby",
      "type": "error"
    },
    {
      "anonymous": false,
      "inputs": [
        {
          "indexed": true,
          "internalType": "address",
          "name": "owner",
          "type": "address"
        },
        {
          "indexed": true,
          "internalType": "address",
          "name": "approved",
          "type": "address"
        },
        {
          "indexed": true,
          "internalType": "uint256",
          "name": "tokenId",
          "type": "uint256"
        }
      ],
      "name": "Approval",
      "type": "event"
    },
    {
      "anonymous": false,
      "inputs": [
        {
          "indexed": true,
          "internalType": "address",
          "name": "owner",
          "type": "address"
        },
        {
          "indexed": true,
          "internalType": "address",
          "name": "operator",
          "type": "address"
        },
        {
          "indexed": false,
          "internalType": "bool",
          "name": "approved",
          "type": "bool"
        }
      ],
      "name": "ApprovalForAll",
      "type": "event"
    },
    {
      "anonymous": false,
      "inputs": [
        {
          "indexed": false,
          "internalType": "uint256",
          "name": "tokenId",
          "type": "uint256"
        }
      ],
      "name": "Locked",
      "type": "event"
    },
    {
      "anonymous": false,
      "inputs": [
        {
          "indexed": false,
          "internalType": "uint256",
          "name": "_tokenId",
          "type": "uint256"
        }
      ],
      "name": "MetadataUpdate",
      "type": "event"
    },
    {
      "anonymous": false,
      "inputs": [
        {
          "indexed": true,
          "internalType": "address",
          "name": "previousOwner",
          "type": "address"
        },
        {
          "indexed": true,
          "internalType": "address",
          "name": "newOwner",
          "type": "address"
        }
      ],
      "name": "OwnershipTransferred",
      "type": "event"
    },
    {
      "anonymous": false,
      "inputs": [
        {
          "indexed": true,
          "internalType": "address",
          "name": "from",
          "type": "address"
        },
        {
          "indexed": true,
          "internalType": "address",
          "name": "to",
          "type": "address"
        },
        {
          "indexed": true,
          "internalType": "uint256",
          "name": "tokenId",
          "type": "uint256"
        }
      ],
      "name": "Transfer",
      "type": "event"
    },
    {
      "anonymous": false,
      "inputs": [
        {
          "indexed": false,
          "internalType": "uint256",
          "name": "tokenId",
          "type": "uint256"
        }
      ],
      "name": "Unlocked",
      "type": "event"
    },
    {
      "inputs": [
        {
          "internalType": "address",
          "name": "",
          "type": "address"
        }
      ],
      "name": "amountPurchased",
      "outputs": [
        {
          "internalType": "uint256",
          "name": "",
          "type": "uint256"
        }
      ],
      "stateMutability": "view",
      "type": "function"
    },
    {
      "inputs": [
        {
          "internalType": "address",
          "name": "to",
          "type": "address"
        },
        {
          "internalType": "uint256",
          "name": "tokenId",
          "type": "uint256"
        }
      ],
      "name": "approve",
      "outputs": [],
      "stateMutability": "nonpayable",
      "type": "function"
    },
    {
      "inputs": [
        {
          "internalType": "address",
          "name": "owner",
          "type": "address"
        }
      ],
      "name": "balanceOf",
      "outputs": [
        {
          "internalType": "uint256",
          "name": "",
          "type": "uint256"
        }
      ],
      "stateMutability": "view",
      "type": "function"
    },
    {
      "inputs": [],
      "name": "claimFreeShips",
      "outputs": [],
      "stateMutability": "nonpayable",
      "type": "function"
    },
    {
      "inputs": [],
      "name": "config",
      "outputs": [
        {
          "internalType": "address",
          "name": "gameAddress",
          "type": "address"
        },
        {
          "internalType": "address",
          "name": "lobbyAddress",
          "type": "address"
        },
        {
          "internalType": "address",
          "name": "fleetsAddress",
          "type": "address"
        },
        {
          "internalType": "contract IRenderMetadata",
          "name": "metadataRenderer",
          "type": "address"
        },
        {
          "internalType": "contract IRandomManager",
          "name": "randomManager",
          "type": "address"
        },
        {
          "internalType": "contract IGenerateNewShip",
          "name": "shipGenerator",
          "type": "address"
        },
        {
          "internalType": "contract IShipAttributes",
          "name": "shipAttributes",
          "type": "address"
        }
      ],
      "stateMutability": "view",
      "type": "function"
    },
    {
      "inputs": [],
      "name": "constructAllMyShips",
      "outputs": [],
      "stateMutability": "nonpayable",
      "type": "function"
    },
    {
      "inputs": [
        {
          "internalType": "uint256",
          "name": "_id",
          "type": "uint256"
        }
      ],
      "name": "constructShip",
      "outputs": [],
      "stateMutability": "nonpayable",
      "type": "function"
    },
    {
      "inputs": [
        {
          "internalType": "uint256[]",
          "name": "_ids",
          "type": "uint256[]"
        }
      ],
      "name": "constructShips",
      "outputs": [],
      "stateMutability": "nonpayable",
      "type": "function"
    },
    {
      "inputs": [
        {
          "internalType": "uint256",
          "name": "_id",
          "type": "uint256"
        },
        {
          "components": [
            {
              "internalType": "string",
              "name": "name",
              "type": "string"
            },
            {
              "internalType": "uint256",
              "name": "id",
              "type": "uint256"
            },
            {
              "components": [
                {
                  "internalType": "enum MainWeapon",
                  "name": "mainWeapon",
                  "type": "uint8"
                },
                {
                  "internalType": "enum Armor",
                  "name": "armor",
                  "type": "uint8"
                },
                {
                  "internalType": "enum Shields",
                  "name": "shields",
                  "type": "uint8"
                },
                {
                  "internalType": "enum Special",
                  "name": "special",
                  "type": "uint8"
                }
              ],
              "internalType": "struct Equipment",
              "name": "equipment",
              "type": "tuple"
            },
            {
              "components": [
                {
                  "internalType": "uint256",
                  "name": "serialNumber",
                  "type": "uint256"
                },
                {
                  "components": [
                    {
                      "internalType": "uint16",
                      "name": "h1",
                      "type": "uint16"
                    },
                    {
                      "internalType": "uint8",
                      "name": "s1",
                      "type": "uint8"
                    },
                    {
                      "internalType": "uint8",
                      "name": "l1",
                      "type": "uint8"
                    },
                    {
                      "internalType": "uint16",
                      "name": "h2",
                      "type": "uint16"
                    },
                    {
                      "internalType": "uint8",
                      "name": "s2",
                      "type": "uint8"
                    },
                    {
                      "internalType": "uint8",
                      "name": "l2",
                      "type": "uint8"
                    }
                  ],
                  "internalType": "struct Colors",
                  "name": "colors",
                  "type": "tuple"
                },
                {
                  "internalType": "uint8",
                  "name": "variant",
                  "type": "uint8"
                },
                {
                  "internalType": "uint8",
                  "name": "accuracy",
                  "type": "uint8"
                },
                {
                  "internalType": "uint8",
                  "name": "hull",
                  "type": "uint8"
                },
                {
                  "internalType": "uint8",
                  "name": "speed",
                  "type": "uint8"
                }
              ],
              "internalType": "struct Traits",
              "name": "traits",
              "type": "tuple"
            },
            {
              "components": [
                {
                  "internalType": "uint32",
                  "name": "shipsDestroyed",
                  "type": "uint32"
                },
                {
                  "internalType": "uint16",
                  "name": "costsVersion",
                  "type": "uint16"
                },
                {
                  "internalType": "uint16",
                  "name": "cost",
                  "type": "uint16"
                },
                {
                  "internalType": "bool",
                  "name": "shiny",
                  "type": "bool"
                },
                {
                  "internalType": "bool",
                  "name": "constructed",
                  "type": "bool"
                },
                {
                  "internalType": "bool",
                  "name": "inFleet",
                  "type": "bool"
                },
                {
                  "internalType": "uint256",
                  "name": "timestampDestroyed",
                  "type": "uint256"
                }
              ],
              "internalType": "struct ShipData",
              "name": "shipData",
              "type": "tuple"
            },
            {
              "internalType": "address",
              "name": "owner",
              "type": "address"
            }
          ],
          "internalType": "struct Ship",
          "name": "_ship",
          "type": "tuple"
        }
      ],
      "name": "constructSpecificShip",
      "outputs": [],
      "stateMutability": "nonpayable",
      "type": "function"
    },
    {
      "inputs": [
        {
          "internalType": "address",
          "name": "_to",
          "type": "address"
        },
        {
          "internalType": "uint256",
          "name": "_amount",
          "type": "uint256"
        }
      ],
      "name": "createShips",
      "outputs": [],
      "stateMutability": "nonpayable",
      "type": "function"
    },
    {
      "inputs": [
        {
          "internalType": "uint256",
          "name": "tokenId",
          "type": "uint256"
        }
      ],
      "name": "getApproved",
      "outputs": [
        {
          "internalType": "address",
          "name": "",
          "type": "address"
        }
      ],
      "stateMutability": "view",
      "type": "function"
    },
    {
      "inputs": [],
      "name": "getCurrentCostsVersion",
      "outputs": [
        {
          "internalType": "uint16",
          "name": "",
          "type": "uint16"
        }
      ],
      "stateMutability": "view",
      "type": "function"
    },
    {
      "inputs": [],
      "name": "getPurchaseInfo",
      "outputs": [
        {
          "internalType": "uint8[]",
          "name": "_purchaseTiers",
          "type": "uint8[]"
        },
        {
          "internalType": "uint8[]",
          "name": "_tierShips",
          "type": "uint8[]"
        },
        {
          "internalType": "uint256[]",
          "name": "_tierPrices",
          "type": "uint256[]"
        }
      ],
      "stateMutability": "view",
      "type": "function"
    },
    {
      "inputs": [
        {
          "internalType": "uint256",
          "name": "_id",
          "type": "uint256"
        }
      ],
      "name": "getShip",
      "outputs": [
        {
          "components": [
            {
              "internalType": "string",
              "name": "name",
              "type": "string"
            },
            {
              "internalType": "uint256",
              "name": "id",
              "type": "uint256"
            },
            {
              "components": [
                {
                  "internalType": "enum MainWeapon",
                  "name": "mainWeapon",
                  "type": "uint8"
                },
                {
                  "internalType": "enum Armor",
                  "name": "armor",
                  "type": "uint8"
                },
                {
                  "internalType": "enum Shields",
                  "name": "shields",
                  "type": "uint8"
                },
                {
                  "internalType": "enum Special",
                  "name": "special",
                  "type": "uint8"
                }
              ],
              "internalType": "struct Equipment",
              "name": "equipment",
              "type": "tuple"
            },
            {
              "components": [
                {
                  "internalType": "uint256",
                  "name": "serialNumber",
                  "type": "uint256"
                },
                {
                  "components": [
                    {
                      "internalType": "uint16",
                      "name": "h1",
                      "type": "uint16"
                    },
                    {
                      "internalType": "uint8",
                      "name": "s1",
                      "type": "uint8"
                    },
                    {
                      "internalType": "uint8",
                      "name": "l1",
                      "type": "uint8"
                    },
                    {
                      "internalType": "uint16",
                      "name": "h2",
                      "type": "uint16"
                    },
                    {
                      "internalType": "uint8",
                      "name": "s2",
                      "type": "uint8"
                    },
                    {
                      "internalType": "uint8",
                      "name": "l2",
                      "type": "uint8"
                    }
                  ],
                  "internalType": "struct Colors",
                  "name": "colors",
                  "type": "tuple"
                },
                {
                  "internalType": "uint8",
                  "name": "variant",
                  "type": "uint8"
                },
                {
                  "internalType": "uint8",
                  "name": "accuracy",
                  "type": "uint8"
                },
                {
                  "internalType": "uint8",
                  "name": "hull",
                  "type": "uint8"
                },
                {
                  "internalType": "uint8",
                  "name": "speed",
                  "type": "uint8"
                }
              ],
              "internalType": "struct Traits",
              "name": "traits",
              "type": "tuple"
            },
            {
              "components": [
                {
                  "internalType": "uint32",
                  "name": "shipsDestroyed",
                  "type": "uint32"
                },
                {
                  "internalType": "uint16",
                  "name": "costsVersion",
                  "type": "uint16"
                },
                {
                  "internalType": "uint16",
                  "name": "cost",
                  "type": "uint16"
                },
                {
                  "internalType": "bool",
                  "name": "shiny",
                  "type": "bool"
                },
                {
                  "internalType": "bool",
                  "name": "constructed",
                  "type": "bool"
                },
                {
                  "internalType": "bool",
                  "name": "inFleet",
                  "type": "bool"
                },
                {
                  "internalType": "uint256",
                  "name": "timestampDestroyed",
                  "type": "uint256"
                }
              ],
              "internalType": "struct ShipData",
              "name": "shipData",
              "type": "tuple"
            },
            {
              "internalType": "address",
              "name": "owner",
              "type": "address"
            }
          ],
          "internalType": "struct Ship",
          "name": "",
          "type": "tuple"
        }
      ],
      "stateMutability": "view",
      "type": "function"
    },
    {
      "inputs": [
        {
          "internalType": "address",
          "name": "_owner",
          "type": "address"
        }
      ],
      "name": "getShipIdsOwned",
      "outputs": [
        {
          "internalType": "uint256[]",
          "name": "",
          "type": "uint256[]"
        }
      ],
      "stateMutability": "view",
      "type": "function"
    },
    {
      "inputs": [
        {
          "internalType": "uint256[]",
          "name": "_ids",
          "type": "uint256[]"
        }
      ],
      "name": "getShipsByIds",
      "outputs": [
        {
          "components": [
            {
              "internalType": "string",
              "name": "name",
              "type": "string"
            },
            {
              "internalType": "uint256",
              "name": "id",
              "type": "uint256"
            },
            {
              "components": [
                {
                  "internalType": "enum MainWeapon",
                  "name": "mainWeapon",
                  "type": "uint8"
                },
                {
                  "internalType": "enum Armor",
                  "name": "armor",
                  "type": "uint8"
                },
                {
                  "internalType": "enum Shields",
                  "name": "shields",
                  "type": "uint8"
                },
                {
                  "internalType": "enum Special",
                  "name": "special",
                  "type": "uint8"
                }
              ],
              "internalType": "struct Equipment",
              "name": "equipment",
              "type": "tuple"
            },
            {
              "components": [
                {
                  "internalType": "uint256",
                  "name": "serialNumber",
                  "type": "uint256"
                },
                {
                  "components": [
                    {
                      "internalType": "uint16",
                      "name": "h1",
                      "type": "uint16"
                    },
                    {
                      "internalType": "uint8",
                      "name": "s1",
                      "type": "uint8"
                    },
                    {
                      "internalType": "uint8",
                      "name": "l1",
                      "type": "uint8"
                    },
                    {
                      "internalType": "uint16",
                      "name": "h2",
                      "type": "uint16"
                    },
                    {
                      "internalType": "uint8",
                      "name": "s2",
                      "type": "uint8"
                    },
                    {
                      "internalType": "uint8",
                      "name": "l2",
                      "type": "uint8"
                    }
                  ],
                  "internalType": "struct Colors",
                  "name": "colors",
                  "type": "tuple"
                },
                {
                  "internalType": "uint8",
                  "name": "variant",
                  "type": "uint8"
                },
                {
                  "internalType": "uint8",
                  "name": "accuracy",
                  "type": "uint8"
                },
                {
                  "internalType": "uint8",
                  "name": "hull",
                  "type": "uint8"
                },
                {
                  "internalType": "uint8",
                  "name": "speed",
                  "type": "uint8"
                }
              ],
              "internalType": "struct Traits",
              "name": "traits",
              "type": "tuple"
            },
            {
              "components": [
                {
                  "internalType": "uint32",
                  "name": "shipsDestroyed",
                  "type": "uint32"
                },
                {
                  "internalType": "uint16",
                  "name": "costsVersion",
                  "type": "uint16"
                },
                {
                  "internalType": "uint16",
                  "name": "cost",
                  "type": "uint16"
                },
                {
                  "internalType": "bool",
                  "name": "shiny",
                  "type": "bool"
                },
                {
                  "internalType": "bool",
                  "name": "constructed",
                  "type": "bool"
                },
                {
                  "internalType": "bool",
                  "name": "inFleet",
                  "type": "bool"
                },
                {
                  "internalType": "uint256",
                  "name": "timestampDestroyed",
                  "type": "uint256"
                }
              ],
              "internalType": "struct ShipData",
              "name": "shipData",
              "type": "tuple"
            },
            {
              "internalType": "address",
              "name": "owner",
              "type": "address"
            }
          ],
          "internalType": "struct Ship[]",
          "name": "",
          "type": "tuple[]"
        }
      ],
      "stateMutability": "view",
      "type": "function"
    },
    {
      "inputs": [
        {
          "internalType": "uint256",
          "name": "_trait",
          "type": "uint256"
        }
      ],
      "name": "getTierOfTrait",
      "outputs": [
        {
          "internalType": "uint8",
          "name": "",
          "type": "uint8"
        }
      ],
      "stateMutability": "pure",
      "type": "function"
    },
    {
      "inputs": [
        {
          "internalType": "address",
          "name": "",
          "type": "address"
        }
      ],
      "name": "hasClaimedFreeShips",
      "outputs": [
        {
          "internalType": "bool",
          "name": "",
          "type": "bool"
        }
      ],
      "stateMutability": "view",
      "type": "function"
    },
    {
      "inputs": [
        {
          "internalType": "address",
          "name": "",
          "type": "address"
        }
      ],
      "name": "isAllowedToCreateShips",
      "outputs": [
        {
          "internalType": "bool",
          "name": "",
          "type": "bool"
        }
      ],
      "stateMutability": "view",
      "type": "function"
    },
    {
      "inputs": [
        {
          "internalType": "address",
          "name": "owner",
          "type": "address"
        },
        {
          "internalType": "address",
          "name": "operator",
          "type": "address"
        }
      ],
      "name": "isApprovedForAll",
      "outputs": [
        {
          "internalType": "bool",
          "name": "",
          "type": "bool"
        }
      ],
      "stateMutability": "view",
      "type": "function"
    },
    {
      "inputs": [
        {
          "internalType": "uint256",
          "name": "_id",
          "type": "uint256"
        }
      ],
      "name": "isShipDestroyed",
      "outputs": [
        {
          "internalType": "bool",
          "name": "",
          "type": "bool"
        }
      ],
      "stateMutability": "view",
      "type": "function"
    },
    {
      "inputs": [
        {
          "internalType": "uint256",
          "name": "tokenId",
          "type": "uint256"
        }
      ],
      "name": "locked",
      "outputs": [
        {
          "internalType": "bool",
          "name": "",
          "type": "bool"
        }
      ],
      "stateMutability": "view",
      "type": "function"
    },
    {
      "inputs": [],
      "name": "name",
      "outputs": [
        {
          "internalType": "string",
          "name": "",
          "type": "string"
        }
      ],
      "stateMutability": "view",
      "type": "function"
    },
    {
      "inputs": [
        {
          "internalType": "address",
          "name": "",
          "type": "address"
        }
      ],
      "name": "onboardingStep",
      "outputs": [
        {
          "internalType": "uint256",
          "name": "",
          "type": "uint256"
        }
      ],
      "stateMutability": "view",
      "type": "function"
    },
    {
      "inputs": [],
      "name": "owner",
      "outputs": [
        {
          "internalType": "address",
          "name": "",
          "type": "address"
        }
      ],
      "stateMutability": "view",
      "type": "function"
    },
    {
      "inputs": [
        {
          "internalType": "uint256",
          "name": "tokenId",
          "type": "uint256"
        }
      ],
      "name": "ownerOf",
      "outputs": [
        {
          "internalType": "address",
          "name": "",
          "type": "address"
        }
      ],
      "stateMutability": "view",
      "type": "function"
    },
    {
      "inputs": [],
      "name": "paused",
      "outputs": [
        {
          "internalType": "bool",
          "name": "",
          "type": "bool"
        }
      ],
      "stateMutability": "view",
      "type": "function"
    },
    {
      "inputs": [
        {
          "internalType": "uint256",
          "name": "",
          "type": "uint256"
        }
      ],
      "name": "purchaseTiers",
      "outputs": [
        {
          "internalType": "uint8",
          "name": "",
          "type": "uint8"
        }
      ],
      "stateMutability": "view",
      "type": "function"
    },
    {
      "inputs": [
        {
          "internalType": "address",
          "name": "_to",
          "type": "address"
        },
        {
          "internalType": "uint256",
          "name": "_tier",
          "type": "uint256"
        },
        {
          "internalType": "address",
          "name": "_referral",
          "type": "address"
        }
      ],
      "name": "purchaseWithFlow",
      "outputs": [],
      "stateMutability": "payable",
      "type": "function"
    },
    {
      "inputs": [],
      "name": "recycleReward",
      "outputs": [
        {
          "internalType": "uint256",
          "name": "",
          "type": "uint256"
        }
      ],
      "stateMutability": "view",
      "type": "function"
    },
    {
      "inputs": [
        {
          "internalType": "address",
          "name": "",
          "type": "address"
        }
      ],
      "name": "referralCount",
      "outputs": [
        {
          "internalType": "uint256",
          "name": "",
          "type": "uint256"
        }
      ],
      "stateMutability": "view",
      "type": "function"
    },
    {
      "inputs": [
        {
          "internalType": "uint256",
          "name": "",
          "type": "uint256"
        }
      ],
      "name": "referralPercentages",
      "outputs": [
        {
          "internalType": "uint8",
          "name": "",
          "type": "uint8"
        }
      ],
      "stateMutability": "view",
      "type": "function"
    },
    {
      "inputs": [
        {
          "internalType": "uint256",
          "name": "",
          "type": "uint256"
        }
      ],
      "name": "referralStages",
      "outputs": [
        {
          "internalType": "uint32",
          "name": "",
          "type": "uint32"
        }
      ],
      "stateMutability": "view",
      "type": "function"
    },
    {
      "inputs": [],
      "name": "renounceOwnership",
      "outputs": [],
      "stateMutability": "nonpayable",
      "type": "function"
    },
    {
      "inputs": [
        {
          "internalType": "address",
          "name": "from",
          "type": "address"
        },
        {
          "internalType": "address",
          "name": "to",
          "type": "address"
        },
        {
          "internalType": "uint256",
          "name": "tokenId",
          "type": "uint256"
        }
      ],
      "name": "safeTransferFrom",
      "outputs": [],
      "stateMutability": "nonpayable",
      "type": "function"
    },
    {
      "inputs": [
        {
          "internalType": "address",
          "name": "from",
          "type": "address"
        },
        {
          "internalType": "address",
          "name": "to",
          "type": "address"
        },
        {
          "internalType": "uint256",
          "name": "tokenId",
          "type": "uint256"
        },
        {
          "internalType": "bytes",
          "name": "data",
          "type": "bytes"
        }
      ],
      "name": "safeTransferFrom",
      "outputs": [],
      "stateMutability": "nonpayable",
      "type": "function"
    },
    {
      "inputs": [
        {
          "internalType": "address",
          "name": "operator",
          "type": "address"
        },
        {
          "internalType": "bool",
          "name": "approved",
          "type": "bool"
        }
      ],
      "name": "setApprovalForAll",
      "outputs": [],
      "stateMutability": "nonpayable",
      "type": "function"
    },
    {
      "inputs": [
        {
          "internalType": "address",
          "name": "_gameAddress",
          "type": "address"
        },
        {
          "internalType": "address",
          "name": "_lobbyAddress",
          "type": "address"
        },
        {
          "internalType": "address",
          "name": "_fleetsAddress",
          "type": "address"
        },
        {
          "internalType": "address",
          "name": "_shipGenerator",
          "type": "address"
        },
        {
          "internalType": "address",
          "name": "_randomManager",
          "type": "address"
        },
        {
          "internalType": "address",
          "name": "_metadataRenderer",
          "type": "address"
        },
        {
          "internalType": "address",
          "name": "_shipAttributes",
          "type": "address"
        }
      ],
      "name": "setConfig",
      "outputs": [],
      "stateMutability": "nonpayable",
      "type": "function"
    },
    {
      "inputs": [
        {
          "internalType": "uint256",
          "name": "_id",
          "type": "uint256"
        }
      ],
      "name": "setCostOfShip",
      "outputs": [],
      "stateMutability": "nonpayable",
      "type": "function"
    },
    {
      "inputs": [
        {
          "internalType": "uint256",
          "name": "_id",
          "type": "uint256"
        },
        {
          "internalType": "bool",
          "name": "_inFleet",
          "type": "bool"
        }
      ],
      "name": "setInFleet",
      "outputs": [],
      "stateMutability": "nonpayable",
      "type": "function"
    },
    {
      "inputs": [
        {
          "internalType": "address",
          "name": "_address",
          "type": "address"
        },
        {
          "internalType": "bool",
          "name": "_isAllowed",
          "type": "bool"
        }
      ],
      "name": "setIsAllowedToCreateShips",
      "outputs": [],
      "stateMutability": "nonpayable",
      "type": "function"
    },
    {
      "inputs": [
        {
          "internalType": "uint8",
          "name": "_numberOfVariants",
          "type": "uint8"
        }
      ],
      "name": "setNumberOfVariants",
      "outputs": [],
      "stateMutability": "nonpayable",
      "type": "function"
    },
    {
      "inputs": [
        {
          "internalType": "bool",
          "name": "_paused",
          "type": "bool"
        }
      ],
      "name": "setPaused",
      "outputs": [],
      "stateMutability": "nonpayable",
      "type": "function"
    },
    {
      "inputs": [
        {
          "internalType": "uint8[]",
          "name": "_purchaseTiers",
          "type": "uint8[]"
        },
        {
          "internalType": "uint8[]",
          "name": "_tierShips",
          "type": "uint8[]"
        },
        {
          "internalType": "uint256[]",
          "name": "_tierPrices",
          "type": "uint256[]"
        }
      ],
      "name": "setPurchaseInfo",
      "outputs": [],
      "stateMutability": "nonpayable",
      "type": "function"
    },
    {
      "inputs": [
        {
          "internalType": "uint256",
          "name": "_newReward",
          "type": "uint256"
        }
      ],
      "name": "setRecycleReward",
      "outputs": [],
      "stateMutability": "nonpayable",
      "type": "function"
    },
    {
      "inputs": [
        {
          "internalType": "uint256",
          "name": "_id",
          "type": "uint256"
        },
        {
          "internalType": "uint256",
          "name": "_destroyerId",
          "type": "uint256"
        }
      ],
      "name": "setTimestampDestroyed",
      "outputs": [],
      "stateMutability": "nonpayable",
      "type": "function"
    },
    {
      "inputs": [
        {
          "internalType": "address",
          "name": "_universalCredits",
          "type": "address"
        }
      ],
      "name": "setUniversalCredits",
      "outputs": [],
      "stateMutability": "nonpayable",
      "type": "function"
    },
    {
      "inputs": [
        {
          "internalType": "uint256[]",
          "name": "_shipIds",
          "type": "uint256[]"
        }
      ],
      "name": "shipBreaker",
      "outputs": [],
      "stateMutability": "nonpayable",
      "type": "function"
    },
    {
      "inputs": [],
      "name": "shipCount",
      "outputs": [
        {
          "internalType": "uint256",
          "name": "",
          "type": "uint256"
        }
      ],
      "stateMutability": "view",
      "type": "function"
    },
    {
      "inputs": [
        {
          "internalType": "uint256",
          "name": "",
          "type": "uint256"
        }
      ],
      "name": "ships",
      "outputs": [
        {
          "internalType": "string",
          "name": "name",
          "type": "string"
        },
        {
          "internalType": "uint256",
          "name": "id",
          "type": "uint256"
        },
        {
          "components": [
            {
              "internalType": "enum MainWeapon",
              "name": "mainWeapon",
              "type": "uint8"
            },
            {
              "internalType": "enum Armor",
              "name": "armor",
              "type": "uint8"
            },
            {
              "internalType": "enum Shields",
              "name": "shields",
              "type": "uint8"
            },
            {
              "internalType": "enum Special",
              "name": "special",
              "type": "uint8"
            }
          ],
          "internalType": "struct Equipment",
          "name": "equipment",
          "type": "tuple"
        },
        {
          "components": [
            {
              "internalType": "uint256",
              "name": "serialNumber",
              "type": "uint256"
            },
            {
              "components": [
                {
                  "internalType": "uint16",
                  "name": "h1",
                  "type": "uint16"
                },
                {
                  "internalType": "uint8",
                  "name": "s1",
                  "type": "uint8"
                },
                {
                  "internalType": "uint8",
                  "name": "l1",
                  "type": "uint8"
                },
                {
                  "internalType": "uint16",
                  "name": "h2",
                  "type": "uint16"
                },
                {
                  "internalType": "uint8",
                  "name": "s2",
                  "type": "uint8"
                },
                {
                  "internalType": "uint8",
                  "name": "l2",
                  "type": "uint8"
                }
              ],
              "internalType": "struct Colors",
              "name": "colors",
              "type": "tuple"
            },
            {
              "internalType": "uint8",
              "name": "variant",
              "type": "uint8"
            },
            {
              "internalType": "uint8",
              "name": "accuracy",
              "type": "uint8"
            },
            {
              "internalType": "uint8",
              "name": "hull",
              "type": "uint8"
            },
            {
              "internalType": "uint8",
              "name": "speed",
              "type": "uint8"
            }
          ],
          "internalType": "struct Traits",
          "name": "traits",
          "type": "tuple"
        },
        {
          "components": [
            {
              "internalType": "uint32",
              "name": "shipsDestroyed",
              "type": "uint32"
            },
            {
              "internalType": "uint16",
              "name": "costsVersion",
              "type": "uint16"
            },
            {
              "internalType": "uint16",
              "name": "cost",
              "type": "uint16"
            },
            {
              "internalType": "bool",
              "name": "shiny",
              "type": "bool"
            },
            {
              "internalType": "bool",
              "name": "constructed",
              "type": "bool"
            },
            {
              "internalType": "bool",
              "name": "inFleet",
              "type": "bool"
            },
            {
              "internalType": "uint256",
              "name": "timestampDestroyed",
              "type": "uint256"
            }
          ],
          "internalType": "struct ShipData",
          "name": "shipData",
          "type": "tuple"
        },
        {
          "internalType": "address",
          "name": "owner",
          "type": "address"
        }
      ],
      "stateMutability": "view",
      "type": "function"
    },
    {
      "inputs": [
        {
          "internalType": "bytes4",
          "name": "interfaceId",
          "type": "bytes4"
        }
      ],
      "name": "supportsInterface",
      "outputs": [
        {
          "internalType": "bool",
          "name": "",
          "type": "bool"
        }
      ],
      "stateMutability": "view",
      "type": "function"
    },
    {
      "inputs": [],
      "name": "symbol",
      "outputs": [
        {
          "internalType": "string",
          "name": "",
          "type": "string"
        }
      ],
      "stateMutability": "view",
      "type": "function"
    },
    {
      "inputs": [
        {
          "internalType": "uint256",
          "name": "",
          "type": "uint256"
        }
      ],
      "name": "tierPrices",
      "outputs": [
        {
          "internalType": "uint256",
          "name": "",
          "type": "uint256"
        }
      ],
      "stateMutability": "view",
      "type": "function"
    },
    {
      "inputs": [
        {
          "internalType": "uint256",
          "name": "",
          "type": "uint256"
        }
      ],
      "name": "tierShips",
      "outputs": [
        {
          "internalType": "uint8",
          "name": "",
          "type": "uint8"
        }
      ],
      "stateMutability": "view",
      "type": "function"
    },
    {
      "inputs": [
        {
          "internalType": "uint256",
          "name": "_id",
          "type": "uint256"
        }
      ],
      "name": "tokenURI",
      "outputs": [
        {
          "internalType": "string",
          "name": "",
          "type": "string"
        }
      ],
      "stateMutability": "view",
      "type": "function"
    },
    {
      "inputs": [
        {
          "internalType": "address",
          "name": "from",
          "type": "address"
        },
        {
          "internalType": "address",
          "name": "to",
          "type": "address"
        },
        {
          "internalType": "uint256",
          "name": "tokenId",
          "type": "uint256"
        }
      ],
      "name": "transferFrom",
      "outputs": [],
      "stateMutability": "nonpayable",
      "type": "function"
    },
    {
      "inputs": [
        {
          "internalType": "address",
          "name": "newOwner",
          "type": "address"
        }
      ],
      "name": "transferOwnership",
      "outputs": [],
      "stateMutability": "nonpayable",
      "type": "function"
    },
    {
      "inputs": [],
      "name": "universalCredits",
      "outputs": [
        {
          "internalType": "contract IUniversalCredits",
          "name": "",
          "type": "address"
        }
      ],
      "stateMutability": "view",
      "type": "function"
    },
    {
      "inputs": [],
      "name": "withdraw",
      "outputs": [],
      "stateMutability": "nonpayable",
      "type": "function"
    }
  ],
  "bytecode": "0x61012060405260006080908152600a60a052601460c052602360e05260326101005261002f90600f9060056102a0565b506040805160a081018252606481526103e860208201526127109181019190915261c3506060820152620186a0608082015261006f906010906005610346565b50601b805462ffff00191661010017905567016345785d8a0000601e5534801561009857600080fd5b50604051615b1b380380615b1b8339810160408190526100b79161043d565b336040518060400160405280600e81526020016d57617270666c6f7720536869707360901b815250604051806040016040528060048152602001630534849560e41b815250816000908161010b919061050c565b506001610118828261050c565b5050506001600160a01b03811661014957604051631e4fbdf760e01b81526000600482015260240160405180910390fd5b6101528161024e565b5060016007819055601480546001600160a01b0319166001600160a01b0384161790556040805160a08101825291825260026020830152600390820152600460608201526005608082018190526101ab916018916102a0565b506040805160a0810182526005808252600b6020830152601c92820192909252603c6060820152607d60808201526101e691601991906102a0565b506040805160a0810182526745400a8fd53300008152678aa39c121a270000602082015268015ace5098e9030000918101919091526802b5c0282441c70000606082015268056ba3d73af34f0000608082015261024790601a9060056103e2565b50506105ca565b600680546001600160a01b038381166001600160a01b0319831681179093556040519116919082907f8be0079c531659141344cd1fd0a4f28419497f9722a3daafe3b4186f6b6457e090600090a35050565b82805482825590600052602060002090601f016020900481019282156103365791602002820160005b8382111561030757835183826101000a81548160ff021916908360ff16021790555092602001926001016020816000010492830192600103026102c9565b80156103345782816101000a81549060ff0219169055600101602081600001049283019260010302610307565b505b50610342929150610428565b5090565b828054828255906000526020600020906007016008900481019282156103365791602002820160005b838211156103b257835183826101000a81548163ffffffff021916908362ffffff160217905550926020019260040160208160030104928301926001030261036f565b80156103345782816101000a81549063ffffffff02191690556004016020816003010492830192600103026103b2565b828054828255906000526020600020908101928215610336579160200282015b8281111561033657825182906001600160481b0316905591602001919060010190610402565b5b808211156103425760008155600101610429565b60006020828403121561044f57600080fd5b81516001600160a01b038116811461046657600080fd5b9392505050565b634e487b7160e01b600052604160045260246000fd5b600181811c9082168061049757607f821691505b6020821081036104b757634e487b7160e01b600052602260045260246000fd5b50919050565b601f82111561050757806000526020600020601f840160051c810160208510156104e45750805b601f840160051c820191505b8181101561050457600081556001016104f0565b50505b505050565b81516001600160401b038111156105255761052561046d565b610539816105338454610483565b846104bd565b6020601f82116001811461056d57600083156105555750848201515b600019600385901b1c1916600184901b178455610504565b600084815260208120601f198516915b8281101561059d578785015182556020948501946001909201910161057d565b50848210156105bb5786840151600019600387901b60f8161c191681555b50505050600190811b01905550565b615542806105d96000396000f3fe60806040526004361061038c5760003560e01c8063715018a6116101dc578063a979e58011610102578063d08acd93116100a0578063e985e9c51161006f578063e985e9c514610b76578063f25a034214610b96578063f2fde38b14610bc3578063f9fd0db814610be357600080fd5b8063d08acd9314610af3578063db74559b14610b09578063dd81d5bf14610b36578063e653ca7f14610b5657600080fd5b8063b662abf5116100dc578063b662abf514610a5e578063b88d4fde14610a7e578063c87b56dd14610a9e578063cfca9a7f14610abe57600080fd5b8063a979e58014610a08578063b45a3c0e14610a28578063b4e847a014610a4857600080fd5b80638da5cb5b1161017a578063977216c211610149578063977216c21461098357806398de4550146109a35780639b29a07b146109d3578063a22cb465146109e857600080fd5b80638da5cb5b146108fe5780638f270c2d1461091c578063959601011461093c57806395d89b411461096e57600080fd5b80637d9e9d30116101b65780637d9e9d30146108895780637eebe99d146108a95780638163997c146108c95780638c79d7e3146108de57600080fd5b8063715018a6146107b657806375bfe420146107cb57806379502c55146107fb57600080fd5b80633ccfd60b116102c15780634d4e8dfa1161025f578063612124311161022e57806361212431146107365780636352211e146107565780636e0f7a481461077657806370a082311461079657600080fd5b80634d4e8dfa1461069057806356a3ee77146106c257806359e651e0146106ef5780635c975abb1461071c57600080fd5b806342842e0e1161029b57806342842e0e1461060c5780634346b1501461062c578063446c00f71461064c57806348cfc19e1461066c57600080fd5b80633ccfd60b146105985780633f0bc9a5146105ad5780634025b22d146105df57600080fd5b806311aaa5c91161032e5780631722594111610308578063172259411461051057806323b872dd14610530578063300eccab146105505780633130f7ce1461057057600080fd5b806311aaa5c9146104bd57806311bf541f146104d057806316c38b3c146104f057600080fd5b8063074ba79d1161036a578063074ba79d1461040a578063081812fc14610445578063095ea7b31461047d57806311a960cd1461049d57600080fd5b806301ffc9a714610391578063053f5bbf146103c657806306fdde03146103e8575b600080fd5b34801561039d57600080fd5b506103b16103ac366004613ec2565b610c03565b60405190151581526020015b60405180910390f35b3480156103d257600080fd5b506103e66103e13660046140a2565b610c55565b005b3480156103f457600080fd5b506103fd610ccf565b6040516103bd9190614183565b34801561041657600080fd5b506104376104253660046141b6565b600c6020526000908152604090205481565b6040519081526020016103bd565b34801561045157600080fd5b506104656104603660046141d3565b610d61565b6040516001600160a01b0390911681526020016103bd565b34801561048957600080fd5b506103e66104983660046141ec565b610d8a565b3480156104a957600080fd5b506103e66104b8366004614218565b610d99565b6103e66104cb36600461423a565b610f73565b3480156104dc57600080fd5b506103e66104eb36600461427c565b61109c565b3480156104fc57600080fd5b506103e661050b3660046142b2565b6110c0565b34801561051c57600080fd5b50601d54610465906001600160a01b031681565b34801561053c57600080fd5b506103e661054b3660046142cf565b6110db565b34801561055c57600080fd5b5061043761056b3660046141d3565b611160565b34801561057c57600080fd5b50610585611181565b60405161ffff90911681526020016103bd565b3480156105a457600080fd5b506103e66111f4565b3480156105b957600080fd5b506105cd6105c83660046141d3565b6112a7565b60405160ff90911681526020016103bd565b3480156105eb57600080fd5b506105ff6105fa3660046141d3565b6112db565b6040516103bd9190614503565b34801561061857600080fd5b506103e66106273660046142cf565b6115ba565b34801561063857600080fd5b506103e6610647366004614516565b6115d5565b34801561065857600080fd5b506103e66106673660046141d3565b611734565b34801561067857600080fd5b50610681611783565b6040516103bd939291906145fc565b34801561069c57600080fd5b506106b06106ab3660046141d3565b6118cb565b6040516103bd9695949392919061463f565b3480156106ce57600080fd5b506104376106dd3660046141b6565b600d6020526000908152604090205481565b3480156106fb57600080fd5b5061070f61070a3660046141b6565b611b80565b6040516103bd91906146a1565b34801561072857600080fd5b50601b546103b19060ff1681565b34801561074257600080fd5b506105cd6107513660046141d3565b611ba4565b34801561076257600080fd5b506104656107713660046141d3565b611bb4565b34801561078257600080fd5b506105cd6107913660046141d3565b611bbf565b3480156107a257600080fd5b506104376107b13660046141b6565b611bf0565b3480156107c257600080fd5b506103e6611c38565b3480156107d757600080fd5b506103b16107e63660046141b6565b601c6020526000908152604090205460ff1681565b34801561080757600080fd5b50601154601254601354601454601554601654601754610840966001600160a01b03908116968116958116948116938116928116911687565b604080516001600160a01b039889168152968816602088015294871694860194909452918516606085015284166080840152831660a083015290911660c082015260e0016103bd565b34801561089557600080fd5b506103e66108a43660046146b4565b611c4c565b3480156108b557600080fd5b506103e66108c43660046146e8565b611c82565b3480156108d557600080fd5b506103e6611d66565b3480156108ea57600080fd5b506103e66108f9366004614718565b611ded565b34801561090a57600080fd5b506006546001600160a01b0316610465565b34801561092857600080fd5b506103e66109373660046141b6565b611e20565b34801561094857600080fd5b506103b16109573660046141d3565b600090815260086020526040902060070154151590565b34801561097a57600080fd5b506103fd611e4a565b34801561098f57600080fd5b506103e661099e3660046141d3565b611e59565b3480156109af57600080fd5b506103b16109be3660046141b6565b600b6020526000908152604090205460ff1681565b3480156109df57600080fd5b506103e6611e66565b3480156109f457600080fd5b506103e6610a03366004614718565b611f00565b348015610a1457600080fd5b506103e6610a23366004614746565b611f0b565b348015610a3457600080fd5b506103b1610a433660046141d3565b612049565b348015610a5457600080fd5b5061043760095481565b348015610a6a57600080fd5b506105cd610a793660046141d3565b61207e565b348015610a8a57600080fd5b506103e6610a9936600461483c565b61208e565b348015610aaa57600080fd5b506103fd610ab93660046141d3565b6120a6565b348015610aca57600080fd5b50610ade610ad93660046141d3565b61212a565b60405163ffffffff90911681526020016103bd565b348015610aff57600080fd5b50610437601e5481565b348015610b1557600080fd5b50610437610b243660046141b6565b600e6020526000908152604090205481565b348015610b4257600080fd5b506103e6610b513660046141d3565b612164565b348015610b6257600080fd5b506103e6610b713660046141ec565b612649565b348015610b8257600080fd5b506103b1610b913660046148bb565b6126c9565b348015610ba257600080fd5b50610bb6610bb13660046146b4565b6126f7565b6040516103bd91906148e9565b348015610bcf57600080fd5b506103e6610bde3660046141b6565b612a7a565b348015610bef57600080fd5b506103e6610bfe366004614b79565b612ab5565b60006001600160e01b031982166380ac58cd60e01b1480610c3457506001600160e01b03198216635b5e139f60e01b145b80610c4f57506301ffc9a760e01b6001600160e01b03198316145b92915050565b610c5d612efd565b81518351141580610c7057508051825114155b15610c8e5760405163512509d360e11b815260040160405180910390fd5b8251610ca1906018906020860190613cbf565b508151610cb5906019906020850190613cbf565b508051610cc990601a906020840190613d65565b50505050565b606060008054610cde90614c5c565b80601f0160208091040260200160405190810160405280929190818152602001828054610d0a90614c5c565b8015610d575780601f10610d2c57610100808354040283529160200191610d57565b820191906000526020600020905b815481529060010190602001808311610d3a57829003601f168201915b5050505050905090565b6000610d6c82612f2a565b506000828152600460205260409020546001600160a01b0316610c4f565b610d95828233612f63565b5050565b6006546001600160a01b03163314801590610dbf57506011546001600160a01b03163314155b15610de457604051634a0bfec160e01b81523360048201526024015b60405180910390fd5b60008281526008602052604090206007015415610e175760405163163fe02b60e11b815260048101839052602401610ddb565b6000828152600860205260409081902042600790910155516000805160206154ed83398151915290610e4c9084815260200190565b60405180910390a16000818152600860205260408120600601805463ffffffff1691610e7783614cac565b825463ffffffff9182166101009390930a928302919092021990911617905550600081815260086020819052604090912001546001600160a01b03168015610f3b5760006004601e54610eca9190614cd1565b90508015610f3957601d546040516340c10f1960e01b81526001600160a01b03848116600483015260248201849052909116906340c10f1990604401600060405180830381600087803b158015610f2057600080fd5b505af1158015610f34573d6000803e3d6000fd5b505050505b505b6040518381527ff8e1a15aba9398e019f0b49df1a4fde98ee17ae345cb5f6b5e2c27f5033e8ce79060200160405180910390a1505050565b610f7b612f70565b601a8281548110610f8e57610f8e614cf3565b90600052602060002001543414610fc1576040516312a1605d60e31b815260048101839052346024820152604401610ddb565b6001600160a01b038116610fe85760405163119833d760e11b815260040160405180910390fd5b600060198381548110610ffd57610ffd614cf3565b60009182526020808320908204015460ff601f9092166101000a90041691505b818110156110365761102e85612f9a565b60010161101d565b5061105f8282601a868154811061104f5761104f614cf3565b90600052602060002001546130be565b6001600160a01b0384166000908152600c602052604081208054839290611087908490614d09565b9091555050600160075550505050565b505050565b6110a4612efd565b601b805462ffff00191660ff9290921661010002919091179055565b6110c8612efd565b601b805460ff1916911515919091179055565b6001600160a01b03821661110557604051633250574960e11b815260006004820152602401610ddb565b6000611112838333613272565b9050836001600160a01b0316816001600160a01b031614610cc9576040516364283d7b60e01b81526001600160a01b0380861660048301526024820184905282166044820152606401610ddb565b601a818154811061117057600080fd5b600091825260209091200154905081565b601754604080516318987be760e11b815290516000926001600160a01b031691633130f7ce9160048083019260209291908290030181865afa1580156111cb573d6000803e3d6000fd5b505050506040513d601f19601f820116820180604052508101906111ef9190614d1c565b905090565b6111fc612efd565b60006112106006546001600160a01b031690565b6001600160a01b03164760405160006040518083038185875af1925050503d806000811461125a576040519150601f19603f3d011682016040523d82523d6000602084013e61125f565b606091505b50509050806112a45760405162461bcd60e51b815260206004820152601160248201527015da5d1a191c985dd85b0819985a5b1959607a1b6044820152606401610ddb565b50565b601881815481106112b757600080fd5b9060005260206000209060209182820401919006915054906101000a900460ff1681565b6112e3613da0565b60008281526008602052604090819020815160c0810190925280548290829061130b90614c5c565b80601f016020809104026020016040519081016040528092919081815260200182805461133790614c5c565b80156113845780601f1061135957610100808354040283529160200191611384565b820191906000526020600020905b81548152906001019060200180831161136757829003601f168201915b5050509183525050600182015460208201526040805160808101825260028401805492909301929091829060ff1660038111156113c3576113c3614310565b60038111156113d4576113d4614310565b81528154602090910190610100900460ff1660038111156113f7576113f7614310565b600381111561140857611408614310565b8152815460209091019062010000900460ff16600381111561142c5761142c614310565b600381111561143d5761143d614310565b815281546020909101906301000000900460ff16600381111561146257611462614310565b600381111561147357611473614310565b90525081526040805160c080820183526003850154825282518082018452600486015461ffff808216835260ff62010000808404821660208681019190915263010000008086048416878b015264010000000080870486166060808a0191909152600160301b80890487166080808c0191909152600160381b909904871660a0808c01919091528c86019a909a5260058f01548088168d8f015261010081048816838e01529586048716898d0152929094048516888b0152828c0199909952895160e081018b5260068d015463ffffffff81168252998a04861692810192909252880490931683890152600160401b87048216151583820152600160481b87048216151593830193909352600160501b909504909416151591840191909152600786015491830191909152918301526008909201546001600160a01b031691015292915050565b6110978383836040518060200160405280600081525061208e565b6115dd612f70565b6000805b828110156116bd5760008484838181106115fd576115fd614cf3565b60209081029290920135600081815260089384905260409020928301549093506001600160a01b0316331490506116495760405162dd34af60e41b815260048101839052602401610ddb565b6007810154151560008161165f57601e5461166e565b6002601e5461166e9190614cd1565b4260078501556040518581529091506000805160206154ed8339815191529060200160405180910390a16116a184613496565b6116ab8187614d09565b955050600190930192506115e1915050565b50801561172957601d546040516340c10f1960e01b8152336004820152602481018390526001600160a01b03909116906340c10f1990604401600060405180830381600087803b15801561171057600080fd5b505af1158015611724573d6000803e3d6000fd5b505050505b50610d956001600755565b6006546001600160a01b0316331480159061175a57506011546001600160a01b03163314155b1561177a57604051634a0bfec160e01b8152336004820152602401610ddb565b6112a4816134d1565b606080606060186019601a828054806020026020016040519081016040528092919081815260200182805480156117f757602002820191906000526020600020906000905b825461010083900a900460ff168152602060019283018181049485019490930390920291018084116117c85790505b505050505092508180548060200260200160405190810160405280929190818152602001828054801561186757602002820191906000526020600020906000905b825461010083900a900460ff168152602060019283018181049485019490930390920291018084116118385790505b50505050509150808054806020026020016040519081016040528092919081815260200182805480156118b957602002820191906000526020600020905b8154815260200190600101908083116118a5575b50505050509050925092509250909192565b6008602052600090815260409020805481906118e690614c5c565b80601f016020809104026020016040519081016040528092919081815260200182805461191290614c5c565b801561195f5780601f106119345761010080835404028352916020019161195f565b820191906000526020600020905b81548152906001019060200180831161194257829003601f168201915b505050505090806001015490806002016040518060800160405290816000820160009054906101000a900460ff16600381111561199e5761199e614310565b60038111156119af576119af614310565b81528154602090910190610100900460ff1660038111156119d2576119d2614310565b60038111156119e3576119e3614310565b8152815460209091019062010000900460ff166003811115611a0757611a07614310565b6003811115611a1857611a18614310565b815281546020909101906301000000900460ff166003811115611a3d57611a3d614310565b6003811115611a4e57611a4e614310565b9052506040805160c080820183526003850154825282518082018452600486015461ffff808216835260ff62010000808404821660208681019190915263010000008086048416878b015264010000000080870486166060808a0191909152600160301b80890487166080808c0191909152600160381b909904871660a0808c0191909152858d019a909a5260058f01548088168d8f015261010081048816838e01529586048716898d0152929094048516888b01528a5160e081018c5260068e015463ffffffff8116825291820487169381019390935290810490941698810198909852600160401b83048216151590880152600160481b82048116151592870192909252600160501b9004161515908401526007850154908301526008909301549192916001600160a01b031686565b6001600160a01b0381166000908152600a60205260409020606090610c4f9061357b565b601981815481106112b757600080fd5b6000610c4f82612f2a565b60006032821015611bd257506000919050565b6050821015611be357506001919050565b506002919050565b919050565b60006001600160a01b038216611c1c576040516322718ad960e21b815260006004820152602401610ddb565b506001600160a01b031660009081526003602052604090205490565b611c40612efd565b611c4a600061358f565b565b60005b8151811015610d9557611c7a828281518110611c6d57611c6d614cf3565b6020026020010151612164565b600101611c4f565b6012546001600160a01b03163314801590611ca857506011546001600160a01b03163314155b8015611cbf57506013546001600160a01b03163314155b15611cdf57604051634a0bfec160e01b8152336004820152602401610ddb565b6000828152600860205260409020600601805482158015600160501b0260ff60501b1990921691909117909155611d36576040518281526000805160206154ed833981519152906020015b60405180910390a15050565b6040518281527ff27b6ce5b2f5e68ddb2fd95a8a909d4ecf1daaac270935fff052feacb24f184290602001611d2a565b336000908152600a60205260408120611d7e9061357b565b905060005b8151811015610d955760086000838381518110611da257611da2614cf3565b6020026020010151815260200190815260200160002060060160000160099054906101000a900460ff16611de557611de5828281518110611c6d57611c6d614cf3565b600101611d83565b611df5612efd565b6001600160a01b03919091166000908152601c60205260409020805460ff1916911515919091179055565b611e28612efd565b601d80546001600160a01b0319166001600160a01b0392909216919091179055565b606060018054610cde90614c5c565b611e61612efd565b601e55565b336000908152600b602052604090205460ff1615611ec65760405162461bcd60e51b815260206004820152601a60248201527f416c726561647920636c61696d656420667265652073686970730000000000006044820152606401610ddb565b60005b600a811015611ee357611edb33612f9a565b600101611ec9565b50336000908152600b60205260409020805460ff19166001179055565b610d953383836135e1565b611f13612efd565b6001600160a01b03871615611f3e57601180546001600160a01b0319166001600160a01b0389161790555b6001600160a01b03861615611f6957601280546001600160a01b0319166001600160a01b0388161790555b6001600160a01b03851615611f9457601380546001600160a01b0319166001600160a01b0387161790555b6001600160a01b03841615611fbf57601680546001600160a01b0319166001600160a01b0386161790555b6001600160a01b03831615611fea57601580546001600160a01b0319166001600160a01b0385161790555b6001600160a01b0382161561201557601480546001600160a01b0319166001600160a01b0384161790555b6001600160a01b0381161561204057601780546001600160a01b0319166001600160a01b0383161790555b50505050505050565b600081815260086020526040812060078101541561206a5750600192915050565b60060154600160501b900460ff1692915050565b600f81815481106112b757600080fd5b6120998484846110db565b610cc93385858585613680565b601454600082815260086020526040908190209051635512ecf560e01b81526060926001600160a01b031691635512ecf5916120e59190600401614f71565b600060405180830381865afa158015612102573d6000803e3d6000fd5b505050506040513d6000823e601f3d908101601f19168201604052610c4f9190810190614fc9565b6010818154811061213a57600080fd5b9060005260206000209060089182820401919006600402915054906101000a900463ffffffff1681565b6040518181527ff8e1a15aba9398e019f0b49df1a4fde98ee17ae345cb5f6b5e2c27f5033e8ce79060200160405180910390a16000818152600860208190526040909120908101546001600160a01b031633146121d65760405162dd34af60e41b815260048101839052602401610ddb565b6006810154600160481b900460ff161561220657604051635331ce1f60e11b815260048101839052602401610ddb565b6015546003820154604051632f09b60960e21b815260048101919091526000916001600160a01b03169063bc26d824906024016020604051808303816000875af1158015612258573d6000803e3d6000fd5b505050506040513d601f19601f8201168201806040525081019061227c9190614ffd565b6016546003840154601b54604051637017ac9560e11b81526004810188905260248101929092526001600160401b0384166044830152610100900461ffff1660648201529192506000916001600160a01b039091169063e02f592a90608401600060405180830381865afa1580156122f8573d6000803e3d6000fd5b505050506040513d6000823e601f3d908101601f1916820160405261232091908101906151d0565b805190915083906123319082615336565b508060600151836003016000820151816000015560208201518160010160008201518160000160006101000a81548161ffff021916908361ffff16021790555060208201518160000160026101000a81548160ff021916908360ff16021790555060408201518160000160036101000a81548160ff021916908360ff16021790555060608201518160000160046101000a81548161ffff021916908361ffff16021790555060808201518160000160066101000a81548160ff021916908360ff16021790555060a08201518160000160076101000a81548160ff021916908360ff160217905550505060408201518160020160006101000a81548160ff021916908360ff16021790555060608201518160020160016101000a81548160ff021916908360ff16021790555060808201518160020160026101000a81548160ff021916908360ff16021790555060a08201518160020160036101000a81548160ff021916908360ff16021790555090505080604001518360020160008201518160000160006101000a81548160ff021916908360038111156124d4576124d4614310565b021790555060208201518154829061ff0019166101008360038111156124fc576124fc614310565b021790555060408201518154829062ff000019166201000083600381111561252657612526614310565b021790555060608201518154829063ff0000001916630100000083600381111561255257612552614310565b0217905550505060808101516060810151600685018054925163ffffffff1663ffffffff19921515600160401b029290921668ff00000000ffffffff1990931692909217179055601754604080516318987be760e11b815290516001600160a01b0390921691633130f7ce916004808201926020929091908290030181865afa1580156125e3573d6000803e3d6000fd5b505050506040513d601f19601f820116820180604052508101906126079190614d1c565b60068401805460ff60481b1961ffff93909316640100000000029290921669ff000000ffff000000001990921691909117600160481b179055610cc9846134d1565b336000908152601c602052604090205460ff1661267b57604051634a0bfec160e01b8152336004820152602401610ddb565b60005b818110156126975761268f83612f9a565b60010161267e565b506001600160a01b0382166000908152600c6020526040812080548392906126c0908490614d09565b90915550505050565b6001600160a01b03918216600090815260056020908152604080832093909416825291909152205460ff1690565b6060600082516001600160401b0381111561271457612714613edf565b60405190808252806020026020018201604052801561274d57816020015b61273a613da0565b8152602001906001900390816127325790505b50905060005b8351811015612a73576008600085838151811061277257612772614cf3565b602002602001015181526020019081526020016000206040518060c00160405290816000820180546127a390614c5c565b80601f01602080910402602001604051908101604052809291908181526020018280546127cf90614c5c565b801561281c5780601f106127f15761010080835404028352916020019161281c565b820191906000526020600020905b8154815290600101906020018083116127ff57829003601f168201915b5050509183525050600182015460208201526040805160808101825260028401805492909301929091829060ff16600381111561285b5761285b614310565b600381111561286c5761286c614310565b81528154602090910190610100900460ff16600381111561288f5761288f614310565b60038111156128a0576128a0614310565b8152815460209091019062010000900460ff1660038111156128c4576128c4614310565b60038111156128d5576128d5614310565b815281546020909101906301000000900460ff1660038111156128fa576128fa614310565b600381111561290b5761290b614310565b90525081526040805160c080820183526003850154825282518082018452600486015461ffff808216835260ff62010000808404821660208681019190915263010000008086048416878b015264010000000080870486166060808a0191909152600160301b80890487166080808c0191909152600160381b909904871660a0808c01919091528c86019a909a5260058f01548088168d8f015261010081048816838e01529586048716898d0152929094048516888b0152828c0199909952895160e081018b5260068d015463ffffffff81168252998a04861692810192909252880490931683890152600160401b87048216151583820152600160481b87048216151593830193909352600160501b909504909416151591840191909152600786015491830191909152918301526008909201546001600160a01b03169101528251839083908110612a6057612a60614cf3565b6020908102919091010152600101612753565b5092915050565b612a82612efd565b6001600160a01b038116612aac57604051631e4fbdf760e01b815260006004820152602401610ddb565b6112a48161358f565b6040518281527ff8e1a15aba9398e019f0b49df1a4fde98ee17ae345cb5f6b5e2c27f5033e8ce79060200160405180910390a16000828152600860209081526040808320338452601c9092529091205460ff16612b2757604051634a0bfec160e01b8152336004820152602401610ddb565b6006810154600160481b900460ff1615612b5757604051635331ce1f60e11b815260048101849052602401610ddb565b601654600382015460405163df1c0f1d60e01b81526000926001600160a01b03169163df1c0f1d91612b8f91889188906004016153f4565b600060405180830381865afa158015612bac573d6000803e3d6000fd5b505050506040513d6000823e601f3d908101601f19168201604052612bd491908101906151d0565b80519091508290612be59082615336565b508060600151826003016000820151816000015560208201518160010160008201518160000160006101000a81548161ffff021916908361ffff16021790555060208201518160000160026101000a81548160ff021916908360ff16021790555060408201518160000160036101000a81548160ff021916908360ff16021790555060608201518160000160046101000a81548161ffff021916908361ffff16021790555060808201518160000160066101000a81548160ff021916908360ff16021790555060a08201518160000160076101000a81548160ff021916908360ff160217905550505060408201518160020160006101000a81548160ff021916908360ff16021790555060608201518160020160016101000a81548160ff021916908360ff16021790555060808201518160020160026101000a81548160ff021916908360ff16021790555060a08201518160020160036101000a81548160ff021916908360ff16021790555090505080604001518260020160008201518160000160006101000a81548160ff02191690836003811115612d8857612d88614310565b021790555060208201518154829061ff001916610100836003811115612db057612db0614310565b021790555060408201518154829062ff0000191662010000836003811115612dda57612dda614310565b021790555060608201518154829063ff00000019166301000000836003811115612e0657612e06614310565b0217905550505060808101516060810151600684018054925163ffffffff1663ffffffff19921515600160401b029290921668ff00000000ffffffff1990931692909217179055601754604080516318987be760e11b815290516001600160a01b0390921691633130f7ce916004808201926020929091908290030181865afa158015612e97573d6000803e3d6000fd5b505050506040513d601f19601f82011682018060405250810190612ebb9190614d1c565b60068301805460ff60481b1961ffff93909316640100000000029290921669ff000000ffff000000001990921691909117600160481b179055610cc9846134d1565b6006546001600160a01b03163314611c4a5760405163118cdaa760e01b8152336004820152602401610ddb565b6000818152600260205260408120546001600160a01b031680610c4f57604051637e27328960e01b815260048101849052602401610ddb565b61109783838360016137a9565b600260075403612f9357604051633ee5aeb560e01b815260040160405180910390fd5b6002600755565b601b5460ff1615612fbe57604051636be9245d60e11b815260040160405180910390fd5b60098054906000612fce83615413565b909155505060095460008181526008602090815260408083206001810194909455601554815163f8413b0760e01b815291516001600160a01b039091169363f8413b07936004848101949193929183900301908290875af1158015613037573d6000803e3d6000fd5b505050506040513d601f19601f8201168201806040525081019061305b919061542c565b600382015560095461306e9083906138af565b6008810180546001600160a01b0319166001600160a01b0384161790556009546040519081527ff27b6ce5b2f5e68ddb2fd95a8a909d4ecf1daaac270935fff052feacb24f184290602001611d2a565b6001600160a01b0383166000908152600e6020526040812080548492906130e6908490614d09565b90915550506010546001905b80156131ac576010613105600183615445565b8154811061311557613115614cf3565b600091825260208083206008830401546001600160a01b0389168452600e90915260409092205460079091166004026101000a90910463ffffffff161161319a57600f613163600183615445565b8154811061317357613173614cf3565b60009182526020918290209181049091015460ff601f9092166101000a90041691506131ac565b806131a481615458565b9150506130f2565b50600060646131bb838561546f565b6131c59190614cd1565b90506000856001600160a01b03168260405160006040518083038185875af1925050503d8060008114613214576040519150601f19603f3d011682016040523d82523d6000602084013e613219565b606091505b505090508061326a5760405162461bcd60e51b815260206004820152601860248201527f526566657272616c207472616e73666572206661696c656400000000000000006044820152606401610ddb565b505050505050565b60006001600160a01b038416156132d357600083815260086020526040902060070154156132d35760405162461bcd60e51b815260206004820152600e60248201526d14da1a5c0819195cdd1c9bde595960921b6044820152606401610ddb565b600083815260086020526040902060060154600160501b900460ff16156133105760405163128379f760e11b815260048101849052602401610ddb565b600083815260086020819052604090912001546001600160a01b031680156133f4576001600160a01b0381166000908152600c6020526040902054600a111561337757604051637c0df70b60e11b81526001600160a01b0382166004820152602401610ddb565b6001600160a01b038516158015906133a757506001600160a01b0385166000908152600c6020526040902054600a115b156133d057604051637c0df70b60e11b81526001600160a01b0386166004820152602401610ddb565b6001600160a01b0381166000908152600a602052604090206133f290856138c9565b505b6001600160a01b03851615613452576001600160a01b0385166000908152600a6020526040902061342590856138d5565b5060008481526008602081905260409091200180546001600160a01b0319166001600160a01b0387161790555b6001600160a01b038516613482576040518481526000805160206154ed8339815191529060200160405180910390a15b61348d8585856138e1565b95945050505050565b60006134a56000836000613272565b90506001600160a01b038116610d9557604051637e27328960e01b815260048101839052602401610ddb565b60008181526008602052604090819020601754915163ab67a78360e01b815290916001600160a01b03169063ab67a78390613510908490600401614f71565b602060405180830381865afa15801561352d573d6000803e3d6000fd5b505050506040513d601f19601f820116820180604052508101906135519190614d1c565b6006909101805461ffff92909216600160301b0267ffff0000000000001990921691909117905550565b60606000613588836139da565b9392505050565b600680546001600160a01b038381166001600160a01b0319831681179093556040519116919082907f8be0079c531659141344cd1fd0a4f28419497f9722a3daafe3b4186f6b6457e090600090a35050565b6001600160a01b03821661361357604051630b61174360e31b81526001600160a01b0383166004820152602401610ddb565b6001600160a01b03838116600081815260056020908152604080832094871680845294825291829020805460ff191686151590811790915591519182527f17307eab39ab6107e8899845ad3d59bd9653f200f220920489ca2b5937696c31910160405180910390a3505050565b6001600160a01b0383163b156137a257604051630a85bd0160e11b81526001600160a01b0384169063150b7a02906136c2908890889087908790600401615486565b6020604051808303816000875af19250505080156136fd575060408051601f3d908101601f191682019092526136fa918101906154b9565b60015b613766573d80801561372b576040519150601f19603f3d011682016040523d82523d6000602084013e613730565b606091505b50805160000361375e57604051633250574960e11b81526001600160a01b0385166004820152602401610ddb565b805181602001fd5b6001600160e01b03198116630a85bd0160e11b1461326a57604051633250574960e11b81526001600160a01b0385166004820152602401610ddb565b5050505050565b80806137bd57506001600160a01b03821615155b1561387f5760006137cd84612f2a565b90506001600160a01b038316158015906137f95750826001600160a01b0316816001600160a01b031614155b801561380c575061380a81846126c9565b155b156138355760405163a9fbf51f60e01b81526001600160a01b0384166004820152602401610ddb565b811561387d5783856001600160a01b0316826001600160a01b03167f8c5be1e5ebec7d5bd14f71427d1e84f3dd0314c0f7b2291e5b200ac8c7c3b92560405160405180910390a45b505b5050600090815260046020526040902080546001600160a01b0319166001600160a01b0392909216919091179055565b610d95828260405180602001604052806000815250613a36565b60006135888383613a4e565b60006135888383613b41565b6000828152600260205260408120546001600160a01b039081169083161561390e5761390e818486613b90565b6001600160a01b0381161561394c5761392b6000856000806137a9565b6001600160a01b038116600090815260036020526040902080546000190190555b6001600160a01b0385161561397b576001600160a01b0385166000908152600360205260409020805460010190555b60008481526002602052604080822080546001600160a01b0319166001600160a01b0389811691821790925591518793918516917fddf252ad1be2c89b69c2b068fc378daa952ba7f163c4a11628f55a4df523b3ef91a4949350505050565b606081600001805480602002602001604051908101604052809291908181526020018280548015613a2a57602002820191906000526020600020905b815481526020019060010190808311613a16575b50505050509050919050565b613a408383613bf4565b611097336000858585613680565b60008181526001830160205260408120548015613b37576000613a72600183615445565b8554909150600090613a8690600190615445565b9050808214613aeb576000866000018281548110613aa657613aa6614cf3565b9060005260206000200154905080876000018481548110613ac957613ac9614cf3565b6000918252602080832090910192909255918252600188019052604090208390555b8554869080613afc57613afc6154d6565b600190038181906000526020600020016000905590558560010160008681526020019081526020016000206000905560019350505050610c4f565b6000915050610c4f565b6000818152600183016020526040812054613b8857508154600181810184556000848152602080822090930184905584548482528286019093526040902091909155610c4f565b506000610c4f565b613b9b838383613c59565b611097576001600160a01b038316613bc957604051637e27328960e01b815260048101829052602401610ddb565b60405163177e802f60e01b81526001600160a01b038316600482015260248101829052604401610ddb565b6001600160a01b038216613c1e57604051633250574960e11b815260006004820152602401610ddb565b6000613c2c83836000613272565b90506001600160a01b03811615611097576040516339e3563760e11b815260006004820152602401610ddb565b60006001600160a01b03831615801590613cb75750826001600160a01b0316846001600160a01b03161480613c935750613c9384846126c9565b80613cb757506000828152600460205260409020546001600160a01b038481169116145b949350505050565b82805482825590600052602060002090601f01602090048101928215613d555791602002820160005b83821115613d2657835183826101000a81548160ff021916908360ff1602179055509260200192600101602081600001049283019260010302613ce8565b8015613d535782816101000a81549060ff0219169055600101602081600001049283019260010302613d26565b505b50613d61929150613e97565b5090565b828054828255906000526020600020908101928215613d55579160200282015b82811115613d55578251825591602001919060010190613d85565b6040518060c001604052806060815260200160008152602001613de46040805160808101909152806000815260200160008152602001600081526020016000905290565b8152602001613e4e6040805160c080820183526000808352835191820184528082526020828101829052938201819052606082018190526080820181905260a082015290918201908152600060208201819052604082018190526060820181905260809091015290565b81526040805160e08101825260008082526020828101829052928201819052606082018190526080820181905260a0820181905260c08201529101908152600060209091015290565b5b80821115613d615760008155600101613e98565b6001600160e01b0319811681146112a457600080fd5b600060208284031215613ed457600080fd5b813561358881613eac565b634e487b7160e01b600052604160045260246000fd5b604051608081016001600160401b0381118282101715613f1757613f17613edf565b60405290565b60405160c081016001600160401b0381118282101715613f1757613f17613edf565b60405160e081016001600160401b0381118282101715613f1757613f17613edf565b604051601f8201601f191681016001600160401b0381118282101715613f8957613f89613edf565b604052919050565b60006001600160401b03821115613faa57613faa613edf565b5060051b60200190565b60ff811681146112a457600080fd5b8035611beb81613fb4565b600082601f830112613fdf57600080fd5b8135613ff2613fed82613f91565b613f61565b8082825260208201915060208360051b86010192508583111561401457600080fd5b602085015b8381101561403a57803561402c81613fb4565b835260209283019201614019565b5095945050505050565b600082601f83011261405557600080fd5b8135614063613fed82613f91565b8082825260208201915060208360051b86010192508583111561408557600080fd5b602085015b8381101561403a57803583526020928301920161408a565b6000806000606084860312156140b757600080fd5b83356001600160401b038111156140cd57600080fd5b6140d986828701613fce565b93505060208401356001600160401b038111156140f557600080fd5b61410186828701613fce565b92505060408401356001600160401b0381111561411d57600080fd5b61412986828701614044565b9150509250925092565b60005b8381101561414e578181015183820152602001614136565b50506000910152565b6000815180845261416f816020860160208601614133565b601f01601f19169290920160200192915050565b6020815260006135886020830184614157565b6001600160a01b03811681146112a457600080fd5b8035611beb81614196565b6000602082840312156141c857600080fd5b813561358881614196565b6000602082840312156141e557600080fd5b5035919050565b600080604083850312156141ff57600080fd5b823561420a81614196565b946020939093013593505050565b6000806040838503121561422b57600080fd5b50508035926020909101359150565b60008060006060848603121561424f57600080fd5b833561425a81614196565b925060208401359150604084013561427181614196565b809150509250925092565b60006020828403121561428e57600080fd5b813561358881613fb4565b80151581146112a457600080fd5b8035611beb81614299565b6000602082840312156142c457600080fd5b813561358881614299565b6000806000606084860312156142e457600080fd5b83356142ef81614196565b925060208401356142ff81614196565b929592945050506040919091013590565b634e487b7160e01b600052602160045260246000fd5b600481106112a457634e487b7160e01b600052602160045260246000fd5b805161434f81614326565b8252602081015161435f81614326565b6020830152604081015161437281614326565b6040830152606081015161438581614326565b806060840152505050565b80518252602081015161ffff815116602084015260ff602082015116604084015260ff604082015116606084015261ffff606082015116608084015260ff60808201511660a084015260ff60a08201511660c08401525060408101516143fb60e084018260ff169052565b50606081015160ff9081166101008401526080820151811661012084015260a0909101511661014090910152565b63ffffffff815116825261ffff602082015116602083015261ffff604082015116604083015260608101511515606083015260808101511515608083015260a081015161447a60a084018215159052565b5060c090810151910152565b60008151610320845261449d610320850182614157565b90506020830151602085015260408301516144bb6040860182614344565b5060608301516144ce60c0860182614390565b5060808301516144e2610220860182614429565b5060a092909201516001600160a01b03166103009390930192909252919050565b6020815260006135886020830184614486565b6000806020838503121561452957600080fd5b82356001600160401b0381111561453f57600080fd5b8301601f8101851361455057600080fd5b80356001600160401b0381111561456657600080fd5b8560208260051b840101111561457b57600080fd5b6020919091019590945092505050565b600081518084526020840193506020830160005b828110156145c057815160ff1686526020958601959091019060010161459f565b5093949350505050565b600081518084526020840193506020830160005b828110156145c05781518652602095860195909101906001016145de565b60608152600061460f606083018661458b565b8281036020840152614621818661458b565b9050828103604084015261463581856145ca565b9695505050505050565b61032081526000614654610320830189614157565b90508660208301526146696040830187614344565b61467660c0830186614390565b614684610220830185614429565b6001600160a01b0392909216610300919091015295945050505050565b60208152600061358860208301846145ca565b6000602082840312156146c657600080fd5b81356001600160401b038111156146dc57600080fd5b613cb784828501614044565b600080604083850312156146fb57600080fd5b82359150602083013561470d81614299565b809150509250929050565b6000806040838503121561472b57600080fd5b823561473681614196565b9150602083013561470d81614299565b600080600080600080600060e0888a03121561476157600080fd5b873561476c81614196565b9650602088013561477c81614196565b9550604088013561478c81614196565b9450606088013561479c81614196565b935060808801356147ac81614196565b925060a08801356147bc81614196565b915060c08801356147cc81614196565b8091505092959891949750929550565b60006001600160401b038211156147f5576147f5613edf565b50601f01601f191660200190565b6000614811613fed846147dc565b905082815283838301111561482557600080fd5b828260208301376000602084830101529392505050565b6000806000806080858703121561485257600080fd5b843561485d81614196565b9350602085013561486d81614196565b92506040850135915060608501356001600160401b0381111561488f57600080fd5b8501601f810187136148a057600080fd5b6148af87823560208401614803565b91505092959194509250565b600080604083850312156148ce57600080fd5b82356148d981614196565b9150602083013561470d81614196565b6000602082016020835280845180835260408501915060408160051b86010192506020860160005b8281101561494257603f1987860301845261492d858351614486565b94506020938401939190910190600101614911565b50929695505050505050565b600481106112a457600080fd5b60006080828403121561496d57600080fd5b614975613ef5565b905081356149828161494e565b815260208201356149928161494e565b602082015260408201356149a58161494e565b604082015260608201356149b88161494e565b606082015292915050565b61ffff811681146112a457600080fd5b60008183036101608112156149e757600080fd5b6149ef613f1d565b83358152915060c0601f1982011215614a0757600080fd5b50614a10613f1d565b6020830135614a1e816149c3565b81526040830135614a2e81613fb4565b60208201526060830135614a4181613fb4565b60408201526080830135614a54816149c3565b606082015260a0830135614a6781613fb4565b608082015260c0830135614a7a81613fb4565b60a08201526020820152614a9060e08301613fc3565b6040820152614aa26101008301613fc3565b6060820152614ab46101208301613fc3565b6080820152614ac66101408301613fc3565b60a082015292915050565b63ffffffff811681146112a457600080fd5b600060e08284031215614af557600080fd5b614afd613f3f565b90508135614b0a81614ad1565b81526020820135614b1a816149c3565b60208201526040820135614b2d816149c3565b60408201526060820135614b4081614299565b6060820152614b51608083016142a7565b6080820152614b6260a083016142a7565b60a082015260c09182013591810191909152919050565b60008060408385031215614b8c57600080fd5b8235915060208301356001600160401b03811115614ba957600080fd5b83016103208186031215614bbc57600080fd5b614bc4613f1d565b81356001600160401b03811115614bda57600080fd5b8201601f81018713614beb57600080fd5b614bfa87823560208401614803565b82525060208281013590820152614c14866040840161495b565b6040820152614c268660c084016149d3565b6060820152614c39866102208401614ae3565b6080820152614c4b61030083016141ab565b60a082015280925050509250929050565b600181811c90821680614c7057607f821691505b602082108103614c9057634e487b7160e01b600052602260045260246000fd5b50919050565b634e487b7160e01b600052601160045260246000fd5b600063ffffffff821663ffffffff8103614cc857614cc8614c96565b60010192915050565b600082614cee57634e487b7160e01b600052601260045260246000fd5b500490565b634e487b7160e01b600052603260045260246000fd5b80820180821115610c4f57610c4f614c96565b600060208284031215614d2e57600080fd5b8151613588816149c3565b805460ff8116614d4881614326565b8352600881901c60ff16614d5b81614326565b6020840152601081901c60ff16614d7181614326565b604084015260181c60ff1661438581614326565b80548252600181015461ffff8116602084015260ff8160101c16604084015260ff8160181c16606084015261ffff8160201c166080840152614dd260a0840160ff8360301c1660ff169052565b60381c60ff90811660c08401526002919091015480821660e0840152600881901c8216610100840152601081901c821661012084015260181c1661014090910152565b805463ffffffff8116835261ffff8160201c16602084015261ffff808260301c16166040840152614e506060840160ff8360401c1615159052565b614e646080840160ff8360481c1615159052565b614e7860a0840160ff8360501c1615159052565b506001015460c09190910152565b61032082526000808254614e9981614c5c565b806103208701526001821660008114614eb95760018114614ed757614f0d565b60ff19831661034088015261034082151560051b8801019350614f0d565b85600052602060002060005b83811015614f035781548982016103400152600190910190602001614ee3565b8801610340019450505b50505060018301546020850152614f2a6040850160028501614d39565b614f3a60c0850160038501614d85565b614f4b610220850160068501614e15565b60088301546001600160a01b03166001600160a01b038116610300860152509392505050565b6020815260006135886020830184614e86565b600082601f830112614f9557600080fd5b8151614fa3613fed826147dc565b818152846020838601011115614fb857600080fd5b613cb7826020830160208701614133565b600060208284031215614fdb57600080fd5b81516001600160401b03811115614ff157600080fd5b613cb784828501614f84565b60006020828403121561500f57600080fd5b81516001600160401b038116811461358857600080fd5b8051611beb81613fb4565b600081830361016081121561504557600080fd5b61504d613f1d565b83518152915060c0601f198201121561506557600080fd5b5061506e613f1d565b602083015161507c816149c3565b8152604083015161508c81613fb4565b6020820152606083015161509f81613fb4565b604082015260808301516150b2816149c3565b606082015260a08301516150c581613fb4565b608082015260c08301516150d881613fb4565b60a082015260208201526150ee60e08301615026565b60408201526151006101008301615026565b60608201526151126101208301615026565b6080820152614ac66101408301615026565b8051611beb81614299565b600060e0828403121561514157600080fd5b615149613f3f565b9050815161515681614ad1565b81526020820151615166816149c3565b60208201526040820151615179816149c3565b6040820152606082015161518c81614299565b606082015261519d60808301615124565b60808201526151ae60a08301615124565b60a082015260c09182015191810191909152919050565b8051611beb81614196565b6000602082840312156151e257600080fd5b81516001600160401b038111156151f857600080fd5b820180840361032081121561520c57600080fd5b615214613f1d565b82516001600160401b0381111561522a57600080fd5b61523687828601614f84565b825250602083810151908201526080603f198301121561525557600080fd5b61525d613ef5565b9150604083015161526d8161494e565b8252606083015161527d8161494e565b602083015260808301516152908161494e565b604083015260a08301516152a38161494e565b6060830152604081018290526152bc8660c08501615031565b60608201526152cf86610220850161512f565b60808201526152e161030084016151c5565b60a082015295945050505050565b601f82111561109757806000526020600020601f840160051c810160208510156153165750805b601f840160051c820191505b818110156137a25760008155600101615322565b81516001600160401b0381111561534f5761534f613edf565b6153638161535d8454614c5c565b846152ef565b6020601f821160018114615397576000831561537f5750848201515b600019600385901b1c1916600184901b1784556137a2565b600084815260208120601f198516915b828110156153c757878501518255602094850194600190920191016153a7565b50848210156153e55786840151600019600387901b60f8161c191681555b50505050600190811b01905550565b83815282602082015260606040820152600061348d6060830184614486565b60006001820161542557615425614c96565b5060010190565b60006020828403121561543e57600080fd5b5051919050565b81810381811115610c4f57610c4f614c96565b60008161546757615467614c96565b506000190190565b8082028115828204841417610c4f57610c4f614c96565b6001600160a01b038581168252841660208201526040810183905260806060820181905260009061463590830184614157565b6000602082840312156154cb57600080fd5b815161358881613eac565b634e487b7160e01b600052603160045260246000fdfe032bc66be43dbccb7487781d168eb7bda224628a3b2c3388bdf69b532a3a1611a264697066735822122061391f6671aafe4dfa88d6d0dddd8980711291279b442ceb4d510ebafbb2aa7c64736f6c634300081c0033",
  "linkReferences": {},
  "deployedLinkReferences": {}
}