{
  "_format": "hh-sol-artifact-1",
  "contractName": "Maps",
  "sourceName": "contracts/Maps.sol",
  "abi": [
    {
      "inputs": [],
      "stateMutability": "nonpayable",
      "type": "constructor"
    },
    {
      "inputs": [],
      "name": "InvalidPosition",
      "type": "error"
    },
    {
      "inputs": [],
      "name": "MapNotFound",
      "type": "error"
    },
    {
      "inputs": [],
      "name": "NotGameContract",
      "type": "error"
    },
    {
      "inputs": [
        {
          "internalType": "address",
          "name": "owner",
          "type": "address"
        }
      ],
      "name": "OwnableInvalidOwner",
      "type": "error"
    },
    {
      "inputs": [
        {
          "internalType": "address",
          "name": "account",
          "type": "address"
        }
      ],
      "name": "OwnableUnauthorizedAccount",
      "type": "error"
    },
    {
      "anonymous": false,
      "inputs": [
        {
          "indexed": true,
          "internalType": "address",
          "name": "previousOwner",
          "type": "address"
        },
        {
          "indexed": true,
          "internalType": "address",
          "name": "newOwner",
          "type": "address"
        }
      ],
      "name": "OwnershipTransferred",
      "type": "event"
    },
    {
      "inputs": [],
      "name": "GRID_HEIGHT",
      "outputs": [
        {
          "internalType": "int16",
          "name": "",
          "type": "int16"
        }
      ],
      "stateMutability": "view",
      "type": "function"
    },
    {
      "inputs": [],
      "name": "GRID_WIDTH",
      "outputs": [
        {
          "internalType": "int16",
          "name": "",
          "type": "int16"
        }
      ],
      "stateMutability": "view",
      "type": "function"
    },
    {
      "inputs": [
        {
          "internalType": "uint256",
          "name": "_gameId",
          "type": "uint256"
        },
        {
          "internalType": "uint256",
          "name": "_mapId",
          "type": "uint256"
        }
      ],
      "name": "applyPresetMapToGame",
      "outputs": [],
      "stateMutability": "nonpayable",
      "type": "function"
    },
    {
      "inputs": [
        {
          "internalType": "uint256",
          "name": "_gameId",
          "type": "uint256"
        },
        {
          "internalType": "uint256",
          "name": "_mapId",
          "type": "uint256"
        }
      ],
      "name": "applyPresetScoringMapToGame",
      "outputs": [],
      "stateMutability": "nonpayable",
      "type": "function"
    },
    {
      "inputs": [
        {
          "internalType": "uint256",
          "name": "",
          "type": "uint256"
        },
        {
          "internalType": "int16",
          "name": "",
          "type": "int16"
        },
        {
          "internalType": "int16",
          "name": "",
          "type": "int16"
        }
      ],
      "name": "blockedTiles",
      "outputs": [
        {
          "internalType": "bool",
          "name": "",
          "type": "bool"
        }
      ],
      "stateMutability": "view",
      "type": "function"
    },
    {
      "inputs": [
        {
          "components": [
            {
              "internalType": "int16",
              "name": "row",
              "type": "int16"
            },
            {
              "internalType": "int16",
              "name": "col",
              "type": "int16"
            }
          ],
          "internalType": "struct Position[]",
          "name": "_blockedPositions",
          "type": "tuple[]"
        }
      ],
      "name": "createPresetMap",
      "outputs": [],
      "stateMutability": "nonpayable",
      "type": "function"
    },
    {
      "inputs": [
        {
          "components": [
            {
              "internalType": "int16",
              "name": "row",
              "type": "int16"
            },
            {
              "internalType": "int16",
              "name": "col",
              "type": "int16"
            },
            {
              "internalType": "uint8",
              "name": "points",
              "type": "uint8"
            },
            {
              "internalType": "bool",
              "name": "onlyOnce",
              "type": "bool"
            }
          ],
          "internalType": "struct ScoringPosition[]",
          "name": "_scoringPositions",
          "type": "tuple[]"
        }
      ],
      "name": "createPresetScoringMap",
      "outputs": [],
      "stateMutability": "nonpayable",
      "type": "function"
    },
    {
      "inputs": [
        {
          "internalType": "uint256",
          "name": "_mapId",
          "type": "uint256"
        }
      ],
      "name": "deletePresetMap",
      "outputs": [],
      "stateMutability": "nonpayable",
      "type": "function"
    },
    {
      "inputs": [
        {
          "internalType": "uint256",
          "name": "_mapId",
          "type": "uint256"
        }
      ],
      "name": "deletePresetScoringMap",
      "outputs": [],
      "stateMutability": "nonpayable",
      "type": "function"
    },
    {
      "inputs": [],
      "name": "gameAddress",
      "outputs": [
        {
          "internalType": "address",
          "name": "",
          "type": "address"
        }
      ],
      "stateMutability": "view",
      "type": "function"
    },
    {
      "inputs": [
        {
          "internalType": "uint256",
          "name": "_mapId",
          "type": "uint256"
        }
      ],
      "name": "getPresetMap",
      "outputs": [
        {
          "components": [
            {
              "internalType": "int16",
              "name": "row",
              "type": "int16"
            },
            {
              "internalType": "int16",
              "name": "col",
              "type": "int16"
            }
          ],
          "internalType": "struct Position[]",
          "name": "",
          "type": "tuple[]"
        }
      ],
      "stateMutability": "view",
      "type": "function"
    },
    {
      "inputs": [
        {
          "internalType": "uint256",
          "name": "_mapId",
          "type": "uint256"
        }
      ],
      "name": "getPresetScoringMap",
      "outputs": [
        {
          "components": [
            {
              "internalType": "int16",
              "name": "row",
              "type": "int16"
            },
            {
              "internalType": "int16",
              "name": "col",
              "type": "int16"
            },
            {
              "internalType": "uint8",
              "name": "points",
              "type": "uint8"
            },
            {
              "internalType": "bool",
              "name": "onlyOnce",
              "type": "bool"
            }
          ],
          "internalType": "struct ScoringPosition[]",
          "name": "",
          "type": "tuple[]"
        }
      ],
      "stateMutability": "view",
      "type": "function"
    },
    {
      "inputs": [
        {
          "internalType": "uint256",
          "name": "_gameId",
          "type": "uint256"
        },
        {
          "internalType": "int16",
          "name": "_row",
          "type": "int16"
        },
        {
          "internalType": "int16",
          "name": "_col",
          "type": "int16"
        }
      ],
      "name": "getScoreAndZeroOut",
      "outputs": [
        {
          "internalType": "uint8",
          "name": "",
          "type": "uint8"
        }
      ],
      "stateMutability": "nonpayable",
      "type": "function"
    },
    {
      "inputs": [
        {
          "internalType": "uint256",
          "name": "_gameId",
          "type": "uint256"
        },
        {
          "internalType": "int16",
          "name": "_row0",
          "type": "int16"
        },
        {
          "internalType": "int16",
          "name": "_col0",
          "type": "int16"
        },
        {
          "internalType": "int16",
          "name": "_row1",
          "type": "int16"
        },
        {
          "internalType": "int16",
          "name": "_col1",
          "type": "int16"
        }
      ],
      "name": "hasMaps",
      "outputs": [
        {
          "internalType": "bool",
          "name": "",
          "type": "bool"
        }
      ],
      "stateMutability": "view",
      "type": "function"
    },
    {
      "inputs": [
        {
          "internalType": "uint256",
          "name": "_gameId",
          "type": "uint256"
        },
        {
          "internalType": "int16",
          "name": "_row",
          "type": "int16"
        },
        {
          "internalType": "int16",
          "name": "_col",
          "type": "int16"
        }
      ],
      "name": "isTileBlocked",
      "outputs": [
        {
          "internalType": "bool",
          "name": "",
          "type": "bool"
        }
      ],
      "stateMutability": "view",
      "type": "function"
    },
    {
      "inputs": [
        {
          "internalType": "uint256",
          "name": "_gameId",
          "type": "uint256"
        },
        {
          "internalType": "int16",
          "name": "_row",
          "type": "int16"
        },
        {
          "internalType": "int16",
          "name": "_col",
          "type": "int16"
        }
      ],
      "name": "isTileScoring",
      "outputs": [
        {
          "internalType": "uint8",
          "name": "",
          "type": "uint8"
        }
      ],
      "stateMutability": "view",
      "type": "function"
    },
    {
      "inputs": [
        {
          "internalType": "uint256",
          "name": "_gameId",
          "type": "uint256"
        },
        {
          "internalType": "int16",
          "name": "_row",
          "type": "int16"
        },
        {
          "internalType": "int16",
          "name": "_col",
          "type": "int16"
        }
      ],
      "name": "isTileScoringSafe",
      "outputs": [
        {
          "internalType": "uint8",
          "name": "",
          "type": "uint8"
        }
      ],
      "stateMutability": "view",
      "type": "function"
    },
    {
      "inputs": [],
      "name": "mapCount",
      "outputs": [
        {
          "internalType": "uint256",
          "name": "",
          "type": "uint256"
        }
      ],
      "stateMutability": "view",
      "type": "function"
    },
    {
      "inputs": [
        {
          "internalType": "uint256",
          "name": "_mapId",
          "type": "uint256"
        }
      ],
      "name": "mapExists",
      "outputs": [
        {
          "internalType": "bool",
          "name": "",
          "type": "bool"
        }
      ],
      "stateMutability": "view",
      "type": "function"
    },
    {
      "inputs": [
        {
          "internalType": "uint256",
          "name": "",
          "type": "uint256"
        },
        {
          "internalType": "int16",
          "name": "",
          "type": "int16"
        },
        {
          "internalType": "int16",
          "name": "",
          "type": "int16"
        }
      ],
      "name": "onlyOnceTiles",
      "outputs": [
        {
          "internalType": "bool",
          "name": "",
          "type": "bool"
        }
      ],
      "stateMutability": "view",
      "type": "function"
    },
    {
      "inputs": [],
      "name": "owner",
      "outputs": [
        {
          "internalType": "address",
          "name": "",
          "type": "address"
        }
      ],
      "stateMutability": "view",
      "type": "function"
    },
    {
      "inputs": [
        {
          "internalType": "uint256",
          "name": "",
          "type": "uint256"
        },
        {
          "internalType": "int16",
          "name": "",
          "type": "int16"
        },
        {
          "internalType": "int16",
          "name": "",
          "type": "int16"
        }
      ],
      "name": "presetBlockedMaps",
      "outputs": [
        {
          "internalType": "bool",
          "name": "",
          "type": "bool"
        }
      ],
      "stateMutability": "view",
      "type": "function"
    },
    {
      "inputs": [
        {
          "internalType": "uint256",
          "name": "",
          "type": "uint256"
        },
        {
          "internalType": "int16",
          "name": "",
          "type": "int16"
        },
        {
          "internalType": "int16",
          "name": "",
          "type": "int16"
        }
      ],
      "name": "presetOnlyOnceMaps",
      "outputs": [
        {
          "internalType": "bool",
          "name": "",
          "type": "bool"
        }
      ],
      "stateMutability": "view",
      "type": "function"
    },
    {
      "inputs": [
        {
          "internalType": "uint256",
          "name": "",
          "type": "uint256"
        },
        {
          "internalType": "int16",
          "name": "",
          "type": "int16"
        },
        {
          "internalType": "int16",
          "name": "",
          "type": "int16"
        }
      ],
      "name": "presetScoringMaps",
      "outputs": [
        {
          "internalType": "uint8",
          "name": "",
          "type": "uint8"
        }
      ],
      "stateMutability": "view",
      "type": "function"
    },
    {
      "inputs": [],
      "name": "renounceOwnership",
      "outputs": [],
      "stateMutability": "nonpayable",
      "type": "function"
    },
    {
      "inputs": [
        {
          "internalType": "uint256",
          "name": "",
          "type": "uint256"
        },
        {
          "internalType": "int16",
          "name": "",
          "type": "int16"
        },
        {
          "internalType": "int16",
          "name": "",
          "type": "int16"
        }
      ],
      "name": "scoringTiles",
      "outputs": [
        {
          "internalType": "uint8",
          "name": "",
          "type": "uint8"
        }
      ],
      "stateMutability": "view",
      "type": "function"
    },
    {
      "inputs": [
        {
          "internalType": "uint256",
          "name": "_gameId",
          "type": "uint256"
        },
        {
          "internalType": "int16",
          "name": "_row",
          "type": "int16"
        },
        {
          "internalType": "int16",
          "name": "_col",
          "type": "int16"
        },
        {
          "internalType": "bool",
          "name": "_blocked",
          "type": "bool"
        }
      ],
      "name": "setBlockedTile",
      "outputs": [],
      "stateMutability": "nonpayable",
      "type": "function"
    },
    {
      "inputs": [
        {
          "internalType": "address",
          "name": "_gameAddress",
          "type": "address"
        }
      ],
      "name": "setGameAddress",
      "outputs": [],
      "stateMutability": "nonpayable",
      "type": "function"
    },
    {
      "inputs": [
        {
          "internalType": "uint256",
          "name": "_gameId",
          "type": "uint256"
        },
        {
          "internalType": "int16",
          "name": "_row",
          "type": "int16"
        },
        {
          "internalType": "int16",
          "name": "_col",
          "type": "int16"
        },
        {
          "internalType": "uint8",
          "name": "_points",
          "type": "uint8"
        }
      ],
      "name": "setScoringTile",
      "outputs": [],
      "stateMutability": "nonpayable",
      "type": "function"
    },
    {
      "inputs": [
        {
          "internalType": "address",
          "name": "newOwner",
          "type": "address"
        }
      ],
      "name": "transferOwnership",
      "outputs": [],
      "stateMutability": "nonpayable",
      "type": "function"
    },
    {
      "inputs": [
        {
          "internalType": "uint256",
          "name": "_mapId",
          "type": "uint256"
        },
        {
          "components": [
            {
              "internalType": "int16",
              "name": "row",
              "type": "int16"
            },
            {
              "internalType": "int16",
              "name": "col",
              "type": "int16"
            }
          ],
          "internalType": "struct Position[]",
          "name": "_blockedPositions",
          "type": "tuple[]"
        }
      ],
      "name": "updatePresetMap",
      "outputs": [],
      "stateMutability": "nonpayable",
      "type": "function"
    },
    {
      "inputs": [
        {
          "internalType": "uint256",
          "name": "_mapId",
          "type": "uint256"
        },
        {
          "components": [
            {
              "internalType": "int16",
              "name": "row",
              "type": "int16"
            },
            {
              "internalType": "int16",
              "name": "col",
              "type": "int16"
            },
            {
              "internalType": "uint8",
              "name": "points",
              "type": "uint8"
            },
            {
              "internalType": "bool",
              "name": "onlyOnce",
              "type": "bool"
            }
          ],
          "internalType": "struct ScoringPosition[]",
          "name": "_scoringPositions",
          "type": "tuple[]"
        }
      ],
      "name": "updatePresetScoringMap",
      "outputs": [],
      "stateMutability": "nonpayable",
      "type": "function"
    }
  ],
  "bytecode": "0x6080604052348015600f57600080fd5b503380603557604051631e4fbdf760e01b81526000600482015260240160405180910390fd5b603c816041565b506091565b600080546001600160a01b038381166001600160a01b0319831681178455604051919092169283917f8be0079c531659141344cd1fd0a4f28419497f9722a3daafe3b4186f6b6457e09190a35050565b612431806100a06000396000f3fe608060405234801561001057600080fd5b50600436106101f05760003560e01c80638da5cb5b1161010f578063d4a4affa116100a2578063f2fde38b11610071578063f2fde38b146104d5578063f342d002146104e8578063f5ea3dc91461051c578063fae435b41461053357600080fd5b8063d4a4affa14610489578063dc32d63b1461049c578063dd91835e146104af578063edc6e555146104c257600080fd5b8063c95eeaad116100de578063c95eeaad146103ee578063c996553714610422578063ccc0e35214610456578063ce4693f81461046957600080fd5b80638da5cb5b146103a357806391e8e23814610272578063a168d873146103c8578063a2ec85bc146103db57600080fd5b80635a1114e311610187578063711953ef11610156578063711953ef14610362578063715018a6146103755780638383c9951461037d57806386e8a1a01461039057600080fd5b80635a1114e3146102f557806363228ab7146103085780636858bd401461033c578063709faade1461034f57600080fd5b8063349370d0116101c3578063349370d0146102a25780633bf0684b146102c75780634bf11ad2146102da57806357406856146102e257600080fd5b8063046e8d0b146101f55780630a312b881461023e578063131cfc8414610272578063235e78eb14610287575b600080fd5b610229610203366004611e2c565b600160209081526000938452604080852082529284528284209052825290205460ff1681565b60405190151581526020015b60405180910390f35b61022961024c366004611e2c565b600560209081526000938452604080852082529284528284209052825290205460ff1681565b610285610280366004611e68565b610553565b005b61028f606481565b60405160019190910b8152602001610235565b6102b56102b0366004611e2c565b6105a9565b60405160ff9091168152602001610235565b6102856102d5366004611ecd565b61063a565b61028f603281565b6102856102f0366004611f5e565b6107c8565b610229610303366004611e68565b6109bb565b6102b5610316366004611e2c565b600360209081526000938452604080852082529284528284209052825290205460ff1681565b61022961034a366004611e2c565b6109d4565b61028561035d366004611fae565b610a55565b610285610370366004611ffb565b610aec565b610285610b16565b61022961038b366004612024565b610b2a565b61028561039e366004612082565b610c1d565b6000546001600160a01b03165b6040516001600160a01b039091168152602001610235565b6008546103b0906001600160a01b031681565b6102b56103e9366004611e2c565b610d8b565b6102296103fc366004611e2c565b600660209081526000938452604080852082529284528284209052825290205460ff1681565b610229610430366004611e2c565b600260209081526000938452604080852082529284528284209052825290205460ff1681565b6102856104643660046120a4565b610dfc565b61047c610477366004611e68565b610f3e565b60405161023591906120e6565b610285610497366004612082565b6110f7565b6102b56104aa366004611e2c565b6112d5565b6102856104bd366004612139565b611329565b6102856104d036600461217f565b611422565b6102856104e3366004611ffb565b6114b6565b6102b56104f6366004611e2c565b600460209081526000938452604080852082529284528284209052825290205460ff1681565b61052560075481565b604051908152602001610235565b610546610541366004611e68565b6114f6565b60405161023591906121c1565b61055b611705565b801580610569575060075481115b1561058757604051639ff5bfb960e01b815260040160405180910390fd5b60075481036105a657600780549060006105a083612240565b91905055505b50565b6000838152600360209081526040808320600186810b8086529184528285209086900b808652908452828520548886526005855283862092865291845282852090855290925282205460ff918216911615610630576000858152600360209081526040808320600188810b85529083528184209087900b84529091529020805460ff191690555b90505b9392505050565b610642611705565b821580610650575060075483115b1561066e57604051639ff5bfb960e01b815260040160405180910390fd5b600061067984611732565b905060005b81518110156106e757600082828151811061069b5761069b612257565b60209081029190910181015160008881526002835260408082208351600190810b845290855281832093850151810b83529290935291909120805460ff1916905591909101905061067e565b5060005b828110156107c157600084848381811061070757610707612257565b90506040020180360381019061071d9190612283565b90506000816000015160010b128061073d57508051603260019190910b12155b8061074f57506000816020015160010b125b806107655750606460010b816020015160010b12155b156107835760405163673f032f60e11b815260040160405180910390fd5b60008681526002602090815260408083208451600190810b855290835281842094830151810b8452939091529020805460ff191682179055016106eb565b5050505050565b6107d0611705565b8215806107de575060075483115b156107fc57604051639ff5bfb960e01b815260040160405180910390fd5b6000610807846118e1565b905060005b815181101561089f57600082828151811061082957610829612257565b60209081029190910181015160008881526004835260408082208351600190810b84529085528183208486018051830b8552908652828420805460ff199081169091558c8552600687528385209551830b85529486528284209051820b845290945290208054909116905591909101905061080c565b5060005b828110156107c15760008484838181106108bf576108bf612257565b9050608002018036038101906108d591906122ee565b90506000816000015160010b12806108f557508051603260019190910b12155b8061090757506000816020015160010b125b8061091d5750606460010b816020015160010b12155b1561093b5760405163673f032f60e11b815260040160405180910390fd5b6040808201516000888152600460209081528382208551600190810b84529082528483208287018051830b8552908352858420805460ff90961660ff1996871617905560608701518c8552600684528685209751830b85529683528584209051820b845290915292902080549315159390911692909217909155016108a3565b600080821180156109ce57506007548211155b92915050565b6000808360010b12806109ec57506032600184900b12155b806109fa575060008260010b125b80610a0a57506064600183900b12155b15610a285760405163673f032f60e11b815260040160405180910390fd5b50600092835260016020818152604080862094830b86529381528385209290910b84525290205460ff1690565b610a5d611705565b60008360010b1280610a7457506032600184900b12155b80610a82575060008260010b125b80610a9257506064600183900b12155b15610ab05760405163673f032f60e11b815260040160405180910390fd5b6000938452600360209081526040808620600195860b875282528086209390940b8552919091529120805460ff191660ff909216919091179055565b610af4611705565b600880546001600160a01b0319166001600160a01b0392909216919091179055565b610b1e611705565b610b286000611af0565b565b6000808560010b1280610b4257506032600186900b12155b80610b50575060008460010b125b80610b6057506064600185900b12155b80610b6e575060008360010b125b80610b7e57506032600184900b12155b80610b8c575060008260010b125b80610b9c57506064600183900b12155b15610bba5760405163673f032f60e11b815260040160405180910390fd5b610bc5868686611b40565b15610bd257506000610c14565b8260010b8560010b148015610bec57508160010b8460010b145b15610c0457610bfc868484611b40565b159050610c14565b610c118686868686611b83565b90505b95945050505050565b6008546001600160a01b03163314801590610c4357506000546001600160a01b03163314155b15610c6157604051636aff438160e11b815260040160405180910390fd5b801580610c6f575060075481115b15610c8d57604051639ff5bfb960e01b815260040160405180910390fd5b6000610c98826118e1565b905060005b8151811015610d85576000828281518110610cba57610cba612257565b60209081029190910181015160008681526004835260408082208351600190810b84529085528183208486018051830b8552908652828420548b8552600387528385208651840b865287528385208251840b86528752838520805460ff1990811660ff938416179091558b8652600688528486208751850b875288528486208351850b87528852848620548d8752600589528587209751850b87529688528486209251840b865291909652919092208054939094161515921691909117909155919091019050610c9d565b50505050565b6000808360010b1280610da357506032600184900b12155b80610db1575060008260010b125b80610dc157506064600183900b12155b15610dce57506000610633565b506000928352600360209081526040808520600194850b865282528085209290930b84525290205460ff1690565b610e04611705565b60078054906000610e148361237b565b919050555060005b81811015610f39576000838383818110610e3857610e38612257565b905060800201803603810190610e4e91906122ee565b90506000816000015160010b1280610e6e57508051603260019190910b12155b80610e8057506000816020015160010b125b80610e965750606460010b816020015160010b12155b15610eb45760405163673f032f60e11b815260040160405180910390fd5b604080820151600780546000908152600460209081528482208651600190810b84529082528583208288018051830b8552908352868420805460ff90971660ff19978816179055606088015194548452600683528684209751820b84529682528583209651810b83529590529290922080549215159290911691909117905501610e1c565b505050565b6060811580610f4e575060075482115b15610f6c57604051639ff5bfb960e01b815260040160405180910390fd5b6000805b6032600182900b1215610fde5760005b6064600182900b1215610fd5576000858152600260209081526040808320600186810b85529083528184209085900b845290915290205460ff1615610fcd5782610fc98161237b565b9350505b600101610f80565b50600101610f70565b5060008167ffffffffffffffff811115610ffa57610ffa61226d565b60405190808252806020026020018201604052801561103f57816020015b60408051808201909152600080825260208201528152602001906001900390816110185790505b5090506000805b6032600182900b12156110ed5760005b6064600182900b12156110e4576000878152600260209081526040808320600186810b85529083528184209085900b845290915290205460ff16156110dc5760405180604001604052808360010b81526020018260010b8152508484815181106110c2576110c2612257565b602002602001018190525082806110d89061237b565b9350505b600101611056565b50600101611046565b5090949350505050565b6008546001600160a01b0316331480159061111d57506000546001600160a01b03163314155b1561113b57604051636aff438160e11b815260040160405180910390fd5b801580611149575060075481115b1561116757604051639ff5bfb960e01b815260040160405180910390fd5b600061117282611732565b905060005b81518110156111dc57600082828151811061119457611194612257565b6020908102919091018101516000878152600180845260408083208451830b8452855280832093850151820b83529290935220805460ff191682179055919091019050611177565b5060006111e8836118e1565b905060005b81518110156107c157600082828151811061120a5761120a612257565b60209081029190910181015160008781526004835260408082208351600190810b84529085528183208486018051830b8552908652828420548c8552600387528385208651840b865287528385208251840b86528752838520805460ff1990811660ff938416179091558c8652600688528486208751850b875288528486208351850b87528852848620548e8752600589528587209751850b87529688528486209251840b8652919096529190922080549390941615159216919091179091559190910190506111ed565b6000808360010b12806112ed57506032600184900b12155b806112fb575060008260010b125b8061130b57506064600183900b12155b15610dce5760405163673f032f60e11b815260040160405180910390fd5b611331611705565b600780549060006113418361237b565b919050555060005b81811015610f3957600083838381811061136557611365612257565b90506040020180360381019061137b9190612283565b90506000816000015160010b128061139b57508051603260019190910b12155b806113ad57506000816020015160010b125b806113c35750606460010b816020015160010b12155b156113e15760405163673f032f60e11b815260040160405180910390fd5b60075460009081526002602090815260408083208451600190810b855290835281842094830151810b8452939091529020805460ff19168217905501611349565b61142a611705565b60008360010b128061144157506032600184900b12155b8061144f575060008260010b125b8061145f57506064600183900b12155b1561147d5760405163673f032f60e11b815260040160405180910390fd5b600093845260016020818152604080872095830b87529481528486209390910b8552919091529120805460ff1916911515919091179055565b6114be611705565b6001600160a01b0381166114ed57604051631e4fbdf760e01b8152600060048201526024015b60405180910390fd5b6105a681611af0565b6060811580611506575060075482115b1561152457604051639ff5bfb960e01b815260040160405180910390fd5b6000805b6032600182900b12156115965760005b6064600182900b121561158d576000858152600460209081526040808320600186810b85529083528184209085900b845290915290205460ff161561158557826115818161237b565b9350505b600101611538565b50600101611528565b5060008167ffffffffffffffff8111156115b2576115b261226d565b60405190808252806020026020018201604052801561160457816020015b6040805160808101825260008082526020808301829052928201819052606082015282526000199092019101816115d05790505b5090506000805b6032600182900b12156110ed5760005b6064600182900b12156116fc576000878152600460209081526040808320600186810b85529083528184209085900b845290915290205460ff16156116f45760408051608081018252600184810b8083529084900b602080840182905260008c815260048252858120848252825285812083825282528581205460ff908116868801528d82526006835286822094825293825285812092815291905292909220549091161515606082015284518590859081106116da576116da612257565b602002602001018190525082806116f09061237b565b9350505b60010161161b565b5060010161160b565b6000546001600160a01b03163314610b285760405163118cdaa760e01b81523360048201526024016114e4565b6060811580611742575060075482115b1561176057604051639ff5bfb960e01b815260040160405180910390fd5b6000805b6032600182900b12156117d25760005b6064600182900b12156117c9576000858152600260209081526040808320600186810b85529083528184209085900b845290915290205460ff16156117c157826117bd8161237b565b9350505b600101611774565b50600101611764565b5060008167ffffffffffffffff8111156117ee576117ee61226d565b60405190808252806020026020018201604052801561183357816020015b604080518082019091526000808252602082015281526020019060019003908161180c5790505b5090506000805b6032600182900b12156110ed5760005b6064600182900b12156118d8576000878152600260209081526040808320600186810b85529083528184209085900b845290915290205460ff16156118d05760405180604001604052808360010b81526020018260010b8152508484815181106118b6576118b6612257565b602002602001018190525082806118cc9061237b565b9350505b60010161184a565b5060010161183a565b60608115806118f1575060075482115b1561190f57604051639ff5bfb960e01b815260040160405180910390fd5b6000805b6032600182900b12156119815760005b6064600182900b1215611978576000858152600460209081526040808320600186810b85529083528184209085900b845290915290205460ff1615611970578261196c8161237b565b9350505b600101611923565b50600101611913565b5060008167ffffffffffffffff81111561199d5761199d61226d565b6040519080825280602002602001820160405280156119ef57816020015b6040805160808101825260008082526020808301829052928201819052606082015282526000199092019101816119bb5790505b5090506000805b6032600182900b12156110ed5760005b6064600182900b1215611ae7576000878152600460209081526040808320600186810b85529083528184209085900b845290915290205460ff1615611adf5760408051608081018252600184810b8083529084900b602080840182905260008c815260048252858120848252825285812083825282528581205460ff908116868801528d8252600683528682209482529382528581209281529190529290922054909116151560608201528451859085908110611ac557611ac5612257565b60200260200101819052508280611adb9061237b565b9350505b600101611a06565b506001016119f6565b600080546001600160a01b038381166001600160a01b0319831681178455604051919092169283917f8be0079c531659141344cd1fd0a4f28419497f9722a3daafe3b4186f6b6457e09190a35050565b6000808360010b1280611b5857506032600184900b12155b80611b66575060008260010b125b80611b7657506064600183900b12155b15610a2857506001610633565b6000808560010b8460010b13611ba257611b9d8487612394565b611bac565b611bac8685612394565b905060008560010b8460010b13611bcc57611bc78487612394565b611bd6565b611bd68685612394565b905060008760010b8660010b13611c03578760010b8660010b12611bfb576000611c06565b600019611c06565b60015b905060008760010b8660010b13611c33578760010b8660010b12611c2b576000611c36565b600019611c36565b60015b90506000611c448585612394565b905089895b8960010b8260010b148015611c6357508860010b8160010b145b15611c8257611c738d8383611b40565b15975050505050505050610c14565b600183810b811b9081900b600003611d5257611ca88e84611ca388866123b7565b611b40565b8015611cc35750611cc38e611cbd88866123b7565b84611b40565b15611cd957600098505050505050505050610c14565b611ce385836123b7565b9150611cef8885612394565b9350611cfb86846123b7565b9250611d0787856123b7565b93508a60010b8360010b141580611d2457508960010b8260010b14155b8015611d365750611d368e8484611b40565b15611d4c57600098505050505050505050610c14565b50611c49565b611d5b886123da565b60010b8160010b1315611dc357611d728885612394565b9350611d7e85836123b7565b91508a60010b8360010b141580611d9b57508960010b8260010b14155b8015611dad5750611dad8e8484611b40565b15611dc357600098505050505050505050610c14565b8660010b8160010b1215611d4c57611ddb87856123b7565b9350611de786846123b7565b92508a60010b8360010b141580611d2457508960010b8260010b14158015611d365750611d368e8484611b40565b8035600181900b8114611e2757600080fd5b919050565b600080600060608486031215611e4157600080fd5b83359250611e5160208501611e15565b9150611e5f60408501611e15565b90509250925092565b600060208284031215611e7a57600080fd5b5035919050565b60008083601f840112611e9357600080fd5b50813567ffffffffffffffff811115611eab57600080fd5b6020830191508360208260061b8501011115611ec657600080fd5b9250929050565b600080600060408486031215611ee257600080fd5b83359250602084013567ffffffffffffffff811115611f0057600080fd5b611f0c86828701611e81565b9497909650939450505050565b60008083601f840112611f2b57600080fd5b50813567ffffffffffffffff811115611f4357600080fd5b6020830191508360208260071b8501011115611ec657600080fd5b600080600060408486031215611f7357600080fd5b83359250602084013567ffffffffffffffff811115611f9157600080fd5b611f0c86828701611f19565b803560ff81168114611e2757600080fd5b60008060008060808587031215611fc457600080fd5b84359350611fd460208601611e15565b9250611fe260408601611e15565b9150611ff060608601611f9d565b905092959194509250565b60006020828403121561200d57600080fd5b81356001600160a01b038116811461063357600080fd5b600080600080600060a0868803121561203c57600080fd5b8535945061204c60208701611e15565b935061205a60408701611e15565b925061206860608701611e15565b915061207660808701611e15565b90509295509295909350565b6000806040838503121561209557600080fd5b50508035926020909101359150565b600080602083850312156120b757600080fd5b823567ffffffffffffffff8111156120ce57600080fd5b6120da85828601611f19565b90969095509350505050565b602080825282518282018190526000918401906040840190835b8181101561212e5783518051600190810b8552602091820151810b8286015294019360409093019201612100565b509095945050505050565b6000806020838503121561214c57600080fd5b823567ffffffffffffffff81111561216357600080fd5b6120da85828601611e81565b80358015158114611e2757600080fd5b6000806000806080858703121561219557600080fd5b843593506121a560208601611e15565b92506121b360408601611e15565b9150611ff06060860161216f565b602080825282518282018190526000918401906040840190835b8181101561212e578351805160010b8452602081015160010b602085015260ff6040820151166040850152606081015115156060850152506080830192506020840193506001810190506121db565b634e487b7160e01b600052601160045260246000fd5b60008161224f5761224f61222a565b506000190190565b634e487b7160e01b600052603260045260246000fd5b634e487b7160e01b600052604160045260246000fd5b6000604082840312801561229657600080fd5b506040805190810167ffffffffffffffff811182821017156122c857634e487b7160e01b600052604160045260246000fd5b6040526122d483611e15565b81526122e260208401611e15565b60208201529392505050565b6000608082840312801561230157600080fd5b506040516080810167ffffffffffffffff8111828210171561233357634e487b7160e01b600052604160045260246000fd5b60405261233f83611e15565b815261234d60208401611e15565b602082015261235e60408401611f9d565b604082015261236f6060840161216f565b60608201529392505050565b60006001820161238d5761238d61222a565b5060010190565b600182810b9082900b03617fff198112617fff821317156109ce576109ce61222a565b600181810b9083900b01617fff8113617fff19821217156109ce576109ce61222a565b60008160010b617fff1981036123f2576123f261222a565b6000039291505056fea26469706673582212200aa5126abd434c0c7e6f9186279fb9e90f1288468b8cf56db054d6d014cbc5f164736f6c634300081c0033",
  "linkReferences": {},
  "deployedLinkReferences": {}
}