{
  "_format": "hh-sol-artifact-1",
  "contractName": "Game",
  "sourceName": "contracts/Game.sol",
  "abi": [
    {
      "inputs": [
        {
          "internalType": "address",
          "name": "_ships",
          "type": "address"
        },
        {
          "internalType": "address",
          "name": "_shipAttributes",
          "type": "address"
        }
      ],
      "stateMutability": "nonpayable",
      "type": "constructor"
    },
    {
      "inputs": [],
      "name": "ActionRequired",
      "type": "error"
    },
    {
      "inputs": [],
      "name": "GameNotFound",
      "type": "error"
    },
    {
      "inputs": [],
      "name": "InvalidMove",
      "type": "error"
    },
    {
      "inputs": [],
      "name": "InvalidPosition",
      "type": "error"
    },
    {
      "inputs": [],
      "name": "NotInGame",
      "type": "error"
    },
    {
      "inputs": [],
      "name": "NotLobbiesContract",
      "type": "error"
    },
    {
      "inputs": [],
      "name": "NotYourTurn",
      "type": "error"
    },
    {
      "inputs": [
        {
          "internalType": "address",
          "name": "owner",
          "type": "address"
        }
      ],
      "name": "OwnableInvalidOwner",
      "type": "error"
    },
    {
      "inputs": [
        {
          "internalType": "address",
          "name": "account",
          "type": "address"
        }
      ],
      "name": "OwnableUnauthorizedAccount",
      "type": "error"
    },
    {
      "inputs": [],
      "name": "PositionOccupied",
      "type": "error"
    },
    {
      "inputs": [],
      "name": "ShipAlreadyMoved",
      "type": "error"
    },
    {
      "inputs": [],
      "name": "ShipDestroyed",
      "type": "error"
    },
    {
      "inputs": [],
      "name": "ShipNotFound",
      "type": "error"
    },
    {
      "inputs": [],
      "name": "ShipNotOwned",
      "type": "error"
    },
    {
      "inputs": [],
      "name": "TurnTimeoutExceeded",
      "type": "error"
    },
    {
      "inputs": [],
      "name": "TurnTimeoutNotReached",
      "type": "error"
    },
    {
      "anonymous": false,
      "inputs": [
        {
          "indexed": true,
          "internalType": "uint256",
          "name": "gameId",
          "type": "uint256"
        },
        {
          "indexed": true,
          "internalType": "uint256",
          "name": "lobbyId",
          "type": "uint256"
        },
        {
          "indexed": false,
          "internalType": "address",
          "name": "creator",
          "type": "address"
        },
        {
          "indexed": false,
          "internalType": "address",
          "name": "joiner",
          "type": "address"
        }
      ],
      "name": "GameStarted",
      "type": "event"
    },
    {
      "anonymous": false,
      "inputs": [
        {
          "indexed": true,
          "internalType": "uint256",
          "name": "gameId",
          "type": "uint256"
        }
      ],
      "name": "GameUpdate",
      "type": "event"
    },
    {
      "anonymous": false,
      "inputs": [
        {
          "indexed": true,
          "internalType": "uint256",
          "name": "gameId",
          "type": "uint256"
        },
        {
          "indexed": false,
          "internalType": "uint256",
          "name": "shipId",
          "type": "uint256"
        },
        {
          "indexed": false,
          "internalType": "int16",
          "name": "oldRow",
          "type": "int16"
        },
        {
          "indexed": false,
          "internalType": "int16",
          "name": "oldCol",
          "type": "int16"
        },
        {
          "indexed": false,
          "internalType": "int16",
          "name": "newRow",
          "type": "int16"
        },
        {
          "indexed": false,
          "internalType": "int16",
          "name": "newCol",
          "type": "int16"
        },
        {
          "indexed": false,
          "internalType": "enum ActionType",
          "name": "actionType",
          "type": "uint8"
        },
        {
          "indexed": false,
          "internalType": "uint256",
          "name": "targetShipId",
          "type": "uint256"
        }
      ],
      "name": "Move",
      "type": "event"
    },
    {
      "anonymous": false,
      "inputs": [
        {
          "indexed": true,
          "internalType": "address",
          "name": "previousOwner",
          "type": "address"
        },
        {
          "indexed": true,
          "internalType": "address",
          "name": "newOwner",
          "type": "address"
        }
      ],
      "name": "OwnershipTransferred",
      "type": "event"
    },
    {
      "inputs": [],
      "name": "GRID_HEIGHT",
      "outputs": [
        {
          "internalType": "int16",
          "name": "",
          "type": "int16"
        }
      ],
      "stateMutability": "view",
      "type": "function"
    },
    {
      "inputs": [],
      "name": "GRID_WIDTH",
      "outputs": [
        {
          "internalType": "int16",
          "name": "",
          "type": "int16"
        }
      ],
      "stateMutability": "view",
      "type": "function"
    },
    {
      "inputs": [
        {
          "internalType": "uint256",
          "name": "_gameId",
          "type": "uint256"
        }
      ],
      "name": "_getShipsWithZeroHP",
      "outputs": [
        {
          "internalType": "uint256[]",
          "name": "",
          "type": "uint256[]"
        }
      ],
      "stateMutability": "view",
      "type": "function"
    },
    {
      "inputs": [
        {
          "internalType": "uint256",
          "name": "_gameId",
          "type": "uint256"
        },
        {
          "internalType": "uint256[]",
          "name": "_shipIds",
          "type": "uint256[]"
        }
      ],
      "name": "calculateFleetAttributes",
      "outputs": [],
      "stateMutability": "nonpayable",
      "type": "function"
    },
    {
      "inputs": [
        {
          "internalType": "uint256",
          "name": "_gameId",
          "type": "uint256"
        },
        {
          "internalType": "uint256",
          "name": "_shipId",
          "type": "uint256"
        }
      ],
      "name": "calculateShipAttributes",
      "outputs": [],
      "stateMutability": "nonpayable",
      "type": "function"
    },
    {
      "inputs": [
        {
          "internalType": "uint256",
          "name": "_gameId",
          "type": "uint256"
        }
      ],
      "name": "debugAutoPassTurn",
      "outputs": [],
      "stateMutability": "nonpayable",
      "type": "function"
    },
    {
      "inputs": [
        {
          "internalType": "uint256",
          "name": "_gameId",
          "type": "uint256"
        },
        {
          "internalType": "uint256",
          "name": "_shipId",
          "type": "uint256"
        }
      ],
      "name": "debugDestroyShip",
      "outputs": [],
      "stateMutability": "nonpayable",
      "type": "function"
    },
    {
      "inputs": [
        {
          "internalType": "uint256",
          "name": "_gameId",
          "type": "uint256"
        }
      ],
      "name": "debugIncrementReactorCriticalTimerForZeroHPShips",
      "outputs": [],
      "stateMutability": "nonpayable",
      "type": "function"
    },
    {
      "inputs": [
        {
          "internalType": "uint256",
          "name": "_gameId",
          "type": "uint256"
        },
        {
          "internalType": "uint256",
          "name": "_shipId",
          "type": "uint256"
        }
      ],
      "name": "debugMarkShipAsMoved",
      "outputs": [],
      "stateMutability": "nonpayable",
      "type": "function"
    },
    {
      "inputs": [
        {
          "internalType": "uint256",
          "name": "_gameId",
          "type": "uint256"
        },
        {
          "internalType": "uint256",
          "name": "_shipId",
          "type": "uint256"
        }
      ],
      "name": "debugSetHullPointsToZero",
      "outputs": [],
      "stateMutability": "nonpayable",
      "type": "function"
    },
    {
      "inputs": [
        {
          "internalType": "uint256",
          "name": "_gameId",
          "type": "uint256"
        },
        {
          "internalType": "uint256",
          "name": "_shipId",
          "type": "uint256"
        },
        {
          "internalType": "uint8",
          "name": "_timer",
          "type": "uint8"
        }
      ],
      "name": "debugSetReactorCriticalTimer",
      "outputs": [],
      "stateMutability": "nonpayable",
      "type": "function"
    },
    {
      "inputs": [
        {
          "internalType": "uint256",
          "name": "_gameId",
          "type": "uint256"
        },
        {
          "internalType": "uint256",
          "name": "_shipId",
          "type": "uint256"
        },
        {
          "internalType": "int16",
          "name": "_row",
          "type": "int16"
        },
        {
          "internalType": "int16",
          "name": "_col",
          "type": "int16"
        }
      ],
      "name": "debugSetShipPosition",
      "outputs": [],
      "stateMutability": "nonpayable",
      "type": "function"
    },
    {
      "inputs": [
        {
          "internalType": "uint256",
          "name": "_gameId",
          "type": "uint256"
        }
      ],
      "name": "flee",
      "outputs": [],
      "stateMutability": "nonpayable",
      "type": "function"
    },
    {
      "inputs": [],
      "name": "fleets",
      "outputs": [
        {
          "internalType": "contract IFleets",
          "name": "",
          "type": "address"
        }
      ],
      "stateMutability": "view",
      "type": "function"
    },
    {
      "inputs": [
        {
          "internalType": "uint256",
          "name": "_gameId",
          "type": "uint256"
        }
      ],
      "name": "forceMoveOnTimeout",
      "outputs": [],
      "stateMutability": "nonpayable",
      "type": "function"
    },
    {
      "inputs": [],
      "name": "gameCount",
      "outputs": [
        {
          "internalType": "uint256",
          "name": "",
          "type": "uint256"
        }
      ],
      "stateMutability": "view",
      "type": "function"
    },
    {
      "inputs": [],
      "name": "gameResults",
      "outputs": [
        {
          "internalType": "contract IGameResults",
          "name": "",
          "type": "address"
        }
      ],
      "stateMutability": "view",
      "type": "function"
    },
    {
      "inputs": [
        {
          "internalType": "uint256",
          "name": "_gameId",
          "type": "uint256"
        }
      ],
      "name": "getAllShipPositions",
      "outputs": [
        {
          "components": [
            {
              "internalType": "uint256",
              "name": "shipId",
              "type": "uint256"
            },
            {
              "components": [
                {
                  "internalType": "int16",
                  "name": "row",
                  "type": "int16"
                },
                {
                  "internalType": "int16",
                  "name": "col",
                  "type": "int16"
                }
              ],
              "internalType": "struct Position",
              "name": "position",
              "type": "tuple"
            },
            {
              "internalType": "bool",
              "name": "isCreator",
              "type": "bool"
            }
          ],
          "internalType": "struct ShipPosition[]",
          "name": "",
          "type": "tuple[]"
        }
      ],
      "stateMutability": "view",
      "type": "function"
    },
    {
      "inputs": [
        {
          "internalType": "uint256",
          "name": "_gameId",
          "type": "uint256"
        }
      ],
      "name": "getGame",
      "outputs": [
        {
          "components": [
            {
              "components": [
                {
                  "internalType": "uint256",
                  "name": "gameId",
                  "type": "uint256"
                },
                {
                  "internalType": "uint256",
                  "name": "lobbyId",
                  "type": "uint256"
                },
                {
                  "internalType": "address",
                  "name": "creator",
                  "type": "address"
                },
                {
                  "internalType": "address",
                  "name": "joiner",
                  "type": "address"
                },
                {
                  "internalType": "uint256",
                  "name": "creatorFleetId",
                  "type": "uint256"
                },
                {
                  "internalType": "uint256",
                  "name": "joinerFleetId",
                  "type": "uint256"
                },
                {
                  "internalType": "bool",
                  "name": "creatorGoesFirst",
                  "type": "bool"
                },
                {
                  "internalType": "uint256",
                  "name": "startedAt",
                  "type": "uint256"
                },
                {
                  "internalType": "address",
                  "name": "winner",
                  "type": "address"
                }
              ],
              "internalType": "struct GameMetadata",
              "name": "metadata",
              "type": "tuple"
            },
            {
              "components": [
                {
                  "internalType": "address",
                  "name": "currentTurn",
                  "type": "address"
                },
                {
                  "internalType": "uint256",
                  "name": "turnTime",
                  "type": "uint256"
                },
                {
                  "internalType": "uint256",
                  "name": "turnStartTime",
                  "type": "uint256"
                },
                {
                  "internalType": "uint256",
                  "name": "currentRound",
                  "type": "uint256"
                }
              ],
              "internalType": "struct GameTurnState",
              "name": "turnState",
              "type": "tuple"
            },
            {
              "components": [
                {
                  "internalType": "int16",
                  "name": "gridWidth",
                  "type": "int16"
                },
                {
                  "internalType": "int16",
                  "name": "gridHeight",
                  "type": "int16"
                }
              ],
              "internalType": "struct GameGridDimensions",
              "name": "gridDimensions",
              "type": "tuple"
            },
            {
              "internalType": "uint256",
              "name": "maxScore",
              "type": "uint256"
            },
            {
              "internalType": "uint256",
              "name": "creatorScore",
              "type": "uint256"
            },
            {
              "internalType": "uint256",
              "name": "joinerScore",
              "type": "uint256"
            },
            {
              "components": [
                {
                  "internalType": "uint256",
                  "name": "shipId",
                  "type": "uint256"
                },
                {
                  "internalType": "int16",
                  "name": "oldRow",
                  "type": "int16"
                },
                {
                  "internalType": "int16",
                  "name": "oldCol",
                  "type": "int16"
                },
                {
                  "internalType": "int16",
                  "name": "newRow",
                  "type": "int16"
                },
                {
                  "internalType": "int16",
                  "name": "newCol",
                  "type": "int16"
                },
                {
                  "internalType": "enum ActionType",
                  "name": "actionType",
                  "type": "uint8"
                },
                {
                  "internalType": "uint256",
                  "name": "targetShipId",
                  "type": "uint256"
                },
                {
                  "internalType": "uint256",
                  "name": "timestamp",
                  "type": "uint256"
                }
              ],
              "internalType": "struct LastMove",
              "name": "lastMove",
              "type": "tuple"
            },
            {
              "internalType": "uint256[]",
              "name": "shipIds",
              "type": "uint256[]"
            },
            {
              "components": [
                {
                  "internalType": "uint16",
                  "name": "version",
                  "type": "uint16"
                },
                {
                  "internalType": "uint8",
                  "name": "range",
                  "type": "uint8"
                },
                {
                  "internalType": "uint8",
                  "name": "gunDamage",
                  "type": "uint8"
                },
                {
                  "internalType": "uint8",
                  "name": "hullPoints",
                  "type": "uint8"
                },
                {
                  "internalType": "uint8",
                  "name": "maxHullPoints",
                  "type": "uint8"
                },
                {
                  "internalType": "uint8",
                  "name": "movement",
                  "type": "uint8"
                },
                {
                  "internalType": "uint8",
                  "name": "damageReduction",
                  "type": "uint8"
                },
                {
                  "internalType": "uint8",
                  "name": "reactorCriticalTimer",
                  "type": "uint8"
                },
                {
                  "internalType": "uint8[]",
                  "name": "statusEffects",
                  "type": "uint8[]"
                }
              ],
              "internalType": "struct Attributes[]",
              "name": "shipAttributes",
              "type": "tuple[]"
            },
            {
              "components": [
                {
                  "internalType": "uint256",
                  "name": "shipId",
                  "type": "uint256"
                },
                {
                  "components": [
                    {
                      "internalType": "int16",
                      "name": "row",
                      "type": "int16"
                    },
                    {
                      "internalType": "int16",
                      "name": "col",
                      "type": "int16"
                    }
                  ],
                  "internalType": "struct Position",
                  "name": "position",
                  "type": "tuple"
                },
                {
                  "internalType": "bool",
                  "name": "isCreator",
                  "type": "bool"
                }
              ],
              "internalType": "struct ShipPosition[]",
              "name": "shipPositions",
              "type": "tuple[]"
            },
            {
              "internalType": "uint256[]",
              "name": "creatorActiveShipIds",
              "type": "uint256[]"
            },
            {
              "internalType": "uint256[]",
              "name": "joinerActiveShipIds",
              "type": "uint256[]"
            },
            {
              "internalType": "uint256[]",
              "name": "creatorMovedShipIds",
              "type": "uint256[]"
            },
            {
              "internalType": "uint256[]",
              "name": "joinerMovedShipIds",
              "type": "uint256[]"
            }
          ],
          "internalType": "struct GameDataView",
          "name": "",
          "type": "tuple"
        }
      ],
      "stateMutability": "view",
      "type": "function"
    },
    {
      "inputs": [
        {
          "internalType": "address",
          "name": "_player",
          "type": "address"
        }
      ],
      "name": "getGamesForPlayer",
      "outputs": [
        {
          "components": [
            {
              "components": [
                {
                  "internalType": "uint256",
                  "name": "gameId",
                  "type": "uint256"
                },
                {
                  "internalType": "uint256",
                  "name": "lobbyId",
                  "type": "uint256"
                },
                {
                  "internalType": "address",
                  "name": "creator",
                  "type": "address"
                },
                {
                  "internalType": "address",
                  "name": "joiner",
                  "type": "address"
                },
                {
                  "internalType": "uint256",
                  "name": "creatorFleetId",
                  "type": "uint256"
                },
                {
                  "internalType": "uint256",
                  "name": "joinerFleetId",
                  "type": "uint256"
                },
                {
                  "internalType": "bool",
                  "name": "creatorGoesFirst",
                  "type": "bool"
                },
                {
                  "internalType": "uint256",
                  "name": "startedAt",
                  "type": "uint256"
                },
                {
                  "internalType": "address",
                  "name": "winner",
                  "type": "address"
                }
              ],
              "internalType": "struct GameMetadata",
              "name": "metadata",
              "type": "tuple"
            },
            {
              "components": [
                {
                  "internalType": "address",
                  "name": "currentTurn",
                  "type": "address"
                },
                {
                  "internalType": "uint256",
                  "name": "turnTime",
                  "type": "uint256"
                },
                {
                  "internalType": "uint256",
                  "name": "turnStartTime",
                  "type": "uint256"
                },
                {
                  "internalType": "uint256",
                  "name": "currentRound",
                  "type": "uint256"
                }
              ],
              "internalType": "struct GameTurnState",
              "name": "turnState",
              "type": "tuple"
            },
            {
              "components": [
                {
                  "internalType": "int16",
                  "name": "gridWidth",
                  "type": "int16"
                },
                {
                  "internalType": "int16",
                  "name": "gridHeight",
                  "type": "int16"
                }
              ],
              "internalType": "struct GameGridDimensions",
              "name": "gridDimensions",
              "type": "tuple"
            },
            {
              "internalType": "uint256",
              "name": "maxScore",
              "type": "uint256"
            },
            {
              "internalType": "uint256",
              "name": "creatorScore",
              "type": "uint256"
            },
            {
              "internalType": "uint256",
              "name": "joinerScore",
              "type": "uint256"
            },
            {
              "components": [
                {
                  "internalType": "uint256",
                  "name": "shipId",
                  "type": "uint256"
                },
                {
                  "internalType": "int16",
                  "name": "oldRow",
                  "type": "int16"
                },
                {
                  "internalType": "int16",
                  "name": "oldCol",
                  "type": "int16"
                },
                {
                  "internalType": "int16",
                  "name": "newRow",
                  "type": "int16"
                },
                {
                  "internalType": "int16",
                  "name": "newCol",
                  "type": "int16"
                },
                {
                  "internalType": "enum ActionType",
                  "name": "actionType",
                  "type": "uint8"
                },
                {
                  "internalType": "uint256",
                  "name": "targetShipId",
                  "type": "uint256"
                },
                {
                  "internalType": "uint256",
                  "name": "timestamp",
                  "type": "uint256"
                }
              ],
              "internalType": "struct LastMove",
              "name": "lastMove",
              "type": "tuple"
            },
            {
              "internalType": "uint256[]",
              "name": "shipIds",
              "type": "uint256[]"
            },
            {
              "components": [
                {
                  "internalType": "uint16",
                  "name": "version",
                  "type": "uint16"
                },
                {
                  "internalType": "uint8",
                  "name": "range",
                  "type": "uint8"
                },
                {
                  "internalType": "uint8",
                  "name": "gunDamage",
                  "type": "uint8"
                },
                {
                  "internalType": "uint8",
                  "name": "hullPoints",
                  "type": "uint8"
                },
                {
                  "internalType": "uint8",
                  "name": "maxHullPoints",
                  "type": "uint8"
                },
                {
                  "internalType": "uint8",
                  "name": "movement",
                  "type": "uint8"
                },
                {
                  "internalType": "uint8",
                  "name": "damageReduction",
                  "type": "uint8"
                },
                {
                  "internalType": "uint8",
                  "name": "reactorCriticalTimer",
                  "type": "uint8"
                },
                {
                  "internalType": "uint8[]",
                  "name": "statusEffects",
                  "type": "uint8[]"
                }
              ],
              "internalType": "struct Attributes[]",
              "name": "shipAttributes",
              "type": "tuple[]"
            },
            {
              "components": [
                {
                  "internalType": "uint256",
                  "name": "shipId",
                  "type": "uint256"
                },
                {
                  "components": [
                    {
                      "internalType": "int16",
                      "name": "row",
                      "type": "int16"
                    },
                    {
                      "internalType": "int16",
                      "name": "col",
                      "type": "int16"
                    }
                  ],
                  "internalType": "struct Position",
                  "name": "position",
                  "type": "tuple"
                },
                {
                  "internalType": "bool",
                  "name": "isCreator",
                  "type": "bool"
                }
              ],
              "internalType": "struct ShipPosition[]",
              "name": "shipPositions",
              "type": "tuple[]"
            },
            {
              "internalType": "uint256[]",
              "name": "creatorActiveShipIds",
              "type": "uint256[]"
            },
            {
              "internalType": "uint256[]",
              "name": "joinerActiveShipIds",
              "type": "uint256[]"
            },
            {
              "internalType": "uint256[]",
              "name": "creatorMovedShipIds",
              "type": "uint256[]"
            },
            {
              "internalType": "uint256[]",
              "name": "joinerMovedShipIds",
              "type": "uint256[]"
            }
          ],
          "internalType": "struct GameDataView[]",
          "name": "",
          "type": "tuple[]"
        }
      ],
      "stateMutability": "view",
      "type": "function"
    },
    {
      "inputs": [
        {
          "internalType": "uint256[]",
          "name": "_gameIds",
          "type": "uint256[]"
        }
      ],
      "name": "getGamesFromIds",
      "outputs": [
        {
          "components": [
            {
              "components": [
                {
                  "internalType": "uint256",
                  "name": "gameId",
                  "type": "uint256"
                },
                {
                  "internalType": "uint256",
                  "name": "lobbyId",
                  "type": "uint256"
                },
                {
                  "internalType": "address",
                  "name": "creator",
                  "type": "address"
                },
                {
                  "internalType": "address",
                  "name": "joiner",
                  "type": "address"
                },
                {
                  "internalType": "uint256",
                  "name": "creatorFleetId",
                  "type": "uint256"
                },
                {
                  "internalType": "uint256",
                  "name": "joinerFleetId",
                  "type": "uint256"
                },
                {
                  "internalType": "bool",
                  "name": "creatorGoesFirst",
                  "type": "bool"
                },
                {
                  "internalType": "uint256",
                  "name": "startedAt",
                  "type": "uint256"
                },
                {
                  "internalType": "address",
                  "name": "winner",
                  "type": "address"
                }
              ],
              "internalType": "struct GameMetadata",
              "name": "metadata",
              "type": "tuple"
            },
            {
              "components": [
                {
                  "internalType": "address",
                  "name": "currentTurn",
                  "type": "address"
                },
                {
                  "internalType": "uint256",
                  "name": "turnTime",
                  "type": "uint256"
                },
                {
                  "internalType": "uint256",
                  "name": "turnStartTime",
                  "type": "uint256"
                },
                {
                  "internalType": "uint256",
                  "name": "currentRound",
                  "type": "uint256"
                }
              ],
              "internalType": "struct GameTurnState",
              "name": "turnState",
              "type": "tuple"
            },
            {
              "components": [
                {
                  "internalType": "int16",
                  "name": "gridWidth",
                  "type": "int16"
                },
                {
                  "internalType": "int16",
                  "name": "gridHeight",
                  "type": "int16"
                }
              ],
              "internalType": "struct GameGridDimensions",
              "name": "gridDimensions",
              "type": "tuple"
            },
            {
              "internalType": "uint256",
              "name": "maxScore",
              "type": "uint256"
            },
            {
              "internalType": "uint256",
              "name": "creatorScore",
              "type": "uint256"
            },
            {
              "internalType": "uint256",
              "name": "joinerScore",
              "type": "uint256"
            },
            {
              "components": [
                {
                  "internalType": "uint256",
                  "name": "shipId",
                  "type": "uint256"
                },
                {
                  "internalType": "int16",
                  "name": "oldRow",
                  "type": "int16"
                },
                {
                  "internalType": "int16",
                  "name": "oldCol",
                  "type": "int16"
                },
                {
                  "internalType": "int16",
                  "name": "newRow",
                  "type": "int16"
                },
                {
                  "internalType": "int16",
                  "name": "newCol",
                  "type": "int16"
                },
                {
                  "internalType": "enum ActionType",
                  "name": "actionType",
                  "type": "uint8"
                },
                {
                  "internalType": "uint256",
                  "name": "targetShipId",
                  "type": "uint256"
                },
                {
                  "internalType": "uint256",
                  "name": "timestamp",
                  "type": "uint256"
                }
              ],
              "internalType": "struct LastMove",
              "name": "lastMove",
              "type": "tuple"
            },
            {
              "internalType": "uint256[]",
              "name": "shipIds",
              "type": "uint256[]"
            },
            {
              "components": [
                {
                  "internalType": "uint16",
                  "name": "version",
                  "type": "uint16"
                },
                {
                  "internalType": "uint8",
                  "name": "range",
                  "type": "uint8"
                },
                {
                  "internalType": "uint8",
                  "name": "gunDamage",
                  "type": "uint8"
                },
                {
                  "internalType": "uint8",
                  "name": "hullPoints",
                  "type": "uint8"
                },
                {
                  "internalType": "uint8",
                  "name": "maxHullPoints",
                  "type": "uint8"
                },
                {
                  "internalType": "uint8",
                  "name": "movement",
                  "type": "uint8"
                },
                {
                  "internalType": "uint8",
                  "name": "damageReduction",
                  "type": "uint8"
                },
                {
                  "internalType": "uint8",
                  "name": "reactorCriticalTimer",
                  "type": "uint8"
                },
                {
                  "internalType": "uint8[]",
                  "name": "statusEffects",
                  "type": "uint8[]"
                }
              ],
              "internalType": "struct Attributes[]",
              "name": "shipAttributes",
              "type": "tuple[]"
            },
            {
              "components": [
                {
                  "internalType": "uint256",
                  "name": "shipId",
                  "type": "uint256"
                },
                {
                  "components": [
                    {
                      "internalType": "int16",
                      "name": "row",
                      "type": "int16"
                    },
                    {
                      "internalType": "int16",
                      "name": "col",
                      "type": "int16"
                    }
                  ],
                  "internalType": "struct Position",
                  "name": "position",
                  "type": "tuple"
                },
                {
                  "internalType": "bool",
                  "name": "isCreator",
                  "type": "bool"
                }
              ],
              "internalType": "struct ShipPosition[]",
              "name": "shipPositions",
              "type": "tuple[]"
            },
            {
              "internalType": "uint256[]",
              "name": "creatorActiveShipIds",
              "type": "uint256[]"
            },
            {
              "internalType": "uint256[]",
              "name": "joinerActiveShipIds",
              "type": "uint256[]"
            },
            {
              "internalType": "uint256[]",
              "name": "creatorMovedShipIds",
              "type": "uint256[]"
            },
            {
              "internalType": "uint256[]",
              "name": "joinerMovedShipIds",
              "type": "uint256[]"
            }
          ],
          "internalType": "struct GameDataView[]",
          "name": "",
          "type": "tuple[]"
        }
      ],
      "stateMutability": "view",
      "type": "function"
    },
    {
      "inputs": [
        {
          "internalType": "address",
          "name": "_player",
          "type": "address"
        }
      ],
      "name": "getPlayerGameIds",
      "outputs": [
        {
          "internalType": "uint256[]",
          "name": "",
          "type": "uint256[]"
        }
      ],
      "stateMutability": "view",
      "type": "function"
    },
    {
      "inputs": [
        {
          "internalType": "uint256",
          "name": "_gameId",
          "type": "uint256"
        },
        {
          "internalType": "uint256",
          "name": "_shipId",
          "type": "uint256"
        }
      ],
      "name": "getShipAttributes",
      "outputs": [
        {
          "components": [
            {
              "internalType": "uint16",
              "name": "version",
              "type": "uint16"
            },
            {
              "internalType": "uint8",
              "name": "range",
              "type": "uint8"
            },
            {
              "internalType": "uint8",
              "name": "gunDamage",
              "type": "uint8"
            },
            {
              "internalType": "uint8",
              "name": "hullPoints",
              "type": "uint8"
            },
            {
              "internalType": "uint8",
              "name": "maxHullPoints",
              "type": "uint8"
            },
            {
              "internalType": "uint8",
              "name": "movement",
              "type": "uint8"
            },
            {
              "internalType": "uint8",
              "name": "damageReduction",
              "type": "uint8"
            },
            {
              "internalType": "uint8",
              "name": "reactorCriticalTimer",
              "type": "uint8"
            },
            {
              "internalType": "uint8[]",
              "name": "statusEffects",
              "type": "uint8[]"
            }
          ],
          "internalType": "struct Attributes",
          "name": "",
          "type": "tuple"
        }
      ],
      "stateMutability": "view",
      "type": "function"
    },
    {
      "inputs": [
        {
          "internalType": "uint256",
          "name": "target",
          "type": "uint256"
        }
      ],
      "name": "lastDamage",
      "outputs": [
        {
          "internalType": "uint256",
          "name": "lastDamager",
          "type": "uint256"
        }
      ],
      "stateMutability": "view",
      "type": "function"
    },
    {
      "inputs": [],
      "name": "lobbiesAddress",
      "outputs": [
        {
          "internalType": "address",
          "name": "",
          "type": "address"
        }
      ],
      "stateMutability": "view",
      "type": "function"
    },
    {
      "inputs": [],
      "name": "maps",
      "outputs": [
        {
          "internalType": "contract IMaps",
          "name": "",
          "type": "address"
        }
      ],
      "stateMutability": "view",
      "type": "function"
    },
    {
      "inputs": [
        {
          "internalType": "uint256",
          "name": "_gameId",
          "type": "uint256"
        },
        {
          "internalType": "uint256",
          "name": "_shipId",
          "type": "uint256"
        },
        {
          "internalType": "int16",
          "name": "_newRow",
          "type": "int16"
        },
        {
          "internalType": "int16",
          "name": "_newCol",
          "type": "int16"
        },
        {
          "internalType": "enum ActionType",
          "name": "actionType",
          "type": "uint8"
        },
        {
          "internalType": "uint256",
          "name": "targetShipId",
          "type": "uint256"
        }
      ],
      "name": "moveShip",
      "outputs": [],
      "stateMutability": "nonpayable",
      "type": "function"
    },
    {
      "inputs": [],
      "name": "owner",
      "outputs": [
        {
          "internalType": "address",
          "name": "",
          "type": "address"
        }
      ],
      "stateMutability": "view",
      "type": "function"
    },
    {
      "inputs": [
        {
          "internalType": "address",
          "name": "",
          "type": "address"
        },
        {
          "internalType": "uint256",
          "name": "",
          "type": "uint256"
        }
      ],
      "name": "playerGames",
      "outputs": [
        {
          "internalType": "uint256",
          "name": "",
          "type": "uint256"
        }
      ],
      "stateMutability": "view",
      "type": "function"
    },
    {
      "inputs": [],
      "name": "renounceOwnership",
      "outputs": [],
      "stateMutability": "nonpayable",
      "type": "function"
    },
    {
      "inputs": [
        {
          "internalType": "address",
          "name": "_mapsAddress",
          "type": "address"
        },
        {
          "internalType": "address",
          "name": "_lobbiesAddress",
          "type": "address"
        },
        {
          "internalType": "address",
          "name": "_fleetsAddress",
          "type": "address"
        },
        {
          "internalType": "address",
          "name": "_gameResultsAddress",
          "type": "address"
        },
        {
          "internalType": "address",
          "name": "_shipAttributesAddress",
          "type": "address"
        }
      ],
      "name": "setAddresses",
      "outputs": [],
      "stateMutability": "nonpayable",
      "type": "function"
    },
    {
      "inputs": [],
      "name": "shipAttributes",
      "outputs": [
        {
          "internalType": "contract IShipAttributes",
          "name": "",
          "type": "address"
        }
      ],
      "stateMutability": "view",
      "type": "function"
    },
    {
      "inputs": [],
      "name": "ships",
      "outputs": [
        {
          "internalType": "contract IShips",
          "name": "",
          "type": "address"
        }
      ],
      "stateMutability": "view",
      "type": "function"
    },
    {
      "inputs": [
        {
          "internalType": "uint256",
          "name": "_lobbyId",
          "type": "uint256"
        },
        {
          "internalType": "address",
          "name": "_creator",
          "type": "address"
        },
        {
          "internalType": "address",
          "name": "_joiner",
          "type": "address"
        },
        {
          "internalType": "uint256",
          "name": "_creatorFleetId",
          "type": "uint256"
        },
        {
          "internalType": "uint256",
          "name": "_joinerFleetId",
          "type": "uint256"
        },
        {
          "internalType": "bool",
          "name": "_creatorGoesFirst",
          "type": "bool"
        },
        {
          "internalType": "uint256",
          "name": "_turnTime",
          "type": "uint256"
        },
        {
          "internalType": "uint256",
          "name": "_selectedMapId",
          "type": "uint256"
        },
        {
          "internalType": "uint256",
          "name": "_maxScore",
          "type": "uint256"
        }
      ],
      "name": "startGame",
      "outputs": [],
      "stateMutability": "nonpayable",
      "type": "function"
    },
    {
      "inputs": [
        {
          "internalType": "address",
          "name": "newOwner",
          "type": "address"
        }
      ],
      "name": "transferOwnership",
      "outputs": [],
      "stateMutability": "nonpayable",
      "type": "function"
    }
  ],
  "bytecode": "0x608060405234801561001057600080fd5b5060405161612f38038061612f83398101604081905261002f916100fc565b338061005557604051631e4fbdf760e01b81526000600482015260240160405180910390fd5b61005e81610090565b50600180546001600160a01b039384166001600160a01b0319918216179091556003805492909316911617905561012f565b600080546001600160a01b038381166001600160a01b0319831681178455604051919092169283917f8be0079c531659141344cd1fd0a4f28419497f9722a3daafe3b4186f6b6457e09190a35050565b80516001600160a01b03811681146100f757600080fd5b919050565b6000806040838503121561010f57600080fd5b610118836100e0565b9150610126602084016100e0565b90509250929050565b615ff18061013e6000396000f3fe608060405234801561001057600080fd5b50600436106102115760003560e01c8063715018a611610125578063bbf8218a116100ad578063e88f1c3e1161007c578063e88f1c3e146104b1578063e8d64aee146104c4578063ecd1406d146104d7578063edf59b3c146104ea578063f2fde38b146104fd57600080fd5b8063bbf8218a14610465578063beaa8fa414610478578063ce720bca1461048b578063d78ffe581461049e57600080fd5b80638da5cb5b116100f45780638da5cb5b146103ee57806390de1d9b146103ff5780639c91fe671461041f578063a2f77bcc14610432578063b0a586021461045257600080fd5b8063715018a6146103ad5780637b2fe23b146103b55780637c767cb9146103c857806384cb37ea146103db57600080fd5b806341f5f5e9116101a85780634d1975b4116101775780634d1975b41461034b57806355cebda814610354578063566adcd0146103675780635dd68acd146103875780636eb0f9d21461039a57600080fd5b806341f5f5e9146102fd578063423bb46f1461031057806348915d91146103305780634bf11ad21461034357600080fd5b8063235e78eb116101e4578063235e78eb14610284578063336d7d7b1461029f5780633deaec2b146102ca5780633e7d9688146102dd57600080fd5b80630a5694c2146102165780630aa1b2661461023c578063100017cb1461025c57806318d7261d14610271575b600080fd5b610229610224366004614d99565b610510565b6040519081526020015b60405180910390f35b61024f61024a366004614dc5565b610541565b604051610233919061523f565b61026f61026a3660046152a4565b610560565b005b61026f61027f3660046152a4565b610576565b61028c601181565b60405160019190910b8152602001610233565b6005546102b2906001600160a01b031681565b6040516001600160a01b039091168152602001610233565b6004546102b2906001600160a01b031681565b6102f06102eb3660046152c6565b6105a9565b60405161023391906152df565b6003546102b2906001600160a01b031681565b61032361031e3660046152a4565b6105cc565b6040516102339190615317565b6002546102b2906001600160a01b031681565b61028c600b81565b61022960085481565b61026f6103623660046152a4565b61071d565b61037a6103753660046152c6565b610891565b604051610233919061532a565b61026f61039536600461533d565b610a67565b61024f6103a83660046154f1565b610ace565b61026f610b81565b6102f06103c3366004614dc5565b610b95565b61026f6103d6366004615534565b610c01565b61026f6103e93660046152c6565b610ca3565b6000546001600160a01b03166102b2565b61022961040d3660046152c6565b600a6020526000908152604090205481565b61026f61042d36600461557e565b610d9b565b6104456104403660046152c6565b610dd7565b60405161023391906155c4565b61026f6104603660046152c6565b611541565b6001546102b2906001600160a01b031681565b61026f6104863660046155d7565b611555565b6006546102b2906001600160a01b031681565b61026f6104ac3660046152c6565b611bd6565b61026f6104bf3660046152c6565b611cc0565b61026f6104d2366004615650565b611cd1565b61026f6104e53660046156e5565b611f05565b61026f6104f83660046152a4565b611f48565b61026f61050b366004614dc5565b611f6b565b6009602052816000526040600020818154811061052c57600080fd5b90600052602060002001600091509150505481565b6060600061054e83610b95565b905061055981610ace565b9392505050565b610568611fab565b6105728282611fd8565b5050565b61057e611fab565b60008281526007602052604090206105968383611fe4565b6105a3816018018361201f565b50505050565b60008181526007602052604090206060906105c690601a0161202b565b92915050565b6105d46149cd565b6105dd836120c2565b600083815260076020908152604080832085845260150190915281208054909161ffff9091169003610622576040516303c113ad60e61b815260040160405180910390fd5b6040805161012081018252825461ffff8116825260ff620100008204811660208085019190915263010000008304821684860152600160201b830482166060850152600160281b830482166080850152600160301b8304821660a0850152600160381b8304821660c0850152600160401b9092041660e08301526001840180548451818402810184019095528085529293859361010086019391929183018282801561070b57602002820191906000526020600020906000905b825461010083900a900460ff168152602060019283018181049485019490930390920291018084116106dc5790505b50505050508152505091505092915050565b600082815260076020908152604080832084845260158101909252808320600354915163e197c62760e01b8152600481018690529293909290916001600160a01b03169063e197c62790602401600060405180830381865afa158015610787573d6000803e3d6000fd5b505050506040513d6000823e601f3d908101601f191682016040526107af91908101906157a7565b8051835460208084015160408501516060860151608087015160a088015160c089015160ff908116600160381b0267ff0000000000000019928216600160301b0266ff00000000000019948316600160281b029490941666ffff000000000019958316600160201b0264ff00000000199784166301000000029790971664ffff0000001993909816620100000262ffffff19909a1661ffff909b169a909a17989098171694909417929092171694909417939093179290921617845561010082015180519293506108899260018601929190910190614a1b565b505050505050565b606061089c826120c2565b600082815260076020526040812090805b600b600182900b12156109255760005b6011600182900b121561091c57600182810b600090815260168601602090815260408083209385900b8352929052205480158015906109005750610900816120f0565b15610913578361090f816158b7565b9450505b506001016108bd565b506001016108ad565b506000816001600160401b03811115610940576109406153ae565b60405190808252806020026020018201604052801561097957816020015b610966614ac1565b81526020019060019003908161095e5790505b5090506000805b600b600182900b1215610a5c5760005b6011600182900b1215610a5357600182810b600090815260168801602090815260408083209385900b8352929052205480158015906109d357506109d3816120f0565b15610a4a5760006109e48a83612165565b9050604051806060016040528083815260200160405180604001604052808760010b81526020018660010b8152508152602001821515815250868681518110610a2f57610a2f6158d0565b60200260200101819052508480610a45906158b7565b955050505b50600101610990565b50600101610980565b509095945050505050565b610a6f611fab565b600480546001600160a01b03199081166001600160a01b03978816179091556005805482169587169590951790945560028054851693861693909317909255600680548416918516919091179055600380549092169216919091179055565b6060600082516001600160401b03811115610aeb57610aeb6153ae565b604051908082528060200260200182016040528015610b2457816020015b610b11614b03565b815260200190600190039081610b095790505b50905060005b8351811015610b7a57610b55848281518110610b4857610b486158d0565b6020026020010151610dd7565b828281518110610b6757610b676158d0565b6020908102919091010152600101610b2a565b5092915050565b610b89611fab565b610b9360006121a1565b565b6001600160a01b038116600090815260096020908152604091829020805483518184028101840190945280845260609392830182828015610bf557602002820191906000526020600020905b815481526020019060010190808311610be1575b50505050509050919050565b610c09611fab565b6000938452600760209081526040808620858752601781018084528288208054600181810b8b526016909401808752858b206201000092839004860b8c528752858b208b90558551808701875298850b808a529790940b8887018181528a8c5293875297518254935161ffff90811690920263ffffffff199094169116179190911790559286529181528185209285529190915290912055565b600081815260076020526040902060088101546001600160a01b031615610cdd576040516321e08b4d60e21b815260040160405180910390fd5b60028101546001600160a01b03163314801590610d07575060038101546001600160a01b03163314155b15610d255760405163218286cb60e11b815260040160405180910390fd5b60028101546000906001600160a01b03163314610d4f5760028201546001600160a01b0316610d5e565b60038201546001600160a01b03165b9050610d6b8382336121f1565b60405183907f6a3ca207a2adb9eea136eff413ec2c22f745a146fe60eed5f593fbacb99347d390600090a2505050565b60005b8151811015610dd257610dca83838381518110610dbd57610dbd6158d0565b602002602001015161071d565b600101610d9e565b505050565b610ddf614b03565b610de8826120c2565b600082815260076020908152604080832060028101546001600160a01b039081168552601c8201909352818420600382015490931684529083209092610e2d8361202b565b90506000610e3a8361202b565b9050600081518351610e4c91906158e6565b90506000816001600160401b03811115610e6857610e686153ae565b604051908082528060200260200182016040528015610ea157816020015b610e8e6149cd565b815260200190600190039081610e865790505b5090506000826001600160401b03811115610ebe57610ebe6153ae565b604051908082528060200260200182016040528015610ee7578160200160208202803683370190505b50905060005b855181101561107257886015016000878381518110610f0e57610f0e6158d0565b6020908102919091018101518252818101929092526040908101600020815161012081018352815461ffff8116825260ff62010000820481168387015263010000008204811683860152600160201b820481166060840152600160281b820481166080840152600160301b8204811660a0840152600160381b8204811660c0840152600160401b9091041660e08201526001820180548451818702810187019095528085529194929361010086019390929083018282801561100d57602002820191906000526020600020906000905b825461010083900a900460ff16815260206001928301818104948501949093039092029101808411610fde5790505b505050505081525050838281518110611028576110286158d0565b6020026020010181905250858181518110611045576110456158d0565b602002602001015182828151811061105f5761105f6158d0565b6020908102919091010152600101610eed565b5060005b845181101561121357886015016000868381518110611097576110976158d0565b6020908102919091018101518252818101929092526040908101600020815161012081018352815461ffff8116825260ff62010000820481168387015263010000008204811683860152600160201b820481166060840152600160281b820481166080840152600160301b8204811660a0840152600160381b8204811660c0840152600160401b9091041660e08201526001820180548451818702810187019095528085529194929361010086019390929083018282801561119657602002820191906000526020600020906000905b825461010083900a900460ff168152602060019283018181049485019490930390920291018084116111675790505b505050505081525050838288516111ad91906158e6565b815181106111bd576111bd6158d0565b60200260200101819052508481815181106111da576111da6158d0565b6020026020010151828288516111f091906158e6565b81518110611200576112006158d0565b6020908102919091010152600101611076565b50600061121f8b610891565b60028a015490915060009061123e908d906001600160a01b03166122db565b60038b015490915060009061125d908e906001600160a01b03166122db565b9050604051806101c001604052808c6000016040518061012001604052908160008201548152602001600182015481526020016002820160009054906101000a90046001600160a01b03166001600160a01b03166001600160a01b031681526020016003820160009054906101000a90046001600160a01b03166001600160a01b03166001600160a01b0316815260200160048201548152602001600582015481526020016006820160009054906101000a900460ff16151515158152602001600782015481526020016008820160009054906101000a90046001600160a01b03166001600160a01b03166001600160a01b03168152505081526020018c6009016040518060800160405290816000820160009054906101000a90046001600160a01b03166001600160a01b03166001600160a01b03168152602001600182015481526020016002820154815260200160038201548152505081526020018c600d016040518060400160405290816000820160009054906101000a900460010b60010b60010b81526020016000820160029054906101000a900460010b60010b60010b8152505081526020018c600e015481526020018c600f015481526020018c6010015481526020018c60110160405180610100016040529081600082015481526020016001820160009054906101000a900460010b60010b60010b81526020016001820160029054906101000a900460010b60010b60010b81526020016001820160049054906101000a900460010b60010b60010b81526020016001820160069054906101000a900460010b60010b60010b81526020016001820160089054906101000a900460ff1660058111156114d9576114d9614e62565b60058111156114ea576114ea614e62565b8152602001600282015481526020016003820154815250508152602001858152602001868152602001848152602001898152602001888152602001838152602001828152509b505050505050505050505050919050565b611549611fab565b61155281612408565b50565b61155e866120c2565b600086815260076020526040902060088101546001600160a01b031615611598576040516321e08b4d60e21b815260040160405180910390fd5b60098101546001600160a01b031633146115c557604051631cc191eb60e31b815260040160405180910390fd5b60006115d087612498565b60a08101519091506001600160a01b0316331461160057604051630b18e5d760e21b815260040160405180910390fd5b6000878152601583016020526040812080549091600160201b90910460ff16900361163e576040516398586ca160e01b815260040160405180910390fd5b60025460048481015460405162b5e41160e51b815291820152602481018a90526001600160a01b03909116906316bc822090604401602060405180830381865afa158015611690573d6000803e3d6000fd5b505050506040513d601f19601f820116820180604052508101906116b49190615904565b15801561173c5750600254600584015460405162b5e41160e51b81526001600160a01b03909216916316bc8220916116f9918c90600401918252602082015260400190565b602060405180830381865afa158015611716573d6000803e3d6000fd5b505050506040513d601f19601f8201168201806040525081019061173a9190615904565b155b1561175a576040516303c113ad60e61b815260040160405180910390fd5b6117678360180189612561565b1561178557604051637d64fb5d60e01b815260040160405180910390fd5b6000888152601784016020526040812080549091600182810b92620100009004810b91908b900b831480156117c75750835460018b810b62010000909204900b145b9050806118e5576040805180820182528554600181810b835262010000909104810b60208084019190915283518085019094528e820b8452908d900b908301526000916118149190612579565b60008e815260158a016020526040902080549192509060ff600160301b90910481169083161115611858576040516321e08b4d60e21b815260040160405180910390fd5b600b60018e900b1215806118715750601160018d900b12155b1561188f5760405163673f032f60e11b815260040160405180910390fd5b8860160160008e60010b60010b815260200190815260200160002060008d60010b60010b8152602001908152602001600020546000146118e257604051638243205760e01b815260040160405180910390fd5b50505b806119fb5760008760160160008660000160009054906101000a900460010b60010b60010b815260200190815260200160002060008660000160029054906101000a900460010b60010b60010b8152602001908152602001600020819055508b8760160160008d60010b60010b815260200190815260200160002060008c60010b60010b81526020019081526020016000208190555060405180604001604052808c60010b81526020018b60010b8152508760170160008e815260200190815260200160002060008201518160000160006101000a81548161ffff021916908360010b61ffff16021790555060208201518160000160026101000a81548161ffff021916908360010b61ffff1602179055509050505b611a08876018018d61260d565b50611a18878e8e8e8e8e8e612619565b611a218d61275c565b15611a3457611a2f8d6127fb565b611a3d565b611a3d8d612892565b4287600901600201819055506040518061010001604052808d81526020018460010b81526020018360010b81526020018c60010b81526020018b60010b81526020018a6005811115611a9157611a91614e62565b815260208082018b905242604092830152825160118b019081559083015160128b018054938501516060860151608087015161ffff908116600160301b0267ffff00000000000019928216600160201b029290921667ffffffff0000000019938216620100000263ffffffff1990981691909516179590951716919091179290921780835560a084015191929060ff60401b1916600160401b836005811115611b3c57611b3c614e62565b021790555060c0820151816002015560e082015181600301559050508c7f8616d884e76378dabf68f6048a294fb93ec62a579068ada00ef52b7b88511c528d85858f8f8f8f604051611b949796959493929190615921565b60405180910390a26040518d907f6a3ca207a2adb9eea136eff413ec2c22f745a146fe60eed5f593fbacb99347d390600090a250505050505050505050505050565b611bdf816120c2565b611be8816129ac565b611c055760405163023e733b60e61b815260040160405180910390fd5b600081815260076020526040902060098101546001600160a01b03163303611c4057604051631cc191eb60e31b815260040160405180910390fd5b60028101546001600160a01b03163314801590611c6a575060038101546001600160a01b03163314155b15611c885760405163218286cb60e11b815260040160405180910390fd5b611c9182612408565b60405182907f6a3ca207a2adb9eea136eff413ec2c22f745a146fe60eed5f593fbacb99347d390600090a25050565b611cc8611fab565b611552816129d7565b6005546001600160a01b03163314611cfc57604051638671306560e01b815260040160405180910390fd5b60088054906000611d0c836158b7565b90915550506008546000818152600760208190526040909120918255600182018b90556002820180546001600160a01b03808d166001600160a01b031992831617909255600384018054928c1692909116919091179055600482018890556005820187905560068201805487151560ff19909116179055429082015584611d935787611d95565b885b6009820180546001600160a01b0319166001600160a01b0392909216919091179055600a810184905542600b8201556001600c820155600d8101805463ffffffff1916620b0011179055600e81018290558215611e515760048054600854604051636a5257fd60e11b815292830152602482018590526001600160a01b03169063d4a4affa90604401600060405180830381600087803b158015611e3857600080fd5b505af1158015611e4c573d6000803e3d6000fd5b505050505b611e5e6008548888612a8d565b611e6b6008548888612c60565b6001600160a01b038981166000818152600960209081526040808320600880548254600180820185559387528587200155958e16808552828520875481549384018255908652948490209091019390935593548451938452908301919091528c9290917f9f0b80476ce7b05cfe8b0800d21f0b0f2704c8eb948fa5d5e87997ec901f96d1910160405180910390a350505050505050505050565b611f0d611fab565b6000928352600760209081526040808520938552601590930190529120805460ff909216600160401b0260ff60401b19909216919091179055565b611f50611fab565b60008281526007602052604090206105a3601882018361260d565b611f73611fab565b6001600160a01b038116611fa257604051631e4fbdf760e01b8152600060048201526024015b60405180910390fd5b611552816121a1565b6000546001600160a01b03163314610b935760405163118cdaa760e01b8152336004820152602401611f99565b61057282826000612e21565b6000828152600760208181526040808420858552601581018352908420805464ff00000000191690559285905252610dd290601a018261260d565b600061055983836131af565b60606000612038836132a2565b90506000816001600160401b03811115612054576120546153ae565b60405190808252806020026020018201604052801561207d578160200160208202803683370190505b50905060005b828110156120ba5761209585826132ac565b8282815181106120a7576120a76158d0565b6020908102919091010152600101612083565b509392505050565b6000818152600760205260408120549003611552576040516309b3c62760e21b815260040160405180910390fd5b600154604051639596010160e01b8152600481018390526000916001600160a01b031690639596010190602401602060405180830381865afa15801561213a573d6000803e3d6000fd5b505050506040513d601f19601f8201168201806040525081019061215e9190615904565b1592915050565b600082815260076020908152604080832060028101546001600160a01b03168452601c810190925282206121999084612561565b949350505050565b600080546001600160a01b038381166001600160a01b0319831681178455604051919092169283917f8be0079c531659141344cd1fd0a4f28419497f9722a3daafe3b4186f6b6457e09190a35050565b60008381526007602052604090206008810180546001600160a01b0319166001600160a01b038581169190911790915560065416156122995760065460405163d6c6eb9f60e01b8152600481018690526001600160a01b03858116602483015284811660448301529091169063d6c6eb9f90606401600060405180830381600087803b15801561228057600080fd5b505af1158015612294573d6000803e3d6000fd5b505050505b600281015460048201546122ba9186916001600160a01b03909116906132b8565b600381015460058201546105a39186916001600160a01b03909116906132b8565b60008281526007602090815260408083206001600160a01b0385168452601c810190925282206060928061230e836132a2565b905060005b8181101561235257600061232785836132ac565b90506123368660180182612561565b156123495783612345816158b7565b9450505b50600101612313565b506000826001600160401b0381111561236d5761236d6153ae565b604051908082528060200260200182016040528015612396578160200160208202803683370190505b5090506000805b838110156123fa5760006123b187836132ac565b90506123c08860180182612561565b156123f157808484815181106123d8576123d86158d0565b6020908102919091010152826123ed816158b7565b9350505b5060010161239d565b509098975050505050505050565b6000818152600760205260409020600281015460098201546001600160a01b0391821691160361245057600281015461244b9083906001600160a01b0316613375565b612469565b60038101546124699083906001600160a01b0316613375565b6124728261275c565b1561248557612480826127fb565b61248e565b61248e82612892565b42600b9091015550565b6124a0614c30565b600154604051634025b22d60e01b8152600481018490526000916001600160a01b031690634025b22d90602401600060405180830381865afa1580156124ea573d6000803e3d6000fd5b505050506040513d6000823e601f3d908101601f191682016040526125129190810190615bfb565b90508060200151600003612539576040516303c113ad60e61b815260040160405180910390fd5b60808101516101000151156105c6576040516398586ca160e01b815260040160405180910390fd5b60008181526001830160205260408120541515610559565b600080826000015160010b846000015160010b136125a4578351835161259f9190615d2c565b6125b2565b825184516125b29190615d2c565b90506000836020015160010b856020015160010b136125e457846020015184602001516125df9190615d2c565b6125f8565b836020015185602001516125f89190615d2c565b90506126048183615d4f565b95945050505050565b600061055983836133fe565b600154604051634025b22d60e01b8152600481018790526000916001600160a01b031690634025b22d90602401600060405180830381865afa158015612663573d6000803e3d6000fd5b505050506040513d6000823e601f3d908101601f1916820160405261268b9190810190615bfb565b905061269d878260a00151878761344d565b60008360058111156126b1576126b1614e62565b146127525760018360058111156126ca576126ca614e62565b036126e3576126de888888888887876135fb565b612752565b60028360058111156126f7576126f7614e62565b03612706576126de87876138c3565b600383600581111561271a5761271a614e62565b0361272c576126de87878787866138cf565b600483600581111561274057612740614e62565b03612752576127528787878786613a6e565b5050505050505050565b600081815260076020908152604080832060038101546001600160a01b03168452601c810190925282208290612791906132a2565b60028301546001600160a01b03166000908152601c8401602052604090206127b8906132a2565b6127c291906158e6565b905060006127d2836018016132a2565b905060006127e284601a016132a2565b9050826127ef82846158e6565b10159695505050505050565b600081815260076020526040902061281282613b75565b600c81018054906000612824836158b7565b919050555061283581601801613bcf565b61283e826129d7565b600681015460ff1661285d5760038101546001600160a01b031661286c565b60028101546001600160a01b03165b60099190910180546001600160a01b0319166001600160a01b0390921691909117905550565b6000818152600760205260409020600281015460098201546001600160a01b039182169116036129345760038101546000906128d89084906001600160a01b0316613bd8565b60028301549091506000906128f79085906001600160a01b0316613c6c565b90508180612903575080155b156105a35760038301546009840180546001600160a01b0319166001600160a01b0390921691909117905550505050565b60028101546000906129509084906001600160a01b0316613bd8565b600383015490915060009061296f9085906001600160a01b0316613c6c565b9050818061297b575080155b156105a35760028301546009840180546001600160a01b0319166001600160a01b0390921691909117905550505050565b6000818152600760205260408120600a810154600b8201546129ce91906158e6565b42119392505050565b6000818152600760205260408120906129f2601a83016132a2565b905060005b818110156105a3576000612a0e84601a01836132ac565b9050612a19816120f0565b8015612a3d57506000818152601585016020526040902054600160201b900460ff16155b15612a8457600081815260158501602052604090208054600160401b900460ff16906008612a6a83615d68565b91906101000a81548160ff021916908360ff160217905550505b506001016129f7565b60008381526007602052604080822060025491516348eef38560e11b8152600481018690529092916001600160a01b0316906391dde70a90602401600060405180830381865afa158015612ae5573d6000803e3d6000fd5b505050506040513d6000823e601f3d908101601f19168201604052612b0d9190810190615e21565b50905060005b8151811015612b7f5760028301546001600160a01b03166000908152601c8401602052604090208251612b609190849084908110612b5357612b536158d0565b602002602001015161260d565b50612b7786838381518110610dbd57610dbd6158d0565b600101612b13565b506002546040516348eef38560e11b8152600481018590526000916001600160a01b0316906391dde70a90602401600060405180830381865afa158015612bca573d6000803e3d6000fd5b505050506040513d6000823e601f3d908101601f19168201604052612bf29190810190615e21565b50905060005b8151811015612c575760038401546001600160a01b03166000908152601c8501602052604090208251612c389190849084908110612b5357612b536158d0565b50612c4f87838381518110610dbd57610dbd6158d0565b600101612bf8565b50505050505050565b6002546040516348eef38560e11b81526004810184905260009182916001600160a01b03909116906391dde70a90602401600060405180830381865afa158015612cae573d6000803e3d6000fd5b505050506040513d6000823e601f3d908101601f19168201604052612cd69190810190615e21565b9150915060005b8251811015612d40576000838281518110612cfa57612cfa6158d0565b602002602001015190506000838381518110612d1857612d186158d0565b60200260200101519050612d36888383600001518460200151613cdd565b5050600101612cdd565b506002546040516348eef38560e11b81526004810185905260009182916001600160a01b03909116906391dde70a90602401600060405180830381865afa158015612d8f573d6000803e3d6000fd5b505050506040513d6000823e601f3d908101601f19168201604052612db79190810190615e21565b9150915060005b8251811015612752576000838281518110612ddb57612ddb6158d0565b602002602001015190506000838381518110612df957612df96158d0565b60200260200101519050612e178a8383600001518460200151613cdd565b5050600101612dbe565b612e2a836120c2565b600083815260076020526040812090612e4284612498565b60025460048481015460405162b5e41160e51b815291820152602481018790529192506000916001600160a01b03909116906316bc822090604401602060405180830381865afa158015612e9a573d6000803e3d6000fd5b505050506040513d601f19601f82011682018060405250810190612ebe9190615904565b600254600585015460405162b5e41160e51b81529293506000926001600160a01b03909216916316bc822091612f01918a90600401918252602082015260400190565b602060405180830381865afa158015612f1e573d6000803e3d6000fd5b505050506040513d601f19601f82011682018060405250810190612f429190615904565b905081158015612f50575080155b15612f6e576040516303c113ad60e61b815260040160405180910390fd5b6080830151610100015115612f96576040516398586ca160e01b815260040160405180910390fd5b600086815260178501602090815260408083208054600181810b865260168a01855283862062010000909204900b8552909252822091909155612fdc601886018861201f565b50612fea85601a018861201f565b508515613125578215613064576002546004868101546040516327ffe52160e01b815291820152602481018990526001600160a01b03909116906327ffe52190604401600060405180830381600087803b15801561304757600080fd5b505af115801561305b573d6000803e3d6000fd5b505050506130d5565b60025460058601546040516327ffe52160e01b81526001600160a01b03909216916327ffe521916130a2918b90600401918252602082015260400190565b600060405180830381600087803b1580156130bc57600080fd5b505af11580156130d0573d6000803e3d6000fd5b505050505b60008781526015860160205260408120805468ffffffffffffffffff19168155906131036001830182614d4e565b505060008781526017860160205260409020805463ffffffff1916905561319c565b6001546000888152600a6020526040908190205490516311a960cd60e01b8152600481018a905260248101919091526001600160a01b03909116906311a960cd90604401600060405180830381600087803b15801561318357600080fd5b505af1158015613197573d6000803e3d6000fd5b505050505b6131a68888613dcd565b61275288613e2b565b600081815260018301602052604081205480156132985760006131d3600183615ed9565b85549091506000906131e790600190615ed9565b905080821461324c576000866000018281548110613207576132076158d0565b906000526020600020015490508087600001848154811061322a5761322a6158d0565b6000918252602080832090910192909255918252600188019052604090208390555b855486908061325d5761325d615eec565b6001900381819060005260206000200160009055905585600101600086815260200190815260200160002060009055600193505050506105c6565b60009150506105c6565b60006105c6825490565b60006105598383613eb7565b60008381526007602090815260408083206001600160a01b0386168452601c8101909252822090916132e9826132a2565b905060005b81811015612c5757600061330284836132ac565b6002546040516327ffe52160e01b815260048101899052602481018390529192506001600160a01b0316906327ffe52190604401600060405180830381600087803b15801561335057600080fd5b505af1158015613364573d6000803e3d6000fd5b5050600190930192506132ee915050565b60008281526007602090815260408083206001600160a01b0385168452601c8101909252822090916133a6826132a2565b905060005b818110156108895760006133bf84836132ac565b90506133cb8782613ee1565b80156133e157506133df8560180182612561565b155b156133f5576133f3856018018261260d565b505b506001016133ab565b6000818152600183016020526040812054613445575081546001818101845560008481526020808220909301849055845484825282860190935260409020919091556105c6565b5060006105c6565b600084815260076020526040808220600480549251630349370d60e41b8152908101889052600186810b602483015285900b60448201529092916001600160a01b03169063349370d0906064016020604051808303816000875af11580156134b9573d6000803e3d6000fd5b505050506040513d601f19601f820116820180604052508101906134dd9190615f02565b905060ff8116156108895760028201546001600160a01b0390811690861603613522578060ff1682600f01600082825461351791906158e6565b909155506135579050565b60038201546001600160a01b0390811690861603613557578060ff1682601001600082825461355191906158e6565b90915550505b81600e015482600f0154101580613576575081600e0154826010015410155b15610889576000826010015483600f015410156135a05760038301546001600160a01b03166135af565b60028301546001600160a01b03165b60028401549091506000906001600160a01b038084169116146135df5760028401546001600160a01b03166135ee565b60038401546001600160a01b03165b90506127528883836121f1565b600061360683612498565b90508160a001516001600160a01b03168160a001516001600160a01b031603613642576040516321e08b4d60e21b815260040160405180910390fd5b604080518082018252600187810b825286810b602080840191909152600087815260178d0182528481208551808701909652805480850b875262010000900490930b91850191909152919290919061369b908490612579565b60008a815260158d016020526040902080549192509060ff62010000909104811690831611156136de576040516321e08b4d60e21b815260040160405180910390fd5b60018260ff161180156137835750600480548454604051638383c99560e01b81529283018e905260018c810b60248501528b810b604485015281810b606485015262010000909104900b60848301526001600160a01b031690638383c9959060a401602060405180830381865afa15801561375d573d6000803e3d6000fd5b505050506040513d601f19601f820116820180604052508101906137819190615904565b155b156137a1576040516321e08b4d60e21b815260040160405180910390fd5b600087815260158d016020526040812080549091600160201b90910460ff169003613802578054600160401b900460ff168160086137de83615d68565b91906101000a81548160ff021916908360ff16021790555050505050505050612c57565b8154815460ff6301000000909204821691600160381b909104166000606461382a8385615f1f565b6138349190615f3c565b6138419060ff8516615f6e565b8454909150600160201b900460ff1661ffff82161061387a576138648f8c611fe4565b60008b8152600a602052604090208e90556138b1565b835481908590600490613898908490600160201b900460ff16615f88565b92506101000a81548160ff021916908360ff1602179055505b50505050505050505050505050505050565b61057282826001612e21565b6138d8856120c2565b6000858152600760205260408120906138f083612498565b600154604051634025b22d60e01b8152600481018990529192506000916001600160a01b0390911690634025b22d90602401600060405180830381865afa15801561393f573d6000803e3d6000fd5b505050506040513d6000823e601f3d908101601f191682016040526139679190810190615bfb565b90508060a001516001600160a01b03168260a001516001600160a01b0316146139a3576040516321e08b4d60e21b815260040160405180910390fd5b600084815260158401602052604090208054600160201b900460ff16156139dd576040516321e08b4d60e21b815260040160405180910390fd5b600085815260178501602090815260408083208151808301835260018c810b82528b810b828601528351808501909452825480820b8552620100009004900b938301939093529290613a30908390612579565b90508060ff16600114613a56576040516321e08b4d60e21b815260040160405180910390fd5b613a608c896138c3565b505050505050505050505050565b600154604051634025b22d60e01b8152600481018690526000916001600160a01b031690634025b22d90602401600060405180830381865afa158015613ab8573d6000803e3d6000fd5b505050506040513d6000823e601f3d908101601f19168201604052613ae09190810190615bfb565b905060008160400151606001516007811115613afe57613afe614e62565b03613b1c576040516321e08b4d60e21b815260040160405180910390fd5b613b24614c30565b60038260400151606001516007811115613b4057613b40614e62565b14613b5157613b4e83612498565b90505b613b5f878686868686613fb9565b612c5787878787878760400151606001516140cb565b60008181526007602052604081209080613b8e8361413c565b9150915060005b81811015613bc857613bc085848381518110613bb357613bb36158d0565b6020026020010151611fd8565b600101613b95565b5050505050565b611552816142d4565b60008281526007602090815260408083206001600160a01b0385168452601c8101909252822082613c08826132a2565b905060005b81811015613c5f576000613c2184836132ac565b9050613c2d8882613ee1565b8015613c435750613c418560180182612561565b155b15613c56576001955050505050506105c6565b50600101613c0d565b5060009695505050505050565b60008281526007602090815260408083206001600160a01b0385168452601c8101909252822082613c9c826132a2565b905060005b81811015613c5f576000613cb584836132ac565b9050613cc18882613ee1565b15613cd4576001955050505050506105c6565b50600101613ca1565b6000848152600760205260409020600b600184900b121580613d0457506011600183900b12155b15613d225760405163673f032f60e11b815260040160405180910390fd5b600183810b600090815260168301602090815260408083209386900b8352929052205415613d6357604051638243205760e01b815260040160405180910390fd5b600192830b600081815260168301602090815260408083209590960b8083529481528582208790558551808701875292835282810194855295815260179092019094529190912091518254915161ffff908116620100000263ffffffff1990931691161717905550565b600082815260076020908152604080832060028101546001600160a01b03168452601c8101909252909120613e02908361201f565b5060038101546001600160a01b03166000908152601c8201602052604090206105a3908361201f565b60008181526007602052604090206002810154613e529083906001600160a01b0316614336565b613e7857600381015460028201546105729184916001600160a01b0391821691166121f1565b6003810154613e919083906001600160a01b0316614336565b61057257600281015460038201546105729184916001600160a01b0391821691166121f1565b6000826000018281548110613ece57613ece6158d0565b9060005260206000200154905092915050565b6000828152600760205260408082206001549151634025b22d60e01b815260048101859052909183916001600160a01b0390911690634025b22d90602401600060405180830381865afa158015613f3c573d6000803e3d6000fd5b505050506040513d6000823e601f3d908101601f19168201604052613f649190810190615bfb565b905080608001516101000151600014613f82576000925050506105c6565b6000848152601583016020526040812054600160201b900460ff169003613fae576000925050506105c6565b506001949350505050565b6040820151606001516002816007811115613fd657613fd6614e62565b0361401a578260a001516001600160a01b03168260a001516001600160a01b031614614015576040516321e08b4d60e21b815260040160405180910390fd5b6140a5565b600181600781111561402e5761402e614e62565b0361406d578260a001516001600160a01b03168260a001516001600160a01b031603614015576040516321e08b4d60e21b815260040160405180910390fd5b600381600781111561408157614081614e62565b0361408c5750610889565b6040516321e08b4d60e21b815260040160405180910390fd5b60038160078111156140b9576140b9614e62565b14612c5757612c5787878787856143a7565b60028160078111156140df576140df614e62565b036140f3576140ee86836144ba565b610889565b600181600781111561410757614107614e62565b03614117576140ee8686846145de565b600381600781111561412b5761412b614e62565b0361408c576140ee868686866146c3565b604080516064808252610ca08201909252606091600091829160208201610c808036833750505060028501546001600160a01b03166000908152601c860160205260408120919250908161418f826132a2565b905060005b818110156142155760006141a884836132ac565b90506141b3816120f0565b80156141db5750600081815260158a0160205260409020546003600160401b90910460ff1610155b1561420c57808686815181106141f3576141f36158d0565b602090810291909101015284614208816158b7565b9550505b50600101614194565b5060038701546001600160a01b03166000908152601c8801602052604081209061423e826132a2565b905060005b818110156142c457600061425784836132ac565b9050614262816120f0565b801561428a5750600081815260158c0160205260409020546003600160401b90910460ff1610155b156142bb57808888815181106142a2576142a26158d0565b6020908102919091010152866142b7816158b7565b9750505b50600101614243565b5094989397509295505050505050565b60006142de825490565b905060005b8181101561432e57826001016000846000018381548110614306576143066158d0565b90600052602060002001548152602001908152602001600020600090558060010190506142e3565b505060009055565b60008281526007602090815260408083206001600160a01b0385168452601c8101909252822082614366826132a2565b905060005b81811015613c5f57600061437f84836132ac565b905061438b8882613ee1565b1561439e576001955050505050506105c6565b5060010161436b565b60008581526007602090815260408083208584526017810183528184208251808401845260018a810b825289900b948101949094526003549251636759d30960e11b8152919490939290916001600160a01b039091169063ceb3a61290614412908890600401615fa1565b602060405180830381865afa15801561442f573d6000803e3d6000fd5b505050506040513d601f19601f820116820180604052508101906144539190615f02565b604080518082019091528454600181810b835262010000909104900b6020820152909150600090614485908490612579565b90508160ff168160ff1611156144ae576040516321e08b4d60e21b815260040160405180910390fd5b50505050505050505050565b6000828152600760209081526040808320848452601581019092528083206003549151633387d11760e11b81529293909290916001600160a01b03169063670fa22e9061450c90600290600401615fa1565b602060405180830381865afa158015614529573d6000803e3d6000fd5b505050506040513d601f19601f8201168201806040525081019061454d9190615f02565b825490915060009061456a908390600160201b900460ff16615d4f565b835490915060ff600160281b909104811690821611156145a8578254600160201b60ff600160281b8304160264ff00000000199091161783556145c0565b825464ff000000001916600160201b60ff8316021783555b8254600160201b900460ff161561088957612c5784601a018661201f565b6000838152600760209081526040808320848452601581019092528083206003549151633387d11760e11b81529293909290916001600160a01b03169063670fa22e9061463090600190600401615fa1565b602060405180830381865afa15801561464d573d6000803e3d6000fd5b505050506040513d601f19601f820116820180604052508101906146719190615f02565b6000858152600a602052604090208690558254909150819083906008906146a3908490600160401b900460ff16615d4f565b92506101000a81548160ff021916908360ff160217905550505050505050565b600084815260076020526040808220600380549251636759d30960e11b81529193926001600160a01b03169163ceb3a6129161470191600401615fa1565b602060405180830381865afa15801561471e573d6000803e3d6000fd5b505050506040513d601f19601f820116820180604052508101906147429190615f02565b60038054604051633387d11760e11b81529293506000926001600160a01b039091169163670fa22e916147789190600401615fa1565b602060405180830381865afa158015614795573d6000803e3d6000fd5b505050506040513d601f19601f820116820180604052508101906147b99190615f02565b60028401546001600160a01b03166000908152601c8501602052604090209091506147ef9088908890889088908790879061481e565b60038301546001600160a01b03166000908152601c840160205260409020612c57908890889088908890879087905b600087815260076020526040812090614836836132a2565b60408051808201909152600189810b825288900b602082015290915060005b828110156149c057600061486986836132ac565b6000818152601787016020908152604080832081518083019092528054600181810b845262010000909104900b92820192909252929350916148ac908690612579565b90508960ff168160ff16111580156148c457508c8314155b156149b5578c600a600085815260200190815260200160002081905550600087601501600085815260200190815260200160002060000160079054906101000a900460ff16905060648160ff168b60ff1661491f9190615f1f565b6149299190615f3c565b6149369060ff8c16615f6e565b600085815260158a016020526040902054909a5060ff600160201b9091048116908b161061496d576149688f85611fe4565b6149b3565b6000848152601589016020526040902080548b919060049061499a908490600160201b900460ff16615f88565b92506101000a81548160ff021916908360ff1602179055505b505b505050600101614855565b5050505050505050505050565b604080516101208101825260008082526020820181905291810182905260608082018390526080820183905260a0820183905260c0820183905260e082019290925261010081019190915290565b82805482825590600052602060002090601f01602090048101928215614ab15791602002820160005b83821115614a8257835183826101000a81548160ff021916908360ff1602179055509260200192600101602081600001049283019260010302614a44565b8015614aaf5782816101000a81549060ff0219169055600101602081600001049283019260010302614a82565b505b50614abd929150614d6f565b5090565b604051806060016040528060008152602001614af66040518060400160405280600060010b8152602001600060010b81525090565b8152600060209091015290565b604080516102e08101825260006101c082018181526101e08301829052610200830182905261022083018290526102408301829052610260830182905261028083018290526102a083018290526102c083018290528252825160808101845281815260208082018390528185018390526060820183905280840191909152835180850185528281529081019190915290918201908152602001600081526020016000815260200160008152602001614bf9604080516101008101825260008082526020820181905291810182905260608101829052608081018290529060a0820190815260200160008152602001600081525090565b8152602001606081526020016060815260200160608152602001606081526020016060815260200160608152602001606081525090565b6040518060c001604052806060815260200160008152602001614c746040805160808101909152806000815260200160008152602001600081526020016000905290565b8152602001614cf56040805160c0808201835260008083528351610120810185528181526020818101839052948101829052606081018290526080810182905260a0810182905291820181905260e0820181905261010082015290918201908152600060208201819052604082018190526060820181905260809091015290565b8152604080516101208101825260008082526020828101829052928201819052606082018190526080820181905260a0820181905260c0820181905260e082018190526101008201529101908152600060209091015290565b50805460008255601f01602090049060005260206000209081019061155291905b5b80821115614abd5760008155600101614d70565b6001600160a01b038116811461155257600080fd5b60008060408385031215614dac57600080fd5b8235614db781614d84565b946020939093013593505050565b600060208284031215614dd757600080fd5b813561055981614d84565b805182526020810151602083015260018060a01b03604082015116604083015260018060a01b0360608201511660608301526080810151608083015260a081015160a083015260c0810151614e3b60c084018215159052565b5060e081015160e0830152610100810151610dd26101008401826001600160a01b03169052565b634e487b7160e01b600052602160045260246000fd5b60068110614e8857614e88614e62565b9052565b80518252602081015160010b6020830152604081015160010b6040830152606081015160010b60608301526080810151614ecb608084018260010b9052565b5060a0810151614ede60a0840182614e78565b5060c0818101519083015260e090810151910152565b600081518084526020840193506020830160005b82811015614f26578151865260209586019590910190600101614f08565b5093949350505050565b600081518084526020840193506020830160005b82811015614f2657815160ff16865260209586019590910190600101614f44565b805161ffff16825260006020820151614f83602085018260ff169052565b506040820151614f98604085018260ff169052565b506060820151614fad606085018260ff169052565b506080820151614fc2608085018260ff169052565b5060a0820151614fd760a085018260ff169052565b5060c0820151614fec60c085018260ff169052565b5060e082015161500160e085018260ff169052565b50610100820151610120610100850152612199610120850182614f30565b600082825180855260208501945060208160051b8301016020850160005b8381101561506f57601f19858403018852615059838351614f65565b602098890198909350919091019060010161503d565b50909695505050505050565b600081518084526020840193506020830160005b82811015614f2657815160008151885260208201516150c460208a0182805160010b8252602081015160010b60208301525050565b505060400151151560608701526080909501946020919091019060010161508f565b6150f1828251614de2565b60208181015180516001600160a01b0316610120850152808201516101408501526040808201516101608601526060918201516101808601528301518051600190810b6101a087015292015190910b6101c08401528101516101e0830152608081015161020083015260a081015161022083015260c081015160009061517b610240850182614e8c565b5060e0820151610420610340850152615198610420850182614ef4565b90506101008301518482036103608601526151b3828261501f565b9150506101208301518482036103808601526151cf828261507b565b9150506101408301518482036103a08601526151eb8282614ef4565b9150506101608301518482036103c08601526152078282614ef4565b9150506101808301518482036103e08601526152238282614ef4565b9150506101a08301518482036104008601526126048282614ef4565b6000602082016020835280845180835260408501915060408160051b86010192506020860160005b8281101561529857603f198786030184526152838583516150e6565b94506020938401939190910190600101615267565b50929695505050505050565b600080604083850312156152b757600080fd5b50508035926020909101359150565b6000602082840312156152d857600080fd5b5035919050565b602080825282518282018190526000918401906040840190835b81811015610a5c5783518352602093840193909201916001016152f9565b6020815260006105596020830184614f65565b602081526000610559602083018461507b565b600080600080600060a0868803121561535557600080fd5b853561536081614d84565b9450602086013561537081614d84565b9350604086013561538081614d84565b9250606086013561539081614d84565b915060808601356153a081614d84565b809150509295509295909350565b634e487b7160e01b600052604160045260246000fd5b60405161012081016001600160401b03811182821017156153e7576153e76153ae565b60405290565b60405160c081016001600160401b03811182821017156153e7576153e76153ae565b604080519081016001600160401b03811182821017156153e7576153e76153ae565b604051601f8201601f191681016001600160401b0381118282101715615459576154596153ae565b604052919050565b60006001600160401b0382111561547a5761547a6153ae565b5060051b60200190565b600082601f83011261549557600080fd5b81356154a86154a382615461565b615431565b8082825260208201915060208360051b8601019250858311156154ca57600080fd5b602085015b838110156154e75780358352602092830192016154cf565b5095945050505050565b60006020828403121561550357600080fd5b81356001600160401b0381111561551957600080fd5b61219984828501615484565b8060010b811461155257600080fd5b6000806000806080858703121561554a57600080fd5b8435935060208501359250604085013561556381615525565b9150606085013561557381615525565b939692955090935050565b6000806040838503121561559157600080fd5b8235915060208301356001600160401b038111156155ae57600080fd5b6155ba85828601615484565b9150509250929050565b60208152600061055960208301846150e6565b60008060008060008060c087890312156155f057600080fd5b8635955060208701359450604087013561560981615525565b9350606087013561561981615525565b925060808701356006811061562d57600080fd5b9598949750929591949360a090920135925050565b801515811461155257600080fd5b60008060008060008060008060006101208a8c03121561566f57600080fd5b8935985060208a013561568181614d84565b975060408a013561569181614d84565b965060608a0135955060808a0135945060a08a01356156af81615642565b989b979a5095989497939693955050505060c08201359160e0810135916101009091013590565b60ff8116811461155257600080fd5b6000806000606084860312156156fa57600080fd5b83359250602084013591506040840135615713816156d6565b809150509250925092565b805161ffff8116811461573057600080fd5b919050565b8051615730816156d6565b600082601f83011261575157600080fd5b815161575f6154a382615461565b8082825260208201915060208360051b86010192508583111561578157600080fd5b602085015b838110156154e7578051615799816156d6565b835260209283019201615786565b6000602082840312156157b957600080fd5b81516001600160401b038111156157cf57600080fd5b820161012081850312156157e257600080fd5b6157ea6153c4565b6157f38261571e565b815261580160208301615735565b602082015261581260408301615735565b604082015261582360608301615735565b606082015261583460808301615735565b608082015261584560a08301615735565b60a082015261585660c08301615735565b60c082015261586760e08301615735565b60e08201526101008201516001600160401b0381111561588657600080fd5b61589286828501615740565b61010083015250949350505050565b634e487b7160e01b600052601160045260246000fd5b6000600182016158c9576158c96158a1565b5060010190565b634e487b7160e01b600052603260045260246000fd5b808201808211156105c6576105c66158a1565b805161573081615642565b60006020828403121561591657600080fd5b815161055981615642565b878152600187810b602083015286810b604083015285810b606083015284900b608082015260e0810161595760a0830185614e78565b8260c083015298975050505050505050565b6008811061155257600080fd5b60006080828403121561598857600080fd5b604051608081016001600160401b03811182821017156159aa576159aa6153ae565b806040525080915082516159bd81615969565b815260208301516159cd81615969565b602082015260408301516159e081615969565b604082015260608301516159f381615969565b6060919091015292915050565b60008183036101c0811215615a1457600080fd5b615a1c6153ed565b835181529150610120601f1982011215615a3557600080fd5b50615a3e6153c4565b615a4a6020840161571e565b8152615a5860408401615735565b6020820152615a6960608401615735565b6040820152615a7a6080840161571e565b6060820152615a8b60a08401615735565b6080820152615a9c60c08401615735565b60a0820152615aad60e0840161571e565b60c0820152615abf6101008401615735565b60e0820152615ad16101208401615735565b6101008201526020820152615ae9610140830161571e565b6040820152615afb6101608301615735565b6060820152615b0d6101808301615735565b6080820152615b1f6101a08301615735565b60a082015292915050565b805163ffffffff8116811461573057600080fd5b60006101208284031215615b5157600080fd5b615b596153c4565b9050615b6482615b2a565b8152615b726020830161571e565b6020820152615b836040830161571e565b6040820152615b946060830161571e565b6060820152615ba5608083016158f9565b6080820152615bb660a083016158f9565b60a0820152615bc760c083016158f9565b60c0820152615bd860e083016158f9565b60e08201526101009182015191810191909152919050565b805161573081614d84565b600060208284031215615c0d57600080fd5b81516001600160401b03811115615c2357600080fd5b82016103c08185031215615c3657600080fd5b615c3e6153ed565b81516001600160401b03811115615c5457600080fd5b8201601f81018613615c6557600080fd5b80516001600160401b03811115615c7e57615c7e6153ae565b615c91601f8201601f1916602001615431565b818152876020838501011115615ca657600080fd5b60005b82811015615cc557602081850181015183830182015201615ca9565b50600060209282018301528352838101519083015250615ce88560408401615976565b6040820152615cfa8560c08401615a00565b6060820152615d0d856102808401615b3e565b6080820152615d1f6103a08301615bf0565b60a0820152949350505050565b600182810b9082900b03617fff198112617fff821317156105c6576105c66158a1565b60ff81811683821601908111156105c6576105c66158a1565b600060ff821660ff8103615d7e57615d7e6158a1565b60010192915050565b600082601f830112615d9857600080fd5b8151615da66154a382615461565b8082825260208201915060208360061b860101925085831115615dc857600080fd5b602085015b838110156154e75760408188031215615de557600080fd5b615ded61540f565b8151615df881615525565b81526020820151615e0881615525565b6020828101919091529084529290920191604001615dcd565b60008060408385031215615e3457600080fd5b82516001600160401b03811115615e4a57600080fd5b8301601f81018513615e5b57600080fd5b8051615e696154a382615461565b8082825260208201915060208360051b850101925087831115615e8b57600080fd5b6020840193505b82841015615ead578351825260209384019390910190615e92565b8095505050505060208301516001600160401b03811115615ecd57600080fd5b6155ba85828601615d87565b818103818111156105c6576105c66158a1565b634e487b7160e01b600052603160045260246000fd5b600060208284031215615f1457600080fd5b8151610559816156d6565b61ffff8181168382160290811690818114610b7a57610b7a6158a1565b600061ffff831680615f5e57634e487b7160e01b600052601260045260246000fd5b8061ffff84160491505092915050565b61ffff82811682821603908111156105c6576105c66158a1565b60ff82811682821603908111156105c6576105c66158a1565b6020810160088310615fb557615fb5614e62565b9190529056fea264697066735822122083ef3362cfcf62d83989c354ddc6410d9b248152d1e55b561dff0c7b5190d32064736f6c634300081c0033",
  "linkReferences": {},
  "deployedLinkReferences": {}
}