{
  "_format": "hh-sol-artifact-1",
  "contractName": "Ships",
  "sourceName": "contracts/Ships.sol",
  "abi": [
    {
      "inputs": [
        {
          "internalType": "address",
          "name": "_renderer",
          "type": "address"
        }
      ],
      "stateMutability": "nonpayable",
      "type": "constructor"
    },
    {
      "inputs": [],
      "name": "ArrayLengthMismatch",
      "type": "error"
    },
    {
      "inputs": [
        {
          "internalType": "uint256",
          "name": "",
          "type": "uint256"
        }
      ],
      "name": "CannotRecycleFreeShip",
      "type": "error"
    },
    {
      "inputs": [],
      "name": "ClaimCooldownNotPassed",
      "type": "error"
    },
    {
      "inputs": [
        {
          "internalType": "address",
          "name": "sender",
          "type": "address"
        },
        {
          "internalType": "uint256",
          "name": "tokenId",
          "type": "uint256"
        },
        {
          "internalType": "address",
          "name": "owner",
          "type": "address"
        }
      ],
      "name": "ERC721IncorrectOwner",
      "type": "error"
    },
    {
      "inputs": [
        {
          "internalType": "address",
          "name": "operator",
          "type": "address"
        },
        {
          "internalType": "uint256",
          "name": "tokenId",
          "type": "uint256"
        }
      ],
      "name": "ERC721InsufficientApproval",
      "type": "error"
    },
    {
      "inputs": [
        {
          "internalType": "address",
          "name": "approver",
          "type": "address"
        }
      ],
      "name": "ERC721InvalidApprover",
      "type": "error"
    },
    {
      "inputs": [
        {
          "internalType": "address",
          "name": "operator",
          "type": "address"
        }
      ],
      "name": "ERC721InvalidOperator",
      "type": "error"
    },
    {
      "inputs": [
        {
          "internalType": "address",
          "name": "owner",
          "type": "address"
        }
      ],
      "name": "ERC721InvalidOwner",
      "type": "error"
    },
    {
      "inputs": [
        {
          "internalType": "address",
          "name": "receiver",
          "type": "address"
        }
      ],
      "name": "ERC721InvalidReceiver",
      "type": "error"
    },
    {
      "inputs": [
        {
          "internalType": "address",
          "name": "sender",
          "type": "address"
        }
      ],
      "name": "ERC721InvalidSender",
      "type": "error"
    },
    {
      "inputs": [
        {
          "internalType": "uint256",
          "name": "tokenId",
          "type": "uint256"
        }
      ],
      "name": "ERC721NonexistentToken",
      "type": "error"
    },
    {
      "inputs": [
        {
          "internalType": "address",
          "name": "",
          "type": "address"
        }
      ],
      "name": "InsufficientPurchases",
      "type": "error"
    },
    {
      "inputs": [
        {
          "internalType": "uint256",
          "name": "_tier",
          "type": "uint256"
        },
        {
          "internalType": "uint256",
          "name": "_amount",
          "type": "uint256"
        }
      ],
      "name": "InvalidPurchase",
      "type": "error"
    },
    {
      "inputs": [],
      "name": "InvalidReferral",
      "type": "error"
    },
    {
      "inputs": [
        {
          "internalType": "uint16",
          "name": "",
          "type": "uint16"
        }
      ],
      "name": "InvalidVariant",
      "type": "error"
    },
    {
      "inputs": [],
      "name": "MintPaused",
      "type": "error"
    },
    {
      "inputs": [
        {
          "internalType": "address",
          "name": "",
          "type": "address"
        }
      ],
      "name": "NotAuthorized",
      "type": "error"
    },
    {
      "inputs": [
        {
          "internalType": "uint256",
          "name": "",
          "type": "uint256"
        }
      ],
      "name": "NotYourShip",
      "type": "error"
    },
    {
      "inputs": [
        {
          "internalType": "address",
          "name": "owner",
          "type": "address"
        }
      ],
      "name": "OwnableInvalidOwner",
      "type": "error"
    },
    {
      "inputs": [
        {
          "internalType": "address",
          "name": "account",
          "type": "address"
        }
      ],
      "name": "OwnableUnauthorizedAccount",
      "type": "error"
    },
    {
      "inputs": [],
      "name": "ReentrancyGuardReentrantCall",
      "type": "error"
    },
    {
      "inputs": [],
      "name": "ReferralTransferFailed",
      "type": "error"
    },
    {
      "inputs": [
        {
          "internalType": "uint256",
          "name": "",
          "type": "uint256"
        }
      ],
      "name": "ShipAlreadyDestroyed",
      "type": "error"
    },
    {
      "inputs": [
        {
          "internalType": "uint256",
          "name": "",
          "type": "uint256"
        }
      ],
      "name": "ShipConstructed",
      "type": "error"
    },
    {
      "inputs": [],
      "name": "ShipDestroyed",
      "type": "error"
    },
    {
      "inputs": [
        {
          "internalType": "uint256",
          "name": "",
          "type": "uint256"
        }
      ],
      "name": "ShipInFleet",
      "type": "error"
    },
    {
      "inputs": [],
      "name": "WithdrawalFailed",
      "type": "error"
    },
    {
      "anonymous": false,
      "inputs": [
        {
          "indexed": true,
          "internalType": "address",
          "name": "owner",
          "type": "address"
        },
        {
          "indexed": true,
          "internalType": "address",
          "name": "approved",
          "type": "address"
        },
        {
          "indexed": true,
          "internalType": "uint256",
          "name": "tokenId",
          "type": "uint256"
        }
      ],
      "name": "Approval",
      "type": "event"
    },
    {
      "anonymous": false,
      "inputs": [
        {
          "indexed": true,
          "internalType": "address",
          "name": "owner",
          "type": "address"
        },
        {
          "indexed": true,
          "internalType": "address",
          "name": "operator",
          "type": "address"
        },
        {
          "indexed": false,
          "internalType": "bool",
          "name": "approved",
          "type": "bool"
        }
      ],
      "name": "ApprovalForAll",
      "type": "event"
    },
    {
      "anonymous": false,
      "inputs": [
        {
          "indexed": false,
          "internalType": "uint256",
          "name": "tokenId",
          "type": "uint256"
        }
      ],
      "name": "Locked",
      "type": "event"
    },
    {
      "anonymous": false,
      "inputs": [
        {
          "indexed": false,
          "internalType": "uint256",
          "name": "_tokenId",
          "type": "uint256"
        }
      ],
      "name": "MetadataUpdate",
      "type": "event"
    },
    {
      "anonymous": false,
      "inputs": [
        {
          "indexed": true,
          "internalType": "address",
          "name": "previousOwner",
          "type": "address"
        },
        {
          "indexed": true,
          "internalType": "address",
          "name": "newOwner",
          "type": "address"
        }
      ],
      "name": "OwnershipTransferred",
      "type": "event"
    },
    {
      "anonymous": false,
      "inputs": [
        {
          "indexed": true,
          "internalType": "address",
          "name": "from",
          "type": "address"
        },
        {
          "indexed": true,
          "internalType": "address",
          "name": "to",
          "type": "address"
        },
        {
          "indexed": true,
          "internalType": "uint256",
          "name": "tokenId",
          "type": "uint256"
        }
      ],
      "name": "Transfer",
      "type": "event"
    },
    {
      "anonymous": false,
      "inputs": [
        {
          "indexed": false,
          "internalType": "uint256",
          "name": "tokenId",
          "type": "uint256"
        }
      ],
      "name": "Unlocked",
      "type": "event"
    },
    {
      "inputs": [
        {
          "internalType": "address",
          "name": "",
          "type": "address"
        }
      ],
      "name": "amountPurchased",
      "outputs": [
        {
          "internalType": "uint256",
          "name": "",
          "type": "uint256"
        }
      ],
      "stateMutability": "view",
      "type": "function"
    },
    {
      "inputs": [
        {
          "internalType": "address",
          "name": "to",
          "type": "address"
        },
        {
          "internalType": "uint256",
          "name": "tokenId",
          "type": "uint256"
        }
      ],
      "name": "approve",
      "outputs": [],
      "stateMutability": "nonpayable",
      "type": "function"
    },
    {
      "inputs": [
        {
          "internalType": "address",
          "name": "owner",
          "type": "address"
        }
      ],
      "name": "balanceOf",
      "outputs": [
        {
          "internalType": "uint256",
          "name": "",
          "type": "uint256"
        }
      ],
      "stateMutability": "view",
      "type": "function"
    },
    {
      "inputs": [],
      "name": "claimCooldownPeriod",
      "outputs": [
        {
          "internalType": "uint256",
          "name": "",
          "type": "uint256"
        }
      ],
      "stateMutability": "view",
      "type": "function"
    },
    {
      "inputs": [
        {
          "internalType": "uint16",
          "name": "_variant",
          "type": "uint16"
        }
      ],
      "name": "claimFreeShips",
      "outputs": [],
      "stateMutability": "nonpayable",
      "type": "function"
    },
    {
      "inputs": [],
      "name": "config",
      "outputs": [
        {
          "internalType": "address",
          "name": "gameAddress",
          "type": "address"
        },
        {
          "internalType": "address",
          "name": "lobbyAddress",
          "type": "address"
        },
        {
          "internalType": "address",
          "name": "fleetsAddress",
          "type": "address"
        },
        {
          "internalType": "contract IRenderMetadata",
          "name": "metadataRenderer",
          "type": "address"
        },
        {
          "internalType": "contract IRandomManager",
          "name": "randomManager",
          "type": "address"
        },
        {
          "internalType": "contract IGenerateNewShip",
          "name": "shipGenerator",
          "type": "address"
        },
        {
          "internalType": "contract IShipAttributes",
          "name": "shipAttributes",
          "type": "address"
        }
      ],
      "stateMutability": "view",
      "type": "function"
    },
    {
      "inputs": [],
      "name": "constructAllMyShips",
      "outputs": [],
      "stateMutability": "nonpayable",
      "type": "function"
    },
    {
      "inputs": [
        {
          "internalType": "uint256",
          "name": "_id",
          "type": "uint256"
        }
      ],
      "name": "constructShip",
      "outputs": [],
      "stateMutability": "nonpayable",
      "type": "function"
    },
    {
      "inputs": [
        {
          "internalType": "uint256[]",
          "name": "_ids",
          "type": "uint256[]"
        }
      ],
      "name": "constructShips",
      "outputs": [],
      "stateMutability": "nonpayable",
      "type": "function"
    },
    {
      "inputs": [
        {
          "internalType": "address",
          "name": "_to",
          "type": "address"
        },
        {
          "internalType": "uint256",
          "name": "_amount",
          "type": "uint256"
        },
        {
          "internalType": "uint16",
          "name": "_variant",
          "type": "uint16"
        },
        {
          "internalType": "uint8",
          "name": "_tier",
          "type": "uint8"
        }
      ],
      "name": "createShips",
      "outputs": [],
      "stateMutability": "nonpayable",
      "type": "function"
    },
    {
      "inputs": [
        {
          "internalType": "address",
          "name": "_to",
          "type": "address"
        },
        {
          "components": [
            {
              "internalType": "string",
              "name": "name",
              "type": "string"
            },
            {
              "internalType": "uint256",
              "name": "id",
              "type": "uint256"
            },
            {
              "components": [
                {
                  "internalType": "enum MainWeapon",
                  "name": "mainWeapon",
                  "type": "uint8"
                },
                {
                  "internalType": "enum Armor",
                  "name": "armor",
                  "type": "uint8"
                },
                {
                  "internalType": "enum Shields",
                  "name": "shields",
                  "type": "uint8"
                },
                {
                  "internalType": "enum Special",
                  "name": "special",
                  "type": "uint8"
                }
              ],
              "internalType": "struct Equipment",
              "name": "equipment",
              "type": "tuple"
            },
            {
              "components": [
                {
                  "internalType": "uint256",
                  "name": "serialNumber",
                  "type": "uint256"
                },
                {
                  "components": [
                    {
                      "internalType": "uint16",
                      "name": "h1",
                      "type": "uint16"
                    },
                    {
                      "internalType": "uint8",
                      "name": "s1",
                      "type": "uint8"
                    },
                    {
                      "internalType": "uint8",
                      "name": "l1",
                      "type": "uint8"
                    },
                    {
                      "internalType": "uint16",
                      "name": "h2",
                      "type": "uint16"
                    },
                    {
                      "internalType": "uint8",
                      "name": "s2",
                      "type": "uint8"
                    },
                    {
                      "internalType": "uint8",
                      "name": "l2",
                      "type": "uint8"
                    },
                    {
                      "internalType": "uint16",
                      "name": "h3",
                      "type": "uint16"
                    },
                    {
                      "internalType": "uint8",
                      "name": "s3",
                      "type": "uint8"
                    },
                    {
                      "internalType": "uint8",
                      "name": "l3",
                      "type": "uint8"
                    }
                  ],
                  "internalType": "struct Colors",
                  "name": "colors",
                  "type": "tuple"
                },
                {
                  "internalType": "uint16",
                  "name": "variant",
                  "type": "uint16"
                },
                {
                  "internalType": "uint8",
                  "name": "accuracy",
                  "type": "uint8"
                },
                {
                  "internalType": "uint8",
                  "name": "hull",
                  "type": "uint8"
                },
                {
                  "internalType": "uint8",
                  "name": "speed",
                  "type": "uint8"
                }
              ],
              "internalType": "struct Traits",
              "name": "traits",
              "type": "tuple"
            },
            {
              "components": [
                {
                  "internalType": "uint32",
                  "name": "shipsDestroyed",
                  "type": "uint32"
                },
                {
                  "internalType": "uint16",
                  "name": "costsVersion",
                  "type": "uint16"
                },
                {
                  "internalType": "uint16",
                  "name": "cost",
                  "type": "uint16"
                },
                {
                  "internalType": "uint16",
                  "name": "modified",
                  "type": "uint16"
                },
                {
                  "internalType": "bool",
                  "name": "shiny",
                  "type": "bool"
                },
                {
                  "internalType": "bool",
                  "name": "constructed",
                  "type": "bool"
                },
                {
                  "internalType": "bool",
                  "name": "inFleet",
                  "type": "bool"
                },
                {
                  "internalType": "bool",
                  "name": "isFreeShip",
                  "type": "bool"
                },
                {
                  "internalType": "uint256",
                  "name": "timestampDestroyed",
                  "type": "uint256"
                }
              ],
              "internalType": "struct ShipData",
              "name": "shipData",
              "type": "tuple"
            },
            {
              "internalType": "address",
              "name": "owner",
              "type": "address"
            }
          ],
          "internalType": "struct Ship",
          "name": "_ship",
          "type": "tuple"
        }
      ],
      "name": "createSpecificShip",
      "outputs": [
        {
          "internalType": "uint256",
          "name": "",
          "type": "uint256"
        }
      ],
      "stateMutability": "nonpayable",
      "type": "function"
    },
    {
      "inputs": [
        {
          "internalType": "uint256",
          "name": "_id",
          "type": "uint256"
        },
        {
          "components": [
            {
              "internalType": "string",
              "name": "name",
              "type": "string"
            },
            {
              "internalType": "uint256",
              "name": "id",
              "type": "uint256"
            },
            {
              "components": [
                {
                  "internalType": "enum MainWeapon",
                  "name": "mainWeapon",
                  "type": "uint8"
                },
                {
                  "internalType": "enum Armor",
                  "name": "armor",
                  "type": "uint8"
                },
                {
                  "internalType": "enum Shields",
                  "name": "shields",
                  "type": "uint8"
                },
                {
                  "internalType": "enum Special",
                  "name": "special",
                  "type": "uint8"
                }
              ],
              "internalType": "struct Equipment",
              "name": "equipment",
              "type": "tuple"
            },
            {
              "components": [
                {
                  "internalType": "uint256",
                  "name": "serialNumber",
                  "type": "uint256"
                },
                {
                  "components": [
                    {
                      "internalType": "uint16",
                      "name": "h1",
                      "type": "uint16"
                    },
                    {
                      "internalType": "uint8",
                      "name": "s1",
                      "type": "uint8"
                    },
                    {
                      "internalType": "uint8",
                      "name": "l1",
                      "type": "uint8"
                    },
                    {
                      "internalType": "uint16",
                      "name": "h2",
                      "type": "uint16"
                    },
                    {
                      "internalType": "uint8",
                      "name": "s2",
                      "type": "uint8"
                    },
                    {
                      "internalType": "uint8",
                      "name": "l2",
                      "type": "uint8"
                    },
                    {
                      "internalType": "uint16",
                      "name": "h3",
                      "type": "uint16"
                    },
                    {
                      "internalType": "uint8",
                      "name": "s3",
                      "type": "uint8"
                    },
                    {
                      "internalType": "uint8",
                      "name": "l3",
                      "type": "uint8"
                    }
                  ],
                  "internalType": "struct Colors",
                  "name": "colors",
                  "type": "tuple"
                },
                {
                  "internalType": "uint16",
                  "name": "variant",
                  "type": "uint16"
                },
                {
                  "internalType": "uint8",
                  "name": "accuracy",
                  "type": "uint8"
                },
                {
                  "internalType": "uint8",
                  "name": "hull",
                  "type": "uint8"
                },
                {
                  "internalType": "uint8",
                  "name": "speed",
                  "type": "uint8"
                }
              ],
              "internalType": "struct Traits",
              "name": "traits",
              "type": "tuple"
            },
            {
              "components": [
                {
                  "internalType": "uint32",
                  "name": "shipsDestroyed",
                  "type": "uint32"
                },
                {
                  "internalType": "uint16",
                  "name": "costsVersion",
                  "type": "uint16"
                },
                {
                  "internalType": "uint16",
                  "name": "cost",
                  "type": "uint16"
                },
                {
                  "internalType": "uint16",
                  "name": "modified",
                  "type": "uint16"
                },
                {
                  "internalType": "bool",
                  "name": "shiny",
                  "type": "bool"
                },
                {
                  "internalType": "bool",
                  "name": "constructed",
                  "type": "bool"
                },
                {
                  "internalType": "bool",
                  "name": "inFleet",
                  "type": "bool"
                },
                {
                  "internalType": "bool",
                  "name": "isFreeShip",
                  "type": "bool"
                },
                {
                  "internalType": "uint256",
                  "name": "timestampDestroyed",
                  "type": "uint256"
                }
              ],
              "internalType": "struct ShipData",
              "name": "shipData",
              "type": "tuple"
            },
            {
              "internalType": "address",
              "name": "owner",
              "type": "address"
            }
          ],
          "internalType": "struct Ship",
          "name": "_ship",
          "type": "tuple"
        }
      ],
      "name": "customizeShip",
      "outputs": [],
      "stateMutability": "nonpayable",
      "type": "function"
    },
    {
      "inputs": [
        {
          "internalType": "uint256",
          "name": "tokenId",
          "type": "uint256"
        }
      ],
      "name": "getApproved",
      "outputs": [
        {
          "internalType": "address",
          "name": "",
          "type": "address"
        }
      ],
      "stateMutability": "view",
      "type": "function"
    },
    {
      "inputs": [],
      "name": "getPurchaseInfo",
      "outputs": [
        {
          "internalType": "uint8[]",
          "name": "_tierShips",
          "type": "uint8[]"
        },
        {
          "internalType": "uint256[]",
          "name": "_tierPrices",
          "type": "uint256[]"
        }
      ],
      "stateMutability": "view",
      "type": "function"
    },
    {
      "inputs": [
        {
          "internalType": "uint256",
          "name": "_id",
          "type": "uint256"
        }
      ],
      "name": "getShip",
      "outputs": [
        {
          "components": [
            {
              "internalType": "string",
              "name": "name",
              "type": "string"
            },
            {
              "internalType": "uint256",
              "name": "id",
              "type": "uint256"
            },
            {
              "components": [
                {
                  "internalType": "enum MainWeapon",
                  "name": "mainWeapon",
                  "type": "uint8"
                },
                {
                  "internalType": "enum Armor",
                  "name": "armor",
                  "type": "uint8"
                },
                {
                  "internalType": "enum Shields",
                  "name": "shields",
                  "type": "uint8"
                },
                {
                  "internalType": "enum Special",
                  "name": "special",
                  "type": "uint8"
                }
              ],
              "internalType": "struct Equipment",
              "name": "equipment",
              "type": "tuple"
            },
            {
              "components": [
                {
                  "internalType": "uint256",
                  "name": "serialNumber",
                  "type": "uint256"
                },
                {
                  "components": [
                    {
                      "internalType": "uint16",
                      "name": "h1",
                      "type": "uint16"
                    },
                    {
                      "internalType": "uint8",
                      "name": "s1",
                      "type": "uint8"
                    },
                    {
                      "internalType": "uint8",
                      "name": "l1",
                      "type": "uint8"
                    },
                    {
                      "internalType": "uint16",
                      "name": "h2",
                      "type": "uint16"
                    },
                    {
                      "internalType": "uint8",
                      "name": "s2",
                      "type": "uint8"
                    },
                    {
                      "internalType": "uint8",
                      "name": "l2",
                      "type": "uint8"
                    },
                    {
                      "internalType": "uint16",
                      "name": "h3",
                      "type": "uint16"
                    },
                    {
                      "internalType": "uint8",
                      "name": "s3",
                      "type": "uint8"
                    },
                    {
                      "internalType": "uint8",
                      "name": "l3",
                      "type": "uint8"
                    }
                  ],
                  "internalType": "struct Colors",
                  "name": "colors",
                  "type": "tuple"
                },
                {
                  "internalType": "uint16",
                  "name": "variant",
                  "type": "uint16"
                },
                {
                  "internalType": "uint8",
                  "name": "accuracy",
                  "type": "uint8"
                },
                {
                  "internalType": "uint8",
                  "name": "hull",
                  "type": "uint8"
                },
                {
                  "internalType": "uint8",
                  "name": "speed",
                  "type": "uint8"
                }
              ],
              "internalType": "struct Traits",
              "name": "traits",
              "type": "tuple"
            },
            {
              "components": [
                {
                  "internalType": "uint32",
                  "name": "shipsDestroyed",
                  "type": "uint32"
                },
                {
                  "internalType": "uint16",
                  "name": "costsVersion",
                  "type": "uint16"
                },
                {
                  "internalType": "uint16",
                  "name": "cost",
                  "type": "uint16"
                },
                {
                  "internalType": "uint16",
                  "name": "modified",
                  "type": "uint16"
                },
                {
                  "internalType": "bool",
                  "name": "shiny",
                  "type": "bool"
                },
                {
                  "internalType": "bool",
                  "name": "constructed",
                  "type": "bool"
                },
                {
                  "internalType": "bool",
                  "name": "inFleet",
                  "type": "bool"
                },
                {
                  "internalType": "bool",
                  "name": "isFreeShip",
                  "type": "bool"
                },
                {
                  "internalType": "uint256",
                  "name": "timestampDestroyed",
                  "type": "uint256"
                }
              ],
              "internalType": "struct ShipData",
              "name": "shipData",
              "type": "tuple"
            },
            {
              "internalType": "address",
              "name": "owner",
              "type": "address"
            }
          ],
          "internalType": "struct Ship",
          "name": "",
          "type": "tuple"
        }
      ],
      "stateMutability": "view",
      "type": "function"
    },
    {
      "inputs": [
        {
          "internalType": "address",
          "name": "_owner",
          "type": "address"
        }
      ],
      "name": "getShipIdsOwned",
      "outputs": [
        {
          "internalType": "uint256[]",
          "name": "",
          "type": "uint256[]"
        }
      ],
      "stateMutability": "view",
      "type": "function"
    },
    {
      "inputs": [
        {
          "internalType": "uint256[]",
          "name": "_ids",
          "type": "uint256[]"
        }
      ],
      "name": "getShipsByIds",
      "outputs": [
        {
          "components": [
            {
              "internalType": "string",
              "name": "name",
              "type": "string"
            },
            {
              "internalType": "uint256",
              "name": "id",
              "type": "uint256"
            },
            {
              "components": [
                {
                  "internalType": "enum MainWeapon",
                  "name": "mainWeapon",
                  "type": "uint8"
                },
                {
                  "internalType": "enum Armor",
                  "name": "armor",
                  "type": "uint8"
                },
                {
                  "internalType": "enum Shields",
                  "name": "shields",
                  "type": "uint8"
                },
                {
                  "internalType": "enum Special",
                  "name": "special",
                  "type": "uint8"
                }
              ],
              "internalType": "struct Equipment",
              "name": "equipment",
              "type": "tuple"
            },
            {
              "components": [
                {
                  "internalType": "uint256",
                  "name": "serialNumber",
                  "type": "uint256"
                },
                {
                  "components": [
                    {
                      "internalType": "uint16",
                      "name": "h1",
                      "type": "uint16"
                    },
                    {
                      "internalType": "uint8",
                      "name": "s1",
                      "type": "uint8"
                    },
                    {
                      "internalType": "uint8",
                      "name": "l1",
                      "type": "uint8"
                    },
                    {
                      "internalType": "uint16",
                      "name": "h2",
                      "type": "uint16"
                    },
                    {
                      "internalType": "uint8",
                      "name": "s2",
                      "type": "uint8"
                    },
                    {
                      "internalType": "uint8",
                      "name": "l2",
                      "type": "uint8"
                    },
                    {
                      "internalType": "uint16",
                      "name": "h3",
                      "type": "uint16"
                    },
                    {
                      "internalType": "uint8",
                      "name": "s3",
                      "type": "uint8"
                    },
                    {
                      "internalType": "uint8",
                      "name": "l3",
                      "type": "uint8"
                    }
                  ],
                  "internalType": "struct Colors",
                  "name": "colors",
                  "type": "tuple"
                },
                {
                  "internalType": "uint16",
                  "name": "variant",
                  "type": "uint16"
                },
                {
                  "internalType": "uint8",
                  "name": "accuracy",
                  "type": "uint8"
                },
                {
                  "internalType": "uint8",
                  "name": "hull",
                  "type": "uint8"
                },
                {
                  "internalType": "uint8",
                  "name": "speed",
                  "type": "uint8"
                }
              ],
              "internalType": "struct Traits",
              "name": "traits",
              "type": "tuple"
            },
            {
              "components": [
                {
                  "internalType": "uint32",
                  "name": "shipsDestroyed",
                  "type": "uint32"
                },
                {
                  "internalType": "uint16",
                  "name": "costsVersion",
                  "type": "uint16"
                },
                {
                  "internalType": "uint16",
                  "name": "cost",
                  "type": "uint16"
                },
                {
                  "internalType": "uint16",
                  "name": "modified",
                  "type": "uint16"
                },
                {
                  "internalType": "bool",
                  "name": "shiny",
                  "type": "bool"
                },
                {
                  "internalType": "bool",
                  "name": "constructed",
                  "type": "bool"
                },
                {
                  "internalType": "bool",
                  "name": "inFleet",
                  "type": "bool"
                },
                {
                  "internalType": "bool",
                  "name": "isFreeShip",
                  "type": "bool"
                },
                {
                  "internalType": "uint256",
                  "name": "timestampDestroyed",
                  "type": "uint256"
                }
              ],
              "internalType": "struct ShipData",
              "name": "shipData",
              "type": "tuple"
            },
            {
              "internalType": "address",
              "name": "owner",
              "type": "address"
            }
          ],
          "internalType": "struct Ship[]",
          "name": "",
          "type": "tuple[]"
        }
      ],
      "stateMutability": "view",
      "type": "function"
    },
    {
      "inputs": [
        {
          "internalType": "uint256",
          "name": "_trait",
          "type": "uint256"
        }
      ],
      "name": "getTierOfTrait",
      "outputs": [
        {
          "internalType": "uint8",
          "name": "",
          "type": "uint8"
        }
      ],
      "stateMutability": "pure",
      "type": "function"
    },
    {
      "inputs": [
        {
          "internalType": "address",
          "name": "",
          "type": "address"
        }
      ],
      "name": "isAllowedToCreateShips",
      "outputs": [
        {
          "internalType": "bool",
          "name": "",
          "type": "bool"
        }
      ],
      "stateMutability": "view",
      "type": "function"
    },
    {
      "inputs": [
        {
          "internalType": "address",
          "name": "owner",
          "type": "address"
        },
        {
          "internalType": "address",
          "name": "operator",
          "type": "address"
        }
      ],
      "name": "isApprovedForAll",
      "outputs": [
        {
          "internalType": "bool",
          "name": "",
          "type": "bool"
        }
      ],
      "stateMutability": "view",
      "type": "function"
    },
    {
      "inputs": [
        {
          "internalType": "uint256",
          "name": "_id",
          "type": "uint256"
        }
      ],
      "name": "isShipDestroyed",
      "outputs": [
        {
          "internalType": "bool",
          "name": "",
          "type": "bool"
        }
      ],
      "stateMutability": "view",
      "type": "function"
    },
    {
      "inputs": [
        {
          "internalType": "address",
          "name": "",
          "type": "address"
        }
      ],
      "name": "lastClaimTimestamp",
      "outputs": [
        {
          "internalType": "uint256",
          "name": "",
          "type": "uint256"
        }
      ],
      "stateMutability": "view",
      "type": "function"
    },
    {
      "inputs": [],
      "name": "maxVariant",
      "outputs": [
        {
          "internalType": "uint16",
          "name": "",
          "type": "uint16"
        }
      ],
      "stateMutability": "view",
      "type": "function"
    },
    {
      "inputs": [],
      "name": "name",
      "outputs": [
        {
          "internalType": "string",
          "name": "",
          "type": "string"
        }
      ],
      "stateMutability": "view",
      "type": "function"
    },
    {
      "inputs": [],
      "name": "owner",
      "outputs": [
        {
          "internalType": "address",
          "name": "",
          "type": "address"
        }
      ],
      "stateMutability": "view",
      "type": "function"
    },
    {
      "inputs": [
        {
          "internalType": "uint256",
          "name": "tokenId",
          "type": "uint256"
        }
      ],
      "name": "ownerOf",
      "outputs": [
        {
          "internalType": "address",
          "name": "",
          "type": "address"
        }
      ],
      "stateMutability": "view",
      "type": "function"
    },
    {
      "inputs": [],
      "name": "paused",
      "outputs": [
        {
          "internalType": "bool",
          "name": "",
          "type": "bool"
        }
      ],
      "stateMutability": "view",
      "type": "function"
    },
    {
      "inputs": [
        {
          "internalType": "address",
          "name": "_to",
          "type": "address"
        },
        {
          "internalType": "uint8",
          "name": "_tier",
          "type": "uint8"
        },
        {
          "internalType": "address",
          "name": "_referral",
          "type": "address"
        },
        {
          "internalType": "uint16",
          "name": "_variant",
          "type": "uint16"
        }
      ],
      "name": "purchaseWithFlow",
      "outputs": [],
      "stateMutability": "payable",
      "type": "function"
    },
    {
      "inputs": [],
      "name": "recycleReward",
      "outputs": [
        {
          "internalType": "uint256",
          "name": "",
          "type": "uint256"
        }
      ],
      "stateMutability": "view",
      "type": "function"
    },
    {
      "inputs": [
        {
          "internalType": "address",
          "name": "",
          "type": "address"
        }
      ],
      "name": "referralCount",
      "outputs": [
        {
          "internalType": "uint256",
          "name": "",
          "type": "uint256"
        }
      ],
      "stateMutability": "view",
      "type": "function"
    },
    {
      "inputs": [],
      "name": "renounceOwnership",
      "outputs": [],
      "stateMutability": "nonpayable",
      "type": "function"
    },
    {
      "inputs": [
        {
          "internalType": "address",
          "name": "from",
          "type": "address"
        },
        {
          "internalType": "address",
          "name": "to",
          "type": "address"
        },
        {
          "internalType": "uint256",
          "name": "tokenId",
          "type": "uint256"
        }
      ],
      "name": "safeTransferFrom",
      "outputs": [],
      "stateMutability": "nonpayable",
      "type": "function"
    },
    {
      "inputs": [
        {
          "internalType": "address",
          "name": "from",
          "type": "address"
        },
        {
          "internalType": "address",
          "name": "to",
          "type": "address"
        },
        {
          "internalType": "uint256",
          "name": "tokenId",
          "type": "uint256"
        },
        {
          "internalType": "bytes",
          "name": "data",
          "type": "bytes"
        }
      ],
      "name": "safeTransferFrom",
      "outputs": [],
      "stateMutability": "nonpayable",
      "type": "function"
    },
    {
      "inputs": [
        {
          "internalType": "address",
          "name": "operator",
          "type": "address"
        },
        {
          "internalType": "bool",
          "name": "approved",
          "type": "bool"
        }
      ],
      "name": "setApprovalForAll",
      "outputs": [],
      "stateMutability": "nonpayable",
      "type": "function"
    },
    {
      "inputs": [
        {
          "internalType": "uint256",
          "name": "_newCooldownPeriod",
          "type": "uint256"
        }
      ],
      "name": "setClaimCooldownPeriod",
      "outputs": [],
      "stateMutability": "nonpayable",
      "type": "function"
    },
    {
      "inputs": [
        {
          "internalType": "address",
          "name": "_gameAddress",
          "type": "address"
        },
        {
          "internalType": "address",
          "name": "_lobbyAddress",
          "type": "address"
        },
        {
          "internalType": "address",
          "name": "_fleetsAddress",
          "type": "address"
        },
        {
          "internalType": "address",
          "name": "_shipGenerator",
          "type": "address"
        },
        {
          "internalType": "address",
          "name": "_randomManager",
          "type": "address"
        },
        {
          "internalType": "address",
          "name": "_metadataRenderer",
          "type": "address"
        },
        {
          "internalType": "address",
          "name": "_shipAttributes",
          "type": "address"
        },
        {
          "internalType": "address",
          "name": "_universalCredits",
          "type": "address"
        }
      ],
      "name": "setConfig",
      "outputs": [],
      "stateMutability": "nonpayable",
      "type": "function"
    },
    {
      "inputs": [
        {
          "internalType": "uint256",
          "name": "_id",
          "type": "uint256"
        }
      ],
      "name": "setCostOfShip",
      "outputs": [],
      "stateMutability": "nonpayable",
      "type": "function"
    },
    {
      "inputs": [
        {
          "internalType": "uint256",
          "name": "_id",
          "type": "uint256"
        },
        {
          "internalType": "bool",
          "name": "_inFleet",
          "type": "bool"
        }
      ],
      "name": "setInFleet",
      "outputs": [],
      "stateMutability": "nonpayable",
      "type": "function"
    },
    {
      "inputs": [
        {
          "internalType": "address",
          "name": "_address",
          "type": "address"
        },
        {
          "internalType": "bool",
          "name": "_isAllowed",
          "type": "bool"
        }
      ],
      "name": "setIsAllowedToCreateShips",
      "outputs": [],
      "stateMutability": "nonpayable",
      "type": "function"
    },
    {
      "inputs": [
        {
          "internalType": "uint16",
          "name": "_maxVariant",
          "type": "uint16"
        }
      ],
      "name": "setMaxVariant",
      "outputs": [],
      "stateMutability": "nonpayable",
      "type": "function"
    },
    {
      "inputs": [
        {
          "internalType": "bool",
          "name": "_paused",
          "type": "bool"
        }
      ],
      "name": "setPaused",
      "outputs": [],
      "stateMutability": "nonpayable",
      "type": "function"
    },
    {
      "inputs": [
        {
          "internalType": "uint8[]",
          "name": "_tierShips",
          "type": "uint8[]"
        },
        {
          "internalType": "uint256[]",
          "name": "_tierPrices",
          "type": "uint256[]"
        }
      ],
      "name": "setPurchaseInfo",
      "outputs": [],
      "stateMutability": "nonpayable",
      "type": "function"
    },
    {
      "inputs": [
        {
          "internalType": "uint256",
          "name": "_newReward",
          "type": "uint256"
        }
      ],
      "name": "setRecycleReward",
      "outputs": [],
      "stateMutability": "nonpayable",
      "type": "function"
    },
    {
      "inputs": [
        {
          "internalType": "uint256",
          "name": "_id",
          "type": "uint256"
        },
        {
          "internalType": "uint256",
          "name": "_destroyerId",
          "type": "uint256"
        }
      ],
      "name": "setTimestampDestroyed",
      "outputs": [],
      "stateMutability": "nonpayable",
      "type": "function"
    },
    {
      "inputs": [
        {
          "internalType": "uint256[]",
          "name": "_shipIds",
          "type": "uint256[]"
        }
      ],
      "name": "shipBreaker",
      "outputs": [],
      "stateMutability": "nonpayable",
      "type": "function"
    },
    {
      "inputs": [],
      "name": "shipCount",
      "outputs": [
        {
          "internalType": "uint256",
          "name": "",
          "type": "uint256"
        }
      ],
      "stateMutability": "view",
      "type": "function"
    },
    {
      "inputs": [
        {
          "internalType": "uint256",
          "name": "",
          "type": "uint256"
        }
      ],
      "name": "ships",
      "outputs": [
        {
          "internalType": "string",
          "name": "name",
          "type": "string"
        },
        {
          "internalType": "uint256",
          "name": "id",
          "type": "uint256"
        },
        {
          "components": [
            {
              "internalType": "enum MainWeapon",
              "name": "mainWeapon",
              "type": "uint8"
            },
            {
              "internalType": "enum Armor",
              "name": "armor",
              "type": "uint8"
            },
            {
              "internalType": "enum Shields",
              "name": "shields",
              "type": "uint8"
            },
            {
              "internalType": "enum Special",
              "name": "special",
              "type": "uint8"
            }
          ],
          "internalType": "struct Equipment",
          "name": "equipment",
          "type": "tuple"
        },
        {
          "components": [
            {
              "internalType": "uint256",
              "name": "serialNumber",
              "type": "uint256"
            },
            {
              "components": [
                {
                  "internalType": "uint16",
                  "name": "h1",
                  "type": "uint16"
                },
                {
                  "internalType": "uint8",
                  "name": "s1",
                  "type": "uint8"
                },
                {
                  "internalType": "uint8",
                  "name": "l1",
                  "type": "uint8"
                },
                {
                  "internalType": "uint16",
                  "name": "h2",
                  "type": "uint16"
                },
                {
                  "internalType": "uint8",
                  "name": "s2",
                  "type": "uint8"
                },
                {
                  "internalType": "uint8",
                  "name": "l2",
                  "type": "uint8"
                },
                {
                  "internalType": "uint16",
                  "name": "h3",
                  "type": "uint16"
                },
                {
                  "internalType": "uint8",
                  "name": "s3",
                  "type": "uint8"
                },
                {
                  "internalType": "uint8",
                  "name": "l3",
                  "type": "uint8"
                }
              ],
              "internalType": "struct Colors",
              "name": "colors",
              "type": "tuple"
            },
            {
              "internalType": "uint16",
              "name": "variant",
              "type": "uint16"
            },
            {
              "internalType": "uint8",
              "name": "accuracy",
              "type": "uint8"
            },
            {
              "internalType": "uint8",
              "name": "hull",
              "type": "uint8"
            },
            {
              "internalType": "uint8",
              "name": "speed",
              "type": "uint8"
            }
          ],
          "internalType": "struct Traits",
          "name": "traits",
          "type": "tuple"
        },
        {
          "components": [
            {
              "internalType": "uint32",
              "name": "shipsDestroyed",
              "type": "uint32"
            },
            {
              "internalType": "uint16",
              "name": "costsVersion",
              "type": "uint16"
            },
            {
              "internalType": "uint16",
              "name": "cost",
              "type": "uint16"
            },
            {
              "internalType": "uint16",
              "name": "modified",
              "type": "uint16"
            },
            {
              "internalType": "bool",
              "name": "shiny",
              "type": "bool"
            },
            {
              "internalType": "bool",
              "name": "constructed",
              "type": "bool"
            },
            {
              "internalType": "bool",
              "name": "inFleet",
              "type": "bool"
            },
            {
              "internalType": "bool",
              "name": "isFreeShip",
              "type": "bool"
            },
            {
              "internalType": "uint256",
              "name": "timestampDestroyed",
              "type": "uint256"
            }
          ],
          "internalType": "struct ShipData",
          "name": "shipData",
          "type": "tuple"
        },
        {
          "internalType": "address",
          "name": "owner",
          "type": "address"
        }
      ],
      "stateMutability": "view",
      "type": "function"
    },
    {
      "inputs": [
        {
          "internalType": "bytes4",
          "name": "interfaceId",
          "type": "bytes4"
        }
      ],
      "name": "supportsInterface",
      "outputs": [
        {
          "internalType": "bool",
          "name": "",
          "type": "bool"
        }
      ],
      "stateMutability": "view",
      "type": "function"
    },
    {
      "inputs": [],
      "name": "symbol",
      "outputs": [
        {
          "internalType": "string",
          "name": "",
          "type": "string"
        }
      ],
      "stateMutability": "view",
      "type": "function"
    },
    {
      "inputs": [
        {
          "internalType": "uint256",
          "name": "",
          "type": "uint256"
        }
      ],
      "name": "tierPrices",
      "outputs": [
        {
          "internalType": "uint256",
          "name": "",
          "type": "uint256"
        }
      ],
      "stateMutability": "view",
      "type": "function"
    },
    {
      "inputs": [
        {
          "internalType": "uint256",
          "name": "",
          "type": "uint256"
        }
      ],
      "name": "tierShips",
      "outputs": [
        {
          "internalType": "uint8",
          "name": "",
          "type": "uint8"
        }
      ],
      "stateMutability": "view",
      "type": "function"
    },
    {
      "inputs": [
        {
          "internalType": "uint256",
          "name": "_id",
          "type": "uint256"
        }
      ],
      "name": "tokenURI",
      "outputs": [
        {
          "internalType": "string",
          "name": "",
          "type": "string"
        }
      ],
      "stateMutability": "view",
      "type": "function"
    },
    {
      "inputs": [
        {
          "internalType": "address",
          "name": "from",
          "type": "address"
        },
        {
          "internalType": "address",
          "name": "to",
          "type": "address"
        },
        {
          "internalType": "uint256",
          "name": "tokenId",
          "type": "uint256"
        }
      ],
      "name": "transferFrom",
      "outputs": [],
      "stateMutability": "nonpayable",
      "type": "function"
    },
    {
      "inputs": [
        {
          "internalType": "address",
          "name": "newOwner",
          "type": "address"
        }
      ],
      "name": "transferOwnership",
      "outputs": [],
      "stateMutability": "nonpayable",
      "type": "function"
    },
    {
      "inputs": [],
      "name": "universalCredits",
      "outputs": [
        {
          "internalType": "contract IUniversalCredits",
          "name": "",
          "type": "address"
        }
      ],
      "stateMutability": "view",
      "type": "function"
    },
    {
      "inputs": [],
      "name": "withdraw",
      "outputs": [],
      "stateMutability": "nonpayable",
      "type": "function"
    }
  ],
  "bytecode": "0x60806040526224ea00600d556018805462ffff00191661010017905567016345785d8a0000601b5534801561003357600080fd5b5060405161646538038061646583398101604081905261005291610304565b3360405180604001604052806012815260200171566f6964205461637469637320536869707360701b815250604051806040016040528060048152602001630534849560e41b81525081600090816100aa91906103d3565b5060016100b782826103d3565b5050506001600160a01b0381166100e857604051631e4fbdf760e01b81526000600482015260240160405180910390fd5b6100f1816101b1565b506001600755601280546001600160a01b0319166001600160a01b0383161790556040805160a0810182526005808252600b6020830152601692820183905260286060830152603c6080830152610149929190610203565b506040805160a0810182526745400a8fd53300008152678aa39c121a27000060208201526801156abf16a40f0000918101919091526801e595739d72eb000060608201526802b5c0282441c7000060808201526101aa9060179060056102a9565b5050610491565b600680546001600160a01b038381166001600160a01b0319831681179093556040519116919082907f8be0079c531659141344cd1fd0a4f28419497f9722a3daafe3b4186f6b6457e090600090a35050565b82805482825590600052602060002090601f016020900481019282156102995791602002820160005b8382111561026a57835183826101000a81548160ff021916908360ff160217905550926020019260010160208160000104928301926001030261022c565b80156102975782816101000a81549060ff021916905560010160208160000104928301926001030261026a565b505b506102a59291506102ef565b5090565b828054828255906000526020600020908101928215610299579160200282015b8281111561029957825182906001600160481b03169055916020019190600101906102c9565b5b808211156102a557600081556001016102f0565b60006020828403121561031657600080fd5b81516001600160a01b038116811461032d57600080fd5b9392505050565b634e487b7160e01b600052604160045260246000fd5b600181811c9082168061035e57607f821691505b60208210810361037e57634e487b7160e01b600052602260045260246000fd5b50919050565b601f8211156103ce57806000526020600020601f840160051c810160208510156103ab5750805b601f840160051c820191505b818110156103cb57600081556001016103b7565b50505b505050565b81516001600160401b038111156103ec576103ec610334565b610400816103fa845461034a565b84610384565b6020601f821160018114610434576000831561041c5750848201515b600019600385901b1c1916600184901b1784556103cb565b600084815260208120601f198516915b828110156104645787850151825560209485019460019092019101610444565b50848210156104825786840151600019600387901b60f8161c191681555b50505050600190811b01905550565b615fc5806104a06000396000f3fe60806040526004361061036a5760003560e01c80636e0f7a48116101c6578063977216c2116100f7578063db74559b11610095578063e6b5c3351161006f578063e6b5c33514610ada578063e985e9c514610afa578063f25a034214610b1a578063f2fde38b14610b4757600080fd5b8063db74559b14610a6d578063dd77071214610a9a578063dd81d5bf14610aba57600080fd5b8063b88d4fde116100d1578063b88d4fde146109ea578063bd9d518b14610a0a578063c87b56dd14610a37578063d08acd9314610a5757600080fd5b8063977216c214610994578063a22cb465146109b4578063b4e847a0146109d457600080fd5b80637d9e9d30116101645780638c79d7e31161013e5780638c79d7e31461090f5780638da5cb5b1461092f578063959601011461094d57806395d89b411461097f57600080fd5b80637d9e9d30146108ba5780637eebe99d146108da5780638163997c146108fa57600080fd5b8063715018a6116101a0578063715018a6146107c757806375bfe420146107dc57806378fa901c1461080c57806379502c551461082c57600080fd5b80636e0f7a481461077157806370a0823114610791578063710cbc44146107b157600080fd5b806342842e0e116102a05780635b91bbca1161023e578063612124311161021857806361212431146106cc578063614008f1146106fe5780636352211e1461071e57806368382aad1461073e57600080fd5b80635b91bbca1461067f5780635c975abb1461069f578063600917ff146106b957600080fd5b806348cfc19e1161027a57806348cfc19e146105dd5780634d4e8dfa14610600578063514c2ece1461063257806359e651e01461065257600080fd5b806342842e0e1461057d5780634346b1501461059d578063446c00f7146105bd57600080fd5b806316c38b3c1161030d57806323b872dd116102e757806323b872dd146104fb578063300eccab1461051b5780633ccfd60b1461053b5780634025b22d1461055057600080fd5b806316c38b3c1461049b57806317225941146104bb5780631a0111aa146104db57600080fd5b8063074ba79d11610349578063074ba79d146103e8578063081812fc14610423578063095ea7b31461045b57806311a960cd1461047b57600080fd5b8062dbc7381461036f57806301ffc9a71461039157806306fdde03146103c6575b600080fd5b34801561037b57600080fd5b5061038f61038a3660046144cd565b610b67565b005b34801561039d57600080fd5b506103b16103ac36600461458c565b610bfd565b60405190151581526020015b60405180910390f35b3480156103d257600080fd5b506103db610c4f565b6040516103bd91906145f9565b3480156103f457600080fd5b5061041561040336600461460c565b600c6020526000908152604090205481565b6040519081526020016103bd565b34801561042f57600080fd5b5061044361043e366004614629565b610ce1565b6040516001600160a01b0390911681526020016103bd565b34801561046757600080fd5b5061038f610476366004614642565b610d0a565b34801561048757600080fd5b5061038f61049636600461466e565b610d19565b3480156104a757600080fd5b5061038f6104b63660046146a9565b610ede565b3480156104c757600080fd5b50601a54610443906001600160a01b031681565b3480156104e757600080fd5b5061038f6104f6366004614711565b610ef9565b34801561050757600080fd5b5061038f610516366004614780565b610f41565b34801561052757600080fd5b50610415610536366004614629565b610fcc565b34801561054757600080fd5b5061038f610fed565b34801561055c57600080fd5b5061057061056b366004614629565b61107d565b6040516103bd9190614a34565b34801561058957600080fd5b5061038f610598366004614780565b61151c565b3480156105a957600080fd5b5061038f6105b8366004614a47565b61153c565b3480156105c957600080fd5b5061038f6105d8366004614629565b6116c3565b3480156105e957600080fd5b506105f2611712565b6040516103bd929190614ac4565b34801561060c57600080fd5b5061062061061b366004614629565b6117e3565b6040516103bd96959493929190614b15565b34801561063e57600080fd5b5061038f61064d366004614629565b611c49565b34801561065e57600080fd5b5061067261066d36600461460c565b611c56565b6040516103bd9190614b77565b34801561068b57600080fd5b5061038f61069a366004614ba5565b611c7a565b3480156106ab57600080fd5b506018546103b19060ff1681565b61038f6106c7366004614bdc565b611d13565b3480156106d857600080fd5b506106ec6106e7366004614629565b611e97565b60405160ff90911681526020016103bd565b34801561070a57600080fd5b50610415610719366004614c51565b611ecb565b34801561072a57600080fd5b50610443610739366004614629565b611f3e565b34801561074a57600080fd5b5060185461075e90610100900461ffff1681565b60405161ffff90911681526020016103bd565b34801561077d57600080fd5b506106ec61078c366004614629565b611f49565b34801561079d57600080fd5b506104156107ac36600461460c565b611f71565b3480156107bd57600080fd5b50610415600d5481565b3480156107d357600080fd5b5061038f611fb9565b3480156107e857600080fd5b506103b16107f736600461460c565b60196020526000908152604090205460ff1681565b34801561081857600080fd5b5061038f610827366004614ca0565b611fcd565b34801561083857600080fd5b50600f54601054601154601254601354601454601554610871966001600160a01b03908116968116958116948116938116928116911687565b604080516001600160a01b039889168152968816602088015294871694860194909452918516606085015284166080840152831660a083015290911660c082015260e0016103bd565b3480156108c657600080fd5b5061038f6108d5366004614a47565b61209b565b3480156108e657600080fd5b5061038f6108f5366004614ce8565b6120cf565b34801561090657600080fd5b5061038f6121b3565b34801561091b57600080fd5b5061038f61092a366004614d18565b612247565b34801561093b57600080fd5b506006546001600160a01b0316610443565b34801561095957600080fd5b506103b1610968366004614629565b600090815260086020526040902060070154151590565b34801561098b57600080fd5b506103db61227a565b3480156109a057600080fd5b5061038f6109af366004614629565b612289565b3480156109c057600080fd5b5061038f6109cf366004614d18565b612296565b3480156109e057600080fd5b5061041560095481565b3480156109f657600080fd5b5061038f610a05366004614e5e565b6122a1565b348015610a1657600080fd5b50610415610a2536600461460c565b600b6020526000908152604090205481565b348015610a4357600080fd5b506103db610a52366004614629565b6122b9565b348015610a6357600080fd5b50610415601b5481565b348015610a7957600080fd5b50610415610a8836600461460c565b600e6020526000908152604090205481565b348015610aa657600080fd5b5061038f610ab5366004614edd565b61233d565b348015610ac657600080fd5b5061038f610ad5366004614629565b612388565b348015610ae657600080fd5b5061038f610af5366004614ba5565b6128ec565b348015610b0657600080fd5b506103b1610b15366004614f0d565b612912565b348015610b2657600080fd5b50610b3a610b35366004614a47565b612940565b6040516103bd9190614f3b565b348015610b5357600080fd5b5061038f610b6236600461460c565b612e76565b610b6f612eb1565b600f80546001600160a01b03199081166001600160a01b039a8b1617909155601080548216988a1698909817909755601180548816968916969096179095556014805487169488169490941790935560138054861692871692909217909155601280548516918616919091179055601580548416918516919091179055601a80549092169216919091179055565b60006001600160e01b031982166380ac58cd60e01b1480610c2e57506001600160e01b03198216635b5e139f60e01b145b80610c4957506301ffc9a760e01b6001600160e01b03198316145b92915050565b606060008054610c5e90614fa0565b80601f0160208091040260200160405190810160405280929190818152602001828054610c8a90614fa0565b8015610cd75780601f10610cac57610100808354040283529160200191610cd7565b820191906000526020600020905b815481529060010190602001808311610cba57829003601f168201915b5050505050905090565b6000610cec82612ede565b506000828152600460205260409020546001600160a01b0316610c49565b610d15828233612f17565b5050565b6006546001600160a01b03163314801590610d3f5750600f546001600160a01b03163314155b15610d6457604051634a0bfec160e01b81523360048201526024015b60405180910390fd5b60008281526008602052604090206007015415610d975760405163163fe02b60e11b815260048101839052602401610d5b565b600082815260086020526040908190204260079091015551600080516020615f7083398151915290610dcc9084815260200190565b60405180910390a16000818152600860205260408120600601805463ffffffff1691610df783614fea565b825463ffffffff9182166101009390930a928302919092021990911617905550600081815260086020819052604090912001546001600160a01b03168015610ea657601a54601b546040516340c10f1960e01b81526001600160a01b03848116600483015260029290921c60248201529116906340c10f1990604401600060405180830381600087803b158015610e8d57600080fd5b505af1158015610ea1573d6000803e3d6000fd5b505050505b6040518381527ff8e1a15aba9398e019f0b49df1a4fde98ee17ae345cb5f6b5e2c27f5033e8ce79060200160405180910390a1505050565b610ee6612eb1565b6018805460ff1916911515919091179055565b610f01612eb1565b828114610f215760405163512509d360e11b815260040160405180910390fd5b610f2d60168585614291565b50610f3a6017838361433a565b5050505050565b6001600160a01b038216610f6b57604051633250574960e11b815260006004820152602401610d5b565b6000610f78838333612f24565b9050836001600160a01b0316816001600160a01b031614610fc6576040516364283d7b60e01b81526001600160a01b0380861660048301526024820184905282166044820152606401610d5b565b50505050565b60178181548110610fdc57600080fd5b600091825260209091200154905081565b610ff5612eb1565b60006110096006546001600160a01b031690565b6001600160a01b03164760405160006040518083038185875af1925050503d8060008114611053576040519150601f19603f3d011682016040523d82523d6000602084013e611058565b606091505b505090508061107a576040516327fcd9d160e01b815260040160405180910390fd5b50565b611085614375565b60008281526008602052604090819020815160c081019092528054829082906110ad90614fa0565b80601f01602080910402602001604051908101604052809291908181526020018280546110d990614fa0565b80156111265780601f106110fb57610100808354040283529160200191611126565b820191906000526020600020905b81548152906001019060200180831161110957829003601f168201915b5050509183525050600182015460208201526040805160808101825260028401805492909301929091829060ff166007811115611165576111656147c1565b6007811115611176576111766147c1565b81528154602090910190610100900460ff166007811115611199576111996147c1565b60078111156111aa576111aa6147c1565b8152815460209091019062010000900460ff1660078111156111ce576111ce6147c1565b60078111156111df576111df6147c1565b815281546020909101906301000000900460ff166007811115611204576112046147c1565b6007811115611215576112156147c1565b815250508152602001600382016040518060c00160405290816000820154815260200160018201604051806101200160405290816000820160009054906101000a900461ffff1661ffff1661ffff1681526020016000820160029054906101000a900460ff1660ff1660ff1681526020016000820160039054906101000a900460ff1660ff1660ff1681526020016000820160049054906101000a900461ffff1661ffff1661ffff1681526020016000820160069054906101000a900460ff1660ff1660ff1681526020016000820160079054906101000a900460ff1660ff1660ff1681526020016000820160089054906101000a900461ffff1661ffff1661ffff16815260200160008201600a9054906101000a900460ff1660ff1660ff16815260200160008201600b9054906101000a900460ff1660ff1660ff168152505081526020016002820160009054906101000a900461ffff1661ffff1661ffff1681526020016002820160029054906101000a900460ff1660ff1660ff1681526020016002820160039054906101000a900460ff1660ff1660ff1681526020016002820160049054906101000a900460ff1660ff1660ff1681525050815260200160068201604051806101200160405290816000820160009054906101000a900463ffffffff1663ffffffff1663ffffffff1681526020016000820160049054906101000a900461ffff1661ffff1661ffff1681526020016000820160069054906101000a900461ffff1661ffff1661ffff1681526020016000820160089054906101000a900461ffff1661ffff1661ffff16815260200160008201600a9054906101000a900460ff1615151515815260200160008201600b9054906101000a900460ff1615151515815260200160008201600c9054906101000a900460ff1615151515815260200160008201600d9054906101000a900460ff1615151515815260200160018201548152505081526020016008820160009054906101000a90046001600160a01b03166001600160a01b03166001600160a01b0316815250509050919050565b611537838383604051806020016040528060008152506122a1565b505050565b611544613104565b6000805b8281101561164c5760008484838181106115645761156461500f565b60209081029290920135600081815260089384905260409020928301549093506001600160a01b0316331490506115b05760405162dd34af60e41b815260048101839052602401610d5b565b6006810154600160681b900460ff16156115e05760405163c4d9079d60e01b815260048101839052602401610d5b565b600781015415156000816115f657601b546115fd565b601b5460011c5b426007850155604051858152909150600080516020615f708339815191529060200160405180910390a16116308461312e565b61163a8187615025565b95505060019093019250611548915050565b5080156116b857601a546040516340c10f1960e01b8152336004820152602481018390526001600160a01b03909116906340c10f1990604401600060405180830381600087803b15801561169f57600080fd5b505af11580156116b3573d6000803e3d6000fd5b505050505b50610d156001600755565b6006546001600160a01b031633148015906116e95750600f546001600160a01b03163314155b1561170957604051634a0bfec160e01b8152336004820152602401610d5b565b61107a81613169565b606080601660178180548060200260200160405190810160405280929190818152602001828054801561178257602002820191906000526020600020906000905b825461010083900a900460ff168152602060019283018181049485019490930390920291018084116117535790505b50505050509150808054806020026020016040519081016040528092919081815260200182805480156117d457602002820191906000526020600020905b8154815260200190600101908083116117c0575b50505050509050915091509091565b6008602052600090815260409020805481906117fe90614fa0565b80601f016020809104026020016040519081016040528092919081815260200182805461182a90614fa0565b80156118775780601f1061184c57610100808354040283529160200191611877565b820191906000526020600020905b81548152906001019060200180831161185a57829003601f168201915b505050505090806001015490806002016040518060800160405290816000820160009054906101000a900460ff1660078111156118b6576118b66147c1565b60078111156118c7576118c76147c1565b81528154602090910190610100900460ff1660078111156118ea576118ea6147c1565b60078111156118fb576118fb6147c1565b8152815460209091019062010000900460ff16600781111561191f5761191f6147c1565b6007811115611930576119306147c1565b815281546020909101906301000000900460ff166007811115611955576119556147c1565b6007811115611966576119666147c1565b8152505090806003016040518060c00160405290816000820154815260200160018201604051806101200160405290816000820160009054906101000a900461ffff1661ffff1661ffff1681526020016000820160029054906101000a900460ff1660ff1660ff1681526020016000820160039054906101000a900460ff1660ff1660ff1681526020016000820160049054906101000a900461ffff1661ffff1661ffff1681526020016000820160069054906101000a900460ff1660ff1660ff1681526020016000820160079054906101000a900460ff1660ff1660ff1681526020016000820160089054906101000a900461ffff1661ffff1661ffff16815260200160008201600a9054906101000a900460ff1660ff1660ff16815260200160008201600b9054906101000a900460ff1660ff1660ff168152505081526020016002820160009054906101000a900461ffff1661ffff1661ffff1681526020016002820160029054906101000a900460ff1660ff1660ff1681526020016002820160039054906101000a900460ff1660ff1660ff1681526020016002820160049054906101000a900460ff1660ff1660ff16815250509080600601604051806101200160405290816000820160009054906101000a900463ffffffff1663ffffffff1663ffffffff1681526020016000820160049054906101000a900461ffff1661ffff1661ffff1681526020016000820160069054906101000a900461ffff1661ffff1661ffff1681526020016000820160089054906101000a900461ffff1661ffff1661ffff16815260200160008201600a9054906101000a900460ff1615151515815260200160008201600b9054906101000a900460ff1615151515815260200160008201600c9054906101000a900460ff1615151515815260200160008201600d9054906101000a900460ff16151515158152602001600182015481525050908060080160009054906101000a90046001600160a01b0316905086565b611c51612eb1565b600d55565b6001600160a01b0381166000908152600a60205260409020606090610c4990613216565b336000908152600b6020526040902054600d544290611c999083615025565b811015611cb9576040516337a193d360e21b815260040160405180910390fd5b60005b600a811015611cfe57611cd13385600061322a565b6009546000908152600860205260409020600601805460ff60681b1916600160681b179055600101611cbc565b50336000908152600b60205260409020555050565b611d1b613104565b60178360ff1681548110611d3157611d3161500f565b90600052602060002001543414611d66576040516312a1605d60e31b815260ff84166004820152346024820152604401610d5b565b6001600160a01b038216611d8d5760405163119833d760e11b815260040160405180910390fd5b600060168460ff1681548110611da557611da561500f565b60009182526020808320908204015460ff601f9092166101000a9004169150611dcf856001615038565b905060005b82811015611e31578160ff16811015611e1d57600081611df5886001615038565b60ff16611e029190615051565b9050611e178886611e12846133cd565b61322a565b50611e29565b611e298785600061322a565b600101611dd4565b50611e5d848360178860ff1681548110611e4d57611e4d61500f565b9060005260206000200154613438565b6001600160a01b0386166000908152600c602052604081208054849290611e85908490615025565b9091555050600160075550610fc69050565b60168181548110611ea757600080fd5b9060005260206000209060209182820401919006915054906101000a900460ff1681565b3360009081526019602052604081205460ff16611efd57604051634a0bfec160e01b8152336004820152602401610d5b565b611f1a83611f1361022085016102008601614ba5565b600061322a565b6009546000818152600860205260409020611f36818386613563565b509392505050565b6000610c4982612ede565b600060328210611f695760508210611f62576002610c49565b6001610c49565b600092915050565b60006001600160a01b038216611f9d576040516322718ad960e21b815260006004820152602401610d5b565b506001600160a01b031660009081526003602052604090205490565b611fc1612eb1565b611fcb6000613884565b565b3360009081526019602052604090205460ff16611fff57604051634a0bfec160e01b8152336004820152602401610d5b565b600061200c826001615038565b905060005b84811015612066578160ff1681101561205257600081612032856001615038565b61203c9190615064565b905061204c8786611e12846133cd565b5061205e565b61205e8685600061322a565b600101612011565b506001600160a01b0385166000908152600c60205260408120805486929061208f908490615025565b90915550505050505050565b60005b81811015611537576120c78383838181106120bb576120bb61500f565b90506020020135612388565b60010161209e565b6010546001600160a01b031633148015906120f55750600f546001600160a01b03163314155b801561210c57506011546001600160a01b03163314155b1561212c57604051634a0bfec160e01b8152336004820152602401610d5b565b6000828152600860205260409020600601805482158015600160601b0260ff60601b199092169190911790915561218357604051828152600080516020615f70833981519152906020015b60405180910390a15050565b6040518281527ff27b6ce5b2f5e68ddb2fd95a8a909d4ecf1daaac270935fff052feacb24f184290602001612177565b336000908152600a602052604081206121cb90613216565b905060005b8151811015610d1557600860008383815181106121ef576121ef61500f565b60200260200101518152602001908152602001600020600601600001600b9054906101000a900460ff1661223f5761223f8282815181106122325761223261500f565b6020026020010151612388565b6001016121d0565b61224f612eb1565b6001600160a01b03919091166000908152601960205260409020805460ff1916911515919091179055565b606060018054610c5e90614fa0565b612291612eb1565b601b55565b610d153383836138d6565b6122ac848484610f41565b610fc63385858585613975565b601254600082815260086020526040908190209051637c1d0bcb60e01b81526060926001600160a01b031691637c1d0bcb916122f891906004016152df565b600060405180830381865afa158015612315573d6000803e3d6000fd5b505050506040513d6000823e601f3d908101601f19168201604052610c499190810190615337565b3360009081526019602052604090205460ff1661236f57604051634a0bfec160e01b8152336004820152602401610d5b565b6000828152600860205260409020611537818484613563565b6040518181527ff8e1a15aba9398e019f0b49df1a4fde98ee17ae345cb5f6b5e2c27f5033e8ce79060200160405180910390a16000818152600860208190526040909120908101546001600160a01b031633146123fa5760405162dd34af60e41b815260048101839052602401610d5b565b6006810154600160581b900460ff161561242a57604051635331ce1f60e11b815260048101839052602401610d5b565b6013546003820154604051632f09b60960e21b815260048101919091526000916001600160a01b03169063bc26d824906024016020604051808303816000875af115801561247c573d6000803e3d6000fd5b505050506040513d601f19601f820116820180604052508101906124a0919061536b565b60145460038401546005850154604051637017ac9560e11b81526004810188905260248101929092526001600160401b038416604483015261ffff1660648201529192506000916001600160a01b039091169063e02f592a90608401600060405180830381865afa158015612519573d6000803e3d6000fd5b505050506040513d6000823e601f3d908101601f1916820160405261254191908101906155c6565b80519091508390612552908261572c565b508060600151836003016000820151816000015560208201518160010160008201518160000160006101000a81548161ffff021916908361ffff16021790555060208201518160000160026101000a81548160ff021916908360ff16021790555060408201518160000160036101000a81548160ff021916908360ff16021790555060608201518160000160046101000a81548161ffff021916908361ffff16021790555060808201518160000160066101000a81548160ff021916908360ff16021790555060a08201518160000160076101000a81548160ff021916908360ff16021790555060c08201518160000160086101000a81548161ffff021916908361ffff16021790555060e082015181600001600a6101000a81548160ff021916908360ff16021790555061010082015181600001600b6101000a81548160ff021916908360ff160217905550505060408201518160020160006101000a81548161ffff021916908361ffff16021790555060608201518160020160026101000a81548160ff021916908360ff16021790555060808201518160020160036101000a81548160ff021916908360ff16021790555060a08201518160020160046101000a81548160ff021916908360ff16021790555090505080604001518360020160008201518160000160006101000a81548160ff0219169083600781111561275d5761275d6147c1565b021790555060208201518154829061ff001916610100836007811115612785576127856147c1565b021790555060408201518154829062ff00001916620100008360078111156127af576127af6147c1565b021790555060608201518154829063ff000000191663010000008360078111156127db576127db6147c1565b021790555050506080808201510151600684018054911515600160501b0260ff60501b198316811790915563ffffffff90811691161760000361283a5760808101515160068401805463ffffffff191663ffffffff9092169190911790555b601554604080516318987be760e11b815290516001600160a01b0390921691633130f7ce916004808201926020929091908290030181865afa158015612884573d6000803e3d6000fd5b505050506040513d601f19601f820116820180604052508101906128a891906157ea565b60068401805460ff60581b1961ffff9390931664010000000002929092166bff0000000000ffff000000001990921691909117600160581b179055610fc684613169565b6128f4612eb1565b6018805461ffff9092166101000262ffff0019909216919091179055565b6001600160a01b03918216600090815260056020908152604080832093909416825291909152205460ff1690565b60606000826001600160401b0381111561295c5761295c614d46565b60405190808252806020026020018201604052801561299557816020015b612982614375565b81526020019060019003908161297a5790505b50905060005b83811015611f3657600860008686848181106129b9576129b961500f565b9050602002013581526020019081526020016000206040518060c00160405290816000820180546129e990614fa0565b80601f0160208091040260200160405190810160405280929190818152602001828054612a1590614fa0565b8015612a625780601f10612a3757610100808354040283529160200191612a62565b820191906000526020600020905b815481529060010190602001808311612a4557829003601f168201915b5050509183525050600182015460208201526040805160808101825260028401805492909301929091829060ff166007811115612aa157612aa16147c1565b6007811115612ab257612ab26147c1565b81528154602090910190610100900460ff166007811115612ad557612ad56147c1565b6007811115612ae657612ae66147c1565b8152815460209091019062010000900460ff166007811115612b0a57612b0a6147c1565b6007811115612b1b57612b1b6147c1565b815281546020909101906301000000900460ff166007811115612b4057612b406147c1565b6007811115612b5157612b516147c1565b815250508152602001600382016040518060c00160405290816000820154815260200160018201604051806101200160405290816000820160009054906101000a900461ffff1661ffff1661ffff1681526020016000820160029054906101000a900460ff1660ff1660ff1681526020016000820160039054906101000a900460ff1660ff1660ff1681526020016000820160049054906101000a900461ffff1661ffff1661ffff1681526020016000820160069054906101000a900460ff1660ff1660ff1681526020016000820160079054906101000a900460ff1660ff1660ff1681526020016000820160089054906101000a900461ffff1661ffff1661ffff16815260200160008201600a9054906101000a900460ff1660ff1660ff16815260200160008201600b9054906101000a900460ff1660ff1660ff168152505081526020016002820160009054906101000a900461ffff1661ffff1661ffff1681526020016002820160029054906101000a900460ff1660ff1660ff1681526020016002820160039054906101000a900460ff1660ff1660ff1681526020016002820160049054906101000a900460ff1660ff1660ff1681525050815260200160068201604051806101200160405290816000820160009054906101000a900463ffffffff1663ffffffff1663ffffffff1681526020016000820160049054906101000a900461ffff1661ffff1661ffff1681526020016000820160069054906101000a900461ffff1661ffff1661ffff1681526020016000820160089054906101000a900461ffff1661ffff1661ffff16815260200160008201600a9054906101000a900460ff1615151515815260200160008201600b9054906101000a900460ff1615151515815260200160008201600c9054906101000a900460ff1615151515815260200160008201600d9054906101000a900460ff1615151515815260200160018201548152505081526020016008820160009054906101000a90046001600160a01b03166001600160a01b03166001600160a01b031681525050828281518110612e6357612e6361500f565b602090810291909101015260010161299b565b612e7e612eb1565b6001600160a01b038116612ea857604051631e4fbdf760e01b815260006004820152602401610d5b565b61107a81613884565b6006546001600160a01b03163314611fcb5760405163118cdaa760e01b8152336004820152602401610d5b565b6000818152600260205260408120546001600160a01b031680610c4957604051637e27328960e01b815260048101849052602401610d5b565b6115378383836001613a9f565b60008281526008602081905260408220908101546001600160a01b0390811690861615612f6e57600782015415612f6e576040516398586ca160e01b815260040160405180910390fd5b6006820154600160601b900460ff1615612f9e5760405163128379f760e11b815260048101869052602401610d5b565b6001600160a01b0381161561306f576001600160a01b0381166000908152600c6020526040902054600a1115612ff257604051637c0df70b60e11b81526001600160a01b0382166004820152602401610d5b565b6001600160a01b0386161580159061302257506001600160a01b0386166000908152600c6020526040902054600a115b1561304b57604051637c0df70b60e11b81526001600160a01b0387166004820152602401610d5b565b6001600160a01b0381166000908152600a6020526040902061306d9086613ba5565b505b6001600160a01b038616156130bf576001600160a01b0386166000908152600a602052604090206130a09086613bb1565b506008820180546001600160a01b0319166001600160a01b0388161790555b6001600160a01b0386166130ef57604051858152600080516020615f708339815191529060200160405180910390a15b6130fa868686613bbd565b9695505050505050565b60026007540361312757604051633ee5aeb560e01b815260040160405180910390fd5b6002600755565b600061313d6000836000612f24565b90506001600160a01b038116610d1557604051637e27328960e01b815260048101839052602401610d5b565b60008181526008602052604090819020601554915163863bea7f60e01b815290916001600160a01b03169063863bea7f906131a89084906004016152df565b602060405180830381865afa1580156131c5573d6000803e3d6000fd5b505050506040513d601f19601f820116820180604052508101906131e991906157ea565b6006909101805461ffff9290921666010000000000000267ffff0000000000001990921691909117905550565b6060600061322383613cb6565b9392505050565b60185460ff161561324e57604051636be9245d60e11b815260040160405180910390fd5b60185461ffff6101009091048116908316118061326d575061ffff8216155b1561329157604051633a6d207560e11b815261ffff83166004820152602401610d5b565b600980549060006132a183615807565b909155505060095460008181526008602090815260408083206001810194909455601354815163f8413b0760e01b815291516001600160a01b039091169363f8413b07936004848101949193929183900301908290875af115801561330a573d6000803e3d6000fd5b505050506040513d601f19601f8201168201806040525081019061332e9190615820565b600382015560058101805461ffff191661ffff858116919091179091558216156133685760068101805463ffffffff191661ffff84161790555b61337484600954613d12565b6008810180546001600160a01b0319166001600160a01b0386161790556009546040519081527ff27b6ce5b2f5e68ddb2fd95a8a909d4ecf1daaac270935fff052feacb24f18429060200160405180910390a150505050565b600060068260ff16106133e357506103e8919050565b8160ff166005036133f7575061012c919050565b8160ff1660040361340a57506064919050565b8160ff1660030361341d5750601e919050565b8160ff166002036134305750600a919050565b506001919050565b6001600160a01b0383166000908152600e602052604081208054849290613460908490615025565b90915550506001600160a01b0383166000908152600e6020526040812054620186a0811061349157603291506134cc565b61c35081106134a357602391506134cc565b61271081106134b557601491506134cc565b6103e881106134c757600a91506134cc565b600091505b600060646134da8486615839565b6134e49190615850565b90506000866001600160a01b03168260405160006040518083038185875af1925050503d8060008114613533576040519150601f19603f3d011682016040523d82523d6000602084013e613538565b606091505b505090508061355a576040516387df070960e01b815260040160405180910390fd5b50505050505050565b6040518281527ff8e1a15aba9398e019f0b49df1a4fde98ee17ae345cb5f6b5e2c27f5033e8ce79060200160405180910390a16007830154156135b9576040516398586ca160e01b815260040160405180910390fd5b6006830154600160601b900460ff16156135e95760405163128379f760e11b815260048101839052602401610d5b565b60006135fd846135f884615ab6565b613d2c565b90506136098280615b58565b8591613616919083615b9e565b5061362961024083016102208401615c5d565b60058501805460ff92909216620100000262ff00001990921691909117905561365a61026083016102408401615c5d565b60058501805460ff9290921663010000000263ff0000001990921691909117905561368d61028083016102608401615c5d565b60058501805460ff929092166401000000000264ff00000000199092169190911790556136c261022083016102008401614ba5565b60058501805461ffff191661ffff9290921691909117905560e08201600485016136ec8282615c94565b505060408201600285016137008282615e21565b506137159050610320830161030084016146a9565b600685015460ff600160501b9091041615159015151461376057613741610320830161030084016146a9565b600685018054911515600160501b0260ff60501b199092169190911790555b6006840154600160581b900460ff16156137b557600684018054829190600890613796908490600160401b900461ffff16615ed7565b92506101000a81548161ffff021916908361ffff16021790555061387b565b60068401805460ff60581b1961ffff8416600160401b02166bff00ffff00000000000000001990911617600160581b179055601554604080516318987be760e11b815290516001600160a01b0390921691633130f7ce916004808201926020929091908290030181865afa158015613831573d6000803e3d6000fd5b505050506040513d601f19601f8201168201806040525081019061385591906157ea565b60068501805461ffff929092166401000000000265ffff00000000199092169190911790555b610fc683613169565b600680546001600160a01b038381166001600160a01b0319831681179093556040519116919082907f8be0079c531659141344cd1fd0a4f28419497f9722a3daafe3b4186f6b6457e090600090a35050565b6001600160a01b03821661390857604051630b61174360e31b81526001600160a01b0383166004820152602401610d5b565b6001600160a01b03838116600081815260056020908152604080832094871680845294825291829020805460ff191686151590811790915591519182527f17307eab39ab6107e8899845ad3d59bd9653f200f220920489ca2b5937696c31910160405180910390a3505050565b6001600160a01b0383163b15610f3a57604051630a85bd0160e11b81526001600160a01b0384169063150b7a02906139b7908890889087908790600401615ef1565b6020604051808303816000875af19250505080156139f2575060408051601f3d908101601f191682019092526139ef91810190615f24565b60015b613a5b573d808015613a20576040519150601f19603f3d011682016040523d82523d6000602084013e613a25565b606091505b508051600003613a5357604051633250574960e11b81526001600160a01b0385166004820152602401610d5b565b805181602001fd5b6001600160e01b03198116630a85bd0160e11b14613a9757604051633250574960e11b81526001600160a01b0385166004820152602401610d5b565b505050505050565b8080613ab357506001600160a01b03821615155b15613b75576000613ac384612ede565b90506001600160a01b03831615801590613aef5750826001600160a01b0316816001600160a01b031614155b8015613b025750613b008184612912565b155b15613b2b5760405163a9fbf51f60e01b81526001600160a01b0384166004820152602401610d5b565b8115613b735783856001600160a01b0316826001600160a01b03167f8c5be1e5ebec7d5bd14f71427d1e84f3dd0314c0f7b2291e5b200ac8c7c3b92560405160405180910390a45b505b5050600090815260046020526040902080546001600160a01b0319166001600160a01b0392909216919091179055565b60006132238383614008565b600061322383836140fb565b6000828152600260205260408120546001600160a01b0390811690831615613bea57613bea81848661414a565b6001600160a01b03811615613c2857613c07600085600080613a9f565b6001600160a01b038116600090815260036020526040902080546000190190555b6001600160a01b03851615613c57576001600160a01b0385166000908152600360205260409020805460010190555b60008481526002602052604080822080546001600160a01b0319166001600160a01b0389811691821790925591518793918516917fddf252ad1be2c89b69c2b068fc378daa952ba7f163c4a11628f55a4df523b3ef91a4949350505050565b606081600001805480602002602001604051908101604052809291908181526020018280548015613d0657602002820191906000526020600020905b815481526020019060010190808311613cf2575b50505050509050919050565b610d158282604051806020016040528060008152506141ae565b60408101515160009081906007811115613d4857613d486147c1565b600285015460ff166007811115613d6157613d616147c1565b14613d745780613d7081615f41565b9150505b8260400151602001516007811115613d8e57613d8e6147c1565b6002850154610100900460ff166007811115613dac57613dac6147c1565b14613dbf5780613dbb81615f41565b9150505b8260400151604001516007811115613dd957613dd96147c1565b600285015462010000900460ff166007811115613df857613df86147c1565b14613e0b5780613e0781615f41565b9150505b8260400151606001516007811115613e2557613e256147c1565b60028501546301000000900460ff166007811115613e4557613e456147c1565b14613e585780613e5481615f41565b9150505b6005840154606080850151015160009160ff620100009091048116911611613e9f5760608481015101516005860154613e9a919062010000900460ff16615064565b613ebf565b60058501546060858101510151613ebf9162010000900460ff1690615064565b600586015460608601516080015191925060009160ff63010000009092048216911611613f0d576060850151608001516005870154613f0891906301000000900460ff16615064565b613f2f565b6005860154606086015160800151613f2f916301000000900460ff1690615064565b6005870154606087015160a0015191925060009160ff6401000000009092048216911611613f7f57606086015160a001516005880154613f7a9190640100000000900460ff16615064565b613fa2565b6005870154606087015160a00151613fa291640100000000900460ff1690615064565b905080613faf8385615038565b613fb99190615038565b613fc69060ff1685615ed7565b9350856080015160800151151587600601600001600a9054906101000a900460ff16151514613ffd57613ffa600385615ed7565b93505b509195945050505050565b600081815260018301602052604081205480156140f157600061402c600183615051565b855490915060009061404090600190615051565b90508082146140a55760008660000182815481106140605761406061500f565b90600052602060002001549050808760000184815481106140835761408361500f565b6000918252602080832090910192909255918252600188019052604090208390555b85548690806140b6576140b6615f59565b600190038181906000526020600020016000905590558560010160008681526020019081526020016000206000905560019350505050610c49565b6000915050610c49565b600081815260018301602052604081205461414257508154600181810184556000848152602080822090930184905584548482528286019093526040902091909155610c49565b506000610c49565b6141558383836141c6565b611537576001600160a01b03831661418357604051637e27328960e01b815260048101829052602401610d5b565b60405163177e802f60e01b81526001600160a01b038316600482015260248101829052604401610d5b565b6141b8838361422c565b611537336000858585613975565b60006001600160a01b038316158015906142245750826001600160a01b0316846001600160a01b0316148061420057506142008484612912565b8061422457506000828152600460205260409020546001600160a01b038481169116145b949350505050565b6001600160a01b03821661425657604051633250574960e11b815260006004820152602401610d5b565b600061426483836000612f24565b90506001600160a01b03811615611537576040516339e3563760e11b815260006004820152602401610d5b565b82805482825590600052602060002090601f0160209004810192821561432a5791602002820160005b838211156142fb57833560ff1683826101000a81548160ff021916908360ff16021790555092602001926001016020816000010492830192600103026142ba565b80156143285782816101000a81549060ff02191690556001016020816000010492830192600103026142fb565b505b50614336929150614493565b5090565b82805482825590600052602060002090810192821561432a579160200282015b8281111561432a57823582559160200191906001019061435a565b6040518060c0016040528060608152602001600081526020016143b96040805160808101909152806000815260200160008152602001600081526020016000905290565b815260200161443a6040805160c0808201835260008083528351610120810185528181526020818101839052948101829052606081018290526080810182905260a0810182905291820181905260e0820181905261010082015290918201908152600060208201819052604082018190526060820181905260809091015290565b8152604080516101208101825260008082526020828101829052928201819052606082018190526080820181905260a0820181905260c0820181905260e082018190526101008201529101908152600060209091015290565b5b808211156143365760008155600101614494565b6001600160a01b038116811461107a57600080fd5b80356144c8816144a8565b919050565b600080600080600080600080610100898b0312156144ea57600080fd5b88356144f5816144a8565b97506020890135614505816144a8565b96506040890135614515816144a8565b95506060890135614525816144a8565b94506080890135614535816144a8565b935060a0890135614545816144a8565b925060c0890135614555816144a8565b915060e0890135614565816144a8565b809150509295985092959890939650565b6001600160e01b03198116811461107a57600080fd5b60006020828403121561459e57600080fd5b813561322381614576565b60005b838110156145c45781810151838201526020016145ac565b50506000910152565b600081518084526145e58160208601602086016145a9565b601f01601f19169290920160200192915050565b60208152600061322360208301846145cd565b60006020828403121561461e57600080fd5b8135613223816144a8565b60006020828403121561463b57600080fd5b5035919050565b6000806040838503121561465557600080fd5b8235614660816144a8565b946020939093013593505050565b6000806040838503121561468157600080fd5b50508035926020909101359150565b801515811461107a57600080fd5b80356144c881614690565b6000602082840312156146bb57600080fd5b813561322381614690565b60008083601f8401126146d857600080fd5b5081356001600160401b038111156146ef57600080fd5b6020830191508360208260051b850101111561470a57600080fd5b9250929050565b6000806000806040858703121561472757600080fd5b84356001600160401b0381111561473d57600080fd5b614749878288016146c6565b90955093505060208501356001600160401b0381111561476857600080fd5b614774878288016146c6565b95989497509550505050565b60008060006060848603121561479557600080fd5b83356147a0816144a8565b925060208401356147b0816144a8565b929592945050506040919091013590565b634e487b7160e01b600052602160045260246000fd5b6008811061107a57634e487b7160e01b600052602160045260246000fd5b8051614800816147d7565b82526020810151614810816147d7565b60208301526040810151614823816147d7565b60408301526060810151614836816147d7565b806060840152505050565b80518252602081015161ffff815116602084015260ff60208201511660408401526040810151614876606085018260ff169052565b50606081015161ffff8116608085015250608081015160ff811660a08501525060a081015160ff811660c08501525060c081015161ffff811660e08501525060e081015160ff811661010085015250610100015160ff811661012084015250604081015161ffff811661014084015250606081015160ff811661016084015250608081015160ff81166101808401525060a0015160ff166101a09190910152565b63ffffffff815116825261ffff60208201511660208301526040810151614944604084018261ffff169052565b50606081015161495a606084018261ffff169052565b50608081015161496e608084018215159052565b5060a081015161498260a084018215159052565b5060c081015161499660c084018215159052565b5060e08101516149aa60e084018215159052565b5061010090810151910152565b600081516103c084526149ce6103c08501826145cd565b90506020830151602085015260408301516149ec60408601826147f5565b5060608301516149ff60c0860182614841565b506080830151614a13610280860182614917565b5060a092909201516001600160a01b03166103a09390930192909252919050565b60208152600061322360208301846149b7565b60008060208385031215614a5a57600080fd5b82356001600160401b03811115614a7057600080fd5b614a7c858286016146c6565b90969095509350505050565b600081518084526020840193506020830160005b82811015614aba578151865260209586019590910190600101614a9c565b5093949350505050565b6040808252835190820181905260009060208501906060840190835b81811015614b0157835160ff16835260209384019390920191600101614ae0565b505083810360208501526130fa8186614a88565b6103c081526000614b2a6103c08301896145cd565b9050866020830152614b3f60408301876147f5565b614b4c60c0830186614841565b614b5a610280830185614917565b6001600160a01b03929092166103a0919091015295945050505050565b6020815260006132236020830184614a88565b61ffff8116811461107a57600080fd5b80356144c881614b8a565b600060208284031215614bb757600080fd5b813561322381614b8a565b60ff8116811461107a57600080fd5b80356144c881614bc2565b60008060008060808587031215614bf257600080fd5b8435614bfd816144a8565b93506020850135614c0d81614bc2565b92506040850135614c1d816144a8565b91506060850135614c2d81614b8a565b939692955090935050565b60006103c08284031215614c4b57600080fd5b50919050565b60008060408385031215614c6457600080fd5b8235614c6f816144a8565b915060208301356001600160401b03811115614c8a57600080fd5b614c9685828601614c38565b9150509250929050565b60008060008060808587031215614cb657600080fd5b8435614cc1816144a8565b9350602085013592506040850135614cd881614b8a565b91506060850135614c2d81614bc2565b60008060408385031215614cfb57600080fd5b823591506020830135614d0d81614690565b809150509250929050565b60008060408385031215614d2b57600080fd5b8235614d36816144a8565b91506020830135614d0d81614690565b634e487b7160e01b600052604160045260246000fd5b60405160c081016001600160401b0381118282101715614d7e57614d7e614d46565b60405290565b60405161012081016001600160401b0381118282101715614d7e57614d7e614d46565b604051608081016001600160401b0381118282101715614d7e57614d7e614d46565b604051601f8201601f191681016001600160401b0381118282101715614df157614df1614d46565b604052919050565b60006001600160401b03821115614e1257614e12614d46565b50601f01601f191660200190565b6000614e33614e2e84614df9565b614dc9565b9050828152838383011115614e4757600080fd5b828260208301376000602084830101529392505050565b60008060008060808587031215614e7457600080fd5b8435614e7f816144a8565b93506020850135614e8f816144a8565b92506040850135915060608501356001600160401b03811115614eb157600080fd5b8501601f81018713614ec257600080fd5b614ed187823560208401614e20565b91505092959194509250565b60008060408385031215614ef057600080fd5b8235915060208301356001600160401b03811115614c8a57600080fd5b60008060408385031215614f2057600080fd5b8235614f2b816144a8565b91506020830135614d0d816144a8565b6000602082016020835280845180835260408501915060408160051b86010192506020860160005b82811015614f9457603f19878603018452614f7f8583516149b7565b94506020938401939190910190600101614f63565b50929695505050505050565b600181811c90821680614fb457607f821691505b602082108103614c4b57634e487b7160e01b600052602260045260246000fd5b634e487b7160e01b600052601160045260246000fd5b600063ffffffff821663ffffffff810361500657615006614fd4565b60010192915050565b634e487b7160e01b600052603260045260246000fd5b80820180821115610c4957610c49614fd4565b60ff8181168382160190811115610c4957610c49614fd4565b81810381811115610c4957610c49614fd4565b60ff8281168282160390811115610c4957610c49614fd4565b805460ff811661508c816147d7565b8352600881901c60ff1661509f816147d7565b6020840152601081901c60ff166150b5816147d7565b604084015260181c60ff16614836816147d7565b805463ffffffff81168352602081811c61ffff1690840152603081901c61ffff166040840152604081901c61ffff1660608401526151116080840160ff8360501c1615159052565b61512560a0840160ff8360581c1615159052565b61513960c0840160ff8360601c1615159052565b61514d60e0840160ff8360681c1615159052565b50600101546101009190910152565b6103c08252600080825461516f81614fa0565b806103c0870152600182166000811461518f57600181146151ad576151e3565b60ff1983166103e08801526103e082151560051b88010193506151e3565b85600052602060002060005b838110156151d95781548982016103e001526001909101906020016151b9565b88016103e0019450505b50505060018301546020850152615200604085016002850161507d565b600383015460c0850152600483015461ffff80821660e087015260ff601083811c8216610100890152601884811c83166101208a0152602085811c85166101408b0152603086901c84166101608b0152603886901c84166101808b0152604086901c85166101a08b0152605086901c84166101c08b015260589590951c83166101e08a015260058801549384166102008a01529083901c821661022089015282901c8116610240880152911c166102608501526152c46102808501600685016150c9565b60088301546001600160a01b03166103a08501819052611f36565b602081526000613223602083018461515c565b600082601f83011261530357600080fd5b8151615311614e2e82614df9565b81815284602083860101111561532657600080fd5b6142248260208301602087016145a9565b60006020828403121561534957600080fd5b81516001600160401b0381111561535f57600080fd5b614224848285016152f2565b60006020828403121561537d57600080fd5b81516001600160401b038116811461322357600080fd5b6008811061107a57600080fd5b80516144c881614b8a565b80516144c881614bc2565b60008183036101c08112156153cb57600080fd5b6153d3614d5c565b835181529150610120601f19820112156153ec57600080fd5b506153f5614d84565b615401602084016153a1565b815261540f604084016153ac565b6020820152615420606084016153ac565b6040820152615431608084016153a1565b606082015261544260a084016153ac565b608082015261545360c084016153ac565b60a082015261546460e084016153a1565b60c082015261547661010084016153ac565b60e082015261548861012084016153ac565b61010082015260208201526154a061014083016153a1565b60408201526154b261016083016153ac565b60608201526154c461018083016153ac565b60808201526154d66101a083016153ac565b60a082015292915050565b63ffffffff8116811461107a57600080fd5b80516144c8816154e1565b80516144c881614690565b6000610120828403121561551c57600080fd5b615524614d84565b905061552f826154f3565b815261553d602083016153a1565b602082015261554e604083016153a1565b604082015261555f606083016153a1565b6060820152615570608083016154fe565b608082015261558160a083016154fe565b60a082015261559260c083016154fe565b60c08201526155a360e083016154fe565b60e08201526101009182015191810191909152919050565b80516144c8816144a8565b6000602082840312156155d857600080fd5b81516001600160401b038111156155ee57600080fd5b82018084036103c081121561560257600080fd5b61560a614d5c565b82516001600160401b0381111561562057600080fd5b61562c878286016152f2565b825250602083810151908201526080603f198301121561564b57600080fd5b615653614da7565b9150604083015161566381615394565b8252606083015161567381615394565b6020830152608083015161568681615394565b604083015260a083015161569981615394565b6060830152604081018290526156b28660c085016153b7565b60608201526156c5866102808501615509565b60808201526156d76103a084016155bb565b60a082015295945050505050565b601f82111561153757806000526020600020601f840160051c8101602085101561570c5750805b601f840160051c820191505b81811015610f3a5760008155600101615718565b81516001600160401b0381111561574557615745614d46565b615759816157538454614fa0565b846156e5565b6020601f82116001811461578d57600083156157755750848201515b600019600385901b1c1916600184901b178455610f3a565b600084815260208120601f198516915b828110156157bd578785015182556020948501946001909201910161579d565b50848210156157db5786840151600019600387901b60f8161c191681555b50505050600190811b01905550565b6000602082840312156157fc57600080fd5b815161322381614b8a565b60006001820161581957615819614fd4565b5060010190565b60006020828403121561583257600080fd5b5051919050565b8082028115828204841417610c4957610c49614fd4565b60008261586d57634e487b7160e01b600052601260045260246000fd5b500490565b60006080828403121561588457600080fd5b61588c614da7565b9050813561589981615394565b815260208201356158a981615394565b602082015260408201356158bc81615394565b604082015260608201356158cf81615394565b606082015292915050565b60008183036101c08112156158ee57600080fd5b6158f6614d5c565b833581529150610120601f198201121561590f57600080fd5b50615918614d84565b61592460208401614b9a565b815261593260408401614bd1565b602082015261594360608401614bd1565b604082015261595460808401614b9a565b606082015261596560a08401614bd1565b608082015261597660c08401614bd1565b60a082015261598760e08401614b9a565b60c08201526159996101008401614bd1565b60e08201526159ab6101208401614bd1565b61010082015260208201526159c36101408301614b9a565b60408201526159d56101608301614bd1565b60608201526159e76101808301614bd1565b60808201526154d66101a08301614bd1565b80356144c8816154e1565b60006101208284031215615a1757600080fd5b615a1f614d84565b9050615a2a826159f9565b8152615a3860208301614b9a565b6020820152615a4960408301614b9a565b6040820152615a5a60608301614b9a565b6060820152615a6b6080830161469e565b6080820152615a7c60a0830161469e565b60a0820152615a8d60c0830161469e565b60c0820152615a9e60e0830161469e565b60e08201526101009182013591810191909152919050565b60006103c08236031215615ac957600080fd5b615ad1614d5c565b82356001600160401b03811115615ae757600080fd5b830136601f820112615af857600080fd5b615b0736823560208401614e20565b82525060208381013590820152615b213660408501615872565b6040820152615b333660c085016158da565b6060820152615b46366102808501615a04565b60808201526154d66103a084016144bd565b6000808335601e19843603018112615b6f57600080fd5b8301803591506001600160401b03821115615b8957600080fd5b60200191503681900382131561470a57600080fd5b6001600160401b03831115615bb557615bb5614d46565b615bc983615bc38354614fa0565b836156e5565b6000601f841160018114615bfd5760008515615be55750838201355b600019600387901b1c1916600186901b178355610f3a565b600083815260209020601f19861690835b82811015615c2e5786850135825560209485019460019092019101615c0e565b5086821015615c4b5760001960f88860031b161c19848701351681555b505060018560011b0183555050505050565b600060208284031215615c6f57600080fd5b813561322381614bc2565b60008135610c4981614b8a565b60008135610c4981614bc2565b8135615c9f81614b8a565b61ffff811661ffff198354161782555060006020830135615cbf81614bc2565b8254909150819062ff00001916601082901b62ff0000161783555050615d04615cea60408401615c87565b825463ff000000191660189190911b63ff00000016178255565b615d31615d1360608401615c7a565b825465ffff00000000191660209190911b65ffff0000000016178255565b615d60615d4060808401615c87565b825466ff000000000000191660309190911b66ff00000000000016178255565b615d91615d6f60a08401615c87565b825467ff00000000000000191660389190911b67ff0000000000000016178255565b615dc6615da060c08401615c7a565b825469ffff0000000000000000191660409190911b69ffff000000000000000016178255565b615df3615dd560e08401615c87565b82805460ff60501b191660509290921b60ff60501b16919091179055565b610d15615e036101008401615c87565b82805460ff60581b191660589290921b60ff60581b16919091179055565b8135615e2c81615394565b615e35816147d7565b815460ff821691508160ff1982161783556020840135615e5481615394565b615e5d816147d7565b61ff008160081b168361ffff1984161717925050508082556040830135615e8381615394565b615e8c816147d7565b62ff0000601082901b1662ff0000198316179150508082556060830135615eb281615394565b615ebb816147d7565b63ff000000601882901b1663ff00000019831617835550505050565b61ffff8181168382160190811115610c4957610c49614fd4565b6001600160a01b03858116825284166020820152604081018390526080606082018190526000906130fa908301846145cd565b600060208284031215615f3657600080fd5b815161322381614576565b600061ffff821661ffff810361500657615006614fd4565b634e487b7160e01b600052603160045260246000fdfe032bc66be43dbccb7487781d168eb7bda224628a3b2c3388bdf69b532a3a1611a26469706673582212201c08aed908d79d611f866073cf5417099a9211a74050a374984c023a428cc1b364736f6c634300081c0033",
  "linkReferences": {},
  "deployedLinkReferences": {}
}