{
  "_format": "hh-sol-artifact-1",
  "contractName": "Game",
  "sourceName": "contracts/Game.sol",
  "abi": [
    {
      "inputs": [
        {
          "internalType": "address",
          "name": "_ships",
          "type": "address"
        },
        {
          "internalType": "address",
          "name": "_shipAttributes",
          "type": "address"
        }
      ],
      "stateMutability": "nonpayable",
      "type": "constructor"
    },
    {
      "inputs": [],
      "name": "GameNotFound",
      "type": "error"
    },
    {
      "inputs": [],
      "name": "InvalidMove",
      "type": "error"
    },
    {
      "inputs": [],
      "name": "NotInGame",
      "type": "error"
    },
    {
      "inputs": [],
      "name": "NotLobbiesContract",
      "type": "error"
    },
    {
      "inputs": [
        {
          "internalType": "address",
          "name": "owner",
          "type": "address"
        }
      ],
      "name": "OwnableInvalidOwner",
      "type": "error"
    },
    {
      "inputs": [
        {
          "internalType": "address",
          "name": "account",
          "type": "address"
        }
      ],
      "name": "OwnableUnauthorizedAccount",
      "type": "error"
    },
    {
      "inputs": [],
      "name": "ShipAlreadyMoved",
      "type": "error"
    },
    {
      "inputs": [],
      "name": "ShipDestroyed",
      "type": "error"
    },
    {
      "inputs": [],
      "name": "ShipNotFound",
      "type": "error"
    },
    {
      "inputs": [],
      "name": "ShipNotOwned",
      "type": "error"
    },
    {
      "inputs": [],
      "name": "TurnTimeoutExceeded",
      "type": "error"
    },
    {
      "inputs": [],
      "name": "TurnTimeoutNotReached",
      "type": "error"
    },
    {
      "anonymous": false,
      "inputs": [
        {
          "indexed": true,
          "internalType": "uint256",
          "name": "gameId",
          "type": "uint256"
        },
        {
          "indexed": true,
          "internalType": "uint256",
          "name": "lobbyId",
          "type": "uint256"
        },
        {
          "indexed": false,
          "internalType": "address",
          "name": "creator",
          "type": "address"
        },
        {
          "indexed": false,
          "internalType": "address",
          "name": "joiner",
          "type": "address"
        }
      ],
      "name": "GameStarted",
      "type": "event"
    },
    {
      "anonymous": false,
      "inputs": [
        {
          "indexed": true,
          "internalType": "uint256",
          "name": "gameId",
          "type": "uint256"
        }
      ],
      "name": "GameUpdate",
      "type": "event"
    },
    {
      "anonymous": false,
      "inputs": [
        {
          "indexed": true,
          "internalType": "uint256",
          "name": "gameId",
          "type": "uint256"
        },
        {
          "indexed": false,
          "internalType": "uint256",
          "name": "shipId",
          "type": "uint256"
        },
        {
          "indexed": false,
          "internalType": "int16",
          "name": "oldRow",
          "type": "int16"
        },
        {
          "indexed": false,
          "internalType": "int16",
          "name": "oldCol",
          "type": "int16"
        },
        {
          "indexed": false,
          "internalType": "int16",
          "name": "newRow",
          "type": "int16"
        },
        {
          "indexed": false,
          "internalType": "int16",
          "name": "newCol",
          "type": "int16"
        },
        {
          "indexed": false,
          "internalType": "enum ActionType",
          "name": "actionType",
          "type": "uint8"
        },
        {
          "indexed": false,
          "internalType": "uint256",
          "name": "targetShipId",
          "type": "uint256"
        }
      ],
      "name": "Move",
      "type": "event"
    },
    {
      "anonymous": false,
      "inputs": [
        {
          "indexed": true,
          "internalType": "address",
          "name": "previousOwner",
          "type": "address"
        },
        {
          "indexed": true,
          "internalType": "address",
          "name": "newOwner",
          "type": "address"
        }
      ],
      "name": "OwnershipTransferred",
      "type": "event"
    },
    {
      "inputs": [],
      "name": "GRID_HEIGHT",
      "outputs": [
        {
          "internalType": "int16",
          "name": "",
          "type": "int16"
        }
      ],
      "stateMutability": "view",
      "type": "function"
    },
    {
      "inputs": [],
      "name": "GRID_WIDTH",
      "outputs": [
        {
          "internalType": "int16",
          "name": "",
          "type": "int16"
        }
      ],
      "stateMutability": "view",
      "type": "function"
    },
    {
      "inputs": [
        {
          "internalType": "uint256",
          "name": "_gameId",
          "type": "uint256"
        },
        {
          "internalType": "uint256[]",
          "name": "_shipIds",
          "type": "uint256[]"
        }
      ],
      "name": "calculateFleetAttributes",
      "outputs": [],
      "stateMutability": "nonpayable",
      "type": "function"
    },
    {
      "inputs": [
        {
          "internalType": "uint256",
          "name": "_gameId",
          "type": "uint256"
        },
        {
          "internalType": "uint256",
          "name": "_shipId",
          "type": "uint256"
        }
      ],
      "name": "calculateShipAttributes",
      "outputs": [],
      "stateMutability": "nonpayable",
      "type": "function"
    },
    {
      "inputs": [
        {
          "internalType": "uint256",
          "name": "_gameId",
          "type": "uint256"
        },
        {
          "internalType": "uint256",
          "name": "_shipId",
          "type": "uint256"
        }
      ],
      "name": "debugDestroyShip",
      "outputs": [],
      "stateMutability": "nonpayable",
      "type": "function"
    },
    {
      "inputs": [
        {
          "internalType": "uint256",
          "name": "_gameId",
          "type": "uint256"
        },
        {
          "internalType": "uint256",
          "name": "_shipId",
          "type": "uint256"
        }
      ],
      "name": "debugSetHullPointsToZero",
      "outputs": [],
      "stateMutability": "nonpayable",
      "type": "function"
    },
    {
      "inputs": [
        {
          "internalType": "uint256",
          "name": "_gameId",
          "type": "uint256"
        },
        {
          "internalType": "uint256",
          "name": "_shipId",
          "type": "uint256"
        },
        {
          "internalType": "int16",
          "name": "_row",
          "type": "int16"
        },
        {
          "internalType": "int16",
          "name": "_col",
          "type": "int16"
        }
      ],
      "name": "debugSetShipPosition",
      "outputs": [],
      "stateMutability": "nonpayable",
      "type": "function"
    },
    {
      "inputs": [
        {
          "internalType": "uint256",
          "name": "_gameId",
          "type": "uint256"
        }
      ],
      "name": "endGameOnTimeout",
      "outputs": [],
      "stateMutability": "nonpayable",
      "type": "function"
    },
    {
      "inputs": [
        {
          "internalType": "uint256",
          "name": "_gameId",
          "type": "uint256"
        }
      ],
      "name": "flee",
      "outputs": [],
      "stateMutability": "nonpayable",
      "type": "function"
    },
    {
      "inputs": [],
      "name": "fleets",
      "outputs": [
        {
          "internalType": "contract IFleets",
          "name": "",
          "type": "address"
        }
      ],
      "stateMutability": "view",
      "type": "function"
    },
    {
      "inputs": [],
      "name": "gameCount",
      "outputs": [
        {
          "internalType": "uint256",
          "name": "",
          "type": "uint256"
        }
      ],
      "stateMutability": "view",
      "type": "function"
    },
    {
      "inputs": [],
      "name": "gameResults",
      "outputs": [
        {
          "internalType": "contract IGameResults",
          "name": "",
          "type": "address"
        }
      ],
      "stateMutability": "view",
      "type": "function"
    },
    {
      "inputs": [
        {
          "internalType": "uint256",
          "name": "_gameId",
          "type": "uint256"
        }
      ],
      "name": "getAllShipPositions",
      "outputs": [
        {
          "components": [
            {
              "internalType": "uint256",
              "name": "shipId",
              "type": "uint256"
            },
            {
              "components": [
                {
                  "internalType": "int16",
                  "name": "row",
                  "type": "int16"
                },
                {
                  "internalType": "int16",
                  "name": "col",
                  "type": "int16"
                }
              ],
              "internalType": "struct Position",
              "name": "position",
              "type": "tuple"
            },
            {
              "internalType": "bool",
              "name": "isCreator",
              "type": "bool"
            },
            {
              "internalType": "uint8",
              "name": "status",
              "type": "uint8"
            }
          ],
          "internalType": "struct ShipPosition[]",
          "name": "",
          "type": "tuple[]"
        }
      ],
      "stateMutability": "view",
      "type": "function"
    },
    {
      "inputs": [
        {
          "internalType": "uint256",
          "name": "_gameId",
          "type": "uint256"
        }
      ],
      "name": "getGame",
      "outputs": [
        {
          "components": [
            {
              "components": [
                {
                  "internalType": "uint256",
                  "name": "gameId",
                  "type": "uint256"
                },
                {
                  "internalType": "uint256",
                  "name": "lobbyId",
                  "type": "uint256"
                },
                {
                  "internalType": "address",
                  "name": "creator",
                  "type": "address"
                },
                {
                  "internalType": "address",
                  "name": "joiner",
                  "type": "address"
                },
                {
                  "internalType": "uint256",
                  "name": "creatorFleetId",
                  "type": "uint256"
                },
                {
                  "internalType": "uint256",
                  "name": "joinerFleetId",
                  "type": "uint256"
                },
                {
                  "internalType": "bool",
                  "name": "creatorGoesFirst",
                  "type": "bool"
                },
                {
                  "internalType": "uint256",
                  "name": "startedAt",
                  "type": "uint256"
                },
                {
                  "internalType": "address",
                  "name": "winner",
                  "type": "address"
                }
              ],
              "internalType": "struct GameMetadata",
              "name": "metadata",
              "type": "tuple"
            },
            {
              "components": [
                {
                  "internalType": "address",
                  "name": "currentTurn",
                  "type": "address"
                },
                {
                  "internalType": "uint256",
                  "name": "turnTime",
                  "type": "uint256"
                },
                {
                  "internalType": "uint256",
                  "name": "turnStartTime",
                  "type": "uint256"
                },
                {
                  "internalType": "uint256",
                  "name": "currentRound",
                  "type": "uint256"
                }
              ],
              "internalType": "struct GameTurnState",
              "name": "turnState",
              "type": "tuple"
            },
            {
              "components": [
                {
                  "internalType": "int16",
                  "name": "gridWidth",
                  "type": "int16"
                },
                {
                  "internalType": "int16",
                  "name": "gridHeight",
                  "type": "int16"
                }
              ],
              "internalType": "struct GameGridDimensions",
              "name": "gridDimensions",
              "type": "tuple"
            },
            {
              "internalType": "uint256",
              "name": "maxScore",
              "type": "uint256"
            },
            {
              "internalType": "uint256",
              "name": "creatorScore",
              "type": "uint256"
            },
            {
              "internalType": "uint256",
              "name": "joinerScore",
              "type": "uint256"
            },
            {
              "components": [
                {
                  "internalType": "uint256",
                  "name": "shipId",
                  "type": "uint256"
                },
                {
                  "internalType": "int16",
                  "name": "oldRow",
                  "type": "int16"
                },
                {
                  "internalType": "int16",
                  "name": "oldCol",
                  "type": "int16"
                },
                {
                  "internalType": "int16",
                  "name": "newRow",
                  "type": "int16"
                },
                {
                  "internalType": "int16",
                  "name": "newCol",
                  "type": "int16"
                },
                {
                  "internalType": "enum ActionType",
                  "name": "actionType",
                  "type": "uint8"
                },
                {
                  "internalType": "uint256",
                  "name": "targetShipId",
                  "type": "uint256"
                },
                {
                  "internalType": "uint256",
                  "name": "timestamp",
                  "type": "uint256"
                }
              ],
              "internalType": "struct LastMove",
              "name": "lastMove",
              "type": "tuple"
            },
            {
              "internalType": "uint256[]",
              "name": "shipIds",
              "type": "uint256[]"
            },
            {
              "components": [
                {
                  "internalType": "uint16",
                  "name": "version",
                  "type": "uint16"
                },
                {
                  "internalType": "uint8",
                  "name": "range",
                  "type": "uint8"
                },
                {
                  "internalType": "uint8",
                  "name": "gunDamage",
                  "type": "uint8"
                },
                {
                  "internalType": "uint8",
                  "name": "hullPoints",
                  "type": "uint8"
                },
                {
                  "internalType": "uint8",
                  "name": "maxHullPoints",
                  "type": "uint8"
                },
                {
                  "internalType": "uint8",
                  "name": "movement",
                  "type": "uint8"
                },
                {
                  "internalType": "uint8",
                  "name": "damageReduction",
                  "type": "uint8"
                },
                {
                  "internalType": "uint8",
                  "name": "reactorCriticalTimer",
                  "type": "uint8"
                },
                {
                  "internalType": "uint8[]",
                  "name": "statusEffects",
                  "type": "uint8[]"
                }
              ],
              "internalType": "struct Attributes[]",
              "name": "shipAttributes",
              "type": "tuple[]"
            },
            {
              "components": [
                {
                  "internalType": "uint256",
                  "name": "shipId",
                  "type": "uint256"
                },
                {
                  "components": [
                    {
                      "internalType": "int16",
                      "name": "row",
                      "type": "int16"
                    },
                    {
                      "internalType": "int16",
                      "name": "col",
                      "type": "int16"
                    }
                  ],
                  "internalType": "struct Position",
                  "name": "position",
                  "type": "tuple"
                },
                {
                  "internalType": "bool",
                  "name": "isCreator",
                  "type": "bool"
                },
                {
                  "internalType": "uint8",
                  "name": "status",
                  "type": "uint8"
                }
              ],
              "internalType": "struct ShipPosition[]",
              "name": "shipPositions",
              "type": "tuple[]"
            },
            {
              "internalType": "uint256[]",
              "name": "creatorActiveShipIds",
              "type": "uint256[]"
            },
            {
              "internalType": "uint256[]",
              "name": "joinerActiveShipIds",
              "type": "uint256[]"
            },
            {
              "internalType": "uint256[]",
              "name": "creatorMovedShipIds",
              "type": "uint256[]"
            },
            {
              "internalType": "uint256[]",
              "name": "joinerMovedShipIds",
              "type": "uint256[]"
            }
          ],
          "internalType": "struct GameDataView",
          "name": "",
          "type": "tuple"
        }
      ],
      "stateMutability": "view",
      "type": "function"
    },
    {
      "inputs": [
        {
          "internalType": "address",
          "name": "_player",
          "type": "address"
        }
      ],
      "name": "getGamesForPlayer",
      "outputs": [
        {
          "components": [
            {
              "components": [
                {
                  "internalType": "uint256",
                  "name": "gameId",
                  "type": "uint256"
                },
                {
                  "internalType": "uint256",
                  "name": "lobbyId",
                  "type": "uint256"
                },
                {
                  "internalType": "address",
                  "name": "creator",
                  "type": "address"
                },
                {
                  "internalType": "address",
                  "name": "joiner",
                  "type": "address"
                },
                {
                  "internalType": "uint256",
                  "name": "creatorFleetId",
                  "type": "uint256"
                },
                {
                  "internalType": "uint256",
                  "name": "joinerFleetId",
                  "type": "uint256"
                },
                {
                  "internalType": "bool",
                  "name": "creatorGoesFirst",
                  "type": "bool"
                },
                {
                  "internalType": "uint256",
                  "name": "startedAt",
                  "type": "uint256"
                },
                {
                  "internalType": "address",
                  "name": "winner",
                  "type": "address"
                }
              ],
              "internalType": "struct GameMetadata",
              "name": "metadata",
              "type": "tuple"
            },
            {
              "components": [
                {
                  "internalType": "address",
                  "name": "currentTurn",
                  "type": "address"
                },
                {
                  "internalType": "uint256",
                  "name": "turnTime",
                  "type": "uint256"
                },
                {
                  "internalType": "uint256",
                  "name": "turnStartTime",
                  "type": "uint256"
                },
                {
                  "internalType": "uint256",
                  "name": "currentRound",
                  "type": "uint256"
                }
              ],
              "internalType": "struct GameTurnState",
              "name": "turnState",
              "type": "tuple"
            },
            {
              "components": [
                {
                  "internalType": "int16",
                  "name": "gridWidth",
                  "type": "int16"
                },
                {
                  "internalType": "int16",
                  "name": "gridHeight",
                  "type": "int16"
                }
              ],
              "internalType": "struct GameGridDimensions",
              "name": "gridDimensions",
              "type": "tuple"
            },
            {
              "internalType": "uint256",
              "name": "maxScore",
              "type": "uint256"
            },
            {
              "internalType": "uint256",
              "name": "creatorScore",
              "type": "uint256"
            },
            {
              "internalType": "uint256",
              "name": "joinerScore",
              "type": "uint256"
            },
            {
              "components": [
                {
                  "internalType": "uint256",
                  "name": "shipId",
                  "type": "uint256"
                },
                {
                  "internalType": "int16",
                  "name": "oldRow",
                  "type": "int16"
                },
                {
                  "internalType": "int16",
                  "name": "oldCol",
                  "type": "int16"
                },
                {
                  "internalType": "int16",
                  "name": "newRow",
                  "type": "int16"
                },
                {
                  "internalType": "int16",
                  "name": "newCol",
                  "type": "int16"
                },
                {
                  "internalType": "enum ActionType",
                  "name": "actionType",
                  "type": "uint8"
                },
                {
                  "internalType": "uint256",
                  "name": "targetShipId",
                  "type": "uint256"
                },
                {
                  "internalType": "uint256",
                  "name": "timestamp",
                  "type": "uint256"
                }
              ],
              "internalType": "struct LastMove",
              "name": "lastMove",
              "type": "tuple"
            },
            {
              "internalType": "uint256[]",
              "name": "shipIds",
              "type": "uint256[]"
            },
            {
              "components": [
                {
                  "internalType": "uint16",
                  "name": "version",
                  "type": "uint16"
                },
                {
                  "internalType": "uint8",
                  "name": "range",
                  "type": "uint8"
                },
                {
                  "internalType": "uint8",
                  "name": "gunDamage",
                  "type": "uint8"
                },
                {
                  "internalType": "uint8",
                  "name": "hullPoints",
                  "type": "uint8"
                },
                {
                  "internalType": "uint8",
                  "name": "maxHullPoints",
                  "type": "uint8"
                },
                {
                  "internalType": "uint8",
                  "name": "movement",
                  "type": "uint8"
                },
                {
                  "internalType": "uint8",
                  "name": "damageReduction",
                  "type": "uint8"
                },
                {
                  "internalType": "uint8",
                  "name": "reactorCriticalTimer",
                  "type": "uint8"
                },
                {
                  "internalType": "uint8[]",
                  "name": "statusEffects",
                  "type": "uint8[]"
                }
              ],
              "internalType": "struct Attributes[]",
              "name": "shipAttributes",
              "type": "tuple[]"
            },
            {
              "components": [
                {
                  "internalType": "uint256",
                  "name": "shipId",
                  "type": "uint256"
                },
                {
                  "components": [
                    {
                      "internalType": "int16",
                      "name": "row",
                      "type": "int16"
                    },
                    {
                      "internalType": "int16",
                      "name": "col",
                      "type": "int16"
                    }
                  ],
                  "internalType": "struct Position",
                  "name": "position",
                  "type": "tuple"
                },
                {
                  "internalType": "bool",
                  "name": "isCreator",
                  "type": "bool"
                },
                {
                  "internalType": "uint8",
                  "name": "status",
                  "type": "uint8"
                }
              ],
              "internalType": "struct ShipPosition[]",
              "name": "shipPositions",
              "type": "tuple[]"
            },
            {
              "internalType": "uint256[]",
              "name": "creatorActiveShipIds",
              "type": "uint256[]"
            },
            {
              "internalType": "uint256[]",
              "name": "joinerActiveShipIds",
              "type": "uint256[]"
            },
            {
              "internalType": "uint256[]",
              "name": "creatorMovedShipIds",
              "type": "uint256[]"
            },
            {
              "internalType": "uint256[]",
              "name": "joinerMovedShipIds",
              "type": "uint256[]"
            }
          ],
          "internalType": "struct GameDataView[]",
          "name": "",
          "type": "tuple[]"
        }
      ],
      "stateMutability": "view",
      "type": "function"
    },
    {
      "inputs": [
        {
          "internalType": "uint256[]",
          "name": "_gameIds",
          "type": "uint256[]"
        }
      ],
      "name": "getGamesFromIds",
      "outputs": [
        {
          "components": [
            {
              "components": [
                {
                  "internalType": "uint256",
                  "name": "gameId",
                  "type": "uint256"
                },
                {
                  "internalType": "uint256",
                  "name": "lobbyId",
                  "type": "uint256"
                },
                {
                  "internalType": "address",
                  "name": "creator",
                  "type": "address"
                },
                {
                  "internalType": "address",
                  "name": "joiner",
                  "type": "address"
                },
                {
                  "internalType": "uint256",
                  "name": "creatorFleetId",
                  "type": "uint256"
                },
                {
                  "internalType": "uint256",
                  "name": "joinerFleetId",
                  "type": "uint256"
                },
                {
                  "internalType": "bool",
                  "name": "creatorGoesFirst",
                  "type": "bool"
                },
                {
                  "internalType": "uint256",
                  "name": "startedAt",
                  "type": "uint256"
                },
                {
                  "internalType": "address",
                  "name": "winner",
                  "type": "address"
                }
              ],
              "internalType": "struct GameMetadata",
              "name": "metadata",
              "type": "tuple"
            },
            {
              "components": [
                {
                  "internalType": "address",
                  "name": "currentTurn",
                  "type": "address"
                },
                {
                  "internalType": "uint256",
                  "name": "turnTime",
                  "type": "uint256"
                },
                {
                  "internalType": "uint256",
                  "name": "turnStartTime",
                  "type": "uint256"
                },
                {
                  "internalType": "uint256",
                  "name": "currentRound",
                  "type": "uint256"
                }
              ],
              "internalType": "struct GameTurnState",
              "name": "turnState",
              "type": "tuple"
            },
            {
              "components": [
                {
                  "internalType": "int16",
                  "name": "gridWidth",
                  "type": "int16"
                },
                {
                  "internalType": "int16",
                  "name": "gridHeight",
                  "type": "int16"
                }
              ],
              "internalType": "struct GameGridDimensions",
              "name": "gridDimensions",
              "type": "tuple"
            },
            {
              "internalType": "uint256",
              "name": "maxScore",
              "type": "uint256"
            },
            {
              "internalType": "uint256",
              "name": "creatorScore",
              "type": "uint256"
            },
            {
              "internalType": "uint256",
              "name": "joinerScore",
              "type": "uint256"
            },
            {
              "components": [
                {
                  "internalType": "uint256",
                  "name": "shipId",
                  "type": "uint256"
                },
                {
                  "internalType": "int16",
                  "name": "oldRow",
                  "type": "int16"
                },
                {
                  "internalType": "int16",
                  "name": "oldCol",
                  "type": "int16"
                },
                {
                  "internalType": "int16",
                  "name": "newRow",
                  "type": "int16"
                },
                {
                  "internalType": "int16",
                  "name": "newCol",
                  "type": "int16"
                },
                {
                  "internalType": "enum ActionType",
                  "name": "actionType",
                  "type": "uint8"
                },
                {
                  "internalType": "uint256",
                  "name": "targetShipId",
                  "type": "uint256"
                },
                {
                  "internalType": "uint256",
                  "name": "timestamp",
                  "type": "uint256"
                }
              ],
              "internalType": "struct LastMove",
              "name": "lastMove",
              "type": "tuple"
            },
            {
              "internalType": "uint256[]",
              "name": "shipIds",
              "type": "uint256[]"
            },
            {
              "components": [
                {
                  "internalType": "uint16",
                  "name": "version",
                  "type": "uint16"
                },
                {
                  "internalType": "uint8",
                  "name": "range",
                  "type": "uint8"
                },
                {
                  "internalType": "uint8",
                  "name": "gunDamage",
                  "type": "uint8"
                },
                {
                  "internalType": "uint8",
                  "name": "hullPoints",
                  "type": "uint8"
                },
                {
                  "internalType": "uint8",
                  "name": "maxHullPoints",
                  "type": "uint8"
                },
                {
                  "internalType": "uint8",
                  "name": "movement",
                  "type": "uint8"
                },
                {
                  "internalType": "uint8",
                  "name": "damageReduction",
                  "type": "uint8"
                },
                {
                  "internalType": "uint8",
                  "name": "reactorCriticalTimer",
                  "type": "uint8"
                },
                {
                  "internalType": "uint8[]",
                  "name": "statusEffects",
                  "type": "uint8[]"
                }
              ],
              "internalType": "struct Attributes[]",
              "name": "shipAttributes",
              "type": "tuple[]"
            },
            {
              "components": [
                {
                  "internalType": "uint256",
                  "name": "shipId",
                  "type": "uint256"
                },
                {
                  "components": [
                    {
                      "internalType": "int16",
                      "name": "row",
                      "type": "int16"
                    },
                    {
                      "internalType": "int16",
                      "name": "col",
                      "type": "int16"
                    }
                  ],
                  "internalType": "struct Position",
                  "name": "position",
                  "type": "tuple"
                },
                {
                  "internalType": "bool",
                  "name": "isCreator",
                  "type": "bool"
                },
                {
                  "internalType": "uint8",
                  "name": "status",
                  "type": "uint8"
                }
              ],
              "internalType": "struct ShipPosition[]",
              "name": "shipPositions",
              "type": "tuple[]"
            },
            {
              "internalType": "uint256[]",
              "name": "creatorActiveShipIds",
              "type": "uint256[]"
            },
            {
              "internalType": "uint256[]",
              "name": "joinerActiveShipIds",
              "type": "uint256[]"
            },
            {
              "internalType": "uint256[]",
              "name": "creatorMovedShipIds",
              "type": "uint256[]"
            },
            {
              "internalType": "uint256[]",
              "name": "joinerMovedShipIds",
              "type": "uint256[]"
            }
          ],
          "internalType": "struct GameDataView[]",
          "name": "",
          "type": "tuple[]"
        }
      ],
      "stateMutability": "view",
      "type": "function"
    },
    {
      "inputs": [
        {
          "internalType": "uint256",
          "name": "_gameId",
          "type": "uint256"
        },
        {
          "internalType": "uint256",
          "name": "_shipId",
          "type": "uint256"
        }
      ],
      "name": "getShipAttributes",
      "outputs": [
        {
          "components": [
            {
              "internalType": "uint16",
              "name": "version",
              "type": "uint16"
            },
            {
              "internalType": "uint8",
              "name": "range",
              "type": "uint8"
            },
            {
              "internalType": "uint8",
              "name": "gunDamage",
              "type": "uint8"
            },
            {
              "internalType": "uint8",
              "name": "hullPoints",
              "type": "uint8"
            },
            {
              "internalType": "uint8",
              "name": "maxHullPoints",
              "type": "uint8"
            },
            {
              "internalType": "uint8",
              "name": "movement",
              "type": "uint8"
            },
            {
              "internalType": "uint8",
              "name": "damageReduction",
              "type": "uint8"
            },
            {
              "internalType": "uint8",
              "name": "reactorCriticalTimer",
              "type": "uint8"
            },
            {
              "internalType": "uint8[]",
              "name": "statusEffects",
              "type": "uint8[]"
            }
          ],
          "internalType": "struct Attributes",
          "name": "",
          "type": "tuple"
        }
      ],
      "stateMutability": "view",
      "type": "function"
    },
    {
      "inputs": [
        {
          "internalType": "uint256",
          "name": "target",
          "type": "uint256"
        }
      ],
      "name": "lastDamage",
      "outputs": [
        {
          "internalType": "uint256",
          "name": "lastDamager",
          "type": "uint256"
        }
      ],
      "stateMutability": "view",
      "type": "function"
    },
    {
      "inputs": [],
      "name": "lobbiesAddress",
      "outputs": [
        {
          "internalType": "address",
          "name": "",
          "type": "address"
        }
      ],
      "stateMutability": "view",
      "type": "function"
    },
    {
      "inputs": [],
      "name": "maps",
      "outputs": [
        {
          "internalType": "contract IMaps",
          "name": "",
          "type": "address"
        }
      ],
      "stateMutability": "view",
      "type": "function"
    },
    {
      "inputs": [
        {
          "internalType": "uint256",
          "name": "_gameId",
          "type": "uint256"
        },
        {
          "internalType": "uint256",
          "name": "_shipId",
          "type": "uint256"
        },
        {
          "internalType": "int16",
          "name": "_newRow",
          "type": "int16"
        },
        {
          "internalType": "int16",
          "name": "_newCol",
          "type": "int16"
        },
        {
          "internalType": "enum ActionType",
          "name": "actionType",
          "type": "uint8"
        },
        {
          "internalType": "uint256",
          "name": "targetShipId",
          "type": "uint256"
        }
      ],
      "name": "moveShip",
      "outputs": [],
      "stateMutability": "nonpayable",
      "type": "function"
    },
    {
      "inputs": [],
      "name": "owner",
      "outputs": [
        {
          "internalType": "address",
          "name": "",
          "type": "address"
        }
      ],
      "stateMutability": "view",
      "type": "function"
    },
    {
      "inputs": [
        {
          "internalType": "address",
          "name": "",
          "type": "address"
        },
        {
          "internalType": "uint256",
          "name": "",
          "type": "uint256"
        }
      ],
      "name": "playerGames",
      "outputs": [
        {
          "internalType": "uint256",
          "name": "",
          "type": "uint256"
        }
      ],
      "stateMutability": "view",
      "type": "function"
    },
    {
      "inputs": [],
      "name": "renounceOwnership",
      "outputs": [],
      "stateMutability": "nonpayable",
      "type": "function"
    },
    {
      "inputs": [
        {
          "internalType": "address",
          "name": "_mapsAddress",
          "type": "address"
        },
        {
          "internalType": "address",
          "name": "_lobbiesAddress",
          "type": "address"
        },
        {
          "internalType": "address",
          "name": "_fleetsAddress",
          "type": "address"
        },
        {
          "internalType": "address",
          "name": "_gameResultsAddress",
          "type": "address"
        },
        {
          "internalType": "address",
          "name": "_shipAttributesAddress",
          "type": "address"
        }
      ],
      "name": "setAddresses",
      "outputs": [],
      "stateMutability": "nonpayable",
      "type": "function"
    },
    {
      "inputs": [],
      "name": "shipAttributes",
      "outputs": [
        {
          "internalType": "contract IShipAttributes",
          "name": "",
          "type": "address"
        }
      ],
      "stateMutability": "view",
      "type": "function"
    },
    {
      "inputs": [],
      "name": "ships",
      "outputs": [
        {
          "internalType": "contract IShips",
          "name": "",
          "type": "address"
        }
      ],
      "stateMutability": "view",
      "type": "function"
    },
    {
      "inputs": [
        {
          "internalType": "uint256",
          "name": "_lobbyId",
          "type": "uint256"
        },
        {
          "internalType": "address",
          "name": "_creator",
          "type": "address"
        },
        {
          "internalType": "address",
          "name": "_joiner",
          "type": "address"
        },
        {
          "internalType": "uint256",
          "name": "_creatorFleetId",
          "type": "uint256"
        },
        {
          "internalType": "uint256",
          "name": "_joinerFleetId",
          "type": "uint256"
        },
        {
          "internalType": "bool",
          "name": "_creatorGoesFirst",
          "type": "bool"
        },
        {
          "internalType": "uint256",
          "name": "_turnTime",
          "type": "uint256"
        },
        {
          "internalType": "uint256",
          "name": "_selectedMapId",
          "type": "uint256"
        },
        {
          "internalType": "uint256",
          "name": "_maxScore",
          "type": "uint256"
        }
      ],
      "name": "startGame",
      "outputs": [],
      "stateMutability": "nonpayable",
      "type": "function"
    },
    {
      "inputs": [
        {
          "internalType": "address",
          "name": "newOwner",
          "type": "address"
        }
      ],
      "name": "transferOwnership",
      "outputs": [],
      "stateMutability": "nonpayable",
      "type": "function"
    }
  ],
  "bytecode": "0x608060405234801561001057600080fd5b5060405161613938038061613983398101604081905261002f916100fc565b338061005557604051631e4fbdf760e01b81526000600482015260240160405180910390fd5b61005e81610090565b50600180546001600160a01b039384166001600160a01b0319918216179091556003805492909316911617905561012f565b600080546001600160a01b038381166001600160a01b0319831681178455604051919092169283917f8be0079c531659141344cd1fd0a4f28419497f9722a3daafe3b4186f6b6457e09190a35050565b80516001600160a01b03811681146100f757600080fd5b919050565b6000806040838503121561010f57600080fd5b610118836100e0565b9150610126602084016100e0565b90509250929050565b615ffb8061013e6000396000f3fe608060405234801561001057600080fd5b506004361061015f5760003560e01c80630a5694c2146101645780630aa1b2661461018a578063100017cb146101aa57806318d7261d146101bf5780631b8c9e90146101d2578063235e78eb146101e5578063336d7d7b146102005780633deaec2b1461022057806341f5f5e914610233578063423bb46f1461024657806348915d91146102665780634bf11ad2146102795780634d1975b41461028157806355cebda81461028a578063566adcd01461029d5780635dd68acd146102bd5780636eb0f9d2146102d0578063715018a6146102e35780637c767cb9146102eb57806384cb37ea146102fe5780638da5cb5b1461031157806390de1d9b146103195780639c91fe6714610339578063a2f77bcc1461034c578063bbf8218a1461036c578063beaa8fa41461037f578063ce720bca14610392578063e8d64aee146103a5578063f2fde38b146103b8575b600080fd5b610177610172366004614cb1565b6103cb565b6040519081526020015b60405180910390f35b61019d610198366004614cdd565b6103fc565b6040516101819190615164565b6101bd6101b83660046151c9565b610480565b005b6101bd6101cd3660046151c9565b61050e565b6101bd6101e03660046151eb565b610541565b6101ed601181565b60405160019190910b8152602001610181565b600554610213906001600160a01b031681565b6040516101819190615204565b600454610213906001600160a01b031681565b600354610213906001600160a01b031681565b6102596102543660046151c9565b61062b565b6040516101819190615218565b600254610213906001600160a01b031681565b6101ed600b81565b61017760085481565b6101bd6102983660046151c9565b61077c565b6102b06102ab3660046151eb565b6108e6565b604051610181919061522b565b6101bd6102cb36600461523e565b610c79565b61019d6102de366004615414565b610ce0565b6101bd610d93565b6101bd6102f9366004615457565b610da7565b6101bd61030c3660046151eb565b610e5e565b610213610f44565b6101776103273660046151eb565b600a6020526000908152604090205481565b6101bd6103473660046154a1565b610f53565b61035f61035a3660046151eb565b610f8a565b60405161018191906154e7565b600154610213906001600160a01b031681565b6101bd61038d3660046154fa565b6116f4565b600654610213906001600160a01b031681565b6101bd6103b3366004615573565b611d38565b6101bd6103c6366004614cdd565b611fe1565b600960205281600052604060002081815481106103e757600080fd5b90600052602060002001600091509150505481565b606061047a60096000846001600160a01b03166001600160a01b0316815260200190815260200160002080548060200260200160405190810160405280929190818152602001828054801561047057602002820191906000526020600020905b81548152602001906001019080831161045c575b5050505050610ce0565b92915050565b610488612028565b600154604051634025b22d60e01b8152600481018390526000916001600160a01b031690634025b22d90602401600060405180830381865afa1580156104d2573d6000803e3d6000fd5b505050506040513d6000823e601f3d908101601f191682016040526104fa919081019061589c565b9050610509838360008461205a565b505050565b610516612028565b600082815260076020526040902061052e838361240a565b61053b816018018361244e565b50505050565b61054a81612461565b6105538161248f565b6105705760405163023e733b60e61b815260040160405180910390fd5b600081815260076020526040902060098101546001600160a01b031633036105ab576040516321e08b4d60e21b815260040160405180910390fd5b60028101546001600160a01b031633148015906105d5575060038101546001600160a01b03163314155b156105f35760405163218286cb60e11b815260040160405180910390fd5b600981015461060e90839033906001600160a01b03166124ba565b6040518290600080516020615fa683398151915290600090a25050565b6106336148da565b61063c83612461565b600083815260076020908152604080832085845260150190915281208054909161ffff9091169003610681576040516303c113ad60e61b815260040160405180910390fd5b6040805161012081018252825461ffff8116825260ff620100008204811660208085019190915263010000008304821684860152600160201b830482166060850152600160281b830482166080850152600160301b8304821660a0850152600160381b8304821660c0850152600160401b9092041660e08301526001840180548451818402810184019095528085529293859361010086019391929183018282801561076a57602002820191906000526020600020906000905b825461010083900a900460ff1681526020600192830181810494850194909303909202910180841161073b5790505b50505050508152505091505092915050565b600082815260076020908152604080832084845260158101909252808320600354915163e197c62760e01b8152600481018690529293909290916001600160a01b03169063e197c62790602401600060405180830381865afa1580156107e6573d6000803e3d6000fd5b505050506040513d6000823e601f3d908101601f1916820160405261080e9190810190615a32565b8051835460208084015160408501516060860151608087015160a088015160c089015160ff908116600160381b0260ff60381b19928216600160301b0260ff60301b19948316600160281b029490941661ffff60281b19958316600160201b0260ff60201b199784166301000000029790971664ffff0000001993909816620100000262ffffff19909a1661ffff909b169a909a17989098171694909417929092171694909417939093179290921617845561010082015180519293506108de9260018601929190910190614928565b505050505050565b60606108f182612461565b600082815260076020526040812090805b600b600182900b12156109e05760005b6011600182900b12156109d757600182810b600090815260168601602090815260408083209385900b8352929052205480158015906109bb5750600154604051639596010160e01b8152600481018390526001600160a01b0390911690639596010190602401602060405180830381865afa158015610995573d6000803e3d6000fd5b505050506040513d601f19601f820116820180604052508101906109b99190615b2c565b155b156109ce57836109ca81615b5f565b9450505b50600101610912565b50600101610902565b50601d8201546109f09082615b78565b90506000816001600160401b03811115610a0c57610a0c6152af565b604051908082528060200260200182016040528015610a4557816020015b610a326149ce565b815260200190600190039081610a2a5790505b5090506000805b600b600182900b1215610b985760005b6011600182900b1215610b8f57600182810b600090815260168801602090815260408083209385900b835292905220548015801590610b055750600154604051639596010160e01b8152600481018390526001600160a01b0390911690639596010190602401602060405180830381865afa158015610adf573d6000803e3d6000fd5b505050506040513d601f19601f82011682018060405250810190610b039190615b2c565b155b15610b86576000610b168a836125b6565b9050604051806080016040528083815260200160405180604001604052808760010b81526020018660010b81525081526020018215158152602001600060ff16815250868681518110610b6b57610b6b615b8b565b60200260200101819052508480610b8190615b5f565b955050505b50600101610a5c565b50600101610a4c565b5060005b601d850154811015610c6e57600085601d018281548110610bbf57610bbf615b8b565b600091825260208083209091015480835260178901825260409283902083516080810185528281528451808601865260018084015480820b8352620100009004900b8186015293810193909352909350918101610c1c8b856125b6565b151581526002830154610100900460ff166020909101528551869086908110610c4757610c47615b8b565b60200260200101819052508380610c5d90615b5f565b94505060019092019150610b9c9050565b509095945050505050565b610c81612028565b600480546001600160a01b03199081166001600160a01b03978816179091556005805482169587169590951790945560028054851693861693909317909255600680548416918516919091179055600380549092169216919091179055565b6060600082516001600160401b03811115610cfd57610cfd6152af565b604051908082528060200260200182016040528015610d3657816020015b610d23614a17565b815260200190600190039081610d1b5790505b50905060005b8351811015610d8c57610d67848281518110610d5a57610d5a615b8b565b6020026020010151610f8a565b828281518110610d7957610d79615b8b565b6020908102919091010152600101610d3c565b5092915050565b610d9b612028565b610da560006125f2565b565b610daf612028565b6000938452600760209081526040808620858752601781018084528288206001808201805480830b8c526016909501808852868c206201000096879004840b8d528852868c208c90558651808801885299830b808b529890920b8988018181528b8d5294885298518154945161ffff90811690960263ffffffff19909516951694909417929092179092556002909101805461ff00191690559286529181528185209285529190915290912055565b600081815260076020526040902060088101546001600160a01b031615610e98576040516321e08b4d60e21b815260040160405180910390fd5b60028101546001600160a01b03163314801590610ec2575060038101546001600160a01b03163314155b15610ee05760405163218286cb60e11b815260040160405180910390fd5b60028101546000906001600160a01b03163314610f0a5760028201546001600160a01b0316610f19565b60038201546001600160a01b03165b9050610f268382336124ba565b6040518390600080516020615fa683398151915290600090a2505050565b6000546001600160a01b031690565b60005b815181101561050957610f8283838381518110610f7557610f75615b8b565b602002602001015161077c565b600101610f56565b610f92614a17565b610f9b82612461565b600082815260076020908152604080832060028101546001600160a01b039081168552601c8201909352818420600382015490931684529083209092610fe083612642565b90506000610fed83612642565b9050600081518351610fff9190615b78565b90506000816001600160401b0381111561101b5761101b6152af565b60405190808252806020026020018201604052801561105457816020015b6110416148da565b8152602001906001900390816110395790505b5090506000826001600160401b03811115611071576110716152af565b60405190808252806020026020018201604052801561109a578160200160208202803683370190505b50905060005b8551811015611225578860150160008783815181106110c1576110c1615b8b565b6020908102919091018101518252818101929092526040908101600020815161012081018352815461ffff8116825260ff62010000820481168387015263010000008204811683860152600160201b820481166060840152600160281b820481166080840152600160301b8204811660a0840152600160381b8204811660c0840152600160401b9091041660e0820152600182018054845181870281018701909552808552919492936101008601939092908301828280156111c057602002820191906000526020600020906000905b825461010083900a900460ff168152602060019283018181049485019490930390920291018084116111915790505b5050505050815250508382815181106111db576111db615b8b565b60200260200101819052508581815181106111f8576111f8615b8b565b602002602001015182828151811061121257611212615b8b565b60209081029190910101526001016110a0565b5060005b84518110156113c65788601501600086838151811061124a5761124a615b8b565b6020908102919091018101518252818101929092526040908101600020815161012081018352815461ffff8116825260ff62010000820481168387015263010000008204811683860152600160201b820481166060840152600160281b820481166080840152600160301b8204811660a0840152600160381b8204811660c0840152600160401b9091041660e08201526001820180548451818702810187019095528085529194929361010086019390929083018282801561134957602002820191906000526020600020906000905b825461010083900a900460ff1681526020600192830181810494850194909303909202910180841161131a5790505b505050505081525050838288516113609190615b78565b8151811061137057611370615b8b565b602002602001018190525084818151811061138d5761138d615b8b565b6020026020010151828288516113a39190615b78565b815181106113b3576113b3615b8b565b6020908102919091010152600101611229565b5060006113d28b6108e6565b60028a01549091506000906113f1908d906001600160a01b03166126d9565b60038b0154909150600090611410908e906001600160a01b03166126d9565b9050604051806101c001604052808c6000016040518061012001604052908160008201548152602001600182015481526020016002820160009054906101000a90046001600160a01b03166001600160a01b03166001600160a01b031681526020016003820160009054906101000a90046001600160a01b03166001600160a01b03166001600160a01b0316815260200160048201548152602001600582015481526020016006820160009054906101000a900460ff16151515158152602001600782015481526020016008820160009054906101000a90046001600160a01b03166001600160a01b03166001600160a01b03168152505081526020018c6009016040518060800160405290816000820160009054906101000a90046001600160a01b03166001600160a01b03166001600160a01b03168152602001600182015481526020016002820154815260200160038201548152505081526020018c600d016040518060400160405290816000820160009054906101000a900460010b60010b60010b81526020016000820160029054906101000a900460010b60010b60010b8152505081526020018c600e015481526020018c600f015481526020018c6010015481526020018c60110160405180610100016040529081600082015481526020016001820160009054906101000a900460010b60010b60010b81526020016001820160029054906101000a900460010b60010b60010b81526020016001820160049054906101000a900460010b60010b60010b81526020016001820160069054906101000a900460010b60010b60010b81526020016001820160089054906101000a900460ff16600481111561168c5761168c614d92565b600481111561169d5761169d614d92565b8152602001600282015481526020016003820154815250508152602001858152602001868152602001848152602001898152602001888152602001838152602001828152509b505050505050505050505050919050565b6116fd86612461565b600086815260076020526040902060088101546001600160a01b031615611737576040516321e08b4d60e21b815260040160405180910390fd5b60098101546001600160a01b03163314611764576040516321e08b4d60e21b815260040160405180910390fd5b600061176f87612806565b60a08101519091506001600160a01b0316331461179f57604051630b18e5d760e21b815260040160405180910390fd5b6000878152601583016020526040902060028560048111156117c3576117c3614d92565b141580156117da57508054600160201b900460ff16155b156117f8576040516398586ca160e01b815260040160405180910390fd5b60025460048085015460405162b5e41160e51b81526001600160a01b03909316926316bc82209261182c92918d9101615ba1565b602060405180830381865afa158015611849573d6000803e3d6000fd5b505050506040513d601f19601f8201168201806040525081019061186d9190615b2c565b1580156118ec5750600254600584015460405162b5e41160e51b81526001600160a01b03909216916316bc8220916118a9918c90600401615ba1565b602060405180830381865afa1580156118c6573d6000803e3d6000fd5b505050506040513d601f19601f820116820180604052508101906118ea9190615b2c565b155b1561190a576040516303c113ad60e61b815260040160405180910390fd5b600285600481111561191e5761191e614d92565b14158015611934575061193483601801896128cf565b1561195257604051637d64fb5d60e01b815260040160405180910390fd5b6000888152601784016020526040812060019081018054909281830b926201000090920490910b90600289600481111561198e5761198e614d92565b14611ae657835460018c810b91900b1480156119b75750835460018b810b62010000909204900b145b611ad2576040805180820182528554600181810b835262010000909104810b60208084019190915283518085019094528e820b8452908d900b90830152600091611a0191906128db565b60008e815260158a016020526040902080549192509060ff600160301b90910481169083161115611a45576040516321e08b4d60e21b815260040160405180910390fd5b600b60018e900b121580611a5e5750601160018d900b12155b15611a7c576040516321e08b4d60e21b815260040160405180910390fd5b8860160160008e60010b60010b815260200190815260200160002060008d60010b60010b815260200190815260200160002054600014611abb5760009a505b611acd8f8f8f8f8c60a001518d61296f565b925050505b80611ae657611ae4876018018d612b2a565b505b80611afb57611afb878e8e8e8e8e8e8d612b36565b611b048d612c14565b15611b1757611b128d612c6c565b611b20565b611b208d61307d565b42600b88015560408051610100810182528d8152600185810b602083015284900b918101919091526060810160028b6004811115611b6057611b60614d92565b14611b6b578c611b6f565b6000195b60010b815260200160028b6004811115611b8b57611b8b614d92565b14611b96578b611b9a565b6000195b60010b81526020018a6004811115611bb457611bb4614d92565b815260208082018b905242604092830152825160118b019081559083015160128b018054938501516060860151608087015161ffff908116600160301b0261ffff60301b19928216600160201b029290921663ffffffff60201b19938216620100000263ffffffff1990981691909516179590951716919091179290921780835560a084015191929060ff60401b1916600160401b836004811115611c5b57611c5b614d92565b021790555060c0820151816002015560e082015181600301559050508c7f8616d884e76378dabf68f6048a294fb93ec62a579068ada00ef52b7b88511c528d858560026004811115611caf57611caf614d92565b8e6004811115611cc157611cc1614d92565b14611ccc578f611cd0565b6000195b60028f6004811115611ce457611ce4614d92565b14611cef578f611cf3565b6000195b8f8f604051611d089796959493929190615baf565b60405180910390a26040518d90600080516020615fa683398151915290600090a250505050505050505050505050565b6005546001600160a01b03163314611d6357604051638671306560e01b815260040160405180910390fd5b60088054906000611d7383615b5f565b90915550506008546000818152600760208190526040909120918255600182018b90556002820180546001600160a01b03808d166001600160a01b031992831617909255600384018054928c1692909116919091179055600482018890556005820187905560068201805487151560ff19909116179055429082015584611dfa5787611dfc565b885b6009820180546001600160a01b0319166001600160a01b0392909216919091179055600a810184905542600b8201556001600c820155600d8101805463ffffffff1916620b0011179055600e81018290558215611eb95760048054600854604051636a5257fd60e11b81526001600160a01b039092169263d4a4affa92611e869291889101615ba1565b600060405180830381600087803b158015611ea057600080fd5b505af1158015611eb4573d6000803e3d6000fd5b505050505b611ec66008548888613198565b611ed3600854888861336b565b600854600090815260076020908152604080832060038101546001600160a01b03168452601c8101909252909120611f0a9061352c565b60028201546001600160a01b03166000908152601c830160205260409020611f319061352c565b611f3b9190615b78565b601e8201556000601f82018190556001600160a01b038b8116808352600960209081526040808520600880548254600180820185559389528589200155948f16808752828720865481549384018255908852968490209091019590955592548351928352908201939093528d92917f9f0b80476ce7b05cfe8b0800d21f0b0f2704c8eb948fa5d5e87997ec901f96d1910160405180910390a35050505050505050505050565b611fe9612028565b6001600160a01b03811661201c576000604051631e4fbdf760e01b81526004016120139190615204565b60405180910390fd5b612025816125f2565b50565b33612031610f44565b6001600160a01b031614610da5573360405163118cdaa760e01b81526004016120139190615204565b61206384612461565b60008481526007602052604090206080820151610100015115612099576040516398586ca160e01b815260040160405180910390fd5b60025460048083015460405162b5e41160e51b81526000936001600160a01b0316926316bc8220926120cf9290918a9101615ba1565b602060405180830381865afa1580156120ec573d6000803e3d6000fd5b505050506040513d601f19601f820116820180604052508101906121109190615b2c565b600254600584015460405162b5e41160e51b81529293506000926001600160a01b03909216916316bc82209161214a918a90600401615ba1565b602060405180830381865afa158015612167573d6000803e3d6000fd5b505050506040513d601f19601f8201168201806040525081019061218b9190615b2c565b905081158015612199575080155b156121b7576040516303c113ad60e61b815260040160405180910390fd5b6000868152601784016020908152604080832060018082015480820b86526016890185528386206201000090910490910b8552909252822091909155612200601885018861244e565b5061220e84601a018861244e565b50601f8401805490600061222183615b5f565b9091555050601d84018054600181018255600091825260209091200187905582156122b2576002546004808601546040516327ffe52160e01b81526001600160a01b03909316926327ffe5219261227b92918c9101615ba1565b600060405180830381600087803b15801561229557600080fd5b505af11580156122a9573d6000803e3d6000fd5b5050505061231a565b60025460058501546040516327ffe52160e01b81526001600160a01b03909216916327ffe521916122e7918b90600401615ba1565b600060405180830381600087803b15801561230157600080fd5b505af1158015612315573d6000803e3d6000fd5b505050505b85612326576001612329565b60025b60028201805460ff929092166101000261ff00199092169190911790556000878152601585016020526040812080546001600160481b0319168155906123726001830182614b44565b5050856123ed576001546000888152600a6020526040908190205490516311a960cd60e01b81526001600160a01b03909216916311a960cd916123ba918b9190600401615ba1565b600060405180830381600087803b1580156123d457600080fd5b505af11580156123e8573d6000803e3d6000fd5b505050505b6123f78888613536565b61240088613594565b5050505050505050565b600082815260076020908152604080832084845260158101909252909120805460ff60201b19169055612440601882018361244e565b5061053b81601a0183612b2a565b600061245a8383613620565b9392505050565b6000818152600760205260408120549003612025576040516309b3c62760e21b815260040160405180910390fd5b6000818152600760205260408120600a810154600b8201546124b19190615b78565b42119392505050565b60008381526007602052604090206008810180546001600160a01b0319166001600160a01b0385169081179091551580159061250057506006546001600160a01b031615155b156125745760065460405163d6c6eb9f60e01b8152600481018690526001600160a01b03858116602483015284811660448301529091169063d6c6eb9f90606401600060405180830381600087803b15801561255b57600080fd5b505af115801561256f573d6000803e3d6000fd5b505050505b600281015460048201546125959186916001600160a01b0390911690613713565b6003810154600582015461053b9186916001600160a01b0390911690613713565b600082815260076020908152604080832060028101546001600160a01b03168452601c810190925282206125ea90846128cf565b949350505050565b600080546001600160a01b038381166001600160a01b0319831681178455604051919092169283917f8be0079c531659141344cd1fd0a4f28419497f9722a3daafe3b4186f6b6457e09190a35050565b6060600061264f8361352c565b90506000816001600160401b0381111561266b5761266b6152af565b604051908082528060200260200182016040528015612694578160200160208202803683370190505b50905060005b828110156126d1576126ac85826137cf565b8282815181106126be576126be615b8b565b602090810291909101015260010161269a565b509392505050565b60008281526007602090815260408083206001600160a01b0385168452601c810190925282206060928061270c8361352c565b905060005b8181101561275057600061272585836137cf565b905061273486601801826128cf565b15612747578361274381615b5f565b9450505b50600101612711565b506000826001600160401b0381111561276b5761276b6152af565b604051908082528060200260200182016040528015612794578160200160208202803683370190505b5090506000805b838110156127f85760006127af87836137cf565b90506127be88601801826128cf565b156127ef57808484815181106127d6576127d6615b8b565b6020908102919091010152826127eb81615b5f565b9350505b5060010161279b565b509098975050505050505050565b61280e614b69565b600154604051634025b22d60e01b8152600481018490526000916001600160a01b031690634025b22d90602401600060405180830381865afa158015612858573d6000803e3d6000fd5b505050506040513d6000823e601f3d908101601f19168201604052612880919081019061589c565b905080602001516000036128a7576040516303c113ad60e61b815260040160405180910390fd5b608081015161010001511561047a576040516398586ca160e01b815260040160405180910390fd5b600061245a83836137db565b600080826000015160010b846000015160010b1361290657835183516129019190615bf7565b612914565b825184516129149190615bf7565b90506000836020015160010b856020015160010b1361294657846020015184602001516129419190615bf7565b61295a565b8360200151856020015161295a9190615bf7565b90506129668183615c1a565b95945050505050565b6000868152600760209081526040808320600188810b85526016820184528285209088900b85529092528220548015612aa55760006129ad82612806565b9050856001600160a01b03168160a001516001600160a01b0316036129e5576040516321e08b4d60e21b815260040160405180910390fd5b6000828152601584016020526040902054600160201b900460ff1615612a1e576040516321e08b4d60e21b815260040160405180910390fd5b612a2b8a8360018461205a565b600089815260158401602052604090208054600160401b900460ff16816008612a5383615c33565b91906101000a81548160ff021916908360ff1602179055505060038160000160089054906101000a900460ff1660ff1610612aa257612a958b8b60008961205a565b6001945050505050612b20565b50505b50600087815260178201602090815260408083206001908101805480830b865260169096018085528386206201000097889004840b875285528386208690558b830b86528452828520918a900b855292528220899055805461ffff80891690940263ffffffff19909116938916939093179290921790915590505b9695505050505050565b600061245a83836137f3565b6000836004811115612b4a57612b4a614d92565b14612400576001836004811115612b6357612b63614d92565b03612b7c57612b778888888888878761383d565b612400565b6002836004811115612b9057612b90614d92565b03612ba257612b77878760018461205a565b6003836004811115612bb657612bb6614d92565b03612bd4576040516321e08b4d60e21b815260040160405180910390fd5b6004836004811115612be857612be8614d92565b03612bfb57612b77878787878686613b30565b6040516321e08b4d60e21b815260040160405180910390fd5b600081815260076020526040812081612c2f6018830161352c565b90506000612c3f83601a0161352c565b905082601e015483601f01548284612c579190615b78565b612c619190615b78565b101595945050505050565b60008181526007602052604080822060048054925163d0bc9bbb60e01b81529081018590529092916001600160a01b03169063d0bc9bbb90602401600060405180830381865afa158015612cc4573d6000803e3d6000fd5b505050506040513d6000823e601f3d908101601f19168201604052612cec9190810190615cec565b80519092509050600080805b83811015612e5f576000858281518110612d1457612d14615b8b565b6020908102919091018101518051600190810b600090815260168b01845260408082208486015190930b82529190935282205490925090819003612d59575050612e57565b6000818152601589016020526040812054600160201b900460ff169003612d81575050612e57565b6004805483516020850151604051630349370d60e41b81529384018d9052600191820b6024850152900b60448301526000916001600160a01b039091169063349370d0906064016020604051808303816000875af1158015612de7573d6000803e3d6000fd5b505050506040513d601f19601f82011682018060405250810190612e0b9190615e0d565b90508060ff16600003612e2057505050612e57565b612e2a8a836125b6565b15612e4357612e3c60ff821687615b78565b9550612e53565b612e5060ff821686615b78565b94505b5050505b600101612cf8565b506000821180612e6f5750600081115b15612f40578185600f016000828254612e889190615b78565b9250508190555080856010016000828254612ea39190615b78565b9091555050600e850154600f860154101580612ec7575084600e0154856010015410155b15612f4057846010015485600f015403612eec57612ee7866000806124ba565b6108de565b846010015485600f01541115612f1e5760028501546003860154612ee79188916001600160a01b0391821691166124ba565b600385015460028601546108de9188916001600160a01b0391821691166124ba565b600c85018054906000612f5283615b5f565b9190505550612f6385601801613cac565b6000601f860181905560038601546001600160a01b03168152601c860160205260409020612f909061352c565b60028601546001600160a01b03166000908152601c870160205260409020612fb79061352c565b612fc19190615b78565b601e860155612fcf86613cb5565b600685015460009060ff16612ff15760038601546001600160a01b0316613000565b60028601546001600160a01b03165b600687015490915060009060ff166130255760028701546001600160a01b0316613034565b60038701546001600160a01b03165b9050866009016003015460011660011461304e5780613050565b815b60099790970180546001600160a01b0319166001600160a01b039098169790971790965550505050505050565b6000818152600760205260409020600281015460098201546001600160a01b0391821691160361311f5760038101546000906130c39084906001600160a01b0316613e94565b60028301549091506000906130e29085906001600160a01b0316613f28565b905081806130ee575080155b1561053b5760038301546009840180546001600160a01b0319166001600160a01b0390921691909117905550505050565b600281015460009061313b9084906001600160a01b0316613e94565b600383015490915060009061315a9085906001600160a01b0316613f28565b90508180613166575080155b1561053b5760028301546009840180546001600160a01b0319166001600160a01b0390921691909117905550505b5050565b60008381526007602052604080822060025491516348eef38560e11b8152600481018690529092916001600160a01b0316906391dde70a90602401600060405180830381865afa1580156131f0573d6000803e3d6000fd5b505050506040513d6000823e601f3d908101601f191682016040526132189190810190615e28565b50905060005b815181101561328a5760028301546001600160a01b03166000908152601c840160205260409020825161326b919084908490811061325e5761325e615b8b565b6020026020010151612b2a565b5061328286838381518110610f7557610f75615b8b565b60010161321e565b506002546040516348eef38560e11b8152600481018590526000916001600160a01b0316906391dde70a90602401600060405180830381865afa1580156132d5573d6000803e3d6000fd5b505050506040513d6000823e601f3d908101601f191682016040526132fd9190810190615e28565b50905060005b81518110156133625760038401546001600160a01b03166000908152601c8501602052604090208251613343919084908490811061325e5761325e615b8b565b5061335a87838381518110610f7557610f75615b8b565b600101613303565b50505050505050565b6002546040516348eef38560e11b81526004810184905260009182916001600160a01b03909116906391dde70a90602401600060405180830381865afa1580156133b9573d6000803e3d6000fd5b505050506040513d6000823e601f3d908101601f191682016040526133e19190810190615e28565b9150915060005b825181101561344b57600083828151811061340557613405615b8b565b60200260200101519050600083838151811061342357613423615b8b565b60200260200101519050613441888383600001518460200151613f99565b50506001016133e8565b506002546040516348eef38560e11b81526004810185905260009182916001600160a01b03909116906391dde70a90602401600060405180830381865afa15801561349a573d6000803e3d6000fd5b505050506040513d6000823e601f3d908101601f191682016040526134c29190810190615e28565b9150915060005b82518110156124005760008382815181106134e6576134e6615b8b565b60200260200101519050600083838151811061350457613504615b8b565b602002602001015190506135228a8383600001518460200151613f99565b50506001016134c9565b600061047a825490565b600082815260076020908152604080832060028101546001600160a01b03168452601c810190925290912061356b908361244e565b5060038101546001600160a01b03166000908152601c82016020526040902061053b908361244e565b600081815260076020526040902060028101546135bb9083906001600160a01b03166140e7565b6135e157600381015460028201546131949184916001600160a01b0391821691166124ba565b60038101546135fa9083906001600160a01b03166140e7565b61319457600281015460038201546131949184916001600160a01b0391821691166124ba565b60008181526001830160205260408120548015613709576000613644600183615ee0565b855490915060009061365890600190615ee0565b90508082146136bd57600086600001828154811061367857613678615b8b565b906000526020600020015490508087600001848154811061369b5761369b615b8b565b6000918252602080832090910192909255918252600188019052604090208390555b85548690806136ce576136ce615ef3565b60019003818190600052602060002001600090559055856001016000868152602001908152602001600020600090556001935050505061047a565b600091505061047a565b60008381526007602090815260408083206001600160a01b0386168452601c8101909252822090916137448261352c565b905060005b8181101561336257600061375d84836137cf565b6002546040516327ffe52160e01b81529192506001600160a01b0316906327ffe521906137909089908590600401615ba1565b600060405180830381600087803b1580156137aa57600080fd5b505af11580156137be573d6000803e3d6000fd5b505060019093019250613749915050565b600061245a8383614158565b60009081526001919091016020526040902054151590565b60006137ff83836137db565b6138355750815460018181018455600084815260208082209093018490558454848252828601909352604090209190915561047a565b50600061047a565b600061384883612806565b90508160a001516001600160a01b03168160a001516001600160a01b031603613884576040516321e08b4d60e21b815260040160405180910390fd5b604080518082018252600187810b825286810b602080840191909152600087815260178d01825284812085518087019096528301805480850b875262010000900490930b9185019190915291929091906138df9084906128db565b60008a815260158d016020526040902080549192509060ff6201000090910481169083161115613922576040516321e08b4d60e21b815260040160405180910390fd5b60018260ff161180156139c75750600480548454604051638383c99560e01b81529283018e905260018c810b60248501528b810b604485015281810b606485015262010000909104900b60848301526001600160a01b031690638383c9959060a401602060405180830381865afa1580156139a1573d6000803e3d6000fd5b505050506040513d601f19601f820116820180604052508101906139c59190615b2c565b155b156139e5576040516321e08b4d60e21b815260040160405180910390fd5b600087815260158d016020526040812080549091600160201b90910460ff169003613a6f578054600160401b900460ff16816008613a2283615c33565b91906101000a81548160ff021916908360ff1602179055505060038160000160089054906101000a900460ff1660ff1610613a6457613a648c8960008961205a565b505050505050613362565b8154815460ff6301000000909204821691600160381b9091041660006064613a978385615f09565b613aa19190615f26565b613aae9060ff8516615f58565b8454909150600160201b900460ff1661ffff821610613ae757613ad18f8c61240a565b60008b8152600a602052604090208e9055613b1e565b835481908590600490613b05908490600160201b900460ff16615f72565b92506101000a81548160ff021916908360ff1602179055505b50505050505050505050505050505050565b613b38614b69565b60038260400151606001516007811115613b5457613b54614d92565b14613b6557613b6283612806565b90505b6040820151606001516002816007811115613b8257613b82614d92565b03613bc6578260a001516001600160a01b03168260a001516001600160a01b031614613bc1576040516321e08b4d60e21b815260040160405180910390fd5b613c19565b6001816007811115613bda57613bda614d92565b03613c19578260a001516001600160a01b03168260a001516001600160a01b031603613c19576040516321e08b4d60e21b815260040160405180910390fd5b6003816007811115613c2d57613c2d614d92565b14613c3f57613c3f8887878785614182565b6002816007811115613c5357613c53614d92565b03613c6257612b778885614299565b6001816007811115613c7657613c76614d92565b03613c8757612b77888886856143aa565b6003816007811115613c9b57613c9b614d92565b03612bfb57612b77888888886144b0565b6120258161460f565b600081815260076020526040812090613cd0601a830161352c565b905060005b8181101561053b576000613cec84601a01836137cf565b600154604051639596010160e01b8152600481018390529192506001600160a01b031690639596010190602401602060405180830381865afa158015613d36573d6000803e3d6000fd5b505050506040513d601f19601f82011682018060405250810190613d5a9190615b2c565b158015613d7f57506000818152601585016020526040902054600160201b900460ff16155b15613e8157600081815260158501602052604090208054600160401b900460ff16906008613dac83615c33565b82546101009290920a60ff81810219909316918316021790915560008381526015870160205260409020546003600160401b909104909116109050613e8157600154604051634025b22d60e01b8152600481018390526000916001600160a01b031690634025b22d90602401600060405180830381865afa158015613e35573d6000803e3d6000fd5b505050506040513d6000823e601f3d908101601f19168201604052613e5d919081019061589c565b9050613e6c868360008461205a565b613e7885601a0161352c565b93505050613cd5565b81613e8b81615b5f565b92505050613cd5565b60008281526007602090815260408083206001600160a01b0385168452601c8101909252822082613ec48261352c565b905060005b81811015613f1b576000613edd84836137cf565b9050613ee98882614671565b8015613eff5750613efd85601801826128cf565b155b15613f125760019550505050505061047a565b50600101613ec9565b5060009695505050505050565b60008281526007602090815260408083206001600160a01b0385168452601c8101909252822082613f588261352c565b905060005b81811015613f1b576000613f7184836137cf565b9050613f7d8882614671565b15613f905760019550505050505061047a565b50600101613f5d565b6000848152600760205260409020600b600184900b121580613fc057506011600183900b12155b80613fec5750600183810b600090815260168301602090815260408083209386900b8352929052205415155b1561400a576040516321e08b4d60e21b815260040160405180910390fd5b600183810b600081815260168401602090815260408083209487900b8084529482529182902088905581516080810183528881528251808401845293845283820194909452830191909152810161406187876125b6565b15158152600060209182018190529586526017909201825260409485902081518155818301518051600183018054929095015161ffff908116620100000263ffffffff1990931691161717909255938401516002909101805460609095015160ff166101000261ff00199215159290921661ffff19959095169490941717909255505050565b60008281526007602090815260408083206001600160a01b0385168452601c81019092528220826141178261352c565b905060005b81811015613f1b57600061413084836137cf565b905061413c8882614671565b1561414f5760019550505050505061047a565b5060010161411c565b600082600001828154811061416f5761416f615b8b565b9060005260206000200154905092915050565b60008581526007602090815260408083208584526017810183528184208251808401845260018a810b825289810b958201959095526003549351636759d30960e11b815292959490910193909290916001600160a01b039091169063ceb3a612906141f1908890600401615f8b565b602060405180830381865afa15801561420e573d6000803e3d6000fd5b505050506040513d601f19601f820116820180604052508101906142329190615e0d565b604080518082019091528454600181810b835262010000909104900b60208201529091506000906142649084906128db565b90508160ff168160ff16111561428d576040516321e08b4d60e21b815260040160405180910390fd5b50505050505050505050565b6000828152600760209081526040808320848452601581019092528083206003549151633387d11760e11b81529293909290916001600160a01b03169063670fa22e906142eb90600290600401615f8b565b602060405180830381865afa158015614308573d6000803e3d6000fd5b505050506040513d601f19601f8201168201806040525081019061432c9190615e0d565b8254909150600090614349908390600160201b900460ff16615c1a565b835490915060ff600160281b90910481169082161115614386578254600160201b60ff600160281b8304160260ff60201b1990911617835561439d565b825460ff60201b1916600160201b60ff8316021783555b61336284601a018661244e565b6000848152600760209081526040808320858452601581019092528083206003549151633387d11760e11b81529293909290916001600160a01b03169063670fa22e906143fc90600190600401615f8b565b602060405180830381865afa158015614419573d6000803e3d6000fd5b505050506040513d601f19601f8201168201806040525081019061443d9190615e0d565b6000868152600a6020526040902087905582549091508190839060089061446f908490600160401b900460ff16615c1a565b92506101000a81548160ff021916908360ff16021790555060038260000160089054906101000a900460ff1660ff161061336257613362878660008761205a565b600084815260076020526040808220600380549251636759d30960e11b81529193926001600160a01b03169163ceb3a612916144ee91600401615f8b565b602060405180830381865afa15801561450b573d6000803e3d6000fd5b505050506040513d601f19601f8201168201806040525081019061452f9190615e0d565b60038054604051633387d11760e11b81529293506000926001600160a01b039091169163670fa22e916145659190600401615f8b565b602060405180830381865afa158015614582573d6000803e3d6000fd5b505050506040513d601f19601f820116820180604052508101906145a69190615e0d565b60028401546001600160a01b03166000908152601c8501602052604090209091506145dc90889088908890889087908790614728565b60038301546001600160a01b03166000908152601c84016020526040902061336290889088908890889087908790614728565b6000614619825490565b905060005b818110156146695782600101600084600001838154811061464157614641615b8b565b906000526020600020015481526020019081526020016000206000905580600101905061461e565b505060009055565b6000828152600760205260408082206001549151639596010160e01b81526004810185905290916001600160a01b031690639596010190602401602060405180830381865afa1580156146c8573d6000803e3d6000fd5b505050506040513d601f19601f820116820180604052508101906146ec9190615b2c565b8061470f57506000838152601582016020526040902054600160201b900460ff16155b1561471e57600091505061047a565b5060019392505050565b6000878152600760205260408120906147408361352c565b60408051808201909152600189810b825288900b602082015290915060005b828110156148cd57600061477386836137cf565b6000818152601787016020908152604080832081518083019092526001908101805480830b845262010000900490910b92820192909252929350916147b99086906128db565b90508960ff168160ff16111580156147d157508c8314155b156148c2578c600a600085815260200190815260200160002081905550600087601501600085815260200190815260200160002060000160079054906101000a900460ff16905060648160ff168b60ff1661482c9190615f09565b6148369190615f26565b6148439060ff8c16615f58565b600085815260158a016020526040902054909a5060ff600160201b9091048116908b161061487a576148758f8561240a565b6148c0565b6000848152601589016020526040902080548b91906004906148a7908490600160201b900460ff16615f72565b92506101000a81548160ff021916908360ff1602179055505b505b50505060010161475f565b5050505050505050505050565b604080516101208101825260008082526020820181905291810182905260608082018390526080820183905260a0820183905260c0820183905260e082019290925261010081019190915290565b82805482825590600052602060002090601f016020900481019282156149be5791602002820160005b8382111561498f57835183826101000a81548160ff021916908360ff1602179055509260200192600101602081600001049283019260010302614951565b80156149bc5782816101000a81549060ff021916905560010160208160000104928301926001030261498f565b505b506149ca929150614c87565b5090565b604051806080016040528060008152602001614a036040518060400160405280600060010b8152602001600060010b81525090565b815260006020820181905260409091015290565b604080516102e08101825260006101c082018181526101e08301829052610200830182905261022083018290526102408301829052610260830182905261028083018290526102a083018290526102c083018290528252825160808101845281815260208082018390528185018390526060820183905280840191909152835180850185528281529081019190915290918201908152602001600081526020016000815260200160008152602001614b0d604080516101008101825260008082526020820181905291810182905260608101829052608081018290529060a0820190815260200160008152602001600081525090565b8152602001606081526020016060815260200160608152602001606081526020016060815260200160608152602001606081525090565b50805460008255601f0160209004906000526020600020908101906120259190614c87565b6040518060c001604052806060815260200160008152602001614bad6040805160808101909152806000815260200160008152602001600081526020016000905290565b8152602001614c2e6040805160c0808201835260008083528351610120810185528181526020818101839052948101829052606081018290526080810182905260a0810182905291820181905260e0820181905261010082015290918201908152600060208201819052604082018190526060820181905260809091015290565b8152604080516101208101825260008082526020828101829052928201819052606082018190526080820181905260a0820181905260c0820181905260e082018190526101008201529101908152600060209091015290565b5b808211156149ca5760008155600101614c88565b6001600160a01b038116811461202557600080fd5b60008060408385031215614cc457600080fd5b8235614ccf81614c9c565b946020939093013593505050565b600060208284031215614cef57600080fd5b813561245a81614c9c565b805182526020810151602083015260018060a01b03604082015116604083015260018060a01b0360608201511660608301526080810151608083015260a081015160a083015260c0810151614d5360c084018215159052565b5060e081015160e08301526101008101516105096101008401826001600160a01b03169052565b805160010b8252602081015160010b60208301525050565b634e487b7160e01b600052602160045260246000fd5b60058110614db857614db8614d92565b9052565b80518252602081015160010b6020830152604081015160010b6040830152606081015160010b60608301526080810151614dfb608084018260010b9052565b5060a0810151614e0e60a0840182614da8565b5060c0818101519083015260e090810151910152565b600081518084526020840193506020830160005b82811015614e56578151865260209586019590910190600101614e38565b5093949350505050565b600081518084526020840193506020830160005b82811015614e5657815160ff16865260209586019590910190600101614e74565b805161ffff16825260006020820151614eb3602085018260ff169052565b506040820151614ec8604085018260ff169052565b506060820151614edd606085018260ff169052565b506080820151614ef2608085018260ff169052565b5060a0820151614f0760a085018260ff169052565b5060c0820151614f1c60c085018260ff169052565b5060e0820151614f3160e085018260ff169052565b506101008201516101206101008501526125ea610120850182614e60565b600082825180855260208501945060208160051b8301016020850160005b83811015614f9f57601f19858403018852614f89838351614e95565b6020988901989093509190910190600101614f6d565b50909695505050505050565b600081518084526020840193506020830160005b82811015614e565781516000815188526020820151614fe160208a0182614d7a565b505060408101511515606088810191909152015160ff16608087015260a09095019460209190910190600101614fbf565b61501d828251614cfa565b60208181015180516001600160a01b0316610120850152908101516101408401526040810151610160840152606081015161018084015260009050604082015161506b6101a0850182614d7a565b5060608201516101e0840152608082015161020084015260a082015161022084015260c08201516150a0610240850182614dbc565b5060e08201516104206103408501526150bd610420850182614e24565b90506101008301518482036103608601526150d88282614f4f565b9150506101208301518482036103808601526150f48282614fab565b9150506101408301518482036103a08601526151108282614e24565b9150506101608301518482036103c086015261512c8282614e24565b9150506101808301518482036103e08601526151488282614e24565b9150506101a08301518482036104008601526129668282614e24565b6000602082016020835280845180835260408501915060408160051b86010192506020860160005b828110156151bd57603f198786030184526151a8858351615012565b9450602093840193919091019060010161518c565b50929695505050505050565b600080604083850312156151dc57600080fd5b50508035926020909101359150565b6000602082840312156151fd57600080fd5b5035919050565b6001600160a01b0391909116815260200190565b60208152600061245a6020830184614e95565b60208152600061245a6020830184614fab565b600080600080600060a0868803121561525657600080fd5b853561526181614c9c565b9450602086013561527181614c9c565b9350604086013561528181614c9c565b9250606086013561529181614c9c565b915060808601356152a181614c9c565b809150509295509295909350565b634e487b7160e01b600052604160045260246000fd5b604051608081016001600160401b03811182821017156152e7576152e76152af565b60405290565b60405160c081016001600160401b03811182821017156152e7576152e76152af565b60405161012081016001600160401b03811182821017156152e7576152e76152af565b604080519081016001600160401b03811182821017156152e7576152e76152af565b604051601f8201601f191681016001600160401b038111828210171561537c5761537c6152af565b604052919050565b60006001600160401b0382111561539d5761539d6152af565b5060051b60200190565b600082601f8301126153b857600080fd5b81356153cb6153c682615384565b615354565b8082825260208201915060208360051b8601019250858311156153ed57600080fd5b602085015b8381101561540a5780358352602092830192016153f2565b5095945050505050565b60006020828403121561542657600080fd5b81356001600160401b0381111561543c57600080fd5b6125ea848285016153a7565b8060010b811461202557600080fd5b6000806000806080858703121561546d57600080fd5b8435935060208501359250604085013561548681615448565b9150606085013561549681615448565b939692955090935050565b600080604083850312156154b457600080fd5b8235915060208301356001600160401b038111156154d157600080fd5b6154dd858286016153a7565b9150509250929050565b60208152600061245a6020830184615012565b60008060008060008060c0878903121561551357600080fd5b8635955060208701359450604087013561552c81615448565b9350606087013561553c81615448565b925060808701356005811061555057600080fd5b9598949750929591949360a090920135925050565b801515811461202557600080fd5b60008060008060008060008060006101208a8c03121561559257600080fd5b8935985060208a01356155a481614c9c565b975060408a01356155b481614c9c565b965060608a0135955060808a0135945060a08a01356155d281615565565b989b979a5095989497939693955050505060c08201359160e0810135916101009091013590565b6008811061202557600080fd5b60006080828403121561561857600080fd5b6156206152c5565b9050815161562d816155f9565b8152602082015161563d816155f9565b60208201526040820151615650816155f9565b60408201526060820151615663816155f9565b606082015292915050565b805161ffff8116811461568057600080fd5b919050565b805160ff8116811461568057600080fd5b60008183036101c08112156156aa57600080fd5b6156b26152ed565b835181529150610120601f19820112156156cb57600080fd5b506156d461530f565b6156e06020840161566e565b81526156ee60408401615685565b60208201526156ff60608401615685565b60408201526157106080840161566e565b606082015261572160a08401615685565b608082015261573260c08401615685565b60a082015261574360e0840161566e565b60c08201526157556101008401615685565b60e08201526157676101208401615685565b610100820152602082015261577f610140830161566e565b60408201526157916101608301615685565b60608201526157a36101808301615685565b60808201526157b56101a08301615685565b60a082015292915050565b805163ffffffff8116811461568057600080fd5b805161568081615565565b600061012082840312156157f257600080fd5b6157fa61530f565b9050615805826157c0565b81526158136020830161566e565b60208201526158246040830161566e565b60408201526158356060830161566e565b6060820152615846608083016157d4565b608082015261585760a083016157d4565b60a082015261586860c083016157d4565b60c082015261587960e083016157d4565b60e08201526101009182015191810191909152919050565b805161568081614c9c565b6000602082840312156158ae57600080fd5b81516001600160401b038111156158c457600080fd5b82016103c081850312156158d757600080fd5b6158df6152ed565b81516001600160401b038111156158f557600080fd5b8201601f8101861361590657600080fd5b80516001600160401b0381111561591f5761591f6152af565b615932601f8201601f1916602001615354565b81815287602083850101111561594757600080fd5b60005b828110156159665760208185018101518383018201520161594a565b506000602092820183015283528381015190830152506159898560408401615606565b604082015261599b8560c08401615696565b60608201526159ae8561028084016157df565b60808201526159c06103a08301615891565b60a0820152949350505050565b600082601f8301126159de57600080fd5b81516159ec6153c682615384565b8082825260208201915060208360051b860101925085831115615a0e57600080fd5b602085015b8381101561540a57615a2481615685565b835260209283019201615a13565b600060208284031215615a4457600080fd5b81516001600160401b03811115615a5a57600080fd5b82016101208185031215615a6d57600080fd5b615a7561530f565b615a7e8261566e565b8152615a8c60208301615685565b6020820152615a9d60408301615685565b6040820152615aae60608301615685565b6060820152615abf60808301615685565b6080820152615ad060a08301615685565b60a0820152615ae160c08301615685565b60c0820152615af260e08301615685565b60e08201526101008201516001600160401b03811115615b1157600080fd5b615b1d868285016159cd565b61010083015250949350505050565b600060208284031215615b3e57600080fd5b815161245a81615565565b634e487b7160e01b600052601160045260246000fd5b600060018201615b7157615b71615b49565b5060010190565b8082018082111561047a5761047a615b49565b634e487b7160e01b600052603260045260246000fd5b918252602082015260400190565b878152600187810b602083015286810b604083015285810b606083015284900b608082015260e08101615be560a0830185614da8565b8260c083015298975050505050505050565b600182810b9082900b03617fff198112617fff8213171561047a5761047a615b49565b60ff818116838216019081111561047a5761047a615b49565b600060ff821660ff8103615c4957615c49615b49565b60010192915050565b600082601f830112615c6357600080fd5b8151615c716153c682615384565b8082825260208201915060208360061b860101925085831115615c9357600080fd5b602085015b8381101561540a5760408188031215615cb057600080fd5b615cb8615332565b8151615cc381615448565b81526020820151615cd381615448565b6020828101919091529084529290920191604001615c98565b60008060408385031215615cff57600080fd5b82516001600160401b03811115615d1557600080fd5b615d2185828601615c52565b602085015190935090506001600160401b03811115615d3f57600080fd5b8301601f81018513615d5057600080fd5b8051615d5e6153c682615384565b8082825260208201915060208360071b850101925087831115615d8057600080fd5b6020840193505b82841015615dff5760808489031215615d9f57600080fd5b615da76152c5565b8451615db281615448565b81526020850151615dc281615448565b6020820152615dd360408601615685565b60408201526060850151615de681615565565b6060820152825260809390930192602090910190615d87565b809450505050509250929050565b600060208284031215615e1f57600080fd5b61245a82615685565b60008060408385031215615e3b57600080fd5b82516001600160401b03811115615e5157600080fd5b8301601f81018513615e6257600080fd5b8051615e706153c682615384565b8082825260208201915060208360051b850101925087831115615e9257600080fd5b6020840193505b82841015615eb4578351825260209384019390910190615e99565b6020870151909550925050506001600160401b03811115615ed457600080fd5b6154dd85828601615c52565b8181038181111561047a5761047a615b49565b634e487b7160e01b600052603160045260246000fd5b61ffff8181168382160290811690818114610d8c57610d8c615b49565b600061ffff831680615f4857634e487b7160e01b600052601260045260246000fd5b8061ffff84160491505092915050565b61ffff828116828216039081111561047a5761047a615b49565b60ff828116828216039081111561047a5761047a615b49565b6020810160088310615f9f57615f9f614d92565b9190529056fe6a3ca207a2adb9eea136eff413ec2c22f745a146fe60eed5f593fbacb99347d3a2646970667358221220e8e376c712f20423affa95d666f53f07bee4faf3763ee6f040dfba6ac5c2813064736f6c634300081c0033",
  "linkReferences": {},
  "deployedLinkReferences": {}
}