{
  "_format": "hh-sol-artifact-1",
  "contractName": "RenderMetadata",
  "sourceName": "contracts/RenderMetadata.sol",
  "abi": [
    {
      "inputs": [
        {
          "internalType": "address",
          "name": "_imageRenderer",
          "type": "address"
        }
      ],
      "stateMutability": "nonpayable",
      "type": "constructor"
    },
    {
      "inputs": [],
      "name": "imageRenderer",
      "outputs": [
        {
          "internalType": "contract ImageRenderer",
          "name": "",
          "type": "address"
        }
      ],
      "stateMutability": "view",
      "type": "function"
    },
    {
      "inputs": [
        {
          "components": [
            {
              "internalType": "string",
              "name": "name",
              "type": "string"
            },
            {
              "internalType": "uint256",
              "name": "id",
              "type": "uint256"
            },
            {
              "components": [
                {
                  "internalType": "enum MainWeapon",
                  "name": "mainWeapon",
                  "type": "uint8"
                },
                {
                  "internalType": "enum Armor",
                  "name": "armor",
                  "type": "uint8"
                },
                {
                  "internalType": "enum Shields",
                  "name": "shields",
                  "type": "uint8"
                },
                {
                  "internalType": "enum Special",
                  "name": "special",
                  "type": "uint8"
                }
              ],
              "internalType": "struct Equipment",
              "name": "equipment",
              "type": "tuple"
            },
            {
              "components": [
                {
                  "internalType": "uint256",
                  "name": "serialNumber",
                  "type": "uint256"
                },
                {
                  "components": [
                    {
                      "internalType": "uint16",
                      "name": "h1",
                      "type": "uint16"
                    },
                    {
                      "internalType": "uint8",
                      "name": "s1",
                      "type": "uint8"
                    },
                    {
                      "internalType": "uint8",
                      "name": "l1",
                      "type": "uint8"
                    },
                    {
                      "internalType": "uint16",
                      "name": "h2",
                      "type": "uint16"
                    },
                    {
                      "internalType": "uint8",
                      "name": "s2",
                      "type": "uint8"
                    },
                    {
                      "internalType": "uint8",
                      "name": "l2",
                      "type": "uint8"
                    },
                    {
                      "internalType": "uint16",
                      "name": "h3",
                      "type": "uint16"
                    },
                    {
                      "internalType": "uint8",
                      "name": "s3",
                      "type": "uint8"
                    },
                    {
                      "internalType": "uint8",
                      "name": "l3",
                      "type": "uint8"
                    }
                  ],
                  "internalType": "struct Colors",
                  "name": "colors",
                  "type": "tuple"
                },
                {
                  "internalType": "uint16",
                  "name": "variant",
                  "type": "uint16"
                },
                {
                  "internalType": "uint8",
                  "name": "accuracy",
                  "type": "uint8"
                },
                {
                  "internalType": "uint8",
                  "name": "hull",
                  "type": "uint8"
                },
                {
                  "internalType": "uint8",
                  "name": "speed",
                  "type": "uint8"
                }
              ],
              "internalType": "struct Traits",
              "name": "traits",
              "type": "tuple"
            },
            {
              "components": [
                {
                  "internalType": "uint32",
                  "name": "shipsDestroyed",
                  "type": "uint32"
                },
                {
                  "internalType": "uint16",
                  "name": "costsVersion",
                  "type": "uint16"
                },
                {
                  "internalType": "uint16",
                  "name": "cost",
                  "type": "uint16"
                },
                {
                  "internalType": "uint16",
                  "name": "modified",
                  "type": "uint16"
                },
                {
                  "internalType": "bool",
                  "name": "shiny",
                  "type": "bool"
                },
                {
                  "internalType": "bool",
                  "name": "constructed",
                  "type": "bool"
                },
                {
                  "internalType": "bool",
                  "name": "inFleet",
                  "type": "bool"
                },
                {
                  "internalType": "bool",
                  "name": "isFreeShip",
                  "type": "bool"
                },
                {
                  "internalType": "uint256",
                  "name": "timestampDestroyed",
                  "type": "uint256"
                }
              ],
              "internalType": "struct ShipData",
              "name": "shipData",
              "type": "tuple"
            },
            {
              "internalType": "address",
              "name": "owner",
              "type": "address"
            }
          ],
          "internalType": "struct Ship",
          "name": "ship",
          "type": "tuple"
        }
      ],
      "name": "tokenURI",
      "outputs": [
        {
          "internalType": "string",
          "name": "",
          "type": "string"
        }
      ],
      "stateMutability": "view",
      "type": "function"
    }
  ],
  "bytecode": "0x60a0604052348015600f57600080fd5b50604051611a93380380611a93833981016040819052602c91603c565b6001600160a01b0316608052606a565b600060208284031215604d57600080fd5b81516001600160a01b0381168114606357600080fd5b9392505050565b608051611a0861008b60003960008181606901526101030152611a086000f3fe608060405234801561001057600080fd5b50600436106100365760003560e01c80637c1d0bcb1461003b578063c550ca5d14610064575b600080fd5b61004e610049366004610eb7565b6100a3565b60405161005b919061100b565b60405180910390f35b61008b7f000000000000000000000000000000000000000000000000000000000000000081565b6040516001600160a01b03909116815260200161005b565b606081602001516000036100e95760405162461bcd60e51b8152602060048201526009602482015268125b9d985b1a59125960ba1b604482015260640160405180910390fd5b604051630496eaf760e31b81526000906001600160a01b037f000000000000000000000000000000000000000000000000000000000000000016906324b757b8906101389086906004016111c8565b600060405180830381865afa158015610155573d6000803e3d6000fd5b505050506040513d6000823e601f3d908101601f1916820160405261017d9190810190611280565b90506000836000015161019385602001516101f8565b61019c8661028c565b846040516020016101b09493929190611313565b604051602081830303815290604052905060006101cc826102d1565b9050806040516020016101df9190611485565b6040516020818303038152906040529350505050919050565b60606000610205836102fd565b600101905060008167ffffffffffffffff81111561022557610225610b23565b6040519080825280601f01601f19166020018201604052801561024f576020820181803683370190505b5090508181016020015b600019016f181899199a1a9b1b9c1cb0b131b232b360811b600a86061a8153600a8504945084610259575b509392505050565b6060610297826103d5565b6102a08361044a565b6102a984610524565b6040516020016102bb939291906114ca565b6040516020818303038152906040529050919050565b60606102f78260405180606001604052806040815260200161199360409139600161057d565b92915050565b60008072184f03e93ff9f4daa797ed6e38ed64bf6a1f0160401b831061033c5772184f03e93ff9f4daa797ed6e38ed64bf6a1f0160401b830492506040015b6d04ee2d6d415b85acef81000000008310610368576d04ee2d6d415b85acef8100000000830492506020015b662386f26fc10000831061038657662386f26fc10000830492506010015b6305f5e100831061039e576305f5e100830492506008015b61271083106103b257612710830492506004015b606483106103c4576064830492506002015b600a83106102f75760010192915050565b606081810151516103e5906101f8565b6103fa83606001516040015161ffff166101f8565b61040e84606001516060015160ff166101f8565b61042285606001516080015160ff166101f8565b610436866060015160a0015160ff166101f8565b6040516020016102bb959493929190611529565b606081608001516080015161047957604051806040016040528060028152602001614e6f60f01b815250610496565b6040518060400160405280600381526020016259657360e81b8152505b6080830151516104ab9063ffffffff166101f8565b6104c084608001516040015161ffff166101f8565b84608001516060015161ffff166000036104f457604051806040016040528060028152602001614e6f60f01b815250610511565b6040518060400160405280600381526020016259657360e81b8152505b6040516020016102bb94939291906116c3565b60606105378260400151600001516106ff565b610548836040015160200151610821565b610559846040015160400151610921565b61056a856040015160600151610a29565b6040516020016102bb94939291906117ed565b6060835160000361059d57506040805160208101909152600081526106f8565b6000826105ce576003855160046105b49190611946565b6105bf90600261195d565b6105c99190611970565b6105f3565b6003855160026105de919061195d565b6105e89190611970565b6105f3906004611946565b905060008167ffffffffffffffff81111561061057610610610b23565b6040519080825280601f01601f19166020018201604052801561063a576020820181803683370190505b50905060018501602082018788518901602081018051600082525b828410156106b0576003840193508351603f8160121c168701518653600186019550603f81600c1c168701518653600186019550603f8160061c168701518653600186019550603f8116870151865350600185019450610655565b9052505085156106f1576003885106600181146106d457600281146106e7576106ef565b603d6001830353603d60028303536106ef565b603d60018303535b505b5090925050505b9392505050565b606060008260078111156107155761071561101e565b0361073b5750506040805180820190915260058152642630b9b2b960d91b602082015290565b600182600781111561074f5761074f61101e565b036107775750506040805180820190915260078152662930b4b633bab760c91b602082015290565b600282600781111561078b5761078b61101e565b036107bc57505060408051808201909152601081526f26b4b9b9b4b632902630bab731b432b960811b602082015290565b60038260078111156107d0576107d061101e565b036107fe57505060408051808201909152600d81526c283630b9b6b09021b0b73737b760991b602082015290565b50506040805180820190915260078152662ab735b737bbb760c91b602082015290565b606060008260078111156108375761083761101e565b0361086057505060408051808201909152600881526727379020b936b7b960c11b602082015290565b60018260078111156108745761087461101e565b036108a057505060408051808201909152600b81526a2634b3b43a1020b936b7b960a91b602082015290565b60028260078111156108b4576108b461101e565b036108e157505060408051808201909152600c81526b26b2b234bab69020b936b7b960a11b602082015290565b60038260078111156108f5576108f561101e565b036107fe57505060408051808201909152600b81526a2432b0bb3c9020b936b7b960a91b602082015290565b606060008260078111156109375761093761101e565b0361096257505060408051808201909152600a8152694e6f20536869656c647360b01b602082015290565b60018260078111156109765761097661101e565b036109a457505060408051808201909152600d81526c4c6967687420536869656c647360981b602082015290565b60028260078111156109b8576109b861101e565b036109e757505060408051808201909152600e81526d4d656469756d20536869656c647360901b602082015290565b60038260078111156109fb576109fb61101e565b036107fe57505060408051808201909152600d81526c486561767920536869656c647360981b602082015290565b60606000826007811115610a3f57610a3f61101e565b03610a6a57505060408051808201909152600a815269139bc814dc1958da585b60b21b602082015290565b6001826007811115610a7e57610a7e61101e565b03610aa25750506040805180820190915260038152620454d560ec1b602082015290565b6002826007811115610ab657610ab661101e565b03610ae457505060408051808201909152600d81526c5265706169722044726f6e657360981b602082015290565b6003826007811115610af857610af861101e565b036107fe57505060408051808201909152600a815269466c616b20417272617960b01b602082015290565b634e487b7160e01b600052604160045260246000fd5b60405160c0810167ffffffffffffffff81118282101715610b5c57610b5c610b23565b60405290565b604051610120810167ffffffffffffffff81118282101715610b5c57610b5c610b23565b604051601f8201601f1916810167ffffffffffffffff81118282101715610baf57610baf610b23565b604052919050565b600067ffffffffffffffff821115610bd157610bd1610b23565b50601f01601f191660200190565b60088110610bec57600080fd5b50565b600060808284031215610c0157600080fd5b6040516080810167ffffffffffffffff81118282101715610c2457610c24610b23565b6040529050808235610c3581610bdf565b81526020830135610c4581610bdf565b60208201526040830135610c5881610bdf565b60408201526060830135610c6b81610bdf565b6060919091015292915050565b803561ffff81168114610c8a57600080fd5b919050565b803560ff81168114610c8a57600080fd5b60008183036101c0811215610cb457600080fd5b610cbc610b39565b833581529150610120601f1982011215610cd557600080fd5b50610cde610b62565b610cea60208401610c78565b8152610cf860408401610c8f565b6020820152610d0960608401610c8f565b6040820152610d1a60808401610c78565b6060820152610d2b60a08401610c8f565b6080820152610d3c60c08401610c8f565b60a0820152610d4d60e08401610c78565b60c0820152610d5f6101008401610c8f565b60e0820152610d716101208401610c8f565b6101008201526020820152610d896101408301610c78565b6040820152610d9b6101608301610c8f565b6060820152610dad6101808301610c8f565b6080820152610dbf6101a08301610c8f565b60a082015292915050565b803563ffffffff81168114610c8a57600080fd5b80358015158114610c8a57600080fd5b60006101208284031215610e0157600080fd5b610e09610b62565b9050610e1482610dca565b8152610e2260208301610c78565b6020820152610e3360408301610c78565b6040820152610e4460608301610c78565b6060820152610e5560808301610dde565b6080820152610e6660a08301610dde565b60a0820152610e7760c08301610dde565b60c0820152610e8860e08301610dde565b60e08201526101009182013591810191909152919050565b80356001600160a01b0381168114610c8a57600080fd5b600060208284031215610ec957600080fd5b813567ffffffffffffffff811115610ee057600080fd5b82016103c08185031215610ef357600080fd5b610efb610b39565b813567ffffffffffffffff811115610f1257600080fd5b8201601f81018613610f2357600080fd5b8035610f36610f3182610bb7565b610b86565b818152876020838501011115610f4b57600080fd5b81602084016020830137600060209282018301528352838101359083015250610f778560408401610bef565b6040820152610f898560c08401610ca0565b6060820152610f9c856102808401610dee565b6080820152610fae6103a08301610ea0565b60a0820152949350505050565b60005b83811015610fd6578181015183820152602001610fbe565b50506000910152565b60008151808452610ff7816020860160208601610fbb565b601f01601f19169290920160200192915050565b6020815260006106f86020830184610fdf565b634e487b7160e01b600052602160045260246000fd5b60088110610bec57634e487b7160e01b600052602160045260246000fd5b80518252602081015161ffff815116602084015260ff60208201511660408401526040810151611087606085018260ff169052565b50606081015161ffff8116608085015250608081015160ff811660a08501525060a081015160ff811660c08501525060c081015161ffff811660e08501525060e081015160ff811661010085015250610100015160ff811661012084015250604081015161ffff811661014084015250606081015160ff811661016084015250608081015160ff81166101808401525060a0015160ff166101a09190910152565b63ffffffff815116825261ffff60208201511660208301526040810151611155604084018261ffff169052565b50606081015161116b606084018261ffff169052565b50608081015161117f608084018215159052565b5060a081015161119360a084018215159052565b5060c08101516111a760c084018215159052565b5060e08101516111bb60e084018215159052565b5061010090810151910152565b60208152600082516103c060208401526111e66103e0840182610fdf565b9050602084015160408401526040840151805161120281611034565b6060850152602081015161121581611034565b6080850152604081015161122881611034565b60a08501526060015161123a81611034565b60c0840152606084015161125160e0850182611052565b5060808401516112656102a0850182611128565b5060a08401516001600160a01b0381166103c0850152610284565b60006020828403121561129257600080fd5b815167ffffffffffffffff8111156112a957600080fd5b8201601f810184136112ba57600080fd5b80516112c8610f3182610bb7565b8181528560208385010111156112dd57600080fd5b6112ee826020830160208601610fbb565b95945050505050565b60008151611309818560208601610fbb565b9290920192915050565b693d913730b6b2911d101160b11b8152845160009061133981600a850160208a01610fbb565b61202360f01b600a91840191820152855161135b81600c840160208a01610fbb565b600a818301019150507f222c226465736372697074696f6e223a20224120756e6971756520737061636560028201527f7368697020696e207468652057617270666c6f7720756e6976657273652e204560228201527f61636820736869702068617320756e69717565207472616974732c206571756960428201527f706d656e742c20616e6420737461747320746861742064657465726d696e652060628201527f697473206361706162696c697469657320696e20626174746c652e222c20226160828201526c747472696275746573223a205b60981b60a282015261147a61146c61146661144e60af8501896112f7565b6b2e961134b6b0b3b2911d101160a11b8152600c0190565b866112f7565b61227d60f01b815260020190565b979650505050505050565b7f646174613a6170706c69636174696f6e2f6a736f6e3b6261736536342c0000008152600082516114bd81601d850160208701610fbb565b91909101601d0192915050565b600084516114dc818460208901610fbb565b600b60fa1b90830190815284516114fa816001840160208901610fbb565b600b60fa1b60019290910191820152835161151c816002840160208801610fbb565b0160020195945050505050565b7f7b2274726169745f74797065223a202253657269616c204e756d626572222c20815269113b30b63ab2911d101160b11b60208201526000865161157481602a850160208b01610fbb565b62089f4b60ea1b602a918401918201527f7b2274726169745f74797065223a202256617269616e74222c202276616c7565602d82015263111d101160e11b604d82015286516115ca816051840160208b01610fbb565b602a8183010191505062089f4b60ea1b60278201526116b76116aa61146661167761163a61167161164861163a611634602a8a017f7b2274726169745f74797065223a20224163637572616379222c202276616c75815263032911d160e51b602082015260240190565b8e6112f7565b611f4b60f21b815260020190565b7f7b2274726169745f74797065223a202248756c6c222c202276616c7565223a20815260200190565b8a6112f7565b7f7b2274726169745f74797065223a20225370656564222c202276616c7565223a8152600160fd1b602082015260210190565b607d60f81b815260010190565b98975050505050505050565b7f7b2274726169745f74797065223a20225368696e79222c202276616c7565223a815261101160f11b602082015260008551611706816022850160208a01610fbb565b62089f4b60ea1b6022918401918201527f7b2274726169745f74797065223a202253686970732044657374726f7965642260258201526a01610113b30b63ab2911d160ad1b60458201528551611763816050840160208a01610fbb565b602281830101915050611f4b60f21b602e82015261147a61146c6114666117b661163a611671603087017f7b2274726169745f74797065223a2022436f7374222c202276616c7565223a20815260200190565b7f7b2274726169745f74797065223a20224d6f646966696564222c202276616c7581526432911d101160d91b602082015260250190565b7f7b2274726169745f74797065223a20224d61696e20576561706f6e222c20227681526730b63ab2911d101160c11b602082015260008551611836816028850160208a01610fbb565b62089f4b60ea1b6028918401918201527f7b2274726169745f74797065223a202241726d6f72222c202276616c7565223a602b82015261101160f11b604b820152855161188a81604d840160208a01610fbb565b60288183010191505062089f4b60ea1b602582015261147a61146c6114666118fa6118eb611671602887017f7b2274726169745f74797065223a2022536869656c6473222c202276616c7565815263111d101160e11b602082015260240190565b62089f4b60ea1b815260030190565b7f7b2274726169745f74797065223a20225370656369616c222c202276616c7565815263111d101160e11b602082015260240190565b634e487b7160e01b600052601160045260246000fd5b80820281158282048414176102f7576102f7611930565b808201808211156102f7576102f7611930565b60008261198d57634e487b7160e01b600052601260045260246000fd5b50049056fe4142434445464748494a4b4c4d4e4f505152535455565758595a6162636465666768696a6b6c6d6e6f707172737475767778797a303132333435363738392b2fa264697066735822122088055580eb570269ab49240aaa9f365b4839b4107738944b68240f894c78310b64736f6c634300081c0033",
  "linkReferences": {},
  "deployedLinkReferences": {}
}