{
  "_format": "hh-sol-artifact-1",
  "contractName": "RenderSpecial",
  "sourceName": "contracts/Renderers/RenderSpecial.sol",
  "abi": [
    {
      "inputs": [
        {
          "internalType": "address[]",
          "name": "renderers",
          "type": "address[]"
        }
      ],
      "stateMutability": "nonpayable",
      "type": "constructor"
    },
    {
      "inputs": [
        {
          "components": [
            {
              "internalType": "string",
              "name": "name",
              "type": "string"
            },
            {
              "internalType": "uint256",
              "name": "id",
              "type": "uint256"
            },
            {
              "components": [
                {
                  "internalType": "enum MainWeapon",
                  "name": "mainWeapon",
                  "type": "uint8"
                },
                {
                  "internalType": "enum Armor",
                  "name": "armor",
                  "type": "uint8"
                },
                {
                  "internalType": "enum Shields",
                  "name": "shields",
                  "type": "uint8"
                },
                {
                  "internalType": "enum Special",
                  "name": "special",
                  "type": "uint8"
                }
              ],
              "internalType": "struct Equipment",
              "name": "equipment",
              "type": "tuple"
            },
            {
              "components": [
                {
                  "internalType": "uint256",
                  "name": "serialNumber",
                  "type": "uint256"
                },
                {
                  "components": [
                    {
                      "internalType": "uint16",
                      "name": "h1",
                      "type": "uint16"
                    },
                    {
                      "internalType": "uint8",
                      "name": "s1",
                      "type": "uint8"
                    },
                    {
                      "internalType": "uint8",
                      "name": "l1",
                      "type": "uint8"
                    },
                    {
                      "internalType": "uint16",
                      "name": "h2",
                      "type": "uint16"
                    },
                    {
                      "internalType": "uint8",
                      "name": "s2",
                      "type": "uint8"
                    },
                    {
                      "internalType": "uint8",
                      "name": "l2",
                      "type": "uint8"
                    },
                    {
                      "internalType": "uint16",
                      "name": "h3",
                      "type": "uint16"
                    },
                    {
                      "internalType": "uint8",
                      "name": "s3",
                      "type": "uint8"
                    },
                    {
                      "internalType": "uint8",
                      "name": "l3",
                      "type": "uint8"
                    }
                  ],
                  "internalType": "struct Colors",
                  "name": "colors",
                  "type": "tuple"
                },
                {
                  "internalType": "uint16",
                  "name": "variant",
                  "type": "uint16"
                },
                {
                  "internalType": "uint8",
                  "name": "accuracy",
                  "type": "uint8"
                },
                {
                  "internalType": "uint8",
                  "name": "hull",
                  "type": "uint8"
                },
                {
                  "internalType": "uint8",
                  "name": "speed",
                  "type": "uint8"
                }
              ],
              "internalType": "struct Traits",
              "name": "traits",
              "type": "tuple"
            },
            {
              "components": [
                {
                  "internalType": "uint32",
                  "name": "shipsDestroyed",
                  "type": "uint32"
                },
                {
                  "internalType": "uint16",
                  "name": "costsVersion",
                  "type": "uint16"
                },
                {
                  "internalType": "uint16",
                  "name": "cost",
                  "type": "uint16"
                },
                {
                  "internalType": "uint16",
                  "name": "modified",
                  "type": "uint16"
                },
                {
                  "internalType": "bool",
                  "name": "shiny",
                  "type": "bool"
                },
                {
                  "internalType": "bool",
                  "name": "constructed",
                  "type": "bool"
                },
                {
                  "internalType": "bool",
                  "name": "inFleet",
                  "type": "bool"
                },
                {
                  "internalType": "bool",
                  "name": "isFreeShip",
                  "type": "bool"
                },
                {
                  "internalType": "uint256",
                  "name": "timestampDestroyed",
                  "type": "uint256"
                }
              ],
              "internalType": "struct ShipData",
              "name": "shipData",
              "type": "tuple"
            },
            {
              "internalType": "address",
              "name": "owner",
              "type": "address"
            }
          ],
          "internalType": "struct Ship",
          "name": "ship",
          "type": "tuple"
        }
      ],
      "name": "render",
      "outputs": [
        {
          "internalType": "string",
          "name": "",
          "type": "string"
        }
      ],
      "stateMutability": "view",
      "type": "function"
    },
    {
      "inputs": [],
      "name": "renderSpecial1",
      "outputs": [
        {
          "internalType": "contract IReturnSVG",
          "name": "",
          "type": "address"
        }
      ],
      "stateMutability": "view",
      "type": "function"
    },
    {
      "inputs": [],
      "name": "renderSpecial2",
      "outputs": [
        {
          "internalType": "contract IReturnSVG",
          "name": "",
          "type": "address"
        }
      ],
      "stateMutability": "view",
      "type": "function"
    },
    {
      "inputs": [],
      "name": "renderSpecial3",
      "outputs": [
        {
          "internalType": "contract IReturnSVG",
          "name": "",
          "type": "address"
        }
      ],
      "stateMutability": "view",
      "type": "function"
    }
  ],
  "bytecode": "0x60e060405234801561001057600080fd5b50604051610d7d380380610d7d83398101604081905261002f9161015f565b80516003146100955760405162461bcd60e51b815260206004820152602860248201527f496e76616c69642072656e64657265727320617272617920696e2052656e64656044820152671c94dc1958da585b60c21b606482015260840160405180910390fd5b806000815181106100a8576100a861022e565b60200260200101516001600160a01b03166080816001600160a01b031681525050806001815181106100dc576100dc61022e565b60200260200101516001600160a01b031660a0816001600160a01b031681525050806002815181106101105761011061022e565b60209081029190910101516001600160a01b031660c05250610244565b634e487b7160e01b600052604160045260246000fd5b80516001600160a01b038116811461015a57600080fd5b919050565b60006020828403121561017157600080fd5b81516001600160401b0381111561018757600080fd5b8201601f8101841361019857600080fd5b80516001600160401b038111156101b1576101b161012d565b604051600582901b90603f8201601f191681016001600160401b03811182821017156101df576101df61012d565b6040529182526020818401810192908101878411156101fd57600080fd5b6020850194505b838510156102235761021585610143565b815260209485019401610204565b509695505050505050565b634e487b7160e01b600052603260045260246000fd5b60805160a05160c051610af86102856000396000818160e5015261029b015260008181607f015261022e01526000818160be01526101760152610af86000f3fe608060405234801561001057600080fd5b506004361061004c5760003560e01c80635394d87214610051578063802523351461007a5780639f530670146100b9578063b5cca06b146100e0575b600080fd5b61006461005f366004610678565b610107565b60405161007191906107cc565b60405180910390f35b6100a17f000000000000000000000000000000000000000000000000000000000000000081565b6040516001600160a01b039091168152602001610071565b6100a17f000000000000000000000000000000000000000000000000000000000000000081565b6100a17f000000000000000000000000000000000000000000000000000000000000000081565b606060008260400151606001516007811115610125576101256107e6565b0361013e57505060408051602081019091526000815290565b6001826040015160600151600781111561015a5761015a6107e6565b036101f6576040516329ca6c3960e11b81526001600160a01b037f00000000000000000000000000000000000000000000000000000000000000001690635394d872906101ab908590600401610990565b600060405180830381865afa1580156101c8573d6000803e3d6000fd5b505050506040513d6000823e601f3d908101601f191682016040526101f09190810190610a4b565b92915050565b60028260400151606001516007811115610212576102126107e6565b03610263576040516329ca6c3960e11b81526001600160a01b037f00000000000000000000000000000000000000000000000000000000000000001690635394d872906101ab908590600401610990565b6003826040015160600151600781111561027f5761027f6107e6565b036102d0576040516329ca6c3960e11b81526001600160a01b037f00000000000000000000000000000000000000000000000000000000000000001690635394d872906101ab908590600401610990565b505060408051602081019091526000815290565b634e487b7160e01b600052604160045260246000fd5b60405160c0810167ffffffffffffffff8111828210171561031d5761031d6102e4565b60405290565b604051610120810167ffffffffffffffff8111828210171561031d5761031d6102e4565b604051601f8201601f1916810167ffffffffffffffff81118282101715610370576103706102e4565b604052919050565b600067ffffffffffffffff821115610392576103926102e4565b50601f01601f191660200190565b600881106103ad57600080fd5b50565b6000608082840312156103c257600080fd5b6040516080810167ffffffffffffffff811182821017156103e5576103e56102e4565b60405290508082356103f6816103a0565b81526020830135610406816103a0565b60208201526040830135610419816103a0565b6040820152606083013561042c816103a0565b6060919091015292915050565b803561ffff8116811461044b57600080fd5b919050565b803560ff8116811461044b57600080fd5b60008183036101c081121561047557600080fd5b61047d6102fa565b833581529150610120601f198201121561049657600080fd5b5061049f610323565b6104ab60208401610439565b81526104b960408401610450565b60208201526104ca60608401610450565b60408201526104db60808401610439565b60608201526104ec60a08401610450565b60808201526104fd60c08401610450565b60a082015261050e60e08401610439565b60c08201526105206101008401610450565b60e08201526105326101208401610450565b610100820152602082015261054a6101408301610439565b604082015261055c6101608301610450565b606082015261056e6101808301610450565b60808201526105806101a08301610450565b60a082015292915050565b803563ffffffff8116811461044b57600080fd5b8035801515811461044b57600080fd5b600061012082840312156105c257600080fd5b6105ca610323565b90506105d58261058b565b81526105e360208301610439565b60208201526105f460408301610439565b604082015261060560608301610439565b60608201526106166080830161059f565b608082015261062760a0830161059f565b60a082015261063860c0830161059f565b60c082015261064960e0830161059f565b60e08201526101009182013591810191909152919050565b80356001600160a01b038116811461044b57600080fd5b60006020828403121561068a57600080fd5b813567ffffffffffffffff8111156106a157600080fd5b82016103c081850312156106b457600080fd5b6106bc6102fa565b813567ffffffffffffffff8111156106d357600080fd5b8201601f810186136106e457600080fd5b80356106f76106f282610378565b610347565b81815287602083850101111561070c57600080fd5b8160208401602083013760006020928201830152835283810135908301525061073885604084016103b0565b604082015261074a8560c08401610461565b606082015261075d8561028084016105af565b608082015261076f6103a08301610661565b60a0820152949350505050565b60005b8381101561079757818101518382015260200161077f565b50506000910152565b600081518084526107b881602086016020860161077c565b601f01601f19169290920160200192915050565b6020815260006107df60208301846107a0565b9392505050565b634e487b7160e01b600052602160045260246000fd5b600881106103ad57634e487b7160e01b600052602160045260246000fd5b80518252602081015161ffff815116602084015260ff6020820151166040840152604081015161084f606085018260ff169052565b50606081015161ffff8116608085015250608081015160ff811660a08501525060a081015160ff811660c08501525060c081015161ffff811660e08501525060e081015160ff811661010085015250610100015160ff811661012084015250604081015161ffff811661014084015250606081015160ff811661016084015250608081015160ff81166101808401525060a0015160ff166101a09190910152565b63ffffffff815116825261ffff6020820151166020830152604081015161091d604084018261ffff169052565b506060810151610933606084018261ffff169052565b506080810151610947608084018215159052565b5060a081015161095b60a084018215159052565b5060c081015161096f60c084018215159052565b5060e081015161098360e084018215159052565b5061010090810151910152565b60208152600082516103c060208401526109ae6103e08401826107a0565b905060208401516040840152604084015180516109ca816107fc565b606085015260208101516109dd816107fc565b608085015260408101516109f0816107fc565b60a085015260600151610a02816107fc565b60c08401526060840151610a1960e085018261081a565b506080840151610a2d6102a08501826108f0565b5060a08401516001600160a01b0381166103c0850152509392505050565b600060208284031215610a5d57600080fd5b815167ffffffffffffffff811115610a7457600080fd5b8201601f81018413610a8557600080fd5b8051610a936106f282610378565b818152856020838501011115610aa857600080fd5b610ab982602083016020860161077c565b9594505050505056fea26469706673582212202ab8159798581581588ff3ff9df43f63be90d8d517f0b97614810ddfb1e5072c64736f6c634300081c0033",
  "linkReferences": {},
  "deployedLinkReferences": {}
}