{
  "_format": "hh-sol-artifact-1",
  "contractName": "RandomManager",
  "sourceName": "contracts/RandomManager.sol",
  "abi": [
    {
      "inputs": [
        {
          "internalType": "uint256",
          "name": "_requestId",
          "type": "uint256"
        }
      ],
      "name": "fulfillRandomRequest",
      "outputs": [
        {
          "internalType": "uint64",
          "name": "",
          "type": "uint64"
        }
      ],
      "stateMutability": "nonpayable",
      "type": "function"
    },
    {
      "inputs": [],
      "name": "requestRandomness",
      "outputs": [
        {
          "internalType": "uint256",
          "name": "",
          "type": "uint256"
        }
      ],
      "stateMutability": "nonpayable",
      "type": "function"
    }
  ],
  "bytecode": "0x6080604052348015600f57600080fd5b506101908061001f6000396000f3fe608060405234801561001057600080fd5b50600436106100365760003560e01c8063bc26d8241461003b578063f8413b071461006b575b600080fd5b61004e61004936600461011a565b610081565b6040516001600160401b0390911681526020015b60405180910390f35b6100736100ca565b604051908152602001610062565b60008054818061009083610133565b90915550506040805144602082015290810183905260009060600160408051601f1981840301815291905280516020909101209392505050565b6000805481806100d983610133565b9091555050600080546040516100fc914491602001918252602082015260400190565b60408051601f19818403018152919052805160209091012092915050565b60006020828403121561012c57600080fd5b5035919050565b60006001820161015357634e487b7160e01b600052601160045260246000fd5b506001019056fea2646970667358221220393e902dd6d244228eabc1916ca3f889928c7a97caf724a9bb704da892d9044864736f6c634300081c0033",
  "linkReferences": {},
  "deployedLinkReferences": {}
}