{
  "_format": "hh-sol-artifact-1",
  "contractName": "RenderAft0",
  "sourceName": "contracts/Renderers/RenderAft0.sol",
  "abi": [
    {
      "inputs": [
        {
          "components": [
            {
              "internalType": "string",
              "name": "name",
              "type": "string"
            },
            {
              "internalType": "uint256",
              "name": "id",
              "type": "uint256"
            },
            {
              "components": [
                {
                  "internalType": "enum MainWeapon",
                  "name": "mainWeapon",
                  "type": "uint8"
                },
                {
                  "internalType": "enum Armor",
                  "name": "armor",
                  "type": "uint8"
                },
                {
                  "internalType": "enum Shields",
                  "name": "shields",
                  "type": "uint8"
                },
                {
                  "internalType": "enum Special",
                  "name": "special",
                  "type": "uint8"
                }
              ],
              "internalType": "struct Equipment",
              "name": "equipment",
              "type": "tuple"
            },
            {
              "components": [
                {
                  "internalType": "uint256",
                  "name": "serialNumber",
                  "type": "uint256"
                },
                {
                  "components": [
                    {
                      "internalType": "uint16",
                      "name": "h1",
                      "type": "uint16"
                    },
                    {
                      "internalType": "uint8",
                      "name": "s1",
                      "type": "uint8"
                    },
                    {
                      "internalType": "uint8",
                      "name": "l1",
                      "type": "uint8"
                    },
                    {
                      "internalType": "uint16",
                      "name": "h2",
                      "type": "uint16"
                    },
                    {
                      "internalType": "uint8",
                      "name": "s2",
                      "type": "uint8"
                    },
                    {
                      "internalType": "uint8",
                      "name": "l2",
                      "type": "uint8"
                    }
                  ],
                  "internalType": "struct Colors",
                  "name": "colors",
                  "type": "tuple"
                },
                {
                  "internalType": "uint8",
                  "name": "variant",
                  "type": "uint8"
                },
                {
                  "internalType": "uint8",
                  "name": "accuracy",
                  "type": "uint8"
                },
                {
                  "internalType": "uint8",
                  "name": "hull",
                  "type": "uint8"
                },
                {
                  "internalType": "uint8",
                  "name": "speed",
                  "type": "uint8"
                }
              ],
              "internalType": "struct Traits",
              "name": "traits",
              "type": "tuple"
            },
            {
              "components": [
                {
                  "internalType": "uint32",
                  "name": "shipsDestroyed",
                  "type": "uint32"
                },
                {
                  "internalType": "uint16",
                  "name": "costsVersion",
                  "type": "uint16"
                },
                {
                  "internalType": "uint16",
                  "name": "cost",
                  "type": "uint16"
                },
                {
                  "internalType": "bool",
                  "name": "shiny",
                  "type": "bool"
                },
                {
                  "internalType": "bool",
                  "name": "constructed",
                  "type": "bool"
                },
                {
                  "internalType": "bool",
                  "name": "inFleet",
                  "type": "bool"
                },
                {
                  "internalType": "uint256",
                  "name": "timestampDestroyed",
                  "type": "uint256"
                }
              ],
              "internalType": "struct ShipData",
              "name": "shipData",
              "type": "tuple"
            },
            {
              "internalType": "address",
              "name": "owner",
              "type": "address"
            }
          ],
          "internalType": "struct Ship",
          "name": "ship",
          "type": "tuple"
        }
      ],
      "name": "render",
      "outputs": [
        {
          "internalType": "string",
          "name": "",
          "type": "string"
        }
      ],
      "stateMutability": "pure",
      "type": "function"
    }
  ],
  "bytecode": "0x6080604052348015600f57600080fd5b50613c858061001f6000396000f3fe608060405234801561001057600080fd5b506004361061002b5760003560e01c8063d01c7c8414610030575b600080fd5b61004361003e366004610eae565b610059565b6040516100509190610ff0565b60405180910390f35b60606000604051806101a001604052806101678152602001612af761016791398360800151606001516100b5576040518060400160405280601181526020017068736c283232302c2033252c203532252960781b815250610118565b6101188460600151602001516000015161ffff168560600151602001516020015160ff168660600151602001516040015160ff166040518060400160405280601181526020017068736c283232302c2033252c203532252960781b815250610616565b6040518061052001604052806104e58152602001612c5e6104e59139856080015160600151610170576040518060400160405280601181526020017068736c2832372c203330252c203530252960781b8152506101d3565b6101d38660600151602001516000015161ffff168760600151602001516020015160ff168860600151602001516040015160ff166040518060400160405280601181526020017068736c2832372c203330252c203530252960781b815250610616565b604051806105c0016040528061058681526020016136ca610586913987608001516060015161022b576040518060400160405280601181526020017068736c2831382c203430252c203339252960781b81525061028e565b61028e8860600151602001516000015161ffff168960600151602001516020015160ff168a60600151602001516040015160ff166040518060400160405280601181526020017068736c2831382c203430252c203339252960781b815250610616565b604051806105c00160405280610587815260200161314361058791398960800151606001516102e6576040518060400160405280601181526020017068736c283231352c2034252c203433252960781b815250610349565b6103498a60600151602001516000015161ffff168b60600151602001516020015160ff168c60600151602001516040015160ff166040518060400160405280601181526020017068736c283231352c2034252c203433252960781b815250610616565b604051602001610360989796959493929190611023565b60408051601f1981840301815261092083019091526108f48083529092506000919061220360208301398460800151606001516103c6576040518060400160405280601181526020017068736c283232332c2036252c203234252960781b815250610429565b6104298560600151602001516000015161ffff168660600151602001516020015160ff168760600151602001516040015160ff166040518060400160405280601181526020017068736c283232332c2036252c203234252960781b815250610616565b60405180610860016040528061083881526020016119cb6108389139866080015160600151610482576040518060400160405280601281526020017168736c283231332c203130252c203138252960701b8152506104e6565b6104e68760600151602001516000015161ffff168860600151602001516020015160ff168960600151602001516040015160ff166040518060400160405280601281526020017168736c283231332c203130252c203138252960701b815250610616565b6040518061070001604052806106da81526020016112f16106da913988608001516060015161053f576040518060400160405280601281526020017168736c283232332c203130252c203133252960701b8152506105a3565b6105a38960600151602001516000015161ffff168a60600151602001516020015160ff168b60600151602001516040015160ff166040518060400160405280601281526020017168736c283232332c203130252c203133252960701b815250610616565b604051806040016040528060088152602001671d91179f1e17b39f60c11b8152506040516020016105da97969594939291906110ca565b604051602081830303815290604052905081816040516020016105fe92919061115d565b60405160208183030381529060405292505050919050565b60606000829050600a815110156106735760405162461bcd60e51b815260206004820152601960248201527f496e76616c69642048534c20737472696e6720666f726d617400000000000000604482015260640160405180910390fd5b6004805b8251811080156106ac57508281815181106106945761069461118c565b6020910101516001600160f81b031916600b60fa1b14155b156106c357806106bb816111b8565b915050610677565b60006106d08484846109f7565b90506106dd8260016111d1565b92505b83518310801561074257508383815181106106fd576106fd61118c565b6020910101516001600160f81b031916600160fd1b1480610742575083838151811061072b5761072b61118c565b6020910101516001600160f81b031916600b60fa1b145b156107595782610751816111b8565b9350506106e0565b8291505b835182108015610792575083828151811061077a5761077a61118c565b6020910101516001600160f81b031916602560f81b14155b156107a957816107a1816111b8565b92505061075d565b60006107b68585856109f7565b90506107c38360016111d1565b93505b84518410801561082857508484815181106107e3576107e361118c565b6020910101516001600160f81b031916600160fd1b148061082857508484815181106108115761081161118c565b6020910101516001600160f81b031916600b60fa1b145b1561083f5783610837816111b8565b9450506107c6565b8392505b84518310801561087857508483815181106108605761086061118c565b6020910101516001600160f81b031916602560f81b14155b1561088f5782610887816111b8565b935050610843565b600061089c8686866109f7565b9050600060288311156108dc5760646108b68d60056111ea565b6108c186605f6111ea565b6108cb91906111d1565b6108d59190611217565b905061090b565b60646108e98d60326111ea565b6108f48660326111ea565b6108fe91906111d1565b6109089190611217565b90505b600060288411156109495760646109238d60056111ea565b61092e86605f6111ea565b61093891906111d1565b6109429190611217565b9050610978565b60646109568d60416111ea565b6109618660236111ea565b61096b91906111d1565b6109759190611217565b90505b600060646109878d600f6111ea565b6109928660556111ea565b61099c91906111d1565b6109a69190611217565b90506109b183610a9f565b6109ba83610a9f565b6109c383610a9f565b6040516020016109d59392919061122b565b6040516020818303038152906040529950505050505050505050949350505050565b600080835b83811015610a96576030868281518110610a1857610a1861118c565b016020015160f81c10801590610a4857506039868281518110610a3d57610a3d61118c565b016020015160f81c11155b15610a8e576030868281518110610a6157610a6161118c565b0160200151610a73919060f81c6112b0565b60ff16610a8183600a6111ea565b610a8b91906111d1565b91505b6001016109fc565b50949350505050565b606081600003610ac65750506040805180820190915260018152600360fc1b602082015290565b8160005b8115610af05780610ada816111b8565b9150610ae99050600a83611217565b9150610aca565b60008167ffffffffffffffff811115610b0b57610b0b610ba8565b6040519080825280601f01601f191660200182016040528015610b35576020820181803683370190505b5090505b8415610ba057610b4a6001836112c9565b9150610b57600a866112dc565b610b629060306111d1565b60f81b818381518110610b7757610b7761118c565b60200101906001600160f81b031916908160001a905350610b99600a86611217565b9450610b39565b949350505050565b634e487b7160e01b600052604160045260246000fd5b60405160c0810167ffffffffffffffff81118282101715610be157610be1610ba8565b60405290565b60405160e0810167ffffffffffffffff81118282101715610be157610be1610ba8565b604051601f8201601f1916810167ffffffffffffffff81118282101715610c3357610c33610ba8565b604052919050565b60048110610c4857600080fd5b50565b600060808284031215610c5d57600080fd5b6040516080810167ffffffffffffffff81118282101715610c8057610c80610ba8565b6040529050808235610c9181610c3b565b81526020830135610ca181610c3b565b60208201526040830135610cb481610c3b565b60408201526060830135610cc781610c3b565b6060919091015292915050565b803561ffff81168114610ce657600080fd5b919050565b803560ff81168114610ce657600080fd5b6000818303610160811215610d1057600080fd5b610d18610bbe565b83358152915060c0601f1982011215610d3057600080fd5b50610d39610bbe565b610d4560208401610cd4565b8152610d5360408401610ceb565b6020820152610d6460608401610ceb565b6040820152610d7560808401610cd4565b6060820152610d8660a08401610ceb565b6080820152610d9760c08401610ceb565b60a08201526020820152610dad60e08301610ceb565b6040820152610dbf6101008301610ceb565b6060820152610dd16101208301610ceb565b6080820152610de36101408301610ceb565b60a082015292915050565b80358015158114610ce657600080fd5b600060e08284031215610e1057600080fd5b610e18610be7565b9050813563ffffffff81168114610e2e57600080fd5b8152610e3c60208301610cd4565b6020820152610e4d60408301610cd4565b6040820152610e5e60608301610dee565b6060820152610e6f60808301610dee565b6080820152610e8060a08301610dee565b60a082015260c09182013591810191909152919050565b80356001600160a01b0381168114610ce657600080fd5b600060208284031215610ec057600080fd5b813567ffffffffffffffff811115610ed757600080fd5b82016103208185031215610eea57600080fd5b610ef2610bbe565b813567ffffffffffffffff811115610f0957600080fd5b8201601f81018613610f1a57600080fd5b803567ffffffffffffffff811115610f3457610f34610ba8565b610f47601f8201601f1916602001610c0a565b818152876020838501011115610f5c57600080fd5b81602084016020830137600060209282018301528352838101359083015250610f888560408401610c4b565b6040820152610f9a8560c08401610cfc565b6060820152610fad856102208401610dfe565b6080820152610fbf6103008301610e97565b60a0820152949350505050565b60005b83811015610fe7578181015183820152602001610fcf565b50506000910152565b602081526000825180602084015261100f816040850160208701610fcc565b601f01601f19169190910160400192915050565b60008951611035818460208e01610fcc565b895190830190611049818360208e01610fcc565b895191019061105c818360208d01610fcc565b885191019061106f818360208c01610fcc565b8751910190611082818360208b01610fcc565b8651910190611095818360208a01610fcc565b85519101906110a8818360208901610fcc565b84519101906110bb818360208801610fcc565b019a9950505050505050505050565b600088516110dc818460208d01610fcc565b8851908301906110f0818360208d01610fcc565b8851910190611103818360208c01610fcc565b8751910190611116818360208b01610fcc565b8651910190611129818360208a01610fcc565b855191019061113c818360208901610fcc565b845191019061114f818360208801610fcc565b019998505050505050505050565b6000835161116f818460208801610fcc565b835190830190611183818360208801610fcc565b01949350505050565b634e487b7160e01b600052603260045260246000fd5b634e487b7160e01b600052601160045260246000fd5b6000600182016111ca576111ca6111a2565b5060010190565b808201808211156111e4576111e46111a2565b92915050565b80820281158282048414176111e4576111e46111a2565b634e487b7160e01b600052601260045260246000fd5b60008261122657611226611201565b500490565b630d0e6d8560e31b81526000845161124a816004850160208901610fcc565b61016160f51b600491840191820152845161126c816006840160208901610fcc565b6004818301019150506201296160ed1b60028201528351611294816005840160208801610fcc565b61252960f01b6005929091019182015260070195945050505050565b60ff82811682821603908111156111e4576111e46111a2565b818103818111156111e4576111e46111a2565b6000826112eb576112eb611201565b50069056fe3b222f3e3c7061746820643d226d3138352031303020342d317632682d34762d315a6d362031762d316c322d3476346833762d326c312d312032203220312033682d346c2d352d315a6d37203468317631682d31762d315a6d2d38203068317631682d31762d315a6d2d313520382d322d31682d37762d35683132762d336835762d3268326c2d31203268337632682d386c312039682d32762d36682d3131763268386c322034682d316c2d312d325a6d30203868317631682d31762d315a6d33203168317631682d31762d315a6d2d31203238762d326c31203120312031682d316c2d312031762d315a6d36203168317631682d31762d315a6d2d3220302d312d3220312031203120317631682d31762d315a6d35312d32682d3176316831762d315a6d3020332d312d3320322d3268317638682d316c2d312d335a6d2d343820332d312d3220312031203120317631682d31762d315a6d2d34203068317631682d31762d315a6d2d31203368317631682d31762d315a6d36203120312d3120312d31762d322035682d336c312d315a6d2d342032762d3168317632682d326c312d315a6d2d352d32762d3420372d335a6d3335203468317631682d31762d315a6d2d313220316836762d3133682d31326c2d31203132682d33762d3131682d32762d326831386c312034763130682d313320365a6d2d3137203068336c332d3176316c2d312031682d35762d315a6d2d3420302d312d3168326c3220317631682d33762d315a6d2d3720322d322d31762d31336c322d31203220337631306c31203120312032682d336c2d312d315a6d35322d353720312d3276346836762d356c2d322d32682d313276376837762d325a6d2d34342031362d312d3176316c2d31203168336c2d312d315a6d363820302d312d32763468316c312d312d312d315a6d2d36382033762d31682d3276326832762d315a6d312034762d31682d3476336834762d325a6d332035682d326c2d31203168346c2d312d315a6d35332d313868317631682d31762d315a6d36203968317631682d31762d315a6d2d3320302d312d322031203220322031682d3176316c2d312d325a6d2d32203720312d3476356c31203276316c342d3220332d32762d316c2d312d32762d31386c2d362d332d322031682d337632346c3120336832762d345a6d2d35382032762d31682d32763368316c312d325a6d34392d3230762d326c312032203120312d312031682d31762d325a6d302035762d326c31203120312031682d316c2d312031762d315a6d2d32203068317631682d31762d315a6d32203268317631682d31762d315a6d2d322030762d316c31203120312031682d336c312d315a6d2d3920312d312d3220312031203120317631682d31762d315a6d33203268336c312031682d366c322d315a6d392037762d382031366833762d3239682d31376c2d312032396831346c312d385a6d2d33362d313168317631682d31762d315a6d30203268317631682d31762d315a6d2d35203268317631682d31762d315a6d38203368317631682d31762d315a6d3620376833762d33682d3130762d326c362031683576356c2d372d3168335a6d2d36203068326c312031682d346c312d315a6d362035683130762d32386c2d322d31682d32306c2d3420332d3420347631346c3420342034203520322d316831305a6d2d32312030762d31683276316c2d3120316832762d33682d37763368326c31203168326c2d312d325a6d333620313868317631682d31762d315a6d332034682d33762d326c342031762d326c312d3220312036762d3138682d367631396c332d3120322d31682d325a6d2d32362036682d326c2d31203168346c2d312d315a6d2d3920322d312d31682d376c2d312d322d322d3120322d31683276326833306c312d32762d3220346835762d386c312d38762d37682d3676336c2d312d31762d32682d33326c2d322036682d316c2d322d3320322d3220322d32762d32326c352031762d316c312d32762d31682d366c312d3368376c332d32682d336c322d3220322d312031332d31683134762d35682d31306c332d33762d32682d336c312d342d372d316837763468336c3120342031392d312032203120312032203120327632683130763268346c31203176316c31203135762d31682d3176346c312035682d336c2d342034682d356c2d3620327632682d35763268336c31203176316c2d312d312d322d312d3120322d3120317631326c3120322031203120332d3220332d31762d36683276386c2d3520322d362032682d3876316c2d3120312d3520312d34203120322d32682d396c32203168317632682d326c2d312d312d312d312d3220312d3220312d332d322d332d31682d316c2d31203168337631682d335a22207374796c653d2266696c6c3a3b222f3e3c7061746820643d224d3233372031313568317631682d31762d315a6d2d3632203068317631682d31762d315a6d32392d31372d312d31682d3476316c2d312031203320316833762d325a6d3232203131762d326c31203120312031682d316c2d312031762d315a6d342030762d32682d326c312d33682d3576356c312031203120316834762d325a6d2d372d3120312d322d312d312d332d31682d34763768366c312d335a6d2d343520322d312d31682d313076316c3620316835762d315a6d2d312032682d3176316831762d315a6d38203368312d346c312d3220312d3176316c31203120312d3220312d3276326c362d3276326c342d316831366c312d32762d336c2d31342031682d32307631306c322d3168326c312d315a6d2d3520362d322d322d32203368356c2d312d315a6d36312037682d3176316831762d315a6d2d36312034762d31682d34763268336c312d315a6d35372032762d316c2d312d31682d32763368326c312031762d325a6d36203068317631682d31762d315a6d2d32203220322d316832762d33682d336c2d3120342d312d322d322d32763668326c312d325a6d2d342031682d3176316831762d315a6d2d352d3130762d3133682d33763236683276316c2d31203120312d316831762d31345a6d2d362d3420312d317633682d326c312d325a6d2d3920332d312d332033203468366c2d332031682d346c2d312d325a6d2d31203368317631682d31762d315a6d2d3120313168317631682d31762d315a6d313120316832762d3237682d313476323868366c352d3168315a6d2d31382d3138762d356c312d3376396c2d312d315a6d2d3131203068317631682d31762d315a6d2d342031762d326c312032203120312d312031682d31762d325a6d2d352032762d346c322d3120312d3120362d3120312d32762d31683876376c2d312d36682d346c2d3320322d322031682d326c2d3220322d33203176376c2d312d345a6d32203468317631682d31762d315a6d322034762d32683176346c2d312d325a6d31332030682d3176316831762d315a6d302032682d3176316831762d315a6d2d31302030762d326c31203276316837762d33682d376c2d312d322d312d3268316c31203120322d3220332d332d34203476326831307636682d3132762d325a6d2d33203168317631682d31762d315a6d3134203368317631682d31762d315a6d2d36203068317631682d31762d315a6d2d3320312d312d3168326c31203176316839762d366c3220347631682d312033762d3237682d32336c2d3320332d3420337631346c38203720322d3120332d312d3120322d3120316834762d315a6d32342037682d336c2d31203168356c2d312d315a6d2d333420326833762d33682d31326c3120322033203268326c332d315a6d33362034762d3720326c2d312031682d3476326c2d322d3376346832763468326c312031762d316c2d312d3120322d3376386831762d375a6d38203820312d33762d3368316c2d322d352d322d312d312d32682d326c2d322036203120352031203520322d316833762d315a6d2d32362d35762d36682d313276366c2d31203620362d3120352d3120312d3276326c2d32203368316c322d31762d365a6d2d342036682d3176316831762d315a6d2d31392d35762d3168316c312031682d3320315a6d342035762d3168326c312031762d3131682d396c2d3220312d312032763668316c312d31762d326c312d3220322d3268326c3420342d312033682d316c2d312d31762d35682d346c2d31203468326c32203176316c2d31203120312d3168317632682d316c2d3220316834762d315a6d2d352d312d312d322d32203176326833762d315a6d312034762d31682d346c2d312d322d322d31762d376c322d3220332d32682d33762d356c2d3220332d32203476386c342036762d316c322031203220316831762d325a6d31372032682d3176316831762d315a6d2d372d323068317631682d31762d315a6d31392036762d326c312032203120312d312031682d31762d325a6d2d32302031332d312d3120342031683134762d31346831762d3120313568326c312d35762d362031316832762d31376c312d3220312d31682d326c2d3120322d322032762d34682d3276356c2d312d362d382031682d3876316c2d3120326831346c3120317631326c2d322033682d396c2d332d32682d346c2d3420317631682d316c332031683376326c322d31762d315a6d382033682d3176316831762d315a6d2d313420322d312d31682d376c2d332d33682d316c2d312d312d332d32762d31346c362d36762d323868326c312d32762d31682d316c2d3120312d312d322d322d31682d37762d35683132762d336835762d3268326c2d31203268336c3220316831346c322d316831762d32682d31386c2d332d3268336c312d32762d32203468336c312d32762d32203468336c312d346838763468336c3120342031392d3120322031203120322031203276326831307632682d396c312031763668356c2d352031763968326c322d352031203420322d3120332032682d326c2d3220312d312d312d312d3276316c2d3120312d3220312d31203120342d31203220322031203220312d3320322d3220312d32762d336c2d352d3568326c32203220312032762d386c2d342d3220322d3168336c312031203120377631326c2d312035682d326c2d342034682d366c2d3220312d3220312d312032682d356c3320322033203220312d3120312d3168317631376c2d3520322d362032682d3876316c2d312032682d356c2d3120312d3220312d332d332d3120322d312031682d34762d336c2d3220322d3220312d322d312d322d322d312033682d33762d315a22207374796c653d2266696c6c3a3b222f3e3c7061746820643d226d3230312039372d312d3176316c2d31203168336c2d312d315a6d2d392032762d31682d33763268326c312d315a6d31322034762d31682d313976326c312d3120332031203320316831316c312d325a6d323520342d312d32682d3476336835762d325a6d2d362d31762d31682d3676336836762d325a6d2d35352033682d3176316831762d315a6d3434203120312d3220312d31682d366c3120346833762d315a6d2d32392032762d326c31203276316832762d346c3120322031203120312d31683137762d34682d323076322d316c2d312d31682d356c31203576316832762d315a6d2d362030682d3176316831762d315a6d35352033762d31682d3376336833762d325a6d2d34382031682d3176316831762d315a6d2d372d312d312d3176336c312d3168316c2d312d315a6d36382031762d31682d326c2d332d33682d36763468326c312031762d316c2d312d3168336c33203120332032762d325a6d2d31302031682d3176316831762d315a6d2d313920302d312d31682d3176336832762d325a6d2d333720342d312d3176316c2d31203168336c2d312d315a6d35382031762d336c2d3120322d3220322031203176316c312d316831762d325a6d2d3920312d312d32763468316c312d312d312d315a6d2d342d37762d316c31203120312031682d336c312d315a6d2d352031762d3168316c2d312032682d316c312d315a6d32203020312d317633682d326c312d325a6d352032762d326c31203120312031682d316c2d312031762d315a6d31203220312d32762d35682d31346c322032203120332d3120312d32203276336c312d3120312d312032203268366c322d3220312d325a6d3137203368316c2d322d322d322d32682d3376366c33203120332d335a6d2d32342032682d3176316831762d315a6d382031682d3176316831762d315a6d2d313020322d312d31682d317631682d3120335a6d2d34302032682d3176316831762d315a6d35342d32762d3131682d326c2d31203138203220346831762d31315a6d2d33372d313468317631682d31762d315a6d2d35203068317631682d31762d315a6d3230203668317631682d31762d315a6d30203468317631682d31762d315a6d2d3137203268317631682d31762d315a6d2d35203220312d32682d336c2d3120322d312031762d396c322d31683276316c31203120332d3368346c342d3468356c3120312031203176336c2d312033682d32762d346c2d35203120332d32682d326c2d34203376316c322d3176342d316c2d312d31682d336c31203120312031682d316c2d3120312d312d31682d326c322d3220332d322d312d312d312d312d342035203320332d312d31682d3276316c2d31203168327633682d326c2d312d31762d315a6d30203468317631682d31762d315a6d31372031682d3176316831762d315a6d2d322031762d31682d3776326c3420316833762d325a6d2d322033682d36762d376c362d3668326c312d3120312031203120312d322d31682d316c2d36203620352031683576372d31682d365a6d2d392d32762d33682d326c342d3368316c2d3120322d3120322031203376336c31342d31762d31326c33203476326c2d322d337631306833762d3231682d316c2d31203120312d3120312d32762d33682d3376376c312031203120312d3120322d322031762d3132682d31386c2d3420332d3420337631356c332d3476346c3320322033203320312d31762d335a6d33322d332d312d32203220322031203176316c2d322d325a6d2d332032762d3168326c312032682d33762d315a6d3520342d322d3168316c322031762d316c312d32762d376c2d322d312d3220312d31203168326c2d332032682d326c312d3220312d31682d336c31203176316c2d3220312d33203176366c332d3176316c2d3120316834762d33683276316c2d312031203220312032203168326c2d322d325a6d2d32332038682d3176316831762d315a6d2d32342030682d3176316831762d315a6d31342032682d3176316831762d315a6d323420322d312d3176336c312d3168316c2d312d315a6d2d3338203420312031762d326c2d312d312d3120312d3220312031203120312031762d3268315a6d34342d32762d366c2d3120342d322d31682d32763368326c31203120312d32762d3120376831762d355a6d2d31352031762d34682d336c31203376326c31203276316831762d345a6d362031762d346c2d312d31682d317631306832762d355a6d2d33392d3368317631682d31762d315a6d382037682d32762d326c33203120322d3220312d33762d31682d376c2d352d322d3120322d3120322032203220342d3420312031763168346c31203176316c2d322d31682d316c2d3120312d3120322031203268346c2d322d315a6d31382d3468317631682d31762d315a6d2d3120326835762d36682d313276346c2d3120332031203220312031762d3468365a6d31312d31762d36682d326c312031336831762d375a6d2d32322d31762d342031322d385a6d343120362031203120312d34762d356c2d352d34682d316c2d31203476356c31203376336c312d3120312d3268325a6d2d313720322d312d3276356c312d31762d325a6d2d3220312d312d3176336c312d3168316c2d312d315a6d2d332031682d3176316831762d315a6d2d31362030682d3176316831762d315a6d2d322031762d316c2d312d312d312031763168325a6d2d382030682d3176316831762d315a6d2d3220302d312d3176316c2d31203168336c2d312d315a6d342036762d31682d376c2d332d33682d326c2d312d322d322d31762d31346c362d36762d33326c2d312d31682d38762d35683132762d3368356c312d346834762d336835763368336c312d346838763468336c31203276326c392d3120382d3120332032203220312031203276336831307632683576376c31203676366c2d3120362d3220312d3320317632682d376c2d3220312d3220312d312032682d356c33203220332032762d3268337631376c2d3520322d362032682d3876316c2d312032682d356c2d3120312d3120312d352d3276316c2d312031682d34762d336c2d3320322d3220312d332d332d312033682d34762d315a22207374796c653d2266696c6c3a3c672069643d22496d6167655f335f496d616765223e3c7061746820643d224d31393320313134682d3176316831762d315a6d2d3130203339682d3176316831762d315a6d343620302d312d3176336c312d3168316c2d312d315a6d2d3435203139762d31682d376c2d312d312d322d312d322d322d322d31762d376c2d312d3820332d3320332d33762d33326c2d312d31682d38762d35683132762d3368346c332d346833762d3468356c31203468326c312d346838763468336c31203276326c332d3168336c362d3168366c342034203120327632683130763268357631306c322033203120322d33203276376c2d3120312d322032682d327632682d366c2d3620327632682d3476326839763138682d336c2d382033682d3976316c2d312032682d366c2d312032682d34762d336c2d322033682d336c2d312d322d3220312d3220312d332d322d3120312d312031682d34762d315a22207374796c653d2266696c6c3a3b222f3e3c7061746820643d224d32303320313033762d31682d31346c3134203176312d315a6d32352034762d31682d3476326834762d315a6d2d362030762d31682d316c2d322031762d32682d3176336834762d315a6d323020372d312d31682d326c2d33203120312d31762d31682d336c3320336835762d315a6d2d313120302d312d3176316c2d31203168336c2d312d315a6d2d362030682d31312031352d345a6d2d31332030682d326c2d31203168346c2d312d315a6d2d312032682d3176316831762d315a6d2d332030682d3176316831762d315a6d333720302d322d3276326c31203120312031762d3168316c2d312d315a6d2d32382031682d3176316831762d315a6d323420342d312d31682d3176316c2d3120316833762d315a6d2d33312030682d3176316831762d315a6d2d313320322d312d3176316c2d31203168336c2d312d315a6d31342031682d3176316831762d315a6d2d31372d34762d316c2d34203476326c342d355a6d31302036682d3176316831762d315a6d2d31322032682d3176316831762d315a6d31322031682d3176316831762d315a6d2d362030762d31682d316c2d322031763168326c312d315a6d31322032682d3176316831762d315a6d382032682d3176316831762d315a6d2d32362030682d3176316831762d315a6d33332031682d3176316831762d315a6d2d31332030762d31682d326c3120326831762d315a6d2d32322030682d3176316831762d315a6d2d362d36762d366c332d3320322d32762d326c32302d31682d31396c2d3220312d32203276336c2d3420317631346831762d316c312d365a6d343420372d312d312d31203176316832762d315a6d2d352031682d3176316831762d315a6d3420322d312d3176316c2d31203168336c2d312d315a6d3020322d312d3176316c2d31203168336c2d312d315a6d2d31332031322d312d3176316c2d31203168336c2d312d315a6d2d3320302d312d3176316c2d31203168336c2d312d315a6d2d3320302d322d3176326832762d315a6d2d33322030762d31682d316c2d31203268316c312d315a6d34372d312d312d3276356c312d31762d325a6d2d33342032682d3176316831762d315a6d343020302d312d3176336c312d3168316c2d312d315a6d2d34342031762d31682d336c332032762d315a6d34302031682d3176316831762d315a6d2d33362030682d3176316831762d315a6d2d31302d3268317631682d31762d315a6d2d312032762d3168316c31203120312d31762d316c2d312d312d3220322d3220326832762d315a6d32312d326836762d316c2d312d31682d31306c2d32203276346c312033762d336c312d3468355a6d2d3135203139762d31682d376c2d332d33682d326c2d312d322d322d31762d31346c362d36762d33326c2d312d31682d38762d35683132762d3368356c312d346834762d336835763368336c312d346838763468336c31203276326c392d3120382d3120332032203220312031203276336831307632683576376c31203676366c2d3120362d3220312d3320317632682d366c2d3620327632682d3476316c3320322032203120312d3268327631376c2d3520322d362032682d3876316c2d312032682d356c2d3120312d3220312d322d312d322d312d312032682d34762d326c2d3220312d3320312d312d312d322d322d312033682d34762d315a22207374796c653d2266696c6c3a3b222f3e3c7061746820643d224d32303320313033762d31682d31346c3134203176312d315a6d32352034762d31682d3476326834762d315a6d2d362030762d31682d316c2d322031762d32682d3176336834762d315a6d2d3130203320312d3220312d31682d366c3120346833762d315a6d2d313420316838762d34682d32306c31203176346c332d3168385a6d2d31352031762d326c3120322031203168316c312d312d312d332d312d32682d356c31203576316832762d315a6d353920322d312d31682d326c2d33203120312d31762d31682d336c3320336835762d315a6d2d313120302d312d3176316c2d31203168336c2d312d315a6d2d362030682d31312031352d345a6d2d31332030682d326c2d31203168346c2d312d315a6d2d312032682d3176316831762d315a6d2d332030682d3176316831762d315a6d333720302d322d3276326c31203120312031762d3168316c2d312d315a6d2d32382031682d3176316831762d315a6d323420342d312d31682d3176316c2d3120316833762d315a6d2d33312030682d3176316831762d315a6d2d313320322d312d3176316c2d31203168336c2d312d315a6d31342031682d3176316831762d315a6d2d31372d34762d316c2d34203476326c342d355a6d34382034682d326c2d322031203120312032203120322d322d312d315a6d2d33382032682d3176316831762d315a6d2d31322032682d3176316831762d315a6d31322031682d3176316831762d315a6d2d362030762d31682d316c2d322031763168326c312d315a6d31322032682d3176316831762d315a6d382032682d3176316831762d315a6d2d32362030682d3176316831762d315a6d33332031682d3176316831762d315a6d2d31332030762d31682d326c3120326831762d315a6d2d32322030682d3176316831762d315a6d2d362d36762d366c332d3320322d32762d326c32302d31682d31396c2d3220312d32203276336c2d3420317631346831762d316c312d365a6d343420372d312d312d31203176316832762d315a6d2d352031682d3176316831762d315a6d3420322d312d3176316c2d31203168336c2d312d315a6d3020322d312d3176316c2d31203168336c2d312d315a6d2d31332031322d312d3176316c2d31203168336c2d312d315a6d2d3320302d312d3176316c2d31203168336c2d312d315a6d2d3320302d322d3176326832762d315a6d2d33322030762d31682d316c2d31203268316c312d315a6d34372d312d312d3276356c312d31762d325a6d2d33342032682d3176316831762d315a6d302032682d3176316831762d315a6d2d342d31762d31682d336c332032682d326c2d32203120322d316832762d315a6d2d362d3168317631682d31762d315a6d2d312032762d3168316c31203120312d31762d316c2d312d312d3220322d3220326832762d315a6d32312d326836762d316c2d312d31682d31306c2d32203276346c312033762d336c312d3468355a6d2d31352036682d326c2d31203168346c2d312d315a6d3436203220312031762d31306c2d352d33682d3176386c322037762d316c312d3268325a6d2d3436203131762d31682d376c2d332d33682d326c2d312d322d322d31762d31346c362d36762d33326c2d312d31682d38762d35683132762d3368356c312d346834762d336835763368336c312d346838763468336c31203276326c392d3120382d3120332032203220312031203276336831307632683576376c31203676366c2d3120362d3220312d3320317632682d366c2d3620327632682d3476316c3320322032203120312d3268327631376c2d3520322d362032682d3876316c2d312032682d356c2d3120312d3220312d322d312d322d312d312032682d34762d326c2d3220312d3320312d312d312d322d322d312033682d34762d315a22207374796c653d2266696c6c3a3b222f3e3c7061746820643d224d32303320313033762d31682d31346c3134203176312d315a6d32352034762d31682d3476326834762d315a6d2d362030762d31682d316c2d322031762d32682d3176336834762d315a6d2d31302031682d3176316831762d315a6d2d332d312d312d3176336c312d3168316c2d312d315a6d2d332031762d31682d34763268336c312d315a6d2d352030762d31682d3676326836762d315a6d2d372030762d31682d35763268346c312d315a6d2d362030762d31682d3276326832762d315a6d2d332030762d31682d3476326834762d315a6d353720362d312d31682d326c2d33203120312d31762d31682d336c3320336835762d315a6d2d313120302d312d3176316c2d31203168336c2d312d315a6d2d362030682d31312031352d345a6d2d31332030682d326c2d31203168346c2d312d315a6d2d312032682d3176316831762d315a6d2d332030682d3176316831762d315a6d333720302d322d3276326c31203120312031762d3168316c2d312d315a6d2d32382031682d3176316831762d315a6d323420342d312d31682d3176316c2d3120316833762d315a6d2d33312030682d3176316831762d315a6d2d313320322d312d3176316c2d31203168336c2d312d315a6d31342031682d3176316831762d315a6d2d31372d34762d316c2d34203476326c342d355a6d34362035682d3176316831762d315a6d2d33362031682d3176316831762d315a6d2d31322032682d3176316831762d315a6d31322031682d3176316831762d315a6d2d362030762d31682d316c2d322031763168326c312d315a6d31322032682d3176316831762d315a6d382032682d3176316831762d315a6d2d32362030682d3176316831762d315a6d33332031682d3176316831762d315a6d2d31332030762d31682d326c3120326831762d315a6d2d32322030682d3176316831762d315a6d2d362d36762d366c332d3320322d32762d326c32302d31682d31396c2d3220312d32203276336c2d3420317631346831762d316c312d365a6d343420372d312d312d31203176316832762d315a6d2d352031682d3176316831762d315a6d3420322d312d3176316c2d31203168336c2d312d315a6d3020322d312d3176316c2d31203168336c2d312d315a6d2d31332031322d312d3176316c2d31203168336c2d312d315a6d2d3320302d312d3176316c2d31203168336c2d312d315a6d2d3320302d322d3176326832762d315a6d2d33322030762d31682d316c2d31203268316c312d315a6d34372d312d312d3276356c312d31762d325a6d2d33342032682d3176316831762d315a6d302032682d3176316831762d315a6d2d342d31762d31682d336c332032682d326c2d32203120322d316832762d315a6d2d362d3168317631682d31762d315a6d2d312032762d3168316c31203120312d31762d316c2d312d312d3220322d3220326832762d315a6d35332030762d326c2d352d322d31203276326c3220322032203120322d31762d325a6d2d33322d326836762d316c2d312d31682d31306c2d32203276346c312033762d336c312d3468355a6d2d3135203139762d31682d376c2d332d33682d326c2d312d322d322d31762d31346c362d36762d33326c2d312d31682d38762d35683132762d3368356c312d346834762d336835763368336c312d346838763468336c31203276326c392d3120382d3120332032203220312031203276336831307632683576376c31203676366c2d3120362d3220312d3320317632682d366c2d3620327632682d3476316c3320322032203120312d3268327631376c2d3520322d362032682d3876316c2d312032682d356c2d3120312d3220312d322d312d322d312d312032682d34762d326c2d3220312d3320312d312d312d322d322d312033682d34762d315a22207374796c653d2266696c6c3aa2646970667358221220373cc7ab776d17b69703bd29ccf7f8a9ae8e3ab68130fd4d0c7461686658b04b64736f6c634300081c0033",
  "linkReferences": {},
  "deployedLinkReferences": {}
}