{
  "_format": "hh-sol-artifact-1",
  "contractName": "RenderWeapon",
  "sourceName": "contracts/Renderers/RenderWeapon.sol",
  "abi": [
    {
      "inputs": [
        {
          "internalType": "address[]",
          "name": "renderers",
          "type": "address[]"
        }
      ],
      "stateMutability": "nonpayable",
      "type": "constructor"
    },
    {
      "inputs": [
        {
          "components": [
            {
              "internalType": "string",
              "name": "name",
              "type": "string"
            },
            {
              "internalType": "uint256",
              "name": "id",
              "type": "uint256"
            },
            {
              "components": [
                {
                  "internalType": "enum MainWeapon",
                  "name": "mainWeapon",
                  "type": "uint8"
                },
                {
                  "internalType": "enum Armor",
                  "name": "armor",
                  "type": "uint8"
                },
                {
                  "internalType": "enum Shields",
                  "name": "shields",
                  "type": "uint8"
                },
                {
                  "internalType": "enum Special",
                  "name": "special",
                  "type": "uint8"
                }
              ],
              "internalType": "struct Equipment",
              "name": "equipment",
              "type": "tuple"
            },
            {
              "components": [
                {
                  "internalType": "uint256",
                  "name": "serialNumber",
                  "type": "uint256"
                },
                {
                  "components": [
                    {
                      "internalType": "uint16",
                      "name": "h1",
                      "type": "uint16"
                    },
                    {
                      "internalType": "uint8",
                      "name": "s1",
                      "type": "uint8"
                    },
                    {
                      "internalType": "uint8",
                      "name": "l1",
                      "type": "uint8"
                    },
                    {
                      "internalType": "uint16",
                      "name": "h2",
                      "type": "uint16"
                    },
                    {
                      "internalType": "uint8",
                      "name": "s2",
                      "type": "uint8"
                    },
                    {
                      "internalType": "uint8",
                      "name": "l2",
                      "type": "uint8"
                    },
                    {
                      "internalType": "uint16",
                      "name": "h3",
                      "type": "uint16"
                    },
                    {
                      "internalType": "uint8",
                      "name": "s3",
                      "type": "uint8"
                    },
                    {
                      "internalType": "uint8",
                      "name": "l3",
                      "type": "uint8"
                    }
                  ],
                  "internalType": "struct Colors",
                  "name": "colors",
                  "type": "tuple"
                },
                {
                  "internalType": "uint16",
                  "name": "variant",
                  "type": "uint16"
                },
                {
                  "internalType": "uint8",
                  "name": "accuracy",
                  "type": "uint8"
                },
                {
                  "internalType": "uint8",
                  "name": "hull",
                  "type": "uint8"
                },
                {
                  "internalType": "uint8",
                  "name": "speed",
                  "type": "uint8"
                }
              ],
              "internalType": "struct Traits",
              "name": "traits",
              "type": "tuple"
            },
            {
              "components": [
                {
                  "internalType": "uint32",
                  "name": "shipsDestroyed",
                  "type": "uint32"
                },
                {
                  "internalType": "uint16",
                  "name": "costsVersion",
                  "type": "uint16"
                },
                {
                  "internalType": "uint16",
                  "name": "cost",
                  "type": "uint16"
                },
                {
                  "internalType": "uint16",
                  "name": "modified",
                  "type": "uint16"
                },
                {
                  "internalType": "bool",
                  "name": "shiny",
                  "type": "bool"
                },
                {
                  "internalType": "bool",
                  "name": "constructed",
                  "type": "bool"
                },
                {
                  "internalType": "bool",
                  "name": "inFleet",
                  "type": "bool"
                },
                {
                  "internalType": "bool",
                  "name": "isFreeShip",
                  "type": "bool"
                },
                {
                  "internalType": "uint256",
                  "name": "timestampDestroyed",
                  "type": "uint256"
                }
              ],
              "internalType": "struct ShipData",
              "name": "shipData",
              "type": "tuple"
            },
            {
              "internalType": "address",
              "name": "owner",
              "type": "address"
            }
          ],
          "internalType": "struct Ship",
          "name": "ship",
          "type": "tuple"
        }
      ],
      "name": "render",
      "outputs": [
        {
          "internalType": "string",
          "name": "",
          "type": "string"
        }
      ],
      "stateMutability": "view",
      "type": "function"
    },
    {
      "inputs": [],
      "name": "renderWeapon1",
      "outputs": [
        {
          "internalType": "contract IReturnSVG",
          "name": "",
          "type": "address"
        }
      ],
      "stateMutability": "view",
      "type": "function"
    },
    {
      "inputs": [],
      "name": "renderWeapon2",
      "outputs": [
        {
          "internalType": "contract IReturnSVG",
          "name": "",
          "type": "address"
        }
      ],
      "stateMutability": "view",
      "type": "function"
    },
    {
      "inputs": [],
      "name": "renderWeapon3",
      "outputs": [
        {
          "internalType": "contract IReturnSVG",
          "name": "",
          "type": "address"
        }
      ],
      "stateMutability": "view",
      "type": "function"
    },
    {
      "inputs": [],
      "name": "renderWeapon4",
      "outputs": [
        {
          "internalType": "contract IReturnSVG",
          "name": "",
          "type": "address"
        }
      ],
      "stateMutability": "view",
      "type": "function"
    }
  ],
  "bytecode": "0x61010060405234801561001157600080fd5b50604051610e1c380380610e1c83398101604081905261003091610193565b80516004146100955760405162461bcd60e51b815260206004820152602760248201527f496e76616c69642072656e64657265727320617272617920696e2052656e6465604482015266392bb2b0b837b760c91b606482015260840160405180910390fd5b806000815181106100a8576100a8610262565b60200260200101516001600160a01b03166080816001600160a01b031681525050806001815181106100dc576100dc610262565b60200260200101516001600160a01b031660a0816001600160a01b0316815250508060028151811061011057610110610262565b60200260200101516001600160a01b031660c0816001600160a01b0316815250508060038151811061014457610144610262565b60209081029190910101516001600160a01b031660e05250610278565b634e487b7160e01b600052604160045260246000fd5b80516001600160a01b038116811461018e57600080fd5b919050565b6000602082840312156101a557600080fd5b81516001600160401b038111156101bb57600080fd5b8201601f810184136101cc57600080fd5b80516001600160401b038111156101e5576101e5610161565b604051600582901b90603f8201601f191681016001600160401b038111828210171561021357610213610161565b60405291825260208184018101929081018784111561023157600080fd5b6020850194505b838510156102575761024985610177565b815260209485019401610238565b509695505050505050565b634e487b7160e01b600052603260045260246000fd5b60805160a05160c05160e051610b526102ca60003960008181606101526102f501526000818160a5015261028b01526000818160ec0152610221015260008181610113015261016c0152610b526000f3fe608060405234801561001057600080fd5b50600436106100575760003560e01c8063319471a11461005c5780633da61edc146100a05780635394d872146100c757806372ba5179146100e7578063e06fc48d1461010e575b600080fd5b6100837f000000000000000000000000000000000000000000000000000000000000000081565b6040516001600160a01b0390911681526020015b60405180910390f35b6100837f000000000000000000000000000000000000000000000000000000000000000081565b6100da6100d53660046106d2565b610135565b6040516100979190610826565b6100837f000000000000000000000000000000000000000000000000000000000000000081565b6100837f000000000000000000000000000000000000000000000000000000000000000081565b60606000604083015151600781111561015057610150610840565b036101ec576040516329ca6c3960e11b81526001600160a01b037f00000000000000000000000000000000000000000000000000000000000000001690635394d872906101a19085906004016109ea565b600060405180830381865afa1580156101be573d6000803e3d6000fd5b505050506040513d6000823e601f3d908101601f191682016040526101e69190810190610aa5565b92915050565b6001604083015151600781111561020557610205610840565b03610256576040516329ca6c3960e11b81526001600160a01b037f00000000000000000000000000000000000000000000000000000000000000001690635394d872906101a19085906004016109ea565b6002604083015151600781111561026f5761026f610840565b036102c0576040516329ca6c3960e11b81526001600160a01b037f00000000000000000000000000000000000000000000000000000000000000001690635394d872906101a19085906004016109ea565b600360408301515160078111156102d9576102d9610840565b0361032a576040516329ca6c3960e11b81526001600160a01b037f00000000000000000000000000000000000000000000000000000000000000001690635394d872906101a19085906004016109ea565b505060408051602081019091526000815290565b634e487b7160e01b600052604160045260246000fd5b60405160c0810167ffffffffffffffff811182821017156103775761037761033e565b60405290565b604051610120810167ffffffffffffffff811182821017156103775761037761033e565b604051601f8201601f1916810167ffffffffffffffff811182821017156103ca576103ca61033e565b604052919050565b600067ffffffffffffffff8211156103ec576103ec61033e565b50601f01601f191660200190565b6008811061040757600080fd5b50565b60006080828403121561041c57600080fd5b6040516080810167ffffffffffffffff8111828210171561043f5761043f61033e565b6040529050808235610450816103fa565b81526020830135610460816103fa565b60208201526040830135610473816103fa565b60408201526060830135610486816103fa565b6060919091015292915050565b803561ffff811681146104a557600080fd5b919050565b803560ff811681146104a557600080fd5b60008183036101c08112156104cf57600080fd5b6104d7610354565b833581529150610120601f19820112156104f057600080fd5b506104f961037d565b61050560208401610493565b8152610513604084016104aa565b6020820152610524606084016104aa565b604082015261053560808401610493565b606082015261054660a084016104aa565b608082015261055760c084016104aa565b60a082015261056860e08401610493565b60c082015261057a61010084016104aa565b60e082015261058c61012084016104aa565b61010082015260208201526105a46101408301610493565b60408201526105b661016083016104aa565b60608201526105c861018083016104aa565b60808201526105da6101a083016104aa565b60a082015292915050565b803563ffffffff811681146104a557600080fd5b803580151581146104a557600080fd5b6000610120828403121561061c57600080fd5b61062461037d565b905061062f826105e5565b815261063d60208301610493565b602082015261064e60408301610493565b604082015261065f60608301610493565b6060820152610670608083016105f9565b608082015261068160a083016105f9565b60a082015261069260c083016105f9565b60c08201526106a360e083016105f9565b60e08201526101009182013591810191909152919050565b80356001600160a01b03811681146104a557600080fd5b6000602082840312156106e457600080fd5b813567ffffffffffffffff8111156106fb57600080fd5b82016103c0818503121561070e57600080fd5b610716610354565b813567ffffffffffffffff81111561072d57600080fd5b8201601f8101861361073e57600080fd5b803561075161074c826103d2565b6103a1565b81815287602083850101111561076657600080fd5b81602084016020830137600060209282018301528352838101359083015250610792856040840161040a565b60408201526107a48560c084016104bb565b60608201526107b7856102808401610609565b60808201526107c96103a083016106bb565b60a0820152949350505050565b60005b838110156107f15781810151838201526020016107d9565b50506000910152565b600081518084526108128160208601602086016107d6565b601f01601f19169290920160200192915050565b60208152600061083960208301846107fa565b9392505050565b634e487b7160e01b600052602160045260246000fd5b6008811061040757634e487b7160e01b600052602160045260246000fd5b80518252602081015161ffff815116602084015260ff602082015116604084015260408101516108a9606085018260ff169052565b50606081015161ffff8116608085015250608081015160ff811660a08501525060a081015160ff811660c08501525060c081015161ffff811660e08501525060e081015160ff811661010085015250610100015160ff811661012084015250604081015161ffff811661014084015250606081015160ff811661016084015250608081015160ff81166101808401525060a0015160ff166101a09190910152565b63ffffffff815116825261ffff60208201511660208301526040810151610977604084018261ffff169052565b50606081015161098d606084018261ffff169052565b5060808101516109a1608084018215159052565b5060a08101516109b560a084018215159052565b5060c08101516109c960c084018215159052565b5060e08101516109dd60e084018215159052565b5061010090810151910152565b60208152600082516103c06020840152610a086103e08401826107fa565b90506020840151604084015260408401518051610a2481610856565b60608501526020810151610a3781610856565b60808501526040810151610a4a81610856565b60a085015260600151610a5c81610856565b60c08401526060840151610a7360e0850182610874565b506080840151610a876102a085018261094a565b5060a08401516001600160a01b0381166103c0850152509392505050565b600060208284031215610ab757600080fd5b815167ffffffffffffffff811115610ace57600080fd5b8201601f81018413610adf57600080fd5b8051610aed61074c826103d2565b818152856020838501011115610b0257600080fd5b610b138260208301602086016107d6565b9594505050505056fea2646970667358221220cf8943fe02e30f2a0b3b3bc02b7997f801c8dc1873c010ccb306a9f413a7993e64736f6c634300081c0033",
  "linkReferences": {},
  "deployedLinkReferences": {}
}