{
  "_format": "hh-sol-artifact-1",
  "contractName": "RenderAft",
  "sourceName": "contracts/Renderers/RenderAft.sol",
  "abi": [
    {
      "inputs": [
        {
          "internalType": "address[]",
          "name": "renderers",
          "type": "address[]"
        }
      ],
      "stateMutability": "nonpayable",
      "type": "constructor"
    },
    {
      "inputs": [
        {
          "components": [
            {
              "internalType": "string",
              "name": "name",
              "type": "string"
            },
            {
              "internalType": "uint256",
              "name": "id",
              "type": "uint256"
            },
            {
              "components": [
                {
                  "internalType": "enum MainWeapon",
                  "name": "mainWeapon",
                  "type": "uint8"
                },
                {
                  "internalType": "enum Armor",
                  "name": "armor",
                  "type": "uint8"
                },
                {
                  "internalType": "enum Shields",
                  "name": "shields",
                  "type": "uint8"
                },
                {
                  "internalType": "enum Special",
                  "name": "special",
                  "type": "uint8"
                }
              ],
              "internalType": "struct Equipment",
              "name": "equipment",
              "type": "tuple"
            },
            {
              "components": [
                {
                  "internalType": "uint256",
                  "name": "serialNumber",
                  "type": "uint256"
                },
                {
                  "components": [
                    {
                      "internalType": "uint16",
                      "name": "h1",
                      "type": "uint16"
                    },
                    {
                      "internalType": "uint8",
                      "name": "s1",
                      "type": "uint8"
                    },
                    {
                      "internalType": "uint8",
                      "name": "l1",
                      "type": "uint8"
                    },
                    {
                      "internalType": "uint16",
                      "name": "h2",
                      "type": "uint16"
                    },
                    {
                      "internalType": "uint8",
                      "name": "s2",
                      "type": "uint8"
                    },
                    {
                      "internalType": "uint8",
                      "name": "l2",
                      "type": "uint8"
                    },
                    {
                      "internalType": "uint16",
                      "name": "h3",
                      "type": "uint16"
                    },
                    {
                      "internalType": "uint8",
                      "name": "s3",
                      "type": "uint8"
                    },
                    {
                      "internalType": "uint8",
                      "name": "l3",
                      "type": "uint8"
                    }
                  ],
                  "internalType": "struct Colors",
                  "name": "colors",
                  "type": "tuple"
                },
                {
                  "internalType": "uint16",
                  "name": "variant",
                  "type": "uint16"
                },
                {
                  "internalType": "uint8",
                  "name": "accuracy",
                  "type": "uint8"
                },
                {
                  "internalType": "uint8",
                  "name": "hull",
                  "type": "uint8"
                },
                {
                  "internalType": "uint8",
                  "name": "speed",
                  "type": "uint8"
                }
              ],
              "internalType": "struct Traits",
              "name": "traits",
              "type": "tuple"
            },
            {
              "components": [
                {
                  "internalType": "uint32",
                  "name": "shipsDestroyed",
                  "type": "uint32"
                },
                {
                  "internalType": "uint16",
                  "name": "costsVersion",
                  "type": "uint16"
                },
                {
                  "internalType": "uint16",
                  "name": "cost",
                  "type": "uint16"
                },
                {
                  "internalType": "uint16",
                  "name": "modified",
                  "type": "uint16"
                },
                {
                  "internalType": "bool",
                  "name": "shiny",
                  "type": "bool"
                },
                {
                  "internalType": "bool",
                  "name": "constructed",
                  "type": "bool"
                },
                {
                  "internalType": "bool",
                  "name": "inFleet",
                  "type": "bool"
                },
                {
                  "internalType": "bool",
                  "name": "isFreeShip",
                  "type": "bool"
                },
                {
                  "internalType": "uint256",
                  "name": "timestampDestroyed",
                  "type": "uint256"
                }
              ],
              "internalType": "struct ShipData",
              "name": "shipData",
              "type": "tuple"
            },
            {
              "internalType": "address",
              "name": "owner",
              "type": "address"
            }
          ],
          "internalType": "struct Ship",
          "name": "ship",
          "type": "tuple"
        }
      ],
      "name": "render",
      "outputs": [
        {
          "internalType": "string",
          "name": "",
          "type": "string"
        }
      ],
      "stateMutability": "view",
      "type": "function"
    },
    {
      "inputs": [],
      "name": "renderAft0",
      "outputs": [
        {
          "internalType": "contract IReturnSVG",
          "name": "",
          "type": "address"
        }
      ],
      "stateMutability": "view",
      "type": "function"
    },
    {
      "inputs": [],
      "name": "renderAft1",
      "outputs": [
        {
          "internalType": "contract IReturnSVG",
          "name": "",
          "type": "address"
        }
      ],
      "stateMutability": "view",
      "type": "function"
    },
    {
      "inputs": [],
      "name": "renderAft2",
      "outputs": [
        {
          "internalType": "contract IReturnSVG",
          "name": "",
          "type": "address"
        }
      ],
      "stateMutability": "view",
      "type": "function"
    }
  ],
  "bytecode": "0x60e060405234801561001057600080fd5b50604051610cd0380380610cd083398101604081905261002f9161015a565b80516003146100905760405162461bcd60e51b8152602060048201526024808201527f496e76616c69642072656e64657265727320617272617920696e2052656e64656044820152631c90599d60e21b606482015260840160405180910390fd5b806000815181106100a3576100a3610229565b60200260200101516001600160a01b03166080816001600160a01b031681525050806001815181106100d7576100d7610229565b60200260200101516001600160a01b031660a0816001600160a01b0316815250508060028151811061010b5761010b610229565b60209081029190910101516001600160a01b031660c0525061023f565b634e487b7160e01b600052604160045260246000fd5b80516001600160a01b038116811461015557600080fd5b919050565b60006020828403121561016c57600080fd5b81516001600160401b0381111561018257600080fd5b8201601f8101841361019357600080fd5b80516001600160401b038111156101ac576101ac610128565b604051600582901b90603f8201601f191681016001600160401b03811182821017156101da576101da610128565b6040529182526020818401810192908101878411156101f857600080fd5b6020850194505b8385101561021e576102108561013e565b8152602094850194016101ff565b509695505050505050565b634e487b7160e01b600052603260045260246000fd5b60805160a05160c051610a50610280600039600081816056015261022501526000818160e101526101d9015260008181609a015261012f0152610a506000f3fe608060405234801561001057600080fd5b506004361061004c5760003560e01c806325aa499614610051578063504d7432146100955780635394d872146100bc57806357283e27146100dc575b600080fd5b6100787f000000000000000000000000000000000000000000000000000000000000000081565b6040516001600160a01b0390911681526020015b60405180910390f35b6100787f000000000000000000000000000000000000000000000000000000000000000081565b6100cf6100ca3660046105e9565b610103565b60405161008c919061073b565b6100787f000000000000000000000000000000000000000000000000000000000000000081565b6060816060015160a0015160ff166000036101af576040516329ca6c3960e11b81526001600160a01b037f00000000000000000000000000000000000000000000000000000000000000001690635394d872906101649085906004016108e9565b600060405180830381865afa158015610181573d6000803e3d6000fd5b505050506040513d6000823e601f3d908101601f191682016040526101a991908101906109a4565b92915050565b816060015160a0015160ff1660010361020e576040516329ca6c3960e11b81526001600160a01b037f00000000000000000000000000000000000000000000000000000000000000001690635394d872906101649085906004016108e9565b6040516329ca6c3960e11b81526001600160a01b037f00000000000000000000000000000000000000000000000000000000000000001690635394d872906101649085906004016108e9565b919050565b634e487b7160e01b600052604160045260246000fd5b60405160c081016001600160401b03811182821017156102975761029761025f565b60405290565b60405161012081016001600160401b03811182821017156102975761029761025f565b604051601f8201601f191681016001600160401b03811182821017156102e8576102e861025f565b604052919050565b60006001600160401b038211156103095761030961025f565b50601f01601f191660200190565b6008811061032457600080fd5b50565b60006080828403121561033957600080fd5b604051608081016001600160401b038111828210171561035b5761035b61025f565b604052905080823561036c81610317565b8152602083013561037c81610317565b6020820152604083013561038f81610317565b604082015260608301356103a281610317565b6060919091015292915050565b803561ffff8116811461025a57600080fd5b803560ff8116811461025a57600080fd5b60008183036101c08112156103e657600080fd5b6103ee610275565b833581529150610120601f198201121561040757600080fd5b5061041061029d565b61041c602084016103af565b815261042a604084016103c1565b602082015261043b606084016103c1565b604082015261044c608084016103af565b606082015261045d60a084016103c1565b608082015261046e60c084016103c1565b60a082015261047f60e084016103af565b60c082015261049161010084016103c1565b60e08201526104a361012084016103c1565b61010082015260208201526104bb61014083016103af565b60408201526104cd61016083016103c1565b60608201526104df61018083016103c1565b60808201526104f16101a083016103c1565b60a082015292915050565b803563ffffffff8116811461025a57600080fd5b8035801515811461025a57600080fd5b6000610120828403121561053357600080fd5b61053b61029d565b9050610546826104fc565b8152610554602083016103af565b6020820152610565604083016103af565b6040820152610576606083016103af565b606082015261058760808301610510565b608082015261059860a08301610510565b60a08201526105a960c08301610510565b60c08201526105ba60e08301610510565b60e08201526101009182013591810191909152919050565b80356001600160a01b038116811461025a57600080fd5b6000602082840312156105fb57600080fd5b81356001600160401b0381111561061157600080fd5b82016103c0818503121561062457600080fd5b61062c610275565b81356001600160401b0381111561064257600080fd5b8201601f8101861361065357600080fd5b8035610666610661826102f0565b6102c0565b81815287602083850101111561067b57600080fd5b816020840160208301376000602092820183015283528381013590830152506106a78560408401610327565b60408201526106b98560c084016103d2565b60608201526106cc856102808401610520565b60808201526106de6103a083016105d2565b60a0820152949350505050565b60005b838110156107065781810151838201526020016106ee565b50506000910152565b600081518084526107278160208601602086016106eb565b601f01601f19169290920160200192915050565b60208152600061074e602083018461070f565b9392505050565b6008811061032457634e487b7160e01b600052602160045260246000fd5b80518252602081015161ffff815116602084015260ff602082015116604084015260408101516107a8606085018260ff169052565b50606081015161ffff8116608085015250608081015160ff811660a08501525060a081015160ff811660c08501525060c081015161ffff811660e08501525060e081015160ff811661010085015250610100015160ff811661012084015250604081015161ffff811661014084015250606081015160ff811661016084015250608081015160ff81166101808401525060a0015160ff166101a09190910152565b63ffffffff815116825261ffff60208201511660208301526040810151610876604084018261ffff169052565b50606081015161088c606084018261ffff169052565b5060808101516108a0608084018215159052565b5060a08101516108b460a084018215159052565b5060c08101516108c860c084018215159052565b5060e08101516108dc60e084018215159052565b5061010090810151910152565b60208152600082516103c060208401526109076103e084018261070f565b9050602084015160408401526040840151805161092381610755565b6060850152602081015161093681610755565b6080850152604081015161094981610755565b60a08501526060015161095b81610755565b60c0840152606084015161097260e0850182610773565b5060808401516109866102a0850182610849565b5060a08401516001600160a01b0381166103c0850152509392505050565b6000602082840312156109b657600080fd5b81516001600160401b038111156109cc57600080fd5b8201601f810184136109dd57600080fd5b80516109eb610661826102f0565b818152856020838501011115610a0057600080fd5b610a118260208301602086016106eb565b9594505050505056fea26469706673582212202daf46753b2a6d372276f2a2dfac40c1b441c01729ed882317d062c31df4cb1764736f6c634300081c0033",
  "linkReferences": {},
  "deployedLinkReferences": {}
}