{
  "_format": "hh-sol-artifact-1",
  "contractName": "Lobbies",
  "sourceName": "contracts/Lobbies.sol",
  "abi": [
    {
      "inputs": [
        {
          "internalType": "address",
          "name": "_ships",
          "type": "address"
        }
      ],
      "stateMutability": "nonpayable",
      "type": "constructor"
    },
    {
      "inputs": [],
      "name": "CannotLeaveStartedGame",
      "type": "error"
    },
    {
      "inputs": [],
      "name": "CreatorTimeoutNotReached",
      "type": "error"
    },
    {
      "inputs": [],
      "name": "FleetAlreadyCreated",
      "type": "error"
    },
    {
      "inputs": [],
      "name": "InsufficientFee",
      "type": "error"
    },
    {
      "inputs": [],
      "name": "InvalidFleetCost",
      "type": "error"
    },
    {
      "inputs": [],
      "name": "InvalidShipCount",
      "type": "error"
    },
    {
      "inputs": [],
      "name": "InvalidTurnTime",
      "type": "error"
    },
    {
      "inputs": [],
      "name": "LobbyAlreadyStarted",
      "type": "error"
    },
    {
      "inputs": [],
      "name": "LobbyCreationPaused",
      "type": "error"
    },
    {
      "inputs": [],
      "name": "LobbyFull",
      "type": "error"
    },
    {
      "inputs": [],
      "name": "LobbyNotFound",
      "type": "error"
    },
    {
      "inputs": [],
      "name": "LobbyNotOpen",
      "type": "error"
    },
    {
      "inputs": [],
      "name": "NotInLobby",
      "type": "error"
    },
    {
      "inputs": [],
      "name": "NotLobbyCreator",
      "type": "error"
    },
    {
      "inputs": [],
      "name": "NotLobbyJoiner",
      "type": "error"
    },
    {
      "inputs": [
        {
          "internalType": "address",
          "name": "owner",
          "type": "address"
        }
      ],
      "name": "OwnableInvalidOwner",
      "type": "error"
    },
    {
      "inputs": [
        {
          "internalType": "address",
          "name": "account",
          "type": "address"
        }
      ],
      "name": "OwnableUnauthorizedAccount",
      "type": "error"
    },
    {
      "inputs": [],
      "name": "PlayerAlreadyInLobby",
      "type": "error"
    },
    {
      "inputs": [],
      "name": "PlayerInTimeout",
      "type": "error"
    },
    {
      "inputs": [],
      "name": "ReentrancyGuardReentrantCall",
      "type": "error"
    },
    {
      "inputs": [],
      "name": "ShipAlreadyInFleet",
      "type": "error"
    },
    {
      "inputs": [],
      "name": "ShipCostVersionMismatch",
      "type": "error"
    },
    {
      "inputs": [],
      "name": "ShipNotOwned",
      "type": "error"
    },
    {
      "inputs": [],
      "name": "TimeoutNotReached",
      "type": "error"
    },
    {
      "anonymous": false,
      "inputs": [
        {
          "indexed": true,
          "internalType": "address",
          "name": "player",
          "type": "address"
        },
        {
          "indexed": false,
          "internalType": "uint256",
          "name": "amount",
          "type": "uint256"
        }
      ],
      "name": "AdditionalLobbyFeePaid",
      "type": "event"
    },
    {
      "anonymous": false,
      "inputs": [
        {
          "indexed": true,
          "internalType": "uint256",
          "name": "lobbyId",
          "type": "uint256"
        }
      ],
      "name": "GameStarted",
      "type": "event"
    },
    {
      "anonymous": false,
      "inputs": [
        {
          "indexed": true,
          "internalType": "uint256",
          "name": "lobbyId",
          "type": "uint256"
        },
        {
          "indexed": true,
          "internalType": "address",
          "name": "player",
          "type": "address"
        }
      ],
      "name": "LobbyAbandoned",
      "type": "event"
    },
    {
      "anonymous": false,
      "inputs": [
        {
          "indexed": true,
          "internalType": "uint256",
          "name": "lobbyId",
          "type": "uint256"
        },
        {
          "indexed": true,
          "internalType": "address",
          "name": "creator",
          "type": "address"
        },
        {
          "indexed": false,
          "internalType": "uint256",
          "name": "costLimit",
          "type": "uint256"
        },
        {
          "indexed": false,
          "internalType": "uint256",
          "name": "turnTime",
          "type": "uint256"
        },
        {
          "indexed": false,
          "internalType": "bool",
          "name": "creatorGoesFirst",
          "type": "bool"
        },
        {
          "indexed": false,
          "internalType": "uint256",
          "name": "selectedMapId",
          "type": "uint256"
        },
        {
          "indexed": false,
          "internalType": "uint256",
          "name": "maxScore",
          "type": "uint256"
        }
      ],
      "name": "LobbyCreated",
      "type": "event"
    },
    {
      "anonymous": false,
      "inputs": [
        {
          "indexed": true,
          "internalType": "uint256",
          "name": "lobbyId",
          "type": "uint256"
        },
        {
          "indexed": true,
          "internalType": "address",
          "name": "newCreator",
          "type": "address"
        }
      ],
      "name": "LobbyReset",
      "type": "event"
    },
    {
      "anonymous": false,
      "inputs": [
        {
          "indexed": true,
          "internalType": "uint256",
          "name": "lobbyId",
          "type": "uint256"
        }
      ],
      "name": "LobbyTerminated",
      "type": "event"
    },
    {
      "anonymous": false,
      "inputs": [
        {
          "indexed": true,
          "internalType": "address",
          "name": "previousOwner",
          "type": "address"
        },
        {
          "indexed": true,
          "internalType": "address",
          "name": "newOwner",
          "type": "address"
        }
      ],
      "name": "OwnershipTransferred",
      "type": "event"
    },
    {
      "anonymous": false,
      "inputs": [
        {
          "indexed": true,
          "internalType": "uint256",
          "name": "lobbyId",
          "type": "uint256"
        },
        {
          "indexed": true,
          "internalType": "address",
          "name": "joiner",
          "type": "address"
        }
      ],
      "name": "PlayerJoinedLobby",
      "type": "event"
    },
    {
      "inputs": [],
      "name": "KICK_PENALTY_PER_HOUR",
      "outputs": [
        {
          "internalType": "uint256",
          "name": "",
          "type": "uint256"
        }
      ],
      "stateMutability": "view",
      "type": "function"
    },
    {
      "inputs": [],
      "name": "MAX_TURN_TIME",
      "outputs": [
        {
          "internalType": "uint256",
          "name": "",
          "type": "uint256"
        }
      ],
      "stateMutability": "view",
      "type": "function"
    },
    {
      "inputs": [],
      "name": "MIN_TIMEOUT",
      "outputs": [
        {
          "internalType": "uint256",
          "name": "",
          "type": "uint256"
        }
      ],
      "stateMutability": "view",
      "type": "function"
    },
    {
      "inputs": [],
      "name": "MIN_TURN_TIME",
      "outputs": [
        {
          "internalType": "uint256",
          "name": "",
          "type": "uint256"
        }
      ],
      "stateMutability": "view",
      "type": "function"
    },
    {
      "inputs": [],
      "name": "additionalLobbyFee",
      "outputs": [
        {
          "internalType": "uint256",
          "name": "",
          "type": "uint256"
        }
      ],
      "stateMutability": "view",
      "type": "function"
    },
    {
      "inputs": [
        {
          "internalType": "uint256",
          "name": "_lobbyId",
          "type": "uint256"
        },
        {
          "internalType": "uint256[]",
          "name": "_shipIds",
          "type": "uint256[]"
        }
      ],
      "name": "createFleet",
      "outputs": [],
      "stateMutability": "nonpayable",
      "type": "function"
    },
    {
      "inputs": [
        {
          "internalType": "uint256",
          "name": "_costLimit",
          "type": "uint256"
        },
        {
          "internalType": "uint256",
          "name": "_turnTime",
          "type": "uint256"
        },
        {
          "internalType": "bool",
          "name": "_creatorGoesFirst",
          "type": "bool"
        },
        {
          "internalType": "uint256",
          "name": "_selectedMapId",
          "type": "uint256"
        },
        {
          "internalType": "uint256",
          "name": "_maxScore",
          "type": "uint256"
        }
      ],
      "name": "createLobby",
      "outputs": [],
      "stateMutability": "payable",
      "type": "function"
    },
    {
      "inputs": [],
      "name": "fleets",
      "outputs": [
        {
          "internalType": "contract IFleets",
          "name": "",
          "type": "address"
        }
      ],
      "stateMutability": "view",
      "type": "function"
    },
    {
      "inputs": [],
      "name": "freeGamesPerAddress",
      "outputs": [
        {
          "internalType": "uint256",
          "name": "",
          "type": "uint256"
        }
      ],
      "stateMutability": "view",
      "type": "function"
    },
    {
      "inputs": [],
      "name": "game",
      "outputs": [
        {
          "internalType": "contract Game",
          "name": "",
          "type": "address"
        }
      ],
      "stateMutability": "view",
      "type": "function"
    },
    {
      "inputs": [
        {
          "internalType": "uint256",
          "name": "_lobbyId",
          "type": "uint256"
        }
      ],
      "name": "getLobby",
      "outputs": [
        {
          "components": [
            {
              "components": [
                {
                  "internalType": "uint256",
                  "name": "id",
                  "type": "uint256"
                },
                {
                  "internalType": "address",
                  "name": "creator",
                  "type": "address"
                },
                {
                  "internalType": "uint256",
                  "name": "costLimit",
                  "type": "uint256"
                },
                {
                  "internalType": "uint256",
                  "name": "createdAt",
                  "type": "uint256"
                }
              ],
              "internalType": "struct LobbyBasic",
              "name": "basic",
              "type": "tuple"
            },
            {
              "components": [
                {
                  "internalType": "address",
                  "name": "joiner",
                  "type": "address"
                },
                {
                  "internalType": "uint256",
                  "name": "creatorFleetId",
                  "type": "uint256"
                },
                {
                  "internalType": "uint256",
                  "name": "joinerFleetId",
                  "type": "uint256"
                },
                {
                  "internalType": "uint256",
                  "name": "joinedAt",
                  "type": "uint256"
                },
                {
                  "internalType": "uint256",
                  "name": "joinerFleetSetAt",
                  "type": "uint256"
                }
              ],
              "internalType": "struct LobbyPlayers",
              "name": "players",
              "type": "tuple"
            },
            {
              "components": [
                {
                  "internalType": "bool",
                  "name": "creatorGoesFirst",
                  "type": "bool"
                },
                {
                  "internalType": "uint256",
                  "name": "turnTime",
                  "type": "uint256"
                },
                {
                  "internalType": "uint256",
                  "name": "selectedMapId",
                  "type": "uint256"
                },
                {
                  "internalType": "uint256",
                  "name": "maxScore",
                  "type": "uint256"
                }
              ],
              "internalType": "struct LobbyGameConfig",
              "name": "gameConfig",
              "type": "tuple"
            },
            {
              "components": [
                {
                  "internalType": "enum LobbyStatus",
                  "name": "status",
                  "type": "uint8"
                },
                {
                  "internalType": "uint256",
                  "name": "gameStartedAt",
                  "type": "uint256"
                }
              ],
              "internalType": "struct LobbyState",
              "name": "state",
              "type": "tuple"
            }
          ],
          "internalType": "struct Lobby",
          "name": "",
          "type": "tuple"
        }
      ],
      "stateMutability": "view",
      "type": "function"
    },
    {
      "inputs": [
        {
          "internalType": "address",
          "name": "_player",
          "type": "address"
        }
      ],
      "name": "getPlayerState",
      "outputs": [
        {
          "components": [
            {
              "internalType": "uint256",
              "name": "activeLobbyId",
              "type": "uint256"
            },
            {
              "internalType": "uint256",
              "name": "activeLobbiesCount",
              "type": "uint256"
            },
            {
              "internalType": "bool",
              "name": "hasActiveLobby",
              "type": "bool"
            },
            {
              "internalType": "uint256",
              "name": "kickCount",
              "type": "uint256"
            },
            {
              "internalType": "uint256",
              "name": "lastKickTime",
              "type": "uint256"
            }
          ],
          "internalType": "struct PlayerLobbyState",
          "name": "",
          "type": "tuple"
        }
      ],
      "stateMutability": "view",
      "type": "function"
    },
    {
      "inputs": [
        {
          "internalType": "address",
          "name": "_player",
          "type": "address"
        }
      ],
      "name": "getPlayerTimeoutEnd",
      "outputs": [
        {
          "internalType": "uint256",
          "name": "",
          "type": "uint256"
        }
      ],
      "stateMutability": "view",
      "type": "function"
    },
    {
      "inputs": [
        {
          "internalType": "uint256",
          "name": "_id",
          "type": "uint256"
        }
      ],
      "name": "isLobbyOpenForJoining",
      "outputs": [
        {
          "internalType": "bool",
          "name": "",
          "type": "bool"
        }
      ],
      "stateMutability": "view",
      "type": "function"
    },
    {
      "inputs": [
        {
          "internalType": "uint256",
          "name": "_lobbyId",
          "type": "uint256"
        }
      ],
      "name": "joinLobby",
      "outputs": [],
      "stateMutability": "nonpayable",
      "type": "function"
    },
    {
      "inputs": [
        {
          "internalType": "uint256",
          "name": "_lobbyId",
          "type": "uint256"
        }
      ],
      "name": "leaveLobby",
      "outputs": [],
      "stateMutability": "nonpayable",
      "type": "function"
    },
    {
      "inputs": [
        {
          "internalType": "uint256",
          "name": "",
          "type": "uint256"
        }
      ],
      "name": "lobbies",
      "outputs": [
        {
          "components": [
            {
              "internalType": "uint256",
              "name": "id",
              "type": "uint256"
            },
            {
              "internalType": "address",
              "name": "creator",
              "type": "address"
            },
            {
              "internalType": "uint256",
              "name": "costLimit",
              "type": "uint256"
            },
            {
              "internalType": "uint256",
              "name": "createdAt",
              "type": "uint256"
            }
          ],
          "internalType": "struct LobbyBasic",
          "name": "basic",
          "type": "tuple"
        },
        {
          "components": [
            {
              "internalType": "address",
              "name": "joiner",
              "type": "address"
            },
            {
              "internalType": "uint256",
              "name": "creatorFleetId",
              "type": "uint256"
            },
            {
              "internalType": "uint256",
              "name": "joinerFleetId",
              "type": "uint256"
            },
            {
              "internalType": "uint256",
              "name": "joinedAt",
              "type": "uint256"
            },
            {
              "internalType": "uint256",
              "name": "joinerFleetSetAt",
              "type": "uint256"
            }
          ],
          "internalType": "struct LobbyPlayers",
          "name": "players",
          "type": "tuple"
        },
        {
          "components": [
            {
              "internalType": "bool",
              "name": "creatorGoesFirst",
              "type": "bool"
            },
            {
              "internalType": "uint256",
              "name": "turnTime",
              "type": "uint256"
            },
            {
              "internalType": "uint256",
              "name": "selectedMapId",
              "type": "uint256"
            },
            {
              "internalType": "uint256",
              "name": "maxScore",
              "type": "uint256"
            }
          ],
          "internalType": "struct LobbyGameConfig",
          "name": "gameConfig",
          "type": "tuple"
        },
        {
          "components": [
            {
              "internalType": "enum LobbyStatus",
              "name": "status",
              "type": "uint8"
            },
            {
              "internalType": "uint256",
              "name": "gameStartedAt",
              "type": "uint256"
            }
          ],
          "internalType": "struct LobbyState",
          "name": "state",
          "type": "tuple"
        }
      ],
      "stateMutability": "view",
      "type": "function"
    },
    {
      "inputs": [],
      "name": "lobbyCount",
      "outputs": [
        {
          "internalType": "uint256",
          "name": "",
          "type": "uint256"
        }
      ],
      "stateMutability": "view",
      "type": "function"
    },
    {
      "inputs": [],
      "name": "owner",
      "outputs": [
        {
          "internalType": "address",
          "name": "",
          "type": "address"
        }
      ],
      "stateMutability": "view",
      "type": "function"
    },
    {
      "inputs": [],
      "name": "paused",
      "outputs": [
        {
          "internalType": "bool",
          "name": "",
          "type": "bool"
        }
      ],
      "stateMutability": "view",
      "type": "function"
    },
    {
      "inputs": [
        {
          "internalType": "address",
          "name": "",
          "type": "address"
        }
      ],
      "name": "playerStates",
      "outputs": [
        {
          "internalType": "uint256",
          "name": "activeLobbyId",
          "type": "uint256"
        },
        {
          "internalType": "uint256",
          "name": "activeLobbiesCount",
          "type": "uint256"
        },
        {
          "internalType": "bool",
          "name": "hasActiveLobby",
          "type": "bool"
        },
        {
          "internalType": "uint256",
          "name": "kickCount",
          "type": "uint256"
        },
        {
          "internalType": "uint256",
          "name": "lastKickTime",
          "type": "uint256"
        }
      ],
      "stateMutability": "view",
      "type": "function"
    },
    {
      "inputs": [
        {
          "internalType": "uint256",
          "name": "_lobbyId",
          "type": "uint256"
        }
      ],
      "name": "quitWithPenalty",
      "outputs": [],
      "stateMutability": "nonpayable",
      "type": "function"
    },
    {
      "inputs": [],
      "name": "renounceOwnership",
      "outputs": [],
      "stateMutability": "nonpayable",
      "type": "function"
    },
    {
      "inputs": [
        {
          "internalType": "uint256",
          "name": "_fee",
          "type": "uint256"
        }
      ],
      "name": "setAdditionalLobbyFee",
      "outputs": [],
      "stateMutability": "nonpayable",
      "type": "function"
    },
    {
      "inputs": [
        {
          "internalType": "address",
          "name": "_fleetsAddress",
          "type": "address"
        }
      ],
      "name": "setFleetsAddress",
      "outputs": [],
      "stateMutability": "nonpayable",
      "type": "function"
    },
    {
      "inputs": [
        {
          "internalType": "uint256",
          "name": "_count",
          "type": "uint256"
        }
      ],
      "name": "setFreeGamesPerAddress",
      "outputs": [],
      "stateMutability": "nonpayable",
      "type": "function"
    },
    {
      "inputs": [
        {
          "internalType": "address",
          "name": "_gameAddress",
          "type": "address"
        }
      ],
      "name": "setGameAddress",
      "outputs": [],
      "stateMutability": "nonpayable",
      "type": "function"
    },
    {
      "inputs": [
        {
          "internalType": "bool",
          "name": "_paused",
          "type": "bool"
        }
      ],
      "name": "setPaused",
      "outputs": [],
      "stateMutability": "nonpayable",
      "type": "function"
    },
    {
      "inputs": [],
      "name": "ships",
      "outputs": [
        {
          "internalType": "contract Ships",
          "name": "",
          "type": "address"
        }
      ],
      "stateMutability": "view",
      "type": "function"
    },
    {
      "inputs": [
        {
          "internalType": "uint256",
          "name": "_lobbyId",
          "type": "uint256"
        }
      ],
      "name": "timeoutJoiner",
      "outputs": [],
      "stateMutability": "nonpayable",
      "type": "function"
    },
    {
      "inputs": [
        {
          "internalType": "address",
          "name": "newOwner",
          "type": "address"
        }
      ],
      "name": "transferOwnership",
      "outputs": [],
      "stateMutability": "nonpayable",
      "type": "function"
    },
    {
      "inputs": [],
      "name": "withdraw",
      "outputs": [],
      "stateMutability": "nonpayable",
      "type": "function"
    }
  ],
  "bytecode": "0x60806040526001600655670de0b6b3a764000060075534801561002157600080fd5b506040516120c03803806120c0833981016040819052610040916100e9565b338061006657604051631e4fbdf760e01b81526000600482015260240160405180910390fd5b61006f81610099565b5060018055600280546001600160a01b0319166001600160a01b0392909216919091179055610119565b600080546001600160a01b038381166001600160a01b0319831681178455604051919092169283917f8be0079c531659141344cd1fd0a4f28419497f9722a3daafe3b4186f6b6457e09190a35050565b6000602082840312156100fb57600080fd5b81516001600160a01b038116811461011257600080fd5b9392505050565b611f98806101286000396000f3fe6080604052600436106101e35760003560e01c80638da5cb5b11610102578063c623130b11610095578063eff3d30611610064578063eff3d306146105ef578063f25205f314610605578063f2fde38b14610625578063ff4655231461064557600080fd5b8063c623130b14610525578063ca1df1701461053c578063d15e55b714610552578063e9173b3a146105cf57600080fd5b8063b83e5c7e116100d1578063b83e5c7e14610461578063bbf8218a14610481578063c01ca43f146104a1578063c3fe3e281461050557600080fd5b80638da5cb5b146103ed5780639263af221461040b578063948428f01461042b578063a875cae51461044b57600080fd5b8063543ad1df1161017a5780636e8fb4c6116101495780636e8fb4c614610368578063711953ef14610398578063715018a6146103b857806374262da2146103cd57600080fd5b8063543ad1df146102f55780635c975abb1461030b578063618e6fa714610335578063669bcb0e1461034857600080fd5b806330fff6b0116101b657806330fff6b0146102685780633ccfd60b1461028857806348915d911461029d5780634e12b6f9146102d557600080fd5b806316c38b3c146101e85780631fba1bdf1461020a5780632aa9c6791461023d5780632eaeb16114610252575b600080fd5b3480156101f457600080fd5b50610208610203366004611ba9565b610672565b005b34801561021657600080fd5b5061022a610225366004611bc4565b61068d565b6040519081526020015b60405180910390f35b34801561024957600080fd5b5061022a603c81565b34801561025e57600080fd5b5061022a610e1081565b34801561027457600080fd5b50610208610283366004611bed565b6106e1565b34801561029457600080fd5b50610208610932565b3480156102a957600080fd5b506004546102bd906001600160a01b031681565b6040516001600160a01b039091168152602001610234565b3480156102e157600080fd5b506102086102f0366004611bed565b6109d6565b34801561030157600080fd5b5061022a61012c81565b34801561031757600080fd5b506008546103259060ff1681565b6040519015158152602001610234565b610208610343366004611c06565b6109e3565b34801561035457600080fd5b50610208610363366004611bed565b610bdd565b34801561037457600080fd5b50610388610383366004611bed565b610bea565b6040516102349493929190611c90565b3480156103a457600080fd5b506102086103b3366004611bc4565b610cf2565b3480156103c457600080fd5b50610208610d1c565b3480156103d957600080fd5b506102086103e8366004611bed565b610d30565b3480156103f957600080fd5b506000546001600160a01b03166102bd565b34801561041757600080fd5b50610208610426366004611d3d565b610f0f565b34801561043757600080fd5b50610208610446366004611bed565b61138c565b34801561045757600080fd5b5061022a60075481565b34801561046d57600080fd5b5061020861047c366004611bc4565b6115e9565b34801561048d57600080fd5b506002546102bd906001600160a01b031681565b3480156104ad57600080fd5b506104c16104bc366004611bc4565b611613565b6040516102349190600060a0820190508251825260208301516020830152604083015115156040830152606083015160608301526080830151608083015292915050565b34801561051157600080fd5b506003546102bd906001600160a01b031681565b34801561053157600080fd5b5061022a6201518081565b34801561054857600080fd5b5061022a60065481565b34801561055e57600080fd5b506105a061056d366004611bc4565b600a60205260009081526040902080546001820154600283015460038401546004909401549293919260ff909116919085565b604051610234959493929190948552602085019390935290151560408401526060830152608082015260a00190565b3480156105db57600080fd5b506102086105ea366004611bed565b6116a4565b3480156105fb57600080fd5b5061022a60055481565b34801561061157600080fd5b50610325610620366004611bed565b611882565b34801561063157600080fd5b50610208610640366004611bc4565b6118c6565b34801561065157600080fd5b50610665610660366004611bed565b611901565b6040516102349190611dbe565b61067a611a2a565b6008805460ff1916911515919091179055565b6001600160a01b0381166000908152600a60205260408120600381015482036106b95750600092915050565b610e1081600301546106cb9190611e93565b81600401546106da9190611eb0565b9392505050565b6106e9611a57565b60008181526009602052604081208054909103610719576040516374315adb60e01b815260040160405180910390fd5b60048101546001600160a01b0316331461074657604051639d2663a360e01b815260040160405180910390fd5b6001600d82015460ff16600281111561076157610761611c4d565b1461077f576040516374f165fb60e11b815260040160405180910390fd5b60068101546000036107a4576040516353507d5160e11b815260040160405180910390fd5b6005810154156107c7576040516304d3525b60e51b815260040160405180910390fd5b600a81015460088201546107db9190611eb0565b4210156107fb576040516322fce56360e11b815260040160405180910390fd5b600480546006830154604051630f2bf13b60e41b8152928301526001600160a01b03169063f2bf13b090602401600060405180830381600087803b15801561084257600080fd5b505af1158015610856573d6000803e3d6000fd5b5050505060018101546001600160a01b03166000908152600a60205260408120600381018054919261088783611ec3565b9091555050426004828101919091556002808301805460ff19908116909155600080855592850180546001600160a01b03168452600a602052604080852093840180548416905584845581546001600160a01b031916909155600d86018054909216909155600585018390556006850183905551909185917fcb7662b1678001afa152fed432f46cdaa4318053fa7acba681da4b416a59123c9190a250505061092f60018055565b50565b61093a611a2a565b600080546040516001600160a01b039091169047908381818185875af1925050503d8060008114610987576040519150601f19603f3d011682016040523d82523d6000602084013e61098c565b606091505b505090508061092f5760405162461bcd60e51b815260206004820152601160248201527015da5d1a191c985dd85b0819985a5b1959607a1b60448201526064015b60405180910390fd5b6109de611a2a565b600755565b6109eb611a57565b60085460ff1615610a0f57604051635083854f60e11b815260040160405180910390fd5b61012c841080610a2157506201518084115b15610a3f5760405163079900bb60e31b815260040160405180910390fd5b336000908152600a60205260409020600381015415610aa0576000610e108260030154610a6c9190611e93565b8260040154610a7b9190611eb0565b905080421015610a9e5760405163c56b424b60e01b815260040160405180910390fd5b505b600654816001015410610acf57600754341015610acf5760405162976f7560e21b815260040160405180910390fd5b60058054906000610adf83611ec3565b90915550506005805460008181526009602081905260408220928355600180840180546001600160a01b0319163317905560028085018c9055600d8501805460ff1990811690915542600387015592850180548b1515908516179055600a85018b9055600b8501899055600c85018890558601805490921681179091559254845591830180549192610b7083611ec3565b9091555050600554604080518981526020810189905287151581830152606081018790526080810186905290513392917fc0594b072d40bf82c20f44fa41a55144b097ebd9b07f9a37ba466d40e1f43aab919081900360a00190a35050610bd660018055565b5050505050565b610be5611a2a565b600655565b6009602081815260009283526040928390208351608080820186528254825260018301546001600160a01b0390811683860152600280850154848901526003850154606080860191909152885160a081018a52600487015490931683526005860154838801526006860154838a0152600786015483820152600886015483850152885193840189529685015460ff90811615158452600a86015496840196909652600b85015483890152600c850154968301969096528651808801909752600d840180549397919692959193909284929190911690811115610cce57610cce611c4d565b6002811115610cdf57610cdf611c4d565b8152602001600182015481525050905084565b610cfa611a2a565b600380546001600160a01b0319166001600160a01b0392909216919091179055565b610d24611a2a565b610d2e6000611a81565b565b610d38611a57565b60008181526009602052604081208054909103610d68576040516374315adb60e01b815260040160405180910390fd5b60018101546001600160a01b03163314610d95576040516386e3479160e01b815260040160405180910390fd5b6001600d82015460ff166002811115610db057610db0611c4d565b14610dce576040516374f165fb60e11b815260040160405180910390fd5b60048101546001600160a01b0316610df9576040516374315adb60e01b815260040160405180910390fd5b600681015415610e1c576040516304d3525b60e51b815260040160405180910390fd5b600a8101546007820154610e309190611eb0565b421015610e50576040516326c015ab60e21b815260040160405180910390fd5b60048101546001600160a01b03166000908152600a602052604081206003810180549192610e7d83611ec3565b90915550504260048281019190915560028201805460ff19908116909155600080845591840180546001600160a01b0319169055600d840180549091169055600583018190556006830181905560018301546040516001600160a01b039091169185917fee8b079adb6e971a80670fe597ec6fd06cb3699ea8771fe1b5554c79a7c0b8fd9190a3505061092f60018055565b610f17611a57565b60008381526009602052604081208054909103610f47576040516374315adb60e01b815260040160405180910390fd5b6001600d82015460ff166002811115610f6257610f62611c4d565b14610f80576040516374f165fb60e11b815260040160405180910390fd5b60018101546001600160a01b03163314801590610faa575060048101546001600160a01b03163314155b15610fc8576040516353507d5160e11b815260040160405180910390fd5b60018101546001600160a01b031633148015610fe75750600581015415155b15611005576040516304d3525b60e51b815260040160405180910390fd5b60048101546001600160a01b0316331480156110245750600681015415155b15611042576040516304d3525b60e51b815260040160405180910390fd5b600480546002830154604051631cd86ad960e11b81526000936001600160a01b03909316926339b0d5b29261107f928a9233928b928b9201611edc565b6020604051808303816000875af115801561109e573d6000803e3d6000fd5b505050506040513d601f19601f820116820180604052508101906110c29190611f32565b60018301549091506001600160a01b03163303611101576005820181905560068201546000036110fc5760098201805460ff191660011790555b611128565b6006820181905560058201546000036111215760098201805460ff191690555b4260088301555b60058201541580159061113e5750600682015415155b1561137c57600d8201805460ff1916600217905542600e83015560405185907f50ad08f58a27f2851d7e3a1b3a6a46b290f2ce677e99642d30ff639721e7779090600090a26001808301546001600160a01b039081166000908152600a602052604080822060048701549093168252902091810154909190156111d3576001820180549060006111cd83611f4b565b91905055505b6001810154156111f5576001810180549060006111ef83611f4b565b91905055505b60008260020160006101000a81548160ff0219169083151502179055506000826000018190555060008160020160006101000a81548160ff02191690831515021790555060008160000181905550600360009054906101000a90046001600160a01b03166001600160a01b031663e8d64aee888660000160010160009054906101000a90046001600160a01b03168760040160000160009054906101000a90046001600160a01b0316886004016001015489600401600201548a60090160000160009054906101000a900460ff168b600901600101548c600901600201548d600901600301546040518a63ffffffff1660e01b8152600401611347999897969594939291909889526001600160a01b0397881660208a015295909616604088015260608701939093526080860191909152151560a085015260c084015260e08301919091526101008201526101200190565b600060405180830381600087803b15801561136157600080fd5b505af1158015611375573d6000803e3d6000fd5b5050505050505b505061138760018055565b505050565b611394611a57565b600081815260096020526040812080549091036113c4576040516374315adb60e01b815260040160405180910390fd5b60018101546001600160a01b031633148015906113ee575060048101546001600160a01b03163314155b1561140c576040516353507d5160e11b815260040160405180910390fd5b6002600d82015460ff16600281111561142757611427611c4d565b036114455760405163604163d360e11b815260040160405180910390fd5b336000908152600a6020526040902080548314611475576040516353507d5160e11b815260040160405180910390fd5b60018201546001600160a01b031633036115605760048201546001600160a01b03161561152e57600482018054600180850180546001600160a01b0384166001600160a01b03199182168117909255909216909255600d8401805460ff199081169091556000828152600a60205260408082206002810180549094169095179092558684559051919291839187917fee8b079adb6e971a80670fe597ec6fd06cb3699ea8771fe1b5554c79a7c0b8fd9190a350506115ac565b604051339084907f9b5e662ea3d6238d43ff6f148df4451e32553992239658d2fbca40e78f0cb5d790600090a36115ac565b6004820180546001600160a01b0319169055600d8201805460ff19169055604051339084907f9b5e662ea3d6238d43ff6f148df4451e32553992239658d2fbca40e78f0cb5d790600090a35b60028101805460ff19169055600081556001810154156115de576001810180549060006115d883611f4b565b91905055505b505061092f60018055565b6115f1611a2a565b600480546001600160a01b0319166001600160a01b0392909216919091179055565b6116476040518060a00160405280600081526020016000815260200160001515815260200160008152602001600081525090565b506001600160a01b03166000908152600a6020908152604091829020825160a08101845281548152600182015492810192909252600281015460ff1615159282019290925260038201546060820152600490910154608082015290565b6116ac611a57565b600081815260096020526040812080549091036116dc576040516374315adb60e01b815260040160405180910390fd5b6000600d82015460ff1660028111156116f7576116f7611c4d565b14611715576040516374f165fb60e11b815260040160405180910390fd5b6001810154336001600160a01b03909116036117445760405163e24fd63160e01b815260040160405180910390fd5b60048101546001600160a01b0316156117705760405163be02dee760e01b815260040160405180910390fd5b336000908152600a60205260409020600281015460ff16156117a55760405163e24fd63160e01b815260040160405180910390fd5b6003810154156117f7576000610e1082600301546117c39190611e93565b82600401546117d29190611eb0565b9050804210156117f55760405163c56b424b60e01b815260040160405180910390fd5b505b6004820180546001600160a01b03191633179055600d8201805460ff199081166001908117909255426007850155600283018054909116821790558382558101805490600061184583611ec3565b9091555050604051339084907f9b8e9742090654a785c549aefcfcd7cc7f18215ee64c50e9d93f4b153a0e56e490600090a3505061092f60018055565b600081815260096020526040812081600d82015460ff1660028111156118aa576118aa611c4d565b1480156106da5750600401546001600160a01b03161592915050565b6118ce611a2a565b6001600160a01b0381166118f857604051631e4fbdf760e01b8152600060048201526024016109cd565b61092f81611a81565b611909611ad1565b6000828152600960208181526040928390208351610100810185528154608080830191825260018401546001600160a01b0390811660a08086019190915260028087015460c0870152600387015460e08701529385528851908101895260048601549091168152600585015481870152600685015481890152600785015460608083019190915260088601548284015284870191909152875191820188529584015460ff90811615158252600a85015495820195909552600b84015481880152600c84015481870152828701528551808701909652600d830180549296939587019490928492911690811115611a0157611a01611c4d565b6002811115611a1257611a12611c4d565b81526001919091015460209091015290525092915050565b6000546001600160a01b03163314610d2e5760405163118cdaa760e01b81523360048201526024016109cd565b600260015403611a7a57604051633ee5aeb560e01b815260040160405180910390fd5b6002600155565b600080546001600160a01b038381166001600160a01b0319831681178455604051919092169283917f8be0079c531659141344cd1fd0a4f28419497f9722a3daafe3b4186f6b6457e09190a35050565b60408051610100810190915260006080820181815260a0830182905260c0830182905260e083019190915281908152602001611b3e6040518060a0016040528060006001600160a01b03168152602001600081526020016000815260200160008152602001600081525090565b8152602001611b7060405180608001604052806000151581526020016000815260200160008152602001600081525090565b8152602001611b8f604080518082019091526000808252602082015290565b905290565b80358015158114611ba457600080fd5b919050565b600060208284031215611bbb57600080fd5b6106da82611b94565b600060208284031215611bd657600080fd5b81356001600160a01b03811681146106da57600080fd5b600060208284031215611bff57600080fd5b5035919050565b600080600080600060a08688031215611c1e57600080fd5b8535945060208601359350611c3560408701611b94565b94979396509394606081013594506080013592915050565b634e487b7160e01b600052602160045260246000fd5b805160038110611c8357634e487b7160e01b600052602160045260246000fd5b8252602090810151910152565b845181526020808601516001600160a01b03169082015260408086015190820152606080860151908201526101e0810184516001600160a01b0316608083810191909152602086015160a0840152604086015160c0840152606086015160e084015285015161010083015283511515610120830152602084015161014083015260408401516101608301526060840151610180830152611d346101a0830184611c63565b95945050505050565b600080600060408486031215611d5257600080fd5b83359250602084013567ffffffffffffffff811115611d7057600080fd5b8401601f81018613611d8157600080fd5b803567ffffffffffffffff811115611d9857600080fd5b8660208260051b8401011115611dad57600080fd5b939660209190910195509293505050565b8151805182526020808201516001600160a01b03169083015260408082015190830152606090810151908201526101e081016020830151611e33608084018280516001600160a01b03168252602080820151908301526040808201519083015260608082015190830152608090810151910152565b5060408381015180511515610120850152602081015161014085015290810151610160840152606090810151610180840152830151611e766101a0840182611c63565b5092915050565b634e487b7160e01b600052601160045260246000fd5b8082028115828204841417611eaa57611eaa611e7d565b92915050565b80820180821115611eaa57611eaa611e7d565b600060018201611ed557611ed5611e7d565b5060010190565b8581526001600160a01b0385166020820152608060408201819052810183905260006001600160fb1b03841115611f1257600080fd5b8360051b808660a08501376060830193909352500160a001949350505050565b600060208284031215611f4457600080fd5b5051919050565b600081611f5a57611f5a611e7d565b50600019019056fea26469706673582212200d8cdf250784aaf77546a156c9ed6fdb709a8f3340c6fc8cecae17c16ae260f964736f6c634300081c0033",
  "linkReferences": {},
  "deployedLinkReferences": {}
}