{
  "_format": "hh-sol-artifact-1",
  "contractName": "DroneYard",
  "sourceName": "contracts/DroneYard.sol",
  "abi": [
    {
      "inputs": [
        {
          "internalType": "address",
          "name": "_ships",
          "type": "address"
        },
        {
          "internalType": "address",
          "name": "_universalCredits",
          "type": "address"
        },
        {
          "internalType": "address",
          "name": "_shipPurchaser",
          "type": "address"
        },
        {
          "internalType": "address",
          "name": "_shipNames",
          "type": "address"
        }
      ],
      "stateMutability": "nonpayable",
      "type": "constructor"
    },
    {
      "inputs": [],
      "name": "ArmorAndShieldsBothSet",
      "type": "error"
    },
    {
      "inputs": [
        {
          "internalType": "uint256",
          "name": "_required",
          "type": "uint256"
        },
        {
          "internalType": "uint256",
          "name": "_available",
          "type": "uint256"
        }
      ],
      "name": "InsufficientFunds",
      "type": "error"
    },
    {
      "inputs": [],
      "name": "InvalidModification",
      "type": "error"
    },
    {
      "inputs": [
        {
          "internalType": "uint8",
          "name": "_value",
          "type": "uint8"
        }
      ],
      "name": "InvalidTraitValue",
      "type": "error"
    },
    {
      "inputs": [
        {
          "internalType": "uint256",
          "name": "_shipId",
          "type": "uint256"
        }
      ],
      "name": "NotShipOwner",
      "type": "error"
    },
    {
      "inputs": [],
      "name": "ReentrancyGuardReentrantCall",
      "type": "error"
    },
    {
      "inputs": [
        {
          "internalType": "uint256",
          "name": "_shipId",
          "type": "uint256"
        }
      ],
      "name": "ShipInFleet",
      "type": "error"
    },
    {
      "inputs": [
        {
          "internalType": "uint256",
          "name": "_shipId",
          "type": "uint256"
        }
      ],
      "name": "ShipNotConstructed",
      "type": "error"
    },
    {
      "inputs": [
        {
          "internalType": "uint256",
          "name": "_shipId",
          "type": "uint256"
        },
        {
          "components": [
            {
              "internalType": "string",
              "name": "name",
              "type": "string"
            },
            {
              "internalType": "uint256",
              "name": "id",
              "type": "uint256"
            },
            {
              "components": [
                {
                  "internalType": "enum MainWeapon",
                  "name": "mainWeapon",
                  "type": "uint8"
                },
                {
                  "internalType": "enum Armor",
                  "name": "armor",
                  "type": "uint8"
                },
                {
                  "internalType": "enum Shields",
                  "name": "shields",
                  "type": "uint8"
                },
                {
                  "internalType": "enum Special",
                  "name": "special",
                  "type": "uint8"
                }
              ],
              "internalType": "struct Equipment",
              "name": "equipment",
              "type": "tuple"
            },
            {
              "components": [
                {
                  "internalType": "uint256",
                  "name": "serialNumber",
                  "type": "uint256"
                },
                {
                  "components": [
                    {
                      "internalType": "uint16",
                      "name": "h1",
                      "type": "uint16"
                    },
                    {
                      "internalType": "uint8",
                      "name": "s1",
                      "type": "uint8"
                    },
                    {
                      "internalType": "uint8",
                      "name": "l1",
                      "type": "uint8"
                    },
                    {
                      "internalType": "uint16",
                      "name": "h2",
                      "type": "uint16"
                    },
                    {
                      "internalType": "uint8",
                      "name": "s2",
                      "type": "uint8"
                    },
                    {
                      "internalType": "uint8",
                      "name": "l2",
                      "type": "uint8"
                    },
                    {
                      "internalType": "uint16",
                      "name": "h3",
                      "type": "uint16"
                    },
                    {
                      "internalType": "uint8",
                      "name": "s3",
                      "type": "uint8"
                    },
                    {
                      "internalType": "uint8",
                      "name": "l3",
                      "type": "uint8"
                    }
                  ],
                  "internalType": "struct Colors",
                  "name": "colors",
                  "type": "tuple"
                },
                {
                  "internalType": "uint16",
                  "name": "variant",
                  "type": "uint16"
                },
                {
                  "internalType": "uint8",
                  "name": "accuracy",
                  "type": "uint8"
                },
                {
                  "internalType": "uint8",
                  "name": "hull",
                  "type": "uint8"
                },
                {
                  "internalType": "uint8",
                  "name": "speed",
                  "type": "uint8"
                }
              ],
              "internalType": "struct Traits",
              "name": "traits",
              "type": "tuple"
            },
            {
              "components": [
                {
                  "internalType": "uint32",
                  "name": "shipsDestroyed",
                  "type": "uint32"
                },
                {
                  "internalType": "uint16",
                  "name": "costsVersion",
                  "type": "uint16"
                },
                {
                  "internalType": "uint16",
                  "name": "cost",
                  "type": "uint16"
                },
                {
                  "internalType": "uint16",
                  "name": "modified",
                  "type": "uint16"
                },
                {
                  "internalType": "bool",
                  "name": "shiny",
                  "type": "bool"
                },
                {
                  "internalType": "bool",
                  "name": "constructed",
                  "type": "bool"
                },
                {
                  "internalType": "bool",
                  "name": "inFleet",
                  "type": "bool"
                },
                {
                  "internalType": "bool",
                  "name": "isFreeShip",
                  "type": "bool"
                },
                {
                  "internalType": "uint256",
                  "name": "timestampDestroyed",
                  "type": "uint256"
                }
              ],
              "internalType": "struct ShipData",
              "name": "shipData",
              "type": "tuple"
            },
            {
              "internalType": "address",
              "name": "owner",
              "type": "address"
            }
          ],
          "internalType": "struct Ship",
          "name": "_newShip",
          "type": "tuple"
        }
      ],
      "name": "calculateCostToModify",
      "outputs": [
        {
          "internalType": "uint256",
          "name": "",
          "type": "uint256"
        }
      ],
      "stateMutability": "view",
      "type": "function"
    },
    {
      "inputs": [
        {
          "internalType": "uint256",
          "name": "_shipId",
          "type": "uint256"
        },
        {
          "components": [
            {
              "internalType": "string",
              "name": "name",
              "type": "string"
            },
            {
              "internalType": "uint256",
              "name": "id",
              "type": "uint256"
            },
            {
              "components": [
                {
                  "internalType": "enum MainWeapon",
                  "name": "mainWeapon",
                  "type": "uint8"
                },
                {
                  "internalType": "enum Armor",
                  "name": "armor",
                  "type": "uint8"
                },
                {
                  "internalType": "enum Shields",
                  "name": "shields",
                  "type": "uint8"
                },
                {
                  "internalType": "enum Special",
                  "name": "special",
                  "type": "uint8"
                }
              ],
              "internalType": "struct Equipment",
              "name": "equipment",
              "type": "tuple"
            },
            {
              "components": [
                {
                  "internalType": "uint256",
                  "name": "serialNumber",
                  "type": "uint256"
                },
                {
                  "components": [
                    {
                      "internalType": "uint16",
                      "name": "h1",
                      "type": "uint16"
                    },
                    {
                      "internalType": "uint8",
                      "name": "s1",
                      "type": "uint8"
                    },
                    {
                      "internalType": "uint8",
                      "name": "l1",
                      "type": "uint8"
                    },
                    {
                      "internalType": "uint16",
                      "name": "h2",
                      "type": "uint16"
                    },
                    {
                      "internalType": "uint8",
                      "name": "s2",
                      "type": "uint8"
                    },
                    {
                      "internalType": "uint8",
                      "name": "l2",
                      "type": "uint8"
                    },
                    {
                      "internalType": "uint16",
                      "name": "h3",
                      "type": "uint16"
                    },
                    {
                      "internalType": "uint8",
                      "name": "s3",
                      "type": "uint8"
                    },
                    {
                      "internalType": "uint8",
                      "name": "l3",
                      "type": "uint8"
                    }
                  ],
                  "internalType": "struct Colors",
                  "name": "colors",
                  "type": "tuple"
                },
                {
                  "internalType": "uint16",
                  "name": "variant",
                  "type": "uint16"
                },
                {
                  "internalType": "uint8",
                  "name": "accuracy",
                  "type": "uint8"
                },
                {
                  "internalType": "uint8",
                  "name": "hull",
                  "type": "uint8"
                },
                {
                  "internalType": "uint8",
                  "name": "speed",
                  "type": "uint8"
                }
              ],
              "internalType": "struct Traits",
              "name": "traits",
              "type": "tuple"
            },
            {
              "components": [
                {
                  "internalType": "uint32",
                  "name": "shipsDestroyed",
                  "type": "uint32"
                },
                {
                  "internalType": "uint16",
                  "name": "costsVersion",
                  "type": "uint16"
                },
                {
                  "internalType": "uint16",
                  "name": "cost",
                  "type": "uint16"
                },
                {
                  "internalType": "uint16",
                  "name": "modified",
                  "type": "uint16"
                },
                {
                  "internalType": "bool",
                  "name": "shiny",
                  "type": "bool"
                },
                {
                  "internalType": "bool",
                  "name": "constructed",
                  "type": "bool"
                },
                {
                  "internalType": "bool",
                  "name": "inFleet",
                  "type": "bool"
                },
                {
                  "internalType": "bool",
                  "name": "isFreeShip",
                  "type": "bool"
                },
                {
                  "internalType": "uint256",
                  "name": "timestampDestroyed",
                  "type": "uint256"
                }
              ],
              "internalType": "struct ShipData",
              "name": "shipData",
              "type": "tuple"
            },
            {
              "internalType": "address",
              "name": "owner",
              "type": "address"
            }
          ],
          "internalType": "struct Ship",
          "name": "_newShip",
          "type": "tuple"
        }
      ],
      "name": "modifyShip",
      "outputs": [],
      "stateMutability": "nonpayable",
      "type": "function"
    },
    {
      "inputs": [],
      "name": "shipNames",
      "outputs": [
        {
          "internalType": "contract IOnchainRandomShipNames",
          "name": "",
          "type": "address"
        }
      ],
      "stateMutability": "view",
      "type": "function"
    },
    {
      "inputs": [],
      "name": "shipPurchaser",
      "outputs": [
        {
          "internalType": "contract IShipPurchaser",
          "name": "",
          "type": "address"
        }
      ],
      "stateMutability": "view",
      "type": "function"
    },
    {
      "inputs": [],
      "name": "ships",
      "outputs": [
        {
          "internalType": "contract IShips",
          "name": "",
          "type": "address"
        }
      ],
      "stateMutability": "view",
      "type": "function"
    },
    {
      "inputs": [],
      "name": "universalCredits",
      "outputs": [
        {
          "internalType": "contract IERC20",
          "name": "",
          "type": "address"
        }
      ],
      "stateMutability": "view",
      "type": "function"
    },
    {
      "inputs": [
        {
          "internalType": "uint256",
          "name": "_shipId",
          "type": "uint256"
        },
        {
          "components": [
            {
              "internalType": "string",
              "name": "name",
              "type": "string"
            },
            {
              "internalType": "uint256",
              "name": "id",
              "type": "uint256"
            },
            {
              "components": [
                {
                  "internalType": "enum MainWeapon",
                  "name": "mainWeapon",
                  "type": "uint8"
                },
                {
                  "internalType": "enum Armor",
                  "name": "armor",
                  "type": "uint8"
                },
                {
                  "internalType": "enum Shields",
                  "name": "shields",
                  "type": "uint8"
                },
                {
                  "internalType": "enum Special",
                  "name": "special",
                  "type": "uint8"
                }
              ],
              "internalType": "struct Equipment",
              "name": "equipment",
              "type": "tuple"
            },
            {
              "components": [
                {
                  "internalType": "uint256",
                  "name": "serialNumber",
                  "type": "uint256"
                },
                {
                  "components": [
                    {
                      "internalType": "uint16",
                      "name": "h1",
                      "type": "uint16"
                    },
                    {
                      "internalType": "uint8",
                      "name": "s1",
                      "type": "uint8"
                    },
                    {
                      "internalType": "uint8",
                      "name": "l1",
                      "type": "uint8"
                    },
                    {
                      "internalType": "uint16",
                      "name": "h2",
                      "type": "uint16"
                    },
                    {
                      "internalType": "uint8",
                      "name": "s2",
                      "type": "uint8"
                    },
                    {
                      "internalType": "uint8",
                      "name": "l2",
                      "type": "uint8"
                    },
                    {
                      "internalType": "uint16",
                      "name": "h3",
                      "type": "uint16"
                    },
                    {
                      "internalType": "uint8",
                      "name": "s3",
                      "type": "uint8"
                    },
                    {
                      "internalType": "uint8",
                      "name": "l3",
                      "type": "uint8"
                    }
                  ],
                  "internalType": "struct Colors",
                  "name": "colors",
                  "type": "tuple"
                },
                {
                  "internalType": "uint16",
                  "name": "variant",
                  "type": "uint16"
                },
                {
                  "internalType": "uint8",
                  "name": "accuracy",
                  "type": "uint8"
                },
                {
                  "internalType": "uint8",
                  "name": "hull",
                  "type": "uint8"
                },
                {
                  "internalType": "uint8",
                  "name": "speed",
                  "type": "uint8"
                }
              ],
              "internalType": "struct Traits",
              "name": "traits",
              "type": "tuple"
            },
            {
              "components": [
                {
                  "internalType": "uint32",
                  "name": "shipsDestroyed",
                  "type": "uint32"
                },
                {
                  "internalType": "uint16",
                  "name": "costsVersion",
                  "type": "uint16"
                },
                {
                  "internalType": "uint16",
                  "name": "cost",
                  "type": "uint16"
                },
                {
                  "internalType": "uint16",
                  "name": "modified",
                  "type": "uint16"
                },
                {
                  "internalType": "bool",
                  "name": "shiny",
                  "type": "bool"
                },
                {
                  "internalType": "bool",
                  "name": "constructed",
                  "type": "bool"
                },
                {
                  "internalType": "bool",
                  "name": "inFleet",
                  "type": "bool"
                },
                {
                  "internalType": "bool",
                  "name": "isFreeShip",
                  "type": "bool"
                },
                {
                  "internalType": "uint256",
                  "name": "timestampDestroyed",
                  "type": "uint256"
                }
              ],
              "internalType": "struct ShipData",
              "name": "shipData",
              "type": "tuple"
            },
            {
              "internalType": "address",
              "name": "owner",
              "type": "address"
            }
          ],
          "internalType": "struct Ship",
          "name": "_newShip",
          "type": "tuple"
        }
      ],
      "name": "validateShip",
      "outputs": [
        {
          "internalType": "bool",
          "name": "",
          "type": "bool"
        }
      ],
      "stateMutability": "view",
      "type": "function"
    }
  ],
  "bytecode": "0x61010060405234801561001157600080fd5b506040516118c53803806118c583398101604081905261003091610073565b60016000556001600160a01b0393841660805291831660a052821660c0521660e0526100c7565b80516001600160a01b038116811461006e57600080fd5b919050565b6000806000806080858703121561008957600080fd5b61009285610057565b93506100a060208601610057565b92506100ae60408601610057565b91506100bc60608601610057565b905092959194509250565b60805160a05160c05160e051611795610130600039600061013601526000818161010f015261027f01526000818160870152818161069b015261075401526000818161015d015281816101b70152818161036501528181610540015261085b01526117956000f3fe608060405234801561001057600080fd5b506004361061007d5760003560e01c80638d8d6ae81161005b5780638d8d6ae81461010a578063a355a6da14610131578063bbf8218a14610158578063e84ee0071461017f57600080fd5b8063172259411461008257806377bbe8eb146100c65780637f4a83a1146100e7575b600080fd5b6100a97f000000000000000000000000000000000000000000000000000000000000000081565b6040516001600160a01b0390911681526020015b60405180910390f35b6100d96100d4366004610f14565b610194565b6040519081526020016100bd565b6100fa6100f5366004610f14565b610342565b60405190151581526020016100bd565b6100a97f000000000000000000000000000000000000000000000000000000000000000081565b6100a97f000000000000000000000000000000000000000000000000000000000000000081565b6100a97f000000000000000000000000000000000000000000000000000000000000000081565b61019261018d366004610f14565b61051f565b005b604051634025b22d60e01b81526004810183905260009081906001600160a01b037f00000000000000000000000000000000000000000000000000000000000000001690634025b22d90602401600060405180830381865afa1580156101fe573d6000803e3d6000fd5b505050506040513d6000823e601f3d908101601f1916820160405261022691908101906112ad565b9050806020015160000361024d5760405163279d13d360e21b815260040160405180910390fd5b600061025982856108d7565b60405163300eccab60e01b81526000600482018190529192506005906001600160a01b037f0000000000000000000000000000000000000000000000000000000000000000169063300eccab90602401602060405180830381865afa1580156102c6573d6000803e3d6000fd5b505050506040513d601f19601f820116820180604052508101906102ea91906113ac565b6102f491906113db565b90508160000361030857925061033c915050565b600160005b8381101561032a576103206002836113fd565b915060010161030d565b5061033581836113fd565b9450505050505b92915050565b604051634025b22d60e01b81526004810183905260009081906001600160a01b037f00000000000000000000000000000000000000000000000000000000000000001690634025b22d90602401600060405180830381865afa1580156103ac573d6000803e3d6000fd5b505050506040513d6000823e601f3d908101601f191682016040526103d491908101906112ad565b905080602001516000036103fb5760405163279d13d360e21b815260040160405180910390fd5b600283606001516060015160ff16111561043b576060808401510151604051630de2ab3f60e41b815260ff90911660048201526024015b60405180910390fd5b600283606001516080015160ff16111561047757606083015160800151604051630de2ab3f60e41b815260ff9091166004820152602401610432565b6002836060015160a0015160ff1611156104b357606083015160a00151604051630de2ab3f60e41b815260ff9091166004820152602401610432565b600083604001516020015160078111156104cf576104cf611414565b141580156104f75750600083604001516040015160078111156104f4576104f4611414565b14155b156105155760405163358953a760e21b815260040160405180910390fd5b5060019392505050565b610527610903565b604051634025b22d60e01b8152600481018390526000907f00000000000000000000000000000000000000000000000000000000000000006001600160a01b031690634025b22d90602401600060405180830381865afa15801561058f573d6000803e3d6000fd5b505050506040513d6000823e601f3d908101601f191682016040526105b791908101906112ad565b905080602001516000036105de5760405163279d13d360e21b815260040160405180910390fd5b60a08101516001600160a01b0316331461060e57604051636be934ab60e11b815260048101849052602401610432565b806080015160a00151610637576040516343f03e0f60e11b815260048101849052602401610432565b806080015160c00151156106615760405163128379f760e11b815260048101849052602401610432565b61066b8383610342565b5060006106788484610194565b6040516370a0823160e01b81523360048201529091506000906001600160a01b037f000000000000000000000000000000000000000000000000000000000000000016906370a0823190602401602060405180830381865afa1580156106e2573d6000803e3d6000fd5b505050506040513d601f19601f8201168201806040525081019061070691906113ac565b9050818110156107325760405162fae2d560e21b81526004810183905260248101829052604401610432565b6040516323b872dd60e01b8152336004820152306024820152604481018390527f00000000000000000000000000000000000000000000000000000000000000006001600160a01b0316906323b872dd906064016020604051808303816000875af11580156107a5573d6000803e3d6000fd5b505050506040513d601f19601f820116820180604052508101906107c9919061142a565b61080b5760405162461bcd60e51b8152602060048201526013602482015272155510c81d1c985b9cd9995c8819985a5b1959606a1b6044820152606401610432565b606080840180515191860180519290925251602090810151915181019190915283518552840185905260a0808401516001600160a01b0390811691860191909152604051636ebb838960e11b81527f00000000000000000000000000000000000000000000000000000000000000009091169063dd77071290610894908890889060040161162e565b600060405180830381600087803b1580156108ae57600080fd5b505af11580156108c2573d6000803e3d6000fd5b505050505050506108d36001600055565b5050565b60808201516060015160009061ffff166108f1848461092d565b6108fb90826116d5565b949350505050565b60026000540361092657604051633ee5aeb560e01b815260040160405180910390fd5b6002600055565b6040810151516000908190600781111561094957610949611414565b604085015151600781111561096057610960611414565b14610973578061096f816116e8565b9150505b826040015160200151600781111561098d5761098d611414565b84604001516020015160078111156109a7576109a7611414565b146109ba57806109b6816116e8565b9150505b82604001516040015160078111156109d4576109d4611414565b84604001516040015160078111156109ee576109ee611414565b14610a0157806109fd816116e8565b9150505b8260400151606001516007811115610a1b57610a1b611414565b8460400151606001516007811115610a3557610a35611414565b14610a485780610a44816116e8565b9150505b600084606001516060015160ff1684606001516060015160ff16610a6c9190611701565b9050600085606001516080015160ff1685606001516080015160ff16610a929190611701565b90506000866060015160a0015160ff16866060015160a0015160ff16610ab89190611701565b90506000610ac582610b32565b610ace84610b32565b610ad786610b32565b610ae19190611724565b610aeb9190611724565b61ffff169050610afb81866116d5565b94508660800151608001511515886080015160800151151514610b2657610b236003866116d5565b94505b50929695505050505050565b6000808260010b1215610b4d57610b488261173e565b61033c565b5090565b634e487b7160e01b600052604160045260246000fd5b6040516080810167ffffffffffffffff81118282101715610b8a57610b8a610b51565b60405290565b60405160c0810167ffffffffffffffff81118282101715610b8a57610b8a610b51565b604051610120810167ffffffffffffffff81118282101715610b8a57610b8a610b51565b604051601f8201601f1916810167ffffffffffffffff81118282101715610c0057610c00610b51565b604052919050565b600067ffffffffffffffff821115610c2257610c22610b51565b50601f01601f191660200190565b60088110610c3d57600080fd5b50565b600060808284031215610c5257600080fd5b610c5a610b67565b90508135610c6781610c30565b81526020820135610c7781610c30565b60208201526040820135610c8a81610c30565b60408201526060820135610c9d81610c30565b606082015292915050565b61ffff81168114610c3d57600080fd5b8035610cc381610ca8565b919050565b60ff81168114610c3d57600080fd5b8035610cc381610cc8565b60008183036101c0811215610cf657600080fd5b610cfe610b90565b833581529150610120601f1982011215610d1757600080fd5b50610d20610bb3565b610d2c60208401610cb8565b8152610d3a60408401610cd7565b6020820152610d4b60608401610cd7565b6040820152610d5c60808401610cb8565b6060820152610d6d60a08401610cd7565b6080820152610d7e60c08401610cd7565b60a0820152610d8f60e08401610cb8565b60c0820152610da16101008401610cd7565b60e0820152610db36101208401610cd7565b6101008201526020820152610dcb6101408301610cb8565b6040820152610ddd6101608301610cd7565b6060820152610def6101808301610cd7565b6080820152610e016101a08301610cd7565b60a082015292915050565b63ffffffff81168114610c3d57600080fd5b8035610cc381610e0c565b8015158114610c3d57600080fd5b8035610cc381610e29565b60006101208284031215610e5557600080fd5b610e5d610bb3565b9050610e6882610e1e565b8152610e7660208301610cb8565b6020820152610e8760408301610cb8565b6040820152610e9860608301610cb8565b6060820152610ea960808301610e37565b6080820152610eba60a08301610e37565b60a0820152610ecb60c08301610e37565b60c0820152610edc60e08301610e37565b60e08201526101009182013591810191909152919050565b6001600160a01b0381168114610c3d57600080fd5b8035610cc381610ef4565b60008060408385031215610f2757600080fd5b82359150602083013567ffffffffffffffff811115610f4557600080fd5b83016103c08186031215610f5857600080fd5b610f60610b90565b813567ffffffffffffffff811115610f7757600080fd5b8201601f81018713610f8857600080fd5b8035610f9b610f9682610c08565b610bd7565b818152886020838501011115610fb057600080fd5b81602084016020830137600060209282018301528352838101359083015250610fdc8660408401610c40565b6040820152610fee8660c08401610ce2565b6060820152611001866102808401610e42565b60808201526110136103a08301610f09565b60a082015280925050509250929050565b60005b8381101561103f578181015183820152602001611027565b50506000910152565b60006080828403121561105a57600080fd5b611062610b67565b9050815161106f81610c30565b8152602082015161107f81610c30565b6020820152604082015161109281610c30565b60408201526060820151610c9d81610c30565b8051610cc381610ca8565b8051610cc381610cc8565b60008183036101c08112156110cf57600080fd5b6110d7610b90565b835181529150610120601f19820112156110f057600080fd5b506110f9610bb3565b611105602084016110a5565b8152611113604084016110b0565b6020820152611124606084016110b0565b6040820152611135608084016110a5565b606082015261114660a084016110b0565b608082015261115760c084016110b0565b60a082015261116860e084016110a5565b60c082015261117a61010084016110b0565b60e082015261118c61012084016110b0565b61010082015260208201526111a461014083016110a5565b60408201526111b661016083016110b0565b60608201526111c861018083016110b0565b6080820152610e016101a083016110b0565b8051610cc381610e0c565b8051610cc381610e29565b6000610120828403121561120357600080fd5b61120b610bb3565b9050611216826111da565b8152611224602083016110a5565b6020820152611235604083016110a5565b6040820152611246606083016110a5565b6060820152611257608083016111e5565b608082015261126860a083016111e5565b60a082015261127960c083016111e5565b60c082015261128a60e083016111e5565b60e08201526101009182015191810191909152919050565b8051610cc381610ef4565b6000602082840312156112bf57600080fd5b815167ffffffffffffffff8111156112d657600080fd5b82016103c081850312156112e957600080fd5b6112f1610b90565b815167ffffffffffffffff81111561130857600080fd5b8201601f8101861361131957600080fd5b8051611327610f9682610c08565b81815287602083850101111561133c57600080fd5b61134d826020830160208601611024565b83525050602082810151908201526113688560408401611048565b604082015261137a8560c084016110bb565b606082015261138d8561028084016111f0565b608082015261139f6103a083016112a2565b60a0820152949350505050565b6000602082840312156113be57600080fd5b5051919050565b634e487b7160e01b600052601160045260246000fd5b6000826113f857634e487b7160e01b600052601260045260246000fd5b500490565b808202811582820484141761033c5761033c6113c5565b634e487b7160e01b600052602160045260246000fd5b60006020828403121561143c57600080fd5b815161144781610e29565b9392505050565b60088110610c3d57634e487b7160e01b600052602160045260246000fd5b80516114778161144e565b825260208101516114878161144e565b6020830152604081015161149a8161144e565b604083015260608101516114ad8161144e565b806060840152505050565b80518252602081015161ffff815116602084015260ff602082015116604084015260408101516114ed606085018260ff169052565b50606081015161ffff8116608085015250608081015160ff811660a08501525060a081015160ff811660c08501525060c081015161ffff811660e08501525060e081015160ff811661010085015250610100015160ff811661012084015250604081015161ffff811661014084015250606081015160ff811661016084015250608081015160ff81166101808401525060a0015160ff166101a09190910152565b63ffffffff815116825261ffff602082015116602083015260408101516115bb604084018261ffff169052565b5060608101516115d1606084018261ffff169052565b5060808101516115e5608084018215159052565b5060a08101516115f960a084018215159052565b5060c081015161160d60c084018215159052565b5060e081015161162160e084018215159052565b5061010090810151910152565b82815260406020820152600082516103c0604084015280518061040085015261165f81610420860160208501611024565b602085015160608501526040850151915061167d608085018361146c565b606085015191506116926101008501836114b8565b608085015191506116a76102c085018361158e565b60a08501516001600160a01b0381166103e08601529150601f01601f19169290920161042001949350505050565b8082018082111561033c5761033c6113c5565b6000600182016116fa576116fa6113c5565b5060010190565b600182810b9082900b03617fff198112617fff8213171561033c5761033c6113c5565b61ffff818116838216019081111561033c5761033c6113c5565b60008160010b617fff198103611756576117566113c5565b6000039291505056fea2646970667358221220a085bb470fb1920242bec9b26514cc2a004479f972ad355aeff3f17f051be74f64736f6c634300081c0033",
  "linkReferences": {},
  "deployedLinkReferences": {}
}