{
  "_format": "hh-sol-artifact-1",
  "contractName": "RenderAft",
  "sourceName": "contracts/Renderers/RenderAft.sol",
  "abi": [
    {
      "inputs": [
        {
          "internalType": "address[]",
          "name": "renderers",
          "type": "address[]"
        }
      ],
      "stateMutability": "nonpayable",
      "type": "constructor"
    },
    {
      "inputs": [
        {
          "components": [
            {
              "internalType": "string",
              "name": "name",
              "type": "string"
            },
            {
              "internalType": "uint256",
              "name": "id",
              "type": "uint256"
            },
            {
              "components": [
                {
                  "internalType": "enum MainWeapon",
                  "name": "mainWeapon",
                  "type": "uint8"
                },
                {
                  "internalType": "enum Armor",
                  "name": "armor",
                  "type": "uint8"
                },
                {
                  "internalType": "enum Shields",
                  "name": "shields",
                  "type": "uint8"
                },
                {
                  "internalType": "enum Special",
                  "name": "special",
                  "type": "uint8"
                }
              ],
              "internalType": "struct Equipment",
              "name": "equipment",
              "type": "tuple"
            },
            {
              "components": [
                {
                  "internalType": "uint256",
                  "name": "serialNumber",
                  "type": "uint256"
                },
                {
                  "components": [
                    {
                      "internalType": "uint16",
                      "name": "h1",
                      "type": "uint16"
                    },
                    {
                      "internalType": "uint8",
                      "name": "s1",
                      "type": "uint8"
                    },
                    {
                      "internalType": "uint8",
                      "name": "l1",
                      "type": "uint8"
                    },
                    {
                      "internalType": "uint16",
                      "name": "h2",
                      "type": "uint16"
                    },
                    {
                      "internalType": "uint8",
                      "name": "s2",
                      "type": "uint8"
                    },
                    {
                      "internalType": "uint8",
                      "name": "l2",
                      "type": "uint8"
                    }
                  ],
                  "internalType": "struct Colors",
                  "name": "colors",
                  "type": "tuple"
                },
                {
                  "internalType": "uint8",
                  "name": "variant",
                  "type": "uint8"
                },
                {
                  "internalType": "uint8",
                  "name": "accuracy",
                  "type": "uint8"
                },
                {
                  "internalType": "uint8",
                  "name": "hull",
                  "type": "uint8"
                },
                {
                  "internalType": "uint8",
                  "name": "speed",
                  "type": "uint8"
                }
              ],
              "internalType": "struct Traits",
              "name": "traits",
              "type": "tuple"
            },
            {
              "components": [
                {
                  "internalType": "uint32",
                  "name": "shipsDestroyed",
                  "type": "uint32"
                },
                {
                  "internalType": "uint16",
                  "name": "costsVersion",
                  "type": "uint16"
                },
                {
                  "internalType": "uint16",
                  "name": "cost",
                  "type": "uint16"
                },
                {
                  "internalType": "bool",
                  "name": "shiny",
                  "type": "bool"
                },
                {
                  "internalType": "bool",
                  "name": "constructed",
                  "type": "bool"
                },
                {
                  "internalType": "bool",
                  "name": "inFleet",
                  "type": "bool"
                },
                {
                  "internalType": "uint256",
                  "name": "timestampDestroyed",
                  "type": "uint256"
                }
              ],
              "internalType": "struct ShipData",
              "name": "shipData",
              "type": "tuple"
            },
            {
              "internalType": "address",
              "name": "owner",
              "type": "address"
            }
          ],
          "internalType": "struct Ship",
          "name": "ship",
          "type": "tuple"
        }
      ],
      "name": "render",
      "outputs": [
        {
          "internalType": "string",
          "name": "",
          "type": "string"
        }
      ],
      "stateMutability": "view",
      "type": "function"
    },
    {
      "inputs": [],
      "name": "renderAft0",
      "outputs": [
        {
          "internalType": "contract IReturnSVG",
          "name": "",
          "type": "address"
        }
      ],
      "stateMutability": "view",
      "type": "function"
    },
    {
      "inputs": [],
      "name": "renderAft1",
      "outputs": [
        {
          "internalType": "contract IReturnSVG",
          "name": "",
          "type": "address"
        }
      ],
      "stateMutability": "view",
      "type": "function"
    },
    {
      "inputs": [],
      "name": "renderAft2",
      "outputs": [
        {
          "internalType": "contract IReturnSVG",
          "name": "",
          "type": "address"
        }
      ],
      "stateMutability": "view",
      "type": "function"
    }
  ],
  "bytecode": "0x60e060405234801561001057600080fd5b50604051610bf2380380610bf283398101604081905261002f9161015a565b80516003146100905760405162461bcd60e51b8152602060048201526024808201527f496e76616c69642072656e64657265727320617272617920696e2052656e64656044820152631c90599d60e21b606482015260840160405180910390fd5b806000815181106100a3576100a3610229565b60200260200101516001600160a01b03166080816001600160a01b031681525050806001815181106100d7576100d7610229565b60200260200101516001600160a01b031660a0816001600160a01b0316815250508060028151811061010b5761010b610229565b60209081029190910101516001600160a01b031660c0525061023f565b634e487b7160e01b600052604160045260246000fd5b80516001600160a01b038116811461015557600080fd5b919050565b60006020828403121561016c57600080fd5b81516001600160401b0381111561018257600080fd5b8201601f8101841361019357600080fd5b80516001600160401b038111156101ac576101ac610128565b604051600582901b90603f8201601f191681016001600160401b03811182821017156101da576101da610128565b6040529182526020818401810192908101878411156101f857600080fd5b6020850194505b8385101561021e576102108561013e565b8152602094850194016101ff565b509695505050505050565b634e487b7160e01b600052603260045260246000fd5b60805160a05160c051610972610280600039600081816056015261022501526000818160c101526101d9015260008181609a015261012f01526109726000f3fe608060405234801561001057600080fd5b506004361061004c5760003560e01c806325aa499614610051578063504d74321461009557806357283e27146100bc578063d01c7c84146100e3575b600080fd5b6100787f000000000000000000000000000000000000000000000000000000000000000081565b6040516001600160a01b0390911681526020015b60405180910390f35b6100787f000000000000000000000000000000000000000000000000000000000000000081565b6100787f000000000000000000000000000000000000000000000000000000000000000081565b6100f66100f1366004610588565b610103565b60405161008c91906106dc565b6060816060015160a0015160ff166000036101af576040516334071f2160e21b81526001600160a01b037f0000000000000000000000000000000000000000000000000000000000000000169063d01c7c849061016490859060040161080a565b600060405180830381865afa158015610181573d6000803e3d6000fd5b505050506040513d6000823e601f3d908101601f191682016040526101a991908101906108c5565b92915050565b816060015160a0015160ff1660010361020e576040516334071f2160e21b81526001600160a01b037f0000000000000000000000000000000000000000000000000000000000000000169063d01c7c849061016490859060040161080a565b6040516334071f2160e21b81526001600160a01b037f0000000000000000000000000000000000000000000000000000000000000000169063d01c7c849061016490859060040161080a565b919050565b634e487b7160e01b600052604160045260246000fd5b60405160c0810167ffffffffffffffff811182821017156102985761029861025f565b60405290565b60405160e0810167ffffffffffffffff811182821017156102985761029861025f565b604051601f8201601f1916810167ffffffffffffffff811182821017156102ea576102ea61025f565b604052919050565b600067ffffffffffffffff82111561030c5761030c61025f565b50601f01601f191660200190565b6004811061032757600080fd5b50565b60006080828403121561033c57600080fd5b6040516080810167ffffffffffffffff8111828210171561035f5761035f61025f565b60405290508082356103708161031a565b815260208301356103808161031a565b602082015260408301356103938161031a565b604082015260608301356103a68161031a565b6060919091015292915050565b803561ffff8116811461025a57600080fd5b803560ff8116811461025a57600080fd5b60008183036101608112156103ea57600080fd5b6103f2610275565b83358152915060c0601f198201121561040a57600080fd5b50610413610275565b61041f602084016103b3565b815261042d604084016103c5565b602082015261043e606084016103c5565b604082015261044f608084016103b3565b606082015261046060a084016103c5565b608082015261047160c084016103c5565b60a0820152602082015261048760e083016103c5565b604082015261049961010083016103c5565b60608201526104ab61012083016103c5565b60808201526104bd61014083016103c5565b60a082015292915050565b8035801515811461025a57600080fd5b600060e082840312156104ea57600080fd5b6104f261029e565b9050813563ffffffff8116811461050857600080fd5b8152610516602083016103b3565b6020820152610527604083016103b3565b6040820152610538606083016104c8565b6060820152610549608083016104c8565b608082015261055a60a083016104c8565b60a082015260c09182013591810191909152919050565b80356001600160a01b038116811461025a57600080fd5b60006020828403121561059a57600080fd5b813567ffffffffffffffff8111156105b157600080fd5b820161032081850312156105c457600080fd5b6105cc610275565b813567ffffffffffffffff8111156105e357600080fd5b8201601f810186136105f457600080fd5b8035610607610602826102f2565b6102c1565b81815287602083850101111561061c57600080fd5b81602084016020830137600060209282018301528352838101359083015250610648856040840161032a565b604082015261065a8560c084016103d6565b606082015261066d8561022084016104d8565b608082015261067f6103008301610571565b60a0820152949350505050565b60005b838110156106a757818101518382015260200161068f565b50506000910152565b600081518084526106c881602086016020860161068c565b601f01601f19169290920160200192915050565b6020815260006106ef60208301846106b0565b9392505050565b6004811061032757634e487b7160e01b600052602160045260246000fd5b80518252602081015161ffff815116602084015260ff602082015116604084015260ff604082015116606084015261ffff606082015116608084015260ff60808201511660a084015260ff60a08201511660c084015250604081015161077f60e084018260ff169052565b50606081015160ff9081166101008401526080820151811661012084015260a0909101511661014090910152565b63ffffffff815116825261ffff602082015116602083015261ffff604082015116604083015260608101511515606083015260808101511515608083015260a08101516107fe60a084018215159052565b5060c090810151910152565b602081526000825161032060208401526108286103408401826106b0565b90506020840151604084015260408401518051610844816106f6565b60608501526020810151610857816106f6565b6080850152604081015161086a816106f6565b60a08501526060015161087c816106f6565b60c0840152606084015161089360e0850182610714565b5060808401516108a76102408501826107ad565b5060a08401516001600160a01b038116610320850152509392505050565b6000602082840312156108d757600080fd5b815167ffffffffffffffff8111156108ee57600080fd5b8201601f810184136108ff57600080fd5b805161090d610602826102f2565b81815285602083850101111561092257600080fd5b61093382602083016020860161068c565b9594505050505056fea2646970667358221220386ed794d44980ab2ae80802b6fa2261810e997c1ddb5322602a82d4f9a5ef2d64736f6c634300081c0033",
  "linkReferences": {},
  "deployedLinkReferences": {}
}