{
  "_format": "hh-sol-artifact-1",
  "contractName": "RenderSpecial",
  "sourceName": "contracts/Renderers/RenderSpecial.sol",
  "abi": [
    {
      "inputs": [
        {
          "internalType": "address[]",
          "name": "renderers",
          "type": "address[]"
        }
      ],
      "stateMutability": "nonpayable",
      "type": "constructor"
    },
    {
      "inputs": [
        {
          "components": [
            {
              "internalType": "string",
              "name": "name",
              "type": "string"
            },
            {
              "internalType": "uint256",
              "name": "id",
              "type": "uint256"
            },
            {
              "components": [
                {
                  "internalType": "enum MainWeapon",
                  "name": "mainWeapon",
                  "type": "uint8"
                },
                {
                  "internalType": "enum Armor",
                  "name": "armor",
                  "type": "uint8"
                },
                {
                  "internalType": "enum Shields",
                  "name": "shields",
                  "type": "uint8"
                },
                {
                  "internalType": "enum Special",
                  "name": "special",
                  "type": "uint8"
                }
              ],
              "internalType": "struct Equipment",
              "name": "equipment",
              "type": "tuple"
            },
            {
              "components": [
                {
                  "internalType": "uint256",
                  "name": "serialNumber",
                  "type": "uint256"
                },
                {
                  "components": [
                    {
                      "internalType": "uint16",
                      "name": "h1",
                      "type": "uint16"
                    },
                    {
                      "internalType": "uint8",
                      "name": "s1",
                      "type": "uint8"
                    },
                    {
                      "internalType": "uint8",
                      "name": "l1",
                      "type": "uint8"
                    },
                    {
                      "internalType": "uint16",
                      "name": "h2",
                      "type": "uint16"
                    },
                    {
                      "internalType": "uint8",
                      "name": "s2",
                      "type": "uint8"
                    },
                    {
                      "internalType": "uint8",
                      "name": "l2",
                      "type": "uint8"
                    },
                    {
                      "internalType": "uint16",
                      "name": "h3",
                      "type": "uint16"
                    },
                    {
                      "internalType": "uint8",
                      "name": "s3",
                      "type": "uint8"
                    },
                    {
                      "internalType": "uint8",
                      "name": "l3",
                      "type": "uint8"
                    }
                  ],
                  "internalType": "struct Colors",
                  "name": "colors",
                  "type": "tuple"
                },
                {
                  "internalType": "uint16",
                  "name": "variant",
                  "type": "uint16"
                },
                {
                  "internalType": "uint8",
                  "name": "accuracy",
                  "type": "uint8"
                },
                {
                  "internalType": "uint8",
                  "name": "hull",
                  "type": "uint8"
                },
                {
                  "internalType": "uint8",
                  "name": "speed",
                  "type": "uint8"
                }
              ],
              "internalType": "struct Traits",
              "name": "traits",
              "type": "tuple"
            },
            {
              "components": [
                {
                  "internalType": "uint32",
                  "name": "shipsDestroyed",
                  "type": "uint32"
                },
                {
                  "internalType": "uint16",
                  "name": "costsVersion",
                  "type": "uint16"
                },
                {
                  "internalType": "uint16",
                  "name": "cost",
                  "type": "uint16"
                },
                {
                  "internalType": "uint16",
                  "name": "modified",
                  "type": "uint16"
                },
                {
                  "internalType": "bool",
                  "name": "shiny",
                  "type": "bool"
                },
                {
                  "internalType": "bool",
                  "name": "constructed",
                  "type": "bool"
                },
                {
                  "internalType": "bool",
                  "name": "inFleet",
                  "type": "bool"
                },
                {
                  "internalType": "bool",
                  "name": "isFreeShip",
                  "type": "bool"
                },
                {
                  "internalType": "uint256",
                  "name": "timestampDestroyed",
                  "type": "uint256"
                }
              ],
              "internalType": "struct ShipData",
              "name": "shipData",
              "type": "tuple"
            },
            {
              "internalType": "address",
              "name": "owner",
              "type": "address"
            }
          ],
          "internalType": "struct Ship",
          "name": "ship",
          "type": "tuple"
        }
      ],
      "name": "render",
      "outputs": [
        {
          "internalType": "string",
          "name": "",
          "type": "string"
        }
      ],
      "stateMutability": "view",
      "type": "function"
    },
    {
      "inputs": [],
      "name": "renderSpecial1",
      "outputs": [
        {
          "internalType": "contract IReturnSVG",
          "name": "",
          "type": "address"
        }
      ],
      "stateMutability": "view",
      "type": "function"
    },
    {
      "inputs": [],
      "name": "renderSpecial2",
      "outputs": [
        {
          "internalType": "contract IReturnSVG",
          "name": "",
          "type": "address"
        }
      ],
      "stateMutability": "view",
      "type": "function"
    },
    {
      "inputs": [],
      "name": "renderSpecial3",
      "outputs": [
        {
          "internalType": "contract IReturnSVG",
          "name": "",
          "type": "address"
        }
      ],
      "stateMutability": "view",
      "type": "function"
    }
  ],
  "bytecode": "0x60e060405234801561001057600080fd5b50604051610d75380380610d7583398101604081905261002f9161015f565b80516003146100955760405162461bcd60e51b815260206004820152602860248201527f496e76616c69642072656e64657265727320617272617920696e2052656e64656044820152671c94dc1958da585b60c21b606482015260840160405180910390fd5b806000815181106100a8576100a861022e565b60200260200101516001600160a01b03166080816001600160a01b031681525050806001815181106100dc576100dc61022e565b60200260200101516001600160a01b031660a0816001600160a01b031681525050806002815181106101105761011061022e565b60209081029190910101516001600160a01b031660c05250610244565b634e487b7160e01b600052604160045260246000fd5b80516001600160a01b038116811461015a57600080fd5b919050565b60006020828403121561017157600080fd5b81516001600160401b0381111561018757600080fd5b8201601f8101841361019857600080fd5b80516001600160401b038111156101b1576101b161012d565b604051600582901b90603f8201601f191681016001600160401b03811182821017156101df576101df61012d565b6040529182526020818401810192908101878411156101fd57600080fd5b6020850194505b838510156102235761021585610143565b815260209485019401610204565b509695505050505050565b634e487b7160e01b600052603260045260246000fd5b60805160a05160c051610af06102856000396000818160e5015261029b015260008181607f015261022e01526000818160be01526101760152610af06000f3fe608060405234801561001057600080fd5b506004361061004c5760003560e01c80635394d87214610051578063802523351461007a5780639f530670146100b9578063b5cca06b146100e0575b600080fd5b61006461005f366004610673565b610107565b60405161007191906107c5565b60405180910390f35b6100a17f000000000000000000000000000000000000000000000000000000000000000081565b6040516001600160a01b039091168152602001610071565b6100a17f000000000000000000000000000000000000000000000000000000000000000081565b6100a17f000000000000000000000000000000000000000000000000000000000000000081565b606060008260400151606001516007811115610125576101256107df565b0361013e57505060408051602081019091526000815290565b6001826040015160600151600781111561015a5761015a6107df565b036101f6576040516329ca6c3960e11b81526001600160a01b037f00000000000000000000000000000000000000000000000000000000000000001690635394d872906101ab908590600401610989565b600060405180830381865afa1580156101c8573d6000803e3d6000fd5b505050506040513d6000823e601f3d908101601f191682016040526101f09190810190610a44565b92915050565b60028260400151606001516007811115610212576102126107df565b03610263576040516329ca6c3960e11b81526001600160a01b037f00000000000000000000000000000000000000000000000000000000000000001690635394d872906101ab908590600401610989565b6003826040015160600151600781111561027f5761027f6107df565b036102d0576040516329ca6c3960e11b81526001600160a01b037f00000000000000000000000000000000000000000000000000000000000000001690635394d872906101ab908590600401610989565b505060408051602081019091526000815290565b634e487b7160e01b600052604160045260246000fd5b60405160c081016001600160401b038111828210171561031c5761031c6102e4565b60405290565b60405161012081016001600160401b038111828210171561031c5761031c6102e4565b604051601f8201601f191681016001600160401b038111828210171561036d5761036d6102e4565b604052919050565b60006001600160401b0382111561038e5761038e6102e4565b50601f01601f191660200190565b600881106103a957600080fd5b50565b6000608082840312156103be57600080fd5b604051608081016001600160401b03811182821017156103e0576103e06102e4565b60405290508082356103f18161039c565b815260208301356104018161039c565b602082015260408301356104148161039c565b604082015260608301356104278161039c565b6060919091015292915050565b803561ffff8116811461044657600080fd5b919050565b803560ff8116811461044657600080fd5b60008183036101c081121561047057600080fd5b6104786102fa565b833581529150610120601f198201121561049157600080fd5b5061049a610322565b6104a660208401610434565b81526104b46040840161044b565b60208201526104c56060840161044b565b60408201526104d660808401610434565b60608201526104e760a0840161044b565b60808201526104f860c0840161044b565b60a082015261050960e08401610434565b60c082015261051b610100840161044b565b60e082015261052d610120840161044b565b61010082015260208201526105456101408301610434565b6040820152610557610160830161044b565b6060820152610569610180830161044b565b608082015261057b6101a0830161044b565b60a082015292915050565b803563ffffffff8116811461044657600080fd5b8035801515811461044657600080fd5b600061012082840312156105bd57600080fd5b6105c5610322565b90506105d082610586565b81526105de60208301610434565b60208201526105ef60408301610434565b604082015261060060608301610434565b60608201526106116080830161059a565b608082015261062260a0830161059a565b60a082015261063360c0830161059a565b60c082015261064460e0830161059a565b60e08201526101009182013591810191909152919050565b80356001600160a01b038116811461044657600080fd5b60006020828403121561068557600080fd5b81356001600160401b0381111561069b57600080fd5b82016103c081850312156106ae57600080fd5b6106b66102fa565b81356001600160401b038111156106cc57600080fd5b8201601f810186136106dd57600080fd5b80356106f06106eb82610375565b610345565b81815287602083850101111561070557600080fd5b8160208401602083013760006020928201830152835283810135908301525061073185604084016103ac565b60408201526107438560c0840161045c565b60608201526107568561028084016105aa565b60808201526107686103a0830161065c565b60a0820152949350505050565b60005b83811015610790578181015183820152602001610778565b50506000910152565b600081518084526107b1816020860160208601610775565b601f01601f19169290920160200192915050565b6020815260006107d86020830184610799565b9392505050565b634e487b7160e01b600052602160045260246000fd5b600881106103a957634e487b7160e01b600052602160045260246000fd5b80518252602081015161ffff815116602084015260ff60208201511660408401526040810151610848606085018260ff169052565b50606081015161ffff8116608085015250608081015160ff811660a08501525060a081015160ff811660c08501525060c081015161ffff811660e08501525060e081015160ff811661010085015250610100015160ff811661012084015250604081015161ffff811661014084015250606081015160ff811661016084015250608081015160ff81166101808401525060a0015160ff166101a09190910152565b63ffffffff815116825261ffff60208201511660208301526040810151610916604084018261ffff169052565b50606081015161092c606084018261ffff169052565b506080810151610940608084018215159052565b5060a081015161095460a084018215159052565b5060c081015161096860c084018215159052565b5060e081015161097c60e084018215159052565b5061010090810151910152565b60208152600082516103c060208401526109a76103e0840182610799565b905060208401516040840152604084015180516109c3816107f5565b606085015260208101516109d6816107f5565b608085015260408101516109e9816107f5565b60a0850152606001516109fb816107f5565b60c08401526060840151610a1260e0850182610813565b506080840151610a266102a08501826108e9565b5060a08401516001600160a01b0381166103c0850152509392505050565b600060208284031215610a5657600080fd5b81516001600160401b03811115610a6c57600080fd5b8201601f81018413610a7d57600080fd5b8051610a8b6106eb82610375565b818152856020838501011115610aa057600080fd5b610ab1826020830160208601610775565b9594505050505056fea2646970667358221220a655ee1ca5039094cfecba29807ed5e2bce4c3aaa9842616d82ec7b5c5b2319d64736f6c634300081c0033",
  "linkReferences": {},
  "deployedLinkReferences": {}
}