{
  "_format": "hh-sol-artifact-1",
  "contractName": "ShipAttributes",
  "sourceName": "contracts/ShipAttributes.sol",
  "abi": [
    {
      "inputs": [
        {
          "internalType": "address",
          "name": "_ships",
          "type": "address"
        }
      ],
      "stateMutability": "nonpayable",
      "type": "constructor"
    },
    {
      "inputs": [],
      "name": "InvalidAttributesVersion",
      "type": "error"
    },
    {
      "inputs": [],
      "name": "InvalidCostsVersion",
      "type": "error"
    },
    {
      "inputs": [
        {
          "internalType": "address",
          "name": "owner",
          "type": "address"
        }
      ],
      "name": "OwnableInvalidOwner",
      "type": "error"
    },
    {
      "inputs": [
        {
          "internalType": "address",
          "name": "account",
          "type": "address"
        }
      ],
      "name": "OwnableUnauthorizedAccount",
      "type": "error"
    },
    {
      "inputs": [],
      "name": "ShipNotFound",
      "type": "error"
    },
    {
      "anonymous": false,
      "inputs": [
        {
          "indexed": true,
          "internalType": "address",
          "name": "previousOwner",
          "type": "address"
        },
        {
          "indexed": true,
          "internalType": "address",
          "name": "newOwner",
          "type": "address"
        }
      ],
      "name": "OwnershipTransferred",
      "type": "event"
    },
    {
      "inputs": [
        {
          "internalType": "uint16",
          "name": "",
          "type": "uint16"
        }
      ],
      "name": "attributesVersions",
      "outputs": [
        {
          "internalType": "uint16",
          "name": "version",
          "type": "uint16"
        },
        {
          "internalType": "uint8",
          "name": "baseHull",
          "type": "uint8"
        },
        {
          "internalType": "uint8",
          "name": "baseSpeed",
          "type": "uint8"
        }
      ],
      "stateMutability": "view",
      "type": "function"
    },
    {
      "inputs": [
        {
          "components": [
            {
              "internalType": "string",
              "name": "name",
              "type": "string"
            },
            {
              "internalType": "uint256",
              "name": "id",
              "type": "uint256"
            },
            {
              "components": [
                {
                  "internalType": "enum MainWeapon",
                  "name": "mainWeapon",
                  "type": "uint8"
                },
                {
                  "internalType": "enum Armor",
                  "name": "armor",
                  "type": "uint8"
                },
                {
                  "internalType": "enum Shields",
                  "name": "shields",
                  "type": "uint8"
                },
                {
                  "internalType": "enum Special",
                  "name": "special",
                  "type": "uint8"
                }
              ],
              "internalType": "struct Equipment",
              "name": "equipment",
              "type": "tuple"
            },
            {
              "components": [
                {
                  "internalType": "uint256",
                  "name": "serialNumber",
                  "type": "uint256"
                },
                {
                  "components": [
                    {
                      "internalType": "uint16",
                      "name": "h1",
                      "type": "uint16"
                    },
                    {
                      "internalType": "uint8",
                      "name": "s1",
                      "type": "uint8"
                    },
                    {
                      "internalType": "uint8",
                      "name": "l1",
                      "type": "uint8"
                    },
                    {
                      "internalType": "uint16",
                      "name": "h2",
                      "type": "uint16"
                    },
                    {
                      "internalType": "uint8",
                      "name": "s2",
                      "type": "uint8"
                    },
                    {
                      "internalType": "uint8",
                      "name": "l2",
                      "type": "uint8"
                    },
                    {
                      "internalType": "uint16",
                      "name": "h3",
                      "type": "uint16"
                    },
                    {
                      "internalType": "uint8",
                      "name": "s3",
                      "type": "uint8"
                    },
                    {
                      "internalType": "uint8",
                      "name": "l3",
                      "type": "uint8"
                    }
                  ],
                  "internalType": "struct Colors",
                  "name": "colors",
                  "type": "tuple"
                },
                {
                  "internalType": "uint16",
                  "name": "variant",
                  "type": "uint16"
                },
                {
                  "internalType": "uint8",
                  "name": "accuracy",
                  "type": "uint8"
                },
                {
                  "internalType": "uint8",
                  "name": "hull",
                  "type": "uint8"
                },
                {
                  "internalType": "uint8",
                  "name": "speed",
                  "type": "uint8"
                }
              ],
              "internalType": "struct Traits",
              "name": "traits",
              "type": "tuple"
            },
            {
              "components": [
                {
                  "internalType": "uint32",
                  "name": "shipsDestroyed",
                  "type": "uint32"
                },
                {
                  "internalType": "uint16",
                  "name": "costsVersion",
                  "type": "uint16"
                },
                {
                  "internalType": "uint16",
                  "name": "cost",
                  "type": "uint16"
                },
                {
                  "internalType": "uint16",
                  "name": "modified",
                  "type": "uint16"
                },
                {
                  "internalType": "bool",
                  "name": "shiny",
                  "type": "bool"
                },
                {
                  "internalType": "bool",
                  "name": "constructed",
                  "type": "bool"
                },
                {
                  "internalType": "bool",
                  "name": "inFleet",
                  "type": "bool"
                },
                {
                  "internalType": "bool",
                  "name": "isFreeShip",
                  "type": "bool"
                },
                {
                  "internalType": "uint256",
                  "name": "timestampDestroyed",
                  "type": "uint256"
                }
              ],
              "internalType": "struct ShipData",
              "name": "shipData",
              "type": "tuple"
            },
            {
              "internalType": "address",
              "name": "owner",
              "type": "address"
            }
          ],
          "internalType": "struct Ship",
          "name": "_ship",
          "type": "tuple"
        }
      ],
      "name": "calculateShipAttributes",
      "outputs": [
        {
          "components": [
            {
              "internalType": "uint16",
              "name": "version",
              "type": "uint16"
            },
            {
              "internalType": "uint8",
              "name": "range",
              "type": "uint8"
            },
            {
              "internalType": "uint8",
              "name": "gunDamage",
              "type": "uint8"
            },
            {
              "internalType": "uint8",
              "name": "hullPoints",
              "type": "uint8"
            },
            {
              "internalType": "uint8",
              "name": "maxHullPoints",
              "type": "uint8"
            },
            {
              "internalType": "uint8",
              "name": "movement",
              "type": "uint8"
            },
            {
              "internalType": "uint8",
              "name": "damageReduction",
              "type": "uint8"
            },
            {
              "internalType": "uint8",
              "name": "reactorCriticalTimer",
              "type": "uint8"
            },
            {
              "internalType": "uint8[]",
              "name": "statusEffects",
              "type": "uint8[]"
            }
          ],
          "internalType": "struct Attributes",
          "name": "",
          "type": "tuple"
        }
      ],
      "stateMutability": "view",
      "type": "function"
    },
    {
      "inputs": [
        {
          "internalType": "uint256",
          "name": "_shipId",
          "type": "uint256"
        }
      ],
      "name": "calculateShipAttributesById",
      "outputs": [
        {
          "components": [
            {
              "internalType": "uint16",
              "name": "version",
              "type": "uint16"
            },
            {
              "internalType": "uint8",
              "name": "range",
              "type": "uint8"
            },
            {
              "internalType": "uint8",
              "name": "gunDamage",
              "type": "uint8"
            },
            {
              "internalType": "uint8",
              "name": "hullPoints",
              "type": "uint8"
            },
            {
              "internalType": "uint8",
              "name": "maxHullPoints",
              "type": "uint8"
            },
            {
              "internalType": "uint8",
              "name": "movement",
              "type": "uint8"
            },
            {
              "internalType": "uint8",
              "name": "damageReduction",
              "type": "uint8"
            },
            {
              "internalType": "uint8",
              "name": "reactorCriticalTimer",
              "type": "uint8"
            },
            {
              "internalType": "uint8[]",
              "name": "statusEffects",
              "type": "uint8[]"
            }
          ],
          "internalType": "struct Attributes",
          "name": "",
          "type": "tuple"
        }
      ],
      "stateMutability": "view",
      "type": "function"
    },
    {
      "inputs": [
        {
          "internalType": "uint256[]",
          "name": "_shipIds",
          "type": "uint256[]"
        }
      ],
      "name": "calculateShipAttributesByIds",
      "outputs": [
        {
          "components": [
            {
              "internalType": "uint16",
              "name": "version",
              "type": "uint16"
            },
            {
              "internalType": "uint8",
              "name": "range",
              "type": "uint8"
            },
            {
              "internalType": "uint8",
              "name": "gunDamage",
              "type": "uint8"
            },
            {
              "internalType": "uint8",
              "name": "hullPoints",
              "type": "uint8"
            },
            {
              "internalType": "uint8",
              "name": "maxHullPoints",
              "type": "uint8"
            },
            {
              "internalType": "uint8",
              "name": "movement",
              "type": "uint8"
            },
            {
              "internalType": "uint8",
              "name": "damageReduction",
              "type": "uint8"
            },
            {
              "internalType": "uint8",
              "name": "reactorCriticalTimer",
              "type": "uint8"
            },
            {
              "internalType": "uint8[]",
              "name": "statusEffects",
              "type": "uint8[]"
            }
          ],
          "internalType": "struct Attributes[]",
          "name": "",
          "type": "tuple[]"
        }
      ],
      "stateMutability": "view",
      "type": "function"
    },
    {
      "inputs": [
        {
          "components": [
            {
              "internalType": "string",
              "name": "name",
              "type": "string"
            },
            {
              "internalType": "uint256",
              "name": "id",
              "type": "uint256"
            },
            {
              "components": [
                {
                  "internalType": "enum MainWeapon",
                  "name": "mainWeapon",
                  "type": "uint8"
                },
                {
                  "internalType": "enum Armor",
                  "name": "armor",
                  "type": "uint8"
                },
                {
                  "internalType": "enum Shields",
                  "name": "shields",
                  "type": "uint8"
                },
                {
                  "internalType": "enum Special",
                  "name": "special",
                  "type": "uint8"
                }
              ],
              "internalType": "struct Equipment",
              "name": "equipment",
              "type": "tuple"
            },
            {
              "components": [
                {
                  "internalType": "uint256",
                  "name": "serialNumber",
                  "type": "uint256"
                },
                {
                  "components": [
                    {
                      "internalType": "uint16",
                      "name": "h1",
                      "type": "uint16"
                    },
                    {
                      "internalType": "uint8",
                      "name": "s1",
                      "type": "uint8"
                    },
                    {
                      "internalType": "uint8",
                      "name": "l1",
                      "type": "uint8"
                    },
                    {
                      "internalType": "uint16",
                      "name": "h2",
                      "type": "uint16"
                    },
                    {
                      "internalType": "uint8",
                      "name": "s2",
                      "type": "uint8"
                    },
                    {
                      "internalType": "uint8",
                      "name": "l2",
                      "type": "uint8"
                    },
                    {
                      "internalType": "uint16",
                      "name": "h3",
                      "type": "uint16"
                    },
                    {
                      "internalType": "uint8",
                      "name": "s3",
                      "type": "uint8"
                    },
                    {
                      "internalType": "uint8",
                      "name": "l3",
                      "type": "uint8"
                    }
                  ],
                  "internalType": "struct Colors",
                  "name": "colors",
                  "type": "tuple"
                },
                {
                  "internalType": "uint16",
                  "name": "variant",
                  "type": "uint16"
                },
                {
                  "internalType": "uint8",
                  "name": "accuracy",
                  "type": "uint8"
                },
                {
                  "internalType": "uint8",
                  "name": "hull",
                  "type": "uint8"
                },
                {
                  "internalType": "uint8",
                  "name": "speed",
                  "type": "uint8"
                }
              ],
              "internalType": "struct Traits",
              "name": "traits",
              "type": "tuple"
            },
            {
              "components": [
                {
                  "internalType": "uint32",
                  "name": "shipsDestroyed",
                  "type": "uint32"
                },
                {
                  "internalType": "uint16",
                  "name": "costsVersion",
                  "type": "uint16"
                },
                {
                  "internalType": "uint16",
                  "name": "cost",
                  "type": "uint16"
                },
                {
                  "internalType": "uint16",
                  "name": "modified",
                  "type": "uint16"
                },
                {
                  "internalType": "bool",
                  "name": "shiny",
                  "type": "bool"
                },
                {
                  "internalType": "bool",
                  "name": "constructed",
                  "type": "bool"
                },
                {
                  "internalType": "bool",
                  "name": "inFleet",
                  "type": "bool"
                },
                {
                  "internalType": "bool",
                  "name": "isFreeShip",
                  "type": "bool"
                },
                {
                  "internalType": "uint256",
                  "name": "timestampDestroyed",
                  "type": "uint256"
                }
              ],
              "internalType": "struct ShipData",
              "name": "shipData",
              "type": "tuple"
            },
            {
              "internalType": "address",
              "name": "owner",
              "type": "address"
            }
          ],
          "internalType": "struct Ship",
          "name": "ship",
          "type": "tuple"
        }
      ],
      "name": "calculateShipCost",
      "outputs": [
        {
          "internalType": "uint16",
          "name": "",
          "type": "uint16"
        }
      ],
      "stateMutability": "view",
      "type": "function"
    },
    {
      "inputs": [],
      "name": "costs",
      "outputs": [
        {
          "internalType": "uint16",
          "name": "version",
          "type": "uint16"
        },
        {
          "internalType": "uint8",
          "name": "baseCost",
          "type": "uint8"
        }
      ],
      "stateMutability": "view",
      "type": "function"
    },
    {
      "inputs": [],
      "name": "currentAttributesVersion",
      "outputs": [
        {
          "internalType": "uint16",
          "name": "",
          "type": "uint16"
        }
      ],
      "stateMutability": "view",
      "type": "function"
    },
    {
      "inputs": [
        {
          "internalType": "enum Armor",
          "name": "_armor",
          "type": "uint8"
        }
      ],
      "name": "getArmorData",
      "outputs": [
        {
          "components": [
            {
              "internalType": "uint8",
              "name": "damageReduction",
              "type": "uint8"
            },
            {
              "internalType": "int8",
              "name": "movement",
              "type": "int8"
            }
          ],
          "internalType": "struct ArmorData",
          "name": "",
          "type": "tuple"
        }
      ],
      "stateMutability": "view",
      "type": "function"
    },
    {
      "inputs": [
        {
          "internalType": "uint16",
          "name": "_version",
          "type": "uint16"
        }
      ],
      "name": "getAttributesVersionBase",
      "outputs": [
        {
          "internalType": "uint16",
          "name": "version",
          "type": "uint16"
        },
        {
          "internalType": "uint8",
          "name": "baseHull",
          "type": "uint8"
        },
        {
          "internalType": "uint8",
          "name": "baseSpeed",
          "type": "uint8"
        }
      ],
      "stateMutability": "view",
      "type": "function"
    },
    {
      "inputs": [],
      "name": "getCosts",
      "outputs": [
        {
          "internalType": "uint256",
          "name": "",
          "type": "uint256"
        },
        {
          "components": [
            {
              "internalType": "uint16",
              "name": "version",
              "type": "uint16"
            },
            {
              "internalType": "uint8",
              "name": "baseCost",
              "type": "uint8"
            },
            {
              "internalType": "uint8[]",
              "name": "accuracy",
              "type": "uint8[]"
            },
            {
              "internalType": "uint8[]",
              "name": "hull",
              "type": "uint8[]"
            },
            {
              "internalType": "uint8[]",
              "name": "speed",
              "type": "uint8[]"
            },
            {
              "internalType": "uint8[]",
              "name": "mainWeapon",
              "type": "uint8[]"
            },
            {
              "internalType": "uint8[]",
              "name": "armor",
              "type": "uint8[]"
            },
            {
              "internalType": "uint8[]",
              "name": "shields",
              "type": "uint8[]"
            },
            {
              "internalType": "uint8[]",
              "name": "special",
              "type": "uint8[]"
            }
          ],
          "internalType": "struct Costs",
          "name": "",
          "type": "tuple"
        }
      ],
      "stateMutability": "view",
      "type": "function"
    },
    {
      "inputs": [],
      "name": "getCurrentAttributesVersion",
      "outputs": [
        {
          "internalType": "uint16",
          "name": "",
          "type": "uint16"
        }
      ],
      "stateMutability": "view",
      "type": "function"
    },
    {
      "inputs": [],
      "name": "getCurrentCostsVersion",
      "outputs": [
        {
          "internalType": "uint16",
          "name": "",
          "type": "uint16"
        }
      ],
      "stateMutability": "view",
      "type": "function"
    },
    {
      "inputs": [
        {
          "internalType": "enum MainWeapon",
          "name": "_weapon",
          "type": "uint8"
        }
      ],
      "name": "getGunData",
      "outputs": [
        {
          "components": [
            {
              "internalType": "uint8",
              "name": "range",
              "type": "uint8"
            },
            {
              "internalType": "uint8",
              "name": "damage",
              "type": "uint8"
            },
            {
              "internalType": "int8",
              "name": "movement",
              "type": "int8"
            }
          ],
          "internalType": "struct GunData",
          "name": "",
          "type": "tuple"
        }
      ],
      "stateMutability": "view",
      "type": "function"
    },
    {
      "inputs": [
        {
          "internalType": "uint256",
          "name": "_shipsDestroyed",
          "type": "uint256"
        }
      ],
      "name": "getRank",
      "outputs": [
        {
          "internalType": "uint8",
          "name": "",
          "type": "uint8"
        }
      ],
      "stateMutability": "pure",
      "type": "function"
    },
    {
      "inputs": [
        {
          "internalType": "enum Shields",
          "name": "_shields",
          "type": "uint8"
        }
      ],
      "name": "getShieldData",
      "outputs": [
        {
          "components": [
            {
              "internalType": "uint8",
              "name": "damageReduction",
              "type": "uint8"
            },
            {
              "internalType": "int8",
              "name": "movement",
              "type": "int8"
            }
          ],
          "internalType": "struct ShieldData",
          "name": "",
          "type": "tuple"
        }
      ],
      "stateMutability": "view",
      "type": "function"
    },
    {
      "inputs": [
        {
          "internalType": "enum Special",
          "name": "_special",
          "type": "uint8"
        }
      ],
      "name": "getSpecialData",
      "outputs": [
        {
          "components": [
            {
              "internalType": "uint8",
              "name": "range",
              "type": "uint8"
            },
            {
              "internalType": "uint8",
              "name": "strength",
              "type": "uint8"
            },
            {
              "internalType": "int8",
              "name": "movement",
              "type": "int8"
            }
          ],
          "internalType": "struct SpecialData",
          "name": "",
          "type": "tuple"
        }
      ],
      "stateMutability": "view",
      "type": "function"
    },
    {
      "inputs": [
        {
          "internalType": "enum Special",
          "name": "_special",
          "type": "uint8"
        }
      ],
      "name": "getSpecialRange",
      "outputs": [
        {
          "internalType": "uint8",
          "name": "",
          "type": "uint8"
        }
      ],
      "stateMutability": "view",
      "type": "function"
    },
    {
      "inputs": [
        {
          "internalType": "enum Special",
          "name": "_special",
          "type": "uint8"
        }
      ],
      "name": "getSpecialStrength",
      "outputs": [
        {
          "internalType": "uint8",
          "name": "",
          "type": "uint8"
        }
      ],
      "stateMutability": "view",
      "type": "function"
    },
    {
      "inputs": [],
      "name": "owner",
      "outputs": [
        {
          "internalType": "address",
          "name": "",
          "type": "address"
        }
      ],
      "stateMutability": "view",
      "type": "function"
    },
    {
      "inputs": [],
      "name": "renounceOwnership",
      "outputs": [],
      "stateMutability": "nonpayable",
      "type": "function"
    },
    {
      "inputs": [
        {
          "internalType": "uint8",
          "name": "_baseHull",
          "type": "uint8"
        },
        {
          "internalType": "uint8",
          "name": "_baseSpeed",
          "type": "uint8"
        },
        {
          "components": [
            {
              "internalType": "uint8",
              "name": "range",
              "type": "uint8"
            },
            {
              "internalType": "uint8",
              "name": "damage",
              "type": "uint8"
            },
            {
              "internalType": "int8",
              "name": "movement",
              "type": "int8"
            }
          ],
          "internalType": "struct GunData[]",
          "name": "_guns",
          "type": "tuple[]"
        },
        {
          "components": [
            {
              "internalType": "uint8",
              "name": "damageReduction",
              "type": "uint8"
            },
            {
              "internalType": "int8",
              "name": "movement",
              "type": "int8"
            }
          ],
          "internalType": "struct ArmorData[]",
          "name": "_armors",
          "type": "tuple[]"
        },
        {
          "components": [
            {
              "internalType": "uint8",
              "name": "damageReduction",
              "type": "uint8"
            },
            {
              "internalType": "int8",
              "name": "movement",
              "type": "int8"
            }
          ],
          "internalType": "struct ShieldData[]",
          "name": "_shields",
          "type": "tuple[]"
        },
        {
          "components": [
            {
              "internalType": "uint8",
              "name": "range",
              "type": "uint8"
            },
            {
              "internalType": "uint8",
              "name": "strength",
              "type": "uint8"
            },
            {
              "internalType": "int8",
              "name": "movement",
              "type": "int8"
            }
          ],
          "internalType": "struct SpecialData[]",
          "name": "_specials",
          "type": "tuple[]"
        },
        {
          "internalType": "uint8[]",
          "name": "_foreAccuracy",
          "type": "uint8[]"
        },
        {
          "internalType": "uint8[]",
          "name": "_hull",
          "type": "uint8[]"
        },
        {
          "internalType": "uint8[]",
          "name": "_engineSpeeds",
          "type": "uint8[]"
        }
      ],
      "name": "setAllAttributes",
      "outputs": [],
      "stateMutability": "nonpayable",
      "type": "function"
    },
    {
      "inputs": [
        {
          "components": [
            {
              "internalType": "uint16",
              "name": "version",
              "type": "uint16"
            },
            {
              "internalType": "uint8",
              "name": "baseCost",
              "type": "uint8"
            },
            {
              "internalType": "uint8[]",
              "name": "accuracy",
              "type": "uint8[]"
            },
            {
              "internalType": "uint8[]",
              "name": "hull",
              "type": "uint8[]"
            },
            {
              "internalType": "uint8[]",
              "name": "speed",
              "type": "uint8[]"
            },
            {
              "internalType": "uint8[]",
              "name": "mainWeapon",
              "type": "uint8[]"
            },
            {
              "internalType": "uint8[]",
              "name": "armor",
              "type": "uint8[]"
            },
            {
              "internalType": "uint8[]",
              "name": "shields",
              "type": "uint8[]"
            },
            {
              "internalType": "uint8[]",
              "name": "special",
              "type": "uint8[]"
            }
          ],
          "internalType": "struct Costs",
          "name": "_costs",
          "type": "tuple"
        }
      ],
      "name": "setCosts",
      "outputs": [],
      "stateMutability": "nonpayable",
      "type": "function"
    },
    {
      "inputs": [
        {
          "internalType": "uint16",
          "name": "_version",
          "type": "uint16"
        }
      ],
      "name": "setCurrentAttributesVersion",
      "outputs": [],
      "stateMutability": "nonpayable",
      "type": "function"
    },
    {
      "inputs": [
        {
          "internalType": "address",
          "name": "_ships",
          "type": "address"
        }
      ],
      "name": "setShipsAddress",
      "outputs": [],
      "stateMutability": "nonpayable",
      "type": "function"
    },
    {
      "inputs": [],
      "name": "ships",
      "outputs": [
        {
          "internalType": "contract IShips",
          "name": "",
          "type": "address"
        }
      ],
      "stateMutability": "view",
      "type": "function"
    },
    {
      "inputs": [
        {
          "internalType": "address",
          "name": "newOwner",
          "type": "address"
        }
      ],
      "name": "transferOwnership",
      "outputs": [],
      "stateMutability": "nonpayable",
      "type": "function"
    }
  ],
  "bytecode": "0x608060405234801561001057600080fd5b5060405161406d38038061406d83398101604081905261002f91611024565b338061005557604051631e4fbdf760e01b81526000600482015260240160405180910390fd5b61005e81610f19565b50600180546001600160a01b0319166001600160a01b0383161781556003805461ffff191690911781556004805462ffffff1916623200011790556040805160608101825260008152600a60208201526019918101919091526100c49160059190610f69565b506040805160608101825260008152600a60208201526019918101919091526100f1906006906003610f69565b506040805160608101825260008152600a602082015260199181019190915261011e906007906003610f69565b506040805160808101825260198152601e602082015260289181018290526060810191909152610152906008906004610f69565b50604080516080810182526000815260056020820152600a91810191909152600f6060820152610186906009906004610f69565b506040805160808101825260008152600a60208201819052601492820192909252601e60608201526101ba91906004610f69565b506040805160808101825260008152600a6020820152601491810191909152600f60608201526101ee90600b906004610f69565b50600060026000600161ffff168152602001908152602001600020905060018160000160006101000a81548161ffff021916908361ffff16021790555060648160000160026101000a81548160ff021916908360ff16021790555060038160000160036101000a81548160ff021916908360ff16021790555080600101600090806001815401808255809150506001900390600052602060002090602091828204019190069091909190916101000a81548160ff021916908360ff16021790555080600101601990806001815401808255809150506001900390600052602060002090602091828204019190069091909190916101000a81548160ff021916908360ff16021790555080600101603290806001815401808255809150506001900390600052602060002090602091828204019190069091909190916101000a81548160ff021916908360ff16021790555080600201600090806001815401808255809150506001900390600052602060002090602091828204019190069091909190916101000a81548160ff021916908360ff16021790555080600201600a90806001815401808255809150506001900390600052602060002090602091828204019190069091909190916101000a81548160ff021916908360ff16021790555080600201601490806001815401808255809150506001900390600052602060002090602091828204019190069091909190916101000a81548160ff021916908360ff16021790555080600301600090806001815401808255809150506001900390600052602060002090602091828204019190069091909190916101000a81548160ff021916908360ff16021790555080600301600190806001815401808255809150506001900390600052602060002090602091828204019190069091909190916101000a81548160ff021916908360ff16021790555080600301600290806001815401808255809150506001900390600052602060002090602091828204019190069091909190916101000a81548160ff021916908360ff160217905550806004016040518060600160405280600360ff168152602001603260ff1681526020016000800b8152509080600181540180825580915050600190039060005260206000200160009091909190915060008201518160000160006101000a81548160ff021916908360ff16021790555060208201518160000160016101000a81548160ff021916908360ff16021790555060408201518160000160026101000a81548160ff021916908360000b60ff1602179055505050806004016040518060600160405280600660ff168152602001602860ff1681526020016000800b8152509080600181540180825580915050600190039060005260206000200160009091909190915060008201518160000160006101000a81548160ff021916908360ff16021790555060208201518160000160016101000a81548160ff021916908360ff16021790555060408201518160000160026101000a81548160ff021916908360000b60ff1602179055505050806004016040518060600160405280600460ff168152602001603c60ff16815260200160001960000b8152509080600181540180825580915050600190039060005260206000200160009091909190915060008201518160000160006101000a81548160ff021916908360ff16021790555060208201518160000160016101000a81548160ff021916908360ff16021790555060408201518160000160026101000a81548160ff021916908360000b60ff1602179055505050806004016040518060600160405280600260ff168152602001605060ff1681526020016000800b8152509080600181540180825580915050600190039060005260206000200160009091909190915060008201518160000160006101000a81548160ff021916908360ff16021790555060208201518160000160016101000a81548160ff021916908360ff16021790555060408201518160000160026101000a81548160ff021916908360000b60ff1602179055505050806005016040518060400160405280600060ff168152602001600160000b8152509080600181540180825580915050600190039060005260206000200160009091909190915060008201518160000160006101000a81548160ff021916908360ff16021790555060208201518160000160016101000a81548160ff021916908360000b60ff1602179055505050806005016040518060400160405280600f60ff1681526020016000800b8152509080600181540180825580915050600190039060005260206000200160009091909190915060008201518160000160006101000a81548160ff021916908360ff16021790555060208201518160000160016101000a81548160ff021916908360000b60ff1602179055505050806005016040518060400160405280601e60ff16815260200160001960000b8152509080600181540180825580915050600190039060005260206000200160009091909190915060008201518160000160006101000a81548160ff021916908360ff16021790555060208201518160000160016101000a81548160ff021916908360000b60ff1602179055505050806005016040518060400160405280602d60ff16815260200160011960000b8152509080600181540180825580915050600190039060005260206000200160009091909190915060008201518160000160006101000a81548160ff021916908360ff16021790555060208201518160000160016101000a81548160ff021916908360000b60ff1602179055505050806006016040518060400160405280600060ff168152602001600160000b8152509080600181540180825580915050600190039060005260206000200160009091909190915060008201518160000160006101000a81548160ff021916908360ff16021790555060208201518160000160016101000a81548160ff021916908360000b60ff1602179055505050806006016040518060400160405280600f60ff168152602001600160000b8152509080600181540180825580915050600190039060005260206000200160009091909190915060008201518160000160006101000a81548160ff021916908360ff16021790555060208201518160000160016101000a81548160ff021916908360000b60ff1602179055505050806006016040518060400160405280601e60ff1681526020016000800b8152509080600181540180825580915050600190039060005260206000200160009091909190915060008201518160000160006101000a81548160ff021916908360ff16021790555060208201518160000160016101000a81548160ff021916908360000b60ff1602179055505050806006016040518060400160405280602d60ff16815260200160001960000b8152509080600181540180825580915050600190039060005260206000200160009091909190915060008201518160000160006101000a81548160ff021916908360ff16021790555060208201518160000160016101000a81548160ff021916908360000b60ff1602179055505050806007016040518060600160405280600060ff168152602001600060ff1681526020016000800b8152509080600181540180825580915050600190039060005260206000200160009091909190915060008201518160000160006101000a81548160ff021916908360ff16021790555060208201518160000160016101000a81548160ff021916908360ff16021790555060408201518160000160026101000a81548160ff021916908360000b60ff1602179055505050806007016040518060600160405280600160ff168152602001600160ff1681526020016000800b8152509080600181540180825580915050600190039060005260206000200160009091909190915060008201518160000160006101000a81548160ff021916908360ff16021790555060208201518160000160016101000a81548160ff021916908360ff16021790555060408201518160000160026101000a81548160ff021916908360000b60ff1602179055505050806007016040518060600160405280600360ff168152602001602860ff1681526020016000800b8152509080600181540180825580915050600190039060005260206000200160009091909190915060008201518160000160006101000a81548160ff021916908360ff16021790555060208201518160000160016101000a81548160ff021916908360ff16021790555060408201518160000160026101000a81548160ff021916908360000b60ff1602179055505050806007016040518060600160405280600360ff168152602001601e60ff1681526020016000800b8152509080600181540180825580915050600190039060005260206000200160009091909190915060008201518160000160006101000a81548160ff021916908360ff16021790555060208201518160000160016101000a81548160ff021916908360ff16021790555060408201518160000160026101000a81548160ff021916908360000b60ff16021790555050505050611054565b600080546001600160a01b038381166001600160a01b0319831681178455604051919092169283917f8be0079c531659141344cd1fd0a4f28419497f9722a3daafe3b4186f6b6457e09190a35050565b82805482825590600052602060002090601f01602090048101928215610fff5791602002820160005b83821115610fd057835183826101000a81548160ff021916908360ff1602179055509260200192600101602081600001049283019260010302610f92565b8015610ffd5782816101000a81549060ff0219169055600101602081600001049283019260010302610fd0565b505b5061100b92915061100f565b5090565b5b8082111561100b5760008155600101611010565b60006020828403121561103657600080fd5b81516001600160a01b038116811461104d57600080fd5b9392505050565b61300a806110636000396000f3fe608060405234801561001057600080fd5b506004361061013e5760003560e01c806303075018146101435780630f0bba001461016257806311fa2bae146101bf5780631d727ba5146101da5780633130f7ce146101ef578063321eed35146101fb5780634792235f1461021b578063670fa22e1461022e578063715018a614610253578063776d62f61461025b5780637e0b245f14610290578063863bea7f146102b05780638da5cb5b146102c35780638e1b4a83146102d8578063a5099bae146102e6578063a89a24f8146102f9578063a89f746514610336578063a918e52114610356578063bbf8218a14610376578063ceb3a61214610389578063d5d233f81461039c578063e197c627146103af578063e7fae625146103c2578063f2fde38b146103d5578063fe367db3146103e8578063ff758d02146103fb575b600080fd5b61014b61040e565b604051610159929190611e23565b60405180910390f35b61019b610170366004611f4c565b60026020526000908152604090205461ffff81169060ff620100008204811691630100000090041683565b6040805161ffff909416845260ff9283166020850152911690820152606001610159565b60035461ffff165b60405161ffff9091168152602001610159565b6101ed6101e83660046120cf565b6107d5565b005b60045461ffff166101c7565b61020e610209366004612265565b610903565b60405161015991906123aa565b6101ed6102293660046125a3565b610a5a565b61024161023c36600461270e565b610ea8565b60405160ff9091168152602001610159565b6101ed610f01565b6004546102749061ffff81169062010000900460ff1682565b6040805161ffff909316835260ff909116602083015201610159565b6102a361029e36600461270e565b610f15565b604051610159919061272b565b6101c76102be366004612a0b565b610f98565b6102cb611200565b6040516101599190612b08565b6003546101c79061ffff1681565b6102416102f4366004612b1c565b61120f565b61019b610307366004611f4c565b61ffff9081166000908152600260205260409020549081169160ff620100008304811692630100000090041690565b610349610344366004612a0b565b611270565b6040516101599190612b35565b61036961036436600461270e565b6115f7565b6040516101599190612b48565b6001546102cb906001600160a01b031681565b61024161039736600461270e565b61168e565b6101ed6103aa366004612b76565b6116e2565b6103496103bd366004612b1c565b61170c565b6103696103d036600461270e565b6117bd565b6101ed6103e3366004612b76565b611802565b6102a36103f636600461270e565b611849565b6101ed610409366004611f4c565b611887565b6000610466604051806101200160405280600061ffff168152602001600060ff168152602001606081526020016060815260200160608152602001606081526020016060815260200160608152602001606081525090565b60048054604080516101208101825261ffff83168082526201000090930460ff166020808301919091526005805484518184028101840186528181529596959394869490860193909291908301828280156104fe57602002820191906000526020600020906000905b825461010083900a900460ff168152602060019283018181049485019490930390920291018084116104cf5790505b505050505081526020016002820180548060200260200160405190810160405280929190818152602001828054801561057457602002820191906000526020600020906000905b825461010083900a900460ff168152602060019283018181049485019490930390920291018084116105455790505b50505050508152602001600382018054806020026020016040519081016040528092919081815260200182805480156105ea57602002820191906000526020600020906000905b825461010083900a900460ff168152602060019283018181049485019490930390920291018084116105bb5790505b505050505081526020016004820180548060200260200160405190810160405280929190818152602001828054801561066057602002820191906000526020600020906000905b825461010083900a900460ff168152602060019283018181049485019490930390920291018084116106315790505b50505050508152602001600582018054806020026020016040519081016040528092919081815260200182805480156106d657602002820191906000526020600020906000905b825461010083900a900460ff168152602060019283018181049485019490930390920291018084116106a75790505b505050505081526020016006820180548060200260200160405190810160405280929190818152602001828054801561074c57602002820191906000526020600020906000905b825461010083900a900460ff1681526020600192830181810494850194909303909202910180841161071d5790505b50505050508152602001600782018054806020026020016040519081016040528092919081815260200182805480156107c257602002820191906000526020600020906000905b825461010083900a900460ff168152602060019283018181049485019490930390920291018084116107935790505b5050505050815250509050915091509091565b6107dd6118a7565b6004805461ffff169060006107f183612ba9565b82546101009290920a61ffff8181021990931691831602179091558251600480546020808701519390941662ffffff19909116176201000060ff909316929092029190911781556040840151805185945091926108549260059290910190611c49565b5060608201518051610870916002840191602090910190611c49565b506080820151805161088c916003840191602090910190611c49565b5060a082015180516108a8916004840191602090910190611c49565b5060c082015180516108c4916005840191602090910190611c49565b5060e082015180516108e0916006840191602090910190611c49565b5061010082015180516108fd916007840191602090910190611c49565b50505050565b6060600082516001600160401b0381111561092057610920611f69565b60405190808252806020026020018201604052801561095957816020015b610946611cef565b81526020019060019003908161093e5790505b50905060005b8351811015610a535760015484516000916001600160a01b031690634025b22d9087908590811061099257610992612bca565b60200260200101516040518263ffffffff1660e01b81526004016109b891815260200190565b600060405180830381865afa1580156109d5573d6000803e3d6000fd5b505050506040513d6000823e601f3d908101601f191682016040526109fd9190810190612e45565b90508060200151600003610a24576040516303c113ad60e61b815260040160405180910390fd5b610a2d81611270565b838381518110610a3f57610a3f612bca565b60209081029190910101525060010161095f565b5092915050565b610a626118a7565b6003805461ffff16906000610a7683612ba9565b91906101000a81548161ffff021916908361ffff160217905550506000600360009054906101000a900461ffff1690506000600260008361ffff1661ffff1681526020019081526020016000209050818160000160006101000a81548161ffff021916908361ffff1602179055508a8160000160026101000a81548160ff021916908360ff160217905550898160000160036101000a81548160ff021916908360ff160217905550806004016000610b2e9190611d3d565b60005b8951811015610bb157816004018a8281518110610b5057610b50612bca565b6020908102919091018101518254600181810185556000948552938390208251910180549383015160409093015160ff908116620100000262ff0000199482166101000261ffff199096169190931617939093179190911617905501610b31565b50610bc0600582016000611d5b565b60005b8851811015610c275781600501898281518110610be257610be2612bca565b602090810291909101810151825460018181018555600094855293839020825191018054929093015160ff9081166101000261ffff1990931691161717905501610bc3565b50610c36600682016000611d5b565b60005b8751811015610c9d5781600601888281518110610c5857610c58612bca565b602090810291909101810151825460018181018555600094855293839020825191018054929093015160ff9081166101000261ffff1990931691161717905501610c39565b50610cac600782016000611d3d565b60005b8651811015610d2f5781600701878281518110610cce57610cce612bca565b6020908102919091018101518254600181810185556000948552938390208251910180549383015160409093015160ff908116620100000262ff0000199482166101000261ffff199096169190931617939093179190911617905501610caf565b50610d3e600182016000611d79565b60005b8551811015610da85781600101868281518110610d6057610d60612bca565b602090810291909101810151825460018181018555600094855293839020928104909201805460ff928316601f9094166101000a938402929093021990921617905501610d41565b50610db7600282016000611d79565b60005b8451811015610e215781600201858281518110610dd957610dd9612bca565b602090810291909101810151825460018181018555600094855293839020928104909201805460ff928316601f9094166101000a938402929093021990921617905501610dba565b50610e30600382016000611d79565b60005b8351811015610e9a5781600301848281518110610e5257610e52612bca565b602090810291909101810151825460018181018555600094855293839020928104909201805460ff928316601f9094166101000a938402929093021990921617905501610e33565b505050505050505050505050565b60035461ffff1660009081526002602052604081206007908101908390811115610ed457610ed4612f4b565b60ff1681548110610ee757610ee7612bca565b600091825260209091200154610100900460ff1692915050565b610f096118a7565b610f1360006118d9565b565b604080518082019091526000808252602082015260035461ffff166000908152600260205260409020600501826007811115610f5357610f53612f4b565b60ff1681548110610f6657610f66612bca565b600091825260208083206040805180820190915292015460ff81168352610100900490920b9181019190915292915050565b60008060046007018360400151606001516007811115610fba57610fba612f4b565b60ff1681548110610fcd57610fcd612bca565b90600052602060002090602091828204019190069054906101000a900460ff166004600601846040015160400151600781111561100c5761100c612f4b565b60ff168154811061101f5761101f612bca565b90600052602060002090602091828204019190069054906101000a900460ff166004600501856040015160200151600781111561105e5761105e612f4b565b60ff168154811061107157611071612bca565b90600052602060002090602091828204019190069054906101000a900460ff166004800186604001516000015160078111156110af576110af612f4b565b60ff16815481106110c2576110c2612bca565b90600052602060002090602091828204019190069054906101000a900460ff166004600301876060015160a0015160ff168154811061110357611103612bca565b90600052602060002090602091828204019190069054906101000a900460ff16600460020188606001516080015160ff168154811061114457611144612bca565b90600052602060002090602091828204019190069054906101000a900460ff16600460010189606001516060015160ff168154811061118557611185612bca565b6000918252602091829020918104909101546004546111ba92601f166101000a90910460ff9081169162010000900416612f61565b6111c49190612f61565b6111ce9190612f61565b6111d89190612f61565b6111e29190612f61565b6111ec9190612f61565b6111f69190612f61565b60ff169392505050565b6000546001600160a01b031690565b60006103e8821061122257506006919050565b61012c821061123357506005919050565b6064821061124357506004919050565b601e821061125357506003919050565b600a821061126357506002919050565b506001919050565b919050565b611278611cef565b816020015160000361129d576040516303c113ad60e61b815260040160405180910390fd5b60006112b683608001516000015163ffffffff1661120f565b905060008160ff166001036112cd57506000611328565b8160ff166002036112e05750600a611328565b8160ff166003036112f357506014611328565b8160ff166004036113065750601e611328565b8160ff1660050361131957506028611328565b60068260ff1610611328575060325b611330611cef565b60035461ffff16808252600090815260026020526040908190209086015151600490910190600781111561136657611366612f4b565b60ff168154811061137957611379612bca565b600091825260208083209091015460ff9081169184018290526064916113a191861690612f7a565b6113ab9190612f91565b905080826020018181516113bf9190612f61565b60ff90811690915260035461ffff16600090815260026020526040812060608a81015101516001909101805492945092169081106113ff576113ff612bca565b600091825260209182902082820401549185015160ff601f9092166101000a9092048116925060649161143491849116612f7a565b61143e9190612f91565b915081836020018181516114529190612f61565b60ff1690525060035461ffff16600090815260026020526040908190209088015151600490910190600781111561148b5761148b612f4b565b60ff168154811061149e5761149e612bca565b60009182526020909120015460ff6101009091048116604085018190526064916114cb9190871690612f7a565b6114d59190612f91565b915081836040018181516114e99190612f61565b60ff169052506114f887611929565b60ff908116606085018190526064916115149190871690612f7a565b61151e9190612f91565b915081836060018181516115329190612f61565b60ff90811690915260608501511660808501525061154f876119a8565b60ff90811660a0850181905260649161156b9190871690612f7a565b6115759190612f91565b9150818360a0018181516115899190612f61565b60ff1690525061159887611b91565b60ff90811660c085018190526064916115b49190871690612f7a565b6115be9190612f91565b9150818360c0018181516115d29190612f61565b60ff169052505060408051600081526020810190915261010083015250949350505050565b604080516060810182526000808252602080830182905282840182905260035461ffff168252600290529190912060040182600781111561163a5761163a612f4b565b60ff168154811061164d5761164d612bca565b6000918252602080832060408051606081018252919093015460ff8082168352610100820416928201929092526201000090910490920b9082015292915050565b60035461ffff16600090815260026020526040812060079081019083908111156116ba576116ba612f4b565b60ff16815481106116cd576116cd612bca565b60009182526020909120015460ff1692915050565b6116ea6118a7565b600180546001600160a01b0319166001600160a01b0392909216919091179055565b611714611cef565b600154604051634025b22d60e01b8152600481018490526000916001600160a01b031690634025b22d90602401600060405180830381865afa15801561175e573d6000803e3d6000fd5b505050506040513d6000823e601f3d908101601f191682016040526117869190810190612e45565b905080602001516000036117ad576040516303c113ad60e61b815260040160405180910390fd5b6117b681611270565b9392505050565b604080516060810182526000808252602080830182905282840182905260035461ffff1682526002905291909120600790810190839081111561163a5761163a612f4b565b61180a6118a7565b6001600160a01b03811661183d576000604051631e4fbdf760e01b81526004016118349190612b08565b60405180910390fd5b611846816118d9565b50565b604080518082019091526000808252602082015260035461ffff166000908152600260205260409020600601826007811115610f5357610f53612f4b565b61188f6118a7565b6003805461ffff191661ffff92909216919091179055565b336118b0611200565b6001600160a01b031614610f13573360405163118cdaa760e01b81526004016118349190612b08565b600080546001600160a01b038381166001600160a01b0319831681178455604051919092169283917f8be0079c531659141344cd1fd0a4f28419497f9722a3daafe3b4186f6b6457e09190a35050565b60035461ffff166000908152600260208190526040822080546060850151608001519282018054929360ff6201000090930483169386939190911690811061197357611973612bca565b60009182526020918290209181049091015460ff601f9092166101000a900416905061199f8183612f61565b95945050505050565b6003805461ffff1660009081526002602052604081208054606085015160a00151938201805493949293630100000090920460ff90811693919291169081106119f3576119f3612bca565b90600052602060002090602091828204019190069054906101000a900460ff1681611a1e9190612fb3565b90506000826004018560400151600001516007811115611a4057611a40612f4b565b60ff1681548110611a5357611a53612bca565b9060005260206000200160000160029054906101000a900460000b90506000836005018660400151602001516007811115611a9057611a90612f4b565b60ff1681548110611aa357611aa3612bca565b60009182526020822001546040808901510151610100909104820b925060068601906007811115611ad657611ad6612f4b565b60ff1681548110611ae957611ae9612bca565b6000918252602082200154604089015160600151610100909104820b925060078088019190811115611b1d57611b1d612f4b565b60ff1681548110611b3057611b30612bca565b6000918252602082200154620100009004900b90508082611b518587612fb3565b611b5b9190612fb3565b611b659190612fb3565b611b6f9086612fb3565b945060008560000b13611b83576000611b85565b845b98975050505050505050565b60035461ffff1660009081526002602090815260408083209084015190910151829060058301906007811115611bc957611bc9612f4b565b60ff1681548110611bdc57611bdc612bca565b600091825260209091200154611bf59060ff1682612f61565b9050816006018460400151604001516007811115611c1557611c15612f4b565b60ff1681548110611c2857611c28612bca565b600091825260209091200154611c419060ff1682612f61565b949350505050565b82805482825590600052602060002090601f01602090048101928215611cdf5791602002820160005b83821115611cb057835183826101000a81548160ff021916908360ff1602179055509260200192600101602081600001049283019260010302611c72565b8015611cdd5782816101000a81549060ff0219169055600101602081600001049283019260010302611cb0565b505b50611ceb929150611d9a565b5090565b604080516101208101825260008082526020820181905291810182905260608082018390526080820183905260a0820183905260c0820183905260e082019290925261010081019190915290565b50805460008255906000526020600020908101906118469190611daf565b50805460008255906000526020600020908101906118469190611dca565b50805460008255601f01602090049060005260206000209081019061184691905b5b80821115611ceb5760008155600101611d9b565b5b80821115611ceb57805462ffffff19168155600101611db0565b5b80821115611ceb57805461ffff19168155600101611dcb565b600081518084526020840193506020830160005b82811015611e1957815160ff16865260209586019590910190600101611df8565b5093949350505050565b82815260406020820152611e3e60408201835161ffff169052565b60006020830151611e54606084018260ff169052565b5060408301516101206080840152611e70610160840182611de4565b90506060840151603f198483030160a0850152611e8d8282611de4565b9150506080840151603f198483030160c0850152611eab8282611de4565b91505060a0840151603f198483030160e0850152611ec98282611de4565b91505060c0840151603f1984830301610100850152611ee88282611de4565b91505060e0840151603f1984830301610120850152611f078282611de4565b915050610100840151603f1984830301610140850152611f278282611de4565b9695505050505050565b61ffff8116811461184657600080fd5b803561126b81611f31565b600060208284031215611f5e57600080fd5b81356117b681611f31565b634e487b7160e01b600052604160045260246000fd5b60405161012081016001600160401b0381118282101715611fa257611fa2611f69565b60405290565b604051608081016001600160401b0381118282101715611fa257611fa2611f69565b60405160c081016001600160401b0381118282101715611fa257611fa2611f69565b604051601f8201601f191681016001600160401b038111828210171561201457612014611f69565b604052919050565b60ff8116811461184657600080fd5b803561126b8161201c565b60006001600160401b0382111561204f5761204f611f69565b5060051b60200190565b600082601f83011261206a57600080fd5b813561207d61207882612036565b611fec565b8082825260208201915060208360051b86010192508583111561209f57600080fd5b602085015b838110156120c55780356120b78161201c565b8352602092830192016120a4565b5095945050505050565b6000602082840312156120e157600080fd5b81356001600160401b038111156120f757600080fd5b8201610120818503121561210a57600080fd5b612112611f7f565b61211b82611f41565b81526121296020830161202b565b602082015260408201356001600160401b0381111561214757600080fd5b61215386828501612059565b60408301525060608201356001600160401b0381111561217257600080fd5b61217e86828501612059565b60608301525060808201356001600160401b0381111561219d57600080fd5b6121a986828501612059565b60808301525060a08201356001600160401b038111156121c857600080fd5b6121d486828501612059565b60a08301525060c08201356001600160401b038111156121f357600080fd5b6121ff86828501612059565b60c08301525060e08201356001600160401b0381111561221e57600080fd5b61222a86828501612059565b60e0830152506101008201356001600160401b0381111561224a57600080fd5b61225686828501612059565b61010083015250949350505050565b60006020828403121561227757600080fd5b81356001600160401b0381111561228d57600080fd5b8201601f8101841361229e57600080fd5b80356122ac61207882612036565b8082825260208201915060208360051b8501019250868311156122ce57600080fd5b6020840193505b82841015611f275783358252602093840193909101906122d5565b805161ffff1682526000602082015161230e602085018260ff169052565b506040820151612323604085018260ff169052565b506060820151612338606085018260ff169052565b50608082015161234d608085018260ff169052565b5060a082015161236260a085018260ff169052565b5060c082015161237760c085018260ff169052565b5060e082015161238c60e085018260ff169052565b50610100820151610120610100850152611c41610120850182611de4565b6000602082016020835280845180835260408501915060408160051b86010192506020860160005b8281101561240357603f198786030184526123ee8583516122f0565b945060209384019391909101906001016123d2565b50929695505050505050565b8035600081900b811461126b57600080fd5b600082601f83011261243257600080fd5b813560208301600061244661207884612036565b83815260609093028201929050602081018684111561246457600080fd5b838310156120c55760006060848903121561247d578081fd5b604051606081016001600160401b038111828210171561249f5761249f611f69565b604052843591506124af8261201c565b9081526020840135906124c18261201c565b8160208201526124d36040860161240f565b604082015282525060609290920191602001612464565b600082601f8301126124fb57600080fd5b813560208301600061250f61207884612036565b83815260069390931b8201929050602081018684111561252e57600080fd5b838310156120c557600060408489031215612547578081fd5b604080519081016001600160401b038111828210171561256957612569611f69565b604052843591506125798261201c565b8181526125886020860161240f565b6020820152808352505060208101905060408301925061252e565b60008060008060008060008060006101208a8c0312156125c257600080fd5b6125cb8a61202b565b98506125d960208b0161202b565b975060408a01356001600160401b038111156125f457600080fd5b6126008c828d01612421565b97505060608a01356001600160401b0381111561261c57600080fd5b6126288c828d016124ea565b96505060808a01356001600160401b0381111561264457600080fd5b6126508c828d016124ea565b95505060a08a01356001600160401b0381111561266c57600080fd5b6126788c828d01612421565b94505060c08a01356001600160401b0381111561269457600080fd5b6126a08c828d01612059565b93505060e08a01356001600160401b038111156126bc57600080fd5b6126c88c828d01612059565b9250506101008a01356001600160401b038111156126e557600080fd5b6126f18c828d01612059565b9150509295985092959850929598565b6008811061184657600080fd5b60006020828403121561272057600080fd5b81356117b681612701565b815160ff16815260208083015160000b90820152604081015b92915050565b60006001600160401b0382111561276357612763611f69565b50601f01601f191660200190565b60006080828403121561278357600080fd5b61278b611fa8565b9050813561279881612701565b815260208201356127a881612701565b602082015260408201356127bb81612701565b604082015260608201356127ce81612701565b606082015292915050565b60008183036101c08112156127ed57600080fd5b6127f5611fca565b833581529150610120601f198201121561280e57600080fd5b50612817611f7f565b61282360208401611f41565b81526128316040840161202b565b60208201526128426060840161202b565b604082015261285360808401611f41565b606082015261286460a0840161202b565b608082015261287560c0840161202b565b60a082015261288660e08401611f41565b60c0820152612898610100840161202b565b60e08201526128aa610120840161202b565b61010082015260208201526128c26101408301611f41565b60408201526128d4610160830161202b565b60608201526128e6610180830161202b565b60808201526128f86101a0830161202b565b60a082015292915050565b63ffffffff8116811461184657600080fd5b803561126b81612903565b801515811461184657600080fd5b803561126b81612920565b6000610120828403121561294c57600080fd5b612954611f7f565b905061295f82612915565b815261296d60208301611f41565b602082015261297e60408301611f41565b604082015261298f60608301611f41565b60608201526129a06080830161292e565b60808201526129b160a0830161292e565b60a08201526129c260c0830161292e565b60c08201526129d360e0830161292e565b60e08201526101009182013591810191909152919050565b6001600160a01b038116811461184657600080fd5b803561126b816129eb565b600060208284031215612a1d57600080fd5b81356001600160401b03811115612a3357600080fd5b82016103c08185031215612a4657600080fd5b612a4e611fca565b81356001600160401b03811115612a6457600080fd5b8201601f81018613612a7557600080fd5b8035612a836120788261274a565b818152876020838501011115612a9857600080fd5b81602084016020830137600060209282018301528352838101359083015250612ac48560408401612771565b6040820152612ad68560c084016127d9565b6060820152612ae9856102808401612939565b6080820152612afb6103a08301612a00565b60a0820152949350505050565b6001600160a01b0391909116815260200190565b600060208284031215612b2e57600080fd5b5035919050565b6020815260006117b660208301846122f0565b60608101612744828460ff815116825260ff6020820151166020830152604081015160000b60408301525050565b600060208284031215612b8857600080fd5b81356117b6816129eb565b634e487b7160e01b600052601160045260246000fd5b600061ffff821661ffff8103612bc157612bc1612b93565b60010192915050565b634e487b7160e01b600052603260045260246000fd5b600060808284031215612bf257600080fd5b612bfa611fa8565b90508151612c0781612701565b81526020820151612c1781612701565b60208201526040820151612c2a81612701565b604082015260608201516127ce81612701565b805161126b81611f31565b805161126b8161201c565b60008183036101c0811215612c6757600080fd5b612c6f611fca565b835181529150610120601f1982011215612c8857600080fd5b50612c91611f7f565b612c9d60208401612c3d565b8152612cab60408401612c48565b6020820152612cbc60608401612c48565b6040820152612ccd60808401612c3d565b6060820152612cde60a08401612c48565b6080820152612cef60c08401612c48565b60a0820152612d0060e08401612c3d565b60c0820152612d126101008401612c48565b60e0820152612d246101208401612c48565b6101008201526020820152612d3c6101408301612c3d565b6040820152612d4e6101608301612c48565b6060820152612d606101808301612c48565b60808201526128f86101a08301612c48565b805161126b81612903565b805161126b81612920565b60006101208284031215612d9b57600080fd5b612da3611f7f565b9050612dae82612d72565b8152612dbc60208301612c3d565b6020820152612dcd60408301612c3d565b6040820152612dde60608301612c3d565b6060820152612def60808301612d7d565b6080820152612e0060a08301612d7d565b60a0820152612e1160c08301612d7d565b60c0820152612e2260e08301612d7d565b60e08201526101009182015191810191909152919050565b805161126b816129eb565b600060208284031215612e5757600080fd5b81516001600160401b03811115612e6d57600080fd5b82016103c08185031215612e8057600080fd5b612e88611fca565b81516001600160401b03811115612e9e57600080fd5b8201601f81018613612eaf57600080fd5b8051612ebd6120788261274a565b818152876020838501011115612ed257600080fd5b60005b82811015612ef157602081850181015183830182015201612ed5565b50600060209282018301528352838101519083015250612f148560408401612be0565b6040820152612f268560c08401612c53565b6060820152612f39856102808401612d88565b6080820152612afb6103a08301612e3a565b634e487b7160e01b600052602160045260246000fd5b60ff818116838216019081111561274457612744612b93565b808202811582820484141761274457612744612b93565b600082612fae57634e487b7160e01b600052601260045260246000fd5b500490565b600081810b9083900b01607f8113607f198212171561274457612744612b9356fea264697066735822122021c4b0d1e7589f2a6d1212f54bbe8e6048d68afeffdce20ff38e740753f2d9f164736f6c634300081c0033",
  "linkReferences": {},
  "deployedLinkReferences": {}
}