{
  "_format": "hh-sol-artifact-1",
  "contractName": "Fleets",
  "sourceName": "contracts/Fleets.sol",
  "abi": [
    {
      "inputs": [
        {
          "internalType": "address",
          "name": "_ships",
          "type": "address"
        }
      ],
      "stateMutability": "nonpayable",
      "type": "constructor"
    },
    {
      "inputs": [],
      "name": "FleetNotFound",
      "type": "error"
    },
    {
      "inputs": [],
      "name": "InvalidFleetCost",
      "type": "error"
    },
    {
      "inputs": [],
      "name": "NotLobbiesContract",
      "type": "error"
    },
    {
      "inputs": [
        {
          "internalType": "address",
          "name": "owner",
          "type": "address"
        }
      ],
      "name": "OwnableInvalidOwner",
      "type": "error"
    },
    {
      "inputs": [
        {
          "internalType": "address",
          "name": "account",
          "type": "address"
        }
      ],
      "name": "OwnableUnauthorizedAccount",
      "type": "error"
    },
    {
      "inputs": [],
      "name": "ShipAlreadyInFleet",
      "type": "error"
    },
    {
      "inputs": [],
      "name": "ShipCostVersionMismatch",
      "type": "error"
    },
    {
      "inputs": [],
      "name": "ShipNotFound",
      "type": "error"
    },
    {
      "inputs": [],
      "name": "ShipNotOwned",
      "type": "error"
    },
    {
      "anonymous": false,
      "inputs": [
        {
          "indexed": true,
          "internalType": "uint256",
          "name": "fleetId",
          "type": "uint256"
        }
      ],
      "name": "FleetCleared",
      "type": "event"
    },
    {
      "anonymous": false,
      "inputs": [
        {
          "indexed": true,
          "internalType": "uint256",
          "name": "fleetId",
          "type": "uint256"
        },
        {
          "indexed": true,
          "internalType": "uint256",
          "name": "lobbyId",
          "type": "uint256"
        },
        {
          "indexed": true,
          "internalType": "address",
          "name": "owner",
          "type": "address"
        }
      ],
      "name": "FleetCreated",
      "type": "event"
    },
    {
      "anonymous": false,
      "inputs": [
        {
          "indexed": true,
          "internalType": "address",
          "name": "previousOwner",
          "type": "address"
        },
        {
          "indexed": true,
          "internalType": "address",
          "name": "newOwner",
          "type": "address"
        }
      ],
      "name": "OwnershipTransferred",
      "type": "event"
    },
    {
      "inputs": [
        {
          "internalType": "uint256",
          "name": "_fleetId",
          "type": "uint256"
        }
      ],
      "name": "clearFleet",
      "outputs": [],
      "stateMutability": "nonpayable",
      "type": "function"
    },
    {
      "inputs": [
        {
          "internalType": "uint256",
          "name": "_lobbyId",
          "type": "uint256"
        },
        {
          "internalType": "address",
          "name": "_owner",
          "type": "address"
        },
        {
          "internalType": "uint256[]",
          "name": "_shipIds",
          "type": "uint256[]"
        },
        {
          "internalType": "uint256",
          "name": "_costLimit",
          "type": "uint256"
        }
      ],
      "name": "createFleet",
      "outputs": [
        {
          "internalType": "uint256",
          "name": "",
          "type": "uint256"
        }
      ],
      "stateMutability": "nonpayable",
      "type": "function"
    },
    {
      "inputs": [],
      "name": "fleetCount",
      "outputs": [
        {
          "internalType": "uint256",
          "name": "",
          "type": "uint256"
        }
      ],
      "stateMutability": "view",
      "type": "function"
    },
    {
      "inputs": [
        {
          "internalType": "uint256",
          "name": "",
          "type": "uint256"
        }
      ],
      "name": "fleets",
      "outputs": [
        {
          "internalType": "uint256",
          "name": "id",
          "type": "uint256"
        },
        {
          "internalType": "uint256",
          "name": "lobbyId",
          "type": "uint256"
        },
        {
          "internalType": "address",
          "name": "owner",
          "type": "address"
        },
        {
          "internalType": "uint256",
          "name": "totalCost",
          "type": "uint256"
        },
        {
          "internalType": "bool",
          "name": "isComplete",
          "type": "bool"
        }
      ],
      "stateMutability": "view",
      "type": "function"
    },
    {
      "inputs": [],
      "name": "gameAddress",
      "outputs": [
        {
          "internalType": "address",
          "name": "",
          "type": "address"
        }
      ],
      "stateMutability": "view",
      "type": "function"
    },
    {
      "inputs": [
        {
          "internalType": "uint256",
          "name": "_fleetId",
          "type": "uint256"
        }
      ],
      "name": "getFleet",
      "outputs": [
        {
          "components": [
            {
              "internalType": "uint256",
              "name": "id",
              "type": "uint256"
            },
            {
              "internalType": "uint256",
              "name": "lobbyId",
              "type": "uint256"
            },
            {
              "internalType": "address",
              "name": "owner",
              "type": "address"
            },
            {
              "internalType": "uint256[]",
              "name": "shipIds",
              "type": "uint256[]"
            },
            {
              "internalType": "uint256",
              "name": "totalCost",
              "type": "uint256"
            },
            {
              "internalType": "bool",
              "name": "isComplete",
              "type": "bool"
            }
          ],
          "internalType": "struct Fleet",
          "name": "",
          "type": "tuple"
        }
      ],
      "stateMutability": "view",
      "type": "function"
    },
    {
      "inputs": [
        {
          "internalType": "uint256",
          "name": "_fleetId",
          "type": "uint256"
        }
      ],
      "name": "getFleetShipIds",
      "outputs": [
        {
          "internalType": "uint256[]",
          "name": "",
          "type": "uint256[]"
        }
      ],
      "stateMutability": "view",
      "type": "function"
    },
    {
      "inputs": [
        {
          "internalType": "uint256",
          "name": "_fleetId",
          "type": "uint256"
        },
        {
          "internalType": "uint256",
          "name": "_shipId",
          "type": "uint256"
        }
      ],
      "name": "isShipInFleet",
      "outputs": [
        {
          "internalType": "bool",
          "name": "",
          "type": "bool"
        }
      ],
      "stateMutability": "view",
      "type": "function"
    },
    {
      "inputs": [],
      "name": "lobbiesAddress",
      "outputs": [
        {
          "internalType": "address",
          "name": "",
          "type": "address"
        }
      ],
      "stateMutability": "view",
      "type": "function"
    },
    {
      "inputs": [],
      "name": "owner",
      "outputs": [
        {
          "internalType": "address",
          "name": "",
          "type": "address"
        }
      ],
      "stateMutability": "view",
      "type": "function"
    },
    {
      "inputs": [
        {
          "internalType": "uint256",
          "name": "_fleetId",
          "type": "uint256"
        },
        {
          "internalType": "uint256",
          "name": "_shipId",
          "type": "uint256"
        }
      ],
      "name": "removeShipFromFleet",
      "outputs": [],
      "stateMutability": "nonpayable",
      "type": "function"
    },
    {
      "inputs": [],
      "name": "renounceOwnership",
      "outputs": [],
      "stateMutability": "nonpayable",
      "type": "function"
    },
    {
      "inputs": [
        {
          "internalType": "address",
          "name": "_gameAddress",
          "type": "address"
        }
      ],
      "name": "setGameAddress",
      "outputs": [],
      "stateMutability": "nonpayable",
      "type": "function"
    },
    {
      "inputs": [
        {
          "internalType": "address",
          "name": "_lobbiesAddress",
          "type": "address"
        }
      ],
      "name": "setLobbiesAddress",
      "outputs": [],
      "stateMutability": "nonpayable",
      "type": "function"
    },
    {
      "inputs": [],
      "name": "ships",
      "outputs": [
        {
          "internalType": "contract Ships",
          "name": "",
          "type": "address"
        }
      ],
      "stateMutability": "view",
      "type": "function"
    },
    {
      "inputs": [
        {
          "internalType": "address",
          "name": "newOwner",
          "type": "address"
        }
      ],
      "name": "transferOwnership",
      "outputs": [],
      "stateMutability": "nonpayable",
      "type": "function"
    }
  ],
  "bytecode": "0x608060405234801561001057600080fd5b5060405161168438038061168483398101604081905261002f916100d4565b338061005557604051631e4fbdf760e01b81526000600482015260240160405180910390fd5b61005e81610084565b50600180546001600160a01b0319166001600160a01b0392909216919091179055610104565b600080546001600160a01b038381166001600160a01b0319831681178455604051919092169283917f8be0079c531659141344cd1fd0a4f28419497f9722a3daafe3b4186f6b6457e09190a35050565b6000602082840312156100e657600080fd5b81516001600160a01b03811681146100fd57600080fd5b9392505050565b611571806101136000396000f3fe608060405234801561001057600080fd5b50600436106101005760003560e01c806399c5384e11610097578063eab56f7e11610066578063eab56f7e1461028c578063f2bf13b01461029f578063f2fde38b146102b2578063f9740c75146102c557600080fd5b806399c5384e146101c3578063a168d873146101e3578063b8b4b173146101f6578063bbf8218a1461027957600080fd5b80634f245eda116100d35780634f245eda1461018e578063711953ef14610197578063715018a6146101aa5780638da5cb5b146101b257600080fd5b806316bc82201461010557806327ffe5211461012d578063336d7d7b1461014257806339b0d5b21461016d575b600080fd5b610118610113366004610e87565b6102e5565b60405190151581526020015b60405180910390f35b61014061013b366004610e87565b610414565b005b600254610155906001600160a01b031681565b6040516001600160a01b039091168152602001610124565b61018061017b366004610ebe565b610680565b604051908152602001610124565b61018060055481565b6101406101a5366004610f55565b6109e8565b610140610a12565b6000546001600160a01b0316610155565b6101d66101d1366004610f79565b610a26565b6040516101249190610f92565b600354610155906001600160a01b031681565b610241610204366004610f79565b600460208190526000918252604090912080546001820154600283015493830154600590930154919390926001600160a01b039091169160ff1685565b6040805195865260208601949094526001600160a01b039092169284019290925260608301919091521515608082015260a001610124565b600154610155906001600160a01b031681565b61014061029a366004610f55565b610ab9565b6101406102ad366004610f79565b610ae3565b6101406102c0366004610f55565b610c2a565b6102d86102d3366004610f79565b610c6d565b6040516101249190610fd5565b600082815260046020526040812054810361031357604051631524e51160e01b815260040160405180910390fd5b6000838152600460209081526040808320815160c0810183528154815260018201548185015260028201546001600160a01b03168184015260038201805484518187028101870190955280855291949293606086019390929083018282801561039b57602002820191906000526020600020905b815481526020019060010190808311610387575b50505091835250506004820154602082015260059091015460ff161515604090910152905060005b8160600151518110156104075783826060015182815181106103e7576103e7611072565b6020026020010151036103ff5760019250505061040e565b6001016103c3565b5060009150505b92915050565b6002546001600160a01b0316331480159061043a57506003546001600160a01b03163314155b1561045857604051638671306560e01b815260040160405180910390fd5b6000828152600460205260408120805490910361048857604051631524e51160e01b815260040160405180910390fd5b60005b600382015481101561066657828260030182815481106104ad576104ad611072565b90600052602060002001540361065e57805b60038301546104d09060019061109e565b81101561052a57600383016104e68260016110b1565b815481106104f6576104f6611072565b906000526020600020015483600301828154811061051657610516611072565b6000918252602090912001556001016104bf565b508160030180548061053e5761053e6110c4565b6000828152602081206000199083018101829055909101909155600154604051637eebe99d60e01b81526004810186905260248101929092526001600160a01b031690637eebe99d90604401600060405180830381600087803b1580156105a457600080fd5b505af11580156105b8573d6000803e3d6000fd5b5050600154604051634025b22d60e01b815260048101879052600093506001600160a01b039091169150634025b22d90602401600060405180830381865afa158015610608573d6000803e3d6000fd5b505050506040513d6000823e601f3d908101601f1916820160405261063091908101906113d3565b905080608001516040015161ffff16836004016000828254610652919061109e565b90915550505050505050565b60010161048b565b506040516303c113ad60e61b815260040160405180910390fd5b6002546000906001600160a01b031633146106ae57604051638671306560e01b815260040160405180910390fd5b60058054600091826106bf83611507565b90915550506005546000818152600460205260409020818155600181018990556002810180546001600160a01b0319166001600160a01b038a1617905561070a600382018888610e0d565b5060005b868110156108d157600088888381811061072a5761072a611072565b600154604051634025b22d60e01b815260209290920293909301356004820181905293506000926001600160a01b03169150634025b22d90602401600060405180830381865afa158015610782573d6000803e3d6000fd5b505050506040513d6000823e601f3d908101601f191682016040526107aa91908101906113d3565b90508a6001600160a01b03168160a001516001600160a01b0316146107e257604051630b18e5d760e21b815260040160405180910390fd5b806080015160a00151156108085760405162f2f12360e21b815260040160405180910390fd5b600160009054906101000a90046001600160a01b03166001600160a01b0316633130f7ce6040518163ffffffff1660e01b8152600401602060405180830381865afa15801561085b573d6000803e3d6000fd5b505050506040513d601f19601f8201168201806040525081019061087f9190611520565b61ffff1681608001516020015161ffff16146108ae5760405163524ca82960e11b815260040160405180910390fd5b6080810151604001516108c59061ffff16876110b1565b9550505060010161070e565b50848311156108f357604051639451e34760e01b815260040160405180910390fd5b6004810183905560058101805460ff1916600117905560005b868110156109a3576001546001600160a01b0316637eebe99d89898481811061093757610937611072565b6040516001600160e01b031960e086901b1681526020909102929092013560048301525060016024820152604401600060405180830381600087803b15801561097f57600080fd5b505af1158015610993573d6000803e3d6000fd5b50506001909201915061090c9050565b50876001600160a01b031689837fc230eb2bb5e08173bc7b7883549c1a71bce5365714bd5bf519f908239dbe801060405160405180910390a450979650505050505050565b6109f0610d90565b600380546001600160a01b0319166001600160a01b0392909216919091179055565b610a1a610d90565b610a246000610dbd565b565b60008181526004602052604081205460609103610a5657604051631524e51160e01b815260040160405180910390fd5b60008281526004602090815260409182902060030180548351818402810184019094528084529091830182828015610aad57602002820191906000526020600020905b815481526020019060010190808311610a99575b50505050509050919050565b610ac1610d90565b600280546001600160a01b0319166001600160a01b0392909216919091179055565b6002546001600160a01b03163314610b0e57604051638671306560e01b815260040160405180910390fd5b60008181526004602052604081208054909103610b3e57604051631524e51160e01b815260040160405180910390fd5b60005b6003820154811015610bec576001546003830180546001600160a01b0390921691637eebe99d919084908110610b7957610b79611072565b906000526020600020015460006040518363ffffffff1660e01b8152600401610bae9291909182521515602082015260400190565b600060405180830381600087803b158015610bc857600080fd5b505af1158015610bdc573d6000803e3d6000fd5b505060019092019150610b419050565b50610bfb600382016000610e58565b60405182907f9ff71619d0e9826e43962fb25978600608f9e12936460c6181abde88a4fdbcfc90600090a25050565b610c32610d90565b6001600160a01b038116610c6157604051631e4fbdf760e01b8152600060048201526024015b60405180910390fd5b610c6a81610dbd565b50565b610cb16040518060c00160405280600081526020016000815260200160006001600160a01b0316815260200160608152602001600081526020016000151581525090565b6000828152600460205260408120549003610cdf57604051631524e51160e01b815260040160405180910390fd5b600082815260046020908152604091829020825160c0810184528154815260018201548184015260028201546001600160a01b0316818501526003820180548551818602810186019096528086529194929360608601939290830182828015610d6757602002820191906000526020600020905b815481526020019060010190808311610d53575b50505091835250506004820154602082015260059091015460ff16151560409091015292915050565b6000546001600160a01b03163314610a245760405163118cdaa760e01b8152336004820152602401610c58565b600080546001600160a01b038381166001600160a01b0319831681178455604051919092169283917f8be0079c531659141344cd1fd0a4f28419497f9722a3daafe3b4186f6b6457e09190a35050565b828054828255906000526020600020908101928215610e48579160200282015b82811115610e48578235825591602001919060010190610e2d565b50610e54929150610e72565b5090565b5080546000825590600052602060002090810190610c6a91905b5b80821115610e545760008155600101610e73565b60008060408385031215610e9a57600080fd5b50508035926020909101359150565b6001600160a01b0381168114610c6a57600080fd5b600080600080600060808688031215610ed657600080fd5b853594506020860135610ee881610ea9565b9350604086013567ffffffffffffffff811115610f0457600080fd5b8601601f81018813610f1557600080fd5b803567ffffffffffffffff811115610f2c57600080fd5b8860208260051b8401011115610f4157600080fd5b959894975060200195606001359392505050565b600060208284031215610f6757600080fd5b8135610f7281610ea9565b9392505050565b600060208284031215610f8b57600080fd5b5035919050565b602080825282518282018190526000918401906040840190835b81811015610fca578351835260209384019390920191600101610fac565b509095945050505050565b60208152600060e08201835160208401526020840151604084015260018060a01b036040850151166060840152606084015160c0608085015281815180845261010086019150602083019350600092505b808310156110495783518252602082019150602084019350600183019250611026565b50608086015160a086015260a0860151925061106960c086018415159052565b95945050505050565b634e487b7160e01b600052603260045260246000fd5b634e487b7160e01b600052601160045260246000fd5b8181038181111561040e5761040e611088565b8082018082111561040e5761040e611088565b634e487b7160e01b600052603160045260246000fd5b634e487b7160e01b600052604160045260246000fd5b60405160c0810167ffffffffffffffff81118282101715611113576111136110da565b60405290565b60405160e0810167ffffffffffffffff81118282101715611113576111136110da565b604051601f8201601f1916810167ffffffffffffffff81118282101715611165576111656110da565b604052919050565b60048110610c6a57600080fd5b60006080828403121561118c57600080fd5b6040516080810167ffffffffffffffff811182821017156111af576111af6110da565b806040525080915082516111c28161116d565b815260208301516111d28161116d565b602082015260408301516111e58161116d565b604082015260608301516111f88161116d565b6060919091015292915050565b805161ffff8116811461121757600080fd5b919050565b805160ff8116811461121757600080fd5b600081830361016081121561124157600080fd5b6112496110f0565b83518152915060c0601f198201121561126157600080fd5b5061126a6110f0565b61127660208401611205565b81526112846040840161121c565b60208201526112956060840161121c565b60408201526112a660808401611205565b60608201526112b760a0840161121c565b60808201526112c860c0840161121c565b60a082015260208201526112de60e0830161121c565b60408201526112f0610100830161121c565b6060820152611302610120830161121c565b6080820152611314610140830161121c565b60a082015292915050565b8051801515811461121757600080fd5b600060e0828403121561134157600080fd5b611349611119565b9050815163ffffffff8116811461135f57600080fd5b815261136d60208301611205565b602082015261137e60408301611205565b604082015261138f6060830161131f565b60608201526113a06080830161131f565b60808201526113b160a0830161131f565b60a082015260c09182015191810191909152919050565b805161121781610ea9565b6000602082840312156113e557600080fd5b815167ffffffffffffffff8111156113fc57600080fd5b8201610320818503121561140f57600080fd5b6114176110f0565b815167ffffffffffffffff81111561142e57600080fd5b8201601f8101861361143f57600080fd5b805167ffffffffffffffff811115611459576114596110da565b61146c601f8201601f191660200161113c565b81815287602083850101111561148157600080fd5b60005b828110156114a057602081850181015183830182015201611484565b506000602092820183015283528381015190830152506114c3856040840161117a565b60408201526114d58560c0840161122d565b60608201526114e885610220840161132f565b60808201526114fa61030083016113c8565b60a0820152949350505050565b60006001820161151957611519611088565b5060010190565b60006020828403121561153257600080fd5b610f728261120556fea26469706673582212201741b3b067f8da6883ea04ec3effd62ad1de993334992857f6a39963fb2586a864736f6c634300081c0033",
  "linkReferences": {},
  "deployedLinkReferences": {}
}