{
  "_format": "hh-sol-artifact-1",
  "contractName": "ShipAttributes",
  "sourceName": "contracts/ShipAttributes.sol",
  "abi": [
    {
      "inputs": [
        {
          "internalType": "address",
          "name": "_ships",
          "type": "address"
        }
      ],
      "stateMutability": "nonpayable",
      "type": "constructor"
    },
    {
      "inputs": [],
      "name": "InvalidAttributesVersion",
      "type": "error"
    },
    {
      "inputs": [
        {
          "internalType": "address",
          "name": "owner",
          "type": "address"
        }
      ],
      "name": "OwnableInvalidOwner",
      "type": "error"
    },
    {
      "inputs": [
        {
          "internalType": "address",
          "name": "account",
          "type": "address"
        }
      ],
      "name": "OwnableUnauthorizedAccount",
      "type": "error"
    },
    {
      "inputs": [],
      "name": "ShipNotFound",
      "type": "error"
    },
    {
      "anonymous": false,
      "inputs": [
        {
          "indexed": true,
          "internalType": "address",
          "name": "previousOwner",
          "type": "address"
        },
        {
          "indexed": true,
          "internalType": "address",
          "name": "newOwner",
          "type": "address"
        }
      ],
      "name": "OwnershipTransferred",
      "type": "event"
    },
    {
      "inputs": [
        {
          "internalType": "uint16",
          "name": "",
          "type": "uint16"
        }
      ],
      "name": "attributesVersions",
      "outputs": [
        {
          "internalType": "uint16",
          "name": "version",
          "type": "uint16"
        },
        {
          "internalType": "uint8",
          "name": "baseHull",
          "type": "uint8"
        },
        {
          "internalType": "uint8",
          "name": "baseSpeed",
          "type": "uint8"
        }
      ],
      "stateMutability": "view",
      "type": "function"
    },
    {
      "inputs": [
        {
          "components": [
            {
              "internalType": "string",
              "name": "name",
              "type": "string"
            },
            {
              "internalType": "uint256",
              "name": "id",
              "type": "uint256"
            },
            {
              "components": [
                {
                  "internalType": "enum MainWeapon",
                  "name": "mainWeapon",
                  "type": "uint8"
                },
                {
                  "internalType": "enum Armor",
                  "name": "armor",
                  "type": "uint8"
                },
                {
                  "internalType": "enum Shields",
                  "name": "shields",
                  "type": "uint8"
                },
                {
                  "internalType": "enum Special",
                  "name": "special",
                  "type": "uint8"
                }
              ],
              "internalType": "struct Equipment",
              "name": "equipment",
              "type": "tuple"
            },
            {
              "components": [
                {
                  "internalType": "uint256",
                  "name": "serialNumber",
                  "type": "uint256"
                },
                {
                  "components": [
                    {
                      "internalType": "uint16",
                      "name": "h1",
                      "type": "uint16"
                    },
                    {
                      "internalType": "uint8",
                      "name": "s1",
                      "type": "uint8"
                    },
                    {
                      "internalType": "uint8",
                      "name": "l1",
                      "type": "uint8"
                    },
                    {
                      "internalType": "uint16",
                      "name": "h2",
                      "type": "uint16"
                    },
                    {
                      "internalType": "uint8",
                      "name": "s2",
                      "type": "uint8"
                    },
                    {
                      "internalType": "uint8",
                      "name": "l2",
                      "type": "uint8"
                    }
                  ],
                  "internalType": "struct Colors",
                  "name": "colors",
                  "type": "tuple"
                },
                {
                  "internalType": "uint8",
                  "name": "variant",
                  "type": "uint8"
                },
                {
                  "internalType": "uint8",
                  "name": "accuracy",
                  "type": "uint8"
                },
                {
                  "internalType": "uint8",
                  "name": "hull",
                  "type": "uint8"
                },
                {
                  "internalType": "uint8",
                  "name": "speed",
                  "type": "uint8"
                }
              ],
              "internalType": "struct Traits",
              "name": "traits",
              "type": "tuple"
            },
            {
              "components": [
                {
                  "internalType": "uint32",
                  "name": "shipsDestroyed",
                  "type": "uint32"
                },
                {
                  "internalType": "uint16",
                  "name": "costsVersion",
                  "type": "uint16"
                },
                {
                  "internalType": "uint16",
                  "name": "cost",
                  "type": "uint16"
                },
                {
                  "internalType": "bool",
                  "name": "shiny",
                  "type": "bool"
                },
                {
                  "internalType": "bool",
                  "name": "constructed",
                  "type": "bool"
                },
                {
                  "internalType": "bool",
                  "name": "inFleet",
                  "type": "bool"
                },
                {
                  "internalType": "uint256",
                  "name": "timestampDestroyed",
                  "type": "uint256"
                }
              ],
              "internalType": "struct ShipData",
              "name": "shipData",
              "type": "tuple"
            },
            {
              "internalType": "address",
              "name": "owner",
              "type": "address"
            }
          ],
          "internalType": "struct Ship",
          "name": "_ship",
          "type": "tuple"
        }
      ],
      "name": "calculateShipAttributes",
      "outputs": [
        {
          "components": [
            {
              "internalType": "uint16",
              "name": "version",
              "type": "uint16"
            },
            {
              "internalType": "uint8",
              "name": "range",
              "type": "uint8"
            },
            {
              "internalType": "uint8",
              "name": "gunDamage",
              "type": "uint8"
            },
            {
              "internalType": "uint8",
              "name": "hullPoints",
              "type": "uint8"
            },
            {
              "internalType": "uint8",
              "name": "maxHullPoints",
              "type": "uint8"
            },
            {
              "internalType": "uint8",
              "name": "movement",
              "type": "uint8"
            },
            {
              "internalType": "uint8",
              "name": "damageReduction",
              "type": "uint8"
            },
            {
              "internalType": "uint8",
              "name": "reactorCriticalTimer",
              "type": "uint8"
            },
            {
              "internalType": "uint8[]",
              "name": "statusEffects",
              "type": "uint8[]"
            }
          ],
          "internalType": "struct Attributes",
          "name": "",
          "type": "tuple"
        }
      ],
      "stateMutability": "view",
      "type": "function"
    },
    {
      "inputs": [
        {
          "internalType": "uint256",
          "name": "_shipId",
          "type": "uint256"
        }
      ],
      "name": "calculateShipAttributesById",
      "outputs": [
        {
          "components": [
            {
              "internalType": "uint16",
              "name": "version",
              "type": "uint16"
            },
            {
              "internalType": "uint8",
              "name": "range",
              "type": "uint8"
            },
            {
              "internalType": "uint8",
              "name": "gunDamage",
              "type": "uint8"
            },
            {
              "internalType": "uint8",
              "name": "hullPoints",
              "type": "uint8"
            },
            {
              "internalType": "uint8",
              "name": "maxHullPoints",
              "type": "uint8"
            },
            {
              "internalType": "uint8",
              "name": "movement",
              "type": "uint8"
            },
            {
              "internalType": "uint8",
              "name": "damageReduction",
              "type": "uint8"
            },
            {
              "internalType": "uint8",
              "name": "reactorCriticalTimer",
              "type": "uint8"
            },
            {
              "internalType": "uint8[]",
              "name": "statusEffects",
              "type": "uint8[]"
            }
          ],
          "internalType": "struct Attributes",
          "name": "",
          "type": "tuple"
        }
      ],
      "stateMutability": "view",
      "type": "function"
    },
    {
      "inputs": [
        {
          "internalType": "uint256[]",
          "name": "_shipIds",
          "type": "uint256[]"
        }
      ],
      "name": "calculateShipAttributesByIds",
      "outputs": [
        {
          "components": [
            {
              "internalType": "uint16",
              "name": "version",
              "type": "uint16"
            },
            {
              "internalType": "uint8",
              "name": "range",
              "type": "uint8"
            },
            {
              "internalType": "uint8",
              "name": "gunDamage",
              "type": "uint8"
            },
            {
              "internalType": "uint8",
              "name": "hullPoints",
              "type": "uint8"
            },
            {
              "internalType": "uint8",
              "name": "maxHullPoints",
              "type": "uint8"
            },
            {
              "internalType": "uint8",
              "name": "movement",
              "type": "uint8"
            },
            {
              "internalType": "uint8",
              "name": "damageReduction",
              "type": "uint8"
            },
            {
              "internalType": "uint8",
              "name": "reactorCriticalTimer",
              "type": "uint8"
            },
            {
              "internalType": "uint8[]",
              "name": "statusEffects",
              "type": "uint8[]"
            }
          ],
          "internalType": "struct Attributes[]",
          "name": "",
          "type": "tuple[]"
        }
      ],
      "stateMutability": "view",
      "type": "function"
    },
    {
      "inputs": [
        {
          "internalType": "uint256",
          "name": "num",
          "type": "uint256"
        }
      ],
      "name": "countDigits",
      "outputs": [
        {
          "internalType": "uint256",
          "name": "",
          "type": "uint256"
        }
      ],
      "stateMutability": "pure",
      "type": "function"
    },
    {
      "inputs": [],
      "name": "currentAttributesVersion",
      "outputs": [
        {
          "internalType": "uint16",
          "name": "",
          "type": "uint16"
        }
      ],
      "stateMutability": "view",
      "type": "function"
    },
    {
      "inputs": [
        {
          "internalType": "enum Armor",
          "name": "_armor",
          "type": "uint8"
        }
      ],
      "name": "getArmorData",
      "outputs": [
        {
          "components": [
            {
              "internalType": "uint8",
              "name": "damageReduction",
              "type": "uint8"
            },
            {
              "internalType": "int8",
              "name": "movement",
              "type": "int8"
            }
          ],
          "internalType": "struct ArmorData",
          "name": "",
          "type": "tuple"
        }
      ],
      "stateMutability": "view",
      "type": "function"
    },
    {
      "inputs": [
        {
          "internalType": "enum MainWeapon",
          "name": "_weapon",
          "type": "uint8"
        }
      ],
      "name": "getGunData",
      "outputs": [
        {
          "components": [
            {
              "internalType": "uint8",
              "name": "range",
              "type": "uint8"
            },
            {
              "internalType": "uint8",
              "name": "damage",
              "type": "uint8"
            },
            {
              "internalType": "int8",
              "name": "movement",
              "type": "int8"
            }
          ],
          "internalType": "struct GunData",
          "name": "",
          "type": "tuple"
        }
      ],
      "stateMutability": "view",
      "type": "function"
    },
    {
      "inputs": [
        {
          "internalType": "uint256",
          "name": "_shipsDestroyed",
          "type": "uint256"
        }
      ],
      "name": "getRank",
      "outputs": [
        {
          "internalType": "uint8",
          "name": "",
          "type": "uint8"
        }
      ],
      "stateMutability": "pure",
      "type": "function"
    },
    {
      "inputs": [
        {
          "internalType": "enum Shields",
          "name": "_shields",
          "type": "uint8"
        }
      ],
      "name": "getShieldData",
      "outputs": [
        {
          "components": [
            {
              "internalType": "uint8",
              "name": "damageReduction",
              "type": "uint8"
            },
            {
              "internalType": "int8",
              "name": "movement",
              "type": "int8"
            }
          ],
          "internalType": "struct ShieldData",
          "name": "",
          "type": "tuple"
        }
      ],
      "stateMutability": "view",
      "type": "function"
    },
    {
      "inputs": [
        {
          "internalType": "enum Special",
          "name": "_special",
          "type": "uint8"
        }
      ],
      "name": "getSpecialData",
      "outputs": [
        {
          "components": [
            {
              "internalType": "uint8",
              "name": "range",
              "type": "uint8"
            },
            {
              "internalType": "uint8",
              "name": "strength",
              "type": "uint8"
            },
            {
              "internalType": "int8",
              "name": "movement",
              "type": "int8"
            }
          ],
          "internalType": "struct SpecialData",
          "name": "",
          "type": "tuple"
        }
      ],
      "stateMutability": "view",
      "type": "function"
    },
    {
      "inputs": [
        {
          "internalType": "enum Special",
          "name": "_special",
          "type": "uint8"
        }
      ],
      "name": "getSpecialRange",
      "outputs": [
        {
          "internalType": "uint8",
          "name": "",
          "type": "uint8"
        }
      ],
      "stateMutability": "view",
      "type": "function"
    },
    {
      "inputs": [
        {
          "internalType": "enum Special",
          "name": "_special",
          "type": "uint8"
        }
      ],
      "name": "getSpecialStrength",
      "outputs": [
        {
          "internalType": "uint8",
          "name": "",
          "type": "uint8"
        }
      ],
      "stateMutability": "view",
      "type": "function"
    },
    {
      "inputs": [],
      "name": "owner",
      "outputs": [
        {
          "internalType": "address",
          "name": "",
          "type": "address"
        }
      ],
      "stateMutability": "view",
      "type": "function"
    },
    {
      "inputs": [],
      "name": "renounceOwnership",
      "outputs": [],
      "stateMutability": "nonpayable",
      "type": "function"
    },
    {
      "inputs": [
        {
          "internalType": "address",
          "name": "_ships",
          "type": "address"
        }
      ],
      "name": "setShipsAddress",
      "outputs": [],
      "stateMutability": "nonpayable",
      "type": "function"
    },
    {
      "inputs": [],
      "name": "ships",
      "outputs": [
        {
          "internalType": "contract IShips",
          "name": "",
          "type": "address"
        }
      ],
      "stateMutability": "view",
      "type": "function"
    },
    {
      "inputs": [
        {
          "internalType": "address",
          "name": "newOwner",
          "type": "address"
        }
      ],
      "name": "transferOwnership",
      "outputs": [],
      "stateMutability": "nonpayable",
      "type": "function"
    }
  ],
  "bytecode": "0x608060405234801561001057600080fd5b506040516127bb3803806127bb83398101604081905261002f91610d47565b338061005557604051631e4fbdf760e01b81526000600482015260240160405180910390fd5b61005e81610cf7565b5080600160006101000a8154816001600160a01b0302191690836001600160a01b031602179055506001600360006101000a81548161ffff021916908361ffff160217905550600060026000600161ffff168152602001908152602001600020905060018160000160006101000a81548161ffff021916908361ffff16021790555060648160000160026101000a81548160ff021916908360ff16021790555060058160000160036101000a81548160ff021916908360ff16021790555080600101600090806001815401808255809150506001900390600052602060002090602091828204019190069091909190916101000a81548160ff021916908360ff16021790555080600101607d90806001815401808255809150506001900390600052602060002090602091828204019190069091909190916101000a81548160ff021916908360ff16021790555080600101609690806001815401808255809150506001900390600052602060002090602091828204019190069091909190916101000a81548160ff021916908360ff16021790555080600201600190806001815401808255809150506001900390600052602060002090602091828204019190069091909190916101000a81548160ff021916908360ff16021790555080600201600290806001815401808255809150506001900390600052602060002090602091828204019190069091909190916101000a81548160ff021916908360ff16021790555080600201600490806001815401808255809150506001900390600052602060002090602091828204019190069091909190916101000a81548160ff021916908360ff160217905550806003016040518060600160405280600860ff168152602001601460ff1681526020016000800b8152509080600181540180825580915050600190039060005260206000200160009091909190915060008201518160000160006101000a81548160ff021916908360ff16021790555060208201518160000160016101000a81548160ff021916908360ff16021790555060408201518160000160026101000a81548160ff021916908360000b60ff1602179055505050806003016040518060600160405280600f60ff168152602001600f60ff1681526020016000800b8152509080600181540180825580915050600190039060005260206000200160009091909190915060008201518160000160006101000a81548160ff021916908360ff16021790555060208201518160000160016101000a81548160ff021916908360ff16021790555060408201518160000160026101000a81548160ff021916908360000b60ff1602179055505050806003016040518060600160405280600c60ff168152602001601960ff16815260200160001960000b8152509080600181540180825580915050600190039060005260206000200160009091909190915060008201518160000160006101000a81548160ff021916908360ff16021790555060208201518160000160016101000a81548160ff021916908360ff16021790555060408201518160000160026101000a81548160ff021916908360000b60ff1602179055505050806003016040518060600160405280600460ff168152602001602860ff1681526020016000800b8152509080600181540180825580915050600190039060005260206000200160009091909190915060008201518160000160006101000a81548160ff021916908360ff16021790555060208201518160000160016101000a81548160ff021916908360ff16021790555060408201518160000160026101000a81548160ff021916908360000b60ff1602179055505050806004016040518060400160405280600060ff1681526020016000800b8152509080600181540180825580915050600190039060005260206000200160009091909190915060008201518160000160006101000a81548160ff021916908360ff16021790555060208201518160000160016101000a81548160ff021916908360000b60ff1602179055505050806004016040518060400160405280600f60ff16815260200160001960000b8152509080600181540180825580915050600190039060005260206000200160009091909190915060008201518160000160006101000a81548160ff021916908360ff16021790555060208201518160000160016101000a81548160ff021916908360000b60ff1602179055505050806004016040518060400160405280601e60ff16815260200160011960000b8152509080600181540180825580915050600190039060005260206000200160009091909190915060008201518160000160006101000a81548160ff021916908360ff16021790555060208201518160000160016101000a81548160ff021916908360000b60ff1602179055505050806004016040518060400160405280602d60ff16815260200160021960000b8152509080600181540180825580915050600190039060005260206000200160009091909190915060008201518160000160006101000a81548160ff021916908360ff16021790555060208201518160000160016101000a81548160ff021916908360000b60ff1602179055505050806005016040518060400160405280600060ff1681526020016000800b8152509080600181540180825580915050600190039060005260206000200160009091909190915060008201518160000160006101000a81548160ff021916908360ff16021790555060208201518160000160016101000a81548160ff021916908360000b60ff1602179055505050806005016040518060400160405280600f60ff1681526020016000800b8152509080600181540180825580915050600190039060005260206000200160009091909190915060008201518160000160006101000a81548160ff021916908360ff16021790555060208201518160000160016101000a81548160ff021916908360000b60ff1602179055505050806005016040518060400160405280601e60ff16815260200160001960000b8152509080600181540180825580915050600190039060005260206000200160009091909190915060008201518160000160006101000a81548160ff021916908360ff16021790555060208201518160000160016101000a81548160ff021916908360000b60ff1602179055505050806005016040518060400160405280602d60ff16815260200160011960000b8152509080600181540180825580915050600190039060005260206000200160009091909190915060008201518160000160006101000a81548160ff021916908360ff16021790555060208201518160000160016101000a81548160ff021916908360000b60ff1602179055505050806006016040518060600160405280600060ff168152602001600060ff1681526020016000800b8152509080600181540180825580915050600190039060005260206000200160009091909190915060008201518160000160006101000a81548160ff021916908360ff16021790555060208201518160000160016101000a81548160ff021916908360ff16021790555060408201518160000160026101000a81548160ff021916908360000b60ff1602179055505050806006016040518060600160405280600160ff168152602001600160ff1681526020016000800b8152509080600181540180825580915050600190039060005260206000200160009091909190915060008201518160000160006101000a81548160ff021916908360ff16021790555060208201518160000160016101000a81548160ff021916908360ff16021790555060408201518160000160026101000a81548160ff021916908360000b60ff1602179055505050806006016040518060600160405280600a60ff168152602001600a60ff1681526020016000800b8152509080600181540180825580915050600190039060005260206000200160009091909190915060008201518160000160006101000a81548160ff021916908360ff16021790555060208201518160000160016101000a81548160ff021916908360ff16021790555060408201518160000160026101000a81548160ff021916908360000b60ff1602179055505050806006016040518060600160405280600560ff168152602001600f60ff1681526020016000800b8152509080600181540180825580915050600190039060005260206000200160009091909190915060008201518160000160006101000a81548160ff021916908360ff16021790555060208201518160000160016101000a81548160ff021916908360ff16021790555060408201518160000160026101000a81548160ff021916908360000b60ff16021790555050505050610d77565b600080546001600160a01b038381166001600160a01b0319831681178455604051919092169283917f8be0079c531659141344cd1fd0a4f28419497f9722a3daafe3b4186f6b6457e09190a35050565b600060208284031215610d5957600080fd5b81516001600160a01b0381168114610d7057600080fd5b9392505050565b611a3580610d866000396000f3fe608060405234801561001057600080fd5b50600436106101165760003560e01c8063a918e521116100a2578063d5d233f811610071578063d5d233f8146102cc578063e197c627146102df578063e7fae625146102f2578063f2fde38b14610305578063fe367db31461031857600080fd5b8063a918e52114610266578063bbf8218a14610286578063c5b64b7a14610299578063ceb3a612146102b957600080fd5b80637e0b245f116100e95780637e0b245f146101cc5780638da5cb5b146101ec5780638e1b4a83146102115780639636c76214610232578063a5099bae1461025357600080fd5b80630f0bba001461011b578063321eed351461017d578063670fa22e1461019d578063715018a6146101c2575b600080fd5b610154610129366004610ed4565b60026020526000908152604090205461ffff81169060ff620100008204811691630100000090041683565b6040805161ffff909416845260ff92831660208501529116908201526060015b60405180910390f35b61019061018b366004610fa7565b61032b565b6040516101749190611151565b6101b06101ab3660046111c3565b610483565b60405160ff9091168152602001610174565b6101ca6104df565b005b6101df6101da3660046111c3565b6104f3565b60405161017491906111e0565b6000546001600160a01b03165b6040516001600160a01b039091168152602001610174565b60035461021f9061ffff1681565b60405161ffff9091168152602001610174565b6102456102403660046111fd565b610577565b604051908152602001610174565b6101b06102613660046111fd565b6105b8565b6102796102743660046111c3565b6105c3565b6040516101749190611216565b6001546101f9906001600160a01b031681565b6102ac6102a73660046114d2565b61065e565b60405161017491906115d6565b6101b06102c73660046111c3565b61094b565b6101ca6102da3660046115e9565b6109a2565b6102ac6102ed3660046111fd565b6109cc565b6102796103003660046111c3565b610a7d565b6101ca6103133660046115e9565b610ac5565b6101df6103263660046111c3565b610b08565b60606000825167ffffffffffffffff81111561034957610349610ef1565b60405190808252806020026020018201604052801561038257816020015b61036f610e76565b8152602001906001900390816103675790505b50905060005b835181101561047c5760015484516000916001600160a01b031690634025b22d908790859081106103bb576103bb611606565b60200260200101516040518263ffffffff1660e01b81526004016103e191815260200190565b600060405180830381865afa1580156103fe573d6000803e3d6000fd5b505050506040513d6000823e601f3d908101601f191682016040526104269190810190611823565b9050806020015160000361044d576040516303c113ad60e61b815260040160405180910390fd5b6104568161065e565b83838151811061046857610468611606565b602090810291909101015250600101610388565b5092915050565b6003805461ffff166000908152600260205260408120909160069091019083908111156104b2576104b261192b565b60ff16815481106104c5576104c5611606565b600091825260209091200154610100900460ff1692915050565b6104e7610b47565b6104f16000610b74565b565b60408051808201909152600080825260208201526003805461ffff1660009081526002602052604090206004019083908111156105325761053261192b565b60ff168154811061054557610545611606565b600091825260208083206040805180820190915292015460ff81168352610100900490920b9181019190915292915050565b60008160000361058957506001919050565b60005b82156105b2578061059c81611957565b91506105ab9050600a84611970565b925061058c565b92915050565b60006105b282610577565b60408051606081018252600080825260208201819052918101919091526003805461ffff166000908152600260205260409020810190839081111561060a5761060a61192b565b60ff168154811061061d5761061d611606565b6000918252602080832060408051606081018252919093015460ff8082168352610100820416928201929092526201000090910490920b9082015292915050565b610666610e76565b816020015160000361068b576040516303c113ad60e61b815260040160405180910390fd5b60006106a483608001516000015163ffffffff166105b8565b905060008160ff166001036106bb57506000610716565b8160ff166002036106ce5750600a610716565b8160ff166003036106e157506014610716565b8160ff166004036106f45750601e610716565b8160ff1660050361070757506028610716565b60068260ff1610610716575060325b61071e610e76565b6003805461ffff16808352600090815260026020526040908190209087015151908201918111156107515761075161192b565b60ff168154811061076457610764611606565b600091825260208083209091015460ff90811691840182905260649161078c91861690611992565b6107969190611970565b905080826020018181516107aa91906119a9565b60ff169052506003805461ffff16600090815260026020526040908190209088015151908201918111156107e0576107e061192b565b60ff16815481106107f3576107f3611606565b60009182526020909120015460ff6101009091048116604084018190526064916108209190861690611992565b61082a9190611970565b9050808260400181815161083e91906119a9565b60ff1690525061084d86610bc4565b60ff908116606084018190526064916108699190861690611992565b6108739190611970565b9050808260600181815161088791906119a9565b60ff9081169091526060840151166080840152506108a486610c11565b60ff90811660a084018190526064916108c09190861690611992565b6108ca9190611970565b9050808260a0018181516108de91906119a9565b60ff169052506108ed86610dba565b60ff90811660c084018190526064916109099190861690611992565b6109139190611970565b9050808260c00181815161092791906119a9565b60ff1690525050604080516000815260208101909152610100820152949350505050565b6003805461ffff1660009081526002602052604081209091600690910190839081111561097a5761097a61192b565b60ff168154811061098d5761098d611606565b60009182526020909120015460ff1692915050565b6109aa610b47565b600180546001600160a01b0319166001600160a01b0392909216919091179055565b6109d4610e76565b600154604051634025b22d60e01b8152600481018490526000916001600160a01b031690634025b22d90602401600060405180830381865afa158015610a1e573d6000803e3d6000fd5b505050506040513d6000823e601f3d908101601f19168201604052610a469190810190611823565b90508060200151600003610a6d576040516303c113ad60e61b815260040160405180910390fd5b610a768161065e565b9392505050565b60408051606081018252600080825260208201819052918101919091526003805461ffff16600090815260026020526040902060060190839081111561060a5761060a61192b565b610acd610b47565b6001600160a01b038116610afc57604051631e4fbdf760e01b8152600060048201526024015b60405180910390fd5b610b0581610b74565b50565b60408051808201909152600080825260208201526003805461ffff1660009081526002602052604090206005019083908111156105325761053261192b565b6000546001600160a01b031633146104f15760405163118cdaa760e01b8152336004820152602401610af3565b600080546001600160a01b038381166001600160a01b0319831681178455604051919092169283917f8be0079c531659141344cd1fd0a4f28419497f9722a3daafe3b4186f6b6457e09190a35050565b60035461ffff16600090815260026020526040812080546060840151608001516201000090910460ff16908390610bfc90600a6119c2565b9050610c0881836119a9565b95945050505050565b60035461ffff1660009081526002602052604081208054606084015160a00151630100000090910460ff1690610c4790826119de565b90506000826003018560400151600001516003811115610c6957610c6961192b565b60ff1681548110610c7c57610c7c611606565b9060005260206000200160000160029054906101000a900460000b90506000836004018660400151602001516003811115610cb957610cb961192b565b60ff1681548110610ccc57610ccc611606565b60009182526020822001546040808901510151610100909104820b925060058601906003811115610cff57610cff61192b565b60ff1681548110610d1257610d12611606565b6000918252602082200154604089015160600151610100909104820b925060068701906003811115610d4657610d4661192b565b60ff1681548110610d5957610d59611606565b6000918252602082200154620100009004900b90508082610d7a85876119de565b610d8491906119de565b610d8e91906119de565b610d9890866119de565b945060008560000b13610dac576000610dae565b845b98975050505050505050565b6003805461ffff1660009081526002602090815260408083209085015190910151919290918391600484019190811115610df657610df661192b565b60ff1681548110610e0957610e09611606565b600091825260209091200154610e229060ff16826119a9565b9050816005018460400151604001516003811115610e4257610e4261192b565b60ff1681548110610e5557610e55611606565b600091825260209091200154610e6e9060ff16826119a9565b949350505050565b604080516101208101825260008082526020820181905291810182905260608082018390526080820183905260a0820183905260c0820183905260e082019290925261010081019190915290565b61ffff81168114610b0557600080fd5b600060208284031215610ee657600080fd5b8135610a7681610ec4565b634e487b7160e01b600052604160045260246000fd5b6040516080810167ffffffffffffffff81118282101715610f2a57610f2a610ef1565b60405290565b60405160c0810167ffffffffffffffff81118282101715610f2a57610f2a610ef1565b60405160e0810167ffffffffffffffff81118282101715610f2a57610f2a610ef1565b604051601f8201601f1916810167ffffffffffffffff81118282101715610f9f57610f9f610ef1565b604052919050565b600060208284031215610fb957600080fd5b813567ffffffffffffffff811115610fd057600080fd5b8201601f81018413610fe157600080fd5b803567ffffffffffffffff811115610ffb57610ffb610ef1565b8060051b61100b60208201610f76565b9182526020818401810192908101908784111561102757600080fd5b6020850194505b8385101561104d5784358083526020958601959093509091019061102e565b979650505050505050565b600081518084526020840193506020830160005b8281101561108d57815160ff1686526020958601959091019060010161106c565b5093949350505050565b805161ffff168252600060208201516110b5602085018260ff169052565b5060408201516110ca604085018260ff169052565b5060608201516110df606085018260ff169052565b5060808201516110f4608085018260ff169052565b5060a082015161110960a085018260ff169052565b5060c082015161111e60c085018260ff169052565b5060e082015161113360e085018260ff169052565b50610100820151610120610100850152610e6e610120850182611058565b6000602082016020835280845180835260408501915060408160051b86010192506020860160005b828110156111aa57603f19878603018452611195858351611097565b94506020938401939190910190600101611179565b50929695505050505050565b60048110610b0557600080fd5b6000602082840312156111d557600080fd5b8135610a76816111b6565b815160ff16815260208083015160000b90820152604081016105b2565b60006020828403121561120f57600080fd5b5035919050565b606081016105b2828460ff815116825260ff6020820151166020830152604081015160000b60408301525050565b600067ffffffffffffffff82111561125e5761125e610ef1565b50601f01601f191660200190565b60006080828403121561127e57600080fd5b611286610f07565b90508135611293816111b6565b815260208201356112a3816111b6565b602082015260408201356112b6816111b6565b604082015260608201356112c9816111b6565b606082015292915050565b60ff81168114610b0557600080fd5b80356112ee816112d4565b919050565b600081830361016081121561130757600080fd5b61130f610f30565b83358152915060c0601f198201121561132757600080fd5b50611330610f30565b602083013561133e81610ec4565b8152604083013561134e816112d4565b60208201526060830135611361816112d4565b6040820152608083013561137481610ec4565b606082015260a0830135611387816112d4565b608082015260c083013561139a816112d4565b60a082015260208201526113b060e083016112e3565b60408201526113c261010083016112e3565b60608201526113d461012083016112e3565b60808201526113e661014083016112e3565b60a082015292915050565b63ffffffff81168114610b0557600080fd5b8015158114610b0557600080fd5b80356112ee81611403565b600060e0828403121561142e57600080fd5b611436610f53565b90508135611443816113f1565b8152602082013561145381610ec4565b6020820152604082013561146681610ec4565b6040820152606082013561147981611403565b606082015261148a60808301611411565b608082015261149b60a08301611411565b60a082015260c09182013591810191909152919050565b6001600160a01b0381168114610b0557600080fd5b80356112ee816114b2565b6000602082840312156114e457600080fd5b813567ffffffffffffffff8111156114fb57600080fd5b8201610320818503121561150e57600080fd5b611516610f30565b813567ffffffffffffffff81111561152d57600080fd5b8201601f8101861361153e57600080fd5b803561155161154c82611244565b610f76565b81815287602083850101111561156657600080fd5b81602084016020830137600060209282018301528352838101359083015250611592856040840161126c565b60408201526115a48560c084016112f3565b60608201526115b785610220840161141c565b60808201526115c961030083016114c7565b60a0820152949350505050565b602081526000610a766020830184611097565b6000602082840312156115fb57600080fd5b8135610a76816114b2565b634e487b7160e01b600052603260045260246000fd5b60006080828403121561162e57600080fd5b611636610f07565b90508151611643816111b6565b81526020820151611653816111b6565b60208201526040820151611666816111b6565b604082015260608201516112c9816111b6565b80516112ee816112d4565b600081830361016081121561169857600080fd5b6116a0610f30565b83518152915060c0601f19820112156116b857600080fd5b506116c1610f30565b60208301516116cf81610ec4565b815260408301516116df816112d4565b602082015260608301516116f2816112d4565b6040820152608083015161170581610ec4565b606082015260a0830151611718816112d4565b608082015260c083015161172b816112d4565b60a0820152602082015261174160e08301611679565b60408201526117536101008301611679565b60608201526117656101208301611679565b60808201526113e66101408301611679565b80516112ee81611403565b600060e0828403121561179457600080fd5b61179c610f53565b905081516117a9816113f1565b815260208201516117b981610ec4565b602082015260408201516117cc81610ec4565b604082015260608201516117df81611403565b60608201526117f060808301611777565b608082015261180160a08301611777565b60a082015260c09182015191810191909152919050565b80516112ee816114b2565b60006020828403121561183557600080fd5b815167ffffffffffffffff81111561184c57600080fd5b8201610320818503121561185f57600080fd5b611867610f30565b815167ffffffffffffffff81111561187e57600080fd5b8201601f8101861361188f57600080fd5b805161189d61154c82611244565b8181528760208385010111156118b257600080fd5b60005b828110156118d1576020818501810151838301820152016118b5565b506000602092820183015283528381015190830152506118f4856040840161161c565b60408201526119068560c08401611684565b6060820152611919856102208401611782565b60808201526115c96103008301611818565b634e487b7160e01b600052602160045260246000fd5b634e487b7160e01b600052601160045260246000fd5b60006001820161196957611969611941565b5060010190565b60008261198d57634e487b7160e01b600052601260045260246000fd5b500490565b80820281158282048414176105b2576105b2611941565b60ff81811683821601908111156105b2576105b2611941565b60ff818116838216029081169081811461047c5761047c611941565b600081810b9083900b01607f8113607f19821217156105b2576105b261194156fea26469706673582212208a05e174ad075f7d41697ef5f2f11978ecb6763fd65dc1a1236ad259f0eeb12664736f6c634300081c0033",
  "linkReferences": {},
  "deployedLinkReferences": {}
}