{
  "_format": "hh-sol-artifact-1",
  "contractName": "Ships",
  "sourceName": "contracts/Ships.sol",
  "abi": [
    {
      "inputs": [
        {
          "internalType": "address",
          "name": "_renderer",
          "type": "address"
        }
      ],
      "stateMutability": "nonpayable",
      "type": "constructor"
    },
    {
      "inputs": [],
      "name": "ArrayLengthMismatch",
      "type": "error"
    },
    {
      "inputs": [
        {
          "internalType": "uint256",
          "name": "",
          "type": "uint256"
        }
      ],
      "name": "CannotRecycleFreeShip",
      "type": "error"
    },
    {
      "inputs": [],
      "name": "ClaimCooldownNotPassed",
      "type": "error"
    },
    {
      "inputs": [
        {
          "internalType": "address",
          "name": "sender",
          "type": "address"
        },
        {
          "internalType": "uint256",
          "name": "tokenId",
          "type": "uint256"
        },
        {
          "internalType": "address",
          "name": "owner",
          "type": "address"
        }
      ],
      "name": "ERC721IncorrectOwner",
      "type": "error"
    },
    {
      "inputs": [
        {
          "internalType": "address",
          "name": "operator",
          "type": "address"
        },
        {
          "internalType": "uint256",
          "name": "tokenId",
          "type": "uint256"
        }
      ],
      "name": "ERC721InsufficientApproval",
      "type": "error"
    },
    {
      "inputs": [
        {
          "internalType": "address",
          "name": "approver",
          "type": "address"
        }
      ],
      "name": "ERC721InvalidApprover",
      "type": "error"
    },
    {
      "inputs": [
        {
          "internalType": "address",
          "name": "operator",
          "type": "address"
        }
      ],
      "name": "ERC721InvalidOperator",
      "type": "error"
    },
    {
      "inputs": [
        {
          "internalType": "address",
          "name": "owner",
          "type": "address"
        }
      ],
      "name": "ERC721InvalidOwner",
      "type": "error"
    },
    {
      "inputs": [
        {
          "internalType": "address",
          "name": "receiver",
          "type": "address"
        }
      ],
      "name": "ERC721InvalidReceiver",
      "type": "error"
    },
    {
      "inputs": [
        {
          "internalType": "address",
          "name": "sender",
          "type": "address"
        }
      ],
      "name": "ERC721InvalidSender",
      "type": "error"
    },
    {
      "inputs": [
        {
          "internalType": "uint256",
          "name": "tokenId",
          "type": "uint256"
        }
      ],
      "name": "ERC721NonexistentToken",
      "type": "error"
    },
    {
      "inputs": [
        {
          "internalType": "address",
          "name": "",
          "type": "address"
        }
      ],
      "name": "InsufficientPurchases",
      "type": "error"
    },
    {
      "inputs": [
        {
          "internalType": "uint256",
          "name": "_tier",
          "type": "uint256"
        },
        {
          "internalType": "uint256",
          "name": "_amount",
          "type": "uint256"
        }
      ],
      "name": "InvalidPurchase",
      "type": "error"
    },
    {
      "inputs": [
        {
          "internalType": "uint16",
          "name": "",
          "type": "uint16"
        }
      ],
      "name": "InvalidVariant",
      "type": "error"
    },
    {
      "inputs": [],
      "name": "MintPaused",
      "type": "error"
    },
    {
      "inputs": [
        {
          "internalType": "address",
          "name": "",
          "type": "address"
        }
      ],
      "name": "NotAuthorized",
      "type": "error"
    },
    {
      "inputs": [
        {
          "internalType": "uint256",
          "name": "",
          "type": "uint256"
        }
      ],
      "name": "NotYourShip",
      "type": "error"
    },
    {
      "inputs": [
        {
          "internalType": "address",
          "name": "owner",
          "type": "address"
        }
      ],
      "name": "OwnableInvalidOwner",
      "type": "error"
    },
    {
      "inputs": [
        {
          "internalType": "address",
          "name": "account",
          "type": "address"
        }
      ],
      "name": "OwnableUnauthorizedAccount",
      "type": "error"
    },
    {
      "inputs": [],
      "name": "ReentrancyGuardReentrantCall",
      "type": "error"
    },
    {
      "inputs": [],
      "name": "ReferralTransferFailed",
      "type": "error"
    },
    {
      "inputs": [
        {
          "internalType": "uint256",
          "name": "",
          "type": "uint256"
        }
      ],
      "name": "ShipAlreadyDestroyed",
      "type": "error"
    },
    {
      "inputs": [
        {
          "internalType": "uint256",
          "name": "",
          "type": "uint256"
        }
      ],
      "name": "ShipConstructed",
      "type": "error"
    },
    {
      "inputs": [],
      "name": "ShipDestroyed",
      "type": "error"
    },
    {
      "inputs": [
        {
          "internalType": "uint256",
          "name": "",
          "type": "uint256"
        }
      ],
      "name": "ShipInFleet",
      "type": "error"
    },
    {
      "inputs": [],
      "name": "WithdrawalFailed",
      "type": "error"
    },
    {
      "anonymous": false,
      "inputs": [
        {
          "indexed": true,
          "internalType": "address",
          "name": "owner",
          "type": "address"
        },
        {
          "indexed": true,
          "internalType": "address",
          "name": "approved",
          "type": "address"
        },
        {
          "indexed": true,
          "internalType": "uint256",
          "name": "tokenId",
          "type": "uint256"
        }
      ],
      "name": "Approval",
      "type": "event"
    },
    {
      "anonymous": false,
      "inputs": [
        {
          "indexed": true,
          "internalType": "address",
          "name": "owner",
          "type": "address"
        },
        {
          "indexed": true,
          "internalType": "address",
          "name": "operator",
          "type": "address"
        },
        {
          "indexed": false,
          "internalType": "bool",
          "name": "approved",
          "type": "bool"
        }
      ],
      "name": "ApprovalForAll",
      "type": "event"
    },
    {
      "anonymous": false,
      "inputs": [
        {
          "indexed": false,
          "internalType": "uint256",
          "name": "tokenId",
          "type": "uint256"
        }
      ],
      "name": "Locked",
      "type": "event"
    },
    {
      "anonymous": false,
      "inputs": [
        {
          "indexed": false,
          "internalType": "uint256",
          "name": "_tokenId",
          "type": "uint256"
        }
      ],
      "name": "MetadataUpdate",
      "type": "event"
    },
    {
      "anonymous": false,
      "inputs": [
        {
          "indexed": true,
          "internalType": "address",
          "name": "previousOwner",
          "type": "address"
        },
        {
          "indexed": true,
          "internalType": "address",
          "name": "newOwner",
          "type": "address"
        }
      ],
      "name": "OwnershipTransferred",
      "type": "event"
    },
    {
      "anonymous": false,
      "inputs": [
        {
          "indexed": true,
          "internalType": "address",
          "name": "from",
          "type": "address"
        },
        {
          "indexed": true,
          "internalType": "address",
          "name": "to",
          "type": "address"
        },
        {
          "indexed": true,
          "internalType": "uint256",
          "name": "tokenId",
          "type": "uint256"
        }
      ],
      "name": "Transfer",
      "type": "event"
    },
    {
      "anonymous": false,
      "inputs": [
        {
          "indexed": false,
          "internalType": "uint256",
          "name": "tokenId",
          "type": "uint256"
        }
      ],
      "name": "Unlocked",
      "type": "event"
    },
    {
      "inputs": [
        {
          "internalType": "address",
          "name": "",
          "type": "address"
        }
      ],
      "name": "amountPurchased",
      "outputs": [
        {
          "internalType": "uint256",
          "name": "",
          "type": "uint256"
        }
      ],
      "stateMutability": "view",
      "type": "function"
    },
    {
      "inputs": [
        {
          "internalType": "address",
          "name": "to",
          "type": "address"
        },
        {
          "internalType": "uint256",
          "name": "tokenId",
          "type": "uint256"
        }
      ],
      "name": "approve",
      "outputs": [],
      "stateMutability": "nonpayable",
      "type": "function"
    },
    {
      "inputs": [
        {
          "internalType": "address",
          "name": "owner",
          "type": "address"
        }
      ],
      "name": "balanceOf",
      "outputs": [
        {
          "internalType": "uint256",
          "name": "",
          "type": "uint256"
        }
      ],
      "stateMutability": "view",
      "type": "function"
    },
    {
      "inputs": [],
      "name": "claimCooldownPeriod",
      "outputs": [
        {
          "internalType": "uint256",
          "name": "",
          "type": "uint256"
        }
      ],
      "stateMutability": "view",
      "type": "function"
    },
    {
      "inputs": [
        {
          "internalType": "uint16",
          "name": "_variant",
          "type": "uint16"
        }
      ],
      "name": "claimFreeShips",
      "outputs": [],
      "stateMutability": "nonpayable",
      "type": "function"
    },
    {
      "inputs": [],
      "name": "config",
      "outputs": [
        {
          "internalType": "address",
          "name": "gameAddress",
          "type": "address"
        },
        {
          "internalType": "address",
          "name": "lobbyAddress",
          "type": "address"
        },
        {
          "internalType": "address",
          "name": "fleetsAddress",
          "type": "address"
        },
        {
          "internalType": "contract IRenderMetadata",
          "name": "metadataRenderer",
          "type": "address"
        },
        {
          "internalType": "contract IRandomManager",
          "name": "randomManager",
          "type": "address"
        },
        {
          "internalType": "contract IGenerateNewShip",
          "name": "shipGenerator",
          "type": "address"
        },
        {
          "internalType": "contract IShipAttributes",
          "name": "shipAttributes",
          "type": "address"
        }
      ],
      "stateMutability": "view",
      "type": "function"
    },
    {
      "inputs": [],
      "name": "constructAllMyShips",
      "outputs": [],
      "stateMutability": "nonpayable",
      "type": "function"
    },
    {
      "inputs": [
        {
          "internalType": "uint256",
          "name": "_id",
          "type": "uint256"
        }
      ],
      "name": "constructShip",
      "outputs": [],
      "stateMutability": "nonpayable",
      "type": "function"
    },
    {
      "inputs": [
        {
          "internalType": "uint256[]",
          "name": "_ids",
          "type": "uint256[]"
        }
      ],
      "name": "constructShips",
      "outputs": [],
      "stateMutability": "nonpayable",
      "type": "function"
    },
    {
      "inputs": [
        {
          "internalType": "address",
          "name": "_to",
          "type": "address"
        },
        {
          "internalType": "uint256",
          "name": "_amount",
          "type": "uint256"
        },
        {
          "internalType": "uint16",
          "name": "_variant",
          "type": "uint16"
        },
        {
          "internalType": "uint8",
          "name": "_tier",
          "type": "uint8"
        }
      ],
      "name": "createShips",
      "outputs": [],
      "stateMutability": "nonpayable",
      "type": "function"
    },
    {
      "inputs": [
        {
          "internalType": "address",
          "name": "_to",
          "type": "address"
        },
        {
          "components": [
            {
              "internalType": "string",
              "name": "name",
              "type": "string"
            },
            {
              "internalType": "uint256",
              "name": "id",
              "type": "uint256"
            },
            {
              "components": [
                {
                  "internalType": "enum MainWeapon",
                  "name": "mainWeapon",
                  "type": "uint8"
                },
                {
                  "internalType": "enum Armor",
                  "name": "armor",
                  "type": "uint8"
                },
                {
                  "internalType": "enum Shields",
                  "name": "shields",
                  "type": "uint8"
                },
                {
                  "internalType": "enum Special",
                  "name": "special",
                  "type": "uint8"
                }
              ],
              "internalType": "struct Equipment",
              "name": "equipment",
              "type": "tuple"
            },
            {
              "components": [
                {
                  "internalType": "uint256",
                  "name": "serialNumber",
                  "type": "uint256"
                },
                {
                  "components": [
                    {
                      "internalType": "uint16",
                      "name": "h1",
                      "type": "uint16"
                    },
                    {
                      "internalType": "uint8",
                      "name": "s1",
                      "type": "uint8"
                    },
                    {
                      "internalType": "uint8",
                      "name": "l1",
                      "type": "uint8"
                    },
                    {
                      "internalType": "uint16",
                      "name": "h2",
                      "type": "uint16"
                    },
                    {
                      "internalType": "uint8",
                      "name": "s2",
                      "type": "uint8"
                    },
                    {
                      "internalType": "uint8",
                      "name": "l2",
                      "type": "uint8"
                    },
                    {
                      "internalType": "uint16",
                      "name": "h3",
                      "type": "uint16"
                    },
                    {
                      "internalType": "uint8",
                      "name": "s3",
                      "type": "uint8"
                    },
                    {
                      "internalType": "uint8",
                      "name": "l3",
                      "type": "uint8"
                    }
                  ],
                  "internalType": "struct Colors",
                  "name": "colors",
                  "type": "tuple"
                },
                {
                  "internalType": "uint16",
                  "name": "variant",
                  "type": "uint16"
                },
                {
                  "internalType": "uint8",
                  "name": "accuracy",
                  "type": "uint8"
                },
                {
                  "internalType": "uint8",
                  "name": "hull",
                  "type": "uint8"
                },
                {
                  "internalType": "uint8",
                  "name": "speed",
                  "type": "uint8"
                }
              ],
              "internalType": "struct Traits",
              "name": "traits",
              "type": "tuple"
            },
            {
              "components": [
                {
                  "internalType": "uint32",
                  "name": "shipsDestroyed",
                  "type": "uint32"
                },
                {
                  "internalType": "uint16",
                  "name": "costsVersion",
                  "type": "uint16"
                },
                {
                  "internalType": "uint16",
                  "name": "cost",
                  "type": "uint16"
                },
                {
                  "internalType": "uint16",
                  "name": "modified",
                  "type": "uint16"
                },
                {
                  "internalType": "bool",
                  "name": "shiny",
                  "type": "bool"
                },
                {
                  "internalType": "bool",
                  "name": "constructed",
                  "type": "bool"
                },
                {
                  "internalType": "bool",
                  "name": "inFleet",
                  "type": "bool"
                },
                {
                  "internalType": "bool",
                  "name": "isFreeShip",
                  "type": "bool"
                },
                {
                  "internalType": "uint256",
                  "name": "timestampDestroyed",
                  "type": "uint256"
                }
              ],
              "internalType": "struct ShipData",
              "name": "shipData",
              "type": "tuple"
            },
            {
              "internalType": "address",
              "name": "owner",
              "type": "address"
            }
          ],
          "internalType": "struct Ship",
          "name": "_ship",
          "type": "tuple"
        }
      ],
      "name": "createSpecificShip",
      "outputs": [
        {
          "internalType": "uint256",
          "name": "",
          "type": "uint256"
        }
      ],
      "stateMutability": "nonpayable",
      "type": "function"
    },
    {
      "inputs": [
        {
          "internalType": "uint256",
          "name": "_id",
          "type": "uint256"
        },
        {
          "components": [
            {
              "internalType": "string",
              "name": "name",
              "type": "string"
            },
            {
              "internalType": "uint256",
              "name": "id",
              "type": "uint256"
            },
            {
              "components": [
                {
                  "internalType": "enum MainWeapon",
                  "name": "mainWeapon",
                  "type": "uint8"
                },
                {
                  "internalType": "enum Armor",
                  "name": "armor",
                  "type": "uint8"
                },
                {
                  "internalType": "enum Shields",
                  "name": "shields",
                  "type": "uint8"
                },
                {
                  "internalType": "enum Special",
                  "name": "special",
                  "type": "uint8"
                }
              ],
              "internalType": "struct Equipment",
              "name": "equipment",
              "type": "tuple"
            },
            {
              "components": [
                {
                  "internalType": "uint256",
                  "name": "serialNumber",
                  "type": "uint256"
                },
                {
                  "components": [
                    {
                      "internalType": "uint16",
                      "name": "h1",
                      "type": "uint16"
                    },
                    {
                      "internalType": "uint8",
                      "name": "s1",
                      "type": "uint8"
                    },
                    {
                      "internalType": "uint8",
                      "name": "l1",
                      "type": "uint8"
                    },
                    {
                      "internalType": "uint16",
                      "name": "h2",
                      "type": "uint16"
                    },
                    {
                      "internalType": "uint8",
                      "name": "s2",
                      "type": "uint8"
                    },
                    {
                      "internalType": "uint8",
                      "name": "l2",
                      "type": "uint8"
                    },
                    {
                      "internalType": "uint16",
                      "name": "h3",
                      "type": "uint16"
                    },
                    {
                      "internalType": "uint8",
                      "name": "s3",
                      "type": "uint8"
                    },
                    {
                      "internalType": "uint8",
                      "name": "l3",
                      "type": "uint8"
                    }
                  ],
                  "internalType": "struct Colors",
                  "name": "colors",
                  "type": "tuple"
                },
                {
                  "internalType": "uint16",
                  "name": "variant",
                  "type": "uint16"
                },
                {
                  "internalType": "uint8",
                  "name": "accuracy",
                  "type": "uint8"
                },
                {
                  "internalType": "uint8",
                  "name": "hull",
                  "type": "uint8"
                },
                {
                  "internalType": "uint8",
                  "name": "speed",
                  "type": "uint8"
                }
              ],
              "internalType": "struct Traits",
              "name": "traits",
              "type": "tuple"
            },
            {
              "components": [
                {
                  "internalType": "uint32",
                  "name": "shipsDestroyed",
                  "type": "uint32"
                },
                {
                  "internalType": "uint16",
                  "name": "costsVersion",
                  "type": "uint16"
                },
                {
                  "internalType": "uint16",
                  "name": "cost",
                  "type": "uint16"
                },
                {
                  "internalType": "uint16",
                  "name": "modified",
                  "type": "uint16"
                },
                {
                  "internalType": "bool",
                  "name": "shiny",
                  "type": "bool"
                },
                {
                  "internalType": "bool",
                  "name": "constructed",
                  "type": "bool"
                },
                {
                  "internalType": "bool",
                  "name": "inFleet",
                  "type": "bool"
                },
                {
                  "internalType": "bool",
                  "name": "isFreeShip",
                  "type": "bool"
                },
                {
                  "internalType": "uint256",
                  "name": "timestampDestroyed",
                  "type": "uint256"
                }
              ],
              "internalType": "struct ShipData",
              "name": "shipData",
              "type": "tuple"
            },
            {
              "internalType": "address",
              "name": "owner",
              "type": "address"
            }
          ],
          "internalType": "struct Ship",
          "name": "_ship",
          "type": "tuple"
        }
      ],
      "name": "customizeShip",
      "outputs": [],
      "stateMutability": "nonpayable",
      "type": "function"
    },
    {
      "inputs": [
        {
          "internalType": "uint256",
          "name": "tokenId",
          "type": "uint256"
        }
      ],
      "name": "getApproved",
      "outputs": [
        {
          "internalType": "address",
          "name": "",
          "type": "address"
        }
      ],
      "stateMutability": "view",
      "type": "function"
    },
    {
      "inputs": [],
      "name": "getPurchaseInfo",
      "outputs": [
        {
          "internalType": "uint8[]",
          "name": "_tierShips",
          "type": "uint8[]"
        },
        {
          "internalType": "uint256[]",
          "name": "_tierPrices",
          "type": "uint256[]"
        }
      ],
      "stateMutability": "view",
      "type": "function"
    },
    {
      "inputs": [
        {
          "internalType": "uint256",
          "name": "_id",
          "type": "uint256"
        }
      ],
      "name": "getShip",
      "outputs": [
        {
          "components": [
            {
              "internalType": "string",
              "name": "name",
              "type": "string"
            },
            {
              "internalType": "uint256",
              "name": "id",
              "type": "uint256"
            },
            {
              "components": [
                {
                  "internalType": "enum MainWeapon",
                  "name": "mainWeapon",
                  "type": "uint8"
                },
                {
                  "internalType": "enum Armor",
                  "name": "armor",
                  "type": "uint8"
                },
                {
                  "internalType": "enum Shields",
                  "name": "shields",
                  "type": "uint8"
                },
                {
                  "internalType": "enum Special",
                  "name": "special",
                  "type": "uint8"
                }
              ],
              "internalType": "struct Equipment",
              "name": "equipment",
              "type": "tuple"
            },
            {
              "components": [
                {
                  "internalType": "uint256",
                  "name": "serialNumber",
                  "type": "uint256"
                },
                {
                  "components": [
                    {
                      "internalType": "uint16",
                      "name": "h1",
                      "type": "uint16"
                    },
                    {
                      "internalType": "uint8",
                      "name": "s1",
                      "type": "uint8"
                    },
                    {
                      "internalType": "uint8",
                      "name": "l1",
                      "type": "uint8"
                    },
                    {
                      "internalType": "uint16",
                      "name": "h2",
                      "type": "uint16"
                    },
                    {
                      "internalType": "uint8",
                      "name": "s2",
                      "type": "uint8"
                    },
                    {
                      "internalType": "uint8",
                      "name": "l2",
                      "type": "uint8"
                    },
                    {
                      "internalType": "uint16",
                      "name": "h3",
                      "type": "uint16"
                    },
                    {
                      "internalType": "uint8",
                      "name": "s3",
                      "type": "uint8"
                    },
                    {
                      "internalType": "uint8",
                      "name": "l3",
                      "type": "uint8"
                    }
                  ],
                  "internalType": "struct Colors",
                  "name": "colors",
                  "type": "tuple"
                },
                {
                  "internalType": "uint16",
                  "name": "variant",
                  "type": "uint16"
                },
                {
                  "internalType": "uint8",
                  "name": "accuracy",
                  "type": "uint8"
                },
                {
                  "internalType": "uint8",
                  "name": "hull",
                  "type": "uint8"
                },
                {
                  "internalType": "uint8",
                  "name": "speed",
                  "type": "uint8"
                }
              ],
              "internalType": "struct Traits",
              "name": "traits",
              "type": "tuple"
            },
            {
              "components": [
                {
                  "internalType": "uint32",
                  "name": "shipsDestroyed",
                  "type": "uint32"
                },
                {
                  "internalType": "uint16",
                  "name": "costsVersion",
                  "type": "uint16"
                },
                {
                  "internalType": "uint16",
                  "name": "cost",
                  "type": "uint16"
                },
                {
                  "internalType": "uint16",
                  "name": "modified",
                  "type": "uint16"
                },
                {
                  "internalType": "bool",
                  "name": "shiny",
                  "type": "bool"
                },
                {
                  "internalType": "bool",
                  "name": "constructed",
                  "type": "bool"
                },
                {
                  "internalType": "bool",
                  "name": "inFleet",
                  "type": "bool"
                },
                {
                  "internalType": "bool",
                  "name": "isFreeShip",
                  "type": "bool"
                },
                {
                  "internalType": "uint256",
                  "name": "timestampDestroyed",
                  "type": "uint256"
                }
              ],
              "internalType": "struct ShipData",
              "name": "shipData",
              "type": "tuple"
            },
            {
              "internalType": "address",
              "name": "owner",
              "type": "address"
            }
          ],
          "internalType": "struct Ship",
          "name": "",
          "type": "tuple"
        }
      ],
      "stateMutability": "view",
      "type": "function"
    },
    {
      "inputs": [
        {
          "internalType": "address",
          "name": "_owner",
          "type": "address"
        }
      ],
      "name": "getShipIdsOwned",
      "outputs": [
        {
          "internalType": "uint256[]",
          "name": "",
          "type": "uint256[]"
        }
      ],
      "stateMutability": "view",
      "type": "function"
    },
    {
      "inputs": [
        {
          "internalType": "uint256[]",
          "name": "_ids",
          "type": "uint256[]"
        }
      ],
      "name": "getShipsByIds",
      "outputs": [
        {
          "components": [
            {
              "internalType": "string",
              "name": "name",
              "type": "string"
            },
            {
              "internalType": "uint256",
              "name": "id",
              "type": "uint256"
            },
            {
              "components": [
                {
                  "internalType": "enum MainWeapon",
                  "name": "mainWeapon",
                  "type": "uint8"
                },
                {
                  "internalType": "enum Armor",
                  "name": "armor",
                  "type": "uint8"
                },
                {
                  "internalType": "enum Shields",
                  "name": "shields",
                  "type": "uint8"
                },
                {
                  "internalType": "enum Special",
                  "name": "special",
                  "type": "uint8"
                }
              ],
              "internalType": "struct Equipment",
              "name": "equipment",
              "type": "tuple"
            },
            {
              "components": [
                {
                  "internalType": "uint256",
                  "name": "serialNumber",
                  "type": "uint256"
                },
                {
                  "components": [
                    {
                      "internalType": "uint16",
                      "name": "h1",
                      "type": "uint16"
                    },
                    {
                      "internalType": "uint8",
                      "name": "s1",
                      "type": "uint8"
                    },
                    {
                      "internalType": "uint8",
                      "name": "l1",
                      "type": "uint8"
                    },
                    {
                      "internalType": "uint16",
                      "name": "h2",
                      "type": "uint16"
                    },
                    {
                      "internalType": "uint8",
                      "name": "s2",
                      "type": "uint8"
                    },
                    {
                      "internalType": "uint8",
                      "name": "l2",
                      "type": "uint8"
                    },
                    {
                      "internalType": "uint16",
                      "name": "h3",
                      "type": "uint16"
                    },
                    {
                      "internalType": "uint8",
                      "name": "s3",
                      "type": "uint8"
                    },
                    {
                      "internalType": "uint8",
                      "name": "l3",
                      "type": "uint8"
                    }
                  ],
                  "internalType": "struct Colors",
                  "name": "colors",
                  "type": "tuple"
                },
                {
                  "internalType": "uint16",
                  "name": "variant",
                  "type": "uint16"
                },
                {
                  "internalType": "uint8",
                  "name": "accuracy",
                  "type": "uint8"
                },
                {
                  "internalType": "uint8",
                  "name": "hull",
                  "type": "uint8"
                },
                {
                  "internalType": "uint8",
                  "name": "speed",
                  "type": "uint8"
                }
              ],
              "internalType": "struct Traits",
              "name": "traits",
              "type": "tuple"
            },
            {
              "components": [
                {
                  "internalType": "uint32",
                  "name": "shipsDestroyed",
                  "type": "uint32"
                },
                {
                  "internalType": "uint16",
                  "name": "costsVersion",
                  "type": "uint16"
                },
                {
                  "internalType": "uint16",
                  "name": "cost",
                  "type": "uint16"
                },
                {
                  "internalType": "uint16",
                  "name": "modified",
                  "type": "uint16"
                },
                {
                  "internalType": "bool",
                  "name": "shiny",
                  "type": "bool"
                },
                {
                  "internalType": "bool",
                  "name": "constructed",
                  "type": "bool"
                },
                {
                  "internalType": "bool",
                  "name": "inFleet",
                  "type": "bool"
                },
                {
                  "internalType": "bool",
                  "name": "isFreeShip",
                  "type": "bool"
                },
                {
                  "internalType": "uint256",
                  "name": "timestampDestroyed",
                  "type": "uint256"
                }
              ],
              "internalType": "struct ShipData",
              "name": "shipData",
              "type": "tuple"
            },
            {
              "internalType": "address",
              "name": "owner",
              "type": "address"
            }
          ],
          "internalType": "struct Ship[]",
          "name": "",
          "type": "tuple[]"
        }
      ],
      "stateMutability": "view",
      "type": "function"
    },
    {
      "inputs": [
        {
          "internalType": "uint256",
          "name": "_trait",
          "type": "uint256"
        }
      ],
      "name": "getTierOfTrait",
      "outputs": [
        {
          "internalType": "uint8",
          "name": "",
          "type": "uint8"
        }
      ],
      "stateMutability": "pure",
      "type": "function"
    },
    {
      "inputs": [
        {
          "internalType": "address",
          "name": "",
          "type": "address"
        }
      ],
      "name": "isAllowedToCreateShips",
      "outputs": [
        {
          "internalType": "bool",
          "name": "",
          "type": "bool"
        }
      ],
      "stateMutability": "view",
      "type": "function"
    },
    {
      "inputs": [
        {
          "internalType": "address",
          "name": "owner",
          "type": "address"
        },
        {
          "internalType": "address",
          "name": "operator",
          "type": "address"
        }
      ],
      "name": "isApprovedForAll",
      "outputs": [
        {
          "internalType": "bool",
          "name": "",
          "type": "bool"
        }
      ],
      "stateMutability": "view",
      "type": "function"
    },
    {
      "inputs": [
        {
          "internalType": "uint256",
          "name": "_id",
          "type": "uint256"
        }
      ],
      "name": "isShipDestroyed",
      "outputs": [
        {
          "internalType": "bool",
          "name": "",
          "type": "bool"
        }
      ],
      "stateMutability": "view",
      "type": "function"
    },
    {
      "inputs": [
        {
          "internalType": "address",
          "name": "",
          "type": "address"
        }
      ],
      "name": "lastClaimTimestamp",
      "outputs": [
        {
          "internalType": "uint256",
          "name": "",
          "type": "uint256"
        }
      ],
      "stateMutability": "view",
      "type": "function"
    },
    {
      "inputs": [],
      "name": "maxVariant",
      "outputs": [
        {
          "internalType": "uint16",
          "name": "",
          "type": "uint16"
        }
      ],
      "stateMutability": "view",
      "type": "function"
    },
    {
      "inputs": [],
      "name": "name",
      "outputs": [
        {
          "internalType": "string",
          "name": "",
          "type": "string"
        }
      ],
      "stateMutability": "view",
      "type": "function"
    },
    {
      "inputs": [],
      "name": "owner",
      "outputs": [
        {
          "internalType": "address",
          "name": "",
          "type": "address"
        }
      ],
      "stateMutability": "view",
      "type": "function"
    },
    {
      "inputs": [
        {
          "internalType": "uint256",
          "name": "tokenId",
          "type": "uint256"
        }
      ],
      "name": "ownerOf",
      "outputs": [
        {
          "internalType": "address",
          "name": "",
          "type": "address"
        }
      ],
      "stateMutability": "view",
      "type": "function"
    },
    {
      "inputs": [],
      "name": "paused",
      "outputs": [
        {
          "internalType": "bool",
          "name": "",
          "type": "bool"
        }
      ],
      "stateMutability": "view",
      "type": "function"
    },
    {
      "inputs": [
        {
          "internalType": "address",
          "name": "_to",
          "type": "address"
        },
        {
          "internalType": "uint8",
          "name": "_tier",
          "type": "uint8"
        },
        {
          "internalType": "address",
          "name": "_referral",
          "type": "address"
        },
        {
          "internalType": "uint16",
          "name": "_variant",
          "type": "uint16"
        }
      ],
      "name": "purchaseWithFlow",
      "outputs": [],
      "stateMutability": "payable",
      "type": "function"
    },
    {
      "inputs": [],
      "name": "recycleReward",
      "outputs": [
        {
          "internalType": "uint256",
          "name": "",
          "type": "uint256"
        }
      ],
      "stateMutability": "view",
      "type": "function"
    },
    {
      "inputs": [
        {
          "internalType": "address",
          "name": "",
          "type": "address"
        }
      ],
      "name": "referralCount",
      "outputs": [
        {
          "internalType": "uint256",
          "name": "",
          "type": "uint256"
        }
      ],
      "stateMutability": "view",
      "type": "function"
    },
    {
      "inputs": [],
      "name": "renounceOwnership",
      "outputs": [],
      "stateMutability": "nonpayable",
      "type": "function"
    },
    {
      "inputs": [
        {
          "internalType": "address",
          "name": "from",
          "type": "address"
        },
        {
          "internalType": "address",
          "name": "to",
          "type": "address"
        },
        {
          "internalType": "uint256",
          "name": "tokenId",
          "type": "uint256"
        }
      ],
      "name": "safeTransferFrom",
      "outputs": [],
      "stateMutability": "nonpayable",
      "type": "function"
    },
    {
      "inputs": [
        {
          "internalType": "address",
          "name": "from",
          "type": "address"
        },
        {
          "internalType": "address",
          "name": "to",
          "type": "address"
        },
        {
          "internalType": "uint256",
          "name": "tokenId",
          "type": "uint256"
        },
        {
          "internalType": "bytes",
          "name": "data",
          "type": "bytes"
        }
      ],
      "name": "safeTransferFrom",
      "outputs": [],
      "stateMutability": "nonpayable",
      "type": "function"
    },
    {
      "inputs": [
        {
          "internalType": "address",
          "name": "operator",
          "type": "address"
        },
        {
          "internalType": "bool",
          "name": "approved",
          "type": "bool"
        }
      ],
      "name": "setApprovalForAll",
      "outputs": [],
      "stateMutability": "nonpayable",
      "type": "function"
    },
    {
      "inputs": [
        {
          "internalType": "uint256",
          "name": "_newCooldownPeriod",
          "type": "uint256"
        }
      ],
      "name": "setClaimCooldownPeriod",
      "outputs": [],
      "stateMutability": "nonpayable",
      "type": "function"
    },
    {
      "inputs": [
        {
          "internalType": "address",
          "name": "_gameAddress",
          "type": "address"
        },
        {
          "internalType": "address",
          "name": "_lobbyAddress",
          "type": "address"
        },
        {
          "internalType": "address",
          "name": "_fleetsAddress",
          "type": "address"
        },
        {
          "internalType": "address",
          "name": "_shipGenerator",
          "type": "address"
        },
        {
          "internalType": "address",
          "name": "_randomManager",
          "type": "address"
        },
        {
          "internalType": "address",
          "name": "_metadataRenderer",
          "type": "address"
        },
        {
          "internalType": "address",
          "name": "_shipAttributes",
          "type": "address"
        },
        {
          "internalType": "address",
          "name": "_universalCredits",
          "type": "address"
        }
      ],
      "name": "setConfig",
      "outputs": [],
      "stateMutability": "nonpayable",
      "type": "function"
    },
    {
      "inputs": [
        {
          "internalType": "uint256",
          "name": "_id",
          "type": "uint256"
        }
      ],
      "name": "setCostOfShip",
      "outputs": [],
      "stateMutability": "nonpayable",
      "type": "function"
    },
    {
      "inputs": [
        {
          "internalType": "uint256",
          "name": "_id",
          "type": "uint256"
        },
        {
          "internalType": "bool",
          "name": "_inFleet",
          "type": "bool"
        }
      ],
      "name": "setInFleet",
      "outputs": [],
      "stateMutability": "nonpayable",
      "type": "function"
    },
    {
      "inputs": [
        {
          "internalType": "address",
          "name": "_address",
          "type": "address"
        },
        {
          "internalType": "bool",
          "name": "_isAllowed",
          "type": "bool"
        }
      ],
      "name": "setIsAllowedToCreateShips",
      "outputs": [],
      "stateMutability": "nonpayable",
      "type": "function"
    },
    {
      "inputs": [
        {
          "internalType": "uint16",
          "name": "_maxVariant",
          "type": "uint16"
        }
      ],
      "name": "setMaxVariant",
      "outputs": [],
      "stateMutability": "nonpayable",
      "type": "function"
    },
    {
      "inputs": [
        {
          "internalType": "bool",
          "name": "_paused",
          "type": "bool"
        }
      ],
      "name": "setPaused",
      "outputs": [],
      "stateMutability": "nonpayable",
      "type": "function"
    },
    {
      "inputs": [
        {
          "internalType": "uint8[]",
          "name": "_tierShips",
          "type": "uint8[]"
        },
        {
          "internalType": "uint256[]",
          "name": "_tierPrices",
          "type": "uint256[]"
        }
      ],
      "name": "setPurchaseInfo",
      "outputs": [],
      "stateMutability": "nonpayable",
      "type": "function"
    },
    {
      "inputs": [
        {
          "internalType": "uint256",
          "name": "_newReward",
          "type": "uint256"
        }
      ],
      "name": "setRecycleReward",
      "outputs": [],
      "stateMutability": "nonpayable",
      "type": "function"
    },
    {
      "inputs": [
        {
          "internalType": "uint256",
          "name": "_id",
          "type": "uint256"
        },
        {
          "internalType": "uint256",
          "name": "_destroyerId",
          "type": "uint256"
        }
      ],
      "name": "setTimestampDestroyed",
      "outputs": [],
      "stateMutability": "nonpayable",
      "type": "function"
    },
    {
      "inputs": [
        {
          "internalType": "uint256[]",
          "name": "_shipIds",
          "type": "uint256[]"
        }
      ],
      "name": "shipBreaker",
      "outputs": [],
      "stateMutability": "nonpayable",
      "type": "function"
    },
    {
      "inputs": [],
      "name": "shipCount",
      "outputs": [
        {
          "internalType": "uint256",
          "name": "",
          "type": "uint256"
        }
      ],
      "stateMutability": "view",
      "type": "function"
    },
    {
      "inputs": [
        {
          "internalType": "uint256",
          "name": "",
          "type": "uint256"
        }
      ],
      "name": "ships",
      "outputs": [
        {
          "internalType": "string",
          "name": "name",
          "type": "string"
        },
        {
          "internalType": "uint256",
          "name": "id",
          "type": "uint256"
        },
        {
          "components": [
            {
              "internalType": "enum MainWeapon",
              "name": "mainWeapon",
              "type": "uint8"
            },
            {
              "internalType": "enum Armor",
              "name": "armor",
              "type": "uint8"
            },
            {
              "internalType": "enum Shields",
              "name": "shields",
              "type": "uint8"
            },
            {
              "internalType": "enum Special",
              "name": "special",
              "type": "uint8"
            }
          ],
          "internalType": "struct Equipment",
          "name": "equipment",
          "type": "tuple"
        },
        {
          "components": [
            {
              "internalType": "uint256",
              "name": "serialNumber",
              "type": "uint256"
            },
            {
              "components": [
                {
                  "internalType": "uint16",
                  "name": "h1",
                  "type": "uint16"
                },
                {
                  "internalType": "uint8",
                  "name": "s1",
                  "type": "uint8"
                },
                {
                  "internalType": "uint8",
                  "name": "l1",
                  "type": "uint8"
                },
                {
                  "internalType": "uint16",
                  "name": "h2",
                  "type": "uint16"
                },
                {
                  "internalType": "uint8",
                  "name": "s2",
                  "type": "uint8"
                },
                {
                  "internalType": "uint8",
                  "name": "l2",
                  "type": "uint8"
                },
                {
                  "internalType": "uint16",
                  "name": "h3",
                  "type": "uint16"
                },
                {
                  "internalType": "uint8",
                  "name": "s3",
                  "type": "uint8"
                },
                {
                  "internalType": "uint8",
                  "name": "l3",
                  "type": "uint8"
                }
              ],
              "internalType": "struct Colors",
              "name": "colors",
              "type": "tuple"
            },
            {
              "internalType": "uint16",
              "name": "variant",
              "type": "uint16"
            },
            {
              "internalType": "uint8",
              "name": "accuracy",
              "type": "uint8"
            },
            {
              "internalType": "uint8",
              "name": "hull",
              "type": "uint8"
            },
            {
              "internalType": "uint8",
              "name": "speed",
              "type": "uint8"
            }
          ],
          "internalType": "struct Traits",
          "name": "traits",
          "type": "tuple"
        },
        {
          "components": [
            {
              "internalType": "uint32",
              "name": "shipsDestroyed",
              "type": "uint32"
            },
            {
              "internalType": "uint16",
              "name": "costsVersion",
              "type": "uint16"
            },
            {
              "internalType": "uint16",
              "name": "cost",
              "type": "uint16"
            },
            {
              "internalType": "uint16",
              "name": "modified",
              "type": "uint16"
            },
            {
              "internalType": "bool",
              "name": "shiny",
              "type": "bool"
            },
            {
              "internalType": "bool",
              "name": "constructed",
              "type": "bool"
            },
            {
              "internalType": "bool",
              "name": "inFleet",
              "type": "bool"
            },
            {
              "internalType": "bool",
              "name": "isFreeShip",
              "type": "bool"
            },
            {
              "internalType": "uint256",
              "name": "timestampDestroyed",
              "type": "uint256"
            }
          ],
          "internalType": "struct ShipData",
          "name": "shipData",
          "type": "tuple"
        },
        {
          "internalType": "address",
          "name": "owner",
          "type": "address"
        }
      ],
      "stateMutability": "view",
      "type": "function"
    },
    {
      "inputs": [
        {
          "internalType": "bytes4",
          "name": "interfaceId",
          "type": "bytes4"
        }
      ],
      "name": "supportsInterface",
      "outputs": [
        {
          "internalType": "bool",
          "name": "",
          "type": "bool"
        }
      ],
      "stateMutability": "view",
      "type": "function"
    },
    {
      "inputs": [],
      "name": "symbol",
      "outputs": [
        {
          "internalType": "string",
          "name": "",
          "type": "string"
        }
      ],
      "stateMutability": "view",
      "type": "function"
    },
    {
      "inputs": [
        {
          "internalType": "uint256[]",
          "name": "_ids",
          "type": "uint256[]"
        }
      ],
      "name": "syncShipCosts",
      "outputs": [],
      "stateMutability": "nonpayable",
      "type": "function"
    },
    {
      "inputs": [
        {
          "internalType": "uint256",
          "name": "",
          "type": "uint256"
        }
      ],
      "name": "tierPrices",
      "outputs": [
        {
          "internalType": "uint256",
          "name": "",
          "type": "uint256"
        }
      ],
      "stateMutability": "view",
      "type": "function"
    },
    {
      "inputs": [
        {
          "internalType": "uint256",
          "name": "",
          "type": "uint256"
        }
      ],
      "name": "tierShips",
      "outputs": [
        {
          "internalType": "uint8",
          "name": "",
          "type": "uint8"
        }
      ],
      "stateMutability": "view",
      "type": "function"
    },
    {
      "inputs": [
        {
          "internalType": "uint256",
          "name": "_id",
          "type": "uint256"
        }
      ],
      "name": "tokenURI",
      "outputs": [
        {
          "internalType": "string",
          "name": "",
          "type": "string"
        }
      ],
      "stateMutability": "view",
      "type": "function"
    },
    {
      "inputs": [
        {
          "internalType": "address",
          "name": "from",
          "type": "address"
        },
        {
          "internalType": "address",
          "name": "to",
          "type": "address"
        },
        {
          "internalType": "uint256",
          "name": "tokenId",
          "type": "uint256"
        }
      ],
      "name": "transferFrom",
      "outputs": [],
      "stateMutability": "nonpayable",
      "type": "function"
    },
    {
      "inputs": [
        {
          "internalType": "address",
          "name": "newOwner",
          "type": "address"
        }
      ],
      "name": "transferOwnership",
      "outputs": [],
      "stateMutability": "nonpayable",
      "type": "function"
    },
    {
      "inputs": [],
      "name": "universalCredits",
      "outputs": [
        {
          "internalType": "contract IUniversalCredits",
          "name": "",
          "type": "address"
        }
      ],
      "stateMutability": "view",
      "type": "function"
    },
    {
      "inputs": [],
      "name": "withdraw",
      "outputs": [],
      "stateMutability": "nonpayable",
      "type": "function"
    }
  ],
  "bytecode": "0x60806040526224ea00600d556018805462ffff00191661010017905567016345785d8a0000601b5534801561003357600080fd5b5060405161649238038061649283398101604081905261005291610304565b3360405180604001604052806012815260200171566f6964205461637469637320536869707360701b815250604051806040016040528060048152602001630534849560e41b81525081600090816100aa91906103d3565b5060016100b782826103d3565b5050506001600160a01b0381166100e857604051631e4fbdf760e01b81526000600482015260240160405180910390fd5b6100f1816101b1565b506001600755601280546001600160a01b0319166001600160a01b0383161790556040805160a0810182526005808252600b6020830152601692820183905260286060830152603c6080830152610149929190610203565b506040805160a0810182526745400a8fd53300008152678aa39c121a27000060208201526801156abf16a40f0000918101919091526801e595739d72eb000060608201526802b5c0282441c7000060808201526101aa9060179060056102a9565b5050610491565b600680546001600160a01b038381166001600160a01b0319831681179093556040519116919082907f8be0079c531659141344cd1fd0a4f28419497f9722a3daafe3b4186f6b6457e090600090a35050565b82805482825590600052602060002090601f016020900481019282156102995791602002820160005b8382111561026a57835183826101000a81548160ff021916908360ff160217905550926020019260010160208160000104928301926001030261022c565b80156102975782816101000a81549060ff021916905560010160208160000104928301926001030261026a565b505b506102a59291506102ef565b5090565b828054828255906000526020600020908101928215610299579160200282015b8281111561029957825182906001600160481b03169055916020019190600101906102c9565b5b808211156102a557600081556001016102f0565b60006020828403121561031657600080fd5b81516001600160a01b038116811461032d57600080fd5b9392505050565b634e487b7160e01b600052604160045260246000fd5b600181811c9082168061035e57607f821691505b60208210810361037e57634e487b7160e01b600052602260045260246000fd5b50919050565b601f8211156103ce57806000526020600020601f840160051c810160208510156103ab5750805b601f840160051c820191505b818110156103cb57600081556001016103b7565b50505b505050565b81516001600160401b038111156103ec576103ec610334565b610400816103fa845461034a565b84610384565b6020601f821160018114610434576000831561041c5750848201515b600019600385901b1c1916600184901b1784556103cb565b600084815260208120601f198516915b828110156104645787850151825560209485019460019092019101610444565b50848210156104825786840151600019600387901b60f8161c191681555b50505050600190811b01905550565b615ff2806104a06000396000f3fe6080604052600436106103755760003560e01c806368382aad116101d157806395d89b4111610102578063d08acd93116100a0578063e6b5c3351161006f578063e6b5c33514610b05578063e985e9c514610b25578063f25a034214610b45578063f2fde38b14610b7257600080fd5b8063d08acd9314610a82578063db74559b14610a98578063dd77071214610ac5578063dd81d5bf14610ae557600080fd5b8063b4e847a0116100dc578063b4e847a0146109ff578063b88d4fde14610a15578063bd9d518b14610a35578063c87b56dd14610a6257600080fd5b806395d89b41146109aa578063977216c2146109bf578063a22cb465146109df57600080fd5b806379502c551161016f5780638163997c116101495780638163997c146109255780638c79d7e31461093a5780638da5cb5b1461095a578063959601011461097857600080fd5b806379502c55146108575780637d9e9d30146108e55780637eebe99d1461090557600080fd5b8063710cbc44116101ab578063710cbc44146107dc578063715018a6146107f257806375bfe4201461080757806378fa901c1461083757600080fd5b806368382aad146107695780636e0f7a481461079c57806370a08231146107bc57600080fd5b80634025b22d116102ab57806359e651e011610249578063600917ff11610223578063600917ff146106e457806361212431146106f7578063614008f1146107295780636352211e1461074957600080fd5b806359e651e01461067d5780635b91bbca146106aa5780635c975abb146106ca57600080fd5b8063446c00f711610285578063446c00f7146105e857806348cfc19e146106085780634d4e8dfa1461062b578063514c2ece1461065d57600080fd5b80634025b22d1461057b57806342842e0e146105a85780634346b150146105c857600080fd5b806316c38b3c116103185780631ca0df9e116102f25780631ca0df9e1461050657806323b872dd14610526578063300eccab146105465780633ccfd60b1461056657600080fd5b806316c38b3c146104a657806317225941146104c65780631a0111aa146104e657600080fd5b8063074ba79d11610354578063074ba79d146103f3578063081812fc1461042e578063095ea7b31461046657806311a960cd1461048657600080fd5b8062dbc7381461037a57806301ffc9a71461039c57806306fdde03146103d1575b600080fd5b34801561038657600080fd5b5061039a6103953660046144dd565b610b92565b005b3480156103a857600080fd5b506103bc6103b736600461459c565b610c28565b60405190151581526020015b60405180910390f35b3480156103dd57600080fd5b506103e6610c7a565b6040516103c89190614609565b3480156103ff57600080fd5b5061042061040e36600461461c565b600c6020526000908152604090205481565b6040519081526020016103c8565b34801561043a57600080fd5b5061044e610449366004614639565b610d0c565b6040516001600160a01b0390911681526020016103c8565b34801561047257600080fd5b5061039a610481366004614652565b610d35565b34801561049257600080fd5b5061039a6104a136600461467e565b610d44565b3480156104b257600080fd5b5061039a6104c13660046146b9565b610f09565b3480156104d257600080fd5b50601a5461044e906001600160a01b031681565b3480156104f257600080fd5b5061039a610501366004614721565b610f24565b34801561051257600080fd5b5061039a610521366004614790565b610f6c565b34801561053257600080fd5b5061039a6105413660046147d1565b610fa5565b34801561055257600080fd5b50610420610561366004614639565b611030565b34801561057257600080fd5b5061039a611051565b34801561058757600080fd5b5061059b610596366004614639565b6110e1565b6040516103c89190614a85565b3480156105b457600080fd5b5061039a6105c33660046147d1565b611580565b3480156105d457600080fd5b5061039a6105e3366004614790565b61159b565b3480156105f457600080fd5b5061039a610603366004614639565b611722565b34801561061457600080fd5b5061061d611771565b6040516103c8929190614ad4565b34801561063757600080fd5b5061064b610646366004614639565b611842565b6040516103c896959493929190614b25565b34801561066957600080fd5b5061039a610678366004614639565b611ca8565b34801561068957600080fd5b5061069d61069836600461461c565b611cb5565b6040516103c89190614b87565b3480156106b657600080fd5b5061039a6106c5366004614bb5565b611cd9565b3480156106d657600080fd5b506018546103bc9060ff1681565b61039a6106f2366004614bec565b611d72565b34801561070357600080fd5b50610717610712366004614639565b611ede565b60405160ff90911681526020016103c8565b34801561073557600080fd5b50610420610744366004614c61565b611f12565b34801561075557600080fd5b5061044e610764366004614639565b611f85565b34801561077557600080fd5b5060185461078990610100900461ffff1681565b60405161ffff90911681526020016103c8565b3480156107a857600080fd5b506107176107b7366004614639565b611f90565b3480156107c857600080fd5b506104206107d736600461461c565b611fb8565b3480156107e857600080fd5b50610420600d5481565b3480156107fe57600080fd5b5061039a612000565b34801561081357600080fd5b506103bc61082236600461461c565b60196020526000908152604090205460ff1681565b34801561084357600080fd5b5061039a610852366004614cb0565b612014565b34801561086357600080fd5b50600f5460105460115460125460135460145460155461089c966001600160a01b03908116968116958116948116938116928116911687565b604080516001600160a01b039889168152968816602088015294871694860194909452918516606085015284166080840152831660a083015290911660c082015260e0016103c8565b3480156108f157600080fd5b5061039a610900366004614790565b6120e2565b34801561091157600080fd5b5061039a610920366004614cf8565b612116565b34801561093157600080fd5b5061039a6121fa565b34801561094657600080fd5b5061039a610955366004614d28565b61228e565b34801561096657600080fd5b506006546001600160a01b031661044e565b34801561098457600080fd5b506103bc610993366004614639565b600090815260086020526040902060070154151590565b3480156109b657600080fd5b506103e66122c1565b3480156109cb57600080fd5b5061039a6109da366004614639565b6122d0565b3480156109eb57600080fd5b5061039a6109fa366004614d28565b6122dd565b348015610a0b57600080fd5b5061042060095481565b348015610a2157600080fd5b5061039a610a30366004614e6e565b6122e8565b348015610a4157600080fd5b50610420610a5036600461461c565b600b6020526000908152604090205481565b348015610a6e57600080fd5b506103e6610a7d366004614639565b612300565b348015610a8e57600080fd5b50610420601b5481565b348015610aa457600080fd5b50610420610ab336600461461c565b600e6020526000908152604090205481565b348015610ad157600080fd5b5061039a610ae0366004614eed565b612384565b348015610af157600080fd5b5061039a610b00366004614639565b6123cf565b348015610b1157600080fd5b5061039a610b20366004614bb5565b61289f565b348015610b3157600080fd5b506103bc610b40366004614f1d565b6128c5565b348015610b5157600080fd5b50610b65610b60366004614790565b6128f3565b6040516103c89190614f4b565b348015610b7e57600080fd5b5061039a610b8d36600461461c565b612e29565b610b9a612e64565b600f80546001600160a01b03199081166001600160a01b039a8b1617909155601080548216988a1698909817909755601180548816968916969096179095556014805487169488169490941790935560138054861692871692909217909155601280548516918616919091179055601580548416918516919091179055601a80549092169216919091179055565b60006001600160e01b031982166380ac58cd60e01b1480610c5957506001600160e01b03198216635b5e139f60e01b145b80610c7457506301ffc9a760e01b6001600160e01b03198316145b92915050565b606060008054610c8990614fb0565b80601f0160208091040260200160405190810160405280929190818152602001828054610cb590614fb0565b8015610d025780601f10610cd757610100808354040283529160200191610d02565b820191906000526020600020905b815481529060010190602001808311610ce557829003601f168201915b5050505050905090565b6000610d1782612e91565b506000828152600460205260409020546001600160a01b0316610c74565b610d40828233612eca565b5050565b6006546001600160a01b03163314801590610d6a5750600f546001600160a01b03163314155b15610d8f57604051634a0bfec160e01b81523360048201526024015b60405180910390fd5b60008281526008602052604090206007015415610dc25760405163163fe02b60e11b815260048101839052602401610d86565b600082815260086020526040908190204260079091015551600080516020615f9d83398151915290610df79084815260200190565b60405180910390a16000818152600860205260408120600601805463ffffffff1691610e2283614ffa565b825463ffffffff9182166101009390930a928302919092021990911617905550600081815260086020819052604090912001546001600160a01b03168015610ed157601a54601b546040516340c10f1960e01b81526001600160a01b03848116600483015260029290921c60248201529116906340c10f1990604401600060405180830381600087803b158015610eb857600080fd5b505af1158015610ecc573d6000803e3d6000fd5b505050505b6040518381527ff8e1a15aba9398e019f0b49df1a4fde98ee17ae345cb5f6b5e2c27f5033e8ce79060200160405180910390a1505050565b610f11612e64565b6018805460ff1916911515919091179055565b610f2c612e64565b828114610f4c5760405163512509d360e11b815260040160405180910390fd5b610f58601685856142a1565b50610f656017838361434a565b5050505050565b60005b81811015610fa057610f98838383818110610f8c57610f8c61501f565b90506020020135612ed7565b600101610f6f565b505050565b6001600160a01b038216610fcf57604051633250574960e11b815260006004820152602401610d86565b6000610fdc838333613046565b9050836001600160a01b0316816001600160a01b03161461102a576040516364283d7b60e01b81526001600160a01b0380861660048301526024820184905282166044820152606401610d86565b50505050565b6017818154811061104057600080fd5b600091825260209091200154905081565b611059612e64565b600061106d6006546001600160a01b031690565b6001600160a01b03164760405160006040518083038185875af1925050503d80600081146110b7576040519150601f19603f3d011682016040523d82523d6000602084013e6110bc565b606091505b50509050806110de576040516327fcd9d160e01b815260040160405180910390fd5b50565b6110e9614385565b60008281526008602052604090819020815160c0810190925280548290829061111190614fb0565b80601f016020809104026020016040519081016040528092919081815260200182805461113d90614fb0565b801561118a5780601f1061115f5761010080835404028352916020019161118a565b820191906000526020600020905b81548152906001019060200180831161116d57829003601f168201915b5050509183525050600182015460208201526040805160808101825260028401805492909301929091829060ff1660078111156111c9576111c9614812565b60078111156111da576111da614812565b81528154602090910190610100900460ff1660078111156111fd576111fd614812565b600781111561120e5761120e614812565b8152815460209091019062010000900460ff16600781111561123257611232614812565b600781111561124357611243614812565b815281546020909101906301000000900460ff16600781111561126857611268614812565b600781111561127957611279614812565b815250508152602001600382016040518060c00160405290816000820154815260200160018201604051806101200160405290816000820160009054906101000a900461ffff1661ffff1661ffff1681526020016000820160029054906101000a900460ff1660ff1660ff1681526020016000820160039054906101000a900460ff1660ff1660ff1681526020016000820160049054906101000a900461ffff1661ffff1661ffff1681526020016000820160069054906101000a900460ff1660ff1660ff1681526020016000820160079054906101000a900460ff1660ff1660ff1681526020016000820160089054906101000a900461ffff1661ffff1661ffff16815260200160008201600a9054906101000a900460ff1660ff1660ff16815260200160008201600b9054906101000a900460ff1660ff1660ff168152505081526020016002820160009054906101000a900461ffff1661ffff1661ffff1681526020016002820160029054906101000a900460ff1660ff1660ff1681526020016002820160039054906101000a900460ff1660ff1660ff1681526020016002820160049054906101000a900460ff1660ff1660ff1681525050815260200160068201604051806101200160405290816000820160009054906101000a900463ffffffff1663ffffffff1663ffffffff1681526020016000820160049054906101000a900461ffff1661ffff1661ffff1681526020016000820160069054906101000a900461ffff1661ffff1661ffff1681526020016000820160089054906101000a900461ffff1661ffff1661ffff16815260200160008201600a9054906101000a900460ff1615151515815260200160008201600b9054906101000a900460ff1615151515815260200160008201600c9054906101000a900460ff1615151515815260200160008201600d9054906101000a900460ff1615151515815260200160018201548152505081526020016008820160009054906101000a90046001600160a01b03166001600160a01b03166001600160a01b0316815250509050919050565b610fa0838383604051806020016040528060008152506122e8565b6115a3613226565b6000805b828110156116ab5760008484838181106115c3576115c361501f565b60209081029290920135600081815260089384905260409020928301549093506001600160a01b03163314905061160f5760405162dd34af60e41b815260048101839052602401610d86565b6006810154600160681b900460ff161561163f5760405163c4d9079d60e01b815260048101839052602401610d86565b6007810154151560008161165557601b5461165c565b601b5460011c5b426007850155604051858152909150600080516020615f9d8339815191529060200160405180910390a161168f84613250565b6116998187615035565b955050600190930192506115a7915050565b50801561171757601a546040516340c10f1960e01b8152336004820152602481018390526001600160a01b03909116906340c10f1990604401600060405180830381600087803b1580156116fe57600080fd5b505af1158015611712573d6000803e3d6000fd5b505050505b50610d406001600755565b6006546001600160a01b031633148015906117485750600f546001600160a01b03163314155b1561176857604051634a0bfec160e01b8152336004820152602401610d86565b6110de81612ed7565b60608060166017818054806020026020016040519081016040528092919081815260200182805480156117e157602002820191906000526020600020906000905b825461010083900a900460ff168152602060019283018181049485019490930390920291018084116117b25790505b505050505091508080548060200260200160405190810160405280929190818152602001828054801561183357602002820191906000526020600020905b81548152602001906001019080831161181f575b50505050509050915091509091565b60086020526000908152604090208054819061185d90614fb0565b80601f016020809104026020016040519081016040528092919081815260200182805461188990614fb0565b80156118d65780601f106118ab576101008083540402835291602001916118d6565b820191906000526020600020905b8154815290600101906020018083116118b957829003601f168201915b505050505090806001015490806002016040518060800160405290816000820160009054906101000a900460ff16600781111561191557611915614812565b600781111561192657611926614812565b81528154602090910190610100900460ff16600781111561194957611949614812565b600781111561195a5761195a614812565b8152815460209091019062010000900460ff16600781111561197e5761197e614812565b600781111561198f5761198f614812565b815281546020909101906301000000900460ff1660078111156119b4576119b4614812565b60078111156119c5576119c5614812565b8152505090806003016040518060c00160405290816000820154815260200160018201604051806101200160405290816000820160009054906101000a900461ffff1661ffff1661ffff1681526020016000820160029054906101000a900460ff1660ff1660ff1681526020016000820160039054906101000a900460ff1660ff1660ff1681526020016000820160049054906101000a900461ffff1661ffff1661ffff1681526020016000820160069054906101000a900460ff1660ff1660ff1681526020016000820160079054906101000a900460ff1660ff1660ff1681526020016000820160089054906101000a900461ffff1661ffff1661ffff16815260200160008201600a9054906101000a900460ff1660ff1660ff16815260200160008201600b9054906101000a900460ff1660ff1660ff168152505081526020016002820160009054906101000a900461ffff1661ffff1661ffff1681526020016002820160029054906101000a900460ff1660ff1660ff1681526020016002820160039054906101000a900460ff1660ff1660ff1681526020016002820160049054906101000a900460ff1660ff1660ff16815250509080600601604051806101200160405290816000820160009054906101000a900463ffffffff1663ffffffff1663ffffffff1681526020016000820160049054906101000a900461ffff1661ffff1661ffff1681526020016000820160069054906101000a900461ffff1661ffff1661ffff1681526020016000820160089054906101000a900461ffff1661ffff1661ffff16815260200160008201600a9054906101000a900460ff1615151515815260200160008201600b9054906101000a900460ff1615151515815260200160008201600c9054906101000a900460ff1615151515815260200160008201600d9054906101000a900460ff16151515158152602001600182015481525050908060080160009054906101000a90046001600160a01b0316905086565b611cb0612e64565b600d55565b6001600160a01b0381166000908152600a60205260409020606090610c749061328b565b336000908152600b6020526040902054600d544290611cf89083615035565b811015611d18576040516337a193d360e21b815260040160405180910390fd5b60005b600a811015611d5d57611d303385600061329f565b6009546000908152600860205260409020600601805460ff60681b1916600160681b179055600101611d1b565b50336000908152600b60205260409020555050565b611d7a613226565b60178360ff1681548110611d9057611d9061501f565b90600052602060002001543414611dc5576040516312a1605d60e31b815260ff84166004820152346024820152604401610d86565b600060168460ff1681548110611ddd57611ddd61501f565b60009182526020808320908204015460ff601f9092166101000a9004169150611e07856001615048565b905060005b82811015611e69578160ff16811015611e5557600081611e2d886001615048565b60ff16611e3a9190615061565b9050611e4f8886611e4a84613442565b61329f565b50611e61565b611e618785600061329f565b600101611e0c565b506001600160a01b03841615611ea457611ea4848360178860ff1681548110611e9457611e9461501f565b90600052602060002001546134ad565b6001600160a01b0386166000908152600c602052604081208054849290611ecc908490615035565b909155505060016007555061102a9050565b60168181548110611eee57600080fd5b9060005260206000209060209182820401919006915054906101000a900460ff1681565b3360009081526019602052604081205460ff16611f4457604051634a0bfec160e01b8152336004820152602401610d86565b611f6183611f5a61022085016102008601614bb5565b600061329f565b6009546000818152600860205260409020611f7d8183866135d8565b509392505050565b6000610c7482612e91565b600060328210611fb05760508210611fa9576002610c74565b6001610c74565b600092915050565b60006001600160a01b038216611fe4576040516322718ad960e21b815260006004820152602401610d86565b506001600160a01b031660009081526003602052604090205490565b612008612e64565b6120126000613894565b565b3360009081526019602052604090205460ff1661204657604051634a0bfec160e01b8152336004820152602401610d86565b6000612053826001615048565b905060005b848110156120ad578160ff1681101561209957600081612079856001615048565b6120839190615074565b90506120938786611e4a84613442565b506120a5565b6120a58685600061329f565b600101612058565b506001600160a01b0385166000908152600c6020526040812080548692906120d6908490615035565b90915550505050505050565b60005b81811015610fa05761210e8383838181106121025761210261501f565b905060200201356123cf565b6001016120e5565b6010546001600160a01b0316331480159061213c5750600f546001600160a01b03163314155b801561215357506011546001600160a01b03163314155b1561217357604051634a0bfec160e01b8152336004820152602401610d86565b6000828152600860205260409020600601805482158015600160601b0260ff60601b19909216919091179091556121ca57604051828152600080516020615f9d833981519152906020015b60405180910390a15050565b6040518281527ff27b6ce5b2f5e68ddb2fd95a8a909d4ecf1daaac270935fff052feacb24f1842906020016121be565b336000908152600a602052604081206122129061328b565b905060005b8151811015610d4057600860008383815181106122365761223661501f565b60200260200101518152602001908152602001600020600601600001600b9054906101000a900460ff16612286576122868282815181106122795761227961501f565b60200260200101516123cf565b600101612217565b612296612e64565b6001600160a01b03919091166000908152601960205260409020805460ff1916911515919091179055565b606060018054610c8990614fb0565b6122d8612e64565b601b55565b610d403383836138e6565b6122f3848484610fa5565b61102a3385858585613985565b601254600082815260086020526040908190209051637c1d0bcb60e01b81526060926001600160a01b031691637c1d0bcb9161233f91906004016152ef565b600060405180830381865afa15801561235c573d6000803e3d6000fd5b505050506040513d6000823e601f3d908101601f19168201604052610c749190810190615347565b3360009081526019602052604090205460ff166123b657604051634a0bfec160e01b8152336004820152602401610d86565b6000828152600860205260409020610fa08184846135d8565b6040518181527ff8e1a15aba9398e019f0b49df1a4fde98ee17ae345cb5f6b5e2c27f5033e8ce79060200160405180910390a16000818152600860208190526040909120908101546001600160a01b031633146124415760405162dd34af60e41b815260048101839052602401610d86565b6006810154600160581b900460ff161561247157604051635331ce1f60e11b815260048101839052602401610d86565b6013546003820154604051632f09b60960e21b815260048101919091526000916001600160a01b03169063bc26d824906024016020604051808303816000875af11580156124c3573d6000803e3d6000fd5b505050506040513d601f19601f820116820180604052508101906124e7919061537b565b60145460038401546005850154604051637017ac9560e11b81526004810188905260248101929092526001600160401b038416604483015261ffff1660648201529192506000916001600160a01b039091169063e02f592a90608401600060405180830381865afa158015612560573d6000803e3d6000fd5b505050506040513d6000823e601f3d908101601f1916820160405261258891908101906155d6565b80519091508390612599908261573c565b508060600151836003016000820151816000015560208201518160010160008201518160000160006101000a81548161ffff021916908361ffff16021790555060208201518160000160026101000a81548160ff021916908360ff16021790555060408201518160000160036101000a81548160ff021916908360ff16021790555060608201518160000160046101000a81548161ffff021916908361ffff16021790555060808201518160000160066101000a81548160ff021916908360ff16021790555060a08201518160000160076101000a81548160ff021916908360ff16021790555060c08201518160000160086101000a81548161ffff021916908361ffff16021790555060e082015181600001600a6101000a81548160ff021916908360ff16021790555061010082015181600001600b6101000a81548160ff021916908360ff160217905550505060408201518160020160006101000a81548161ffff021916908361ffff16021790555060608201518160020160026101000a81548160ff021916908360ff16021790555060808201518160020160036101000a81548160ff021916908360ff16021790555060a08201518160020160046101000a81548160ff021916908360ff16021790555090505080604001518360020160008201518160000160006101000a81548160ff021916908360078111156127a4576127a4614812565b021790555060208201518154829061ff0019166101008360078111156127cc576127cc614812565b021790555060408201518154829062ff00001916620100008360078111156127f6576127f6614812565b021790555060608201518154829063ff0000001916630100000083600781111561282257612822614812565b021790555050506080808201510151600684018054911515600160501b0260ff60501b198316811790915563ffffffff9081169116176000036128815760808101515160068401805463ffffffff191663ffffffff9092169190911790555b60068301805460ff60581b1916600160581b17905561102a84612ed7565b6128a7612e64565b6018805461ffff9092166101000262ffff0019909216919091179055565b6001600160a01b03918216600090815260056020908152604080832093909416825291909152205460ff1690565b60606000826001600160401b0381111561290f5761290f614d56565b60405190808252806020026020018201604052801561294857816020015b612935614385565b81526020019060019003908161292d5790505b50905060005b83811015611f7d576008600086868481811061296c5761296c61501f565b9050602002013581526020019081526020016000206040518060c001604052908160008201805461299c90614fb0565b80601f01602080910402602001604051908101604052809291908181526020018280546129c890614fb0565b8015612a155780601f106129ea57610100808354040283529160200191612a15565b820191906000526020600020905b8154815290600101906020018083116129f857829003601f168201915b5050509183525050600182015460208201526040805160808101825260028401805492909301929091829060ff166007811115612a5457612a54614812565b6007811115612a6557612a65614812565b81528154602090910190610100900460ff166007811115612a8857612a88614812565b6007811115612a9957612a99614812565b8152815460209091019062010000900460ff166007811115612abd57612abd614812565b6007811115612ace57612ace614812565b815281546020909101906301000000900460ff166007811115612af357612af3614812565b6007811115612b0457612b04614812565b815250508152602001600382016040518060c00160405290816000820154815260200160018201604051806101200160405290816000820160009054906101000a900461ffff1661ffff1661ffff1681526020016000820160029054906101000a900460ff1660ff1660ff1681526020016000820160039054906101000a900460ff1660ff1660ff1681526020016000820160049054906101000a900461ffff1661ffff1661ffff1681526020016000820160069054906101000a900460ff1660ff1660ff1681526020016000820160079054906101000a900460ff1660ff1660ff1681526020016000820160089054906101000a900461ffff1661ffff1661ffff16815260200160008201600a9054906101000a900460ff1660ff1660ff16815260200160008201600b9054906101000a900460ff1660ff1660ff168152505081526020016002820160009054906101000a900461ffff1661ffff1661ffff1681526020016002820160029054906101000a900460ff1660ff1660ff1681526020016002820160039054906101000a900460ff1660ff1660ff1681526020016002820160049054906101000a900460ff1660ff1660ff1681525050815260200160068201604051806101200160405290816000820160009054906101000a900463ffffffff1663ffffffff1663ffffffff1681526020016000820160049054906101000a900461ffff1661ffff1661ffff1681526020016000820160069054906101000a900461ffff1661ffff1661ffff1681526020016000820160089054906101000a900461ffff1661ffff1661ffff16815260200160008201600a9054906101000a900460ff1615151515815260200160008201600b9054906101000a900460ff1615151515815260200160008201600c9054906101000a900460ff1615151515815260200160008201600d9054906101000a900460ff1615151515815260200160018201548152505081526020016008820160009054906101000a90046001600160a01b03166001600160a01b03166001600160a01b031681525050828281518110612e1657612e1661501f565b602090810291909101015260010161294e565b612e31612e64565b6001600160a01b038116612e5b57604051631e4fbdf760e01b815260006004820152602401610d86565b6110de81613894565b6006546001600160a01b031633146120125760405163118cdaa760e01b8152336004820152602401610d86565b6000818152600260205260408120546001600160a01b031680610c7457604051637e27328960e01b815260048101849052602401610d86565b610fa08383836001613aaf565b60008181526008602052604090206006810154600160601b900460ff1615612f155760405163128379f760e11b815260048101839052602401610d86565b601554604080516318987be760e11b815290516001600160a01b0390921691633130f7ce916004808201926020929091908290030181865afa158015612f5f573d6000803e3d6000fd5b505050506040513d601f19601f82011682018060405250810190612f8391906157fa565b60068201805461ffff929092166401000000000265ffff000000001990921691909117905560155460405163863bea7f60e01b81526001600160a01b039091169063863bea7f90612fd89084906004016152ef565b602060405180830381865afa158015612ff5573d6000803e3d6000fd5b505050506040513d601f19601f8201168201806040525081019061301991906157fa565b6006909101805461ffff9290921666010000000000000267ffff0000000000001990921691909117905550565b60008281526008602081905260408220908101546001600160a01b039081169086161561309057600782015415613090576040516398586ca160e01b815260040160405180910390fd5b6006820154600160601b900460ff16156130c05760405163128379f760e11b815260048101869052602401610d86565b6001600160a01b03811615613191576001600160a01b0381166000908152600c6020526040902054600a111561311457604051637c0df70b60e11b81526001600160a01b0382166004820152602401610d86565b6001600160a01b0386161580159061314457506001600160a01b0386166000908152600c6020526040902054600a115b1561316d57604051637c0df70b60e11b81526001600160a01b0387166004820152602401610d86565b6001600160a01b0381166000908152600a6020526040902061318f9086613bb5565b505b6001600160a01b038616156131e1576001600160a01b0386166000908152600a602052604090206131c29086613bc1565b506008820180546001600160a01b0319166001600160a01b0388161790555b6001600160a01b03861661321157604051858152600080516020615f9d8339815191529060200160405180910390a15b61321c868686613bcd565b9695505050505050565b60026007540361324957604051633ee5aeb560e01b815260040160405180910390fd5b6002600755565b600061325f6000836000613046565b90506001600160a01b038116610d4057604051637e27328960e01b815260048101839052602401610d86565b6060600061329883613cc6565b9392505050565b60185460ff16156132c357604051636be9245d60e11b815260040160405180910390fd5b60185461ffff610100909104811690831611806132e2575061ffff8216155b1561330657604051633a6d207560e11b815261ffff83166004820152602401610d86565b6009805490600061331683615817565b909155505060095460008181526008602090815260408083206001810194909455601354815163f8413b0760e01b815291516001600160a01b039091169363f8413b07936004848101949193929183900301908290875af115801561337f573d6000803e3d6000fd5b505050506040513d601f19601f820116820180604052508101906133a39190615830565b600382015560058101805461ffff191661ffff858116919091179091558216156133dd5760068101805463ffffffff191661ffff84161790555b6133e984600954613d22565b6008810180546001600160a01b0319166001600160a01b0386161790556009546040519081527ff27b6ce5b2f5e68ddb2fd95a8a909d4ecf1daaac270935fff052feacb24f18429060200160405180910390a150505050565b600060068260ff161061345857506103e8919050565b8160ff1660050361346c575061012c919050565b8160ff1660040361347f57506064919050565b8160ff166003036134925750601e919050565b8160ff166002036134a55750600a919050565b506001919050565b6001600160a01b0383166000908152600e6020526040812080548492906134d5908490615035565b90915550506001600160a01b0383166000908152600e6020526040812054620186a081106135065760329150613541565b61c35081106135185760239150613541565b612710811061352a5760149150613541565b6103e8811061353c57600a9150613541565b600091505b6000606461354f8486615849565b6135599190615860565b90506000866001600160a01b03168260405160006040518083038185875af1925050503d80600081146135a8576040519150601f19603f3d011682016040523d82523d6000602084013e6135ad565b606091505b50509050806135cf576040516387df070960e01b815260040160405180910390fd5b50505050505050565b6040518281527ff8e1a15aba9398e019f0b49df1a4fde98ee17ae345cb5f6b5e2c27f5033e8ce79060200160405180910390a160078301541561362e576040516398586ca160e01b815260040160405180910390fd5b6006830154600160601b900460ff161561365e5760405163128379f760e11b815260048101839052602401610d86565b60006136728461366d84615ac6565b613d3c565b905061367e8280615b68565b859161368b919083615bae565b5061369e61024083016102208401615c6d565b60058501805460ff92909216620100000262ff0000199092169190911790556136cf61026083016102408401615c6d565b60058501805460ff9290921663010000000263ff0000001990921691909117905561370261028083016102608401615c6d565b60058501805460ff929092166401000000000264ff000000001990921691909117905561373761022083016102008401614bb5565b60058501805461ffff191661ffff9290921691909117905560e08201600485016137618282615ca4565b505060408201600285016137758282615e31565b5061378a90506102a083016102808401615ee7565b60068501805463ffffffff191663ffffffff929092169190911790556137b8610380830161036084016146b9565b600685018054911515600160681b0260ff60681b199092169190911790556137e8610320830161030084016146b9565b600685018054911515600160501b0260ff60501b199092169190911790819055600160581b900460ff161561385857600684018054829190600890613839908490600160401b900461ffff16615f04565b92506101000a81548161ffff021916908361ffff16021790555061388b565b60068401805460ff60581b1961ffff8416600160401b02166bff00ffff00000000000000001990911617600160581b1790555b61102a83612ed7565b600680546001600160a01b038381166001600160a01b0319831681179093556040519116919082907f8be0079c531659141344cd1fd0a4f28419497f9722a3daafe3b4186f6b6457e090600090a35050565b6001600160a01b03821661391857604051630b61174360e31b81526001600160a01b0383166004820152602401610d86565b6001600160a01b03838116600081815260056020908152604080832094871680845294825291829020805460ff191686151590811790915591519182527f17307eab39ab6107e8899845ad3d59bd9653f200f220920489ca2b5937696c31910160405180910390a3505050565b6001600160a01b0383163b15610f6557604051630a85bd0160e11b81526001600160a01b0384169063150b7a02906139c7908890889087908790600401615f1e565b6020604051808303816000875af1925050508015613a02575060408051601f3d908101601f191682019092526139ff91810190615f51565b60015b613a6b573d808015613a30576040519150601f19603f3d011682016040523d82523d6000602084013e613a35565b606091505b508051600003613a6357604051633250574960e11b81526001600160a01b0385166004820152602401610d86565b805181602001fd5b6001600160e01b03198116630a85bd0160e11b14613aa757604051633250574960e11b81526001600160a01b0385166004820152602401610d86565b505050505050565b8080613ac357506001600160a01b03821615155b15613b85576000613ad384612e91565b90506001600160a01b03831615801590613aff5750826001600160a01b0316816001600160a01b031614155b8015613b125750613b1081846128c5565b155b15613b3b5760405163a9fbf51f60e01b81526001600160a01b0384166004820152602401610d86565b8115613b835783856001600160a01b0316826001600160a01b03167f8c5be1e5ebec7d5bd14f71427d1e84f3dd0314c0f7b2291e5b200ac8c7c3b92560405160405180910390a45b505b5050600090815260046020526040902080546001600160a01b0319166001600160a01b0392909216919091179055565b60006132988383614018565b6000613298838361410b565b6000828152600260205260408120546001600160a01b0390811690831615613bfa57613bfa81848661415a565b6001600160a01b03811615613c3857613c17600085600080613aaf565b6001600160a01b038116600090815260036020526040902080546000190190555b6001600160a01b03851615613c67576001600160a01b0385166000908152600360205260409020805460010190555b60008481526002602052604080822080546001600160a01b0319166001600160a01b0389811691821790925591518793918516917fddf252ad1be2c89b69c2b068fc378daa952ba7f163c4a11628f55a4df523b3ef91a4949350505050565b606081600001805480602002602001604051908101604052809291908181526020018280548015613d1657602002820191906000526020600020905b815481526020019060010190808311613d02575b50505050509050919050565b610d408282604051806020016040528060008152506141be565b60408101515160009081906007811115613d5857613d58614812565b600285015460ff166007811115613d7157613d71614812565b14613d845780613d8081615f6e565b9150505b8260400151602001516007811115613d9e57613d9e614812565b6002850154610100900460ff166007811115613dbc57613dbc614812565b14613dcf5780613dcb81615f6e565b9150505b8260400151604001516007811115613de957613de9614812565b600285015462010000900460ff166007811115613e0857613e08614812565b14613e1b5780613e1781615f6e565b9150505b8260400151606001516007811115613e3557613e35614812565b60028501546301000000900460ff166007811115613e5557613e55614812565b14613e685780613e6481615f6e565b9150505b6005840154606080850151015160009160ff620100009091048116911611613eaf5760608481015101516005860154613eaa919062010000900460ff16615074565b613ecf565b60058501546060858101510151613ecf9162010000900460ff1690615074565b600586015460608601516080015191925060009160ff63010000009092048216911611613f1d576060850151608001516005870154613f1891906301000000900460ff16615074565b613f3f565b6005860154606086015160800151613f3f916301000000900460ff1690615074565b6005870154606087015160a0015191925060009160ff6401000000009092048216911611613f8f57606086015160a001516005880154613f8a9190640100000000900460ff16615074565b613fb2565b6005870154606087015160a00151613fb291640100000000900460ff1690615074565b905080613fbf8385615048565b613fc99190615048565b613fd69060ff1685615f04565b9350856080015160800151151587600601600001600a9054906101000a900460ff1615151461400d5761400a600385615f04565b93505b509195945050505050565b6000818152600183016020526040812054801561410157600061403c600183615061565b855490915060009061405090600190615061565b90508082146140b55760008660000182815481106140705761407061501f565b90600052602060002001549050808760000184815481106140935761409361501f565b6000918252602080832090910192909255918252600188019052604090208390555b85548690806140c6576140c6615f86565b600190038181906000526020600020016000905590558560010160008681526020019081526020016000206000905560019350505050610c74565b6000915050610c74565b600081815260018301602052604081205461415257508154600181810184556000848152602080822090930184905584548482528286019093526040902091909155610c74565b506000610c74565b6141658383836141d6565b610fa0576001600160a01b03831661419357604051637e27328960e01b815260048101829052602401610d86565b60405163177e802f60e01b81526001600160a01b038316600482015260248101829052604401610d86565b6141c8838361423c565b610fa0336000858585613985565b60006001600160a01b038316158015906142345750826001600160a01b0316846001600160a01b03161480614210575061421084846128c5565b8061423457506000828152600460205260409020546001600160a01b038481169116145b949350505050565b6001600160a01b03821661426657604051633250574960e11b815260006004820152602401610d86565b600061427483836000613046565b90506001600160a01b03811615610fa0576040516339e3563760e11b815260006004820152602401610d86565b82805482825590600052602060002090601f0160209004810192821561433a5791602002820160005b8382111561430b57833560ff1683826101000a81548160ff021916908360ff16021790555092602001926001016020816000010492830192600103026142ca565b80156143385782816101000a81549060ff021916905560010160208160000104928301926001030261430b565b505b506143469291506144a3565b5090565b82805482825590600052602060002090810192821561433a579160200282015b8281111561433a57823582559160200191906001019061436a565b6040518060c0016040528060608152602001600081526020016143c96040805160808101909152806000815260200160008152602001600081526020016000905290565b815260200161444a6040805160c0808201835260008083528351610120810185528181526020818101839052948101829052606081018290526080810182905260a0810182905291820181905260e0820181905261010082015290918201908152600060208201819052604082018190526060820181905260809091015290565b8152604080516101208101825260008082526020828101829052928201819052606082018190526080820181905260a0820181905260c0820181905260e082018190526101008201529101908152600060209091015290565b5b8082111561434657600081556001016144a4565b6001600160a01b03811681146110de57600080fd5b80356144d8816144b8565b919050565b600080600080600080600080610100898b0312156144fa57600080fd5b8835614505816144b8565b97506020890135614515816144b8565b96506040890135614525816144b8565b95506060890135614535816144b8565b94506080890135614545816144b8565b935060a0890135614555816144b8565b925060c0890135614565816144b8565b915060e0890135614575816144b8565b809150509295985092959890939650565b6001600160e01b0319811681146110de57600080fd5b6000602082840312156145ae57600080fd5b813561329881614586565b60005b838110156145d45781810151838201526020016145bc565b50506000910152565b600081518084526145f58160208601602086016145b9565b601f01601f19169290920160200192915050565b60208152600061329860208301846145dd565b60006020828403121561462e57600080fd5b8135613298816144b8565b60006020828403121561464b57600080fd5b5035919050565b6000806040838503121561466557600080fd5b8235614670816144b8565b946020939093013593505050565b6000806040838503121561469157600080fd5b50508035926020909101359150565b80151581146110de57600080fd5b80356144d8816146a0565b6000602082840312156146cb57600080fd5b8135613298816146a0565b60008083601f8401126146e857600080fd5b5081356001600160401b038111156146ff57600080fd5b6020830191508360208260051b850101111561471a57600080fd5b9250929050565b6000806000806040858703121561473757600080fd5b84356001600160401b0381111561474d57600080fd5b614759878288016146d6565b90955093505060208501356001600160401b0381111561477857600080fd5b614784878288016146d6565b95989497509550505050565b600080602083850312156147a357600080fd5b82356001600160401b038111156147b957600080fd5b6147c5858286016146d6565b90969095509350505050565b6000806000606084860312156147e657600080fd5b83356147f1816144b8565b92506020840135614801816144b8565b929592945050506040919091013590565b634e487b7160e01b600052602160045260246000fd5b600881106110de57634e487b7160e01b600052602160045260246000fd5b805161485181614828565b8252602081015161486181614828565b6020830152604081015161487481614828565b6040830152606081015161488781614828565b806060840152505050565b80518252602081015161ffff815116602084015260ff602082015116604084015260408101516148c7606085018260ff169052565b50606081015161ffff8116608085015250608081015160ff811660a08501525060a081015160ff811660c08501525060c081015161ffff811660e08501525060e081015160ff811661010085015250610100015160ff811661012084015250604081015161ffff811661014084015250606081015160ff811661016084015250608081015160ff81166101808401525060a0015160ff166101a09190910152565b63ffffffff815116825261ffff60208201511660208301526040810151614995604084018261ffff169052565b5060608101516149ab606084018261ffff169052565b5060808101516149bf608084018215159052565b5060a08101516149d360a084018215159052565b5060c08101516149e760c084018215159052565b5060e08101516149fb60e084018215159052565b5061010090810151910152565b600081516103c08452614a1f6103c08501826145dd565b9050602083015160208501526040830151614a3d6040860182614846565b506060830151614a5060c0860182614892565b506080830151614a64610280860182614968565b5060a092909201516001600160a01b03166103a09390930192909252919050565b6020815260006132986020830184614a08565b600081518084526020840193506020830160005b82811015614aca578151865260209586019590910190600101614aac565b5093949350505050565b6040808252835190820181905260009060208501906060840190835b81811015614b1157835160ff16835260209384019390920191600101614af0565b5050838103602085015261321c8186614a98565b6103c081526000614b3a6103c08301896145dd565b9050866020830152614b4f6040830187614846565b614b5c60c0830186614892565b614b6a610280830185614968565b6001600160a01b03929092166103a0919091015295945050505050565b6020815260006132986020830184614a98565b61ffff811681146110de57600080fd5b80356144d881614b9a565b600060208284031215614bc757600080fd5b813561329881614b9a565b60ff811681146110de57600080fd5b80356144d881614bd2565b60008060008060808587031215614c0257600080fd5b8435614c0d816144b8565b93506020850135614c1d81614bd2565b92506040850135614c2d816144b8565b91506060850135614c3d81614b9a565b939692955090935050565b60006103c08284031215614c5b57600080fd5b50919050565b60008060408385031215614c7457600080fd5b8235614c7f816144b8565b915060208301356001600160401b03811115614c9a57600080fd5b614ca685828601614c48565b9150509250929050565b60008060008060808587031215614cc657600080fd5b8435614cd1816144b8565b9350602085013592506040850135614ce881614b9a565b91506060850135614c3d81614bd2565b60008060408385031215614d0b57600080fd5b823591506020830135614d1d816146a0565b809150509250929050565b60008060408385031215614d3b57600080fd5b8235614d46816144b8565b91506020830135614d1d816146a0565b634e487b7160e01b600052604160045260246000fd5b60405160c081016001600160401b0381118282101715614d8e57614d8e614d56565b60405290565b60405161012081016001600160401b0381118282101715614d8e57614d8e614d56565b604051608081016001600160401b0381118282101715614d8e57614d8e614d56565b604051601f8201601f191681016001600160401b0381118282101715614e0157614e01614d56565b604052919050565b60006001600160401b03821115614e2257614e22614d56565b50601f01601f191660200190565b6000614e43614e3e84614e09565b614dd9565b9050828152838383011115614e5757600080fd5b828260208301376000602084830101529392505050565b60008060008060808587031215614e8457600080fd5b8435614e8f816144b8565b93506020850135614e9f816144b8565b92506040850135915060608501356001600160401b03811115614ec157600080fd5b8501601f81018713614ed257600080fd5b614ee187823560208401614e30565b91505092959194509250565b60008060408385031215614f0057600080fd5b8235915060208301356001600160401b03811115614c9a57600080fd5b60008060408385031215614f3057600080fd5b8235614f3b816144b8565b91506020830135614d1d816144b8565b6000602082016020835280845180835260408501915060408160051b86010192506020860160005b82811015614fa457603f19878603018452614f8f858351614a08565b94506020938401939190910190600101614f73565b50929695505050505050565b600181811c90821680614fc457607f821691505b602082108103614c5b57634e487b7160e01b600052602260045260246000fd5b634e487b7160e01b600052601160045260246000fd5b600063ffffffff821663ffffffff810361501657615016614fe4565b60010192915050565b634e487b7160e01b600052603260045260246000fd5b80820180821115610c7457610c74614fe4565b60ff8181168382160190811115610c7457610c74614fe4565b81810381811115610c7457610c74614fe4565b60ff8281168282160390811115610c7457610c74614fe4565b805460ff811661509c81614828565b8352600881901c60ff166150af81614828565b6020840152601081901c60ff166150c581614828565b604084015260181c60ff1661488781614828565b805463ffffffff81168352602081811c61ffff1690840152603081901c61ffff166040840152604081901c61ffff1660608401526151216080840160ff8360501c1615159052565b61513560a0840160ff8360581c1615159052565b61514960c0840160ff8360601c1615159052565b61515d60e0840160ff8360681c1615159052565b50600101546101009190910152565b6103c08252600080825461517f81614fb0565b806103c0870152600182166000811461519f57600181146151bd576151f3565b60ff1983166103e08801526103e082151560051b88010193506151f3565b85600052602060002060005b838110156151e95781548982016103e001526001909101906020016151c9565b88016103e0019450505b50505060018301546020850152615210604085016002850161508d565b600383015460c0850152600483015461ffff80821660e087015260ff601083811c8216610100890152601884811c83166101208a0152602085811c85166101408b0152603086901c84166101608b0152603886901c84166101808b0152604086901c85166101a08b0152605086901c84166101c08b015260589590951c83166101e08a015260058801549384166102008a01529083901c821661022089015282901c8116610240880152911c166102608501526152d46102808501600685016150d9565b60088301546001600160a01b03166103a08501819052611f7d565b602081526000613298602083018461516c565b600082601f83011261531357600080fd5b8151615321614e3e82614e09565b81815284602083860101111561533657600080fd5b6142348260208301602087016145b9565b60006020828403121561535957600080fd5b81516001600160401b0381111561536f57600080fd5b61423484828501615302565b60006020828403121561538d57600080fd5b81516001600160401b038116811461329857600080fd5b600881106110de57600080fd5b80516144d881614b9a565b80516144d881614bd2565b60008183036101c08112156153db57600080fd5b6153e3614d6c565b835181529150610120601f19820112156153fc57600080fd5b50615405614d94565b615411602084016153b1565b815261541f604084016153bc565b6020820152615430606084016153bc565b6040820152615441608084016153b1565b606082015261545260a084016153bc565b608082015261546360c084016153bc565b60a082015261547460e084016153b1565b60c082015261548661010084016153bc565b60e082015261549861012084016153bc565b61010082015260208201526154b061014083016153b1565b60408201526154c261016083016153bc565b60608201526154d461018083016153bc565b60808201526154e66101a083016153bc565b60a082015292915050565b63ffffffff811681146110de57600080fd5b80516144d8816154f1565b80516144d8816146a0565b6000610120828403121561552c57600080fd5b615534614d94565b905061553f82615503565b815261554d602083016153b1565b602082015261555e604083016153b1565b604082015261556f606083016153b1565b60608201526155806080830161550e565b608082015261559160a0830161550e565b60a08201526155a260c0830161550e565b60c08201526155b360e0830161550e565b60e08201526101009182015191810191909152919050565b80516144d8816144b8565b6000602082840312156155e857600080fd5b81516001600160401b038111156155fe57600080fd5b82018084036103c081121561561257600080fd5b61561a614d6c565b82516001600160401b0381111561563057600080fd5b61563c87828601615302565b825250602083810151908201526080603f198301121561565b57600080fd5b615663614db7565b91506040830151615673816153a4565b82526060830151615683816153a4565b60208301526080830151615696816153a4565b604083015260a08301516156a9816153a4565b6060830152604081018290526156c28660c085016153c7565b60608201526156d5866102808501615519565b60808201526156e76103a084016155cb565b60a082015295945050505050565b601f821115610fa057806000526020600020601f840160051c8101602085101561571c5750805b601f840160051c820191505b81811015610f655760008155600101615728565b81516001600160401b0381111561575557615755614d56565b615769816157638454614fb0565b846156f5565b6020601f82116001811461579d57600083156157855750848201515b600019600385901b1c1916600184901b178455610f65565b600084815260208120601f198516915b828110156157cd57878501518255602094850194600190920191016157ad565b50848210156157eb5786840151600019600387901b60f8161c191681555b50505050600190811b01905550565b60006020828403121561580c57600080fd5b815161329881614b9a565b60006001820161582957615829614fe4565b5060010190565b60006020828403121561584257600080fd5b5051919050565b8082028115828204841417610c7457610c74614fe4565b60008261587d57634e487b7160e01b600052601260045260246000fd5b500490565b60006080828403121561589457600080fd5b61589c614db7565b905081356158a9816153a4565b815260208201356158b9816153a4565b602082015260408201356158cc816153a4565b604082015260608201356158df816153a4565b606082015292915050565b60008183036101c08112156158fe57600080fd5b615906614d6c565b833581529150610120601f198201121561591f57600080fd5b50615928614d94565b61593460208401614baa565b815261594260408401614be1565b602082015261595360608401614be1565b604082015261596460808401614baa565b606082015261597560a08401614be1565b608082015261598660c08401614be1565b60a082015261599760e08401614baa565b60c08201526159a96101008401614be1565b60e08201526159bb6101208401614be1565b61010082015260208201526159d36101408301614baa565b60408201526159e56101608301614be1565b60608201526159f76101808301614be1565b60808201526154e66101a08301614be1565b80356144d8816154f1565b60006101208284031215615a2757600080fd5b615a2f614d94565b9050615a3a82615a09565b8152615a4860208301614baa565b6020820152615a5960408301614baa565b6040820152615a6a60608301614baa565b6060820152615a7b608083016146ae565b6080820152615a8c60a083016146ae565b60a0820152615a9d60c083016146ae565b60c0820152615aae60e083016146ae565b60e08201526101009182013591810191909152919050565b60006103c08236031215615ad957600080fd5b615ae1614d6c565b82356001600160401b03811115615af757600080fd5b830136601f820112615b0857600080fd5b615b1736823560208401614e30565b82525060208381013590820152615b313660408501615882565b6040820152615b433660c085016158ea565b6060820152615b56366102808501615a14565b60808201526154e66103a084016144cd565b6000808335601e19843603018112615b7f57600080fd5b8301803591506001600160401b03821115615b9957600080fd5b60200191503681900382131561471a57600080fd5b6001600160401b03831115615bc557615bc5614d56565b615bd983615bd38354614fb0565b836156f5565b6000601f841160018114615c0d5760008515615bf55750838201355b600019600387901b1c1916600186901b178355610f65565b600083815260209020601f19861690835b82811015615c3e5786850135825560209485019460019092019101615c1e565b5086821015615c5b5760001960f88860031b161c19848701351681555b505060018560011b0183555050505050565b600060208284031215615c7f57600080fd5b813561329881614bd2565b60008135610c7481614b9a565b60008135610c7481614bd2565b8135615caf81614b9a565b61ffff811661ffff198354161782555060006020830135615ccf81614bd2565b8254909150819062ff00001916601082901b62ff0000161783555050615d14615cfa60408401615c97565b825463ff000000191660189190911b63ff00000016178255565b615d41615d2360608401615c8a565b825465ffff00000000191660209190911b65ffff0000000016178255565b615d70615d5060808401615c97565b825466ff000000000000191660309190911b66ff00000000000016178255565b615da1615d7f60a08401615c97565b825467ff00000000000000191660389190911b67ff0000000000000016178255565b615dd6615db060c08401615c8a565b825469ffff0000000000000000191660409190911b69ffff000000000000000016178255565b615e03615de560e08401615c97565b82805460ff60501b191660509290921b60ff60501b16919091179055565b610d40615e136101008401615c97565b82805460ff60581b191660589290921b60ff60581b16919091179055565b8135615e3c816153a4565b615e4581614828565b815460ff821691508160ff1982161783556020840135615e64816153a4565b615e6d81614828565b61ff008160081b168361ffff1984161717925050508082556040830135615e93816153a4565b615e9c81614828565b62ff0000601082901b1662ff0000198316179150508082556060830135615ec2816153a4565b615ecb81614828565b63ff000000601882901b1663ff00000019831617835550505050565b600060208284031215615ef957600080fd5b8135613298816154f1565b61ffff8181168382160190811115610c7457610c74614fe4565b6001600160a01b038581168252841660208201526040810183905260806060820181905260009061321c908301846145dd565b600060208284031215615f6357600080fd5b815161329881614586565b600061ffff821661ffff810361501657615016614fe4565b634e487b7160e01b600052603160045260246000fdfe032bc66be43dbccb7487781d168eb7bda224628a3b2c3388bdf69b532a3a1611a264697066735822122064e42eec5cbdd7f558a8e1e0c94646a1bd77c8414432de7ef838a31bb6b7e13764736f6c634300081c0033",
  "linkReferences": {},
  "deployedLinkReferences": {}
}