{
  "_format": "hh-sol-artifact-1",
  "contractName": "Lobbies",
  "sourceName": "contracts/Lobbies.sol",
  "abi": [
    {
      "inputs": [
        {
          "internalType": "address",
          "name": "_ships",
          "type": "address"
        }
      ],
      "stateMutability": "nonpayable",
      "type": "constructor"
    },
    {
      "inputs": [],
      "name": "CannotLeaveStartedGame",
      "type": "error"
    },
    {
      "inputs": [],
      "name": "CreatorTimeoutNotReached",
      "type": "error"
    },
    {
      "inputs": [],
      "name": "FleetAlreadyCreated",
      "type": "error"
    },
    {
      "inputs": [],
      "name": "InsufficientFee",
      "type": "error"
    },
    {
      "inputs": [],
      "name": "InsufficientUTC",
      "type": "error"
    },
    {
      "inputs": [],
      "name": "InvalidFleetCost",
      "type": "error"
    },
    {
      "inputs": [],
      "name": "InvalidMapId",
      "type": "error"
    },
    {
      "inputs": [],
      "name": "InvalidShipCount",
      "type": "error"
    },
    {
      "inputs": [],
      "name": "InvalidTurnTime",
      "type": "error"
    },
    {
      "inputs": [],
      "name": "LobbyAlreadyStarted",
      "type": "error"
    },
    {
      "inputs": [],
      "name": "LobbyCreationPaused",
      "type": "error"
    },
    {
      "inputs": [],
      "name": "LobbyFull",
      "type": "error"
    },
    {
      "inputs": [],
      "name": "LobbyNotFound",
      "type": "error"
    },
    {
      "inputs": [],
      "name": "LobbyNotOpen",
      "type": "error"
    },
    {
      "inputs": [],
      "name": "LobbyNotReserved",
      "type": "error"
    },
    {
      "inputs": [],
      "name": "MaxFleetCostExceeded",
      "type": "error"
    },
    {
      "inputs": [],
      "name": "NotInLobby",
      "type": "error"
    },
    {
      "inputs": [],
      "name": "NotLobbyCreator",
      "type": "error"
    },
    {
      "inputs": [],
      "name": "NotLobbyJoiner",
      "type": "error"
    },
    {
      "inputs": [],
      "name": "NotReservedJoiner",
      "type": "error"
    },
    {
      "inputs": [
        {
          "internalType": "address",
          "name": "owner",
          "type": "address"
        }
      ],
      "name": "OwnableInvalidOwner",
      "type": "error"
    },
    {
      "inputs": [
        {
          "internalType": "address",
          "name": "account",
          "type": "address"
        }
      ],
      "name": "OwnableUnauthorizedAccount",
      "type": "error"
    },
    {
      "inputs": [],
      "name": "PlayerAlreadyInLobby",
      "type": "error"
    },
    {
      "inputs": [],
      "name": "PlayerInTimeout",
      "type": "error"
    },
    {
      "inputs": [],
      "name": "ReentrancyGuardReentrantCall",
      "type": "error"
    },
    {
      "inputs": [],
      "name": "ShipAlreadyInFleet",
      "type": "error"
    },
    {
      "inputs": [],
      "name": "ShipCostVersionMismatch",
      "type": "error"
    },
    {
      "inputs": [],
      "name": "ShipNotOwned",
      "type": "error"
    },
    {
      "inputs": [],
      "name": "TimeoutNotReached",
      "type": "error"
    },
    {
      "inputs": [],
      "name": "UTCTransferFailed",
      "type": "error"
    },
    {
      "anonymous": false,
      "inputs": [
        {
          "indexed": true,
          "internalType": "uint256",
          "name": "lobbyId",
          "type": "uint256"
        },
        {
          "indexed": true,
          "internalType": "address",
          "name": "player",
          "type": "address"
        },
        {
          "indexed": false,
          "internalType": "uint256",
          "name": "fleetId",
          "type": "uint256"
        }
      ],
      "name": "FleetCreated",
      "type": "event"
    },
    {
      "anonymous": false,
      "inputs": [
        {
          "indexed": true,
          "internalType": "uint256",
          "name": "lobbyId",
          "type": "uint256"
        },
        {
          "indexed": true,
          "internalType": "address",
          "name": "joiner",
          "type": "address"
        }
      ],
      "name": "GameAccepted",
      "type": "event"
    },
    {
      "anonymous": false,
      "inputs": [
        {
          "indexed": true,
          "internalType": "uint256",
          "name": "lobbyId",
          "type": "uint256"
        },
        {
          "indexed": true,
          "internalType": "address",
          "name": "joiner",
          "type": "address"
        }
      ],
      "name": "GameRejected",
      "type": "event"
    },
    {
      "anonymous": false,
      "inputs": [
        {
          "indexed": true,
          "internalType": "uint256",
          "name": "lobbyId",
          "type": "uint256"
        },
        {
          "indexed": true,
          "internalType": "address",
          "name": "reservedJoiner",
          "type": "address"
        }
      ],
      "name": "GameReserved",
      "type": "event"
    },
    {
      "anonymous": false,
      "inputs": [
        {
          "indexed": true,
          "internalType": "uint256",
          "name": "lobbyId",
          "type": "uint256"
        }
      ],
      "name": "GameStarted",
      "type": "event"
    },
    {
      "anonymous": false,
      "inputs": [
        {
          "indexed": true,
          "internalType": "uint256",
          "name": "lobbyId",
          "type": "uint256"
        },
        {
          "indexed": true,
          "internalType": "address",
          "name": "player",
          "type": "address"
        }
      ],
      "name": "LobbyAbandoned",
      "type": "event"
    },
    {
      "anonymous": false,
      "inputs": [
        {
          "indexed": true,
          "internalType": "uint256",
          "name": "lobbyId",
          "type": "uint256"
        },
        {
          "indexed": true,
          "internalType": "address",
          "name": "creator",
          "type": "address"
        },
        {
          "indexed": false,
          "internalType": "uint256",
          "name": "costLimit",
          "type": "uint256"
        },
        {
          "indexed": false,
          "internalType": "uint256",
          "name": "turnTime",
          "type": "uint256"
        },
        {
          "indexed": false,
          "internalType": "bool",
          "name": "creatorGoesFirst",
          "type": "bool"
        },
        {
          "indexed": false,
          "internalType": "uint256",
          "name": "selectedMapId",
          "type": "uint256"
        },
        {
          "indexed": false,
          "internalType": "uint256",
          "name": "maxScore",
          "type": "uint256"
        }
      ],
      "name": "LobbyCreated",
      "type": "event"
    },
    {
      "anonymous": false,
      "inputs": [
        {
          "indexed": true,
          "internalType": "uint256",
          "name": "lobbyId",
          "type": "uint256"
        },
        {
          "indexed": true,
          "internalType": "address",
          "name": "newCreator",
          "type": "address"
        }
      ],
      "name": "LobbyReset",
      "type": "event"
    },
    {
      "anonymous": false,
      "inputs": [
        {
          "indexed": true,
          "internalType": "uint256",
          "name": "lobbyId",
          "type": "uint256"
        }
      ],
      "name": "LobbyTerminated",
      "type": "event"
    },
    {
      "anonymous": false,
      "inputs": [
        {
          "indexed": false,
          "internalType": "uint256",
          "name": "newLimit",
          "type": "uint256"
        }
      ],
      "name": "MaxFleetCostLimitUpdated",
      "type": "event"
    },
    {
      "anonymous": false,
      "inputs": [
        {
          "indexed": true,
          "internalType": "address",
          "name": "previousOwner",
          "type": "address"
        },
        {
          "indexed": true,
          "internalType": "address",
          "name": "newOwner",
          "type": "address"
        }
      ],
      "name": "OwnershipTransferred",
      "type": "event"
    },
    {
      "anonymous": false,
      "inputs": [
        {
          "indexed": true,
          "internalType": "uint256",
          "name": "lobbyId",
          "type": "uint256"
        },
        {
          "indexed": true,
          "internalType": "address",
          "name": "joiner",
          "type": "address"
        }
      ],
      "name": "PlayerJoinedLobby",
      "type": "event"
    },
    {
      "inputs": [],
      "name": "KICK_PENALTY_PER_HOUR",
      "outputs": [
        {
          "internalType": "uint256",
          "name": "",
          "type": "uint256"
        }
      ],
      "stateMutability": "view",
      "type": "function"
    },
    {
      "inputs": [],
      "name": "MAX_TURN_TIME",
      "outputs": [
        {
          "internalType": "uint256",
          "name": "",
          "type": "uint256"
        }
      ],
      "stateMutability": "view",
      "type": "function"
    },
    {
      "inputs": [],
      "name": "MIN_TIMEOUT",
      "outputs": [
        {
          "internalType": "uint256",
          "name": "",
          "type": "uint256"
        }
      ],
      "stateMutability": "view",
      "type": "function"
    },
    {
      "inputs": [],
      "name": "MIN_TURN_TIME",
      "outputs": [
        {
          "internalType": "uint256",
          "name": "",
          "type": "uint256"
        }
      ],
      "stateMutability": "view",
      "type": "function"
    },
    {
      "inputs": [
        {
          "internalType": "uint256",
          "name": "_lobbyId",
          "type": "uint256"
        }
      ],
      "name": "acceptGame",
      "outputs": [],
      "stateMutability": "nonpayable",
      "type": "function"
    },
    {
      "inputs": [],
      "name": "additionalLobbyFee",
      "outputs": [
        {
          "internalType": "uint256",
          "name": "",
          "type": "uint256"
        }
      ],
      "stateMutability": "view",
      "type": "function"
    },
    {
      "inputs": [
        {
          "internalType": "uint256",
          "name": "_lobbyId",
          "type": "uint256"
        },
        {
          "internalType": "uint256[]",
          "name": "_shipIds",
          "type": "uint256[]"
        },
        {
          "components": [
            {
              "internalType": "int16",
              "name": "row",
              "type": "int16"
            },
            {
              "internalType": "int16",
              "name": "col",
              "type": "int16"
            }
          ],
          "internalType": "struct Position[]",
          "name": "_startingPositions",
          "type": "tuple[]"
        }
      ],
      "name": "createFleet",
      "outputs": [],
      "stateMutability": "nonpayable",
      "type": "function"
    },
    {
      "inputs": [
        {
          "internalType": "uint256",
          "name": "_costLimit",
          "type": "uint256"
        },
        {
          "internalType": "uint256",
          "name": "_turnTime",
          "type": "uint256"
        },
        {
          "internalType": "bool",
          "name": "_creatorGoesFirst",
          "type": "bool"
        },
        {
          "internalType": "uint256",
          "name": "_selectedMapId",
          "type": "uint256"
        },
        {
          "internalType": "uint256",
          "name": "_maxScore",
          "type": "uint256"
        },
        {
          "internalType": "address",
          "name": "_reservedJoiner",
          "type": "address"
        }
      ],
      "name": "createLobby",
      "outputs": [],
      "stateMutability": "payable",
      "type": "function"
    },
    {
      "inputs": [
        {
          "internalType": "address",
          "name": "_creator",
          "type": "address"
        },
        {
          "internalType": "address",
          "name": "_joiner",
          "type": "address"
        },
        {
          "internalType": "uint256",
          "name": "_costLimit",
          "type": "uint256"
        },
        {
          "internalType": "uint256",
          "name": "_turnTime",
          "type": "uint256"
        },
        {
          "internalType": "uint256",
          "name": "_selectedMapId",
          "type": "uint256"
        },
        {
          "internalType": "uint256",
          "name": "_maxScore",
          "type": "uint256"
        }
      ],
      "name": "createLobbyForAddresses",
      "outputs": [],
      "stateMutability": "nonpayable",
      "type": "function"
    },
    {
      "inputs": [],
      "name": "fleets",
      "outputs": [
        {
          "internalType": "contract IFleets",
          "name": "",
          "type": "address"
        }
      ],
      "stateMutability": "view",
      "type": "function"
    },
    {
      "inputs": [],
      "name": "freeGamesPerAddress",
      "outputs": [
        {
          "internalType": "uint256",
          "name": "",
          "type": "uint256"
        }
      ],
      "stateMutability": "view",
      "type": "function"
    },
    {
      "inputs": [],
      "name": "game",
      "outputs": [
        {
          "internalType": "contract Game",
          "name": "",
          "type": "address"
        }
      ],
      "stateMutability": "view",
      "type": "function"
    },
    {
      "inputs": [
        {
          "internalType": "address",
          "name": "_player",
          "type": "address"
        }
      ],
      "name": "getAllLobbiesForPlayerWithDupes",
      "outputs": [
        {
          "components": [
            {
              "components": [
                {
                  "internalType": "uint256",
                  "name": "id",
                  "type": "uint256"
                },
                {
                  "internalType": "address",
                  "name": "creator",
                  "type": "address"
                },
                {
                  "internalType": "uint256",
                  "name": "costLimit",
                  "type": "uint256"
                },
                {
                  "internalType": "uint256",
                  "name": "createdAt",
                  "type": "uint256"
                }
              ],
              "internalType": "struct LobbyBasic",
              "name": "basic",
              "type": "tuple"
            },
            {
              "components": [
                {
                  "internalType": "address",
                  "name": "joiner",
                  "type": "address"
                },
                {
                  "internalType": "address",
                  "name": "reservedJoiner",
                  "type": "address"
                },
                {
                  "internalType": "uint256",
                  "name": "creatorFleetId",
                  "type": "uint256"
                },
                {
                  "internalType": "uint256",
                  "name": "joinerFleetId",
                  "type": "uint256"
                },
                {
                  "internalType": "uint256",
                  "name": "joinedAt",
                  "type": "uint256"
                },
                {
                  "internalType": "uint256",
                  "name": "joinerFleetSetAt",
                  "type": "uint256"
                }
              ],
              "internalType": "struct LobbyPlayers",
              "name": "players",
              "type": "tuple"
            },
            {
              "components": [
                {
                  "internalType": "bool",
                  "name": "creatorGoesFirst",
                  "type": "bool"
                },
                {
                  "internalType": "uint256",
                  "name": "turnTime",
                  "type": "uint256"
                },
                {
                  "internalType": "uint256",
                  "name": "selectedMapId",
                  "type": "uint256"
                },
                {
                  "internalType": "uint256",
                  "name": "maxScore",
                  "type": "uint256"
                }
              ],
              "internalType": "struct LobbyGameConfig",
              "name": "gameConfig",
              "type": "tuple"
            },
            {
              "components": [
                {
                  "internalType": "enum LobbyStatus",
                  "name": "status",
                  "type": "uint8"
                },
                {
                  "internalType": "uint256",
                  "name": "gameStartedAt",
                  "type": "uint256"
                }
              ],
              "internalType": "struct LobbyState",
              "name": "state",
              "type": "tuple"
            }
          ],
          "internalType": "struct Lobby[]",
          "name": "",
          "type": "tuple[]"
        }
      ],
      "stateMutability": "view",
      "type": "function"
    },
    {
      "inputs": [
        {
          "internalType": "uint256[]",
          "name": "_lobbyIds",
          "type": "uint256[]"
        }
      ],
      "name": "getLobbiesFromIds",
      "outputs": [
        {
          "components": [
            {
              "components": [
                {
                  "internalType": "uint256",
                  "name": "id",
                  "type": "uint256"
                },
                {
                  "internalType": "address",
                  "name": "creator",
                  "type": "address"
                },
                {
                  "internalType": "uint256",
                  "name": "costLimit",
                  "type": "uint256"
                },
                {
                  "internalType": "uint256",
                  "name": "createdAt",
                  "type": "uint256"
                }
              ],
              "internalType": "struct LobbyBasic",
              "name": "basic",
              "type": "tuple"
            },
            {
              "components": [
                {
                  "internalType": "address",
                  "name": "joiner",
                  "type": "address"
                },
                {
                  "internalType": "address",
                  "name": "reservedJoiner",
                  "type": "address"
                },
                {
                  "internalType": "uint256",
                  "name": "creatorFleetId",
                  "type": "uint256"
                },
                {
                  "internalType": "uint256",
                  "name": "joinerFleetId",
                  "type": "uint256"
                },
                {
                  "internalType": "uint256",
                  "name": "joinedAt",
                  "type": "uint256"
                },
                {
                  "internalType": "uint256",
                  "name": "joinerFleetSetAt",
                  "type": "uint256"
                }
              ],
              "internalType": "struct LobbyPlayers",
              "name": "players",
              "type": "tuple"
            },
            {
              "components": [
                {
                  "internalType": "bool",
                  "name": "creatorGoesFirst",
                  "type": "bool"
                },
                {
                  "internalType": "uint256",
                  "name": "turnTime",
                  "type": "uint256"
                },
                {
                  "internalType": "uint256",
                  "name": "selectedMapId",
                  "type": "uint256"
                },
                {
                  "internalType": "uint256",
                  "name": "maxScore",
                  "type": "uint256"
                }
              ],
              "internalType": "struct LobbyGameConfig",
              "name": "gameConfig",
              "type": "tuple"
            },
            {
              "components": [
                {
                  "internalType": "enum LobbyStatus",
                  "name": "status",
                  "type": "uint8"
                },
                {
                  "internalType": "uint256",
                  "name": "gameStartedAt",
                  "type": "uint256"
                }
              ],
              "internalType": "struct LobbyState",
              "name": "state",
              "type": "tuple"
            }
          ],
          "internalType": "struct Lobby[]",
          "name": "",
          "type": "tuple[]"
        }
      ],
      "stateMutability": "view",
      "type": "function"
    },
    {
      "inputs": [
        {
          "internalType": "uint256",
          "name": "_lobbyId",
          "type": "uint256"
        }
      ],
      "name": "getLobby",
      "outputs": [
        {
          "components": [
            {
              "components": [
                {
                  "internalType": "uint256",
                  "name": "id",
                  "type": "uint256"
                },
                {
                  "internalType": "address",
                  "name": "creator",
                  "type": "address"
                },
                {
                  "internalType": "uint256",
                  "name": "costLimit",
                  "type": "uint256"
                },
                {
                  "internalType": "uint256",
                  "name": "createdAt",
                  "type": "uint256"
                }
              ],
              "internalType": "struct LobbyBasic",
              "name": "basic",
              "type": "tuple"
            },
            {
              "components": [
                {
                  "internalType": "address",
                  "name": "joiner",
                  "type": "address"
                },
                {
                  "internalType": "address",
                  "name": "reservedJoiner",
                  "type": "address"
                },
                {
                  "internalType": "uint256",
                  "name": "creatorFleetId",
                  "type": "uint256"
                },
                {
                  "internalType": "uint256",
                  "name": "joinerFleetId",
                  "type": "uint256"
                },
                {
                  "internalType": "uint256",
                  "name": "joinedAt",
                  "type": "uint256"
                },
                {
                  "internalType": "uint256",
                  "name": "joinerFleetSetAt",
                  "type": "uint256"
                }
              ],
              "internalType": "struct LobbyPlayers",
              "name": "players",
              "type": "tuple"
            },
            {
              "components": [
                {
                  "internalType": "bool",
                  "name": "creatorGoesFirst",
                  "type": "bool"
                },
                {
                  "internalType": "uint256",
                  "name": "turnTime",
                  "type": "uint256"
                },
                {
                  "internalType": "uint256",
                  "name": "selectedMapId",
                  "type": "uint256"
                },
                {
                  "internalType": "uint256",
                  "name": "maxScore",
                  "type": "uint256"
                }
              ],
              "internalType": "struct LobbyGameConfig",
              "name": "gameConfig",
              "type": "tuple"
            },
            {
              "components": [
                {
                  "internalType": "enum LobbyStatus",
                  "name": "status",
                  "type": "uint8"
                },
                {
                  "internalType": "uint256",
                  "name": "gameStartedAt",
                  "type": "uint256"
                }
              ],
              "internalType": "struct LobbyState",
              "name": "state",
              "type": "tuple"
            }
          ],
          "internalType": "struct Lobby",
          "name": "",
          "type": "tuple"
        }
      ],
      "stateMutability": "view",
      "type": "function"
    },
    {
      "inputs": [],
      "name": "getOpenLobbies",
      "outputs": [
        {
          "internalType": "uint256[]",
          "name": "",
          "type": "uint256[]"
        }
      ],
      "stateMutability": "view",
      "type": "function"
    },
    {
      "inputs": [],
      "name": "getOpenLobbyCount",
      "outputs": [
        {
          "internalType": "uint256",
          "name": "",
          "type": "uint256"
        }
      ],
      "stateMutability": "view",
      "type": "function"
    },
    {
      "inputs": [
        {
          "internalType": "address",
          "name": "_player",
          "type": "address"
        }
      ],
      "name": "getPlayerLobbies",
      "outputs": [
        {
          "internalType": "uint256[]",
          "name": "",
          "type": "uint256[]"
        }
      ],
      "stateMutability": "view",
      "type": "function"
    },
    {
      "inputs": [
        {
          "internalType": "address",
          "name": "_player",
          "type": "address"
        }
      ],
      "name": "getPlayerLobbyCount",
      "outputs": [
        {
          "internalType": "uint256",
          "name": "",
          "type": "uint256"
        }
      ],
      "stateMutability": "view",
      "type": "function"
    },
    {
      "inputs": [
        {
          "internalType": "address",
          "name": "_player",
          "type": "address"
        }
      ],
      "name": "getPlayerState",
      "outputs": [
        {
          "components": [
            {
              "internalType": "uint256",
              "name": "activeLobbyId",
              "type": "uint256"
            },
            {
              "internalType": "uint256",
              "name": "activeLobbiesCount",
              "type": "uint256"
            },
            {
              "internalType": "bool",
              "name": "hasActiveLobby",
              "type": "bool"
            },
            {
              "internalType": "uint256",
              "name": "kickCount",
              "type": "uint256"
            },
            {
              "internalType": "uint256",
              "name": "lastKickTime",
              "type": "uint256"
            }
          ],
          "internalType": "struct PlayerLobbyState",
          "name": "",
          "type": "tuple"
        }
      ],
      "stateMutability": "view",
      "type": "function"
    },
    {
      "inputs": [
        {
          "internalType": "address",
          "name": "_player",
          "type": "address"
        }
      ],
      "name": "getPlayerTimeoutEnd",
      "outputs": [
        {
          "internalType": "uint256",
          "name": "",
          "type": "uint256"
        }
      ],
      "stateMutability": "view",
      "type": "function"
    },
    {
      "inputs": [
        {
          "internalType": "uint256",
          "name": "_lobbyId",
          "type": "uint256"
        }
      ],
      "name": "isLobbyOpen",
      "outputs": [
        {
          "internalType": "bool",
          "name": "",
          "type": "bool"
        }
      ],
      "stateMutability": "view",
      "type": "function"
    },
    {
      "inputs": [
        {
          "internalType": "uint256",
          "name": "_id",
          "type": "uint256"
        }
      ],
      "name": "isLobbyOpenForJoining",
      "outputs": [
        {
          "internalType": "bool",
          "name": "",
          "type": "bool"
        }
      ],
      "stateMutability": "view",
      "type": "function"
    },
    {
      "inputs": [
        {
          "internalType": "address",
          "name": "_player",
          "type": "address"
        },
        {
          "internalType": "uint256",
          "name": "_lobbyId",
          "type": "uint256"
        }
      ],
      "name": "isPlayerInLobby",
      "outputs": [
        {
          "internalType": "bool",
          "name": "",
          "type": "bool"
        }
      ],
      "stateMutability": "view",
      "type": "function"
    },
    {
      "inputs": [
        {
          "internalType": "uint256",
          "name": "_lobbyId",
          "type": "uint256"
        }
      ],
      "name": "joinLobby",
      "outputs": [],
      "stateMutability": "payable",
      "type": "function"
    },
    {
      "inputs": [
        {
          "internalType": "uint256",
          "name": "_lobbyId",
          "type": "uint256"
        }
      ],
      "name": "leaveLobby",
      "outputs": [],
      "stateMutability": "nonpayable",
      "type": "function"
    },
    {
      "inputs": [
        {
          "internalType": "uint256",
          "name": "",
          "type": "uint256"
        }
      ],
      "name": "lobbies",
      "outputs": [
        {
          "components": [
            {
              "internalType": "uint256",
              "name": "id",
              "type": "uint256"
            },
            {
              "internalType": "address",
              "name": "creator",
              "type": "address"
            },
            {
              "internalType": "uint256",
              "name": "costLimit",
              "type": "uint256"
            },
            {
              "internalType": "uint256",
              "name": "createdAt",
              "type": "uint256"
            }
          ],
          "internalType": "struct LobbyBasic",
          "name": "basic",
          "type": "tuple"
        },
        {
          "components": [
            {
              "internalType": "address",
              "name": "joiner",
              "type": "address"
            },
            {
              "internalType": "address",
              "name": "reservedJoiner",
              "type": "address"
            },
            {
              "internalType": "uint256",
              "name": "creatorFleetId",
              "type": "uint256"
            },
            {
              "internalType": "uint256",
              "name": "joinerFleetId",
              "type": "uint256"
            },
            {
              "internalType": "uint256",
              "name": "joinedAt",
              "type": "uint256"
            },
            {
              "internalType": "uint256",
              "name": "joinerFleetSetAt",
              "type": "uint256"
            }
          ],
          "internalType": "struct LobbyPlayers",
          "name": "players",
          "type": "tuple"
        },
        {
          "components": [
            {
              "internalType": "bool",
              "name": "creatorGoesFirst",
              "type": "bool"
            },
            {
              "internalType": "uint256",
              "name": "turnTime",
              "type": "uint256"
            },
            {
              "internalType": "uint256",
              "name": "selectedMapId",
              "type": "uint256"
            },
            {
              "internalType": "uint256",
              "name": "maxScore",
              "type": "uint256"
            }
          ],
          "internalType": "struct LobbyGameConfig",
          "name": "gameConfig",
          "type": "tuple"
        },
        {
          "components": [
            {
              "internalType": "enum LobbyStatus",
              "name": "status",
              "type": "uint8"
            },
            {
              "internalType": "uint256",
              "name": "gameStartedAt",
              "type": "uint256"
            }
          ],
          "internalType": "struct LobbyState",
          "name": "state",
          "type": "tuple"
        }
      ],
      "stateMutability": "view",
      "type": "function"
    },
    {
      "inputs": [],
      "name": "lobbyCount",
      "outputs": [
        {
          "internalType": "uint256",
          "name": "",
          "type": "uint256"
        }
      ],
      "stateMutability": "view",
      "type": "function"
    },
    {
      "inputs": [],
      "name": "maps",
      "outputs": [
        {
          "internalType": "contract IMaps",
          "name": "",
          "type": "address"
        }
      ],
      "stateMutability": "view",
      "type": "function"
    },
    {
      "inputs": [],
      "name": "maxFleetCostLimit",
      "outputs": [
        {
          "internalType": "uint256",
          "name": "",
          "type": "uint256"
        }
      ],
      "stateMutability": "view",
      "type": "function"
    },
    {
      "inputs": [],
      "name": "owner",
      "outputs": [
        {
          "internalType": "address",
          "name": "",
          "type": "address"
        }
      ],
      "stateMutability": "view",
      "type": "function"
    },
    {
      "inputs": [],
      "name": "paused",
      "outputs": [
        {
          "internalType": "bool",
          "name": "",
          "type": "bool"
        }
      ],
      "stateMutability": "view",
      "type": "function"
    },
    {
      "inputs": [
        {
          "internalType": "address",
          "name": "",
          "type": "address"
        }
      ],
      "name": "playerStates",
      "outputs": [
        {
          "internalType": "uint256",
          "name": "activeLobbyId",
          "type": "uint256"
        },
        {
          "internalType": "uint256",
          "name": "activeLobbiesCount",
          "type": "uint256"
        },
        {
          "internalType": "bool",
          "name": "hasActiveLobby",
          "type": "bool"
        },
        {
          "internalType": "uint256",
          "name": "kickCount",
          "type": "uint256"
        },
        {
          "internalType": "uint256",
          "name": "lastKickTime",
          "type": "uint256"
        }
      ],
      "stateMutability": "view",
      "type": "function"
    },
    {
      "inputs": [
        {
          "internalType": "uint256",
          "name": "_lobbyId",
          "type": "uint256"
        }
      ],
      "name": "quitWithPenalty",
      "outputs": [],
      "stateMutability": "nonpayable",
      "type": "function"
    },
    {
      "inputs": [
        {
          "internalType": "uint256",
          "name": "_lobbyId",
          "type": "uint256"
        }
      ],
      "name": "rejectGame",
      "outputs": [],
      "stateMutability": "nonpayable",
      "type": "function"
    },
    {
      "inputs": [],
      "name": "renounceOwnership",
      "outputs": [],
      "stateMutability": "nonpayable",
      "type": "function"
    },
    {
      "inputs": [
        {
          "internalType": "uint256",
          "name": "_fee",
          "type": "uint256"
        }
      ],
      "name": "setAdditionalLobbyFee",
      "outputs": [],
      "stateMutability": "nonpayable",
      "type": "function"
    },
    {
      "inputs": [
        {
          "internalType": "address",
          "name": "_fleetsAddress",
          "type": "address"
        }
      ],
      "name": "setFleetsAddress",
      "outputs": [],
      "stateMutability": "nonpayable",
      "type": "function"
    },
    {
      "inputs": [
        {
          "internalType": "uint256",
          "name": "_count",
          "type": "uint256"
        }
      ],
      "name": "setFreeGamesPerAddress",
      "outputs": [],
      "stateMutability": "nonpayable",
      "type": "function"
    },
    {
      "inputs": [
        {
          "internalType": "address",
          "name": "_gameAddress",
          "type": "address"
        }
      ],
      "name": "setGameAddress",
      "outputs": [],
      "stateMutability": "nonpayable",
      "type": "function"
    },
    {
      "inputs": [
        {
          "internalType": "address",
          "name": "_mapsAddress",
          "type": "address"
        }
      ],
      "name": "setMapsAddress",
      "outputs": [],
      "stateMutability": "nonpayable",
      "type": "function"
    },
    {
      "inputs": [
        {
          "internalType": "uint256",
          "name": "_maxFleetCostLimit",
          "type": "uint256"
        }
      ],
      "name": "setMaxFleetCostLimit",
      "outputs": [],
      "stateMutability": "nonpayable",
      "type": "function"
    },
    {
      "inputs": [
        {
          "internalType": "bool",
          "name": "_paused",
          "type": "bool"
        }
      ],
      "name": "setPaused",
      "outputs": [],
      "stateMutability": "nonpayable",
      "type": "function"
    },
    {
      "inputs": [
        {
          "internalType": "address",
          "name": "_universalCredits",
          "type": "address"
        }
      ],
      "name": "setUniversalCreditsAddress",
      "outputs": [],
      "stateMutability": "nonpayable",
      "type": "function"
    },
    {
      "inputs": [],
      "name": "ships",
      "outputs": [
        {
          "internalType": "contract Ships",
          "name": "",
          "type": "address"
        }
      ],
      "stateMutability": "view",
      "type": "function"
    },
    {
      "inputs": [
        {
          "internalType": "uint256",
          "name": "_lobbyId",
          "type": "uint256"
        }
      ],
      "name": "timeoutJoiner",
      "outputs": [],
      "stateMutability": "nonpayable",
      "type": "function"
    },
    {
      "inputs": [
        {
          "internalType": "address",
          "name": "newOwner",
          "type": "address"
        }
      ],
      "name": "transferOwnership",
      "outputs": [],
      "stateMutability": "nonpayable",
      "type": "function"
    },
    {
      "inputs": [],
      "name": "universalCredits",
      "outputs": [
        {
          "internalType": "contract IERC20",
          "name": "",
          "type": "address"
        }
      ],
      "stateMutability": "view",
      "type": "function"
    },
    {
      "inputs": [],
      "name": "withdraw",
      "outputs": [],
      "stateMutability": "nonpayable",
      "type": "function"
    }
  ],
  "bytecode": "0x60806040526001600855670de0b6b3a76400006009556107d0600a5534801561002757600080fd5b50604051613b63380380613b63833981016040819052610046916100ef565b338061006c57604051631e4fbdf760e01b81526000600482015260240160405180910390fd5b6100758161009f565b5060018055600280546001600160a01b0319166001600160a01b039290921691909117905561011f565b600080546001600160a01b038381166001600160a01b0319831681178455604051919092169283917f8be0079c531659141344cd1fd0a4f28419497f9722a3daafe3b4186f6b6457e09190a35050565b60006020828403121561010157600080fd5b81516001600160a01b038116811461011857600080fd5b9392505050565b613a358061012e6000396000f3fe60806040526004361061022e5760003560e01c806308a314dc1461023357806316c38b3c14610269578063172259411461028b5780631fba1bdf146102b85780632681cbb8146102e65780632aa9c679146103065780632eaeb1611461031b57806330fff6b014610331578063311cfc8c146103515780633ccfd60b146103715780633deaec2b14610386578063452c09f4146103a657806348915d91146103d35780634e12b6f9146103f3578063543ad1df146104135780635c975abb146104295780635fa4d4e914610453578063605bd5ff14610473578063669bcb0e146104935780636e8fb4c6146104b3578063711953ef146104e3578063715018a61461050357806374262da2146105185780638da5cb5b14610538578063948428f01461054d5780639ed4ce141461056d578063a7fecd7014610582578063a875cae5146105a2578063aa717f05146105b8578063b6d81088146105d8578063b83e5c7e146105f8578063bbf8218a14610618578063c01ca43f14610638578063c3fe3e281461069c578063c623130b146106bc578063ca1df170146106d3578063cd335414146106e9578063d15e55b714610709578063dc273b3f14610768578063e1db366314610788578063e3bf490d1461079e578063e9173b3a146107b1578063ea1ad1f6146107c4578063ea720b48146107e4578063eff3d30614610804578063f25205f31461081a578063f2fde38b1461083a578063faa5bf891461085a578063ff4655231461086f575b600080fd5b34801561023f57600080fd5b5061025361024e366004613341565b61089c565b60405161026091906134a3565b60405180910390f35b34801561027557600080fd5b50610289610284366004613500565b610a82565b005b34801561029757600080fd5b506006546102ab906001600160a01b031681565b604051610260919061351d565b3480156102c457600080fd5b506102d86102d336600461354d565b610a9d565b604051908152602001610260565b3480156102f257600080fd5b50610289610301366004613568565b610af1565b34801561031257600080fd5b506102d8603c81565b34801561032757600080fd5b506102d8610e1081565b34801561033d57600080fd5b5061028961034c366004613615565b610fce565b34801561035d57600080fd5b5061028961036c36600461362e565b611258565b34801561037d57600080fd5b50610289611549565b34801561039257600080fd5b506005546102ab906001600160a01b031681565b3480156103b257600080fd5b506103c66103c136600461354d565b6115f4565b6040516102609190613683565b3480156103df57600080fd5b506004546102ab906001600160a01b031681565b3480156103ff57600080fd5b5061028961040e366004613615565b611618565b34801561041f57600080fd5b506102d861012c81565b34801561043557600080fd5b50600b546104439060ff1681565b6040519015158152602001610260565b34801561045f57600080fd5b5061028961046e366004613615565b611625565b34801561047f57600080fd5b5061028961048e366004613615565b611763565b34801561049f57600080fd5b506102896104ae366004613615565b61198c565b3480156104bf57600080fd5b506104d36104ce366004613615565b611999565b60405161026094939291906136bb565b3480156104ef57600080fd5b506102896104fe36600461354d565b611aad565b34801561050f57600080fd5b50610289611ad7565b34801561052457600080fd5b50610289610533366004613615565b611aeb565b34801561054457600080fd5b506102ab611cd7565b34801561055957600080fd5b50610289610568366004613615565b611ce6565b34801561057957600080fd5b506102d8612026565b34801561058e57600080fd5b5061028961059d366004613615565b612037565b3480156105ae57600080fd5b506102d860095481565b3480156105c457600080fd5b506102896105d336600461354d565b61207a565b3480156105e457600080fd5b506104436105f3366004613615565b6120a4565b34801561060457600080fd5b5061028961061336600461354d565b6120b1565b34801561062457600080fd5b506002546102ab906001600160a01b031681565b34801561064457600080fd5b5061065861065336600461354d565b6120db565b6040516102609190600060a0820190508251825260208301516020830152604083015115156040830152606083015160608301526080830151608083015292915050565b3480156106a857600080fd5b506003546102ab906001600160a01b031681565b3480156106c857600080fd5b506102d86201518081565b3480156106df57600080fd5b506102d860085481565b3480156106f557600080fd5b506102d861070436600461354d565b61216c565b34801561071557600080fd5b5061075761072436600461354d565b600d60205260009081526040902080546001820154600283015460038401546004909401549293919260ff909116919085565b6040516102609594939291906136fc565b34801561077457600080fd5b5061044361078336600461371f565b61218d565b34801561079457600080fd5b506102d8600a5481565b6102896107ac366004613749565b6121af565b6102896107bf366004613615565b6126ae565b3480156107d057600080fd5b506102536107df36600461354d565b6128f4565b3480156107f057600080fd5b506102896107ff36600461354d565b612c94565b34801561081057600080fd5b506102d860075481565b34801561082657600080fd5b50610443610835366004613615565b612cbe565b34801561084657600080fd5b5061028961085536600461354d565b612d02565b34801561086657600080fd5b506103c6612d3d565b34801561087b57600080fd5b5061088f61088a366004613615565b612d49565b60405161026091906137a3565b60606000826001600160401b038111156108b8576108b86137b2565b6040519080825280602002602001820160405280156108f157816020015b6108de613223565b8152602001906001900390816108d65790505b50905060005b83811015610a7857600c6000868684818110610915576109156137c8565b602090810292909201358352508181019290925260409081016000208151610100810183528154608080830191825260018401546001600160a01b0390811660a08086019190915260028087015460c080880191909152600388015460e08801529486528751948501885260048701548316855260058701549092168489015260068601548488015260078601546060808601919091526008870154858501526009870154918501919091528488019390935285519182018652600a85015460ff90811615158352600b86015497830197909752600c85015482870152600d85015482840152838601919091528451808601909552600e840180549396949592870194929390928492911690811115610a3057610a3061341b565b6002811115610a4157610a4161341b565b815260200160018201548152505081525050828281518110610a6557610a656137c8565b60209081029190910101526001016108f7565b5090505b92915050565b610a8a612e85565b600b805460ff1916911515919091179055565b6001600160a01b0381166000908152600d6020526040812060038101548203610ac95750600092915050565b610e108160030154610adb91906137f4565b8160040154610aea919061380b565b9392505050565b610af9612eb7565b6000858152600c602052604081208054909103610b29576040516374315adb60e01b815260040160405180910390fd5b6001600e82015460ff166002811115610b4457610b4461341b565b14610b62576040516374f165fb60e11b815260040160405180910390fd5b60018101546001600160a01b03163314801590610b8c575060048101546001600160a01b03163314155b15610baa576040516353507d5160e11b815260040160405180910390fd5b60018101546001600160a01b031633148015610bc95750600681015415155b15610be7576040516304d3525b60e51b815260040160405180910390fd5b60048101546001600160a01b031633148015610c065750600781015415155b15610c24576040516304d3525b60e51b815260040160405180910390fd5b600181015460048054600284015460405163063ed7e960e21b8152336001600160a01b039586168114956000959416936318fb5fa493610c72938e93928e928e928e928e92918d9101613830565b6020604051808303816000875af1158015610c91573d6000803e3d6000fd5b505050506040513d601f19601f82011682018060405250810190610cb591906138f0565b60018401549091506001600160a01b03163303610cf457600683018190556007830154600003610cef57600a8301805460ff191660011790555b610d1b565b600783018190556006830154600003610d1457600a8301805460ff191690555b4260098401555b604051818152339089907f72a1a8c971b9d32d9472c3451f6e01ccb95e97125322e3cf3386a3fed86ee6589060200160405180910390a3600683015415801590610d685750600783015415155b15610fbb57600e8301805460ff1916600217905542600f84015560405188907f50ad08f58a27f2851d7e3a1b3a6a46b290f2ce677e99642d30ff639721e7779090600090a26001830154610dc5906001600160a01b031689612ee1565b6004830154610ddd906001600160a01b031689612ee1565b610de688612f08565b6001808401546001600160a01b039081166000908152600d60205260408082206004880154909316825290209181015490919015610e3657600182018054906000610e3083613909565b91905055505b600181015415610e5857600181018054906000610e5283613909565b91905055505b6002808301805460ff199081169091556000808555918301805490911690558155610e828a612f17565b600360009054906101000a90046001600160a01b03166001600160a01b031663e8d64aee8b8760000160010160009054906101000a90046001600160a01b03168860040160000160009054906101000a90046001600160a01b031689600401600201548a600401600301548b600a0160000160009054906101000a900460ff168c600a01600101548d600a01600201548e600a01600301546040518a63ffffffff1660e01b8152600401610f86999897969594939291909889526001600160a01b0397881660208a015295909616604088015260608701939093526080860191909152151560a085015260c084015260e08301919091526101008201526101200190565b600060405180830381600087803b158015610fa057600080fd5b505af1158015610fb4573d6000803e3d6000fd5b5050505050505b505050610fc760018055565b5050505050565b610fd6612eb7565b6000818152600c602052604081208054909103611006576040516374315adb60e01b815260040160405180910390fd5b60048101546001600160a01b0316331461103357604051639d2663a360e01b815260040160405180910390fd5b6001600e82015460ff16600281111561104e5761104e61341b565b1461106c576040516374f165fb60e11b815260040160405180910390fd5b6007810154600003611091576040516353507d5160e11b815260040160405180910390fd5b6006810154156110b4576040516304d3525b60e51b815260040160405180910390fd5b600b81015460098201546110c8919061380b565b4210156110e8576040516322fce56360e11b815260040160405180910390fd5b600480546007830154604051630f2bf13b60e41b8152928301526001600160a01b03169063f2bf13b090602401600060405180830381600087803b15801561112f57600080fd5b505af1158015611143573d6000803e3d6000fd5b5050505060018101546001600160a01b03166000908152600d60205260408120600381018054919261117483613920565b9091555050426004808301919091556002808301805460ff199081169091556000808555928501546001600160a01b039081168452600d602052604084209283018054909216909155918155600184015490916111d2911685612ee1565b60048301546111ea906001600160a01b031685612ee1565b6111f384612f84565b6004830180546001600160a01b0319169055600e8301805460ff191690556000600684018190556007840181905560405185917fcb7662b1678001afa152fed432f46cdaa4318053fa7acba681da4b416a59123c91a250505061125560018055565b50565b611260612e85565b61012c83108061127257506201518083115b156112905760405163079900bb60e31b815260040160405180910390fd5b846001600160a01b0316866001600160a01b0316036112c25760405163e24fd63160e01b815260040160405180910390fd5b600a548411156112e557604051632dc5079f60e21b815260040160405180910390fd5b811561139e576005546001600160a01b031661131457604051635e09313960e11b815260040160405180910390fd5b600554604051635a1114e360e01b8152600481018490526001600160a01b0390911690635a1114e390602401602060405180830381865afa15801561135d573d6000803e3d6000fd5b505050506040513d601f19601f820116820180604052508101906113819190613939565b61139e57604051635e09313960e11b815260040160405180910390fd5b600780549060006113ae83613920565b90915550506007546000818152600c60205260409020908155600180820180546001600160a01b0319166001600160a01b038a1617905560028201869055600e8201805460ff1916828002179055504260038201819055600b8201859055600c8201849055600d8083018490556004830180546001600160a01b0319166001600160a01b038a811691909117909155600884019290925590881660009081526020919091526040812060028101805460ff19166001908117909155600754825581018054919261147d83613920565b90915550506001600160a01b0387166000908152600d6020526040812060028101805460ff1916600190811790915560075482558101805491926114c083613920565b91905055506114d189600754612f8f565b6114dd88600754612f8f565b886001600160a01b03166007546000805160206139c0833981519152898960008a8a6040516115109594939291906136fc565b60405180910390a36007546040516001600160a01b038a1691906000805160206139a083398151915290600090a3505050505050505050565b611551612e85565b600061155b611cd7565b6001600160a01b03164760405160006040518083038185875af1925050503d80600081146115a5576040519150601f19603f3d011682016040523d82523d6000602084013e6115aa565b606091505b50509050806112555760405162461bcd60e51b815260206004820152601160248201527015da5d1a191c985dd85b0819985a5b1959607a1b60448201526064015b60405180910390fd5b6001600160a01b0381166000908152600e60205260409020606090610a7c90612fb1565b611620612e85565b600955565b61162d612eb7565b6000818152600c60205260408120805490910361165d576040516374315adb60e01b815260040160405180910390fd5b60058101546001600160a01b0316611688576040516351f507bf60e01b815260040160405180910390fd5b60058101546001600160a01b031633146116b557604051635129ad3360e01b815260040160405180910390fd5b6000600e82015460ff1660028111156116d0576116d061341b565b146116ee576040516374f165fb60e11b815260040160405180910390fd5b60048101546001600160a01b03161561171a5760405163be02dee760e01b815260040160405180910390fd5b6005810180546001600160a01b0319169055604051339083907fa110fa95df5f7ac61e7a54c5c66fbaa35d5c7800f9e70a6c48ee3799816b097890600090a35061125560018055565b61176b612eb7565b6000818152600c60205260408120805490910361179b576040516374315adb60e01b815260040160405180910390fd5b60058101546001600160a01b03166117c6576040516351f507bf60e01b815260040160405180910390fd5b60058101546001600160a01b031633146117f357604051635129ad3360e01b815260040160405180910390fd5b6000600e82015460ff16600281111561180e5761180e61341b565b1461182c576040516374f165fb60e11b815260040160405180910390fd5b60048101546001600160a01b0316156118585760405163be02dee760e01b815260040160405180910390fd5b336000908152600d602052604090206003810154156118b9576000610e10826003015461188591906137f4565b8260040154611894919061380b565b9050804210156118b75760405163c56b424b60e01b815260040160405180910390fd5b505b600482018054336001600160a01b031991821617909155600e8301805460ff191660011790554260088401556005830180549091169055600281015460ff1661190f5760028101805460ff191660011790558281555b60018101805490600061192183613920565b91905055506119303384612f8f565b61193983612f08565b604051339084907f46d8ac857a1f0ab9f251eb5ddc275e09a3c21a0ce9763cbeeeea22b0bb87b12990600090a3604051339084906000805160206139a083398151915290600090a3505061125560018055565b611994612e85565b600855565b600c602081815260009283526040928390208351608080820186528254825260018301546001600160a01b0390811683860152600280850154848901526003850154606080860191909152885160c081018a526004870154841681526005870154909316838801526006860154838a0152600786015483820152600886015483850152600986015460a084015288519384018952600a86015460ff90811615158552600b870154978501979097529685015483890152600d850154968301969096528651808801909752600e840180549397919692959193909284929190911690811115611a8957611a8961341b565b6002811115611a9a57611a9a61341b565b8152602001600182015481525050905084565b611ab5612e85565b600380546001600160a01b0319166001600160a01b0392909216919091179055565b611adf612e85565b611ae96000612fbe565b565b611af3612eb7565b6000818152600c602052604081208054909103611b23576040516374315adb60e01b815260040160405180910390fd5b60018101546001600160a01b03163314611b50576040516386e3479160e01b815260040160405180910390fd5b6001600e82015460ff166002811115611b6b57611b6b61341b565b14611b89576040516374f165fb60e11b815260040160405180910390fd5b60048101546001600160a01b0316611bb4576040516374315adb60e01b815260040160405180910390fd5b600781015415611bd7576040516304d3525b60e51b815260040160405180910390fd5b600b8101546008820154611beb919061380b565b421015611c0b576040516326c015ab60e21b815260040160405180910390fd5b60048101546001600160a01b03166000908152600d602052604081206003810180549192611c3883613920565b90915550504260048083019190915560028201805460ff1916905560008255820154611c6d906001600160a01b031684612ee1565b611c7683612f84565b6004820180546001600160a01b0319169055600e8201805460ff191690556000600683018190556007830181905560018301546040516001600160a01b039091169185916000805160206139808339815191529190a3505061125560018055565b6000546001600160a01b031690565b611cee612eb7565b6000818152600c602052604081208054909103611d1e576040516374315adb60e01b815260040160405180910390fd5b60018101546001600160a01b03163314801590611d48575060048101546001600160a01b03163314155b15611d66576040516353507d5160e11b815260040160405180910390fd5b6002600e82015460ff166002811115611d8157611d8161341b565b03611d9f5760405163604163d360e11b815260040160405180910390fd5b336000908152600d6020526040902080548314611dcf576040516353507d5160e11b815260040160405180910390fd5b60018201546001600160a01b03163303611f2b57600682015415611e5457600480546006840154604051630f2bf13b60e41b8152928301526001600160a01b03169063f2bf13b090602401600060405180830381600087803b158015611e3457600080fd5b505af1158015611e48573d6000803e3d6000fd5b50506000600685015550505b60048201546001600160a01b031615611f0257600482018054600180850180546001600160a01b0384166001600160a01b03199182168117909255909216909255600e8401805460ff199081169091556000828152600d60205260409020600281018054909216909317905584825590611ece3386612ee1565b611ed785612f84565b6040516001600160a01b03831690869060008051602061398083398151915290600090a35050611fe9565b611f0b83612f17565b604051339084906000805160206139e083398151915290600090a3611fe9565b600782015415611f9c57600480546007840154604051630f2bf13b60e41b8152928301526001600160a01b03169063f2bf13b090602401600060405180830381600087803b158015611f7c57600080fd5b505af1158015611f90573d6000803e3d6000fd5b50506000600785015550505b6004820180546001600160a01b0319169055600e8201805460ff19169055611fc43384612ee1565b611fcd83612f84565b604051339084906000805160206139e083398151915290600090a35b60028101805460ff191690556000815560018101541561201b5760018101805490600061201583613909565b91905055505b505061125560018055565b6000612032600f61300e565b905090565b61203f612e85565b600a8190556040518181527ff1df9480e914c2fa686d97464e9bcfb5b9023403de35ffb3d09432b219e3b2cc9060200160405180910390a150565b612082612e85565b600580546001600160a01b0319166001600160a01b0392909216919091179055565b6000610a7c600f83613018565b6120b9612e85565b600480546001600160a01b0319166001600160a01b0392909216919091179055565b61210f6040518060a00160405280600081526020016000815260200160001515815260200160008152602001600081525090565b506001600160a01b03166000908152600d6020908152604091829020825160a08101845281548152600182015492810192909252600281015460ff1615159282019290925260038201546060820152600490910154608082015290565b6001600160a01b0381166000908152600e60205260408120610a7c9061300e565b6001600160a01b0382166000908152600e60205260408120610aea9083613018565b6121b7612eb7565b600b5460ff16156121db57604051635083854f60e11b815260040160405180910390fd5b61012c8510806121ed57506201518085115b1561220b5760405163079900bb60e31b815260040160405180910390fd5b600a5486111561222e57604051632dc5079f60e21b815260040160405180910390fd5b336001600160a01b038216036122575760405163e24fd63160e01b815260040160405180910390fd5b8215612310576005546001600160a01b031661228657604051635e09313960e11b815260040160405180910390fd5b600554604051635a1114e360e01b8152600481018590526001600160a01b0390911690635a1114e390602401602060405180830381865afa1580156122cf573d6000803e3d6000fd5b505050506040513d601f19601f820116820180604052508101906122f39190613939565b61231057604051635e09313960e11b815260040160405180910390fd5b336000908152600d60205260409020600381015415612371576000610e10826003015461233d91906137f4565b826004015461234c919061380b565b90508042101561236f5760405163c56b424b60e01b815260040160405180910390fd5b505b6001600160a01b0382161561250e576006546001600160a01b03166123a95760405163505500eb60e11b815260040160405180910390fd5b6006546040516370a0823160e01b8152670de0b6b3a7640000916000916001600160a01b03909116906370a08231906123e690339060040161351d565b602060405180830381865afa158015612403573d6000803e3d6000fd5b505050506040513d601f19601f8201168201806040525081019061242791906138f0565b90508181101561244a5760405163b591b78560e01b815260040160405180910390fd5b6006546040516323b872dd60e01b8152336004820152306024820152604481018490526001600160a01b03909116906323b872dd906064016020604051808303816000875af11580156124a1573d6000803e3d6000fd5b505050506040513d601f19601f820116820180604052508101906124c59190613939565b6125075760405162461bcd60e51b8152602060048201526013602482015272155510c81d1c985b9cd9995c8819985a5b1959606a1b60448201526064016115eb565b505061253d565b60085481600101541061253d5760095434101561253d5760405162976f7560e21b815260040160405180910390fd5b6007805490600061254d83613920565b90915550506007546000818152600c60205260408120918255600180830180546001600160a01b03191633179055600283018a9055600e83018054909160ff1990911690830217905550426003820155600a8101805460ff1916871515179055600b8101879055600c8101859055600d81018490556001600160a01b0383161561261e576005810180546001600160a01b0319166001600160a01b0385169081179091556007546040517fcf0e9c1d4173a093432687b3472963d633bf5b7fc07bc553f4272e92af79d7db90600090a35b60028201805460ff1916600190811790915560075483558201805490600061264583613920565b919050555061265633600754612f8f565b612661600754612f84565b336001600160a01b03166007546000805160206139c08339815191528a8a8a8a8a6040516126939594939291906136fc565b60405180910390a350506126a660018055565b505050505050565b6126b6612eb7565b6000818152600c6020526040812080549091036126e6576040516374315adb60e01b815260040160405180910390fd5b6000600e82015460ff1660028111156127015761270161341b565b1461271f576040516374f165fb60e11b815260040160405180910390fd5b6001810154336001600160a01b039091160361274e5760405163e24fd63160e01b815260040160405180910390fd5b60048101546001600160a01b03161561277a5760405163be02dee760e01b815260040160405180910390fd5b60058101546001600160a01b0316156127ba5760058101546001600160a01b031633146127ba57604051635129ad3360e01b815260040160405180910390fd5b336000908152600d6020526040902060038101541561281b576000610e1082600301546127e791906137f4565b82600401546127f6919061380b565b9050804210156128195760405163c56b424b60e01b815260040160405180910390fd5b505b60058201546001600160a01b031661285c5760085481600101541061285c5760095434101561285c5760405162976f7560e21b815260040160405180910390fd5b6004820180546001600160a01b03191633179055600e8201805460ff19166001179055426008830155600281015460ff166128a45760028101805460ff191660011790558281555b6001810180549060006128b683613920565b91905055506128c53384612f8f565b6128ce83612f08565b604051339084906000805160206139a083398151915290600090a3505061125560018055565b6001600160a01b0381166000908152600e60205260408120606091600f9061291b8261300e565b6129248461300e565b61292e919061380b565b6001600160401b03811115612945576129456137b2565b60405190808252806020026020018201604052801561297e57816020015b61296b613223565b8152602001906001900390816129635790505b50905060005b61298d8461300e565b811015612afc57600c60006129a28684613024565b815260208082019290925260409081016000208151610100810183528154608080830191825260018401546001600160a01b0390811660a08086019190915260028087015460c080880191909152600388015460e08801529486528751948501885260048701548316855260058701549092168489015260068601548488015260078601546060808601919091526008870154858501526009870154918501919091528488019390935285519182018652600a85015460ff90811615158352600b86015497830197909752600c85015482870152600d85015482840152838601919091528451808601909552600e840180549396949592870194929390928492911690811115612ab457612ab461341b565b6002811115612ac557612ac561341b565b815260200160018201548152505081525050828281518110612ae957612ae96137c8565b6020908102919091010152600101612984565b5060005b612b098361300e565b811015612c8b57600c6000612b1e8584613024565b815260208082019290925260409081016000208151610100810183528154608080830191825260018401546001600160a01b0390811660a08086019190915260028087015460c080880191909152600388015460e08801529486528751948501885260048701548316855260058701549092168489015260068601548488015260078601546060808601919091526008870154858501526009870154918501919091528488019390935285519182018652600a85015460ff90811615158352600b86015497830197909752600c85015482870152600d85015482840152838601919091528451808601909552600e840180549396949592870194929390928492911690811115612c3057612c3061341b565b6002811115612c4157612c4161341b565b8152602001600182015481525050815250508282612c5e8761300e565b612c68919061380b565b81518110612c7857612c786137c8565b6020908102919091010152600101612b00565b50949350505050565b612c9c612e85565b600680546001600160a01b0319166001600160a01b0392909216919091179055565b6000818152600c6020526040812081600e82015460ff166002811115612ce657612ce661341b565b148015610aea5750600401546001600160a01b03161592915050565b612d0a612e85565b6001600160a01b038116612d34576000604051631e4fbdf760e01b81526004016115eb919061351d565b61125581612fbe565b6060612032600f612fb1565b612d51613223565b6000828152600c60208181526040928390208351610100810185528154608080830191825260018401546001600160a01b0390811660a08086019190915260028087015460c080880191909152600388015460e088015294865289519485018a526004870154831685526005870154909216848801526006860154848a015260078601546060808601919091526008870154858501526009870154918501919091528487019390935287519182018852600a85015460ff90811615158352600b860154968301969096529584015481880152600d84015481830152828701528551808701909652600e83018054929693959187019490928492911690811115612e5c57612e5c61341b565b6002811115612e6d57612e6d61341b565b81526001919091015460209091015290525092915050565b33612e8e611cd7565b6001600160a01b031614611ae9573360405163118cdaa760e01b81526004016115eb919061351d565b600260015403612eda57604051633ee5aeb560e01b815260040160405180910390fd5b6002600155565b6001600160a01b0382166000908152600e60205260409020612f039082613030565b505050565b612f13600f82613030565b5050565b6000818152600c6020526040902060018101546001600160a01b031615612f50576001810154612f50906001600160a01b031683612ee1565b60048101546001600160a01b031615612f7b576004810154612f7b906001600160a01b031683612ee1565b612f1382612f08565b612f13600f8261303c565b6001600160a01b0382166000908152600e60205260409020612f03908261303c565b60606000610aea83613048565b600080546001600160a01b038381166001600160a01b0319831681178455604051919092169283917f8be0079c531659141344cd1fd0a4f28419497f9722a3daafe3b4186f6b6457e09190a35050565b6000610a7c825490565b6000610aea83836130a4565b6000610aea83836130bc565b6000610aea83836130e6565b6000610aea83836131d9565b60608160000180548060200260200160405190810160405280929190818152602001828054801561309857602002820191906000526020600020905b815481526020019060010190808311613084575b50505050509050919050565b60009081526001919091016020526040902054151590565b60008260000182815481106130d3576130d36137c8565b9060005260206000200154905092915050565b600081815260018301602052604081205480156131cf57600061310a600183613956565b855490915060009061311e90600190613956565b905080821461318357600086600001828154811061313e5761313e6137c8565b9060005260206000200154905080876000018481548110613161576131616137c8565b6000918252602080832090910192909255918252600188019052604090208390555b855486908061319457613194613969565b600190038181906000526020600020016000905590558560010160008681526020019081526020016000206000905560019350505050610a7c565b6000915050610a7c565b60006131e583836130a4565b61321b57508154600181810184556000848152602080822090930184905584548482528286019093526040902091909155610a7c565b506000610a7c565b60408051610100810190915260006080820181815260a0830182905260c0830182905260e0830191909152819081526020016132a06040518060c0016040528060006001600160a01b0316815260200160006001600160a01b03168152602001600081526020016000815260200160008152602001600081525090565b81526020016132d260405180608001604052806000151581526020016000815260200160008152602001600081525090565b81526020016132f1604080518082019091526000808252602082015290565b905290565b60008083601f84011261330857600080fd5b5081356001600160401b0381111561331f57600080fd5b6020830191508360208260051b850101111561333a57600080fd5b9250929050565b6000806020838503121561335457600080fd5b82356001600160401b0381111561336a57600080fd5b613376858286016132f6565b90969095509350505050565b805182526020808201516001600160a01b03169083015260408082015190830152606090810151910152565b80516001600160a01b0390811683526020808301519091169083015260408082015190830152606080820151908301526080808201519083015260a090810151910152565b8051151582526020810151602083015260408101516040830152606081015160608301525050565b634e487b7160e01b600052602160045260246000fd5b80516003811061345157634e487b7160e01b600052602160045260246000fd5b8252602090810151910152565b613469828251613382565b602081015161347b60808401826133ae565b50604081015161348f6101408401826133f3565b506060810151612f036101c0840182613431565b602080825282518282018190526000918401906040840190835b818110156134e7576134d083855161345e565b6020939093019261020092909201916001016134bd565b509095945050505050565b801515811461125557600080fd5b60006020828403121561351257600080fd5b8135610aea816134f2565b6001600160a01b0391909116815260200190565b80356001600160a01b038116811461354857600080fd5b919050565b60006020828403121561355f57600080fd5b610aea82613531565b60008060008060006060868803121561358057600080fd5b8535945060208601356001600160401b0381111561359d57600080fd5b6135a9888289016132f6565b90955093505060408601356001600160401b038111156135c857600080fd5b8601601f810188136135d957600080fd5b80356001600160401b038111156135ef57600080fd5b8860208260061b840101111561360457600080fd5b959894975092955050506020019190565b60006020828403121561362757600080fd5b5035919050565b60008060008060008060c0878903121561364757600080fd5b61365087613531565b955061365e60208801613531565b95989597505050506040840135936060810135936080820135935060a0909101359150565b602080825282518282018190526000918401906040840190835b818110156134e757835183526020938401939092019160010161369d565b61020081016136ca8287613382565b6136d760808301866133ae565b6136e56101408301856133f3565b6136f36101c0830184613431565b95945050505050565b948552602085019390935290151560408401526060830152608082015260a00190565b6000806040838503121561373257600080fd5b61373b83613531565b946020939093013593505050565b60008060008060008060c0878903121561376257600080fd5b8635955060208701359450604087013561377b816134f2565b9350606087013592506080870135915061379760a08801613531565b90509295509295509295565b6102008101610a7c828461345e565b634e487b7160e01b600052604160045260246000fd5b634e487b7160e01b600052603260045260246000fd5b634e487b7160e01b600052601160045260246000fd5b8082028115828204841417610a7c57610a7c6137de565b80820180821115610a7c57610a7c6137de565b8035600181900b811461354857600080fd5b8881526001600160a01b038816602082015260c060408201819052810186905260006001600160fb1b0387111561386657600080fd5b8660051b808960e0850137820182810360e0908101606085015281018690528690600090610100015b878210156138ca576138a08361381e565b60010b81526138b16020840161381e565b600190810b60208301526040938401939201910161388f565b6080850187905285151560a086015292506138e3915050565b9998505050505050505050565b60006020828403121561390257600080fd5b5051919050565b600081613918576139186137de565b506000190190565b600060018201613932576139326137de565b5060010190565b60006020828403121561394b57600080fd5b8151610aea816134f2565b81810381811115610a7c57610a7c6137de565b634e487b7160e01b600052603160045260246000fdfeee8b079adb6e971a80670fe597ec6fd06cb3699ea8771fe1b5554c79a7c0b8fd9b8e9742090654a785c549aefcfcd7cc7f18215ee64c50e9d93f4b153a0e56e4c0594b072d40bf82c20f44fa41a55144b097ebd9b07f9a37ba466d40e1f43aab9b5e662ea3d6238d43ff6f148df4451e32553992239658d2fbca40e78f0cb5d7a26469706673582212200b4c4c1846814d08a689d6054aea2c26b69b4126439ad24c01e76f8e1422c8ee64736f6c634300081c0033",
  "linkReferences": {},
  "deployedLinkReferences": {}
}