{
  "_format": "hh-sol-artifact-1",
  "contractName": "ShipPurchaser",
  "sourceName": "contracts/ShipPurchaser.sol",
  "abi": [
    {
      "inputs": [
        {
          "internalType": "address",
          "name": "_ships",
          "type": "address"
        },
        {
          "internalType": "address",
          "name": "_universalCredits",
          "type": "address"
        }
      ],
      "stateMutability": "nonpayable",
      "type": "constructor"
    },
    {
      "inputs": [],
      "name": "ArrayLengthMismatch",
      "type": "error"
    },
    {
      "inputs": [
        {
          "internalType": "uint256",
          "name": "_required",
          "type": "uint256"
        },
        {
          "internalType": "uint256",
          "name": "_available",
          "type": "uint256"
        }
      ],
      "name": "InsufficientFunds",
      "type": "error"
    },
    {
      "inputs": [
        {
          "internalType": "uint256",
          "name": "_tier",
          "type": "uint256"
        },
        {
          "internalType": "uint256",
          "name": "_amount",
          "type": "uint256"
        }
      ],
      "name": "InvalidPurchase",
      "type": "error"
    },
    {
      "inputs": [
        {
          "internalType": "address",
          "name": "",
          "type": "address"
        }
      ],
      "name": "NotAuthorized",
      "type": "error"
    },
    {
      "inputs": [
        {
          "internalType": "address",
          "name": "owner",
          "type": "address"
        }
      ],
      "name": "OwnableInvalidOwner",
      "type": "error"
    },
    {
      "inputs": [
        {
          "internalType": "address",
          "name": "account",
          "type": "address"
        }
      ],
      "name": "OwnableUnauthorizedAccount",
      "type": "error"
    },
    {
      "inputs": [],
      "name": "ReentrancyGuardReentrantCall",
      "type": "error"
    },
    {
      "anonymous": false,
      "inputs": [
        {
          "indexed": true,
          "internalType": "address",
          "name": "previousOwner",
          "type": "address"
        },
        {
          "indexed": true,
          "internalType": "address",
          "name": "newOwner",
          "type": "address"
        }
      ],
      "name": "OwnershipTransferred",
      "type": "event"
    },
    {
      "inputs": [],
      "name": "getPurchaseInfo",
      "outputs": [
        {
          "internalType": "uint8[]",
          "name": "",
          "type": "uint8[]"
        },
        {
          "internalType": "uint256[]",
          "name": "",
          "type": "uint256[]"
        }
      ],
      "stateMutability": "view",
      "type": "function"
    },
    {
      "inputs": [
        {
          "internalType": "address",
          "name": "",
          "type": "address"
        }
      ],
      "name": "isAllowedToCreateShips",
      "outputs": [
        {
          "internalType": "bool",
          "name": "",
          "type": "bool"
        }
      ],
      "stateMutability": "view",
      "type": "function"
    },
    {
      "inputs": [],
      "name": "owner",
      "outputs": [
        {
          "internalType": "address",
          "name": "",
          "type": "address"
        }
      ],
      "stateMutability": "view",
      "type": "function"
    },
    {
      "inputs": [
        {
          "internalType": "address",
          "name": "_to",
          "type": "address"
        },
        {
          "internalType": "uint256",
          "name": "_tier",
          "type": "uint256"
        }
      ],
      "name": "purchaseUTCWithFlow",
      "outputs": [],
      "stateMutability": "payable",
      "type": "function"
    },
    {
      "inputs": [
        {
          "internalType": "address",
          "name": "_to",
          "type": "address"
        },
        {
          "internalType": "uint8",
          "name": "_tier",
          "type": "uint8"
        },
        {
          "internalType": "address",
          "name": "_referral",
          "type": "address"
        },
        {
          "internalType": "uint16",
          "name": "_variant",
          "type": "uint16"
        }
      ],
      "name": "purchaseWithUC",
      "outputs": [],
      "stateMutability": "nonpayable",
      "type": "function"
    },
    {
      "inputs": [
        {
          "internalType": "address",
          "name": "",
          "type": "address"
        }
      ],
      "name": "referralCount",
      "outputs": [
        {
          "internalType": "uint256",
          "name": "",
          "type": "uint256"
        }
      ],
      "stateMutability": "view",
      "type": "function"
    },
    {
      "inputs": [
        {
          "internalType": "uint256",
          "name": "",
          "type": "uint256"
        }
      ],
      "name": "referralPercentages",
      "outputs": [
        {
          "internalType": "uint8",
          "name": "",
          "type": "uint8"
        }
      ],
      "stateMutability": "view",
      "type": "function"
    },
    {
      "inputs": [
        {
          "internalType": "uint256",
          "name": "",
          "type": "uint256"
        }
      ],
      "name": "referralStages",
      "outputs": [
        {
          "internalType": "uint32",
          "name": "",
          "type": "uint32"
        }
      ],
      "stateMutability": "view",
      "type": "function"
    },
    {
      "inputs": [],
      "name": "renounceOwnership",
      "outputs": [],
      "stateMutability": "nonpayable",
      "type": "function"
    },
    {
      "inputs": [
        {
          "internalType": "uint8[]",
          "name": "_tierShips",
          "type": "uint8[]"
        },
        {
          "internalType": "uint256[]",
          "name": "_tierPrices",
          "type": "uint256[]"
        }
      ],
      "name": "setPurchaseInfo",
      "outputs": [],
      "stateMutability": "nonpayable",
      "type": "function"
    },
    {
      "inputs": [],
      "name": "ships",
      "outputs": [
        {
          "internalType": "contract IShips",
          "name": "",
          "type": "address"
        }
      ],
      "stateMutability": "view",
      "type": "function"
    },
    {
      "inputs": [
        {
          "internalType": "uint256",
          "name": "",
          "type": "uint256"
        }
      ],
      "name": "tierPrices",
      "outputs": [
        {
          "internalType": "uint256",
          "name": "",
          "type": "uint256"
        }
      ],
      "stateMutability": "view",
      "type": "function"
    },
    {
      "inputs": [
        {
          "internalType": "uint256",
          "name": "",
          "type": "uint256"
        }
      ],
      "name": "tierShips",
      "outputs": [
        {
          "internalType": "uint8",
          "name": "",
          "type": "uint8"
        }
      ],
      "stateMutability": "view",
      "type": "function"
    },
    {
      "inputs": [
        {
          "internalType": "address",
          "name": "newOwner",
          "type": "address"
        }
      ],
      "name": "transferOwnership",
      "outputs": [],
      "stateMutability": "nonpayable",
      "type": "function"
    },
    {
      "inputs": [],
      "name": "universalCredits",
      "outputs": [
        {
          "internalType": "contract IERC20",
          "name": "",
          "type": "address"
        }
      ],
      "stateMutability": "view",
      "type": "function"
    },
    {
      "inputs": [],
      "name": "universalCreditsMintable",
      "outputs": [
        {
          "internalType": "contract IUniversalCredits",
          "name": "",
          "type": "address"
        }
      ],
      "stateMutability": "view",
      "type": "function"
    },
    {
      "inputs": [],
      "name": "withdrawFlow",
      "outputs": [],
      "stateMutability": "nonpayable",
      "type": "function"
    },
    {
      "inputs": [],
      "name": "withdrawUC",
      "outputs": [],
      "stateMutability": "nonpayable",
      "type": "function"
    }
  ],
  "bytecode": "0x610180604052600060e0908152600a610100526014610120526023610140526032610160526100329060029060056101dc565b50604080516080810182526103e88152612710602082015261c35091810191909152620186a0606082015261006b906003906004610282565b5034801561007857600080fd5b506040516117b63803806117b683398101604081905261009791610395565b33806100bd57604051631e4fbdf760e01b81526000600482015260240160405180910390fd5b6100c68161018c565b50600180556001600160a01b03808316608090815290821660a081815260c0919091526040805191820181526005808352600b602084015260169183019190915260286060830152603c9282019290925261012491600491906101dc565b506040805160a0810182526745400a8fd53300008152678aa39c121a27000060208201526801156abf16a40f0000918101919091526801e595739d72eb000060608201526802b5c0282441c700006080820152610184906005908161031e565b5050506103c8565b600080546001600160a01b038381166001600160a01b0319831681178455604051919092169283917f8be0079c531659141344cd1fd0a4f28419497f9722a3daafe3b4186f6b6457e09190a35050565b82805482825590600052602060002090601f016020900481019282156102725791602002820160005b8382111561024357835183826101000a81548160ff021916908360ff1602179055509260200192600101602081600001049283019260010302610205565b80156102705782816101000a81549060ff0219169055600101602081600001049283019260010302610243565b505b5061027e929150610364565b5090565b828054828255906000526020600020906007016008900481019282156102725791602002820160005b838211156102ee57835183826101000a81548163ffffffff021916908362ffffff16021790555092602001926004016020816003010492830192600103026102ab565b80156102705782816101000a81549063ffffffff02191690556004016020816003010492830192600103026102ee565b828054828255906000526020600020908101928215610272579160200282015b8281111561027257825182906001600160481b031690559160200191906001019061033e565b5b8082111561027e5760008155600101610365565b80516001600160a01b038116811461039057600080fd5b919050565b600080604083850312156103a857600080fd5b6103b183610379565b91506103bf60208401610379565b90509250929050565b60805160a05160c05161138f6104276000396000818160f00152610ab1015260008181610151015281816103c00152818161043a0152818161060e015281816106d20152610d2a0152600081816102fa01526107c1015261138f6000f3fe6080604052600436106100d95760003560e01c80630de85866146100de57806312ac049e14610128578063172259411461013f5780631a0111aa14610173578063300eccab1461019357806343e66ab1146101c157806348cfc19e146101e15780636121243114610204578063715018a61461023657806375bfe4201461024b5780637fb0acfa1461028b5780638da5cb5b146102a0578063ad15d107146102b5578063b662abf5146102c8578063bbf8218a146102e8578063cfca9a7f1461031c578063db74559b14610351578063f2fde38b1461037e575b600080fd5b3480156100ea57600080fd5b506101127f000000000000000000000000000000000000000000000000000000000000000081565b60405161011f9190610f38565b60405180910390f35b34801561013457600080fd5b5061013d61039e565b005b34801561014b57600080fd5b506101127f000000000000000000000000000000000000000000000000000000000000000081565b34801561017f57600080fd5b5061013d61018e366004611038565b61051b565b34801561019f57600080fd5b506101b36101ae3660046110ff565b610571565b60405190815260200161011f565b3480156101cd57600080fd5b5061013d6101dc36600461112f565b610592565b3480156101ed57600080fd5b506101f6610849565b60405161011f92919061118c565b34801561021057600080fd5b5061022461021f3660046110ff565b61091a565b60405160ff909116815260200161011f565b34801561024257600080fd5b5061013d61094e565b34801561025757600080fd5b5061027b610266366004611211565b60076020526000908152604090205460ff1681565b604051901515815260200161011f565b34801561029757600080fd5b5061013d610962565b3480156102ac57600080fd5b50610112610a0d565b61013d6102c3366004611233565b610a1c565b3480156102d457600080fd5b506102246102e33660046110ff565b610b28565b3480156102f457600080fd5b506101127f000000000000000000000000000000000000000000000000000000000000000081565b34801561032857600080fd5b5061033c6103373660046110ff565b610b38565b60405163ffffffff909116815260200161011f565b34801561035d57600080fd5b506101b361036c366004611211565b60066020526000908152604090205481565b34801561038a57600080fd5b5061013d610399366004611211565b610b72565b6103a6610bad565b6040516370a0823160e01b81526000906001600160a01b037f000000000000000000000000000000000000000000000000000000000000000016906370a08231906103f5903090600401610f38565b602060405180830381865afa158015610412573d6000803e3d6000fd5b505050506040513d601f19601f82011682018060405250810190610436919061125d565b90507f00000000000000000000000000000000000000000000000000000000000000006001600160a01b031663a9059cbb61046f610a0d565b836040518363ffffffff1660e01b815260040161048d929190611276565b6020604051808303816000875af11580156104ac573d6000803e3d6000fd5b505050506040513d601f19601f820116820180604052508101906104d0919061128f565b6105185760405162461bcd60e51b81526020600482015260146024820152731550c81dda5d1a191c985dd85b0819985a5b195960621b60448201526064015b60405180910390fd5b50565b610523610bad565b80518251146105455760405163512509d360e11b815260040160405180910390fd5b8151610558906004906020850190610e42565b50805161056c906005906020840190610ee8565b505050565b6005818154811061058157600080fd5b600091825260209091200154905081565b61059a610bdf565b600060048460ff16815481106105b2576105b26112b1565b6000918252602080832090820401546005805460ff601f9094166101000a909204831694509187169081106105e9576105e96112b1565b60009182526020822001546040516370a0823160e01b81529092506001600160a01b037f000000000000000000000000000000000000000000000000000000000000000016906370a0823190610643903390600401610f38565b602060405180830381865afa158015610660573d6000803e3d6000fd5b505050506040513d601f19601f82011682018060405250810190610684919061125d565b9050818110156106b05760405162fae2d560e21b8152600481018390526024810182905260440161050f565b6040516323b872dd60e01b8152336004820152306024820152604481018390527f00000000000000000000000000000000000000000000000000000000000000006001600160a01b0316906323b872dd906064016020604051808303816000875af1158015610723573d6000803e3d6000fd5b505050506040513d601f19601f82011682018060405250810190610747919061128f565b6107885760405162461bcd60e51b81526020600482015260126024820152711550c81d1c985b9cd9995c8819985a5b195960721b604482015260640161050f565b604051631e3ea40760e21b81526001600160a01b0388811660048301526024820185905261ffff8616604483015260ff881660648301527f000000000000000000000000000000000000000000000000000000000000000016906378fa901c90608401600060405180830381600087803b15801561080557600080fd5b505af1158015610819573d6000803e3d6000fd5b505050506001600160a01b0385161561083757610837858484610c09565b50505061084360018055565b50505050565b60608060046005818054806020026020016040519081016040528092919081815260200182805480156108b957602002820191906000526020600020906000905b825461010083900a900460ff1681526020600192830181810494850194909303909202910180841161088a5790505b505050505091508080548060200260200160405190810160405280929190818152602001828054801561090b57602002820191906000526020600020905b8154815260200190600101908083116108f7575b50505050509050915091509091565b6004818154811061092a57600080fd5b9060005260206000209060209182820401919006915054906101000a900460ff1681565b610956610bad565b6109606000610df2565b565b61096a610bad565b6000610974610a0d565b6001600160a01b03164760405160006040518083038185875af1925050503d80600081146109be576040519150601f19603f3d011682016040523d82523d6000602084013e6109c3565b606091505b50509050806105185760405162461bcd60e51b8152602060048201526016602482015275119313d5c81dda5d1a191c985dd85b0819985a5b195960521b604482015260640161050f565b6000546001600160a01b031690565b610a24610bdf565b6005548110610a4f576040516312a1605d60e31b81526004810182905234602482015260440161050f565b600060058281548110610a6457610a646112b1565b90600052602060002001549050803414610a9a576040516312a1605d60e31b81526004810183905234602482015260440161050f565b6040516340c10f1960e01b81526001600160a01b037f000000000000000000000000000000000000000000000000000000000000000016906340c10f1990610ae89086908590600401611276565b600060405180830381600087803b158015610b0257600080fd5b505af1158015610b16573d6000803e3d6000fd5b5050505050610b2460018055565b5050565b6002818154811061092a57600080fd5b60038181548110610b4857600080fd5b9060005260206000209060089182820401919006600402915054906101000a900463ffffffff1681565b610b7a610bad565b6001600160a01b038116610ba4576000604051631e4fbdf760e01b815260040161050f9190610f38565b61051881610df2565b33610bb6610a0d565b6001600160a01b031614610960573360405163118cdaa760e01b815260040161050f9190610f38565b600260015403610c0257604051633ee5aeb560e01b815260040160405180910390fd5b6002600155565b6001600160a01b03831660009081526006602052604081208054849290610c319084906112dd565b90915550506003546000905b8015610cf7576003610c506001836112f6565b81548110610c6057610c606112b1565b600091825260208083206008830401546001600160a01b0389168452600690915260409092205460079091166004026101000a90910463ffffffff1611610ce5576002610cae6001836112f6565b81548110610cbe57610cbe6112b1565b60009182526020918290209181049091015460ff601f9092166101000a9004169150610cf7565b80610cef81611309565b915050610c3d565b5060006064610d068385611320565b610d109190611337565b60405163a9059cbb60e01b81529091506001600160a01b037f0000000000000000000000000000000000000000000000000000000000000000169063a9059cbb90610d619088908590600401611276565b6020604051808303816000875af1158015610d80573d6000803e3d6000fd5b505050506040513d601f19601f82011682018060405250810190610da4919061128f565b610deb5760405162461bcd60e51b8152602060048201526018602482015277149959995c9c985b081d1c985b9cd9995c8819985a5b195960421b604482015260640161050f565b5050505050565b600080546001600160a01b038381166001600160a01b0319831681178455604051919092169283917f8be0079c531659141344cd1fd0a4f28419497f9722a3daafe3b4186f6b6457e09190a35050565b82805482825590600052602060002090601f01602090048101928215610ed85791602002820160005b83821115610ea957835183826101000a81548160ff021916908360ff1602179055509260200192600101602081600001049283019260010302610e6b565b8015610ed65782816101000a81549060ff0219169055600101602081600001049283019260010302610ea9565b505b50610ee4929150610f23565b5090565b828054828255906000526020600020908101928215610ed8579160200282015b82811115610ed8578251825591602001919060010190610f08565b5b80821115610ee45760008155600101610f24565b6001600160a01b0391909116815260200190565b634e487b7160e01b600052604160045260246000fd5b604051601f8201601f191681016001600160401b0381118282101715610f8a57610f8a610f4c565b604052919050565b60006001600160401b03821115610fab57610fab610f4c565b5060051b60200190565b803560ff81168114610fc657600080fd5b919050565b600082601f830112610fdc57600080fd5b8135610fef610fea82610f92565b610f62565b8082825260208201915060208360051b86010192508583111561101157600080fd5b602085015b8381101561102e578035835260209283019201611016565b5095945050505050565b6000806040838503121561104b57600080fd5b82356001600160401b0381111561106157600080fd5b8301601f8101851361107257600080fd5b8035611080610fea82610f92565b8082825260208201915060208360051b8501019250878311156110a257600080fd5b6020840193505b828410156110cb576110ba84610fb5565b8252602093840193909101906110a9565b945050505060208301356001600160401b038111156110e957600080fd5b6110f585828601610fcb565b9150509250929050565b60006020828403121561111157600080fd5b5035919050565b80356001600160a01b0381168114610fc657600080fd5b6000806000806080858703121561114557600080fd5b61114e85611118565b935061115c60208601610fb5565b925061116a60408601611118565b9150606085013561ffff8116811461118157600080fd5b939692955090935050565b6040808252835190820181905260009060208501906060840190835b818110156111c957835160ff168352602093840193909201916001016111a8565b50508381036020808601919091528551808352918101925085019060005b818110156112055782518452602093840193909201916001016111e7565b50919695505050505050565b60006020828403121561122357600080fd5b61122c82611118565b9392505050565b6000806040838503121561124657600080fd5b61124f83611118565b946020939093013593505050565b60006020828403121561126f57600080fd5b5051919050565b6001600160a01b03929092168252602082015260400190565b6000602082840312156112a157600080fd5b8151801515811461122c57600080fd5b634e487b7160e01b600052603260045260246000fd5b634e487b7160e01b600052601160045260246000fd5b808201808211156112f0576112f06112c7565b92915050565b818103818111156112f0576112f06112c7565b600081611318576113186112c7565b506000190190565b80820281158282048414176112f0576112f06112c7565b60008261135457634e487b7160e01b600052601260045260246000fd5b50049056fea26469706673582212202505d2e1400b3a09506ac355c2bec5263b7cd4ae7ba8a27f6c8c8129a3af57fc64736f6c634300081c0033",
  "linkReferences": {},
  "deployedLinkReferences": {}
}