{
  "_format": "hh-sol-artifact-1",
  "contractName": "GenerateNewShip",
  "sourceName": "contracts/GenerateNewShip.sol",
  "abi": [
    {
      "inputs": [
        {
          "internalType": "address",
          "name": "_shipNames",
          "type": "address"
        }
      ],
      "stateMutability": "nonpayable",
      "type": "constructor"
    },
    {
      "inputs": [
        {
          "internalType": "uint256",
          "name": "id",
          "type": "uint256"
        },
        {
          "internalType": "uint256",
          "name": "serialNumber",
          "type": "uint256"
        },
        {
          "internalType": "uint64",
          "name": "randomBase",
          "type": "uint64"
        },
        {
          "internalType": "uint16",
          "name": "numberOfVariants",
          "type": "uint16"
        }
      ],
      "name": "generateShip",
      "outputs": [
        {
          "components": [
            {
              "internalType": "string",
              "name": "name",
              "type": "string"
            },
            {
              "internalType": "uint256",
              "name": "id",
              "type": "uint256"
            },
            {
              "components": [
                {
                  "internalType": "enum MainWeapon",
                  "name": "mainWeapon",
                  "type": "uint8"
                },
                {
                  "internalType": "enum Armor",
                  "name": "armor",
                  "type": "uint8"
                },
                {
                  "internalType": "enum Shields",
                  "name": "shields",
                  "type": "uint8"
                },
                {
                  "internalType": "enum Special",
                  "name": "special",
                  "type": "uint8"
                }
              ],
              "internalType": "struct Equipment",
              "name": "equipment",
              "type": "tuple"
            },
            {
              "components": [
                {
                  "internalType": "uint256",
                  "name": "serialNumber",
                  "type": "uint256"
                },
                {
                  "components": [
                    {
                      "internalType": "uint16",
                      "name": "h1",
                      "type": "uint16"
                    },
                    {
                      "internalType": "uint8",
                      "name": "s1",
                      "type": "uint8"
                    },
                    {
                      "internalType": "uint8",
                      "name": "l1",
                      "type": "uint8"
                    },
                    {
                      "internalType": "uint16",
                      "name": "h2",
                      "type": "uint16"
                    },
                    {
                      "internalType": "uint8",
                      "name": "s2",
                      "type": "uint8"
                    },
                    {
                      "internalType": "uint8",
                      "name": "l2",
                      "type": "uint8"
                    }
                  ],
                  "internalType": "struct Colors",
                  "name": "colors",
                  "type": "tuple"
                },
                {
                  "internalType": "uint8",
                  "name": "variant",
                  "type": "uint8"
                },
                {
                  "internalType": "uint8",
                  "name": "accuracy",
                  "type": "uint8"
                },
                {
                  "internalType": "uint8",
                  "name": "hull",
                  "type": "uint8"
                },
                {
                  "internalType": "uint8",
                  "name": "speed",
                  "type": "uint8"
                }
              ],
              "internalType": "struct Traits",
              "name": "traits",
              "type": "tuple"
            },
            {
              "components": [
                {
                  "internalType": "uint32",
                  "name": "shipsDestroyed",
                  "type": "uint32"
                },
                {
                  "internalType": "uint16",
                  "name": "costsVersion",
                  "type": "uint16"
                },
                {
                  "internalType": "uint16",
                  "name": "cost",
                  "type": "uint16"
                },
                {
                  "internalType": "bool",
                  "name": "shiny",
                  "type": "bool"
                },
                {
                  "internalType": "bool",
                  "name": "constructed",
                  "type": "bool"
                },
                {
                  "internalType": "bool",
                  "name": "inFleet",
                  "type": "bool"
                },
                {
                  "internalType": "uint256",
                  "name": "timestampDestroyed",
                  "type": "uint256"
                }
              ],
              "internalType": "struct ShipData",
              "name": "shipData",
              "type": "tuple"
            },
            {
              "internalType": "address",
              "name": "owner",
              "type": "address"
            }
          ],
          "internalType": "struct Ship",
          "name": "",
          "type": "tuple"
        }
      ],
      "stateMutability": "view",
      "type": "function"
    },
    {
      "inputs": [
        {
          "internalType": "uint256",
          "name": "id",
          "type": "uint256"
        },
        {
          "internalType": "uint256",
          "name": "",
          "type": "uint256"
        },
        {
          "components": [
            {
              "internalType": "string",
              "name": "name",
              "type": "string"
            },
            {
              "internalType": "uint256",
              "name": "id",
              "type": "uint256"
            },
            {
              "components": [
                {
                  "internalType": "enum MainWeapon",
                  "name": "mainWeapon",
                  "type": "uint8"
                },
                {
                  "internalType": "enum Armor",
                  "name": "armor",
                  "type": "uint8"
                },
                {
                  "internalType": "enum Shields",
                  "name": "shields",
                  "type": "uint8"
                },
                {
                  "internalType": "enum Special",
                  "name": "special",
                  "type": "uint8"
                }
              ],
              "internalType": "struct Equipment",
              "name": "equipment",
              "type": "tuple"
            },
            {
              "components": [
                {
                  "internalType": "uint256",
                  "name": "serialNumber",
                  "type": "uint256"
                },
                {
                  "components": [
                    {
                      "internalType": "uint16",
                      "name": "h1",
                      "type": "uint16"
                    },
                    {
                      "internalType": "uint8",
                      "name": "s1",
                      "type": "uint8"
                    },
                    {
                      "internalType": "uint8",
                      "name": "l1",
                      "type": "uint8"
                    },
                    {
                      "internalType": "uint16",
                      "name": "h2",
                      "type": "uint16"
                    },
                    {
                      "internalType": "uint8",
                      "name": "s2",
                      "type": "uint8"
                    },
                    {
                      "internalType": "uint8",
                      "name": "l2",
                      "type": "uint8"
                    }
                  ],
                  "internalType": "struct Colors",
                  "name": "colors",
                  "type": "tuple"
                },
                {
                  "internalType": "uint8",
                  "name": "variant",
                  "type": "uint8"
                },
                {
                  "internalType": "uint8",
                  "name": "accuracy",
                  "type": "uint8"
                },
                {
                  "internalType": "uint8",
                  "name": "hull",
                  "type": "uint8"
                },
                {
                  "internalType": "uint8",
                  "name": "speed",
                  "type": "uint8"
                }
              ],
              "internalType": "struct Traits",
              "name": "traits",
              "type": "tuple"
            },
            {
              "components": [
                {
                  "internalType": "uint32",
                  "name": "shipsDestroyed",
                  "type": "uint32"
                },
                {
                  "internalType": "uint16",
                  "name": "costsVersion",
                  "type": "uint16"
                },
                {
                  "internalType": "uint16",
                  "name": "cost",
                  "type": "uint16"
                },
                {
                  "internalType": "bool",
                  "name": "shiny",
                  "type": "bool"
                },
                {
                  "internalType": "bool",
                  "name": "constructed",
                  "type": "bool"
                },
                {
                  "internalType": "bool",
                  "name": "inFleet",
                  "type": "bool"
                },
                {
                  "internalType": "uint256",
                  "name": "timestampDestroyed",
                  "type": "uint256"
                }
              ],
              "internalType": "struct ShipData",
              "name": "shipData",
              "type": "tuple"
            },
            {
              "internalType": "address",
              "name": "owner",
              "type": "address"
            }
          ],
          "internalType": "struct Ship",
          "name": "ship",
          "type": "tuple"
        }
      ],
      "name": "generateSpecificShip",
      "outputs": [
        {
          "components": [
            {
              "internalType": "string",
              "name": "name",
              "type": "string"
            },
            {
              "internalType": "uint256",
              "name": "id",
              "type": "uint256"
            },
            {
              "components": [
                {
                  "internalType": "enum MainWeapon",
                  "name": "mainWeapon",
                  "type": "uint8"
                },
                {
                  "internalType": "enum Armor",
                  "name": "armor",
                  "type": "uint8"
                },
                {
                  "internalType": "enum Shields",
                  "name": "shields",
                  "type": "uint8"
                },
                {
                  "internalType": "enum Special",
                  "name": "special",
                  "type": "uint8"
                }
              ],
              "internalType": "struct Equipment",
              "name": "equipment",
              "type": "tuple"
            },
            {
              "components": [
                {
                  "internalType": "uint256",
                  "name": "serialNumber",
                  "type": "uint256"
                },
                {
                  "components": [
                    {
                      "internalType": "uint16",
                      "name": "h1",
                      "type": "uint16"
                    },
                    {
                      "internalType": "uint8",
                      "name": "s1",
                      "type": "uint8"
                    },
                    {
                      "internalType": "uint8",
                      "name": "l1",
                      "type": "uint8"
                    },
                    {
                      "internalType": "uint16",
                      "name": "h2",
                      "type": "uint16"
                    },
                    {
                      "internalType": "uint8",
                      "name": "s2",
                      "type": "uint8"
                    },
                    {
                      "internalType": "uint8",
                      "name": "l2",
                      "type": "uint8"
                    }
                  ],
                  "internalType": "struct Colors",
                  "name": "colors",
                  "type": "tuple"
                },
                {
                  "internalType": "uint8",
                  "name": "variant",
                  "type": "uint8"
                },
                {
                  "internalType": "uint8",
                  "name": "accuracy",
                  "type": "uint8"
                },
                {
                  "internalType": "uint8",
                  "name": "hull",
                  "type": "uint8"
                },
                {
                  "internalType": "uint8",
                  "name": "speed",
                  "type": "uint8"
                }
              ],
              "internalType": "struct Traits",
              "name": "traits",
              "type": "tuple"
            },
            {
              "components": [
                {
                  "internalType": "uint32",
                  "name": "shipsDestroyed",
                  "type": "uint32"
                },
                {
                  "internalType": "uint16",
                  "name": "costsVersion",
                  "type": "uint16"
                },
                {
                  "internalType": "uint16",
                  "name": "cost",
                  "type": "uint16"
                },
                {
                  "internalType": "bool",
                  "name": "shiny",
                  "type": "bool"
                },
                {
                  "internalType": "bool",
                  "name": "constructed",
                  "type": "bool"
                },
                {
                  "internalType": "bool",
                  "name": "inFleet",
                  "type": "bool"
                },
                {
                  "internalType": "uint256",
                  "name": "timestampDestroyed",
                  "type": "uint256"
                }
              ],
              "internalType": "struct ShipData",
              "name": "shipData",
              "type": "tuple"
            },
            {
              "internalType": "address",
              "name": "owner",
              "type": "address"
            }
          ],
          "internalType": "struct Ship",
          "name": "",
          "type": "tuple"
        }
      ],
      "stateMutability": "pure",
      "type": "function"
    },
    {
      "inputs": [
        {
          "internalType": "uint256",
          "name": "_trait",
          "type": "uint256"
        }
      ],
      "name": "getTierOfTrait",
      "outputs": [
        {
          "internalType": "uint8",
          "name": "",
          "type": "uint8"
        }
      ],
      "stateMutability": "pure",
      "type": "function"
    },
    {
      "inputs": [],
      "name": "shipNames",
      "outputs": [
        {
          "internalType": "contract IOnchainRandomShipNames",
          "name": "",
          "type": "address"
        }
      ],
      "stateMutability": "view",
      "type": "function"
    }
  ],
  "bytecode": "0x60a0604052348015600f57600080fd5b50604051611293380380611293833981016040819052602c91603c565b6001600160a01b0316608052606a565b600060208284031215604d57600080fd5b81516001600160a01b0381168114606357600080fd5b9392505050565b60805161120861008b600039600081816080015261016a01526112086000f3fe608060405234801561001057600080fd5b506004361061004c5760003560e01c80636e0f7a4814610051578063a355a6da1461007b578063df1c0f1d146100ba578063e02f592a146100da575b600080fd5b61006461005f3660046109dc565b6100ed565b60405160ff90911681526020015b60405180910390f35b6100a27f000000000000000000000000000000000000000000000000000000000000000081565b6040516001600160a01b039091168152602001610072565b6100cd6100c8366004610d1e565b61011e565b6040516100729190610fd1565b6100cd6100e8366004611070565b61013c565b6000603282101561010057506000919050565b605082101561011157506001919050565b506002919050565b919050565b6101266108e5565b5060208101929092525060608101516000905290565b6101446108e5565b61014c6108e5565b60208101869052606081015185905283610165816110db565b9450507f00000000000000000000000000000000000000000000000000000000000000006001600160a01b031663549188c6856040516020016101a89190611108565b60408051808303601f1901815290829052805160209091012060e083901b6001600160e01b03191682526004820152602401600060405180830381865afa1580156101f7573d6000803e3d6000fd5b505050506040513d6000823e601f3d908101601f1916820160405261021f9190810190611120565b81528361022b816110db565b945050610168846040516020016102429190611108565b6040516020818303038152906040528051906020012060001c6102659190611197565b60608201516020015161ffff909116905283610280816110db565b9450506064846040516020016102969190611108565b6040516020818303038152906040528051906020012060001c6102b99190611197565b606082015160209081015160ff909216910152836102d6816110db565b9450506064846040516020016102ec9190611108565b6040516020818303038152906040528051906020012060001c61030f9190611197565b60608201516020015160ff9091166040909101528361032d816110db565b945050610168846040516020016103449190611108565b6040516020818303038152906040528051906020012060001c6103679190611197565b6060808301516020015161ffff90921691015283610384816110db565b94505060648460405160200161039a9190611108565b6040516020818303038152906040528051906020012060001c6103bd9190611197565b60608201516020015160ff909116608090910152836103db816110db565b9450506064846040516020016103f19190611108565b6040516020818303038152906040528051906020012060001c6104149190611197565b60608201516020015160ff90911660a09091015283610432816110db565b94505061046e60648560405160200161044b9190611108565b6040516020818303038152906040528051906020012060001c61005f9190611197565b60608083015160ff90921691015283610486816110db565b94505061049f60648560405160200161044b9190611108565b606082015160ff909116608090910152836104b9816110db565b9450506104d260648560405160200161044b9190611108565b606082015160ff90911660a090910152836104ec816110db565b9450508261ffff16846040516020016105059190611108565b6040516020818303038152906040528051906020012060001c6105289190611197565b606082015160ff90911660409091015283610542816110db565b9450506004846040516020016105589190611108565b6040516020818303038152906040528051906020012060001c61057b9190611197565b600381111561058c5761058c610e5b565b60408201519060038111156105a3576105a3610e5b565b908160038111156105b6576105b6610e5b565b905250836105c3816110db565b94505060006002856040516020016105db9190611108565b6040516020818303038152906040528051906020012060001c6105fe9190611197565b1590508461060b816110db565b9550508015610690576004856040516020016106279190611108565b6040516020818303038152906040528051906020012060001c61064a9190611197565b600381111561065b5761065b610e5b565b826040015160200190600381111561067557610675610e5b565b9081600381111561068857610688610e5b565b905250610708565b6004856040516020016106a39190611108565b6040516020818303038152906040528051906020012060001c6106c69190611197565b60038111156106d7576106d7610e5b565b82604001516040019060038111156106f1576106f1610e5b565b9081600381111561070457610704610e5b565b9052505b84610712816110db565b9550506004856040516020016107289190611108565b6040516020818303038152906040528051906020012060001c61074b9190611197565b600381111561075c5761075c610e5b565b826040015160600190600381111561077657610776610e5b565b9081600381111561078957610789610e5b565b8152505060006064866040516020016107a29190611108565b6040516020818303038152906040528051906020012060001c6107c59190611197565b9050600881116107dd57608083015160016060909101525b856107e7816110db565b96505060006064876040516020016107ff9190611108565b6040516020818303038152906040528051906020012060001c6108229190611197565b9050604b81101561085657610838600582611197565b6108439060016111b9565b608085015161ffff9190911690526108d8565b605a8110156108755761086a600582611197565b6108439060066111b9565b605f81101561089457610889602882611197565b61084390600b6111b9565b60638110156108b3576108a8603282611197565b6108439060336111b9565b6108be603282611197565b6108c99060656111b9565b608085015161ffff9190911690525b5091979650505050505050565b6040518060c0016040528060608152602001600081526020016109296040805160808101909152806000815260200160008152602001600081526020016000905290565b81526020016109936040805160c080820183526000808352835191820184528082526020828101829052938201819052606082018190526080820181905260a082015290918201908152600060208201819052604082018190526060820181905260809091015290565b81526040805160e08101825260008082526020828101829052928201819052606082018190526080820181905260a0820181905260c08201529101908152600060209091015290565b6000602082840312156109ee57600080fd5b5035919050565b634e487b7160e01b600052604160045260246000fd5b60405160c0810167ffffffffffffffff81118282101715610a2e57610a2e6109f5565b60405290565b60405160e0810167ffffffffffffffff81118282101715610a2e57610a2e6109f5565b604051601f8201601f1916810167ffffffffffffffff81118282101715610a8057610a806109f5565b604052919050565b600067ffffffffffffffff821115610aa257610aa26109f5565b50601f01601f191660200190565b60048110610abd57600080fd5b50565b600060808284031215610ad257600080fd5b6040516080810167ffffffffffffffff81118282101715610af557610af56109f5565b6040529050808235610b0681610ab0565b81526020830135610b1681610ab0565b60208201526040830135610b2981610ab0565b60408201526060830135610b3c81610ab0565b6060919091015292915050565b803561ffff8116811461011957600080fd5b803560ff8116811461011957600080fd5b6000818303610160811215610b8057600080fd5b610b88610a0b565b83358152915060c0601f1982011215610ba057600080fd5b50610ba9610a0b565b610bb560208401610b49565b8152610bc360408401610b5b565b6020820152610bd460608401610b5b565b6040820152610be560808401610b49565b6060820152610bf660a08401610b5b565b6080820152610c0760c08401610b5b565b60a08201526020820152610c1d60e08301610b5b565b6040820152610c2f6101008301610b5b565b6060820152610c416101208301610b5b565b6080820152610c536101408301610b5b565b60a082015292915050565b8035801515811461011957600080fd5b600060e08284031215610c8057600080fd5b610c88610a34565b9050813563ffffffff81168114610c9e57600080fd5b8152610cac60208301610b49565b6020820152610cbd60408301610b49565b6040820152610cce60608301610c5e565b6060820152610cdf60808301610c5e565b6080820152610cf060a08301610c5e565b60a082015260c09182013591810191909152919050565b80356001600160a01b038116811461011957600080fd5b600080600060608486031215610d3357600080fd5b8335925060208401359150604084013567ffffffffffffffff811115610d5857600080fd5b84016103208187031215610d6b57600080fd5b610d73610a0b565b813567ffffffffffffffff811115610d8a57600080fd5b8201601f81018813610d9b57600080fd5b8035610dae610da982610a88565b610a57565b818152896020838501011115610dc357600080fd5b81602084016020830137600060209282018301528352838101359083015250610def8760408401610ac0565b6040820152610e018760c08401610b6c565b6060820152610e14876102208401610c6e565b6080820152610e266103008301610d07565b60a082015280925050509250925092565b60005b83811015610e52578181015183820152602001610e3a565b50506000910152565b634e487b7160e01b600052602160045260246000fd5b60048110610abd57634e487b7160e01b600052602160045260246000fd5b8051610e9a81610e71565b82526020810151610eaa81610e71565b60208301526040810151610ebd81610e71565b60408301526060810151610ed081610e71565b806060840152505050565b80518252602081015161ffff815116602084015260ff602082015116604084015260ff604082015116606084015261ffff606082015116608084015260ff60808201511660a084015260ff60a08201511660c0840152506040810151610f4660e084018260ff169052565b50606081015160ff9081166101008401526080820151811661012084015260a0909101511661014090910152565b63ffffffff815116825261ffff602082015116602083015261ffff604082015116604083015260608101511515606083015260808101511515608083015260a0810151610fc560a084018215159052565b5060c090810151910152565b60208152600082516103206020840152805180610340850152610ffc81610360860160208501610e37565b602085015160408501526040850151915061101a6060850183610e8f565b6060850151915061102e60e0850183610edb565b60808501519150611043610240850183610f74565b60a08501516001600160a01b0381166103208601529150601f01601f191692909201610360019392505050565b6000806000806080858703121561108657600080fd5b8435935060208501359250604085013567ffffffffffffffff811681146110ac57600080fd5b91506110ba60608601610b49565b905092959194509250565b634e487b7160e01b600052601160045260246000fd5b600067ffffffffffffffff821667ffffffffffffffff81036110ff576110ff6110c5565b60010192915050565b60c09190911b6001600160c01b031916815260080190565b60006020828403121561113257600080fd5b815167ffffffffffffffff81111561114957600080fd5b8201601f8101841361115a57600080fd5b8051611168610da982610a88565b81815285602083850101111561117d57600080fd5b61118e826020830160208601610e37565b95945050505050565b6000826111b457634e487b7160e01b600052601260045260246000fd5b500690565b808201808211156111cc576111cc6110c5565b9291505056fea26469706673582212204cd6ae81d590b1f92402e9e8950b7da16959eb5a3101a6dc87b56c3e91a2e06a64736f6c634300081c0033",
  "linkReferences": {},
  "deployedLinkReferences": {}
}