{
  "_format": "hh-sol-artifact-1",
  "contractName": "Maps",
  "sourceName": "contracts/Maps.sol",
  "abi": [
    {
      "inputs": [],
      "stateMutability": "nonpayable",
      "type": "constructor"
    },
    {
      "inputs": [],
      "name": "InvalidPosition",
      "type": "error"
    },
    {
      "inputs": [],
      "name": "MapNotFound",
      "type": "error"
    },
    {
      "inputs": [],
      "name": "NotGameContract",
      "type": "error"
    },
    {
      "inputs": [
        {
          "internalType": "address",
          "name": "owner",
          "type": "address"
        }
      ],
      "name": "OwnableInvalidOwner",
      "type": "error"
    },
    {
      "inputs": [
        {
          "internalType": "address",
          "name": "account",
          "type": "address"
        }
      ],
      "name": "OwnableUnauthorizedAccount",
      "type": "error"
    },
    {
      "anonymous": false,
      "inputs": [
        {
          "indexed": true,
          "internalType": "address",
          "name": "previousOwner",
          "type": "address"
        },
        {
          "indexed": true,
          "internalType": "address",
          "name": "newOwner",
          "type": "address"
        }
      ],
      "name": "OwnershipTransferred",
      "type": "event"
    },
    {
      "inputs": [],
      "name": "GRID_HEIGHT",
      "outputs": [
        {
          "internalType": "int16",
          "name": "",
          "type": "int16"
        }
      ],
      "stateMutability": "view",
      "type": "function"
    },
    {
      "inputs": [],
      "name": "GRID_WIDTH",
      "outputs": [
        {
          "internalType": "int16",
          "name": "",
          "type": "int16"
        }
      ],
      "stateMutability": "view",
      "type": "function"
    },
    {
      "inputs": [
        {
          "internalType": "uint256",
          "name": "_gameId",
          "type": "uint256"
        },
        {
          "internalType": "uint256",
          "name": "_mapId",
          "type": "uint256"
        }
      ],
      "name": "applyPresetMapToGame",
      "outputs": [],
      "stateMutability": "nonpayable",
      "type": "function"
    },
    {
      "inputs": [
        {
          "internalType": "uint256",
          "name": "_gameId",
          "type": "uint256"
        },
        {
          "internalType": "uint256",
          "name": "_mapId",
          "type": "uint256"
        }
      ],
      "name": "applyPresetScoringMapToGame",
      "outputs": [],
      "stateMutability": "nonpayable",
      "type": "function"
    },
    {
      "inputs": [
        {
          "internalType": "uint256",
          "name": "",
          "type": "uint256"
        },
        {
          "internalType": "int16",
          "name": "",
          "type": "int16"
        },
        {
          "internalType": "int16",
          "name": "",
          "type": "int16"
        }
      ],
      "name": "blockedTiles",
      "outputs": [
        {
          "internalType": "bool",
          "name": "",
          "type": "bool"
        }
      ],
      "stateMutability": "view",
      "type": "function"
    },
    {
      "inputs": [
        {
          "components": [
            {
              "internalType": "int16",
              "name": "row",
              "type": "int16"
            },
            {
              "internalType": "int16",
              "name": "col",
              "type": "int16"
            }
          ],
          "internalType": "struct Position[]",
          "name": "_blockedPositions",
          "type": "tuple[]"
        },
        {
          "components": [
            {
              "internalType": "int16",
              "name": "row",
              "type": "int16"
            },
            {
              "internalType": "int16",
              "name": "col",
              "type": "int16"
            },
            {
              "internalType": "uint8",
              "name": "points",
              "type": "uint8"
            },
            {
              "internalType": "bool",
              "name": "onlyOnce",
              "type": "bool"
            }
          ],
          "internalType": "struct ScoringPosition[]",
          "name": "_scoringPositions",
          "type": "tuple[]"
        }
      ],
      "name": "createPresetMap",
      "outputs": [],
      "stateMutability": "nonpayable",
      "type": "function"
    },
    {
      "inputs": [
        {
          "components": [
            {
              "internalType": "int16",
              "name": "row",
              "type": "int16"
            },
            {
              "internalType": "int16",
              "name": "col",
              "type": "int16"
            }
          ],
          "internalType": "struct Position[]",
          "name": "_blockedPositions",
          "type": "tuple[]"
        }
      ],
      "name": "createPresetMap",
      "outputs": [],
      "stateMutability": "nonpayable",
      "type": "function"
    },
    {
      "inputs": [
        {
          "components": [
            {
              "internalType": "int16",
              "name": "row",
              "type": "int16"
            },
            {
              "internalType": "int16",
              "name": "col",
              "type": "int16"
            },
            {
              "internalType": "uint8",
              "name": "points",
              "type": "uint8"
            },
            {
              "internalType": "bool",
              "name": "onlyOnce",
              "type": "bool"
            }
          ],
          "internalType": "struct ScoringPosition[]",
          "name": "_scoringPositions",
          "type": "tuple[]"
        }
      ],
      "name": "createPresetScoringMap",
      "outputs": [],
      "stateMutability": "nonpayable",
      "type": "function"
    },
    {
      "inputs": [],
      "name": "gameAddress",
      "outputs": [
        {
          "internalType": "address",
          "name": "",
          "type": "address"
        }
      ],
      "stateMutability": "view",
      "type": "function"
    },
    {
      "inputs": [],
      "name": "getAllPresetMapIds",
      "outputs": [
        {
          "internalType": "uint256[]",
          "name": "mapIds",
          "type": "uint256[]"
        }
      ],
      "stateMutability": "view",
      "type": "function"
    },
    {
      "inputs": [],
      "name": "getAllPresetMaps",
      "outputs": [
        {
          "internalType": "uint256[]",
          "name": "mapIds",
          "type": "uint256[]"
        },
        {
          "components": [
            {
              "internalType": "int16",
              "name": "row",
              "type": "int16"
            },
            {
              "internalType": "int16",
              "name": "col",
              "type": "int16"
            }
          ],
          "internalType": "struct Position[][]",
          "name": "blockedPositions",
          "type": "tuple[][]"
        },
        {
          "components": [
            {
              "internalType": "int16",
              "name": "row",
              "type": "int16"
            },
            {
              "internalType": "int16",
              "name": "col",
              "type": "int16"
            },
            {
              "internalType": "uint8",
              "name": "points",
              "type": "uint8"
            },
            {
              "internalType": "bool",
              "name": "onlyOnce",
              "type": "bool"
            }
          ],
          "internalType": "struct ScoringPosition[][]",
          "name": "scoringPositions",
          "type": "tuple[][]"
        }
      ],
      "stateMutability": "view",
      "type": "function"
    },
    {
      "inputs": [
        {
          "internalType": "uint256",
          "name": "_mapId",
          "type": "uint256"
        }
      ],
      "name": "getPresetMap",
      "outputs": [
        {
          "components": [
            {
              "internalType": "int16",
              "name": "row",
              "type": "int16"
            },
            {
              "internalType": "int16",
              "name": "col",
              "type": "int16"
            }
          ],
          "internalType": "struct Position[]",
          "name": "",
          "type": "tuple[]"
        }
      ],
      "stateMutability": "view",
      "type": "function"
    },
    {
      "inputs": [
        {
          "internalType": "uint256",
          "name": "_mapId",
          "type": "uint256"
        }
      ],
      "name": "getPresetScoringMap",
      "outputs": [
        {
          "components": [
            {
              "internalType": "int16",
              "name": "row",
              "type": "int16"
            },
            {
              "internalType": "int16",
              "name": "col",
              "type": "int16"
            },
            {
              "internalType": "uint8",
              "name": "points",
              "type": "uint8"
            },
            {
              "internalType": "bool",
              "name": "onlyOnce",
              "type": "bool"
            }
          ],
          "internalType": "struct ScoringPosition[]",
          "name": "",
          "type": "tuple[]"
        }
      ],
      "stateMutability": "view",
      "type": "function"
    },
    {
      "inputs": [
        {
          "internalType": "uint256",
          "name": "_gameId",
          "type": "uint256"
        },
        {
          "internalType": "int16",
          "name": "_row",
          "type": "int16"
        },
        {
          "internalType": "int16",
          "name": "_col",
          "type": "int16"
        }
      ],
      "name": "getScoreAndZeroOut",
      "outputs": [
        {
          "internalType": "uint8",
          "name": "",
          "type": "uint8"
        }
      ],
      "stateMutability": "nonpayable",
      "type": "function"
    },
    {
      "inputs": [
        {
          "internalType": "uint256",
          "name": "_gameId",
          "type": "uint256"
        },
        {
          "internalType": "int16",
          "name": "_row0",
          "type": "int16"
        },
        {
          "internalType": "int16",
          "name": "_col0",
          "type": "int16"
        },
        {
          "internalType": "int16",
          "name": "_row1",
          "type": "int16"
        },
        {
          "internalType": "int16",
          "name": "_col1",
          "type": "int16"
        }
      ],
      "name": "hasMaps",
      "outputs": [
        {
          "internalType": "bool",
          "name": "",
          "type": "bool"
        }
      ],
      "stateMutability": "view",
      "type": "function"
    },
    {
      "inputs": [
        {
          "internalType": "uint256",
          "name": "_gameId",
          "type": "uint256"
        },
        {
          "internalType": "int16",
          "name": "_row",
          "type": "int16"
        },
        {
          "internalType": "int16",
          "name": "_col",
          "type": "int16"
        }
      ],
      "name": "isTileBlocked",
      "outputs": [
        {
          "internalType": "bool",
          "name": "",
          "type": "bool"
        }
      ],
      "stateMutability": "view",
      "type": "function"
    },
    {
      "inputs": [
        {
          "internalType": "uint256",
          "name": "_gameId",
          "type": "uint256"
        },
        {
          "internalType": "int16",
          "name": "_row",
          "type": "int16"
        },
        {
          "internalType": "int16",
          "name": "_col",
          "type": "int16"
        }
      ],
      "name": "isTileScoring",
      "outputs": [
        {
          "internalType": "uint8",
          "name": "",
          "type": "uint8"
        }
      ],
      "stateMutability": "view",
      "type": "function"
    },
    {
      "inputs": [
        {
          "internalType": "uint256",
          "name": "_gameId",
          "type": "uint256"
        },
        {
          "internalType": "int16",
          "name": "_row",
          "type": "int16"
        },
        {
          "internalType": "int16",
          "name": "_col",
          "type": "int16"
        }
      ],
      "name": "isTileScoringSafe",
      "outputs": [
        {
          "internalType": "uint8",
          "name": "",
          "type": "uint8"
        }
      ],
      "stateMutability": "view",
      "type": "function"
    },
    {
      "inputs": [],
      "name": "mapCount",
      "outputs": [
        {
          "internalType": "uint256",
          "name": "",
          "type": "uint256"
        }
      ],
      "stateMutability": "view",
      "type": "function"
    },
    {
      "inputs": [
        {
          "internalType": "uint256",
          "name": "_mapId",
          "type": "uint256"
        }
      ],
      "name": "mapExists",
      "outputs": [
        {
          "internalType": "bool",
          "name": "",
          "type": "bool"
        }
      ],
      "stateMutability": "view",
      "type": "function"
    },
    {
      "inputs": [
        {
          "internalType": "uint256",
          "name": "",
          "type": "uint256"
        },
        {
          "internalType": "int16",
          "name": "",
          "type": "int16"
        },
        {
          "internalType": "int16",
          "name": "",
          "type": "int16"
        }
      ],
      "name": "onlyOnceTiles",
      "outputs": [
        {
          "internalType": "bool",
          "name": "",
          "type": "bool"
        }
      ],
      "stateMutability": "view",
      "type": "function"
    },
    {
      "inputs": [],
      "name": "owner",
      "outputs": [
        {
          "internalType": "address",
          "name": "",
          "type": "address"
        }
      ],
      "stateMutability": "view",
      "type": "function"
    },
    {
      "inputs": [
        {
          "internalType": "uint256",
          "name": "",
          "type": "uint256"
        },
        {
          "internalType": "int16",
          "name": "",
          "type": "int16"
        },
        {
          "internalType": "int16",
          "name": "",
          "type": "int16"
        }
      ],
      "name": "presetBlockedMaps",
      "outputs": [
        {
          "internalType": "bool",
          "name": "",
          "type": "bool"
        }
      ],
      "stateMutability": "view",
      "type": "function"
    },
    {
      "inputs": [
        {
          "internalType": "uint256",
          "name": "",
          "type": "uint256"
        },
        {
          "internalType": "int16",
          "name": "",
          "type": "int16"
        },
        {
          "internalType": "int16",
          "name": "",
          "type": "int16"
        }
      ],
      "name": "presetOnlyOnceMaps",
      "outputs": [
        {
          "internalType": "bool",
          "name": "",
          "type": "bool"
        }
      ],
      "stateMutability": "view",
      "type": "function"
    },
    {
      "inputs": [
        {
          "internalType": "uint256",
          "name": "",
          "type": "uint256"
        },
        {
          "internalType": "int16",
          "name": "",
          "type": "int16"
        },
        {
          "internalType": "int16",
          "name": "",
          "type": "int16"
        }
      ],
      "name": "presetScoringMaps",
      "outputs": [
        {
          "internalType": "uint8",
          "name": "",
          "type": "uint8"
        }
      ],
      "stateMutability": "view",
      "type": "function"
    },
    {
      "inputs": [],
      "name": "renounceOwnership",
      "outputs": [],
      "stateMutability": "nonpayable",
      "type": "function"
    },
    {
      "inputs": [
        {
          "internalType": "uint256",
          "name": "",
          "type": "uint256"
        },
        {
          "internalType": "int16",
          "name": "",
          "type": "int16"
        },
        {
          "internalType": "int16",
          "name": "",
          "type": "int16"
        }
      ],
      "name": "scoringTiles",
      "outputs": [
        {
          "internalType": "uint8",
          "name": "",
          "type": "uint8"
        }
      ],
      "stateMutability": "view",
      "type": "function"
    },
    {
      "inputs": [
        {
          "internalType": "uint256",
          "name": "_gameId",
          "type": "uint256"
        },
        {
          "internalType": "int16",
          "name": "_row",
          "type": "int16"
        },
        {
          "internalType": "int16",
          "name": "_col",
          "type": "int16"
        },
        {
          "internalType": "bool",
          "name": "_blocked",
          "type": "bool"
        }
      ],
      "name": "setBlockedTile",
      "outputs": [],
      "stateMutability": "nonpayable",
      "type": "function"
    },
    {
      "inputs": [
        {
          "internalType": "address",
          "name": "_gameAddress",
          "type": "address"
        }
      ],
      "name": "setGameAddress",
      "outputs": [],
      "stateMutability": "nonpayable",
      "type": "function"
    },
    {
      "inputs": [
        {
          "internalType": "uint256",
          "name": "_gameId",
          "type": "uint256"
        },
        {
          "internalType": "int16",
          "name": "_row",
          "type": "int16"
        },
        {
          "internalType": "int16",
          "name": "_col",
          "type": "int16"
        },
        {
          "internalType": "uint8",
          "name": "_points",
          "type": "uint8"
        }
      ],
      "name": "setScoringTile",
      "outputs": [],
      "stateMutability": "nonpayable",
      "type": "function"
    },
    {
      "inputs": [
        {
          "internalType": "address",
          "name": "newOwner",
          "type": "address"
        }
      ],
      "name": "transferOwnership",
      "outputs": [],
      "stateMutability": "nonpayable",
      "type": "function"
    },
    {
      "inputs": [
        {
          "internalType": "uint256",
          "name": "_mapId",
          "type": "uint256"
        },
        {
          "components": [
            {
              "internalType": "int16",
              "name": "row",
              "type": "int16"
            },
            {
              "internalType": "int16",
              "name": "col",
              "type": "int16"
            }
          ],
          "internalType": "struct Position[]",
          "name": "_blockedPositions",
          "type": "tuple[]"
        }
      ],
      "name": "updatePresetMap",
      "outputs": [],
      "stateMutability": "nonpayable",
      "type": "function"
    },
    {
      "inputs": [
        {
          "internalType": "uint256",
          "name": "_mapId",
          "type": "uint256"
        },
        {
          "components": [
            {
              "internalType": "int16",
              "name": "row",
              "type": "int16"
            },
            {
              "internalType": "int16",
              "name": "col",
              "type": "int16"
            }
          ],
          "internalType": "struct Position[]",
          "name": "_blockedPositions",
          "type": "tuple[]"
        },
        {
          "components": [
            {
              "internalType": "int16",
              "name": "row",
              "type": "int16"
            },
            {
              "internalType": "int16",
              "name": "col",
              "type": "int16"
            },
            {
              "internalType": "uint8",
              "name": "points",
              "type": "uint8"
            },
            {
              "internalType": "bool",
              "name": "onlyOnce",
              "type": "bool"
            }
          ],
          "internalType": "struct ScoringPosition[]",
          "name": "_scoringPositions",
          "type": "tuple[]"
        }
      ],
      "name": "updatePresetMap",
      "outputs": [],
      "stateMutability": "nonpayable",
      "type": "function"
    },
    {
      "inputs": [
        {
          "internalType": "uint256",
          "name": "_mapId",
          "type": "uint256"
        },
        {
          "components": [
            {
              "internalType": "int16",
              "name": "row",
              "type": "int16"
            },
            {
              "internalType": "int16",
              "name": "col",
              "type": "int16"
            },
            {
              "internalType": "uint8",
              "name": "points",
              "type": "uint8"
            },
            {
              "internalType": "bool",
              "name": "onlyOnce",
              "type": "bool"
            }
          ],
          "internalType": "struct ScoringPosition[]",
          "name": "_scoringPositions",
          "type": "tuple[]"
        }
      ],
      "name": "updatePresetScoringMap",
      "outputs": [],
      "stateMutability": "nonpayable",
      "type": "function"
    }
  ],
  "bytecode": "0x6080604052348015600f57600080fd5b503380603557604051631e4fbdf760e01b81526000600482015260240160405180910390fd5b603c816041565b506091565b600080546001600160a01b038381166001600160a01b0319831681178455604051919092169283917f8be0079c531659141344cd1fd0a4f28419497f9722a3daafe3b4186f6b6457e09190a35050565b612d2b806100a06000396000f3fe608060405234801561001057600080fd5b50600436106102065760003560e01c80638da5cb5b1161011a578063d4a4affa116100ad578063f2fde38b1161007c578063f2fde38b14610517578063f342d0021461052a578063f5ea3dc91461055e578063fae435b414610575578063fd844b6e1461059557600080fd5b8063d4a4affa146104cb578063dc32d63b146104de578063dd91835e146104f1578063edc6e5551461050457600080fd5b8063c95eeaad116100e9578063c95eeaad14610430578063c996553714610464578063ccc0e35214610498578063ce4693f8146104ab57600080fd5b80638da5cb5b146103ce57806396c95ece146103f3578063a168d8731461040a578063a2ec85bc1461041d57600080fd5b8063574068561161019d578063709faade1161016c578063709faade1461037a578063711953ef1461038d578063715018a6146103a05780638383c995146103a857806386e8a1a0146103bb57600080fd5b8063574068561461030d5780635a1114e31461032057806363228ab7146103335780636858bd401461036757600080fd5b80633bf0684b116101d95780633bf0684b146102c85780633fa0bb06146102dd57806341779f5b146102f05780634bf11ad21461030557600080fd5b8063046e8d0b1461020b5780630a312b8814610254578063235e78eb14610288578063349370d0146102a3575b600080fd5b61023f610219366004612410565b600160209081526000938452604080852082529284528284209052825290205460ff1681565b60405190151581526020015b60405180910390f35b61023f610262366004612410565b600560209081526000938452604080852082529284528284209052825290205460ff1681565b610290603c81565b60405160019190910b815260200161024b565b6102b66102b1366004612410565b6105a8565b60405160ff909116815260200161024b565b6102db6102d636600461244c565b610639565b005b6102db6102eb366004612710565b6107c7565b6102f86107dd565b60405161024b91906127b3565b610290602881565b6102db61031b3660046127c6565b610870565b61023f61032e366004612834565b610a63565b6102b6610341366004612410565b600360209081526000938452604080852082529284528284209052825290205460ff1681565b61023f610375366004612410565b610a7c565b6102db61038836600461284d565b610afd565b6102db61039b36600461289a565b610b94565b6102db610bbe565b61023f6103b63660046128c3565b610bd2565b6102db6103c9366004612921565b610cc5565b6000546001600160a01b03165b6040516001600160a01b03909116815260200161024b565b6103fb610e33565b60405161024b939291906129e3565b6008546103db906001600160a01b031681565b6102b661042b366004612410565b610fcc565b61023f61043e366004612410565b600660209081526000938452604080852082529284528284209052825290205460ff1681565b61023f610472366004612410565b600260209081526000938452604080852082529284528284209052825290205460ff1681565b6102db6104a6366004612ab6565b61103d565b6104be6104b9366004612834565b61108f565b60405161024b9190612af2565b6102db6104d9366004612921565b611247565b6102b66104ec366004612410565b611425565b6102db6104ff366004612b05565b611479565b6102db610512366004612b39565b6114d7565b6102db61052536600461289a565b61156b565b6102b6610538366004612410565b600460209081526000938452604080852082529284528284209052825290205460ff1681565b61056760075481565b60405190815260200161024b565b610588610583366004612834565b6115ab565b60405161024b9190612b7b565b6102db6105a3366004612b8e565b6117b9565b6000838152600360209081526040808320600186810b8086529184528285209086900b808652908452828520548886526005855283862092865291845282852090855290925282205460ff91821691161561062f576000858152600360209081526040808320600188810b85529083528184209087900b84529091529020805460ff191690555b90505b9392505050565b610641611aee565b82158061064f575060075483115b1561066d57604051639ff5bfb960e01b815260040160405180910390fd5b600061067884611b1b565b905060005b81518110156106e657600082828151811061069a5761069a612bfe565b60209081029190910181015160008881526002835260408082208351600190810b845290855281832093850151810b83529290935291909120805460ff1916905591909101905061067d565b5060005b828110156107c057600084848381811061070657610706612bfe565b90506040020180360381019061071c9190612c14565b90506000816000015160010b128061073c57508051602860019190910b12155b8061074e57506000816020015160010b125b806107645750603c60010b816020015160010b12155b156107825760405163673f032f60e11b815260040160405180910390fd5b60008681526002602090815260408083208451600190810b855290835281842094830151810b8452939091529020805460ff191682179055016106ea565b5050505050565b6107cf611aee565b6107d98282611cc9565b5050565b600754606090806001600160401b038111156107fb576107fb6124cb565b604051908082528060200260200182016040528015610824578160200160208202803683370190505b50915060015b81811161086b57808361083e600183612c46565b8151811061084e5761084e612bfe565b60209081029190910101528061086381612c59565b91505061082a565b505090565b610878611aee565b821580610886575060075483115b156108a457604051639ff5bfb960e01b815260040160405180910390fd5b60006108af84611ec6565b905060005b81518110156109475760008282815181106108d1576108d1612bfe565b60209081029190910181015160008881526004835260408082208351600190810b84529085528183208486018051830b8552908652828420805460ff199081169091558c8552600687528385209551830b85529486528284209051820b84529094529020805490911690559190910190506108b4565b5060005b828110156107c057600084848381811061096757610967612bfe565b90506080020180360381019061097d9190612c72565b90506000816000015160010b128061099d57508051602860019190910b12155b806109af57506000816020015160010b125b806109c55750603c60010b816020015160010b12155b156109e35760405163673f032f60e11b815260040160405180910390fd5b6040808201516000888152600460209081528382208551600190810b84529082528483208287018051830b8552908352858420805460ff90961660ff1996871617905560608701518c8552600684528685209751830b85529683528584209051820b8452909152929020805493151593909116929092179091550161094b565b60008082118015610a7657506007548211155b92915050565b6000808360010b1280610a9457506028600184900b12155b80610aa2575060008260010b125b80610ab25750603c600183900b12155b15610ad05760405163673f032f60e11b815260040160405180910390fd5b50600092835260016020818152604080862094830b86529381528385209290910b84525290205460ff1690565b610b05611aee565b60008360010b1280610b1c57506028600184900b12155b80610b2a575060008260010b125b80610b3a5750603c600183900b12155b15610b585760405163673f032f60e11b815260040160405180910390fd5b6000938452600360209081526040808620600195860b875282528086209390940b8552919091529120805460ff191660ff909216919091179055565b610b9c611aee565b600880546001600160a01b0319166001600160a01b0392909216919091179055565b610bc6611aee565b610bd060006120d4565b565b6000808560010b1280610bea57506028600186900b12155b80610bf8575060008460010b125b80610c085750603c600185900b12155b80610c16575060008360010b125b80610c2657506028600184900b12155b80610c34575060008260010b125b80610c445750603c600183900b12155b15610c625760405163673f032f60e11b815260040160405180910390fd5b610c6d868686612124565b15610c7a57506000610cbc565b8260010b8560010b148015610c9457508160010b8460010b145b15610cac57610ca4868484612124565b159050610cbc565b610cb98686868686612167565b90505b95945050505050565b6008546001600160a01b03163314801590610ceb57506000546001600160a01b03163314155b15610d0957604051636aff438160e11b815260040160405180910390fd5b801580610d17575060075481115b15610d3557604051639ff5bfb960e01b815260040160405180910390fd5b6000610d4082611ec6565b905060005b8151811015610e2d576000828281518110610d6257610d62612bfe565b60209081029190910181015160008681526004835260408082208351600190810b84529085528183208486018051830b8552908652828420548b8552600387528385208651840b865287528385208251840b86528752838520805460ff1990811660ff938416179091558b8652600688528486208751850b875288528486208351850b87528852848620548d8752600589528587209751850b87529688528486209251840b865291909652919092208054939094161515921691909117909155919091019050610d45565b50505050565b606080606060006007549050806001600160401b03811115610e5757610e576124cb565b604051908082528060200260200182016040528015610e80578160200160208202803683370190505b509350806001600160401b03811115610e9b57610e9b6124cb565b604051908082528060200260200182016040528015610ece57816020015b6060815260200190600190039081610eb95790505b509250806001600160401b03811115610ee957610ee96124cb565b604051908082528060200260200182016040528015610f1c57816020015b6060815260200190600190039081610f075790505b50915060015b818111610fc5578085610f36600183612c46565b81518110610f4657610f46612bfe565b602002602001018181525050610f5b81611b1b565b84610f67600184612c46565b81518110610f7757610f77612bfe565b6020026020010181905250610f8b81611ec6565b83610f97600184612c46565b81518110610fa757610fa7612bfe565b60200260200101819052508080610fbd90612c59565b915050610f22565b5050909192565b6000808360010b1280610fe457506028600184900b12155b80610ff2575060008260010b125b806110025750603c600183900b12155b1561100f57506000610632565b506000928352600360209081526040808520600194850b865282528085209290930b84525290205460ff1690565b611045611aee565b6040805160008082526020820190925261108c91611085565b604080518082019091526000808252602082015281526020019060019003908161105e5790505b5082611cc9565b50565b606081158061109f575060075482115b156110bd57604051639ff5bfb960e01b815260040160405180910390fd5b6000805b6028600182900b121561112f5760005b603c600182900b1215611126576000858152600260209081526040808320600186810b85529083528184209085900b845290915290205460ff161561111e578261111a81612c59565b9350505b6001016110d1565b506001016110c1565b506000816001600160401b0381111561114a5761114a6124cb565b60405190808252806020026020018201604052801561118f57816020015b60408051808201909152600080825260208201528152602001906001900390816111685790505b5090506000805b6028600182900b121561123d5760005b603c600182900b1215611234576000878152600260209081526040808320600186810b85529083528184209085900b845290915290205460ff161561122c5760405180604001604052808360010b81526020018260010b81525084848151811061121257611212612bfe565b6020026020010181905250828061122890612c59565b9350505b6001016111a6565b50600101611196565b5090949350505050565b6008546001600160a01b0316331480159061126d57506000546001600160a01b03163314155b1561128b57604051636aff438160e11b815260040160405180910390fd5b801580611299575060075481115b156112b757604051639ff5bfb960e01b815260040160405180910390fd5b60006112c282611b1b565b905060005b815181101561132c5760008282815181106112e4576112e4612bfe565b6020908102919091018101516000878152600180845260408083208451830b8452855280832093850151820b83529290935220805460ff1916821790559190910190506112c7565b50600061133883611ec6565b905060005b81518110156107c057600082828151811061135a5761135a612bfe565b60209081029190910181015160008781526004835260408082208351600190810b84529085528183208486018051830b8552908652828420548c8552600387528385208651840b865287528385208251840b86528752838520805460ff1990811660ff938416179091558c8652600688528486208751850b875288528486208351850b87528852848620548e8752600589528587209751850b87529688528486209251840b86529190965291909220805493909416151592169190911790915591909101905061133d565b6000808360010b128061143d57506028600184900b12155b8061144b575060008260010b125b8061145b5750603c600183900b12155b1561100f5760405163673f032f60e11b815260040160405180910390fd5b611481611aee565b6040805160008082526020820190925261108c918391906114d1565b60408051608081018252600080825260208083018290529282018190526060820152825260001990920191018161149d5790505b50611cc9565b6114df611aee565b60008360010b12806114f657506028600184900b12155b80611504575060008260010b125b806115145750603c600183900b12155b156115325760405163673f032f60e11b815260040160405180910390fd5b600093845260016020818152604080872095830b87529481528486209390910b8552919091529120805460ff1916911515919091179055565b611573611aee565b6001600160a01b0381166115a257604051631e4fbdf760e01b8152600060048201526024015b60405180910390fd5b61108c816120d4565b60608115806115bb575060075482115b156115d957604051639ff5bfb960e01b815260040160405180910390fd5b6000805b6028600182900b121561164b5760005b603c600182900b1215611642576000858152600460209081526040808320600186810b85529083528184209085900b845290915290205460ff161561163a578261163681612c59565b9350505b6001016115ed565b506001016115dd565b506000816001600160401b03811115611666576116666124cb565b6040519080825280602002602001820160405280156116b857816020015b6040805160808101825260008082526020808301829052928201819052606082015282526000199092019101816116845790505b5090506000805b6028600182900b121561123d5760005b603c600182900b12156117b0576000878152600460209081526040808320600186810b85529083528184209085900b845290915290205460ff16156117a85760408051608081018252600184810b8083529084900b602080840182905260008c815260048252858120848252825285812083825282528581205460ff908116868801528d825260068352868220948252938252858120928152919052929092205490911615156060820152845185908590811061178e5761178e612bfe565b602002602001018190525082806117a490612c59565b9350505b6001016116cf565b506001016116bf565b6117c1611aee565b8215806117cf575060075483115b156117ed57604051639ff5bfb960e01b815260040160405180910390fd5b60006117f884611b1b565b905060005b815181101561186657600082828151811061181a5761181a612bfe565b60209081029190910181015160008881526002835260408082208351600190810b845290855281832093850151810b83529290935291909120805460ff191690559190910190506117fd565b50600061187285611ec6565b905060005b815181101561190a57600082828151811061189457611894612bfe565b60209081029190910181015160008981526004835260408082208351600190810b84529085528183208486018051830b8552908652828420805460ff199081169091558d8552600687528385209551830b85529486528284209051820b8452909452902080549091169055919091019050611877565b5060005b84518110156119d757600085828151811061192b5761192b612bfe565b602002602001015190506000816000015160010b128061195357508051602860019190910b12155b8061196557506000816020015160010b125b8061197b5750603c60010b816020015160010b12155b156119995760405163673f032f60e11b815260040160405180910390fd5b60008781526002602090815260408083208451600190810b855290835281842094830151810b8452939091529020805460ff1916821790550161190e565b5060005b8351811015611ae65760008482815181106119f8576119f8612bfe565b602002602001015190506000816000015160010b1280611a2057508051602860019190910b12155b80611a3257506000816020015160010b125b80611a485750603c60010b816020015160010b12155b15611a665760405163673f032f60e11b815260040160405180910390fd5b6040808201516000898152600460209081528382208551600190810b84529082528483208287018051830b8552908352858420805460ff90961660ff1996871617905560608701518d8552600684528685209751830b85529683528584209051820b845290915292902080549315159390911692909217909155016119db565b505050505050565b6000546001600160a01b03163314610bd05760405163118cdaa760e01b8152336004820152602401611599565b6060811580611b2b575060075482115b15611b4957604051639ff5bfb960e01b815260040160405180910390fd5b6000805b6028600182900b1215611bbb5760005b603c600182900b1215611bb2576000858152600260209081526040808320600186810b85529083528184209085900b845290915290205460ff1615611baa5782611ba681612c59565b9350505b600101611b5d565b50600101611b4d565b506000816001600160401b03811115611bd657611bd66124cb565b604051908082528060200260200182016040528015611c1b57816020015b6040805180820190915260008082526020820152815260200190600190039081611bf45790505b5090506000805b6028600182900b121561123d5760005b603c600182900b1215611cc0576000878152600260209081526040808320600186810b85529083528184209085900b845290915290205460ff1615611cb85760405180604001604052808360010b81526020018260010b815250848481518110611c9e57611c9e612bfe565b60200260200101819052508280611cb490612c59565b9350505b600101611c32565b50600101611c22565b60078054906000611cd983612c59565b919050555060005b8251811015611dad576000838281518110611cfe57611cfe612bfe565b602002602001015190506000816000015160010b1280611d2657508051602860019190910b12155b80611d3857506000816020015160010b125b80611d4e5750603c60010b816020015160010b12155b15611d6c5760405163673f032f60e11b815260040160405180910390fd5b60075460009081526002602090815260408083208451600190810b855290835281842094830151810b8452939091529020805460ff19168217905501611ce1565b5060005b8151811015611ec1576000828281518110611dce57611dce612bfe565b602002602001015190506000816000015160010b1280611df657508051602860019190910b12155b80611e0857506000816020015160010b125b80611e1e5750603c60010b816020015160010b12155b15611e3c5760405163673f032f60e11b815260040160405180910390fd5b604080820151600780546000908152600460209081528482208651600190810b84529082528583208288018051830b8552908352868420805460ff90971660ff19978816179055606088015194548452600683528684209751820b84529682528583209651810b83529590529290922080549215159290911691909117905501611db1565b505050565b6060811580611ed6575060075482115b15611ef457604051639ff5bfb960e01b815260040160405180910390fd5b6000805b6028600182900b1215611f665760005b603c600182900b1215611f5d576000858152600460209081526040808320600186810b85529083528184209085900b845290915290205460ff1615611f555782611f5181612c59565b9350505b600101611f08565b50600101611ef8565b506000816001600160401b03811115611f8157611f816124cb565b604051908082528060200260200182016040528015611fd357816020015b604080516080810182526000808252602080830182905292820181905260608201528252600019909201910181611f9f5790505b5090506000805b6028600182900b121561123d5760005b603c600182900b12156120cb576000878152600460209081526040808320600186810b85529083528184209085900b845290915290205460ff16156120c35760408051608081018252600184810b8083529084900b602080840182905260008c815260048252858120848252825285812083825282528581205460ff908116868801528d82526006835286822094825293825285812092815291905292909220549091161515606082015284518590859081106120a9576120a9612bfe565b602002602001018190525082806120bf90612c59565b9350505b600101611fea565b50600101611fda565b600080546001600160a01b038381166001600160a01b0319831681178455604051919092169283917f8be0079c531659141344cd1fd0a4f28419497f9722a3daafe3b4186f6b6457e09190a35050565b6000808360010b128061213c57506028600184900b12155b8061214a575060008260010b125b8061215a5750603c600183900b12155b15610ad057506001610632565b6000808560010b8460010b13612186576121818487612c8e565b612190565b6121908685612c8e565b905060008560010b8460010b136121b0576121ab8487612c8e565b6121ba565b6121ba8685612c8e565b905060008760010b8660010b136121e7578760010b8660010b126121df5760006121ea565b6000196121ea565b60015b905060008760010b8660010b13612217578760010b8660010b1261220f57600061221a565b60001961221a565b60015b905060006122288585612c8e565b905089895b8960010b8260010b14801561224757508860010b8160010b145b15612266576122578d8383612124565b15975050505050505050610cbc565b600183810b811b9081900b6000036123365761228c8e846122878886612cb1565b612124565b80156122a757506122a78e6122a18886612cb1565b84612124565b156122bd57600098505050505050505050610cbc565b6122c78583612cb1565b91506122d38885612c8e565b93506122df8684612cb1565b92506122eb8785612cb1565b93508a60010b8360010b14158061230857508960010b8260010b14155b801561231a575061231a8e8484612124565b1561233057600098505050505050505050610cbc565b5061222d565b61233f88612cd4565b60010b8160010b13156123a7576123568885612c8e565b93506123628583612cb1565b91508a60010b8360010b14158061237f57508960010b8260010b14155b801561239157506123918e8484612124565b156123a757600098505050505050505050610cbc565b8660010b8160010b1215612330576123bf8785612cb1565b93506123cb8684612cb1565b92508a60010b8360010b14158061230857508960010b8260010b1415801561231a575061231a8e8484612124565b8035600181900b811461240b57600080fd5b919050565b60008060006060848603121561242557600080fd5b83359250612435602085016123f9565b9150612443604085016123f9565b90509250925092565b60008060006040848603121561246157600080fd5b8335925060208401356001600160401b0381111561247e57600080fd5b8401601f8101861361248f57600080fd5b80356001600160401b038111156124a557600080fd5b8660208260061b84010111156124ba57600080fd5b939660209190910195509293505050565b634e487b7160e01b600052604160045260246000fd5b604051601f8201601f191681016001600160401b0381118282101715612509576125096124cb565b604052919050565b60006001600160401b0382111561252a5761252a6124cb565b5060051b60200190565b60006040828403121561254657600080fd5b604080519081016001600160401b0381118282101715612568576125686124cb565b604052905080612577836123f9565b8152612585602084016123f9565b60208201525092915050565b600082601f8301126125a257600080fd5b81356125b56125b082612511565b6124e1565b8082825260208201915060208360061b8601019250858311156125d757600080fd5b602085015b838110156125fe576125ee8782612534565b83526020909201916040016125dc565b5095945050505050565b803560ff8116811461240b57600080fd5b8035801515811461240b57600080fd5b60006080828403121561263b57600080fd5b604051608081016001600160401b038111828210171561265d5761265d6124cb565b60405290508061266c836123f9565b815261267a602084016123f9565b602082015261268b60408401612608565b604082015261269c60608401612619565b60608201525092915050565b600082601f8301126126b957600080fd5b81356126c76125b082612511565b8082825260208201915060208360071b8601019250858311156126e957600080fd5b602085015b838110156125fe576127008782612629565b83526020909201916080016126ee565b6000806040838503121561272357600080fd5b82356001600160401b0381111561273957600080fd5b61274585828601612591565b92505060208301356001600160401b0381111561276157600080fd5b61276d858286016126a8565b9150509250929050565b600081518084526020840193506020830160005b828110156127a957815186526020958601959091019060010161278b565b5093949350505050565b6020815260006106326020830184612777565b6000806000604084860312156127db57600080fd5b8335925060208401356001600160401b038111156127f857600080fd5b8401601f8101861361280957600080fd5b80356001600160401b0381111561281f57600080fd5b8660208260071b84010111156124ba57600080fd5b60006020828403121561284657600080fd5b5035919050565b6000806000806080858703121561286357600080fd5b84359350612873602086016123f9565b9250612881604086016123f9565b915061288f60608601612608565b905092959194509250565b6000602082840312156128ac57600080fd5b81356001600160a01b038116811461063257600080fd5b600080600080600060a086880312156128db57600080fd5b853594506128eb602087016123f9565b93506128f9604087016123f9565b9250612907606087016123f9565b9150612915608087016123f9565b90509295509295909350565b6000806040838503121561293457600080fd5b50508035926020909101359150565b600081518084526020840193506020830160005b828110156127a95781518051600190810b8852602091820151810b8289015260409097019692019101612957565b600081518084526020840193506020830160005b828110156127a95781518051600190810b8852602080830151820b818a015260408084015160ff16908a015260609283015115159289019290925260809097019692019101612999565b6060815260006129f66060830186612777565b828103602084015280855180835260208301915060208160051b8401016020880160005b83811015612a4c57601f19868403018552612a36838351612943565b6020958601959093509190910190600101612a1a565b50508581036040870152865180825260208083019550909350600584901b820181019250870160005b84811015612aa757601f19838503018652612a91848351612985565b6020968701969094509190910190600101612a75565b50919998505050505050505050565b600060208284031215612ac857600080fd5b81356001600160401b03811115612ade57600080fd5b612aea848285016126a8565b949350505050565b6020815260006106326020830184612943565b600060208284031215612b1757600080fd5b81356001600160401b03811115612b2d57600080fd5b612aea84828501612591565b60008060008060808587031215612b4f57600080fd5b84359350612b5f602086016123f9565b9250612b6d604086016123f9565b915061288f60608601612619565b6020815260006106326020830184612985565b600080600060608486031215612ba357600080fd5b8335925060208401356001600160401b03811115612bc057600080fd5b612bcc86828701612591565b92505060408401356001600160401b03811115612be857600080fd5b612bf4868287016126a8565b9150509250925092565b634e487b7160e01b600052603260045260246000fd5b600060408284031215612c2657600080fd5b6106328383612534565b634e487b7160e01b600052601160045260246000fd5b81810381811115610a7657610a76612c30565b600060018201612c6b57612c6b612c30565b5060010190565b600060808284031215612c8457600080fd5b6106328383612629565b600182810b9082900b03617fff198112617fff82131715610a7657610a76612c30565b600181810b9083900b01617fff8113617fff1982121715610a7657610a76612c30565b60008160010b617fff198103612cec57612cec612c30565b6000039291505056fea2646970667358221220c00eaa0c43960d3935dbd20e28420e2a25b969a7eb58e27bc8895ab564137a7d64736f6c634300081c0033",
  "linkReferences": {},
  "deployedLinkReferences": {}
}