{
  "_format": "hh-sol-artifact-1",
  "contractName": "UniversalCredits",
  "sourceName": "contracts/UniversalCredits.sol",
  "abi": [
    {
      "inputs": [],
      "stateMutability": "nonpayable",
      "type": "constructor"
    },
    {
      "inputs": [
        {
          "internalType": "address",
          "name": "spender",
          "type": "address"
        },
        {
          "internalType": "uint256",
          "name": "allowance",
          "type": "uint256"
        },
        {
          "internalType": "uint256",
          "name": "needed",
          "type": "uint256"
        }
      ],
      "name": "ERC20InsufficientAllowance",
      "type": "error"
    },
    {
      "inputs": [
        {
          "internalType": "address",
          "name": "sender",
          "type": "address"
        },
        {
          "internalType": "uint256",
          "name": "balance",
          "type": "uint256"
        },
        {
          "internalType": "uint256",
          "name": "needed",
          "type": "uint256"
        }
      ],
      "name": "ERC20InsufficientBalance",
      "type": "error"
    },
    {
      "inputs": [
        {
          "internalType": "address",
          "name": "approver",
          "type": "address"
        }
      ],
      "name": "ERC20InvalidApprover",
      "type": "error"
    },
    {
      "inputs": [
        {
          "internalType": "address",
          "name": "receiver",
          "type": "address"
        }
      ],
      "name": "ERC20InvalidReceiver",
      "type": "error"
    },
    {
      "inputs": [
        {
          "internalType": "address",
          "name": "sender",
          "type": "address"
        }
      ],
      "name": "ERC20InvalidSender",
      "type": "error"
    },
    {
      "inputs": [
        {
          "internalType": "address",
          "name": "spender",
          "type": "address"
        }
      ],
      "name": "ERC20InvalidSpender",
      "type": "error"
    },
    {
      "inputs": [],
      "name": "MintNotActive",
      "type": "error"
    },
    {
      "inputs": [
        {
          "internalType": "address",
          "name": "",
          "type": "address"
        }
      ],
      "name": "NotAuthorized",
      "type": "error"
    },
    {
      "inputs": [
        {
          "internalType": "address",
          "name": "owner",
          "type": "address"
        }
      ],
      "name": "OwnableInvalidOwner",
      "type": "error"
    },
    {
      "inputs": [
        {
          "internalType": "address",
          "name": "account",
          "type": "address"
        }
      ],
      "name": "OwnableUnauthorizedAccount",
      "type": "error"
    },
    {
      "anonymous": false,
      "inputs": [
        {
          "indexed": true,
          "internalType": "address",
          "name": "owner",
          "type": "address"
        },
        {
          "indexed": true,
          "internalType": "address",
          "name": "spender",
          "type": "address"
        },
        {
          "indexed": false,
          "internalType": "uint256",
          "name": "value",
          "type": "uint256"
        }
      ],
      "name": "Approval",
      "type": "event"
    },
    {
      "anonymous": false,
      "inputs": [
        {
          "indexed": true,
          "internalType": "address",
          "name": "previousOwner",
          "type": "address"
        },
        {
          "indexed": true,
          "internalType": "address",
          "name": "newOwner",
          "type": "address"
        }
      ],
      "name": "OwnershipTransferred",
      "type": "event"
    },
    {
      "anonymous": false,
      "inputs": [
        {
          "indexed": true,
          "internalType": "address",
          "name": "from",
          "type": "address"
        },
        {
          "indexed": true,
          "internalType": "address",
          "name": "to",
          "type": "address"
        },
        {
          "indexed": false,
          "internalType": "uint256",
          "name": "value",
          "type": "uint256"
        }
      ],
      "name": "Transfer",
      "type": "event"
    },
    {
      "inputs": [
        {
          "internalType": "address",
          "name": "owner",
          "type": "address"
        },
        {
          "internalType": "address",
          "name": "spender",
          "type": "address"
        }
      ],
      "name": "allowance",
      "outputs": [
        {
          "internalType": "uint256",
          "name": "",
          "type": "uint256"
        }
      ],
      "stateMutability": "view",
      "type": "function"
    },
    {
      "inputs": [
        {
          "internalType": "address",
          "name": "spender",
          "type": "address"
        },
        {
          "internalType": "uint256",
          "name": "value",
          "type": "uint256"
        }
      ],
      "name": "approve",
      "outputs": [
        {
          "internalType": "bool",
          "name": "",
          "type": "bool"
        }
      ],
      "stateMutability": "nonpayable",
      "type": "function"
    },
    {
      "inputs": [
        {
          "internalType": "address",
          "name": "",
          "type": "address"
        }
      ],
      "name": "authorizedToMint",
      "outputs": [
        {
          "internalType": "bool",
          "name": "",
          "type": "bool"
        }
      ],
      "stateMutability": "view",
      "type": "function"
    },
    {
      "inputs": [
        {
          "internalType": "address",
          "name": "account",
          "type": "address"
        }
      ],
      "name": "balanceOf",
      "outputs": [
        {
          "internalType": "uint256",
          "name": "",
          "type": "uint256"
        }
      ],
      "stateMutability": "view",
      "type": "function"
    },
    {
      "inputs": [],
      "name": "decimals",
      "outputs": [
        {
          "internalType": "uint8",
          "name": "",
          "type": "uint8"
        }
      ],
      "stateMutability": "view",
      "type": "function"
    },
    {
      "inputs": [
        {
          "internalType": "address",
          "name": "_to",
          "type": "address"
        },
        {
          "internalType": "uint256",
          "name": "_amount",
          "type": "uint256"
        }
      ],
      "name": "mint",
      "outputs": [],
      "stateMutability": "nonpayable",
      "type": "function"
    },
    {
      "inputs": [],
      "name": "mintIsActive",
      "outputs": [
        {
          "internalType": "bool",
          "name": "",
          "type": "bool"
        }
      ],
      "stateMutability": "view",
      "type": "function"
    },
    {
      "inputs": [
        {
          "internalType": "address",
          "name": "",
          "type": "address"
        }
      ],
      "name": "mintedAmount",
      "outputs": [
        {
          "internalType": "uint256",
          "name": "",
          "type": "uint256"
        }
      ],
      "stateMutability": "view",
      "type": "function"
    },
    {
      "inputs": [],
      "name": "name",
      "outputs": [
        {
          "internalType": "string",
          "name": "",
          "type": "string"
        }
      ],
      "stateMutability": "view",
      "type": "function"
    },
    {
      "inputs": [],
      "name": "owner",
      "outputs": [
        {
          "internalType": "address",
          "name": "",
          "type": "address"
        }
      ],
      "stateMutability": "view",
      "type": "function"
    },
    {
      "inputs": [],
      "name": "renounceOwnership",
      "outputs": [],
      "stateMutability": "nonpayable",
      "type": "function"
    },
    {
      "inputs": [
        {
          "internalType": "address",
          "name": "_address",
          "type": "address"
        },
        {
          "internalType": "bool",
          "name": "_authorized",
          "type": "bool"
        }
      ],
      "name": "setAuthorizedToMint",
      "outputs": [],
      "stateMutability": "nonpayable",
      "type": "function"
    },
    {
      "inputs": [
        {
          "internalType": "bool",
          "name": "_mintIsActive",
          "type": "bool"
        }
      ],
      "name": "setMintIsActive",
      "outputs": [],
      "stateMutability": "nonpayable",
      "type": "function"
    },
    {
      "inputs": [],
      "name": "symbol",
      "outputs": [
        {
          "internalType": "string",
          "name": "",
          "type": "string"
        }
      ],
      "stateMutability": "view",
      "type": "function"
    },
    {
      "inputs": [],
      "name": "totalSupply",
      "outputs": [
        {
          "internalType": "uint256",
          "name": "",
          "type": "uint256"
        }
      ],
      "stateMutability": "view",
      "type": "function"
    },
    {
      "inputs": [
        {
          "internalType": "address",
          "name": "to",
          "type": "address"
        },
        {
          "internalType": "uint256",
          "name": "value",
          "type": "uint256"
        }
      ],
      "name": "transfer",
      "outputs": [
        {
          "internalType": "bool",
          "name": "",
          "type": "bool"
        }
      ],
      "stateMutability": "nonpayable",
      "type": "function"
    },
    {
      "inputs": [
        {
          "internalType": "address",
          "name": "from",
          "type": "address"
        },
        {
          "internalType": "address",
          "name": "to",
          "type": "address"
        },
        {
          "internalType": "uint256",
          "name": "value",
          "type": "uint256"
        }
      ],
      "name": "transferFrom",
      "outputs": [
        {
          "internalType": "bool",
          "name": "",
          "type": "bool"
        }
      ],
      "stateMutability": "nonpayable",
      "type": "function"
    },
    {
      "inputs": [
        {
          "internalType": "address",
          "name": "newOwner",
          "type": "address"
        }
      ],
      "name": "transferOwnership",
      "outputs": [],
      "stateMutability": "nonpayable",
      "type": "function"
    },
    {
      "inputs": [],
      "name": "withdrawAll",
      "outputs": [],
      "stateMutability": "nonpayable",
      "type": "function"
    }
  ],
  "bytecode": "0x608060405234801561001057600080fd5b50336040518060400160405280601781526020017f556e6976657273616c20547261646520437265646974730000000000000000008152506040518060400160405280600381526020016255544360e81b815250816003908161007391906101b1565b50600461008082826101b1565b5050506001600160a01b0381166100b157604051631e4fbdf760e01b81526000600482015260240160405180910390fd5b6100ba816100c0565b5061026f565b600580546001600160a01b038381166001600160a01b0319831681179093556040519116919082907f8be0079c531659141344cd1fd0a4f28419497f9722a3daafe3b4186f6b6457e090600090a35050565b634e487b7160e01b600052604160045260246000fd5b600181811c9082168061013c57607f821691505b60208210810361015c57634e487b7160e01b600052602260045260246000fd5b50919050565b601f8211156101ac57806000526020600020601f840160051c810160208510156101895750805b601f840160051c820191505b818110156101a95760008155600101610195565b50505b505050565b81516001600160401b038111156101ca576101ca610112565b6101de816101d88454610128565b84610162565b6020601f82116001811461021257600083156101fa5750848201515b600019600385901b1c1916600184901b1784556101a9565b600084815260208120601f198516915b828110156102425787850151825560209485019460019092019101610222565b50848210156102605786840151600019600387901b60f8161c191681555b50505050600190811b01905550565b610b268061027e6000396000f3fe608060405234801561001057600080fd5b50600436106100f15760003560e01c806306fdde03146100f6578063095ea7b31461011457806318160ddd1461013757806323b872dd14610149578063313ce5671461015c57806340c10f191461016b578063471a42941461018057806370a0823114610194578063715018a6146101bd57806379482c60146101c5578063853828b6146101d85780638da5cb5b146101e057806395d89b41146101f55780639c23bec9146101fd578063a9059cbb14610220578063d19653fb14610233578063dd62ed3e14610246578063f2fde38b14610259578063fbbf8cc31461026c575b600080fd5b6100fe61028c565b60405161010b91906108e5565b60405180910390f35b61012761012236600461094f565b61031e565b604051901515815260200161010b565b6002545b60405190815260200161010b565b610127610157366004610979565b610338565b6040516012815260200161010b565b61017e61017936600461094f565b61035c565b005b60055461012790600160a01b900460ff1681565b61013b6101a23660046109b6565b6001600160a01b031660009081526020819052604090205490565b61017e6103cf565b61017e6101d33660046109e8565b6103e3565b61017e610416565b6101e86104c2565b60405161010b9190610a1b565b6100fe6104d1565b61012761020b3660046109b6565b60066020526000908152604090205460ff1681565b61012761022e36600461094f565b6104e0565b61017e610241366004610a2f565b6104ee565b61013b610254366004610a4a565b610514565b61017e6102673660046109b6565b61053f565b61013b61027a3660046109b6565b60076020526000908152604090205481565b60606003805461029b90610a74565b80601f01602080910402602001604051908101604052809291908181526020018280546102c790610a74565b80156103145780601f106102e957610100808354040283529160200191610314565b820191906000526020600020905b8154815290600101906020018083116102f757829003601f168201915b5050505050905090565b60003361032c81858561057a565b60019150505b92915050565b60003361034685828561058c565b6103518585856105e0565b506001949350505050565b600554600160a01b900460ff166103865760405163914edb0f60e01b815260040160405180910390fd5b3360009081526006602052604090205460ff166103c15733604051634a0bfec160e01b81526004016103b89190610a1b565b60405180910390fd5b6103cb828261063f565b5050565b6103d7610675565b6103e160006106a7565b565b6103eb610675565b6001600160a01b03919091166000908152600660205260409020805460ff1916911515919091179055565b61041e610675565b60006104286104c2565b6001600160a01b03164760405160006040518083038185875af1925050503d8060008114610472576040519150601f19603f3d011682016040523d82523d6000602084013e610477565b606091505b50509050806104bf5760405162461bcd60e51b81526020600482015260146024820152732330b4b632b2103a379039b2b7321022ba3432b960611b60448201526064016103b8565b50565b6005546001600160a01b031690565b60606004805461029b90610a74565b60003361032c8185856105e0565b6104f6610675565b60058054911515600160a01b0260ff60a01b19909216919091179055565b6001600160a01b03918216600090815260016020908152604080832093909416825291909152205490565b610547610675565b6001600160a01b038116610571576000604051631e4fbdf760e01b81526004016103b89190610a1b565b6104bf816106a7565b61058783838360016106f9565b505050565b60006105988484610514565b90506000198110156105da57818110156105cb57828183604051637dc7a0d960e11b81526004016103b893929190610aae565b6105da848484840360006106f9565b50505050565b6001600160a01b03831661060a576000604051634b637e8f60e11b81526004016103b89190610a1b565b6001600160a01b03821661063457600060405163ec442f0560e01b81526004016103b89190610a1b565b6105878383836107ce565b6001600160a01b03821661066957600060405163ec442f0560e01b81526004016103b89190610a1b565b6103cb600083836107ce565b3361067e6104c2565b6001600160a01b0316146103e1573360405163118cdaa760e01b81526004016103b89190610a1b565b600580546001600160a01b038381166001600160a01b0319831681179093556040519116919082907f8be0079c531659141344cd1fd0a4f28419497f9722a3daafe3b4186f6b6457e090600090a35050565b6001600160a01b03841661072357600060405163e602df0560e01b81526004016103b89190610a1b565b6001600160a01b03831661074d576000604051634a1406b160e11b81526004016103b89190610a1b565b6001600160a01b03808516600090815260016020908152604080832093871683529290522082905580156105da57826001600160a01b0316846001600160a01b03167f8c5be1e5ebec7d5bd14f71427d1e84f3dd0314c0f7b2291e5b200ac8c7c3b925846040516107c091815260200190565b60405180910390a350505050565b6001600160a01b0383166107f95780600260008282546107ee9190610acf565b909155506108589050565b6001600160a01b038316600090815260208190526040902054818110156108395783818360405163391434e360e21b81526004016103b893929190610aae565b6001600160a01b03841660009081526020819052604090209082900390555b6001600160a01b03821661087457600280548290039055610893565b6001600160a01b03821660009081526020819052604090208054820190555b816001600160a01b0316836001600160a01b03167fddf252ad1be2c89b69c2b068fc378daa952ba7f163c4a11628f55a4df523b3ef836040516108d891815260200190565b60405180910390a3505050565b602081526000825180602084015260005b8181101561091357602081860181015160408684010152016108f6565b506000604082850101526040601f19601f83011684010191505092915050565b80356001600160a01b038116811461094a57600080fd5b919050565b6000806040838503121561096257600080fd5b61096b83610933565b946020939093013593505050565b60008060006060848603121561098e57600080fd5b61099784610933565b92506109a560208501610933565b929592945050506040919091013590565b6000602082840312156109c857600080fd5b6109d182610933565b9392505050565b8035801515811461094a57600080fd5b600080604083850312156109fb57600080fd5b610a0483610933565b9150610a12602084016109d8565b90509250929050565b6001600160a01b0391909116815260200190565b600060208284031215610a4157600080fd5b6109d1826109d8565b60008060408385031215610a5d57600080fd5b610a6683610933565b9150610a1260208401610933565b600181811c90821680610a8857607f821691505b602082108103610aa857634e487b7160e01b600052602260045260246000fd5b50919050565b6001600160a01b039390931683526020830191909152604082015260600190565b8082018082111561033257634e487b7160e01b600052601160045260246000fdfea2646970667358221220756a10acb0bc1d4f44806ef10646ca941579c772c1f39ce1624b3d921711855664736f6c634300081c0033",
  "linkReferences": {},
  "deployedLinkReferences": {}
}