{
  "_format": "hh-sol-artifact-1",
  "contractName": "Ships",
  "sourceName": "contracts/Ships.sol",
  "abi": [
    {
      "inputs": [
        {
          "internalType": "address",
          "name": "_renderer",
          "type": "address"
        }
      ],
      "stateMutability": "nonpayable",
      "type": "constructor"
    },
    {
      "inputs": [],
      "name": "ArrayLengthMismatch",
      "type": "error"
    },
    {
      "inputs": [
        {
          "internalType": "address",
          "name": "sender",
          "type": "address"
        },
        {
          "internalType": "uint256",
          "name": "tokenId",
          "type": "uint256"
        },
        {
          "internalType": "address",
          "name": "owner",
          "type": "address"
        }
      ],
      "name": "ERC721IncorrectOwner",
      "type": "error"
    },
    {
      "inputs": [
        {
          "internalType": "address",
          "name": "operator",
          "type": "address"
        },
        {
          "internalType": "uint256",
          "name": "tokenId",
          "type": "uint256"
        }
      ],
      "name": "ERC721InsufficientApproval",
      "type": "error"
    },
    {
      "inputs": [
        {
          "internalType": "address",
          "name": "approver",
          "type": "address"
        }
      ],
      "name": "ERC721InvalidApprover",
      "type": "error"
    },
    {
      "inputs": [
        {
          "internalType": "address",
          "name": "operator",
          "type": "address"
        }
      ],
      "name": "ERC721InvalidOperator",
      "type": "error"
    },
    {
      "inputs": [
        {
          "internalType": "address",
          "name": "owner",
          "type": "address"
        }
      ],
      "name": "ERC721InvalidOwner",
      "type": "error"
    },
    {
      "inputs": [
        {
          "internalType": "address",
          "name": "receiver",
          "type": "address"
        }
      ],
      "name": "ERC721InvalidReceiver",
      "type": "error"
    },
    {
      "inputs": [
        {
          "internalType": "address",
          "name": "sender",
          "type": "address"
        }
      ],
      "name": "ERC721InvalidSender",
      "type": "error"
    },
    {
      "inputs": [
        {
          "internalType": "uint256",
          "name": "tokenId",
          "type": "uint256"
        }
      ],
      "name": "ERC721NonexistentToken",
      "type": "error"
    },
    {
      "inputs": [
        {
          "internalType": "address",
          "name": "",
          "type": "address"
        }
      ],
      "name": "InsufficientPurchases",
      "type": "error"
    },
    {
      "inputs": [],
      "name": "InvalidId",
      "type": "error"
    },
    {
      "inputs": [
        {
          "internalType": "uint256",
          "name": "_tier",
          "type": "uint256"
        },
        {
          "internalType": "uint256",
          "name": "_amount",
          "type": "uint256"
        }
      ],
      "name": "InvalidPurchase",
      "type": "error"
    },
    {
      "inputs": [],
      "name": "InvalidReferral",
      "type": "error"
    },
    {
      "inputs": [],
      "name": "InvalidRenderer",
      "type": "error"
    },
    {
      "inputs": [],
      "name": "MintPaused",
      "type": "error"
    },
    {
      "inputs": [
        {
          "internalType": "address",
          "name": "",
          "type": "address"
        }
      ],
      "name": "NotAuthorized",
      "type": "error"
    },
    {
      "inputs": [
        {
          "internalType": "uint256",
          "name": "",
          "type": "uint256"
        }
      ],
      "name": "NotYourShip",
      "type": "error"
    },
    {
      "inputs": [],
      "name": "OldShipCost",
      "type": "error"
    },
    {
      "inputs": [
        {
          "internalType": "address",
          "name": "owner",
          "type": "address"
        }
      ],
      "name": "OwnableInvalidOwner",
      "type": "error"
    },
    {
      "inputs": [
        {
          "internalType": "address",
          "name": "account",
          "type": "address"
        }
      ],
      "name": "OwnableUnauthorizedAccount",
      "type": "error"
    },
    {
      "inputs": [],
      "name": "ReentrancyGuardReentrantCall",
      "type": "error"
    },
    {
      "inputs": [
        {
          "internalType": "uint256",
          "name": "",
          "type": "uint256"
        }
      ],
      "name": "ShipAlreadyDestroyed",
      "type": "error"
    },
    {
      "inputs": [
        {
          "internalType": "uint256",
          "name": "",
          "type": "uint256"
        }
      ],
      "name": "ShipConstructed",
      "type": "error"
    },
    {
      "inputs": [],
      "name": "ShipDestroyed",
      "type": "error"
    },
    {
      "inputs": [
        {
          "internalType": "uint256",
          "name": "",
          "type": "uint256"
        }
      ],
      "name": "ShipInFleet",
      "type": "error"
    },
    {
      "inputs": [],
      "name": "ShipInGame",
      "type": "error"
    },
    {
      "inputs": [],
      "name": "ShipInLobby",
      "type": "error"
    },
    {
      "anonymous": false,
      "inputs": [
        {
          "indexed": true,
          "internalType": "address",
          "name": "owner",
          "type": "address"
        },
        {
          "indexed": true,
          "internalType": "address",
          "name": "approved",
          "type": "address"
        },
        {
          "indexed": true,
          "internalType": "uint256",
          "name": "tokenId",
          "type": "uint256"
        }
      ],
      "name": "Approval",
      "type": "event"
    },
    {
      "anonymous": false,
      "inputs": [
        {
          "indexed": true,
          "internalType": "address",
          "name": "owner",
          "type": "address"
        },
        {
          "indexed": true,
          "internalType": "address",
          "name": "operator",
          "type": "address"
        },
        {
          "indexed": false,
          "internalType": "bool",
          "name": "approved",
          "type": "bool"
        }
      ],
      "name": "ApprovalForAll",
      "type": "event"
    },
    {
      "anonymous": false,
      "inputs": [
        {
          "indexed": false,
          "internalType": "uint256",
          "name": "_tokenId",
          "type": "uint256"
        }
      ],
      "name": "MetadataUpdate",
      "type": "event"
    },
    {
      "anonymous": false,
      "inputs": [
        {
          "indexed": true,
          "internalType": "address",
          "name": "previousOwner",
          "type": "address"
        },
        {
          "indexed": true,
          "internalType": "address",
          "name": "newOwner",
          "type": "address"
        }
      ],
      "name": "OwnershipTransferred",
      "type": "event"
    },
    {
      "anonymous": false,
      "inputs": [
        {
          "indexed": true,
          "internalType": "address",
          "name": "from",
          "type": "address"
        },
        {
          "indexed": true,
          "internalType": "address",
          "name": "to",
          "type": "address"
        },
        {
          "indexed": true,
          "internalType": "uint256",
          "name": "tokenId",
          "type": "uint256"
        }
      ],
      "name": "Transfer",
      "type": "event"
    },
    {
      "inputs": [
        {
          "internalType": "address",
          "name": "",
          "type": "address"
        }
      ],
      "name": "amountPurchased",
      "outputs": [
        {
          "internalType": "uint256",
          "name": "",
          "type": "uint256"
        }
      ],
      "stateMutability": "view",
      "type": "function"
    },
    {
      "inputs": [
        {
          "internalType": "address",
          "name": "to",
          "type": "address"
        },
        {
          "internalType": "uint256",
          "name": "tokenId",
          "type": "uint256"
        }
      ],
      "name": "approve",
      "outputs": [],
      "stateMutability": "nonpayable",
      "type": "function"
    },
    {
      "inputs": [
        {
          "internalType": "address",
          "name": "owner",
          "type": "address"
        }
      ],
      "name": "balanceOf",
      "outputs": [
        {
          "internalType": "uint256",
          "name": "",
          "type": "uint256"
        }
      ],
      "stateMutability": "view",
      "type": "function"
    },
    {
      "inputs": [],
      "name": "claimFreeShips",
      "outputs": [],
      "stateMutability": "nonpayable",
      "type": "function"
    },
    {
      "inputs": [],
      "name": "config",
      "outputs": [
        {
          "internalType": "address",
          "name": "gameAddress",
          "type": "address"
        },
        {
          "internalType": "address",
          "name": "lobbyAddress",
          "type": "address"
        },
        {
          "internalType": "address",
          "name": "fleetsAddress",
          "type": "address"
        },
        {
          "internalType": "contract IRenderMetadata",
          "name": "metadataRenderer",
          "type": "address"
        },
        {
          "internalType": "contract IRandomManager",
          "name": "randomManager",
          "type": "address"
        },
        {
          "internalType": "contract IGenerateNewShip",
          "name": "shipGenerator",
          "type": "address"
        }
      ],
      "stateMutability": "view",
      "type": "function"
    },
    {
      "inputs": [],
      "name": "constructAllMyShips",
      "outputs": [],
      "stateMutability": "nonpayable",
      "type": "function"
    },
    {
      "inputs": [
        {
          "internalType": "uint256",
          "name": "_id",
          "type": "uint256"
        }
      ],
      "name": "constructShip",
      "outputs": [],
      "stateMutability": "nonpayable",
      "type": "function"
    },
    {
      "inputs": [
        {
          "internalType": "uint256[]",
          "name": "_ids",
          "type": "uint256[]"
        }
      ],
      "name": "constructShips",
      "outputs": [],
      "stateMutability": "nonpayable",
      "type": "function"
    },
    {
      "inputs": [
        {
          "internalType": "uint256",
          "name": "_id",
          "type": "uint256"
        },
        {
          "components": [
            {
              "internalType": "string",
              "name": "name",
              "type": "string"
            },
            {
              "internalType": "uint256",
              "name": "id",
              "type": "uint256"
            },
            {
              "components": [
                {
                  "internalType": "enum MainWeapon",
                  "name": "mainWeapon",
                  "type": "uint8"
                },
                {
                  "internalType": "enum Armor",
                  "name": "armor",
                  "type": "uint8"
                },
                {
                  "internalType": "enum Shields",
                  "name": "shields",
                  "type": "uint8"
                },
                {
                  "internalType": "enum Special",
                  "name": "special",
                  "type": "uint8"
                }
              ],
              "internalType": "struct Equipment",
              "name": "equipment",
              "type": "tuple"
            },
            {
              "components": [
                {
                  "internalType": "uint256",
                  "name": "serialNumber",
                  "type": "uint256"
                },
                {
                  "components": [
                    {
                      "internalType": "uint16",
                      "name": "h1",
                      "type": "uint16"
                    },
                    {
                      "internalType": "uint8",
                      "name": "s1",
                      "type": "uint8"
                    },
                    {
                      "internalType": "uint8",
                      "name": "l1",
                      "type": "uint8"
                    },
                    {
                      "internalType": "uint16",
                      "name": "h2",
                      "type": "uint16"
                    },
                    {
                      "internalType": "uint8",
                      "name": "s2",
                      "type": "uint8"
                    },
                    {
                      "internalType": "uint8",
                      "name": "l2",
                      "type": "uint8"
                    }
                  ],
                  "internalType": "struct Colors",
                  "name": "colors",
                  "type": "tuple"
                },
                {
                  "internalType": "uint8",
                  "name": "variant",
                  "type": "uint8"
                },
                {
                  "internalType": "uint8",
                  "name": "accuracy",
                  "type": "uint8"
                },
                {
                  "internalType": "uint8",
                  "name": "hull",
                  "type": "uint8"
                },
                {
                  "internalType": "uint8",
                  "name": "speed",
                  "type": "uint8"
                }
              ],
              "internalType": "struct Traits",
              "name": "traits",
              "type": "tuple"
            },
            {
              "components": [
                {
                  "internalType": "uint32",
                  "name": "shipsDestroyed",
                  "type": "uint32"
                },
                {
                  "internalType": "uint16",
                  "name": "costsVersion",
                  "type": "uint16"
                },
                {
                  "internalType": "uint16",
                  "name": "cost",
                  "type": "uint16"
                },
                {
                  "internalType": "bool",
                  "name": "shiny",
                  "type": "bool"
                },
                {
                  "internalType": "bool",
                  "name": "constructed",
                  "type": "bool"
                },
                {
                  "internalType": "bool",
                  "name": "inFleet",
                  "type": "bool"
                },
                {
                  "internalType": "uint256",
                  "name": "timestampDestroyed",
                  "type": "uint256"
                }
              ],
              "internalType": "struct ShipData",
              "name": "shipData",
              "type": "tuple"
            },
            {
              "internalType": "address",
              "name": "owner",
              "type": "address"
            }
          ],
          "internalType": "struct Ship",
          "name": "_ship",
          "type": "tuple"
        }
      ],
      "name": "constructSpecificShip",
      "outputs": [],
      "stateMutability": "nonpayable",
      "type": "function"
    },
    {
      "inputs": [],
      "name": "costs",
      "outputs": [
        {
          "internalType": "uint16",
          "name": "version",
          "type": "uint16"
        },
        {
          "internalType": "uint8",
          "name": "baseCost",
          "type": "uint8"
        }
      ],
      "stateMutability": "view",
      "type": "function"
    },
    {
      "inputs": [],
      "name": "costsVersion",
      "outputs": [
        {
          "internalType": "uint256",
          "name": "",
          "type": "uint256"
        }
      ],
      "stateMutability": "view",
      "type": "function"
    },
    {
      "inputs": [
        {
          "internalType": "address",
          "name": "_to",
          "type": "address"
        },
        {
          "internalType": "uint256",
          "name": "_amount",
          "type": "uint256"
        }
      ],
      "name": "createShips",
      "outputs": [],
      "stateMutability": "nonpayable",
      "type": "function"
    },
    {
      "inputs": [
        {
          "internalType": "uint256",
          "name": "tokenId",
          "type": "uint256"
        }
      ],
      "name": "getApproved",
      "outputs": [
        {
          "internalType": "address",
          "name": "",
          "type": "address"
        }
      ],
      "stateMutability": "view",
      "type": "function"
    },
    {
      "inputs": [],
      "name": "getCosts",
      "outputs": [
        {
          "internalType": "uint256",
          "name": "",
          "type": "uint256"
        },
        {
          "components": [
            {
              "internalType": "uint16",
              "name": "version",
              "type": "uint16"
            },
            {
              "internalType": "uint8",
              "name": "baseCost",
              "type": "uint8"
            },
            {
              "internalType": "uint8[]",
              "name": "accuracy",
              "type": "uint8[]"
            },
            {
              "internalType": "uint8[]",
              "name": "hull",
              "type": "uint8[]"
            },
            {
              "internalType": "uint8[]",
              "name": "speed",
              "type": "uint8[]"
            },
            {
              "internalType": "uint8[]",
              "name": "mainWeapon",
              "type": "uint8[]"
            },
            {
              "internalType": "uint8[]",
              "name": "armor",
              "type": "uint8[]"
            },
            {
              "internalType": "uint8[]",
              "name": "shields",
              "type": "uint8[]"
            },
            {
              "internalType": "uint8[]",
              "name": "special",
              "type": "uint8[]"
            }
          ],
          "internalType": "struct Costs",
          "name": "",
          "type": "tuple"
        }
      ],
      "stateMutability": "view",
      "type": "function"
    },
    {
      "inputs": [],
      "name": "getCurrentCostsVersion",
      "outputs": [
        {
          "internalType": "uint16",
          "name": "",
          "type": "uint16"
        }
      ],
      "stateMutability": "view",
      "type": "function"
    },
    {
      "inputs": [],
      "name": "getPurchaseInfo",
      "outputs": [
        {
          "internalType": "uint8[]",
          "name": "_purchaseTiers",
          "type": "uint8[]"
        },
        {
          "internalType": "uint8[]",
          "name": "_tierShips",
          "type": "uint8[]"
        },
        {
          "internalType": "uint256[]",
          "name": "_tierPrices",
          "type": "uint256[]"
        }
      ],
      "stateMutability": "view",
      "type": "function"
    },
    {
      "inputs": [
        {
          "internalType": "uint256",
          "name": "_id",
          "type": "uint256"
        }
      ],
      "name": "getShip",
      "outputs": [
        {
          "components": [
            {
              "internalType": "string",
              "name": "name",
              "type": "string"
            },
            {
              "internalType": "uint256",
              "name": "id",
              "type": "uint256"
            },
            {
              "components": [
                {
                  "internalType": "enum MainWeapon",
                  "name": "mainWeapon",
                  "type": "uint8"
                },
                {
                  "internalType": "enum Armor",
                  "name": "armor",
                  "type": "uint8"
                },
                {
                  "internalType": "enum Shields",
                  "name": "shields",
                  "type": "uint8"
                },
                {
                  "internalType": "enum Special",
                  "name": "special",
                  "type": "uint8"
                }
              ],
              "internalType": "struct Equipment",
              "name": "equipment",
              "type": "tuple"
            },
            {
              "components": [
                {
                  "internalType": "uint256",
                  "name": "serialNumber",
                  "type": "uint256"
                },
                {
                  "components": [
                    {
                      "internalType": "uint16",
                      "name": "h1",
                      "type": "uint16"
                    },
                    {
                      "internalType": "uint8",
                      "name": "s1",
                      "type": "uint8"
                    },
                    {
                      "internalType": "uint8",
                      "name": "l1",
                      "type": "uint8"
                    },
                    {
                      "internalType": "uint16",
                      "name": "h2",
                      "type": "uint16"
                    },
                    {
                      "internalType": "uint8",
                      "name": "s2",
                      "type": "uint8"
                    },
                    {
                      "internalType": "uint8",
                      "name": "l2",
                      "type": "uint8"
                    }
                  ],
                  "internalType": "struct Colors",
                  "name": "colors",
                  "type": "tuple"
                },
                {
                  "internalType": "uint8",
                  "name": "variant",
                  "type": "uint8"
                },
                {
                  "internalType": "uint8",
                  "name": "accuracy",
                  "type": "uint8"
                },
                {
                  "internalType": "uint8",
                  "name": "hull",
                  "type": "uint8"
                },
                {
                  "internalType": "uint8",
                  "name": "speed",
                  "type": "uint8"
                }
              ],
              "internalType": "struct Traits",
              "name": "traits",
              "type": "tuple"
            },
            {
              "components": [
                {
                  "internalType": "uint32",
                  "name": "shipsDestroyed",
                  "type": "uint32"
                },
                {
                  "internalType": "uint16",
                  "name": "costsVersion",
                  "type": "uint16"
                },
                {
                  "internalType": "uint16",
                  "name": "cost",
                  "type": "uint16"
                },
                {
                  "internalType": "bool",
                  "name": "shiny",
                  "type": "bool"
                },
                {
                  "internalType": "bool",
                  "name": "constructed",
                  "type": "bool"
                },
                {
                  "internalType": "bool",
                  "name": "inFleet",
                  "type": "bool"
                },
                {
                  "internalType": "uint256",
                  "name": "timestampDestroyed",
                  "type": "uint256"
                }
              ],
              "internalType": "struct ShipData",
              "name": "shipData",
              "type": "tuple"
            },
            {
              "internalType": "address",
              "name": "owner",
              "type": "address"
            }
          ],
          "internalType": "struct Ship",
          "name": "",
          "type": "tuple"
        }
      ],
      "stateMutability": "view",
      "type": "function"
    },
    {
      "inputs": [
        {
          "internalType": "address",
          "name": "_owner",
          "type": "address"
        }
      ],
      "name": "getShipIdsOwned",
      "outputs": [
        {
          "internalType": "uint256[]",
          "name": "",
          "type": "uint256[]"
        }
      ],
      "stateMutability": "view",
      "type": "function"
    },
    {
      "inputs": [
        {
          "internalType": "uint256[]",
          "name": "_ids",
          "type": "uint256[]"
        }
      ],
      "name": "getShipsByIds",
      "outputs": [
        {
          "components": [
            {
              "internalType": "string",
              "name": "name",
              "type": "string"
            },
            {
              "internalType": "uint256",
              "name": "id",
              "type": "uint256"
            },
            {
              "components": [
                {
                  "internalType": "enum MainWeapon",
                  "name": "mainWeapon",
                  "type": "uint8"
                },
                {
                  "internalType": "enum Armor",
                  "name": "armor",
                  "type": "uint8"
                },
                {
                  "internalType": "enum Shields",
                  "name": "shields",
                  "type": "uint8"
                },
                {
                  "internalType": "enum Special",
                  "name": "special",
                  "type": "uint8"
                }
              ],
              "internalType": "struct Equipment",
              "name": "equipment",
              "type": "tuple"
            },
            {
              "components": [
                {
                  "internalType": "uint256",
                  "name": "serialNumber",
                  "type": "uint256"
                },
                {
                  "components": [
                    {
                      "internalType": "uint16",
                      "name": "h1",
                      "type": "uint16"
                    },
                    {
                      "internalType": "uint8",
                      "name": "s1",
                      "type": "uint8"
                    },
                    {
                      "internalType": "uint8",
                      "name": "l1",
                      "type": "uint8"
                    },
                    {
                      "internalType": "uint16",
                      "name": "h2",
                      "type": "uint16"
                    },
                    {
                      "internalType": "uint8",
                      "name": "s2",
                      "type": "uint8"
                    },
                    {
                      "internalType": "uint8",
                      "name": "l2",
                      "type": "uint8"
                    }
                  ],
                  "internalType": "struct Colors",
                  "name": "colors",
                  "type": "tuple"
                },
                {
                  "internalType": "uint8",
                  "name": "variant",
                  "type": "uint8"
                },
                {
                  "internalType": "uint8",
                  "name": "accuracy",
                  "type": "uint8"
                },
                {
                  "internalType": "uint8",
                  "name": "hull",
                  "type": "uint8"
                },
                {
                  "internalType": "uint8",
                  "name": "speed",
                  "type": "uint8"
                }
              ],
              "internalType": "struct Traits",
              "name": "traits",
              "type": "tuple"
            },
            {
              "components": [
                {
                  "internalType": "uint32",
                  "name": "shipsDestroyed",
                  "type": "uint32"
                },
                {
                  "internalType": "uint16",
                  "name": "costsVersion",
                  "type": "uint16"
                },
                {
                  "internalType": "uint16",
                  "name": "cost",
                  "type": "uint16"
                },
                {
                  "internalType": "bool",
                  "name": "shiny",
                  "type": "bool"
                },
                {
                  "internalType": "bool",
                  "name": "constructed",
                  "type": "bool"
                },
                {
                  "internalType": "bool",
                  "name": "inFleet",
                  "type": "bool"
                },
                {
                  "internalType": "uint256",
                  "name": "timestampDestroyed",
                  "type": "uint256"
                }
              ],
              "internalType": "struct ShipData",
              "name": "shipData",
              "type": "tuple"
            },
            {
              "internalType": "address",
              "name": "owner",
              "type": "address"
            }
          ],
          "internalType": "struct Ship[]",
          "name": "",
          "type": "tuple[]"
        }
      ],
      "stateMutability": "view",
      "type": "function"
    },
    {
      "inputs": [
        {
          "internalType": "uint256",
          "name": "_trait",
          "type": "uint256"
        }
      ],
      "name": "getTierOfTrait",
      "outputs": [
        {
          "internalType": "uint8",
          "name": "",
          "type": "uint8"
        }
      ],
      "stateMutability": "pure",
      "type": "function"
    },
    {
      "inputs": [
        {
          "internalType": "address",
          "name": "",
          "type": "address"
        }
      ],
      "name": "hasClaimedFreeShips",
      "outputs": [
        {
          "internalType": "bool",
          "name": "",
          "type": "bool"
        }
      ],
      "stateMutability": "view",
      "type": "function"
    },
    {
      "inputs": [
        {
          "internalType": "address",
          "name": "",
          "type": "address"
        }
      ],
      "name": "isAllowedToCreateShips",
      "outputs": [
        {
          "internalType": "bool",
          "name": "",
          "type": "bool"
        }
      ],
      "stateMutability": "view",
      "type": "function"
    },
    {
      "inputs": [
        {
          "internalType": "address",
          "name": "owner",
          "type": "address"
        },
        {
          "internalType": "address",
          "name": "operator",
          "type": "address"
        }
      ],
      "name": "isApprovedForAll",
      "outputs": [
        {
          "internalType": "bool",
          "name": "",
          "type": "bool"
        }
      ],
      "stateMutability": "view",
      "type": "function"
    },
    {
      "inputs": [
        {
          "internalType": "uint256",
          "name": "_id",
          "type": "uint256"
        }
      ],
      "name": "isShipDestroyed",
      "outputs": [
        {
          "internalType": "bool",
          "name": "",
          "type": "bool"
        }
      ],
      "stateMutability": "view",
      "type": "function"
    },
    {
      "inputs": [],
      "name": "name",
      "outputs": [
        {
          "internalType": "string",
          "name": "",
          "type": "string"
        }
      ],
      "stateMutability": "view",
      "type": "function"
    },
    {
      "inputs": [
        {
          "internalType": "address",
          "name": "",
          "type": "address"
        }
      ],
      "name": "onboardingStep",
      "outputs": [
        {
          "internalType": "uint256",
          "name": "",
          "type": "uint256"
        }
      ],
      "stateMutability": "view",
      "type": "function"
    },
    {
      "inputs": [],
      "name": "owner",
      "outputs": [
        {
          "internalType": "address",
          "name": "",
          "type": "address"
        }
      ],
      "stateMutability": "view",
      "type": "function"
    },
    {
      "inputs": [
        {
          "internalType": "uint256",
          "name": "tokenId",
          "type": "uint256"
        }
      ],
      "name": "ownerOf",
      "outputs": [
        {
          "internalType": "address",
          "name": "",
          "type": "address"
        }
      ],
      "stateMutability": "view",
      "type": "function"
    },
    {
      "inputs": [],
      "name": "paused",
      "outputs": [
        {
          "internalType": "bool",
          "name": "",
          "type": "bool"
        }
      ],
      "stateMutability": "view",
      "type": "function"
    },
    {
      "inputs": [
        {
          "internalType": "uint256",
          "name": "",
          "type": "uint256"
        }
      ],
      "name": "purchaseTiers",
      "outputs": [
        {
          "internalType": "uint8",
          "name": "",
          "type": "uint8"
        }
      ],
      "stateMutability": "view",
      "type": "function"
    },
    {
      "inputs": [
        {
          "internalType": "address",
          "name": "_to",
          "type": "address"
        },
        {
          "internalType": "uint256",
          "name": "_tier",
          "type": "uint256"
        },
        {
          "internalType": "address",
          "name": "_referral",
          "type": "address"
        }
      ],
      "name": "purchaseWithFlow",
      "outputs": [],
      "stateMutability": "payable",
      "type": "function"
    },
    {
      "inputs": [],
      "name": "recycleReward",
      "outputs": [
        {
          "internalType": "uint256",
          "name": "",
          "type": "uint256"
        }
      ],
      "stateMutability": "view",
      "type": "function"
    },
    {
      "inputs": [
        {
          "internalType": "address",
          "name": "",
          "type": "address"
        }
      ],
      "name": "referralCount",
      "outputs": [
        {
          "internalType": "uint256",
          "name": "",
          "type": "uint256"
        }
      ],
      "stateMutability": "view",
      "type": "function"
    },
    {
      "inputs": [
        {
          "internalType": "uint256",
          "name": "",
          "type": "uint256"
        }
      ],
      "name": "referralPercentages",
      "outputs": [
        {
          "internalType": "uint8",
          "name": "",
          "type": "uint8"
        }
      ],
      "stateMutability": "view",
      "type": "function"
    },
    {
      "inputs": [
        {
          "internalType": "uint256",
          "name": "",
          "type": "uint256"
        }
      ],
      "name": "referralStages",
      "outputs": [
        {
          "internalType": "uint32",
          "name": "",
          "type": "uint32"
        }
      ],
      "stateMutability": "view",
      "type": "function"
    },
    {
      "inputs": [],
      "name": "renounceOwnership",
      "outputs": [],
      "stateMutability": "nonpayable",
      "type": "function"
    },
    {
      "inputs": [
        {
          "internalType": "address",
          "name": "from",
          "type": "address"
        },
        {
          "internalType": "address",
          "name": "to",
          "type": "address"
        },
        {
          "internalType": "uint256",
          "name": "tokenId",
          "type": "uint256"
        }
      ],
      "name": "safeTransferFrom",
      "outputs": [],
      "stateMutability": "nonpayable",
      "type": "function"
    },
    {
      "inputs": [
        {
          "internalType": "address",
          "name": "from",
          "type": "address"
        },
        {
          "internalType": "address",
          "name": "to",
          "type": "address"
        },
        {
          "internalType": "uint256",
          "name": "tokenId",
          "type": "uint256"
        },
        {
          "internalType": "bytes",
          "name": "data",
          "type": "bytes"
        }
      ],
      "name": "safeTransferFrom",
      "outputs": [],
      "stateMutability": "nonpayable",
      "type": "function"
    },
    {
      "inputs": [
        {
          "internalType": "address",
          "name": "operator",
          "type": "address"
        },
        {
          "internalType": "bool",
          "name": "approved",
          "type": "bool"
        }
      ],
      "name": "setApprovalForAll",
      "outputs": [],
      "stateMutability": "nonpayable",
      "type": "function"
    },
    {
      "inputs": [
        {
          "internalType": "address",
          "name": "_gameAddress",
          "type": "address"
        },
        {
          "internalType": "address",
          "name": "_lobbyAddress",
          "type": "address"
        },
        {
          "internalType": "address",
          "name": "_fleetsAddress",
          "type": "address"
        },
        {
          "internalType": "address",
          "name": "_shipGenerator",
          "type": "address"
        },
        {
          "internalType": "address",
          "name": "_randomManager",
          "type": "address"
        },
        {
          "internalType": "address",
          "name": "_metadataRenderer",
          "type": "address"
        }
      ],
      "name": "setConfig",
      "outputs": [],
      "stateMutability": "nonpayable",
      "type": "function"
    },
    {
      "inputs": [
        {
          "internalType": "uint256",
          "name": "_id",
          "type": "uint256"
        }
      ],
      "name": "setCostOfShip",
      "outputs": [],
      "stateMutability": "nonpayable",
      "type": "function"
    },
    {
      "inputs": [
        {
          "components": [
            {
              "internalType": "uint16",
              "name": "version",
              "type": "uint16"
            },
            {
              "internalType": "uint8",
              "name": "baseCost",
              "type": "uint8"
            },
            {
              "internalType": "uint8[]",
              "name": "accuracy",
              "type": "uint8[]"
            },
            {
              "internalType": "uint8[]",
              "name": "hull",
              "type": "uint8[]"
            },
            {
              "internalType": "uint8[]",
              "name": "speed",
              "type": "uint8[]"
            },
            {
              "internalType": "uint8[]",
              "name": "mainWeapon",
              "type": "uint8[]"
            },
            {
              "internalType": "uint8[]",
              "name": "armor",
              "type": "uint8[]"
            },
            {
              "internalType": "uint8[]",
              "name": "shields",
              "type": "uint8[]"
            },
            {
              "internalType": "uint8[]",
              "name": "special",
              "type": "uint8[]"
            }
          ],
          "internalType": "struct Costs",
          "name": "_costs",
          "type": "tuple"
        }
      ],
      "name": "setCosts",
      "outputs": [],
      "stateMutability": "nonpayable",
      "type": "function"
    },
    {
      "inputs": [
        {
          "internalType": "uint256",
          "name": "_id",
          "type": "uint256"
        },
        {
          "internalType": "bool",
          "name": "_inFleet",
          "type": "bool"
        }
      ],
      "name": "setInFleet",
      "outputs": [],
      "stateMutability": "nonpayable",
      "type": "function"
    },
    {
      "inputs": [
        {
          "internalType": "address",
          "name": "_address",
          "type": "address"
        },
        {
          "internalType": "bool",
          "name": "_isAllowed",
          "type": "bool"
        }
      ],
      "name": "setIsAllowedToCreateShips",
      "outputs": [],
      "stateMutability": "nonpayable",
      "type": "function"
    },
    {
      "inputs": [
        {
          "internalType": "uint8",
          "name": "_numberOfVariants",
          "type": "uint8"
        }
      ],
      "name": "setNumberOfVariants",
      "outputs": [],
      "stateMutability": "nonpayable",
      "type": "function"
    },
    {
      "inputs": [
        {
          "internalType": "bool",
          "name": "_paused",
          "type": "bool"
        }
      ],
      "name": "setPaused",
      "outputs": [],
      "stateMutability": "nonpayable",
      "type": "function"
    },
    {
      "inputs": [
        {
          "internalType": "uint8[]",
          "name": "_purchaseTiers",
          "type": "uint8[]"
        },
        {
          "internalType": "uint8[]",
          "name": "_tierShips",
          "type": "uint8[]"
        },
        {
          "internalType": "uint256[]",
          "name": "_tierPrices",
          "type": "uint256[]"
        }
      ],
      "name": "setPurchaseInfo",
      "outputs": [],
      "stateMutability": "nonpayable",
      "type": "function"
    },
    {
      "inputs": [
        {
          "internalType": "uint256",
          "name": "_newReward",
          "type": "uint256"
        }
      ],
      "name": "setRecycleReward",
      "outputs": [],
      "stateMutability": "nonpayable",
      "type": "function"
    },
    {
      "inputs": [
        {
          "internalType": "uint256",
          "name": "_id",
          "type": "uint256"
        },
        {
          "internalType": "uint256",
          "name": "_destroyerId",
          "type": "uint256"
        }
      ],
      "name": "setTimestampDestroyed",
      "outputs": [],
      "stateMutability": "nonpayable",
      "type": "function"
    },
    {
      "inputs": [
        {
          "internalType": "address",
          "name": "_universalCredits",
          "type": "address"
        }
      ],
      "name": "setUniversalCredits",
      "outputs": [],
      "stateMutability": "nonpayable",
      "type": "function"
    },
    {
      "inputs": [
        {
          "internalType": "uint256[]",
          "name": "_shipIds",
          "type": "uint256[]"
        }
      ],
      "name": "shipBreaker",
      "outputs": [],
      "stateMutability": "nonpayable",
      "type": "function"
    },
    {
      "inputs": [],
      "name": "shipCount",
      "outputs": [
        {
          "internalType": "uint256",
          "name": "",
          "type": "uint256"
        }
      ],
      "stateMutability": "view",
      "type": "function"
    },
    {
      "inputs": [
        {
          "internalType": "uint256",
          "name": "",
          "type": "uint256"
        }
      ],
      "name": "ships",
      "outputs": [
        {
          "internalType": "string",
          "name": "name",
          "type": "string"
        },
        {
          "internalType": "uint256",
          "name": "id",
          "type": "uint256"
        },
        {
          "components": [
            {
              "internalType": "enum MainWeapon",
              "name": "mainWeapon",
              "type": "uint8"
            },
            {
              "internalType": "enum Armor",
              "name": "armor",
              "type": "uint8"
            },
            {
              "internalType": "enum Shields",
              "name": "shields",
              "type": "uint8"
            },
            {
              "internalType": "enum Special",
              "name": "special",
              "type": "uint8"
            }
          ],
          "internalType": "struct Equipment",
          "name": "equipment",
          "type": "tuple"
        },
        {
          "components": [
            {
              "internalType": "uint256",
              "name": "serialNumber",
              "type": "uint256"
            },
            {
              "components": [
                {
                  "internalType": "uint16",
                  "name": "h1",
                  "type": "uint16"
                },
                {
                  "internalType": "uint8",
                  "name": "s1",
                  "type": "uint8"
                },
                {
                  "internalType": "uint8",
                  "name": "l1",
                  "type": "uint8"
                },
                {
                  "internalType": "uint16",
                  "name": "h2",
                  "type": "uint16"
                },
                {
                  "internalType": "uint8",
                  "name": "s2",
                  "type": "uint8"
                },
                {
                  "internalType": "uint8",
                  "name": "l2",
                  "type": "uint8"
                }
              ],
              "internalType": "struct Colors",
              "name": "colors",
              "type": "tuple"
            },
            {
              "internalType": "uint8",
              "name": "variant",
              "type": "uint8"
            },
            {
              "internalType": "uint8",
              "name": "accuracy",
              "type": "uint8"
            },
            {
              "internalType": "uint8",
              "name": "hull",
              "type": "uint8"
            },
            {
              "internalType": "uint8",
              "name": "speed",
              "type": "uint8"
            }
          ],
          "internalType": "struct Traits",
          "name": "traits",
          "type": "tuple"
        },
        {
          "components": [
            {
              "internalType": "uint32",
              "name": "shipsDestroyed",
              "type": "uint32"
            },
            {
              "internalType": "uint16",
              "name": "costsVersion",
              "type": "uint16"
            },
            {
              "internalType": "uint16",
              "name": "cost",
              "type": "uint16"
            },
            {
              "internalType": "bool",
              "name": "shiny",
              "type": "bool"
            },
            {
              "internalType": "bool",
              "name": "constructed",
              "type": "bool"
            },
            {
              "internalType": "bool",
              "name": "inFleet",
              "type": "bool"
            },
            {
              "internalType": "uint256",
              "name": "timestampDestroyed",
              "type": "uint256"
            }
          ],
          "internalType": "struct ShipData",
          "name": "shipData",
          "type": "tuple"
        },
        {
          "internalType": "address",
          "name": "owner",
          "type": "address"
        }
      ],
      "stateMutability": "view",
      "type": "function"
    },
    {
      "inputs": [
        {
          "internalType": "bytes4",
          "name": "interfaceId",
          "type": "bytes4"
        }
      ],
      "name": "supportsInterface",
      "outputs": [
        {
          "internalType": "bool",
          "name": "",
          "type": "bool"
        }
      ],
      "stateMutability": "view",
      "type": "function"
    },
    {
      "inputs": [],
      "name": "symbol",
      "outputs": [
        {
          "internalType": "string",
          "name": "",
          "type": "string"
        }
      ],
      "stateMutability": "view",
      "type": "function"
    },
    {
      "inputs": [
        {
          "internalType": "uint256",
          "name": "",
          "type": "uint256"
        }
      ],
      "name": "tierPrices",
      "outputs": [
        {
          "internalType": "uint256",
          "name": "",
          "type": "uint256"
        }
      ],
      "stateMutability": "view",
      "type": "function"
    },
    {
      "inputs": [
        {
          "internalType": "uint256",
          "name": "",
          "type": "uint256"
        }
      ],
      "name": "tierShips",
      "outputs": [
        {
          "internalType": "uint8",
          "name": "",
          "type": "uint8"
        }
      ],
      "stateMutability": "view",
      "type": "function"
    },
    {
      "inputs": [
        {
          "internalType": "uint256",
          "name": "_id",
          "type": "uint256"
        }
      ],
      "name": "tokenURI",
      "outputs": [
        {
          "internalType": "string",
          "name": "",
          "type": "string"
        }
      ],
      "stateMutability": "view",
      "type": "function"
    },
    {
      "inputs": [
        {
          "internalType": "address",
          "name": "from",
          "type": "address"
        },
        {
          "internalType": "address",
          "name": "to",
          "type": "address"
        },
        {
          "internalType": "uint256",
          "name": "tokenId",
          "type": "uint256"
        }
      ],
      "name": "transferFrom",
      "outputs": [],
      "stateMutability": "nonpayable",
      "type": "function"
    },
    {
      "inputs": [
        {
          "internalType": "address",
          "name": "newOwner",
          "type": "address"
        }
      ],
      "name": "transferOwnership",
      "outputs": [],
      "stateMutability": "nonpayable",
      "type": "function"
    },
    {
      "inputs": [],
      "name": "universalCredits",
      "outputs": [
        {
          "internalType": "contract IUniversalCredits",
          "name": "",
          "type": "address"
        }
      ],
      "stateMutability": "view",
      "type": "function"
    },
    {
      "inputs": [],
      "name": "withdraw",
      "outputs": [],
      "stateMutability": "nonpayable",
      "type": "function"
    }
  ],
  "bytecode": "0x61012060405260006080908152600a60a052601460c052602360e05260326101005261002f90600f90600561040c565b506040805160a081018252606481526103e860208201526127109181019190915261c3506060820152620186a0608082015261006f9060109060056104b2565b506023805462ffff00191661010017905567016345785d8a000060265534801561009857600080fd5b506040516162bd3803806162bd8339810160408190526100b7916105a9565b336040518060400160405280600e81526020016d57617270666c6f7720536869707360901b815250604051806040016040528060048152602001630534849560e41b815250816000908161010b9190610678565b5060016101188282610678565b5050506001600160a01b03811661014957604051631e4fbdf760e01b81526000600482015260240160405180910390fd5b610152816103ba565b506001600755601480546001600160a01b0319166001600160a01b038316179055601a805462ffffff1916623200011790556040805160608101825260008152600a60208201526019918101919091526101b090601b90600361040c565b506040805160608101825260008152600a60208201526019918101919091526101dd90601c90600361040c565b506040805160608101825260008152600a602082015260199181019190915261020a90601d90600361040c565b506040805160808101825260198152601e602082018190526028928201839052606082019290925261023e9190600461040c565b50604080516080810182526000815260056020820152600a91810191909152600f606082015261027290601f90600461040c565b506040805160808101825260008152600a602080830191909152601492820192909252601e60608201526102a89190600461040c565b506040805160808101825260008152600a6020820152601491810191909152600f60608201526102dc90602190600461040c565b506040805160a0810182526001815260026020820152600391810191909152600460608201526005608082018190526103179160179161040c565b506040805160a0810182526005808252600b6020830152601c92820192909252603c6060820152607d6080820152610352916018919061040c565b506040805160a0810182526745400a8fd53300008152678aa39c121a270000602082015268015ace5098e9030000918101919091526802b5c0282441c70000606082015268056ba3d73af34f000060808201526103b390601990600561054e565b5050610736565b600680546001600160a01b038381166001600160a01b0319831681179093556040519116919082907f8be0079c531659141344cd1fd0a4f28419497f9722a3daafe3b4186f6b6457e090600090a35050565b82805482825590600052602060002090601f016020900481019282156104a25791602002820160005b8382111561047357835183826101000a81548160ff021916908360ff1602179055509260200192600101602081600001049283019260010302610435565b80156104a05782816101000a81549060ff0219169055600101602081600001049283019260010302610473565b505b506104ae929150610594565b5090565b828054828255906000526020600020906007016008900481019282156104a25791602002820160005b8382111561051e57835183826101000a81548163ffffffff021916908362ffffff16021790555092602001926004016020816003010492830192600103026104db565b80156104a05782816101000a81549063ffffffff021916905560040160208160030104928301926001030261051e565b8280548282559060005260206000209081019282156104a2579160200282015b828111156104a257825182906001600160481b031690559160200191906001019061056e565b5b808211156104ae5760008155600101610595565b6000602082840312156105bb57600080fd5b81516001600160a01b03811681146105d257600080fd5b9392505050565b634e487b7160e01b600052604160045260246000fd5b600181811c9082168061060357607f821691505b60208210810361062357634e487b7160e01b600052602260045260246000fd5b50919050565b601f82111561067357806000526020600020601f840160051c810160208510156106505750805b601f840160051c820191505b81811015610670576000815560010161065c565b50505b505050565b81516001600160401b03811115610691576106916105d9565b6106a58161069f84546105ef565b84610629565b6020601f8211600181146106d957600083156106c15750848201515b600019600385901b1c1916600184901b178455610670565b600084815260208120601f198516915b8281101561070957878501518255602094850194600190920191016106e9565b50848210156107275786840151600019600387901b60f8161c191681555b50505050600190811b01905550565b615b78806107456000396000f3fe6080604052600436106103ad5760003560e01c806370a08231116101e757806398de45501161010d578063d08acd93116100a0578063e985e9c51161006f578063e985e9c514610c00578063f25a034214610c20578063f2fde38b14610c4d578063f9fd0db814610c6d57600080fd5b8063d08acd9314610b7d578063db74559b14610b93578063dd81d5bf14610bc0578063e653ca7f14610be057600080fd5b8063b662abf5116100dc578063b662abf514610ae8578063b88d4fde14610b08578063c87b56dd14610b28578063cfca9a7f14610b4857600080fd5b806398de455014610a6d5780639b29a07b14610a9d578063a22cb46514610ab2578063b4e847a014610ad257600080fd5b8063812df395116101855780638f270c2d116101545780638f270c2d146109e65780639596010114610a0657806395d89b4114610a38578063977216c214610a4d57600080fd5b8063812df395146109735780638163997c146109935780638c79d7e3146109a85780638da5cb5b146109c857600080fd5b8063776d62f6116101c1578063776d62f61461087057806379502c55146108b25780637d9e9d30146109335780637eebe99d1461095357600080fd5b806370a082311461080b578063715018a61461082b57806375bfe4201461084057600080fd5b80633130f7ce116102d75780634d4e8dfa1161026a578063612124311161023957806361212431146107955780636352211e146107b5578063643e7afd146107d55780636e0f7a48146107eb57600080fd5b80634d4e8dfa146106ef57806356a3ee771461072157806359e651e01461074e5780635c975abb1461077b57600080fd5b806342842e0e116102a657806342842e0e1461066b5780634346b1501461068b578063446c00f7146106ab57806348cfc19e146106cb57600080fd5b80633130f7ce146105d45780633ccfd60b146105f75780633f0bc9a51461060c5780634025b22d1461063e57600080fd5b806311a960cd1161034f578063172259411161031e57806317225941146105545780631d727ba51461057457806323b872dd14610594578063300eccab146105b457600080fd5b806311a960cd146104e157806311aaa5c91461050157806311bf541f1461051457806316c38b3c1461053457600080fd5b806306fdde031161038b57806306fdde031461042c578063074ba79d1461044e578063081812fc14610489578063095ea7b3146104c157600080fd5b806301ffc9a7146103b257806303075018146103e7578063053f5bbf1461040a575b600080fd5b3480156103be57600080fd5b506103d26103cd366004614274565b610c8d565b60405190151581526020015b60405180910390f35b3480156103f357600080fd5b506103fc610cdf565b6040516103de9291906142d0565b34801561041657600080fd5b5061042a6104253660046145c4565b6110a4565b005b34801561043857600080fd5b5061044161111e565b6040516103de91906146a5565b34801561045a57600080fd5b5061047b6104693660046146d8565b600c6020526000908152604090205481565b6040519081526020016103de565b34801561049557600080fd5b506104a96104a43660046146f5565b6111b0565b6040516001600160a01b0390911681526020016103de565b3480156104cd57600080fd5b5061042a6104dc36600461470e565b6111d9565b3480156104ed57600080fd5b5061042a6104fc36600461473a565b6111e8565b61042a61050f36600461475c565b6112bf565b34801561052057600080fd5b5061042a61052f36600461479e565b6113e8565b34801561054057600080fd5b5061042a61054f3660046147d4565b61140c565b34801561056057600080fd5b506025546104a9906001600160a01b031681565b34801561058057600080fd5b5061042a61058f36600461480c565b611427565b3480156105a057600080fd5b5061042a6105af3660046149a2565b61152e565b3480156105c057600080fd5b5061047b6105cf3660046146f5565b6115b3565b3480156105e057600080fd5b50601a5460405161ffff90911681526020016103de565b34801561060357600080fd5b5061042a6115d4565b34801561061857600080fd5b5061062c6106273660046146f5565b611687565b60405160ff90911681526020016103de565b34801561064a57600080fd5b5061065e6106593660046146f5565b6116bb565b6040516103de9190614bd6565b34801561067757600080fd5b5061042a6106863660046149a2565b61199a565b34801561069757600080fd5b5061042a6106a6366004614be9565b6119b5565b3480156106b757600080fd5b5061042a6106c63660046146f5565b611ad5565b3480156106d757600080fd5b506106e0611b24565b6040516103de93929190614c90565b3480156106fb57600080fd5b5061070f61070a3660046146f5565b611c6c565b6040516103de96959493929190614cc9565b34801561072d57600080fd5b5061047b61073c3660046146d8565b600d6020526000908152604090205481565b34801561075a57600080fd5b5061076e6107693660046146d8565b611f21565b6040516103de9190614d2b565b34801561078757600080fd5b506023546103d29060ff1681565b3480156107a157600080fd5b5061062c6107b03660046146f5565b611f45565b3480156107c157600080fd5b506104a96107d03660046146f5565b611f55565b3480156107e157600080fd5b5061047b60225481565b3480156107f757600080fd5b5061062c6108063660046146f5565b611f60565b34801561081757600080fd5b5061047b6108263660046146d8565b611f91565b34801561083757600080fd5b5061042a611fd9565b34801561084c57600080fd5b506103d261085b3660046146d8565b60246020526000908152604090205460ff1681565b34801561087c57600080fd5b50601a546108969061ffff81169062010000900460ff1682565b6040805161ffff909316835260ff9091166020830152016103de565b3480156108be57600080fd5b506011546012546013546014546015546016546108f1956001600160a01b03908116958116948116938116928116911686565b604080516001600160a01b03978816815295871660208701529386169385019390935290841660608401528316608083015290911660a082015260c0016103de565b34801561093f57600080fd5b5061042a61094e366004614d3e565b611fed565b34801561095f57600080fd5b5061042a61096e366004614d72565b612023565b34801561097f57600080fd5b5061042a61098e366004614da2565b6120ae565b34801561099f57600080fd5b5061042a6121c0565b3480156109b457600080fd5b5061042a6109c3366004614e24565b612247565b3480156109d457600080fd5b506006546001600160a01b03166104a9565b3480156109f257600080fd5b5061042a610a013660046146d8565b61227a565b348015610a1257600080fd5b506103d2610a213660046146f5565b600090815260086020526040902060070154151590565b348015610a4457600080fd5b506104416122a4565b348015610a5957600080fd5b5061042a610a683660046146f5565b6122b3565b348015610a7957600080fd5b506103d2610a883660046146d8565b600b6020526000908152604090205460ff1681565b348015610aa957600080fd5b5061042a6122c0565b348015610abe57600080fd5b5061042a610acd366004614e24565b61235a565b348015610ade57600080fd5b5061047b60095481565b348015610af457600080fd5b5061062c610b033660046146f5565b612365565b348015610b1457600080fd5b5061042a610b23366004614eb2565b612375565b348015610b3457600080fd5b50610441610b433660046146f5565b61238d565b348015610b5457600080fd5b50610b68610b633660046146f5565b612411565b60405163ffffffff90911681526020016103de565b348015610b8957600080fd5b5061047b60265481565b348015610b9f57600080fd5b5061047b610bae3660046146d8565b600e6020526000908152604090205481565b348015610bcc57600080fd5b5061042a610bdb3660046146f5565b61244b565b348015610bec57600080fd5b5061042a610bfb36600461470e565b6128cc565b348015610c0c57600080fd5b506103d2610c1b366004614f31565b61294c565b348015610c2c57600080fd5b50610c40610c3b366004614d3e565b61297a565b6040516103de9190614f5f565b348015610c5957600080fd5b5061042a610c683660046146d8565b612cfd565b348015610c7957600080fd5b5061042a610c883660046151df565b612d38565b60006001600160e01b031982166380ac58cd60e01b1480610cbe57506001600160e01b03198216635b5e139f60e01b145b80610cd957506301ffc9a760e01b6001600160e01b03198316145b92915050565b6000610d37604051806101200160405280600061ffff168152602001600060ff168152602001606081526020016060815260200160608152602001606081526020016060815260200160608152602001606081525090565b6022546040805161012081018252601a805461ffff8116835262010000900460ff16602080840191909152601b80548551818402810184018752818152939586949086019390929190830182828015610dcd57602002820191906000526020600020906000905b825461010083900a900460ff16815260206001928301818104948501949093039092029101808411610d9e5790505b5050505050815260200160028201805480602002602001604051908101604052809291908181526020018280548015610e4357602002820191906000526020600020906000905b825461010083900a900460ff16815260206001928301818104948501949093039092029101808411610e145790505b5050505050815260200160038201805480602002602001604051908101604052809291908181526020018280548015610eb957602002820191906000526020600020906000905b825461010083900a900460ff16815260206001928301818104948501949093039092029101808411610e8a5790505b5050505050815260200160048201805480602002602001604051908101604052809291908181526020018280548015610f2f57602002820191906000526020600020906000905b825461010083900a900460ff16815260206001928301818104948501949093039092029101808411610f005790505b5050505050815260200160058201805480602002602001604051908101604052809291908181526020018280548015610fa557602002820191906000526020600020906000905b825461010083900a900460ff16815260206001928301818104948501949093039092029101808411610f765790505b505050505081526020016006820180548060200260200160405190810160405280929190818152602001828054801561101b57602002820191906000526020600020906000905b825461010083900a900460ff16815260206001928301818104948501949093039092029101808411610fec5790505b505050505081526020016007820180548060200260200160405190810160405280929190818152602001828054801561109157602002820191906000526020600020906000905b825461010083900a900460ff168152602060019283018181049485019490930390920291018084116110625790505b5050505050815250509050915091509091565b6110ac61311c565b815183511415806110bf57508051825114155b156110dd5760405163512509d360e11b815260040160405180910390fd5b82516110f0906017906020860190614071565b508151611104906018906020850190614071565b508051611118906019906020840190614117565b50505050565b60606000805461112d906152c2565b80601f0160208091040260200160405190810160405280929190818152602001828054611159906152c2565b80156111a65780601f1061117b576101008083540402835291602001916111a6565b820191906000526020600020905b81548152906001019060200180831161118957829003601f168201915b5050505050905090565b60006111bb82613149565b506000828152600460205260409020546001600160a01b0316610cd9565b6111e4828233613182565b5050565b6006546001600160a01b0316331480159061120e57506011546001600160a01b03163314155b1561123357604051634a0bfec160e01b81523360048201526024015b60405180910390fd5b600082815260086020526040808220426007909101558282528120600601805463ffffffff169161126383615312565b91906101000a81548163ffffffff021916908363ffffffff160217905550507ff8e1a15aba9398e019f0b49df1a4fde98ee17ae345cb5f6b5e2c27f5033e8ce7826040516112b391815260200190565b60405180910390a15050565b6112c761318f565b601982815481106112da576112da615337565b9060005260206000200154341461130d576040516312a1605d60e31b81526004810183905234602482015260440161122a565b6001600160a01b0381166113345760405163119833d760e11b815260040160405180910390fd5b60006018838154811061134957611349615337565b60009182526020808320908204015460ff601f9092166101000a90041691505b818110156113825761137a856131b9565b600101611369565b506113ab82826019868154811061139b5761139b615337565b90600052602060002001546132b0565b6001600160a01b0384166000908152600c6020526040812080548392906113d390849061534d565b9091555050600160075550505050565b505050565b6113f061311c565b6023805462ffff00191660ff9290921661010002919091179055565b61141461311c565b6023805460ff1916911515919091179055565b61142f61311c565b6022805490600061143f83615360565b90915550508051601a805460208085015160ff16620100000262ffffff1990921661ffff9094169390931717815560408301518051849361148592601b92910190614071565b50606082015180516114a1916002840191602090910190614071565b50608082015180516114bd916003840191602090910190614071565b5060a082015180516114d9916004840191602090910190614071565b5060c082015180516114f5916005840191602090910190614071565b5060e08201518051611511916006840191602090910190614071565b506101008201518051611118916007840191602090910190614071565b6001600160a01b03821661155857604051633250574960e11b81526000600482015260240161122a565b600061156583833361345c565b9050836001600160a01b0316816001600160a01b031614611118576040516364283d7b60e01b81526001600160a01b038086166004830152602482018490528216604482015260640161122a565b601981815481106115c357600080fd5b600091825260209091200154905081565b6115dc61311c565b60006115f06006546001600160a01b031690565b6001600160a01b03164760405160006040518083038185875af1925050503d806000811461163a576040519150601f19603f3d011682016040523d82523d6000602084013e61163f565b606091505b50509050806116845760405162461bcd60e51b815260206004820152601160248201527015da5d1a191c985dd85b0819985a5b1959607a1b604482015260640161122a565b50565b6017818154811061169757600080fd5b9060005260206000209060209182820401919006915054906101000a900460ff1681565b6116c3614152565b60008281526008602052604090819020815160c081019092528054829082906116eb906152c2565b80601f0160208091040260200160405190810160405280929190818152602001828054611717906152c2565b80156117645780601f1061173957610100808354040283529160200191611764565b820191906000526020600020905b81548152906001019060200180831161174757829003601f168201915b5050509183525050600182015460208201526040805160808101825260028401805492909301929091829060ff1660038111156117a3576117a36149e3565b60038111156117b4576117b46149e3565b81528154602090910190610100900460ff1660038111156117d7576117d76149e3565b60038111156117e8576117e86149e3565b8152815460209091019062010000900460ff16600381111561180c5761180c6149e3565b600381111561181d5761181d6149e3565b815281546020909101906301000000900460ff166003811115611842576118426149e3565b6003811115611853576118536149e3565b90525081526040805160c080820183526003850154825282518082018452600486015461ffff808216835260ff62010000808404821660208681019190915263010000008086048416878b015264010000000080870486166060808a0191909152600160301b80890487166080808c0191909152600160381b909904871660a0808c01919091528c86019a909a5260058f01548088168d8f015261010081048816838e01529586048716898d0152929094048516888b0152828c0199909952895160e081018b5260068d015463ffffffff81168252998a04861692810192909252880490931683890152600160401b87048216151583820152600160481b87048216151593830193909352600160501b909504909416151591840191909152600786015491830191909152918301526008909201546001600160a01b031691015292915050565b6113e383838360405180602001604052806000815250612375565b6119bd61318f565b6000805b82811015611a5e5760008484838181106119dd576119dd615337565b6020908102929092013560008181526008938490526040902090920154919250506001600160a01b03163314611a285760405162dd34af60e41b81526004810182905260240161122a565b600081815260086020526040902042600790910155611a4681613650565b602654611a53908461534d565b9250506001016119c1565b508015611aca576025546040516340c10f1960e01b8152336004820152602481018390526001600160a01b03909116906340c10f1990604401600060405180830381600087803b158015611ab157600080fd5b505af1158015611ac5573d6000803e3d6000fd5b505050505b506111e46001600755565b6006546001600160a01b03163314801590611afb57506011546001600160a01b03163314155b15611b1b57604051634a0bfec160e01b815233600482015260240161122a565b6116848161368b565b606080606060176018601982805480602002602001604051908101604052809291908181526020018280548015611b9857602002820191906000526020600020906000905b825461010083900a900460ff16815260206001928301818104948501949093039092029101808411611b695790505b5050505050925081805480602002602001604051908101604052809291908181526020018280548015611c0857602002820191906000526020600020906000905b825461010083900a900460ff16815260206001928301818104948501949093039092029101808411611bd95790505b5050505050915080805480602002602001604051908101604052809291908181526020018280548015611c5a57602002820191906000526020600020905b815481526020019060010190808311611c46575b50505050509050925092509250909192565b600860205260009081526040902080548190611c87906152c2565b80601f0160208091040260200160405190810160405280929190818152602001828054611cb3906152c2565b8015611d005780601f10611cd557610100808354040283529160200191611d00565b820191906000526020600020905b815481529060010190602001808311611ce357829003601f168201915b505050505090806001015490806002016040518060800160405290816000820160009054906101000a900460ff166003811115611d3f57611d3f6149e3565b6003811115611d5057611d506149e3565b81528154602090910190610100900460ff166003811115611d7357611d736149e3565b6003811115611d8457611d846149e3565b8152815460209091019062010000900460ff166003811115611da857611da86149e3565b6003811115611db957611db96149e3565b815281546020909101906301000000900460ff166003811115611dde57611dde6149e3565b6003811115611def57611def6149e3565b9052506040805160c080820183526003850154825282518082018452600486015461ffff808216835260ff62010000808404821660208681019190915263010000008086048416878b015264010000000080870486166060808a0191909152600160301b80890487166080808c0191909152600160381b909904871660a0808c0191909152858d019a909a5260058f01548088168d8f015261010081048816838e01529586048716898d0152929094048516888b01528a5160e081018c5260068e015463ffffffff8116825291820487169381019390935290810490941698810198909852600160401b83048216151590880152600160481b82048116151592870192909252600160501b9004161515908401526007850154908301526008909301549192916001600160a01b031686565b6001600160a01b0381166000908152600a60205260409020606090610cd99061392d565b6018818154811061169757600080fd5b6000610cd982613149565b60006032821015611f7357506000919050565b6050821015611f8457506001919050565b506002919050565b919050565b60006001600160a01b038216611fbd576040516322718ad960e21b81526000600482015260240161122a565b506001600160a01b031660009081526003602052604090205490565b611fe161311c565b611feb6000613941565b565b60005b81518110156111e45761201b82828151811061200e5761200e615337565b602002602001015161244b565b600101611ff0565b6012546001600160a01b0316331480159061204957506011546001600160a01b03163314155b801561206057506013546001600160a01b03163314155b1561208057604051634a0bfec160e01b815233600482015260240161122a565b6000918252600860205260409091206006018054911515600160501b0260ff60501b19909216919091179055565b6120b661311c565b6001600160a01b038616156120e157601180546001600160a01b0319166001600160a01b0388161790555b6001600160a01b0385161561210c57601280546001600160a01b0319166001600160a01b0387161790555b6001600160a01b0384161561213757601380546001600160a01b0319166001600160a01b0386161790555b6001600160a01b0383161561216257601680546001600160a01b0319166001600160a01b0385161790555b6001600160a01b0382161561218d57601580546001600160a01b0319166001600160a01b0384161790555b6001600160a01b038116156121b857601480546001600160a01b0319166001600160a01b0383161790555b505050505050565b336000908152600a602052604081206121d89061392d565b905060005b81518110156111e457600860008383815181106121fc576121fc615337565b6020026020010151815260200190815260200160002060060160000160099054906101000a900460ff1661223f5761223f82828151811061200e5761200e615337565b6001016121dd565b61224f61311c565b6001600160a01b03919091166000908152602460205260409020805460ff1916911515919091179055565b61228261311c565b602580546001600160a01b0319166001600160a01b0392909216919091179055565b60606001805461112d906152c2565b6122bb61311c565b602655565b336000908152600b602052604090205460ff16156123205760405162461bcd60e51b815260206004820152601a60248201527f416c726561647920636c61696d65642066726565207368697073000000000000604482015260640161122a565b60005b600a81101561233d57612335336131b9565b600101612323565b50336000908152600b60205260409020805460ff19166001179055565b6111e4338383613993565b600f818154811061169757600080fd5b61238084848461152e565b6111183385858585613a32565b601454600082815260086020526040908190209051635512ecf560e01b81526060926001600160a01b031691635512ecf5916123cc91906004016154c6565b600060405180830381865afa1580156123e9573d6000803e3d6000fd5b505050506040513d6000823e601f3d908101601f19168201604052610cd991908101906155fd565b6010818154811061242157600080fd5b9060005260206000209060089182820401919006600402915054906101000a900463ffffffff1681565b6040518181527ff8e1a15aba9398e019f0b49df1a4fde98ee17ae345cb5f6b5e2c27f5033e8ce79060200160405180910390a16000818152600860208190526040909120908101546001600160a01b031633146124bd5760405162dd34af60e41b81526004810183905260240161122a565b6006810154600160481b900460ff16156124ed57604051635331ce1f60e11b81526004810183905260240161122a565b6015546003820154604051632f09b60960e21b815260048101919091526000916001600160a01b03169063bc26d824906024016020604051808303816000875af115801561253f573d6000803e3d6000fd5b505050506040513d601f19601f820116820180604052508101906125639190615631565b6016546003840154602354604051637017ac9560e11b81526004810188905260248101929092526001600160401b0384166044830152610100900461ffff1660648201529192506000916001600160a01b039091169063e02f592a90608401600060405180830381865afa1580156125df573d6000803e3d6000fd5b505050506040513d6000823e601f3d908101601f191682016040526126079190810190615804565b80519091508390612618908261596a565b508060600151836003016000820151816000015560208201518160010160008201518160000160006101000a81548161ffff021916908361ffff16021790555060208201518160000160026101000a81548160ff021916908360ff16021790555060408201518160000160036101000a81548160ff021916908360ff16021790555060608201518160000160046101000a81548161ffff021916908361ffff16021790555060808201518160000160066101000a81548160ff021916908360ff16021790555060a08201518160000160076101000a81548160ff021916908360ff160217905550505060408201518160020160006101000a81548160ff021916908360ff16021790555060608201518160020160016101000a81548160ff021916908360ff16021790555060808201518160020160026101000a81548160ff021916908360ff16021790555060a08201518160020160036101000a81548160ff021916908360ff16021790555090505080604001518360020160008201518160000160006101000a81548160ff021916908360038111156127bb576127bb6149e3565b021790555060208201518154829061ff0019166101008360038111156127e3576127e36149e3565b021790555060408201518154829062ff000019166201000083600381111561280d5761280d6149e3565b021790555060608201518154829063ff00000019166301000000836003811115612839576128396149e3565b0217905550505060808101516060810151600685018054925163ffffffff1663ffffffff19921515600160401b0292831668ff00000000ffffffff1985161781178255601a5460ff60481b1964010000000061ffff9092169190910265ffffffffffff1990941668ff0000ffffffffffff1990951694909417179190911791909116600160481b1790556111188461368b565b3360009081526024602052604090205460ff166128fe57604051634a0bfec160e01b815233600482015260240161122a565b60005b8181101561291a57612912836131b9565b600101612901565b506001600160a01b0382166000908152600c60205260408120805483929061294390849061534d565b90915550505050565b6001600160a01b03918216600090815260056020908152604080832093909416825291909152205460ff1690565b6060600082516001600160401b03811115612997576129976143de565b6040519080825280602002602001820160405280156129d057816020015b6129bd614152565b8152602001906001900390816129b55790505b50905060005b8351811015612cf657600860008583815181106129f5576129f5615337565b602002602001015181526020019081526020016000206040518060c0016040529081600082018054612a26906152c2565b80601f0160208091040260200160405190810160405280929190818152602001828054612a52906152c2565b8015612a9f5780601f10612a7457610100808354040283529160200191612a9f565b820191906000526020600020905b815481529060010190602001808311612a8257829003601f168201915b5050509183525050600182015460208201526040805160808101825260028401805492909301929091829060ff166003811115612ade57612ade6149e3565b6003811115612aef57612aef6149e3565b81528154602090910190610100900460ff166003811115612b1257612b126149e3565b6003811115612b2357612b236149e3565b8152815460209091019062010000900460ff166003811115612b4757612b476149e3565b6003811115612b5857612b586149e3565b815281546020909101906301000000900460ff166003811115612b7d57612b7d6149e3565b6003811115612b8e57612b8e6149e3565b90525081526040805160c080820183526003850154825282518082018452600486015461ffff808216835260ff62010000808404821660208681019190915263010000008086048416878b015264010000000080870486166060808a0191909152600160301b80890487166080808c0191909152600160381b909904871660a0808c01919091528c86019a909a5260058f01548088168d8f015261010081048816838e01529586048716898d0152929094048516888b0152828c0199909952895160e081018b5260068d015463ffffffff81168252998a04861692810192909252880490931683890152600160401b87048216151583820152600160481b87048216151593830193909352600160501b909504909416151591840191909152600786015491830191909152918301526008909201546001600160a01b03169101528251839083908110612ce357612ce3615337565b60209081029190910101526001016129d6565b5092915050565b612d0561311c565b6001600160a01b038116612d2f57604051631e4fbdf760e01b81526000600482015260240161122a565b61168481613941565b6040518281527ff8e1a15aba9398e019f0b49df1a4fde98ee17ae345cb5f6b5e2c27f5033e8ce79060200160405180910390a1600082815260086020908152604080832033845260249092529091205460ff16612daa57604051634a0bfec160e01b815233600482015260240161122a565b6006810154600160481b900460ff1615612dda57604051635331ce1f60e11b81526004810184905260240161122a565b601654600382015460405163df1c0f1d60e01b81526000926001600160a01b03169163df1c0f1d91612e129188918890600401615a28565b600060405180830381865afa158015612e2f573d6000803e3d6000fd5b505050506040513d6000823e601f3d908101601f19168201604052612e579190810190615804565b80519091508290612e68908261596a565b508060600151826003016000820151816000015560208201518160010160008201518160000160006101000a81548161ffff021916908361ffff16021790555060208201518160000160026101000a81548160ff021916908360ff16021790555060408201518160000160036101000a81548160ff021916908360ff16021790555060608201518160000160046101000a81548161ffff021916908361ffff16021790555060808201518160000160066101000a81548160ff021916908360ff16021790555060a08201518160000160076101000a81548160ff021916908360ff160217905550505060408201518160020160006101000a81548160ff021916908360ff16021790555060608201518160020160016101000a81548160ff021916908360ff16021790555060808201518160020160026101000a81548160ff021916908360ff16021790555060a08201518160020160036101000a81548160ff021916908360ff16021790555090505080604001518260020160008201518160000160006101000a81548160ff0219169083600381111561300b5761300b6149e3565b021790555060208201518154829061ff001916610100836003811115613033576130336149e3565b021790555060408201518154829062ff000019166201000083600381111561305d5761305d6149e3565b021790555060608201518154829063ff00000019166301000000836003811115613089576130896149e3565b0217905550505060808101516060810151600684018054925163ffffffff1663ffffffff19921515600160401b0292831668ff00000000ffffffff1985161781178255601a5460ff60481b1964010000000061ffff9092169190910265ffffffffffff1990941668ff0000ffffffffffff1990951694909417179190911791909116600160481b1790556111188461368b565b6006546001600160a01b03163314611feb5760405163118cdaa760e01b815233600482015260240161122a565b6000818152600260205260408120546001600160a01b031680610cd957604051637e27328960e01b81526004810184905260240161122a565b6113e38383836001613b5b565b6002600754036131b257604051633ee5aeb560e01b815260040160405180910390fd5b6002600755565b60235460ff16156131dd57604051636be9245d60e11b815260040160405180910390fd5b600980549060006131ed83615360565b909155505060095460008181526008602090815260408083206001810194909455601554815163f8413b0760e01b815291516001600160a01b039091169363f8413b07936004848101949193929183900301908290875af1158015613256573d6000803e3d6000fd5b505050506040513d601f19601f8201168201806040525081019061327a9190615a47565b600382015560095461328d908390613c61565b60080180546001600160a01b0319166001600160a01b0392909216919091179055565b6001600160a01b0383166000908152600e6020526040812080548492906132d890849061534d565b90915550506010546001905b801561339e5760106132f7600183615a60565b8154811061330757613307615337565b600091825260208083206008830401546001600160a01b0389168452600e90915260409092205460079091166004026101000a90910463ffffffff161161338c57600f613355600183615a60565b8154811061336557613365615337565b60009182526020918290209181049091015460ff601f9092166101000a900416915061339e565b8061339681615a73565b9150506132e4565b50600060646133ad8385615a8a565b6133b79190615aa1565b90506000856001600160a01b03168260405160006040518083038185875af1925050503d8060008114613406576040519150601f19603f3d011682016040523d82523d6000602084013e61340b565b606091505b50509050806121b85760405162461bcd60e51b815260206004820152601860248201527f526566657272616c207472616e73666572206661696c65640000000000000000604482015260640161122a565b60006001600160a01b038416156134bd57600083815260086020526040902060070154156134bd5760405162461bcd60e51b815260206004820152600e60248201526d14da1a5c0819195cdd1c9bde595960921b604482015260640161122a565b600083815260086020526040902060060154600160501b900460ff16156134fa5760405163128379f760e11b81526004810184905260240161122a565b600083815260086020819052604090912001546001600160a01b031680156135de576001600160a01b0381166000908152600c6020526040902054600a111561356157604051637c0df70b60e11b81526001600160a01b038216600482015260240161122a565b6001600160a01b0385161580159061359157506001600160a01b0385166000908152600c6020526040902054600a115b156135ba57604051637c0df70b60e11b81526001600160a01b038616600482015260240161122a565b6001600160a01b0381166000908152600a602052604090206135dc9085613c7b565b505b6001600160a01b0385161561363c576001600160a01b0385166000908152600a6020526040902061360f9085613c87565b5060008481526008602081905260409091200180546001600160a01b0319166001600160a01b0387161790555b613647858585613c93565b95945050505050565b600061365f600083600061345c565b90506001600160a01b0381166111e457604051637e27328960e01b81526004810183905260240161122a565b600081815260086020526040812060028101549091906021906301000000900460ff1660038111156136bf576136bf6149e3565b60ff16815481106136d2576136d2615337565b600091825260209182902082820401546002850154601f9092166101000a900460ff9081169291620100009004166003811115613711576137116149e3565b60ff168154811061372457613724615337565b600091825260209182902091810490910154600285015460ff601f93841661010090810a90930481169392909104166003811115613764576137646149e3565b60ff168154811061377757613777615337565b600091825260209182902091810490910154600286015460ff601f9093166101000a909104821691601e911660038111156137b4576137b46149e3565b60ff16815481106137c7576137c7615337565b6000918252602091829020918104909101546005870154601d8054601f9094166101000a90920460ff9081169363010000009092041690811061380c5761380c615337565b6000918252602091829020918104909101546005880154601c8054601f9094166101000a90920460ff90811693620100009092041690811061385057613850615337565b6000918252602091829020918104909101546005890154601b805460ff601f90951661010090810a90940485169491939092041690811061389357613893615337565b600091825260209182902091810490910154601a546138c892601f166101000a90910460ff9081169162010000900416615ac3565b6138d29190615ac3565b6138dc9190615ac3565b6138e69190615ac3565b6138f09190615ac3565b6138fa9190615ac3565b6139049190615ac3565b600692909201805467ffff000000000000191660ff909316600160301b02929092179091555050565b6060600061393a83613d8c565b9392505050565b600680546001600160a01b038381166001600160a01b0319831681179093556040519116919082907f8be0079c531659141344cd1fd0a4f28419497f9722a3daafe3b4186f6b6457e090600090a35050565b6001600160a01b0382166139c557604051630b61174360e31b81526001600160a01b038316600482015260240161122a565b6001600160a01b03838116600081815260056020908152604080832094871680845294825291829020805460ff191686151590811790915591519182527f17307eab39ab6107e8899845ad3d59bd9653f200f220920489ca2b5937696c31910160405180910390a3505050565b6001600160a01b0383163b15613b5457604051630a85bd0160e11b81526001600160a01b0384169063150b7a0290613a74908890889087908790600401615adc565b6020604051808303816000875af1925050508015613aaf575060408051601f3d908101601f19168201909252613aac91810190615b0f565b60015b613b18573d808015613add576040519150601f19603f3d011682016040523d82523d6000602084013e613ae2565b606091505b508051600003613b1057604051633250574960e11b81526001600160a01b038516600482015260240161122a565b805181602001fd5b6001600160e01b03198116630a85bd0160e11b146121b857604051633250574960e11b81526001600160a01b038516600482015260240161122a565b5050505050565b8080613b6f57506001600160a01b03821615155b15613c31576000613b7f84613149565b90506001600160a01b03831615801590613bab5750826001600160a01b0316816001600160a01b031614155b8015613bbe5750613bbc818461294c565b155b15613be75760405163a9fbf51f60e01b81526001600160a01b038416600482015260240161122a565b8115613c2f5783856001600160a01b0316826001600160a01b03167f8c5be1e5ebec7d5bd14f71427d1e84f3dd0314c0f7b2291e5b200ac8c7c3b92560405160405180910390a45b505b5050600090815260046020526040902080546001600160a01b0319166001600160a01b0392909216919091179055565b6111e4828260405180602001604052806000815250613de8565b600061393a8383613e00565b600061393a8383613ef3565b6000828152600260205260408120546001600160a01b0390811690831615613cc057613cc0818486613f42565b6001600160a01b03811615613cfe57613cdd600085600080613b5b565b6001600160a01b038116600090815260036020526040902080546000190190555b6001600160a01b03851615613d2d576001600160a01b0385166000908152600360205260409020805460010190555b60008481526002602052604080822080546001600160a01b0319166001600160a01b0389811691821790925591518793918516917fddf252ad1be2c89b69c2b068fc378daa952ba7f163c4a11628f55a4df523b3ef91a4949350505050565b606081600001805480602002602001604051908101604052809291908181526020018280548015613ddc57602002820191906000526020600020905b815481526020019060010190808311613dc8575b50505050509050919050565b613df28383613fa6565b6113e3336000858585613a32565b60008181526001830160205260408120548015613ee9576000613e24600183615a60565b8554909150600090613e3890600190615a60565b9050808214613e9d576000866000018281548110613e5857613e58615337565b9060005260206000200154905080876000018481548110613e7b57613e7b615337565b6000918252602080832090910192909255918252600188019052604090208390555b8554869080613eae57613eae615b2c565b600190038181906000526020600020016000905590558560010160008681526020019081526020016000206000905560019350505050610cd9565b6000915050610cd9565b6000818152600183016020526040812054613f3a57508154600181810184556000848152602080822090930184905584548482528286019093526040902091909155610cd9565b506000610cd9565b613f4d83838361400b565b6113e3576001600160a01b038316613f7b57604051637e27328960e01b81526004810182905260240161122a565b60405163177e802f60e01b81526001600160a01b03831660048201526024810182905260440161122a565b6001600160a01b038216613fd057604051633250574960e11b81526000600482015260240161122a565b6000613fde8383600061345c565b90506001600160a01b038116156113e3576040516339e3563760e11b81526000600482015260240161122a565b60006001600160a01b038316158015906140695750826001600160a01b0316846001600160a01b031614806140455750614045848461294c565b8061406957506000828152600460205260409020546001600160a01b038481169116145b949350505050565b82805482825590600052602060002090601f016020900481019282156141075791602002820160005b838211156140d857835183826101000a81548160ff021916908360ff160217905550926020019260010160208160000104928301926001030261409a565b80156141055782816101000a81549060ff02191690556001016020816000010492830192600103026140d8565b505b50614113929150614249565b5090565b828054828255906000526020600020908101928215614107579160200282015b82811115614107578251825591602001919060010190614137565b6040518060c0016040528060608152602001600081526020016141966040805160808101909152806000815260200160008152602001600081526020016000905290565b81526020016142006040805160c080820183526000808352835191820184528082526020828101829052938201819052606082018190526080820181905260a082015290918201908152600060208201819052604082018190526060820181905260809091015290565b81526040805160e08101825260008082526020828101829052928201819052606082018190526080820181905260a0820181905260c08201529101908152600060209091015290565b5b80821115614113576000815560010161424a565b6001600160e01b03198116811461168457600080fd5b60006020828403121561428657600080fd5b813561393a8161425e565b600081518084526020840193506020830160005b828110156142c657815160ff168652602095860195909101906001016142a5565b5093949350505050565b828152604060208201526142eb60408201835161ffff169052565b60006020830151614301606084018260ff169052565b506040830151610120608084015261431d610160840182614291565b90506060840151603f198483030160a085015261433a8282614291565b9150506080840151603f198483030160c08501526143588282614291565b91505060a0840151603f198483030160e08501526143768282614291565b91505060c0840151603f19848303016101008501526143958282614291565b91505060e0840151603f19848303016101208501526143b48282614291565b915050610100840151603f19848303016101408501526143d48282614291565b9695505050505050565b634e487b7160e01b600052604160045260246000fd5b60405161012081016001600160401b0381118282101715614417576144176143de565b60405290565b604051608081016001600160401b0381118282101715614417576144176143de565b60405160c081016001600160401b0381118282101715614417576144176143de565b60405160e081016001600160401b0381118282101715614417576144176143de565b604051601f8201601f191681016001600160401b03811182821017156144ab576144ab6143de565b604052919050565b60006001600160401b038211156144cc576144cc6143de565b5060051b60200190565b60ff8116811461168457600080fd5b8035611f8c816144d6565b600082601f83011261450157600080fd5b813561451461450f826144b3565b614483565b8082825260208201915060208360051b86010192508583111561453657600080fd5b602085015b8381101561455c57803561454e816144d6565b83526020928301920161453b565b5095945050505050565b600082601f83011261457757600080fd5b813561458561450f826144b3565b8082825260208201915060208360051b8601019250858311156145a757600080fd5b602085015b8381101561455c5780358352602092830192016145ac565b6000806000606084860312156145d957600080fd5b83356001600160401b038111156145ef57600080fd5b6145fb868287016144f0565b93505060208401356001600160401b0381111561461757600080fd5b614623868287016144f0565b92505060408401356001600160401b0381111561463f57600080fd5b61464b86828701614566565b9150509250925092565b60005b83811015614670578181015183820152602001614658565b50506000910152565b60008151808452614691816020860160208601614655565b601f01601f19169290920160200192915050565b60208152600061393a6020830184614679565b6001600160a01b038116811461168457600080fd5b8035611f8c816146b8565b6000602082840312156146ea57600080fd5b813561393a816146b8565b60006020828403121561470757600080fd5b5035919050565b6000806040838503121561472157600080fd5b823561472c816146b8565b946020939093013593505050565b6000806040838503121561474d57600080fd5b50508035926020909101359150565b60008060006060848603121561477157600080fd5b833561477c816146b8565b9250602084013591506040840135614793816146b8565b809150509250925092565b6000602082840312156147b057600080fd5b813561393a816144d6565b801515811461168457600080fd5b8035611f8c816147bb565b6000602082840312156147e657600080fd5b813561393a816147bb565b61ffff8116811461168457600080fd5b8035611f8c816147f1565b60006020828403121561481e57600080fd5b81356001600160401b0381111561483457600080fd5b8201610120818503121561484757600080fd5b61484f6143f4565b61485882614801565b8152614866602083016144e5565b602082015260408201356001600160401b0381111561488457600080fd5b614890868285016144f0565b60408301525060608201356001600160401b038111156148af57600080fd5b6148bb868285016144f0565b60608301525060808201356001600160401b038111156148da57600080fd5b6148e6868285016144f0565b60808301525060a08201356001600160401b0381111561490557600080fd5b614911868285016144f0565b60a08301525060c08201356001600160401b0381111561493057600080fd5b61493c868285016144f0565b60c08301525060e08201356001600160401b0381111561495b57600080fd5b614967868285016144f0565b60e0830152506101008201356001600160401b0381111561498757600080fd5b614993868285016144f0565b61010083015250949350505050565b6000806000606084860312156149b757600080fd5b83356149c2816146b8565b925060208401356149d2816146b8565b929592945050506040919091013590565b634e487b7160e01b600052602160045260246000fd5b6004811061168457634e487b7160e01b600052602160045260246000fd5b8051614a22816149f9565b82526020810151614a32816149f9565b60208301526040810151614a45816149f9565b60408301526060810151614a58816149f9565b806060840152505050565b80518252602081015161ffff815116602084015260ff602082015116604084015260ff604082015116606084015261ffff606082015116608084015260ff60808201511660a084015260ff60a08201511660c0840152506040810151614ace60e084018260ff169052565b50606081015160ff9081166101008401526080820151811661012084015260a0909101511661014090910152565b63ffffffff815116825261ffff602082015116602083015261ffff604082015116604083015260608101511515606083015260808101511515608083015260a0810151614b4d60a084018215159052565b5060c090810151910152565b600081516103208452614b70610320850182614679565b9050602083015160208501526040830151614b8e6040860182614a17565b506060830151614ba160c0860182614a63565b506080830151614bb5610220860182614afc565b5060a092909201516001600160a01b03166103009390930192909252919050565b60208152600061393a6020830184614b59565b60008060208385031215614bfc57600080fd5b82356001600160401b03811115614c1257600080fd5b8301601f81018513614c2357600080fd5b80356001600160401b03811115614c3957600080fd5b8560208260051b8401011115614c4e57600080fd5b6020919091019590945092505050565b600081518084526020840193506020830160005b828110156142c6578151865260209586019590910190600101614c72565b606081526000614ca36060830186614291565b8281036020840152614cb58186614291565b905082810360408401526143d48185614c5e565b61032081526000614cde610320830189614679565b9050866020830152614cf36040830187614a17565b614d0060c0830186614a63565b614d0e610220830185614afc565b6001600160a01b0392909216610300919091015295945050505050565b60208152600061393a6020830184614c5e565b600060208284031215614d5057600080fd5b81356001600160401b03811115614d6657600080fd5b61406984828501614566565b60008060408385031215614d8557600080fd5b823591506020830135614d97816147bb565b809150509250929050565b60008060008060008060c08789031215614dbb57600080fd5b8635614dc6816146b8565b95506020870135614dd6816146b8565b94506040870135614de6816146b8565b93506060870135614df6816146b8565b92506080870135614e06816146b8565b915060a0870135614e16816146b8565b809150509295509295509295565b60008060408385031215614e3757600080fd5b8235614e42816146b8565b91506020830135614d97816147bb565b60006001600160401b03821115614e6b57614e6b6143de565b50601f01601f191660200190565b6000614e8761450f84614e52565b9050828152838383011115614e9b57600080fd5b828260208301376000602084830101529392505050565b60008060008060808587031215614ec857600080fd5b8435614ed3816146b8565b93506020850135614ee3816146b8565b92506040850135915060608501356001600160401b03811115614f0557600080fd5b8501601f81018713614f1657600080fd5b614f2587823560208401614e79565b91505092959194509250565b60008060408385031215614f4457600080fd5b8235614f4f816146b8565b91506020830135614d97816146b8565b6000602082016020835280845180835260408501915060408160051b86010192506020860160005b82811015614fb857603f19878603018452614fa3858351614b59565b94506020938401939190910190600101614f87565b50929695505050505050565b6004811061168457600080fd5b600060808284031215614fe357600080fd5b614feb61441d565b90508135614ff881614fc4565b8152602082013561500881614fc4565b6020820152604082013561501b81614fc4565b6040820152606082013561502e81614fc4565b606082015292915050565b600081830361016081121561504d57600080fd5b61505561443f565b83358152915060c0601f198201121561506d57600080fd5b5061507661443f565b6020830135615084816147f1565b81526040830135615094816144d6565b602082015260608301356150a7816144d6565b604082015260808301356150ba816147f1565b606082015260a08301356150cd816144d6565b608082015260c08301356150e0816144d6565b60a082015260208201526150f660e083016144e5565b604082015261510861010083016144e5565b606082015261511a61012083016144e5565b608082015261512c61014083016144e5565b60a082015292915050565b63ffffffff8116811461168457600080fd5b600060e0828403121561515b57600080fd5b615163614461565b9050813561517081615137565b81526020820135615180816147f1565b60208201526040820135615193816147f1565b604082015260608201356151a6816147bb565b60608201526151b7608083016147c9565b60808201526151c860a083016147c9565b60a082015260c09182013591810191909152919050565b600080604083850312156151f257600080fd5b8235915060208301356001600160401b0381111561520f57600080fd5b8301610320818603121561522257600080fd5b61522a61443f565b81356001600160401b0381111561524057600080fd5b8201601f8101871361525157600080fd5b61526087823560208401614e79565b8252506020828101359082015261527a8660408401614fd1565b604082015261528c8660c08401615039565b606082015261529f866102208401615149565b60808201526152b161030083016146cd565b60a082015280925050509250929050565b600181811c908216806152d657607f821691505b6020821081036152f657634e487b7160e01b600052602260045260246000fd5b50919050565b634e487b7160e01b600052601160045260246000fd5b600063ffffffff821663ffffffff810361532e5761532e6152fc565b60010192915050565b634e487b7160e01b600052603260045260246000fd5b80820180821115610cd957610cd96152fc565b600060018201615372576153726152fc565b5060010190565b805460ff8116615388816149f9565b8352600881901c60ff1661539b816149f9565b6020840152601081901c60ff166153b1816149f9565b604084015260181c60ff16614a58816149f9565b80548252600181015461ffff8116602084015260ff8160101c16604084015260ff8160181c16606084015261ffff8160201c16608084015261541260a0840160ff8360301c1660ff169052565b60381c60ff90811660c08401526002919091015480821660e0840152600881901c8216610100840152601081901c821661012084015260181c1661014090910152565b805463ffffffff8116835261ffff8160201c16602084015261ffff808260301c161660408401526154906060840160ff8360401c1615159052565b6154a46080840160ff8360481c1615159052565b6154b860a0840160ff8360501c1615159052565b506001015460c09190910152565b60208152610320602082015260008083546154e0816152c2565b806103408601526001821660008114615500576001811461551e57615554565b60ff19831661036087015261036082151560051b8701019350615554565b86600052602060002060005b8381101561554a578154888201610360015260019091019060200161552a565b8701610360019450505b505050600184015460408401526155716060840160028601615379565b61558160e08401600386016153c5565b615592610240840160068601615455565b60088401546001600160a01b03166001600160a01b038116610320850152509392505050565b600082601f8301126155c957600080fd5b81516155d761450f82614e52565b8181528460208386010111156155ec57600080fd5b614069826020830160208701614655565b60006020828403121561560f57600080fd5b81516001600160401b0381111561562557600080fd5b614069848285016155b8565b60006020828403121561564357600080fd5b81516001600160401b038116811461393a57600080fd5b8051611f8c816144d6565b600081830361016081121561567957600080fd5b61568161443f565b83518152915060c0601f198201121561569957600080fd5b506156a261443f565b60208301516156b0816147f1565b815260408301516156c0816144d6565b602082015260608301516156d3816144d6565b604082015260808301516156e6816147f1565b606082015260a08301516156f9816144d6565b608082015260c083015161570c816144d6565b60a0820152602082015261572260e0830161565a565b6040820152615734610100830161565a565b6060820152615746610120830161565a565b608082015261512c610140830161565a565b8051611f8c816147bb565b600060e0828403121561577557600080fd5b61577d614461565b9050815161578a81615137565b8152602082015161579a816147f1565b602082015260408201516157ad816147f1565b604082015260608201516157c0816147bb565b60608201526157d160808301615758565b60808201526157e260a08301615758565b60a082015260c09182015191810191909152919050565b8051611f8c816146b8565b60006020828403121561581657600080fd5b81516001600160401b0381111561582c57600080fd5b820180840361032081121561584057600080fd5b61584861443f565b82516001600160401b0381111561585e57600080fd5b61586a878286016155b8565b825250602083810151908201526080603f198301121561588957600080fd5b61589161441d565b915060408301516158a181614fc4565b825260608301516158b181614fc4565b602083015260808301516158c481614fc4565b604083015260a08301516158d781614fc4565b6060830152604081018290526158f08660c08501615665565b6060820152615903866102208501615763565b608082015261591561030084016157f9565b60a082015295945050505050565b601f8211156113e357806000526020600020601f840160051c8101602085101561594a5750805b601f840160051c820191505b81811015613b545760008155600101615956565b81516001600160401b03811115615983576159836143de565b6159978161599184546152c2565b84615923565b6020601f8211600181146159cb57600083156159b35750848201515b600019600385901b1c1916600184901b178455613b54565b600084815260208120601f198516915b828110156159fb57878501518255602094850194600190920191016159db565b5084821015615a195786840151600019600387901b60f8161c191681555b50505050600190811b01905550565b8381528260208201526060604082015260006136476060830184614b59565b600060208284031215615a5957600080fd5b5051919050565b81810381811115610cd957610cd96152fc565b600081615a8257615a826152fc565b506000190190565b8082028115828204841417610cd957610cd96152fc565b600082615abe57634e487b7160e01b600052601260045260246000fd5b500490565b60ff8181168382160190811115610cd957610cd96152fc565b6001600160a01b03858116825284166020820152604081018390526080606082018190526000906143d490830184614679565b600060208284031215615b2157600080fd5b815161393a8161425e565b634e487b7160e01b600052603160045260246000fdfea264697066735822122090f9db8070b2286b10d4b1b72d26c36c72aff027632f4d7fde68f88e7fd9654764736f6c634300081c0033",
  "linkReferences": {},
  "deployedLinkReferences": {}
}