{
  "_format": "hh-sol-artifact-1",
  "contractName": "Game",
  "sourceName": "contracts/Game.sol",
  "abi": [
    {
      "inputs": [
        {
          "internalType": "address",
          "name": "_ships",
          "type": "address"
        },
        {
          "internalType": "address",
          "name": "_shipAttributes",
          "type": "address"
        }
      ],
      "stateMutability": "nonpayable",
      "type": "constructor"
    },
    {
      "inputs": [],
      "name": "ActionRequired",
      "type": "error"
    },
    {
      "inputs": [],
      "name": "GameNotFound",
      "type": "error"
    },
    {
      "inputs": [],
      "name": "InvalidMove",
      "type": "error"
    },
    {
      "inputs": [],
      "name": "InvalidPosition",
      "type": "error"
    },
    {
      "inputs": [],
      "name": "NotInGame",
      "type": "error"
    },
    {
      "inputs": [],
      "name": "NotLobbiesContract",
      "type": "error"
    },
    {
      "inputs": [],
      "name": "NotYourTurn",
      "type": "error"
    },
    {
      "inputs": [
        {
          "internalType": "address",
          "name": "owner",
          "type": "address"
        }
      ],
      "name": "OwnableInvalidOwner",
      "type": "error"
    },
    {
      "inputs": [
        {
          "internalType": "address",
          "name": "account",
          "type": "address"
        }
      ],
      "name": "OwnableUnauthorizedAccount",
      "type": "error"
    },
    {
      "inputs": [],
      "name": "PositionOccupied",
      "type": "error"
    },
    {
      "inputs": [],
      "name": "ShipAlreadyMoved",
      "type": "error"
    },
    {
      "inputs": [],
      "name": "ShipDestroyed",
      "type": "error"
    },
    {
      "inputs": [],
      "name": "ShipNotFound",
      "type": "error"
    },
    {
      "inputs": [],
      "name": "ShipNotOwned",
      "type": "error"
    },
    {
      "inputs": [],
      "name": "TurnTimeoutExceeded",
      "type": "error"
    },
    {
      "inputs": [],
      "name": "TurnTimeoutNotReached",
      "type": "error"
    },
    {
      "anonymous": false,
      "inputs": [
        {
          "indexed": true,
          "internalType": "uint256",
          "name": "gameId",
          "type": "uint256"
        },
        {
          "indexed": true,
          "internalType": "uint256",
          "name": "lobbyId",
          "type": "uint256"
        },
        {
          "indexed": false,
          "internalType": "address",
          "name": "creator",
          "type": "address"
        },
        {
          "indexed": false,
          "internalType": "address",
          "name": "joiner",
          "type": "address"
        }
      ],
      "name": "GameStarted",
      "type": "event"
    },
    {
      "anonymous": false,
      "inputs": [
        {
          "indexed": true,
          "internalType": "address",
          "name": "previousOwner",
          "type": "address"
        },
        {
          "indexed": true,
          "internalType": "address",
          "name": "newOwner",
          "type": "address"
        }
      ],
      "name": "OwnershipTransferred",
      "type": "event"
    },
    {
      "inputs": [],
      "name": "GRID_HEIGHT",
      "outputs": [
        {
          "internalType": "int16",
          "name": "",
          "type": "int16"
        }
      ],
      "stateMutability": "view",
      "type": "function"
    },
    {
      "inputs": [],
      "name": "GRID_WIDTH",
      "outputs": [
        {
          "internalType": "int16",
          "name": "",
          "type": "int16"
        }
      ],
      "stateMutability": "view",
      "type": "function"
    },
    {
      "inputs": [
        {
          "internalType": "uint256",
          "name": "_gameId",
          "type": "uint256"
        },
        {
          "internalType": "uint256[]",
          "name": "_shipIds",
          "type": "uint256[]"
        }
      ],
      "name": "calculateFleetAttributes",
      "outputs": [],
      "stateMutability": "nonpayable",
      "type": "function"
    },
    {
      "inputs": [
        {
          "internalType": "uint256",
          "name": "_gameId",
          "type": "uint256"
        },
        {
          "internalType": "uint256",
          "name": "_shipId",
          "type": "uint256"
        }
      ],
      "name": "calculateShipAttributes",
      "outputs": [],
      "stateMutability": "nonpayable",
      "type": "function"
    },
    {
      "inputs": [
        {
          "internalType": "uint256",
          "name": "_gameId",
          "type": "uint256"
        },
        {
          "internalType": "uint256",
          "name": "_shipId",
          "type": "uint256"
        }
      ],
      "name": "debugDestroyShip",
      "outputs": [],
      "stateMutability": "nonpayable",
      "type": "function"
    },
    {
      "inputs": [
        {
          "internalType": "uint256",
          "name": "_gameId",
          "type": "uint256"
        },
        {
          "internalType": "uint256",
          "name": "_shipId",
          "type": "uint256"
        }
      ],
      "name": "debugMarkShipAsMoved",
      "outputs": [],
      "stateMutability": "nonpayable",
      "type": "function"
    },
    {
      "inputs": [
        {
          "internalType": "uint256",
          "name": "_gameId",
          "type": "uint256"
        },
        {
          "internalType": "uint256",
          "name": "_shipId",
          "type": "uint256"
        }
      ],
      "name": "debugSetHullPointsToZero",
      "outputs": [],
      "stateMutability": "nonpayable",
      "type": "function"
    },
    {
      "inputs": [
        {
          "internalType": "uint256",
          "name": "_gameId",
          "type": "uint256"
        },
        {
          "internalType": "uint256",
          "name": "_shipId",
          "type": "uint256"
        },
        {
          "internalType": "uint8",
          "name": "_timer",
          "type": "uint8"
        }
      ],
      "name": "debugSetReactorCriticalTimer",
      "outputs": [],
      "stateMutability": "nonpayable",
      "type": "function"
    },
    {
      "inputs": [
        {
          "internalType": "uint256",
          "name": "_gameId",
          "type": "uint256"
        },
        {
          "internalType": "uint256",
          "name": "_shipId",
          "type": "uint256"
        },
        {
          "internalType": "int16",
          "name": "_row",
          "type": "int16"
        },
        {
          "internalType": "int16",
          "name": "_col",
          "type": "int16"
        }
      ],
      "name": "debugSetShipPosition",
      "outputs": [],
      "stateMutability": "nonpayable",
      "type": "function"
    },
    {
      "inputs": [
        {
          "internalType": "uint256",
          "name": "_gameId",
          "type": "uint256"
        }
      ],
      "name": "flee",
      "outputs": [],
      "stateMutability": "nonpayable",
      "type": "function"
    },
    {
      "inputs": [],
      "name": "fleets",
      "outputs": [
        {
          "internalType": "contract IFleets",
          "name": "",
          "type": "address"
        }
      ],
      "stateMutability": "view",
      "type": "function"
    },
    {
      "inputs": [
        {
          "internalType": "uint256",
          "name": "_gameId",
          "type": "uint256"
        }
      ],
      "name": "forceMoveOnTimeout",
      "outputs": [],
      "stateMutability": "nonpayable",
      "type": "function"
    },
    {
      "inputs": [],
      "name": "gameCount",
      "outputs": [
        {
          "internalType": "uint256",
          "name": "",
          "type": "uint256"
        }
      ],
      "stateMutability": "view",
      "type": "function"
    },
    {
      "inputs": [],
      "name": "gameResults",
      "outputs": [
        {
          "internalType": "contract IGameResults",
          "name": "",
          "type": "address"
        }
      ],
      "stateMutability": "view",
      "type": "function"
    },
    {
      "inputs": [
        {
          "internalType": "uint256",
          "name": "",
          "type": "uint256"
        }
      ],
      "name": "games",
      "outputs": [
        {
          "components": [
            {
              "internalType": "uint256",
              "name": "gameId",
              "type": "uint256"
            },
            {
              "internalType": "uint256",
              "name": "lobbyId",
              "type": "uint256"
            },
            {
              "internalType": "address",
              "name": "creator",
              "type": "address"
            },
            {
              "internalType": "address",
              "name": "joiner",
              "type": "address"
            },
            {
              "internalType": "uint256",
              "name": "creatorFleetId",
              "type": "uint256"
            },
            {
              "internalType": "uint256",
              "name": "joinerFleetId",
              "type": "uint256"
            },
            {
              "internalType": "bool",
              "name": "creatorGoesFirst",
              "type": "bool"
            },
            {
              "internalType": "uint256",
              "name": "startedAt",
              "type": "uint256"
            },
            {
              "internalType": "address",
              "name": "winner",
              "type": "address"
            }
          ],
          "internalType": "struct GameMetadata",
          "name": "metadata",
          "type": "tuple"
        },
        {
          "components": [
            {
              "internalType": "address",
              "name": "currentTurn",
              "type": "address"
            },
            {
              "internalType": "uint256",
              "name": "turnTime",
              "type": "uint256"
            },
            {
              "internalType": "uint256",
              "name": "turnStartTime",
              "type": "uint256"
            },
            {
              "internalType": "uint256",
              "name": "currentRound",
              "type": "uint256"
            }
          ],
          "internalType": "struct GameTurnState",
          "name": "turnState",
          "type": "tuple"
        },
        {
          "components": [
            {
              "internalType": "int16",
              "name": "gridWidth",
              "type": "int16"
            },
            {
              "internalType": "int16",
              "name": "gridHeight",
              "type": "int16"
            }
          ],
          "internalType": "struct GameGridDimensions",
          "name": "gridDimensions",
          "type": "tuple"
        },
        {
          "internalType": "uint256",
          "name": "maxScore",
          "type": "uint256"
        },
        {
          "internalType": "uint256",
          "name": "creatorScore",
          "type": "uint256"
        },
        {
          "internalType": "uint256",
          "name": "joinerScore",
          "type": "uint256"
        }
      ],
      "stateMutability": "view",
      "type": "function"
    },
    {
      "inputs": [
        {
          "internalType": "uint256",
          "name": "_gameId",
          "type": "uint256"
        }
      ],
      "name": "getAllShipPositions",
      "outputs": [
        {
          "components": [
            {
              "internalType": "uint256",
              "name": "shipId",
              "type": "uint256"
            },
            {
              "components": [
                {
                  "internalType": "int16",
                  "name": "row",
                  "type": "int16"
                },
                {
                  "internalType": "int16",
                  "name": "col",
                  "type": "int16"
                }
              ],
              "internalType": "struct Position",
              "name": "position",
              "type": "tuple"
            },
            {
              "internalType": "bool",
              "name": "isCreator",
              "type": "bool"
            }
          ],
          "internalType": "struct ShipPosition[]",
          "name": "",
          "type": "tuple[]"
        }
      ],
      "stateMutability": "view",
      "type": "function"
    },
    {
      "inputs": [
        {
          "internalType": "uint256",
          "name": "_gameId",
          "type": "uint256"
        },
        {
          "internalType": "uint256[]",
          "name": "_creatorShipIds",
          "type": "uint256[]"
        },
        {
          "internalType": "uint256[]",
          "name": "_joinerShipIds",
          "type": "uint256[]"
        }
      ],
      "name": "getGame",
      "outputs": [
        {
          "components": [
            {
              "components": [
                {
                  "internalType": "uint256",
                  "name": "gameId",
                  "type": "uint256"
                },
                {
                  "internalType": "uint256",
                  "name": "lobbyId",
                  "type": "uint256"
                },
                {
                  "internalType": "address",
                  "name": "creator",
                  "type": "address"
                },
                {
                  "internalType": "address",
                  "name": "joiner",
                  "type": "address"
                },
                {
                  "internalType": "uint256",
                  "name": "creatorFleetId",
                  "type": "uint256"
                },
                {
                  "internalType": "uint256",
                  "name": "joinerFleetId",
                  "type": "uint256"
                },
                {
                  "internalType": "bool",
                  "name": "creatorGoesFirst",
                  "type": "bool"
                },
                {
                  "internalType": "uint256",
                  "name": "startedAt",
                  "type": "uint256"
                },
                {
                  "internalType": "address",
                  "name": "winner",
                  "type": "address"
                }
              ],
              "internalType": "struct GameMetadata",
              "name": "metadata",
              "type": "tuple"
            },
            {
              "components": [
                {
                  "internalType": "address",
                  "name": "currentTurn",
                  "type": "address"
                },
                {
                  "internalType": "uint256",
                  "name": "turnTime",
                  "type": "uint256"
                },
                {
                  "internalType": "uint256",
                  "name": "turnStartTime",
                  "type": "uint256"
                },
                {
                  "internalType": "uint256",
                  "name": "currentRound",
                  "type": "uint256"
                }
              ],
              "internalType": "struct GameTurnState",
              "name": "turnState",
              "type": "tuple"
            },
            {
              "components": [
                {
                  "internalType": "int16",
                  "name": "gridWidth",
                  "type": "int16"
                },
                {
                  "internalType": "int16",
                  "name": "gridHeight",
                  "type": "int16"
                }
              ],
              "internalType": "struct GameGridDimensions",
              "name": "gridDimensions",
              "type": "tuple"
            },
            {
              "internalType": "uint256",
              "name": "maxScore",
              "type": "uint256"
            },
            {
              "internalType": "uint256",
              "name": "creatorScore",
              "type": "uint256"
            },
            {
              "internalType": "uint256",
              "name": "joinerScore",
              "type": "uint256"
            },
            {
              "components": [
                {
                  "internalType": "uint16",
                  "name": "version",
                  "type": "uint16"
                },
                {
                  "internalType": "uint8",
                  "name": "range",
                  "type": "uint8"
                },
                {
                  "internalType": "uint8",
                  "name": "gunDamage",
                  "type": "uint8"
                },
                {
                  "internalType": "uint8",
                  "name": "hullPoints",
                  "type": "uint8"
                },
                {
                  "internalType": "uint8",
                  "name": "maxHullPoints",
                  "type": "uint8"
                },
                {
                  "internalType": "uint8",
                  "name": "movement",
                  "type": "uint8"
                },
                {
                  "internalType": "uint8",
                  "name": "damageReduction",
                  "type": "uint8"
                },
                {
                  "internalType": "uint8",
                  "name": "reactorCriticalTimer",
                  "type": "uint8"
                },
                {
                  "internalType": "uint8[]",
                  "name": "statusEffects",
                  "type": "uint8[]"
                }
              ],
              "internalType": "struct Attributes[]",
              "name": "shipAttributes",
              "type": "tuple[]"
            },
            {
              "components": [
                {
                  "internalType": "uint256",
                  "name": "shipId",
                  "type": "uint256"
                },
                {
                  "components": [
                    {
                      "internalType": "int16",
                      "name": "row",
                      "type": "int16"
                    },
                    {
                      "internalType": "int16",
                      "name": "col",
                      "type": "int16"
                    }
                  ],
                  "internalType": "struct Position",
                  "name": "position",
                  "type": "tuple"
                },
                {
                  "internalType": "bool",
                  "name": "isCreator",
                  "type": "bool"
                }
              ],
              "internalType": "struct ShipPosition[]",
              "name": "shipPositions",
              "type": "tuple[]"
            },
            {
              "internalType": "uint256[]",
              "name": "creatorActiveShipIds",
              "type": "uint256[]"
            },
            {
              "internalType": "uint256[]",
              "name": "joinerActiveShipIds",
              "type": "uint256[]"
            }
          ],
          "internalType": "struct GameDataView",
          "name": "",
          "type": "tuple"
        }
      ],
      "stateMutability": "view",
      "type": "function"
    },
    {
      "inputs": [
        {
          "internalType": "uint256[]",
          "name": "_gameIds",
          "type": "uint256[]"
        }
      ],
      "name": "getGamesFromIds",
      "outputs": [
        {
          "components": [
            {
              "components": [
                {
                  "internalType": "uint256",
                  "name": "gameId",
                  "type": "uint256"
                },
                {
                  "internalType": "uint256",
                  "name": "lobbyId",
                  "type": "uint256"
                },
                {
                  "internalType": "address",
                  "name": "creator",
                  "type": "address"
                },
                {
                  "internalType": "address",
                  "name": "joiner",
                  "type": "address"
                },
                {
                  "internalType": "uint256",
                  "name": "creatorFleetId",
                  "type": "uint256"
                },
                {
                  "internalType": "uint256",
                  "name": "joinerFleetId",
                  "type": "uint256"
                },
                {
                  "internalType": "bool",
                  "name": "creatorGoesFirst",
                  "type": "bool"
                },
                {
                  "internalType": "uint256",
                  "name": "startedAt",
                  "type": "uint256"
                },
                {
                  "internalType": "address",
                  "name": "winner",
                  "type": "address"
                }
              ],
              "internalType": "struct GameMetadata",
              "name": "metadata",
              "type": "tuple"
            },
            {
              "components": [
                {
                  "internalType": "address",
                  "name": "currentTurn",
                  "type": "address"
                },
                {
                  "internalType": "uint256",
                  "name": "turnTime",
                  "type": "uint256"
                },
                {
                  "internalType": "uint256",
                  "name": "turnStartTime",
                  "type": "uint256"
                },
                {
                  "internalType": "uint256",
                  "name": "currentRound",
                  "type": "uint256"
                }
              ],
              "internalType": "struct GameTurnState",
              "name": "turnState",
              "type": "tuple"
            },
            {
              "components": [
                {
                  "internalType": "int16",
                  "name": "gridWidth",
                  "type": "int16"
                },
                {
                  "internalType": "int16",
                  "name": "gridHeight",
                  "type": "int16"
                }
              ],
              "internalType": "struct GameGridDimensions",
              "name": "gridDimensions",
              "type": "tuple"
            },
            {
              "internalType": "uint256",
              "name": "maxScore",
              "type": "uint256"
            },
            {
              "internalType": "uint256",
              "name": "creatorScore",
              "type": "uint256"
            },
            {
              "internalType": "uint256",
              "name": "joinerScore",
              "type": "uint256"
            },
            {
              "components": [
                {
                  "internalType": "uint16",
                  "name": "version",
                  "type": "uint16"
                },
                {
                  "internalType": "uint8",
                  "name": "range",
                  "type": "uint8"
                },
                {
                  "internalType": "uint8",
                  "name": "gunDamage",
                  "type": "uint8"
                },
                {
                  "internalType": "uint8",
                  "name": "hullPoints",
                  "type": "uint8"
                },
                {
                  "internalType": "uint8",
                  "name": "maxHullPoints",
                  "type": "uint8"
                },
                {
                  "internalType": "uint8",
                  "name": "movement",
                  "type": "uint8"
                },
                {
                  "internalType": "uint8",
                  "name": "damageReduction",
                  "type": "uint8"
                },
                {
                  "internalType": "uint8",
                  "name": "reactorCriticalTimer",
                  "type": "uint8"
                },
                {
                  "internalType": "uint8[]",
                  "name": "statusEffects",
                  "type": "uint8[]"
                }
              ],
              "internalType": "struct Attributes[]",
              "name": "shipAttributes",
              "type": "tuple[]"
            },
            {
              "components": [
                {
                  "internalType": "uint256",
                  "name": "shipId",
                  "type": "uint256"
                },
                {
                  "components": [
                    {
                      "internalType": "int16",
                      "name": "row",
                      "type": "int16"
                    },
                    {
                      "internalType": "int16",
                      "name": "col",
                      "type": "int16"
                    }
                  ],
                  "internalType": "struct Position",
                  "name": "position",
                  "type": "tuple"
                },
                {
                  "internalType": "bool",
                  "name": "isCreator",
                  "type": "bool"
                }
              ],
              "internalType": "struct ShipPosition[]",
              "name": "shipPositions",
              "type": "tuple[]"
            },
            {
              "internalType": "uint256[]",
              "name": "creatorActiveShipIds",
              "type": "uint256[]"
            },
            {
              "internalType": "uint256[]",
              "name": "joinerActiveShipIds",
              "type": "uint256[]"
            }
          ],
          "internalType": "struct GameDataView[]",
          "name": "",
          "type": "tuple[]"
        }
      ],
      "stateMutability": "view",
      "type": "function"
    },
    {
      "inputs": [
        {
          "internalType": "uint256",
          "name": "_gameId",
          "type": "uint256"
        },
        {
          "internalType": "uint256",
          "name": "_shipId",
          "type": "uint256"
        }
      ],
      "name": "getShipAttributes",
      "outputs": [
        {
          "components": [
            {
              "internalType": "uint16",
              "name": "version",
              "type": "uint16"
            },
            {
              "internalType": "uint8",
              "name": "range",
              "type": "uint8"
            },
            {
              "internalType": "uint8",
              "name": "gunDamage",
              "type": "uint8"
            },
            {
              "internalType": "uint8",
              "name": "hullPoints",
              "type": "uint8"
            },
            {
              "internalType": "uint8",
              "name": "maxHullPoints",
              "type": "uint8"
            },
            {
              "internalType": "uint8",
              "name": "movement",
              "type": "uint8"
            },
            {
              "internalType": "uint8",
              "name": "damageReduction",
              "type": "uint8"
            },
            {
              "internalType": "uint8",
              "name": "reactorCriticalTimer",
              "type": "uint8"
            },
            {
              "internalType": "uint8[]",
              "name": "statusEffects",
              "type": "uint8[]"
            }
          ],
          "internalType": "struct Attributes",
          "name": "",
          "type": "tuple"
        }
      ],
      "stateMutability": "view",
      "type": "function"
    },
    {
      "inputs": [
        {
          "internalType": "uint256",
          "name": "target",
          "type": "uint256"
        }
      ],
      "name": "lastDamage",
      "outputs": [
        {
          "internalType": "uint256",
          "name": "lastDamager",
          "type": "uint256"
        }
      ],
      "stateMutability": "view",
      "type": "function"
    },
    {
      "inputs": [],
      "name": "lobbiesAddress",
      "outputs": [
        {
          "internalType": "address",
          "name": "",
          "type": "address"
        }
      ],
      "stateMutability": "view",
      "type": "function"
    },
    {
      "inputs": [],
      "name": "maps",
      "outputs": [
        {
          "internalType": "contract IMaps",
          "name": "",
          "type": "address"
        }
      ],
      "stateMutability": "view",
      "type": "function"
    },
    {
      "inputs": [
        {
          "internalType": "uint256",
          "name": "_gameId",
          "type": "uint256"
        },
        {
          "internalType": "uint256",
          "name": "_shipId",
          "type": "uint256"
        },
        {
          "internalType": "int16",
          "name": "_newRow",
          "type": "int16"
        },
        {
          "internalType": "int16",
          "name": "_newCol",
          "type": "int16"
        },
        {
          "internalType": "enum ActionType",
          "name": "actionType",
          "type": "uint8"
        },
        {
          "internalType": "uint256",
          "name": "targetShipId",
          "type": "uint256"
        }
      ],
      "name": "moveShip",
      "outputs": [],
      "stateMutability": "nonpayable",
      "type": "function"
    },
    {
      "inputs": [],
      "name": "owner",
      "outputs": [
        {
          "internalType": "address",
          "name": "",
          "type": "address"
        }
      ],
      "stateMutability": "view",
      "type": "function"
    },
    {
      "inputs": [
        {
          "internalType": "address",
          "name": "",
          "type": "address"
        },
        {
          "internalType": "uint256",
          "name": "",
          "type": "uint256"
        }
      ],
      "name": "playerGames",
      "outputs": [
        {
          "internalType": "uint256",
          "name": "",
          "type": "uint256"
        }
      ],
      "stateMutability": "view",
      "type": "function"
    },
    {
      "inputs": [],
      "name": "renounceOwnership",
      "outputs": [],
      "stateMutability": "nonpayable",
      "type": "function"
    },
    {
      "inputs": [
        {
          "internalType": "address",
          "name": "_mapsAddress",
          "type": "address"
        },
        {
          "internalType": "address",
          "name": "_lobbiesAddress",
          "type": "address"
        },
        {
          "internalType": "address",
          "name": "_fleetsAddress",
          "type": "address"
        },
        {
          "internalType": "address",
          "name": "_gameResultsAddress",
          "type": "address"
        },
        {
          "internalType": "address",
          "name": "_shipAttributesAddress",
          "type": "address"
        }
      ],
      "name": "setAddresses",
      "outputs": [],
      "stateMutability": "nonpayable",
      "type": "function"
    },
    {
      "inputs": [],
      "name": "shipAttributes",
      "outputs": [
        {
          "internalType": "contract IShipAttributes",
          "name": "",
          "type": "address"
        }
      ],
      "stateMutability": "view",
      "type": "function"
    },
    {
      "inputs": [],
      "name": "ships",
      "outputs": [
        {
          "internalType": "contract IShips",
          "name": "",
          "type": "address"
        }
      ],
      "stateMutability": "view",
      "type": "function"
    },
    {
      "inputs": [
        {
          "internalType": "uint256",
          "name": "_lobbyId",
          "type": "uint256"
        },
        {
          "internalType": "address",
          "name": "_creator",
          "type": "address"
        },
        {
          "internalType": "address",
          "name": "_joiner",
          "type": "address"
        },
        {
          "internalType": "uint256",
          "name": "_creatorFleetId",
          "type": "uint256"
        },
        {
          "internalType": "uint256",
          "name": "_joinerFleetId",
          "type": "uint256"
        },
        {
          "internalType": "bool",
          "name": "_creatorGoesFirst",
          "type": "bool"
        },
        {
          "internalType": "uint256",
          "name": "_turnTime",
          "type": "uint256"
        },
        {
          "internalType": "uint256",
          "name": "_selectedMapId",
          "type": "uint256"
        },
        {
          "internalType": "uint256",
          "name": "_maxScore",
          "type": "uint256"
        }
      ],
      "name": "startGame",
      "outputs": [],
      "stateMutability": "nonpayable",
      "type": "function"
    },
    {
      "inputs": [
        {
          "internalType": "address",
          "name": "newOwner",
          "type": "address"
        }
      ],
      "name": "transferOwnership",
      "outputs": [],
      "stateMutability": "nonpayable",
      "type": "function"
    }
  ],
  "bytecode": "0x608060405234801561001057600080fd5b5060405161613738038061613783398101604081905261002f916100fc565b338061005557604051631e4fbdf760e01b81526000600482015260240160405180910390fd5b61005e81610090565b50600180546001600160a01b039384166001600160a01b0319918216179091556003805492909316911617905561012f565b600080546001600160a01b038381166001600160a01b0319831681178455604051919092169283917f8be0079c531659141344cd1fd0a4f28419497f9722a3daafe3b4186f6b6457e09190a35050565b80516001600160a01b03811681146100f757600080fd5b919050565b6000806040838503121561010f57600080fd5b610118836100e0565b9150610126602084016100e0565b90509250929050565b615ff98061013e6000396000f3fe608060405234801561001057600080fd5b50600436106101e55760003560e01c80635dd68acd1161010f578063bbf8218a116100a2578063e8d64aee11610071578063e8d64aee1461053c578063ecd1406d1461054f578063edf59b3c14610562578063f2fde38b1461057557600080fd5b8063bbf8218a146104f0578063beaa8fa414610503578063ce720bca14610516578063d78ffe581461052957600080fd5b806384cb37ea116100de57806384cb37ea146104995780638da5cb5b146104ac57806390de1d9b146104bd5780639c91fe67146104dd57600080fd5b80635dd68acd1461044b5780636eb0f9d21461045e578063715018a61461047e5780637c767cb91461048657600080fd5b80633deaec2b116101875780634bf11ad2116101565780634bf11ad2146104075780634d1975b41461040f57806355cebda814610418578063566adcd01461042b57600080fd5b80633deaec2b146103ae57806341f5f5e9146103c1578063423bb46f146103d457806348915d91146103f457600080fd5b8063179c0318116101c3578063179c03181461033557806318d7261d14610355578063235e78eb14610368578063336d7d7b1461038357600080fd5b80630a5694c2146101ea578063100017cb14610210578063117a5b9014610225575b600080fd5b6101fd6101f8366004614ed1565b610588565b6040519081526020015b60405180910390f35b61022361021e366004614efd565b6105b9565b005b610323610233366004614f1f565b600760208181526000928352604092839020835161012081018552815481526001808301548285015260028301546001600160a01b0390811683880152600384015481166060808501919091526004850154608080860191909152600586015460a0860152600686015460ff16151560c08601529685015460e0850152600885015482166101008501528751968701885260098501549091168652600a84015486860152600b84015486880152600c840154908601528551808701909652600d83015480820b8752620100009004900b92850192909252600e810154600f82015460109092015492949290919086565b60405161020796959493929190614fb8565b610348610343366004615174565b6105cf565b60405161020791906154cb565b610223610363366004614efd565b610c85565b610370603c81565b60405160019190910b8152602001610207565b600554610396906001600160a01b031681565b6040516001600160a01b039091168152602001610207565b600454610396906001600160a01b031681565b600354610396906001600160a01b031681565b6103e76103e2366004614efd565b610cd9565b60405161020791906154de565b600254610396906001600160a01b031681565b610370602881565b6101fd60085481565b610223610426366004614efd565b610e50565b61043e610439366004614f1f565b610fc3565b60405161020791906154f1565b610223610459366004615504565b6111be565b61047161046c366004615575565b611225565b60405161020791906155ea565b6102236112f2565b610223610494366004615666565b611306565b6102236104a7366004614f1f565b6113a8565b6000546001600160a01b0316610396565b6101fd6104cb366004614f1f565b600a6020526000908152604090205481565b6102236104eb3660046156ac565b611475565b600154610396906001600160a01b031681565b6102236105113660046156f2565b6114ac565b600654610396906001600160a01b031681565b610223610537366004614f1f565b611a44565b61022361054a366004615767565b611b24565b61022361055d3660046157fc565b611d58565b610223610570366004614efd565b611da0565b610223610583366004615835565b611ddd565b600960205281600052604060002081815481106105a457600080fd5b90600052602060002001600091509150505481565b6105c1611e20565b6105cb8282611e4d565b5050565b6105d7614c85565b6000848152600760205260408120549003610605576040516309b3c62760e21b815260040160405180910390fd5b6000848152600760205260408120835185519192916106249190615868565b90506000816001600160401b0381111561064057610640615031565b60405190808252806020026020018201604052801561067957816020015b610666614d50565b81526020019060019003908161065e5790505b50905060005b86518110156107cd578360110160008883815181106106a0576106a061587b565b6020908102919091018101518252818101929092526040908101600020815161012081018352815461ffff8116825260ff62010000820481168387015263010000008204811683860152600160201b820481166060840152600160281b820481166080840152600160301b8204811660a0840152600160381b8204811660c0840152600160401b9091041660e08201526001820180548451818702810187019095528085529194929361010086019390929083018282801561079f57602002820191906000526020600020906000905b825461010083900a900460ff168152602060019283018181049485019490930390920291018084116107705790505b5050505050815250508282815181106107ba576107ba61587b565b602090810291909101015260010161067f565b5060005b855181101561092b578360110160008783815181106107f2576107f261587b565b6020908102919091018101518252818101929092526040908101600020815161012081018352815461ffff8116825260ff62010000820481168387015263010000008204811683860152600160201b820481166060840152600160281b820481166080840152600160301b8204811660a0840152600160381b8204811660c0840152600160401b9091041660e0820152600182018054845181870281018701909552808552919492936101008601939092908301828280156108f157602002820191906000526020600020906000905b825461010083900a900460ff168152602060019283018181049485019490930390920291018084116108c25790505b505050505081525050828289516109089190615868565b815181106109185761091861587b565b60209081029190910101526001016107d1565b50600061093788610fc3565b60028501546001600160a01b03908116600090815260158701602052604080822060038901549093168252812092935090919061097383612154565b6001600160401b0381111561098a5761098a615031565b6040519080825280602002602001820160405280156109b3578160200160208202803683370190505b50905060006109c183612154565b6001600160401b038111156109d8576109d8615031565b604051908082528060200260200182016040528015610a01578160200160208202803683370190505b5090506000610a0f85612154565b905060005b81811015610a4b57610a26868261215e565b848281518110610a3857610a3861587b565b6020908102919091010152600101610a14565b506000610a5785612154565b905060005b81811015610a9357610a6e868261215e565b848281518110610a8057610a8061587b565b6020908102919091010152600101610a5c565b506040518061014001604052808b6000016040518061012001604052908160008201548152602001600182015481526020016002820160009054906101000a90046001600160a01b03166001600160a01b03166001600160a01b031681526020016003820160009054906101000a90046001600160a01b03166001600160a01b03166001600160a01b0316815260200160048201548152602001600582015481526020016006820160009054906101000a900460ff16151515158152602001600782015481526020016008820160009054906101000a90046001600160a01b03166001600160a01b03166001600160a01b03168152505081526020018b6009016040518060800160405290816000820160009054906101000a90046001600160a01b03166001600160a01b03166001600160a01b03168152602001600182015481526020016002820154815260200160038201548152505081526020018b600d016040518060400160405290816000820160009054906101000a900460010b60010b60010b81526020016000820160029054906101000a900460010b60010b60010b8152505081526020018b600e015481526020018b600f015481526020018b601001548152602001898152602001888152602001858152602001848152509a50505050505050505050509392505050565b610c8d611e20565b6000918252600760209081526040808420838552601181018352818520805460ff60201b19169055600c810154855260140182528084209284529190529020805460ff19166001179055565b610ce1614d50565b6000838152600760205260408120549003610d0f576040516309b3c62760e21b815260040160405180910390fd5b600083815260076020908152604080832085845260110190915281208054909161ffff9091169003610d54576040516303c113ad60e61b815260040160405180910390fd5b6040805161012081018252825461ffff8116825260ff620100008204811660208085019190915263010000008304821684860152600160201b830482166060850152600160281b830482166080850152600160301b8304821660a0850152600160381b8304821660c0850152600160401b9092041660e083015260018401805484518184028101840190955280855292938593610100860193919291830182828015610e3d57602002820191906000526020600020906000905b825461010083900a900460ff16815260206001928301818104948501949093039092029101808411610e0e5790505b5050505050815250509150505b92915050565b600082815260076020908152604080832084845260118101909252808320600354915163e197c62760e01b8152600481018690529293909290916001600160a01b03169063e197c62790602401600060405180830381865afa158015610eba573d6000803e3d6000fd5b505050506040513d6000823e601f3d908101601f19168201604052610ee29190810190615915565b8051835460208084015160408501516060860151608087015160a088015160c089015160ff908116600160381b0267ff0000000000000019928216600160301b0266ff00000000000019948316600160281b029490941666ffff000000000019958316600160201b0260ff60201b199784166301000000029790971664ffff0000001993909816620100000262ffffff19909a1661ffff909b169a909a1798909817169490941792909217169490941793909317929092161784556101008201518051929350610fbb9260018601929190910190614d9e565b505050505050565b60008181526007602052604081205460609103610ff3576040516309b3c62760e21b815260040160405180910390fd5b600082815260076020526040812090805b6028600182900b121561107c5760005b603c600182900b121561107357600182810b600090815260128601602090815260408083209385900b835292905220548015801590611057575061105781612171565b1561106a578361106681615a0f565b9450505b50600101611014565b50600101611004565b506000816001600160401b0381111561109757611097615031565b6040519080825280602002602001820160405280156110d057816020015b6110bd614e44565b8152602001906001900390816110b55790505b5090506000805b6028600182900b12156111b35760005b603c600182900b12156111aa57600182810b600090815260128801602090815260408083209385900b83529290522054801580159061112a575061112a81612171565b156111a157600061113b8a836121e6565b9050604051806060016040528083815260200160405180604001604052808760010b81526020018660010b81525081526020018215158152508686815181106111865761118661587b565b6020026020010181905250848061119c90615a0f565b955050505b506001016110e7565b506001016110d7565b509095945050505050565b6111c6611e20565b600480546001600160a01b03199081166001600160a01b03978816179091556005805482169587169590951790945560028054851693861693909317909255600680548416918516919091179055600380549092169216919091179055565b60606000826001600160401b0381111561124157611241615031565b60405190808252806020026020018201604052801561127a57816020015b611267614c85565b81526020019060019003908161125f5790505b50905060005b838110156112ea576112c585858381811061129d5761129d61587b565b60408051600080825260208083019182528284019093529290910293909301359291506105cf565b8282815181106112d7576112d761587b565b6020908102919091010152600101611280565b509392505050565b6112fa611e20565b6113046000612222565b565b61130e611e20565b6000938452600760209081526040808620858752601381018084528288208054600181810b8b526012909401808752858b206201000092839004860b8c528752858b208b90558551808701875298850b808a529790940b8887018181528a8c5293875297518254935161ffff90811690920263ffffffff199094169116179190911790559286529181528185209285529190915290912055565b600081815260076020526040902060088101546001600160a01b0316156113e2576040516321e08b4d60e21b815260040160405180910390fd5b60028101546001600160a01b0316331480159061140c575060038101546001600160a01b03163314155b1561142a5760405163218286cb60e11b815260040160405180910390fd5b60028101546000906001600160a01b031633146114545760028201546001600160a01b0316611463565b60038201546001600160a01b03165b9050611470838233612272565b505050565b60005b8151811015611470576114a4838383815181106114975761149761587b565b6020026020010151610e50565b600101611478565b60008681526007602052604081205490036114da576040516309b3c62760e21b815260040160405180910390fd5b600086815260076020526040902060088101546001600160a01b031615611514576040516321e08b4d60e21b815260040160405180910390fd5b60098101546001600160a01b0316331461154157604051631cc191eb60e31b815260040160405180910390fd5b600154604051634025b22d60e01b8152600481018890526000916001600160a01b031690634025b22d90602401600060405180830381865afa15801561158b573d6000803e3d6000fd5b505050506040513d6000823e601f3d908101601f191682016040526115b39190810190615c68565b905080602001516000036115da576040516303c113ad60e61b815260040160405180910390fd5b60a08101516001600160a01b0316331461160757604051630b18e5d760e21b815260040160405180910390fd5b608081015160c001511561162e576040516398586ca160e01b815260040160405180910390fd5b6000878152601183016020526040812080549091600160201b90910460ff16900361166c576040516398586ca160e01b815260040160405180910390fd5b60025460048481015460405162b5e41160e51b815291820152602481018a90526001600160a01b03909116906316bc822090604401602060405180830381865afa1580156116be573d6000803e3d6000fd5b505050506040513d601f19601f820116820180604052508101906116e29190615d99565b15801561176a5750600254600584015460405162b5e41160e51b81526001600160a01b03909216916316bc822091611727918c90600401918252602082015260400190565b602060405180830381865afa158015611744573d6000803e3d6000fd5b505050506040513d601f19601f820116820180604052508101906117689190615d99565b155b15611788576040516303c113ad60e61b815260040160405180910390fd5b600c830154600090815260148401602090815260408083208b845290915290205460ff16156117ca57604051637d64fb5d60e01b815260040160405180910390fd5b60008881526013840160205260408120805490919060018a810b91900b14801561180157508154600189810b62010000909204900b145b90508061190d576040805180820182528354600181810b835262010000909104810b60208084019190915283518085019094528c820b8452908b900b9083015260009161184e9190612362565b60008c8152601188016020526040902080549192509060ff600160301b90910481169083161115611892576040516321e08b4d60e21b815260040160405180910390fd5b602860018c900b1215806118ab5750603c60018b900b12155b156118c95760405163673f032f60e11b815260040160405180910390fd5b60018b810b60009081526012890160209081526040808320938e900b835292905220541561190a57604051638243205760e01b815260040160405180910390fd5b50505b806119cf57604080518082019091528254600181810b835262010000909104900b60208201526119cf908c908c908c8c60009485526007602090815260408087208551600190810b895260128201808552838a2097850151820b8a5296845282892089905594850b8089529583528188209390940b8088529282528087208690558051808201825294855284820192835294865260139092019091529190922091518254915161ffff908116620100000263ffffffff19909316911617179055565b600c850154600090815260148601602090815260408083208d84529091529020805460ff19166001179055611a09858c8c8c8c8c8c6123f6565b611a128b6128d5565b15611a2557611a208b6128ec565b611a2e565b611a2e8b612977565b505042600b909301929092555050505050505050565b6000818152600760205260408120549003611a72576040516309b3c62760e21b815260040160405180910390fd5b611a7b81612a3f565b611a985760405163023e733b60e61b815260040160405180910390fd5b600081815260076020526040902060098101546001600160a01b03163303611ad357604051631cc191eb60e31b815260040160405180910390fd5b60028101546001600160a01b03163314801590611afd575060038101546001600160a01b03163314155b15611b1b5760405163218286cb60e11b815260040160405180910390fd5b6105cb82612a6a565b6005546001600160a01b03163314611b4f57604051638671306560e01b815260040160405180910390fd5b60088054906000611b5f83615a0f565b90915550506008546000818152600760208190526040909120918255600182018b90556002820180546001600160a01b03808d166001600160a01b031992831617909255600384018054928c1692909116919091179055600482018890556005820187905560068201805487151560ff19909116179055429082015584611be65787611be8565b885b6009820180546001600160a01b0319166001600160a01b0392909216919091179055600a810184905542600b8201556001600c820155600d8101805463ffffffff19166228003c179055600e81018290558215611ca45760048054600854604051636a5257fd60e11b815292830152602482018590526001600160a01b03169063d4a4affa90604401600060405180830381600087803b158015611c8b57600080fd5b505af1158015611c9f573d6000803e3d6000fd5b505050505b611cb16008548888612afa565b611cbe6008548888612cc2565b6001600160a01b038981166000818152600960209081526040808320600880548254600180820185559387528587200155958e16808552828520875481549384018255908652948490209091019390935593548451938452908301919091528c9290917f9f0b80476ce7b05cfe8b0800d21f0b0f2704c8eb948fa5d5e87997ec901f96d1910160405180910390a350505050505050505050565b611d60611e20565b6000928352600760209081526040808520938552601190930190529120805460ff909216600160401b0268ff000000000000000019909216919091179055565b611da8611e20565b6000918252600760209081526040808420600c810154855260140182528084209284529190529020805460ff19166001179055565b611de5611e20565b6001600160a01b038116611e1457604051631e4fbdf760e01b8152600060048201526024015b60405180910390fd5b611e1d81612222565b50565b6000546001600160a01b031633146113045760405163118cdaa760e01b8152336004820152602401611e0b565b6000828152600760205260408120549003611e7b576040516309b3c62760e21b815260040160405180910390fd5b6000828152600760205260408082206001549151634025b22d60e01b8152600481018590529092916001600160a01b031690634025b22d90602401600060405180830381865afa158015611ed3573d6000803e3d6000fd5b505050506040513d6000823e601f3d908101601f19168201604052611efb9190810190615c68565b90508060200151600003611f22576040516303c113ad60e61b815260040160405180910390fd5b60025460048381015460405162b5e41160e51b815291820152602481018590526000916001600160a01b0316906316bc822090604401602060405180830381865afa158015611f75573d6000803e3d6000fd5b505050506040513d601f19601f82011682018060405250810190611f999190615d99565b600254600585015460405162b5e41160e51b81529293506000926001600160a01b03909216916316bc822091611fdc918990600401918252602082015260400190565b602060405180830381865afa158015611ff9573d6000803e3d6000fd5b505050506040513d601f19601f8201168201806040525081019061201d9190615d99565b90508115801561202b575080155b15612049576040516303c113ad60e61b815260040160405180910390fd5b608083015160c0015115612070576040516398586ca160e01b815260040160405180910390fd5b600085815260138501602090815260408083208054600181810b865260128a01855283862062010000909204810b8652908452828520859055600c89015485526014890184528285208a86528452828520805460ff19168217905554600a909352928190205490516311a960cd60e01b81526004810189905260248101919091526001600160a01b03909116906311a960cd90604401600060405180830381600087803b15801561212057600080fd5b505af1158015612134573d6000803e3d6000fd5b505050506121428787612dcd565b61214b87612e2b565b50505050505050565b6000610e4a825490565b600061216a8383612eb7565b9392505050565b600154604051639596010160e01b8152600481018390526000916001600160a01b031690639596010190602401602060405180830381865afa1580156121bb573d6000803e3d6000fd5b505050506040513d601f19601f820116820180604052508101906121df9190615d99565b1592915050565b600082815260076020908152604080832060028101546001600160a01b0316845260158101909252822061221a9084612ee1565b949350505050565b600080546001600160a01b038381166001600160a01b0319831681178455604051919092169283917f8be0079c531659141344cd1fd0a4f28419497f9722a3daafe3b4186f6b6457e09190a35050565b60008381526007602052604090206008810180546001600160a01b0319166001600160a01b0385811691909117909155600654161561231a5760065460405163d6c6eb9f60e01b8152600481018690526001600160a01b03858116602483015284811660448301529091169063d6c6eb9f90606401600060405180830381600087803b15801561230157600080fd5b505af1158015612315573d6000803e3d6000fd5b505050505b6002810154600482015461233b9186916001600160a01b0390911690612ef9565b6003810154600582015461235c9186916001600160a01b0390911690612ef9565b50505050565b600080826000015160010b846000015160010b1361238d57835183516123889190615db6565b61239b565b8251845161239b9190615db6565b90506000836020015160010b856020015160010b136123cd57846020015184602001516123c89190615db6565b6123e1565b836020015185602001516123e19190615db6565b90506123ed8183615dd9565b95945050505050565b600154604051634025b22d60e01b8152600481018790526000916001600160a01b031690634025b22d90602401600060405180830381865afa158015612440573d6000803e3d6000fd5b505050506040513d6000823e601f3d908101601f191682016040526124689190810190615c68565b9050600083600581111561247e5761247e615df2565b146128cb57600183600581111561249757612497615df2565b0361281557600154604051634025b22d60e01b8152600481018490526000916001600160a01b031690634025b22d90602401600060405180830381865afa1580156124e6573d6000803e3d6000fd5b505050506040513d6000823e601f3d908101601f1916820160405261250e9190810190615c68565b90508060200151600003612535576040516303c113ad60e61b815260040160405180910390fd5b608081015160c001511561255c576040516398586ca160e01b815260040160405180910390fd5b8160a001516001600160a01b03168160a001516001600160a01b031603612596576040516321e08b4d60e21b815260040160405180910390fd5b604080518082018252600188810b825287810b602080840191909152600087815260138e0182528481208551808701909652805480850b875262010000900490930b9185019190915291929091906125ef908490612362565b60008b815260118e016020526040902080549192509060ff6201000090910481169083161115612632576040516321e08b4d60e21b815260040160405180910390fd5b60018260ff161180156126d75750600480548454604051638383c99560e01b81529283018f905260018d810b60248501528c810b604485015281810b606485015262010000909104900b60848301526001600160a01b031690638383c9959060a401602060405180830381865afa1580156126b1573d6000803e3d6000fd5b505050506040513d601f19601f820116820180604052508101906126d59190615d99565b155b156126f5576040516321e08b4d60e21b815260040160405180910390fd5b600087815260118e016020526040812080549091600160201b90910460ff169003612757578054600160401b900460ff1681600861273283615e08565b91906101000a81548160ff021916908360ff160217905550505050505050505061214b565b8154815460ff6301000000909204821691600160381b909104166000606461277f8385615e27565b6127899190615e44565b6127969060ff8516615e76565b8454909150600160201b900460ff1661ffff8216106127d057835460ff60201b1916845560008b8152600a602052604090208f9055612807565b8354819085906004906127ee908490600160201b900460ff16615e90565b92506101000a81548160ff021916908360ff1602179055505b5050505050505050506128cb565b600283600581111561282957612829615df2565b0361283d576128388787612fb6565b6128cb565b600383600581111561285157612851615df2565b0361286357612838878787878661336e565b600483600581111561287757612877615df2565b036128895761283887878787866135e3565b600583600581111561289d5761289d615df2565b036128b257612838878260a001518787613775565b6040516321e08b4d60e21b815260040160405180910390fd5b5050505050505050565b6000806128e483613923613977565b159392505050565b600081815260076020526040902061290382613a66565b600c8101805490600061291583615a0f565b919050555061292382613c2e565b600681015460ff166129425760038101546001600160a01b0316612951565b60028101546001600160a01b03165b60099190910180546001600160a01b0319166001600160a01b0390921691909117905550565b6000818152600760205260409020600281015460098201546001600160a01b039182169116036129f05760038101546000906129bd9084906001600160a01b0316613dbc565b905080156114705760038201546009830180546001600160a01b0319166001600160a01b03909216919091179055505050565b6002810154600090612a0c9084906001600160a01b0316613dbc565b905080156114705760028201546009830180546001600160a01b0319166001600160a01b03909216919091179055505050565b6000818152600760205260408120600a810154600b820154612a619190615868565b42119392505050565b6000818152600760205260409020600281015460098201546001600160a01b03918216911603612ab2576002810154612aad9083906001600160a01b0316613e67565b612acb565b6003810154612acb9083906001600160a01b0316613e67565b612ad4826128d5565b15612ae757612ae2826128ec565b612af0565b612af082612977565b42600b9091015550565b6000838152600760205260408082206002549151634ce29c2760e11b8152600481018690529092916001600160a01b0316906399c5384e90602401600060405180830381865afa158015612b52573d6000803e3d6000fd5b505050506040513d6000823e601f3d908101601f19168201604052612b7a9190810190615ea9565b905060005b8151811015612beb5760028301546001600160a01b0316600090815260158401602052604090208251612bcc9190849084908110612bbf57612bbf61587b565b6020026020010151613f24565b50612be3868383815181106114975761149761587b565b600101612b7f565b50600254604051634ce29c2760e11b8152600481018590526000916001600160a01b0316906399c5384e90602401600060405180830381865afa158015612c36573d6000803e3d6000fd5b505050506040513d6000823e601f3d908101601f19168201604052612c5e9190810190615ea9565b905060005b815181101561214b5760038401546001600160a01b0316600090815260158501602052604090208251612ca39190849084908110612bbf57612bbf61587b565b50612cba878383815181106114975761149761587b565b600101612c63565b600083815260076020908152604080832060028101546001600160a01b031684526015810190925282209091612cf782612154565b905060005b81811015612d38576000612d10848361215e565b90506000612d1f836002615f3e565b9050612d2e8983836000613f30565b5050600101612cfc565b5060038301546001600160a01b03166000908152601584016020526040812090612d6182612154565b905060005b81811015612dc2576000612d7a848361215e565b90506000612d89836002615f3e565b612d9560016028615db6565b612d9f9190615db6565b9050612db88b8383612db36001603c615db6565b613f30565b5050600101612d66565b505050505050505050565b600082815260076020908152604080832060028101546001600160a01b0316845260158101909252909120612e029083614020565b5060038101546001600160a01b03166000908152601582016020526040902061235c9083614020565b60008181526007602052604090206002810154612e529083906001600160a01b031661402c565b612e7857600381015460028201546105cb9184916001600160a01b039182169116612272565b6003810154612e919083906001600160a01b031661402c565b6105cb57600281015460038201546105cb9184916001600160a01b039182169116612272565b6000826000018281548110612ece57612ece61587b565b9060005260206000200154905092915050565b6000818152600183016020526040812054151561216a565b60008381526007602090815260408083206001600160a01b03861684526015810190925282209091612f2a82612154565b905060005b8181101561214b576000612f43848361215e565b6002546040516327ffe52160e01b815260048101899052602481018390529192506001600160a01b0316906327ffe52190604401600060405180830381600087803b158015612f9157600080fd5b505af1158015612fa5573d6000803e3d6000fd5b505060019093019250612f2f915050565b6000828152600760205260408120549003612fe4576040516309b3c62760e21b815260040160405180910390fd5b6000828152600760205260408082206001549151634025b22d60e01b8152600481018590529092916001600160a01b031690634025b22d90602401600060405180830381865afa15801561303c573d6000803e3d6000fd5b505050506040513d6000823e601f3d908101601f191682016040526130649190810190615c68565b9050806020015160000361308b576040516303c113ad60e61b815260040160405180910390fd5b60025460048381015460405162b5e41160e51b815291820152602481018590526000916001600160a01b0316906316bc822090604401602060405180830381865afa1580156130de573d6000803e3d6000fd5b505050506040513d601f19601f820116820180604052508101906131029190615d99565b600254600585015460405162b5e41160e51b81529293506000926001600160a01b03909216916316bc822091613145918990600401918252602082015260400190565b602060405180830381865afa158015613162573d6000803e3d6000fd5b505050506040513d601f19601f820116820180604052508101906131869190615d99565b905081158015613194575080155b156131b2576040516303c113ad60e61b815260040160405180910390fd5b608083015160c00151156131d9576040516398586ca160e01b815260040160405180910390fd5b600085815260138501602090815260408083208054600181810b865260128a01855283862062010000909204810b8652908452828520859055600c89015485526014890184528285208a86529093529220805460ff1916909117905582156132a8576002546004868101546040516327ffe52160e01b815291820152602481018890526001600160a01b03909116906327ffe52190604401600060405180830381600087803b15801561328b57600080fd5b505af115801561329f573d6000803e3d6000fd5b50505050613319565b60025460058601546040516327ffe52160e01b81526001600160a01b03909216916327ffe521916132e6918a90600401918252602082015260400190565b600060405180830381600087803b15801561330057600080fd5b505af1158015613314573d6000803e3d6000fd5b505050505b60008681526011860160205260408120805468ffffffffffffffffff19168155906133476001830182614e86565b505060008681526013860160205260409020805463ffffffff191690556121428787612dcd565b600085815260076020526040812054900361339c576040516309b3c62760e21b815260040160405180910390fd5b6000858152600760205260408082206001549151634025b22d60e01b8152600481018590529092916001600160a01b031690634025b22d90602401600060405180830381865afa1580156133f4573d6000803e3d6000fd5b505050506040513d6000823e601f3d908101601f1916820160405261341c9190810190615c68565b90508060200151600003613443576040516303c113ad60e61b815260040160405180910390fd5b608081015160c001511561346a576040516398586ca160e01b815260040160405180910390fd5b600154604051634025b22d60e01b8152600481018890526000916001600160a01b031690634025b22d90602401600060405180830381865afa1580156134b4573d6000803e3d6000fd5b505050506040513d6000823e601f3d908101601f191682016040526134dc9190810190615c68565b90508060a001516001600160a01b03168260a001516001600160a01b031614613518576040516321e08b4d60e21b815260040160405180910390fd5b600084815260118401602052604090208054600160201b900460ff1615613552576040516321e08b4d60e21b815260040160405180910390fd5b600085815260138501602090815260408083208151808301835260018c810b82528b810b828601528351808501909452825480820b8552620100009004900b9383019390935292906135a5908390612362565b90508060ff166001146135cb576040516321e08b4d60e21b815260040160405180910390fd5b6135d58c89612fb6565b505050505050505050505050565b600154604051634025b22d60e01b8152600481018390526000916001600160a01b031690634025b22d90602401600060405180830381865afa15801561362d573d6000803e3d6000fd5b505050506040513d6000823e601f3d908101601f191682016040526136559190810190615c68565b9050806020015160000361367c576040516303c113ad60e61b815260040160405180910390fd5b608081015160c00151156136a3576040516398586ca160e01b815260040160405180910390fd5b600154604051634025b22d60e01b8152600481018790526000916001600160a01b031690634025b22d90602401600060405180830381865afa1580156136ed573d6000803e3d6000fd5b505050506040513d6000823e601f3d908101601f191682016040526137159190810190615c68565b90506000816040015160600151600381111561373357613733615df2565b03613751576040516321e08b4d60e21b815260040160405180910390fd5b61375f87868686858761409d565b61214b87878787878660400151606001516141a7565b600084815260076020526040808220600480549251630349370d60e41b8152908101889052600186810b602483015285900b60448201529092916001600160a01b03169063349370d0906064016020604051808303816000875af11580156137e1573d6000803e3d6000fd5b505050506040513d601f19601f820116820180604052508101906138059190615f55565b905060ff811615610fbb5760028201546001600160a01b039081169086160361384a578060ff1682600f01600082825461383f9190615868565b9091555061387f9050565b60038201546001600160a01b039081169086160361387f578060ff168260100160008282546138799190615868565b90915550505b81600e015482600f015410158061389e575081600e0154826010015410155b15610fbb576000826010015483600f015410156138c85760038301546001600160a01b03166138d7565b60028301546001600160a01b03165b60028401549091506000906001600160a01b038084169116146139075760028401546001600160a01b0316613916565b60038401546001600160a01b03165b90506128cb888383612272565b600082815260076020526040812061393b8484614212565b613949576000915050610e4a565b600c810154600090815260149091016020908152604080832085845290915290205460ff1615905092915050565b600082815260076020908152604080832060028101546001600160a01b0390811685526015820190935281842060038201549093168452908320909190836139be83612154565b905060005b81811015613a045760006139d7858361215e565b90506139e789828a63ffffffff16565b156139fb5760019650505050505050610e4a565b506001016139c3565b506000613a1083612154565b905060005b81811015613a57576000613a29858361215e565b9050613a398a828b63ffffffff16565b15613a4e576001975050505050505050610e4a565b50600101613a15565b50600098975050505050505050565b60008181526007602052604080822081516064808252610ca0820190935290929181602001602082028036833750505060028301546001600160a01b0316600090815260158401602052604081209192509081613ac282612154565b905060005b81811015613b48576000613adb848361215e565b9050613ae681612171565b8015613b0e575060008181526011880160205260409020546003600160401b90910460ff1610155b15613b3f5780868681518110613b2657613b2661587b565b602090810291909101015284613b3b81615a0f565b9550505b50600101613ac7565b5060038501546001600160a01b03166000908152601586016020526040812090613b7182612154565b905060005b81811015613bf7576000613b8a848361215e565b9050613b9581612171565b8015613bbd5750600081815260118a0160205260409020546003600160401b90910460ff1610155b15613bee5780888881518110613bd557613bd561587b565b602090810291909101015286613bea81615a0f565b9750505b50600101613b76565b5060005b85811015612dc257613c2689888381518110613c1957613c1961587b565b6020026020010151611e4d565b600101613bfb565b600081815260076020908152604080832060028101546001600160a01b031684526015810190925282209091613c6382612154565b905060005b81811015613cfb576000613c7c848361215e565b9050613c8781612171565b8015613cab57506000818152601186016020526040902054600160201b900460ff16155b15613cf257600081815260118601602052604090208054600160401b900460ff16906008613cd883615e08565b91906101000a81548160ff021916908360ff160217905550505b50600101613c68565b5060038301546001600160a01b03166000908152601584016020526040812090613d2482612154565b905060005b8181101561214b576000613d3d848361215e565b9050613d4881612171565b8015613d6c57506000818152601188016020526040902054600160201b900460ff16155b15613db357600081815260118801602052604090208054600160401b900460ff16906008613d9983615e08565b91906101000a81548160ff021916908360ff160217905550505b50600101613d29565b60008281526007602090815260408083206001600160a01b038516845260158101909252822082613dec82612154565b905060005b81811015613e5a576000613e05848361215e565b9050613e118882614212565b8015613e3e5750600c8501546000908152601486016020908152604080832084845290915290205460ff16155b15613e5157600195505050505050610e4a565b50600101613df1565b5060009695505050505050565b60008281526007602090815260408083206001600160a01b03851684526015810190925282209091613e9882612154565b905060005b81811015610fbb576000613eb1848361215e565b9050613ebd8782614212565b8015613eea5750600c8501546000908152601486016020908152604080832084845290915290205460ff16155b15613f1b57600c850154600090815260148601602090815260408083208484529091529020805460ff191660011790555b50600101613e9d565b600061216a83836142e9565b60008481526007602052604090206028600184900b121580613f575750603c600183900b12155b15613f755760405163673f032f60e11b815260040160405180910390fd5b600183810b600090815260128301602090815260408083209386900b8352929052205415613fb657604051638243205760e01b815260040160405180910390fd5b600192830b600081815260128301602090815260408083209590960b8083529481528582208790558551808701875292835282810194855295815260139092019094529190912091518254915161ffff908116620100000263ffffffff1990931691161717905550565b600061216a8383614338565b60008281526007602090815260408083206001600160a01b03851684526015810190925282208261405c82612154565b905060005b81811015613e5a576000614075848361215e565b90506140818882614212565b1561409457600195505050505050610e4a565b50600101614061565b600282604001516060015160038111156140b9576140b9615df2565b03614112578160a001516001600160a01b03168160a001516001600160a01b0316146140f8576040516321e08b4d60e21b815260040160405180910390fd5b61410d86868686866040015160600151614432565b610fbb565b6001826040015160600151600381111561412e5761412e615df2565b0361416d578160a001516001600160a01b03168160a001516001600160a01b0316036140f8576040516321e08b4d60e21b815260040160405180910390fd5b6003826040015160600151600381111561418957614189615df2565b14610fbb576040516321e08b4d60e21b815260040160405180910390fd5b60028160038111156141bb576141bb615df2565b036141ca5761410d8683614545565b60018160038111156141de576141de615df2565b036141ed5761410d8683614652565b600381600381111561420157614201615df2565b036128b25761410d86868686614736565b6000828152600760205260408082206001549151634025b22d60e01b815260048101859052909183916001600160a01b0390911690634025b22d90602401600060405180830381865afa15801561426d573d6000803e3d6000fd5b505050506040513d6000823e601f3d908101601f191682016040526142959190810190615c68565b9050806080015160c001516000146142b257600092505050610e4a565b6000848152601183016020526040812054600160201b900460ff1690036142de57600092505050610e4a565b506001949350505050565b600081815260018301602052604081205461433057508154600181810184556000848152602080822090930184905584548482528286019093526040902091909155610e4a565b506000610e4a565b6000818152600183016020526040812054801561442157600061435c600183615f72565b855490915060009061437090600190615f72565b90508082146143d55760008660000182815481106143905761439061587b565b90600052602060002001549050808760000184815481106143b3576143b361587b565b6000918252602080832090910192909255918252600188019052604090208390555b85548690806143e6576143e6615f85565b600190038181906000526020600020016000905590558560010160008681526020019081526020016000206000905560019350505050610e4a565b6000915050610e4a565b5092915050565b60008581526007602090815260408083208584526013810183528184208251808401845260018a810b825289900b948101949094526003549251636759d30960e11b8152919490939290916001600160a01b039091169063ceb3a6129061449d908890600401615f9b565b602060405180830381865afa1580156144ba573d6000803e3d6000fd5b505050506040513d601f19601f820116820180604052508101906144de9190615f55565b604080518082019091528454600181810b835262010000909104900b6020820152909150600090614510908490612362565b90508160ff168160ff161115614539576040516321e08b4d60e21b815260040160405180910390fd5b50505050505050505050565b6000828152600760209081526040808320848452601181019092528083206003549151633387d11760e11b81529293909290916001600160a01b03169063670fa22e9061459790600290600401615f9b565b602060405180830381865afa1580156145b4573d6000803e3d6000fd5b505050506040513d601f19601f820116820180604052508101906145d89190615f55565b82549091506000906145f5908390600160201b900460ff16615dd9565b835490915060ff600160281b90910481169082161115614632578254600160201b60ff600160281b8304160260ff60201b19909116178355610fbb565b825460ff8216600160201b0260ff60201b19909116178355505050505050565b6000828152600760209081526040808320848452601181019092528083206003549151633387d11760e11b81529293909290916001600160a01b03169063670fa22e906146a490600190600401615f9b565b602060405180830381865afa1580156146c1573d6000803e3d6000fd5b505050506040513d601f19601f820116820180604052508101906146e59190615f55565b6000858152600a60205260409020859055825490915081908390600890614717908490600160401b900460ff16615dd9565b92506101000a81548160ff021916908360ff1602179055505050505050565b600084815260076020526040808220600380549251636759d30960e11b81529193926001600160a01b03169163ceb3a6129161477491600401615f9b565b602060405180830381865afa158015614791573d6000803e3d6000fd5b505050506040513d601f19601f820116820180604052508101906147b59190615f55565b60038054604051633387d11760e11b81529293506000926001600160a01b039091169163670fa22e916147eb9190600401615f9b565b602060405180830381865afa158015614808573d6000803e3d6000fd5b505050506040513d601f19601f8201168201806040525081019061482c9190615f55565b60028401546001600160a01b03908116600090815260158601602052604080822060038801549093168252812092935090919061486883612154565b905060005b81811015614a85576000614881858361215e565b600154604051634025b22d60e01b8152600481018390529192506000916001600160a01b0390911690634025b22d90602401600060405180830381865afa1580156148d0573d6000803e3d6000fd5b505050506040513d6000823e601f3d908101601f191682016040526148f89190810190615c68565b9050806080015160c00151600014614911575050614a7d565b600082815260118a016020526040812054600160201b900460ff169003614939575050614a7d565b60008960130160008481526020019081526020016000209050600060405180604001604052808e60010b81526020018d60010b815250905060006149c282846040518060400160405290816000820160009054906101000a900460010b60010b60010b81526020016000820160029054906101000a900460010b60010b60010b81525050612362565b90508a60ff168160ff16111580156149da57508e8514155b15614a77578e600a60008781526020019081526020016000208190555060008c601101600087815260200190815260200160002090508060000160049054906101000a900460ff1660ff168b60ff1610614a3e57805460ff60201b19168155614a75565b80548b908290600490614a5c908490600160201b900460ff16615e90565b92506101000a81548160ff021916908360ff1602179055505b505b50505050505b60010161486d565b506000614a9183612154565b905060005b818110156135d5576000614aaa858361215e565b600154604051634025b22d60e01b8152600481018390529192506000916001600160a01b0390911690634025b22d90602401600060405180830381865afa158015614af9573d6000803e3d6000fd5b505050506040513d6000823e601f3d908101601f19168201604052614b219190810190615c68565b9050806080015160c00151600014614b3a575050614c7d565b600082815260118b016020526040812054600160201b900460ff169003614b62575050614c7d565b60008a60130160008481526020019081526020016000209050600060405180604001604052808f60010b81526020018e60010b81525090506000614beb82846040518060400160405290816000820160009054906101000a900460010b60010b60010b81526020016000820160029054906101000a900460010b60010b60010b81525050612362565b90508b60ff168160ff1611158015614c0357508f8514155b15614c7757600085815260118e0160205260409020805460ff600160201b9091048116908d1610614c3e57805460ff60201b19168155614c75565b80548c908290600490614c5c908490600160201b900460ff16615e90565b92506101000a81548160ff021916908360ff1602179055505b505b50505050505b600101614a96565b604080516102608101825260006101408201818152610160830182905261018083018290526101a083018290526101c083018290526101e083018290526102008301829052610220830182905261024083018290528252825160808101845281815260208082018390528185018390526060820183905280840191909152835180850185528281529081019190915290918201908152602001600081526020016000815260200160008152602001606081526020016060815260200160608152602001606081525090565b604080516101208101825260008082526020820181905291810182905260608082018390526080820183905260a0820183905260c0820183905260e082019290925261010081019190915290565b82805482825590600052602060002090601f01602090048101928215614e345791602002820160005b83821115614e0557835183826101000a81548160ff021916908360ff1602179055509260200192600101602081600001049283019260010302614dc7565b8015614e325782816101000a81549060ff0219169055600101602081600001049283019260010302614e05565b505b50614e40929150614ea7565b5090565b604051806060016040528060008152602001614e796040518060400160405280600060010b8152602001600060010b81525090565b8152600060209091015290565b50805460008255601f016020900490600052602060002090810190611e1d91905b5b80821115614e405760008155600101614ea8565b6001600160a01b0381168114611e1d57600080fd5b60008060408385031215614ee457600080fd5b8235614eef81614ebc565b946020939093013593505050565b60008060408385031215614f1057600080fd5b50508035926020909101359150565b600060208284031215614f3157600080fd5b5035919050565b805182526020810151602083015260018060a01b03604082015116604083015260018060a01b0360608201511660608301526080810151608083015260a081015160a083015260c0810151614f9160c084018215159052565b5060e081015160e08301526101008101516114706101008401826001600160a01b03169052565b6102408101614fc78289614f38565b86516001600160a01b031661012083015260208088015161014084015260408801516101608401526060909701516101808301528551600190810b6101a0840152959096015190940b6101c08501526101e084019290925261020083015261022090910152919050565b634e487b7160e01b600052604160045260246000fd5b60405161012081016001600160401b038111828210171561506a5761506a615031565b60405290565b60405160c081016001600160401b038111828210171561506a5761506a615031565b60405160e081016001600160401b038111828210171561506a5761506a615031565b604051601f8201601f191681016001600160401b03811182821017156150dc576150dc615031565b604052919050565b60006001600160401b038211156150fd576150fd615031565b5060051b60200190565b600082601f83011261511857600080fd5b813561512b615126826150e4565b6150b4565b8082825260208201915060208360051b86010192508583111561514d57600080fd5b602085015b8381101561516a578035835260209283019201615152565b5095945050505050565b60008060006060848603121561518957600080fd5b8335925060208401356001600160401b038111156151a657600080fd5b6151b286828701615107565b92505060408401356001600160401b038111156151ce57600080fd5b6151da86828701615107565b9150509250925092565b600081518084526020840193506020830160005b8281101561521957815160ff168652602095860195909101906001016151f8565b5093949350505050565b805161ffff16825260006020820151615241602085018260ff169052565b506040820151615256604085018260ff169052565b50606082015161526b606085018260ff169052565b506080820151615280608085018260ff169052565b5060a082015161529560a085018260ff169052565b5060c08201516152aa60c085018260ff169052565b5060e08201516152bf60e085018260ff169052565b5061010082015161012061010085015261221a6101208501826151e4565b600082825180855260208501945060208160051b8301016020850160005b8381101561532d57601f19858403018852615317838351615223565b60209889019890935091909101906001016152fb565b50909695505050505050565b600081518084526020840193506020830160005b82811015615219578151600081518852602082015161538260208a0182805160010b8252602081015160010b60208301525050565b505060400151151560608701526080909501946020919091019060010161534d565b600081518084526020840193506020830160005b828110156152195781518652602095860195909101906001016153b8565b6153e1828251614f38565b60208181015180516001600160a01b031661012085015290810151610140840152604081015161016084015260608101516101808401526000905060408201518051600190810b6101a08601526020820151900b6101c08501525060608201516101e0840152608082015161020084015260a082015161022084015260c08201516102c06102408501526154796102c08501826152dd565b905060e08301518482036102608601526154938282615339565b9150506101008301518482036102808601526154af82826153a4565b9150506101208301518482036102a08601526123ed82826153a4565b60208152600061216a60208301846153d6565b60208152600061216a6020830184615223565b60208152600061216a6020830184615339565b600080600080600060a0868803121561551c57600080fd5b853561552781614ebc565b9450602086013561553781614ebc565b9350604086013561554781614ebc565b9250606086013561555781614ebc565b9150608086013561556781614ebc565b809150509295509295909350565b6000806020838503121561558857600080fd5b82356001600160401b0381111561559e57600080fd5b8301601f810185136155af57600080fd5b80356001600160401b038111156155c557600080fd5b8560208260051b84010111156155da57600080fd5b6020919091019590945092505050565b6000602082016020835280845180835260408501915060408160051b86010192506020860160005b8281101561564357603f1987860301845261562e8583516153d6565b94506020938401939190910190600101615612565b50929695505050505050565b8035600181900b811461566157600080fd5b919050565b6000806000806080858703121561567c57600080fd5b84359350602085013592506156936040860161564f565b91506156a16060860161564f565b905092959194509250565b600080604083850312156156bf57600080fd5b8235915060208301356001600160401b038111156156dc57600080fd5b6156e885828601615107565b9150509250929050565b60008060008060008060c0878903121561570b57600080fd5b86359550602087013594506157226040880161564f565b93506157306060880161564f565b925060808701356006811061574457600080fd5b9598949750929591949360a090920135925050565b8015158114611e1d57600080fd5b60008060008060008060008060006101208a8c03121561578657600080fd5b8935985060208a013561579881614ebc565b975060408a01356157a881614ebc565b965060608a0135955060808a0135945060a08a01356157c681615759565b989b979a5095989497939693955050505060c08201359160e0810135916101009091013590565b60ff81168114611e1d57600080fd5b60008060006060848603121561581157600080fd5b8335925060208401359150604084013561582a816157ed565b809150509250925092565b60006020828403121561584757600080fd5b813561216a81614ebc565b634e487b7160e01b600052601160045260246000fd5b80820180821115610e4a57610e4a615852565b634e487b7160e01b600052603260045260246000fd5b805161ffff8116811461566157600080fd5b8051615661816157ed565b600082601f8301126158bf57600080fd5b81516158cd615126826150e4565b8082825260208201915060208360051b8601019250858311156158ef57600080fd5b602085015b8381101561516a578051615907816157ed565b8352602092830192016158f4565b60006020828403121561592757600080fd5b81516001600160401b0381111561593d57600080fd5b8201610120818503121561595057600080fd5b615958615047565b61596182615891565b815261596f602083016158a3565b6020820152615980604083016158a3565b6040820152615991606083016158a3565b60608201526159a2608083016158a3565b60808201526159b360a083016158a3565b60a08201526159c460c083016158a3565b60c08201526159d560e083016158a3565b60e08201526101008201516001600160401b038111156159f457600080fd5b615a00868285016158ae565b61010083015250949350505050565b600060018201615a2157615a21615852565b5060010190565b60048110611e1d57600080fd5b600060808284031215615a4757600080fd5b604051608081016001600160401b0381118282101715615a6957615a69615031565b80604052508091508251615a7c81615a28565b81526020830151615a8c81615a28565b60208201526040830151615a9f81615a28565b60408201526060830151615ab281615a28565b6060919091015292915050565b6000818303610160811215615ad357600080fd5b615adb615070565b83518152915060c0601f1982011215615af357600080fd5b50615afc615070565b615b0860208401615891565b81526040830151615b18816157ed565b60208201526060830151615b2b816157ed565b6040820152615b3c60808401615891565b606082015260a0830151615b4f816157ed565b608082015260c0830151615b62816157ed565b60a08201526020820152615b7860e083016158a3565b6040820152615b8a61010083016158a3565b6060820152615b9c61012083016158a3565b6080820152615bae61014083016158a3565b60a082015292915050565b805161566181615759565b600060e08284031215615bd657600080fd5b615bde615092565b9050815163ffffffff81168114615bf457600080fd5b8152615c0260208301615891565b6020820152615c1360408301615891565b6040820152615c2460608301615bb9565b6060820152615c3560808301615bb9565b6080820152615c4660a08301615bb9565b60a082015260c09182015191810191909152919050565b805161566181614ebc565b600060208284031215615c7a57600080fd5b81516001600160401b03811115615c9057600080fd5b82016103208185031215615ca357600080fd5b615cab615070565b81516001600160401b03811115615cc157600080fd5b8201601f81018613615cd257600080fd5b80516001600160401b03811115615ceb57615ceb615031565b615cfe601f8201601f19166020016150b4565b818152876020838501011115615d1357600080fd5b60005b82811015615d3257602081850181015183830182015201615d16565b50600060209282018301528352838101519083015250615d558560408401615a35565b6040820152615d678560c08401615abf565b6060820152615d7a856102208401615bc4565b6080820152615d8c6103008301615c5d565b60a0820152949350505050565b600060208284031215615dab57600080fd5b815161216a81615759565b600182810b9082900b03617fff198112617fff82131715610e4a57610e4a615852565b60ff8181168382160190811115610e4a57610e4a615852565b634e487b7160e01b600052602160045260246000fd5b600060ff821660ff8103615e1e57615e1e615852565b60010192915050565b61ffff818116838216029081169081811461442b5761442b615852565b600061ffff831680615e6657634e487b7160e01b600052601260045260246000fd5b8061ffff84160491505092915050565b61ffff8281168282160390811115610e4a57610e4a615852565b60ff8281168282160390811115610e4a57610e4a615852565b600060208284031215615ebb57600080fd5b81516001600160401b03811115615ed157600080fd5b8201601f81018413615ee257600080fd5b8051615ef0615126826150e4565b8082825260208201915060208360051b850101925086831115615f1257600080fd5b6020840193505b82841015615f34578351825260209384019390910190615f19565b9695505050505050565b8082028115828204841417610e4a57610e4a615852565b600060208284031215615f6757600080fd5b815161216a816157ed565b81810381811115610e4a57610e4a615852565b634e487b7160e01b600052603160045260246000fd5b6020810160048310615fbd57634e487b7160e01b600052602160045260246000fd5b9190529056fea26469706673582212202791fe2e95bcfb107f8e9366349838af6051ede8b43c510c2f74a6ff71a2357964736f6c634300081c0033",
  "linkReferences": {},
  "deployedLinkReferences": {}
}