{
  "_format": "hh-sol-artifact-1",
  "contractName": "Ships",
  "sourceName": "contracts/Ships.sol",
  "abi": [
    {
      "inputs": [
        {
          "internalType": "address",
          "name": "_renderer",
          "type": "address"
        }
      ],
      "stateMutability": "nonpayable",
      "type": "constructor"
    },
    {
      "inputs": [],
      "name": "ArrayLengthMismatch",
      "type": "error"
    },
    {
      "inputs": [
        {
          "internalType": "uint256",
          "name": "",
          "type": "uint256"
        }
      ],
      "name": "CannotRecycleFreeShip",
      "type": "error"
    },
    {
      "inputs": [],
      "name": "ClaimCooldownNotPassed",
      "type": "error"
    },
    {
      "inputs": [
        {
          "internalType": "address",
          "name": "sender",
          "type": "address"
        },
        {
          "internalType": "uint256",
          "name": "tokenId",
          "type": "uint256"
        },
        {
          "internalType": "address",
          "name": "owner",
          "type": "address"
        }
      ],
      "name": "ERC721IncorrectOwner",
      "type": "error"
    },
    {
      "inputs": [
        {
          "internalType": "address",
          "name": "operator",
          "type": "address"
        },
        {
          "internalType": "uint256",
          "name": "tokenId",
          "type": "uint256"
        }
      ],
      "name": "ERC721InsufficientApproval",
      "type": "error"
    },
    {
      "inputs": [
        {
          "internalType": "address",
          "name": "approver",
          "type": "address"
        }
      ],
      "name": "ERC721InvalidApprover",
      "type": "error"
    },
    {
      "inputs": [
        {
          "internalType": "address",
          "name": "operator",
          "type": "address"
        }
      ],
      "name": "ERC721InvalidOperator",
      "type": "error"
    },
    {
      "inputs": [
        {
          "internalType": "address",
          "name": "owner",
          "type": "address"
        }
      ],
      "name": "ERC721InvalidOwner",
      "type": "error"
    },
    {
      "inputs": [
        {
          "internalType": "address",
          "name": "receiver",
          "type": "address"
        }
      ],
      "name": "ERC721InvalidReceiver",
      "type": "error"
    },
    {
      "inputs": [
        {
          "internalType": "address",
          "name": "sender",
          "type": "address"
        }
      ],
      "name": "ERC721InvalidSender",
      "type": "error"
    },
    {
      "inputs": [
        {
          "internalType": "uint256",
          "name": "tokenId",
          "type": "uint256"
        }
      ],
      "name": "ERC721NonexistentToken",
      "type": "error"
    },
    {
      "inputs": [
        {
          "internalType": "address",
          "name": "",
          "type": "address"
        }
      ],
      "name": "InsufficientPurchases",
      "type": "error"
    },
    {
      "inputs": [
        {
          "internalType": "uint256",
          "name": "_tier",
          "type": "uint256"
        },
        {
          "internalType": "uint256",
          "name": "_amount",
          "type": "uint256"
        }
      ],
      "name": "InvalidPurchase",
      "type": "error"
    },
    {
      "inputs": [],
      "name": "InvalidReferral",
      "type": "error"
    },
    {
      "inputs": [
        {
          "internalType": "uint16",
          "name": "",
          "type": "uint16"
        }
      ],
      "name": "InvalidVariant",
      "type": "error"
    },
    {
      "inputs": [],
      "name": "MintPaused",
      "type": "error"
    },
    {
      "inputs": [
        {
          "internalType": "address",
          "name": "",
          "type": "address"
        }
      ],
      "name": "NotAuthorized",
      "type": "error"
    },
    {
      "inputs": [
        {
          "internalType": "uint256",
          "name": "",
          "type": "uint256"
        }
      ],
      "name": "NotYourShip",
      "type": "error"
    },
    {
      "inputs": [
        {
          "internalType": "address",
          "name": "owner",
          "type": "address"
        }
      ],
      "name": "OwnableInvalidOwner",
      "type": "error"
    },
    {
      "inputs": [
        {
          "internalType": "address",
          "name": "account",
          "type": "address"
        }
      ],
      "name": "OwnableUnauthorizedAccount",
      "type": "error"
    },
    {
      "inputs": [],
      "name": "ReentrancyGuardReentrantCall",
      "type": "error"
    },
    {
      "inputs": [],
      "name": "ReferralTransferFailed",
      "type": "error"
    },
    {
      "inputs": [
        {
          "internalType": "uint256",
          "name": "",
          "type": "uint256"
        }
      ],
      "name": "ShipAlreadyDestroyed",
      "type": "error"
    },
    {
      "inputs": [
        {
          "internalType": "uint256",
          "name": "",
          "type": "uint256"
        }
      ],
      "name": "ShipConstructed",
      "type": "error"
    },
    {
      "inputs": [],
      "name": "ShipDestroyed",
      "type": "error"
    },
    {
      "inputs": [
        {
          "internalType": "uint256",
          "name": "",
          "type": "uint256"
        }
      ],
      "name": "ShipInFleet",
      "type": "error"
    },
    {
      "inputs": [],
      "name": "WithdrawalFailed",
      "type": "error"
    },
    {
      "anonymous": false,
      "inputs": [
        {
          "indexed": true,
          "internalType": "address",
          "name": "owner",
          "type": "address"
        },
        {
          "indexed": true,
          "internalType": "address",
          "name": "approved",
          "type": "address"
        },
        {
          "indexed": true,
          "internalType": "uint256",
          "name": "tokenId",
          "type": "uint256"
        }
      ],
      "name": "Approval",
      "type": "event"
    },
    {
      "anonymous": false,
      "inputs": [
        {
          "indexed": true,
          "internalType": "address",
          "name": "owner",
          "type": "address"
        },
        {
          "indexed": true,
          "internalType": "address",
          "name": "operator",
          "type": "address"
        },
        {
          "indexed": false,
          "internalType": "bool",
          "name": "approved",
          "type": "bool"
        }
      ],
      "name": "ApprovalForAll",
      "type": "event"
    },
    {
      "anonymous": false,
      "inputs": [
        {
          "indexed": false,
          "internalType": "uint256",
          "name": "tokenId",
          "type": "uint256"
        }
      ],
      "name": "Locked",
      "type": "event"
    },
    {
      "anonymous": false,
      "inputs": [
        {
          "indexed": false,
          "internalType": "uint256",
          "name": "_tokenId",
          "type": "uint256"
        }
      ],
      "name": "MetadataUpdate",
      "type": "event"
    },
    {
      "anonymous": false,
      "inputs": [
        {
          "indexed": true,
          "internalType": "address",
          "name": "previousOwner",
          "type": "address"
        },
        {
          "indexed": true,
          "internalType": "address",
          "name": "newOwner",
          "type": "address"
        }
      ],
      "name": "OwnershipTransferred",
      "type": "event"
    },
    {
      "anonymous": false,
      "inputs": [
        {
          "indexed": true,
          "internalType": "address",
          "name": "from",
          "type": "address"
        },
        {
          "indexed": true,
          "internalType": "address",
          "name": "to",
          "type": "address"
        },
        {
          "indexed": true,
          "internalType": "uint256",
          "name": "tokenId",
          "type": "uint256"
        }
      ],
      "name": "Transfer",
      "type": "event"
    },
    {
      "anonymous": false,
      "inputs": [
        {
          "indexed": false,
          "internalType": "uint256",
          "name": "tokenId",
          "type": "uint256"
        }
      ],
      "name": "Unlocked",
      "type": "event"
    },
    {
      "inputs": [
        {
          "internalType": "address",
          "name": "",
          "type": "address"
        }
      ],
      "name": "amountPurchased",
      "outputs": [
        {
          "internalType": "uint256",
          "name": "",
          "type": "uint256"
        }
      ],
      "stateMutability": "view",
      "type": "function"
    },
    {
      "inputs": [
        {
          "internalType": "address",
          "name": "to",
          "type": "address"
        },
        {
          "internalType": "uint256",
          "name": "tokenId",
          "type": "uint256"
        }
      ],
      "name": "approve",
      "outputs": [],
      "stateMutability": "nonpayable",
      "type": "function"
    },
    {
      "inputs": [
        {
          "internalType": "address",
          "name": "owner",
          "type": "address"
        }
      ],
      "name": "balanceOf",
      "outputs": [
        {
          "internalType": "uint256",
          "name": "",
          "type": "uint256"
        }
      ],
      "stateMutability": "view",
      "type": "function"
    },
    {
      "inputs": [],
      "name": "claimCooldownPeriod",
      "outputs": [
        {
          "internalType": "uint256",
          "name": "",
          "type": "uint256"
        }
      ],
      "stateMutability": "view",
      "type": "function"
    },
    {
      "inputs": [
        {
          "internalType": "uint16",
          "name": "_variant",
          "type": "uint16"
        }
      ],
      "name": "claimFreeShips",
      "outputs": [],
      "stateMutability": "nonpayable",
      "type": "function"
    },
    {
      "inputs": [],
      "name": "config",
      "outputs": [
        {
          "internalType": "address",
          "name": "gameAddress",
          "type": "address"
        },
        {
          "internalType": "address",
          "name": "lobbyAddress",
          "type": "address"
        },
        {
          "internalType": "address",
          "name": "fleetsAddress",
          "type": "address"
        },
        {
          "internalType": "contract IRenderMetadata",
          "name": "metadataRenderer",
          "type": "address"
        },
        {
          "internalType": "contract IRandomManager",
          "name": "randomManager",
          "type": "address"
        },
        {
          "internalType": "contract IGenerateNewShip",
          "name": "shipGenerator",
          "type": "address"
        },
        {
          "internalType": "contract IShipAttributes",
          "name": "shipAttributes",
          "type": "address"
        }
      ],
      "stateMutability": "view",
      "type": "function"
    },
    {
      "inputs": [],
      "name": "constructAllMyShips",
      "outputs": [],
      "stateMutability": "nonpayable",
      "type": "function"
    },
    {
      "inputs": [
        {
          "internalType": "uint256",
          "name": "_id",
          "type": "uint256"
        }
      ],
      "name": "constructShip",
      "outputs": [],
      "stateMutability": "nonpayable",
      "type": "function"
    },
    {
      "inputs": [
        {
          "internalType": "uint256[]",
          "name": "_ids",
          "type": "uint256[]"
        }
      ],
      "name": "constructShips",
      "outputs": [],
      "stateMutability": "nonpayable",
      "type": "function"
    },
    {
      "inputs": [
        {
          "internalType": "address",
          "name": "_to",
          "type": "address"
        },
        {
          "internalType": "uint256",
          "name": "_amount",
          "type": "uint256"
        },
        {
          "internalType": "uint16",
          "name": "_variant",
          "type": "uint16"
        },
        {
          "internalType": "uint8",
          "name": "_tier",
          "type": "uint8"
        }
      ],
      "name": "createShips",
      "outputs": [],
      "stateMutability": "nonpayable",
      "type": "function"
    },
    {
      "inputs": [
        {
          "internalType": "uint256",
          "name": "_id",
          "type": "uint256"
        },
        {
          "components": [
            {
              "internalType": "string",
              "name": "name",
              "type": "string"
            },
            {
              "internalType": "uint256",
              "name": "id",
              "type": "uint256"
            },
            {
              "components": [
                {
                  "internalType": "enum MainWeapon",
                  "name": "mainWeapon",
                  "type": "uint8"
                },
                {
                  "internalType": "enum Armor",
                  "name": "armor",
                  "type": "uint8"
                },
                {
                  "internalType": "enum Shields",
                  "name": "shields",
                  "type": "uint8"
                },
                {
                  "internalType": "enum Special",
                  "name": "special",
                  "type": "uint8"
                }
              ],
              "internalType": "struct Equipment",
              "name": "equipment",
              "type": "tuple"
            },
            {
              "components": [
                {
                  "internalType": "uint256",
                  "name": "serialNumber",
                  "type": "uint256"
                },
                {
                  "components": [
                    {
                      "internalType": "uint16",
                      "name": "h1",
                      "type": "uint16"
                    },
                    {
                      "internalType": "uint8",
                      "name": "s1",
                      "type": "uint8"
                    },
                    {
                      "internalType": "uint8",
                      "name": "l1",
                      "type": "uint8"
                    },
                    {
                      "internalType": "uint16",
                      "name": "h2",
                      "type": "uint16"
                    },
                    {
                      "internalType": "uint8",
                      "name": "s2",
                      "type": "uint8"
                    },
                    {
                      "internalType": "uint8",
                      "name": "l2",
                      "type": "uint8"
                    },
                    {
                      "internalType": "uint16",
                      "name": "h3",
                      "type": "uint16"
                    },
                    {
                      "internalType": "uint8",
                      "name": "s3",
                      "type": "uint8"
                    },
                    {
                      "internalType": "uint8",
                      "name": "l3",
                      "type": "uint8"
                    }
                  ],
                  "internalType": "struct Colors",
                  "name": "colors",
                  "type": "tuple"
                },
                {
                  "internalType": "uint16",
                  "name": "variant",
                  "type": "uint16"
                },
                {
                  "internalType": "uint8",
                  "name": "accuracy",
                  "type": "uint8"
                },
                {
                  "internalType": "uint8",
                  "name": "hull",
                  "type": "uint8"
                },
                {
                  "internalType": "uint8",
                  "name": "speed",
                  "type": "uint8"
                }
              ],
              "internalType": "struct Traits",
              "name": "traits",
              "type": "tuple"
            },
            {
              "components": [
                {
                  "internalType": "uint32",
                  "name": "shipsDestroyed",
                  "type": "uint32"
                },
                {
                  "internalType": "uint16",
                  "name": "costsVersion",
                  "type": "uint16"
                },
                {
                  "internalType": "uint16",
                  "name": "cost",
                  "type": "uint16"
                },
                {
                  "internalType": "uint16",
                  "name": "modified",
                  "type": "uint16"
                },
                {
                  "internalType": "bool",
                  "name": "shiny",
                  "type": "bool"
                },
                {
                  "internalType": "bool",
                  "name": "constructed",
                  "type": "bool"
                },
                {
                  "internalType": "bool",
                  "name": "inFleet",
                  "type": "bool"
                },
                {
                  "internalType": "bool",
                  "name": "isFreeShip",
                  "type": "bool"
                },
                {
                  "internalType": "uint256",
                  "name": "timestampDestroyed",
                  "type": "uint256"
                }
              ],
              "internalType": "struct ShipData",
              "name": "shipData",
              "type": "tuple"
            },
            {
              "internalType": "address",
              "name": "owner",
              "type": "address"
            }
          ],
          "internalType": "struct Ship",
          "name": "_ship",
          "type": "tuple"
        }
      ],
      "name": "customizeShip",
      "outputs": [],
      "stateMutability": "nonpayable",
      "type": "function"
    },
    {
      "inputs": [
        {
          "internalType": "uint256",
          "name": "tokenId",
          "type": "uint256"
        }
      ],
      "name": "getApproved",
      "outputs": [
        {
          "internalType": "address",
          "name": "",
          "type": "address"
        }
      ],
      "stateMutability": "view",
      "type": "function"
    },
    {
      "inputs": [],
      "name": "getPurchaseInfo",
      "outputs": [
        {
          "internalType": "uint8[]",
          "name": "_tierShips",
          "type": "uint8[]"
        },
        {
          "internalType": "uint256[]",
          "name": "_tierPrices",
          "type": "uint256[]"
        }
      ],
      "stateMutability": "view",
      "type": "function"
    },
    {
      "inputs": [
        {
          "internalType": "uint256",
          "name": "_id",
          "type": "uint256"
        }
      ],
      "name": "getShip",
      "outputs": [
        {
          "components": [
            {
              "internalType": "string",
              "name": "name",
              "type": "string"
            },
            {
              "internalType": "uint256",
              "name": "id",
              "type": "uint256"
            },
            {
              "components": [
                {
                  "internalType": "enum MainWeapon",
                  "name": "mainWeapon",
                  "type": "uint8"
                },
                {
                  "internalType": "enum Armor",
                  "name": "armor",
                  "type": "uint8"
                },
                {
                  "internalType": "enum Shields",
                  "name": "shields",
                  "type": "uint8"
                },
                {
                  "internalType": "enum Special",
                  "name": "special",
                  "type": "uint8"
                }
              ],
              "internalType": "struct Equipment",
              "name": "equipment",
              "type": "tuple"
            },
            {
              "components": [
                {
                  "internalType": "uint256",
                  "name": "serialNumber",
                  "type": "uint256"
                },
                {
                  "components": [
                    {
                      "internalType": "uint16",
                      "name": "h1",
                      "type": "uint16"
                    },
                    {
                      "internalType": "uint8",
                      "name": "s1",
                      "type": "uint8"
                    },
                    {
                      "internalType": "uint8",
                      "name": "l1",
                      "type": "uint8"
                    },
                    {
                      "internalType": "uint16",
                      "name": "h2",
                      "type": "uint16"
                    },
                    {
                      "internalType": "uint8",
                      "name": "s2",
                      "type": "uint8"
                    },
                    {
                      "internalType": "uint8",
                      "name": "l2",
                      "type": "uint8"
                    },
                    {
                      "internalType": "uint16",
                      "name": "h3",
                      "type": "uint16"
                    },
                    {
                      "internalType": "uint8",
                      "name": "s3",
                      "type": "uint8"
                    },
                    {
                      "internalType": "uint8",
                      "name": "l3",
                      "type": "uint8"
                    }
                  ],
                  "internalType": "struct Colors",
                  "name": "colors",
                  "type": "tuple"
                },
                {
                  "internalType": "uint16",
                  "name": "variant",
                  "type": "uint16"
                },
                {
                  "internalType": "uint8",
                  "name": "accuracy",
                  "type": "uint8"
                },
                {
                  "internalType": "uint8",
                  "name": "hull",
                  "type": "uint8"
                },
                {
                  "internalType": "uint8",
                  "name": "speed",
                  "type": "uint8"
                }
              ],
              "internalType": "struct Traits",
              "name": "traits",
              "type": "tuple"
            },
            {
              "components": [
                {
                  "internalType": "uint32",
                  "name": "shipsDestroyed",
                  "type": "uint32"
                },
                {
                  "internalType": "uint16",
                  "name": "costsVersion",
                  "type": "uint16"
                },
                {
                  "internalType": "uint16",
                  "name": "cost",
                  "type": "uint16"
                },
                {
                  "internalType": "uint16",
                  "name": "modified",
                  "type": "uint16"
                },
                {
                  "internalType": "bool",
                  "name": "shiny",
                  "type": "bool"
                },
                {
                  "internalType": "bool",
                  "name": "constructed",
                  "type": "bool"
                },
                {
                  "internalType": "bool",
                  "name": "inFleet",
                  "type": "bool"
                },
                {
                  "internalType": "bool",
                  "name": "isFreeShip",
                  "type": "bool"
                },
                {
                  "internalType": "uint256",
                  "name": "timestampDestroyed",
                  "type": "uint256"
                }
              ],
              "internalType": "struct ShipData",
              "name": "shipData",
              "type": "tuple"
            },
            {
              "internalType": "address",
              "name": "owner",
              "type": "address"
            }
          ],
          "internalType": "struct Ship",
          "name": "",
          "type": "tuple"
        }
      ],
      "stateMutability": "view",
      "type": "function"
    },
    {
      "inputs": [
        {
          "internalType": "address",
          "name": "_owner",
          "type": "address"
        }
      ],
      "name": "getShipIdsOwned",
      "outputs": [
        {
          "internalType": "uint256[]",
          "name": "",
          "type": "uint256[]"
        }
      ],
      "stateMutability": "view",
      "type": "function"
    },
    {
      "inputs": [
        {
          "internalType": "uint256[]",
          "name": "_ids",
          "type": "uint256[]"
        }
      ],
      "name": "getShipsByIds",
      "outputs": [
        {
          "components": [
            {
              "internalType": "string",
              "name": "name",
              "type": "string"
            },
            {
              "internalType": "uint256",
              "name": "id",
              "type": "uint256"
            },
            {
              "components": [
                {
                  "internalType": "enum MainWeapon",
                  "name": "mainWeapon",
                  "type": "uint8"
                },
                {
                  "internalType": "enum Armor",
                  "name": "armor",
                  "type": "uint8"
                },
                {
                  "internalType": "enum Shields",
                  "name": "shields",
                  "type": "uint8"
                },
                {
                  "internalType": "enum Special",
                  "name": "special",
                  "type": "uint8"
                }
              ],
              "internalType": "struct Equipment",
              "name": "equipment",
              "type": "tuple"
            },
            {
              "components": [
                {
                  "internalType": "uint256",
                  "name": "serialNumber",
                  "type": "uint256"
                },
                {
                  "components": [
                    {
                      "internalType": "uint16",
                      "name": "h1",
                      "type": "uint16"
                    },
                    {
                      "internalType": "uint8",
                      "name": "s1",
                      "type": "uint8"
                    },
                    {
                      "internalType": "uint8",
                      "name": "l1",
                      "type": "uint8"
                    },
                    {
                      "internalType": "uint16",
                      "name": "h2",
                      "type": "uint16"
                    },
                    {
                      "internalType": "uint8",
                      "name": "s2",
                      "type": "uint8"
                    },
                    {
                      "internalType": "uint8",
                      "name": "l2",
                      "type": "uint8"
                    },
                    {
                      "internalType": "uint16",
                      "name": "h3",
                      "type": "uint16"
                    },
                    {
                      "internalType": "uint8",
                      "name": "s3",
                      "type": "uint8"
                    },
                    {
                      "internalType": "uint8",
                      "name": "l3",
                      "type": "uint8"
                    }
                  ],
                  "internalType": "struct Colors",
                  "name": "colors",
                  "type": "tuple"
                },
                {
                  "internalType": "uint16",
                  "name": "variant",
                  "type": "uint16"
                },
                {
                  "internalType": "uint8",
                  "name": "accuracy",
                  "type": "uint8"
                },
                {
                  "internalType": "uint8",
                  "name": "hull",
                  "type": "uint8"
                },
                {
                  "internalType": "uint8",
                  "name": "speed",
                  "type": "uint8"
                }
              ],
              "internalType": "struct Traits",
              "name": "traits",
              "type": "tuple"
            },
            {
              "components": [
                {
                  "internalType": "uint32",
                  "name": "shipsDestroyed",
                  "type": "uint32"
                },
                {
                  "internalType": "uint16",
                  "name": "costsVersion",
                  "type": "uint16"
                },
                {
                  "internalType": "uint16",
                  "name": "cost",
                  "type": "uint16"
                },
                {
                  "internalType": "uint16",
                  "name": "modified",
                  "type": "uint16"
                },
                {
                  "internalType": "bool",
                  "name": "shiny",
                  "type": "bool"
                },
                {
                  "internalType": "bool",
                  "name": "constructed",
                  "type": "bool"
                },
                {
                  "internalType": "bool",
                  "name": "inFleet",
                  "type": "bool"
                },
                {
                  "internalType": "bool",
                  "name": "isFreeShip",
                  "type": "bool"
                },
                {
                  "internalType": "uint256",
                  "name": "timestampDestroyed",
                  "type": "uint256"
                }
              ],
              "internalType": "struct ShipData",
              "name": "shipData",
              "type": "tuple"
            },
            {
              "internalType": "address",
              "name": "owner",
              "type": "address"
            }
          ],
          "internalType": "struct Ship[]",
          "name": "",
          "type": "tuple[]"
        }
      ],
      "stateMutability": "view",
      "type": "function"
    },
    {
      "inputs": [
        {
          "internalType": "uint256",
          "name": "_trait",
          "type": "uint256"
        }
      ],
      "name": "getTierOfTrait",
      "outputs": [
        {
          "internalType": "uint8",
          "name": "",
          "type": "uint8"
        }
      ],
      "stateMutability": "pure",
      "type": "function"
    },
    {
      "inputs": [
        {
          "internalType": "address",
          "name": "",
          "type": "address"
        }
      ],
      "name": "isAllowedToCreateShips",
      "outputs": [
        {
          "internalType": "bool",
          "name": "",
          "type": "bool"
        }
      ],
      "stateMutability": "view",
      "type": "function"
    },
    {
      "inputs": [
        {
          "internalType": "address",
          "name": "owner",
          "type": "address"
        },
        {
          "internalType": "address",
          "name": "operator",
          "type": "address"
        }
      ],
      "name": "isApprovedForAll",
      "outputs": [
        {
          "internalType": "bool",
          "name": "",
          "type": "bool"
        }
      ],
      "stateMutability": "view",
      "type": "function"
    },
    {
      "inputs": [
        {
          "internalType": "uint256",
          "name": "_id",
          "type": "uint256"
        }
      ],
      "name": "isShipDestroyed",
      "outputs": [
        {
          "internalType": "bool",
          "name": "",
          "type": "bool"
        }
      ],
      "stateMutability": "view",
      "type": "function"
    },
    {
      "inputs": [
        {
          "internalType": "address",
          "name": "",
          "type": "address"
        }
      ],
      "name": "lastClaimTimestamp",
      "outputs": [
        {
          "internalType": "uint256",
          "name": "",
          "type": "uint256"
        }
      ],
      "stateMutability": "view",
      "type": "function"
    },
    {
      "inputs": [],
      "name": "maxVariant",
      "outputs": [
        {
          "internalType": "uint16",
          "name": "",
          "type": "uint16"
        }
      ],
      "stateMutability": "view",
      "type": "function"
    },
    {
      "inputs": [],
      "name": "name",
      "outputs": [
        {
          "internalType": "string",
          "name": "",
          "type": "string"
        }
      ],
      "stateMutability": "view",
      "type": "function"
    },
    {
      "inputs": [],
      "name": "owner",
      "outputs": [
        {
          "internalType": "address",
          "name": "",
          "type": "address"
        }
      ],
      "stateMutability": "view",
      "type": "function"
    },
    {
      "inputs": [
        {
          "internalType": "uint256",
          "name": "tokenId",
          "type": "uint256"
        }
      ],
      "name": "ownerOf",
      "outputs": [
        {
          "internalType": "address",
          "name": "",
          "type": "address"
        }
      ],
      "stateMutability": "view",
      "type": "function"
    },
    {
      "inputs": [],
      "name": "paused",
      "outputs": [
        {
          "internalType": "bool",
          "name": "",
          "type": "bool"
        }
      ],
      "stateMutability": "view",
      "type": "function"
    },
    {
      "inputs": [
        {
          "internalType": "address",
          "name": "_to",
          "type": "address"
        },
        {
          "internalType": "uint8",
          "name": "_tier",
          "type": "uint8"
        },
        {
          "internalType": "address",
          "name": "_referral",
          "type": "address"
        },
        {
          "internalType": "uint16",
          "name": "_variant",
          "type": "uint16"
        }
      ],
      "name": "purchaseWithFlow",
      "outputs": [],
      "stateMutability": "payable",
      "type": "function"
    },
    {
      "inputs": [],
      "name": "recycleReward",
      "outputs": [
        {
          "internalType": "uint256",
          "name": "",
          "type": "uint256"
        }
      ],
      "stateMutability": "view",
      "type": "function"
    },
    {
      "inputs": [
        {
          "internalType": "address",
          "name": "",
          "type": "address"
        }
      ],
      "name": "referralCount",
      "outputs": [
        {
          "internalType": "uint256",
          "name": "",
          "type": "uint256"
        }
      ],
      "stateMutability": "view",
      "type": "function"
    },
    {
      "inputs": [],
      "name": "renounceOwnership",
      "outputs": [],
      "stateMutability": "nonpayable",
      "type": "function"
    },
    {
      "inputs": [
        {
          "internalType": "address",
          "name": "from",
          "type": "address"
        },
        {
          "internalType": "address",
          "name": "to",
          "type": "address"
        },
        {
          "internalType": "uint256",
          "name": "tokenId",
          "type": "uint256"
        }
      ],
      "name": "safeTransferFrom",
      "outputs": [],
      "stateMutability": "nonpayable",
      "type": "function"
    },
    {
      "inputs": [
        {
          "internalType": "address",
          "name": "from",
          "type": "address"
        },
        {
          "internalType": "address",
          "name": "to",
          "type": "address"
        },
        {
          "internalType": "uint256",
          "name": "tokenId",
          "type": "uint256"
        },
        {
          "internalType": "bytes",
          "name": "data",
          "type": "bytes"
        }
      ],
      "name": "safeTransferFrom",
      "outputs": [],
      "stateMutability": "nonpayable",
      "type": "function"
    },
    {
      "inputs": [
        {
          "internalType": "address",
          "name": "operator",
          "type": "address"
        },
        {
          "internalType": "bool",
          "name": "approved",
          "type": "bool"
        }
      ],
      "name": "setApprovalForAll",
      "outputs": [],
      "stateMutability": "nonpayable",
      "type": "function"
    },
    {
      "inputs": [
        {
          "internalType": "uint256",
          "name": "_newCooldownPeriod",
          "type": "uint256"
        }
      ],
      "name": "setClaimCooldownPeriod",
      "outputs": [],
      "stateMutability": "nonpayable",
      "type": "function"
    },
    {
      "inputs": [
        {
          "internalType": "address",
          "name": "_gameAddress",
          "type": "address"
        },
        {
          "internalType": "address",
          "name": "_lobbyAddress",
          "type": "address"
        },
        {
          "internalType": "address",
          "name": "_fleetsAddress",
          "type": "address"
        },
        {
          "internalType": "address",
          "name": "_shipGenerator",
          "type": "address"
        },
        {
          "internalType": "address",
          "name": "_randomManager",
          "type": "address"
        },
        {
          "internalType": "address",
          "name": "_metadataRenderer",
          "type": "address"
        },
        {
          "internalType": "address",
          "name": "_shipAttributes",
          "type": "address"
        },
        {
          "internalType": "address",
          "name": "_universalCredits",
          "type": "address"
        }
      ],
      "name": "setConfig",
      "outputs": [],
      "stateMutability": "nonpayable",
      "type": "function"
    },
    {
      "inputs": [
        {
          "internalType": "uint256",
          "name": "_id",
          "type": "uint256"
        }
      ],
      "name": "setCostOfShip",
      "outputs": [],
      "stateMutability": "nonpayable",
      "type": "function"
    },
    {
      "inputs": [
        {
          "internalType": "uint256",
          "name": "_id",
          "type": "uint256"
        },
        {
          "internalType": "bool",
          "name": "_inFleet",
          "type": "bool"
        }
      ],
      "name": "setInFleet",
      "outputs": [],
      "stateMutability": "nonpayable",
      "type": "function"
    },
    {
      "inputs": [
        {
          "internalType": "address",
          "name": "_address",
          "type": "address"
        },
        {
          "internalType": "bool",
          "name": "_isAllowed",
          "type": "bool"
        }
      ],
      "name": "setIsAllowedToCreateShips",
      "outputs": [],
      "stateMutability": "nonpayable",
      "type": "function"
    },
    {
      "inputs": [
        {
          "internalType": "uint16",
          "name": "_maxVariant",
          "type": "uint16"
        }
      ],
      "name": "setMaxVariant",
      "outputs": [],
      "stateMutability": "nonpayable",
      "type": "function"
    },
    {
      "inputs": [
        {
          "internalType": "bool",
          "name": "_paused",
          "type": "bool"
        }
      ],
      "name": "setPaused",
      "outputs": [],
      "stateMutability": "nonpayable",
      "type": "function"
    },
    {
      "inputs": [
        {
          "internalType": "uint8[]",
          "name": "_tierShips",
          "type": "uint8[]"
        },
        {
          "internalType": "uint256[]",
          "name": "_tierPrices",
          "type": "uint256[]"
        }
      ],
      "name": "setPurchaseInfo",
      "outputs": [],
      "stateMutability": "nonpayable",
      "type": "function"
    },
    {
      "inputs": [
        {
          "internalType": "uint256",
          "name": "_newReward",
          "type": "uint256"
        }
      ],
      "name": "setRecycleReward",
      "outputs": [],
      "stateMutability": "nonpayable",
      "type": "function"
    },
    {
      "inputs": [
        {
          "internalType": "uint256",
          "name": "_id",
          "type": "uint256"
        },
        {
          "internalType": "uint256",
          "name": "_destroyerId",
          "type": "uint256"
        }
      ],
      "name": "setTimestampDestroyed",
      "outputs": [],
      "stateMutability": "nonpayable",
      "type": "function"
    },
    {
      "inputs": [
        {
          "internalType": "uint256[]",
          "name": "_shipIds",
          "type": "uint256[]"
        }
      ],
      "name": "shipBreaker",
      "outputs": [],
      "stateMutability": "nonpayable",
      "type": "function"
    },
    {
      "inputs": [],
      "name": "shipCount",
      "outputs": [
        {
          "internalType": "uint256",
          "name": "",
          "type": "uint256"
        }
      ],
      "stateMutability": "view",
      "type": "function"
    },
    {
      "inputs": [
        {
          "internalType": "uint256",
          "name": "",
          "type": "uint256"
        }
      ],
      "name": "ships",
      "outputs": [
        {
          "internalType": "string",
          "name": "name",
          "type": "string"
        },
        {
          "internalType": "uint256",
          "name": "id",
          "type": "uint256"
        },
        {
          "components": [
            {
              "internalType": "enum MainWeapon",
              "name": "mainWeapon",
              "type": "uint8"
            },
            {
              "internalType": "enum Armor",
              "name": "armor",
              "type": "uint8"
            },
            {
              "internalType": "enum Shields",
              "name": "shields",
              "type": "uint8"
            },
            {
              "internalType": "enum Special",
              "name": "special",
              "type": "uint8"
            }
          ],
          "internalType": "struct Equipment",
          "name": "equipment",
          "type": "tuple"
        },
        {
          "components": [
            {
              "internalType": "uint256",
              "name": "serialNumber",
              "type": "uint256"
            },
            {
              "components": [
                {
                  "internalType": "uint16",
                  "name": "h1",
                  "type": "uint16"
                },
                {
                  "internalType": "uint8",
                  "name": "s1",
                  "type": "uint8"
                },
                {
                  "internalType": "uint8",
                  "name": "l1",
                  "type": "uint8"
                },
                {
                  "internalType": "uint16",
                  "name": "h2",
                  "type": "uint16"
                },
                {
                  "internalType": "uint8",
                  "name": "s2",
                  "type": "uint8"
                },
                {
                  "internalType": "uint8",
                  "name": "l2",
                  "type": "uint8"
                },
                {
                  "internalType": "uint16",
                  "name": "h3",
                  "type": "uint16"
                },
                {
                  "internalType": "uint8",
                  "name": "s3",
                  "type": "uint8"
                },
                {
                  "internalType": "uint8",
                  "name": "l3",
                  "type": "uint8"
                }
              ],
              "internalType": "struct Colors",
              "name": "colors",
              "type": "tuple"
            },
            {
              "internalType": "uint16",
              "name": "variant",
              "type": "uint16"
            },
            {
              "internalType": "uint8",
              "name": "accuracy",
              "type": "uint8"
            },
            {
              "internalType": "uint8",
              "name": "hull",
              "type": "uint8"
            },
            {
              "internalType": "uint8",
              "name": "speed",
              "type": "uint8"
            }
          ],
          "internalType": "struct Traits",
          "name": "traits",
          "type": "tuple"
        },
        {
          "components": [
            {
              "internalType": "uint32",
              "name": "shipsDestroyed",
              "type": "uint32"
            },
            {
              "internalType": "uint16",
              "name": "costsVersion",
              "type": "uint16"
            },
            {
              "internalType": "uint16",
              "name": "cost",
              "type": "uint16"
            },
            {
              "internalType": "uint16",
              "name": "modified",
              "type": "uint16"
            },
            {
              "internalType": "bool",
              "name": "shiny",
              "type": "bool"
            },
            {
              "internalType": "bool",
              "name": "constructed",
              "type": "bool"
            },
            {
              "internalType": "bool",
              "name": "inFleet",
              "type": "bool"
            },
            {
              "internalType": "bool",
              "name": "isFreeShip",
              "type": "bool"
            },
            {
              "internalType": "uint256",
              "name": "timestampDestroyed",
              "type": "uint256"
            }
          ],
          "internalType": "struct ShipData",
          "name": "shipData",
          "type": "tuple"
        },
        {
          "internalType": "address",
          "name": "owner",
          "type": "address"
        }
      ],
      "stateMutability": "view",
      "type": "function"
    },
    {
      "inputs": [
        {
          "internalType": "bytes4",
          "name": "interfaceId",
          "type": "bytes4"
        }
      ],
      "name": "supportsInterface",
      "outputs": [
        {
          "internalType": "bool",
          "name": "",
          "type": "bool"
        }
      ],
      "stateMutability": "view",
      "type": "function"
    },
    {
      "inputs": [],
      "name": "symbol",
      "outputs": [
        {
          "internalType": "string",
          "name": "",
          "type": "string"
        }
      ],
      "stateMutability": "view",
      "type": "function"
    },
    {
      "inputs": [
        {
          "internalType": "uint256",
          "name": "",
          "type": "uint256"
        }
      ],
      "name": "tierPrices",
      "outputs": [
        {
          "internalType": "uint256",
          "name": "",
          "type": "uint256"
        }
      ],
      "stateMutability": "view",
      "type": "function"
    },
    {
      "inputs": [
        {
          "internalType": "uint256",
          "name": "",
          "type": "uint256"
        }
      ],
      "name": "tierShips",
      "outputs": [
        {
          "internalType": "uint8",
          "name": "",
          "type": "uint8"
        }
      ],
      "stateMutability": "view",
      "type": "function"
    },
    {
      "inputs": [
        {
          "internalType": "uint256",
          "name": "_id",
          "type": "uint256"
        }
      ],
      "name": "tokenURI",
      "outputs": [
        {
          "internalType": "string",
          "name": "",
          "type": "string"
        }
      ],
      "stateMutability": "view",
      "type": "function"
    },
    {
      "inputs": [
        {
          "internalType": "address",
          "name": "from",
          "type": "address"
        },
        {
          "internalType": "address",
          "name": "to",
          "type": "address"
        },
        {
          "internalType": "uint256",
          "name": "tokenId",
          "type": "uint256"
        }
      ],
      "name": "transferFrom",
      "outputs": [],
      "stateMutability": "nonpayable",
      "type": "function"
    },
    {
      "inputs": [
        {
          "internalType": "address",
          "name": "newOwner",
          "type": "address"
        }
      ],
      "name": "transferOwnership",
      "outputs": [],
      "stateMutability": "nonpayable",
      "type": "function"
    },
    {
      "inputs": [],
      "name": "universalCredits",
      "outputs": [
        {
          "internalType": "contract IUniversalCredits",
          "name": "",
          "type": "address"
        }
      ],
      "stateMutability": "view",
      "type": "function"
    },
    {
      "inputs": [],
      "name": "withdraw",
      "outputs": [],
      "stateMutability": "nonpayable",
      "type": "function"
    }
  ],
  "bytecode": "0x60806040526224ea00600d556018805462ffff00191661010017905567016345785d8a0000601b5534801561003357600080fd5b5060405161636038038061636083398101604081905261005291610300565b336040518060400160405280600e81526020016d57617270666c6f7720536869707360901b815250604051806040016040528060048152602001630534849560e41b81525081600090816100a691906103cf565b5060016100b382826103cf565b5050506001600160a01b0381166100e457604051631e4fbdf760e01b81526000600482015260240160405180910390fd5b6100ed816101ad565b506001600755601280546001600160a01b0319166001600160a01b0383161790556040805160a0810182526005808252600b6020830152601692820183905260286060830152603c60808301526101459291906101ff565b506040805160a0810182526745400a8fd53300008152678aa39c121a27000060208201526801156abf16a40f0000918101919091526801e595739d72eb000060608201526802b5c0282441c7000060808201526101a69060179060056102a5565b505061048d565b600680546001600160a01b038381166001600160a01b0319831681179093556040519116919082907f8be0079c531659141344cd1fd0a4f28419497f9722a3daafe3b4186f6b6457e090600090a35050565b82805482825590600052602060002090601f016020900481019282156102955791602002820160005b8382111561026657835183826101000a81548160ff021916908360ff1602179055509260200192600101602081600001049283019260010302610228565b80156102935782816101000a81549060ff0219169055600101602081600001049283019260010302610266565b505b506102a19291506102eb565b5090565b828054828255906000526020600020908101928215610295579160200282015b8281111561029557825182906001600160481b03169055916020019190600101906102c5565b5b808211156102a157600081556001016102ec565b60006020828403121561031257600080fd5b81516001600160a01b038116811461032957600080fd5b9392505050565b634e487b7160e01b600052604160045260246000fd5b600181811c9082168061035a57607f821691505b60208210810361037a57634e487b7160e01b600052602260045260246000fd5b50919050565b601f8211156103ca57806000526020600020601f840160051c810160208510156103a75750805b601f840160051c820191505b818110156103c757600081556001016103b3565b50505b505050565b81516001600160401b038111156103e8576103e8610330565b6103fc816103f68454610346565b84610380565b6020601f82116001811461043057600083156104185750848201515b600019600385901b1c1916600184901b1784556103c7565b600084815260208120601f198516915b828110156104605787850151825560209485019460019092019101610440565b508482101561047e5786840151600019600387901b60f8161c191681555b50505050600190811b01905550565b615ec48061049c6000396000f3fe60806040526004361061034f5760003560e01c80636e0f7a48116101c6578063977216c2116100f7578063db74559b11610095578063e6b5c3351161006f578063e6b5c33514610a9f578063e985e9c514610abf578063f25a034214610adf578063f2fde38b14610b0c57600080fd5b8063db74559b14610a32578063dd77071214610a5f578063dd81d5bf14610a7f57600080fd5b8063b88d4fde116100d1578063b88d4fde146109af578063bd9d518b146109cf578063c87b56dd146109fc578063d08acd9314610a1c57600080fd5b8063977216c214610959578063a22cb46514610979578063b4e847a01461099957600080fd5b80637d9e9d30116101645780638c79d7e31161013e5780638c79d7e3146108d45780638da5cb5b146108f4578063959601011461091257806395d89b411461094457600080fd5b80637d9e9d301461087f5780637eebe99d1461089f5780638163997c146108bf57600080fd5b8063715018a6116101a0578063715018a61461078c57806375bfe420146107a157806378fa901c146107d157806379502c55146107f157600080fd5b80636e0f7a481461073657806370a0823114610756578063710cbc441461077657600080fd5b80634025b22d116102a057806359e651e01161023e578063600917ff11610218578063600917ff1461069e57806361212431146106b15780636352211e146106e357806368382aad1461070357600080fd5b806359e651e0146106375780635b91bbca146106645780635c975abb1461068457600080fd5b8063446c00f71161027a578063446c00f7146105a257806348cfc19e146105c25780634d4e8dfa146105e5578063514c2ece1461061757600080fd5b80634025b22d1461053557806342842e0e146105625780634346b1501461058257600080fd5b806311a960cd1161030d5780631a0111aa116102e75780631a0111aa146104c057806323b872dd146104e0578063300eccab146105005780633ccfd60b1461052057600080fd5b806311a960cd1461046057806316c38b3c1461048057806317225941146104a057600080fd5b8062dbc7381461035457806301ffc9a71461037657806306fdde03146103ab578063074ba79d146103cd578063081812fc14610408578063095ea7b314610440575b600080fd5b34801561036057600080fd5b5061037461036f36600461441b565b610b2c565b005b34801561038257600080fd5b506103966103913660046144da565b610bc2565b60405190151581526020015b60405180910390f35b3480156103b757600080fd5b506103c0610c14565b6040516103a29190614547565b3480156103d957600080fd5b506103fa6103e836600461455a565b600c6020526000908152604090205481565b6040519081526020016103a2565b34801561041457600080fd5b50610428610423366004614577565b610ca6565b6040516001600160a01b0390911681526020016103a2565b34801561044c57600080fd5b5061037461045b366004614590565b610ccf565b34801561046c57600080fd5b5061037461047b3660046145bc565b610cde565b34801561048c57600080fd5b5061037461049b3660046145f7565b610ea3565b3480156104ac57600080fd5b50601a54610428906001600160a01b031681565b3480156104cc57600080fd5b506103746104db36600461465f565b610ebe565b3480156104ec57600080fd5b506103746104fb3660046146ce565b610f06565b34801561050c57600080fd5b506103fa61051b366004614577565b610f91565b34801561052c57600080fd5b50610374610fb2565b34801561054157600080fd5b50610555610550366004614577565b611042565b6040516103a29190614982565b34801561056e57600080fd5b5061037461057d3660046146ce565b6114e1565b34801561058e57600080fd5b5061037461059d366004614995565b611501565b3480156105ae57600080fd5b506103746105bd366004614577565b611688565b3480156105ce57600080fd5b506105d76116d7565b6040516103a2929190614a12565b3480156105f157600080fd5b50610605610600366004614577565b6117a8565b6040516103a296959493929190614a63565b34801561062357600080fd5b50610374610632366004614577565b611c0e565b34801561064357600080fd5b5061065761065236600461455a565b611c1b565b6040516103a29190614ac5565b34801561067057600080fd5b5061037461067f366004614af3565b611c3f565b34801561069057600080fd5b506018546103969060ff1681565b6103746106ac366004614b2a565b611cd8565b3480156106bd57600080fd5b506106d16106cc366004614577565b611e5c565b60405160ff90911681526020016103a2565b3480156106ef57600080fd5b506104286106fe366004614577565b611e90565b34801561070f57600080fd5b5060185461072390610100900461ffff1681565b60405161ffff90911681526020016103a2565b34801561074257600080fd5b506106d1610751366004614577565b611e9b565b34801561076257600080fd5b506103fa61077136600461455a565b611ec3565b34801561078257600080fd5b506103fa600d5481565b34801561079857600080fd5b50610374611f0b565b3480156107ad57600080fd5b506103966107bc36600461455a565b60196020526000908152604090205460ff1681565b3480156107dd57600080fd5b506103746107ec366004614b86565b611f1f565b3480156107fd57600080fd5b50600f54601054601154601254601354601454601554610836966001600160a01b03908116968116958116948116938116928116911687565b604080516001600160a01b039889168152968816602088015294871694860194909452918516606085015284166080840152831660a083015290911660c082015260e0016103a2565b34801561088b57600080fd5b5061037461089a366004614995565b611fed565b3480156108ab57600080fd5b506103746108ba366004614bce565b612021565b3480156108cb57600080fd5b50610374612105565b3480156108e057600080fd5b506103746108ef366004614bfe565b612199565b34801561090057600080fd5b506006546001600160a01b0316610428565b34801561091e57600080fd5b5061039661092d366004614577565b600090815260086020526040902060070154151590565b34801561095057600080fd5b506103c06121cc565b34801561096557600080fd5b50610374610974366004614577565b6121db565b34801561098557600080fd5b50610374610994366004614bfe565b6121e8565b3480156109a557600080fd5b506103fa60095481565b3480156109bb57600080fd5b506103746109ca366004614d44565b6121f3565b3480156109db57600080fd5b506103fa6109ea36600461455a565b600b6020526000908152604090205481565b348015610a0857600080fd5b506103c0610a17366004614577565b61220b565b348015610a2857600080fd5b506103fa601b5481565b348015610a3e57600080fd5b506103fa610a4d36600461455a565b600e6020526000908152604090205481565b348015610a6b57600080fd5b50610374610a7a366004614dc3565b61228f565b348015610a8b57600080fd5b50610374610a9a366004614577565b6125ef565b348015610aab57600080fd5b50610374610aba366004614af3565b612b53565b348015610acb57600080fd5b50610396610ada366004614e06565b612b79565b348015610aeb57600080fd5b50610aff610afa366004614995565b612ba7565b6040516103a29190614e34565b348015610b1857600080fd5b50610374610b2736600461455a565b6130e5565b610b34613120565b600f80546001600160a01b03199081166001600160a01b039a8b1617909155601080548216988a1698909817909755601180548816968916969096179095556014805487169488169490941790935560138054861692871692909217909155601280548516918616919091179055601580548416918516919091179055601a80549092169216919091179055565b60006001600160e01b031982166380ac58cd60e01b1480610bf357506001600160e01b03198216635b5e139f60e01b145b80610c0e57506301ffc9a760e01b6001600160e01b03198316145b92915050565b606060008054610c2390614e99565b80601f0160208091040260200160405190810160405280929190818152602001828054610c4f90614e99565b8015610c9c5780601f10610c7157610100808354040283529160200191610c9c565b820191906000526020600020905b815481529060010190602001808311610c7f57829003601f168201915b5050505050905090565b6000610cb18261314d565b506000828152600460205260409020546001600160a01b0316610c0e565b610cda828233613186565b5050565b6006546001600160a01b03163314801590610d045750600f546001600160a01b03163314155b15610d2957604051634a0bfec160e01b81523360048201526024015b60405180910390fd5b60008281526008602052604090206007015415610d5c5760405163163fe02b60e11b815260048101839052602401610d20565b600082815260086020526040908190204260079091015551600080516020615e6f83398151915290610d919084815260200190565b60405180910390a16000818152600860205260408120600601805463ffffffff1691610dbc83614ee9565b825463ffffffff9182166101009390930a928302919092021990911617905550600081815260086020819052604090912001546001600160a01b03168015610e6b57601a54601b546040516340c10f1960e01b81526001600160a01b03848116600483015260029290921c60248201529116906340c10f1990604401600060405180830381600087803b158015610e5257600080fd5b505af1158015610e66573d6000803e3d6000fd5b505050505b6040518381527ff8e1a15aba9398e019f0b49df1a4fde98ee17ae345cb5f6b5e2c27f5033e8ce79060200160405180910390a1505050565b610eab613120565b6018805460ff1916911515919091179055565b610ec6613120565b828114610ee65760405163512509d360e11b815260040160405180910390fd5b610ef2601685856141df565b50610eff60178383614288565b5050505050565b6001600160a01b038216610f3057604051633250574960e11b815260006004820152602401610d20565b6000610f3d838333613193565b9050836001600160a01b0316816001600160a01b031614610f8b576040516364283d7b60e01b81526001600160a01b0380861660048301526024820184905282166044820152606401610d20565b50505050565b60178181548110610fa157600080fd5b600091825260209091200154905081565b610fba613120565b6000610fce6006546001600160a01b031690565b6001600160a01b03164760405160006040518083038185875af1925050503d8060008114611018576040519150601f19603f3d011682016040523d82523d6000602084013e61101d565b606091505b505090508061103f576040516327fcd9d160e01b815260040160405180910390fd5b50565b61104a6142c3565b60008281526008602052604090819020815160c0810190925280548290829061107290614e99565b80601f016020809104026020016040519081016040528092919081815260200182805461109e90614e99565b80156110eb5780601f106110c0576101008083540402835291602001916110eb565b820191906000526020600020905b8154815290600101906020018083116110ce57829003601f168201915b5050509183525050600182015460208201526040805160808101825260028401805492909301929091829060ff16600781111561112a5761112a61470f565b600781111561113b5761113b61470f565b81528154602090910190610100900460ff16600781111561115e5761115e61470f565b600781111561116f5761116f61470f565b8152815460209091019062010000900460ff1660078111156111935761119361470f565b60078111156111a4576111a461470f565b815281546020909101906301000000900460ff1660078111156111c9576111c961470f565b60078111156111da576111da61470f565b815250508152602001600382016040518060c00160405290816000820154815260200160018201604051806101200160405290816000820160009054906101000a900461ffff1661ffff1661ffff1681526020016000820160029054906101000a900460ff1660ff1660ff1681526020016000820160039054906101000a900460ff1660ff1660ff1681526020016000820160049054906101000a900461ffff1661ffff1661ffff1681526020016000820160069054906101000a900460ff1660ff1660ff1681526020016000820160079054906101000a900460ff1660ff1660ff1681526020016000820160089054906101000a900461ffff1661ffff1661ffff16815260200160008201600a9054906101000a900460ff1660ff1660ff16815260200160008201600b9054906101000a900460ff1660ff1660ff168152505081526020016002820160009054906101000a900461ffff1661ffff1661ffff1681526020016002820160029054906101000a900460ff1660ff1660ff1681526020016002820160039054906101000a900460ff1660ff1660ff1681526020016002820160049054906101000a900460ff1660ff1660ff1681525050815260200160068201604051806101200160405290816000820160009054906101000a900463ffffffff1663ffffffff1663ffffffff1681526020016000820160049054906101000a900461ffff1661ffff1661ffff1681526020016000820160069054906101000a900461ffff1661ffff1661ffff1681526020016000820160089054906101000a900461ffff1661ffff1661ffff16815260200160008201600a9054906101000a900460ff1615151515815260200160008201600b9054906101000a900460ff1615151515815260200160008201600c9054906101000a900460ff1615151515815260200160008201600d9054906101000a900460ff1615151515815260200160018201548152505081526020016008820160009054906101000a90046001600160a01b03166001600160a01b03166001600160a01b0316815250509050919050565b6114fc838383604051806020016040528060008152506121f3565b505050565b611509613373565b6000805b8281101561161157600084848381811061152957611529614f0e565b60209081029290920135600081815260089384905260409020928301549093506001600160a01b0316331490506115755760405162dd34af60e41b815260048101839052602401610d20565b6006810154600160681b900460ff16156115a55760405163c4d9079d60e01b815260048101839052602401610d20565b600781015415156000816115bb57601b546115c2565b601b5460011c5b426007850155604051858152909150600080516020615e6f8339815191529060200160405180910390a16115f58461339d565b6115ff8187614f24565b9550506001909301925061150d915050565b50801561167d57601a546040516340c10f1960e01b8152336004820152602481018390526001600160a01b03909116906340c10f1990604401600060405180830381600087803b15801561166457600080fd5b505af1158015611678573d6000803e3d6000fd5b505050505b50610cda6001600755565b6006546001600160a01b031633148015906116ae5750600f546001600160a01b03163314155b156116ce57604051634a0bfec160e01b8152336004820152602401610d20565b61103f816133d8565b606080601660178180548060200260200160405190810160405280929190818152602001828054801561174757602002820191906000526020600020906000905b825461010083900a900460ff168152602060019283018181049485019490930390920291018084116117185790505b505050505091508080548060200260200160405190810160405280929190818152602001828054801561179957602002820191906000526020600020905b815481526020019060010190808311611785575b50505050509050915091509091565b6008602052600090815260409020805481906117c390614e99565b80601f01602080910402602001604051908101604052809291908181526020018280546117ef90614e99565b801561183c5780601f106118115761010080835404028352916020019161183c565b820191906000526020600020905b81548152906001019060200180831161181f57829003601f168201915b505050505090806001015490806002016040518060800160405290816000820160009054906101000a900460ff16600781111561187b5761187b61470f565b600781111561188c5761188c61470f565b81528154602090910190610100900460ff1660078111156118af576118af61470f565b60078111156118c0576118c061470f565b8152815460209091019062010000900460ff1660078111156118e4576118e461470f565b60078111156118f5576118f561470f565b815281546020909101906301000000900460ff16600781111561191a5761191a61470f565b600781111561192b5761192b61470f565b8152505090806003016040518060c00160405290816000820154815260200160018201604051806101200160405290816000820160009054906101000a900461ffff1661ffff1661ffff1681526020016000820160029054906101000a900460ff1660ff1660ff1681526020016000820160039054906101000a900460ff1660ff1660ff1681526020016000820160049054906101000a900461ffff1661ffff1661ffff1681526020016000820160069054906101000a900460ff1660ff1660ff1681526020016000820160079054906101000a900460ff1660ff1660ff1681526020016000820160089054906101000a900461ffff1661ffff1661ffff16815260200160008201600a9054906101000a900460ff1660ff1660ff16815260200160008201600b9054906101000a900460ff1660ff1660ff168152505081526020016002820160009054906101000a900461ffff1661ffff1661ffff1681526020016002820160029054906101000a900460ff1660ff1660ff1681526020016002820160039054906101000a900460ff1660ff1660ff1681526020016002820160049054906101000a900460ff1660ff1660ff16815250509080600601604051806101200160405290816000820160009054906101000a900463ffffffff1663ffffffff1663ffffffff1681526020016000820160049054906101000a900461ffff1661ffff1661ffff1681526020016000820160069054906101000a900461ffff1661ffff1661ffff1681526020016000820160089054906101000a900461ffff1661ffff1661ffff16815260200160008201600a9054906101000a900460ff1615151515815260200160008201600b9054906101000a900460ff1615151515815260200160008201600c9054906101000a900460ff1615151515815260200160008201600d9054906101000a900460ff16151515158152602001600182015481525050908060080160009054906101000a90046001600160a01b0316905086565b611c16613120565b600d55565b6001600160a01b0381166000908152600a60205260409020606090610c0e90613485565b336000908152600b6020526040902054600d544290611c5e9083614f24565b811015611c7e576040516337a193d360e21b815260040160405180910390fd5b60005b600a811015611cc357611c9633856000613499565b6009546000908152600860205260409020600601805460ff60681b1916600160681b179055600101611c81565b50336000908152600b60205260409020555050565b611ce0613373565b60178360ff1681548110611cf657611cf6614f0e565b90600052602060002001543414611d2b576040516312a1605d60e31b815260ff84166004820152346024820152604401610d20565b6001600160a01b038216611d525760405163119833d760e11b815260040160405180910390fd5b600060168460ff1681548110611d6a57611d6a614f0e565b60009182526020808320908204015460ff601f9092166101000a9004169150611d94856001614f37565b905060005b82811015611df6578160ff16811015611de257600081611dba886001614f37565b60ff16611dc79190614f50565b9050611ddc8886611dd78461363c565b613499565b50611dee565b611dee87856000613499565b600101611d99565b50611e22848360178860ff1681548110611e1257611e12614f0e565b90600052602060002001546136a7565b6001600160a01b0386166000908152600c602052604081208054849290611e4a908490614f24565b9091555050600160075550610f8b9050565b60168181548110611e6c57600080fd5b9060005260206000209060209182820401919006915054906101000a900460ff1681565b6000610c0e8261314d565b600060328210611ebb5760508210611eb4576002610c0e565b6001610c0e565b600092915050565b60006001600160a01b038216611eef576040516322718ad960e21b815260006004820152602401610d20565b506001600160a01b031660009081526003602052604090205490565b611f13613120565b611f1d60006137d2565b565b3360009081526019602052604090205460ff16611f5157604051634a0bfec160e01b8152336004820152602401610d20565b6000611f5e826001614f37565b905060005b84811015611fb8578160ff16811015611fa457600081611f84856001614f37565b611f8e9190614f63565b9050611f9e8786611dd78461363c565b50611fb0565b611fb086856000613499565b600101611f63565b506001600160a01b0385166000908152600c602052604081208054869290611fe1908490614f24565b90915550505050505050565b60005b818110156114fc5761201983838381811061200d5761200d614f0e565b905060200201356125ef565b600101611ff0565b6010546001600160a01b031633148015906120475750600f546001600160a01b03163314155b801561205e57506011546001600160a01b03163314155b1561207e57604051634a0bfec160e01b8152336004820152602401610d20565b6000828152600860205260409020600601805482158015600160601b0260ff60601b19909216919091179091556120d557604051828152600080516020615e6f833981519152906020015b60405180910390a15050565b6040518281527ff27b6ce5b2f5e68ddb2fd95a8a909d4ecf1daaac270935fff052feacb24f1842906020016120c9565b336000908152600a6020526040812061211d90613485565b905060005b8151811015610cda576008600083838151811061214157612141614f0e565b60200260200101518152602001908152602001600020600601600001600b9054906101000a900460ff166121915761219182828151811061218457612184614f0e565b60200260200101516125ef565b600101612122565b6121a1613120565b6001600160a01b03919091166000908152601960205260409020805460ff1916911515919091179055565b606060018054610c2390614e99565b6121e3613120565b601b55565b610cda338383613824565b6121fe848484610f06565b610f8b33858585856138c3565b601254600082815260086020526040908190209051637c1d0bcb60e01b81526060926001600160a01b031691637c1d0bcb9161224a91906004016151de565b600060405180830381865afa158015612267573d6000803e3d6000fd5b505050506040513d6000823e601f3d908101601f19168201604052610c0e9190810190615236565b6040518281527ff8e1a15aba9398e019f0b49df1a4fde98ee17ae345cb5f6b5e2c27f5033e8ce79060200160405180910390a1600082815260086020908152604080832033845260199092529091205460ff1661230157604051634a0bfec160e01b8152336004820152602401610d20565b600781015415612324576040516398586ca160e01b815260040160405180910390fd5b6006810154600160601b900460ff16156123545760405163128379f760e11b815260048101849052602401610d20565b600061236882612363856154d8565b6139ed565b9050612374838061557a565b8391612381919083615607565b50612394610240840161022085016156c6565b60058301805460ff92909216620100000262ff0000199092169190911790556123c5610260840161024085016156c6565b60058301805460ff9290921663010000000263ff000000199092169190911790556123f8610280840161026085016156c6565b60058301805460ff929092166401000000000264ff000000001990921691909117905561242d61022084016102008501614af3565b60058301805461ffff191661ffff9290921691909117905560e083016004830161245782826156fd565b5050604083016002830161246b828261588a565b506124809050610320840161030085016145f7565b600683015460ff600160501b909104161515901515146124cb576124ac610320840161030085016145f7565b600683018054911515600160501b0260ff60501b199092169190911790555b6006820154600160581b900460ff161561252057600682018054829190600890612501908490600160401b900461ffff16615940565b92506101000a81548161ffff021916908361ffff1602179055506125e6565b60068201805460ff60581b1961ffff8416600160401b02166bff00ffff00000000000000001990911617600160581b179055601554604080516318987be760e11b815290516001600160a01b0390921691633130f7ce916004808201926020929091908290030181865afa15801561259c573d6000803e3d6000fd5b505050506040513d601f19601f820116820180604052508101906125c09190615965565b60068301805461ffff929092166401000000000265ffff00000000199092169190911790555b610f8b846133d8565b6040518181527ff8e1a15aba9398e019f0b49df1a4fde98ee17ae345cb5f6b5e2c27f5033e8ce79060200160405180910390a16000818152600860208190526040909120908101546001600160a01b031633146126615760405162dd34af60e41b815260048101839052602401610d20565b6006810154600160581b900460ff161561269157604051635331ce1f60e11b815260048101839052602401610d20565b6013546003820154604051632f09b60960e21b815260048101919091526000916001600160a01b03169063bc26d824906024016020604051808303816000875af11580156126e3573d6000803e3d6000fd5b505050506040513d601f19601f820116820180604052508101906127079190615982565b60145460038401546005850154604051637017ac9560e11b81526004810188905260248101929092526001600160401b038416604483015261ffff1660648201529192506000916001600160a01b039091169063e02f592a90608401600060405180830381865afa158015612780573d6000803e3d6000fd5b505050506040513d6000823e601f3d908101601f191682016040526127a89190810190615ba8565b805190915083906127b99082615cc7565b508060600151836003016000820151816000015560208201518160010160008201518160000160006101000a81548161ffff021916908361ffff16021790555060208201518160000160026101000a81548160ff021916908360ff16021790555060408201518160000160036101000a81548160ff021916908360ff16021790555060608201518160000160046101000a81548161ffff021916908361ffff16021790555060808201518160000160066101000a81548160ff021916908360ff16021790555060a08201518160000160076101000a81548160ff021916908360ff16021790555060c08201518160000160086101000a81548161ffff021916908361ffff16021790555060e082015181600001600a6101000a81548160ff021916908360ff16021790555061010082015181600001600b6101000a81548160ff021916908360ff160217905550505060408201518160020160006101000a81548161ffff021916908361ffff16021790555060608201518160020160026101000a81548160ff021916908360ff16021790555060808201518160020160036101000a81548160ff021916908360ff16021790555060a08201518160020160046101000a81548160ff021916908360ff16021790555090505080604001518360020160008201518160000160006101000a81548160ff021916908360078111156129c4576129c461470f565b021790555060208201518154829061ff0019166101008360078111156129ec576129ec61470f565b021790555060408201518154829062ff0000191662010000836007811115612a1657612a1661470f565b021790555060608201518154829063ff00000019166301000000836007811115612a4257612a4261470f565b021790555050506080808201510151600684018054911515600160501b0260ff60501b198316811790915563ffffffff908116911617600003612aa15760808101515160068401805463ffffffff191663ffffffff9092169190911790555b601554604080516318987be760e11b815290516001600160a01b0390921691633130f7ce916004808201926020929091908290030181865afa158015612aeb573d6000803e3d6000fd5b505050506040513d601f19601f82011682018060405250810190612b0f9190615965565b60068401805460ff60581b1961ffff9390931664010000000002929092166bff0000000000ffff000000001990921691909117600160581b179055610f8b846133d8565b612b5b613120565b6018805461ffff9092166101000262ffff0019909216919091179055565b6001600160a01b03918216600090815260056020908152604080832093909416825291909152205460ff1690565b60606000826001600160401b03811115612bc357612bc3614c2c565b604051908082528060200260200182016040528015612bfc57816020015b612be96142c3565b815260200190600190039081612be15790505b50905060005b838110156130dd5760086000868684818110612c2057612c20614f0e565b9050602002013581526020019081526020016000206040518060c0016040529081600082018054612c5090614e99565b80601f0160208091040260200160405190810160405280929190818152602001828054612c7c90614e99565b8015612cc95780601f10612c9e57610100808354040283529160200191612cc9565b820191906000526020600020905b815481529060010190602001808311612cac57829003601f168201915b5050509183525050600182015460208201526040805160808101825260028401805492909301929091829060ff166007811115612d0857612d0861470f565b6007811115612d1957612d1961470f565b81528154602090910190610100900460ff166007811115612d3c57612d3c61470f565b6007811115612d4d57612d4d61470f565b8152815460209091019062010000900460ff166007811115612d7157612d7161470f565b6007811115612d8257612d8261470f565b815281546020909101906301000000900460ff166007811115612da757612da761470f565b6007811115612db857612db861470f565b815250508152602001600382016040518060c00160405290816000820154815260200160018201604051806101200160405290816000820160009054906101000a900461ffff1661ffff1661ffff1681526020016000820160029054906101000a900460ff1660ff1660ff1681526020016000820160039054906101000a900460ff1660ff1660ff1681526020016000820160049054906101000a900461ffff1661ffff1661ffff1681526020016000820160069054906101000a900460ff1660ff1660ff1681526020016000820160079054906101000a900460ff1660ff1660ff1681526020016000820160089054906101000a900461ffff1661ffff1661ffff16815260200160008201600a9054906101000a900460ff1660ff1660ff16815260200160008201600b9054906101000a900460ff1660ff1660ff168152505081526020016002820160009054906101000a900461ffff1661ffff1661ffff1681526020016002820160029054906101000a900460ff1660ff1660ff1681526020016002820160039054906101000a900460ff1660ff1660ff1681526020016002820160049054906101000a900460ff1660ff1660ff1681525050815260200160068201604051806101200160405290816000820160009054906101000a900463ffffffff1663ffffffff1663ffffffff1681526020016000820160049054906101000a900461ffff1661ffff1661ffff1681526020016000820160069054906101000a900461ffff1661ffff1661ffff1681526020016000820160089054906101000a900461ffff1661ffff1661ffff16815260200160008201600a9054906101000a900460ff1615151515815260200160008201600b9054906101000a900460ff1615151515815260200160008201600c9054906101000a900460ff1615151515815260200160008201600d9054906101000a900460ff1615151515815260200160018201548152505081526020016008820160009054906101000a90046001600160a01b03166001600160a01b03166001600160a01b0316815250508282815181106130ca576130ca614f0e565b6020908102919091010152600101612c02565b509392505050565b6130ed613120565b6001600160a01b03811661311757604051631e4fbdf760e01b815260006004820152602401610d20565b61103f816137d2565b6006546001600160a01b03163314611f1d5760405163118cdaa760e01b8152336004820152602401610d20565b6000818152600260205260408120546001600160a01b031680610c0e57604051637e27328960e01b815260048101849052602401610d20565b6114fc8383836001613cc9565b60008281526008602081905260408220908101546001600160a01b03908116908616156131dd576007820154156131dd576040516398586ca160e01b815260040160405180910390fd5b6006820154600160601b900460ff161561320d5760405163128379f760e11b815260048101869052602401610d20565b6001600160a01b038116156132de576001600160a01b0381166000908152600c6020526040902054600a111561326157604051637c0df70b60e11b81526001600160a01b0382166004820152602401610d20565b6001600160a01b0386161580159061329157506001600160a01b0386166000908152600c6020526040902054600a115b156132ba57604051637c0df70b60e11b81526001600160a01b0387166004820152602401610d20565b6001600160a01b0381166000908152600a602052604090206132dc9086613dcf565b505b6001600160a01b0386161561332e576001600160a01b0386166000908152600a6020526040902061330f9086613ddb565b506008820180546001600160a01b0319166001600160a01b0388161790555b6001600160a01b03861661335e57604051858152600080516020615e6f8339815191529060200160405180910390a15b613369868686613de7565b9695505050505050565b60026007540361339657604051633ee5aeb560e01b815260040160405180910390fd5b6002600755565b60006133ac6000836000613193565b90506001600160a01b038116610cda57604051637e27328960e01b815260048101839052602401610d20565b60008181526008602052604090819020601554915163863bea7f60e01b815290916001600160a01b03169063863bea7f906134179084906004016151de565b602060405180830381865afa158015613434573d6000803e3d6000fd5b505050506040513d601f19601f820116820180604052508101906134589190615965565b6006909101805461ffff9290921666010000000000000267ffff0000000000001990921691909117905550565b6060600061349283613ee0565b9392505050565b60185460ff16156134bd57604051636be9245d60e11b815260040160405180910390fd5b60185461ffff610100909104811690831611806134dc575061ffff8216155b1561350057604051633a6d207560e11b815261ffff83166004820152602401610d20565b6009805490600061351083615d85565b909155505060095460008181526008602090815260408083206001810194909455601354815163f8413b0760e01b815291516001600160a01b039091169363f8413b07936004848101949193929183900301908290875af1158015613579573d6000803e3d6000fd5b505050506040513d601f19601f8201168201806040525081019061359d9190615d9e565b600382015560058101805461ffff191661ffff858116919091179091558216156135d75760068101805463ffffffff191661ffff84161790555b6135e384600954613f3c565b6008810180546001600160a01b0319166001600160a01b0386161790556009546040519081527ff27b6ce5b2f5e68ddb2fd95a8a909d4ecf1daaac270935fff052feacb24f18429060200160405180910390a150505050565b600060068260ff161061365257506103e8919050565b8160ff16600503613666575061012c919050565b8160ff1660040361367957506064919050565b8160ff1660030361368c5750601e919050565b8160ff1660020361369f5750600a919050565b506001919050565b6001600160a01b0383166000908152600e6020526040812080548492906136cf908490614f24565b90915550506001600160a01b0383166000908152600e6020526040812054620186a08110613700576032915061373b565b61c3508110613712576023915061373b565b6127108110613724576014915061373b565b6103e8811061373657600a915061373b565b600091505b600060646137498486615db7565b6137539190615dce565b90506000866001600160a01b03168260405160006040518083038185875af1925050503d80600081146137a2576040519150601f19603f3d011682016040523d82523d6000602084013e6137a7565b606091505b50509050806137c9576040516387df070960e01b815260040160405180910390fd5b50505050505050565b600680546001600160a01b038381166001600160a01b0319831681179093556040519116919082907f8be0079c531659141344cd1fd0a4f28419497f9722a3daafe3b4186f6b6457e090600090a35050565b6001600160a01b03821661385657604051630b61174360e31b81526001600160a01b0383166004820152602401610d20565b6001600160a01b03838116600081815260056020908152604080832094871680845294825291829020805460ff191686151590811790915591519182527f17307eab39ab6107e8899845ad3d59bd9653f200f220920489ca2b5937696c31910160405180910390a3505050565b6001600160a01b0383163b15610eff57604051630a85bd0160e11b81526001600160a01b0384169063150b7a0290613905908890889087908790600401615df0565b6020604051808303816000875af1925050508015613940575060408051601f3d908101601f1916820190925261393d91810190615e23565b60015b6139a9573d80801561396e576040519150601f19603f3d011682016040523d82523d6000602084013e613973565b606091505b5080516000036139a157604051633250574960e11b81526001600160a01b0385166004820152602401610d20565b805181602001fd5b6001600160e01b03198116630a85bd0160e11b146139e557604051633250574960e11b81526001600160a01b0385166004820152602401610d20565b505050505050565b60408101515160009081906007811115613a0957613a0961470f565b600285015460ff166007811115613a2257613a2261470f565b14613a355780613a3181615e40565b9150505b8260400151602001516007811115613a4f57613a4f61470f565b6002850154610100900460ff166007811115613a6d57613a6d61470f565b14613a805780613a7c81615e40565b9150505b8260400151604001516007811115613a9a57613a9a61470f565b600285015462010000900460ff166007811115613ab957613ab961470f565b14613acc5780613ac881615e40565b9150505b8260400151606001516007811115613ae657613ae661470f565b60028501546301000000900460ff166007811115613b0657613b0661470f565b14613b195780613b1581615e40565b9150505b6005840154606080850151015160009160ff620100009091048116911611613b605760608481015101516005860154613b5b919062010000900460ff16614f63565b613b80565b60058501546060858101510151613b809162010000900460ff1690614f63565b600586015460608601516080015191925060009160ff63010000009092048216911611613bce576060850151608001516005870154613bc991906301000000900460ff16614f63565b613bf0565b6005860154606086015160800151613bf0916301000000900460ff1690614f63565b6005870154606087015160a0015191925060009160ff6401000000009092048216911611613c4057606086015160a001516005880154613c3b9190640100000000900460ff16614f63565b613c63565b6005870154606087015160a00151613c6391640100000000900460ff1690614f63565b905080613c708385614f37565b613c7a9190614f37565b613c879060ff1685615940565b9350856080015160800151151587600601600001600a9054906101000a900460ff16151514613cbe57613cbb600385615940565b93505b509195945050505050565b8080613cdd57506001600160a01b03821615155b15613d9f576000613ced8461314d565b90506001600160a01b03831615801590613d195750826001600160a01b0316816001600160a01b031614155b8015613d2c5750613d2a8184612b79565b155b15613d555760405163a9fbf51f60e01b81526001600160a01b0384166004820152602401610d20565b8115613d9d5783856001600160a01b0316826001600160a01b03167f8c5be1e5ebec7d5bd14f71427d1e84f3dd0314c0f7b2291e5b200ac8c7c3b92560405160405180910390a45b505b5050600090815260046020526040902080546001600160a01b0319166001600160a01b0392909216919091179055565b60006134928383613f56565b60006134928383614049565b6000828152600260205260408120546001600160a01b0390811690831615613e1457613e14818486614098565b6001600160a01b03811615613e5257613e31600085600080613cc9565b6001600160a01b038116600090815260036020526040902080546000190190555b6001600160a01b03851615613e81576001600160a01b0385166000908152600360205260409020805460010190555b60008481526002602052604080822080546001600160a01b0319166001600160a01b0389811691821790925591518793918516917fddf252ad1be2c89b69c2b068fc378daa952ba7f163c4a11628f55a4df523b3ef91a4949350505050565b606081600001805480602002602001604051908101604052809291908181526020018280548015613f3057602002820191906000526020600020905b815481526020019060010190808311613f1c575b50505050509050919050565b610cda8282604051806020016040528060008152506140fc565b6000818152600183016020526040812054801561403f576000613f7a600183614f50565b8554909150600090613f8e90600190614f50565b9050808214613ff3576000866000018281548110613fae57613fae614f0e565b9060005260206000200154905080876000018481548110613fd157613fd1614f0e565b6000918252602080832090910192909255918252600188019052604090208390555b855486908061400457614004615e58565b600190038181906000526020600020016000905590558560010160008681526020019081526020016000206000905560019350505050610c0e565b6000915050610c0e565b600081815260018301602052604081205461409057508154600181810184556000848152602080822090930184905584548482528286019093526040902091909155610c0e565b506000610c0e565b6140a3838383614114565b6114fc576001600160a01b0383166140d157604051637e27328960e01b815260048101829052602401610d20565b60405163177e802f60e01b81526001600160a01b038316600482015260248101829052604401610d20565b614106838361417a565b6114fc3360008585856138c3565b60006001600160a01b038316158015906141725750826001600160a01b0316846001600160a01b0316148061414e575061414e8484612b79565b8061417257506000828152600460205260409020546001600160a01b038481169116145b949350505050565b6001600160a01b0382166141a457604051633250574960e11b815260006004820152602401610d20565b60006141b283836000613193565b90506001600160a01b038116156114fc576040516339e3563760e11b815260006004820152602401610d20565b82805482825590600052602060002090601f016020900481019282156142785791602002820160005b8382111561424957833560ff1683826101000a81548160ff021916908360ff1602179055509260200192600101602081600001049283019260010302614208565b80156142765782816101000a81549060ff0219169055600101602081600001049283019260010302614249565b505b506142849291506143e1565b5090565b828054828255906000526020600020908101928215614278579160200282015b828111156142785782358255916020019190600101906142a8565b6040518060c0016040528060608152602001600081526020016143076040805160808101909152806000815260200160008152602001600081526020016000905290565b81526020016143886040805160c0808201835260008083528351610120810185528181526020818101839052948101829052606081018290526080810182905260a0810182905291820181905260e0820181905261010082015290918201908152600060208201819052604082018190526060820181905260809091015290565b8152604080516101208101825260008082526020828101829052928201819052606082018190526080820181905260a0820181905260c0820181905260e082018190526101008201529101908152600060209091015290565b5b8082111561428457600081556001016143e2565b6001600160a01b038116811461103f57600080fd5b8035614416816143f6565b919050565b600080600080600080600080610100898b03121561443857600080fd5b8835614443816143f6565b97506020890135614453816143f6565b96506040890135614463816143f6565b95506060890135614473816143f6565b94506080890135614483816143f6565b935060a0890135614493816143f6565b925060c08901356144a3816143f6565b915060e08901356144b3816143f6565b809150509295985092959890939650565b6001600160e01b03198116811461103f57600080fd5b6000602082840312156144ec57600080fd5b8135613492816144c4565b60005b838110156145125781810151838201526020016144fa565b50506000910152565b600081518084526145338160208601602086016144f7565b601f01601f19169290920160200192915050565b602081526000613492602083018461451b565b60006020828403121561456c57600080fd5b8135613492816143f6565b60006020828403121561458957600080fd5b5035919050565b600080604083850312156145a357600080fd5b82356145ae816143f6565b946020939093013593505050565b600080604083850312156145cf57600080fd5b50508035926020909101359150565b801515811461103f57600080fd5b8035614416816145de565b60006020828403121561460957600080fd5b8135613492816145de565b60008083601f84011261462657600080fd5b5081356001600160401b0381111561463d57600080fd5b6020830191508360208260051b850101111561465857600080fd5b9250929050565b6000806000806040858703121561467557600080fd5b84356001600160401b0381111561468b57600080fd5b61469787828801614614565b90955093505060208501356001600160401b038111156146b657600080fd5b6146c287828801614614565b95989497509550505050565b6000806000606084860312156146e357600080fd5b83356146ee816143f6565b925060208401356146fe816143f6565b929592945050506040919091013590565b634e487b7160e01b600052602160045260246000fd5b6008811061103f57634e487b7160e01b600052602160045260246000fd5b805161474e81614725565b8252602081015161475e81614725565b6020830152604081015161477181614725565b6040830152606081015161478481614725565b806060840152505050565b80518252602081015161ffff815116602084015260ff602082015116604084015260408101516147c4606085018260ff169052565b50606081015161ffff8116608085015250608081015160ff811660a08501525060a081015160ff811660c08501525060c081015161ffff811660e08501525060e081015160ff811661010085015250610100015160ff811661012084015250604081015161ffff811661014084015250606081015160ff811661016084015250608081015160ff81166101808401525060a0015160ff166101a09190910152565b63ffffffff815116825261ffff60208201511660208301526040810151614892604084018261ffff169052565b5060608101516148a8606084018261ffff169052565b5060808101516148bc608084018215159052565b5060a08101516148d060a084018215159052565b5060c08101516148e460c084018215159052565b5060e08101516148f860e084018215159052565b5061010090810151910152565b600081516103c0845261491c6103c085018261451b565b905060208301516020850152604083015161493a6040860182614743565b50606083015161494d60c086018261478f565b506080830151614961610280860182614865565b5060a092909201516001600160a01b03166103a09390930192909252919050565b6020815260006134926020830184614905565b600080602083850312156149a857600080fd5b82356001600160401b038111156149be57600080fd5b6149ca85828601614614565b90969095509350505050565b600081518084526020840193506020830160005b82811015614a085781518652602095860195909101906001016149ea565b5093949350505050565b6040808252835190820181905260009060208501906060840190835b81811015614a4f57835160ff16835260209384019390920191600101614a2e565b5050838103602085015261336981866149d6565b6103c081526000614a786103c083018961451b565b9050866020830152614a8d6040830187614743565b614a9a60c083018661478f565b614aa8610280830185614865565b6001600160a01b03929092166103a0919091015295945050505050565b60208152600061349260208301846149d6565b61ffff8116811461103f57600080fd5b803561441681614ad8565b600060208284031215614b0557600080fd5b813561349281614ad8565b60ff8116811461103f57600080fd5b803561441681614b10565b60008060008060808587031215614b4057600080fd5b8435614b4b816143f6565b93506020850135614b5b81614b10565b92506040850135614b6b816143f6565b91506060850135614b7b81614ad8565b939692955090935050565b60008060008060808587031215614b9c57600080fd5b8435614ba7816143f6565b9350602085013592506040850135614bbe81614ad8565b91506060850135614b7b81614b10565b60008060408385031215614be157600080fd5b823591506020830135614bf3816145de565b809150509250929050565b60008060408385031215614c1157600080fd5b8235614c1c816143f6565b91506020830135614bf3816145de565b634e487b7160e01b600052604160045260246000fd5b604051608081016001600160401b0381118282101715614c6457614c64614c2c565b60405290565b60405160c081016001600160401b0381118282101715614c6457614c64614c2c565b60405161012081016001600160401b0381118282101715614c6457614c64614c2c565b604051601f8201601f191681016001600160401b0381118282101715614cd757614cd7614c2c565b604052919050565b60006001600160401b03821115614cf857614cf8614c2c565b50601f01601f191660200190565b6000614d19614d1484614cdf565b614caf565b9050828152838383011115614d2d57600080fd5b828260208301376000602084830101529392505050565b60008060008060808587031215614d5a57600080fd5b8435614d65816143f6565b93506020850135614d75816143f6565b92506040850135915060608501356001600160401b03811115614d9757600080fd5b8501601f81018713614da857600080fd5b614db787823560208401614d06565b91505092959194509250565b60008060408385031215614dd657600080fd5b8235915060208301356001600160401b03811115614df357600080fd5b83016103c08186031215614bf357600080fd5b60008060408385031215614e1957600080fd5b8235614e24816143f6565b91506020830135614bf3816143f6565b6000602082016020835280845180835260408501915060408160051b86010192506020860160005b82811015614e8d57603f19878603018452614e78858351614905565b94506020938401939190910190600101614e5c565b50929695505050505050565b600181811c90821680614ead57607f821691505b602082108103614ecd57634e487b7160e01b600052602260045260246000fd5b50919050565b634e487b7160e01b600052601160045260246000fd5b600063ffffffff821663ffffffff8103614f0557614f05614ed3565b60010192915050565b634e487b7160e01b600052603260045260246000fd5b80820180821115610c0e57610c0e614ed3565b60ff8181168382160190811115610c0e57610c0e614ed3565b81810381811115610c0e57610c0e614ed3565b60ff8281168282160390811115610c0e57610c0e614ed3565b805460ff8116614f8b81614725565b8352600881901c60ff16614f9e81614725565b6020840152601081901c60ff16614fb481614725565b604084015260181c60ff1661478481614725565b805463ffffffff81168352602081811c61ffff1690840152603081901c61ffff166040840152604081901c61ffff1660608401526150106080840160ff8360501c1615159052565b61502460a0840160ff8360581c1615159052565b61503860c0840160ff8360601c1615159052565b61504c60e0840160ff8360681c1615159052565b50600101546101009190910152565b6103c08252600080825461506e81614e99565b806103c0870152600182166000811461508e57600181146150ac576150e2565b60ff1983166103e08801526103e082151560051b88010193506150e2565b85600052602060002060005b838110156150d85781548982016103e001526001909101906020016150b8565b88016103e0019450505b505050600183015460208501526150ff6040850160028501614f7c565b600383015460c0850152600483015461ffff80821660e087015260ff601083811c8216610100890152601884811c83166101208a0152602085811c85166101408b0152603086901c84166101608b0152603886901c84166101808b0152604086901c85166101a08b0152605086901c84166101c08b015260589590951c83166101e08a015260058801549384166102008a01529083901c821661022089015282901c8116610240880152911c166102608501526151c3610280850160068501614fc8565b60088301546001600160a01b03166103a085018190526130dd565b602081526000613492602083018461505b565b600082601f83011261520257600080fd5b8151615210614d1482614cdf565b81815284602083860101111561522557600080fd5b6141728260208301602087016144f7565b60006020828403121561524857600080fd5b81516001600160401b0381111561525e57600080fd5b614172848285016151f1565b6008811061103f57600080fd5b60006080828403121561528957600080fd5b615291614c42565b9050813561529e8161526a565b815260208201356152ae8161526a565b602082015260408201356152c18161526a565b604082015260608201356152d48161526a565b606082015292915050565b60008183036101c08112156152f357600080fd5b6152fb614c6a565b833581529150610120601f198201121561531457600080fd5b5061531d614c8c565b61532960208401614ae8565b815261533760408401614b1f565b602082015261534860608401614b1f565b604082015261535960808401614ae8565b606082015261536a60a08401614b1f565b608082015261537b60c08401614b1f565b60a082015261538c60e08401614ae8565b60c082015261539e6101008401614b1f565b60e08201526153b06101208401614b1f565b61010082015260208201526153c86101408301614ae8565b60408201526153da6101608301614b1f565b60608201526153ec6101808301614b1f565b60808201526153fe6101a08301614b1f565b60a082015292915050565b63ffffffff8116811461103f57600080fd5b803561441681615409565b6000610120828403121561543957600080fd5b615441614c8c565b905061544c8261541b565b815261545a60208301614ae8565b602082015261546b60408301614ae8565b604082015261547c60608301614ae8565b606082015261548d608083016145ec565b608082015261549e60a083016145ec565b60a08201526154af60c083016145ec565b60c08201526154c060e083016145ec565b60e08201526101009182013591810191909152919050565b60006103c082360312156154eb57600080fd5b6154f3614c6a565b82356001600160401b0381111561550957600080fd5b830136601f82011261551a57600080fd5b61552936823560208401614d06565b825250602083810135908201526155433660408501615277565b60408201526155553660c085016152df565b6060820152615568366102808501615426565b60808201526153fe6103a0840161440b565b6000808335601e1984360301811261559157600080fd5b8301803591506001600160401b038211156155ab57600080fd5b60200191503681900382131561465857600080fd5b601f8211156114fc57806000526020600020601f840160051c810160208510156155e75750805b601f840160051c820191505b81811015610eff57600081556001016155f3565b6001600160401b0383111561561e5761561e614c2c565b6156328361562c8354614e99565b836155c0565b6000601f841160018114615666576000851561564e5750838201355b600019600387901b1c1916600186901b178355610eff565b600083815260209020601f19861690835b828110156156975786850135825560209485019460019092019101615677565b50868210156156b45760001960f88860031b161c19848701351681555b505060018560011b0183555050505050565b6000602082840312156156d857600080fd5b813561349281614b10565b60008135610c0e81614ad8565b60008135610c0e81614b10565b813561570881614ad8565b61ffff811661ffff19835416178255506000602083013561572881614b10565b8254909150819062ff00001916601082901b62ff000016178355505061576d615753604084016156f0565b825463ff000000191660189190911b63ff00000016178255565b61579a61577c606084016156e3565b825465ffff00000000191660209190911b65ffff0000000016178255565b6157c96157a9608084016156f0565b825466ff000000000000191660309190911b66ff00000000000016178255565b6157fa6157d860a084016156f0565b825467ff00000000000000191660389190911b67ff0000000000000016178255565b61582f61580960c084016156e3565b825469ffff0000000000000000191660409190911b69ffff000000000000000016178255565b61585c61583e60e084016156f0565b82805460ff60501b191660509290921b60ff60501b16919091179055565b610cda61586c61010084016156f0565b82805460ff60581b191660589290921b60ff60581b16919091179055565b81356158958161526a565b61589e81614725565b815460ff821691508160ff19821617835560208401356158bd8161526a565b6158c681614725565b61ff008160081b168361ffff19841617179250505080825560408301356158ec8161526a565b6158f581614725565b62ff0000601082901b1662ff000019831617915050808255606083013561591b8161526a565b61592481614725565b63ff000000601882901b1663ff00000019831617835550505050565b61ffff8181168382160190811115610c0e57610c0e614ed3565b805161441681614ad8565b60006020828403121561597757600080fd5b815161349281614ad8565b60006020828403121561599457600080fd5b81516001600160401b038116811461349257600080fd5b805161441681614b10565b60008183036101c08112156159ca57600080fd5b6159d2614c6a565b835181529150610120601f19820112156159eb57600080fd5b506159f4614c8c565b615a006020840161595a565b8152615a0e604084016159ab565b6020820152615a1f606084016159ab565b6040820152615a306080840161595a565b6060820152615a4160a084016159ab565b6080820152615a5260c084016159ab565b60a0820152615a6360e0840161595a565b60c0820152615a7561010084016159ab565b60e0820152615a8761012084016159ab565b6101008201526020820152615a9f610140830161595a565b6040820152615ab161016083016159ab565b6060820152615ac361018083016159ab565b60808201526153fe6101a083016159ab565b805161441681615409565b8051614416816145de565b60006101208284031215615afe57600080fd5b615b06614c8c565b9050615b1182615ad5565b8152615b1f6020830161595a565b6020820152615b306040830161595a565b6040820152615b416060830161595a565b6060820152615b5260808301615ae0565b6080820152615b6360a08301615ae0565b60a0820152615b7460c08301615ae0565b60c0820152615b8560e08301615ae0565b60e08201526101009182015191810191909152919050565b8051614416816143f6565b600060208284031215615bba57600080fd5b81516001600160401b03811115615bd057600080fd5b82018084036103c0811215615be457600080fd5b615bec614c6a565b82516001600160401b03811115615c0257600080fd5b615c0e878286016151f1565b825250602083810151908201526080603f1983011215615c2d57600080fd5b615c35614c42565b91506040830151615c458161526a565b82526060830151615c558161526a565b60208301526080830151615c688161526a565b604083015260a0830151615c7b8161526a565b606083015260408101829052615c948660c085016159b6565b6060820152615ca7866102808501615aeb565b6080820152615cb96103a08401615b9d565b60a082015295945050505050565b81516001600160401b03811115615ce057615ce0614c2c565b615cf481615cee8454614e99565b846155c0565b6020601f821160018114615d285760008315615d105750848201515b600019600385901b1c1916600184901b178455610eff565b600084815260208120601f198516915b82811015615d585787850151825560209485019460019092019101615d38565b5084821015615d765786840151600019600387901b60f8161c191681555b50505050600190811b01905550565b600060018201615d9757615d97614ed3565b5060010190565b600060208284031215615db057600080fd5b5051919050565b8082028115828204841417610c0e57610c0e614ed3565b600082615deb57634e487b7160e01b600052601260045260246000fd5b500490565b6001600160a01b03858116825284166020820152604081018390526080606082018190526000906133699083018461451b565b600060208284031215615e3557600080fd5b8151613492816144c4565b600061ffff821661ffff8103614f0557614f05614ed3565b634e487b7160e01b600052603160045260246000fdfe032bc66be43dbccb7487781d168eb7bda224628a3b2c3388bdf69b532a3a1611a264697066735822122019baf98514ae74d3642e0840bcfbec31b97c48a89688134c5e16ab922fa0b21a64736f6c634300081c0033",
  "linkReferences": {},
  "deployedLinkReferences": {}
}