{
  "_format": "hh-sol-artifact-1",
  "contractName": "Game",
  "sourceName": "contracts/Game.sol",
  "abi": [
    {
      "inputs": [
        {
          "internalType": "address",
          "name": "_ships",
          "type": "address"
        },
        {
          "internalType": "address",
          "name": "_shipAttributes",
          "type": "address"
        }
      ],
      "stateMutability": "nonpayable",
      "type": "constructor"
    },
    {
      "inputs": [],
      "name": "GameNotFound",
      "type": "error"
    },
    {
      "inputs": [],
      "name": "InvalidMove",
      "type": "error"
    },
    {
      "inputs": [],
      "name": "InvalidPosition",
      "type": "error"
    },
    {
      "inputs": [],
      "name": "NotInGame",
      "type": "error"
    },
    {
      "inputs": [],
      "name": "NotLobbiesContract",
      "type": "error"
    },
    {
      "inputs": [
        {
          "internalType": "address",
          "name": "owner",
          "type": "address"
        }
      ],
      "name": "OwnableInvalidOwner",
      "type": "error"
    },
    {
      "inputs": [
        {
          "internalType": "address",
          "name": "account",
          "type": "address"
        }
      ],
      "name": "OwnableUnauthorizedAccount",
      "type": "error"
    },
    {
      "inputs": [],
      "name": "ShipAlreadyMoved",
      "type": "error"
    },
    {
      "inputs": [],
      "name": "ShipDestroyed",
      "type": "error"
    },
    {
      "inputs": [],
      "name": "ShipNotFound",
      "type": "error"
    },
    {
      "inputs": [],
      "name": "ShipNotOwned",
      "type": "error"
    },
    {
      "inputs": [],
      "name": "TurnTimeoutExceeded",
      "type": "error"
    },
    {
      "inputs": [],
      "name": "TurnTimeoutNotReached",
      "type": "error"
    },
    {
      "anonymous": false,
      "inputs": [
        {
          "indexed": true,
          "internalType": "uint256",
          "name": "gameId",
          "type": "uint256"
        },
        {
          "indexed": true,
          "internalType": "uint256",
          "name": "lobbyId",
          "type": "uint256"
        },
        {
          "indexed": false,
          "internalType": "address",
          "name": "creator",
          "type": "address"
        },
        {
          "indexed": false,
          "internalType": "address",
          "name": "joiner",
          "type": "address"
        }
      ],
      "name": "GameStarted",
      "type": "event"
    },
    {
      "anonymous": false,
      "inputs": [
        {
          "indexed": true,
          "internalType": "uint256",
          "name": "gameId",
          "type": "uint256"
        }
      ],
      "name": "GameUpdate",
      "type": "event"
    },
    {
      "anonymous": false,
      "inputs": [
        {
          "indexed": true,
          "internalType": "uint256",
          "name": "gameId",
          "type": "uint256"
        },
        {
          "indexed": false,
          "internalType": "uint256",
          "name": "shipId",
          "type": "uint256"
        },
        {
          "indexed": false,
          "internalType": "int16",
          "name": "oldRow",
          "type": "int16"
        },
        {
          "indexed": false,
          "internalType": "int16",
          "name": "oldCol",
          "type": "int16"
        },
        {
          "indexed": false,
          "internalType": "int16",
          "name": "newRow",
          "type": "int16"
        },
        {
          "indexed": false,
          "internalType": "int16",
          "name": "newCol",
          "type": "int16"
        },
        {
          "indexed": false,
          "internalType": "enum ActionType",
          "name": "actionType",
          "type": "uint8"
        },
        {
          "indexed": false,
          "internalType": "uint256",
          "name": "targetShipId",
          "type": "uint256"
        }
      ],
      "name": "Move",
      "type": "event"
    },
    {
      "anonymous": false,
      "inputs": [
        {
          "indexed": true,
          "internalType": "address",
          "name": "previousOwner",
          "type": "address"
        },
        {
          "indexed": true,
          "internalType": "address",
          "name": "newOwner",
          "type": "address"
        }
      ],
      "name": "OwnershipTransferred",
      "type": "event"
    },
    {
      "inputs": [],
      "name": "GRID_HEIGHT",
      "outputs": [
        {
          "internalType": "int16",
          "name": "",
          "type": "int16"
        }
      ],
      "stateMutability": "view",
      "type": "function"
    },
    {
      "inputs": [],
      "name": "GRID_WIDTH",
      "outputs": [
        {
          "internalType": "int16",
          "name": "",
          "type": "int16"
        }
      ],
      "stateMutability": "view",
      "type": "function"
    },
    {
      "inputs": [
        {
          "internalType": "uint256",
          "name": "_gameId",
          "type": "uint256"
        },
        {
          "internalType": "uint256[]",
          "name": "_shipIds",
          "type": "uint256[]"
        }
      ],
      "name": "calculateFleetAttributes",
      "outputs": [],
      "stateMutability": "nonpayable",
      "type": "function"
    },
    {
      "inputs": [
        {
          "internalType": "uint256",
          "name": "_gameId",
          "type": "uint256"
        },
        {
          "internalType": "uint256",
          "name": "_shipId",
          "type": "uint256"
        }
      ],
      "name": "calculateShipAttributes",
      "outputs": [],
      "stateMutability": "nonpayable",
      "type": "function"
    },
    {
      "inputs": [
        {
          "internalType": "uint256",
          "name": "_gameId",
          "type": "uint256"
        },
        {
          "internalType": "uint256",
          "name": "_shipId",
          "type": "uint256"
        }
      ],
      "name": "debugDestroyShip",
      "outputs": [],
      "stateMutability": "nonpayable",
      "type": "function"
    },
    {
      "inputs": [
        {
          "internalType": "uint256",
          "name": "_gameId",
          "type": "uint256"
        }
      ],
      "name": "debugIncrementReactorCriticalTimerForZeroHPShips",
      "outputs": [],
      "stateMutability": "nonpayable",
      "type": "function"
    },
    {
      "inputs": [
        {
          "internalType": "uint256",
          "name": "_gameId",
          "type": "uint256"
        },
        {
          "internalType": "uint256",
          "name": "_shipId",
          "type": "uint256"
        }
      ],
      "name": "debugMarkShipAsMoved",
      "outputs": [],
      "stateMutability": "nonpayable",
      "type": "function"
    },
    {
      "inputs": [
        {
          "internalType": "uint256",
          "name": "_gameId",
          "type": "uint256"
        },
        {
          "internalType": "uint256",
          "name": "_shipId",
          "type": "uint256"
        }
      ],
      "name": "debugSetHullPointsToZero",
      "outputs": [],
      "stateMutability": "nonpayable",
      "type": "function"
    },
    {
      "inputs": [
        {
          "internalType": "uint256",
          "name": "_gameId",
          "type": "uint256"
        },
        {
          "internalType": "uint256",
          "name": "_shipId",
          "type": "uint256"
        },
        {
          "internalType": "uint8",
          "name": "_timer",
          "type": "uint8"
        }
      ],
      "name": "debugSetReactorCriticalTimer",
      "outputs": [],
      "stateMutability": "nonpayable",
      "type": "function"
    },
    {
      "inputs": [
        {
          "internalType": "uint256",
          "name": "_gameId",
          "type": "uint256"
        },
        {
          "internalType": "uint256",
          "name": "_shipId",
          "type": "uint256"
        },
        {
          "internalType": "int16",
          "name": "_row",
          "type": "int16"
        },
        {
          "internalType": "int16",
          "name": "_col",
          "type": "int16"
        }
      ],
      "name": "debugSetShipPosition",
      "outputs": [],
      "stateMutability": "nonpayable",
      "type": "function"
    },
    {
      "inputs": [
        {
          "internalType": "uint256",
          "name": "_gameId",
          "type": "uint256"
        }
      ],
      "name": "endGameOnTimeout",
      "outputs": [],
      "stateMutability": "nonpayable",
      "type": "function"
    },
    {
      "inputs": [
        {
          "internalType": "uint256",
          "name": "_gameId",
          "type": "uint256"
        }
      ],
      "name": "flee",
      "outputs": [],
      "stateMutability": "nonpayable",
      "type": "function"
    },
    {
      "inputs": [],
      "name": "fleets",
      "outputs": [
        {
          "internalType": "contract IFleets",
          "name": "",
          "type": "address"
        }
      ],
      "stateMutability": "view",
      "type": "function"
    },
    {
      "inputs": [],
      "name": "gameCount",
      "outputs": [
        {
          "internalType": "uint256",
          "name": "",
          "type": "uint256"
        }
      ],
      "stateMutability": "view",
      "type": "function"
    },
    {
      "inputs": [],
      "name": "gameResults",
      "outputs": [
        {
          "internalType": "contract IGameResults",
          "name": "",
          "type": "address"
        }
      ],
      "stateMutability": "view",
      "type": "function"
    },
    {
      "inputs": [
        {
          "internalType": "uint256",
          "name": "_gameId",
          "type": "uint256"
        }
      ],
      "name": "getAllShipPositions",
      "outputs": [
        {
          "components": [
            {
              "internalType": "uint256",
              "name": "shipId",
              "type": "uint256"
            },
            {
              "components": [
                {
                  "internalType": "int16",
                  "name": "row",
                  "type": "int16"
                },
                {
                  "internalType": "int16",
                  "name": "col",
                  "type": "int16"
                }
              ],
              "internalType": "struct Position",
              "name": "position",
              "type": "tuple"
            },
            {
              "internalType": "bool",
              "name": "isCreator",
              "type": "bool"
            },
            {
              "internalType": "uint8",
              "name": "status",
              "type": "uint8"
            }
          ],
          "internalType": "struct ShipPosition[]",
          "name": "",
          "type": "tuple[]"
        }
      ],
      "stateMutability": "view",
      "type": "function"
    },
    {
      "inputs": [
        {
          "internalType": "uint256",
          "name": "_gameId",
          "type": "uint256"
        }
      ],
      "name": "getGame",
      "outputs": [
        {
          "components": [
            {
              "components": [
                {
                  "internalType": "uint256",
                  "name": "gameId",
                  "type": "uint256"
                },
                {
                  "internalType": "uint256",
                  "name": "lobbyId",
                  "type": "uint256"
                },
                {
                  "internalType": "address",
                  "name": "creator",
                  "type": "address"
                },
                {
                  "internalType": "address",
                  "name": "joiner",
                  "type": "address"
                },
                {
                  "internalType": "uint256",
                  "name": "creatorFleetId",
                  "type": "uint256"
                },
                {
                  "internalType": "uint256",
                  "name": "joinerFleetId",
                  "type": "uint256"
                },
                {
                  "internalType": "bool",
                  "name": "creatorGoesFirst",
                  "type": "bool"
                },
                {
                  "internalType": "uint256",
                  "name": "startedAt",
                  "type": "uint256"
                },
                {
                  "internalType": "address",
                  "name": "winner",
                  "type": "address"
                }
              ],
              "internalType": "struct GameMetadata",
              "name": "metadata",
              "type": "tuple"
            },
            {
              "components": [
                {
                  "internalType": "address",
                  "name": "currentTurn",
                  "type": "address"
                },
                {
                  "internalType": "uint256",
                  "name": "turnTime",
                  "type": "uint256"
                },
                {
                  "internalType": "uint256",
                  "name": "turnStartTime",
                  "type": "uint256"
                },
                {
                  "internalType": "uint256",
                  "name": "currentRound",
                  "type": "uint256"
                }
              ],
              "internalType": "struct GameTurnState",
              "name": "turnState",
              "type": "tuple"
            },
            {
              "components": [
                {
                  "internalType": "int16",
                  "name": "gridWidth",
                  "type": "int16"
                },
                {
                  "internalType": "int16",
                  "name": "gridHeight",
                  "type": "int16"
                }
              ],
              "internalType": "struct GameGridDimensions",
              "name": "gridDimensions",
              "type": "tuple"
            },
            {
              "internalType": "uint256",
              "name": "maxScore",
              "type": "uint256"
            },
            {
              "internalType": "uint256",
              "name": "creatorScore",
              "type": "uint256"
            },
            {
              "internalType": "uint256",
              "name": "joinerScore",
              "type": "uint256"
            },
            {
              "components": [
                {
                  "internalType": "uint256",
                  "name": "shipId",
                  "type": "uint256"
                },
                {
                  "internalType": "int16",
                  "name": "oldRow",
                  "type": "int16"
                },
                {
                  "internalType": "int16",
                  "name": "oldCol",
                  "type": "int16"
                },
                {
                  "internalType": "int16",
                  "name": "newRow",
                  "type": "int16"
                },
                {
                  "internalType": "int16",
                  "name": "newCol",
                  "type": "int16"
                },
                {
                  "internalType": "enum ActionType",
                  "name": "actionType",
                  "type": "uint8"
                },
                {
                  "internalType": "uint256",
                  "name": "targetShipId",
                  "type": "uint256"
                },
                {
                  "internalType": "uint256",
                  "name": "timestamp",
                  "type": "uint256"
                }
              ],
              "internalType": "struct LastMove",
              "name": "lastMove",
              "type": "tuple"
            },
            {
              "internalType": "uint256[]",
              "name": "shipIds",
              "type": "uint256[]"
            },
            {
              "components": [
                {
                  "internalType": "uint16",
                  "name": "version",
                  "type": "uint16"
                },
                {
                  "internalType": "uint8",
                  "name": "range",
                  "type": "uint8"
                },
                {
                  "internalType": "uint8",
                  "name": "gunDamage",
                  "type": "uint8"
                },
                {
                  "internalType": "uint8",
                  "name": "hullPoints",
                  "type": "uint8"
                },
                {
                  "internalType": "uint8",
                  "name": "maxHullPoints",
                  "type": "uint8"
                },
                {
                  "internalType": "uint8",
                  "name": "movement",
                  "type": "uint8"
                },
                {
                  "internalType": "uint8",
                  "name": "damageReduction",
                  "type": "uint8"
                },
                {
                  "internalType": "uint8",
                  "name": "reactorCriticalTimer",
                  "type": "uint8"
                },
                {
                  "internalType": "uint8[]",
                  "name": "statusEffects",
                  "type": "uint8[]"
                }
              ],
              "internalType": "struct Attributes[]",
              "name": "shipAttributes",
              "type": "tuple[]"
            },
            {
              "components": [
                {
                  "internalType": "uint256",
                  "name": "shipId",
                  "type": "uint256"
                },
                {
                  "components": [
                    {
                      "internalType": "int16",
                      "name": "row",
                      "type": "int16"
                    },
                    {
                      "internalType": "int16",
                      "name": "col",
                      "type": "int16"
                    }
                  ],
                  "internalType": "struct Position",
                  "name": "position",
                  "type": "tuple"
                },
                {
                  "internalType": "bool",
                  "name": "isCreator",
                  "type": "bool"
                },
                {
                  "internalType": "uint8",
                  "name": "status",
                  "type": "uint8"
                }
              ],
              "internalType": "struct ShipPosition[]",
              "name": "shipPositions",
              "type": "tuple[]"
            },
            {
              "internalType": "uint256[]",
              "name": "creatorActiveShipIds",
              "type": "uint256[]"
            },
            {
              "internalType": "uint256[]",
              "name": "joinerActiveShipIds",
              "type": "uint256[]"
            },
            {
              "internalType": "uint256[]",
              "name": "creatorMovedShipIds",
              "type": "uint256[]"
            },
            {
              "internalType": "uint256[]",
              "name": "joinerMovedShipIds",
              "type": "uint256[]"
            }
          ],
          "internalType": "struct GameDataView",
          "name": "",
          "type": "tuple"
        }
      ],
      "stateMutability": "view",
      "type": "function"
    },
    {
      "inputs": [
        {
          "internalType": "address",
          "name": "_player",
          "type": "address"
        }
      ],
      "name": "getGamesForPlayer",
      "outputs": [
        {
          "components": [
            {
              "components": [
                {
                  "internalType": "uint256",
                  "name": "gameId",
                  "type": "uint256"
                },
                {
                  "internalType": "uint256",
                  "name": "lobbyId",
                  "type": "uint256"
                },
                {
                  "internalType": "address",
                  "name": "creator",
                  "type": "address"
                },
                {
                  "internalType": "address",
                  "name": "joiner",
                  "type": "address"
                },
                {
                  "internalType": "uint256",
                  "name": "creatorFleetId",
                  "type": "uint256"
                },
                {
                  "internalType": "uint256",
                  "name": "joinerFleetId",
                  "type": "uint256"
                },
                {
                  "internalType": "bool",
                  "name": "creatorGoesFirst",
                  "type": "bool"
                },
                {
                  "internalType": "uint256",
                  "name": "startedAt",
                  "type": "uint256"
                },
                {
                  "internalType": "address",
                  "name": "winner",
                  "type": "address"
                }
              ],
              "internalType": "struct GameMetadata",
              "name": "metadata",
              "type": "tuple"
            },
            {
              "components": [
                {
                  "internalType": "address",
                  "name": "currentTurn",
                  "type": "address"
                },
                {
                  "internalType": "uint256",
                  "name": "turnTime",
                  "type": "uint256"
                },
                {
                  "internalType": "uint256",
                  "name": "turnStartTime",
                  "type": "uint256"
                },
                {
                  "internalType": "uint256",
                  "name": "currentRound",
                  "type": "uint256"
                }
              ],
              "internalType": "struct GameTurnState",
              "name": "turnState",
              "type": "tuple"
            },
            {
              "components": [
                {
                  "internalType": "int16",
                  "name": "gridWidth",
                  "type": "int16"
                },
                {
                  "internalType": "int16",
                  "name": "gridHeight",
                  "type": "int16"
                }
              ],
              "internalType": "struct GameGridDimensions",
              "name": "gridDimensions",
              "type": "tuple"
            },
            {
              "internalType": "uint256",
              "name": "maxScore",
              "type": "uint256"
            },
            {
              "internalType": "uint256",
              "name": "creatorScore",
              "type": "uint256"
            },
            {
              "internalType": "uint256",
              "name": "joinerScore",
              "type": "uint256"
            },
            {
              "components": [
                {
                  "internalType": "uint256",
                  "name": "shipId",
                  "type": "uint256"
                },
                {
                  "internalType": "int16",
                  "name": "oldRow",
                  "type": "int16"
                },
                {
                  "internalType": "int16",
                  "name": "oldCol",
                  "type": "int16"
                },
                {
                  "internalType": "int16",
                  "name": "newRow",
                  "type": "int16"
                },
                {
                  "internalType": "int16",
                  "name": "newCol",
                  "type": "int16"
                },
                {
                  "internalType": "enum ActionType",
                  "name": "actionType",
                  "type": "uint8"
                },
                {
                  "internalType": "uint256",
                  "name": "targetShipId",
                  "type": "uint256"
                },
                {
                  "internalType": "uint256",
                  "name": "timestamp",
                  "type": "uint256"
                }
              ],
              "internalType": "struct LastMove",
              "name": "lastMove",
              "type": "tuple"
            },
            {
              "internalType": "uint256[]",
              "name": "shipIds",
              "type": "uint256[]"
            },
            {
              "components": [
                {
                  "internalType": "uint16",
                  "name": "version",
                  "type": "uint16"
                },
                {
                  "internalType": "uint8",
                  "name": "range",
                  "type": "uint8"
                },
                {
                  "internalType": "uint8",
                  "name": "gunDamage",
                  "type": "uint8"
                },
                {
                  "internalType": "uint8",
                  "name": "hullPoints",
                  "type": "uint8"
                },
                {
                  "internalType": "uint8",
                  "name": "maxHullPoints",
                  "type": "uint8"
                },
                {
                  "internalType": "uint8",
                  "name": "movement",
                  "type": "uint8"
                },
                {
                  "internalType": "uint8",
                  "name": "damageReduction",
                  "type": "uint8"
                },
                {
                  "internalType": "uint8",
                  "name": "reactorCriticalTimer",
                  "type": "uint8"
                },
                {
                  "internalType": "uint8[]",
                  "name": "statusEffects",
                  "type": "uint8[]"
                }
              ],
              "internalType": "struct Attributes[]",
              "name": "shipAttributes",
              "type": "tuple[]"
            },
            {
              "components": [
                {
                  "internalType": "uint256",
                  "name": "shipId",
                  "type": "uint256"
                },
                {
                  "components": [
                    {
                      "internalType": "int16",
                      "name": "row",
                      "type": "int16"
                    },
                    {
                      "internalType": "int16",
                      "name": "col",
                      "type": "int16"
                    }
                  ],
                  "internalType": "struct Position",
                  "name": "position",
                  "type": "tuple"
                },
                {
                  "internalType": "bool",
                  "name": "isCreator",
                  "type": "bool"
                },
                {
                  "internalType": "uint8",
                  "name": "status",
                  "type": "uint8"
                }
              ],
              "internalType": "struct ShipPosition[]",
              "name": "shipPositions",
              "type": "tuple[]"
            },
            {
              "internalType": "uint256[]",
              "name": "creatorActiveShipIds",
              "type": "uint256[]"
            },
            {
              "internalType": "uint256[]",
              "name": "joinerActiveShipIds",
              "type": "uint256[]"
            },
            {
              "internalType": "uint256[]",
              "name": "creatorMovedShipIds",
              "type": "uint256[]"
            },
            {
              "internalType": "uint256[]",
              "name": "joinerMovedShipIds",
              "type": "uint256[]"
            }
          ],
          "internalType": "struct GameDataView[]",
          "name": "",
          "type": "tuple[]"
        }
      ],
      "stateMutability": "view",
      "type": "function"
    },
    {
      "inputs": [
        {
          "internalType": "uint256[]",
          "name": "_gameIds",
          "type": "uint256[]"
        }
      ],
      "name": "getGamesFromIds",
      "outputs": [
        {
          "components": [
            {
              "components": [
                {
                  "internalType": "uint256",
                  "name": "gameId",
                  "type": "uint256"
                },
                {
                  "internalType": "uint256",
                  "name": "lobbyId",
                  "type": "uint256"
                },
                {
                  "internalType": "address",
                  "name": "creator",
                  "type": "address"
                },
                {
                  "internalType": "address",
                  "name": "joiner",
                  "type": "address"
                },
                {
                  "internalType": "uint256",
                  "name": "creatorFleetId",
                  "type": "uint256"
                },
                {
                  "internalType": "uint256",
                  "name": "joinerFleetId",
                  "type": "uint256"
                },
                {
                  "internalType": "bool",
                  "name": "creatorGoesFirst",
                  "type": "bool"
                },
                {
                  "internalType": "uint256",
                  "name": "startedAt",
                  "type": "uint256"
                },
                {
                  "internalType": "address",
                  "name": "winner",
                  "type": "address"
                }
              ],
              "internalType": "struct GameMetadata",
              "name": "metadata",
              "type": "tuple"
            },
            {
              "components": [
                {
                  "internalType": "address",
                  "name": "currentTurn",
                  "type": "address"
                },
                {
                  "internalType": "uint256",
                  "name": "turnTime",
                  "type": "uint256"
                },
                {
                  "internalType": "uint256",
                  "name": "turnStartTime",
                  "type": "uint256"
                },
                {
                  "internalType": "uint256",
                  "name": "currentRound",
                  "type": "uint256"
                }
              ],
              "internalType": "struct GameTurnState",
              "name": "turnState",
              "type": "tuple"
            },
            {
              "components": [
                {
                  "internalType": "int16",
                  "name": "gridWidth",
                  "type": "int16"
                },
                {
                  "internalType": "int16",
                  "name": "gridHeight",
                  "type": "int16"
                }
              ],
              "internalType": "struct GameGridDimensions",
              "name": "gridDimensions",
              "type": "tuple"
            },
            {
              "internalType": "uint256",
              "name": "maxScore",
              "type": "uint256"
            },
            {
              "internalType": "uint256",
              "name": "creatorScore",
              "type": "uint256"
            },
            {
              "internalType": "uint256",
              "name": "joinerScore",
              "type": "uint256"
            },
            {
              "components": [
                {
                  "internalType": "uint256",
                  "name": "shipId",
                  "type": "uint256"
                },
                {
                  "internalType": "int16",
                  "name": "oldRow",
                  "type": "int16"
                },
                {
                  "internalType": "int16",
                  "name": "oldCol",
                  "type": "int16"
                },
                {
                  "internalType": "int16",
                  "name": "newRow",
                  "type": "int16"
                },
                {
                  "internalType": "int16",
                  "name": "newCol",
                  "type": "int16"
                },
                {
                  "internalType": "enum ActionType",
                  "name": "actionType",
                  "type": "uint8"
                },
                {
                  "internalType": "uint256",
                  "name": "targetShipId",
                  "type": "uint256"
                },
                {
                  "internalType": "uint256",
                  "name": "timestamp",
                  "type": "uint256"
                }
              ],
              "internalType": "struct LastMove",
              "name": "lastMove",
              "type": "tuple"
            },
            {
              "internalType": "uint256[]",
              "name": "shipIds",
              "type": "uint256[]"
            },
            {
              "components": [
                {
                  "internalType": "uint16",
                  "name": "version",
                  "type": "uint16"
                },
                {
                  "internalType": "uint8",
                  "name": "range",
                  "type": "uint8"
                },
                {
                  "internalType": "uint8",
                  "name": "gunDamage",
                  "type": "uint8"
                },
                {
                  "internalType": "uint8",
                  "name": "hullPoints",
                  "type": "uint8"
                },
                {
                  "internalType": "uint8",
                  "name": "maxHullPoints",
                  "type": "uint8"
                },
                {
                  "internalType": "uint8",
                  "name": "movement",
                  "type": "uint8"
                },
                {
                  "internalType": "uint8",
                  "name": "damageReduction",
                  "type": "uint8"
                },
                {
                  "internalType": "uint8",
                  "name": "reactorCriticalTimer",
                  "type": "uint8"
                },
                {
                  "internalType": "uint8[]",
                  "name": "statusEffects",
                  "type": "uint8[]"
                }
              ],
              "internalType": "struct Attributes[]",
              "name": "shipAttributes",
              "type": "tuple[]"
            },
            {
              "components": [
                {
                  "internalType": "uint256",
                  "name": "shipId",
                  "type": "uint256"
                },
                {
                  "components": [
                    {
                      "internalType": "int16",
                      "name": "row",
                      "type": "int16"
                    },
                    {
                      "internalType": "int16",
                      "name": "col",
                      "type": "int16"
                    }
                  ],
                  "internalType": "struct Position",
                  "name": "position",
                  "type": "tuple"
                },
                {
                  "internalType": "bool",
                  "name": "isCreator",
                  "type": "bool"
                },
                {
                  "internalType": "uint8",
                  "name": "status",
                  "type": "uint8"
                }
              ],
              "internalType": "struct ShipPosition[]",
              "name": "shipPositions",
              "type": "tuple[]"
            },
            {
              "internalType": "uint256[]",
              "name": "creatorActiveShipIds",
              "type": "uint256[]"
            },
            {
              "internalType": "uint256[]",
              "name": "joinerActiveShipIds",
              "type": "uint256[]"
            },
            {
              "internalType": "uint256[]",
              "name": "creatorMovedShipIds",
              "type": "uint256[]"
            },
            {
              "internalType": "uint256[]",
              "name": "joinerMovedShipIds",
              "type": "uint256[]"
            }
          ],
          "internalType": "struct GameDataView[]",
          "name": "",
          "type": "tuple[]"
        }
      ],
      "stateMutability": "view",
      "type": "function"
    },
    {
      "inputs": [
        {
          "internalType": "uint256",
          "name": "_gameId",
          "type": "uint256"
        },
        {
          "internalType": "uint256",
          "name": "_shipId",
          "type": "uint256"
        }
      ],
      "name": "getShipAttributes",
      "outputs": [
        {
          "components": [
            {
              "internalType": "uint16",
              "name": "version",
              "type": "uint16"
            },
            {
              "internalType": "uint8",
              "name": "range",
              "type": "uint8"
            },
            {
              "internalType": "uint8",
              "name": "gunDamage",
              "type": "uint8"
            },
            {
              "internalType": "uint8",
              "name": "hullPoints",
              "type": "uint8"
            },
            {
              "internalType": "uint8",
              "name": "maxHullPoints",
              "type": "uint8"
            },
            {
              "internalType": "uint8",
              "name": "movement",
              "type": "uint8"
            },
            {
              "internalType": "uint8",
              "name": "damageReduction",
              "type": "uint8"
            },
            {
              "internalType": "uint8",
              "name": "reactorCriticalTimer",
              "type": "uint8"
            },
            {
              "internalType": "uint8[]",
              "name": "statusEffects",
              "type": "uint8[]"
            }
          ],
          "internalType": "struct Attributes",
          "name": "",
          "type": "tuple"
        }
      ],
      "stateMutability": "view",
      "type": "function"
    },
    {
      "inputs": [
        {
          "internalType": "uint256",
          "name": "target",
          "type": "uint256"
        }
      ],
      "name": "lastDamage",
      "outputs": [
        {
          "internalType": "uint256",
          "name": "lastDamager",
          "type": "uint256"
        }
      ],
      "stateMutability": "view",
      "type": "function"
    },
    {
      "inputs": [],
      "name": "lobbiesAddress",
      "outputs": [
        {
          "internalType": "address",
          "name": "",
          "type": "address"
        }
      ],
      "stateMutability": "view",
      "type": "function"
    },
    {
      "inputs": [],
      "name": "maps",
      "outputs": [
        {
          "internalType": "contract IMaps",
          "name": "",
          "type": "address"
        }
      ],
      "stateMutability": "view",
      "type": "function"
    },
    {
      "inputs": [
        {
          "internalType": "uint256",
          "name": "_gameId",
          "type": "uint256"
        },
        {
          "internalType": "uint256",
          "name": "_shipId",
          "type": "uint256"
        },
        {
          "internalType": "int16",
          "name": "_newRow",
          "type": "int16"
        },
        {
          "internalType": "int16",
          "name": "_newCol",
          "type": "int16"
        },
        {
          "internalType": "enum ActionType",
          "name": "actionType",
          "type": "uint8"
        },
        {
          "internalType": "uint256",
          "name": "targetShipId",
          "type": "uint256"
        }
      ],
      "name": "moveShip",
      "outputs": [],
      "stateMutability": "nonpayable",
      "type": "function"
    },
    {
      "inputs": [],
      "name": "owner",
      "outputs": [
        {
          "internalType": "address",
          "name": "",
          "type": "address"
        }
      ],
      "stateMutability": "view",
      "type": "function"
    },
    {
      "inputs": [
        {
          "internalType": "address",
          "name": "",
          "type": "address"
        },
        {
          "internalType": "uint256",
          "name": "",
          "type": "uint256"
        }
      ],
      "name": "playerGames",
      "outputs": [
        {
          "internalType": "uint256",
          "name": "",
          "type": "uint256"
        }
      ],
      "stateMutability": "view",
      "type": "function"
    },
    {
      "inputs": [],
      "name": "renounceOwnership",
      "outputs": [],
      "stateMutability": "nonpayable",
      "type": "function"
    },
    {
      "inputs": [
        {
          "internalType": "address",
          "name": "_mapsAddress",
          "type": "address"
        },
        {
          "internalType": "address",
          "name": "_lobbiesAddress",
          "type": "address"
        },
        {
          "internalType": "address",
          "name": "_fleetsAddress",
          "type": "address"
        },
        {
          "internalType": "address",
          "name": "_gameResultsAddress",
          "type": "address"
        },
        {
          "internalType": "address",
          "name": "_shipAttributesAddress",
          "type": "address"
        }
      ],
      "name": "setAddresses",
      "outputs": [],
      "stateMutability": "nonpayable",
      "type": "function"
    },
    {
      "inputs": [],
      "name": "shipAttributes",
      "outputs": [
        {
          "internalType": "contract IShipAttributes",
          "name": "",
          "type": "address"
        }
      ],
      "stateMutability": "view",
      "type": "function"
    },
    {
      "inputs": [],
      "name": "ships",
      "outputs": [
        {
          "internalType": "contract IShips",
          "name": "",
          "type": "address"
        }
      ],
      "stateMutability": "view",
      "type": "function"
    },
    {
      "inputs": [
        {
          "internalType": "uint256",
          "name": "_lobbyId",
          "type": "uint256"
        },
        {
          "internalType": "address",
          "name": "_creator",
          "type": "address"
        },
        {
          "internalType": "address",
          "name": "_joiner",
          "type": "address"
        },
        {
          "internalType": "uint256",
          "name": "_creatorFleetId",
          "type": "uint256"
        },
        {
          "internalType": "uint256",
          "name": "_joinerFleetId",
          "type": "uint256"
        },
        {
          "internalType": "bool",
          "name": "_creatorGoesFirst",
          "type": "bool"
        },
        {
          "internalType": "uint256",
          "name": "_turnTime",
          "type": "uint256"
        },
        {
          "internalType": "uint256",
          "name": "_selectedMapId",
          "type": "uint256"
        },
        {
          "internalType": "uint256",
          "name": "_maxScore",
          "type": "uint256"
        }
      ],
      "name": "startGame",
      "outputs": [],
      "stateMutability": "nonpayable",
      "type": "function"
    },
    {
      "inputs": [
        {
          "internalType": "address",
          "name": "newOwner",
          "type": "address"
        }
      ],
      "name": "transferOwnership",
      "outputs": [],
      "stateMutability": "nonpayable",
      "type": "function"
    }
  ],
  "bytecode": "0x608060405234801561001057600080fd5b5060405161612038038061612083398101604081905261002f916100fc565b338061005557604051631e4fbdf760e01b81526000600482015260240160405180910390fd5b61005e81610090565b50600180546001600160a01b039384166001600160a01b0319918216179091556003805492909316911617905561012f565b600080546001600160a01b038381166001600160a01b0319831681178455604051919092169283917f8be0079c531659141344cd1fd0a4f28419497f9722a3daafe3b4186f6b6457e09190a35050565b80516001600160a01b03811681146100f757600080fd5b919050565b6000806040838503121561010f57600080fd5b610118836100e0565b9150610126602084016100e0565b90509250929050565b615fe28061013e6000396000f3fe608060405234801561001057600080fd5b50600436106101f05760003560e01c80636eb0f9d21161010f578063bbf8218a116100a2578063e8d64aee11610071578063e8d64aee1461045d578063ecd1406d14610470578063edf59b3c14610483578063f2fde38b1461049657600080fd5b8063bbf8218a14610411578063beaa8fa414610424578063ce720bca14610437578063e88f1c3e1461044a57600080fd5b80638da5cb5b116100de5780638da5cb5b146103ad57806390de1d9b146103be5780639c91fe67146103de578063a2f77bcc146103f157600080fd5b80636eb0f9d21461036c578063715018a61461037f5780637c767cb91461038757806384cb37ea1461039a57600080fd5b806341f5f5e9116101875780634d1975b4116101565780634d1975b41461031d57806355cebda814610326578063566adcd0146103395780635dd68acd1461035957600080fd5b806341f5f5e9146102cf578063423bb46f146102e257806348915d91146103025780634bf11ad21461031557600080fd5b80631b8c9e90116101c35780631b8c9e9014610263578063235e78eb14610276578063336d7d7b146102915780633deaec2b146102bc57600080fd5b80630a5694c2146101f55780630aa1b2661461021b578063100017cb1461023b57806318d7261d14610250575b600080fd5b610208610203366004614c92565b6104a9565b6040519081526020015b60405180910390f35b61022e610229366004614cbe565b6104da565b6040516102129190615147565b61024e6102493660046151ac565b61055e565b005b61024e61025e3660046151ac565b6105ec565b61024e6102713660046151ce565b61061f565b61027e601181565b60405160019190910b8152602001610212565b6005546102a4906001600160a01b031681565b6040516001600160a01b039091168152602001610212565b6004546102a4906001600160a01b031681565b6003546102a4906001600160a01b031681565b6102f56102f03660046151ac565b61071b565b60405161021291906151e7565b6002546102a4906001600160a01b031681565b61027e600b81565b61020860085481565b61024e6103343660046151ac565b61086c565b61034c6103473660046151ce565b6109e0565b60405161021291906151fa565b61024e61036736600461520d565b610c8c565b61022e61037a3660046153e3565b610cf3565b61024e610da6565b61024e610395366004615426565b610dba565b61024e6103a83660046151ce565b610e71565b6000546001600160a01b03166102a4565b6102086103cc3660046151ce565b600a6020526000908152604090205481565b61024e6103ec366004615470565b610f69565b6104046103ff3660046151ce565b610fa0565b60405161021291906154b6565b6001546102a4906001600160a01b031681565b61024e6104323660046154c9565b61170a565b6006546102a4906001600160a01b031681565b61024e6104583660046151ce565b611e61565b61024e61046b366004615542565b611e75565b61024e61047e3660046155d7565b61211d565b61024e6104913660046151ac565b612160565b61024e6104a4366004614cbe565b612183565b600960205281600052604060002081815481106104c557600080fd5b90600052602060002001600091509150505481565b606061055860096000846001600160a01b03166001600160a01b0316815260200190815260200160002080548060200260200160405190810160405280929190818152602001828054801561054e57602002820191906000526020600020905b81548152602001906001019080831161053a575b5050505050610cf3565b92915050565b6105666121c3565b600154604051634025b22d60e01b8152600481018390526000916001600160a01b031690634025b22d90602401600060405180830381865afa1580156105b0573d6000803e3d6000fd5b505050506040513d6000823e601f3d908101601f191682016040526105d891908101906158ad565b90506105e783836000846121f0565b505050565b6105f46121c3565b600082815260076020526040902061060c838361259e565b61061981601801836125d9565b50505050565b610628816125ec565b6106318161261a565b61064e5760405163023e733b60e61b815260040160405180910390fd5b600081815260076020526040902060098101546001600160a01b03163303610689576040516321e08b4d60e21b815260040160405180910390fd5b60028101546001600160a01b031633148015906106b3575060038101546001600160a01b03163314155b156106d15760405163218286cb60e11b815260040160405180910390fd5b60098101546106ec90839033906001600160a01b0316612645565b60405182907f6a3ca207a2adb9eea136eff413ec2c22f745a146fe60eed5f593fbacb99347d390600090a25050565b6107236148bb565b61072c836125ec565b600083815260076020908152604080832085845260150190915281208054909161ffff9091169003610771576040516303c113ad60e61b815260040160405180910390fd5b6040805161012081018252825461ffff8116825260ff620100008204811660208085019190915263010000008304821684860152600160201b830482166060850152600160281b830482166080850152600160301b8304821660a0850152600160381b8304821660c0850152600160401b9092041660e08301526001840180548451818402810184019095528085529293859361010086019391929183018282801561085a57602002820191906000526020600020906000905b825461010083900a900460ff1681526020600192830181810494850194909303909202910180841161082b5790505b50505050508152505091505092915050565b600082815260076020908152604080832084845260158101909252808320600354915163e197c62760e01b8152600481018690529293909290916001600160a01b03169063e197c62790602401600060405180830381865afa1580156108d6573d6000803e3d6000fd5b505050506040513d6000823e601f3d908101601f191682016040526108fe9190810190615a45565b8051835460208084015160408501516060860151608087015160a088015160c089015160ff908116600160381b0267ff0000000000000019928216600160301b0266ff00000000000019948316600160281b029490941666ffff000000000019958316600160201b0264ff00000000199784166301000000029790971664ffff0000001993909816620100000262ffffff19909a1661ffff909b169a909a17989098171694909417929092171694909417939093179290921617845561010082015180519293506109d89260018601929190910190614909565b505050505050565b60606109eb826125ec565b600082815260076020526040812090805b600b600182900b1215610ada5760005b6011600182900b1215610ad157600182810b600090815260168601602090815260408083209385900b835292905220548015801590610ab55750600154604051639596010160e01b8152600481018390526001600160a01b0390911690639596010190602401602060405180830381865afa158015610a8f573d6000803e3d6000fd5b505050506040513d601f19601f82011682018060405250810190610ab39190615b3f565b155b15610ac85783610ac481615b72565b9450505b50600101610a0c565b506001016109fc565b506000816001600160401b03811115610af557610af561527e565b604051908082528060200260200182016040528015610b2e57816020015b610b1b6149af565b815260200190600190039081610b135790505b5090506000805b600b600182900b1215610c815760005b6011600182900b1215610c7857600182810b600090815260168801602090815260408083209385900b835292905220548015801590610bee5750600154604051639596010160e01b8152600481018390526001600160a01b0390911690639596010190602401602060405180830381865afa158015610bc8573d6000803e3d6000fd5b505050506040513d601f19601f82011682018060405250810190610bec9190615b3f565b155b15610c6f576000610bff8a83612741565b9050604051806080016040528083815260200160405180604001604052808760010b81526020018660010b81525081526020018215158152602001600060ff16815250868681518110610c5457610c54615b8b565b60200260200101819052508480610c6a90615b72565b955050505b50600101610b45565b50600101610b35565b509095945050505050565b610c946121c3565b600480546001600160a01b03199081166001600160a01b03978816179091556005805482169587169590951790945560028054851693861693909317909255600680548416918516919091179055600380549092169216919091179055565b6060600082516001600160401b03811115610d1057610d1061527e565b604051908082528060200260200182016040528015610d4957816020015b610d366149f8565b815260200190600190039081610d2e5790505b50905060005b8351811015610d9f57610d7a848281518110610d6d57610d6d615b8b565b6020026020010151610fa0565b828281518110610d8c57610d8c615b8b565b6020908102919091010152600101610d4f565b5092915050565b610dae6121c3565b610db8600061277d565b565b610dc26121c3565b6000938452600760209081526040808620858752601781018084528288206001808201805480830b8c526016909501808852868c206201000096879004840b8d528852868c208c90558651808801885299830b808b529890920b8988018181528b8d5294885298518154945161ffff90811690960263ffffffff19909516951694909417929092179092556002909101805461ff00191690559286529181528185209285529190915290912055565b600081815260076020526040902060088101546001600160a01b031615610eab576040516321e08b4d60e21b815260040160405180910390fd5b60028101546001600160a01b03163314801590610ed5575060038101546001600160a01b03163314155b15610ef35760405163218286cb60e11b815260040160405180910390fd5b60028101546000906001600160a01b03163314610f1d5760028201546001600160a01b0316610f2c565b60038201546001600160a01b03165b9050610f39838233612645565b60405183907f6a3ca207a2adb9eea136eff413ec2c22f745a146fe60eed5f593fbacb99347d390600090a2505050565b60005b81518110156105e757610f9883838381518110610f8b57610f8b615b8b565b602002602001015161086c565b600101610f6c565b610fa86149f8565b610fb1826125ec565b600082815260076020908152604080832060028101546001600160a01b039081168552601c8201909352818420600382015490931684529083209092610ff6836127cd565b90506000611003836127cd565b90506000815183516110159190615ba1565b90506000816001600160401b038111156110315761103161527e565b60405190808252806020026020018201604052801561106a57816020015b6110576148bb565b81526020019060019003908161104f5790505b5090506000826001600160401b038111156110875761108761527e565b6040519080825280602002602001820160405280156110b0578160200160208202803683370190505b50905060005b855181101561123b578860150160008783815181106110d7576110d7615b8b565b6020908102919091018101518252818101929092526040908101600020815161012081018352815461ffff8116825260ff62010000820481168387015263010000008204811683860152600160201b820481166060840152600160281b820481166080840152600160301b8204811660a0840152600160381b8204811660c0840152600160401b9091041660e0820152600182018054845181870281018701909552808552919492936101008601939092908301828280156111d657602002820191906000526020600020906000905b825461010083900a900460ff168152602060019283018181049485019490930390920291018084116111a75790505b5050505050815250508382815181106111f1576111f1615b8b565b602002602001018190525085818151811061120e5761120e615b8b565b602002602001015182828151811061122857611228615b8b565b60209081029190910101526001016110b6565b5060005b84518110156113dc5788601501600086838151811061126057611260615b8b565b6020908102919091018101518252818101929092526040908101600020815161012081018352815461ffff8116825260ff62010000820481168387015263010000008204811683860152600160201b820481166060840152600160281b820481166080840152600160301b8204811660a0840152600160381b8204811660c0840152600160401b9091041660e08201526001820180548451818702810187019095528085529194929361010086019390929083018282801561135f57602002820191906000526020600020906000905b825461010083900a900460ff168152602060019283018181049485019490930390920291018084116113305790505b505050505081525050838288516113769190615ba1565b8151811061138657611386615b8b565b60200260200101819052508481815181106113a3576113a3615b8b565b6020026020010151828288516113b99190615ba1565b815181106113c9576113c9615b8b565b602090810291909101015260010161123f565b5060006113e88b6109e0565b60028a0154909150600090611407908d906001600160a01b0316612864565b60038b0154909150600090611426908e906001600160a01b0316612864565b9050604051806101c001604052808c6000016040518061012001604052908160008201548152602001600182015481526020016002820160009054906101000a90046001600160a01b03166001600160a01b03166001600160a01b031681526020016003820160009054906101000a90046001600160a01b03166001600160a01b03166001600160a01b0316815260200160048201548152602001600582015481526020016006820160009054906101000a900460ff16151515158152602001600782015481526020016008820160009054906101000a90046001600160a01b03166001600160a01b03166001600160a01b03168152505081526020018c6009016040518060800160405290816000820160009054906101000a90046001600160a01b03166001600160a01b03166001600160a01b03168152602001600182015481526020016002820154815260200160038201548152505081526020018c600d016040518060400160405290816000820160009054906101000a900460010b60010b60010b81526020016000820160029054906101000a900460010b60010b60010b8152505081526020018c600e015481526020018c600f015481526020018c6010015481526020018c60110160405180610100016040529081600082015481526020016001820160009054906101000a900460010b60010b60010b81526020016001820160029054906101000a900460010b60010b60010b81526020016001820160049054906101000a900460010b60010b60010b81526020016001820160069054906101000a900460010b60010b60010b81526020016001820160089054906101000a900460ff1660058111156116a2576116a2614d5b565b60058111156116b3576116b3614d5b565b8152602001600282015481526020016003820154815250508152602001858152602001868152602001848152602001898152602001888152602001838152602001828152509b505050505050505050505050919050565b611713866125ec565b600086815260076020526040902060088101546001600160a01b03161561174d576040516321e08b4d60e21b815260040160405180910390fd5b60098101546001600160a01b0316331461177a576040516321e08b4d60e21b815260040160405180910390fd5b600061178587612991565b60a08101519091506001600160a01b031633146117b557604051630b18e5d760e21b815260040160405180910390fd5b6000878152601583016020526040902060028560058111156117d9576117d9614d5b565b141580156117f057508054600160201b900460ff16155b1561180e576040516398586ca160e01b815260040160405180910390fd5b60025460048481015460405162b5e41160e51b815291820152602481018a90526001600160a01b03909116906316bc822090604401602060405180830381865afa158015611860573d6000803e3d6000fd5b505050506040513d601f19601f820116820180604052508101906118849190615b3f565b15801561190c5750600254600584015460405162b5e41160e51b81526001600160a01b03909216916316bc8220916118c9918c90600401918252602082015260400190565b602060405180830381865afa1580156118e6573d6000803e3d6000fd5b505050506040513d601f19601f8201168201806040525081019061190a9190615b3f565b155b1561192a576040516303c113ad60e61b815260040160405180910390fd5b600285600581111561193e5761193e614d5b565b1415801561195457506119548360180189612a5a565b1561197257604051637d64fb5d60e01b815260040160405180910390fd5b6000888152601784016020526040902060019081018054909181810b91620100009004900b60028860058111156119ab576119ab614d5b565b14611bff57825460018b810b91900b1480156119d45750825460018a810b62010000909204900b145b611bf0576040805180820182528454600181810b835262010000909104810b60208084019190915283518085019094528d820b8452908c900b90830152600091611a1e9190612a72565b60008d8152601589016020526040902080549192509060ff600160301b90910481169083161115611a62576040516321e08b4d60e21b815260040160405180910390fd5b600b60018d900b121580611a7b5750601160018c900b12155b15611a995760405163673f032f60e11b815260040160405180910390fd5b60018c810b600090815260168a0160209081526040808320938f900b8352929052205415611ada5760405163673f032f60e11b815260040160405180910390fd5b60008860160160008760000160009054906101000a900460010b60010b60010b815260200190815260200160002060008760000160029054906101000a900460010b60010b60010b8152602001908152602001600020819055508c8860160160008e60010b60010b815260200190815260200160002060008d60010b60010b81526020019081526020016000208190555060405180604001604052808d60010b81526020018c60010b8152508860170160008f815260200190815260200160002060010160008201518160000160006101000a81548161ffff021916908360010b61ffff16021790555060208201518160000160026101000a81548161ffff021916908360010b61ffff16021790555090505050505b611bfd866018018c612b06565b505b611c0f868d8d8d8d8d8d8c612b12565b611c188c612bd7565b15611c2b57611c268c612c2f565b611c34565b611c348c613040565b42600b87015560408051610100810182528c8152600184810b602083015283900b918101919091526060810160028a6005811115611c7457611c74614d5b565b14611c7f578b611c83565b6000195b60010b815260200160028a6005811115611c9f57611c9f614d5b565b14611caa578a611cae565b6000195b60010b8152602001896005811115611cc857611cc8614d5b565b815260208082018a905242604092830152825160118a019081559083015160128a018054938501516060860151608087015161ffff908116600160301b0267ffff00000000000019928216600160201b029290921667ffffffff0000000019938216620100000263ffffffff1990981691909516179590951716919091179290921780835560a084015191929060ff60401b1916600160401b836005811115611d7357611d73614d5b565b021790555060c0820151816002015560e082015181600301559050508b7f8616d884e76378dabf68f6048a294fb93ec62a579068ada00ef52b7b88511c528c848460026005811115611dc757611dc7614d5b565b8d6005811115611dd957611dd9614d5b565b14611de4578e611de8565b6000195b60028e6005811115611dfc57611dfc614d5b565b14611e07578e611e0b565b6000195b8e8e604051611e209796959493929190615bb4565b60405180910390a26040518c907f6a3ca207a2adb9eea136eff413ec2c22f745a146fe60eed5f593fbacb99347d390600090a2505050505050505050505050565b611e696121c3565b611e728161315b565b50565b6005546001600160a01b03163314611ea057604051638671306560e01b815260040160405180910390fd5b60088054906000611eb083615b72565b90915550506008546000818152600760208190526040909120918255600182018b90556002820180546001600160a01b03808d166001600160a01b031992831617909255600384018054928c1692909116919091179055600482018890556005820187905560068201805487151560ff19909116179055429082015584611f375787611f39565b885b6009820180546001600160a01b0319166001600160a01b0392909216919091179055600a810184905542600b8201556001600c820155600d8101805463ffffffff1916620b0011179055600e81018290558215611ff55760048054600854604051636a5257fd60e11b815292830152602482018590526001600160a01b03169063d4a4affa90604401600060405180830381600087803b158015611fdc57600080fd5b505af1158015611ff0573d6000803e3d6000fd5b505050505b612002600854888861333a565b61200f600854888861350d565b600854600090815260076020908152604080832060038101546001600160a01b03168452601c8101909252909120612046906136ce565b60028201546001600160a01b03166000908152601c83016020526040902061206d906136ce565b6120779190615ba1565b601d8201556000601e82018190556001600160a01b038b8116808352600960209081526040808520600880548254600180820185559389528589200155948f16808752828720865481549384018255908852968490209091019590955592548351928352908201939093528d92917f9f0b80476ce7b05cfe8b0800d21f0b0f2704c8eb948fa5d5e87997ec901f96d1910160405180910390a35050505050505050505050565b6121256121c3565b6000928352600760209081526040808520938552601590930190529120805460ff909216600160401b0260ff60401b19909216919091179055565b6121686121c3565b60008281526007602052604090206106196018820183612b06565b61218b6121c3565b6001600160a01b0381166121ba57604051631e4fbdf760e01b8152600060048201526024015b60405180910390fd5b611e728161277d565b6000546001600160a01b03163314610db85760405163118cdaa760e01b81523360048201526024016121b1565b6121f9846125ec565b6000848152600760205260409020608082015161010001511561222f576040516398586ca160e01b815260040160405180910390fd5b60025460048281015460405162b5e41160e51b815291820152602481018690526000916001600160a01b0316906316bc822090604401602060405180830381865afa158015612282573d6000803e3d6000fd5b505050506040513d601f19601f820116820180604052508101906122a69190615b3f565b600254600584015460405162b5e41160e51b81529293506000926001600160a01b03909216916316bc8220916122e9918a90600401918252602082015260400190565b602060405180830381865afa158015612306573d6000803e3d6000fd5b505050506040513d601f19601f8201168201806040525081019061232a9190615b3f565b905081158015612338575080155b15612356576040516303c113ad60e61b815260040160405180910390fd5b6000868152601784016020908152604080832060018082015480820b86526016890185528386206201000090910490910b855290925282209190915561239f60188501886125d9565b506123ad84601a01886125d9565b50601e840180549060006123c083615b72565b91905055508215612438576002546004858101546040516327ffe52160e01b815291820152602481018990526001600160a01b03909116906327ffe52190604401600060405180830381600087803b15801561241b57600080fd5b505af115801561242f573d6000803e3d6000fd5b505050506124a9565b60025460058501546040516327ffe52160e01b81526001600160a01b03909216916327ffe52191612476918b90600401918252602082015260400190565b600060405180830381600087803b15801561249057600080fd5b505af11580156124a4573d6000803e3d6000fd5b505050505b856124b55760016124b8565b60025b60028201805460ff929092166101000261ff001990921691909117905560008781526015850160205260408120805468ffffffffffffffffff19168155906125036001830182614b25565b505085612581576001546000888152600a6020526040908190205490516311a960cd60e01b8152600481018a905260248101919091526001600160a01b03909116906311a960cd90604401600060405180830381600087803b15801561256857600080fd5b505af115801561257c573d6000803e3d6000fd5b505050505b61258b88886136d8565b61259488613736565b5050505050505050565b6000828152600760208181526040808420858552601581018352908420805464ff000000001916905592859052526105e790601a0182612b06565b60006125e583836137c2565b9392505050565b6000818152600760205260408120549003611e72576040516309b3c62760e21b815260040160405180910390fd5b6000818152600760205260408120600a810154600b82015461263c9190615ba1565b42119392505050565b60008381526007602052604090206008810180546001600160a01b0319166001600160a01b0385169081179091551580159061268b57506006546001600160a01b031615155b156126ff5760065460405163d6c6eb9f60e01b8152600481018690526001600160a01b03858116602483015284811660448301529091169063d6c6eb9f90606401600060405180830381600087803b1580156126e657600080fd5b505af11580156126fa573d6000803e3d6000fd5b505050505b600281015460048201546127209186916001600160a01b03909116906138b5565b600381015460058201546106199186916001600160a01b03909116906138b5565b600082815260076020908152604080832060028101546001600160a01b03168452601c810190925282206127759084612a5a565b949350505050565b600080546001600160a01b038381166001600160a01b0319831681178455604051919092169283917f8be0079c531659141344cd1fd0a4f28419497f9722a3daafe3b4186f6b6457e09190a35050565b606060006127da836136ce565b90506000816001600160401b038111156127f6576127f661527e565b60405190808252806020026020018201604052801561281f578160200160208202803683370190505b50905060005b8281101561285c576128378582613972565b82828151811061284957612849615b8b565b6020908102919091010152600101612825565b509392505050565b60008281526007602090815260408083206001600160a01b0385168452601c8101909252822060609280612897836136ce565b905060005b818110156128db5760006128b08583613972565b90506128bf8660180182612a5a565b156128d257836128ce81615b72565b9450505b5060010161289c565b506000826001600160401b038111156128f6576128f661527e565b60405190808252806020026020018201604052801561291f578160200160208202803683370190505b5090506000805b8381101561298357600061293a8783613972565b90506129498860180182612a5a565b1561297a578084848151811061296157612961615b8b565b60209081029190910101528261297681615b72565b9350505b50600101612926565b509098975050505050505050565b612999614b4a565b600154604051634025b22d60e01b8152600481018490526000916001600160a01b031690634025b22d90602401600060405180830381865afa1580156129e3573d6000803e3d6000fd5b505050506040513d6000823e601f3d908101601f19168201604052612a0b91908101906158ad565b90508060200151600003612a32576040516303c113ad60e61b815260040160405180910390fd5b6080810151610100015115610558576040516398586ca160e01b815260040160405180910390fd5b600081815260018301602052604081205415156125e5565b600080826000015160010b846000015160010b13612a9d5783518351612a989190615bfc565b612aab565b82518451612aab9190615bfc565b90506000836020015160010b856020015160010b13612add5784602001518460200151612ad89190615bfc565b612af1565b83602001518560200151612af19190615bfc565b9050612afd8183615c1f565b95945050505050565b60006125e5838361397e565b6000836005811115612b2657612b26614d5b565b14612594576001836005811115612b3f57612b3f614d5b565b03612b5857612b53888888888887876139cd565b612594565b6002836005811115612b6c57612b6c614d5b565b03612b7e57612b5387876001846121f0565b6003836005811115612b9257612b92614d5b565b03612bb0576040516321e08b4d60e21b815260040160405180910390fd5b6004836005811115612bc457612bc4614d5b565b0361259457612594878787878686613cc0565b600081815260076020526040812081612bf2601883016136ce565b90506000612c0283601a016136ce565b905082601d015483601e01548284612c1a9190615ba1565b612c249190615ba1565b101595945050505050565b60008181526007602052604080822060048054925163d0bc9bbb60e01b81529081018590529092916001600160a01b03169063d0bc9bbb90602401600060405180830381865afa158015612c87573d6000803e3d6000fd5b505050506040513d6000823e601f3d908101601f19168201604052612caf9190810190615cd2565b80519092509050600080805b83811015612e22576000858281518110612cd757612cd7615b8b565b6020908102919091018101518051600190810b600090815260168b01845260408082208486015190930b82529190935282205490925090819003612d1c575050612e1a565b6000818152601589016020526040812054600160201b900460ff169003612d44575050612e1a565b6004805483516020850151604051630349370d60e41b81529384018d9052600191820b6024850152900b60448301526000916001600160a01b039091169063349370d0906064016020604051808303816000875af1158015612daa573d6000803e3d6000fd5b505050506040513d601f19601f82011682018060405250810190612dce9190615df3565b90508060ff16600003612de357505050612e1a565b612ded8a83612741565b15612e0657612dff60ff821687615ba1565b9550612e16565b612e1360ff821686615ba1565b94505b5050505b600101612cbb565b506000821180612e325750600081115b15612f03578185600f016000828254612e4b9190615ba1565b9250508190555080856010016000828254612e669190615ba1565b9091555050600e850154600f860154101580612e8a575084600e0154856010015410155b15612f0357846010015485600f015403612eaf57612eaa86600080612645565b6109d8565b846010015485600f01541115612ee15760028501546003860154612eaa9188916001600160a01b039182169116612645565b600385015460028601546109d89188916001600160a01b039182169116612645565b600c85018054906000612f1583615b72565b9190505550612f2685601801613e55565b6000601e860181905560038601546001600160a01b03168152601c860160205260409020612f53906136ce565b60028601546001600160a01b03166000908152601c870160205260409020612f7a906136ce565b612f849190615ba1565b601d860155612f928661315b565b600685015460009060ff16612fb45760038601546001600160a01b0316612fc3565b60028601546001600160a01b03165b600687015490915060009060ff16612fe85760028701546001600160a01b0316612ff7565b60038701546001600160a01b03165b905086600901600301546001166001146130115780613013565b815b60099790970180546001600160a01b0319166001600160a01b039098169790971790965550505050505050565b6000818152600760205260409020600281015460098201546001600160a01b039182169116036130e25760038101546000906130869084906001600160a01b0316613e5e565b60028301549091506000906130a59085906001600160a01b0316613ef2565b905081806130b1575080155b156106195760038301546009840180546001600160a01b0319166001600160a01b0390921691909117905550505050565b60028101546000906130fe9084906001600160a01b0316613e5e565b600383015490915060009061311d9085906001600160a01b0316613ef2565b90508180613129575080155b156106195760028301546009840180546001600160a01b0319166001600160a01b0390921691909117905550505b5050565b600081815260076020526040812090613176601a83016136ce565b905060005b8181101561061957600061319284601a0183613972565b600154604051639596010160e01b8152600481018390529192506001600160a01b031690639596010190602401602060405180830381865afa1580156131dc573d6000803e3d6000fd5b505050506040513d601f19601f820116820180604052508101906132009190615b3f565b15801561322557506000818152601585016020526040902054600160201b900460ff16155b1561332757600081815260158501602052604090208054600160401b900460ff1690600861325283615e10565b82546101009290920a60ff81810219909316918316021790915560008381526015870160205260409020546003600160401b90910490911610905061332757600154604051634025b22d60e01b8152600481018390526000916001600160a01b031690634025b22d90602401600060405180830381865afa1580156132db573d6000803e3d6000fd5b505050506040513d6000823e601f3d908101601f1916820160405261330391908101906158ad565b905061331286836000846121f0565b61331e85601a016136ce565b9350505061317b565b8161333181615b72565b9250505061317b565b60008381526007602052604080822060025491516348eef38560e11b8152600481018690529092916001600160a01b0316906391dde70a90602401600060405180830381865afa158015613392573d6000803e3d6000fd5b505050506040513d6000823e601f3d908101601f191682016040526133ba9190810190615e2f565b50905060005b815181101561342c5760028301546001600160a01b03166000908152601c840160205260409020825161340d919084908490811061340057613400615b8b565b6020026020010151612b06565b5061342486838381518110610f8b57610f8b615b8b565b6001016133c0565b506002546040516348eef38560e11b8152600481018590526000916001600160a01b0316906391dde70a90602401600060405180830381865afa158015613477573d6000803e3d6000fd5b505050506040513d6000823e601f3d908101601f1916820160405261349f9190810190615e2f565b50905060005b81518110156135045760038401546001600160a01b03166000908152601c85016020526040902082516134e5919084908490811061340057613400615b8b565b506134fc87838381518110610f8b57610f8b615b8b565b6001016134a5565b50505050505050565b6002546040516348eef38560e11b81526004810184905260009182916001600160a01b03909116906391dde70a90602401600060405180830381865afa15801561355b573d6000803e3d6000fd5b505050506040513d6000823e601f3d908101601f191682016040526135839190810190615e2f565b9150915060005b82518110156135ed5760008382815181106135a7576135a7615b8b565b6020026020010151905060008383815181106135c5576135c5615b8b565b602002602001015190506135e3888383600001518460200151613f63565b505060010161358a565b506002546040516348eef38560e11b81526004810185905260009182916001600160a01b03909116906391dde70a90602401600060405180830381865afa15801561363c573d6000803e3d6000fd5b505050506040513d6000823e601f3d908101601f191682016040526136649190810190615e2f565b9150915060005b825181101561259457600083828151811061368857613688615b8b565b6020026020010151905060008383815181106136a6576136a6615b8b565b602002602001015190506136c48a8383600001518460200151613f63565b505060010161366b565b6000610558825490565b600082815260076020908152604080832060028101546001600160a01b03168452601c810190925290912061370d90836125d9565b5060038101546001600160a01b03166000908152601c82016020526040902061061990836125d9565b6000818152600760205260409020600281015461375d9083906001600160a01b03166140c6565b61378357600381015460028201546131579184916001600160a01b039182169116612645565b600381015461379c9083906001600160a01b03166140c6565b61315757600281015460038201546131579184916001600160a01b039182169116612645565b600081815260018301602052604081205480156138ab5760006137e6600183615ee7565b85549091506000906137fa90600190615ee7565b905080821461385f57600086600001828154811061381a5761381a615b8b565b906000526020600020015490508087600001848154811061383d5761383d615b8b565b6000918252602080832090910192909255918252600188019052604090208390555b855486908061387057613870615efa565b600190038181906000526020600020016000905590558560010160008681526020019081526020016000206000905560019350505050610558565b6000915050610558565b60008381526007602090815260408083206001600160a01b0386168452601c8101909252822090916138e6826136ce565b905060005b818110156135045760006138ff8483613972565b6002546040516327ffe52160e01b815260048101899052602481018390529192506001600160a01b0316906327ffe52190604401600060405180830381600087803b15801561394d57600080fd5b505af1158015613961573d6000803e3d6000fd5b5050600190930192506138eb915050565b60006125e58383614137565b60008181526001830160205260408120546139c557508154600181810184556000848152602080822090930184905584548482528286019093526040902091909155610558565b506000610558565b60006139d883612991565b90508160a001516001600160a01b03168160a001516001600160a01b031603613a14576040516321e08b4d60e21b815260040160405180910390fd5b604080518082018252600187810b825286810b602080840191909152600087815260178d01825284812085518087019096528301805480850b875262010000900490930b918501919091529192909190613a6f908490612a72565b60008a815260158d016020526040902080549192509060ff6201000090910481169083161115613ab2576040516321e08b4d60e21b815260040160405180910390fd5b60018260ff16118015613b575750600480548454604051638383c99560e01b81529283018e905260018c810b60248501528b810b604485015281810b606485015262010000909104900b60848301526001600160a01b031690638383c9959060a401602060405180830381865afa158015613b31573d6000803e3d6000fd5b505050506040513d601f19601f82011682018060405250810190613b559190615b3f565b155b15613b75576040516321e08b4d60e21b815260040160405180910390fd5b600087815260158d016020526040812080549091600160201b90910460ff169003613bff578054600160401b900460ff16816008613bb283615e10565b91906101000a81548160ff021916908360ff1602179055505060038160000160089054906101000a900460ff1660ff1610613bf457613bf48c896000896121f0565b505050505050613504565b8154815460ff6301000000909204821691600160381b9091041660006064613c278385615f10565b613c319190615f2d565b613c3e9060ff8516615f5f565b8454909150600160201b900460ff1661ffff821610613c7757613c618f8c61259e565b60008b8152600a602052604090208e9055613cae565b835481908590600490613c95908490600160201b900460ff16615f79565b92506101000a81548160ff021916908360ff1602179055505b50505050505050505050505050505050565b613cc8614b4a565b60038260400151606001516007811115613ce457613ce4614d5b565b14613cf557613cf283612991565b90505b6040820151606001516002816007811115613d1257613d12614d5b565b03613d56578260a001516001600160a01b03168260a001516001600160a01b031614613d51576040516321e08b4d60e21b815260040160405180910390fd5b613da9565b6001816007811115613d6a57613d6a614d5b565b03613da9578260a001516001600160a01b03168260a001516001600160a01b031603613da9576040516321e08b4d60e21b815260040160405180910390fd5b6003816007811115613dbd57613dbd614d5b565b14613dcf57613dcf8887878785614161565b6002816007811115613de357613de3614d5b565b03613df257612b538885614278565b6001816007811115613e0657613e06614d5b565b03613e1757612b538888868561438b565b6003816007811115613e2b57613e2b614d5b565b03613e3c57612b5388888888614491565b6040516321e08b4d60e21b815260040160405180910390fd5b611e72816145f0565b60008281526007602090815260408083206001600160a01b0385168452601c8101909252822082613e8e826136ce565b905060005b81811015613ee5576000613ea78483613972565b9050613eb38882614652565b8015613ec95750613ec78560180182612a5a565b155b15613edc57600195505050505050610558565b50600101613e93565b5060009695505050505050565b60008281526007602090815260408083206001600160a01b0385168452601c8101909252822082613f22826136ce565b905060005b81811015613ee5576000613f3b8483613972565b9050613f478882614652565b15613f5a57600195505050505050610558565b50600101613f27565b6000848152600760205260409020600b600184900b121580613f8a57506011600183900b12155b15613fa85760405163673f032f60e11b815260040160405180910390fd5b600183810b600090815260168301602090815260408083209386900b8352929052205415613fe95760405163673f032f60e11b815260040160405180910390fd5b600183810b600081815260168401602090815260408083209487900b808452948252918290208890558151608081018352888152825180840184529384528382019490945283019190915281016140408787612741565b15158152600060209182018190529586526017909201825260409485902081518155818301518051600183018054929095015161ffff908116620100000263ffffffff1990931691161717909255938401516002909101805460609095015160ff166101000261ff00199215159290921661ffff19959095169490941717909255505050565b60008281526007602090815260408083206001600160a01b0385168452601c81019092528220826140f6826136ce565b905060005b81811015613ee557600061410f8483613972565b905061411b8882614652565b1561412e57600195505050505050610558565b506001016140fb565b600082600001828154811061414e5761414e615b8b565b9060005260206000200154905092915050565b60008581526007602090815260408083208584526017810183528184208251808401845260018a810b825289810b958201959095526003549351636759d30960e11b815292959490910193909290916001600160a01b039091169063ceb3a612906141d0908890600401615f92565b602060405180830381865afa1580156141ed573d6000803e3d6000fd5b505050506040513d601f19601f820116820180604052508101906142119190615df3565b604080518082019091528454600181810b835262010000909104900b6020820152909150600090614243908490612a72565b90508160ff168160ff16111561426c576040516321e08b4d60e21b815260040160405180910390fd5b50505050505050505050565b6000828152600760209081526040808320848452601581019092528083206003549151633387d11760e11b81529293909290916001600160a01b03169063670fa22e906142ca90600290600401615f92565b602060405180830381865afa1580156142e7573d6000803e3d6000fd5b505050506040513d601f19601f8201168201806040525081019061430b9190615df3565b8254909150600090614328908390600160201b900460ff16615c1f565b835490915060ff600160281b90910481169082161115614366578254600160201b60ff600160281b8304160264ff000000001990911617835561437e565b825464ff000000001916600160201b60ff8316021783555b61350484601a01866125d9565b6000848152600760209081526040808320858452601581019092528083206003549151633387d11760e11b81529293909290916001600160a01b03169063670fa22e906143dd90600190600401615f92565b602060405180830381865afa1580156143fa573d6000803e3d6000fd5b505050506040513d601f19601f8201168201806040525081019061441e9190615df3565b6000868152600a60205260409020879055825490915081908390600890614450908490600160401b900460ff16615c1f565b92506101000a81548160ff021916908360ff16021790555060038260000160089054906101000a900460ff1660ff16106135045761350487866000876121f0565b600084815260076020526040808220600380549251636759d30960e11b81529193926001600160a01b03169163ceb3a612916144cf91600401615f92565b602060405180830381865afa1580156144ec573d6000803e3d6000fd5b505050506040513d601f19601f820116820180604052508101906145109190615df3565b60038054604051633387d11760e11b81529293506000926001600160a01b039091169163670fa22e916145469190600401615f92565b602060405180830381865afa158015614563573d6000803e3d6000fd5b505050506040513d601f19601f820116820180604052508101906145879190615df3565b60028401546001600160a01b03166000908152601c8501602052604090209091506145bd90889088908890889087908790614709565b60038301546001600160a01b03166000908152601c84016020526040902061350490889088908890889087908790614709565b60006145fa825490565b905060005b8181101561464a5782600101600084600001838154811061462257614622615b8b565b90600052602060002001548152602001908152602001600020600090558060010190506145ff565b505060009055565b6000828152600760205260408082206001549151639596010160e01b81526004810185905290916001600160a01b031690639596010190602401602060405180830381865afa1580156146a9573d6000803e3d6000fd5b505050506040513d601f19601f820116820180604052508101906146cd9190615b3f565b806146f057506000838152601582016020526040902054600160201b900460ff16155b156146ff576000915050610558565b5060019392505050565b600087815260076020526040812090614721836136ce565b60408051808201909152600189810b825288900b602082015290915060005b828110156148ae5760006147548683613972565b6000818152601787016020908152604080832081518083019092526001908101805480830b845262010000900490910b928201929092529293509161479a908690612a72565b90508960ff168160ff16111580156147b257508c8314155b156148a3578c600a600085815260200190815260200160002081905550600087601501600085815260200190815260200160002060000160079054906101000a900460ff16905060648160ff168b60ff1661480d9190615f10565b6148179190615f2d565b6148249060ff8c16615f5f565b600085815260158a016020526040902054909a5060ff600160201b9091048116908b161061485b576148568f8561259e565b6148a1565b6000848152601589016020526040902080548b9190600490614888908490600160201b900460ff16615f79565b92506101000a81548160ff021916908360ff1602179055505b505b505050600101614740565b5050505050505050505050565b604080516101208101825260008082526020820181905291810182905260608082018390526080820183905260a0820183905260c0820183905260e082019290925261010081019190915290565b82805482825590600052602060002090601f0160209004810192821561499f5791602002820160005b8382111561497057835183826101000a81548160ff021916908360ff1602179055509260200192600101602081600001049283019260010302614932565b801561499d5782816101000a81549060ff0219169055600101602081600001049283019260010302614970565b505b506149ab929150614c68565b5090565b6040518060800160405280600081526020016149e46040518060400160405280600060010b8152602001600060010b81525090565b815260006020820181905260409091015290565b604080516102e08101825260006101c082018181526101e08301829052610200830182905261022083018290526102408301829052610260830182905261028083018290526102a083018290526102c083018290528252825160808101845281815260208082018390528185018390526060820183905280840191909152835180850185528281529081019190915290918201908152602001600081526020016000815260200160008152602001614aee604080516101008101825260008082526020820181905291810182905260608101829052608081018290529060a0820190815260200160008152602001600081525090565b8152602001606081526020016060815260200160608152602001606081526020016060815260200160608152602001606081525090565b50805460008255601f016020900490600052602060002090810190611e729190614c68565b6040518060c001604052806060815260200160008152602001614b8e6040805160808101909152806000815260200160008152602001600081526020016000905290565b8152602001614c0f6040805160c0808201835260008083528351610120810185528181526020818101839052948101829052606081018290526080810182905260a0810182905291820181905260e0820181905261010082015290918201908152600060208201819052604082018190526060820181905260809091015290565b8152604080516101208101825260008082526020828101829052928201819052606082018190526080820181905260a0820181905260c0820181905260e082018190526101008201529101908152600060209091015290565b5b808211156149ab5760008155600101614c69565b6001600160a01b0381168114611e7257600080fd5b60008060408385031215614ca557600080fd5b8235614cb081614c7d565b946020939093013593505050565b600060208284031215614cd057600080fd5b81356125e581614c7d565b805182526020810151602083015260018060a01b03604082015116604083015260018060a01b0360608201511660608301526080810151608083015260a081015160a083015260c0810151614d3460c084018215159052565b5060e081015160e08301526101008101516105e76101008401826001600160a01b03169052565b634e487b7160e01b600052602160045260246000fd5b60068110614d8157614d81614d5b565b9052565b80518252602081015160010b6020830152604081015160010b6040830152606081015160010b60608301526080810151614dc4608084018260010b9052565b5060a0810151614dd760a0840182614d71565b5060c0818101519083015260e090810151910152565b600081518084526020840193506020830160005b82811015614e1f578151865260209586019590910190600101614e01565b5093949350505050565b600081518084526020840193506020830160005b82811015614e1f57815160ff16865260209586019590910190600101614e3d565b805161ffff16825260006020820151614e7c602085018260ff169052565b506040820151614e91604085018260ff169052565b506060820151614ea6606085018260ff169052565b506080820151614ebb608085018260ff169052565b5060a0820151614ed060a085018260ff169052565b5060c0820151614ee560c085018260ff169052565b5060e0820151614efa60e085018260ff169052565b50610100820151610120610100850152612775610120850182614e29565b600082825180855260208501945060208160051b8301016020850160005b83811015614f6857601f19858403018852614f52838351614e5e565b6020988901989093509190910190600101614f36565b50909695505050505050565b600081518084526020840193506020830160005b82811015614e1f5781516000815188526020820151614fbd60208a0182805160010b8252602081015160010b60208301525050565b505060408101511515606088810191909152015160ff16608087015260a09095019460209190910190600101614f88565b614ff9828251614cdb565b60208181015180516001600160a01b0316610120850152808201516101408501526040808201516101608601526060918201516101808601528301518051600190810b6101a087015292015190910b6101c08401528101516101e0830152608081015161020083015260a081015161022083015260c0810151600090615083610240850182614d85565b5060e08201516104206103408501526150a0610420850182614ded565b90506101008301518482036103608601526150bb8282614f18565b9150506101208301518482036103808601526150d78282614f74565b9150506101408301518482036103a08601526150f38282614ded565b9150506101608301518482036103c086015261510f8282614ded565b9150506101808301518482036103e086015261512b8282614ded565b9150506101a0830151848203610400860152612afd8282614ded565b6000602082016020835280845180835260408501915060408160051b86010192506020860160005b828110156151a057603f1987860301845261518b858351614fee565b9450602093840193919091019060010161516f565b50929695505050505050565b600080604083850312156151bf57600080fd5b50508035926020909101359150565b6000602082840312156151e057600080fd5b5035919050565b6020815260006125e56020830184614e5e565b6020815260006125e56020830184614f74565b600080600080600060a0868803121561522557600080fd5b853561523081614c7d565b9450602086013561524081614c7d565b9350604086013561525081614c7d565b9250606086013561526081614c7d565b9150608086013561527081614c7d565b809150509295509295909350565b634e487b7160e01b600052604160045260246000fd5b604051608081016001600160401b03811182821017156152b6576152b661527e565b60405290565b60405160c081016001600160401b03811182821017156152b6576152b661527e565b60405161012081016001600160401b03811182821017156152b6576152b661527e565b604080519081016001600160401b03811182821017156152b6576152b661527e565b604051601f8201601f191681016001600160401b038111828210171561534b5761534b61527e565b604052919050565b60006001600160401b0382111561536c5761536c61527e565b5060051b60200190565b600082601f83011261538757600080fd5b813561539a61539582615353565b615323565b8082825260208201915060208360051b8601019250858311156153bc57600080fd5b602085015b838110156153d95780358352602092830192016153c1565b5095945050505050565b6000602082840312156153f557600080fd5b81356001600160401b0381111561540b57600080fd5b61277584828501615376565b8060010b8114611e7257600080fd5b6000806000806080858703121561543c57600080fd5b8435935060208501359250604085013561545581615417565b9150606085013561546581615417565b939692955090935050565b6000806040838503121561548357600080fd5b8235915060208301356001600160401b038111156154a057600080fd5b6154ac85828601615376565b9150509250929050565b6020815260006125e56020830184614fee565b60008060008060008060c087890312156154e257600080fd5b863595506020870135945060408701356154fb81615417565b9350606087013561550b81615417565b925060808701356006811061551f57600080fd5b9598949750929591949360a090920135925050565b8015158114611e7257600080fd5b60008060008060008060008060006101208a8c03121561556157600080fd5b8935985060208a013561557381614c7d565b975060408a013561558381614c7d565b965060608a0135955060808a0135945060a08a01356155a181615534565b989b979a5095989497939693955050505060c08201359160e0810135916101009091013590565b60ff81168114611e7257600080fd5b6000806000606084860312156155ec57600080fd5b83359250602084013591506040840135615605816155c8565b809150509250925092565b60088110611e7257600080fd5b60006080828403121561562f57600080fd5b615637615294565b9050815161564481615610565b8152602082015161565481615610565b6020820152604082015161566781615610565b6040820152606082015161567a81615610565b606082015292915050565b805161ffff8116811461569757600080fd5b919050565b8051615697816155c8565b60008183036101c08112156156bb57600080fd5b6156c36152bc565b835181529150610120601f19820112156156dc57600080fd5b506156e56152de565b6156f160208401615685565b81526156ff6040840161569c565b60208201526157106060840161569c565b604082015261572160808401615685565b606082015261573260a0840161569c565b608082015261574360c0840161569c565b60a082015261575460e08401615685565b60c0820152615766610100840161569c565b60e0820152615778610120840161569c565b61010082015260208201526157906101408301615685565b60408201526157a2610160830161569c565b60608201526157b4610180830161569c565b60808201526157c66101a0830161569c565b60a082015292915050565b805163ffffffff8116811461569757600080fd5b805161569781615534565b6000610120828403121561580357600080fd5b61580b6152de565b9050615816826157d1565b815261582460208301615685565b602082015261583560408301615685565b604082015261584660608301615685565b6060820152615857608083016157e5565b608082015261586860a083016157e5565b60a082015261587960c083016157e5565b60c082015261588a60e083016157e5565b60e08201526101009182015191810191909152919050565b805161569781614c7d565b6000602082840312156158bf57600080fd5b81516001600160401b038111156158d557600080fd5b82016103c081850312156158e857600080fd5b6158f06152bc565b81516001600160401b0381111561590657600080fd5b8201601f8101861361591757600080fd5b80516001600160401b038111156159305761593061527e565b615943601f8201601f1916602001615323565b81815287602083850101111561595857600080fd5b60005b828110156159775760208185018101518383018201520161595b565b5060006020928201830152835283810151908301525061599a856040840161561d565b60408201526159ac8560c084016156a7565b60608201526159bf8561028084016157f0565b60808201526159d16103a083016158a2565b60a0820152949350505050565b600082601f8301126159ef57600080fd5b81516159fd61539582615353565b8082825260208201915060208360051b860101925085831115615a1f57600080fd5b602085015b838110156153d9578051615a37816155c8565b835260209283019201615a24565b600060208284031215615a5757600080fd5b81516001600160401b03811115615a6d57600080fd5b82016101208185031215615a8057600080fd5b615a886152de565b615a9182615685565b8152615a9f6020830161569c565b6020820152615ab06040830161569c565b6040820152615ac16060830161569c565b6060820152615ad26080830161569c565b6080820152615ae360a0830161569c565b60a0820152615af460c0830161569c565b60c0820152615b0560e0830161569c565b60e08201526101008201516001600160401b03811115615b2457600080fd5b615b30868285016159de565b61010083015250949350505050565b600060208284031215615b5157600080fd5b81516125e581615534565b634e487b7160e01b600052601160045260246000fd5b600060018201615b8457615b84615b5c565b5060010190565b634e487b7160e01b600052603260045260246000fd5b8082018082111561055857610558615b5c565b878152600187810b602083015286810b604083015285810b606083015284900b608082015260e08101615bea60a0830185614d71565b8260c083015298975050505050505050565b600182810b9082900b03617fff198112617fff8213171561055857610558615b5c565b60ff818116838216019081111561055857610558615b5c565b600082601f830112615c4957600080fd5b8151615c5761539582615353565b8082825260208201915060208360061b860101925085831115615c7957600080fd5b602085015b838110156153d95760408188031215615c9657600080fd5b615c9e615301565b8151615ca981615417565b81526020820151615cb981615417565b6020828101919091529084529290920191604001615c7e565b60008060408385031215615ce557600080fd5b82516001600160401b03811115615cfb57600080fd5b615d0785828601615c38565b92505060208301516001600160401b03811115615d2357600080fd5b8301601f81018513615d3457600080fd5b8051615d4261539582615353565b8082825260208201915060208360071b850101925087831115615d6457600080fd5b6020840193505b82841015615de55760808489031215615d8357600080fd5b615d8b615294565b8451615d9681615417565b81526020850151615da681615417565b60208201526040850151615db9816155c8565b60408201526060850151615dcc81615534565b6060820152825260809390930192602090910190615d6b565b809450505050509250929050565b600060208284031215615e0557600080fd5b81516125e5816155c8565b600060ff821660ff8103615e2657615e26615b5c565b60010192915050565b60008060408385031215615e4257600080fd5b82516001600160401b03811115615e5857600080fd5b8301601f81018513615e6957600080fd5b8051615e7761539582615353565b8082825260208201915060208360051b850101925087831115615e9957600080fd5b6020840193505b82841015615ebb578351825260209384019390910190615ea0565b8095505050505060208301516001600160401b03811115615edb57600080fd5b6154ac85828601615c38565b8181038181111561055857610558615b5c565b634e487b7160e01b600052603160045260246000fd5b61ffff8181168382160290811690818114610d9f57610d9f615b5c565b600061ffff831680615f4f57634e487b7160e01b600052601260045260246000fd5b8061ffff84160491505092915050565b61ffff828116828216039081111561055857610558615b5c565b60ff828116828216039081111561055857610558615b5c565b6020810160088310615fa657615fa6614d5b565b9190529056fea26469706673582212202b52b987679229c289121d7b2971a42e7111512bb78a816c4191912c36576ef864736f6c634300081c0033",
  "linkReferences": {},
  "deployedLinkReferences": {}
}