{
  "_format": "hh-sol-artifact-1",
  "contractName": "GameResults",
  "sourceName": "contracts/GameResults.sol",
  "abi": [
    {
      "inputs": [],
      "stateMutability": "nonpayable",
      "type": "constructor"
    },
    {
      "inputs": [],
      "name": "GameAlreadyRecorded",
      "type": "error"
    },
    {
      "inputs": [],
      "name": "GameNotFound",
      "type": "error"
    },
    {
      "inputs": [],
      "name": "InvalidGameResult",
      "type": "error"
    },
    {
      "inputs": [],
      "name": "NotGameContract",
      "type": "error"
    },
    {
      "inputs": [
        {
          "internalType": "address",
          "name": "owner",
          "type": "address"
        }
      ],
      "name": "OwnableInvalidOwner",
      "type": "error"
    },
    {
      "inputs": [
        {
          "internalType": "address",
          "name": "account",
          "type": "address"
        }
      ],
      "name": "OwnableUnauthorizedAccount",
      "type": "error"
    },
    {
      "anonymous": false,
      "inputs": [
        {
          "indexed": true,
          "internalType": "address",
          "name": "gameContract",
          "type": "address"
        }
      ],
      "name": "GameContractSet",
      "type": "event"
    },
    {
      "anonymous": false,
      "inputs": [
        {
          "indexed": true,
          "internalType": "uint256",
          "name": "gameId",
          "type": "uint256"
        },
        {
          "indexed": true,
          "internalType": "address",
          "name": "winner",
          "type": "address"
        },
        {
          "indexed": true,
          "internalType": "address",
          "name": "loser",
          "type": "address"
        },
        {
          "indexed": false,
          "internalType": "uint256",
          "name": "timestamp",
          "type": "uint256"
        }
      ],
      "name": "GameResultRecorded",
      "type": "event"
    },
    {
      "anonymous": false,
      "inputs": [
        {
          "indexed": true,
          "internalType": "address",
          "name": "previousOwner",
          "type": "address"
        },
        {
          "indexed": true,
          "internalType": "address",
          "name": "newOwner",
          "type": "address"
        }
      ],
      "name": "OwnershipTransferred",
      "type": "event"
    },
    {
      "anonymous": false,
      "inputs": [
        {
          "indexed": true,
          "internalType": "address",
          "name": "player",
          "type": "address"
        },
        {
          "indexed": false,
          "internalType": "uint256",
          "name": "wins",
          "type": "uint256"
        },
        {
          "indexed": false,
          "internalType": "uint256",
          "name": "losses",
          "type": "uint256"
        },
        {
          "indexed": false,
          "internalType": "uint256",
          "name": "totalGames",
          "type": "uint256"
        }
      ],
      "name": "PlayerStatsUpdated",
      "type": "event"
    },
    {
      "inputs": [],
      "name": "gameContract",
      "outputs": [
        {
          "internalType": "address",
          "name": "",
          "type": "address"
        }
      ],
      "stateMutability": "view",
      "type": "function"
    },
    {
      "inputs": [
        {
          "internalType": "uint256",
          "name": "",
          "type": "uint256"
        }
      ],
      "name": "gameResults",
      "outputs": [
        {
          "internalType": "uint256",
          "name": "gameId",
          "type": "uint256"
        },
        {
          "internalType": "address",
          "name": "winner",
          "type": "address"
        },
        {
          "internalType": "address",
          "name": "loser",
          "type": "address"
        },
        {
          "internalType": "uint256",
          "name": "timestamp",
          "type": "uint256"
        }
      ],
      "stateMutability": "view",
      "type": "function"
    },
    {
      "inputs": [
        {
          "internalType": "uint256",
          "name": "_gameId",
          "type": "uint256"
        }
      ],
      "name": "getGameResult",
      "outputs": [
        {
          "components": [
            {
              "internalType": "uint256",
              "name": "gameId",
              "type": "uint256"
            },
            {
              "internalType": "address",
              "name": "winner",
              "type": "address"
            },
            {
              "internalType": "address",
              "name": "loser",
              "type": "address"
            },
            {
              "internalType": "uint256",
              "name": "timestamp",
              "type": "uint256"
            }
          ],
          "internalType": "struct GameResult",
          "name": "",
          "type": "tuple"
        }
      ],
      "stateMutability": "view",
      "type": "function"
    },
    {
      "inputs": [
        {
          "internalType": "address",
          "name": "_player",
          "type": "address"
        }
      ],
      "name": "getPlayerStats",
      "outputs": [
        {
          "components": [
            {
              "internalType": "uint256",
              "name": "wins",
              "type": "uint256"
            },
            {
              "internalType": "uint256",
              "name": "losses",
              "type": "uint256"
            },
            {
              "internalType": "uint256",
              "name": "totalGames",
              "type": "uint256"
            }
          ],
          "internalType": "struct PlayerStats",
          "name": "",
          "type": "tuple"
        }
      ],
      "stateMutability": "view",
      "type": "function"
    },
    {
      "inputs": [
        {
          "internalType": "address",
          "name": "_player",
          "type": "address"
        }
      ],
      "name": "getPlayerTotalGames",
      "outputs": [
        {
          "internalType": "uint256",
          "name": "",
          "type": "uint256"
        }
      ],
      "stateMutability": "view",
      "type": "function"
    },
    {
      "inputs": [
        {
          "internalType": "address",
          "name": "_player",
          "type": "address"
        }
      ],
      "name": "getPlayerWinRate",
      "outputs": [
        {
          "internalType": "uint256",
          "name": "",
          "type": "uint256"
        }
      ],
      "stateMutability": "view",
      "type": "function"
    },
    {
      "inputs": [
        {
          "internalType": "uint256",
          "name": "_limit",
          "type": "uint256"
        }
      ],
      "name": "getTopPlayersByWins",
      "outputs": [
        {
          "internalType": "address[]",
          "name": "",
          "type": "address[]"
        }
      ],
      "stateMutability": "view",
      "type": "function"
    },
    {
      "inputs": [
        {
          "internalType": "uint256",
          "name": "_gameId",
          "type": "uint256"
        }
      ],
      "name": "isGameResultRecorded",
      "outputs": [
        {
          "internalType": "bool",
          "name": "",
          "type": "bool"
        }
      ],
      "stateMutability": "view",
      "type": "function"
    },
    {
      "inputs": [],
      "name": "owner",
      "outputs": [
        {
          "internalType": "address",
          "name": "",
          "type": "address"
        }
      ],
      "stateMutability": "view",
      "type": "function"
    },
    {
      "inputs": [
        {
          "internalType": "address",
          "name": "",
          "type": "address"
        }
      ],
      "name": "playerStats",
      "outputs": [
        {
          "internalType": "uint256",
          "name": "wins",
          "type": "uint256"
        },
        {
          "internalType": "uint256",
          "name": "losses",
          "type": "uint256"
        },
        {
          "internalType": "uint256",
          "name": "totalGames",
          "type": "uint256"
        }
      ],
      "stateMutability": "view",
      "type": "function"
    },
    {
      "inputs": [
        {
          "internalType": "uint256",
          "name": "_gameId",
          "type": "uint256"
        },
        {
          "internalType": "address",
          "name": "_winner",
          "type": "address"
        },
        {
          "internalType": "address",
          "name": "_loser",
          "type": "address"
        }
      ],
      "name": "recordGameResult",
      "outputs": [],
      "stateMutability": "nonpayable",
      "type": "function"
    },
    {
      "inputs": [],
      "name": "renounceOwnership",
      "outputs": [],
      "stateMutability": "nonpayable",
      "type": "function"
    },
    {
      "inputs": [
        {
          "internalType": "address",
          "name": "_gameContract",
          "type": "address"
        }
      ],
      "name": "setGameContract",
      "outputs": [],
      "stateMutability": "nonpayable",
      "type": "function"
    },
    {
      "inputs": [],
      "name": "totalGamesTracked",
      "outputs": [
        {
          "internalType": "uint256",
          "name": "",
          "type": "uint256"
        }
      ],
      "stateMutability": "view",
      "type": "function"
    },
    {
      "inputs": [
        {
          "internalType": "address",
          "name": "newOwner",
          "type": "address"
        }
      ],
      "name": "transferOwnership",
      "outputs": [],
      "stateMutability": "nonpayable",
      "type": "function"
    }
  ],
  "bytecode": "0x6080604052348015600f57600080fd5b503380603557604051631e4fbdf760e01b81526000600482015260240160405180910390fd5b603c816041565b506091565b600080546001600160a01b038381166001600160a01b0319831681178455604051919092169283917f8be0079c531659141344cd1fd0a4f28419497f9722a3daafe3b4186f6b6457e09190a35050565b6109f7806100a06000396000f3fe608060405234801561001057600080fd5b50600436106100f55760003560e01c80638da5cb5b11610097578063ea7459f211610066578063ea7459f214610288578063ed2df26d1461029b578063f2fde38b146102ef578063fdba1b7c1461030257600080fd5b80638da5cb5b146101f4578063cdafbbb614610219578063d3f3300914610262578063d6c6eb9f1461027557600080fd5b80635c13e57a116100d35780635c13e57a14610183578063672497161461018c5780636c644ee8146101ba578063715018a6146101ec57600080fd5b8063405ebd4d146100fa5780634244d10f1461010f5780634fd66eae1461014e575b600080fd5b61010d61010836600461089d565b610375565b005b61013b61011d36600461089d565b6001600160a01b031660009081526001602052604090206002015490565b6040519081526020015b60405180910390f35b61016161015c36600461089d565b6103c7565b6040805182518152602080840151908201529181015190820152606001610145565b61013b60035481565b6101ad61019a3660046108b8565b5060408051600081526020810190915290565b60405161014591906108d1565b6101dc6101c83660046108b8565b600090815260026020526040902054151590565b6040519015158152602001610145565b61010d61042c565b6000546001600160a01b03165b6040516001600160a01b039091168152602001610145565b61024761022736600461089d565b600160208190526000918252604090912080549181015460029091015483565b60408051938452602084019290925290820152606001610145565b600454610201906001600160a01b031681565b61010d61028336600461091d565b610440565b61013b61029636600461089d565b6105fb565b6102ae6102a93660046108b8565b61066b565b60408051825181526020808401516001600160a01b039081169183019190915283830151169181019190915260609182015191810191909152608001610145565b61010d6102fd36600461089d565b610700565b6103456103103660046108b8565b6002602081905260009182526040909120805460018201549282015460039092015490926001600160a01b0390811692169084565b60405161014594939291909384526001600160a01b03928316602085015291166040830152606082015260800190565b61037d610743565b600480546001600160a01b0319166001600160a01b0383169081179091556040517f0fda64424e106ff66a5173d9c3ec7fb2f234f4488457686975a66fe3371fd0f290600090a250565b6103eb60405180606001604052806000815260200160008152602001600081525090565b506001600160a01b03166000908152600160208181526040928390208351606081018552815481529281015491830191909152600201549181019190915290565b610434610743565b61043e6000610770565b565b6004546001600160a01b0316331461046b57604051636aff438160e11b815260040160405180910390fd5b6001600160a01b038216158061048857506001600160a01b038116155b156104a657604051636f756dcf60e01b815260040160405180910390fd5b806001600160a01b0316826001600160a01b0316036104d857604051636f756dcf60e01b815260040160405180910390fd5b60008381526002602052604090205415610505576040516365b054cf60e11b815260040160405180910390fd5b604080516080810182528481526001600160a01b038085166020808401918252858316848601908152426060860190815260008a815260029384905296909620945185559151600180860180549286166001600160a01b0319938416179055925191850180549290941691161790915591516003909101556105889083906107c0565b6105938160006107c0565b600380549060006105a38361096f565b9190505550806001600160a01b0316826001600160a01b0316847f34852417629096e51d9324f8c0badde146751c8012495651872371eb6318204f426040516105ee91815260200190565b60405180910390a4505050565b6001600160a01b0381166000908152600160208181526040808420815160608101835281548152938101549284019290925260029091015490820181905282036106485750600092915050565b6040810151815161065a906064610988565b610664919061099f565b9392505050565b60408051608081018252600080825260208201819052918101829052606081019190915260008281526002602081815260408084208151608081018352815480825260018301546001600160a01b0390811695830195909552948201549093169183019190915260030154606082015291036106fa576040516309b3c62760e21b815260040160405180910390fd5b92915050565b610708610743565b6001600160a01b03811661073757604051631e4fbdf760e01b8152600060048201526024015b60405180910390fd5b61074081610770565b50565b6000546001600160a01b0316331461043e5760405163118cdaa760e01b815233600482015260240161072e565b600080546001600160a01b038381166001600160a01b0319831681178455604051919092169283917f8be0079c531659141344cd1fd0a4f28419497f9722a3daafe3b4186f6b6457e09190a35050565b6001600160a01b038216600090815260016020526040902081156107f65780548160006107ec8361096f565b919050555061080e565b6001810180549060006108088361096f565b91905055505b6002810180549060006108208361096f565b9091555050805460018201546002830154604080519384526020840192909252908201526001600160a01b038416907fa59fa8b79115e096a83695b3285fad27bd9f0565a3e52f114745d15c9c7e74869060600160405180910390a2505050565b80356001600160a01b038116811461089857600080fd5b919050565b6000602082840312156108af57600080fd5b61066482610881565b6000602082840312156108ca57600080fd5b5035919050565b602080825282518282018190526000918401906040840190835b818110156109125783516001600160a01b03168352602093840193909201916001016108eb565b509095945050505050565b60008060006060848603121561093257600080fd5b8335925061094260208501610881565b915061095060408501610881565b90509250925092565b634e487b7160e01b600052601160045260246000fd5b60006001820161098157610981610959565b5060010190565b80820281158282048414176106fa576106fa610959565b6000826109bc57634e487b7160e01b600052601260045260246000fd5b50049056fea26469706673582212209952da43fc774ef3676d621bbf5a19dd0a50942a7a3a0f52360c970b17ef029064736f6c634300081c0033",
  "linkReferences": {},
  "deployedLinkReferences": {}
}