{
  "_format": "hh-sol-artifact-1",
  "contractName": "Ships",
  "sourceName": "contracts/Ships.sol",
  "abi": [
    {
      "inputs": [
        {
          "internalType": "address",
          "name": "_renderer",
          "type": "address"
        }
      ],
      "stateMutability": "nonpayable",
      "type": "constructor"
    },
    {
      "inputs": [],
      "name": "ArrayLengthMismatch",
      "type": "error"
    },
    {
      "inputs": [
        {
          "internalType": "address",
          "name": "sender",
          "type": "address"
        },
        {
          "internalType": "uint256",
          "name": "tokenId",
          "type": "uint256"
        },
        {
          "internalType": "address",
          "name": "owner",
          "type": "address"
        }
      ],
      "name": "ERC721IncorrectOwner",
      "type": "error"
    },
    {
      "inputs": [
        {
          "internalType": "address",
          "name": "operator",
          "type": "address"
        },
        {
          "internalType": "uint256",
          "name": "tokenId",
          "type": "uint256"
        }
      ],
      "name": "ERC721InsufficientApproval",
      "type": "error"
    },
    {
      "inputs": [
        {
          "internalType": "address",
          "name": "approver",
          "type": "address"
        }
      ],
      "name": "ERC721InvalidApprover",
      "type": "error"
    },
    {
      "inputs": [
        {
          "internalType": "address",
          "name": "operator",
          "type": "address"
        }
      ],
      "name": "ERC721InvalidOperator",
      "type": "error"
    },
    {
      "inputs": [
        {
          "internalType": "address",
          "name": "owner",
          "type": "address"
        }
      ],
      "name": "ERC721InvalidOwner",
      "type": "error"
    },
    {
      "inputs": [
        {
          "internalType": "address",
          "name": "receiver",
          "type": "address"
        }
      ],
      "name": "ERC721InvalidReceiver",
      "type": "error"
    },
    {
      "inputs": [
        {
          "internalType": "address",
          "name": "sender",
          "type": "address"
        }
      ],
      "name": "ERC721InvalidSender",
      "type": "error"
    },
    {
      "inputs": [
        {
          "internalType": "uint256",
          "name": "tokenId",
          "type": "uint256"
        }
      ],
      "name": "ERC721NonexistentToken",
      "type": "error"
    },
    {
      "inputs": [],
      "name": "InvalidId",
      "type": "error"
    },
    {
      "inputs": [
        {
          "internalType": "uint256",
          "name": "_tier",
          "type": "uint256"
        },
        {
          "internalType": "uint256",
          "name": "_amount",
          "type": "uint256"
        }
      ],
      "name": "InvalidPurchase",
      "type": "error"
    },
    {
      "inputs": [],
      "name": "InvalidReferral",
      "type": "error"
    },
    {
      "inputs": [],
      "name": "InvalidRenderer",
      "type": "error"
    },
    {
      "inputs": [],
      "name": "MintPaused",
      "type": "error"
    },
    {
      "inputs": [
        {
          "internalType": "address",
          "name": "",
          "type": "address"
        }
      ],
      "name": "NotAllowedToTransfer",
      "type": "error"
    },
    {
      "inputs": [
        {
          "internalType": "address",
          "name": "",
          "type": "address"
        }
      ],
      "name": "NotAuthorized",
      "type": "error"
    },
    {
      "inputs": [
        {
          "internalType": "uint256",
          "name": "",
          "type": "uint256"
        }
      ],
      "name": "NotYourShip",
      "type": "error"
    },
    {
      "inputs": [],
      "name": "OldShipCost",
      "type": "error"
    },
    {
      "inputs": [
        {
          "internalType": "address",
          "name": "owner",
          "type": "address"
        }
      ],
      "name": "OwnableInvalidOwner",
      "type": "error"
    },
    {
      "inputs": [
        {
          "internalType": "address",
          "name": "account",
          "type": "address"
        }
      ],
      "name": "OwnableUnauthorizedAccount",
      "type": "error"
    },
    {
      "inputs": [],
      "name": "ReentrancyGuardReentrantCall",
      "type": "error"
    },
    {
      "inputs": [
        {
          "internalType": "uint256",
          "name": "",
          "type": "uint256"
        }
      ],
      "name": "ShipAlreadyDestroyed",
      "type": "error"
    },
    {
      "inputs": [
        {
          "internalType": "uint256",
          "name": "",
          "type": "uint256"
        }
      ],
      "name": "ShipConstructed",
      "type": "error"
    },
    {
      "inputs": [],
      "name": "ShipDestroyed",
      "type": "error"
    },
    {
      "inputs": [
        {
          "internalType": "uint256",
          "name": "",
          "type": "uint256"
        }
      ],
      "name": "ShipInFleet",
      "type": "error"
    },
    {
      "inputs": [],
      "name": "ShipInGame",
      "type": "error"
    },
    {
      "inputs": [],
      "name": "ShipInLobby",
      "type": "error"
    },
    {
      "anonymous": false,
      "inputs": [
        {
          "indexed": true,
          "internalType": "address",
          "name": "owner",
          "type": "address"
        },
        {
          "indexed": true,
          "internalType": "address",
          "name": "approved",
          "type": "address"
        },
        {
          "indexed": true,
          "internalType": "uint256",
          "name": "tokenId",
          "type": "uint256"
        }
      ],
      "name": "Approval",
      "type": "event"
    },
    {
      "anonymous": false,
      "inputs": [
        {
          "indexed": true,
          "internalType": "address",
          "name": "owner",
          "type": "address"
        },
        {
          "indexed": true,
          "internalType": "address",
          "name": "operator",
          "type": "address"
        },
        {
          "indexed": false,
          "internalType": "bool",
          "name": "approved",
          "type": "bool"
        }
      ],
      "name": "ApprovalForAll",
      "type": "event"
    },
    {
      "anonymous": false,
      "inputs": [
        {
          "indexed": false,
          "internalType": "uint256",
          "name": "_tokenId",
          "type": "uint256"
        }
      ],
      "name": "MetadataUpdate",
      "type": "event"
    },
    {
      "anonymous": false,
      "inputs": [
        {
          "indexed": true,
          "internalType": "address",
          "name": "previousOwner",
          "type": "address"
        },
        {
          "indexed": true,
          "internalType": "address",
          "name": "newOwner",
          "type": "address"
        }
      ],
      "name": "OwnershipTransferred",
      "type": "event"
    },
    {
      "anonymous": false,
      "inputs": [
        {
          "indexed": true,
          "internalType": "address",
          "name": "from",
          "type": "address"
        },
        {
          "indexed": true,
          "internalType": "address",
          "name": "to",
          "type": "address"
        },
        {
          "indexed": true,
          "internalType": "uint256",
          "name": "tokenId",
          "type": "uint256"
        }
      ],
      "name": "Transfer",
      "type": "event"
    },
    {
      "inputs": [
        {
          "internalType": "address",
          "name": "",
          "type": "address"
        }
      ],
      "name": "allowedToTransfer",
      "outputs": [
        {
          "internalType": "bool",
          "name": "",
          "type": "bool"
        }
      ],
      "stateMutability": "view",
      "type": "function"
    },
    {
      "inputs": [
        {
          "internalType": "address",
          "name": "to",
          "type": "address"
        },
        {
          "internalType": "uint256",
          "name": "tokenId",
          "type": "uint256"
        }
      ],
      "name": "approve",
      "outputs": [],
      "stateMutability": "nonpayable",
      "type": "function"
    },
    {
      "inputs": [
        {
          "internalType": "address",
          "name": "owner",
          "type": "address"
        }
      ],
      "name": "balanceOf",
      "outputs": [
        {
          "internalType": "uint256",
          "name": "",
          "type": "uint256"
        }
      ],
      "stateMutability": "view",
      "type": "function"
    },
    {
      "inputs": [],
      "name": "config",
      "outputs": [
        {
          "internalType": "address",
          "name": "gameAddress",
          "type": "address"
        },
        {
          "internalType": "address",
          "name": "lobbyAddress",
          "type": "address"
        },
        {
          "internalType": "address",
          "name": "fleetsAddress",
          "type": "address"
        },
        {
          "internalType": "contract IRenderMetadata",
          "name": "metadataRenderer",
          "type": "address"
        },
        {
          "internalType": "contract IRandomManager",
          "name": "randomManager",
          "type": "address"
        },
        {
          "internalType": "contract IGenerateNewShip",
          "name": "shipGenerator",
          "type": "address"
        }
      ],
      "stateMutability": "view",
      "type": "function"
    },
    {
      "inputs": [],
      "name": "constructAllMyShips",
      "outputs": [],
      "stateMutability": "nonpayable",
      "type": "function"
    },
    {
      "inputs": [
        {
          "internalType": "uint256",
          "name": "_id",
          "type": "uint256"
        }
      ],
      "name": "constructShip",
      "outputs": [],
      "stateMutability": "nonpayable",
      "type": "function"
    },
    {
      "inputs": [
        {
          "internalType": "uint256[]",
          "name": "_ids",
          "type": "uint256[]"
        }
      ],
      "name": "constructShips",
      "outputs": [],
      "stateMutability": "nonpayable",
      "type": "function"
    },
    {
      "inputs": [
        {
          "internalType": "uint256",
          "name": "_id",
          "type": "uint256"
        },
        {
          "components": [
            {
              "internalType": "string",
              "name": "name",
              "type": "string"
            },
            {
              "internalType": "uint256",
              "name": "id",
              "type": "uint256"
            },
            {
              "components": [
                {
                  "internalType": "enum MainWeapon",
                  "name": "mainWeapon",
                  "type": "uint8"
                },
                {
                  "internalType": "enum Armor",
                  "name": "armor",
                  "type": "uint8"
                },
                {
                  "internalType": "enum Shields",
                  "name": "shields",
                  "type": "uint8"
                },
                {
                  "internalType": "enum Special",
                  "name": "special",
                  "type": "uint8"
                }
              ],
              "internalType": "struct Equipment",
              "name": "equipment",
              "type": "tuple"
            },
            {
              "components": [
                {
                  "internalType": "uint256",
                  "name": "serialNumber",
                  "type": "uint256"
                },
                {
                  "components": [
                    {
                      "internalType": "uint16",
                      "name": "h1",
                      "type": "uint16"
                    },
                    {
                      "internalType": "uint8",
                      "name": "s1",
                      "type": "uint8"
                    },
                    {
                      "internalType": "uint8",
                      "name": "l1",
                      "type": "uint8"
                    },
                    {
                      "internalType": "uint16",
                      "name": "h2",
                      "type": "uint16"
                    },
                    {
                      "internalType": "uint8",
                      "name": "s2",
                      "type": "uint8"
                    },
                    {
                      "internalType": "uint8",
                      "name": "l2",
                      "type": "uint8"
                    }
                  ],
                  "internalType": "struct Colors",
                  "name": "colors",
                  "type": "tuple"
                },
                {
                  "internalType": "uint8",
                  "name": "variant",
                  "type": "uint8"
                },
                {
                  "internalType": "uint8",
                  "name": "accuracy",
                  "type": "uint8"
                },
                {
                  "internalType": "uint8",
                  "name": "hull",
                  "type": "uint8"
                },
                {
                  "internalType": "uint8",
                  "name": "speed",
                  "type": "uint8"
                }
              ],
              "internalType": "struct Traits",
              "name": "traits",
              "type": "tuple"
            },
            {
              "components": [
                {
                  "internalType": "uint32",
                  "name": "shipsDestroyed",
                  "type": "uint32"
                },
                {
                  "internalType": "uint16",
                  "name": "costsVersion",
                  "type": "uint16"
                },
                {
                  "internalType": "uint16",
                  "name": "cost",
                  "type": "uint16"
                },
                {
                  "internalType": "bool",
                  "name": "shiny",
                  "type": "bool"
                },
                {
                  "internalType": "bool",
                  "name": "constructed",
                  "type": "bool"
                },
                {
                  "internalType": "bool",
                  "name": "inFleet",
                  "type": "bool"
                },
                {
                  "internalType": "uint256",
                  "name": "timestampDestroyed",
                  "type": "uint256"
                }
              ],
              "internalType": "struct ShipData",
              "name": "shipData",
              "type": "tuple"
            },
            {
              "internalType": "address",
              "name": "owner",
              "type": "address"
            }
          ],
          "internalType": "struct Ship",
          "name": "_ship",
          "type": "tuple"
        }
      ],
      "name": "constructSpecificShip",
      "outputs": [],
      "stateMutability": "nonpayable",
      "type": "function"
    },
    {
      "inputs": [],
      "name": "costs",
      "outputs": [
        {
          "internalType": "uint16",
          "name": "version",
          "type": "uint16"
        },
        {
          "internalType": "uint8",
          "name": "baseCost",
          "type": "uint8"
        }
      ],
      "stateMutability": "view",
      "type": "function"
    },
    {
      "inputs": [],
      "name": "costsVersion",
      "outputs": [
        {
          "internalType": "uint256",
          "name": "",
          "type": "uint256"
        }
      ],
      "stateMutability": "view",
      "type": "function"
    },
    {
      "inputs": [
        {
          "internalType": "address",
          "name": "_to",
          "type": "address"
        },
        {
          "internalType": "uint256",
          "name": "_amount",
          "type": "uint256"
        }
      ],
      "name": "createShips",
      "outputs": [],
      "stateMutability": "nonpayable",
      "type": "function"
    },
    {
      "inputs": [
        {
          "internalType": "uint256",
          "name": "tokenId",
          "type": "uint256"
        }
      ],
      "name": "getApproved",
      "outputs": [
        {
          "internalType": "address",
          "name": "",
          "type": "address"
        }
      ],
      "stateMutability": "view",
      "type": "function"
    },
    {
      "inputs": [],
      "name": "getCosts",
      "outputs": [
        {
          "internalType": "uint256",
          "name": "",
          "type": "uint256"
        },
        {
          "components": [
            {
              "internalType": "uint16",
              "name": "version",
              "type": "uint16"
            },
            {
              "internalType": "uint8",
              "name": "baseCost",
              "type": "uint8"
            },
            {
              "internalType": "uint8[]",
              "name": "accuracy",
              "type": "uint8[]"
            },
            {
              "internalType": "uint8[]",
              "name": "hull",
              "type": "uint8[]"
            },
            {
              "internalType": "uint8[]",
              "name": "speed",
              "type": "uint8[]"
            },
            {
              "internalType": "uint8[]",
              "name": "mainWeapon",
              "type": "uint8[]"
            },
            {
              "internalType": "uint8[]",
              "name": "armor",
              "type": "uint8[]"
            },
            {
              "internalType": "uint8[]",
              "name": "shields",
              "type": "uint8[]"
            },
            {
              "internalType": "uint8[]",
              "name": "special",
              "type": "uint8[]"
            }
          ],
          "internalType": "struct Costs",
          "name": "",
          "type": "tuple"
        }
      ],
      "stateMutability": "view",
      "type": "function"
    },
    {
      "inputs": [],
      "name": "getCurrentCostsVersion",
      "outputs": [
        {
          "internalType": "uint16",
          "name": "",
          "type": "uint16"
        }
      ],
      "stateMutability": "view",
      "type": "function"
    },
    {
      "inputs": [],
      "name": "getPurchaseInfo",
      "outputs": [
        {
          "internalType": "uint8[]",
          "name": "_purchaseTiers",
          "type": "uint8[]"
        },
        {
          "internalType": "uint8[]",
          "name": "_tierShips",
          "type": "uint8[]"
        },
        {
          "internalType": "uint256[]",
          "name": "_tierPrices",
          "type": "uint256[]"
        }
      ],
      "stateMutability": "view",
      "type": "function"
    },
    {
      "inputs": [
        {
          "internalType": "uint256",
          "name": "_id",
          "type": "uint256"
        }
      ],
      "name": "getShip",
      "outputs": [
        {
          "components": [
            {
              "internalType": "string",
              "name": "name",
              "type": "string"
            },
            {
              "internalType": "uint256",
              "name": "id",
              "type": "uint256"
            },
            {
              "components": [
                {
                  "internalType": "enum MainWeapon",
                  "name": "mainWeapon",
                  "type": "uint8"
                },
                {
                  "internalType": "enum Armor",
                  "name": "armor",
                  "type": "uint8"
                },
                {
                  "internalType": "enum Shields",
                  "name": "shields",
                  "type": "uint8"
                },
                {
                  "internalType": "enum Special",
                  "name": "special",
                  "type": "uint8"
                }
              ],
              "internalType": "struct Equipment",
              "name": "equipment",
              "type": "tuple"
            },
            {
              "components": [
                {
                  "internalType": "uint256",
                  "name": "serialNumber",
                  "type": "uint256"
                },
                {
                  "components": [
                    {
                      "internalType": "uint16",
                      "name": "h1",
                      "type": "uint16"
                    },
                    {
                      "internalType": "uint8",
                      "name": "s1",
                      "type": "uint8"
                    },
                    {
                      "internalType": "uint8",
                      "name": "l1",
                      "type": "uint8"
                    },
                    {
                      "internalType": "uint16",
                      "name": "h2",
                      "type": "uint16"
                    },
                    {
                      "internalType": "uint8",
                      "name": "s2",
                      "type": "uint8"
                    },
                    {
                      "internalType": "uint8",
                      "name": "l2",
                      "type": "uint8"
                    }
                  ],
                  "internalType": "struct Colors",
                  "name": "colors",
                  "type": "tuple"
                },
                {
                  "internalType": "uint8",
                  "name": "variant",
                  "type": "uint8"
                },
                {
                  "internalType": "uint8",
                  "name": "accuracy",
                  "type": "uint8"
                },
                {
                  "internalType": "uint8",
                  "name": "hull",
                  "type": "uint8"
                },
                {
                  "internalType": "uint8",
                  "name": "speed",
                  "type": "uint8"
                }
              ],
              "internalType": "struct Traits",
              "name": "traits",
              "type": "tuple"
            },
            {
              "components": [
                {
                  "internalType": "uint32",
                  "name": "shipsDestroyed",
                  "type": "uint32"
                },
                {
                  "internalType": "uint16",
                  "name": "costsVersion",
                  "type": "uint16"
                },
                {
                  "internalType": "uint16",
                  "name": "cost",
                  "type": "uint16"
                },
                {
                  "internalType": "bool",
                  "name": "shiny",
                  "type": "bool"
                },
                {
                  "internalType": "bool",
                  "name": "constructed",
                  "type": "bool"
                },
                {
                  "internalType": "bool",
                  "name": "inFleet",
                  "type": "bool"
                },
                {
                  "internalType": "uint256",
                  "name": "timestampDestroyed",
                  "type": "uint256"
                }
              ],
              "internalType": "struct ShipData",
              "name": "shipData",
              "type": "tuple"
            },
            {
              "internalType": "address",
              "name": "owner",
              "type": "address"
            }
          ],
          "internalType": "struct Ship",
          "name": "",
          "type": "tuple"
        }
      ],
      "stateMutability": "view",
      "type": "function"
    },
    {
      "inputs": [
        {
          "internalType": "address",
          "name": "_owner",
          "type": "address"
        }
      ],
      "name": "getShipIdsOwned",
      "outputs": [
        {
          "internalType": "uint256[]",
          "name": "",
          "type": "uint256[]"
        }
      ],
      "stateMutability": "view",
      "type": "function"
    },
    {
      "inputs": [
        {
          "internalType": "uint256[]",
          "name": "_ids",
          "type": "uint256[]"
        }
      ],
      "name": "getShipsByIds",
      "outputs": [
        {
          "components": [
            {
              "internalType": "string",
              "name": "name",
              "type": "string"
            },
            {
              "internalType": "uint256",
              "name": "id",
              "type": "uint256"
            },
            {
              "components": [
                {
                  "internalType": "enum MainWeapon",
                  "name": "mainWeapon",
                  "type": "uint8"
                },
                {
                  "internalType": "enum Armor",
                  "name": "armor",
                  "type": "uint8"
                },
                {
                  "internalType": "enum Shields",
                  "name": "shields",
                  "type": "uint8"
                },
                {
                  "internalType": "enum Special",
                  "name": "special",
                  "type": "uint8"
                }
              ],
              "internalType": "struct Equipment",
              "name": "equipment",
              "type": "tuple"
            },
            {
              "components": [
                {
                  "internalType": "uint256",
                  "name": "serialNumber",
                  "type": "uint256"
                },
                {
                  "components": [
                    {
                      "internalType": "uint16",
                      "name": "h1",
                      "type": "uint16"
                    },
                    {
                      "internalType": "uint8",
                      "name": "s1",
                      "type": "uint8"
                    },
                    {
                      "internalType": "uint8",
                      "name": "l1",
                      "type": "uint8"
                    },
                    {
                      "internalType": "uint16",
                      "name": "h2",
                      "type": "uint16"
                    },
                    {
                      "internalType": "uint8",
                      "name": "s2",
                      "type": "uint8"
                    },
                    {
                      "internalType": "uint8",
                      "name": "l2",
                      "type": "uint8"
                    }
                  ],
                  "internalType": "struct Colors",
                  "name": "colors",
                  "type": "tuple"
                },
                {
                  "internalType": "uint8",
                  "name": "variant",
                  "type": "uint8"
                },
                {
                  "internalType": "uint8",
                  "name": "accuracy",
                  "type": "uint8"
                },
                {
                  "internalType": "uint8",
                  "name": "hull",
                  "type": "uint8"
                },
                {
                  "internalType": "uint8",
                  "name": "speed",
                  "type": "uint8"
                }
              ],
              "internalType": "struct Traits",
              "name": "traits",
              "type": "tuple"
            },
            {
              "components": [
                {
                  "internalType": "uint32",
                  "name": "shipsDestroyed",
                  "type": "uint32"
                },
                {
                  "internalType": "uint16",
                  "name": "costsVersion",
                  "type": "uint16"
                },
                {
                  "internalType": "uint16",
                  "name": "cost",
                  "type": "uint16"
                },
                {
                  "internalType": "bool",
                  "name": "shiny",
                  "type": "bool"
                },
                {
                  "internalType": "bool",
                  "name": "constructed",
                  "type": "bool"
                },
                {
                  "internalType": "bool",
                  "name": "inFleet",
                  "type": "bool"
                },
                {
                  "internalType": "uint256",
                  "name": "timestampDestroyed",
                  "type": "uint256"
                }
              ],
              "internalType": "struct ShipData",
              "name": "shipData",
              "type": "tuple"
            },
            {
              "internalType": "address",
              "name": "owner",
              "type": "address"
            }
          ],
          "internalType": "struct Ship[]",
          "name": "",
          "type": "tuple[]"
        }
      ],
      "stateMutability": "view",
      "type": "function"
    },
    {
      "inputs": [
        {
          "internalType": "uint256",
          "name": "_trait",
          "type": "uint256"
        }
      ],
      "name": "getTierOfTrait",
      "outputs": [
        {
          "internalType": "uint8",
          "name": "",
          "type": "uint8"
        }
      ],
      "stateMutability": "pure",
      "type": "function"
    },
    {
      "inputs": [
        {
          "internalType": "address",
          "name": "",
          "type": "address"
        }
      ],
      "name": "isAllowedToCreateShips",
      "outputs": [
        {
          "internalType": "bool",
          "name": "",
          "type": "bool"
        }
      ],
      "stateMutability": "view",
      "type": "function"
    },
    {
      "inputs": [
        {
          "internalType": "address",
          "name": "owner",
          "type": "address"
        },
        {
          "internalType": "address",
          "name": "operator",
          "type": "address"
        }
      ],
      "name": "isApprovedForAll",
      "outputs": [
        {
          "internalType": "bool",
          "name": "",
          "type": "bool"
        }
      ],
      "stateMutability": "view",
      "type": "function"
    },
    {
      "inputs": [
        {
          "internalType": "uint256",
          "name": "_id",
          "type": "uint256"
        }
      ],
      "name": "isShipDestroyed",
      "outputs": [
        {
          "internalType": "bool",
          "name": "",
          "type": "bool"
        }
      ],
      "stateMutability": "view",
      "type": "function"
    },
    {
      "inputs": [],
      "name": "name",
      "outputs": [
        {
          "internalType": "string",
          "name": "",
          "type": "string"
        }
      ],
      "stateMutability": "view",
      "type": "function"
    },
    {
      "inputs": [
        {
          "internalType": "address",
          "name": "",
          "type": "address"
        }
      ],
      "name": "onboardingStep",
      "outputs": [
        {
          "internalType": "uint256",
          "name": "",
          "type": "uint256"
        }
      ],
      "stateMutability": "view",
      "type": "function"
    },
    {
      "inputs": [],
      "name": "owner",
      "outputs": [
        {
          "internalType": "address",
          "name": "",
          "type": "address"
        }
      ],
      "stateMutability": "view",
      "type": "function"
    },
    {
      "inputs": [
        {
          "internalType": "uint256",
          "name": "tokenId",
          "type": "uint256"
        }
      ],
      "name": "ownerOf",
      "outputs": [
        {
          "internalType": "address",
          "name": "",
          "type": "address"
        }
      ],
      "stateMutability": "view",
      "type": "function"
    },
    {
      "inputs": [],
      "name": "paused",
      "outputs": [
        {
          "internalType": "bool",
          "name": "",
          "type": "bool"
        }
      ],
      "stateMutability": "view",
      "type": "function"
    },
    {
      "inputs": [
        {
          "internalType": "uint256",
          "name": "",
          "type": "uint256"
        }
      ],
      "name": "purchaseTiers",
      "outputs": [
        {
          "internalType": "uint8",
          "name": "",
          "type": "uint8"
        }
      ],
      "stateMutability": "view",
      "type": "function"
    },
    {
      "inputs": [
        {
          "internalType": "address",
          "name": "_to",
          "type": "address"
        },
        {
          "internalType": "uint256",
          "name": "_tier",
          "type": "uint256"
        },
        {
          "internalType": "address",
          "name": "_referral",
          "type": "address"
        }
      ],
      "name": "purchaseWithFlow",
      "outputs": [],
      "stateMutability": "payable",
      "type": "function"
    },
    {
      "inputs": [],
      "name": "recycleReward",
      "outputs": [
        {
          "internalType": "uint256",
          "name": "",
          "type": "uint256"
        }
      ],
      "stateMutability": "view",
      "type": "function"
    },
    {
      "inputs": [
        {
          "internalType": "address",
          "name": "",
          "type": "address"
        }
      ],
      "name": "referralCount",
      "outputs": [
        {
          "internalType": "uint256",
          "name": "",
          "type": "uint256"
        }
      ],
      "stateMutability": "view",
      "type": "function"
    },
    {
      "inputs": [
        {
          "internalType": "uint256",
          "name": "",
          "type": "uint256"
        }
      ],
      "name": "referralPercentages",
      "outputs": [
        {
          "internalType": "uint8",
          "name": "",
          "type": "uint8"
        }
      ],
      "stateMutability": "view",
      "type": "function"
    },
    {
      "inputs": [
        {
          "internalType": "uint256",
          "name": "",
          "type": "uint256"
        }
      ],
      "name": "referralStages",
      "outputs": [
        {
          "internalType": "uint32",
          "name": "",
          "type": "uint32"
        }
      ],
      "stateMutability": "view",
      "type": "function"
    },
    {
      "inputs": [],
      "name": "renounceOwnership",
      "outputs": [],
      "stateMutability": "nonpayable",
      "type": "function"
    },
    {
      "inputs": [
        {
          "internalType": "address",
          "name": "from",
          "type": "address"
        },
        {
          "internalType": "address",
          "name": "to",
          "type": "address"
        },
        {
          "internalType": "uint256",
          "name": "tokenId",
          "type": "uint256"
        }
      ],
      "name": "safeTransferFrom",
      "outputs": [],
      "stateMutability": "nonpayable",
      "type": "function"
    },
    {
      "inputs": [
        {
          "internalType": "address",
          "name": "from",
          "type": "address"
        },
        {
          "internalType": "address",
          "name": "to",
          "type": "address"
        },
        {
          "internalType": "uint256",
          "name": "tokenId",
          "type": "uint256"
        },
        {
          "internalType": "bytes",
          "name": "data",
          "type": "bytes"
        }
      ],
      "name": "safeTransferFrom",
      "outputs": [],
      "stateMutability": "nonpayable",
      "type": "function"
    },
    {
      "inputs": [
        {
          "internalType": "address",
          "name": "operator",
          "type": "address"
        },
        {
          "internalType": "bool",
          "name": "approved",
          "type": "bool"
        }
      ],
      "name": "setApprovalForAll",
      "outputs": [],
      "stateMutability": "nonpayable",
      "type": "function"
    },
    {
      "inputs": [
        {
          "internalType": "address",
          "name": "_gameAddress",
          "type": "address"
        },
        {
          "internalType": "address",
          "name": "_lobbyAddress",
          "type": "address"
        },
        {
          "internalType": "address",
          "name": "_fleetsAddress",
          "type": "address"
        },
        {
          "internalType": "address",
          "name": "_shipGenerator",
          "type": "address"
        },
        {
          "internalType": "address",
          "name": "_randomManager",
          "type": "address"
        },
        {
          "internalType": "address",
          "name": "_metadataRenderer",
          "type": "address"
        }
      ],
      "name": "setConfig",
      "outputs": [],
      "stateMutability": "nonpayable",
      "type": "function"
    },
    {
      "inputs": [
        {
          "internalType": "uint256",
          "name": "_id",
          "type": "uint256"
        }
      ],
      "name": "setCostOfShip",
      "outputs": [],
      "stateMutability": "nonpayable",
      "type": "function"
    },
    {
      "inputs": [
        {
          "components": [
            {
              "internalType": "uint16",
              "name": "version",
              "type": "uint16"
            },
            {
              "internalType": "uint8",
              "name": "baseCost",
              "type": "uint8"
            },
            {
              "internalType": "uint8[]",
              "name": "accuracy",
              "type": "uint8[]"
            },
            {
              "internalType": "uint8[]",
              "name": "hull",
              "type": "uint8[]"
            },
            {
              "internalType": "uint8[]",
              "name": "speed",
              "type": "uint8[]"
            },
            {
              "internalType": "uint8[]",
              "name": "mainWeapon",
              "type": "uint8[]"
            },
            {
              "internalType": "uint8[]",
              "name": "armor",
              "type": "uint8[]"
            },
            {
              "internalType": "uint8[]",
              "name": "shields",
              "type": "uint8[]"
            },
            {
              "internalType": "uint8[]",
              "name": "special",
              "type": "uint8[]"
            }
          ],
          "internalType": "struct Costs",
          "name": "_costs",
          "type": "tuple"
        }
      ],
      "name": "setCosts",
      "outputs": [],
      "stateMutability": "nonpayable",
      "type": "function"
    },
    {
      "inputs": [
        {
          "internalType": "uint256",
          "name": "_id",
          "type": "uint256"
        },
        {
          "internalType": "bool",
          "name": "_inFleet",
          "type": "bool"
        }
      ],
      "name": "setInFleet",
      "outputs": [],
      "stateMutability": "nonpayable",
      "type": "function"
    },
    {
      "inputs": [
        {
          "internalType": "address",
          "name": "_address",
          "type": "address"
        },
        {
          "internalType": "bool",
          "name": "_isAllowed",
          "type": "bool"
        }
      ],
      "name": "setIsAllowedToCreateShips",
      "outputs": [],
      "stateMutability": "nonpayable",
      "type": "function"
    },
    {
      "inputs": [
        {
          "internalType": "uint8",
          "name": "_numberOfVariants",
          "type": "uint8"
        }
      ],
      "name": "setNumberOfVariants",
      "outputs": [],
      "stateMutability": "nonpayable",
      "type": "function"
    },
    {
      "inputs": [
        {
          "internalType": "bool",
          "name": "_paused",
          "type": "bool"
        }
      ],
      "name": "setPaused",
      "outputs": [],
      "stateMutability": "nonpayable",
      "type": "function"
    },
    {
      "inputs": [
        {
          "internalType": "uint8[]",
          "name": "_purchaseTiers",
          "type": "uint8[]"
        },
        {
          "internalType": "uint8[]",
          "name": "_tierShips",
          "type": "uint8[]"
        },
        {
          "internalType": "uint256[]",
          "name": "_tierPrices",
          "type": "uint256[]"
        }
      ],
      "name": "setPurchaseInfo",
      "outputs": [],
      "stateMutability": "nonpayable",
      "type": "function"
    },
    {
      "inputs": [
        {
          "internalType": "uint256",
          "name": "_newReward",
          "type": "uint256"
        }
      ],
      "name": "setRecycleReward",
      "outputs": [],
      "stateMutability": "nonpayable",
      "type": "function"
    },
    {
      "inputs": [
        {
          "internalType": "uint256",
          "name": "_id",
          "type": "uint256"
        },
        {
          "internalType": "uint256",
          "name": "_destroyerId",
          "type": "uint256"
        }
      ],
      "name": "setTimestampDestroyed",
      "outputs": [],
      "stateMutability": "nonpayable",
      "type": "function"
    },
    {
      "inputs": [
        {
          "internalType": "address",
          "name": "_universalCredits",
          "type": "address"
        }
      ],
      "name": "setUniversalCredits",
      "outputs": [],
      "stateMutability": "nonpayable",
      "type": "function"
    },
    {
      "inputs": [
        {
          "internalType": "uint256[]",
          "name": "_shipIds",
          "type": "uint256[]"
        }
      ],
      "name": "shipBreaker",
      "outputs": [],
      "stateMutability": "nonpayable",
      "type": "function"
    },
    {
      "inputs": [],
      "name": "shipCount",
      "outputs": [
        {
          "internalType": "uint256",
          "name": "",
          "type": "uint256"
        }
      ],
      "stateMutability": "view",
      "type": "function"
    },
    {
      "inputs": [
        {
          "internalType": "uint256",
          "name": "",
          "type": "uint256"
        }
      ],
      "name": "ships",
      "outputs": [
        {
          "internalType": "string",
          "name": "name",
          "type": "string"
        },
        {
          "internalType": "uint256",
          "name": "id",
          "type": "uint256"
        },
        {
          "components": [
            {
              "internalType": "enum MainWeapon",
              "name": "mainWeapon",
              "type": "uint8"
            },
            {
              "internalType": "enum Armor",
              "name": "armor",
              "type": "uint8"
            },
            {
              "internalType": "enum Shields",
              "name": "shields",
              "type": "uint8"
            },
            {
              "internalType": "enum Special",
              "name": "special",
              "type": "uint8"
            }
          ],
          "internalType": "struct Equipment",
          "name": "equipment",
          "type": "tuple"
        },
        {
          "components": [
            {
              "internalType": "uint256",
              "name": "serialNumber",
              "type": "uint256"
            },
            {
              "components": [
                {
                  "internalType": "uint16",
                  "name": "h1",
                  "type": "uint16"
                },
                {
                  "internalType": "uint8",
                  "name": "s1",
                  "type": "uint8"
                },
                {
                  "internalType": "uint8",
                  "name": "l1",
                  "type": "uint8"
                },
                {
                  "internalType": "uint16",
                  "name": "h2",
                  "type": "uint16"
                },
                {
                  "internalType": "uint8",
                  "name": "s2",
                  "type": "uint8"
                },
                {
                  "internalType": "uint8",
                  "name": "l2",
                  "type": "uint8"
                }
              ],
              "internalType": "struct Colors",
              "name": "colors",
              "type": "tuple"
            },
            {
              "internalType": "uint8",
              "name": "variant",
              "type": "uint8"
            },
            {
              "internalType": "uint8",
              "name": "accuracy",
              "type": "uint8"
            },
            {
              "internalType": "uint8",
              "name": "hull",
              "type": "uint8"
            },
            {
              "internalType": "uint8",
              "name": "speed",
              "type": "uint8"
            }
          ],
          "internalType": "struct Traits",
          "name": "traits",
          "type": "tuple"
        },
        {
          "components": [
            {
              "internalType": "uint32",
              "name": "shipsDestroyed",
              "type": "uint32"
            },
            {
              "internalType": "uint16",
              "name": "costsVersion",
              "type": "uint16"
            },
            {
              "internalType": "uint16",
              "name": "cost",
              "type": "uint16"
            },
            {
              "internalType": "bool",
              "name": "shiny",
              "type": "bool"
            },
            {
              "internalType": "bool",
              "name": "constructed",
              "type": "bool"
            },
            {
              "internalType": "bool",
              "name": "inFleet",
              "type": "bool"
            },
            {
              "internalType": "uint256",
              "name": "timestampDestroyed",
              "type": "uint256"
            }
          ],
          "internalType": "struct ShipData",
          "name": "shipData",
          "type": "tuple"
        },
        {
          "internalType": "address",
          "name": "owner",
          "type": "address"
        }
      ],
      "stateMutability": "view",
      "type": "function"
    },
    {
      "inputs": [
        {
          "internalType": "bytes4",
          "name": "interfaceId",
          "type": "bytes4"
        }
      ],
      "name": "supportsInterface",
      "outputs": [
        {
          "internalType": "bool",
          "name": "",
          "type": "bool"
        }
      ],
      "stateMutability": "view",
      "type": "function"
    },
    {
      "inputs": [],
      "name": "symbol",
      "outputs": [
        {
          "internalType": "string",
          "name": "",
          "type": "string"
        }
      ],
      "stateMutability": "view",
      "type": "function"
    },
    {
      "inputs": [
        {
          "internalType": "uint256",
          "name": "",
          "type": "uint256"
        }
      ],
      "name": "tierPrices",
      "outputs": [
        {
          "internalType": "uint256",
          "name": "",
          "type": "uint256"
        }
      ],
      "stateMutability": "view",
      "type": "function"
    },
    {
      "inputs": [
        {
          "internalType": "uint256",
          "name": "",
          "type": "uint256"
        }
      ],
      "name": "tierShips",
      "outputs": [
        {
          "internalType": "uint8",
          "name": "",
          "type": "uint8"
        }
      ],
      "stateMutability": "view",
      "type": "function"
    },
    {
      "inputs": [
        {
          "internalType": "uint256",
          "name": "_id",
          "type": "uint256"
        }
      ],
      "name": "tokenURI",
      "outputs": [
        {
          "internalType": "string",
          "name": "",
          "type": "string"
        }
      ],
      "stateMutability": "view",
      "type": "function"
    },
    {
      "inputs": [
        {
          "internalType": "address",
          "name": "from",
          "type": "address"
        },
        {
          "internalType": "address",
          "name": "to",
          "type": "address"
        },
        {
          "internalType": "uint256",
          "name": "tokenId",
          "type": "uint256"
        }
      ],
      "name": "transferFrom",
      "outputs": [],
      "stateMutability": "nonpayable",
      "type": "function"
    },
    {
      "inputs": [
        {
          "internalType": "address",
          "name": "newOwner",
          "type": "address"
        }
      ],
      "name": "transferOwnership",
      "outputs": [],
      "stateMutability": "nonpayable",
      "type": "function"
    },
    {
      "inputs": [],
      "name": "universalCredits",
      "outputs": [
        {
          "internalType": "contract IUniversalCredits",
          "name": "",
          "type": "address"
        }
      ],
      "stateMutability": "view",
      "type": "function"
    },
    {
      "inputs": [],
      "name": "withdraw",
      "outputs": [],
      "stateMutability": "nonpayable",
      "type": "function"
    }
  ],
  "bytecode": "0x61012060405260006080908152600a60a052601460c052602360e05260326101005261002f90600e90600561040a565b506040805160a081018252606481526103e860208201526127109181019190915261c3506060820152620186a0608082015261006f90600f9060056104b0565b506022805462ffff00191661010017905567016345785d8a000060255534801561009857600080fd5b506040516161b63803806161b68339810160408190526100b7916105a7565b336040518060400160405280600e81526020016d57617270666c6f7720536869707360901b815250604051806040016040528060048152602001630534849560e41b815250816000908161010b9190610676565b5060016101188282610676565b5050506001600160a01b03811661014957604051631e4fbdf760e01b81526000600482015260240160405180910390fd5b610152816103b8565b506001600755601380546001600160a01b0319166001600160a01b0383161790556019805462ffffff1916623200011781556040805160608101825260008152600a6020820152908101919091526101ae90601a90600361040a565b506040805160608101825260008152600a60208201526019918101919091526101db90601b90600361040a565b506040805160608101825260008152600a602082015260199181019190915261020890601c90600361040a565b506040805160808101825260198152601e60208201526028918101829052606081019190915261023c90601d90600461040a565b50604080516080810182526000815260056020820152600a91810191909152600f606082015261027090601e90600461040a565b506040805160808101825260008152600a6020820152601491810191909152601e60608201526102a490601f90600461040a565b506040805160808101825260008152600a602080830191909152601492820192909252600f60608201526102da9190600461040a565b506040805160a0810182526001815260026020820152600391810191909152600460608201526005608082018190526103159160169161040a565b506040805160a0810182526005808252600b6020830152601c92820192909252603c6060820152607d6080820152610350916017919061040a565b506040805160a0810182526745400a8fd53300008152678aa39c121a270000602082015268015ace5098e9030000918101919091526802b5c0282441c70000606082015268056ba3d73af34f000060808201526103b190601890600561054c565b5050610734565b600680546001600160a01b038381166001600160a01b0319831681179093556040519116919082907f8be0079c531659141344cd1fd0a4f28419497f9722a3daafe3b4186f6b6457e090600090a35050565b82805482825590600052602060002090601f016020900481019282156104a05791602002820160005b8382111561047157835183826101000a81548160ff021916908360ff1602179055509260200192600101602081600001049283019260010302610433565b801561049e5782816101000a81549060ff0219169055600101602081600001049283019260010302610471565b505b506104ac929150610592565b5090565b828054828255906000526020600020906007016008900481019282156104a05791602002820160005b8382111561051c57835183826101000a81548163ffffffff021916908362ffffff16021790555092602001926004016020816003010492830192600103026104d9565b801561049e5782816101000a81549063ffffffff021916905560040160208160030104928301926001030261051c565b8280548282559060005260206000209081019282156104a0579160200282015b828111156104a057825182906001600160481b031690559160200191906001019061056c565b5b808211156104ac5760008155600101610593565b6000602082840312156105b957600080fd5b81516001600160a01b03811681146105d057600080fd5b9392505050565b634e487b7160e01b600052604160045260246000fd5b600181811c9082168061060157607f821691505b60208210810361062157634e487b7160e01b600052602260045260246000fd5b50919050565b601f82111561067157806000526020600020601f840160051c8101602085101561064e5750805b601f840160051c820191505b8181101561066e576000815560010161065a565b50505b505050565b81516001600160401b0381111561068f5761068f6105d7565b6106a38161069d84546105ed565b84610627565b6020601f8211600181146106d757600083156106bf5750848201515b600019600385901b1c1916600184901b17845561066e565b600084815260208120601f198516915b8281101561070757878501518255602094850194600190920191016106e7565b50848210156107255786840151600019600387901b60f8161c191681555b50505050600190811b01905550565b615a73806107436000396000f3fe6080604052600436106103975760003560e01c806370a08231116101dc578063a22cb46511610102578063d08acd93116100a0578063e985e9c51161006f578063e985e9c514610ba8578063f25a034214610bc8578063f2fde38b14610bf5578063f9fd0db814610c1557600080fd5b8063d08acd9314610b25578063db74559b14610b3b578063dd81d5bf14610b68578063e653ca7f14610b8857600080fd5b8063b88d4fde116100dc578063b88d4fde14610a80578063c51544c514610aa0578063c87b56dd14610ad0578063cfca9a7f14610af057600080fd5b8063a22cb46514610a2a578063b4e847a014610a4a578063b662abf514610a6057600080fd5b8063812df3951161017a5780638f270c2d116101495780638f270c2d146109a357806395960101146109c357806395d89b41146109f5578063977216c214610a0a57600080fd5b8063812df395146109305780638163997c146109505780638c79d7e3146109655780638da5cb5b1461098557600080fd5b8063776d62f6116101b6578063776d62f61461082d57806379502c551461086f5780637d9e9d30146108f05780637eebe99d1461091057600080fd5b806370a08231146107c8578063715018a6146107e857806375bfe420146107fd57600080fd5b80633ccfd60b116102c15780634d4e8dfa1161025f578063612124311161022e57806361212431146107525780636352211e14610772578063643e7afd146107925780636e0f7a48146107a857600080fd5b80634d4e8dfa146106ac57806356a3ee77146106de57806359e651e01461070b5780635c975abb1461073857600080fd5b806342842e0e1161029b57806342842e0e146106285780634346b15014610648578063446c00f71461066857806348cfc19e1461068857600080fd5b80633ccfd60b146105b45780633f0bc9a5146105c95780634025b22d146105fb57600080fd5b806311aaa5c9116103395780631d727ba5116103085780631d727ba51461052357806323b872dd14610543578063300eccab146105635780633130f7ce1461059157600080fd5b806311aaa5c9146104b057806311bf541f146104c357806316c38b3c146104e3578063172259411461050357600080fd5b806306fdde031161037557806306fdde0314610416578063081812fc14610438578063095ea7b31461047057806311a960cd1461049057600080fd5b806301ffc9a71461039c57806303075018146103d1578063053f5bbf146103f4575b600080fd5b3480156103a857600080fd5b506103bc6103b736600461416f565b610c35565b60405190151581526020015b60405180910390f35b3480156103dd57600080fd5b506103e6610c87565b6040516103c89291906141cb565b34801561040057600080fd5b5061041461040f3660046144bf565b61104c565b005b34801561042257600080fd5b5061042b6110c6565b6040516103c891906145a0565b34801561044457600080fd5b506104586104533660046145b3565b611158565b6040516001600160a01b0390911681526020016103c8565b34801561047c57600080fd5b5061041461048b3660046145ec565b611181565b34801561049c57600080fd5b506104146104ab366004614618565b611190565b6104146104be36600461463a565b611267565b3480156104cf57600080fd5b506104146104de36600461467c565b611386565b3480156104ef57600080fd5b506104146104fe3660046146b2565b6113aa565b34801561050f57600080fd5b50602454610458906001600160a01b031681565b34801561052f57600080fd5b5061041461053e3660046146ea565b6113c5565b34801561054f57600080fd5b5061041461055e366004614880565b6114cc565b34801561056f57600080fd5b5061058361057e3660046145b3565b611551565b6040519081526020016103c8565b34801561059d57600080fd5b5060195460405161ffff90911681526020016103c8565b3480156105c057600080fd5b50610414611572565b3480156105d557600080fd5b506105e96105e43660046145b3565b611625565b60405160ff90911681526020016103c8565b34801561060757600080fd5b5061061b6106163660046145b3565b611659565b6040516103c89190614ab4565b34801561063457600080fd5b50610414610643366004614880565b611938565b34801561065457600080fd5b50610414610663366004614ac7565b611953565b34801561067457600080fd5b506104146106833660046145b3565b611a71565b34801561069457600080fd5b5061069d611ac0565b6040516103c893929190614b6e565b3480156106b857600080fd5b506106cc6106c73660046145b3565b611c08565b6040516103c896959493929190614ba7565b3480156106ea57600080fd5b506105836106f9366004614c09565b600c6020526000908152604090205481565b34801561071757600080fd5b5061072b610726366004614c09565b611ebd565b6040516103c89190614c26565b34801561074457600080fd5b506022546103bc9060ff1681565b34801561075e57600080fd5b506105e961076d3660046145b3565b611ee1565b34801561077e57600080fd5b5061045861078d3660046145b3565b611ef1565b34801561079e57600080fd5b5061058360215481565b3480156107b457600080fd5b506105e96107c33660046145b3565b611efc565b3480156107d457600080fd5b506105836107e3366004614c09565b611f2d565b3480156107f457600080fd5b50610414611f75565b34801561080957600080fd5b506103bc610818366004614c09565b60236020526000908152604090205460ff1681565b34801561083957600080fd5b506019546108539061ffff81169062010000900460ff1682565b6040805161ffff909316835260ff9091166020830152016103c8565b34801561087b57600080fd5b506010546011546012546013546014546015546108ae956001600160a01b03908116958116948116938116928116911686565b604080516001600160a01b03978816815295871660208701529386169385019390935290841660608401528316608083015290911660a082015260c0016103c8565b3480156108fc57600080fd5b5061041461090b366004614c39565b611f89565b34801561091c57600080fd5b5061041461092b366004614c6d565b611fbf565b34801561093c57600080fd5b5061041461094b366004614c9d565b61204a565b34801561095c57600080fd5b5061041461215c565b34801561097157600080fd5b50610414610980366004614d1f565b6121e3565b34801561099157600080fd5b506006546001600160a01b0316610458565b3480156109af57600080fd5b506104146109be366004614c09565b612216565b3480156109cf57600080fd5b506103bc6109de3660046145b3565b600090815260086020526040902060070154151590565b348015610a0157600080fd5b5061042b612240565b348015610a1657600080fd5b50610414610a253660046145b3565b61224f565b348015610a3657600080fd5b50610414610a45366004614d1f565b61225c565b348015610a5657600080fd5b5061058360095481565b348015610a6c57600080fd5b506105e9610a7b3660046145b3565b612267565b348015610a8c57600080fd5b50610414610a9b366004614dad565b612277565b348015610aac57600080fd5b506103bc610abb366004614c09565b600b6020526000908152604090205460ff1681565b348015610adc57600080fd5b5061042b610aeb3660046145b3565b61228f565b348015610afc57600080fd5b50610b10610b0b3660046145b3565b612313565b60405163ffffffff90911681526020016103c8565b348015610b3157600080fd5b5061058360255481565b348015610b4757600080fd5b50610583610b56366004614c09565b600d6020526000908152604090205481565b348015610b7457600080fd5b50610414610b833660046145b3565b61234d565b348015610b9457600080fd5b50610414610ba33660046145ec565b6127ce565b348015610bb457600080fd5b506103bc610bc3366004614e2c565b612842565b348015610bd457600080fd5b50610be8610be3366004614c39565b612870565b6040516103c89190614e5a565b348015610c0157600080fd5b50610414610c10366004614c09565b612bf3565b348015610c2157600080fd5b50610414610c303660046150da565b612c2e565b60006001600160e01b031982166380ac58cd60e01b1480610c6657506001600160e01b03198216635b5e139f60e01b145b80610c8157506301ffc9a760e01b6001600160e01b03198316145b92915050565b6000610cdf604051806101200160405280600061ffff168152602001600060ff168152602001606081526020016060815260200160608152602001606081526020016060815260200160608152602001606081525090565b60215460408051610120810182526019805461ffff8116835262010000900460ff16602080840191909152601a80548551818402810184018752818152939586949086019390929190830182828015610d7557602002820191906000526020600020906000905b825461010083900a900460ff16815260206001928301818104948501949093039092029101808411610d465790505b5050505050815260200160028201805480602002602001604051908101604052809291908181526020018280548015610deb57602002820191906000526020600020906000905b825461010083900a900460ff16815260206001928301818104948501949093039092029101808411610dbc5790505b5050505050815260200160038201805480602002602001604051908101604052809291908181526020018280548015610e6157602002820191906000526020600020906000905b825461010083900a900460ff16815260206001928301818104948501949093039092029101808411610e325790505b5050505050815260200160048201805480602002602001604051908101604052809291908181526020018280548015610ed757602002820191906000526020600020906000905b825461010083900a900460ff16815260206001928301818104948501949093039092029101808411610ea85790505b5050505050815260200160058201805480602002602001604051908101604052809291908181526020018280548015610f4d57602002820191906000526020600020906000905b825461010083900a900460ff16815260206001928301818104948501949093039092029101808411610f1e5790505b5050505050815260200160068201805480602002602001604051908101604052809291908181526020018280548015610fc357602002820191906000526020600020906000905b825461010083900a900460ff16815260206001928301818104948501949093039092029101808411610f945790505b505050505081526020016007820180548060200260200160405190810160405280929190818152602001828054801561103957602002820191906000526020600020906000905b825461010083900a900460ff1681526020600192830181810494850194909303909202910180841161100a5790505b5050505050815250509050915091509091565b611054613012565b8151835114158061106757508051825114155b156110855760405163512509d360e11b815260040160405180910390fd5b8251611098906016906020860190613f6c565b5081516110ac906017906020850190613f6c565b5080516110c0906018906020840190614012565b50505050565b6060600080546110d5906151bd565b80601f0160208091040260200160405190810160405280929190818152602001828054611101906151bd565b801561114e5780601f106111235761010080835404028352916020019161114e565b820191906000526020600020905b81548152906001019060200180831161113157829003601f168201915b5050505050905090565b60006111638261303f565b506000828152600460205260409020546001600160a01b0316610c81565b61118c828233613078565b5050565b6006546001600160a01b031633148015906111b657506010546001600160a01b03163314155b156111db57604051634a0bfec160e01b81523360048201526024015b60405180910390fd5b600082815260086020526040808220426007909101558282528120600601805463ffffffff169161120b8361520d565b91906101000a81548163ffffffff021916908363ffffffff160217905550507ff8e1a15aba9398e019f0b49df1a4fde98ee17ae345cb5f6b5e2c27f5033e8ce78260405161125b91815260200190565b60405180910390a15050565b61126f613085565b6018828154811061128257611282615232565b906000526020600020015434146112b5576040516312a1605d60e31b8152600481018390523460248201526044016111d2565b6001600160a01b0381166112dc5760405163119833d760e11b815260040160405180910390fd5b6000601783815481106112f1576112f1615232565b60009182526020808320908204015460ff601f9092166101000a90041691505b8181101561132a57611322856130af565b600101611311565b5061135382826018868154811061134357611343615232565b90600052602060002001546131a6565b506001600160a01b0383166000908152600b60205260409020805460ff191660011790556113816001600755565b505050565b61138e613012565b6022805462ffff00191660ff9290921661010002919091179055565b6113b2613012565b6022805460ff1916911515919091179055565b6113cd613012565b602180549060006113dd83615248565b909155505080516019805460208085015160ff16620100000262ffffff1990921661ffff9094169390931717815560408301518051849361142392601a92910190613f6c565b506060820151805161143f916002840191602090910190613f6c565b506080820151805161145b916003840191602090910190613f6c565b5060a08201518051611477916004840191602090910190613f6c565b5060c08201518051611493916005840191602090910190613f6c565b5060e082015180516114af916006840191602090910190613f6c565b5061010082015180516110c0916007840191602090910190613f6c565b6001600160a01b0382166114f657604051633250574960e11b8152600060048201526024016111d2565b6000611503838333613352565b9050836001600160a01b0316816001600160a01b0316146110c0576040516364283d7b60e01b81526001600160a01b03808616600483015260248201849052821660448201526064016111d2565b6018818154811061156157600080fd5b600091825260209091200154905081565b61157a613012565b600061158e6006546001600160a01b031690565b6001600160a01b03164760405160006040518083038185875af1925050503d80600081146115d8576040519150601f19603f3d011682016040523d82523d6000602084013e6115dd565b606091505b50509050806116225760405162461bcd60e51b815260206004820152601160248201527015da5d1a191c985dd85b0819985a5b1959607a1b60448201526064016111d2565b50565b6016818154811061163557600080fd5b9060005260206000209060209182820401919006915054906101000a900460ff1681565b61166161404d565b60008281526008602052604090819020815160c08101909252805482908290611689906151bd565b80601f01602080910402602001604051908101604052809291908181526020018280546116b5906151bd565b80156117025780601f106116d757610100808354040283529160200191611702565b820191906000526020600020905b8154815290600101906020018083116116e557829003601f168201915b5050509183525050600182015460208201526040805160808101825260028401805492909301929091829060ff166003811115611741576117416148c1565b6003811115611752576117526148c1565b81528154602090910190610100900460ff166003811115611775576117756148c1565b6003811115611786576117866148c1565b8152815460209091019062010000900460ff1660038111156117aa576117aa6148c1565b60038111156117bb576117bb6148c1565b815281546020909101906301000000900460ff1660038111156117e0576117e06148c1565b60038111156117f1576117f16148c1565b90525081526040805160c080820183526003850154825282518082018452600486015461ffff808216835260ff62010000808404821660208681019190915263010000008086048416878b015264010000000080870486166060808a0191909152600160301b80890487166080808c0191909152600160381b909904871660a0808c01919091528c86019a909a5260058f01548088168d8f015261010081048816838e01529586048716898d0152929094048516888b0152828c0199909952895160e081018b5260068d015463ffffffff81168252998a04861692810192909252880490931683890152600160401b87048216151583820152600160481b87048216151593830193909352600160501b909504909416151591840191909152600786015491830191909152918301526008909201546001600160a01b031691015292915050565b61138183838360405180602001604052806000815250612277565b61195b613085565b6000805b828110156119fc57600084848381811061197b5761197b615232565b6020908102929092013560008181526008938490526040902090920154919250506001600160a01b031633146119c65760405162dd34af60e41b8152600481018290526024016111d2565b6000818152600860205260409020426007909101556119e481613546565b6025546119f19084615261565b92505060010161195f565b508015611a6657602480546040516340c10f1960e01b81523360048201529182018390526001600160a01b0316906340c10f1990604401600060405180830381600087803b158015611a4d57600080fd5b505af1158015611a61573d6000803e3d6000fd5b505050505b5061118c6001600755565b6006546001600160a01b03163314801590611a9757506010546001600160a01b03163314155b15611ab757604051634a0bfec160e01b81523360048201526024016111d2565b61162281613581565b606080606060166017601882805480602002602001604051908101604052809291908181526020018280548015611b3457602002820191906000526020600020906000905b825461010083900a900460ff16815260206001928301818104948501949093039092029101808411611b055790505b5050505050925081805480602002602001604051908101604052809291908181526020018280548015611ba457602002820191906000526020600020906000905b825461010083900a900460ff16815260206001928301818104948501949093039092029101808411611b755790505b5050505050915080805480602002602001604051908101604052809291908181526020018280548015611bf657602002820191906000526020600020905b815481526020019060010190808311611be2575b50505050509050925092509250909192565b600860205260009081526040902080548190611c23906151bd565b80601f0160208091040260200160405190810160405280929190818152602001828054611c4f906151bd565b8015611c9c5780601f10611c7157610100808354040283529160200191611c9c565b820191906000526020600020905b815481529060010190602001808311611c7f57829003601f168201915b505050505090806001015490806002016040518060800160405290816000820160009054906101000a900460ff166003811115611cdb57611cdb6148c1565b6003811115611cec57611cec6148c1565b81528154602090910190610100900460ff166003811115611d0f57611d0f6148c1565b6003811115611d2057611d206148c1565b8152815460209091019062010000900460ff166003811115611d4457611d446148c1565b6003811115611d5557611d556148c1565b815281546020909101906301000000900460ff166003811115611d7a57611d7a6148c1565b6003811115611d8b57611d8b6148c1565b9052506040805160c080820183526003850154825282518082018452600486015461ffff808216835260ff62010000808404821660208681019190915263010000008086048416878b015264010000000080870486166060808a0191909152600160301b80890487166080808c0191909152600160381b909904871660a0808c0191909152858d019a909a5260058f01548088168d8f015261010081048816838e01529586048716898d0152929094048516888b01528a5160e081018c5260068e015463ffffffff8116825291820487169381019390935290810490941698810198909852600160401b83048216151590880152600160481b82048116151592870192909252600160501b9004161515908401526007850154908301526008909301549192916001600160a01b031686565b6001600160a01b0381166000908152600a60205260409020606090610c8190613828565b6017818154811061163557600080fd5b6000610c818261303f565b60006032821015611f0f57506000919050565b6050821015611f2057506001919050565b506002919050565b919050565b60006001600160a01b038216611f59576040516322718ad960e21b8152600060048201526024016111d2565b506001600160a01b031660009081526003602052604090205490565b611f7d613012565b611f87600061383c565b565b60005b815181101561118c57611fb7828281518110611faa57611faa615232565b602002602001015161234d565b600101611f8c565b6011546001600160a01b03163314801590611fe557506010546001600160a01b03163314155b8015611ffc57506012546001600160a01b03163314155b1561201c57604051634a0bfec160e01b81523360048201526024016111d2565b6000918252600860205260409091206006018054911515600160501b0260ff60501b19909216919091179055565b612052613012565b6001600160a01b0386161561207d57601080546001600160a01b0319166001600160a01b0388161790555b6001600160a01b038516156120a857601180546001600160a01b0319166001600160a01b0387161790555b6001600160a01b038416156120d357601280546001600160a01b0319166001600160a01b0386161790555b6001600160a01b038316156120fe57601580546001600160a01b0319166001600160a01b0385161790555b6001600160a01b0382161561212957601480546001600160a01b0319166001600160a01b0384161790555b6001600160a01b0381161561215457601380546001600160a01b0319166001600160a01b0383161790555b505050505050565b336000908152600a6020526040812061217490613828565b905060005b815181101561118c576008600083838151811061219857612198615232565b6020026020010151815260200190815260200160002060060160000160099054906101000a900460ff166121db576121db828281518110611faa57611faa615232565b600101612179565b6121eb613012565b6001600160a01b03919091166000908152602360205260409020805460ff1916911515919091179055565b61221e613012565b602480546001600160a01b0319166001600160a01b0392909216919091179055565b6060600180546110d5906151bd565b612257613012565b602555565b61118c33838361388e565b600e818154811061163557600080fd5b6122828484846114cc565b6110c0338585858561392d565b601354600082815260086020526040908190209051635512ecf560e01b81526060926001600160a01b031691635512ecf5916122ce91906004016153c1565b600060405180830381865afa1580156122eb573d6000803e3d6000fd5b505050506040513d6000823e601f3d908101601f19168201604052610c8191908101906154f8565b600f818154811061232357600080fd5b9060005260206000209060089182820401919006600402915054906101000a900463ffffffff1681565b6040518181527ff8e1a15aba9398e019f0b49df1a4fde98ee17ae345cb5f6b5e2c27f5033e8ce79060200160405180910390a16000818152600860208190526040909120908101546001600160a01b031633146123bf5760405162dd34af60e41b8152600481018390526024016111d2565b6006810154600160481b900460ff16156123ef57604051635331ce1f60e11b8152600481018390526024016111d2565b6014546003820154604051632f09b60960e21b815260048101919091526000916001600160a01b03169063bc26d824906024016020604051808303816000875af1158015612441573d6000803e3d6000fd5b505050506040513d601f19601f82011682018060405250810190612465919061552c565b6015546003840154602254604051637017ac9560e11b81526004810188905260248101929092526001600160401b0384166044830152610100900461ffff1660648201529192506000916001600160a01b039091169063e02f592a90608401600060405180830381865afa1580156124e1573d6000803e3d6000fd5b505050506040513d6000823e601f3d908101601f1916820160405261250991908101906156ff565b8051909150839061251a9082615865565b508060600151836003016000820151816000015560208201518160010160008201518160000160006101000a81548161ffff021916908361ffff16021790555060208201518160000160026101000a81548160ff021916908360ff16021790555060408201518160000160036101000a81548160ff021916908360ff16021790555060608201518160000160046101000a81548161ffff021916908361ffff16021790555060808201518160000160066101000a81548160ff021916908360ff16021790555060a08201518160000160076101000a81548160ff021916908360ff160217905550505060408201518160020160006101000a81548160ff021916908360ff16021790555060608201518160020160016101000a81548160ff021916908360ff16021790555060808201518160020160026101000a81548160ff021916908360ff16021790555060a08201518160020160036101000a81548160ff021916908360ff16021790555090505080604001518360020160008201518160000160006101000a81548160ff021916908360038111156126bd576126bd6148c1565b021790555060208201518154829061ff0019166101008360038111156126e5576126e56148c1565b021790555060408201518154829062ff000019166201000083600381111561270f5761270f6148c1565b021790555060608201518154829063ff0000001916630100000083600381111561273b5761273b6148c1565b0217905550505060808101516060810151600685018054925163ffffffff1663ffffffff19921515600160401b0292831668ff00000000ffffffff198516178117825560195460ff60481b1964010000000061ffff9092169190910265ffffffffffff1990941668ff0000ffffffffffff1990951694909417179190911791909116600160481b1790556110c084613581565b3360009081526023602052604090205460ff1661280057604051634a0bfec160e01b81523360048201526024016111d2565b60005b8181101561281c57612814836130af565b600101612803565b50506001600160a01b03166000908152600b60205260409020805460ff19166001179055565b6001600160a01b03918216600090815260056020908152604080832093909416825291909152205460ff1690565b6060600082516001600160401b0381111561288d5761288d6142d9565b6040519080825280602002602001820160405280156128c657816020015b6128b361404d565b8152602001906001900390816128ab5790505b50905060005b8351811015612bec57600860008583815181106128eb576128eb615232565b602002602001015181526020019081526020016000206040518060c001604052908160008201805461291c906151bd565b80601f0160208091040260200160405190810160405280929190818152602001828054612948906151bd565b80156129955780601f1061296a57610100808354040283529160200191612995565b820191906000526020600020905b81548152906001019060200180831161297857829003601f168201915b5050509183525050600182015460208201526040805160808101825260028401805492909301929091829060ff1660038111156129d4576129d46148c1565b60038111156129e5576129e56148c1565b81528154602090910190610100900460ff166003811115612a0857612a086148c1565b6003811115612a1957612a196148c1565b8152815460209091019062010000900460ff166003811115612a3d57612a3d6148c1565b6003811115612a4e57612a4e6148c1565b815281546020909101906301000000900460ff166003811115612a7357612a736148c1565b6003811115612a8457612a846148c1565b90525081526040805160c080820183526003850154825282518082018452600486015461ffff808216835260ff62010000808404821660208681019190915263010000008086048416878b015264010000000080870486166060808a0191909152600160301b80890487166080808c0191909152600160381b909904871660a0808c01919091528c86019a909a5260058f01548088168d8f015261010081048816838e01529586048716898d0152929094048516888b0152828c0199909952895160e081018b5260068d015463ffffffff81168252998a04861692810192909252880490931683890152600160401b87048216151583820152600160481b87048216151593830193909352600160501b909504909416151591840191909152600786015491830191909152918301526008909201546001600160a01b03169101528251839083908110612bd957612bd9615232565b60209081029190910101526001016128cc565b5092915050565b612bfb613012565b6001600160a01b038116612c2557604051631e4fbdf760e01b8152600060048201526024016111d2565b6116228161383c565b6040518281527ff8e1a15aba9398e019f0b49df1a4fde98ee17ae345cb5f6b5e2c27f5033e8ce79060200160405180910390a1600082815260086020908152604080832033845260239092529091205460ff16612ca057604051634a0bfec160e01b81523360048201526024016111d2565b6006810154600160481b900460ff1615612cd057604051635331ce1f60e11b8152600481018490526024016111d2565b601554600382015460405163df1c0f1d60e01b81526000926001600160a01b03169163df1c0f1d91612d089188918890600401615923565b600060405180830381865afa158015612d25573d6000803e3d6000fd5b505050506040513d6000823e601f3d908101601f19168201604052612d4d91908101906156ff565b80519091508290612d5e9082615865565b508060600151826003016000820151816000015560208201518160010160008201518160000160006101000a81548161ffff021916908361ffff16021790555060208201518160000160026101000a81548160ff021916908360ff16021790555060408201518160000160036101000a81548160ff021916908360ff16021790555060608201518160000160046101000a81548161ffff021916908361ffff16021790555060808201518160000160066101000a81548160ff021916908360ff16021790555060a08201518160000160076101000a81548160ff021916908360ff160217905550505060408201518160020160006101000a81548160ff021916908360ff16021790555060608201518160020160016101000a81548160ff021916908360ff16021790555060808201518160020160026101000a81548160ff021916908360ff16021790555060a08201518160020160036101000a81548160ff021916908360ff16021790555090505080604001518260020160008201518160000160006101000a81548160ff02191690836003811115612f0157612f016148c1565b021790555060208201518154829061ff001916610100836003811115612f2957612f296148c1565b021790555060408201518154829062ff0000191662010000836003811115612f5357612f536148c1565b021790555060608201518154829063ff00000019166301000000836003811115612f7f57612f7f6148c1565b0217905550505060808101516060810151600684018054925163ffffffff1663ffffffff19921515600160401b0292831668ff00000000ffffffff198516178117825560195460ff60481b1964010000000061ffff9092169190910265ffffffffffff1990941668ff0000ffffffffffff1990951694909417179190911791909116600160481b1790556110c084613581565b6006546001600160a01b03163314611f875760405163118cdaa760e01b81523360048201526024016111d2565b6000818152600260205260408120546001600160a01b031680610c8157604051637e27328960e01b8152600481018490526024016111d2565b6113818383836001613a56565b6002600754036130a857604051633ee5aeb560e01b815260040160405180910390fd5b6002600755565b60225460ff16156130d357604051636be9245d60e11b815260040160405180910390fd5b600980549060006130e383615248565b909155505060095460008181526008602090815260408083206001810194909455601454815163f8413b0760e01b815291516001600160a01b039091169363f8413b07936004848101949193929183900301908290875af115801561314c573d6000803e3d6000fd5b505050506040513d601f19601f820116820180604052508101906131709190615942565b6003820155600954613183908390613b5c565b60080180546001600160a01b0319166001600160a01b0392909216919091179055565b6001600160a01b0383166000908152600d6020526040812080548492906131ce908490615261565b9091555050600f546001905b801561329457600f6131ed60018361595b565b815481106131fd576131fd615232565b600091825260208083206008830401546001600160a01b0389168452600d90915260409092205460079091166004026101000a90910463ffffffff161161328257600e61324b60018361595b565b8154811061325b5761325b615232565b60009182526020918290209181049091015460ff601f9092166101000a9004169150613294565b8061328c8161596e565b9150506131da565b50600060646132a38385615985565b6132ad919061599c565b90506000856001600160a01b03168260405160006040518083038185875af1925050503d80600081146132fc576040519150601f19603f3d011682016040523d82523d6000602084013e613301565b606091505b50509050806121545760405162461bcd60e51b815260206004820152601860248201527f526566657272616c207472616e73666572206661696c6564000000000000000060448201526064016111d2565b60006001600160a01b038416156133b357600083815260086020526040902060070154156133b35760405162461bcd60e51b815260206004820152600e60248201526d14da1a5c0819195cdd1c9bde595960921b60448201526064016111d2565b600083815260086020526040902060060154600160501b900460ff16156133f05760405163128379f760e11b8152600481018490526024016111d2565b600083815260086020819052604090912001546001600160a01b031680156134d4576001600160a01b0381166000908152600b602052604090205460ff1661345657604051637aff97f360e11b81526001600160a01b03821660048201526024016111d2565b6001600160a01b0385161580159061348757506001600160a01b0385166000908152600b602052604090205460ff16155b156134b057604051637aff97f360e11b81526001600160a01b03861660048201526024016111d2565b6001600160a01b0381166000908152600a602052604090206134d29085613b76565b505b6001600160a01b03851615613532576001600160a01b0385166000908152600a602052604090206135059085613b82565b5060008481526008602081905260409091200180546001600160a01b0319166001600160a01b0387161790555b61353d858585613b8e565b95945050505050565b60006135556000836000613352565b90506001600160a01b03811661118c57604051637e27328960e01b8152600481018390526024016111d2565b600081815260086020908152604082206002810154909291906301000000900460ff1660038111156135b5576135b56148c1565b60ff16815481106135c8576135c8615232565b600091825260209182902091810490910154600284015460ff601f9384166101000a909204821692916201000090910416600381111561360a5761360a6148c1565b60ff168154811061361d5761361d615232565b600091825260209182902091810490910154600285015460ff601f90931661010090810a909204831692601e9290910416600381111561365f5761365f6148c1565b60ff168154811061367257613672615232565b600091825260209182902091810490910154600286015460ff601f9093166101000a909104821691601d911660038111156136af576136af6148c1565b60ff16815481106136c2576136c2615232565b6000918252602091829020918104909101546005870154601c8054601f9094166101000a90920460ff9081169363010000009092041690811061370757613707615232565b6000918252602091829020918104909101546005880154601b8054601f9094166101000a90920460ff90811693620100009092041690811061374b5761374b615232565b6000918252602091829020918104909101546005890154601a805460ff601f90951661010090810a90940485169491939092041690811061378e5761378e615232565b6000918252602091829020918104909101546019546137c392601f166101000a90910460ff90811691620100009004166159be565b6137cd91906159be565b6137d791906159be565b6137e191906159be565b6137eb91906159be565b6137f591906159be565b6137ff91906159be565b600692909201805467ffff000000000000191660ff909316600160301b02929092179091555050565b6060600061383583613c87565b9392505050565b600680546001600160a01b038381166001600160a01b0319831681179093556040519116919082907f8be0079c531659141344cd1fd0a4f28419497f9722a3daafe3b4186f6b6457e090600090a35050565b6001600160a01b0382166138c057604051630b61174360e31b81526001600160a01b03831660048201526024016111d2565b6001600160a01b03838116600081815260056020908152604080832094871680845294825291829020805460ff191686151590811790915591519182527f17307eab39ab6107e8899845ad3d59bd9653f200f220920489ca2b5937696c31910160405180910390a3505050565b6001600160a01b0383163b15613a4f57604051630a85bd0160e11b81526001600160a01b0384169063150b7a029061396f9088908890879087906004016159d7565b6020604051808303816000875af19250505080156139aa575060408051601f3d908101601f191682019092526139a791810190615a0a565b60015b613a13573d8080156139d8576040519150601f19603f3d011682016040523d82523d6000602084013e6139dd565b606091505b508051600003613a0b57604051633250574960e11b81526001600160a01b03851660048201526024016111d2565b805181602001fd5b6001600160e01b03198116630a85bd0160e11b1461215457604051633250574960e11b81526001600160a01b03851660048201526024016111d2565b5050505050565b8080613a6a57506001600160a01b03821615155b15613b2c576000613a7a8461303f565b90506001600160a01b03831615801590613aa65750826001600160a01b0316816001600160a01b031614155b8015613ab95750613ab78184612842565b155b15613ae25760405163a9fbf51f60e01b81526001600160a01b03841660048201526024016111d2565b8115613b2a5783856001600160a01b0316826001600160a01b03167f8c5be1e5ebec7d5bd14f71427d1e84f3dd0314c0f7b2291e5b200ac8c7c3b92560405160405180910390a45b505b5050600090815260046020526040902080546001600160a01b0319166001600160a01b0392909216919091179055565b61118c828260405180602001604052806000815250613ce3565b60006138358383613cfb565b60006138358383613dee565b6000828152600260205260408120546001600160a01b0390811690831615613bbb57613bbb818486613e3d565b6001600160a01b03811615613bf957613bd8600085600080613a56565b6001600160a01b038116600090815260036020526040902080546000190190555b6001600160a01b03851615613c28576001600160a01b0385166000908152600360205260409020805460010190555b60008481526002602052604080822080546001600160a01b0319166001600160a01b0389811691821790925591518793918516917fddf252ad1be2c89b69c2b068fc378daa952ba7f163c4a11628f55a4df523b3ef91a4949350505050565b606081600001805480602002602001604051908101604052809291908181526020018280548015613cd757602002820191906000526020600020905b815481526020019060010190808311613cc3575b50505050509050919050565b613ced8383613ea1565b61138133600085858561392d565b60008181526001830160205260408120548015613de4576000613d1f60018361595b565b8554909150600090613d339060019061595b565b9050808214613d98576000866000018281548110613d5357613d53615232565b9060005260206000200154905080876000018481548110613d7657613d76615232565b6000918252602080832090910192909255918252600188019052604090208390555b8554869080613da957613da9615a27565b600190038181906000526020600020016000905590558560010160008681526020019081526020016000206000905560019350505050610c81565b6000915050610c81565b6000818152600183016020526040812054613e3557508154600181810184556000848152602080822090930184905584548482528286019093526040902091909155610c81565b506000610c81565b613e48838383613f06565b611381576001600160a01b038316613e7657604051637e27328960e01b8152600481018290526024016111d2565b60405163177e802f60e01b81526001600160a01b0383166004820152602481018290526044016111d2565b6001600160a01b038216613ecb57604051633250574960e11b8152600060048201526024016111d2565b6000613ed983836000613352565b90506001600160a01b03811615611381576040516339e3563760e11b8152600060048201526024016111d2565b60006001600160a01b03831615801590613f645750826001600160a01b0316846001600160a01b03161480613f405750613f408484612842565b80613f6457506000828152600460205260409020546001600160a01b038481169116145b949350505050565b82805482825590600052602060002090601f016020900481019282156140025791602002820160005b83821115613fd357835183826101000a81548160ff021916908360ff1602179055509260200192600101602081600001049283019260010302613f95565b80156140005782816101000a81549060ff0219169055600101602081600001049283019260010302613fd3565b505b5061400e929150614144565b5090565b828054828255906000526020600020908101928215614002579160200282015b82811115614002578251825591602001919060010190614032565b6040518060c0016040528060608152602001600081526020016140916040805160808101909152806000815260200160008152602001600081526020016000905290565b81526020016140fb6040805160c080820183526000808352835191820184528082526020828101829052938201819052606082018190526080820181905260a082015290918201908152600060208201819052604082018190526060820181905260809091015290565b81526040805160e08101825260008082526020828101829052928201819052606082018190526080820181905260a0820181905260c08201529101908152600060209091015290565b5b8082111561400e5760008155600101614145565b6001600160e01b03198116811461162257600080fd5b60006020828403121561418157600080fd5b813561383581614159565b600081518084526020840193506020830160005b828110156141c157815160ff168652602095860195909101906001016141a0565b5093949350505050565b828152604060208201526141e660408201835161ffff169052565b600060208301516141fc606084018260ff169052565b506040830151610120608084015261421861016084018261418c565b90506060840151603f198483030160a0850152614235828261418c565b9150506080840151603f198483030160c0850152614253828261418c565b91505060a0840151603f198483030160e0850152614271828261418c565b91505060c0840151603f1984830301610100850152614290828261418c565b91505060e0840151603f19848303016101208501526142af828261418c565b915050610100840151603f19848303016101408501526142cf828261418c565b9695505050505050565b634e487b7160e01b600052604160045260246000fd5b60405161012081016001600160401b0381118282101715614312576143126142d9565b60405290565b604051608081016001600160401b0381118282101715614312576143126142d9565b60405160c081016001600160401b0381118282101715614312576143126142d9565b60405160e081016001600160401b0381118282101715614312576143126142d9565b604051601f8201601f191681016001600160401b03811182821017156143a6576143a66142d9565b604052919050565b60006001600160401b038211156143c7576143c76142d9565b5060051b60200190565b60ff8116811461162257600080fd5b8035611f28816143d1565b600082601f8301126143fc57600080fd5b813561440f61440a826143ae565b61437e565b8082825260208201915060208360051b86010192508583111561443157600080fd5b602085015b83811015614457578035614449816143d1565b835260209283019201614436565b5095945050505050565b600082601f83011261447257600080fd5b813561448061440a826143ae565b8082825260208201915060208360051b8601019250858311156144a257600080fd5b602085015b838110156144575780358352602092830192016144a7565b6000806000606084860312156144d457600080fd5b83356001600160401b038111156144ea57600080fd5b6144f6868287016143eb565b93505060208401356001600160401b0381111561451257600080fd5b61451e868287016143eb565b92505060408401356001600160401b0381111561453a57600080fd5b61454686828701614461565b9150509250925092565b60005b8381101561456b578181015183820152602001614553565b50506000910152565b6000815180845261458c816020860160208601614550565b601f01601f19169290920160200192915050565b6020815260006138356020830184614574565b6000602082840312156145c557600080fd5b5035919050565b6001600160a01b038116811461162257600080fd5b8035611f28816145cc565b600080604083850312156145ff57600080fd5b823561460a816145cc565b946020939093013593505050565b6000806040838503121561462b57600080fd5b50508035926020909101359150565b60008060006060848603121561464f57600080fd5b833561465a816145cc565b9250602084013591506040840135614671816145cc565b809150509250925092565b60006020828403121561468e57600080fd5b8135613835816143d1565b801515811461162257600080fd5b8035611f2881614699565b6000602082840312156146c457600080fd5b813561383581614699565b61ffff8116811461162257600080fd5b8035611f28816146cf565b6000602082840312156146fc57600080fd5b81356001600160401b0381111561471257600080fd5b8201610120818503121561472557600080fd5b61472d6142ef565b614736826146df565b8152614744602083016143e0565b602082015260408201356001600160401b0381111561476257600080fd5b61476e868285016143eb565b60408301525060608201356001600160401b0381111561478d57600080fd5b614799868285016143eb565b60608301525060808201356001600160401b038111156147b857600080fd5b6147c4868285016143eb565b60808301525060a08201356001600160401b038111156147e357600080fd5b6147ef868285016143eb565b60a08301525060c08201356001600160401b0381111561480e57600080fd5b61481a868285016143eb565b60c08301525060e08201356001600160401b0381111561483957600080fd5b614845868285016143eb565b60e0830152506101008201356001600160401b0381111561486557600080fd5b614871868285016143eb565b61010083015250949350505050565b60008060006060848603121561489557600080fd5b83356148a0816145cc565b925060208401356148b0816145cc565b929592945050506040919091013590565b634e487b7160e01b600052602160045260246000fd5b6004811061162257634e487b7160e01b600052602160045260246000fd5b8051614900816148d7565b82526020810151614910816148d7565b60208301526040810151614923816148d7565b60408301526060810151614936816148d7565b806060840152505050565b80518252602081015161ffff815116602084015260ff602082015116604084015260ff604082015116606084015261ffff606082015116608084015260ff60808201511660a084015260ff60a08201511660c08401525060408101516149ac60e084018260ff169052565b50606081015160ff9081166101008401526080820151811661012084015260a0909101511661014090910152565b63ffffffff815116825261ffff602082015116602083015261ffff604082015116604083015260608101511515606083015260808101511515608083015260a0810151614a2b60a084018215159052565b5060c090810151910152565b600081516103208452614a4e610320850182614574565b9050602083015160208501526040830151614a6c60408601826148f5565b506060830151614a7f60c0860182614941565b506080830151614a936102208601826149da565b5060a092909201516001600160a01b03166103009390930192909252919050565b6020815260006138356020830184614a37565b60008060208385031215614ada57600080fd5b82356001600160401b03811115614af057600080fd5b8301601f81018513614b0157600080fd5b80356001600160401b03811115614b1757600080fd5b8560208260051b8401011115614b2c57600080fd5b6020919091019590945092505050565b600081518084526020840193506020830160005b828110156141c1578151865260209586019590910190600101614b50565b606081526000614b81606083018661418c565b8281036020840152614b93818661418c565b905082810360408401526142cf8185614b3c565b61032081526000614bbc610320830189614574565b9050866020830152614bd160408301876148f5565b614bde60c0830186614941565b614bec6102208301856149da565b6001600160a01b0392909216610300919091015295945050505050565b600060208284031215614c1b57600080fd5b8135613835816145cc565b6020815260006138356020830184614b3c565b600060208284031215614c4b57600080fd5b81356001600160401b03811115614c6157600080fd5b613f6484828501614461565b60008060408385031215614c8057600080fd5b823591506020830135614c9281614699565b809150509250929050565b60008060008060008060c08789031215614cb657600080fd5b8635614cc1816145cc565b95506020870135614cd1816145cc565b94506040870135614ce1816145cc565b93506060870135614cf1816145cc565b92506080870135614d01816145cc565b915060a0870135614d11816145cc565b809150509295509295509295565b60008060408385031215614d3257600080fd5b8235614d3d816145cc565b91506020830135614c9281614699565b60006001600160401b03821115614d6657614d666142d9565b50601f01601f191660200190565b6000614d8261440a84614d4d565b9050828152838383011115614d9657600080fd5b828260208301376000602084830101529392505050565b60008060008060808587031215614dc357600080fd5b8435614dce816145cc565b93506020850135614dde816145cc565b92506040850135915060608501356001600160401b03811115614e0057600080fd5b8501601f81018713614e1157600080fd5b614e2087823560208401614d74565b91505092959194509250565b60008060408385031215614e3f57600080fd5b8235614e4a816145cc565b91506020830135614c92816145cc565b6000602082016020835280845180835260408501915060408160051b86010192506020860160005b82811015614eb357603f19878603018452614e9e858351614a37565b94506020938401939190910190600101614e82565b50929695505050505050565b6004811061162257600080fd5b600060808284031215614ede57600080fd5b614ee6614318565b90508135614ef381614ebf565b81526020820135614f0381614ebf565b60208201526040820135614f1681614ebf565b60408201526060820135614f2981614ebf565b606082015292915050565b6000818303610160811215614f4857600080fd5b614f5061433a565b83358152915060c0601f1982011215614f6857600080fd5b50614f7161433a565b6020830135614f7f816146cf565b81526040830135614f8f816143d1565b60208201526060830135614fa2816143d1565b60408201526080830135614fb5816146cf565b606082015260a0830135614fc8816143d1565b608082015260c0830135614fdb816143d1565b60a08201526020820152614ff160e083016143e0565b604082015261500361010083016143e0565b606082015261501561012083016143e0565b608082015261502761014083016143e0565b60a082015292915050565b63ffffffff8116811461162257600080fd5b600060e0828403121561505657600080fd5b61505e61435c565b9050813561506b81615032565b8152602082013561507b816146cf565b6020820152604082013561508e816146cf565b604082015260608201356150a181614699565b60608201526150b2608083016146a7565b60808201526150c360a083016146a7565b60a082015260c09182013591810191909152919050565b600080604083850312156150ed57600080fd5b8235915060208301356001600160401b0381111561510a57600080fd5b8301610320818603121561511d57600080fd5b61512561433a565b81356001600160401b0381111561513b57600080fd5b8201601f8101871361514c57600080fd5b61515b87823560208401614d74565b825250602082810135908201526151758660408401614ecc565b60408201526151878660c08401614f34565b606082015261519a866102208401615044565b60808201526151ac61030083016145e1565b60a082015280925050509250929050565b600181811c908216806151d157607f821691505b6020821081036151f157634e487b7160e01b600052602260045260246000fd5b50919050565b634e487b7160e01b600052601160045260246000fd5b600063ffffffff821663ffffffff8103615229576152296151f7565b60010192915050565b634e487b7160e01b600052603260045260246000fd5b60006001820161525a5761525a6151f7565b5060010190565b80820180821115610c8157610c816151f7565b805460ff8116615283816148d7565b8352600881901c60ff16615296816148d7565b6020840152601081901c60ff166152ac816148d7565b604084015260181c60ff16614936816148d7565b80548252600181015461ffff8116602084015260ff8160101c16604084015260ff8160181c16606084015261ffff8160201c16608084015261530d60a0840160ff8360301c1660ff169052565b60381c60ff90811660c08401526002919091015480821660e0840152600881901c8216610100840152601081901c821661012084015260181c1661014090910152565b805463ffffffff8116835261ffff8160201c16602084015261ffff808260301c1616604084015261538b6060840160ff8360401c1615159052565b61539f6080840160ff8360481c1615159052565b6153b360a0840160ff8360501c1615159052565b506001015460c09190910152565b60208152610320602082015260008083546153db816151bd565b8061034086015260018216600081146153fb57600181146154195761544f565b60ff19831661036087015261036082151560051b870101935061544f565b86600052602060002060005b838110156154455781548882016103600152600190910190602001615425565b8701610360019450505b5050506001840154604084015261546c6060840160028601615274565b61547c60e08401600386016152c0565b61548d610240840160068601615350565b60088401546001600160a01b03166001600160a01b038116610320850152509392505050565b600082601f8301126154c457600080fd5b81516154d261440a82614d4d565b8181528460208386010111156154e757600080fd5b613f64826020830160208701614550565b60006020828403121561550a57600080fd5b81516001600160401b0381111561552057600080fd5b613f64848285016154b3565b60006020828403121561553e57600080fd5b81516001600160401b038116811461383557600080fd5b8051611f28816143d1565b600081830361016081121561557457600080fd5b61557c61433a565b83518152915060c0601f198201121561559457600080fd5b5061559d61433a565b60208301516155ab816146cf565b815260408301516155bb816143d1565b602082015260608301516155ce816143d1565b604082015260808301516155e1816146cf565b606082015260a08301516155f4816143d1565b608082015260c0830151615607816143d1565b60a0820152602082015261561d60e08301615555565b604082015261562f6101008301615555565b60608201526156416101208301615555565b60808201526150276101408301615555565b8051611f2881614699565b600060e0828403121561567057600080fd5b61567861435c565b9050815161568581615032565b81526020820151615695816146cf565b602082015260408201516156a8816146cf565b604082015260608201516156bb81614699565b60608201526156cc60808301615653565b60808201526156dd60a08301615653565b60a082015260c09182015191810191909152919050565b8051611f28816145cc565b60006020828403121561571157600080fd5b81516001600160401b0381111561572757600080fd5b820180840361032081121561573b57600080fd5b61574361433a565b82516001600160401b0381111561575957600080fd5b615765878286016154b3565b825250602083810151908201526080603f198301121561578457600080fd5b61578c614318565b9150604083015161579c81614ebf565b825260608301516157ac81614ebf565b602083015260808301516157bf81614ebf565b604083015260a08301516157d281614ebf565b6060830152604081018290526157eb8660c08501615560565b60608201526157fe86610220850161565e565b608082015261581061030084016156f4565b60a082015295945050505050565b601f82111561138157806000526020600020601f840160051c810160208510156158455750805b601f840160051c820191505b81811015613a4f5760008155600101615851565b81516001600160401b0381111561587e5761587e6142d9565b6158928161588c84546151bd565b8461581e565b6020601f8211600181146158c657600083156158ae5750848201515b600019600385901b1c1916600184901b178455613a4f565b600084815260208120601f198516915b828110156158f657878501518255602094850194600190920191016158d6565b50848210156159145786840151600019600387901b60f8161c191681555b50505050600190811b01905550565b83815282602082015260606040820152600061353d6060830184614a37565b60006020828403121561595457600080fd5b5051919050565b81810381811115610c8157610c816151f7565b60008161597d5761597d6151f7565b506000190190565b8082028115828204841417610c8157610c816151f7565b6000826159b957634e487b7160e01b600052601260045260246000fd5b500490565b60ff8181168382160190811115610c8157610c816151f7565b6001600160a01b03858116825284166020820152604081018390526080606082018190526000906142cf90830184614574565b600060208284031215615a1c57600080fd5b815161383581614159565b634e487b7160e01b600052603160045260246000fdfea264697066735822122045d2a9776d5eb844cfad8c88f2c083d47fe41e804201016312a3b2de4911f09764736f6c634300081c0033",
  "linkReferences": {},
  "deployedLinkReferences": {}
}