{
  "_format": "hh-sol-artifact-1",
  "contractName": "Game",
  "sourceName": "contracts/Game.sol",
  "abi": [
    {
      "inputs": [
        {
          "internalType": "address",
          "name": "_ships",
          "type": "address"
        },
        {
          "internalType": "address",
          "name": "_shipAttributes",
          "type": "address"
        }
      ],
      "stateMutability": "nonpayable",
      "type": "constructor"
    },
    {
      "inputs": [],
      "name": "GameNotFound",
      "type": "error"
    },
    {
      "inputs": [],
      "name": "InvalidMove",
      "type": "error"
    },
    {
      "inputs": [],
      "name": "InvalidPosition",
      "type": "error"
    },
    {
      "inputs": [],
      "name": "NotInGame",
      "type": "error"
    },
    {
      "inputs": [],
      "name": "NotLobbiesContract",
      "type": "error"
    },
    {
      "inputs": [
        {
          "internalType": "address",
          "name": "owner",
          "type": "address"
        }
      ],
      "name": "OwnableInvalidOwner",
      "type": "error"
    },
    {
      "inputs": [
        {
          "internalType": "address",
          "name": "account",
          "type": "address"
        }
      ],
      "name": "OwnableUnauthorizedAccount",
      "type": "error"
    },
    {
      "inputs": [],
      "name": "ShipAlreadyMoved",
      "type": "error"
    },
    {
      "inputs": [],
      "name": "ShipDestroyed",
      "type": "error"
    },
    {
      "inputs": [],
      "name": "ShipNotFound",
      "type": "error"
    },
    {
      "inputs": [],
      "name": "ShipNotOwned",
      "type": "error"
    },
    {
      "inputs": [],
      "name": "TurnTimeoutExceeded",
      "type": "error"
    },
    {
      "inputs": [],
      "name": "TurnTimeoutNotReached",
      "type": "error"
    },
    {
      "anonymous": false,
      "inputs": [
        {
          "indexed": true,
          "internalType": "uint256",
          "name": "gameId",
          "type": "uint256"
        },
        {
          "indexed": true,
          "internalType": "uint256",
          "name": "lobbyId",
          "type": "uint256"
        },
        {
          "indexed": false,
          "internalType": "address",
          "name": "creator",
          "type": "address"
        },
        {
          "indexed": false,
          "internalType": "address",
          "name": "joiner",
          "type": "address"
        }
      ],
      "name": "GameStarted",
      "type": "event"
    },
    {
      "anonymous": false,
      "inputs": [
        {
          "indexed": true,
          "internalType": "uint256",
          "name": "gameId",
          "type": "uint256"
        }
      ],
      "name": "GameUpdate",
      "type": "event"
    },
    {
      "anonymous": false,
      "inputs": [
        {
          "indexed": true,
          "internalType": "uint256",
          "name": "gameId",
          "type": "uint256"
        },
        {
          "indexed": false,
          "internalType": "uint256",
          "name": "shipId",
          "type": "uint256"
        },
        {
          "indexed": false,
          "internalType": "int16",
          "name": "oldRow",
          "type": "int16"
        },
        {
          "indexed": false,
          "internalType": "int16",
          "name": "oldCol",
          "type": "int16"
        },
        {
          "indexed": false,
          "internalType": "int16",
          "name": "newRow",
          "type": "int16"
        },
        {
          "indexed": false,
          "internalType": "int16",
          "name": "newCol",
          "type": "int16"
        },
        {
          "indexed": false,
          "internalType": "enum ActionType",
          "name": "actionType",
          "type": "uint8"
        },
        {
          "indexed": false,
          "internalType": "uint256",
          "name": "targetShipId",
          "type": "uint256"
        }
      ],
      "name": "Move",
      "type": "event"
    },
    {
      "anonymous": false,
      "inputs": [
        {
          "indexed": true,
          "internalType": "address",
          "name": "previousOwner",
          "type": "address"
        },
        {
          "indexed": true,
          "internalType": "address",
          "name": "newOwner",
          "type": "address"
        }
      ],
      "name": "OwnershipTransferred",
      "type": "event"
    },
    {
      "inputs": [],
      "name": "GRID_HEIGHT",
      "outputs": [
        {
          "internalType": "int16",
          "name": "",
          "type": "int16"
        }
      ],
      "stateMutability": "view",
      "type": "function"
    },
    {
      "inputs": [],
      "name": "GRID_WIDTH",
      "outputs": [
        {
          "internalType": "int16",
          "name": "",
          "type": "int16"
        }
      ],
      "stateMutability": "view",
      "type": "function"
    },
    {
      "inputs": [
        {
          "internalType": "uint256",
          "name": "_gameId",
          "type": "uint256"
        },
        {
          "internalType": "uint256[]",
          "name": "_shipIds",
          "type": "uint256[]"
        }
      ],
      "name": "calculateFleetAttributes",
      "outputs": [],
      "stateMutability": "nonpayable",
      "type": "function"
    },
    {
      "inputs": [
        {
          "internalType": "uint256",
          "name": "_gameId",
          "type": "uint256"
        },
        {
          "internalType": "uint256",
          "name": "_shipId",
          "type": "uint256"
        }
      ],
      "name": "calculateShipAttributes",
      "outputs": [],
      "stateMutability": "nonpayable",
      "type": "function"
    },
    {
      "inputs": [
        {
          "internalType": "uint256",
          "name": "_gameId",
          "type": "uint256"
        },
        {
          "internalType": "uint256",
          "name": "_shipId",
          "type": "uint256"
        }
      ],
      "name": "debugDestroyShip",
      "outputs": [],
      "stateMutability": "nonpayable",
      "type": "function"
    },
    {
      "inputs": [
        {
          "internalType": "uint256",
          "name": "_gameId",
          "type": "uint256"
        },
        {
          "internalType": "uint256",
          "name": "_shipId",
          "type": "uint256"
        }
      ],
      "name": "debugSetHullPointsToZero",
      "outputs": [],
      "stateMutability": "nonpayable",
      "type": "function"
    },
    {
      "inputs": [
        {
          "internalType": "uint256",
          "name": "_gameId",
          "type": "uint256"
        },
        {
          "internalType": "uint256",
          "name": "_shipId",
          "type": "uint256"
        },
        {
          "internalType": "int16",
          "name": "_row",
          "type": "int16"
        },
        {
          "internalType": "int16",
          "name": "_col",
          "type": "int16"
        }
      ],
      "name": "debugSetShipPosition",
      "outputs": [],
      "stateMutability": "nonpayable",
      "type": "function"
    },
    {
      "inputs": [
        {
          "internalType": "uint256",
          "name": "_gameId",
          "type": "uint256"
        }
      ],
      "name": "endGameOnTimeout",
      "outputs": [],
      "stateMutability": "nonpayable",
      "type": "function"
    },
    {
      "inputs": [
        {
          "internalType": "uint256",
          "name": "_gameId",
          "type": "uint256"
        }
      ],
      "name": "flee",
      "outputs": [],
      "stateMutability": "nonpayable",
      "type": "function"
    },
    {
      "inputs": [],
      "name": "fleets",
      "outputs": [
        {
          "internalType": "contract IFleets",
          "name": "",
          "type": "address"
        }
      ],
      "stateMutability": "view",
      "type": "function"
    },
    {
      "inputs": [],
      "name": "gameCount",
      "outputs": [
        {
          "internalType": "uint256",
          "name": "",
          "type": "uint256"
        }
      ],
      "stateMutability": "view",
      "type": "function"
    },
    {
      "inputs": [],
      "name": "gameResults",
      "outputs": [
        {
          "internalType": "contract IGameResults",
          "name": "",
          "type": "address"
        }
      ],
      "stateMutability": "view",
      "type": "function"
    },
    {
      "inputs": [
        {
          "internalType": "uint256",
          "name": "_gameId",
          "type": "uint256"
        }
      ],
      "name": "getAllShipPositions",
      "outputs": [
        {
          "components": [
            {
              "internalType": "uint256",
              "name": "shipId",
              "type": "uint256"
            },
            {
              "components": [
                {
                  "internalType": "int16",
                  "name": "row",
                  "type": "int16"
                },
                {
                  "internalType": "int16",
                  "name": "col",
                  "type": "int16"
                }
              ],
              "internalType": "struct Position",
              "name": "position",
              "type": "tuple"
            },
            {
              "internalType": "bool",
              "name": "isCreator",
              "type": "bool"
            },
            {
              "internalType": "uint8",
              "name": "status",
              "type": "uint8"
            }
          ],
          "internalType": "struct ShipPosition[]",
          "name": "",
          "type": "tuple[]"
        }
      ],
      "stateMutability": "view",
      "type": "function"
    },
    {
      "inputs": [
        {
          "internalType": "uint256",
          "name": "_gameId",
          "type": "uint256"
        }
      ],
      "name": "getGame",
      "outputs": [
        {
          "components": [
            {
              "components": [
                {
                  "internalType": "uint256",
                  "name": "gameId",
                  "type": "uint256"
                },
                {
                  "internalType": "uint256",
                  "name": "lobbyId",
                  "type": "uint256"
                },
                {
                  "internalType": "address",
                  "name": "creator",
                  "type": "address"
                },
                {
                  "internalType": "address",
                  "name": "joiner",
                  "type": "address"
                },
                {
                  "internalType": "uint256",
                  "name": "creatorFleetId",
                  "type": "uint256"
                },
                {
                  "internalType": "uint256",
                  "name": "joinerFleetId",
                  "type": "uint256"
                },
                {
                  "internalType": "bool",
                  "name": "creatorGoesFirst",
                  "type": "bool"
                },
                {
                  "internalType": "uint256",
                  "name": "startedAt",
                  "type": "uint256"
                },
                {
                  "internalType": "address",
                  "name": "winner",
                  "type": "address"
                }
              ],
              "internalType": "struct GameMetadata",
              "name": "metadata",
              "type": "tuple"
            },
            {
              "components": [
                {
                  "internalType": "address",
                  "name": "currentTurn",
                  "type": "address"
                },
                {
                  "internalType": "uint256",
                  "name": "turnTime",
                  "type": "uint256"
                },
                {
                  "internalType": "uint256",
                  "name": "turnStartTime",
                  "type": "uint256"
                },
                {
                  "internalType": "uint256",
                  "name": "currentRound",
                  "type": "uint256"
                }
              ],
              "internalType": "struct GameTurnState",
              "name": "turnState",
              "type": "tuple"
            },
            {
              "components": [
                {
                  "internalType": "int16",
                  "name": "gridWidth",
                  "type": "int16"
                },
                {
                  "internalType": "int16",
                  "name": "gridHeight",
                  "type": "int16"
                }
              ],
              "internalType": "struct GameGridDimensions",
              "name": "gridDimensions",
              "type": "tuple"
            },
            {
              "internalType": "uint256",
              "name": "maxScore",
              "type": "uint256"
            },
            {
              "internalType": "uint256",
              "name": "creatorScore",
              "type": "uint256"
            },
            {
              "internalType": "uint256",
              "name": "joinerScore",
              "type": "uint256"
            },
            {
              "components": [
                {
                  "internalType": "uint256",
                  "name": "shipId",
                  "type": "uint256"
                },
                {
                  "internalType": "int16",
                  "name": "oldRow",
                  "type": "int16"
                },
                {
                  "internalType": "int16",
                  "name": "oldCol",
                  "type": "int16"
                },
                {
                  "internalType": "int16",
                  "name": "newRow",
                  "type": "int16"
                },
                {
                  "internalType": "int16",
                  "name": "newCol",
                  "type": "int16"
                },
                {
                  "internalType": "enum ActionType",
                  "name": "actionType",
                  "type": "uint8"
                },
                {
                  "internalType": "uint256",
                  "name": "targetShipId",
                  "type": "uint256"
                },
                {
                  "internalType": "uint256",
                  "name": "timestamp",
                  "type": "uint256"
                }
              ],
              "internalType": "struct LastMove",
              "name": "lastMove",
              "type": "tuple"
            },
            {
              "internalType": "uint256[]",
              "name": "shipIds",
              "type": "uint256[]"
            },
            {
              "components": [
                {
                  "internalType": "uint16",
                  "name": "version",
                  "type": "uint16"
                },
                {
                  "internalType": "uint8",
                  "name": "range",
                  "type": "uint8"
                },
                {
                  "internalType": "uint8",
                  "name": "gunDamage",
                  "type": "uint8"
                },
                {
                  "internalType": "uint8",
                  "name": "hullPoints",
                  "type": "uint8"
                },
                {
                  "internalType": "uint8",
                  "name": "maxHullPoints",
                  "type": "uint8"
                },
                {
                  "internalType": "uint8",
                  "name": "movement",
                  "type": "uint8"
                },
                {
                  "internalType": "uint8",
                  "name": "damageReduction",
                  "type": "uint8"
                },
                {
                  "internalType": "uint8",
                  "name": "reactorCriticalTimer",
                  "type": "uint8"
                },
                {
                  "internalType": "uint8[]",
                  "name": "statusEffects",
                  "type": "uint8[]"
                }
              ],
              "internalType": "struct Attributes[]",
              "name": "shipAttributes",
              "type": "tuple[]"
            },
            {
              "components": [
                {
                  "internalType": "uint256",
                  "name": "shipId",
                  "type": "uint256"
                },
                {
                  "components": [
                    {
                      "internalType": "int16",
                      "name": "row",
                      "type": "int16"
                    },
                    {
                      "internalType": "int16",
                      "name": "col",
                      "type": "int16"
                    }
                  ],
                  "internalType": "struct Position",
                  "name": "position",
                  "type": "tuple"
                },
                {
                  "internalType": "bool",
                  "name": "isCreator",
                  "type": "bool"
                },
                {
                  "internalType": "uint8",
                  "name": "status",
                  "type": "uint8"
                }
              ],
              "internalType": "struct ShipPosition[]",
              "name": "shipPositions",
              "type": "tuple[]"
            },
            {
              "internalType": "uint256[]",
              "name": "creatorActiveShipIds",
              "type": "uint256[]"
            },
            {
              "internalType": "uint256[]",
              "name": "joinerActiveShipIds",
              "type": "uint256[]"
            },
            {
              "internalType": "uint256[]",
              "name": "creatorMovedShipIds",
              "type": "uint256[]"
            },
            {
              "internalType": "uint256[]",
              "name": "joinerMovedShipIds",
              "type": "uint256[]"
            }
          ],
          "internalType": "struct GameDataView",
          "name": "",
          "type": "tuple"
        }
      ],
      "stateMutability": "view",
      "type": "function"
    },
    {
      "inputs": [
        {
          "internalType": "address",
          "name": "_player",
          "type": "address"
        }
      ],
      "name": "getGamesForPlayer",
      "outputs": [
        {
          "components": [
            {
              "components": [
                {
                  "internalType": "uint256",
                  "name": "gameId",
                  "type": "uint256"
                },
                {
                  "internalType": "uint256",
                  "name": "lobbyId",
                  "type": "uint256"
                },
                {
                  "internalType": "address",
                  "name": "creator",
                  "type": "address"
                },
                {
                  "internalType": "address",
                  "name": "joiner",
                  "type": "address"
                },
                {
                  "internalType": "uint256",
                  "name": "creatorFleetId",
                  "type": "uint256"
                },
                {
                  "internalType": "uint256",
                  "name": "joinerFleetId",
                  "type": "uint256"
                },
                {
                  "internalType": "bool",
                  "name": "creatorGoesFirst",
                  "type": "bool"
                },
                {
                  "internalType": "uint256",
                  "name": "startedAt",
                  "type": "uint256"
                },
                {
                  "internalType": "address",
                  "name": "winner",
                  "type": "address"
                }
              ],
              "internalType": "struct GameMetadata",
              "name": "metadata",
              "type": "tuple"
            },
            {
              "components": [
                {
                  "internalType": "address",
                  "name": "currentTurn",
                  "type": "address"
                },
                {
                  "internalType": "uint256",
                  "name": "turnTime",
                  "type": "uint256"
                },
                {
                  "internalType": "uint256",
                  "name": "turnStartTime",
                  "type": "uint256"
                },
                {
                  "internalType": "uint256",
                  "name": "currentRound",
                  "type": "uint256"
                }
              ],
              "internalType": "struct GameTurnState",
              "name": "turnState",
              "type": "tuple"
            },
            {
              "components": [
                {
                  "internalType": "int16",
                  "name": "gridWidth",
                  "type": "int16"
                },
                {
                  "internalType": "int16",
                  "name": "gridHeight",
                  "type": "int16"
                }
              ],
              "internalType": "struct GameGridDimensions",
              "name": "gridDimensions",
              "type": "tuple"
            },
            {
              "internalType": "uint256",
              "name": "maxScore",
              "type": "uint256"
            },
            {
              "internalType": "uint256",
              "name": "creatorScore",
              "type": "uint256"
            },
            {
              "internalType": "uint256",
              "name": "joinerScore",
              "type": "uint256"
            },
            {
              "components": [
                {
                  "internalType": "uint256",
                  "name": "shipId",
                  "type": "uint256"
                },
                {
                  "internalType": "int16",
                  "name": "oldRow",
                  "type": "int16"
                },
                {
                  "internalType": "int16",
                  "name": "oldCol",
                  "type": "int16"
                },
                {
                  "internalType": "int16",
                  "name": "newRow",
                  "type": "int16"
                },
                {
                  "internalType": "int16",
                  "name": "newCol",
                  "type": "int16"
                },
                {
                  "internalType": "enum ActionType",
                  "name": "actionType",
                  "type": "uint8"
                },
                {
                  "internalType": "uint256",
                  "name": "targetShipId",
                  "type": "uint256"
                },
                {
                  "internalType": "uint256",
                  "name": "timestamp",
                  "type": "uint256"
                }
              ],
              "internalType": "struct LastMove",
              "name": "lastMove",
              "type": "tuple"
            },
            {
              "internalType": "uint256[]",
              "name": "shipIds",
              "type": "uint256[]"
            },
            {
              "components": [
                {
                  "internalType": "uint16",
                  "name": "version",
                  "type": "uint16"
                },
                {
                  "internalType": "uint8",
                  "name": "range",
                  "type": "uint8"
                },
                {
                  "internalType": "uint8",
                  "name": "gunDamage",
                  "type": "uint8"
                },
                {
                  "internalType": "uint8",
                  "name": "hullPoints",
                  "type": "uint8"
                },
                {
                  "internalType": "uint8",
                  "name": "maxHullPoints",
                  "type": "uint8"
                },
                {
                  "internalType": "uint8",
                  "name": "movement",
                  "type": "uint8"
                },
                {
                  "internalType": "uint8",
                  "name": "damageReduction",
                  "type": "uint8"
                },
                {
                  "internalType": "uint8",
                  "name": "reactorCriticalTimer",
                  "type": "uint8"
                },
                {
                  "internalType": "uint8[]",
                  "name": "statusEffects",
                  "type": "uint8[]"
                }
              ],
              "internalType": "struct Attributes[]",
              "name": "shipAttributes",
              "type": "tuple[]"
            },
            {
              "components": [
                {
                  "internalType": "uint256",
                  "name": "shipId",
                  "type": "uint256"
                },
                {
                  "components": [
                    {
                      "internalType": "int16",
                      "name": "row",
                      "type": "int16"
                    },
                    {
                      "internalType": "int16",
                      "name": "col",
                      "type": "int16"
                    }
                  ],
                  "internalType": "struct Position",
                  "name": "position",
                  "type": "tuple"
                },
                {
                  "internalType": "bool",
                  "name": "isCreator",
                  "type": "bool"
                },
                {
                  "internalType": "uint8",
                  "name": "status",
                  "type": "uint8"
                }
              ],
              "internalType": "struct ShipPosition[]",
              "name": "shipPositions",
              "type": "tuple[]"
            },
            {
              "internalType": "uint256[]",
              "name": "creatorActiveShipIds",
              "type": "uint256[]"
            },
            {
              "internalType": "uint256[]",
              "name": "joinerActiveShipIds",
              "type": "uint256[]"
            },
            {
              "internalType": "uint256[]",
              "name": "creatorMovedShipIds",
              "type": "uint256[]"
            },
            {
              "internalType": "uint256[]",
              "name": "joinerMovedShipIds",
              "type": "uint256[]"
            }
          ],
          "internalType": "struct GameDataView[]",
          "name": "",
          "type": "tuple[]"
        }
      ],
      "stateMutability": "view",
      "type": "function"
    },
    {
      "inputs": [
        {
          "internalType": "uint256[]",
          "name": "_gameIds",
          "type": "uint256[]"
        }
      ],
      "name": "getGamesFromIds",
      "outputs": [
        {
          "components": [
            {
              "components": [
                {
                  "internalType": "uint256",
                  "name": "gameId",
                  "type": "uint256"
                },
                {
                  "internalType": "uint256",
                  "name": "lobbyId",
                  "type": "uint256"
                },
                {
                  "internalType": "address",
                  "name": "creator",
                  "type": "address"
                },
                {
                  "internalType": "address",
                  "name": "joiner",
                  "type": "address"
                },
                {
                  "internalType": "uint256",
                  "name": "creatorFleetId",
                  "type": "uint256"
                },
                {
                  "internalType": "uint256",
                  "name": "joinerFleetId",
                  "type": "uint256"
                },
                {
                  "internalType": "bool",
                  "name": "creatorGoesFirst",
                  "type": "bool"
                },
                {
                  "internalType": "uint256",
                  "name": "startedAt",
                  "type": "uint256"
                },
                {
                  "internalType": "address",
                  "name": "winner",
                  "type": "address"
                }
              ],
              "internalType": "struct GameMetadata",
              "name": "metadata",
              "type": "tuple"
            },
            {
              "components": [
                {
                  "internalType": "address",
                  "name": "currentTurn",
                  "type": "address"
                },
                {
                  "internalType": "uint256",
                  "name": "turnTime",
                  "type": "uint256"
                },
                {
                  "internalType": "uint256",
                  "name": "turnStartTime",
                  "type": "uint256"
                },
                {
                  "internalType": "uint256",
                  "name": "currentRound",
                  "type": "uint256"
                }
              ],
              "internalType": "struct GameTurnState",
              "name": "turnState",
              "type": "tuple"
            },
            {
              "components": [
                {
                  "internalType": "int16",
                  "name": "gridWidth",
                  "type": "int16"
                },
                {
                  "internalType": "int16",
                  "name": "gridHeight",
                  "type": "int16"
                }
              ],
              "internalType": "struct GameGridDimensions",
              "name": "gridDimensions",
              "type": "tuple"
            },
            {
              "internalType": "uint256",
              "name": "maxScore",
              "type": "uint256"
            },
            {
              "internalType": "uint256",
              "name": "creatorScore",
              "type": "uint256"
            },
            {
              "internalType": "uint256",
              "name": "joinerScore",
              "type": "uint256"
            },
            {
              "components": [
                {
                  "internalType": "uint256",
                  "name": "shipId",
                  "type": "uint256"
                },
                {
                  "internalType": "int16",
                  "name": "oldRow",
                  "type": "int16"
                },
                {
                  "internalType": "int16",
                  "name": "oldCol",
                  "type": "int16"
                },
                {
                  "internalType": "int16",
                  "name": "newRow",
                  "type": "int16"
                },
                {
                  "internalType": "int16",
                  "name": "newCol",
                  "type": "int16"
                },
                {
                  "internalType": "enum ActionType",
                  "name": "actionType",
                  "type": "uint8"
                },
                {
                  "internalType": "uint256",
                  "name": "targetShipId",
                  "type": "uint256"
                },
                {
                  "internalType": "uint256",
                  "name": "timestamp",
                  "type": "uint256"
                }
              ],
              "internalType": "struct LastMove",
              "name": "lastMove",
              "type": "tuple"
            },
            {
              "internalType": "uint256[]",
              "name": "shipIds",
              "type": "uint256[]"
            },
            {
              "components": [
                {
                  "internalType": "uint16",
                  "name": "version",
                  "type": "uint16"
                },
                {
                  "internalType": "uint8",
                  "name": "range",
                  "type": "uint8"
                },
                {
                  "internalType": "uint8",
                  "name": "gunDamage",
                  "type": "uint8"
                },
                {
                  "internalType": "uint8",
                  "name": "hullPoints",
                  "type": "uint8"
                },
                {
                  "internalType": "uint8",
                  "name": "maxHullPoints",
                  "type": "uint8"
                },
                {
                  "internalType": "uint8",
                  "name": "movement",
                  "type": "uint8"
                },
                {
                  "internalType": "uint8",
                  "name": "damageReduction",
                  "type": "uint8"
                },
                {
                  "internalType": "uint8",
                  "name": "reactorCriticalTimer",
                  "type": "uint8"
                },
                {
                  "internalType": "uint8[]",
                  "name": "statusEffects",
                  "type": "uint8[]"
                }
              ],
              "internalType": "struct Attributes[]",
              "name": "shipAttributes",
              "type": "tuple[]"
            },
            {
              "components": [
                {
                  "internalType": "uint256",
                  "name": "shipId",
                  "type": "uint256"
                },
                {
                  "components": [
                    {
                      "internalType": "int16",
                      "name": "row",
                      "type": "int16"
                    },
                    {
                      "internalType": "int16",
                      "name": "col",
                      "type": "int16"
                    }
                  ],
                  "internalType": "struct Position",
                  "name": "position",
                  "type": "tuple"
                },
                {
                  "internalType": "bool",
                  "name": "isCreator",
                  "type": "bool"
                },
                {
                  "internalType": "uint8",
                  "name": "status",
                  "type": "uint8"
                }
              ],
              "internalType": "struct ShipPosition[]",
              "name": "shipPositions",
              "type": "tuple[]"
            },
            {
              "internalType": "uint256[]",
              "name": "creatorActiveShipIds",
              "type": "uint256[]"
            },
            {
              "internalType": "uint256[]",
              "name": "joinerActiveShipIds",
              "type": "uint256[]"
            },
            {
              "internalType": "uint256[]",
              "name": "creatorMovedShipIds",
              "type": "uint256[]"
            },
            {
              "internalType": "uint256[]",
              "name": "joinerMovedShipIds",
              "type": "uint256[]"
            }
          ],
          "internalType": "struct GameDataView[]",
          "name": "",
          "type": "tuple[]"
        }
      ],
      "stateMutability": "view",
      "type": "function"
    },
    {
      "inputs": [
        {
          "internalType": "uint256",
          "name": "_gameId",
          "type": "uint256"
        },
        {
          "internalType": "uint256",
          "name": "_shipId",
          "type": "uint256"
        }
      ],
      "name": "getShipAttributes",
      "outputs": [
        {
          "components": [
            {
              "internalType": "uint16",
              "name": "version",
              "type": "uint16"
            },
            {
              "internalType": "uint8",
              "name": "range",
              "type": "uint8"
            },
            {
              "internalType": "uint8",
              "name": "gunDamage",
              "type": "uint8"
            },
            {
              "internalType": "uint8",
              "name": "hullPoints",
              "type": "uint8"
            },
            {
              "internalType": "uint8",
              "name": "maxHullPoints",
              "type": "uint8"
            },
            {
              "internalType": "uint8",
              "name": "movement",
              "type": "uint8"
            },
            {
              "internalType": "uint8",
              "name": "damageReduction",
              "type": "uint8"
            },
            {
              "internalType": "uint8",
              "name": "reactorCriticalTimer",
              "type": "uint8"
            },
            {
              "internalType": "uint8[]",
              "name": "statusEffects",
              "type": "uint8[]"
            }
          ],
          "internalType": "struct Attributes",
          "name": "",
          "type": "tuple"
        }
      ],
      "stateMutability": "view",
      "type": "function"
    },
    {
      "inputs": [
        {
          "internalType": "uint256",
          "name": "target",
          "type": "uint256"
        }
      ],
      "name": "lastDamage",
      "outputs": [
        {
          "internalType": "uint256",
          "name": "lastDamager",
          "type": "uint256"
        }
      ],
      "stateMutability": "view",
      "type": "function"
    },
    {
      "inputs": [],
      "name": "lobbiesAddress",
      "outputs": [
        {
          "internalType": "address",
          "name": "",
          "type": "address"
        }
      ],
      "stateMutability": "view",
      "type": "function"
    },
    {
      "inputs": [],
      "name": "maps",
      "outputs": [
        {
          "internalType": "contract IMaps",
          "name": "",
          "type": "address"
        }
      ],
      "stateMutability": "view",
      "type": "function"
    },
    {
      "inputs": [
        {
          "internalType": "uint256",
          "name": "_gameId",
          "type": "uint256"
        },
        {
          "internalType": "uint256",
          "name": "_shipId",
          "type": "uint256"
        },
        {
          "internalType": "int16",
          "name": "_newRow",
          "type": "int16"
        },
        {
          "internalType": "int16",
          "name": "_newCol",
          "type": "int16"
        },
        {
          "internalType": "enum ActionType",
          "name": "actionType",
          "type": "uint8"
        },
        {
          "internalType": "uint256",
          "name": "targetShipId",
          "type": "uint256"
        }
      ],
      "name": "moveShip",
      "outputs": [],
      "stateMutability": "nonpayable",
      "type": "function"
    },
    {
      "inputs": [],
      "name": "owner",
      "outputs": [
        {
          "internalType": "address",
          "name": "",
          "type": "address"
        }
      ],
      "stateMutability": "view",
      "type": "function"
    },
    {
      "inputs": [
        {
          "internalType": "address",
          "name": "",
          "type": "address"
        },
        {
          "internalType": "uint256",
          "name": "",
          "type": "uint256"
        }
      ],
      "name": "playerGames",
      "outputs": [
        {
          "internalType": "uint256",
          "name": "",
          "type": "uint256"
        }
      ],
      "stateMutability": "view",
      "type": "function"
    },
    {
      "inputs": [],
      "name": "renounceOwnership",
      "outputs": [],
      "stateMutability": "nonpayable",
      "type": "function"
    },
    {
      "inputs": [
        {
          "internalType": "address",
          "name": "_mapsAddress",
          "type": "address"
        },
        {
          "internalType": "address",
          "name": "_lobbiesAddress",
          "type": "address"
        },
        {
          "internalType": "address",
          "name": "_fleetsAddress",
          "type": "address"
        },
        {
          "internalType": "address",
          "name": "_gameResultsAddress",
          "type": "address"
        },
        {
          "internalType": "address",
          "name": "_shipAttributesAddress",
          "type": "address"
        }
      ],
      "name": "setAddresses",
      "outputs": [],
      "stateMutability": "nonpayable",
      "type": "function"
    },
    {
      "inputs": [],
      "name": "shipAttributes",
      "outputs": [
        {
          "internalType": "contract IShipAttributes",
          "name": "",
          "type": "address"
        }
      ],
      "stateMutability": "view",
      "type": "function"
    },
    {
      "inputs": [],
      "name": "ships",
      "outputs": [
        {
          "internalType": "contract IShips",
          "name": "",
          "type": "address"
        }
      ],
      "stateMutability": "view",
      "type": "function"
    },
    {
      "inputs": [
        {
          "internalType": "uint256",
          "name": "_lobbyId",
          "type": "uint256"
        },
        {
          "internalType": "address",
          "name": "_creator",
          "type": "address"
        },
        {
          "internalType": "address",
          "name": "_joiner",
          "type": "address"
        },
        {
          "internalType": "uint256",
          "name": "_creatorFleetId",
          "type": "uint256"
        },
        {
          "internalType": "uint256",
          "name": "_joinerFleetId",
          "type": "uint256"
        },
        {
          "internalType": "bool",
          "name": "_creatorGoesFirst",
          "type": "bool"
        },
        {
          "internalType": "uint256",
          "name": "_turnTime",
          "type": "uint256"
        },
        {
          "internalType": "uint256",
          "name": "_selectedMapId",
          "type": "uint256"
        },
        {
          "internalType": "uint256",
          "name": "_maxScore",
          "type": "uint256"
        }
      ],
      "name": "startGame",
      "outputs": [],
      "stateMutability": "nonpayable",
      "type": "function"
    },
    {
      "inputs": [
        {
          "internalType": "address",
          "name": "newOwner",
          "type": "address"
        }
      ],
      "name": "transferOwnership",
      "outputs": [],
      "stateMutability": "nonpayable",
      "type": "function"
    }
  ],
  "bytecode": "0x608060405234801561001057600080fd5b5060405161610d38038061610d83398101604081905261002f916100fc565b338061005557604051631e4fbdf760e01b81526000600482015260240160405180910390fd5b61005e81610090565b50600180546001600160a01b039384166001600160a01b0319918216179091556003805492909316911617905561012f565b600080546001600160a01b038381166001600160a01b0319831681178455604051919092169283917f8be0079c531659141344cd1fd0a4f28419497f9722a3daafe3b4186f6b6457e09190a35050565b80516001600160a01b03811681146100f757600080fd5b919050565b6000806040838503121561010f57600080fd5b610118836100e0565b9150610126602084016100e0565b90509250929050565b615fcf8061013e6000396000f3fe608060405234801561001057600080fd5b50600436106101cf5760003560e01c8063566adcd01161010457806390de1d9b116100a2578063beaa8fa411610071578063beaa8fa414610403578063ce720bca14610416578063e8d64aee14610429578063f2fde38b1461043c57600080fd5b806390de1d9b1461039d5780639c91fe67146103bd578063a2f77bcc146103d0578063bbf8218a146103f057600080fd5b8063715018a6116100de578063715018a61461035e5780637c767cb91461036657806384cb37ea146103795780638da5cb5b1461038c57600080fd5b8063566adcd0146103185780635dd68acd146103385780636eb0f9d21461034b57600080fd5b80633deaec2b1161017157806348915d911161014b57806348915d91146102e15780634bf11ad2146102f45780634d1975b4146102fc57806355cebda81461030557600080fd5b80633deaec2b1461029b57806341f5f5e9146102ae578063423bb46f146102c157600080fd5b806318d7261d116101ad57806318d7261d1461022f5780631b8c9e9014610242578063235e78eb14610255578063336d7d7b1461027057600080fd5b80630a5694c2146101d45780630aa1b266146101fa578063100017cb1461021a575b600080fd5b6101e76101e2366004614cc7565b61044f565b6040519081526020015b60405180910390f35b61020d610208366004614cf3565b610480565b6040516101f1919061517c565b61022d6102283660046151e1565b610504565b005b61022d61023d3660046151e1565b610592565b61022d610250366004615203565b6105c5565b61025d601181565b60405160019190910b81526020016101f1565b600554610283906001600160a01b031681565b6040516001600160a01b0390911681526020016101f1565b600454610283906001600160a01b031681565b600354610283906001600160a01b031681565b6102d46102cf3660046151e1565b6106c1565b6040516101f1919061521c565b600254610283906001600160a01b031681565b61025d600b81565b6101e760085481565b61022d6103133660046151e1565b610812565b61032b610326366004615203565b610986565b6040516101f1919061522f565b61022d610346366004615242565b610d19565b61020d610359366004615418565b610d80565b61022d610e33565b61022d61037436600461545b565b610e47565b61022d610387366004615203565b610efe565b6000546001600160a01b0316610283565b6101e76103ab366004615203565b600a6020526000908152604090205481565b61022d6103cb3660046154a5565b610ff6565b6103e36103de366004615203565b61102d565b6040516101f191906154eb565b600154610283906001600160a01b031681565b61022d6104113660046154fe565b611797565b600654610283906001600160a01b031681565b61022d610437366004615577565b611ef3565b61022d61044a366004614cf3565b61219b565b6009602052816000526040600020818154811061046b57600080fd5b90600052602060002001600091509150505481565b60606104fe60096000846001600160a01b03166001600160a01b031681526020019081526020016000208054806020026020016040519081016040528092919081815260200182805480156104f457602002820191906000526020600020905b8154815260200190600101908083116104e0575b5050505050610d80565b92915050565b61050c6121de565b600154604051634025b22d60e01b8152600481018390526000916001600160a01b031690634025b22d90602401600060405180830381865afa158015610556573d6000803e3d6000fd5b505050506040513d6000823e601f3d908101601f1916820160405261057e91908101906158a0565b905061058d838360008461220b565b505050565b61059a6121de565b60008281526007602052604090206105b283836125d3565b6105bf816018018361260e565b50505050565b6105ce81612621565b6105d78161264f565b6105f45760405163023e733b60e61b815260040160405180910390fd5b600081815260076020526040902060098101546001600160a01b0316330361062f576040516321e08b4d60e21b815260040160405180910390fd5b60028101546001600160a01b03163314801590610659575060038101546001600160a01b03163314155b156106775760405163218286cb60e11b815260040160405180910390fd5b600981015461069290839033906001600160a01b031661267a565b60405182907f6a3ca207a2adb9eea136eff413ec2c22f745a146fe60eed5f593fbacb99347d390600090a25050565b6106c96148f0565b6106d283612621565b600083815260076020908152604080832085845260150190915281208054909161ffff9091169003610717576040516303c113ad60e61b815260040160405180910390fd5b6040805161012081018252825461ffff8116825260ff620100008204811660208085019190915263010000008304821684860152600160201b830482166060850152600160281b830482166080850152600160301b8304821660a0850152600160381b8304821660c0850152600160401b9092041660e08301526001840180548451818402810184019095528085529293859361010086019391929183018282801561080057602002820191906000526020600020906000905b825461010083900a900460ff168152602060019283018181049485019490930390920291018084116107d15790505b50505050508152505091505092915050565b600082815260076020908152604080832084845260158101909252808320600354915163e197c62760e01b8152600481018690529293909290916001600160a01b03169063e197c62790602401600060405180830381865afa15801561087c573d6000803e3d6000fd5b505050506040513d6000823e601f3d908101601f191682016040526108a49190810190615a36565b8051835460208084015160408501516060860151608087015160a088015160c089015160ff908116600160381b0267ff0000000000000019928216600160301b0266ff00000000000019948316600160281b029490941666ffff000000000019958316600160201b0264ff00000000199784166301000000029790971664ffff0000001993909816620100000262ffffff19909a1661ffff909b169a909a179890981716949094179290921716949094179390931792909216178455610100820151805192935061097e926001860192919091019061493e565b505050505050565b606061099182612621565b600082815260076020526040812090805b600b600182900b1215610a805760005b6011600182900b1215610a7757600182810b600090815260168601602090815260408083209385900b835292905220548015801590610a5b5750600154604051639596010160e01b8152600481018390526001600160a01b0390911690639596010190602401602060405180830381865afa158015610a35573d6000803e3d6000fd5b505050506040513d601f19601f82011682018060405250810190610a599190615b30565b155b15610a6e5783610a6a81615b63565b9450505b506001016109b2565b506001016109a2565b50601d820154610a909082615b7c565b90506000816001600160401b03811115610aac57610aac6152b3565b604051908082528060200260200182016040528015610ae557816020015b610ad26149e4565b815260200190600190039081610aca5790505b5090506000805b600b600182900b1215610c385760005b6011600182900b1215610c2f57600182810b600090815260168801602090815260408083209385900b835292905220548015801590610ba55750600154604051639596010160e01b8152600481018390526001600160a01b0390911690639596010190602401602060405180830381865afa158015610b7f573d6000803e3d6000fd5b505050506040513d601f19601f82011682018060405250810190610ba39190615b30565b155b15610c26576000610bb68a83612776565b9050604051806080016040528083815260200160405180604001604052808760010b81526020018660010b81525081526020018215158152602001600060ff16815250868681518110610c0b57610c0b615b8f565b60200260200101819052508480610c2190615b63565b955050505b50600101610afc565b50600101610aec565b5060005b601d850154811015610d0e57600085601d018281548110610c5f57610c5f615b8f565b600091825260208083209091015480835260178901825260409283902083516080810185528281528451808601865260018084015480820b8352620100009004900b8186015293810193909352909350918101610cbc8b85612776565b151581526002830154610100900460ff166020909101528551869086908110610ce757610ce7615b8f565b60200260200101819052508380610cfd90615b63565b94505060019092019150610c3c9050565b509095945050505050565b610d216121de565b600480546001600160a01b03199081166001600160a01b03978816179091556005805482169587169590951790945560028054851693861693909317909255600680548416918516919091179055600380549092169216919091179055565b6060600082516001600160401b03811115610d9d57610d9d6152b3565b604051908082528060200260200182016040528015610dd657816020015b610dc3614a2d565b815260200190600190039081610dbb5790505b50905060005b8351811015610e2c57610e07848281518110610dfa57610dfa615b8f565b602002602001015161102d565b828281518110610e1957610e19615b8f565b6020908102919091010152600101610ddc565b5092915050565b610e3b6121de565b610e4560006127b2565b565b610e4f6121de565b6000938452600760209081526040808620858752601781018084528288206001808201805480830b8c526016909501808852868c206201000096879004840b8d528852868c208c90558651808801885299830b808b529890920b8988018181528b8d5294885298518154945161ffff90811690960263ffffffff19909516951694909417929092179092556002909101805461ff00191690559286529181528185209285529190915290912055565b600081815260076020526040902060088101546001600160a01b031615610f38576040516321e08b4d60e21b815260040160405180910390fd5b60028101546001600160a01b03163314801590610f62575060038101546001600160a01b03163314155b15610f805760405163218286cb60e11b815260040160405180910390fd5b60028101546000906001600160a01b03163314610faa5760028201546001600160a01b0316610fb9565b60038201546001600160a01b03165b9050610fc683823361267a565b60405183907f6a3ca207a2adb9eea136eff413ec2c22f745a146fe60eed5f593fbacb99347d390600090a2505050565b60005b815181101561058d576110258383838151811061101857611018615b8f565b6020026020010151610812565b600101610ff9565b611035614a2d565b61103e82612621565b600082815260076020908152604080832060028101546001600160a01b039081168552601c820190935281842060038201549093168452908320909261108383612802565b9050600061109083612802565b90506000815183516110a29190615b7c565b90506000816001600160401b038111156110be576110be6152b3565b6040519080825280602002602001820160405280156110f757816020015b6110e46148f0565b8152602001906001900390816110dc5790505b5090506000826001600160401b03811115611114576111146152b3565b60405190808252806020026020018201604052801561113d578160200160208202803683370190505b50905060005b85518110156112c85788601501600087838151811061116457611164615b8f565b6020908102919091018101518252818101929092526040908101600020815161012081018352815461ffff8116825260ff62010000820481168387015263010000008204811683860152600160201b820481166060840152600160281b820481166080840152600160301b8204811660a0840152600160381b8204811660c0840152600160401b9091041660e08201526001820180548451818702810187019095528085529194929361010086019390929083018282801561126357602002820191906000526020600020906000905b825461010083900a900460ff168152602060019283018181049485019490930390920291018084116112345790505b50505050508152505083828151811061127e5761127e615b8f565b602002602001018190525085818151811061129b5761129b615b8f565b60200260200101518282815181106112b5576112b5615b8f565b6020908102919091010152600101611143565b5060005b8451811015611469578860150160008683815181106112ed576112ed615b8f565b6020908102919091018101518252818101929092526040908101600020815161012081018352815461ffff8116825260ff62010000820481168387015263010000008204811683860152600160201b820481166060840152600160281b820481166080840152600160301b8204811660a0840152600160381b8204811660c0840152600160401b9091041660e0820152600182018054845181870281018701909552808552919492936101008601939092908301828280156113ec57602002820191906000526020600020906000905b825461010083900a900460ff168152602060019283018181049485019490930390920291018084116113bd5790505b505050505081525050838288516114039190615b7c565b8151811061141357611413615b8f565b602002602001018190525084818151811061143057611430615b8f565b6020026020010151828288516114469190615b7c565b8151811061145657611456615b8f565b60209081029190910101526001016112cc565b5060006114758b610986565b60028a0154909150600090611494908d906001600160a01b0316612899565b60038b01549091506000906114b3908e906001600160a01b0316612899565b9050604051806101c001604052808c6000016040518061012001604052908160008201548152602001600182015481526020016002820160009054906101000a90046001600160a01b03166001600160a01b03166001600160a01b031681526020016003820160009054906101000a90046001600160a01b03166001600160a01b03166001600160a01b0316815260200160048201548152602001600582015481526020016006820160009054906101000a900460ff16151515158152602001600782015481526020016008820160009054906101000a90046001600160a01b03166001600160a01b03166001600160a01b03168152505081526020018c6009016040518060800160405290816000820160009054906101000a90046001600160a01b03166001600160a01b03166001600160a01b03168152602001600182015481526020016002820154815260200160038201548152505081526020018c600d016040518060400160405290816000820160009054906101000a900460010b60010b60010b81526020016000820160029054906101000a900460010b60010b60010b8152505081526020018c600e015481526020018c600f015481526020018c6010015481526020018c60110160405180610100016040529081600082015481526020016001820160009054906101000a900460010b60010b60010b81526020016001820160029054906101000a900460010b60010b60010b81526020016001820160049054906101000a900460010b60010b60010b81526020016001820160069054906101000a900460010b60010b60010b81526020016001820160089054906101000a900460ff16600581111561172f5761172f614d90565b600581111561174057611740614d90565b8152602001600282015481526020016003820154815250508152602001858152602001868152602001848152602001898152602001888152602001838152602001828152509b505050505050505050505050919050565b6117a086612621565b600086815260076020526040902060088101546001600160a01b0316156117da576040516321e08b4d60e21b815260040160405180910390fd5b60098101546001600160a01b03163314611807576040516321e08b4d60e21b815260040160405180910390fd5b6000611812876129c6565b60a08101519091506001600160a01b0316331461184257604051630b18e5d760e21b815260040160405180910390fd5b60008781526015830160205260409020600285600581111561186657611866614d90565b1415801561187d57508054600160201b900460ff16155b1561189b576040516398586ca160e01b815260040160405180910390fd5b60025460048481015460405162b5e41160e51b815291820152602481018a90526001600160a01b03909116906316bc822090604401602060405180830381865afa1580156118ed573d6000803e3d6000fd5b505050506040513d601f19601f820116820180604052508101906119119190615b30565b1580156119995750600254600584015460405162b5e41160e51b81526001600160a01b03909216916316bc822091611956918c90600401918252602082015260400190565b602060405180830381865afa158015611973573d6000803e3d6000fd5b505050506040513d601f19601f820116820180604052508101906119979190615b30565b155b156119b7576040516303c113ad60e61b815260040160405180910390fd5b60028560058111156119cb576119cb614d90565b141580156119e157506119e18360180189612a8f565b156119ff57604051637d64fb5d60e01b815260040160405180910390fd5b6000888152601784016020526040902060019081018054909181810b91620100009004900b6002886005811115611a3857611a38614d90565b14611c8c57825460018b810b91900b148015611a615750825460018a810b62010000909204900b145b611c7d576040805180820182528454600181810b835262010000909104810b60208084019190915283518085019094528d820b8452908c900b90830152600091611aab9190612aa7565b60008d8152601589016020526040902080549192509060ff600160301b90910481169083161115611aef576040516321e08b4d60e21b815260040160405180910390fd5b600b60018d900b121580611b085750601160018c900b12155b15611b265760405163673f032f60e11b815260040160405180910390fd5b60018c810b600090815260168a0160209081526040808320938f900b8352929052205415611b675760405163673f032f60e11b815260040160405180910390fd5b60008860160160008760000160009054906101000a900460010b60010b60010b815260200190815260200160002060008760000160029054906101000a900460010b60010b60010b8152602001908152602001600020819055508c8860160160008e60010b60010b815260200190815260200160002060008d60010b60010b81526020019081526020016000208190555060405180604001604052808d60010b81526020018c60010b8152508860170160008f815260200190815260200160002060010160008201518160000160006101000a81548161ffff021916908360010b61ffff16021790555060208201518160000160026101000a81548161ffff021916908360010b61ffff16021790555090505050505b611c8a866018018c612b3b565b505b611c9c868d8d8d8d8d8d8c612b47565b611ca58c612c0c565b15611cb857611cb38c612c64565b611cc1565b611cc18c613075565b42600b87015560408051610100810182528c8152600184810b602083015283900b918101919091526060810160028a6005811115611d0157611d01614d90565b14611d0c578b611d10565b6000195b60010b815260200160028a6005811115611d2c57611d2c614d90565b14611d37578a611d3b565b6000195b60010b8152602001896005811115611d5557611d55614d90565b815260208082018a905242604092830152825160118a019081559083015160128a018054938501516060860151608087015161ffff908116600160301b0267ffff00000000000019928216600160201b029290921667ffffffff0000000019938216620100000263ffffffff1990981691909516179590951716919091179290921780835560a084015191929068ff00000000000000001916600160401b836005811115611e0557611e05614d90565b021790555060c0820151816002015560e082015181600301559050508b7f8616d884e76378dabf68f6048a294fb93ec62a579068ada00ef52b7b88511c528c848460026005811115611e5957611e59614d90565b8d6005811115611e6b57611e6b614d90565b14611e76578e611e7a565b6000195b60028e6005811115611e8e57611e8e614d90565b14611e99578e611e9d565b6000195b8e8e604051611eb29796959493929190615ba5565b60405180910390a26040518c907f6a3ca207a2adb9eea136eff413ec2c22f745a146fe60eed5f593fbacb99347d390600090a2505050505050505050505050565b6005546001600160a01b03163314611f1e57604051638671306560e01b815260040160405180910390fd5b60088054906000611f2e83615b63565b90915550506008546000818152600760208190526040909120918255600182018b90556002820180546001600160a01b03808d166001600160a01b031992831617909255600384018054928c1692909116919091179055600482018890556005820187905560068201805487151560ff19909116179055429082015584611fb55787611fb7565b885b6009820180546001600160a01b0319166001600160a01b0392909216919091179055600a810184905542600b8201556001600c820155600d8101805463ffffffff1916620b0011179055600e810182905582156120735760048054600854604051636a5257fd60e11b815292830152602482018590526001600160a01b03169063d4a4affa90604401600060405180830381600087803b15801561205a57600080fd5b505af115801561206e573d6000803e3d6000fd5b505050505b6120806008548888613190565b61208d6008548888613363565b600854600090815260076020908152604080832060038101546001600160a01b03168452601c81019092529091206120c490613524565b60028201546001600160a01b03166000908152601c8301602052604090206120eb90613524565b6120f59190615b7c565b601e8201556000601f82018190556001600160a01b038b8116808352600960209081526040808520600880548254600180820185559389528589200155948f16808752828720865481549384018255908852968490209091019590955592548351928352908201939093528d92917f9f0b80476ce7b05cfe8b0800d21f0b0f2704c8eb948fa5d5e87997ec901f96d1910160405180910390a35050505050505050505050565b6121a36121de565b6001600160a01b0381166121d257604051631e4fbdf760e01b8152600060048201526024015b60405180910390fd5b6121db816127b2565b50565b6000546001600160a01b03163314610e455760405163118cdaa760e01b81523360048201526024016121c9565b61221484612621565b6000848152600760205260409020608082015161010001511561224a576040516398586ca160e01b815260040160405180910390fd5b60025460048281015460405162b5e41160e51b815291820152602481018690526000916001600160a01b0316906316bc822090604401602060405180830381865afa15801561229d573d6000803e3d6000fd5b505050506040513d601f19601f820116820180604052508101906122c19190615b30565b600254600584015460405162b5e41160e51b81529293506000926001600160a01b03909216916316bc822091612304918a90600401918252602082015260400190565b602060405180830381865afa158015612321573d6000803e3d6000fd5b505050506040513d601f19601f820116820180604052508101906123459190615b30565b905081158015612353575080155b15612371576040516303c113ad60e61b815260040160405180910390fd5b6000868152601784016020908152604080832060018082015480820b86526016890185528386206201000090910490910b85529092528220919091556123ba601885018861260e565b506123c884601a018861260e565b50601f840180549060006123db83615b63565b9091555050601d840180546001810182556000918252602090912001879055821561246d576002546004858101546040516327ffe52160e01b815291820152602481018990526001600160a01b03909116906327ffe52190604401600060405180830381600087803b15801561245057600080fd5b505af1158015612464573d6000803e3d6000fd5b505050506124de565b60025460058501546040516327ffe52160e01b81526001600160a01b03909216916327ffe521916124ab918b90600401918252602082015260400190565b600060405180830381600087803b1580156124c557600080fd5b505af11580156124d9573d6000803e3d6000fd5b505050505b856124ea5760016124ed565b60025b60028201805460ff929092166101000261ff001990921691909117905560008781526015850160205260408120805468ffffffffffffffffff19168155906125386001830182614b5a565b5050856125b6576001546000888152600a6020526040908190205490516311a960cd60e01b8152600481018a905260248101919091526001600160a01b03909116906311a960cd90604401600060405180830381600087803b15801561259d57600080fd5b505af11580156125b1573d6000803e3d6000fd5b505050505b6125c0888861352e565b6125c98861358c565b5050505050505050565b6000828152600760208181526040808420858552601581018352908420805464ff0000000019169055928590525261058d90601a0182612b3b565b600061261a8383613618565b9392505050565b60008181526007602052604081205490036121db576040516309b3c62760e21b815260040160405180910390fd5b6000818152600760205260408120600a810154600b8201546126719190615b7c565b42119392505050565b60008381526007602052604090206008810180546001600160a01b0319166001600160a01b038516908117909155158015906126c057506006546001600160a01b031615155b156127345760065460405163d6c6eb9f60e01b8152600481018690526001600160a01b03858116602483015284811660448301529091169063d6c6eb9f90606401600060405180830381600087803b15801561271b57600080fd5b505af115801561272f573d6000803e3d6000fd5b505050505b600281015460048201546127559186916001600160a01b039091169061370b565b600381015460058201546105bf9186916001600160a01b039091169061370b565b600082815260076020908152604080832060028101546001600160a01b03168452601c810190925282206127aa9084612a8f565b949350505050565b600080546001600160a01b038381166001600160a01b0319831681178455604051919092169283917f8be0079c531659141344cd1fd0a4f28419497f9722a3daafe3b4186f6b6457e09190a35050565b6060600061280f83613524565b90506000816001600160401b0381111561282b5761282b6152b3565b604051908082528060200260200182016040528015612854578160200160208202803683370190505b50905060005b828110156128915761286c85826137c8565b82828151811061287e5761287e615b8f565b602090810291909101015260010161285a565b509392505050565b60008281526007602090815260408083206001600160a01b0385168452601c81019092528220606092806128cc83613524565b905060005b818110156129105760006128e585836137c8565b90506128f48660180182612a8f565b15612907578361290381615b63565b9450505b506001016128d1565b506000826001600160401b0381111561292b5761292b6152b3565b604051908082528060200260200182016040528015612954578160200160208202803683370190505b5090506000805b838110156129b857600061296f87836137c8565b905061297e8860180182612a8f565b156129af578084848151811061299657612996615b8f565b6020908102919091010152826129ab81615b63565b9350505b5060010161295b565b509098975050505050505050565b6129ce614b7f565b600154604051634025b22d60e01b8152600481018490526000916001600160a01b031690634025b22d90602401600060405180830381865afa158015612a18573d6000803e3d6000fd5b505050506040513d6000823e601f3d908101601f19168201604052612a4091908101906158a0565b90508060200151600003612a67576040516303c113ad60e61b815260040160405180910390fd5b60808101516101000151156104fe576040516398586ca160e01b815260040160405180910390fd5b6000818152600183016020526040812054151561261a565b600080826000015160010b846000015160010b13612ad25783518351612acd9190615bed565b612ae0565b82518451612ae09190615bed565b90506000836020015160010b856020015160010b13612b125784602001518460200151612b0d9190615bed565b612b26565b83602001518560200151612b269190615bed565b9050612b328183615c10565b95945050505050565b600061261a83836137d4565b6000836005811115612b5b57612b5b614d90565b146125c9576001836005811115612b7457612b74614d90565b03612b8d57612b8888888888888787613823565b6125c9565b6002836005811115612ba157612ba1614d90565b03612bb357612b88878760018461220b565b6003836005811115612bc757612bc7614d90565b03612be5576040516321e08b4d60e21b815260040160405180910390fd5b6004836005811115612bf957612bf9614d90565b036125c9576125c9878787878686613b16565b600081815260076020526040812081612c2760188301613524565b90506000612c3783601a01613524565b905082601e015483601f01548284612c4f9190615b7c565b612c599190615b7c565b101595945050505050565b60008181526007602052604080822060048054925163d0bc9bbb60e01b81529081018590529092916001600160a01b03169063d0bc9bbb90602401600060405180830381865afa158015612cbc573d6000803e3d6000fd5b505050506040513d6000823e601f3d908101601f19168201604052612ce49190810190615cc3565b80519092509050600080805b83811015612e57576000858281518110612d0c57612d0c615b8f565b6020908102919091018101518051600190810b600090815260168b01845260408082208486015190930b82529190935282205490925090819003612d51575050612e4f565b6000818152601589016020526040812054600160201b900460ff169003612d79575050612e4f565b6004805483516020850151604051630349370d60e41b81529384018d9052600191820b6024850152900b60448301526000916001600160a01b039091169063349370d0906064016020604051808303816000875af1158015612ddf573d6000803e3d6000fd5b505050506040513d601f19601f82011682018060405250810190612e039190615de2565b90508060ff16600003612e1857505050612e4f565b612e228a83612776565b15612e3b57612e3460ff821687615b7c565b9550612e4b565b612e4860ff821686615b7c565b94505b5050505b600101612cf0565b506000821180612e675750600081115b15612f38578185600f016000828254612e809190615b7c565b9250508190555080856010016000828254612e9b9190615b7c565b9091555050600e850154600f860154101580612ebf575084600e0154856010015410155b15612f3857846010015485600f015403612ee457612edf8660008061267a565b61097e565b846010015485600f01541115612f165760028501546003860154612edf9188916001600160a01b03918216911661267a565b6003850154600286015461097e9188916001600160a01b03918216911661267a565b600c85018054906000612f4a83615b63565b9190505550612f5b85601801613cab565b6000601f860181905560038601546001600160a01b03168152601c860160205260409020612f8890613524565b60028601546001600160a01b03166000908152601c870160205260409020612faf90613524565b612fb99190615b7c565b601e860155612fc786613cb4565b600685015460009060ff16612fe95760038601546001600160a01b0316612ff8565b60028601546001600160a01b03165b600687015490915060009060ff1661301d5760028701546001600160a01b031661302c565b60038701546001600160a01b03165b905086600901600301546001166001146130465780613048565b815b60099790970180546001600160a01b0319166001600160a01b039098169790971790965550505050505050565b6000818152600760205260409020600281015460098201546001600160a01b039182169116036131175760038101546000906130bb9084906001600160a01b0316613e93565b60028301549091506000906130da9085906001600160a01b0316613f27565b905081806130e6575080155b156105bf5760038301546009840180546001600160a01b0319166001600160a01b0390921691909117905550505050565b60028101546000906131339084906001600160a01b0316613e93565b60038301549091506000906131529085906001600160a01b0316613f27565b9050818061315e575080155b156105bf5760028301546009840180546001600160a01b0319166001600160a01b0390921691909117905550505b5050565b60008381526007602052604080822060025491516348eef38560e11b8152600481018690529092916001600160a01b0316906391dde70a90602401600060405180830381865afa1580156131e8573d6000803e3d6000fd5b505050506040513d6000823e601f3d908101601f191682016040526132109190810190615dfd565b50905060005b81518110156132825760028301546001600160a01b03166000908152601c8401602052604090208251613263919084908490811061325657613256615b8f565b6020026020010151612b3b565b5061327a8683838151811061101857611018615b8f565b600101613216565b506002546040516348eef38560e11b8152600481018590526000916001600160a01b0316906391dde70a90602401600060405180830381865afa1580156132cd573d6000803e3d6000fd5b505050506040513d6000823e601f3d908101601f191682016040526132f59190810190615dfd565b50905060005b815181101561335a5760038401546001600160a01b03166000908152601c850160205260409020825161333b919084908490811061325657613256615b8f565b506133528783838151811061101857611018615b8f565b6001016132fb565b50505050505050565b6002546040516348eef38560e11b81526004810184905260009182916001600160a01b03909116906391dde70a90602401600060405180830381865afa1580156133b1573d6000803e3d6000fd5b505050506040513d6000823e601f3d908101601f191682016040526133d99190810190615dfd565b9150915060005b82518110156134435760008382815181106133fd576133fd615b8f565b60200260200101519050600083838151811061341b5761341b615b8f565b60200260200101519050613439888383600001518460200151613f98565b50506001016133e0565b506002546040516348eef38560e11b81526004810185905260009182916001600160a01b03909116906391dde70a90602401600060405180830381865afa158015613492573d6000803e3d6000fd5b505050506040513d6000823e601f3d908101601f191682016040526134ba9190810190615dfd565b9150915060005b82518110156125c95760008382815181106134de576134de615b8f565b6020026020010151905060008383815181106134fc576134fc615b8f565b6020026020010151905061351a8a8383600001518460200151613f98565b50506001016134c1565b60006104fe825490565b600082815260076020908152604080832060028101546001600160a01b03168452601c8101909252909120613563908361260e565b5060038101546001600160a01b03166000908152601c8201602052604090206105bf908361260e565b600081815260076020526040902060028101546135b39083906001600160a01b03166140fb565b6135d9576003810154600282015461318c9184916001600160a01b03918216911661267a565b60038101546135f29083906001600160a01b03166140fb565b61318c576002810154600382015461318c9184916001600160a01b03918216911661267a565b6000818152600183016020526040812054801561370157600061363c600183615eb5565b855490915060009061365090600190615eb5565b90508082146136b557600086600001828154811061367057613670615b8f565b906000526020600020015490508087600001848154811061369357613693615b8f565b6000918252602080832090910192909255918252600188019052604090208390555b85548690806136c6576136c6615ec8565b6001900381819060005260206000200160009055905585600101600086815260200190815260200160002060009055600193505050506104fe565b60009150506104fe565b60008381526007602090815260408083206001600160a01b0386168452601c81019092528220909161373c82613524565b905060005b8181101561335a57600061375584836137c8565b6002546040516327ffe52160e01b815260048101899052602481018390529192506001600160a01b0316906327ffe52190604401600060405180830381600087803b1580156137a357600080fd5b505af11580156137b7573d6000803e3d6000fd5b505060019093019250613741915050565b600061261a838361416c565b600081815260018301602052604081205461381b575081546001818101845560008481526020808220909301849055845484825282860190935260409020919091556104fe565b5060006104fe565b600061382e836129c6565b90508160a001516001600160a01b03168160a001516001600160a01b03160361386a576040516321e08b4d60e21b815260040160405180910390fd5b604080518082018252600187810b825286810b602080840191909152600087815260178d01825284812085518087019096528301805480850b875262010000900490930b9185019190915291929091906138c5908490612aa7565b60008a815260158d016020526040902080549192509060ff6201000090910481169083161115613908576040516321e08b4d60e21b815260040160405180910390fd5b60018260ff161180156139ad5750600480548454604051638383c99560e01b81529283018e905260018c810b60248501528b810b604485015281810b606485015262010000909104900b60848301526001600160a01b031690638383c9959060a401602060405180830381865afa158015613987573d6000803e3d6000fd5b505050506040513d601f19601f820116820180604052508101906139ab9190615b30565b155b156139cb576040516321e08b4d60e21b815260040160405180910390fd5b600087815260158d016020526040812080549091600160201b90910460ff169003613a55578054600160401b900460ff16816008613a0883615ede565b91906101000a81548160ff021916908360ff1602179055505060038160000160089054906101000a900460ff1660ff1610613a4a57613a4a8c8960008961220b565b50505050505061335a565b8154815460ff6301000000909204821691600160381b9091041660006064613a7d8385615efd565b613a879190615f1a565b613a949060ff8516615f4c565b8454909150600160201b900460ff1661ffff821610613acd57613ab78f8c6125d3565b60008b8152600a602052604090208e9055613b04565b835481908590600490613aeb908490600160201b900460ff16615f66565b92506101000a81548160ff021916908360ff1602179055505b50505050505050505050505050505050565b613b1e614b7f565b60038260400151606001516007811115613b3a57613b3a614d90565b14613b4b57613b48836129c6565b90505b6040820151606001516002816007811115613b6857613b68614d90565b03613bac578260a001516001600160a01b03168260a001516001600160a01b031614613ba7576040516321e08b4d60e21b815260040160405180910390fd5b613bff565b6001816007811115613bc057613bc0614d90565b03613bff578260a001516001600160a01b03168260a001516001600160a01b031603613bff576040516321e08b4d60e21b815260040160405180910390fd5b6003816007811115613c1357613c13614d90565b14613c2557613c258887878785614196565b6002816007811115613c3957613c39614d90565b03613c4857612b8888856142ad565b6001816007811115613c5c57613c5c614d90565b03613c6d57612b88888886856143c0565b6003816007811115613c8157613c81614d90565b03613c9257612b88888888886144c6565b6040516321e08b4d60e21b815260040160405180910390fd5b6121db81614625565b600081815260076020526040812090613ccf601a8301613524565b905060005b818110156105bf576000613ceb84601a01836137c8565b600154604051639596010160e01b8152600481018390529192506001600160a01b031690639596010190602401602060405180830381865afa158015613d35573d6000803e3d6000fd5b505050506040513d601f19601f82011682018060405250810190613d599190615b30565b158015613d7e57506000818152601585016020526040902054600160201b900460ff16155b15613e8057600081815260158501602052604090208054600160401b900460ff16906008613dab83615ede565b82546101009290920a60ff81810219909316918316021790915560008381526015870160205260409020546003600160401b909104909116109050613e8057600154604051634025b22d60e01b8152600481018390526000916001600160a01b031690634025b22d90602401600060405180830381865afa158015613e34573d6000803e3d6000fd5b505050506040513d6000823e601f3d908101601f19168201604052613e5c91908101906158a0565b9050613e6b868360008461220b565b613e7785601a01613524565b93505050613cd4565b81613e8a81615b63565b92505050613cd4565b60008281526007602090815260408083206001600160a01b0385168452601c8101909252822082613ec382613524565b905060005b81811015613f1a576000613edc84836137c8565b9050613ee88882614687565b8015613efe5750613efc8560180182612a8f565b155b15613f11576001955050505050506104fe565b50600101613ec8565b5060009695505050505050565b60008281526007602090815260408083206001600160a01b0385168452601c8101909252822082613f5782613524565b905060005b81811015613f1a576000613f7084836137c8565b9050613f7c8882614687565b15613f8f576001955050505050506104fe565b50600101613f5c565b6000848152600760205260409020600b600184900b121580613fbf57506011600183900b12155b15613fdd5760405163673f032f60e11b815260040160405180910390fd5b600183810b600090815260168301602090815260408083209386900b835292905220541561401e5760405163673f032f60e11b815260040160405180910390fd5b600183810b600081815260168401602090815260408083209487900b808452948252918290208890558151608081018352888152825180840184529384528382019490945283019190915281016140758787612776565b15158152600060209182018190529586526017909201825260409485902081518155818301518051600183018054929095015161ffff908116620100000263ffffffff1990931691161717909255938401516002909101805460609095015160ff166101000261ff00199215159290921661ffff19959095169490941717909255505050565b60008281526007602090815260408083206001600160a01b0385168452601c810190925282208261412b82613524565b905060005b81811015613f1a57600061414484836137c8565b90506141508882614687565b15614163576001955050505050506104fe565b50600101614130565b600082600001828154811061418357614183615b8f565b9060005260206000200154905092915050565b60008581526007602090815260408083208584526017810183528184208251808401845260018a810b825289810b958201959095526003549351636759d30960e11b815292959490910193909290916001600160a01b039091169063ceb3a61290614205908890600401615f7f565b602060405180830381865afa158015614222573d6000803e3d6000fd5b505050506040513d601f19601f820116820180604052508101906142469190615de2565b604080518082019091528454600181810b835262010000909104900b6020820152909150600090614278908490612aa7565b90508160ff168160ff1611156142a1576040516321e08b4d60e21b815260040160405180910390fd5b50505050505050505050565b6000828152600760209081526040808320848452601581019092528083206003549151633387d11760e11b81529293909290916001600160a01b03169063670fa22e906142ff90600290600401615f7f565b602060405180830381865afa15801561431c573d6000803e3d6000fd5b505050506040513d601f19601f820116820180604052508101906143409190615de2565b825490915060009061435d908390600160201b900460ff16615c10565b835490915060ff600160281b9091048116908216111561439b578254600160201b60ff600160281b8304160264ff00000000199091161783556143b3565b825464ff000000001916600160201b60ff8316021783555b61335a84601a018661260e565b6000848152600760209081526040808320858452601581019092528083206003549151633387d11760e11b81529293909290916001600160a01b03169063670fa22e9061441290600190600401615f7f565b602060405180830381865afa15801561442f573d6000803e3d6000fd5b505050506040513d601f19601f820116820180604052508101906144539190615de2565b6000868152600a60205260409020879055825490915081908390600890614485908490600160401b900460ff16615c10565b92506101000a81548160ff021916908360ff16021790555060038260000160089054906101000a900460ff1660ff161061335a5761335a878660008761220b565b600084815260076020526040808220600380549251636759d30960e11b81529193926001600160a01b03169163ceb3a6129161450491600401615f7f565b602060405180830381865afa158015614521573d6000803e3d6000fd5b505050506040513d601f19601f820116820180604052508101906145459190615de2565b60038054604051633387d11760e11b81529293506000926001600160a01b039091169163670fa22e9161457b9190600401615f7f565b602060405180830381865afa158015614598573d6000803e3d6000fd5b505050506040513d601f19601f820116820180604052508101906145bc9190615de2565b60028401546001600160a01b03166000908152601c8501602052604090209091506145f29088908890889088908790879061473e565b60038301546001600160a01b03166000908152601c84016020526040902061335a9088908890889088908790879061473e565b600061462f825490565b905060005b8181101561467f5782600101600084600001838154811061465757614657615b8f565b9060005260206000200154815260200190815260200160002060009055806001019050614634565b505060009055565b6000828152600760205260408082206001549151639596010160e01b81526004810185905290916001600160a01b031690639596010190602401602060405180830381865afa1580156146de573d6000803e3d6000fd5b505050506040513d601f19601f820116820180604052508101906147029190615b30565b8061472557506000838152601582016020526040902054600160201b900460ff16155b156147345760009150506104fe565b5060019392505050565b60008781526007602052604081209061475683613524565b60408051808201909152600189810b825288900b602082015290915060005b828110156148e357600061478986836137c8565b6000818152601787016020908152604080832081518083019092526001908101805480830b845262010000900490910b92820192909252929350916147cf908690612aa7565b90508960ff168160ff16111580156147e757508c8314155b156148d8578c600a600085815260200190815260200160002081905550600087601501600085815260200190815260200160002060000160079054906101000a900460ff16905060648160ff168b60ff166148429190615efd565b61484c9190615f1a565b6148599060ff8c16615f4c565b600085815260158a016020526040902054909a5060ff600160201b9091048116908b16106148905761488b8f856125d3565b6148d6565b6000848152601589016020526040902080548b91906004906148bd908490600160201b900460ff16615f66565b92506101000a81548160ff021916908360ff1602179055505b505b505050600101614775565b5050505050505050505050565b604080516101208101825260008082526020820181905291810182905260608082018390526080820183905260a0820183905260c0820183905260e082019290925261010081019190915290565b82805482825590600052602060002090601f016020900481019282156149d45791602002820160005b838211156149a557835183826101000a81548160ff021916908360ff1602179055509260200192600101602081600001049283019260010302614967565b80156149d25782816101000a81549060ff02191690556001016020816000010492830192600103026149a5565b505b506149e0929150614c9d565b5090565b604051806080016040528060008152602001614a196040518060400160405280600060010b8152602001600060010b81525090565b815260006020820181905260409091015290565b604080516102e08101825260006101c082018181526101e08301829052610200830182905261022083018290526102408301829052610260830182905261028083018290526102a083018290526102c083018290528252825160808101845281815260208082018390528185018390526060820183905280840191909152835180850185528281529081019190915290918201908152602001600081526020016000815260200160008152602001614b23604080516101008101825260008082526020820181905291810182905260608101829052608081018290529060a0820190815260200160008152602001600081525090565b8152602001606081526020016060815260200160608152602001606081526020016060815260200160608152602001606081525090565b50805460008255601f0160209004906000526020600020908101906121db9190614c9d565b6040518060c001604052806060815260200160008152602001614bc36040805160808101909152806000815260200160008152602001600081526020016000905290565b8152602001614c446040805160c0808201835260008083528351610120810185528181526020818101839052948101829052606081018290526080810182905260a0810182905291820181905260e0820181905261010082015290918201908152600060208201819052604082018190526060820181905260809091015290565b8152604080516101208101825260008082526020828101829052928201819052606082018190526080820181905260a0820181905260c0820181905260e082018190526101008201529101908152600060209091015290565b5b808211156149e05760008155600101614c9e565b6001600160a01b03811681146121db57600080fd5b60008060408385031215614cda57600080fd5b8235614ce581614cb2565b946020939093013593505050565b600060208284031215614d0557600080fd5b813561261a81614cb2565b805182526020810151602083015260018060a01b03604082015116604083015260018060a01b0360608201511660608301526080810151608083015260a081015160a083015260c0810151614d6960c084018215159052565b5060e081015160e083015261010081015161058d6101008401826001600160a01b03169052565b634e487b7160e01b600052602160045260246000fd5b60068110614db657614db6614d90565b9052565b80518252602081015160010b6020830152604081015160010b6040830152606081015160010b60608301526080810151614df9608084018260010b9052565b5060a0810151614e0c60a0840182614da6565b5060c0818101519083015260e090810151910152565b600081518084526020840193506020830160005b82811015614e54578151865260209586019590910190600101614e36565b5093949350505050565b600081518084526020840193506020830160005b82811015614e5457815160ff16865260209586019590910190600101614e72565b805161ffff16825260006020820151614eb1602085018260ff169052565b506040820151614ec6604085018260ff169052565b506060820151614edb606085018260ff169052565b506080820151614ef0608085018260ff169052565b5060a0820151614f0560a085018260ff169052565b5060c0820151614f1a60c085018260ff169052565b5060e0820151614f2f60e085018260ff169052565b506101008201516101206101008501526127aa610120850182614e5e565b600082825180855260208501945060208160051b8301016020850160005b83811015614f9d57601f19858403018852614f87838351614e93565b6020988901989093509190910190600101614f6b565b50909695505050505050565b600081518084526020840193506020830160005b82811015614e545781516000815188526020820151614ff260208a0182805160010b8252602081015160010b60208301525050565b505060408101511515606088810191909152015160ff16608087015260a09095019460209190910190600101614fbd565b61502e828251614d10565b60208181015180516001600160a01b0316610120850152808201516101408501526040808201516101608601526060918201516101808601528301518051600190810b6101a087015292015190910b6101c08401528101516101e0830152608081015161020083015260a081015161022083015260c08101516000906150b8610240850182614dba565b5060e08201516104206103408501526150d5610420850182614e22565b90506101008301518482036103608601526150f08282614f4d565b91505061012083015184820361038086015261510c8282614fa9565b9150506101408301518482036103a08601526151288282614e22565b9150506101608301518482036103c08601526151448282614e22565b9150506101808301518482036103e08601526151608282614e22565b9150506101a0830151848203610400860152612b328282614e22565b6000602082016020835280845180835260408501915060408160051b86010192506020860160005b828110156151d557603f198786030184526151c0858351615023565b945060209384019391909101906001016151a4565b50929695505050505050565b600080604083850312156151f457600080fd5b50508035926020909101359150565b60006020828403121561521557600080fd5b5035919050565b60208152600061261a6020830184614e93565b60208152600061261a6020830184614fa9565b600080600080600060a0868803121561525a57600080fd5b853561526581614cb2565b9450602086013561527581614cb2565b9350604086013561528581614cb2565b9250606086013561529581614cb2565b915060808601356152a581614cb2565b809150509295509295909350565b634e487b7160e01b600052604160045260246000fd5b604051608081016001600160401b03811182821017156152eb576152eb6152b3565b60405290565b60405160c081016001600160401b03811182821017156152eb576152eb6152b3565b60405161012081016001600160401b03811182821017156152eb576152eb6152b3565b604080519081016001600160401b03811182821017156152eb576152eb6152b3565b604051601f8201601f191681016001600160401b0381118282101715615380576153806152b3565b604052919050565b60006001600160401b038211156153a1576153a16152b3565b5060051b60200190565b600082601f8301126153bc57600080fd5b81356153cf6153ca82615388565b615358565b8082825260208201915060208360051b8601019250858311156153f157600080fd5b602085015b8381101561540e5780358352602092830192016153f6565b5095945050505050565b60006020828403121561542a57600080fd5b81356001600160401b0381111561544057600080fd5b6127aa848285016153ab565b8060010b81146121db57600080fd5b6000806000806080858703121561547157600080fd5b8435935060208501359250604085013561548a8161544c565b9150606085013561549a8161544c565b939692955090935050565b600080604083850312156154b857600080fd5b8235915060208301356001600160401b038111156154d557600080fd5b6154e1858286016153ab565b9150509250929050565b60208152600061261a6020830184615023565b60008060008060008060c0878903121561551757600080fd5b863595506020870135945060408701356155308161544c565b935060608701356155408161544c565b925060808701356006811061555457600080fd5b9598949750929591949360a090920135925050565b80151581146121db57600080fd5b60008060008060008060008060006101208a8c03121561559657600080fd5b8935985060208a01356155a881614cb2565b975060408a01356155b881614cb2565b965060608a0135955060808a0135945060a08a01356155d681615569565b989b979a5095989497939693955050505060c08201359160e0810135916101009091013590565b600881106121db57600080fd5b60006080828403121561561c57600080fd5b6156246152c9565b90508151615631816155fd565b81526020820151615641816155fd565b60208201526040820151615654816155fd565b60408201526060820151615667816155fd565b606082015292915050565b805161ffff8116811461568457600080fd5b919050565b805160ff8116811461568457600080fd5b60008183036101c08112156156ae57600080fd5b6156b66152f1565b835181529150610120601f19820112156156cf57600080fd5b506156d8615313565b6156e460208401615672565b81526156f260408401615689565b602082015261570360608401615689565b604082015261571460808401615672565b606082015261572560a08401615689565b608082015261573660c08401615689565b60a082015261574760e08401615672565b60c08201526157596101008401615689565b60e082015261576b6101208401615689565b61010082015260208201526157836101408301615672565b60408201526157956101608301615689565b60608201526157a76101808301615689565b60808201526157b96101a08301615689565b60a082015292915050565b805163ffffffff8116811461568457600080fd5b805161568481615569565b600061012082840312156157f657600080fd5b6157fe615313565b9050615809826157c4565b815261581760208301615672565b602082015261582860408301615672565b604082015261583960608301615672565b606082015261584a608083016157d8565b608082015261585b60a083016157d8565b60a082015261586c60c083016157d8565b60c082015261587d60e083016157d8565b60e08201526101009182015191810191909152919050565b805161568481614cb2565b6000602082840312156158b257600080fd5b81516001600160401b038111156158c857600080fd5b82016103c081850312156158db57600080fd5b6158e36152f1565b81516001600160401b038111156158f957600080fd5b8201601f8101861361590a57600080fd5b80516001600160401b03811115615923576159236152b3565b615936601f8201601f1916602001615358565b81815287602083850101111561594b57600080fd5b60005b8281101561596a5760208185018101518383018201520161594e565b5060006020928201830152835283810151908301525061598d856040840161560a565b604082015261599f8560c0840161569a565b60608201526159b28561028084016157e3565b60808201526159c46103a08301615895565b60a0820152949350505050565b600082601f8301126159e257600080fd5b81516159f06153ca82615388565b8082825260208201915060208360051b860101925085831115615a1257600080fd5b602085015b8381101561540e57615a2881615689565b835260209283019201615a17565b600060208284031215615a4857600080fd5b81516001600160401b03811115615a5e57600080fd5b82016101208185031215615a7157600080fd5b615a79615313565b615a8282615672565b8152615a9060208301615689565b6020820152615aa160408301615689565b6040820152615ab260608301615689565b6060820152615ac360808301615689565b6080820152615ad460a08301615689565b60a0820152615ae560c08301615689565b60c0820152615af660e08301615689565b60e08201526101008201516001600160401b03811115615b1557600080fd5b615b21868285016159d1565b61010083015250949350505050565b600060208284031215615b4257600080fd5b815161261a81615569565b634e487b7160e01b600052601160045260246000fd5b600060018201615b7557615b75615b4d565b5060010190565b808201808211156104fe576104fe615b4d565b634e487b7160e01b600052603260045260246000fd5b878152600187810b602083015286810b604083015285810b606083015284900b608082015260e08101615bdb60a0830185614da6565b8260c083015298975050505050505050565b600182810b9082900b03617fff198112617fff821317156104fe576104fe615b4d565b60ff81811683821601908111156104fe576104fe615b4d565b600082601f830112615c3a57600080fd5b8151615c486153ca82615388565b8082825260208201915060208360061b860101925085831115615c6a57600080fd5b602085015b8381101561540e5760408188031215615c8757600080fd5b615c8f615336565b8151615c9a8161544c565b81526020820151615caa8161544c565b6020828101919091529084529290920191604001615c6f565b60008060408385031215615cd657600080fd5b82516001600160401b03811115615cec57600080fd5b615cf885828601615c29565b92505060208301516001600160401b03811115615d1457600080fd5b8301601f81018513615d2557600080fd5b8051615d336153ca82615388565b8082825260208201915060208360071b850101925087831115615d5557600080fd5b6020840193505b82841015615dd45760808489031215615d7457600080fd5b615d7c6152c9565b8451615d878161544c565b81526020850151615d978161544c565b6020820152615da860408601615689565b60408201526060850151615dbb81615569565b6060820152825260809390930192602090910190615d5c565b809450505050509250929050565b600060208284031215615df457600080fd5b61261a82615689565b60008060408385031215615e1057600080fd5b82516001600160401b03811115615e2657600080fd5b8301601f81018513615e3757600080fd5b8051615e456153ca82615388565b8082825260208201915060208360051b850101925087831115615e6757600080fd5b6020840193505b82841015615e89578351825260209384019390910190615e6e565b8095505050505060208301516001600160401b03811115615ea957600080fd5b6154e185828601615c29565b818103818111156104fe576104fe615b4d565b634e487b7160e01b600052603160045260246000fd5b600060ff821660ff8103615ef457615ef4615b4d565b60010192915050565b61ffff8181168382160290811690818114610e2c57610e2c615b4d565b600061ffff831680615f3c57634e487b7160e01b600052601260045260246000fd5b8061ffff84160491505092915050565b61ffff82811682821603908111156104fe576104fe615b4d565b60ff82811682821603908111156104fe576104fe615b4d565b6020810160088310615f9357615f93614d90565b9190529056fea26469706673582212206ae709cc8ab5e8accc8a9beb794a4b54d139bc668f75c26fdd5632b3537b8f7a64736f6c634300081c0033",
  "linkReferences": {},
  "deployedLinkReferences": {}
}