{
  "_format": "hh-sol-artifact-1",
  "contractName": "Fleets",
  "sourceName": "contracts/Fleets.sol",
  "abi": [
    {
      "inputs": [
        {
          "internalType": "address",
          "name": "_ships",
          "type": "address"
        }
      ],
      "stateMutability": "nonpayable",
      "type": "constructor"
    },
    {
      "inputs": [],
      "name": "ArrayLengthMismatch",
      "type": "error"
    },
    {
      "inputs": [],
      "name": "DuplicatePosition",
      "type": "error"
    },
    {
      "inputs": [],
      "name": "FleetNotFound",
      "type": "error"
    },
    {
      "inputs": [],
      "name": "InvalidFleetCost",
      "type": "error"
    },
    {
      "inputs": [],
      "name": "InvalidPosition",
      "type": "error"
    },
    {
      "inputs": [],
      "name": "NotLobbiesContract",
      "type": "error"
    },
    {
      "inputs": [
        {
          "internalType": "address",
          "name": "owner",
          "type": "address"
        }
      ],
      "name": "OwnableInvalidOwner",
      "type": "error"
    },
    {
      "inputs": [
        {
          "internalType": "address",
          "name": "account",
          "type": "address"
        }
      ],
      "name": "OwnableUnauthorizedAccount",
      "type": "error"
    },
    {
      "inputs": [],
      "name": "ShipAlreadyInFleet",
      "type": "error"
    },
    {
      "inputs": [],
      "name": "ShipCostVersionMismatch",
      "type": "error"
    },
    {
      "inputs": [],
      "name": "ShipNotFound",
      "type": "error"
    },
    {
      "inputs": [],
      "name": "ShipNotOwned",
      "type": "error"
    },
    {
      "anonymous": false,
      "inputs": [
        {
          "indexed": true,
          "internalType": "uint256",
          "name": "fleetId",
          "type": "uint256"
        }
      ],
      "name": "FleetCleared",
      "type": "event"
    },
    {
      "anonymous": false,
      "inputs": [
        {
          "indexed": true,
          "internalType": "uint256",
          "name": "fleetId",
          "type": "uint256"
        },
        {
          "indexed": true,
          "internalType": "uint256",
          "name": "lobbyId",
          "type": "uint256"
        },
        {
          "indexed": true,
          "internalType": "address",
          "name": "owner",
          "type": "address"
        }
      ],
      "name": "FleetCreated",
      "type": "event"
    },
    {
      "anonymous": false,
      "inputs": [
        {
          "indexed": true,
          "internalType": "address",
          "name": "previousOwner",
          "type": "address"
        },
        {
          "indexed": true,
          "internalType": "address",
          "name": "newOwner",
          "type": "address"
        }
      ],
      "name": "OwnershipTransferred",
      "type": "event"
    },
    {
      "inputs": [
        {
          "internalType": "uint256",
          "name": "_fleetId",
          "type": "uint256"
        }
      ],
      "name": "clearFleet",
      "outputs": [],
      "stateMutability": "nonpayable",
      "type": "function"
    },
    {
      "inputs": [
        {
          "internalType": "uint256",
          "name": "_lobbyId",
          "type": "uint256"
        },
        {
          "internalType": "address",
          "name": "_owner",
          "type": "address"
        },
        {
          "internalType": "uint256[]",
          "name": "_shipIds",
          "type": "uint256[]"
        },
        {
          "components": [
            {
              "internalType": "int16",
              "name": "row",
              "type": "int16"
            },
            {
              "internalType": "int16",
              "name": "col",
              "type": "int16"
            }
          ],
          "internalType": "struct Position[]",
          "name": "_startingPositions",
          "type": "tuple[]"
        },
        {
          "internalType": "uint256",
          "name": "_costLimit",
          "type": "uint256"
        },
        {
          "internalType": "bool",
          "name": "_isCreator",
          "type": "bool"
        }
      ],
      "name": "createFleet",
      "outputs": [
        {
          "internalType": "uint256",
          "name": "",
          "type": "uint256"
        }
      ],
      "stateMutability": "nonpayable",
      "type": "function"
    },
    {
      "inputs": [],
      "name": "fleetCount",
      "outputs": [
        {
          "internalType": "uint256",
          "name": "",
          "type": "uint256"
        }
      ],
      "stateMutability": "view",
      "type": "function"
    },
    {
      "inputs": [
        {
          "internalType": "uint256",
          "name": "",
          "type": "uint256"
        }
      ],
      "name": "fleets",
      "outputs": [
        {
          "internalType": "uint256",
          "name": "id",
          "type": "uint256"
        },
        {
          "internalType": "uint256",
          "name": "lobbyId",
          "type": "uint256"
        },
        {
          "internalType": "address",
          "name": "owner",
          "type": "address"
        },
        {
          "internalType": "uint256",
          "name": "totalCost",
          "type": "uint256"
        },
        {
          "internalType": "bool",
          "name": "isComplete",
          "type": "bool"
        }
      ],
      "stateMutability": "view",
      "type": "function"
    },
    {
      "inputs": [],
      "name": "gameAddress",
      "outputs": [
        {
          "internalType": "address",
          "name": "",
          "type": "address"
        }
      ],
      "stateMutability": "view",
      "type": "function"
    },
    {
      "inputs": [
        {
          "internalType": "uint256",
          "name": "_fleetId",
          "type": "uint256"
        }
      ],
      "name": "getFleet",
      "outputs": [
        {
          "components": [
            {
              "internalType": "uint256",
              "name": "id",
              "type": "uint256"
            },
            {
              "internalType": "uint256",
              "name": "lobbyId",
              "type": "uint256"
            },
            {
              "internalType": "address",
              "name": "owner",
              "type": "address"
            },
            {
              "internalType": "uint256[]",
              "name": "shipIds",
              "type": "uint256[]"
            },
            {
              "components": [
                {
                  "internalType": "int16",
                  "name": "row",
                  "type": "int16"
                },
                {
                  "internalType": "int16",
                  "name": "col",
                  "type": "int16"
                }
              ],
              "internalType": "struct Position[]",
              "name": "startingPositions",
              "type": "tuple[]"
            },
            {
              "internalType": "uint256",
              "name": "totalCost",
              "type": "uint256"
            },
            {
              "internalType": "bool",
              "name": "isComplete",
              "type": "bool"
            }
          ],
          "internalType": "struct Fleet",
          "name": "",
          "type": "tuple"
        }
      ],
      "stateMutability": "view",
      "type": "function"
    },
    {
      "inputs": [
        {
          "internalType": "uint256",
          "name": "_fleetId",
          "type": "uint256"
        }
      ],
      "name": "getFleetShipIdsAndPositions",
      "outputs": [
        {
          "internalType": "uint256[]",
          "name": "shipIds",
          "type": "uint256[]"
        },
        {
          "components": [
            {
              "internalType": "int16",
              "name": "row",
              "type": "int16"
            },
            {
              "internalType": "int16",
              "name": "col",
              "type": "int16"
            }
          ],
          "internalType": "struct Position[]",
          "name": "startingPositions",
          "type": "tuple[]"
        }
      ],
      "stateMutability": "view",
      "type": "function"
    },
    {
      "inputs": [
        {
          "internalType": "uint256",
          "name": "_fleetId",
          "type": "uint256"
        },
        {
          "internalType": "uint256",
          "name": "_shipId",
          "type": "uint256"
        }
      ],
      "name": "isShipInFleet",
      "outputs": [
        {
          "internalType": "bool",
          "name": "",
          "type": "bool"
        }
      ],
      "stateMutability": "view",
      "type": "function"
    },
    {
      "inputs": [],
      "name": "lobbiesAddress",
      "outputs": [
        {
          "internalType": "address",
          "name": "",
          "type": "address"
        }
      ],
      "stateMutability": "view",
      "type": "function"
    },
    {
      "inputs": [],
      "name": "owner",
      "outputs": [
        {
          "internalType": "address",
          "name": "",
          "type": "address"
        }
      ],
      "stateMutability": "view",
      "type": "function"
    },
    {
      "inputs": [
        {
          "internalType": "uint256",
          "name": "_fleetId",
          "type": "uint256"
        },
        {
          "internalType": "uint256",
          "name": "_shipId",
          "type": "uint256"
        }
      ],
      "name": "removeShipFromFleet",
      "outputs": [],
      "stateMutability": "nonpayable",
      "type": "function"
    },
    {
      "inputs": [],
      "name": "renounceOwnership",
      "outputs": [],
      "stateMutability": "nonpayable",
      "type": "function"
    },
    {
      "inputs": [
        {
          "internalType": "address",
          "name": "_gameAddress",
          "type": "address"
        }
      ],
      "name": "setGameAddress",
      "outputs": [],
      "stateMutability": "nonpayable",
      "type": "function"
    },
    {
      "inputs": [
        {
          "internalType": "address",
          "name": "_lobbiesAddress",
          "type": "address"
        }
      ],
      "name": "setLobbiesAddress",
      "outputs": [],
      "stateMutability": "nonpayable",
      "type": "function"
    },
    {
      "inputs": [
        {
          "internalType": "address",
          "name": "_shipAttributes",
          "type": "address"
        }
      ],
      "name": "setShipAttributes",
      "outputs": [],
      "stateMutability": "nonpayable",
      "type": "function"
    },
    {
      "inputs": [],
      "name": "shipAttributes",
      "outputs": [
        {
          "internalType": "contract IShipAttributes",
          "name": "",
          "type": "address"
        }
      ],
      "stateMutability": "view",
      "type": "function"
    },
    {
      "inputs": [],
      "name": "ships",
      "outputs": [
        {
          "internalType": "contract Ships",
          "name": "",
          "type": "address"
        }
      ],
      "stateMutability": "view",
      "type": "function"
    },
    {
      "inputs": [
        {
          "internalType": "address",
          "name": "newOwner",
          "type": "address"
        }
      ],
      "name": "transferOwnership",
      "outputs": [],
      "stateMutability": "nonpayable",
      "type": "function"
    }
  ],
  "bytecode": "0x608060405234801561001057600080fd5b50604051611da2380380611da283398101604081905261002f916100d4565b338061005557604051631e4fbdf760e01b81526000600482015260240160405180910390fd5b61005e81610084565b50600180546001600160a01b0319166001600160a01b0392909216919091179055610104565b600080546001600160a01b038381166001600160a01b0319831681178455604051919092169283917f8be0079c531659141344cd1fd0a4f28419497f9722a3daafe3b4186f6b6457e09190a35050565b6000602082840312156100e657600080fd5b81516001600160a01b03811681146100fd57600080fd5b9392505050565b611c8f806101136000396000f3fe608060405234801561001057600080fd5b50600436106100e65760003560e01c806316bc8220146100eb57806318fb5fa41461011357806327ffe52114610134578063336d7d7b1461014957806341f5f5e9146101695780634f245eda1461017c5780636808070a14610185578063711953ef14610198578063715018a6146101ab5780638da5cb5b146101b357806391dde70a146101bb578063a168d873146101dc578063b8b4b173146101ef578063bbf8218a14610272578063eab56f7e14610285578063f2bf13b014610298578063f2fde38b146102ab578063f9740c75146102be575b600080fd5b6100fe6100f93660046112ef565b6102de565b60405190151581526020015b60405180910390f35b61012661012136600461138f565b61047c565b60405190815260200161010a565b6101476101423660046112ef565b610a4b565b005b60035461015c906001600160a01b031681565b60405161010a919061146b565b60025461015c906001600160a01b031681565b61012660065481565b61014761019336600461147f565b610cb5565b6101476101a636600461147f565b610cdf565b610147610d09565b61015c610d1d565b6101ce6101c93660046114a3565b610d2c565b60405161010a929190611508565b60045461015c906001600160a01b031681565b61023a6101fd3660046114a3565b600560208190526000918252604090912080546001820154600283015493830154600690930154919390926001600160a01b039091169160ff1685565b6040805195865260208601949094526001600160a01b039092169284019290925260608301919091521515608082015260a00161010a565b60015461015c906001600160a01b031681565b61014761029336600461147f565b610e8f565b6101476102a63660046114a3565b610eb9565b6101476102b936600461147f565b610ff5565b6102d16102cc3660046114a3565b61103c565b60405161010a9190611560565b600082815260056020526040812054810361030c57604051631524e51160e01b815260040160405180910390fd5b6000838152600560209081526040808320815160e0810183528154815260018201548185015260028201546001600160a01b03168184015260038201805484518187028101870190955280855291949293606086019390929083018282801561039457602002820191906000526020600020905b815481526020019060010190808311610380575b5050505050815260200160048201805480602002602001604051908101604052809291908181526020016000905b828210156104045760008481526020908190206040805180820190915290840154600181810b835262010000909104810b8284015290835290920191016103c2565b505050908252506005820154602082015260069091015460ff161515604090910152905060005b81606001515181101561046f57838260600151828151811061044f5761044f61161c565b60200260200101510361046757600192505050610476565b60010161042b565b5060009150505b92915050565b6003546000906001600160a01b031633146104aa57604051638671306560e01b815260040160405180910390fd5b8584146104ca5760405163512509d360e11b815260040160405180910390fd5b60005b848110156105c65760008686838181106104e9576104e961161c565b9050604002018036038101906104ff91906116d2565b90508315610547576000816020015160010b128061052457506003816020015160010b135b156105425760405163673f032f60e11b815260040160405180910390fd5b610582565b600d816020015160010b128061056457506010816020015160010b135b156105825760405163673f032f60e11b815260040160405180910390fd5b6000816000015160010b128061059f5750600a816000015160010b135b156105bd5760405163673f032f60e11b815260040160405180910390fd5b506001016104cd565b5060068054600091826105d883611748565b90915550506006546000818152600560205260409020818155600181018c90556002810180546001600160a01b0319166001600160a01b038d16179055610623600382018b8b611257565b5060005b8781101561067b57816004018989838181106106455761064561161c565b835460018101855560009485526020909420604090910292909201929190910190506106718282611761565b5050600101610627565b5060005b898110156108425760008b8b8381811061069b5761069b61161c565b600154604051634025b22d60e01b815260209290920293909301356004820181905293506000926001600160a01b03169150634025b22d90602401600060405180830381865afa1580156106f3573d6000803e3d6000fd5b505050506040513d6000823e601f3d908101601f1916820160405261071b9190810190611a6c565b90508d6001600160a01b03168160a001516001600160a01b03161461075357604051630b18e5d760e21b815260040160405180910390fd5b806080015160c00151156107795760405162f2f12360e21b815260040160405180910390fd5b600260009054906101000a90046001600160a01b03166001600160a01b0316633130f7ce6040518163ffffffff1660e01b8152600401602060405180830381865afa1580156107cc573d6000803e3d6000fd5b505050506040513d601f19601f820116820180604052508101906107f09190611b9d565b61ffff1681608001516020015161ffff161461081f5760405163524ca82960e11b815260040160405180910390fd5b6080810151604001516108369061ffff1687611bb8565b9550505060010161067f565b508583111561086457604051639451e34760e01b815260040160405180910390fd5b6005810183905560068101805460ff191660011790556108826112a2565b60005b8881101561096e5760008a8a838181106108a1576108a161161c565b9050604002018036038101906108b791906116d2565b90506000816020015160010b826000015160010b60116108d79190611bcb565b6108e19190611bb8565b905060006108f161010083611bf8565b9050600061090161010084611c0c565b90506001811b8683600281106109195761091961161c565b6020020151161561093d5760405163e13355df60e01b815260040160405180910390fd5b6001811b8683600281106109535761095361161c565b60200201805190911790525050600190920191506108859050565b5060005b8a811015610a01576001546001600160a01b0316637eebe99d8d8d8481811061099d5761099d61161c565b9050602002013560016040518363ffffffff1660e01b81526004016109c3929190611c20565b600060405180830381600087803b1580156109dd57600080fd5b505af11580156109f1573d6000803e3d6000fd5b5050600190920191506109729050565b508b6001600160a01b03168d847fc230eb2bb5e08173bc7b7883549c1a71bce5365714bd5bf519f908239dbe801060405160405180910390a450909b9a5050505050505050505050565b6003546001600160a01b03163314801590610a7157506004546001600160a01b03163314155b15610a8f57604051638671306560e01b815260040160405180910390fd5b60008281526005602052604081208054909103610abf57604051631524e51160e01b815260040160405180910390fd5b60005b6003820154811015610c9b5782826003018281548110610ae457610ae461161c565b906000526020600020015403610c9357805b6003830154610b0790600190611c30565b811015610b615760038301610b1d826001611bb8565b81548110610b2d57610b2d61161c565b9060005260206000200154836003018281548110610b4d57610b4d61161c565b600091825260209091200155600101610af6565b5081600301805480610b7557610b75611c43565b6000828152602081208201600019908101829055909101909155600154604051637eebe99d60e01b81526001600160a01b0390911691637eebe99d91610bbf918791600401611c20565b600060405180830381600087803b158015610bd957600080fd5b505af1158015610bed573d6000803e3d6000fd5b5050600154604051634025b22d60e01b815260048101879052600093506001600160a01b039091169150634025b22d90602401600060405180830381865afa158015610c3d573d6000803e3d6000fd5b505050506040513d6000823e601f3d908101601f19168201604052610c659190810190611a6c565b905080608001516040015161ffff16836005016000828254610c879190611c30565b90915550505050505050565b600101610ac2565b506040516303c113ad60e61b815260040160405180910390fd5b610cbd6111d5565b600280546001600160a01b0319166001600160a01b0392909216919091179055565b610ce76111d5565b600480546001600160a01b0319166001600160a01b0392909216919091179055565b610d116111d5565b610d1b6000611207565b565b6000546001600160a01b031690565b60008181526005602052604081205460609182919003610d5f57604051631524e51160e01b815260040160405180910390fd5b6000838152600560209081526040808320815160e0810183528154815260018201548185015260028201546001600160a01b031681840152600382018054845181870281018701909552808552919492936060860193909290830182828015610de757602002820191906000526020600020905b815481526020019060010190808311610dd3575b5050505050815260200160048201805480602002602001604051908101604052809291908181526020016000905b82821015610e575760008481526020908190206040805180820190915290840154600181810b835262010000909104810b828401529083529092019101610e15565b505050908252506005820154602082015260069091015460ff1615156040909101526060810151608090910151909590945092505050565b610e976111d5565b600380546001600160a01b0319166001600160a01b0392909216919091179055565b6003546001600160a01b03163314610ee457604051638671306560e01b815260040160405180910390fd5b60008181526005602052604081208054909103610f1457604051631524e51160e01b815260040160405180910390fd5b60005b6003820154811015610fb7576001546003830180546001600160a01b0390921691637eebe99d919084908110610f4f57610f4f61161c565b906000526020600020015460006040518363ffffffff1660e01b8152600401610f79929190611c20565b600060405180830381600087803b158015610f9357600080fd5b505af1158015610fa7573d6000803e3d6000fd5b505060019092019150610f179050565b50610fc66003820160006112c0565b60405182907f9ff71619d0e9826e43962fb25978600608f9e12936460c6181abde88a4fdbcfc90600090a25050565b610ffd6111d5565b6001600160a01b038116611030576000604051631e4fbdf760e01b8152600401611027919061146b565b60405180910390fd5b61103981611207565b50565b6110876040518060e00160405280600081526020016000815260200160006001600160a01b031681526020016060815260200160608152602001600081526020016000151581525090565b60008281526005602052604081205490036110b557604051631524e51160e01b815260040160405180910390fd5b600082815260056020908152604091829020825160e0810184528154815260018201548184015260028201546001600160a01b031681850152600382018054855181860281018601909652808652919492936060860193929083018282801561113d57602002820191906000526020600020905b815481526020019060010190808311611129575b5050505050815260200160048201805480602002602001604051908101604052809291908181526020016000905b828210156111ad5760008481526020908190206040805180820190915290840154600181810b835262010000909104810b82840152908352909201910161116b565b505050908252506005820154602082015260069091015460ff16151560409091015292915050565b336111de610d1d565b6001600160a01b031614610d1b573360405163118cdaa760e01b8152600401611027919061146b565b600080546001600160a01b038381166001600160a01b0319831681178455604051919092169283917f8be0079c531659141344cd1fd0a4f28419497f9722a3daafe3b4186f6b6457e09190a35050565b828054828255906000526020600020908101928215611292579160200282015b82811115611292578235825591602001919060010190611277565b5061129e9291506112da565b5090565b60405180604001604052806002906020820280368337509192915050565b508054600082559060005260206000209081019061103991905b5b8082111561129e57600081556001016112db565b6000806040838503121561130257600080fd5b50508035926020909101359150565b6001600160a01b038116811461103957600080fd5b60008083601f84011261133857600080fd5b5081356001600160401b0381111561134f57600080fd5b6020830191508360208260061b850101111561136a57600080fd5b9250929050565b801515811461103957600080fd5b803561138a81611371565b919050565b60008060008060008060008060c0898b0312156113ab57600080fd5b8835975060208901356113bd81611311565b965060408901356001600160401b038111156113d857600080fd5b8901601f81018b136113e957600080fd5b80356001600160401b038111156113ff57600080fd5b8b60208260051b840101111561141457600080fd5b6020919091019650945060608901356001600160401b0381111561143757600080fd5b6114438b828c01611326565b9095509350506080890135915061145c60a08a0161137f565b90509295985092959890939650565b6001600160a01b0391909116815260200190565b60006020828403121561149157600080fd5b813561149c81611311565b9392505050565b6000602082840312156114b557600080fd5b5035919050565b600081518084526020840193506020830160005b828110156114fe5781518051600190810b8852602091820151810b82890152604090970196920191016114d0565b5093949350505050565b6040808252835190820181905260009060208501906060840190835b81811015611542578351835260209384019390920191600101611524565b5050838103602085015261155681866114bc565b9695505050505050565b6020815260006101008201835160208401526020840151604084015260018060a01b036040850151166060840152606084015160e0608085015281815180845261012086019150602083019350600092505b808310156115d557835182526020820191506020840193506001830192506115b2565b506080860151858203601f190160a087015292506115f381846114bc565b9250505060a084015160c084015260c084015161161460e085018215159052565b509392505050565b634e487b7160e01b600052603260045260246000fd5b634e487b7160e01b600052604160045260246000fd5b60405160c081016001600160401b038111828210171561166a5761166a611632565b60405290565b60405161012081016001600160401b038111828210171561166a5761166a611632565b604051601f8201601f191681016001600160401b03811182821017156116bb576116bb611632565b604052919050565b8060010b811461103957600080fd5b600060408284031280156116e557600080fd5b50604080519081016001600160401b038111828210171561170857611708611632565b6040528235611716816116c3565b81526020830135611726816116c3565b60208201529392505050565b634e487b7160e01b600052601160045260246000fd5b60006001820161175a5761175a611732565b5060010190565b813561176c816116c3565b815461ffff19811661ffff8316178355602084013561178a816116c3565b8060101b63ffff00001661ffff841663ffffffff198416171784555050505050565b6008811061103957600080fd5b6000608082840312156117cb57600080fd5b604051608081016001600160401b03811182821017156117ed576117ed611632565b80604052508091508251611800816117ac565b81526020830151611810816117ac565b60208201526040830151611823816117ac565b60408201526060830151611836816117ac565b6060919091015292915050565b805161ffff8116811461138a57600080fd5b805160ff8116811461138a57600080fd5b60008183036101c081121561187a57600080fd5b611882611648565b835181529150610120601f198201121561189b57600080fd5b506118a4611670565b6118b060208401611843565b81526118be60408401611855565b60208201526118cf60608401611855565b60408201526118e060808401611843565b60608201526118f160a08401611855565b608082015261190260c08401611855565b60a082015261191360e08401611843565b60c08201526119256101008401611855565b60e08201526119376101208401611855565b610100820152602082015261194f6101408301611843565b60408201526119616101608301611855565b60608201526119736101808301611855565b60808201526119856101a08301611855565b60a082015292915050565b805163ffffffff8116811461138a57600080fd5b805161138a81611371565b600061012082840312156119c257600080fd5b6119ca611670565b90506119d582611990565b81526119e360208301611843565b60208201526119f460408301611843565b6040820152611a0560608301611843565b6060820152611a16608083016119a4565b6080820152611a2760a083016119a4565b60a0820152611a3860c083016119a4565b60c0820152611a4960e083016119a4565b60e08201526101009182015191810191909152919050565b805161138a81611311565b600060208284031215611a7e57600080fd5b81516001600160401b03811115611a9457600080fd5b82016103c08185031215611aa757600080fd5b611aaf611648565b81516001600160401b03811115611ac557600080fd5b8201601f81018613611ad657600080fd5b80516001600160401b03811115611aef57611aef611632565b611b02601f8201601f1916602001611693565b818152876020838501011115611b1757600080fd5b60005b82811015611b3657602081850181015183830182015201611b1a565b50600060209282018301528352838101519083015250611b5985604084016117b9565b6040820152611b6b8560c08401611866565b6060820152611b7e8561028084016119af565b6080820152611b906103a08301611a61565b60a0820152949350505050565b600060208284031215611baf57600080fd5b61149c82611843565b8082018082111561047657610476611732565b808202811582820484141761047657610476611732565b634e487b7160e01b600052601260045260246000fd5b600082611c0757611c07611be2565b500490565b600082611c1b57611c1b611be2565b500690565b9182521515602082015260400190565b8181038181111561047657610476611732565b634e487b7160e01b600052603160045260246000fdfea26469706673582212206fede6e6a4124ff0455aca6d8c04df561d4ab4e206030f5bbd2d4b9a74b47e8064736f6c634300081c0033",
  "linkReferences": {},
  "deployedLinkReferences": {}
}