{
  "_format": "hh-sol-artifact-1",
  "contractName": "GenerateNewShip",
  "sourceName": "contracts/GenerateNewShip.sol",
  "abi": [
    {
      "inputs": [
        {
          "internalType": "address",
          "name": "_shipNames",
          "type": "address"
        }
      ],
      "stateMutability": "nonpayable",
      "type": "constructor"
    },
    {
      "inputs": [
        {
          "internalType": "uint256",
          "name": "id",
          "type": "uint256"
        },
        {
          "internalType": "uint256",
          "name": "serialNumber",
          "type": "uint256"
        },
        {
          "internalType": "uint64",
          "name": "randomBase",
          "type": "uint64"
        },
        {
          "internalType": "uint16",
          "name": "variant",
          "type": "uint16"
        }
      ],
      "name": "generateShip",
      "outputs": [
        {
          "components": [
            {
              "internalType": "string",
              "name": "name",
              "type": "string"
            },
            {
              "internalType": "uint256",
              "name": "id",
              "type": "uint256"
            },
            {
              "components": [
                {
                  "internalType": "enum MainWeapon",
                  "name": "mainWeapon",
                  "type": "uint8"
                },
                {
                  "internalType": "enum Armor",
                  "name": "armor",
                  "type": "uint8"
                },
                {
                  "internalType": "enum Shields",
                  "name": "shields",
                  "type": "uint8"
                },
                {
                  "internalType": "enum Special",
                  "name": "special",
                  "type": "uint8"
                }
              ],
              "internalType": "struct Equipment",
              "name": "equipment",
              "type": "tuple"
            },
            {
              "components": [
                {
                  "internalType": "uint256",
                  "name": "serialNumber",
                  "type": "uint256"
                },
                {
                  "components": [
                    {
                      "internalType": "uint16",
                      "name": "h1",
                      "type": "uint16"
                    },
                    {
                      "internalType": "uint8",
                      "name": "s1",
                      "type": "uint8"
                    },
                    {
                      "internalType": "uint8",
                      "name": "l1",
                      "type": "uint8"
                    },
                    {
                      "internalType": "uint16",
                      "name": "h2",
                      "type": "uint16"
                    },
                    {
                      "internalType": "uint8",
                      "name": "s2",
                      "type": "uint8"
                    },
                    {
                      "internalType": "uint8",
                      "name": "l2",
                      "type": "uint8"
                    },
                    {
                      "internalType": "uint16",
                      "name": "h3",
                      "type": "uint16"
                    },
                    {
                      "internalType": "uint8",
                      "name": "s3",
                      "type": "uint8"
                    },
                    {
                      "internalType": "uint8",
                      "name": "l3",
                      "type": "uint8"
                    }
                  ],
                  "internalType": "struct Colors",
                  "name": "colors",
                  "type": "tuple"
                },
                {
                  "internalType": "uint16",
                  "name": "variant",
                  "type": "uint16"
                },
                {
                  "internalType": "uint8",
                  "name": "accuracy",
                  "type": "uint8"
                },
                {
                  "internalType": "uint8",
                  "name": "hull",
                  "type": "uint8"
                },
                {
                  "internalType": "uint8",
                  "name": "speed",
                  "type": "uint8"
                }
              ],
              "internalType": "struct Traits",
              "name": "traits",
              "type": "tuple"
            },
            {
              "components": [
                {
                  "internalType": "uint32",
                  "name": "shipsDestroyed",
                  "type": "uint32"
                },
                {
                  "internalType": "uint16",
                  "name": "costsVersion",
                  "type": "uint16"
                },
                {
                  "internalType": "uint16",
                  "name": "cost",
                  "type": "uint16"
                },
                {
                  "internalType": "uint16",
                  "name": "modified",
                  "type": "uint16"
                },
                {
                  "internalType": "bool",
                  "name": "shiny",
                  "type": "bool"
                },
                {
                  "internalType": "bool",
                  "name": "constructed",
                  "type": "bool"
                },
                {
                  "internalType": "bool",
                  "name": "inFleet",
                  "type": "bool"
                },
                {
                  "internalType": "bool",
                  "name": "isFreeShip",
                  "type": "bool"
                },
                {
                  "internalType": "uint256",
                  "name": "timestampDestroyed",
                  "type": "uint256"
                }
              ],
              "internalType": "struct ShipData",
              "name": "shipData",
              "type": "tuple"
            },
            {
              "internalType": "address",
              "name": "owner",
              "type": "address"
            }
          ],
          "internalType": "struct Ship",
          "name": "",
          "type": "tuple"
        }
      ],
      "stateMutability": "view",
      "type": "function"
    },
    {
      "inputs": [
        {
          "internalType": "uint256",
          "name": "id",
          "type": "uint256"
        },
        {
          "internalType": "uint256",
          "name": "",
          "type": "uint256"
        },
        {
          "components": [
            {
              "internalType": "string",
              "name": "name",
              "type": "string"
            },
            {
              "internalType": "uint256",
              "name": "id",
              "type": "uint256"
            },
            {
              "components": [
                {
                  "internalType": "enum MainWeapon",
                  "name": "mainWeapon",
                  "type": "uint8"
                },
                {
                  "internalType": "enum Armor",
                  "name": "armor",
                  "type": "uint8"
                },
                {
                  "internalType": "enum Shields",
                  "name": "shields",
                  "type": "uint8"
                },
                {
                  "internalType": "enum Special",
                  "name": "special",
                  "type": "uint8"
                }
              ],
              "internalType": "struct Equipment",
              "name": "equipment",
              "type": "tuple"
            },
            {
              "components": [
                {
                  "internalType": "uint256",
                  "name": "serialNumber",
                  "type": "uint256"
                },
                {
                  "components": [
                    {
                      "internalType": "uint16",
                      "name": "h1",
                      "type": "uint16"
                    },
                    {
                      "internalType": "uint8",
                      "name": "s1",
                      "type": "uint8"
                    },
                    {
                      "internalType": "uint8",
                      "name": "l1",
                      "type": "uint8"
                    },
                    {
                      "internalType": "uint16",
                      "name": "h2",
                      "type": "uint16"
                    },
                    {
                      "internalType": "uint8",
                      "name": "s2",
                      "type": "uint8"
                    },
                    {
                      "internalType": "uint8",
                      "name": "l2",
                      "type": "uint8"
                    },
                    {
                      "internalType": "uint16",
                      "name": "h3",
                      "type": "uint16"
                    },
                    {
                      "internalType": "uint8",
                      "name": "s3",
                      "type": "uint8"
                    },
                    {
                      "internalType": "uint8",
                      "name": "l3",
                      "type": "uint8"
                    }
                  ],
                  "internalType": "struct Colors",
                  "name": "colors",
                  "type": "tuple"
                },
                {
                  "internalType": "uint16",
                  "name": "variant",
                  "type": "uint16"
                },
                {
                  "internalType": "uint8",
                  "name": "accuracy",
                  "type": "uint8"
                },
                {
                  "internalType": "uint8",
                  "name": "hull",
                  "type": "uint8"
                },
                {
                  "internalType": "uint8",
                  "name": "speed",
                  "type": "uint8"
                }
              ],
              "internalType": "struct Traits",
              "name": "traits",
              "type": "tuple"
            },
            {
              "components": [
                {
                  "internalType": "uint32",
                  "name": "shipsDestroyed",
                  "type": "uint32"
                },
                {
                  "internalType": "uint16",
                  "name": "costsVersion",
                  "type": "uint16"
                },
                {
                  "internalType": "uint16",
                  "name": "cost",
                  "type": "uint16"
                },
                {
                  "internalType": "uint16",
                  "name": "modified",
                  "type": "uint16"
                },
                {
                  "internalType": "bool",
                  "name": "shiny",
                  "type": "bool"
                },
                {
                  "internalType": "bool",
                  "name": "constructed",
                  "type": "bool"
                },
                {
                  "internalType": "bool",
                  "name": "inFleet",
                  "type": "bool"
                },
                {
                  "internalType": "bool",
                  "name": "isFreeShip",
                  "type": "bool"
                },
                {
                  "internalType": "uint256",
                  "name": "timestampDestroyed",
                  "type": "uint256"
                }
              ],
              "internalType": "struct ShipData",
              "name": "shipData",
              "type": "tuple"
            },
            {
              "internalType": "address",
              "name": "owner",
              "type": "address"
            }
          ],
          "internalType": "struct Ship",
          "name": "ship",
          "type": "tuple"
        }
      ],
      "name": "generateSpecificShip",
      "outputs": [
        {
          "components": [
            {
              "internalType": "string",
              "name": "name",
              "type": "string"
            },
            {
              "internalType": "uint256",
              "name": "id",
              "type": "uint256"
            },
            {
              "components": [
                {
                  "internalType": "enum MainWeapon",
                  "name": "mainWeapon",
                  "type": "uint8"
                },
                {
                  "internalType": "enum Armor",
                  "name": "armor",
                  "type": "uint8"
                },
                {
                  "internalType": "enum Shields",
                  "name": "shields",
                  "type": "uint8"
                },
                {
                  "internalType": "enum Special",
                  "name": "special",
                  "type": "uint8"
                }
              ],
              "internalType": "struct Equipment",
              "name": "equipment",
              "type": "tuple"
            },
            {
              "components": [
                {
                  "internalType": "uint256",
                  "name": "serialNumber",
                  "type": "uint256"
                },
                {
                  "components": [
                    {
                      "internalType": "uint16",
                      "name": "h1",
                      "type": "uint16"
                    },
                    {
                      "internalType": "uint8",
                      "name": "s1",
                      "type": "uint8"
                    },
                    {
                      "internalType": "uint8",
                      "name": "l1",
                      "type": "uint8"
                    },
                    {
                      "internalType": "uint16",
                      "name": "h2",
                      "type": "uint16"
                    },
                    {
                      "internalType": "uint8",
                      "name": "s2",
                      "type": "uint8"
                    },
                    {
                      "internalType": "uint8",
                      "name": "l2",
                      "type": "uint8"
                    },
                    {
                      "internalType": "uint16",
                      "name": "h3",
                      "type": "uint16"
                    },
                    {
                      "internalType": "uint8",
                      "name": "s3",
                      "type": "uint8"
                    },
                    {
                      "internalType": "uint8",
                      "name": "l3",
                      "type": "uint8"
                    }
                  ],
                  "internalType": "struct Colors",
                  "name": "colors",
                  "type": "tuple"
                },
                {
                  "internalType": "uint16",
                  "name": "variant",
                  "type": "uint16"
                },
                {
                  "internalType": "uint8",
                  "name": "accuracy",
                  "type": "uint8"
                },
                {
                  "internalType": "uint8",
                  "name": "hull",
                  "type": "uint8"
                },
                {
                  "internalType": "uint8",
                  "name": "speed",
                  "type": "uint8"
                }
              ],
              "internalType": "struct Traits",
              "name": "traits",
              "type": "tuple"
            },
            {
              "components": [
                {
                  "internalType": "uint32",
                  "name": "shipsDestroyed",
                  "type": "uint32"
                },
                {
                  "internalType": "uint16",
                  "name": "costsVersion",
                  "type": "uint16"
                },
                {
                  "internalType": "uint16",
                  "name": "cost",
                  "type": "uint16"
                },
                {
                  "internalType": "uint16",
                  "name": "modified",
                  "type": "uint16"
                },
                {
                  "internalType": "bool",
                  "name": "shiny",
                  "type": "bool"
                },
                {
                  "internalType": "bool",
                  "name": "constructed",
                  "type": "bool"
                },
                {
                  "internalType": "bool",
                  "name": "inFleet",
                  "type": "bool"
                },
                {
                  "internalType": "bool",
                  "name": "isFreeShip",
                  "type": "bool"
                },
                {
                  "internalType": "uint256",
                  "name": "timestampDestroyed",
                  "type": "uint256"
                }
              ],
              "internalType": "struct ShipData",
              "name": "shipData",
              "type": "tuple"
            },
            {
              "internalType": "address",
              "name": "owner",
              "type": "address"
            }
          ],
          "internalType": "struct Ship",
          "name": "",
          "type": "tuple"
        }
      ],
      "stateMutability": "pure",
      "type": "function"
    },
    {
      "inputs": [
        {
          "internalType": "uint256",
          "name": "_trait",
          "type": "uint256"
        }
      ],
      "name": "getTierOfTrait",
      "outputs": [
        {
          "internalType": "uint8",
          "name": "",
          "type": "uint8"
        }
      ],
      "stateMutability": "pure",
      "type": "function"
    },
    {
      "inputs": [],
      "name": "shipNames",
      "outputs": [
        {
          "internalType": "contract IOnchainRandomShipNames",
          "name": "",
          "type": "address"
        }
      ],
      "stateMutability": "view",
      "type": "function"
    }
  ],
  "bytecode": "0x60a0604052348015600f57600080fd5b50604051611362380380611362833981016040819052602c91603c565b6001600160a01b0316608052606a565b600060208284031215604d57600080fd5b81516001600160a01b0381168114606357600080fd5b9392505050565b6080516112d761008b6000396000818160a4015261016e01526112d76000f3fe608060405234801561001057600080fd5b506004361061004c5760003560e01c806319a7f356146100515780636e0f7a481461007a578063a355a6da1461009f578063e02f592a146100de575b600080fd5b61006461005f366004610d59565b6100f1565b604051610071919061108a565b60405180910390f35b61008d610088366004611129565b61010f565b60405160ff9091168152602001610071565b6100c67f000000000000000000000000000000000000000000000000000000000000000081565b6040516001600160a01b039091168152602001610071565b6100646100ec366004611142565b610140565b6100f96108b1565b5060208101929092525060608101516000905290565b6000603282101561012257506000919050565b605082101561013357506001919050565b506002919050565b919050565b6101486108b1565b6101506108b1565b60208101869052606081015185905283610169816111ac565b9450507f00000000000000000000000000000000000000000000000000000000000000006001600160a01b031663549188c6856040516020016101ac91906111d8565b60408051808303601f1901815290829052805160209091012060e083901b6001600160e01b03191682526004820152602401600060405180830381865afa1580156101fb573d6000803e3d6000fd5b505050506040513d6000823e601f3d908101601f1916820160405261022391908101906111f0565b81528361022f816111ac565b9450506101688460405160200161024691906111d8565b6040516020818303038152906040528051906020012060001c6102699190611266565b60608201516020015161ffff909116905283610284816111ac565b94505060648460405160200161029a91906111d8565b6040516020818303038152906040528051906020012060001c6102bd9190611266565b606082015160209081015160ff909216910152836102da816111ac565b9450506064846040516020016102f091906111d8565b6040516020818303038152906040528051906020012060001c6103139190611266565b60608201516020015160ff90911660409091015283610331816111ac565b9450506101688460405160200161034891906111d8565b6040516020818303038152906040528051906020012060001c61036b9190611266565b6060808301516020015161ffff90921691015283610388816111ac565b94505060648460405160200161039e91906111d8565b6040516020818303038152906040528051906020012060001c6103c19190611266565b60608201516020015160ff909116608090910152836103df816111ac565b9450506064846040516020016103f591906111d8565b6040516020818303038152906040528051906020012060001c6104189190611266565b60608201516020015160ff90911660a09091015283610436816111ac565b94505061047260648560405160200161044f91906111d8565b6040516020818303038152906040528051906020012060001c6100889190611266565b60608083015160ff9092169101528361048a816111ac565b9450506104a360648560405160200161044f91906111d8565b606082015160ff909116608090910152836104bd816111ac565b9450506104d660648560405160200161044f91906111d8565b606082015160ff90911660a090910152836104f0816111ac565b606083015161ffff8616604090910152945084905061050e816111ac565b94505060048460405160200161052491906111d8565b6040516020818303038152906040528051906020012060001c6105479190611266565b600781111561055857610558610e94565b604082015190600781111561056f5761056f610e94565b9081600781111561058257610582610e94565b9052508361058f816111ac565b94505060006002856040516020016105a791906111d8565b6040516020818303038152906040528051906020012060001c6105ca9190611266565b159050846105d7816111ac565b955050801561065c576004856040516020016105f391906111d8565b6040516020818303038152906040528051906020012060001c6106169190611266565b600781111561062757610627610e94565b826040015160200190600781111561064157610641610e94565b9081600781111561065457610654610e94565b9052506106d4565b60048560405160200161066f91906111d8565b6040516020818303038152906040528051906020012060001c6106929190611266565b60078111156106a3576106a3610e94565b82604001516040019060078111156106bd576106bd610e94565b908160078111156106d0576106d0610e94565b9052505b846106de816111ac565b9550506004856040516020016106f491906111d8565b6040516020818303038152906040528051906020012060001c6107179190611266565b600781111561072857610728610e94565b826040015160600190600781111561074257610742610e94565b9081600781111561075557610755610e94565b81525050600060648660405160200161076e91906111d8565b6040516020818303038152906040528051906020012060001c6107919190611266565b9050600881116107a75760808084015160019101525b856107b1816111ac565b96505060006064876040516020016107c991906111d8565b6040516020818303038152906040528051906020012060001c6107ec9190611266565b9050604b81101561082057610802600982611266565b61080d906001611288565b608085015161ffff9190911690526108a4565b605a81101561083f57610834601482611266565b61080d90600a611288565b605f81101561085e57610853604682611266565b61080d90601e611288565b606381101561087d5761087260c882611266565b61080d906064611288565b6108896102bc82611266565b6108959061012c611288565b608085015161ffff9190911690525b5091979650505050505050565b6040518060c0016040528060608152602001600081526020016108f56040805160808101909152806000815260200160008152602001600081526020016000905290565b81526020016109766040805160c0808201835260008083528351610120810185528181526020818101839052948101829052606081018290526080810182905260a0810182905291820181905260e0820181905261010082015290918201908152600060208201819052604082018190526060820181905260809091015290565b8152604080516101208101825260008082526020828101829052928201819052606082018190526080820181905260a0820181905260c0820181905260e082018190526101008201529101908152600060209091015290565b634e487b7160e01b600052604160045260246000fd5b60405160c081016001600160401b0381118282101715610a0757610a076109cf565b60405290565b60405161012081016001600160401b0381118282101715610a0757610a076109cf565b604051601f8201601f191681016001600160401b0381118282101715610a5857610a586109cf565b604052919050565b60006001600160401b03821115610a7957610a796109cf565b50601f01601f191660200190565b60088110610a9457600080fd5b50565b600060808284031215610aa957600080fd5b604051608081016001600160401b0381118282101715610acb57610acb6109cf565b6040529050808235610adc81610a87565b81526020830135610aec81610a87565b60208201526040830135610aff81610a87565b60408201526060830135610b1281610a87565b6060919091015292915050565b803561ffff8116811461013b57600080fd5b803560ff8116811461013b57600080fd5b60008183036101c0811215610b5657600080fd5b610b5e6109e5565b833581529150610120601f1982011215610b7757600080fd5b50610b80610a0d565b610b8c60208401610b1f565b8152610b9a60408401610b31565b6020820152610bab60608401610b31565b6040820152610bbc60808401610b1f565b6060820152610bcd60a08401610b31565b6080820152610bde60c08401610b31565b60a0820152610bef60e08401610b1f565b60c0820152610c016101008401610b31565b60e0820152610c136101208401610b31565b6101008201526020820152610c2b6101408301610b1f565b6040820152610c3d6101608301610b31565b6060820152610c4f6101808301610b31565b6080820152610c616101a08301610b31565b60a082015292915050565b803563ffffffff8116811461013b57600080fd5b8035801515811461013b57600080fd5b60006101208284031215610ca357600080fd5b610cab610a0d565b9050610cb682610c6c565b8152610cc460208301610b1f565b6020820152610cd560408301610b1f565b6040820152610ce660608301610b1f565b6060820152610cf760808301610c80565b6080820152610d0860a08301610c80565b60a0820152610d1960c08301610c80565b60c0820152610d2a60e08301610c80565b60e08201526101009182013591810191909152919050565b80356001600160a01b038116811461013b57600080fd5b600080600060608486031215610d6e57600080fd5b833592506020840135915060408401356001600160401b03811115610d9257600080fd5b84016103c08187031215610da557600080fd5b610dad6109e5565b81356001600160401b03811115610dc357600080fd5b8201601f81018813610dd457600080fd5b8035610de7610de282610a60565b610a30565b818152896020838501011115610dfc57600080fd5b81602084016020830137600060209282018301528352838101359083015250610e288760408401610a97565b6040820152610e3a8760c08401610b42565b6060820152610e4d876102808401610c90565b6080820152610e5f6103a08301610d42565b60a082015280925050509250925092565b60005b83811015610e8b578181015183820152602001610e73565b50506000910152565b634e487b7160e01b600052602160045260246000fd5b60088110610a9457634e487b7160e01b600052602160045260246000fd5b8051610ed381610eaa565b82526020810151610ee381610eaa565b60208301526040810151610ef681610eaa565b60408301526060810151610f0981610eaa565b806060840152505050565b80518252602081015161ffff815116602084015260ff60208201511660408401526040810151610f49606085018260ff169052565b50606081015161ffff8116608085015250608081015160ff811660a08501525060a081015160ff811660c08501525060c081015161ffff811660e08501525060e081015160ff811661010085015250610100015160ff811661012084015250604081015161ffff811661014084015250606081015160ff811661016084015250608081015160ff81166101808401525060a0015160ff166101a09190910152565b63ffffffff815116825261ffff60208201511660208301526040810151611017604084018261ffff169052565b50606081015161102d606084018261ffff169052565b506080810151611041608084018215159052565b5060a081015161105560a084018215159052565b5060c081015161106960c084018215159052565b5060e081015161107d60e084018215159052565b5061010090810151910152565b60208152600082516103c060208401528051806103e08501526110b581610400860160208501610e70565b60208501516040850152604085015191506110d36060850183610ec8565b606085015191506110e760e0850183610f14565b608085015191506110fc6102a0850183610fea565b60a08501516001600160a01b0381166103c08601529150601f01601f191692909201610400019392505050565b60006020828403121561113b57600080fd5b5035919050565b6000806000806080858703121561115857600080fd5b843593506020850135925060408501356001600160401b038116811461117d57600080fd5b915061118b60608601610b1f565b905092959194509250565b634e487b7160e01b600052601160045260246000fd5b60006001600160401b0382166002600160401b031981016111cf576111cf611196565b60010192915050565b60c09190911b6001600160c01b031916815260080190565b60006020828403121561120257600080fd5b81516001600160401b0381111561121857600080fd5b8201601f8101841361122957600080fd5b8051611237610de282610a60565b81815285602083850101111561124c57600080fd5b61125d826020830160208601610e70565b95945050505050565b60008261128357634e487b7160e01b600052601260045260246000fd5b500690565b8082018082111561129b5761129b611196565b9291505056fea264697066735822122038d5901651abf66c2c5bb6d6de95538425d6298aa35c1232039347acb061eb1e64736f6c634300081c0033",
  "linkReferences": {},
  "deployedLinkReferences": {}
}