{
  "_format": "hh-sol-artifact-1",
  "contractName": "ShipAttributes",
  "sourceName": "contracts/ShipAttributes.sol",
  "abi": [
    {
      "inputs": [
        {
          "internalType": "address",
          "name": "_ships",
          "type": "address"
        }
      ],
      "stateMutability": "nonpayable",
      "type": "constructor"
    },
    {
      "inputs": [],
      "name": "InvalidAttributesVersion",
      "type": "error"
    },
    {
      "inputs": [],
      "name": "InvalidCostsVersion",
      "type": "error"
    },
    {
      "inputs": [
        {
          "internalType": "address",
          "name": "owner",
          "type": "address"
        }
      ],
      "name": "OwnableInvalidOwner",
      "type": "error"
    },
    {
      "inputs": [
        {
          "internalType": "address",
          "name": "account",
          "type": "address"
        }
      ],
      "name": "OwnableUnauthorizedAccount",
      "type": "error"
    },
    {
      "inputs": [],
      "name": "ShipNotFound",
      "type": "error"
    },
    {
      "anonymous": false,
      "inputs": [
        {
          "indexed": true,
          "internalType": "address",
          "name": "previousOwner",
          "type": "address"
        },
        {
          "indexed": true,
          "internalType": "address",
          "name": "newOwner",
          "type": "address"
        }
      ],
      "name": "OwnershipTransferred",
      "type": "event"
    },
    {
      "inputs": [
        {
          "internalType": "uint16",
          "name": "_version",
          "type": "uint16"
        },
        {
          "components": [
            {
              "internalType": "uint8",
              "name": "damageReduction",
              "type": "uint8"
            },
            {
              "internalType": "int8",
              "name": "movement",
              "type": "int8"
            }
          ],
          "internalType": "struct ArmorData",
          "name": "_armorData",
          "type": "tuple"
        }
      ],
      "name": "addArmorData",
      "outputs": [],
      "stateMutability": "nonpayable",
      "type": "function"
    },
    {
      "inputs": [
        {
          "internalType": "uint16",
          "name": "_version",
          "type": "uint16"
        },
        {
          "internalType": "uint8",
          "name": "_speed",
          "type": "uint8"
        }
      ],
      "name": "addEngineSpeed",
      "outputs": [],
      "stateMutability": "nonpayable",
      "type": "function"
    },
    {
      "inputs": [
        {
          "internalType": "uint16",
          "name": "_version",
          "type": "uint16"
        },
        {
          "internalType": "uint8",
          "name": "_accuracy",
          "type": "uint8"
        }
      ],
      "name": "addForeAccuracy",
      "outputs": [],
      "stateMutability": "nonpayable",
      "type": "function"
    },
    {
      "inputs": [
        {
          "internalType": "uint16",
          "name": "_version",
          "type": "uint16"
        },
        {
          "components": [
            {
              "internalType": "uint8",
              "name": "range",
              "type": "uint8"
            },
            {
              "internalType": "uint8",
              "name": "damage",
              "type": "uint8"
            },
            {
              "internalType": "int8",
              "name": "movement",
              "type": "int8"
            }
          ],
          "internalType": "struct GunData",
          "name": "_gunData",
          "type": "tuple"
        }
      ],
      "name": "addGunData",
      "outputs": [],
      "stateMutability": "nonpayable",
      "type": "function"
    },
    {
      "inputs": [
        {
          "internalType": "uint16",
          "name": "_version",
          "type": "uint16"
        },
        {
          "components": [
            {
              "internalType": "uint8",
              "name": "damageReduction",
              "type": "uint8"
            },
            {
              "internalType": "int8",
              "name": "movement",
              "type": "int8"
            }
          ],
          "internalType": "struct ShieldData",
          "name": "_shieldData",
          "type": "tuple"
        }
      ],
      "name": "addShieldData",
      "outputs": [],
      "stateMutability": "nonpayable",
      "type": "function"
    },
    {
      "inputs": [
        {
          "internalType": "uint16",
          "name": "_version",
          "type": "uint16"
        },
        {
          "components": [
            {
              "internalType": "uint8",
              "name": "range",
              "type": "uint8"
            },
            {
              "internalType": "uint8",
              "name": "strength",
              "type": "uint8"
            },
            {
              "internalType": "int8",
              "name": "movement",
              "type": "int8"
            }
          ],
          "internalType": "struct SpecialData",
          "name": "_specialData",
          "type": "tuple"
        }
      ],
      "name": "addSpecialData",
      "outputs": [],
      "stateMutability": "nonpayable",
      "type": "function"
    },
    {
      "inputs": [
        {
          "internalType": "uint16",
          "name": "",
          "type": "uint16"
        }
      ],
      "name": "attributesVersions",
      "outputs": [
        {
          "internalType": "uint16",
          "name": "version",
          "type": "uint16"
        },
        {
          "internalType": "uint8",
          "name": "baseHull",
          "type": "uint8"
        },
        {
          "internalType": "uint8",
          "name": "baseSpeed",
          "type": "uint8"
        }
      ],
      "stateMutability": "view",
      "type": "function"
    },
    {
      "inputs": [
        {
          "components": [
            {
              "internalType": "string",
              "name": "name",
              "type": "string"
            },
            {
              "internalType": "uint256",
              "name": "id",
              "type": "uint256"
            },
            {
              "components": [
                {
                  "internalType": "enum MainWeapon",
                  "name": "mainWeapon",
                  "type": "uint8"
                },
                {
                  "internalType": "enum Armor",
                  "name": "armor",
                  "type": "uint8"
                },
                {
                  "internalType": "enum Shields",
                  "name": "shields",
                  "type": "uint8"
                },
                {
                  "internalType": "enum Special",
                  "name": "special",
                  "type": "uint8"
                }
              ],
              "internalType": "struct Equipment",
              "name": "equipment",
              "type": "tuple"
            },
            {
              "components": [
                {
                  "internalType": "uint256",
                  "name": "serialNumber",
                  "type": "uint256"
                },
                {
                  "components": [
                    {
                      "internalType": "uint16",
                      "name": "h1",
                      "type": "uint16"
                    },
                    {
                      "internalType": "uint8",
                      "name": "s1",
                      "type": "uint8"
                    },
                    {
                      "internalType": "uint8",
                      "name": "l1",
                      "type": "uint8"
                    },
                    {
                      "internalType": "uint16",
                      "name": "h2",
                      "type": "uint16"
                    },
                    {
                      "internalType": "uint8",
                      "name": "s2",
                      "type": "uint8"
                    },
                    {
                      "internalType": "uint8",
                      "name": "l2",
                      "type": "uint8"
                    }
                  ],
                  "internalType": "struct Colors",
                  "name": "colors",
                  "type": "tuple"
                },
                {
                  "internalType": "uint8",
                  "name": "variant",
                  "type": "uint8"
                },
                {
                  "internalType": "uint8",
                  "name": "accuracy",
                  "type": "uint8"
                },
                {
                  "internalType": "uint8",
                  "name": "hull",
                  "type": "uint8"
                },
                {
                  "internalType": "uint8",
                  "name": "speed",
                  "type": "uint8"
                }
              ],
              "internalType": "struct Traits",
              "name": "traits",
              "type": "tuple"
            },
            {
              "components": [
                {
                  "internalType": "uint32",
                  "name": "shipsDestroyed",
                  "type": "uint32"
                },
                {
                  "internalType": "uint16",
                  "name": "costsVersion",
                  "type": "uint16"
                },
                {
                  "internalType": "uint16",
                  "name": "cost",
                  "type": "uint16"
                },
                {
                  "internalType": "bool",
                  "name": "shiny",
                  "type": "bool"
                },
                {
                  "internalType": "bool",
                  "name": "constructed",
                  "type": "bool"
                },
                {
                  "internalType": "bool",
                  "name": "inFleet",
                  "type": "bool"
                },
                {
                  "internalType": "uint256",
                  "name": "timestampDestroyed",
                  "type": "uint256"
                }
              ],
              "internalType": "struct ShipData",
              "name": "shipData",
              "type": "tuple"
            },
            {
              "internalType": "address",
              "name": "owner",
              "type": "address"
            }
          ],
          "internalType": "struct Ship",
          "name": "_ship",
          "type": "tuple"
        }
      ],
      "name": "calculateShipAttributes",
      "outputs": [
        {
          "components": [
            {
              "internalType": "uint16",
              "name": "version",
              "type": "uint16"
            },
            {
              "internalType": "uint8",
              "name": "range",
              "type": "uint8"
            },
            {
              "internalType": "uint8",
              "name": "gunDamage",
              "type": "uint8"
            },
            {
              "internalType": "uint8",
              "name": "hullPoints",
              "type": "uint8"
            },
            {
              "internalType": "uint8",
              "name": "maxHullPoints",
              "type": "uint8"
            },
            {
              "internalType": "uint8",
              "name": "movement",
              "type": "uint8"
            },
            {
              "internalType": "uint8",
              "name": "damageReduction",
              "type": "uint8"
            },
            {
              "internalType": "uint8",
              "name": "reactorCriticalTimer",
              "type": "uint8"
            },
            {
              "internalType": "uint8[]",
              "name": "statusEffects",
              "type": "uint8[]"
            }
          ],
          "internalType": "struct Attributes",
          "name": "",
          "type": "tuple"
        }
      ],
      "stateMutability": "view",
      "type": "function"
    },
    {
      "inputs": [
        {
          "internalType": "uint256",
          "name": "_shipId",
          "type": "uint256"
        }
      ],
      "name": "calculateShipAttributesById",
      "outputs": [
        {
          "components": [
            {
              "internalType": "uint16",
              "name": "version",
              "type": "uint16"
            },
            {
              "internalType": "uint8",
              "name": "range",
              "type": "uint8"
            },
            {
              "internalType": "uint8",
              "name": "gunDamage",
              "type": "uint8"
            },
            {
              "internalType": "uint8",
              "name": "hullPoints",
              "type": "uint8"
            },
            {
              "internalType": "uint8",
              "name": "maxHullPoints",
              "type": "uint8"
            },
            {
              "internalType": "uint8",
              "name": "movement",
              "type": "uint8"
            },
            {
              "internalType": "uint8",
              "name": "damageReduction",
              "type": "uint8"
            },
            {
              "internalType": "uint8",
              "name": "reactorCriticalTimer",
              "type": "uint8"
            },
            {
              "internalType": "uint8[]",
              "name": "statusEffects",
              "type": "uint8[]"
            }
          ],
          "internalType": "struct Attributes",
          "name": "",
          "type": "tuple"
        }
      ],
      "stateMutability": "view",
      "type": "function"
    },
    {
      "inputs": [
        {
          "internalType": "uint256[]",
          "name": "_shipIds",
          "type": "uint256[]"
        }
      ],
      "name": "calculateShipAttributesByIds",
      "outputs": [
        {
          "components": [
            {
              "internalType": "uint16",
              "name": "version",
              "type": "uint16"
            },
            {
              "internalType": "uint8",
              "name": "range",
              "type": "uint8"
            },
            {
              "internalType": "uint8",
              "name": "gunDamage",
              "type": "uint8"
            },
            {
              "internalType": "uint8",
              "name": "hullPoints",
              "type": "uint8"
            },
            {
              "internalType": "uint8",
              "name": "maxHullPoints",
              "type": "uint8"
            },
            {
              "internalType": "uint8",
              "name": "movement",
              "type": "uint8"
            },
            {
              "internalType": "uint8",
              "name": "damageReduction",
              "type": "uint8"
            },
            {
              "internalType": "uint8",
              "name": "reactorCriticalTimer",
              "type": "uint8"
            },
            {
              "internalType": "uint8[]",
              "name": "statusEffects",
              "type": "uint8[]"
            }
          ],
          "internalType": "struct Attributes[]",
          "name": "",
          "type": "tuple[]"
        }
      ],
      "stateMutability": "view",
      "type": "function"
    },
    {
      "inputs": [
        {
          "components": [
            {
              "internalType": "string",
              "name": "name",
              "type": "string"
            },
            {
              "internalType": "uint256",
              "name": "id",
              "type": "uint256"
            },
            {
              "components": [
                {
                  "internalType": "enum MainWeapon",
                  "name": "mainWeapon",
                  "type": "uint8"
                },
                {
                  "internalType": "enum Armor",
                  "name": "armor",
                  "type": "uint8"
                },
                {
                  "internalType": "enum Shields",
                  "name": "shields",
                  "type": "uint8"
                },
                {
                  "internalType": "enum Special",
                  "name": "special",
                  "type": "uint8"
                }
              ],
              "internalType": "struct Equipment",
              "name": "equipment",
              "type": "tuple"
            },
            {
              "components": [
                {
                  "internalType": "uint256",
                  "name": "serialNumber",
                  "type": "uint256"
                },
                {
                  "components": [
                    {
                      "internalType": "uint16",
                      "name": "h1",
                      "type": "uint16"
                    },
                    {
                      "internalType": "uint8",
                      "name": "s1",
                      "type": "uint8"
                    },
                    {
                      "internalType": "uint8",
                      "name": "l1",
                      "type": "uint8"
                    },
                    {
                      "internalType": "uint16",
                      "name": "h2",
                      "type": "uint16"
                    },
                    {
                      "internalType": "uint8",
                      "name": "s2",
                      "type": "uint8"
                    },
                    {
                      "internalType": "uint8",
                      "name": "l2",
                      "type": "uint8"
                    }
                  ],
                  "internalType": "struct Colors",
                  "name": "colors",
                  "type": "tuple"
                },
                {
                  "internalType": "uint8",
                  "name": "variant",
                  "type": "uint8"
                },
                {
                  "internalType": "uint8",
                  "name": "accuracy",
                  "type": "uint8"
                },
                {
                  "internalType": "uint8",
                  "name": "hull",
                  "type": "uint8"
                },
                {
                  "internalType": "uint8",
                  "name": "speed",
                  "type": "uint8"
                }
              ],
              "internalType": "struct Traits",
              "name": "traits",
              "type": "tuple"
            },
            {
              "components": [
                {
                  "internalType": "uint32",
                  "name": "shipsDestroyed",
                  "type": "uint32"
                },
                {
                  "internalType": "uint16",
                  "name": "costsVersion",
                  "type": "uint16"
                },
                {
                  "internalType": "uint16",
                  "name": "cost",
                  "type": "uint16"
                },
                {
                  "internalType": "bool",
                  "name": "shiny",
                  "type": "bool"
                },
                {
                  "internalType": "bool",
                  "name": "constructed",
                  "type": "bool"
                },
                {
                  "internalType": "bool",
                  "name": "inFleet",
                  "type": "bool"
                },
                {
                  "internalType": "uint256",
                  "name": "timestampDestroyed",
                  "type": "uint256"
                }
              ],
              "internalType": "struct ShipData",
              "name": "shipData",
              "type": "tuple"
            },
            {
              "internalType": "address",
              "name": "owner",
              "type": "address"
            }
          ],
          "internalType": "struct Ship",
          "name": "ship",
          "type": "tuple"
        }
      ],
      "name": "calculateShipCost",
      "outputs": [
        {
          "internalType": "uint16",
          "name": "",
          "type": "uint16"
        }
      ],
      "stateMutability": "view",
      "type": "function"
    },
    {
      "inputs": [],
      "name": "costs",
      "outputs": [
        {
          "internalType": "uint16",
          "name": "version",
          "type": "uint16"
        },
        {
          "internalType": "uint8",
          "name": "baseCost",
          "type": "uint8"
        }
      ],
      "stateMutability": "view",
      "type": "function"
    },
    {
      "inputs": [
        {
          "internalType": "uint256",
          "name": "num",
          "type": "uint256"
        }
      ],
      "name": "countDigits",
      "outputs": [
        {
          "internalType": "uint256",
          "name": "",
          "type": "uint256"
        }
      ],
      "stateMutability": "pure",
      "type": "function"
    },
    {
      "inputs": [],
      "name": "currentAttributesVersion",
      "outputs": [
        {
          "internalType": "uint16",
          "name": "",
          "type": "uint16"
        }
      ],
      "stateMutability": "view",
      "type": "function"
    },
    {
      "inputs": [
        {
          "internalType": "enum Armor",
          "name": "_armor",
          "type": "uint8"
        }
      ],
      "name": "getArmorData",
      "outputs": [
        {
          "components": [
            {
              "internalType": "uint8",
              "name": "damageReduction",
              "type": "uint8"
            },
            {
              "internalType": "int8",
              "name": "movement",
              "type": "int8"
            }
          ],
          "internalType": "struct ArmorData",
          "name": "",
          "type": "tuple"
        }
      ],
      "stateMutability": "view",
      "type": "function"
    },
    {
      "inputs": [
        {
          "internalType": "uint16",
          "name": "_version",
          "type": "uint16"
        }
      ],
      "name": "getAttributesVersionBase",
      "outputs": [
        {
          "internalType": "uint16",
          "name": "version",
          "type": "uint16"
        },
        {
          "internalType": "uint8",
          "name": "baseHull",
          "type": "uint8"
        },
        {
          "internalType": "uint8",
          "name": "baseSpeed",
          "type": "uint8"
        }
      ],
      "stateMutability": "view",
      "type": "function"
    },
    {
      "inputs": [],
      "name": "getCosts",
      "outputs": [
        {
          "internalType": "uint256",
          "name": "",
          "type": "uint256"
        },
        {
          "components": [
            {
              "internalType": "uint16",
              "name": "version",
              "type": "uint16"
            },
            {
              "internalType": "uint8",
              "name": "baseCost",
              "type": "uint8"
            },
            {
              "internalType": "uint8[]",
              "name": "accuracy",
              "type": "uint8[]"
            },
            {
              "internalType": "uint8[]",
              "name": "hull",
              "type": "uint8[]"
            },
            {
              "internalType": "uint8[]",
              "name": "speed",
              "type": "uint8[]"
            },
            {
              "internalType": "uint8[]",
              "name": "mainWeapon",
              "type": "uint8[]"
            },
            {
              "internalType": "uint8[]",
              "name": "armor",
              "type": "uint8[]"
            },
            {
              "internalType": "uint8[]",
              "name": "shields",
              "type": "uint8[]"
            },
            {
              "internalType": "uint8[]",
              "name": "special",
              "type": "uint8[]"
            }
          ],
          "internalType": "struct Costs",
          "name": "",
          "type": "tuple"
        }
      ],
      "stateMutability": "view",
      "type": "function"
    },
    {
      "inputs": [],
      "name": "getCurrentAttributesVersion",
      "outputs": [
        {
          "internalType": "uint16",
          "name": "",
          "type": "uint16"
        }
      ],
      "stateMutability": "view",
      "type": "function"
    },
    {
      "inputs": [],
      "name": "getCurrentCostsVersion",
      "outputs": [
        {
          "internalType": "uint16",
          "name": "",
          "type": "uint16"
        }
      ],
      "stateMutability": "view",
      "type": "function"
    },
    {
      "inputs": [
        {
          "internalType": "enum MainWeapon",
          "name": "_weapon",
          "type": "uint8"
        }
      ],
      "name": "getGunData",
      "outputs": [
        {
          "components": [
            {
              "internalType": "uint8",
              "name": "range",
              "type": "uint8"
            },
            {
              "internalType": "uint8",
              "name": "damage",
              "type": "uint8"
            },
            {
              "internalType": "int8",
              "name": "movement",
              "type": "int8"
            }
          ],
          "internalType": "struct GunData",
          "name": "",
          "type": "tuple"
        }
      ],
      "stateMutability": "view",
      "type": "function"
    },
    {
      "inputs": [
        {
          "internalType": "uint256",
          "name": "_shipsDestroyed",
          "type": "uint256"
        }
      ],
      "name": "getRank",
      "outputs": [
        {
          "internalType": "uint8",
          "name": "",
          "type": "uint8"
        }
      ],
      "stateMutability": "pure",
      "type": "function"
    },
    {
      "inputs": [
        {
          "internalType": "enum Shields",
          "name": "_shields",
          "type": "uint8"
        }
      ],
      "name": "getShieldData",
      "outputs": [
        {
          "components": [
            {
              "internalType": "uint8",
              "name": "damageReduction",
              "type": "uint8"
            },
            {
              "internalType": "int8",
              "name": "movement",
              "type": "int8"
            }
          ],
          "internalType": "struct ShieldData",
          "name": "",
          "type": "tuple"
        }
      ],
      "stateMutability": "view",
      "type": "function"
    },
    {
      "inputs": [
        {
          "internalType": "enum Special",
          "name": "_special",
          "type": "uint8"
        }
      ],
      "name": "getSpecialData",
      "outputs": [
        {
          "components": [
            {
              "internalType": "uint8",
              "name": "range",
              "type": "uint8"
            },
            {
              "internalType": "uint8",
              "name": "strength",
              "type": "uint8"
            },
            {
              "internalType": "int8",
              "name": "movement",
              "type": "int8"
            }
          ],
          "internalType": "struct SpecialData",
          "name": "",
          "type": "tuple"
        }
      ],
      "stateMutability": "view",
      "type": "function"
    },
    {
      "inputs": [
        {
          "internalType": "enum Special",
          "name": "_special",
          "type": "uint8"
        }
      ],
      "name": "getSpecialRange",
      "outputs": [
        {
          "internalType": "uint8",
          "name": "",
          "type": "uint8"
        }
      ],
      "stateMutability": "view",
      "type": "function"
    },
    {
      "inputs": [
        {
          "internalType": "enum Special",
          "name": "_special",
          "type": "uint8"
        }
      ],
      "name": "getSpecialStrength",
      "outputs": [
        {
          "internalType": "uint8",
          "name": "",
          "type": "uint8"
        }
      ],
      "stateMutability": "view",
      "type": "function"
    },
    {
      "inputs": [],
      "name": "owner",
      "outputs": [
        {
          "internalType": "address",
          "name": "",
          "type": "address"
        }
      ],
      "stateMutability": "view",
      "type": "function"
    },
    {
      "inputs": [],
      "name": "renounceOwnership",
      "outputs": [],
      "stateMutability": "nonpayable",
      "type": "function"
    },
    {
      "inputs": [
        {
          "internalType": "uint16",
          "name": "_version",
          "type": "uint16"
        },
        {
          "internalType": "uint8",
          "name": "_baseHull",
          "type": "uint8"
        },
        {
          "internalType": "uint8",
          "name": "_baseSpeed",
          "type": "uint8"
        }
      ],
      "name": "setAttributesVersionBase",
      "outputs": [],
      "stateMutability": "nonpayable",
      "type": "function"
    },
    {
      "inputs": [
        {
          "components": [
            {
              "internalType": "uint16",
              "name": "version",
              "type": "uint16"
            },
            {
              "internalType": "uint8",
              "name": "baseCost",
              "type": "uint8"
            },
            {
              "internalType": "uint8[]",
              "name": "accuracy",
              "type": "uint8[]"
            },
            {
              "internalType": "uint8[]",
              "name": "hull",
              "type": "uint8[]"
            },
            {
              "internalType": "uint8[]",
              "name": "speed",
              "type": "uint8[]"
            },
            {
              "internalType": "uint8[]",
              "name": "mainWeapon",
              "type": "uint8[]"
            },
            {
              "internalType": "uint8[]",
              "name": "armor",
              "type": "uint8[]"
            },
            {
              "internalType": "uint8[]",
              "name": "shields",
              "type": "uint8[]"
            },
            {
              "internalType": "uint8[]",
              "name": "special",
              "type": "uint8[]"
            }
          ],
          "internalType": "struct Costs",
          "name": "_costs",
          "type": "tuple"
        }
      ],
      "name": "setCosts",
      "outputs": [],
      "stateMutability": "nonpayable",
      "type": "function"
    },
    {
      "inputs": [
        {
          "internalType": "uint16",
          "name": "_version",
          "type": "uint16"
        }
      ],
      "name": "setCurrentAttributesVersion",
      "outputs": [],
      "stateMutability": "nonpayable",
      "type": "function"
    },
    {
      "inputs": [
        {
          "internalType": "address",
          "name": "_ships",
          "type": "address"
        }
      ],
      "name": "setShipsAddress",
      "outputs": [],
      "stateMutability": "nonpayable",
      "type": "function"
    },
    {
      "inputs": [],
      "name": "ships",
      "outputs": [
        {
          "internalType": "contract IShips",
          "name": "",
          "type": "address"
        }
      ],
      "stateMutability": "view",
      "type": "function"
    },
    {
      "inputs": [
        {
          "internalType": "address",
          "name": "newOwner",
          "type": "address"
        }
      ],
      "name": "transferOwnership",
      "outputs": [],
      "stateMutability": "nonpayable",
      "type": "function"
    }
  ],
  "bytecode": "0x608060405234801561001057600080fd5b50604051613aa7380380613aa783398101604081905261002f91610e0c565b338061005557604051631e4fbdf760e01b81526000600482015260240160405180910390fd5b61005e81610d01565b50600180546001600160a01b0319166001600160a01b0383161781556003805461ffff191690911781556004805462ffffff1916623200011790556040805160608101825260008152600a60208201526019918101919091526100c49160059190610d51565b506040805160608101825260008152600a60208201526019918101919091526100f1906006906003610d51565b506040805160608101825260008152600a602082015260199181019190915261011e906007906003610d51565b506040805160808101825260198152601e602082015260289181018290526060810191909152610152906008906004610d51565b50604080516080810182526000815260056020820152600a91810191909152600f6060820152610186906009906004610d51565b506040805160808101825260008152600a60208201819052601492820192909252601e60608201526101ba91906004610d51565b506040805160808101825260008152600a6020820152601491810191909152600f60608201526101ee90600b906004610d51565b50600060026000600161ffff168152602001908152602001600020905060018160000160006101000a81548161ffff021916908361ffff16021790555060648160000160026101000a81548160ff021916908360ff16021790555060038160000160036101000a81548160ff021916908360ff16021790555080600101600090806001815401808255809150506001900390600052602060002090602091828204019190069091909190916101000a81548160ff021916908360ff16021790555080600101607d90806001815401808255809150506001900390600052602060002090602091828204019190069091909190916101000a81548160ff021916908360ff16021790555080600101609690806001815401808255809150506001900390600052602060002090602091828204019190069091909190916101000a81548160ff021916908360ff16021790555080600201600090806001815401808255809150506001900390600052602060002090602091828204019190069091909190916101000a81548160ff021916908360ff16021790555080600201600190806001815401808255809150506001900390600052602060002090602091828204019190069091909190916101000a81548160ff021916908360ff16021790555080600201600290806001815401808255809150506001900390600052602060002090602091828204019190069091909190916101000a81548160ff021916908360ff160217905550806003016040518060600160405280600860ff168152602001601960ff1681526020016000800b8152509080600181540180825580915050600190039060005260206000200160009091909190915060008201518160000160006101000a81548160ff021916908360ff16021790555060208201518160000160016101000a81548160ff021916908360ff16021790555060408201518160000160026101000a81548160ff021916908360000b60ff1602179055505050806003016040518060600160405280600c60ff168152602001601460ff1681526020016000800b8152509080600181540180825580915050600190039060005260206000200160009091909190915060008201518160000160006101000a81548160ff021916908360ff16021790555060208201518160000160016101000a81548160ff021916908360ff16021790555060408201518160000160026101000a81548160ff021916908360000b60ff1602179055505050806003016040518060600160405280600a60ff168152602001601e60ff16815260200160001960000b8152509080600181540180825580915050600190039060005260206000200160009091909190915060008201518160000160006101000a81548160ff021916908360ff16021790555060208201518160000160016101000a81548160ff021916908360ff16021790555060408201518160000160026101000a81548160ff021916908360000b60ff1602179055505050806003016040518060600160405280600460ff168152602001602860ff1681526020016000800b8152509080600181540180825580915050600190039060005260206000200160009091909190915060008201518160000160006101000a81548160ff021916908360ff16021790555060208201518160000160016101000a81548160ff021916908360ff16021790555060408201518160000160026101000a81548160ff021916908360000b60ff1602179055505050806004016040518060400160405280600060ff168152602001600160000b8152509080600181540180825580915050600190039060005260206000200160009091909190915060008201518160000160006101000a81548160ff021916908360ff16021790555060208201518160000160016101000a81548160ff021916908360000b60ff1602179055505050806004016040518060400160405280600f60ff1681526020016000800b8152509080600181540180825580915050600190039060005260206000200160009091909190915060008201518160000160006101000a81548160ff021916908360ff16021790555060208201518160000160016101000a81548160ff021916908360000b60ff1602179055505050806004016040518060400160405280601e60ff16815260200160001960000b8152509080600181540180825580915050600190039060005260206000200160009091909190915060008201518160000160006101000a81548160ff021916908360ff16021790555060208201518160000160016101000a81548160ff021916908360000b60ff1602179055505050806004016040518060400160405280602d60ff16815260200160011960000b8152509080600181540180825580915050600190039060005260206000200160009091909190915060008201518160000160006101000a81548160ff021916908360ff16021790555060208201518160000160016101000a81548160ff021916908360000b60ff1602179055505050806005016040518060400160405280600060ff168152602001600160000b8152509080600181540180825580915050600190039060005260206000200160009091909190915060008201518160000160006101000a81548160ff021916908360ff16021790555060208201518160000160016101000a81548160ff021916908360000b60ff1602179055505050806005016040518060400160405280600f60ff168152602001600160000b8152509080600181540180825580915050600190039060005260206000200160009091909190915060008201518160000160006101000a81548160ff021916908360ff16021790555060208201518160000160016101000a81548160ff021916908360000b60ff1602179055505050806005016040518060400160405280601e60ff1681526020016000800b8152509080600181540180825580915050600190039060005260206000200160009091909190915060008201518160000160006101000a81548160ff021916908360ff16021790555060208201518160000160016101000a81548160ff021916908360000b60ff1602179055505050806005016040518060400160405280602d60ff16815260200160001960000b8152509080600181540180825580915050600190039060005260206000200160009091909190915060008201518160000160006101000a81548160ff021916908360ff16021790555060208201518160000160016101000a81548160ff021916908360000b60ff1602179055505050806006016040518060600160405280600060ff168152602001600060ff1681526020016000800b8152509080600181540180825580915050600190039060005260206000200160009091909190915060008201518160000160006101000a81548160ff021916908360ff160217905550602082810151825460409485015162ffff001990911661010060ff938416810262ff000019908116929092176201000093851684021790955585516060808201885260018083528287018181526000848b0181815260069c8d01805480860182558184528b84209751908801805495519351918c1661ffff1996871617938c168e02939093178916908b168a02179091558b518086018d529c8d52600a8d8b019081528d8d01838152825480870184558385529e519e88018054925191519f8c1692861692909217908b168d021788169d8a1689029d909d17909c558a519384018b5260048452600f9884019889529983018a81528b549283018c559a90995290519101805495519851918516959097169490941796831690940295909517909216911690920291909117905550610e3c565b600080546001600160a01b038381166001600160a01b0319831681178455604051919092169283917f8be0079c531659141344cd1fd0a4f28419497f9722a3daafe3b4186f6b6457e09190a35050565b82805482825590600052602060002090601f01602090048101928215610de75791602002820160005b83821115610db857835183826101000a81548160ff021916908360ff1602179055509260200192600101602081600001049283019260010302610d7a565b8015610de55782816101000a81549060ff0219169055600101602081600001049283019260010302610db8565b505b50610df3929150610df7565b5090565b5b80821115610df35760008155600101610df8565b600060208284031215610e1e57600080fd5b81516001600160a01b0381168114610e3557600080fd5b9392505050565b612c5c80610e4b6000396000f3fe608060405234801561001057600080fd5b50600436106101fb5760003560e01c80638da5cb5b1161011a578063c5b64b7a116100ad578063e197c6271161007c578063e197c6271461050f578063e7fae62514610522578063f2fde38b14610535578063fe367db314610548578063ff758d021461055b57600080fd5b8063c5b64b7a146104b6578063ceb3a612146104d6578063d5d233f8146104e9578063d7e19c92146104fc57600080fd5b8063a89a24f8116100e9578063a89a24f814610433578063a918e52114610470578063ab67a78314610490578063bbf8218a146104a357600080fd5b80638da5cb5b146103cc5780638e1b4a83146103f15780639636c762146103ff578063a5099bae1461042057600080fd5b80633130f7ce11610192578063670fa22e11610161578063670fa22e1461034a578063715018a61461036f578063776d62f6146103775780637e0b245f146103ac57600080fd5b80633130f7ce146102f8578063321eed351461030457806338dedeb914610324578063605444f01461033757600080fd5b806311fa2bae116101ce57806311fa2bae146102a45780631d727ba5146102bf57806325b9be1f146102d25780632eb2e652146102e557600080fd5b806303075018146102005780630a6f2b601461021f5780630f0bba0014610234578063110bdddf14610291575b600080fd5b61020861056e565b604051610216929190611c08565b60405180910390f35b61023261022d366004611e96565b610935565b005b61026d610242366004611ecc565b60026020526000908152604090205461ffff81169060ff620100008204811691630100000090041683565b6040805161ffff909416845260ff9283166020850152911690820152606001610216565b61023261029f366004611ee9565b61098e565b60035461ffff165b60405161ffff9091168152602001610216565b6102326102cd366004611fcd565b6109dd565b6102326102e03660046121d5565b610b0b565b6102326102f3366004611e96565b610b7a565b60045461ffff166102ac565b610317610312366004612202565b610bd3565b6040516102169190612347565b6102326103323660046123ac565b610d2a565b6102326103453660046123ac565b610d80565b61035d6103583660046123f2565b610dd6565b60405160ff9091168152602001610216565b610232610e32565b6004546103909061ffff81169062010000900460ff1682565b6040805161ffff909316835260ff909116602083015201610216565b6103bf6103ba3660046123f2565b610e46565b604051610216919061240f565b6000546001600160a01b03165b6040516001600160a01b039091168152602001610216565b6003546102ac9061ffff1681565b61041261040d36600461242c565b610eca565b604051908152602001610216565b61035d61042e36600461242c565b610f0b565b61026d610441366004611ecc565b61ffff9081166000908152600260205260409020549081169160ff620100008304811692630100000090041690565b61048361047e3660046123f2565b610f16565b6040516102169190612445565b6102ac61049e3660046126e1565b610fb1565b6001546103d9906001600160a01b031681565b6104c96104c43660046126e1565b611219565b60405161021691906127de565b61035d6104e43660046123f2565b611506565b6102326104f73660046127f1565b61155d565b61023261050a3660046121d5565b611587565b6104c961051d36600461242c565b6115f6565b6104836105303660046123f2565b6116a7565b6102326105433660046127f1565b6116ef565b6103bf6105563660046123f2565b611732565b610232610569366004611ecc565b611771565b60006105c6604051806101200160405280600061ffff168152602001600060ff168152602001606081526020016060815260200160608152602001606081526020016060815260200160608152602001606081525090565b60048054604080516101208101825261ffff83168082526201000090930460ff1660208083019190915260058054845181840281018401865281815295969593948694908601939092919083018282801561065e57602002820191906000526020600020906000905b825461010083900a900460ff1681526020600192830181810494850194909303909202910180841161062f5790505b50505050508152602001600282018054806020026020016040519081016040528092919081815260200182805480156106d457602002820191906000526020600020906000905b825461010083900a900460ff168152602060019283018181049485019490930390920291018084116106a55790505b505050505081526020016003820180548060200260200160405190810160405280929190818152602001828054801561074a57602002820191906000526020600020906000905b825461010083900a900460ff1681526020600192830181810494850194909303909202910180841161071b5790505b50505050508152602001600482018054806020026020016040519081016040528092919081815260200182805480156107c057602002820191906000526020600020906000905b825461010083900a900460ff168152602060019283018181049485019490930390920291018084116107915790505b505050505081526020016005820180548060200260200160405190810160405280929190818152602001828054801561083657602002820191906000526020600020906000905b825461010083900a900460ff168152602060019283018181049485019490930390920291018084116108075790505b50505050508152602001600682018054806020026020016040519081016040528092919081815260200182805480156108ac57602002820191906000526020600020906000905b825461010083900a900460ff1681526020600192830181810494850194909303909202910180841161087d5790505b505050505081526020016007820180548060200260200160405190810160405280929190818152602001828054801561092257602002820191906000526020600020906000905b825461010083900a900460ff168152602060019283018181049485019490930390920291018084116108f35790505b5050505050815250509050915091509091565b61093d611791565b61ffff90911660009081526002602090815260408220600501805460018101825590835291819020835192018054939091015160ff9081166101000261ffff19909416921691909117919091179055565b610996611791565b61ffff929092166000818152600260205260409020805462ffffff19169091176201000060ff938416021763ff000000191663010000009290931691909102919091179055565b6109e5611791565b6004805461ffff169060006109f983612824565b82546101009290920a61ffff8181021990931691831602179091558251600480546020808701519390941662ffffff19909116176201000060ff90931692909202919091178155604084015180518594509192610a5c9260059290910190611ac0565b5060608201518051610a78916002840191602090910190611ac0565b5060808201518051610a94916003840191602090910190611ac0565b5060a08201518051610ab0916004840191602090910190611ac0565b5060c08201518051610acc916005840191602090910190611ac0565b5060e08201518051610ae8916006840191602090910190611ac0565b506101008201518051610b05916007840191602090910190611ac0565b50505050565b610b13611791565b61ffff909116600090815260026020908152604080832060060180546001810182559084529282902084519301805492850151949091015160ff908116620100000262ff0000199582166101000261ffff1990941691909416179190911792909216179055565b610b82611791565b61ffff90911660009081526002602090815260408220600401805460018101825590835291819020835192018054939091015160ff9081166101000261ffff19909416921691909117919091179055565b6060600082516001600160401b03811115610bf057610bf0611d36565b604051908082528060200260200182016040528015610c2957816020015b610c16611b66565b815260200190600190039081610c0e5790505b50905060005b8351811015610d235760015484516000916001600160a01b031690634025b22d90879085908110610c6257610c62612845565b60200260200101516040518263ffffffff1660e01b8152600401610c8891815260200190565b600060405180830381865afa158015610ca5573d6000803e3d6000fd5b505050506040513d6000823e601f3d908101601f19168201604052610ccd9190810190612a62565b90508060200151600003610cf4576040516303c113ad60e61b815260040160405180910390fd5b610cfd81611219565b838381518110610d0f57610d0f612845565b602090810291909101015250600101610c2f565b5092915050565b610d32611791565b61ffff9190911660009081526002602081815260408320909101805460018101825590835291819020908204018054601f9092166101000a60ff818102199093169290931692909202179055565b610d88611791565b61ffff9190911660009081526002602090815260408220600190810180549182018155835291819020908204018054601f9092166101000a60ff818102199093169290931692909202179055565b6003805461ffff16600090815260026020526040812090916006909101908390811115610e0557610e05612b68565b60ff1681548110610e1857610e18612845565b600091825260209091200154610100900460ff1692915050565b610e3a611791565b610e4460006117be565b565b60408051808201909152600080825260208201526003805461ffff166000908152600260205260409020600401908390811115610e8557610e85612b68565b60ff1681548110610e9857610e98612845565b600091825260208083206040805180820190915292015460ff81168352610100900490920b9181019190915292915050565b600081600003610edc57506001919050565b60005b8215610f055780610eef81612b7e565b9150610efe9050600a84612b97565b9250610edf565b92915050565b6000610f0582610eca565b60408051606081018252600080825260208201819052918101919091526003805461ffff1660009081526002602052604090208101908390811115610f5d57610f5d612b68565b60ff1681548110610f7057610f70612845565b6000918252602080832060408051606081018252919093015460ff8082168352610100820416928201929092526201000090910490920b9082015292915050565b60008060046007018360400151606001516003811115610fd357610fd3612b68565b60ff1681548110610fe657610fe6612845565b90600052602060002090602091828204019190069054906101000a900460ff166004600601846040015160400151600381111561102557611025612b68565b60ff168154811061103857611038612845565b90600052602060002090602091828204019190069054906101000a900460ff166004600501856040015160200151600381111561107757611077612b68565b60ff168154811061108a5761108a612845565b90600052602060002090602091828204019190069054906101000a900460ff166004800186604001516000015160038111156110c8576110c8612b68565b60ff16815481106110db576110db612845565b90600052602060002090602091828204019190069054906101000a900460ff166004600301876060015160a0015160ff168154811061111c5761111c612845565b90600052602060002090602091828204019190069054906101000a900460ff16600460020188606001516080015160ff168154811061115d5761115d612845565b90600052602060002090602091828204019190069054906101000a900460ff16600460010189606001516060015160ff168154811061119e5761119e612845565b6000918252602091829020918104909101546004546111d392601f166101000a90910460ff9081169162010000900416612bb9565b6111dd9190612bb9565b6111e79190612bb9565b6111f19190612bb9565b6111fb9190612bb9565b6112059190612bb9565b61120f9190612bb9565b60ff169392505050565b611221611b66565b8160200151600003611246576040516303c113ad60e61b815260040160405180910390fd5b600061125f83608001516000015163ffffffff16610f0b565b905060008160ff16600103611276575060006112d1565b8160ff166002036112895750600a6112d1565b8160ff1660030361129c575060146112d1565b8160ff166004036112af5750601e6112d1565b8160ff166005036112c2575060286112d1565b60068260ff16106112d1575060325b6112d9611b66565b6003805461ffff168083526000908152600260205260409081902090870151519082019181111561130c5761130c612b68565b60ff168154811061131f5761131f612845565b600091825260208083209091015460ff90811691840182905260649161134791861690612bd2565b6113519190612b97565b905080826020018181516113659190612bb9565b60ff169052506003805461ffff166000908152600260205260409081902090880151519082019181111561139b5761139b612b68565b60ff16815481106113ae576113ae612845565b60009182526020909120015460ff6101009091048116604084018190526064916113db9190861690612bd2565b6113e59190612b97565b905080826040018181516113f99190612bb9565b60ff169052506114088661180e565b60ff908116606084018190526064916114249190861690612bd2565b61142e9190612b97565b905080826060018181516114429190612bb9565b60ff90811690915260608401511660808401525061145f8661185b565b60ff90811660a0840181905260649161147b9190861690612bd2565b6114859190612b97565b9050808260a0018181516114999190612bb9565b60ff169052506114a886611a04565b60ff90811660c084018190526064916114c49190861690612bd2565b6114ce9190612b97565b9050808260c0018181516114e29190612bb9565b60ff1690525050604080516000815260208101909152610100820152949350505050565b6003805461ffff1660009081526002602052604081209091600690910190839081111561153557611535612b68565b60ff168154811061154857611548612845565b60009182526020909120015460ff1692915050565b611565611791565b600180546001600160a01b0319166001600160a01b0392909216919091179055565b61158f611791565b61ffff909116600090815260026020908152604080832060030180546001810182559084529282902084519301805492850151949091015160ff908116620100000262ff0000199582166101000261ffff1990941691909416179190911792909216179055565b6115fe611b66565b600154604051634025b22d60e01b8152600481018490526000916001600160a01b031690634025b22d90602401600060405180830381865afa158015611648573d6000803e3d6000fd5b505050506040513d6000823e601f3d908101601f191682016040526116709190810190612a62565b90508060200151600003611697576040516303c113ad60e61b815260040160405180910390fd5b6116a081611219565b9392505050565b60408051606081018252600080825260208201819052918101919091526003805461ffff166000908152600260205260409020600601908390811115610f5d57610f5d612b68565b6116f7611791565b6001600160a01b03811661172657604051631e4fbdf760e01b8152600060048201526024015b60405180910390fd5b61172f816117be565b50565b60408051808201909152600080825260208201526003805461ffff166000908152600260205260409020600501908390811115610e8557610e85612b68565b611779611791565b6003805461ffff191661ffff92909216919091179055565b6000546001600160a01b03163314610e445760405163118cdaa760e01b815233600482015260240161171d565b600080546001600160a01b038381166001600160a01b0319831681178455604051919092169283917f8be0079c531659141344cd1fd0a4f28419497f9722a3daafe3b4186f6b6457e09190a35050565b60035461ffff16600090815260026020526040812080546060840151608001516201000090910460ff1690839061184690600a612be9565b90506118528183612bb9565b95945050505050565b60035461ffff1660009081526002602052604081208054606084015160a00151630100000090910460ff16906118919082612c05565b905060008260030185604001516000015160038111156118b3576118b3612b68565b60ff16815481106118c6576118c6612845565b9060005260206000200160000160029054906101000a900460000b9050600083600401866040015160200151600381111561190357611903612b68565b60ff168154811061191657611916612845565b60009182526020822001546040808901510151610100909104820b92506005860190600381111561194957611949612b68565b60ff168154811061195c5761195c612845565b6000918252602082200154604089015160600151610100909104820b92506006870190600381111561199057611990612b68565b60ff16815481106119a3576119a3612845565b6000918252602082200154620100009004900b905080826119c48587612c05565b6119ce9190612c05565b6119d89190612c05565b6119e29086612c05565b945060008560000b136119f65760006119f8565b845b98975050505050505050565b6003805461ffff1660009081526002602090815260408083209085015190910151919290918391600484019190811115611a4057611a40612b68565b60ff1681548110611a5357611a53612845565b600091825260209091200154611a6c9060ff1682612bb9565b9050816005018460400151604001516003811115611a8c57611a8c612b68565b60ff1681548110611a9f57611a9f612845565b600091825260209091200154611ab89060ff1682612bb9565b949350505050565b82805482825590600052602060002090601f01602090048101928215611b565791602002820160005b83821115611b2757835183826101000a81548160ff021916908360ff1602179055509260200192600101602081600001049283019260010302611ae9565b8015611b545782816101000a81549060ff0219169055600101602081600001049283019260010302611b27565b505b50611b62929150611bb4565b5090565b604080516101208101825260008082526020820181905291810182905260608082018390526080820183905260a0820183905260c0820183905260e082019290925261010081019190915290565b5b80821115611b625760008155600101611bb5565b600081518084526020840193506020830160005b82811015611bfe57815160ff16865260209586019590910190600101611bdd565b5093949350505050565b82815260406020820152611c2360408201835161ffff169052565b60006020830151611c39606084018260ff169052565b5060408301516101206080840152611c55610160840182611bc9565b90506060840151603f198483030160a0850152611c728282611bc9565b9150506080840151603f198483030160c0850152611c908282611bc9565b91505060a0840151603f198483030160e0850152611cae8282611bc9565b91505060c0840151603f1984830301610100850152611ccd8282611bc9565b91505060e0840151603f1984830301610120850152611cec8282611bc9565b915050610100840151603f1984830301610140850152611d0c8282611bc9565b9695505050505050565b61ffff8116811461172f57600080fd5b8035611d3181611d16565b919050565b634e487b7160e01b600052604160045260246000fd5b60405161012081016001600160401b0381118282101715611d6f57611d6f611d36565b60405290565b604051608081016001600160401b0381118282101715611d6f57611d6f611d36565b60405160c081016001600160401b0381118282101715611d6f57611d6f611d36565b60405160e081016001600160401b0381118282101715611d6f57611d6f611d36565b604051601f8201601f191681016001600160401b0381118282101715611e0357611e03611d36565b604052919050565b60ff8116811461172f57600080fd5b8035611d3181611e0b565b8035600081900b8114611d3157600080fd5b600060408284031215611e4957600080fd5b604080519081016001600160401b0381118282101715611e6b57611e6b611d36565b6040529050808235611e7c81611e0b565b8152611e8a60208401611e25565b60208201525092915050565b60008060608385031215611ea957600080fd5b8235611eb481611d16565b9150611ec38460208501611e37565b90509250929050565b600060208284031215611ede57600080fd5b81356116a081611d16565b600080600060608486031215611efe57600080fd5b8335611f0981611d16565b92506020840135611f1981611e0b565b91506040840135611f2981611e0b565b809150509250925092565b60006001600160401b03821115611f4d57611f4d611d36565b5060051b60200190565b600082601f830112611f6857600080fd5b8135611f7b611f7682611f34565b611ddb565b8082825260208201915060208360051b860101925085831115611f9d57600080fd5b602085015b83811015611fc3578035611fb581611e0b565b835260209283019201611fa2565b5095945050505050565b600060208284031215611fdf57600080fd5b81356001600160401b03811115611ff557600080fd5b8201610120818503121561200857600080fd5b612010611d4c565b61201982611d26565b815261202760208301611e1a565b602082015260408201356001600160401b0381111561204557600080fd5b61205186828501611f57565b60408301525060608201356001600160401b0381111561207057600080fd5b61207c86828501611f57565b60608301525060808201356001600160401b0381111561209b57600080fd5b6120a786828501611f57565b60808301525060a08201356001600160401b038111156120c657600080fd5b6120d286828501611f57565b60a08301525060c08201356001600160401b038111156120f157600080fd5b6120fd86828501611f57565b60c08301525060e08201356001600160401b0381111561211c57600080fd5b61212886828501611f57565b60e0830152506101008201356001600160401b0381111561214857600080fd5b61215486828501611f57565b61010083015250949350505050565b60006060828403121561217557600080fd5b604051606081016001600160401b038111828210171561219757612197611d36565b60405290508082356121a881611e0b565b815260208301356121b881611e0b565b60208201526121c960408401611e25565b60408201525092915050565b600080608083850312156121e857600080fd5b82356121f381611d16565b9150611ec38460208501612163565b60006020828403121561221457600080fd5b81356001600160401b0381111561222a57600080fd5b8201601f8101841361223b57600080fd5b8035612249611f7682611f34565b8082825260208201915060208360051b85010192508683111561226b57600080fd5b6020840193505b82841015611d0c578335825260209384019390910190612272565b805161ffff168252600060208201516122ab602085018260ff169052565b5060408201516122c0604085018260ff169052565b5060608201516122d5606085018260ff169052565b5060808201516122ea608085018260ff169052565b5060a08201516122ff60a085018260ff169052565b5060c082015161231460c085018260ff169052565b5060e082015161232960e085018260ff169052565b50610100820151610120610100850152611ab8610120850182611bc9565b6000602082016020835280845180835260408501915060408160051b86010192506020860160005b828110156123a057603f1987860301845261238b85835161228d565b9450602093840193919091019060010161236f565b50929695505050505050565b600080604083850312156123bf57600080fd5b82356123ca81611d16565b915060208301356123da81611e0b565b809150509250929050565b6004811061172f57600080fd5b60006020828403121561240457600080fd5b81356116a0816123e5565b815160ff16815260208083015160000b9082015260408101610f05565b60006020828403121561243e57600080fd5b5035919050565b60608101610f05828460ff815116825260ff6020820151166020830152604081015160000b60408301525050565b60006001600160401b0382111561248c5761248c611d36565b50601f01601f191660200190565b6000608082840312156124ac57600080fd5b6124b4611d75565b905081356124c1816123e5565b815260208201356124d1816123e5565b602082015260408201356124e4816123e5565b604082015260608201356124f7816123e5565b606082015292915050565b600081830361016081121561251657600080fd5b61251e611d97565b83358152915060c0601f198201121561253657600080fd5b5061253f611d97565b602083013561254d81611d16565b8152604083013561255d81611e0b565b6020820152606083013561257081611e0b565b6040820152608083013561258381611d16565b606082015260a083013561259681611e0b565b608082015260c08301356125a981611e0b565b60a082015260208201526125bf60e08301611e1a565b60408201526125d16101008301611e1a565b60608201526125e36101208301611e1a565b60808201526125f56101408301611e1a565b60a082015292915050565b63ffffffff8116811461172f57600080fd5b801515811461172f57600080fd5b8035611d3181612612565b600060e0828403121561263d57600080fd5b612645611db9565b9050813561265281612600565b8152602082013561266281611d16565b6020820152604082013561267581611d16565b6040820152606082013561268881612612565b606082015261269960808301612620565b60808201526126aa60a08301612620565b60a082015260c09182013591810191909152919050565b6001600160a01b038116811461172f57600080fd5b8035611d31816126c1565b6000602082840312156126f357600080fd5b81356001600160401b0381111561270957600080fd5b8201610320818503121561271c57600080fd5b612724611d97565b81356001600160401b0381111561273a57600080fd5b8201601f8101861361274b57600080fd5b8035612759611f7682612473565b81815287602083850101111561276e57600080fd5b8160208401602083013760006020928201830152835283810135908301525061279a856040840161249a565b60408201526127ac8560c08401612502565b60608201526127bf85610220840161262b565b60808201526127d161030083016126d6565b60a0820152949350505050565b6020815260006116a0602083018461228d565b60006020828403121561280357600080fd5b81356116a0816126c1565b634e487b7160e01b600052601160045260246000fd5b600061ffff821661ffff810361283c5761283c61280e565b60010192915050565b634e487b7160e01b600052603260045260246000fd5b60006080828403121561286d57600080fd5b612875611d75565b90508151612882816123e5565b81526020820151612892816123e5565b602082015260408201516128a5816123e5565b604082015260608201516124f7816123e5565b8051611d3181611e0b565b60008183036101608112156128d757600080fd5b6128df611d97565b83518152915060c0601f19820112156128f757600080fd5b50612900611d97565b602083015161290e81611d16565b8152604083015161291e81611e0b565b6020820152606083015161293181611e0b565b6040820152608083015161294481611d16565b606082015260a083015161295781611e0b565b608082015260c083015161296a81611e0b565b60a0820152602082015261298060e083016128b8565b604082015261299261010083016128b8565b60608201526129a461012083016128b8565b60808201526125f561014083016128b8565b8051611d3181612612565b600060e082840312156129d357600080fd5b6129db611db9565b905081516129e881612600565b815260208201516129f881611d16565b60208201526040820151612a0b81611d16565b60408201526060820151612a1e81612612565b6060820152612a2f608083016129b6565b6080820152612a4060a083016129b6565b60a082015260c09182015191810191909152919050565b8051611d31816126c1565b600060208284031215612a7457600080fd5b81516001600160401b03811115612a8a57600080fd5b82016103208185031215612a9d57600080fd5b612aa5611d97565b81516001600160401b03811115612abb57600080fd5b8201601f81018613612acc57600080fd5b8051612ada611f7682612473565b818152876020838501011115612aef57600080fd5b60005b82811015612b0e57602081850181015183830182015201612af2565b50600060209282018301528352838101519083015250612b31856040840161285b565b6040820152612b438560c084016128c3565b6060820152612b568561022084016129c1565b60808201526127d16103008301612a57565b634e487b7160e01b600052602160045260246000fd5b600060018201612b9057612b9061280e565b5060010190565b600082612bb457634e487b7160e01b600052601260045260246000fd5b500490565b60ff8181168382160190811115610f0557610f0561280e565b8082028115828204841417610f0557610f0561280e565b60ff8181168382160290811690818114610d2357610d2361280e565b600081810b9083900b01607f8113607f1982121715610f0557610f0561280e56fea2646970667358221220ca675d72336d3dff2eb714e5dc57156b5c2e19567a45d6f5240b963c6354a32b64736f6c634300081c0033",
  "linkReferences": {},
  "deployedLinkReferences": {}
}