{
  "_format": "hh-sol-artifact-1",
  "contractName": "RenderBody",
  "sourceName": "contracts/Renderers/RenderBody.sol",
  "abi": [
    {
      "inputs": [
        {
          "internalType": "address[]",
          "name": "renderers",
          "type": "address[]"
        }
      ],
      "stateMutability": "nonpayable",
      "type": "constructor"
    },
    {
      "inputs": [
        {
          "components": [
            {
              "internalType": "string",
              "name": "name",
              "type": "string"
            },
            {
              "internalType": "uint256",
              "name": "id",
              "type": "uint256"
            },
            {
              "components": [
                {
                  "internalType": "enum MainWeapon",
                  "name": "mainWeapon",
                  "type": "uint8"
                },
                {
                  "internalType": "enum Armor",
                  "name": "armor",
                  "type": "uint8"
                },
                {
                  "internalType": "enum Shields",
                  "name": "shields",
                  "type": "uint8"
                },
                {
                  "internalType": "enum Special",
                  "name": "special",
                  "type": "uint8"
                }
              ],
              "internalType": "struct Equipment",
              "name": "equipment",
              "type": "tuple"
            },
            {
              "components": [
                {
                  "internalType": "uint256",
                  "name": "serialNumber",
                  "type": "uint256"
                },
                {
                  "components": [
                    {
                      "internalType": "uint16",
                      "name": "h1",
                      "type": "uint16"
                    },
                    {
                      "internalType": "uint8",
                      "name": "s1",
                      "type": "uint8"
                    },
                    {
                      "internalType": "uint8",
                      "name": "l1",
                      "type": "uint8"
                    },
                    {
                      "internalType": "uint16",
                      "name": "h2",
                      "type": "uint16"
                    },
                    {
                      "internalType": "uint8",
                      "name": "s2",
                      "type": "uint8"
                    },
                    {
                      "internalType": "uint8",
                      "name": "l2",
                      "type": "uint8"
                    },
                    {
                      "internalType": "uint16",
                      "name": "h3",
                      "type": "uint16"
                    },
                    {
                      "internalType": "uint8",
                      "name": "s3",
                      "type": "uint8"
                    },
                    {
                      "internalType": "uint8",
                      "name": "l3",
                      "type": "uint8"
                    }
                  ],
                  "internalType": "struct Colors",
                  "name": "colors",
                  "type": "tuple"
                },
                {
                  "internalType": "uint16",
                  "name": "variant",
                  "type": "uint16"
                },
                {
                  "internalType": "uint8",
                  "name": "accuracy",
                  "type": "uint8"
                },
                {
                  "internalType": "uint8",
                  "name": "hull",
                  "type": "uint8"
                },
                {
                  "internalType": "uint8",
                  "name": "speed",
                  "type": "uint8"
                }
              ],
              "internalType": "struct Traits",
              "name": "traits",
              "type": "tuple"
            },
            {
              "components": [
                {
                  "internalType": "uint32",
                  "name": "shipsDestroyed",
                  "type": "uint32"
                },
                {
                  "internalType": "uint16",
                  "name": "costsVersion",
                  "type": "uint16"
                },
                {
                  "internalType": "uint16",
                  "name": "cost",
                  "type": "uint16"
                },
                {
                  "internalType": "uint16",
                  "name": "modified",
                  "type": "uint16"
                },
                {
                  "internalType": "bool",
                  "name": "shiny",
                  "type": "bool"
                },
                {
                  "internalType": "bool",
                  "name": "constructed",
                  "type": "bool"
                },
                {
                  "internalType": "bool",
                  "name": "inFleet",
                  "type": "bool"
                },
                {
                  "internalType": "bool",
                  "name": "isFreeShip",
                  "type": "bool"
                },
                {
                  "internalType": "uint256",
                  "name": "timestampDestroyed",
                  "type": "uint256"
                }
              ],
              "internalType": "struct ShipData",
              "name": "shipData",
              "type": "tuple"
            },
            {
              "internalType": "address",
              "name": "owner",
              "type": "address"
            }
          ],
          "internalType": "struct Ship",
          "name": "ship",
          "type": "tuple"
        }
      ],
      "name": "render",
      "outputs": [
        {
          "internalType": "string",
          "name": "",
          "type": "string"
        }
      ],
      "stateMutability": "view",
      "type": "function"
    },
    {
      "inputs": [],
      "name": "renderArmor1",
      "outputs": [
        {
          "internalType": "contract IReturnSVG",
          "name": "",
          "type": "address"
        }
      ],
      "stateMutability": "view",
      "type": "function"
    },
    {
      "inputs": [],
      "name": "renderArmor2",
      "outputs": [
        {
          "internalType": "contract IReturnSVG",
          "name": "",
          "type": "address"
        }
      ],
      "stateMutability": "view",
      "type": "function"
    },
    {
      "inputs": [],
      "name": "renderArmor3",
      "outputs": [
        {
          "internalType": "contract IReturnSVG",
          "name": "",
          "type": "address"
        }
      ],
      "stateMutability": "view",
      "type": "function"
    },
    {
      "inputs": [],
      "name": "renderBaseBody",
      "outputs": [
        {
          "internalType": "contract IReturnSVG",
          "name": "",
          "type": "address"
        }
      ],
      "stateMutability": "view",
      "type": "function"
    },
    {
      "inputs": [],
      "name": "renderShield1",
      "outputs": [
        {
          "internalType": "contract IReturnSVG",
          "name": "",
          "type": "address"
        }
      ],
      "stateMutability": "view",
      "type": "function"
    },
    {
      "inputs": [],
      "name": "renderShield2",
      "outputs": [
        {
          "internalType": "contract IReturnSVG",
          "name": "",
          "type": "address"
        }
      ],
      "stateMutability": "view",
      "type": "function"
    },
    {
      "inputs": [],
      "name": "renderShield3",
      "outputs": [
        {
          "internalType": "contract IReturnSVG",
          "name": "",
          "type": "address"
        }
      ],
      "stateMutability": "view",
      "type": "function"
    }
  ],
  "bytecode": "0x61016060405234801561001157600080fd5b5060405161118f38038061118f83398101604081905261003091610230565b80516007146100935760405162461bcd60e51b815260206004820152602560248201527f496e76616c69642072656e64657265727320617272617920696e2052656e646560448201526472426f647960d81b606482015260840160405180910390fd5b806000815181106100a6576100a66102ff565b60200260200101516001600160a01b03166080816001600160a01b031681525050806001815181106100da576100da6102ff565b60200260200101516001600160a01b031660a0816001600160a01b0316815250508060028151811061010e5761010e6102ff565b60200260200101516001600160a01b031660c0816001600160a01b03168152505080600381518110610142576101426102ff565b60200260200101516001600160a01b031660e0816001600160a01b03168152505080600481518110610176576101766102ff565b60200260200101516001600160a01b0316610100816001600160a01b031681525050806005815181106101ab576101ab6102ff565b60200260200101516001600160a01b0316610120816001600160a01b031681525050806005815181106101e0576101e06102ff565b60209081029190910101516001600160a01b03166101405250610315565b634e487b7160e01b600052604160045260246000fd5b80516001600160a01b038116811461022b57600080fd5b919050565b60006020828403121561024257600080fd5b81516001600160401b0381111561025857600080fd5b8201601f8101841361026957600080fd5b80516001600160401b03811115610282576102826101fe565b604051600582901b90603f8201601f191681016001600160401b03811182821017156102b0576102b06101fe565b6040529182526020818401810192908101878411156102ce57600080fd5b6020850194505b838510156102f4576102e685610214565b8152602094850194016102d5565b509695505050505050565b634e487b7160e01b600052603260045260246000fd5b60805160a05160c05160e051610100516101205161014051610deb6103a460003960008181610192015261055601526000818160d601526104e90152600081816092015261047c01526000818161014401526103ee0152600081816101b9015261038101526000818161016b015261031401526000818160fd0152818161023b01526105a20152610deb6000f3fe608060405234801561001057600080fd5b50600436106100885760003560e01c806358fa534e1161005b57806358fa534e1461013f5780636a415c6514610166578063bf68c7111461018d578063f7245db4146101b457600080fd5b8063151760c71461008d5780634c9d978d146100d15780634f7de19b146100f85780635394d8721461011f575b600080fd5b6100b47f000000000000000000000000000000000000000000000000000000000000000081565b6040516001600160a01b0390911681526020015b60405180910390f35b6100b47f000000000000000000000000000000000000000000000000000000000000000081565b6100b47f000000000000000000000000000000000000000000000000000000000000000081565b61013261012d36600461096b565b6101db565b6040516100c89190610abf565b6100b47f000000000000000000000000000000000000000000000000000000000000000081565b6100b47f000000000000000000000000000000000000000000000000000000000000000081565b6100b47f000000000000000000000000000000000000000000000000000000000000000081565b6100b47f000000000000000000000000000000000000000000000000000000000000000081565b6060600082604001516040015160078111156101f9576101f9610ad9565b14801561021f57506000826040015160200151600781111561021d5761021d610ad9565b145b156102bb576040516329ca6c3960e11b81526001600160a01b037f00000000000000000000000000000000000000000000000000000000000000001690635394d87290610270908590600401610c83565b600060405180830381865afa15801561028d573d6000803e3d6000fd5b505050506040513d6000823e601f3d908101601f191682016040526102b59190810190610d3e565b92915050565b600082604001516040015160078111156102d7576102d7610ad9565b1461042357600182604001516040015160078111156102f8576102f8610ad9565b03610349576040516329ca6c3960e11b81526001600160a01b037f00000000000000000000000000000000000000000000000000000000000000001690635394d87290610270908590600401610c83565b6002826040015160400151600781111561036557610365610ad9565b036103b6576040516329ca6c3960e11b81526001600160a01b037f00000000000000000000000000000000000000000000000000000000000000001690635394d87290610270908590600401610c83565b600382604001516040015160078111156103d2576103d2610ad9565b03610423576040516329ca6c3960e11b81526001600160a01b037f00000000000000000000000000000000000000000000000000000000000000001690635394d87290610270908590600401610c83565b6000826040015160200151600781111561043f5761043f610ad9565b1461058b576001826040015160200151600781111561046057610460610ad9565b036104b1576040516329ca6c3960e11b81526001600160a01b037f00000000000000000000000000000000000000000000000000000000000000001690635394d87290610270908590600401610c83565b600282604001516020015160078111156104cd576104cd610ad9565b0361051e576040516329ca6c3960e11b81526001600160a01b037f00000000000000000000000000000000000000000000000000000000000000001690635394d87290610270908590600401610c83565b6003826040015160200151600781111561053a5761053a610ad9565b0361058b576040516329ca6c3960e11b81526001600160a01b037f00000000000000000000000000000000000000000000000000000000000000001690635394d87290610270908590600401610c83565b6040516329ca6c3960e11b81526001600160a01b037f00000000000000000000000000000000000000000000000000000000000000001690635394d87290610270908590600401610c83565b634e487b7160e01b600052604160045260246000fd5b60405160c0810167ffffffffffffffff81118282101715610610576106106105d7565b60405290565b604051610120810167ffffffffffffffff81118282101715610610576106106105d7565b604051601f8201601f1916810167ffffffffffffffff81118282101715610663576106636105d7565b604052919050565b600067ffffffffffffffff821115610685576106856105d7565b50601f01601f191660200190565b600881106106a057600080fd5b50565b6000608082840312156106b557600080fd5b6040516080810167ffffffffffffffff811182821017156106d8576106d86105d7565b60405290508082356106e981610693565b815260208301356106f981610693565b6020820152604083013561070c81610693565b6040820152606083013561071f81610693565b6060919091015292915050565b803561ffff8116811461073e57600080fd5b919050565b803560ff8116811461073e57600080fd5b60008183036101c081121561076857600080fd5b6107706105ed565b833581529150610120601f198201121561078957600080fd5b50610792610616565b61079e6020840161072c565b81526107ac60408401610743565b60208201526107bd60608401610743565b60408201526107ce6080840161072c565b60608201526107df60a08401610743565b60808201526107f060c08401610743565b60a082015261080160e0840161072c565b60c08201526108136101008401610743565b60e08201526108256101208401610743565b610100820152602082015261083d610140830161072c565b604082015261084f6101608301610743565b60608201526108616101808301610743565b60808201526108736101a08301610743565b60a082015292915050565b803563ffffffff8116811461073e57600080fd5b8035801515811461073e57600080fd5b600061012082840312156108b557600080fd5b6108bd610616565b90506108c88261087e565b81526108d66020830161072c565b60208201526108e76040830161072c565b60408201526108f86060830161072c565b606082015261090960808301610892565b608082015261091a60a08301610892565b60a082015261092b60c08301610892565b60c082015261093c60e08301610892565b60e08201526101009182013591810191909152919050565b80356001600160a01b038116811461073e57600080fd5b60006020828403121561097d57600080fd5b813567ffffffffffffffff81111561099457600080fd5b82016103c081850312156109a757600080fd5b6109af6105ed565b813567ffffffffffffffff8111156109c657600080fd5b8201601f810186136109d757600080fd5b80356109ea6109e58261066b565b61063a565b8181528760208385010111156109ff57600080fd5b81602084016020830137600060209282018301528352838101359083015250610a2b85604084016106a3565b6040820152610a3d8560c08401610754565b6060820152610a508561028084016108a2565b6080820152610a626103a08301610954565b60a0820152949350505050565b60005b83811015610a8a578181015183820152602001610a72565b50506000910152565b60008151808452610aab816020860160208601610a6f565b601f01601f19169290920160200192915050565b602081526000610ad26020830184610a93565b9392505050565b634e487b7160e01b600052602160045260246000fd5b600881106106a057634e487b7160e01b600052602160045260246000fd5b80518252602081015161ffff815116602084015260ff60208201511660408401526040810151610b42606085018260ff169052565b50606081015161ffff8116608085015250608081015160ff811660a08501525060a081015160ff811660c08501525060c081015161ffff811660e08501525060e081015160ff811661010085015250610100015160ff811661012084015250604081015161ffff811661014084015250606081015160ff811661016084015250608081015160ff81166101808401525060a0015160ff166101a09190910152565b63ffffffff815116825261ffff60208201511660208301526040810151610c10604084018261ffff169052565b506060810151610c26606084018261ffff169052565b506080810151610c3a608084018215159052565b5060a0810151610c4e60a084018215159052565b5060c0810151610c6260c084018215159052565b5060e0810151610c7660e084018215159052565b5061010090810151910152565b60208152600082516103c06020840152610ca16103e0840182610a93565b90506020840151604084015260408401518051610cbd81610aef565b60608501526020810151610cd081610aef565b60808501526040810151610ce381610aef565b60a085015260600151610cf581610aef565b60c08401526060840151610d0c60e0850182610b0d565b506080840151610d206102a0850182610be3565b5060a08401516001600160a01b0381166103c0850152509392505050565b600060208284031215610d5057600080fd5b815167ffffffffffffffff811115610d6757600080fd5b8201601f81018413610d7857600080fd5b8051610d866109e58261066b565b818152856020838501011115610d9b57600080fd5b610dac826020830160208601610a6f565b9594505050505056fea2646970667358221220952a04320695ad43494f96e073ef7f02372619dfc11eea57dc423841a351941864736f6c634300081c0033",
  "linkReferences": {},
  "deployedLinkReferences": {}
}