{
  "_format": "hh-sol-artifact-1",
  "contractName": "Game",
  "sourceName": "contracts/Game.sol",
  "abi": [
    {
      "inputs": [
        {
          "internalType": "address",
          "name": "_ships",
          "type": "address"
        },
        {
          "internalType": "address",
          "name": "_shipAttributes",
          "type": "address"
        }
      ],
      "stateMutability": "nonpayable",
      "type": "constructor"
    },
    {
      "inputs": [],
      "name": "ActionRequired",
      "type": "error"
    },
    {
      "inputs": [],
      "name": "GameNotFound",
      "type": "error"
    },
    {
      "inputs": [],
      "name": "InvalidMove",
      "type": "error"
    },
    {
      "inputs": [],
      "name": "InvalidPosition",
      "type": "error"
    },
    {
      "inputs": [],
      "name": "NotInGame",
      "type": "error"
    },
    {
      "inputs": [],
      "name": "NotLobbiesContract",
      "type": "error"
    },
    {
      "inputs": [],
      "name": "NotYourTurn",
      "type": "error"
    },
    {
      "inputs": [
        {
          "internalType": "address",
          "name": "owner",
          "type": "address"
        }
      ],
      "name": "OwnableInvalidOwner",
      "type": "error"
    },
    {
      "inputs": [
        {
          "internalType": "address",
          "name": "account",
          "type": "address"
        }
      ],
      "name": "OwnableUnauthorizedAccount",
      "type": "error"
    },
    {
      "inputs": [],
      "name": "PositionOccupied",
      "type": "error"
    },
    {
      "inputs": [],
      "name": "ShipAlreadyMoved",
      "type": "error"
    },
    {
      "inputs": [],
      "name": "ShipDestroyed",
      "type": "error"
    },
    {
      "inputs": [],
      "name": "ShipNotFound",
      "type": "error"
    },
    {
      "inputs": [],
      "name": "ShipNotOwned",
      "type": "error"
    },
    {
      "inputs": [],
      "name": "TurnTimeoutExceeded",
      "type": "error"
    },
    {
      "inputs": [],
      "name": "TurnTimeoutNotReached",
      "type": "error"
    },
    {
      "anonymous": false,
      "inputs": [
        {
          "indexed": true,
          "internalType": "uint256",
          "name": "gameId",
          "type": "uint256"
        },
        {
          "indexed": true,
          "internalType": "uint256",
          "name": "lobbyId",
          "type": "uint256"
        },
        {
          "indexed": false,
          "internalType": "address",
          "name": "creator",
          "type": "address"
        },
        {
          "indexed": false,
          "internalType": "address",
          "name": "joiner",
          "type": "address"
        }
      ],
      "name": "GameStarted",
      "type": "event"
    },
    {
      "anonymous": false,
      "inputs": [
        {
          "indexed": true,
          "internalType": "uint256",
          "name": "gameId",
          "type": "uint256"
        }
      ],
      "name": "GameUpdate",
      "type": "event"
    },
    {
      "anonymous": false,
      "inputs": [
        {
          "indexed": true,
          "internalType": "uint256",
          "name": "gameId",
          "type": "uint256"
        },
        {
          "indexed": false,
          "internalType": "uint256",
          "name": "shipId",
          "type": "uint256"
        },
        {
          "indexed": false,
          "internalType": "int16",
          "name": "newRow",
          "type": "int16"
        },
        {
          "indexed": false,
          "internalType": "int16",
          "name": "newCol",
          "type": "int16"
        },
        {
          "indexed": false,
          "internalType": "enum ActionType",
          "name": "actionType",
          "type": "uint8"
        },
        {
          "indexed": false,
          "internalType": "uint256",
          "name": "targetShipId",
          "type": "uint256"
        }
      ],
      "name": "Move",
      "type": "event"
    },
    {
      "anonymous": false,
      "inputs": [
        {
          "indexed": true,
          "internalType": "address",
          "name": "previousOwner",
          "type": "address"
        },
        {
          "indexed": true,
          "internalType": "address",
          "name": "newOwner",
          "type": "address"
        }
      ],
      "name": "OwnershipTransferred",
      "type": "event"
    },
    {
      "inputs": [],
      "name": "GRID_HEIGHT",
      "outputs": [
        {
          "internalType": "int16",
          "name": "",
          "type": "int16"
        }
      ],
      "stateMutability": "view",
      "type": "function"
    },
    {
      "inputs": [],
      "name": "GRID_WIDTH",
      "outputs": [
        {
          "internalType": "int16",
          "name": "",
          "type": "int16"
        }
      ],
      "stateMutability": "view",
      "type": "function"
    },
    {
      "inputs": [
        {
          "internalType": "uint256",
          "name": "_gameId",
          "type": "uint256"
        },
        {
          "internalType": "uint256[]",
          "name": "_shipIds",
          "type": "uint256[]"
        }
      ],
      "name": "calculateFleetAttributes",
      "outputs": [],
      "stateMutability": "nonpayable",
      "type": "function"
    },
    {
      "inputs": [
        {
          "internalType": "uint256",
          "name": "_gameId",
          "type": "uint256"
        },
        {
          "internalType": "uint256",
          "name": "_shipId",
          "type": "uint256"
        }
      ],
      "name": "calculateShipAttributes",
      "outputs": [],
      "stateMutability": "nonpayable",
      "type": "function"
    },
    {
      "inputs": [
        {
          "internalType": "uint256",
          "name": "_gameId",
          "type": "uint256"
        },
        {
          "internalType": "uint256",
          "name": "_shipId",
          "type": "uint256"
        }
      ],
      "name": "debugDestroyShip",
      "outputs": [],
      "stateMutability": "nonpayable",
      "type": "function"
    },
    {
      "inputs": [
        {
          "internalType": "uint256",
          "name": "_gameId",
          "type": "uint256"
        },
        {
          "internalType": "uint256",
          "name": "_shipId",
          "type": "uint256"
        }
      ],
      "name": "debugMarkShipAsMoved",
      "outputs": [],
      "stateMutability": "nonpayable",
      "type": "function"
    },
    {
      "inputs": [
        {
          "internalType": "uint256",
          "name": "_gameId",
          "type": "uint256"
        },
        {
          "internalType": "uint256",
          "name": "_shipId",
          "type": "uint256"
        }
      ],
      "name": "debugSetHullPointsToZero",
      "outputs": [],
      "stateMutability": "nonpayable",
      "type": "function"
    },
    {
      "inputs": [
        {
          "internalType": "uint256",
          "name": "_gameId",
          "type": "uint256"
        },
        {
          "internalType": "uint256",
          "name": "_shipId",
          "type": "uint256"
        },
        {
          "internalType": "uint8",
          "name": "_timer",
          "type": "uint8"
        }
      ],
      "name": "debugSetReactorCriticalTimer",
      "outputs": [],
      "stateMutability": "nonpayable",
      "type": "function"
    },
    {
      "inputs": [
        {
          "internalType": "uint256",
          "name": "_gameId",
          "type": "uint256"
        },
        {
          "internalType": "uint256",
          "name": "_shipId",
          "type": "uint256"
        },
        {
          "internalType": "int16",
          "name": "_row",
          "type": "int16"
        },
        {
          "internalType": "int16",
          "name": "_col",
          "type": "int16"
        }
      ],
      "name": "debugSetShipPosition",
      "outputs": [],
      "stateMutability": "nonpayable",
      "type": "function"
    },
    {
      "inputs": [
        {
          "internalType": "uint256",
          "name": "_gameId",
          "type": "uint256"
        }
      ],
      "name": "flee",
      "outputs": [],
      "stateMutability": "nonpayable",
      "type": "function"
    },
    {
      "inputs": [],
      "name": "fleets",
      "outputs": [
        {
          "internalType": "contract IFleets",
          "name": "",
          "type": "address"
        }
      ],
      "stateMutability": "view",
      "type": "function"
    },
    {
      "inputs": [
        {
          "internalType": "uint256",
          "name": "_gameId",
          "type": "uint256"
        }
      ],
      "name": "forceMoveOnTimeout",
      "outputs": [],
      "stateMutability": "nonpayable",
      "type": "function"
    },
    {
      "inputs": [],
      "name": "gameCount",
      "outputs": [
        {
          "internalType": "uint256",
          "name": "",
          "type": "uint256"
        }
      ],
      "stateMutability": "view",
      "type": "function"
    },
    {
      "inputs": [],
      "name": "gameResults",
      "outputs": [
        {
          "internalType": "contract IGameResults",
          "name": "",
          "type": "address"
        }
      ],
      "stateMutability": "view",
      "type": "function"
    },
    {
      "inputs": [
        {
          "internalType": "uint256",
          "name": "",
          "type": "uint256"
        }
      ],
      "name": "games",
      "outputs": [
        {
          "components": [
            {
              "internalType": "uint256",
              "name": "gameId",
              "type": "uint256"
            },
            {
              "internalType": "uint256",
              "name": "lobbyId",
              "type": "uint256"
            },
            {
              "internalType": "address",
              "name": "creator",
              "type": "address"
            },
            {
              "internalType": "address",
              "name": "joiner",
              "type": "address"
            },
            {
              "internalType": "uint256",
              "name": "creatorFleetId",
              "type": "uint256"
            },
            {
              "internalType": "uint256",
              "name": "joinerFleetId",
              "type": "uint256"
            },
            {
              "internalType": "bool",
              "name": "creatorGoesFirst",
              "type": "bool"
            },
            {
              "internalType": "uint256",
              "name": "startedAt",
              "type": "uint256"
            },
            {
              "internalType": "address",
              "name": "winner",
              "type": "address"
            }
          ],
          "internalType": "struct GameMetadata",
          "name": "metadata",
          "type": "tuple"
        },
        {
          "components": [
            {
              "internalType": "address",
              "name": "currentTurn",
              "type": "address"
            },
            {
              "internalType": "uint256",
              "name": "turnTime",
              "type": "uint256"
            },
            {
              "internalType": "uint256",
              "name": "turnStartTime",
              "type": "uint256"
            },
            {
              "internalType": "uint256",
              "name": "currentRound",
              "type": "uint256"
            }
          ],
          "internalType": "struct GameTurnState",
          "name": "turnState",
          "type": "tuple"
        },
        {
          "components": [
            {
              "internalType": "int16",
              "name": "gridWidth",
              "type": "int16"
            },
            {
              "internalType": "int16",
              "name": "gridHeight",
              "type": "int16"
            }
          ],
          "internalType": "struct GameGridDimensions",
          "name": "gridDimensions",
          "type": "tuple"
        },
        {
          "internalType": "uint256",
          "name": "maxScore",
          "type": "uint256"
        },
        {
          "internalType": "uint256",
          "name": "creatorScore",
          "type": "uint256"
        },
        {
          "internalType": "uint256",
          "name": "joinerScore",
          "type": "uint256"
        }
      ],
      "stateMutability": "view",
      "type": "function"
    },
    {
      "inputs": [
        {
          "internalType": "uint256",
          "name": "_gameId",
          "type": "uint256"
        }
      ],
      "name": "getAllShipPositions",
      "outputs": [
        {
          "components": [
            {
              "internalType": "uint256",
              "name": "shipId",
              "type": "uint256"
            },
            {
              "components": [
                {
                  "internalType": "int16",
                  "name": "row",
                  "type": "int16"
                },
                {
                  "internalType": "int16",
                  "name": "col",
                  "type": "int16"
                }
              ],
              "internalType": "struct Position",
              "name": "position",
              "type": "tuple"
            },
            {
              "internalType": "bool",
              "name": "isCreator",
              "type": "bool"
            }
          ],
          "internalType": "struct ShipPosition[]",
          "name": "",
          "type": "tuple[]"
        }
      ],
      "stateMutability": "view",
      "type": "function"
    },
    {
      "inputs": [
        {
          "internalType": "uint256",
          "name": "_gameId",
          "type": "uint256"
        }
      ],
      "name": "getGame",
      "outputs": [
        {
          "components": [
            {
              "components": [
                {
                  "internalType": "uint256",
                  "name": "gameId",
                  "type": "uint256"
                },
                {
                  "internalType": "uint256",
                  "name": "lobbyId",
                  "type": "uint256"
                },
                {
                  "internalType": "address",
                  "name": "creator",
                  "type": "address"
                },
                {
                  "internalType": "address",
                  "name": "joiner",
                  "type": "address"
                },
                {
                  "internalType": "uint256",
                  "name": "creatorFleetId",
                  "type": "uint256"
                },
                {
                  "internalType": "uint256",
                  "name": "joinerFleetId",
                  "type": "uint256"
                },
                {
                  "internalType": "bool",
                  "name": "creatorGoesFirst",
                  "type": "bool"
                },
                {
                  "internalType": "uint256",
                  "name": "startedAt",
                  "type": "uint256"
                },
                {
                  "internalType": "address",
                  "name": "winner",
                  "type": "address"
                }
              ],
              "internalType": "struct GameMetadata",
              "name": "metadata",
              "type": "tuple"
            },
            {
              "components": [
                {
                  "internalType": "address",
                  "name": "currentTurn",
                  "type": "address"
                },
                {
                  "internalType": "uint256",
                  "name": "turnTime",
                  "type": "uint256"
                },
                {
                  "internalType": "uint256",
                  "name": "turnStartTime",
                  "type": "uint256"
                },
                {
                  "internalType": "uint256",
                  "name": "currentRound",
                  "type": "uint256"
                }
              ],
              "internalType": "struct GameTurnState",
              "name": "turnState",
              "type": "tuple"
            },
            {
              "components": [
                {
                  "internalType": "int16",
                  "name": "gridWidth",
                  "type": "int16"
                },
                {
                  "internalType": "int16",
                  "name": "gridHeight",
                  "type": "int16"
                }
              ],
              "internalType": "struct GameGridDimensions",
              "name": "gridDimensions",
              "type": "tuple"
            },
            {
              "internalType": "uint256",
              "name": "maxScore",
              "type": "uint256"
            },
            {
              "internalType": "uint256",
              "name": "creatorScore",
              "type": "uint256"
            },
            {
              "internalType": "uint256",
              "name": "joinerScore",
              "type": "uint256"
            },
            {
              "internalType": "uint256[]",
              "name": "shipIds",
              "type": "uint256[]"
            },
            {
              "components": [
                {
                  "internalType": "uint16",
                  "name": "version",
                  "type": "uint16"
                },
                {
                  "internalType": "uint8",
                  "name": "range",
                  "type": "uint8"
                },
                {
                  "internalType": "uint8",
                  "name": "gunDamage",
                  "type": "uint8"
                },
                {
                  "internalType": "uint8",
                  "name": "hullPoints",
                  "type": "uint8"
                },
                {
                  "internalType": "uint8",
                  "name": "maxHullPoints",
                  "type": "uint8"
                },
                {
                  "internalType": "uint8",
                  "name": "movement",
                  "type": "uint8"
                },
                {
                  "internalType": "uint8",
                  "name": "damageReduction",
                  "type": "uint8"
                },
                {
                  "internalType": "uint8",
                  "name": "reactorCriticalTimer",
                  "type": "uint8"
                },
                {
                  "internalType": "uint8[]",
                  "name": "statusEffects",
                  "type": "uint8[]"
                }
              ],
              "internalType": "struct Attributes[]",
              "name": "shipAttributes",
              "type": "tuple[]"
            },
            {
              "components": [
                {
                  "internalType": "uint256",
                  "name": "shipId",
                  "type": "uint256"
                },
                {
                  "components": [
                    {
                      "internalType": "int16",
                      "name": "row",
                      "type": "int16"
                    },
                    {
                      "internalType": "int16",
                      "name": "col",
                      "type": "int16"
                    }
                  ],
                  "internalType": "struct Position",
                  "name": "position",
                  "type": "tuple"
                },
                {
                  "internalType": "bool",
                  "name": "isCreator",
                  "type": "bool"
                }
              ],
              "internalType": "struct ShipPosition[]",
              "name": "shipPositions",
              "type": "tuple[]"
            },
            {
              "internalType": "uint256[]",
              "name": "creatorActiveShipIds",
              "type": "uint256[]"
            },
            {
              "internalType": "uint256[]",
              "name": "joinerActiveShipIds",
              "type": "uint256[]"
            },
            {
              "internalType": "uint256[]",
              "name": "creatorMovedShipIds",
              "type": "uint256[]"
            },
            {
              "internalType": "uint256[]",
              "name": "joinerMovedShipIds",
              "type": "uint256[]"
            }
          ],
          "internalType": "struct GameDataView",
          "name": "",
          "type": "tuple"
        }
      ],
      "stateMutability": "view",
      "type": "function"
    },
    {
      "inputs": [
        {
          "internalType": "address",
          "name": "_player",
          "type": "address"
        }
      ],
      "name": "getGamesForPlayer",
      "outputs": [
        {
          "components": [
            {
              "components": [
                {
                  "internalType": "uint256",
                  "name": "gameId",
                  "type": "uint256"
                },
                {
                  "internalType": "uint256",
                  "name": "lobbyId",
                  "type": "uint256"
                },
                {
                  "internalType": "address",
                  "name": "creator",
                  "type": "address"
                },
                {
                  "internalType": "address",
                  "name": "joiner",
                  "type": "address"
                },
                {
                  "internalType": "uint256",
                  "name": "creatorFleetId",
                  "type": "uint256"
                },
                {
                  "internalType": "uint256",
                  "name": "joinerFleetId",
                  "type": "uint256"
                },
                {
                  "internalType": "bool",
                  "name": "creatorGoesFirst",
                  "type": "bool"
                },
                {
                  "internalType": "uint256",
                  "name": "startedAt",
                  "type": "uint256"
                },
                {
                  "internalType": "address",
                  "name": "winner",
                  "type": "address"
                }
              ],
              "internalType": "struct GameMetadata",
              "name": "metadata",
              "type": "tuple"
            },
            {
              "components": [
                {
                  "internalType": "address",
                  "name": "currentTurn",
                  "type": "address"
                },
                {
                  "internalType": "uint256",
                  "name": "turnTime",
                  "type": "uint256"
                },
                {
                  "internalType": "uint256",
                  "name": "turnStartTime",
                  "type": "uint256"
                },
                {
                  "internalType": "uint256",
                  "name": "currentRound",
                  "type": "uint256"
                }
              ],
              "internalType": "struct GameTurnState",
              "name": "turnState",
              "type": "tuple"
            },
            {
              "components": [
                {
                  "internalType": "int16",
                  "name": "gridWidth",
                  "type": "int16"
                },
                {
                  "internalType": "int16",
                  "name": "gridHeight",
                  "type": "int16"
                }
              ],
              "internalType": "struct GameGridDimensions",
              "name": "gridDimensions",
              "type": "tuple"
            },
            {
              "internalType": "uint256",
              "name": "maxScore",
              "type": "uint256"
            },
            {
              "internalType": "uint256",
              "name": "creatorScore",
              "type": "uint256"
            },
            {
              "internalType": "uint256",
              "name": "joinerScore",
              "type": "uint256"
            },
            {
              "internalType": "uint256[]",
              "name": "shipIds",
              "type": "uint256[]"
            },
            {
              "components": [
                {
                  "internalType": "uint16",
                  "name": "version",
                  "type": "uint16"
                },
                {
                  "internalType": "uint8",
                  "name": "range",
                  "type": "uint8"
                },
                {
                  "internalType": "uint8",
                  "name": "gunDamage",
                  "type": "uint8"
                },
                {
                  "internalType": "uint8",
                  "name": "hullPoints",
                  "type": "uint8"
                },
                {
                  "internalType": "uint8",
                  "name": "maxHullPoints",
                  "type": "uint8"
                },
                {
                  "internalType": "uint8",
                  "name": "movement",
                  "type": "uint8"
                },
                {
                  "internalType": "uint8",
                  "name": "damageReduction",
                  "type": "uint8"
                },
                {
                  "internalType": "uint8",
                  "name": "reactorCriticalTimer",
                  "type": "uint8"
                },
                {
                  "internalType": "uint8[]",
                  "name": "statusEffects",
                  "type": "uint8[]"
                }
              ],
              "internalType": "struct Attributes[]",
              "name": "shipAttributes",
              "type": "tuple[]"
            },
            {
              "components": [
                {
                  "internalType": "uint256",
                  "name": "shipId",
                  "type": "uint256"
                },
                {
                  "components": [
                    {
                      "internalType": "int16",
                      "name": "row",
                      "type": "int16"
                    },
                    {
                      "internalType": "int16",
                      "name": "col",
                      "type": "int16"
                    }
                  ],
                  "internalType": "struct Position",
                  "name": "position",
                  "type": "tuple"
                },
                {
                  "internalType": "bool",
                  "name": "isCreator",
                  "type": "bool"
                }
              ],
              "internalType": "struct ShipPosition[]",
              "name": "shipPositions",
              "type": "tuple[]"
            },
            {
              "internalType": "uint256[]",
              "name": "creatorActiveShipIds",
              "type": "uint256[]"
            },
            {
              "internalType": "uint256[]",
              "name": "joinerActiveShipIds",
              "type": "uint256[]"
            },
            {
              "internalType": "uint256[]",
              "name": "creatorMovedShipIds",
              "type": "uint256[]"
            },
            {
              "internalType": "uint256[]",
              "name": "joinerMovedShipIds",
              "type": "uint256[]"
            }
          ],
          "internalType": "struct GameDataView[]",
          "name": "",
          "type": "tuple[]"
        }
      ],
      "stateMutability": "view",
      "type": "function"
    },
    {
      "inputs": [
        {
          "internalType": "uint256[]",
          "name": "_gameIds",
          "type": "uint256[]"
        }
      ],
      "name": "getGamesFromIds",
      "outputs": [
        {
          "components": [
            {
              "components": [
                {
                  "internalType": "uint256",
                  "name": "gameId",
                  "type": "uint256"
                },
                {
                  "internalType": "uint256",
                  "name": "lobbyId",
                  "type": "uint256"
                },
                {
                  "internalType": "address",
                  "name": "creator",
                  "type": "address"
                },
                {
                  "internalType": "address",
                  "name": "joiner",
                  "type": "address"
                },
                {
                  "internalType": "uint256",
                  "name": "creatorFleetId",
                  "type": "uint256"
                },
                {
                  "internalType": "uint256",
                  "name": "joinerFleetId",
                  "type": "uint256"
                },
                {
                  "internalType": "bool",
                  "name": "creatorGoesFirst",
                  "type": "bool"
                },
                {
                  "internalType": "uint256",
                  "name": "startedAt",
                  "type": "uint256"
                },
                {
                  "internalType": "address",
                  "name": "winner",
                  "type": "address"
                }
              ],
              "internalType": "struct GameMetadata",
              "name": "metadata",
              "type": "tuple"
            },
            {
              "components": [
                {
                  "internalType": "address",
                  "name": "currentTurn",
                  "type": "address"
                },
                {
                  "internalType": "uint256",
                  "name": "turnTime",
                  "type": "uint256"
                },
                {
                  "internalType": "uint256",
                  "name": "turnStartTime",
                  "type": "uint256"
                },
                {
                  "internalType": "uint256",
                  "name": "currentRound",
                  "type": "uint256"
                }
              ],
              "internalType": "struct GameTurnState",
              "name": "turnState",
              "type": "tuple"
            },
            {
              "components": [
                {
                  "internalType": "int16",
                  "name": "gridWidth",
                  "type": "int16"
                },
                {
                  "internalType": "int16",
                  "name": "gridHeight",
                  "type": "int16"
                }
              ],
              "internalType": "struct GameGridDimensions",
              "name": "gridDimensions",
              "type": "tuple"
            },
            {
              "internalType": "uint256",
              "name": "maxScore",
              "type": "uint256"
            },
            {
              "internalType": "uint256",
              "name": "creatorScore",
              "type": "uint256"
            },
            {
              "internalType": "uint256",
              "name": "joinerScore",
              "type": "uint256"
            },
            {
              "internalType": "uint256[]",
              "name": "shipIds",
              "type": "uint256[]"
            },
            {
              "components": [
                {
                  "internalType": "uint16",
                  "name": "version",
                  "type": "uint16"
                },
                {
                  "internalType": "uint8",
                  "name": "range",
                  "type": "uint8"
                },
                {
                  "internalType": "uint8",
                  "name": "gunDamage",
                  "type": "uint8"
                },
                {
                  "internalType": "uint8",
                  "name": "hullPoints",
                  "type": "uint8"
                },
                {
                  "internalType": "uint8",
                  "name": "maxHullPoints",
                  "type": "uint8"
                },
                {
                  "internalType": "uint8",
                  "name": "movement",
                  "type": "uint8"
                },
                {
                  "internalType": "uint8",
                  "name": "damageReduction",
                  "type": "uint8"
                },
                {
                  "internalType": "uint8",
                  "name": "reactorCriticalTimer",
                  "type": "uint8"
                },
                {
                  "internalType": "uint8[]",
                  "name": "statusEffects",
                  "type": "uint8[]"
                }
              ],
              "internalType": "struct Attributes[]",
              "name": "shipAttributes",
              "type": "tuple[]"
            },
            {
              "components": [
                {
                  "internalType": "uint256",
                  "name": "shipId",
                  "type": "uint256"
                },
                {
                  "components": [
                    {
                      "internalType": "int16",
                      "name": "row",
                      "type": "int16"
                    },
                    {
                      "internalType": "int16",
                      "name": "col",
                      "type": "int16"
                    }
                  ],
                  "internalType": "struct Position",
                  "name": "position",
                  "type": "tuple"
                },
                {
                  "internalType": "bool",
                  "name": "isCreator",
                  "type": "bool"
                }
              ],
              "internalType": "struct ShipPosition[]",
              "name": "shipPositions",
              "type": "tuple[]"
            },
            {
              "internalType": "uint256[]",
              "name": "creatorActiveShipIds",
              "type": "uint256[]"
            },
            {
              "internalType": "uint256[]",
              "name": "joinerActiveShipIds",
              "type": "uint256[]"
            },
            {
              "internalType": "uint256[]",
              "name": "creatorMovedShipIds",
              "type": "uint256[]"
            },
            {
              "internalType": "uint256[]",
              "name": "joinerMovedShipIds",
              "type": "uint256[]"
            }
          ],
          "internalType": "struct GameDataView[]",
          "name": "",
          "type": "tuple[]"
        }
      ],
      "stateMutability": "view",
      "type": "function"
    },
    {
      "inputs": [
        {
          "internalType": "address",
          "name": "_player",
          "type": "address"
        }
      ],
      "name": "getPlayerGameIds",
      "outputs": [
        {
          "internalType": "uint256[]",
          "name": "",
          "type": "uint256[]"
        }
      ],
      "stateMutability": "view",
      "type": "function"
    },
    {
      "inputs": [
        {
          "internalType": "uint256",
          "name": "_gameId",
          "type": "uint256"
        },
        {
          "internalType": "uint256",
          "name": "_shipId",
          "type": "uint256"
        }
      ],
      "name": "getShipAttributes",
      "outputs": [
        {
          "components": [
            {
              "internalType": "uint16",
              "name": "version",
              "type": "uint16"
            },
            {
              "internalType": "uint8",
              "name": "range",
              "type": "uint8"
            },
            {
              "internalType": "uint8",
              "name": "gunDamage",
              "type": "uint8"
            },
            {
              "internalType": "uint8",
              "name": "hullPoints",
              "type": "uint8"
            },
            {
              "internalType": "uint8",
              "name": "maxHullPoints",
              "type": "uint8"
            },
            {
              "internalType": "uint8",
              "name": "movement",
              "type": "uint8"
            },
            {
              "internalType": "uint8",
              "name": "damageReduction",
              "type": "uint8"
            },
            {
              "internalType": "uint8",
              "name": "reactorCriticalTimer",
              "type": "uint8"
            },
            {
              "internalType": "uint8[]",
              "name": "statusEffects",
              "type": "uint8[]"
            }
          ],
          "internalType": "struct Attributes",
          "name": "",
          "type": "tuple"
        }
      ],
      "stateMutability": "view",
      "type": "function"
    },
    {
      "inputs": [
        {
          "internalType": "uint256",
          "name": "target",
          "type": "uint256"
        }
      ],
      "name": "lastDamage",
      "outputs": [
        {
          "internalType": "uint256",
          "name": "lastDamager",
          "type": "uint256"
        }
      ],
      "stateMutability": "view",
      "type": "function"
    },
    {
      "inputs": [],
      "name": "lobbiesAddress",
      "outputs": [
        {
          "internalType": "address",
          "name": "",
          "type": "address"
        }
      ],
      "stateMutability": "view",
      "type": "function"
    },
    {
      "inputs": [],
      "name": "maps",
      "outputs": [
        {
          "internalType": "contract IMaps",
          "name": "",
          "type": "address"
        }
      ],
      "stateMutability": "view",
      "type": "function"
    },
    {
      "inputs": [
        {
          "internalType": "uint256",
          "name": "_gameId",
          "type": "uint256"
        },
        {
          "internalType": "uint256",
          "name": "_shipId",
          "type": "uint256"
        },
        {
          "internalType": "int16",
          "name": "_newRow",
          "type": "int16"
        },
        {
          "internalType": "int16",
          "name": "_newCol",
          "type": "int16"
        },
        {
          "internalType": "enum ActionType",
          "name": "actionType",
          "type": "uint8"
        },
        {
          "internalType": "uint256",
          "name": "targetShipId",
          "type": "uint256"
        }
      ],
      "name": "moveShip",
      "outputs": [],
      "stateMutability": "nonpayable",
      "type": "function"
    },
    {
      "inputs": [],
      "name": "owner",
      "outputs": [
        {
          "internalType": "address",
          "name": "",
          "type": "address"
        }
      ],
      "stateMutability": "view",
      "type": "function"
    },
    {
      "inputs": [
        {
          "internalType": "address",
          "name": "",
          "type": "address"
        },
        {
          "internalType": "uint256",
          "name": "",
          "type": "uint256"
        }
      ],
      "name": "playerGames",
      "outputs": [
        {
          "internalType": "uint256",
          "name": "",
          "type": "uint256"
        }
      ],
      "stateMutability": "view",
      "type": "function"
    },
    {
      "inputs": [],
      "name": "renounceOwnership",
      "outputs": [],
      "stateMutability": "nonpayable",
      "type": "function"
    },
    {
      "inputs": [
        {
          "internalType": "address",
          "name": "_mapsAddress",
          "type": "address"
        },
        {
          "internalType": "address",
          "name": "_lobbiesAddress",
          "type": "address"
        },
        {
          "internalType": "address",
          "name": "_fleetsAddress",
          "type": "address"
        },
        {
          "internalType": "address",
          "name": "_gameResultsAddress",
          "type": "address"
        },
        {
          "internalType": "address",
          "name": "_shipAttributesAddress",
          "type": "address"
        }
      ],
      "name": "setAddresses",
      "outputs": [],
      "stateMutability": "nonpayable",
      "type": "function"
    },
    {
      "inputs": [],
      "name": "shipAttributes",
      "outputs": [
        {
          "internalType": "contract IShipAttributes",
          "name": "",
          "type": "address"
        }
      ],
      "stateMutability": "view",
      "type": "function"
    },
    {
      "inputs": [],
      "name": "ships",
      "outputs": [
        {
          "internalType": "contract IShips",
          "name": "",
          "type": "address"
        }
      ],
      "stateMutability": "view",
      "type": "function"
    },
    {
      "inputs": [
        {
          "internalType": "uint256",
          "name": "_lobbyId",
          "type": "uint256"
        },
        {
          "internalType": "address",
          "name": "_creator",
          "type": "address"
        },
        {
          "internalType": "address",
          "name": "_joiner",
          "type": "address"
        },
        {
          "internalType": "uint256",
          "name": "_creatorFleetId",
          "type": "uint256"
        },
        {
          "internalType": "uint256",
          "name": "_joinerFleetId",
          "type": "uint256"
        },
        {
          "internalType": "bool",
          "name": "_creatorGoesFirst",
          "type": "bool"
        },
        {
          "internalType": "uint256",
          "name": "_turnTime",
          "type": "uint256"
        },
        {
          "internalType": "uint256",
          "name": "_selectedMapId",
          "type": "uint256"
        },
        {
          "internalType": "uint256",
          "name": "_maxScore",
          "type": "uint256"
        }
      ],
      "name": "startGame",
      "outputs": [],
      "stateMutability": "nonpayable",
      "type": "function"
    },
    {
      "inputs": [
        {
          "internalType": "address",
          "name": "newOwner",
          "type": "address"
        }
      ],
      "name": "transferOwnership",
      "outputs": [],
      "stateMutability": "nonpayable",
      "type": "function"
    }
  ],
  "bytecode": "0x608060405234801561001057600080fd5b506040516160be3803806160be83398101604081905261002f916100fc565b338061005557604051631e4fbdf760e01b81526000600482015260240160405180910390fd5b61005e81610090565b50600180546001600160a01b039384166001600160a01b0319918216179091556003805492909316911617905561012f565b600080546001600160a01b038381166001600160a01b0319831681178455604051919092169283917f8be0079c531659141344cd1fd0a4f28419497f9722a3daafe3b4186f6b6457e09190a35050565b80516001600160a01b03811681146100f757600080fd5b919050565b6000806040838503121561010f57600080fd5b610118836100e0565b9150610126602084016100e0565b90509250929050565b615f808061013e6000396000f3fe608060405234801561001057600080fd5b50600436106101fb5760003560e01c80636eb0f9d21161011a578063a2f77bcc116100ad578063d78ffe581161007c578063d78ffe5814610572578063e8d64aee14610585578063ecd1406d14610598578063edf59b3c146105ab578063f2fde38b146105be57600080fd5b8063a2f77bcc14610519578063bbf8218a14610539578063beaa8fa41461054c578063ce720bca1461055f57600080fd5b806384cb37ea116100e957806384cb37ea146104c25780638da5cb5b146104d557806390de1d9b146104e65780639c91fe671461050657600080fd5b80636eb0f9d214610474578063715018a6146104875780637b2fe23b1461048f5780637c767cb9146104af57600080fd5b806341f5f5e9116101925780634d1975b4116101615780634d1975b41461042557806355cebda81461042e578063566adcd0146104415780635dd68acd1461046157600080fd5b806341f5f5e9146103d7578063423bb46f146103ea57806348915d911461040a5780634bf11ad21461041d57600080fd5b806318d7261d116101ce57806318d7261d1461036b578063235e78eb1461037e578063336d7d7b146103995780633deaec2b146103c457600080fd5b80630a5694c2146102005780630aa1b26614610226578063100017cb14610246578063117a5b901461025b575b600080fd5b61021361020e366004614e4f565b6105d1565b6040519081526020015b60405180910390f35b610239610234366004614e7b565b610602565b60405161021d9190615253565b6102596102543660046152b8565b610621565b005b6103596102693660046152da565b600760208181526000928352604092839020835161012081018552815481526001808301548285015260028301546001600160a01b0390811683880152600384015481166060808501919091526004850154608080860191909152600586015460a0860152600686015460ff16151560c08601529685015460e0850152600885015482166101008501528751968701885260098501549091168652600a84015486860152600b84015486880152600c840154908601528551808701909652600d83015480820b8752620100009004900b92850192909252600e810154600f82015460109092015492949290919086565b60405161021d969594939291906152f3565b6102596103793660046152b8565b610637565b610386602881565b60405160019190910b815260200161021d565b6005546103ac906001600160a01b031681565b6040516001600160a01b03909116815260200161021d565b6004546103ac906001600160a01b031681565b6003546103ac906001600160a01b031681565b6103fd6103f83660046152b8565b61068c565b60405161021d919061536c565b6002546103ac906001600160a01b031681565b610386601481565b61021360085481565b61025961043c3660046152b8565b610803565b61045461044f3660046152da565b610977565b60405161021d919061537f565b61025961046f366004615392565b610b72565b610239610482366004615546565b610bd9565b610259610c8c565b6104a261049d366004614e7b565b610ca0565b60405161021d919061557a565b6102596104bd3660046155c9565b610d0c565b6102596104d03660046152da565b610dae565b6000546001600160a01b03166103ac565b6102136104f43660046152da565b600a6020526000908152604090205481565b61025961051436600461560f565b610ea6565b61052c6105273660046152da565b610ee2565b60405161021d9190615655565b6001546103ac906001600160a01b031681565b61025961055a366004615668565b611591565b6006546103ac906001600160a01b031681565b6102596105803660046152da565b611ae1565b6102596105933660046156dd565b611bf0565b6102596105a6366004615772565b611e24565b6102596105b93660046152b8565b611e6c565b6102596105cc366004614e7b565b611ea9565b600960205281600052604060002081815481106105ed57600080fd5b90600052602060002001600091509150505481565b6060600061060f83610ca0565b905061061a81610bd9565b9392505050565b610629611eec565b6106338282611f19565b5050565b61063f611eec565b6000918252600760209081526040808420838552601181018352818520805464ff0000000019169055600c810154855260140182528084209284529190529020805460ff19166001179055565b610694614af7565b60008381526007602052604081205490036106c2576040516309b3c62760e21b815260040160405180910390fd5b600083815260076020908152604080832085845260110190915281208054909161ffff9091169003610707576040516303c113ad60e61b815260040160405180910390fd5b6040805161012081018252825461ffff8116825260ff620100008204811660208085019190915263010000008304821684860152600160201b830482166060850152600160281b830482166080850152600160301b8304821660a0850152600160381b8304821660c0850152600160401b9092041660e0830152600184018054845181840281018401909552808552929385936101008601939192918301828280156107f057602002820191906000526020600020906000905b825461010083900a900460ff168152602060019283018181049485019490930390920291018084116107c15790505b5050505050815250509150505b92915050565b600082815260076020908152604080832084845260118101909252808320600354915163e197c62760e01b8152600481018690529293909290916001600160a01b03169063e197c62790602401600060405180830381865afa15801561086d573d6000803e3d6000fd5b505050506040513d6000823e601f3d908101601f19168201604052610895919081019061582f565b8051835460208084015160408501516060860151608087015160a088015160c089015160ff908116600160381b0267ff0000000000000019928216600160301b0266ff00000000000019948316600160281b029490941666ffff000000000019958316600160201b0264ff00000000199784166301000000029790971664ffff0000001993909816620100000262ffffff19909a1661ffff909b169a909a179890981716949094179290921716949094179390931792909216178455610100820151805192935061096f9260018601929190910190614b45565b505050505050565b600081815260076020526040812054606091036109a7576040516309b3c62760e21b815260040160405180910390fd5b600082815260076020526040812090805b6014600182900b1215610a305760005b6028600182900b1215610a2757600182810b600090815260128601602090815260408083209385900b835292905220548015801590610a0b5750610a0b81612196565b15610a1e5783610a1a8161593f565b9450505b506001016109c8565b506001016109b8565b506000816001600160401b03811115610a4b57610a4b615403565b604051908082528060200260200182016040528015610a8457816020015b610a71614beb565b815260200190600190039081610a695790505b5090506000805b6014600182900b1215610b675760005b6028600182900b1215610b5e57600182810b600090815260128801602090815260408083209385900b835292905220548015801590610ade5750610ade81612196565b15610b55576000610aef8a8361220b565b9050604051806060016040528083815260200160405180604001604052808760010b81526020018660010b8152508152602001821515815250868681518110610b3a57610b3a615958565b60200260200101819052508480610b509061593f565b955050505b50600101610a9b565b50600101610a8b565b509095945050505050565b610b7a611eec565b600480546001600160a01b03199081166001600160a01b03978816179091556005805482169587169590951790945560028054851693861693909317909255600680548416918516919091179055600380549092169216919091179055565b6060600082516001600160401b03811115610bf657610bf6615403565b604051908082528060200260200182016040528015610c2f57816020015b610c1c614c2d565b815260200190600190039081610c145790505b50905060005b8351811015610c8557610c60848281518110610c5357610c53615958565b6020026020010151610ee2565b828281518110610c7257610c72615958565b6020908102919091010152600101610c35565b5092915050565b610c94611eec565b610c9e6000612247565b565b6001600160a01b038116600090815260096020908152604091829020805483518184028101840190945280845260609392830182828015610d0057602002820191906000526020600020905b815481526020019060010190808311610cec575b50505050509050919050565b610d14611eec565b6000938452600760209081526040808620858752601381018084528288208054600181810b8b526012909401808752858b206201000092839004860b8c528752858b208b90558551808701875298850b808a529790940b8887018181528a8c5293875297518254935161ffff90811690920263ffffffff199094169116179190911790559286529181528185209285529190915290912055565b600081815260076020526040902060088101546001600160a01b031615610de8576040516321e08b4d60e21b815260040160405180910390fd5b60028101546001600160a01b03163314801590610e12575060038101546001600160a01b03163314155b15610e305760405163218286cb60e11b815260040160405180910390fd5b60028101546000906001600160a01b03163314610e5a5760028201546001600160a01b0316610e69565b60038201546001600160a01b03165b9050610e76838233612297565b60405183907f6a3ca207a2adb9eea136eff413ec2c22f745a146fe60eed5f593fbacb99347d390600090a2505050565b60005b8151811015610edd57610ed583838381518110610ec857610ec8615958565b6020026020010151610803565b600101610ea9565b505050565b610eea614c2d565b6000828152600760205260408120549003610f18576040516309b3c62760e21b815260040160405180910390fd5b600082815260076020908152604080832060028101546001600160a01b03908116855260158201909352818420600382015490931684529083209092610f5d83612387565b90506000610f6a83612387565b9050600081518351610f7c919061596e565b90506000816001600160401b03811115610f9857610f98615403565b604051908082528060200260200182016040528015610fd157816020015b610fbe614af7565b815260200190600190039081610fb65790505b5090506000826001600160401b03811115610fee57610fee615403565b604051908082528060200260200182016040528015611017578160200160208202803683370190505b50905060005b85518110156111a25788601101600087838151811061103e5761103e615958565b6020908102919091018101518252818101929092526040908101600020815161012081018352815461ffff8116825260ff62010000820481168387015263010000008204811683860152600160201b820481166060840152600160281b820481166080840152600160301b8204811660a0840152600160381b8204811660c0840152600160401b9091041660e08201526001820180548451818702810187019095528085529194929361010086019390929083018282801561113d57602002820191906000526020600020906000905b825461010083900a900460ff1681526020600192830181810494850194909303909202910180841161110e5790505b50505050508152505083828151811061115857611158615958565b602002602001018190525085818151811061117557611175615958565b602002602001015182828151811061118f5761118f615958565b602090810291909101015260010161101d565b5060005b8451811015611343578860110160008683815181106111c7576111c7615958565b6020908102919091018101518252818101929092526040908101600020815161012081018352815461ffff8116825260ff62010000820481168387015263010000008204811683860152600160201b820481166060840152600160281b820481166080840152600160301b8204811660a0840152600160381b8204811660c0840152600160401b9091041660e0820152600182018054845181870281018701909552808552919492936101008601939092908301828280156112c657602002820191906000526020600020906000905b825461010083900a900460ff168152602060019283018181049485019490930390920291018084116112975790505b505050505081525050838288516112dd919061596e565b815181106112ed576112ed615958565b602002602001018190525084818151811061130a5761130a615958565b602002602001015182828851611320919061596e565b8151811061133057611330615958565b60209081029190910101526001016111a6565b50600061134f8b610977565b60028a015490915060009061136e908d906001600160a01b031661241e565b60038b015490915060009061138d908e906001600160a01b031661241e565b9050604051806101a001604052808c6000016040518061012001604052908160008201548152602001600182015481526020016002820160009054906101000a90046001600160a01b03166001600160a01b03166001600160a01b031681526020016003820160009054906101000a90046001600160a01b03166001600160a01b03166001600160a01b0316815260200160048201548152602001600582015481526020016006820160009054906101000a900460ff16151515158152602001600782015481526020016008820160009054906101000a90046001600160a01b03166001600160a01b03166001600160a01b03168152505081526020018c6009016040518060800160405290816000820160009054906101000a90046001600160a01b03166001600160a01b03166001600160a01b03168152602001600182015481526020016002820154815260200160038201548152505081526020018c600d016040518060400160405290816000820160009054906101000a900460010b60010b60010b81526020016000820160029054906101000a900460010b60010b60010b8152505081526020018c600e015481526020018c600f015481526020018c601001548152602001858152602001868152602001848152602001898152602001888152602001838152602001828152509b505050505050505050505050919050565b60008681526007602052604081205490036115bf576040516309b3c62760e21b815260040160405180910390fd5b600086815260076020526040902060088101546001600160a01b0316156115f9576040516321e08b4d60e21b815260040160405180910390fd5b60098101546001600160a01b0316331461162657604051631cc191eb60e31b815260040160405180910390fd5b60006116318761257b565b60a08101519091506001600160a01b0316331461166157604051630b18e5d760e21b815260040160405180910390fd5b6000878152601183016020526040812080549091600160201b90910460ff16900361169f576040516398586ca160e01b815260040160405180910390fd5b60025460048481015460405162b5e41160e51b815291820152602481018a90526001600160a01b03909116906316bc822090604401602060405180830381865afa1580156116f1573d6000803e3d6000fd5b505050506040513d601f19601f82011682018060405250810190611715919061598c565b15801561179d5750600254600584015460405162b5e41160e51b81526001600160a01b03909216916316bc82209161175a918c90600401918252602082015260400190565b602060405180830381865afa158015611777573d6000803e3d6000fd5b505050506040513d601f19601f8201168201806040525081019061179b919061598c565b155b156117bb576040516303c113ad60e61b815260040160405180910390fd5b600c830154600090815260148401602090815260408083208b845290915290205460ff16156117fd57604051637d64fb5d60e01b815260040160405180910390fd5b60008881526013840160205260408120805490919060018a810b91900b14801561183457508154600189810b62010000909204900b145b905080611940576040805180820182528354600181810b835262010000909104810b60208084019190915283518085019094528c820b8452908b900b908301526000916118819190612643565b60008c8152601188016020526040902080549192509060ff600160301b909104811690831611156118c5576040516321e08b4d60e21b815260040160405180910390fd5b601460018c900b1215806118de5750602860018b900b12155b156118fc5760405163673f032f60e11b815260040160405180910390fd5b60018b810b60009081526012890160209081526040808320938e900b835292905220541561193d57604051638243205760e01b815260040160405180910390fd5b50505b80611a0257604080518082019091528254600181810b835262010000909104900b6020820152611a02908c908c908c8c60009485526007602090815260408087208551600190810b895260128201808552838a2097850151820b8a5296845282892089905594850b8089529583528188209390940b8088529282528087208690558051808201825294855284820192835294865260139092019091529190922091518254915161ffff908116620100000263ffffffff19909316911617179055565b600c850154600090815260148601602090815260408083208d84529091529020805460ff19166001179055611a3c858c8c8c8c8c8c6126d7565b611a458b61284c565b15611a5857611a538b612863565b611a61565b611a618b6128ee565b42600b8601556040518b907fc270fd1a8022d2356b9443b4bd22fa0653313da67bc52e9440ff28696cd3bf1190611aa1908d908d908d908d908d906159bf565b60405180910390a26040518b907f6a3ca207a2adb9eea136eff413ec2c22f745a146fe60eed5f593fbacb99347d390600090a25050505050505050505050565b6000818152600760205260408120549003611b0f576040516309b3c62760e21b815260040160405180910390fd5b611b18816129b6565b611b355760405163023e733b60e61b815260040160405180910390fd5b600081815260076020526040902060098101546001600160a01b03163303611b7057604051631cc191eb60e31b815260040160405180910390fd5b60028101546001600160a01b03163314801590611b9a575060038101546001600160a01b03163314155b15611bb85760405163218286cb60e11b815260040160405180910390fd5b611bc1826129e1565b60405182907f6a3ca207a2adb9eea136eff413ec2c22f745a146fe60eed5f593fbacb99347d390600090a25050565b6005546001600160a01b03163314611c1b57604051638671306560e01b815260040160405180910390fd5b60088054906000611c2b8361593f565b90915550506008546000818152600760208190526040909120918255600182018b90556002820180546001600160a01b03808d166001600160a01b031992831617909255600384018054928c1692909116919091179055600482018890556005820187905560068201805487151560ff19909116179055429082015584611cb25787611cb4565b885b6009820180546001600160a01b0319166001600160a01b0392909216919091179055600a810184905542600b8201556001600c820155600d8101805463ffffffff191662140028179055600e81018290558215611d705760048054600854604051636a5257fd60e11b815292830152602482018590526001600160a01b03169063d4a4affa90604401600060405180830381600087803b158015611d5757600080fd5b505af1158015611d6b573d6000803e3d6000fd5b505050505b611d7d6008548888612a71565b611d8a6008548888612c39565b6001600160a01b038981166000818152600960209081526040808320600880548254600180820185559387528587200155958e16808552828520875481549384018255908652948490209091019390935593548451938452908301919091528c9290917f9f0b80476ce7b05cfe8b0800d21f0b0f2704c8eb948fa5d5e87997ec901f96d1910160405180910390a350505050505050505050565b611e2c611eec565b6000928352600760209081526040808520938552601190930190529120805460ff909216600160401b0268ff000000000000000019909216919091179055565b611e74611eec565b6000918252600760209081526040808420600c810154855260140182528084209284529190529020805460ff19166001179055565b611eb1611eec565b6001600160a01b038116611ee057604051631e4fbdf760e01b8152600060048201526024015b60405180910390fd5b611ee981612247565b50565b6000546001600160a01b03163314610c9e5760405163118cdaa760e01b8152336004820152602401611ed7565b6000828152600760205260408120549003611f47576040516309b3c62760e21b815260040160405180910390fd5b600082815260076020526040812090611f5f8361257b565b60025460048481015460405162b5e41160e51b815291820152602481018690529192506000916001600160a01b03909116906316bc822090604401602060405180830381865afa158015611fb7573d6000803e3d6000fd5b505050506040513d601f19601f82011682018060405250810190611fdb919061598c565b600254600585015460405162b5e41160e51b81529293506000926001600160a01b03909216916316bc82209161201e918990600401918252602082015260400190565b602060405180830381865afa15801561203b573d6000803e3d6000fd5b505050506040513d601f19601f8201168201806040525081019061205f919061598c565b90508115801561206d575080155b1561208b576040516303c113ad60e61b815260040160405180910390fd5b608083015160c00151156120b2576040516398586ca160e01b815260040160405180910390fd5b600085815260138501602090815260408083208054600181810b865260128a01855283862062010000909204810b8652908452828520859055600c89015485526014890184528285208a86528452828520805460ff19168217905554600a909352928190205490516311a960cd60e01b81526004810189905260248101919091526001600160a01b03909116906311a960cd90604401600060405180830381600087803b15801561216257600080fd5b505af1158015612176573d6000803e3d6000fd5b505050506121848787612d3a565b61218d87612d98565b50505050505050565b600154604051639596010160e01b8152600481018390526000916001600160a01b031690639596010190602401602060405180830381865afa1580156121e0573d6000803e3d6000fd5b505050506040513d601f19601f82011682018060405250810190612204919061598c565b1592915050565b600082815260076020908152604080832060028101546001600160a01b0316845260158101909252822061223f9084612e24565b949350505050565b600080546001600160a01b038381166001600160a01b0319831681178455604051919092169283917f8be0079c531659141344cd1fd0a4f28419497f9722a3daafe3b4186f6b6457e09190a35050565b60008381526007602052604090206008810180546001600160a01b0319166001600160a01b0385811691909117909155600654161561233f5760065460405163d6c6eb9f60e01b8152600481018690526001600160a01b03858116602483015284811660448301529091169063d6c6eb9f90606401600060405180830381600087803b15801561232657600080fd5b505af115801561233a573d6000803e3d6000fd5b505050505b600281015460048201546123609186916001600160a01b0390911690612e3c565b600381015460058201546123819186916001600160a01b0390911690612e3c565b50505050565b6060600061239483612ef9565b90506000816001600160401b038111156123b0576123b0615403565b6040519080825280602002602001820160405280156123d9578160200160208202803683370190505b50905060005b82811015612416576123f18582612f03565b82828151811061240357612403615958565b60209081029190910101526001016123df565b509392505050565b60008281526007602090815260408083206001600160a01b03851684526015810190925282206060928061245183612ef9565b905060005b818110156124ad57600061246a8583612f03565b600c8701546000908152601488016020908152604080832084845290915290205490915060ff16156124a457836124a08161593f565b9450505b50600101612456565b506000826001600160401b038111156124c8576124c8615403565b6040519080825280602002602001820160405280156124f1578160200160208202803683370190505b5090506000805b8381101561256d57600061250c8783612f03565b600c890154600090815260148a016020908152604080832084845290915290205490915060ff1615612564578084848151811061254b5761254b615958565b6020908102919091010152826125608161593f565b9350505b506001016124f8565b509098975050505050505050565b612583614d0d565b600154604051634025b22d60e01b8152600481018490526000916001600160a01b031690634025b22d90602401600060405180830381865afa1580156125cd573d6000803e3d6000fd5b505050506040513d6000823e601f3d908101601f191682016040526125f59190810190615c30565b9050806020015160000361261c576040516303c113ad60e61b815260040160405180910390fd5b608081015160c00151156107fd576040516398586ca160e01b815260040160405180910390fd5b600080826000015160010b846000015160010b1361266e57835183516126699190615d61565b61267c565b8251845161267c9190615d61565b90506000836020015160010b856020015160010b136126ae57846020015184602001516126a99190615d61565b6126c2565b836020015185602001516126c29190615d61565b90506126ce8183615d84565b95945050505050565b600154604051634025b22d60e01b8152600481018790526000916001600160a01b031690634025b22d90602401600060405180830381865afa158015612721573d6000803e3d6000fd5b505050506040513d6000823e601f3d908101601f191682016040526127499190810190615c30565b9050600083600581111561275f5761275f6159a9565b14612842576001836005811115612778576127786159a9565b036127915761278c88888888888787612f0f565b612842565b60028360058111156127a5576127a56159a9565b036127b45761278c87876131d9565b60038360058111156127c8576127c86159a9565b036127da5761278c8787878786613507565b60048360058111156127ee576127ee6159a9565b036128005761278c87878787866136cb565b6005836005811115612814576128146159a9565b036128295761278c878260a0015187876137ad565b6040516321e08b4d60e21b815260040160405180910390fd5b5050505050505050565b60008061285b8361395b6139af565b159392505050565b600081815260076020526040902061287a82613a9e565b600c8101805490600061288c8361593f565b919050555061289a82613c66565b600681015460ff166128b95760038101546001600160a01b03166128c8565b60028101546001600160a01b03165b60099190910180546001600160a01b0319166001600160a01b0390921691909117905550565b6000818152600760205260409020600281015460098201546001600160a01b039182169116036129675760038101546000906129349084906001600160a01b0316613df4565b90508015610edd5760038201546009830180546001600160a01b0319166001600160a01b03909216919091179055505050565b60028101546000906129839084906001600160a01b0316613df4565b90508015610edd5760028201546009830180546001600160a01b0319166001600160a01b03909216919091179055505050565b6000818152600760205260408120600a810154600b8201546129d8919061596e565b42119392505050565b6000818152600760205260409020600281015460098201546001600160a01b03918216911603612a29576002810154612a249083906001600160a01b0316613e9f565b612a42565b6003810154612a429083906001600160a01b0316613e9f565b612a4b8261284c565b15612a5e57612a5982612863565b612a67565b612a67826128ee565b42600b9091015550565b6000838152600760205260408082206002549151634ce29c2760e11b8152600481018690529092916001600160a01b0316906399c5384e90602401600060405180830381865afa158015612ac9573d6000803e3d6000fd5b505050506040513d6000823e601f3d908101601f19168201604052612af19190810190615d9d565b905060005b8151811015612b625760028301546001600160a01b0316600090815260158401602052604090208251612b439190849084908110612b3657612b36615958565b6020026020010151613f5c565b50612b5a86838381518110610ec857610ec8615958565b600101612af6565b50600254604051634ce29c2760e11b8152600481018590526000916001600160a01b0316906399c5384e90602401600060405180830381865afa158015612bad573d6000803e3d6000fd5b505050506040513d6000823e601f3d908101601f19168201604052612bd59190810190615d9d565b905060005b815181101561218d5760038401546001600160a01b0316600090815260158501602052604090208251612c1a9190849084908110612b3657612b36615958565b50612c3187838381518110610ec857610ec8615958565b600101612bda565b600083815260076020908152604080832060028101546001600160a01b031684526015810190925282209091612c6e82612ef9565b905060005b81811015612caf576000612c878483612f03565b90506000612c96836002615e32565b9050612ca58983836005613f68565b5050600101612c73565b5060038301546001600160a01b03166000908152601584016020526040812090612cd882612ef9565b905060005b81811015612d2f576000612cf18483612f03565b90506000612d00836002615e32565b612d0c60016014615d61565b612d169190615d61565b9050612d258b83836022613f68565b5050600101612cdd565b505050505050505050565b600082815260076020908152604080832060028101546001600160a01b0316845260158101909252909120612d6f9083614058565b5060038101546001600160a01b0316600090815260158201602052604090206123819083614058565b60008181526007602052604090206002810154612dbf9083906001600160a01b0316614064565b612de557600381015460028201546106339184916001600160a01b039182169116612297565b6003810154612dfe9083906001600160a01b0316614064565b61063357600281015460038201546106339184916001600160a01b039182169116612297565b6000818152600183016020526040812054151561061a565b60008381526007602090815260408083206001600160a01b03861684526015810190925282209091612e6d82612ef9565b905060005b8181101561218d576000612e868483612f03565b6002546040516327ffe52160e01b815260048101899052602481018390529192506001600160a01b0316906327ffe52190604401600060405180830381600087803b158015612ed457600080fd5b505af1158015612ee8573d6000803e3d6000fd5b505060019093019250612e72915050565b60006107fd825490565b600061061a83836140d5565b6000612f1a8361257b565b90508160a001516001600160a01b03168160a001516001600160a01b031603612f56576040516321e08b4d60e21b815260040160405180910390fd5b604080518082018252600187810b825286810b602080840191909152600087815260138d0182528481208551808701909652805480850b875262010000900490930b918501919091529192909190612faf908490612643565b60008a815260118d016020526040902080549192509060ff6201000090910481169083161115612ff2576040516321e08b4d60e21b815260040160405180910390fd5b60018260ff161180156130975750600480548454604051638383c99560e01b81529283018e905260018c810b60248501528b810b604485015281810b606485015262010000909104900b60848301526001600160a01b031690638383c9959060a401602060405180830381865afa158015613071573d6000803e3d6000fd5b505050506040513d601f19601f82011682018060405250810190613095919061598c565b155b156130b5576040516321e08b4d60e21b815260040160405180910390fd5b600087815260118d016020526040812080549091600160201b90910460ff169003613116578054600160401b900460ff168160086130f283615e49565b91906101000a81548160ff021916908360ff1602179055505050505050505061218d565b8154815460ff6301000000909204821691600160381b909104166000606461313e8385615e68565b6131489190615e85565b6131559060ff8516615eb7565b8454909150600160201b900460ff1661ffff82161061319057835464ff000000001916845560008b8152600a602052604090208e90556131c7565b8354819085906004906131ae908490600160201b900460ff16615ed1565b92506101000a81548160ff021916908360ff1602179055505b50505050505050505050505050505050565b6000828152600760205260408120549003613207576040516309b3c62760e21b815260040160405180910390fd5b60008281526007602052604081209061321f8361257b565b60025460048481015460405162b5e41160e51b815291820152602481018690529192506000916001600160a01b03909116906316bc822090604401602060405180830381865afa158015613277573d6000803e3d6000fd5b505050506040513d601f19601f8201168201806040525081019061329b919061598c565b600254600585015460405162b5e41160e51b81529293506000926001600160a01b03909216916316bc8220916132de918990600401918252602082015260400190565b602060405180830381865afa1580156132fb573d6000803e3d6000fd5b505050506040513d601f19601f8201168201806040525081019061331f919061598c565b90508115801561332d575080155b1561334b576040516303c113ad60e61b815260040160405180910390fd5b608083015160c0015115613372576040516398586ca160e01b815260040160405180910390fd5b600085815260138501602090815260408083208054600181810b865260128a01855283862062010000909204810b8652908452828520859055600c89015485526014890184528285208a86529093529220805460ff191690911790558215613441576002546004868101546040516327ffe52160e01b815291820152602481018890526001600160a01b03909116906327ffe52190604401600060405180830381600087803b15801561342457600080fd5b505af1158015613438573d6000803e3d6000fd5b505050506134b2565b60025460058601546040516327ffe52160e01b81526001600160a01b03909216916327ffe5219161347f918a90600401918252602082015260400190565b600060405180830381600087803b15801561349957600080fd5b505af11580156134ad573d6000803e3d6000fd5b505050505b60008681526011860160205260408120805468ffffffffffffffffff19168155906134e06001830182614e04565b505060008681526013860160205260409020805463ffffffff191690556121848787612d3a565b6000858152600760205260408120549003613535576040516309b3c62760e21b815260040160405180910390fd5b60008581526007602052604081209061354d8361257b565b600154604051634025b22d60e01b8152600481018990529192506000916001600160a01b0390911690634025b22d90602401600060405180830381865afa15801561359c573d6000803e3d6000fd5b505050506040513d6000823e601f3d908101601f191682016040526135c49190810190615c30565b90508060a001516001600160a01b03168260a001516001600160a01b031614613600576040516321e08b4d60e21b815260040160405180910390fd5b600084815260118401602052604090208054600160201b900460ff161561363a576040516321e08b4d60e21b815260040160405180910390fd5b600085815260138501602090815260408083208151808301835260018c810b82528b810b828601528351808501909452825480820b8552620100009004900b93830193909352929061368d908390612643565b90508060ff166001146136b3576040516321e08b4d60e21b815260040160405180910390fd5b6136bd8c896131d9565b505050505050505050505050565b60006136d68261257b565b600154604051634025b22d60e01b8152600481018890529192506000916001600160a01b0390911690634025b22d90602401600060405180830381865afa158015613725573d6000803e3d6000fd5b505050506040513d6000823e601f3d908101601f1916820160405261374d9190810190615c30565b90506000816040015160600151600381111561376b5761376b6159a9565b03613789576040516321e08b4d60e21b815260040160405180910390fd5b6137978786868685876140ff565b61218d87878787878660400151606001516141f8565b600084815260076020526040808220600480549251630349370d60e41b8152908101889052600186810b602483015285900b60448201529092916001600160a01b03169063349370d0906064016020604051808303816000875af1158015613819573d6000803e3d6000fd5b505050506040513d601f19601f8201168201806040525081019061383d9190615eea565b905060ff81161561096f5760028201546001600160a01b0390811690861603613882578060ff1682600f016000828254613877919061596e565b909155506138b79050565b60038201546001600160a01b03908116908616036138b7578060ff168260100160008282546138b1919061596e565b90915550505b81600e015482600f01541015806138d6575081600e0154826010015410155b1561096f576000826010015483600f015410156139005760038301546001600160a01b031661390f565b60028301546001600160a01b03165b60028401549091506000906001600160a01b0380841691161461393f5760028401546001600160a01b031661394e565b60038401546001600160a01b03165b9050612842888383612297565b60008281526007602052604081206139738484614268565b6139815760009150506107fd565b600c810154600090815260149091016020908152604080832085845290915290205460ff1615905092915050565b600082815260076020908152604080832060028101546001600160a01b0390811685526015820190935281842060038201549093168452908320909190836139f683612ef9565b905060005b81811015613a3c576000613a0f8583612f03565b9050613a1f89828a63ffffffff16565b15613a3357600196505050505050506107fd565b506001016139fb565b506000613a4883612ef9565b905060005b81811015613a8f576000613a618583612f03565b9050613a718a828b63ffffffff16565b15613a865760019750505050505050506107fd565b50600101613a4d565b50600098975050505050505050565b60008181526007602052604080822081516064808252610ca0820190935290929181602001602082028036833750505060028301546001600160a01b0316600090815260158401602052604081209192509081613afa82612ef9565b905060005b81811015613b80576000613b138483612f03565b9050613b1e81612196565b8015613b46575060008181526011880160205260409020546003600160401b90910460ff1610155b15613b775780868681518110613b5e57613b5e615958565b602090810291909101015284613b738161593f565b9550505b50600101613aff565b5060038501546001600160a01b03166000908152601586016020526040812090613ba982612ef9565b905060005b81811015613c2f576000613bc28483612f03565b9050613bcd81612196565b8015613bf55750600081815260118a0160205260409020546003600160401b90910460ff1610155b15613c265780888881518110613c0d57613c0d615958565b602090810291909101015286613c228161593f565b9750505b50600101613bae565b5060005b85811015612d2f57613c5e89888381518110613c5157613c51615958565b6020026020010151611f19565b600101613c33565b600081815260076020908152604080832060028101546001600160a01b031684526015810190925282209091613c9b82612ef9565b905060005b81811015613d33576000613cb48483612f03565b9050613cbf81612196565b8015613ce357506000818152601186016020526040902054600160201b900460ff16155b15613d2a57600081815260118601602052604090208054600160401b900460ff16906008613d1083615e49565b91906101000a81548160ff021916908360ff160217905550505b50600101613ca0565b5060038301546001600160a01b03166000908152601584016020526040812090613d5c82612ef9565b905060005b8181101561218d576000613d758483612f03565b9050613d8081612196565b8015613da457506000818152601188016020526040902054600160201b900460ff16155b15613deb57600081815260118801602052604090208054600160401b900460ff16906008613dd183615e49565b91906101000a81548160ff021916908360ff160217905550505b50600101613d61565b60008281526007602090815260408083206001600160a01b038516845260158101909252822082613e2482612ef9565b905060005b81811015613e92576000613e3d8483612f03565b9050613e498882614268565b8015613e765750600c8501546000908152601486016020908152604080832084845290915290205460ff16155b15613e89576001955050505050506107fd565b50600101613e29565b5060009695505050505050565b60008281526007602090815260408083206001600160a01b03851684526015810190925282209091613ed082612ef9565b905060005b8181101561096f576000613ee98483612f03565b9050613ef58782614268565b8015613f225750600c8501546000908152601486016020908152604080832084845290915290205460ff16155b15613f5357600c850154600090815260148601602090815260408083208484529091529020805460ff191660011790555b50600101613ed5565b600061061a838361433f565b60008481526007602052604090206014600184900b121580613f8f57506028600183900b12155b15613fad5760405163673f032f60e11b815260040160405180910390fd5b600183810b600090815260128301602090815260408083209386900b8352929052205415613fee57604051638243205760e01b815260040160405180910390fd5b600192830b600081815260128301602090815260408083209590960b8083529481528582208790558551808701875292835282810194855295815260139092019094529190912091518254915161ffff908116620100000263ffffffff1990931691161717905550565b600061061a838361438e565b60008281526007602090815260408083206001600160a01b03851684526015810190925282208261409482612ef9565b905060005b81811015613e925760006140ad8483612f03565b90506140b98882614268565b156140cc576001955050505050506107fd565b50600101614099565b60008260000182815481106140ec576140ec615958565b9060005260206000200154905092915050565b604082015160600151600281600381111561411c5761411c6159a9565b03614160578260a001516001600160a01b03168260a001516001600160a01b03161461415b576040516321e08b4d60e21b815260040160405180910390fd5b6141d2565b6001816003811115614174576141746159a9565b036141b3578260a001516001600160a01b03168260a001516001600160a01b03160361415b576040516321e08b4d60e21b815260040160405180910390fd5b60038160038111156141c7576141c76159a9565b03612829575061096f565b60038160038111156141e6576141e66159a9565b1461218d5761218d8787878785614481565b600281600381111561420c5761420c6159a9565b036142205761421b8683614594565b61096f565b6001816003811115614234576142346159a9565b036142435761421b86836146a3565b6003816003811115614257576142576159a9565b036128295761421b86868686614787565b6000828152600760205260408082206001549151634025b22d60e01b815260048101859052909183916001600160a01b0390911690634025b22d90602401600060405180830381865afa1580156142c3573d6000803e3d6000fd5b505050506040513d6000823e601f3d908101601f191682016040526142eb9190810190615c30565b9050806080015160c00151600014614308576000925050506107fd565b6000848152601183016020526040812054600160201b900460ff169003614334576000925050506107fd565b506001949350505050565b6000818152600183016020526040812054614386575081546001818101845560008481526020808220909301849055845484825282860190935260409020919091556107fd565b5060006107fd565b600081815260018301602052604081205480156144775760006143b2600183615f07565b85549091506000906143c690600190615f07565b905080821461442b5760008660000182815481106143e6576143e6615958565b906000526020600020015490508087600001848154811061440957614409615958565b6000918252602080832090910192909255918252600188019052604090208390555b855486908061443c5761443c615f1a565b6001900381819060005260206000200160009055905585600101600086815260200190815260200160002060009055600193505050506107fd565b60009150506107fd565b60008581526007602090815260408083208584526013810183528184208251808401845260018a810b825289900b948101949094526003549251636759d30960e11b8152919490939290916001600160a01b039091169063ceb3a612906144ec908890600401615f30565b602060405180830381865afa158015614509573d6000803e3d6000fd5b505050506040513d601f19601f8201168201806040525081019061452d9190615eea565b604080518082019091528454600181810b835262010000909104900b602082015290915060009061455f908490612643565b90508160ff168160ff161115614588576040516321e08b4d60e21b815260040160405180910390fd5b50505050505050505050565b6000828152600760209081526040808320848452601181019092528083206003549151633387d11760e11b81529293909290916001600160a01b03169063670fa22e906145e690600290600401615f30565b602060405180830381865afa158015614603573d6000803e3d6000fd5b505050506040513d601f19601f820116820180604052508101906146279190615eea565b8254909150600090614644908390600160201b900460ff16615d84565b835490915060ff600160281b90910481169082161115614682578254600160201b60ff600160281b8304160264ff000000001990911617835561096f565b825460ff8216600160201b0264ff0000000019909116178355505050505050565b6000828152600760209081526040808320848452601181019092528083206003549151633387d11760e11b81529293909290916001600160a01b03169063670fa22e906146f590600190600401615f30565b602060405180830381865afa158015614712573d6000803e3d6000fd5b505050506040513d601f19601f820116820180604052508101906147369190615eea565b6000858152600a60205260409020859055825490915081908390600890614768908490600160401b900460ff16615d84565b92506101000a81548160ff021916908360ff1602179055505050505050565b600084815260076020526040808220600380549251636759d30960e11b81529193926001600160a01b03169163ceb3a612916147c591600401615f30565b602060405180830381865afa1580156147e2573d6000803e3d6000fd5b505050506040513d601f19601f820116820180604052508101906148069190615eea565b60038054604051633387d11760e11b81529293506000926001600160a01b039091169163670fa22e9161483c9190600401615f30565b602060405180830381865afa158015614859573d6000803e3d6000fd5b505050506040513d601f19601f8201168201806040525081019061487d9190615eea565b60028401546001600160a01b0316600090815260158501602052604090209091506148b3908890889088908890879087906148e2565b60038301546001600160a01b03166000908152601584016020526040902061218d908890889088908890879087905b6000878152600760205260408120906148fa83612ef9565b60408051808201909152600189810b825288900b602082015290915060005b82811015614aea57600061492d8683612f03565b600154604051634025b22d60e01b8152600481018390529192506000916001600160a01b0390911690634025b22d90602401600060405180830381865afa15801561497c573d6000803e3d6000fd5b505050506040513d6000823e601f3d908101601f191682016040526149a49190810190615c30565b9050806080015160c001516000146149bd575050614ae2565b6000828152601187016020526040812054600160201b900460ff1690036149e5575050614ae2565b6000828152601387016020908152604080832081518083019092528054600181810b845262010000909104900b92820192909252909190614a27908790612643565b90508a60ff168160ff1611158015614a3f57508d8414155b15614add578d600a600086815260200190815260200160002081905550600088601101600086815260200190815260200160002090508060000160049054906101000a900460ff1660ff168b60ff1610614aa457805464ff0000000019168155614adb565b80548b908290600490614ac2908490600160201b900460ff16615ed1565b92506101000a81548160ff021916908360ff1602179055505b505b505050505b600101614919565b5050505050505050505050565b604080516101208101825260008082526020820181905291810182905260608082018390526080820183905260a0820183905260c0820183905260e082019290925261010081019190915290565b82805482825590600052602060002090601f01602090048101928215614bdb5791602002820160005b83821115614bac57835183826101000a81548160ff021916908360ff1602179055509260200192600101602081600001049283019260010302614b6e565b8015614bd95782816101000a81549060ff0219169055600101602081600001049283019260010302614bac565b505b50614be7929150614e25565b5090565b604051806060016040528060008152602001614c206040518060400160405280600060010b8152602001600060010b81525090565b8152600060209091015290565b604080516102c08101825260006101a082018181526101c083018290526101e08301829052610200830182905261022083018290526102408301829052610260830182905261028083018290526102a083018290528252825160808101845281815260208082018390528185018390526060820183905280840191909152835180850185528281529081019190915290918201908152602001600081526020016000815260200160008152602001606081526020016060815260200160608152602001606081526020016060815260200160608152602001606081525090565b6040518060c001604052806060815260200160008152602001614d516040805160808101909152806000815260200160008152602001600081526020016000905290565b8152602001614dbb6040805160c080820183526000808352835191820184528082526020828101829052938201819052606082018190526080820181905260a082015290918201908152600060208201819052604082018190526060820181905260809091015290565b81526040805160e08101825260008082526020828101829052928201819052606082018190526080820181905260a0820181905260c08201529101908152600060209091015290565b50805460008255601f016020900490600052602060002090810190611ee991905b5b80821115614be75760008155600101614e26565b6001600160a01b0381168114611ee957600080fd5b60008060408385031215614e6257600080fd5b8235614e6d81614e3a565b946020939093013593505050565b600060208284031215614e8d57600080fd5b813561061a81614e3a565b805182526020810151602083015260018060a01b03604082015116604083015260018060a01b0360608201511660608301526080810151608083015260a081015160a083015260c0810151614ef160c084018215159052565b5060e081015160e0830152610100810151610edd6101008401826001600160a01b03169052565b600081518084526020840193506020830160005b82811015614f4a578151865260209586019590910190600101614f2c565b5093949350505050565b600081518084526020840193506020830160005b82811015614f4a57815160ff16865260209586019590910190600101614f68565b805161ffff16825260006020820151614fa7602085018260ff169052565b506040820151614fbc604085018260ff169052565b506060820151614fd1606085018260ff169052565b506080820151614fe6608085018260ff169052565b5060a0820151614ffb60a085018260ff169052565b5060c082015161501060c085018260ff169052565b5060e082015161502560e085018260ff169052565b5061010082015161012061010085015261223f610120850182614f54565b600082825180855260208501945060208160051b8301016020850160005b8381101561509357601f1985840301885261507d838351614f89565b6020988901989093509190910190600101615061565b50909695505050505050565b600081518084526020840193506020830160005b82811015614f4a57815160008151885260208201516150e860208a0182805160010b8252602081015160010b60208301525050565b50506040015115156060870152608090950194602091909101906001016150b3565b615115828251614e98565b60208181015180516001600160a01b031661012085015290810151610140840152604081015161016084015260608101516101808401526000905060408201518051600190810b6101a08601526020820151900b6101c08501525060608201516101e0840152608082015161020084015260a082015161022084015260c08201516103206102408501526151ad610320850182614f18565b905060e08301518482036102608601526151c78282615043565b9150506101008301518482036102808601526151e3828261509f565b9150506101208301518482036102a08601526151ff8282614f18565b9150506101408301518482036102c086015261521b8282614f18565b9150506101608301518482036102e08601526152378282614f18565b9150506101808301518482036103008601526126ce8282614f18565b6000602082016020835280845180835260408501915060408160051b86010192506020860160005b828110156152ac57603f1987860301845261529785835161510a565b9450602093840193919091019060010161527b565b50929695505050505050565b600080604083850312156152cb57600080fd5b50508035926020909101359150565b6000602082840312156152ec57600080fd5b5035919050565b61024081016153028289614e98565b86516001600160a01b031661012083015260208088015161014084015260408801516101608401526060909701516101808301528551600190810b6101a0840152959096015190940b6101c08501526101e084019290925261020083015261022090910152919050565b60208152600061061a6020830184614f89565b60208152600061061a602083018461509f565b600080600080600060a086880312156153aa57600080fd5b85356153b581614e3a565b945060208601356153c581614e3a565b935060408601356153d581614e3a565b925060608601356153e581614e3a565b915060808601356153f581614e3a565b809150509295509295909350565b634e487b7160e01b600052604160045260246000fd5b60405161012081016001600160401b038111828210171561543c5761543c615403565b60405290565b60405160c081016001600160401b038111828210171561543c5761543c615403565b60405160e081016001600160401b038111828210171561543c5761543c615403565b604051601f8201601f191681016001600160401b03811182821017156154ae576154ae615403565b604052919050565b60006001600160401b038211156154cf576154cf615403565b5060051b60200190565b600082601f8301126154ea57600080fd5b81356154fd6154f8826154b6565b615486565b8082825260208201915060208360051b86010192508583111561551f57600080fd5b602085015b8381101561553c578035835260209283019201615524565b5095945050505050565b60006020828403121561555857600080fd5b81356001600160401b0381111561556e57600080fd5b61223f848285016154d9565b602080825282518282018190526000918401906040840190835b81811015610b67578351835260209384019390920191600101615594565b8035600181900b81146155c457600080fd5b919050565b600080600080608085870312156155df57600080fd5b84359350602085013592506155f6604086016155b2565b9150615604606086016155b2565b905092959194509250565b6000806040838503121561562257600080fd5b8235915060208301356001600160401b0381111561563f57600080fd5b61564b858286016154d9565b9150509250929050565b60208152600061061a602083018461510a565b60008060008060008060c0878903121561568157600080fd5b8635955060208701359450615698604088016155b2565b93506156a6606088016155b2565b92506080870135600681106156ba57600080fd5b9598949750929591949360a090920135925050565b8015158114611ee957600080fd5b60008060008060008060008060006101208a8c0312156156fc57600080fd5b8935985060208a013561570e81614e3a565b975060408a013561571e81614e3a565b965060608a0135955060808a0135945060a08a013561573c816156cf565b989b979a5095989497939693955050505060c08201359160e0810135916101009091013590565b60ff81168114611ee957600080fd5b60008060006060848603121561578757600080fd5b833592506020840135915060408401356157a081615763565b809150509250925092565b805161ffff811681146155c457600080fd5b80516155c481615763565b600082601f8301126157d957600080fd5b81516157e76154f8826154b6565b8082825260208201915060208360051b86010192508583111561580957600080fd5b602085015b8381101561553c57805161582181615763565b83526020928301920161580e565b60006020828403121561584157600080fd5b81516001600160401b0381111561585757600080fd5b8201610120818503121561586a57600080fd5b615872615419565b61587b826157ab565b8152615889602083016157bd565b602082015261589a604083016157bd565b60408201526158ab606083016157bd565b60608201526158bc608083016157bd565b60808201526158cd60a083016157bd565b60a08201526158de60c083016157bd565b60c08201526158ef60e083016157bd565b60e08201526101008201516001600160401b0381111561590e57600080fd5b61591a868285016157c8565b61010083015250949350505050565b634e487b7160e01b600052601160045260246000fd5b60006001820161595157615951615929565b5060010190565b634e487b7160e01b600052603260045260246000fd5b808201808211156107fd576107fd615929565b80516155c4816156cf565b60006020828403121561599e57600080fd5b815161061a816156cf565b634e487b7160e01b600052602160045260246000fd5b858152600185810b602083015284900b604082015260a08101600684106159e8576159e86159a9565b6060820193909352608001529392505050565b60048110611ee957600080fd5b600060808284031215615a1a57600080fd5b604051608081016001600160401b0381118282101715615a3c57615a3c615403565b80604052508091508251615a4f816159fb565b81526020830151615a5f816159fb565b60208201526040830151615a72816159fb565b60408201526060830151615a85816159fb565b6060919091015292915050565b6000818303610160811215615aa657600080fd5b615aae615442565b83518152915060c0601f1982011215615ac657600080fd5b50615acf615442565b615adb602084016157ab565b81526040830151615aeb81615763565b60208201526060830151615afe81615763565b6040820152615b0f608084016157ab565b606082015260a0830151615b2281615763565b608082015260c0830151615b3581615763565b60a08201526020820152615b4b60e083016157bd565b6040820152615b5d61010083016157bd565b6060820152615b6f61012083016157bd565b6080820152615b8161014083016157bd565b60a082015292915050565b600060e08284031215615b9e57600080fd5b615ba6615464565b9050815163ffffffff81168114615bbc57600080fd5b8152615bca602083016157ab565b6020820152615bdb604083016157ab565b6040820152615bec60608301615981565b6060820152615bfd60808301615981565b6080820152615c0e60a08301615981565b60a082015260c09182015191810191909152919050565b80516155c481614e3a565b600060208284031215615c4257600080fd5b81516001600160401b03811115615c5857600080fd5b82016103208185031215615c6b57600080fd5b615c73615442565b81516001600160401b03811115615c8957600080fd5b8201601f81018613615c9a57600080fd5b80516001600160401b03811115615cb357615cb3615403565b615cc6601f8201601f1916602001615486565b818152876020838501011115615cdb57600080fd5b60005b82811015615cfa57602081850181015183830182015201615cde565b50600060209282018301528352838101519083015250615d1d8560408401615a08565b6040820152615d2f8560c08401615a92565b6060820152615d42856102208401615b8c565b6080820152615d546103008301615c25565b60a0820152949350505050565b600182810b9082900b03617fff198112617fff821317156107fd576107fd615929565b60ff81811683821601908111156107fd576107fd615929565b600060208284031215615daf57600080fd5b81516001600160401b03811115615dc557600080fd5b8201601f81018413615dd657600080fd5b8051615de46154f8826154b6565b8082825260208201915060208360051b850101925086831115615e0657600080fd5b6020840193505b82841015615e28578351825260209384019390910190615e0d565b9695505050505050565b80820281158282048414176107fd576107fd615929565b600060ff821660ff8103615e5f57615e5f615929565b60010192915050565b61ffff8181168382160290811690818114610c8557610c85615929565b600061ffff831680615ea757634e487b7160e01b600052601260045260246000fd5b8061ffff84160491505092915050565b61ffff82811682821603908111156107fd576107fd615929565b60ff82811682821603908111156107fd576107fd615929565b600060208284031215615efc57600080fd5b815161061a81615763565b818103818111156107fd576107fd615929565b634e487b7160e01b600052603160045260246000fd5b6020810160048310615f4457615f446159a9565b9190529056fea264697066735822122032959782abbfe190e7c160c729f032ccbd39b2ec35bece72e3b05e74ca4cb36b64736f6c634300081c0033",
  "linkReferences": {},
  "deployedLinkReferences": {}
}