{
  "_format": "hh-sol-artifact-1",
  "contractName": "RenderFore2",
  "sourceName": "contracts/Renderers/RenderFore2.sol",
  "abi": [
    {
      "inputs": [
        {
          "components": [
            {
              "internalType": "string",
              "name": "name",
              "type": "string"
            },
            {
              "internalType": "uint256",
              "name": "id",
              "type": "uint256"
            },
            {
              "components": [
                {
                  "internalType": "enum MainWeapon",
                  "name": "mainWeapon",
                  "type": "uint8"
                },
                {
                  "internalType": "enum Armor",
                  "name": "armor",
                  "type": "uint8"
                },
                {
                  "internalType": "enum Shields",
                  "name": "shields",
                  "type": "uint8"
                },
                {
                  "internalType": "enum Special",
                  "name": "special",
                  "type": "uint8"
                }
              ],
              "internalType": "struct Equipment",
              "name": "equipment",
              "type": "tuple"
            },
            {
              "components": [
                {
                  "internalType": "uint256",
                  "name": "serialNumber",
                  "type": "uint256"
                },
                {
                  "components": [
                    {
                      "internalType": "uint16",
                      "name": "h1",
                      "type": "uint16"
                    },
                    {
                      "internalType": "uint8",
                      "name": "s1",
                      "type": "uint8"
                    },
                    {
                      "internalType": "uint8",
                      "name": "l1",
                      "type": "uint8"
                    },
                    {
                      "internalType": "uint16",
                      "name": "h2",
                      "type": "uint16"
                    },
                    {
                      "internalType": "uint8",
                      "name": "s2",
                      "type": "uint8"
                    },
                    {
                      "internalType": "uint8",
                      "name": "l2",
                      "type": "uint8"
                    },
                    {
                      "internalType": "uint16",
                      "name": "h3",
                      "type": "uint16"
                    },
                    {
                      "internalType": "uint8",
                      "name": "s3",
                      "type": "uint8"
                    },
                    {
                      "internalType": "uint8",
                      "name": "l3",
                      "type": "uint8"
                    }
                  ],
                  "internalType": "struct Colors",
                  "name": "colors",
                  "type": "tuple"
                },
                {
                  "internalType": "uint16",
                  "name": "variant",
                  "type": "uint16"
                },
                {
                  "internalType": "uint8",
                  "name": "accuracy",
                  "type": "uint8"
                },
                {
                  "internalType": "uint8",
                  "name": "hull",
                  "type": "uint8"
                },
                {
                  "internalType": "uint8",
                  "name": "speed",
                  "type": "uint8"
                }
              ],
              "internalType": "struct Traits",
              "name": "traits",
              "type": "tuple"
            },
            {
              "components": [
                {
                  "internalType": "uint32",
                  "name": "shipsDestroyed",
                  "type": "uint32"
                },
                {
                  "internalType": "uint16",
                  "name": "costsVersion",
                  "type": "uint16"
                },
                {
                  "internalType": "uint16",
                  "name": "cost",
                  "type": "uint16"
                },
                {
                  "internalType": "uint16",
                  "name": "modified",
                  "type": "uint16"
                },
                {
                  "internalType": "bool",
                  "name": "shiny",
                  "type": "bool"
                },
                {
                  "internalType": "bool",
                  "name": "constructed",
                  "type": "bool"
                },
                {
                  "internalType": "bool",
                  "name": "inFleet",
                  "type": "bool"
                },
                {
                  "internalType": "bool",
                  "name": "isFreeShip",
                  "type": "bool"
                },
                {
                  "internalType": "uint256",
                  "name": "timestampDestroyed",
                  "type": "uint256"
                }
              ],
              "internalType": "struct ShipData",
              "name": "shipData",
              "type": "tuple"
            },
            {
              "internalType": "address",
              "name": "owner",
              "type": "address"
            }
          ],
          "internalType": "struct Ship",
          "name": "ship",
          "type": "tuple"
        }
      ],
      "name": "render",
      "outputs": [
        {
          "internalType": "string",
          "name": "",
          "type": "string"
        }
      ],
      "stateMutability": "pure",
      "type": "function"
    }
  ],
  "bytecode": "0x6080604052348015600f57600080fd5b50613cd88061001f6000396000f3fe608060405234801561001057600080fd5b506004361061002b5760003560e01c80635394d87214610030575b600080fd5b61004361003e36600461115b565b610059565b604051610050919061129a565b60405180910390f35b6060600060405180610100016040528060d98152602001612f0360d991398360800151608001516100b3576040518060400160405280601181526020017068736c2833342c203539252c203537252960781b815250610116565b6101168460600151602001516000015161ffff168560600151602001516020015160ff168660600151602001516040015160ff166040518060400160405280601181526020017068736c2833342c203539252c203537252960781b815250610866565b604051806101e001604052806101b881526020016122b26101b8913985608001516080015161016e576040518060400160405280601181526020017068736c283232302c2033252c203633252960781b8152506101d1565b6101d18660600151602001516000015161ffff168760600151602001516020015160ff168860600151602001516040015160ff166040518060400160405280601181526020017068736c283232302c2033252c203633252960781b815250610866565b60405180610380016040528061034a8152602001611f6861034a9139876080015160800151610229576040518060400160405280601181526020017068736c2832322c203833252c203437252960781b81525061028c565b61028c8860600151602001516000015161ffff168960600151602001516020015160ff168a60600151602001516040015160ff166040518060400160405280601181526020017068736c2832322c203833252c203437252960781b815250610866565b6040518061032001604052806102f781526020016139ac6102f791398960800151608001516102e4576040518060400160405280601181526020017068736c283231352c2034252c203433252960781b815250610347565b6103478a60600151602001516000015161ffff168b60600151602001516020015160ff168c60600151602001516040015160ff166040518060400160405280601181526020017068736c283231352c2034252c203433252960781b815250610866565b60405160200161035e9897969594939291906112cd565b60408051601f198184030181526104e083019091526104bc808352909250600091906134f060208301398460800151608001516103c4576040518060400160405280601181526020017068736c2831382c203736252c203338252960781b815250610427565b6104278560600151602001516000015161ffff168660600151602001516020015160ff168760600151602001516040015160ff166040518060400160405280601181526020017068736c2831382c203736252c203338252960781b815250610866565b6040518061050001604052806104dc81526020016115876104dc913986608001516080015161047f576040518060400160405280601181526020017068736c283232332c2036252c203234252960781b8152506104e2565b6104e28760600151602001516000015161ffff168860600151602001516020015160ff168960600151602001516040015160ff166040518060400160405280601181526020017068736c283232332c2036252c203234252960781b815250610866565b6040518061054001604052806105148152602001612fdc610514913988608001516080015161053a576040518060400160405280601181526020017068736c283231332c2039252c203230252960781b81525061059d565b61059d8960600151602001516000015161ffff168a60600151602001516020015160ff168b60600151602001516040015160ff166040518060400160405280601181526020017068736c283231332c2039252c203230252960781b815250610866565b6040518061052001604052806104e3815260200161246a6104e391398a60800151608001516105f6576040518060400160405280601281526020017168736c283231332c203130252c203138252960701b81525061065a565b61065a8b60600151602001516000015161ffff168c60600151602001516020015160ff168d60600151602001516040015160ff166040518060400160405280601281526020017168736c283231332c203130252c203138252960701b815250610866565b6040516020016106719897969594939291906112cd565b60408051601f19818403018152610540830190915261050580835290925060009190611a6360208301398560800151608001516106d8576040518060400160405280601281526020017168736c283232332c203130252c203133252960701b81525061073c565b61073c8660600151602001516000015161ffff168760600151602001516020015160ff168860600151602001516040015160ff166040518060400160405280601281526020017168736c283232332c203130252c203133252960701b815250610866565b604051806105e001604052806105b6815260200161294d6105b69139876080015160800151610794576040518060400160405280601181526020017068736c283232352c203137252c2039252960781b8152506107f7565b6107f78860600151602001516000015161ffff168960600151602001516020015160ff168a60600151602001516040015160ff166040518060400160405280601181526020017068736c283232352c203137252c2039252960781b815250610866565b6040518060400160405280600381526020016211179f60e91b815250604051602001610827959493929190611374565b604051602081830303815290604052905082828260405160200161084d939291906113df565b6040516020818303038152906040529350505050919050565b60606000829050600a815110156108bf5760405162461bcd60e51b8152602060048201526019602482015278125b9d985b1a59081214d3081cdd1c9a5b99c8199bdc9b585d603a1b604482015260640160405180910390fd5b6004805b8251811080156108f857508281815181106108e0576108e0611422565b6020910101516001600160f81b031916600b60fa1b14155b1561090f57806109078161144e565b9150506108c3565b600061091c848484610c43565b9050610929826001611467565b92505b83518310801561098e575083838151811061094957610949611422565b6020910101516001600160f81b031916600160fd1b148061098e575083838151811061097757610977611422565b6020910101516001600160f81b031916600b60fa1b145b156109a5578261099d8161144e565b93505061092c565b8291505b8351821080156109de57508382815181106109c6576109c6611422565b6020910101516001600160f81b031916602560f81b14155b156109f557816109ed8161144e565b9250506109a9565b6000610a02858585610c43565b9050610a0f836001611467565b93505b845184108015610a745750848481518110610a2f57610a2f611422565b6020910101516001600160f81b031916600160fd1b1480610a745750848481518110610a5d57610a5d611422565b6020910101516001600160f81b031916600b60fa1b145b15610a8b5783610a838161144e565b945050610a12565b8392505b845183108015610ac45750848381518110610aac57610aac611422565b6020910101516001600160f81b031916602560f81b14155b15610adb5782610ad38161144e565b935050610a8f565b6000610ae8868686610c43565b905060006028831115610b28576064610b028d6005611480565b610b0d86605f611480565b610b179190611467565b610b2191906114ad565b9050610b57565b6064610b358d6032611480565b610b40866032611480565b610b4a9190611467565b610b5491906114ad565b90505b60006028841115610b95576064610b6f8d6005611480565b610b7a86605f611480565b610b849190611467565b610b8e91906114ad565b9050610bc4565b6064610ba28d6041611480565b610bad866023611480565b610bb79190611467565b610bc191906114ad565b90505b60006064610bd38d600f611480565b610bde866055611480565b610be89190611467565b610bf291906114ad565b9050610bfd83610ceb565b610c0683610ceb565b610c0f83610ceb565b604051602001610c21939291906114c1565b6040516020818303038152906040529950505050505050505050949350505050565b600080835b83811015610ce2576030868281518110610c6457610c64611422565b016020015160f81c10801590610c9457506039868281518110610c8957610c89611422565b016020015160f81c11155b15610cda576030868281518110610cad57610cad611422565b0160200151610cbf919060f81c611546565b60ff16610ccd83600a611480565b610cd79190611467565b91505b600101610c48565b50949350505050565b606081600003610d125750506040805180820190915260018152600360fc1b602082015290565b8160005b8115610d3c5780610d268161144e565b9150610d359050600a836114ad565b9150610d16565b6000816001600160401b03811115610d5657610d56610df3565b6040519080825280601f01601f191660200182016040528015610d80576020820181803683370190505b5090505b8415610deb57610d9560018361155f565b9150610da2600a86611572565b610dad906030611467565b60f81b818381518110610dc257610dc2611422565b60200101906001600160f81b031916908160001a905350610de4600a866114ad565b9450610d84565b949350505050565b634e487b7160e01b600052604160045260246000fd5b60405160c081016001600160401b0381118282101715610e2b57610e2b610df3565b60405290565b60405161012081016001600160401b0381118282101715610e2b57610e2b610df3565b604051601f8201601f191681016001600160401b0381118282101715610e7c57610e7c610df3565b604052919050565b60088110610e9157600080fd5b50565b600060808284031215610ea657600080fd5b604051608081016001600160401b0381118282101715610ec857610ec8610df3565b6040529050808235610ed981610e84565b81526020830135610ee981610e84565b60208201526040830135610efc81610e84565b60408201526060830135610f0f81610e84565b6060919091015292915050565b803561ffff81168114610f2e57600080fd5b919050565b803560ff81168114610f2e57600080fd5b60008183036101c0811215610f5857600080fd5b610f60610e09565b833581529150610120601f1982011215610f7957600080fd5b50610f82610e31565b610f8e60208401610f1c565b8152610f9c60408401610f33565b6020820152610fad60608401610f33565b6040820152610fbe60808401610f1c565b6060820152610fcf60a08401610f33565b6080820152610fe060c08401610f33565b60a0820152610ff160e08401610f1c565b60c08201526110036101008401610f33565b60e08201526110156101208401610f33565b610100820152602082015261102d6101408301610f1c565b604082015261103f6101608301610f33565b60608201526110516101808301610f33565b60808201526110636101a08301610f33565b60a082015292915050565b803563ffffffff81168114610f2e57600080fd5b80358015158114610f2e57600080fd5b600061012082840312156110a557600080fd5b6110ad610e31565b90506110b88261106e565b81526110c660208301610f1c565b60208201526110d760408301610f1c565b60408201526110e860608301610f1c565b60608201526110f960808301611082565b608082015261110a60a08301611082565b60a082015261111b60c08301611082565b60c082015261112c60e08301611082565b60e08201526101009182013591810191909152919050565b80356001600160a01b0381168114610f2e57600080fd5b60006020828403121561116d57600080fd5b81356001600160401b0381111561118357600080fd5b82016103c0818503121561119657600080fd5b61119e610e09565b81356001600160401b038111156111b457600080fd5b8201601f810186136111c557600080fd5b80356001600160401b038111156111de576111de610df3565b6111f1601f8201601f1916602001610e54565b81815287602083850101111561120657600080fd5b816020840160208301376000602092820183015283528381013590830152506112328560408401610e94565b60408201526112448560c08401610f44565b6060820152611257856102808401611092565b60808201526112696103a08301611144565b60a0820152949350505050565b60005b83811015611291578181015183820152602001611279565b50506000910152565b60208152600082518060208401526112b9816040850160208701611276565b601f01601f19169190910160400192915050565b600089516112df818460208e01611276565b8951908301906112f3818360208e01611276565b8951910190611306818360208d01611276565b8851910190611319818360208c01611276565b875191019061132c818360208b01611276565b865191019061133f818360208a01611276565b8551910190611352818360208901611276565b8451910190611365818360208801611276565b019a9950505050505050505050565b60008651611386818460208b01611276565b86519083019061139a818360208b01611276565b86519101906113ad818360208a01611276565b85519101906113c0818360208901611276565b84519101906113d3818360208801611276565b01979650505050505050565b600084516113f1818460208901611276565b845190830190611405818360208901611276565b8451910190611418818360208801611276565b0195945050505050565b634e487b7160e01b600052603260045260246000fd5b634e487b7160e01b600052601160045260246000fd5b60006001820161146057611460611438565b5060010190565b8082018082111561147a5761147a611438565b92915050565b808202811582820484141761147a5761147a611438565b634e487b7160e01b600052601260045260246000fd5b6000826114bc576114bc611497565b500490565b630d0e6d8560e31b8152600084516114e0816004850160208901611276565b61016160f51b6004918401918201528451611502816006840160208901611276565b6004818301019150506201296160ed1b6002820152835161152a816005840160208801611276565b61252960f01b6005929091019182015260070195945050505050565b60ff828116828216039081111561147a5761147a611438565b8181038181111561147a5761147a611438565b60008261158157611581611497565b50069056fe222f3e3c7061746820643d224d37302031313468326c2d322d3248363076326c32203120332d3168355a6d2d31312d31762d314833346c2d3120312d3120316832366c312d315a6d37203876312d315a6d31352d3476312d315a6d2d39203068316c312031682d336c312d315a6d372031762d3120316c312031682d3176312d325a6d2d3232203320342d3168396c332d31683376316838762d336c2d312d31682d316c2d32372d314832376c2d3320332d34203376316831346c34203168376c382d3120342d315a6d2d3239203568387631683132762d316c312d316832326c352d33682d326c2d3120312d31203148313976336c312d3268385a6d32372035762d326c2d31203176316c31203168316c2d312d315a6d2d38203720332d3220332d322d322d322d312d334833396c2d31203120322034203120332031203268316c342d315a6d2d372030762d316c2d322d35682d316c2d312d33682d366c2d3220322d31203176326c312033682d316c2d312d332d322d34682d3276316c3120312031203420312033683135762d315a6d33342034762d31682d32763268336c2d312d315a6d332d31762d336c2d312036682d36762d35682d3176366838762d345a6d2d3134203720322d31762d326c312d31762d316c312d32762d316c322d3220352d3168366c2d312d31682d356c2d332d312d322d312d3220332d34203376346c2d3120317631682d3376346c312d3120312d3168325a6d2d3437203120312d31682d326c2d3120312d3120312031203220312031762d336c312d315a6d3130203420312d31682d366c31203168345a6d3136203020312d312d312d312d312d31682d3176316c2d31203368326c312d315a6d38203020342d3468336c322d312d322d31682d326c2d3220322d3220312d3420332d332032763168326c342d335a6d2d323320322d312d312d3120312d31203168346c2d312d315a6d2d31342030682d3176316831762d315a6d392034762d31682d31763168315a6d2d322030762d31682d31763168315a6d33342d323168317631682d31762d315a6d2d33203168312d315a6d2d31342036762d316833762d316c362d312d3420322d312031682d326c2d322031762d315a6d30203131762d346c312d3368346c2d332d3220332d31683176336c322031762d346c312d3220312d3168352d326c2d322031763168326c322d3176326c2d34203176326c332d3220322d32762d336c352d3276316c2d3120312d322031763168346c312d316831762d346c2d312d32682d356c322d3120322d3120322d33762d316c2d312d31682d326c3120322d3420332d3520332d3620324833346c2d313020316831326c312031203120314832316c312d3120312d31762d326c2d33203376376838762d3268346c2d312d31682d316c2d342032682d35762d3368313276376c312037763168326c312d345a6d353120324836306c2d3320322d3220324831366c2d322d312d322d312d322d32762d336c322d32762d346c332d3220332d32762d336c322d3220332d322d312d342d312d332d322d322d322d32762d336c312d3220312d31762d316c342d3320332d3268336c322d3320332d326831386c31382031203320322032203168366c35203276366c2d35203476326c33203276336c3220312032203276336c2d34203576356c3220312032203176375a22207374796c653d2266696c6c3a222f3e3c7061746820643d224d33302031313468327631682d32762d315a6d3432203120312d312d312d312d312d314833346c2d33203120332d326833366c33203220312032682d325a6d2d32203068312d315a6d2d31312030762d316c35203168342d313020315a6d2d34203068332d3420315a6d2d33203068312d315a6d2d322030762d316c31203168312d3320315a6d2d3133203068392d313220335a6d343820332d312d32682d346c2d342d31762d3168376c3220322031203176316c2d312031762d315a6d2d343820313368317631682d31762d315a6d3130203768317631682d31762d315a6d2d322031762d316c312031682d3220315a6d2d35203120312d31763168312d325a6d33332030682d3320336c322d3176326c2d322d315a6d2d3139203268327631682d32762d315a6d2d3331203020312d312d312d33762d336c31203320312032203120312031312031682d386c2d37203120312d315a6d2d332d3120322d322d332034682d326c332d325a6d3534203268312d315a6d2d33203068312d315a6d322d3132762d31682d3376316c2d3120316834762d315a6d31342037762d33682d3276356832762d325a6d2d332d322d312d352d342d317632682d32762d32682d3376316c3420332034203376376c322d32762d365a6d2d31203130762d31682d3276336832762d325a6d2d342034762d322032682d336c2d3120326834762d325a6d2d35322033762d316c2d342d31682d3576326831306c2d312d315a6d35392030762d32682d3576336835762d315a6d2d312033762d31682d3376326833762d315a6d2d382d31762d3168317631682d315a6d332031762d316c2d312d312d312d312d322031682d3376336837762d315a6d2d392d31762d32682d3476336c3120316833762d325a6d2d35203220312d31682d36763168355a6d2d35302030762d33682d336c2d3120322d31203120312032203120316833762d335a6d373220314836306c2d3320322d33203220322d3220332d33682d31762d316c2d3320332d3320322d32352031762d316c312d31762d36483138763668386c2d312031682d346c2d312d312d3220312d3220312d312d31682d316c2d342d33762d326c322d32762d346c312d31683176326c2d31203268326c312d31762d316c312d3220312d31762d316c2d322031682d316c322d3220312d3120312034203920312032203576356c33203168326c342d3168336c312d33762d336c362d342d3320322d32203376336c31203320332d3168336c342d3320332d3320312d33762d3320376c332d316834762d326c33203168326c31302d38762d386c2d322d322d322d31682d346c2d342d312d3320342d33203376346c2d342033682d356c2d3220322d33203220312d3220322d3120322d3120332d3168316c342d33762d346c332d3320322d32762d33682d326c2d332d31682d326c2d332d31203220342d352d352d322031203220322032203276316c2d3320322d33203120322d3120322d322d322d332d322d324832376c2d3520312031203276336c2d312d31682d31762d336c2d312d312d322d3120312d316835306c31322031762d346c312d3120312d324837336c2d3120324831396c2d32203220312d3420342d3420342d3368332d326c2d3120312d37203676316835326c342d3268313176316c2d35203476326c33203276336c322031203320322d3120322d3120322d3120322d32203276356c3120312033203176375a22207374796c653d2266696c6c3a222f3e3c7061746820643d224d343420313133762d31682d31763168315a6d31342030762d31682d396c2d31203168336c32203168366c2d312d315a6d2d32342030682d3176316831762d315a6d2d37203420312d312d3420322d33203320332d3220332d31762d315a6d3330203068316c312031682d336c312d315a6d30203320352d32682d316c2d312d316831396c2d312d314833306c31203168316c2d31203176326c322d3220312d3168376c2d3220322d3320322031203168376c372d3120362d315a6d2d313320352d362d312d3120312d31203120372d3168372d365a6d2d32302036682d3176316831762d315a6d312033762d31682d31763168315a6d31322031762d326c2d322d312d332d31682d3176316c312033683376316c2d322031682d312035762d325a6d2d31312031762d31682d3176316c31203168316c2d312d315a6d31372030762d316c312031682d3176312d315a6d34203020332d31762d336c3220312d322d312d312d32682d34763268342d326c2d312031682d326c2d322031682d326c3120322031203268336c322d325a6d2d372032762d316c2d322d31763268325a6d2d31382033762d31682d31763168315a6d35322031762d31682d326c31203220312d315a6d2d382d3220322d3220322d31762d31682d326c2d3220322d32203276336c312d3120312d31762d315a6d2d33203720322d31762d316c2d312d312d3220322d33203268336c312d315a6d2d32372031762d336c332d3220352d3120352d31762d316c352d3220332d3220332d33682d326c2d313220374833306c3820317632682d336c2d32203176366833762d325a6d362034762d31682d3276326832762d315a6d36203120322d3120332d3220332d31762d326c2d3220312d3120312d38203668326c312d325a6d333820354836306c2d3220322d3320324831366c2d332d322d332d31762d346c322d32762d316c2d312d3220342d3320332d32762d336c352d342d312d342d312d332d342d34762d336c312d3320342d3320352d3368326c352d356833366c3220322033203268366c3220312033203176366c2d3120312d3220312d322033203220322031203276326c3520332d3120332d352036203120332032203376375a22207374796c653d2266696c6c3a222f3e3c7061746820643d226d34312031323020322d322d3420322d31203168326c312d315a6d2d3137203131682d3176316831762d315a6d312033762d31682d31763168315a6d31322031762d326c2d322d312d332d31682d3176316c312033683376316c2d322031682d312035762d325a6d2d31312031762d31682d3176316c31203168316c2d312d315a6d31372030762d316c312031682d3176312d315a6d34203020332d31762d336c3220312d322d312d312d32682d34763268342d326c2d312031682d326c2d322031682d326c3120322031203268336c322d325a6d2d372032762d316c2d322d31763268325a6d33342034762d31682d3176326c312d315a6d31342031364836306c2d3220322d3320324831346c2d322d322d322d3220312d34762d326c312d3220332d3320332d32762d346c322d3120322d32762d336c2d312d33762d316c2d322d322d322d32762d336c312d3320372d3668346c322d3320322d326833376c3320322032203268386c3220312031203176366c2d35203476326c33203276336c31203120322031203120352d3320342d31203276336c34203276375a22207374796c653d2266696c6c3a222f3e3c7061746820643d224d35342031343268327631682d32762d315a6d2d31322037762d316c312031682d3176312d315a6d33302d323720312d31683132762d346c2d312d312d312d314834376831326c312d327632683133762d326c2d312d3148333276326831306c3520314832366c2d3320332d3320337632683532762d315a6d3520392d312d31682d326c3120326832762d315a6d2d362030682d31763168326c2d312d315a6d2d3234203720332d3220332d322d322d322d312d334833396c2d31203120322034203120332031203268316c342d315a6d2d382d322d312d332d312d312d312d31762d32682d366c2d3220322d3220312031203220312033682d316c2d312d332d322d34682d3276316c31203120312034203120336831366c2d322d335a6d34382031762d32682d3276346832762d325a6d2d3320342d312d31762d39682d3476336c33203376366832762d325a6d2d312035762d316c2d3120312d3120316832762d315a6d2d352035682d326c2d31203168346c2d312d315a6d2d36322d3120322d322d312d312d3220312d322032763368326c312d335a6d35203276316837762d31682d326c2d312d31682d37763268326c312d315a6d36342030762d31682d3376336833762d325a6d2d31342d38762d326c332031762d326c2d342d3120352d317635682d345a6d2d352039762d3168366c322d3120322d3220322d3320332d32762d386c2d362d33682d366c2d3320342d33203376346c2d34203376376837762d315a6d31382033682d3176316831762d315a6d2d31392030682d316c2d31203168336c2d312d315a6d31342030762d31682d36763268336c332d315a6d2d382030762d326c2d322d312d3220322032203268316c312d315a6d2d3134203220322d31682d316c2d3220322d32203220322d3120312d325a6d2d3130203220312d3120342d322d3120312d31203168316c372d35762d37682d346c2d3520342d352034763568335a6d2d32332d3220312d31763168312d325a6d2d352d3168336c2d312031682d316c2d312d315a6d392030762d336c2d3130203176356c342d31683576316831762d335a6d2d31322030762d33682d3476316c2d31203220312032203120316833762d335a6d373120314836306c2d3320322d332032483236762d316c312d312d3220312d3220312d312d312d322d312d312032682d336c2d312d31682d316c2d342d33762d326c322d32762d346c372d3576346c31203168376c3220312031203276376c33203120392d31762d366c322d3120312d3120322d3120322d3120362d3468336c322d3168316c312d33762d336c352d36762d316c2d312d31682d326c2d332d31682d326c2d322d312031203220312031682d326c2d322d312d312d3276316c312032203120312d3220322d3520332d342032483235763168326c32203168392d386c2d38203120312d3120312d31762d32682d326c2d3220332d322032762d326c352d34762d336c2d322d31762d34682d316c2d322d336832306c323020316831316c31312031762d346c322d3120312d324837336c2d3120324831396c2d32203220312d3420342d3420342d3368346c342d346833366c33203276316831306c3120312032203176366c2d35203476326c33203276336c322031203320322d3120342d3220322d32203276356c3120312032203176375a22207374796c653d2266696c6c3a222f3e3c7061746820643d224d343420313131762d316c3120317631682d326c312d315a6d2d39203068362d3820325a6d2d34203168326c2d312031682d316c312d315a6d343120312d312d312d31322d314834376832346c312031203220322d3120312d312d325a6d2d3432203168317631682d31762d315a6d34362031762d3168316c322031682d335a6d2d31372030762d316c322031682d325a6d2d3138203068342d3520315a6d34342033762d316c2d312d312d322d312d32203120322d32203320322031203176326c2d312031762d325a6d2d3634203120362d352d352035682d315a6d2d31203176312d315a6d3634203220312d3120312031682d325a6d2d332030762d316c31203168312d3320315a6d2d32203068312d315a6d2d392032762d3168317631682d315a6d2d35322d31762d3220316c3120316832356c32352031483139762d315a6d3139203868317631682d31762d315a6d2d31352033762d3168317631682d315a6d36322d312d312d33682d326c2d322d312d3320312d3320312032203120322032682d326c2d312d322d322d32682d337633682d32762d326c2d352d312d352d3176316c312031203120312d3120312d332d34682d336c3420352d332032762d316c312d312d322d332d322d324833326c2d3130203176326c2d332d346833306c3331203120312d3568326c312d312d3120322d3120312031203220312032203120332031203168316c2d3220312d312031762d335a6d2d3138203320312d32203120312d3220312d32203220322d325a6d31352032762d316c312031682d3176312d315a6d36203168312d315a6d2d3433203068312d315a6d2d32312d31762d336c31203376316c2d312031762d325a6d3439203220312d312032203168312d3520315a6d2d3337203268317631682d31762d315a6d2d3132203020312d312031312031682d376c2d36203120312d315a6d2d332d3120322d3268316c2d352034682d316c332d325a6d3534203268312d315a6d2d31322d31762d326c312d31762d3168326c2d32203276326c2d312032762d325a6d2d35203468326c322d3120312d317632682d326c2d332031682d336c332d315a6d2d36203320312d3120322d312d3220312d312032682d31762d315a6d2d3339203168312d315a6d39203068316c2d312031682d316c312d315a6d35352033762d316c312031682d3220315a6d2d31332032762d3168317631682d315a6d32302d39762d31682d3276336832762d325a6d332036762d316c2d312d31682d3376326c2d3120326835762d325a6d302034762d31682d3576316c33203168316c312d315a6d31203248373668326c332d31762d33682d326c2d322d3168326c312d32762d336c2d312d3220312d316831762d3520316c312032763168316c312d3268326c2d31203276356c3120312032203276356c2d3120315a6d2d31362d32762d33682d3476346c2d312d31762d3368366c332d3320332d33203120312d3220322d3320327631682d326c312035682d32762d325a6d2d3134203368317631682d31762d315a6d2d343620302d312d3268316c312032203120312d322d315a6d34342032762d3168317631682d315a6d2d362d3120332d3120332d3220332d3220312d33762d3420376c322d3168316c2d3120312d31203176316c392031682d356c2d36203120312d32762d31682d316c2d3320332d332032682d356c322d315a6d2d3130203120342d31762d366c352d332d3220322d332032203120337633682d3820335a6d2d31312d3320312d344831386c2d31203176312d32682d35762d316c342031762d326c312d32762d326c312d322d312031682d316c312d3168316c3120327632682d3176336839762d316c2d342d3220332d3120332033763868326c312031682d34762d335a6d2d362032682d3120336c2d312031682d31762d315a6d2d3720312d312d316832762d326c3320322d3120312d3220312d312d315a22207374796c653d2266696c6c3a3c7061746820643d226d34312031323020322d322d3420322d31203168326c312d315a6d34372033384836306c2d3220322d3320324831346c2d322d322d322d3220312d34762d326c312d3220332d3320332d32762d346c322d3120322d32762d336c2d312d33762d316c2d322d322d322d32762d336c312d3320372d3668346c322d3320322d326833376c3320322032203268386c3220312031203176366c2d35203476326c33203276336c32203120312031203120352d3320342d322032203120332034203276375a22207374796c653d2266696c6c3a222f3e3c7061746820643d226d35392031313420312d317632683133762d326c2d312d314833346c2d3220326831396c37203120312d315a6d3133203820312d31683132762d336c2d322d334832376c2d37203676326835316c312d315a6d392034762d316c332d334837336c2d31203248313976316c2d31203176316834326c32312031762d325a6d2d352035682d3176316831762d315a6d2d323020302d312d322d3120312032203268316c2d312d315a6d323520312d312d3176346c31203120312d332d312d315a6d352034762d3120336c312d312d312d315a6d2d3339203220332d3220332d322d322d322d312d334833396c2d31203120322034203120332031203268316c342d315a6d2d382d322d312d332d312d312d312d31762d32682d366c2d3220322d3220312031203220312033682d316c2d312d332d322d34682d3276316c31203120312034203120336831366c2d322d335a6d2d323320313520312d33762d316c2d342033763368326c312d325a6d363820322d312d317631682d3120325a6d2d35362030762d31682d326c2d322d31682d33763268375a6d2d382d31762d31682d3276326832762d315a6d35312d313868317631682d31762d315a6d33203168316c312031682d336c312d315a6d2d332033762d3168317631682d315a6d302035762d316c3420312d312d31762d31682d33762d3268357635682d35762d315a6d3120332d322d3168356c2d312031682d325a6d30203368317631682d31762d315a6d2d392033762d32683176352d326c312d3168376c332d3320332d32762d376c31203276336c312d35762d32682d336c2d342d316837762d316c2d332d322d332d31682d346c2d37203776336c2d3120327631682d33763868336c312d325a6d372033762d31682d3276336c322d31762d315a6d2d31332034762d31682d31763168315a6d2d32392d32762d33682d396c2d31203176316c34203168346c3120326831762d325a6d2d332032762d31682d35763168355a6d2d352030762d31682d3276326832762d315a6d3237203020322d3220332d3168336c322d3120312d3120312d37682d356c2d3520342d352033763668316c322d315a6d31332d3235762d3168316c2d312032682d316c312d315a6d2d37203920312d3168326c2d332032762d315a6d322032762d3168317631682d315a6d2d32332033762d3168317631682d315a6d31302031762d326c3120327631682d31762d315a6d2d342033762d316c31203176316c2d312031762d325a6d2d322037762d3168317631682d315a6d35203020312d3768336c382d3520342d3120342d3120312d34762d336c322d3220322d33762d326c2d352d31682d326c2d322d31203220332d3620342d352033682d346c2d3320314832346c31342032682d396c2d38203120322d3220312d31762d31682d326c2d3120322d32203176346c31203420362d312034203376376c312031683130762d315a6d2d32352d32762d32682d346c2d31203220322032203120316832762d335a6d373320314836306c2d3620344832326c2d312d32682d326c322032682d356c2d312d31682d326c2d322d322d322d3220322d3220312d32762d336c362d35762d336c322d3220332d322d312d342d312d332d322d322d322d32762d326c312d3320382d3768346c312d3220322d326833376c33203276326c382d312035203276366c2d35203476326c33203276336c3220312032203276326c2d3220332d3220332d3120352035203276375a22207374796c653d2266696c6c3a222f3e3c7061746820643d224d37302031313468326c2d322d3248363076326c32203120332d3168355a6d2d31312d31762d314833346c2d3120312d3120316832366c312d315a6d37203876312d315a6d31352d3476312d315a6d2d39203068316c312031682d336c312d315a6d372031762d3120316c312031682d3176312d325a6d2d3232203320342d3168396c332d31683376316838762d336c2d312d31682d316c2d32372d314832376c2d3320332d34203376316831346c34203168376c382d3120342d315a6d2d3239203568387631683132762d316c312d316832326c352d33682d326c2d3120312d31203148313976336c312d3268385a6d323120313020332d32762d316c2d322d33682d376c2d33203276326c3120322031203268346c332d325a6d2d31302d312d322d322d332d312d332d322d3120312d31203268316c2d3220332031203176316831316c2d312d335a6d2d313120332d342d372d322d312034203876316832762d315a6d34362034762d31682d32763268336c2d312d315a6d332d31762d336c2d312036682d36762d35682d3176366838762d345a6d2d3134203720322d31762d326c312d31762d316c312d32762d316c322d3220352d3168366c2d312d31682d356c2d332d312d322d312d3220332d34203376346c2d3120317631682d3376346c312d3120312d3168325a6d2d3437203120312d31682d326c2d3120312d3120312031203220312031762d336c312d315a6d3130203420312d31682d366c31203168345a6d3136203020312d312d312d312d312d31682d3176316c2d31203368326c312d315a6d38203020342d3468336c322d312d322d31682d326c2d3220322d3220312d3420332d332032763168326c342d335a6d2d323320322d312d312d3120312d31203168346c2d312d315a6d2d31342030682d3176316831762d315a6d392034762d31682d31763168315a6d2d322030762d31682d31763168315a6d33342d323168317631682d31762d315a6d2d33203168312d315a6d2d31342036762d316833762d316c362d312d3420322d312031682d326c2d322031762d315a6d30203131762d346c312d3368346c2d332d3220332d31683176336c322031762d346c312d3220312d3168352d326c2d322031763168326c322d3176326c2d34203176326c332d3220322d32762d336c352d3276316c2d3120312d322031763168346c312d316831762d346c2d312d32682d356c322d3120322d3120322d33762d316c2d312d31682d326c3120322d3420332d3520332d3620324833346c2d313020316831326c312031203120314832316c312d3120312d31762d326c2d33203376376838762d3268346c2d312d31682d316c2d342032682d35762d3368313276376c312037763168326c312d345a6d353120324836306c2d3320322d3220324831366c2d322d312d322d312d322d32762d336c322d32762d346c332d3220332d32762d336c322d3220332d322d312d342d312d332d322d322d322d32762d336c312d3220312d31762d316c342d3320332d3268336c322d3320332d326831386c31382031203320322032203168366c35203276366c2d35203476326c33203276336c322031203320322d3120332d34203576356c3220312032203176375a22207374796c653d2266696c6c3a222f3e3c7061746820643d224d343420313133762d31682d31763168315a6d31342030762d31682d396c2d31203168336c32203168366c2d312d315a6d2d32342030682d3176316831762d315a6d2d37203420312d312d3420322d33203320332d3220332d31762d315a6d3330203068316c312031682d336c312d315a6d30203320352d32682d316c2d312d316831396c2d312d314833306c31203168316c2d31203176326c322d3220312d3168376c2d3220322d3320322031203168376c372d3120362d315a6d2d313320352d362d312d3120312d31203120372d3168372d365a6d3520313120332d32762d316c2d322d33682d376c2d33203276326c3120322031203268346c332d325a6d2d31302d312d322d322d332d312d332d322d3120312d31203268316c2d3220332031203176316831316c2d312d335a6d2d313120332d322d342d322d33682d3176316c312033203220346832762d315a6d2d362033762d31682d31763168315a6d35322031762d31682d326c31203220312d315a6d2d382d3220322d3220322d31762d31682d326c2d3220322d32203276336c312d3120312d31762d315a6d2d33203720322d31762d316c2d312d312d3220322d33203268336c312d315a6d2d32372031762d336c332d3220352d3120352d31762d316c352d3220332d3220332d33682d326c2d313220374833306c3820317632682d336c2d32203176366833762d325a6d362034762d31682d3276326832762d315a6d36203120322d3120332d3220332d31762d326c2d3220312d3120312d38203668326c312d325a6d333820354836306c2d3220322d3320324831366c2d332d322d332d31762d346c322d32762d316c2d312d3220342d3320332d32762d336c352d342d312d342d312d332d342d34762d336c312d3320342d3320352d3368326c352d356833366c3220322033203268366c3220312033203176366c2d3120312d3220312d322033203220322031203276326c3520332d3120332d34203676336c32203376375a22207374796c653d2266696c6c3aa2646970667358221220c1359bb8f8aa7de5a7f0ea4db85c812c0ff0822be301e1413e58b19aa77bf9b964736f6c634300081c0033",
  "linkReferences": {},
  "deployedLinkReferences": {}
}