{
  "_format": "hh-sol-artifact-1",
  "contractName": "ShipAttributes",
  "sourceName": "contracts/ShipAttributes.sol",
  "abi": [
    {
      "inputs": [
        {
          "internalType": "address",
          "name": "_ships",
          "type": "address"
        }
      ],
      "stateMutability": "nonpayable",
      "type": "constructor"
    },
    {
      "inputs": [],
      "name": "InvalidAttributesVersion",
      "type": "error"
    },
    {
      "inputs": [
        {
          "internalType": "address",
          "name": "owner",
          "type": "address"
        }
      ],
      "name": "OwnableInvalidOwner",
      "type": "error"
    },
    {
      "inputs": [
        {
          "internalType": "address",
          "name": "account",
          "type": "address"
        }
      ],
      "name": "OwnableUnauthorizedAccount",
      "type": "error"
    },
    {
      "inputs": [],
      "name": "ShipNotFound",
      "type": "error"
    },
    {
      "anonymous": false,
      "inputs": [
        {
          "indexed": true,
          "internalType": "address",
          "name": "previousOwner",
          "type": "address"
        },
        {
          "indexed": true,
          "internalType": "address",
          "name": "newOwner",
          "type": "address"
        }
      ],
      "name": "OwnershipTransferred",
      "type": "event"
    },
    {
      "inputs": [
        {
          "internalType": "uint16",
          "name": "",
          "type": "uint16"
        }
      ],
      "name": "attributesVersions",
      "outputs": [
        {
          "internalType": "uint16",
          "name": "version",
          "type": "uint16"
        },
        {
          "internalType": "uint8",
          "name": "baseHull",
          "type": "uint8"
        },
        {
          "internalType": "uint8",
          "name": "baseSpeed",
          "type": "uint8"
        }
      ],
      "stateMutability": "view",
      "type": "function"
    },
    {
      "inputs": [
        {
          "components": [
            {
              "internalType": "string",
              "name": "name",
              "type": "string"
            },
            {
              "internalType": "uint256",
              "name": "id",
              "type": "uint256"
            },
            {
              "components": [
                {
                  "internalType": "enum MainWeapon",
                  "name": "mainWeapon",
                  "type": "uint8"
                },
                {
                  "internalType": "enum Armor",
                  "name": "armor",
                  "type": "uint8"
                },
                {
                  "internalType": "enum Shields",
                  "name": "shields",
                  "type": "uint8"
                },
                {
                  "internalType": "enum Special",
                  "name": "special",
                  "type": "uint8"
                }
              ],
              "internalType": "struct Equipment",
              "name": "equipment",
              "type": "tuple"
            },
            {
              "components": [
                {
                  "internalType": "uint256",
                  "name": "serialNumber",
                  "type": "uint256"
                },
                {
                  "components": [
                    {
                      "internalType": "uint16",
                      "name": "h1",
                      "type": "uint16"
                    },
                    {
                      "internalType": "uint8",
                      "name": "s1",
                      "type": "uint8"
                    },
                    {
                      "internalType": "uint8",
                      "name": "l1",
                      "type": "uint8"
                    },
                    {
                      "internalType": "uint16",
                      "name": "h2",
                      "type": "uint16"
                    },
                    {
                      "internalType": "uint8",
                      "name": "s2",
                      "type": "uint8"
                    },
                    {
                      "internalType": "uint8",
                      "name": "l2",
                      "type": "uint8"
                    }
                  ],
                  "internalType": "struct Colors",
                  "name": "colors",
                  "type": "tuple"
                },
                {
                  "internalType": "uint8",
                  "name": "variant",
                  "type": "uint8"
                },
                {
                  "internalType": "uint8",
                  "name": "accuracy",
                  "type": "uint8"
                },
                {
                  "internalType": "uint8",
                  "name": "hull",
                  "type": "uint8"
                },
                {
                  "internalType": "uint8",
                  "name": "speed",
                  "type": "uint8"
                }
              ],
              "internalType": "struct Traits",
              "name": "traits",
              "type": "tuple"
            },
            {
              "components": [
                {
                  "internalType": "uint32",
                  "name": "shipsDestroyed",
                  "type": "uint32"
                },
                {
                  "internalType": "uint16",
                  "name": "costsVersion",
                  "type": "uint16"
                },
                {
                  "internalType": "uint16",
                  "name": "cost",
                  "type": "uint16"
                },
                {
                  "internalType": "bool",
                  "name": "shiny",
                  "type": "bool"
                },
                {
                  "internalType": "bool",
                  "name": "constructed",
                  "type": "bool"
                },
                {
                  "internalType": "bool",
                  "name": "inFleet",
                  "type": "bool"
                },
                {
                  "internalType": "uint256",
                  "name": "timestampDestroyed",
                  "type": "uint256"
                }
              ],
              "internalType": "struct ShipData",
              "name": "shipData",
              "type": "tuple"
            },
            {
              "internalType": "address",
              "name": "owner",
              "type": "address"
            }
          ],
          "internalType": "struct Ship",
          "name": "_ship",
          "type": "tuple"
        }
      ],
      "name": "calculateShipAttributes",
      "outputs": [
        {
          "components": [
            {
              "internalType": "uint16",
              "name": "version",
              "type": "uint16"
            },
            {
              "internalType": "uint8",
              "name": "range",
              "type": "uint8"
            },
            {
              "internalType": "uint8",
              "name": "gunDamage",
              "type": "uint8"
            },
            {
              "internalType": "uint8",
              "name": "hullPoints",
              "type": "uint8"
            },
            {
              "internalType": "uint8",
              "name": "maxHullPoints",
              "type": "uint8"
            },
            {
              "internalType": "uint8",
              "name": "movement",
              "type": "uint8"
            },
            {
              "internalType": "uint8",
              "name": "damageReduction",
              "type": "uint8"
            },
            {
              "internalType": "uint8",
              "name": "reactorCriticalTimer",
              "type": "uint8"
            },
            {
              "internalType": "uint8[]",
              "name": "statusEffects",
              "type": "uint8[]"
            }
          ],
          "internalType": "struct Attributes",
          "name": "",
          "type": "tuple"
        }
      ],
      "stateMutability": "view",
      "type": "function"
    },
    {
      "inputs": [
        {
          "internalType": "uint256",
          "name": "_shipId",
          "type": "uint256"
        }
      ],
      "name": "calculateShipAttributesById",
      "outputs": [
        {
          "components": [
            {
              "internalType": "uint16",
              "name": "version",
              "type": "uint16"
            },
            {
              "internalType": "uint8",
              "name": "range",
              "type": "uint8"
            },
            {
              "internalType": "uint8",
              "name": "gunDamage",
              "type": "uint8"
            },
            {
              "internalType": "uint8",
              "name": "hullPoints",
              "type": "uint8"
            },
            {
              "internalType": "uint8",
              "name": "maxHullPoints",
              "type": "uint8"
            },
            {
              "internalType": "uint8",
              "name": "movement",
              "type": "uint8"
            },
            {
              "internalType": "uint8",
              "name": "damageReduction",
              "type": "uint8"
            },
            {
              "internalType": "uint8",
              "name": "reactorCriticalTimer",
              "type": "uint8"
            },
            {
              "internalType": "uint8[]",
              "name": "statusEffects",
              "type": "uint8[]"
            }
          ],
          "internalType": "struct Attributes",
          "name": "",
          "type": "tuple"
        }
      ],
      "stateMutability": "view",
      "type": "function"
    },
    {
      "inputs": [
        {
          "internalType": "uint256",
          "name": "num",
          "type": "uint256"
        }
      ],
      "name": "countDigits",
      "outputs": [
        {
          "internalType": "uint256",
          "name": "",
          "type": "uint256"
        }
      ],
      "stateMutability": "pure",
      "type": "function"
    },
    {
      "inputs": [],
      "name": "currentAttributesVersion",
      "outputs": [
        {
          "internalType": "uint16",
          "name": "",
          "type": "uint16"
        }
      ],
      "stateMutability": "view",
      "type": "function"
    },
    {
      "inputs": [
        {
          "internalType": "enum Armor",
          "name": "_armor",
          "type": "uint8"
        }
      ],
      "name": "getArmorData",
      "outputs": [
        {
          "components": [
            {
              "internalType": "uint8",
              "name": "damageReduction",
              "type": "uint8"
            },
            {
              "internalType": "int8",
              "name": "movement",
              "type": "int8"
            }
          ],
          "internalType": "struct ArmorData",
          "name": "",
          "type": "tuple"
        }
      ],
      "stateMutability": "view",
      "type": "function"
    },
    {
      "inputs": [
        {
          "internalType": "enum MainWeapon",
          "name": "_weapon",
          "type": "uint8"
        }
      ],
      "name": "getGunData",
      "outputs": [
        {
          "components": [
            {
              "internalType": "uint8",
              "name": "range",
              "type": "uint8"
            },
            {
              "internalType": "uint8",
              "name": "damage",
              "type": "uint8"
            },
            {
              "internalType": "int8",
              "name": "movement",
              "type": "int8"
            }
          ],
          "internalType": "struct GunData",
          "name": "",
          "type": "tuple"
        }
      ],
      "stateMutability": "view",
      "type": "function"
    },
    {
      "inputs": [
        {
          "internalType": "uint256",
          "name": "_shipsDestroyed",
          "type": "uint256"
        }
      ],
      "name": "getRank",
      "outputs": [
        {
          "internalType": "uint8",
          "name": "",
          "type": "uint8"
        }
      ],
      "stateMutability": "pure",
      "type": "function"
    },
    {
      "inputs": [
        {
          "internalType": "enum Shields",
          "name": "_shields",
          "type": "uint8"
        }
      ],
      "name": "getShieldData",
      "outputs": [
        {
          "components": [
            {
              "internalType": "uint8",
              "name": "damageReduction",
              "type": "uint8"
            },
            {
              "internalType": "int8",
              "name": "movement",
              "type": "int8"
            }
          ],
          "internalType": "struct ShieldData",
          "name": "",
          "type": "tuple"
        }
      ],
      "stateMutability": "view",
      "type": "function"
    },
    {
      "inputs": [
        {
          "internalType": "enum Special",
          "name": "_special",
          "type": "uint8"
        }
      ],
      "name": "getSpecialData",
      "outputs": [
        {
          "components": [
            {
              "internalType": "uint8",
              "name": "range",
              "type": "uint8"
            },
            {
              "internalType": "uint8",
              "name": "strength",
              "type": "uint8"
            },
            {
              "internalType": "int8",
              "name": "movement",
              "type": "int8"
            }
          ],
          "internalType": "struct SpecialData",
          "name": "",
          "type": "tuple"
        }
      ],
      "stateMutability": "view",
      "type": "function"
    },
    {
      "inputs": [
        {
          "internalType": "enum Special",
          "name": "_special",
          "type": "uint8"
        }
      ],
      "name": "getSpecialRange",
      "outputs": [
        {
          "internalType": "uint8",
          "name": "",
          "type": "uint8"
        }
      ],
      "stateMutability": "view",
      "type": "function"
    },
    {
      "inputs": [
        {
          "internalType": "enum Special",
          "name": "_special",
          "type": "uint8"
        }
      ],
      "name": "getSpecialStrength",
      "outputs": [
        {
          "internalType": "uint8",
          "name": "",
          "type": "uint8"
        }
      ],
      "stateMutability": "view",
      "type": "function"
    },
    {
      "inputs": [],
      "name": "owner",
      "outputs": [
        {
          "internalType": "address",
          "name": "",
          "type": "address"
        }
      ],
      "stateMutability": "view",
      "type": "function"
    },
    {
      "inputs": [],
      "name": "renounceOwnership",
      "outputs": [],
      "stateMutability": "nonpayable",
      "type": "function"
    },
    {
      "inputs": [
        {
          "internalType": "address",
          "name": "_ships",
          "type": "address"
        }
      ],
      "name": "setShipsAddress",
      "outputs": [],
      "stateMutability": "nonpayable",
      "type": "function"
    },
    {
      "inputs": [],
      "name": "ships",
      "outputs": [
        {
          "internalType": "contract IShips",
          "name": "",
          "type": "address"
        }
      ],
      "stateMutability": "view",
      "type": "function"
    },
    {
      "inputs": [
        {
          "internalType": "address",
          "name": "newOwner",
          "type": "address"
        }
      ],
      "name": "transferOwnership",
      "outputs": [],
      "stateMutability": "nonpayable",
      "type": "function"
    }
  ],
  "bytecode": "0x608060405234801561001057600080fd5b506040516124fe3803806124fe83398101604081905261002f91610d47565b338061005557604051631e4fbdf760e01b81526000600482015260240160405180910390fd5b61005e81610cf7565b5080600160006101000a8154816001600160a01b0302191690836001600160a01b031602179055506001600360006101000a81548161ffff021916908361ffff160217905550600060026000600161ffff168152602001908152602001600020905060018160000160006101000a81548161ffff021916908361ffff16021790555060648160000160026101000a81548160ff021916908360ff16021790555060058160000160036101000a81548160ff021916908360ff16021790555080600101600090806001815401808255809150506001900390600052602060002090602091828204019190069091909190916101000a81548160ff021916908360ff16021790555080600101607d90806001815401808255809150506001900390600052602060002090602091828204019190069091909190916101000a81548160ff021916908360ff16021790555080600101609690806001815401808255809150506001900390600052602060002090602091828204019190069091909190916101000a81548160ff021916908360ff16021790555080600201600090806001815401808255809150506001900390600052602060002090602091828204019190069091909190916101000a81548160ff021916908360ff16021790555080600201600290806001815401808255809150506001900390600052602060002090602091828204019190069091909190916101000a81548160ff021916908360ff16021790555080600201600590806001815401808255809150506001900390600052602060002090602091828204019190069091909190916101000a81548160ff021916908360ff160217905550806003016040518060600160405280600a60ff168152602001600f60ff1681526020016000800b8152509080600181540180825580915050600190039060005260206000200160009091909190915060008201518160000160006101000a81548160ff021916908360ff16021790555060208201518160000160016101000a81548160ff021916908360ff16021790555060408201518160000160026101000a81548160ff021916908360000b60ff1602179055505050806003016040518060600160405280603260ff168152602001600a60ff1681526020016000800b8152509080600181540180825580915050600190039060005260206000200160009091909190915060008201518160000160006101000a81548160ff021916908360ff16021790555060208201518160000160016101000a81548160ff021916908360ff16021790555060408201518160000160026101000a81548160ff021916908360000b60ff1602179055505050806003016040518060600160405280602860ff168152602001600f60ff16815260200160001960000b8152509080600181540180825580915050600190039060005260206000200160009091909190915060008201518160000160006101000a81548160ff021916908360ff16021790555060208201518160000160016101000a81548160ff021916908360ff16021790555060408201518160000160026101000a81548160ff021916908360000b60ff1602179055505050806003016040518060600160405280600460ff168152602001601960ff1681526020016000800b8152509080600181540180825580915050600190039060005260206000200160009091909190915060008201518160000160006101000a81548160ff021916908360ff16021790555060208201518160000160016101000a81548160ff021916908360ff16021790555060408201518160000160026101000a81548160ff021916908360000b60ff1602179055505050806004016040518060400160405280600060ff1681526020016000800b8152509080600181540180825580915050600190039060005260206000200160009091909190915060008201518160000160006101000a81548160ff021916908360ff16021790555060208201518160000160016101000a81548160ff021916908360000b60ff1602179055505050806004016040518060400160405280600a60ff16815260200160001960000b8152509080600181540180825580915050600190039060005260206000200160009091909190915060008201518160000160006101000a81548160ff021916908360ff16021790555060208201518160000160016101000a81548160ff021916908360000b60ff1602179055505050806004016040518060400160405280601460ff16815260200160011960000b8152509080600181540180825580915050600190039060005260206000200160009091909190915060008201518160000160006101000a81548160ff021916908360ff16021790555060208201518160000160016101000a81548160ff021916908360000b60ff1602179055505050806004016040518060400160405280601e60ff16815260200160021960000b8152509080600181540180825580915050600190039060005260206000200160009091909190915060008201518160000160006101000a81548160ff021916908360ff16021790555060208201518160000160016101000a81548160ff021916908360000b60ff1602179055505050806005016040518060400160405280600060ff1681526020016000800b8152509080600181540180825580915050600190039060005260206000200160009091909190915060008201518160000160006101000a81548160ff021916908360ff16021790555060208201518160000160016101000a81548160ff021916908360000b60ff1602179055505050806005016040518060400160405280600a60ff1681526020016000800b8152509080600181540180825580915050600190039060005260206000200160009091909190915060008201518160000160006101000a81548160ff021916908360ff16021790555060208201518160000160016101000a81548160ff021916908360000b60ff1602179055505050806005016040518060400160405280601460ff16815260200160001960000b8152509080600181540180825580915050600190039060005260206000200160009091909190915060008201518160000160006101000a81548160ff021916908360ff16021790555060208201518160000160016101000a81548160ff021916908360000b60ff1602179055505050806005016040518060400160405280601e60ff16815260200160011960000b8152509080600181540180825580915050600190039060005260206000200160009091909190915060008201518160000160006101000a81548160ff021916908360ff16021790555060208201518160000160016101000a81548160ff021916908360000b60ff1602179055505050806006016040518060600160405280600060ff168152602001600060ff1681526020016000800b8152509080600181540180825580915050600190039060005260206000200160009091909190915060008201518160000160006101000a81548160ff021916908360ff16021790555060208201518160000160016101000a81548160ff021916908360ff16021790555060408201518160000160026101000a81548160ff021916908360000b60ff1602179055505050806006016040518060600160405280600160ff168152602001600160ff1681526020016000800b8152509080600181540180825580915050600190039060005260206000200160009091909190915060008201518160000160006101000a81548160ff021916908360ff16021790555060208201518160000160016101000a81548160ff021916908360ff16021790555060408201518160000160026101000a81548160ff021916908360000b60ff1602179055505050806006016040518060600160405280600360ff168152602001601960ff1681526020016000800b8152509080600181540180825580915050600190039060005260206000200160009091909190915060008201518160000160006101000a81548160ff021916908360ff16021790555060208201518160000160016101000a81548160ff021916908360ff16021790555060408201518160000160026101000a81548160ff021916908360000b60ff1602179055505050806006016040518060600160405280600560ff168152602001600560ff1681526020016000800b8152509080600181540180825580915050600190039060005260206000200160009091909190915060008201518160000160006101000a81548160ff021916908360ff16021790555060208201518160000160016101000a81548160ff021916908360ff16021790555060408201518160000160026101000a81548160ff021916908360000b60ff16021790555050505050610d77565b600080546001600160a01b038381166001600160a01b0319831681178455604051919092169283917f8be0079c531659141344cd1fd0a4f28419497f9722a3daafe3b4186f6b6457e09190a35050565b600060208284031215610d5957600080fd5b81516001600160a01b0381168114610d7057600080fd5b9392505050565b61177880610d866000396000f3fe608060405234801561001057600080fd5b506004361061010b5760003560e01c8063a918e521116100a2578063d5d233f811610071578063d5d233f8146102a1578063e197c627146102b4578063e7fae625146102c7578063f2fde38b146102da578063fe367db3146102ed57600080fd5b8063a918e5211461023b578063bbf8218a1461025b578063c5b64b7a1461026e578063ceb3a6121461028e57600080fd5b80638da5cb5b116100de5780638da5cb5b146101c15780638e1b4a83146101e65780639636c76214610207578063a5099bae1461022857600080fd5b80630f0bba0014610110578063670fa22e14610172578063715018a6146101975780637e0b245f146101a1575b600080fd5b61014961011e366004610d51565b60026020526000908152604090205461ffff81169060ff620100008204811691630100000090041683565b6040805161ffff909416845260ff92831660208501529116908201526060015b60405180910390f35b610185610180366004610d7b565b610300565b60405160ff9091168152602001610169565b61019f61035c565b005b6101b46101af366004610d7b565b610370565b6040516101699190610d98565b6000546001600160a01b03165b6040516001600160a01b039091168152602001610169565b6003546101f49061ffff1681565b60405161ffff9091168152602001610169565b61021a610215366004610db5565b6103f4565b604051908152602001610169565b610185610236366004610db5565b610435565b61024e610249366004610d7b565b610440565b6040516101699190610dce565b6001546101ce906001600160a01b031681565b61028161027c366004611140565b6104db565b6040516101699190611283565b61018561029c366004610d7b565b6107c8565b61019f6102af366004611325565b61081f565b6102816102c2366004610db5565b610849565b61024e6102d5366004610d7b565b6108fa565b61019f6102e8366004611325565b610942565b6101b46102fb366004610d7b565b610985565b6003805461ffff1660009081526002602052604081209091600690910190839081111561032f5761032f611342565b60ff168154811061034257610342611358565b600091825260209091200154610100900460ff1692915050565b6103646109c4565b61036e60006109f1565b565b60408051808201909152600080825260208201526003805461ffff1660009081526002602052604090206004019083908111156103af576103af611342565b60ff16815481106103c2576103c2611358565b600091825260208083206040805180820190915292015460ff81168352610100900490920b9181019190915292915050565b60008160000361040657506001919050565b60005b821561042f578061041981611384565b91506104289050600a8461139d565b9250610409565b92915050565b600061042f826103f4565b60408051606081018252600080825260208201819052918101919091526003805461ffff166000908152600260205260409020810190839081111561048757610487611342565b60ff168154811061049a5761049a611358565b6000918252602080832060408051606081018252919093015460ff8082168352610100820416928201929092526201000090910490920b9082015292915050565b6104e3610cf3565b8160200151600003610508576040516303c113ad60e61b815260040160405180910390fd5b600061052183608001516000015163ffffffff16610435565b905060008160ff1660010361053857506000610593565b8160ff1660020361054b5750600a610593565b8160ff1660030361055e57506014610593565b8160ff166004036105715750601e610593565b8160ff1660050361058457506028610593565b60068260ff1610610593575060325b61059b610cf3565b6003805461ffff16808352600090815260026020526040908190209087015151908201918111156105ce576105ce611342565b60ff16815481106105e1576105e1611358565b600091825260208083209091015460ff908116918401829052606491610609918616906113bf565b610613919061139d565b9050808260200181815161062791906113d6565b60ff169052506003805461ffff166000908152600260205260409081902090880151519082019181111561065d5761065d611342565b60ff168154811061067057610670611358565b60009182526020909120015460ff61010090910481166040840181905260649161069d91908616906113bf565b6106a7919061139d565b905080826040018181516106bb91906113d6565b60ff169052506106ca86610a41565b60ff908116606084018190526064916106e691908616906113bf565b6106f0919061139d565b9050808260600181815161070491906113d6565b60ff90811690915260608401511660808401525061072186610a8e565b60ff90811660a0840181905260649161073d91908616906113bf565b610747919061139d565b9050808260a00181815161075b91906113d6565b60ff1690525061076a86610c37565b60ff90811660c0840181905260649161078691908616906113bf565b610790919061139d565b9050808260c0018181516107a491906113d6565b60ff1690525050604080516000815260208101909152610100820152949350505050565b6003805461ffff166000908152600260205260408120909160069091019083908111156107f7576107f7611342565b60ff168154811061080a5761080a611358565b60009182526020909120015460ff1692915050565b6108276109c4565b600180546001600160a01b0319166001600160a01b0392909216919091179055565b610851610cf3565b600154604051634025b22d60e01b8152600481018490526000916001600160a01b031690634025b22d90602401600060405180830381865afa15801561089b573d6000803e3d6000fd5b505050506040513d6000823e601f3d908101601f191682016040526108c391908101906115f6565b905080602001516000036108ea576040516303c113ad60e61b815260040160405180910390fd5b6108f3816104db565b9392505050565b60408051606081018252600080825260208201819052918101919091526003805461ffff16600090815260026020526040902060060190839081111561048757610487611342565b61094a6109c4565b6001600160a01b03811661097957604051631e4fbdf760e01b8152600060048201526024015b60405180910390fd5b610982816109f1565b50565b60408051808201909152600080825260208201526003805461ffff1660009081526002602052604090206005019083908111156103af576103af611342565b6000546001600160a01b0316331461036e5760405163118cdaa760e01b8152336004820152602401610970565b600080546001600160a01b038381166001600160a01b0319831681178455604051919092169283917f8be0079c531659141344cd1fd0a4f28419497f9722a3daafe3b4186f6b6457e09190a35050565b60035461ffff16600090815260026020526040812080546060840151608001516201000090910460ff16908390610a7990600a6116fe565b9050610a8581836113d6565b95945050505050565b60035461ffff1660009081526002602052604081208054606084015160a00151630100000090910460ff1690610ac49082611721565b90506000826003018560400151600001516003811115610ae657610ae6611342565b60ff1681548110610af957610af9611358565b9060005260206000200160000160029054906101000a900460000b90506000836004018660400151602001516003811115610b3657610b36611342565b60ff1681548110610b4957610b49611358565b60009182526020822001546040808901510151610100909104820b925060058601906003811115610b7c57610b7c611342565b60ff1681548110610b8f57610b8f611358565b6000918252602082200154604089015160600151610100909104820b925060068701906003811115610bc357610bc3611342565b60ff1681548110610bd657610bd6611358565b6000918252602082200154620100009004900b90508082610bf78587611721565b610c019190611721565b610c0b9190611721565b610c159086611721565b945060008560000b13610c29576000610c2b565b845b98975050505050505050565b6003805461ffff1660009081526002602090815260408083209085015190910151919290918391600484019190811115610c7357610c73611342565b60ff1681548110610c8657610c86611358565b600091825260209091200154610c9f9060ff16826113d6565b9050816005018460400151604001516003811115610cbf57610cbf611342565b60ff1681548110610cd257610cd2611358565b600091825260209091200154610ceb9060ff16826113d6565b949350505050565b604080516101208101825260008082526020820181905291810182905260608082018390526080820183905260a0820183905260c0820183905260e082019290925261010081019190915290565b61ffff8116811461098257600080fd5b600060208284031215610d6357600080fd5b81356108f381610d41565b6004811061098257600080fd5b600060208284031215610d8d57600080fd5b81356108f381610d6e565b815160ff16815260208083015160000b908201526040810161042f565b600060208284031215610dc757600080fd5b5035919050565b6060810161042f828460ff815116825260ff6020820151166020830152604081015160000b60408301525050565b634e487b7160e01b600052604160045260246000fd5b6040516080810167ffffffffffffffff81118282101715610e3557610e35610dfc565b60405290565b60405160c0810167ffffffffffffffff81118282101715610e3557610e35610dfc565b60405160e0810167ffffffffffffffff81118282101715610e3557610e35610dfc565b604051601f8201601f1916810167ffffffffffffffff81118282101715610eaa57610eaa610dfc565b604052919050565b600067ffffffffffffffff821115610ecc57610ecc610dfc565b50601f01601f191660200190565b600060808284031215610eec57600080fd5b610ef4610e12565b90508135610f0181610d6e565b81526020820135610f1181610d6e565b60208201526040820135610f2481610d6e565b60408201526060820135610f3781610d6e565b606082015292915050565b60ff8116811461098257600080fd5b8035610f5c81610f42565b919050565b6000818303610160811215610f7557600080fd5b610f7d610e3b565b83358152915060c0601f1982011215610f9557600080fd5b50610f9e610e3b565b6020830135610fac81610d41565b81526040830135610fbc81610f42565b60208201526060830135610fcf81610f42565b60408201526080830135610fe281610d41565b606082015260a0830135610ff581610f42565b608082015260c083013561100881610f42565b60a0820152602082015261101e60e08301610f51565b60408201526110306101008301610f51565b60608201526110426101208301610f51565b60808201526110546101408301610f51565b60a082015292915050565b63ffffffff8116811461098257600080fd5b801515811461098257600080fd5b8035610f5c81611071565b600060e0828403121561109c57600080fd5b6110a4610e5e565b905081356110b18161105f565b815260208201356110c181610d41565b602082015260408201356110d481610d41565b604082015260608201356110e781611071565b60608201526110f86080830161107f565b608082015261110960a0830161107f565b60a082015260c09182013591810191909152919050565b6001600160a01b038116811461098257600080fd5b8035610f5c81611120565b60006020828403121561115257600080fd5b813567ffffffffffffffff81111561116957600080fd5b8201610320818503121561117c57600080fd5b611184610e3b565b813567ffffffffffffffff81111561119b57600080fd5b8201601f810186136111ac57600080fd5b80356111bf6111ba82610eb2565b610e81565b8181528760208385010111156111d457600080fd5b816020840160208301376000602092820183015283528381013590830152506112008560408401610eda565b60408201526112128560c08401610f61565b606082015261122585610220840161108a565b60808201526112376103008301611135565b60a0820152949350505050565b600081518084526020840193506020830160005b8281101561127957815160ff16865260209586019590910190600101611258565b5093949350505050565b6020815261129860208201835161ffff169052565b600060208301516112ae604084018260ff169052565b50604083015160ff8116606084015250606083015160ff8116608084015250608083015160ff811660a08401525060a083015160ff811660c08401525060c083015160ff811660e08401525060e083015160ff81166101008401525061010083015161012080840152610ceb610140840182611244565b60006020828403121561133757600080fd5b81356108f381611120565b634e487b7160e01b600052602160045260246000fd5b634e487b7160e01b600052603260045260246000fd5b634e487b7160e01b600052601160045260246000fd5b6000600182016113965761139661136e565b5060010190565b6000826113ba57634e487b7160e01b600052601260045260246000fd5b500490565b808202811582820484141761042f5761042f61136e565b60ff818116838216019081111561042f5761042f61136e565b60006080828403121561140157600080fd5b611409610e12565b9050815161141681610d6e565b8152602082015161142681610d6e565b6020820152604082015161143981610d6e565b60408201526060820151610f3781610d6e565b8051610f5c81610f42565b600081830361016081121561146b57600080fd5b611473610e3b565b83518152915060c0601f198201121561148b57600080fd5b50611494610e3b565b60208301516114a281610d41565b815260408301516114b281610f42565b602082015260608301516114c581610f42565b604082015260808301516114d881610d41565b606082015260a08301516114eb81610f42565b608082015260c08301516114fe81610f42565b60a0820152602082015261151460e0830161144c565b6040820152611526610100830161144c565b6060820152611538610120830161144c565b6080820152611054610140830161144c565b8051610f5c81611071565b600060e0828403121561156757600080fd5b61156f610e5e565b9050815161157c8161105f565b8152602082015161158c81610d41565b6020820152604082015161159f81610d41565b604082015260608201516115b281611071565b60608201526115c36080830161154a565b60808201526115d460a0830161154a565b60a082015260c09182015191810191909152919050565b8051610f5c81611120565b60006020828403121561160857600080fd5b815167ffffffffffffffff81111561161f57600080fd5b8201610320818503121561163257600080fd5b61163a610e3b565b815167ffffffffffffffff81111561165157600080fd5b8201601f8101861361166257600080fd5b80516116706111ba82610eb2565b81815287602083850101111561168557600080fd5b60005b828110156116a457602081850181015183830182015201611688565b506000602092820183015283528381015190830152506116c785604084016113ef565b60408201526116d98560c08401611457565b60608201526116ec856102208401611555565b608082015261123761030083016115eb565b60ff818116838216029081169081811461171a5761171a61136e565b5092915050565b600081810b9083900b01607f8113607f198212171561042f5761042f61136e56fea264697066735822122044a893a0da00ae37b0616761c07d403575d0f93d2b0fec310c4155ebfa9008a364736f6c634300081c0033",
  "linkReferences": {},
  "deployedLinkReferences": {}
}