{
  "_format": "hh-sol-artifact-1",
  "contractName": "GameResults",
  "sourceName": "contracts/GameResults.sol",
  "abi": [
    {
      "inputs": [],
      "stateMutability": "nonpayable",
      "type": "constructor"
    },
    {
      "inputs": [],
      "name": "GameAlreadyRecorded",
      "type": "error"
    },
    {
      "inputs": [],
      "name": "GameNotFound",
      "type": "error"
    },
    {
      "inputs": [],
      "name": "InvalidGameResult",
      "type": "error"
    },
    {
      "inputs": [],
      "name": "NotGameContract",
      "type": "error"
    },
    {
      "inputs": [],
      "name": "NotTutorialClaimContract",
      "type": "error"
    },
    {
      "inputs": [
        {
          "internalType": "address",
          "name": "owner",
          "type": "address"
        }
      ],
      "name": "OwnableInvalidOwner",
      "type": "error"
    },
    {
      "inputs": [
        {
          "internalType": "address",
          "name": "account",
          "type": "address"
        }
      ],
      "name": "OwnableUnauthorizedAccount",
      "type": "error"
    },
    {
      "anonymous": false,
      "inputs": [
        {
          "indexed": true,
          "internalType": "address",
          "name": "gameContract",
          "type": "address"
        }
      ],
      "name": "GameContractSet",
      "type": "event"
    },
    {
      "anonymous": false,
      "inputs": [
        {
          "indexed": true,
          "internalType": "uint256",
          "name": "gameId",
          "type": "uint256"
        },
        {
          "indexed": true,
          "internalType": "address",
          "name": "winner",
          "type": "address"
        },
        {
          "indexed": true,
          "internalType": "address",
          "name": "loser",
          "type": "address"
        },
        {
          "indexed": false,
          "internalType": "uint256",
          "name": "timestamp",
          "type": "uint256"
        }
      ],
      "name": "GameResultRecorded",
      "type": "event"
    },
    {
      "anonymous": false,
      "inputs": [
        {
          "indexed": true,
          "internalType": "address",
          "name": "previousOwner",
          "type": "address"
        },
        {
          "indexed": true,
          "internalType": "address",
          "name": "newOwner",
          "type": "address"
        }
      ],
      "name": "OwnershipTransferred",
      "type": "event"
    },
    {
      "anonymous": false,
      "inputs": [
        {
          "indexed": true,
          "internalType": "address",
          "name": "player",
          "type": "address"
        },
        {
          "indexed": false,
          "internalType": "uint256",
          "name": "wins",
          "type": "uint256"
        },
        {
          "indexed": false,
          "internalType": "uint256",
          "name": "losses",
          "type": "uint256"
        },
        {
          "indexed": false,
          "internalType": "uint256",
          "name": "totalGames",
          "type": "uint256"
        }
      ],
      "name": "PlayerStatsUpdated",
      "type": "event"
    },
    {
      "anonymous": false,
      "inputs": [
        {
          "indexed": true,
          "internalType": "address",
          "name": "tutorialClaimContract",
          "type": "address"
        }
      ],
      "name": "TutorialClaimContractSet",
      "type": "event"
    },
    {
      "inputs": [
        {
          "internalType": "address",
          "name": "_player",
          "type": "address"
        }
      ],
      "name": "addLoss",
      "outputs": [],
      "stateMutability": "nonpayable",
      "type": "function"
    },
    {
      "inputs": [
        {
          "internalType": "address",
          "name": "_player",
          "type": "address"
        }
      ],
      "name": "addWin",
      "outputs": [],
      "stateMutability": "nonpayable",
      "type": "function"
    },
    {
      "inputs": [],
      "name": "gameContract",
      "outputs": [
        {
          "internalType": "address",
          "name": "",
          "type": "address"
        }
      ],
      "stateMutability": "view",
      "type": "function"
    },
    {
      "inputs": [
        {
          "internalType": "uint256",
          "name": "",
          "type": "uint256"
        }
      ],
      "name": "gameResults",
      "outputs": [
        {
          "internalType": "uint256",
          "name": "gameId",
          "type": "uint256"
        },
        {
          "internalType": "address",
          "name": "winner",
          "type": "address"
        },
        {
          "internalType": "address",
          "name": "loser",
          "type": "address"
        },
        {
          "internalType": "uint256",
          "name": "timestamp",
          "type": "uint256"
        }
      ],
      "stateMutability": "view",
      "type": "function"
    },
    {
      "inputs": [
        {
          "internalType": "uint256",
          "name": "_gameId",
          "type": "uint256"
        }
      ],
      "name": "getGameResult",
      "outputs": [
        {
          "components": [
            {
              "internalType": "uint256",
              "name": "gameId",
              "type": "uint256"
            },
            {
              "internalType": "address",
              "name": "winner",
              "type": "address"
            },
            {
              "internalType": "address",
              "name": "loser",
              "type": "address"
            },
            {
              "internalType": "uint256",
              "name": "timestamp",
              "type": "uint256"
            }
          ],
          "internalType": "struct GameResult",
          "name": "",
          "type": "tuple"
        }
      ],
      "stateMutability": "view",
      "type": "function"
    },
    {
      "inputs": [
        {
          "internalType": "address",
          "name": "_player",
          "type": "address"
        }
      ],
      "name": "getPlayerStats",
      "outputs": [
        {
          "components": [
            {
              "internalType": "uint256",
              "name": "wins",
              "type": "uint256"
            },
            {
              "internalType": "uint256",
              "name": "losses",
              "type": "uint256"
            },
            {
              "internalType": "uint256",
              "name": "totalGames",
              "type": "uint256"
            }
          ],
          "internalType": "struct PlayerStats",
          "name": "",
          "type": "tuple"
        }
      ],
      "stateMutability": "view",
      "type": "function"
    },
    {
      "inputs": [
        {
          "internalType": "address",
          "name": "_player",
          "type": "address"
        }
      ],
      "name": "getPlayerTotalGames",
      "outputs": [
        {
          "internalType": "uint256",
          "name": "",
          "type": "uint256"
        }
      ],
      "stateMutability": "view",
      "type": "function"
    },
    {
      "inputs": [
        {
          "internalType": "address",
          "name": "_player",
          "type": "address"
        }
      ],
      "name": "getPlayerWinRate",
      "outputs": [
        {
          "internalType": "uint256",
          "name": "",
          "type": "uint256"
        }
      ],
      "stateMutability": "view",
      "type": "function"
    },
    {
      "inputs": [
        {
          "internalType": "uint256",
          "name": "_limit",
          "type": "uint256"
        }
      ],
      "name": "getTopPlayersByWins",
      "outputs": [
        {
          "internalType": "address[]",
          "name": "",
          "type": "address[]"
        }
      ],
      "stateMutability": "view",
      "type": "function"
    },
    {
      "inputs": [
        {
          "internalType": "uint256",
          "name": "_gameId",
          "type": "uint256"
        }
      ],
      "name": "isGameResultRecorded",
      "outputs": [
        {
          "internalType": "bool",
          "name": "",
          "type": "bool"
        }
      ],
      "stateMutability": "view",
      "type": "function"
    },
    {
      "inputs": [],
      "name": "owner",
      "outputs": [
        {
          "internalType": "address",
          "name": "",
          "type": "address"
        }
      ],
      "stateMutability": "view",
      "type": "function"
    },
    {
      "inputs": [
        {
          "internalType": "address",
          "name": "",
          "type": "address"
        }
      ],
      "name": "playerStats",
      "outputs": [
        {
          "internalType": "uint256",
          "name": "wins",
          "type": "uint256"
        },
        {
          "internalType": "uint256",
          "name": "losses",
          "type": "uint256"
        },
        {
          "internalType": "uint256",
          "name": "totalGames",
          "type": "uint256"
        }
      ],
      "stateMutability": "view",
      "type": "function"
    },
    {
      "inputs": [
        {
          "internalType": "uint256",
          "name": "_gameId",
          "type": "uint256"
        },
        {
          "internalType": "address",
          "name": "_winner",
          "type": "address"
        },
        {
          "internalType": "address",
          "name": "_loser",
          "type": "address"
        }
      ],
      "name": "recordGameResult",
      "outputs": [],
      "stateMutability": "nonpayable",
      "type": "function"
    },
    {
      "inputs": [],
      "name": "renounceOwnership",
      "outputs": [],
      "stateMutability": "nonpayable",
      "type": "function"
    },
    {
      "inputs": [
        {
          "internalType": "address",
          "name": "_gameContract",
          "type": "address"
        }
      ],
      "name": "setGameContract",
      "outputs": [],
      "stateMutability": "nonpayable",
      "type": "function"
    },
    {
      "inputs": [
        {
          "internalType": "address",
          "name": "_tutorialClaimContract",
          "type": "address"
        }
      ],
      "name": "setTutorialClaimContract",
      "outputs": [],
      "stateMutability": "nonpayable",
      "type": "function"
    },
    {
      "inputs": [],
      "name": "totalGamesTracked",
      "outputs": [
        {
          "internalType": "uint256",
          "name": "",
          "type": "uint256"
        }
      ],
      "stateMutability": "view",
      "type": "function"
    },
    {
      "inputs": [
        {
          "internalType": "address",
          "name": "newOwner",
          "type": "address"
        }
      ],
      "name": "transferOwnership",
      "outputs": [],
      "stateMutability": "nonpayable",
      "type": "function"
    },
    {
      "inputs": [],
      "name": "tutorialClaimContract",
      "outputs": [
        {
          "internalType": "address",
          "name": "",
          "type": "address"
        }
      ],
      "stateMutability": "view",
      "type": "function"
    }
  ],
  "bytecode": "0x6080604052348015600f57600080fd5b503380603557604051631e4fbdf760e01b81526000600482015260240160405180910390fd5b603c816041565b506091565b600080546001600160a01b038381166001600160a01b0319831681178455604051919092169283917f8be0079c531659141344cd1fd0a4f28419497f9722a3daafe3b4186f6b6457e09190a35050565b610b7b806100a06000396000f3fe608060405234801561001057600080fd5b50600436106101215760003560e01c80638da5cb5b116100ad578063d927a7c611610071578063d927a7c6146102ed578063ea7459f214610300578063ed2df26d14610313578063f2fde38b14610367578063fdba1b7c1461037a57600080fd5b80638da5cb5b14610246578063c44d70981461026b578063cdafbbb61461027e578063d3f33009146102c7578063d6c6eb9f146102da57600080fd5b80634fd66eae116100f45780634fd66eae146101a05780635c13e57a146101d557806367249716146101de5780636c644ee81461020c578063715018a61461023e57600080fd5b806307f9089c14610126578063344923911461013b578063405ebd4d1461014e5780634244d10f14610161575b600080fd5b610139610134366004610a21565b6103ed565b005b610139610149366004610a21565b61044d565b61013961015c366004610a21565b6104aa565b61018d61016f366004610a21565b6001600160a01b031660009081526001602052604090206002015490565b6040519081526020015b60405180910390f35b6101b36101ae366004610a21565b6104fc565b6040805182518152602080840151908201529181015190820152606001610197565b61018d60035481565b6101ff6101ec366004610a3c565b5060408051600081526020810190915290565b6040516101979190610a55565b61022e61021a366004610a3c565b600090815260026020526040902054151590565b6040519015158152602001610197565b610139610561565b6000546001600160a01b03165b6040516001600160a01b039091168152602001610197565b610139610279366004610a21565b610575565b6102ac61028c366004610a21565b600160208190526000918252604090912080549181015460029091015483565b60408051938452602084019290925290820152606001610197565b600454610253906001600160a01b031681565b6101396102e8366004610aa1565b6105c7565b600554610253906001600160a01b031681565b61018d61030e366004610a21565b610782565b610326610321366004610a3c565b6107f2565b60408051825181526020808401516001600160a01b039081169183019190915283830151169181019190915260609182015191810191909152608001610197565b610139610375366004610a21565b610887565b6103bd610388366004610a3c565b6002602081905260009182526040909120805460018201549282015460039092015490926001600160a01b0390811692169084565b60405161019794939291909384526001600160a01b03928316602085015291166040830152606082015260800190565b6005546001600160a01b031633146104185760405163976a435160e01b815260040160405180910390fd5b6001600160a01b03811661043f57604051636f756dcf60e01b815260040160405180910390fd5b61044a8160016108c7565b50565b6005546001600160a01b031633146104785760405163976a435160e01b815260040160405180910390fd5b6001600160a01b03811661049f57604051636f756dcf60e01b815260040160405180910390fd5b61044a8160006108c7565b6104b2610988565b600480546001600160a01b0319166001600160a01b0383169081179091556040517f0fda64424e106ff66a5173d9c3ec7fb2f234f4488457686975a66fe3371fd0f290600090a250565b61052060405180606001604052806000815260200160008152602001600081525090565b506001600160a01b03166000908152600160208181526040928390208351606081018552815481529281015491830191909152600201549181019190915290565b610569610988565b61057360006109b5565b565b61057d610988565b600580546001600160a01b0319166001600160a01b0383169081179091556040517fe1ddd0ea7b5d69ae9123e132f09d3110730b8ac8466d62ba85e0196ffac975a890600090a250565b6004546001600160a01b031633146105f257604051636aff438160e11b815260040160405180910390fd5b6001600160a01b038216158061060f57506001600160a01b038116155b1561062d57604051636f756dcf60e01b815260040160405180910390fd5b806001600160a01b0316826001600160a01b03160361065f57604051636f756dcf60e01b815260040160405180910390fd5b6000838152600260205260409020541561068c576040516365b054cf60e11b815260040160405180910390fd5b604080516080810182528481526001600160a01b038085166020808401918252858316848601908152426060860190815260008a815260029384905296909620945185559151600180860180549286166001600160a01b03199384161790559251918501805492909416911617909155915160039091015561070f9083906108c7565b61071a8160006108c7565b6003805490600061072a83610af3565b9190505550806001600160a01b0316826001600160a01b0316847f34852417629096e51d9324f8c0badde146751c8012495651872371eb6318204f4260405161077591815260200190565b60405180910390a4505050565b6001600160a01b0381166000908152600160208181526040808420815160608101835281548152938101549284019290925260029091015490820181905282036107cf5750600092915050565b604081015181516107e1906064610b0c565b6107eb9190610b23565b9392505050565b60408051608081018252600080825260208201819052918101829052606081019190915260008281526002602081815260408084208151608081018352815480825260018301546001600160a01b039081169583019590955294820154909316918301919091526003015460608201529103610881576040516309b3c62760e21b815260040160405180910390fd5b92915050565b61088f610988565b6001600160a01b0381166108be57604051631e4fbdf760e01b8152600060048201526024015b60405180910390fd5b61044a816109b5565b6001600160a01b038216600090815260016020526040902081156108fd5780548160006108f383610af3565b9190505550610915565b60018101805490600061090f83610af3565b91905055505b60028101805490600061092783610af3565b9091555050805460018201546002830154604080519384526020840192909252908201526001600160a01b038416907fa59fa8b79115e096a83695b3285fad27bd9f0565a3e52f114745d15c9c7e74869060600160405180910390a2505050565b6000546001600160a01b031633146105735760405163118cdaa760e01b81523360048201526024016108b5565b600080546001600160a01b038381166001600160a01b0319831681178455604051919092169283917f8be0079c531659141344cd1fd0a4f28419497f9722a3daafe3b4186f6b6457e09190a35050565b80356001600160a01b0381168114610a1c57600080fd5b919050565b600060208284031215610a3357600080fd5b6107eb82610a05565b600060208284031215610a4e57600080fd5b5035919050565b602080825282518282018190526000918401906040840190835b81811015610a965783516001600160a01b0316835260209384019390920191600101610a6f565b509095945050505050565b600080600060608486031215610ab657600080fd5b83359250610ac660208501610a05565b9150610ad460408501610a05565b90509250925092565b634e487b7160e01b600052601160045260246000fd5b600060018201610b0557610b05610add565b5060010190565b808202811582820484141761088157610881610add565b600082610b4057634e487b7160e01b600052601260045260246000fd5b50049056fea2646970667358221220d7fa00b3ce7ad7aa2143a476d68ed51ab45509ede0b15899f2aeb5a20510907f64736f6c634300081c0033",
  "linkReferences": {},
  "deployedLinkReferences": {}
}