{
  "_format": "hh-sol-artifact-1",
  "contractName": "RenderMetadata",
  "sourceName": "contracts/RenderMetadata.sol",
  "abi": [
    {
      "inputs": [
        {
          "internalType": "address",
          "name": "_imageRenderer",
          "type": "address"
        }
      ],
      "stateMutability": "nonpayable",
      "type": "constructor"
    },
    {
      "inputs": [],
      "name": "imageRenderer",
      "outputs": [
        {
          "internalType": "contract ImageRenderer",
          "name": "",
          "type": "address"
        }
      ],
      "stateMutability": "view",
      "type": "function"
    },
    {
      "inputs": [
        {
          "components": [
            {
              "internalType": "string",
              "name": "name",
              "type": "string"
            },
            {
              "internalType": "uint256",
              "name": "id",
              "type": "uint256"
            },
            {
              "components": [
                {
                  "internalType": "enum MainWeapon",
                  "name": "mainWeapon",
                  "type": "uint8"
                },
                {
                  "internalType": "enum Armor",
                  "name": "armor",
                  "type": "uint8"
                },
                {
                  "internalType": "enum Shields",
                  "name": "shields",
                  "type": "uint8"
                },
                {
                  "internalType": "enum Special",
                  "name": "special",
                  "type": "uint8"
                }
              ],
              "internalType": "struct Equipment",
              "name": "equipment",
              "type": "tuple"
            },
            {
              "components": [
                {
                  "internalType": "uint256",
                  "name": "serialNumber",
                  "type": "uint256"
                },
                {
                  "components": [
                    {
                      "internalType": "uint16",
                      "name": "h1",
                      "type": "uint16"
                    },
                    {
                      "internalType": "uint8",
                      "name": "s1",
                      "type": "uint8"
                    },
                    {
                      "internalType": "uint8",
                      "name": "l1",
                      "type": "uint8"
                    },
                    {
                      "internalType": "uint16",
                      "name": "h2",
                      "type": "uint16"
                    },
                    {
                      "internalType": "uint8",
                      "name": "s2",
                      "type": "uint8"
                    },
                    {
                      "internalType": "uint8",
                      "name": "l2",
                      "type": "uint8"
                    }
                  ],
                  "internalType": "struct Colors",
                  "name": "colors",
                  "type": "tuple"
                },
                {
                  "internalType": "uint8",
                  "name": "variant",
                  "type": "uint8"
                },
                {
                  "internalType": "uint8",
                  "name": "accuracy",
                  "type": "uint8"
                },
                {
                  "internalType": "uint8",
                  "name": "hull",
                  "type": "uint8"
                },
                {
                  "internalType": "uint8",
                  "name": "speed",
                  "type": "uint8"
                }
              ],
              "internalType": "struct Traits",
              "name": "traits",
              "type": "tuple"
            },
            {
              "components": [
                {
                  "internalType": "uint32",
                  "name": "shipsDestroyed",
                  "type": "uint32"
                },
                {
                  "internalType": "uint16",
                  "name": "costsVersion",
                  "type": "uint16"
                },
                {
                  "internalType": "uint16",
                  "name": "cost",
                  "type": "uint16"
                },
                {
                  "internalType": "bool",
                  "name": "shiny",
                  "type": "bool"
                },
                {
                  "internalType": "bool",
                  "name": "constructed",
                  "type": "bool"
                },
                {
                  "internalType": "bool",
                  "name": "inFleet",
                  "type": "bool"
                },
                {
                  "internalType": "uint256",
                  "name": "timestampDestroyed",
                  "type": "uint256"
                }
              ],
              "internalType": "struct ShipData",
              "name": "shipData",
              "type": "tuple"
            },
            {
              "internalType": "address",
              "name": "owner",
              "type": "address"
            }
          ],
          "internalType": "struct Ship",
          "name": "ship",
          "type": "tuple"
        }
      ],
      "name": "tokenURI",
      "outputs": [
        {
          "internalType": "string",
          "name": "",
          "type": "string"
        }
      ],
      "stateMutability": "view",
      "type": "function"
    }
  ],
  "bytecode": "0x60a0604052348015600f57600080fd5b50604051611924380380611924833981016040819052602c91603c565b6001600160a01b0316608052606a565b600060208284031215604d57600080fd5b81516001600160a01b0381168114606357600080fd5b9392505050565b60805161189961008b600039600081816069015261010301526118996000f3fe608060405234801561001057600080fd5b50600436106100365760003560e01c80635512ecf51461003b578063c550ca5d14610064575b600080fd5b61004e610049366004610dfe565b6100a3565b60405161005b9190610f52565b60405180910390f35b61008b7f000000000000000000000000000000000000000000000000000000000000000081565b6040516001600160a01b03909116815260200161005b565b606081602001516000036100e95760405162461bcd60e51b8152602060048201526009602482015268125b9d985b1a59125960ba1b604482015260640160405180910390fd5b604051631fcef1ef60e21b81526000906001600160a01b037f00000000000000000000000000000000000000000000000000000000000000001690637f3bc7bc9061013890869060040161108f565b600060405180830381865afa158015610155573d6000803e3d6000fd5b505050506040513d6000823e601f3d908101601f1916820160405261017d9190810190611147565b90506000836000015161019385602001516101f8565b61019c8661028c565b846040516020016101b094939291906111da565b604051602081830303815290604052905060006101cc826102d1565b9050806040516020016101df919061134c565b6040516020818303038152906040529350505050919050565b60606000610205836102fd565b600101905060008167ffffffffffffffff81111561022557610225610ad0565b6040519080825280601f01601f19166020018201604052801561024f576020820181803683370190505b5090508181016020015b600019016f181899199a1a9b1b9c1cb0b131b232b360811b600a86061a8153600a8504945084610259575b509392505050565b6060610297826103d5565b6102a083610449565b6102a9846104d1565b6040516020016102bb93929190611391565b6040516020818303038152906040529050919050565b60606102f78260405180606001604052806040815260200161182460409139600161052a565b92915050565b60008072184f03e93ff9f4daa797ed6e38ed64bf6a1f0160401b831061033c5772184f03e93ff9f4daa797ed6e38ed64bf6a1f0160401b830492506040015b6d04ee2d6d415b85acef81000000008310610368576d04ee2d6d415b85acef8100000000830492506020015b662386f26fc10000831061038657662386f26fc10000830492506010015b6305f5e100831061039e576305f5e100830492506008015b61271083106103b257612710830492506004015b606483106103c4576064830492506002015b600a83106102f75760010192915050565b606081810151516103e5906101f8565b6103f983606001516040015160ff166101f8565b61040d84606001516060015160ff166101f8565b61042185606001516080015160ff166101f8565b610435866060015160a0015160ff166101f8565b6040516020016102bb9594939291906113f0565b606081608001516060015161047857604051806040016040528060028152602001614e6f60f01b815250610495565b6040518060400160405280600381526020016259657360e81b8152505b6080830151516104aa9063ffffffff166101f8565b6104bf84608001516040015161ffff166101f8565b6040516020016102bb9392919061158a565b60606104e48260400151600001516106ac565b6104f58360400151602001516107ce565b6105068460400151604001516108ce565b6105178560400151606001516109d6565b6040516020016102bb949392919061167e565b6060835160000361054a57506040805160208101909152600081526106a5565b60008261057b5760038551600461056191906117d7565b61056c9060026117ee565b6105769190611801565b6105a0565b60038551600261058b91906117ee565b6105959190611801565b6105a09060046117d7565b905060008167ffffffffffffffff8111156105bd576105bd610ad0565b6040519080825280601f01601f1916602001820160405280156105e7576020820181803683370190505b50905060018501602082018788518901602081018051600082525b8284101561065d576003840193508351603f8160121c168701518653600186019550603f81600c1c168701518653600186019550603f8160061c168701518653600186019550603f8116870151865350600185019450610602565b90525050851561069e5760038851066001811461068157600281146106945761069c565b603d6001830353603d600283035361069c565b603d60018303535b505b5090925050505b9392505050565b606060008260038111156106c2576106c2610f65565b036106e85750506040805180820190915260058152642630b9b2b960d91b602082015290565b60018260038111156106fc576106fc610f65565b036107245750506040805180820190915260078152662930b4b633bab760c91b602082015290565b600282600381111561073857610738610f65565b0361076957505060408051808201909152601081526f26b4b9b9b4b632902630bab731b432b960811b602082015290565b600382600381111561077d5761077d610f65565b036107ab57505060408051808201909152600d81526c283630b9b6b09021b0b73737b760991b602082015290565b50506040805180820190915260078152662ab735b737bbb760c91b602082015290565b606060008260038111156107e4576107e4610f65565b0361080d57505060408051808201909152600881526727379020b936b7b960c11b602082015290565b600182600381111561082157610821610f65565b0361084d57505060408051808201909152600b81526a2634b3b43a1020b936b7b960a91b602082015290565b600282600381111561086157610861610f65565b0361088e57505060408051808201909152600c81526b26b2b234bab69020b936b7b960a11b602082015290565b60038260038111156108a2576108a2610f65565b036107ab57505060408051808201909152600b81526a2432b0bb3c9020b936b7b960a91b602082015290565b606060008260038111156108e4576108e4610f65565b0361090f57505060408051808201909152600a8152694e6f20536869656c647360b01b602082015290565b600182600381111561092357610923610f65565b0361095157505060408051808201909152600d81526c4c6967687420536869656c647360981b602082015290565b600282600381111561096557610965610f65565b0361099457505060408051808201909152600e81526d4d656469756d20536869656c647360901b602082015290565b60038260038111156109a8576109a8610f65565b036107ab57505060408051808201909152600d81526c486561767920536869656c647360981b602082015290565b606060008260038111156109ec576109ec610f65565b03610a1757505060408051808201909152600a815269139bc814dc1958da585b60b21b602082015290565b6001826003811115610a2b57610a2b610f65565b03610a4f5750506040805180820190915260038152620454d560ec1b602082015290565b6002826003811115610a6357610a63610f65565b03610a9157505060408051808201909152600d81526c5265706169722044726f6e657360981b602082015290565b6003826003811115610aa557610aa5610f65565b036107ab57505060408051808201909152600a815269466c616b20417272617960b01b602082015290565b634e487b7160e01b600052604160045260246000fd5b60405160c0810167ffffffffffffffff81118282101715610b0957610b09610ad0565b60405290565b60405160e0810167ffffffffffffffff81118282101715610b0957610b09610ad0565b604051601f8201601f1916810167ffffffffffffffff81118282101715610b5b57610b5b610ad0565b604052919050565b600067ffffffffffffffff821115610b7d57610b7d610ad0565b50601f01601f191660200190565b60048110610b9857600080fd5b50565b600060808284031215610bad57600080fd5b6040516080810167ffffffffffffffff81118282101715610bd057610bd0610ad0565b6040529050808235610be181610b8b565b81526020830135610bf181610b8b565b60208201526040830135610c0481610b8b565b60408201526060830135610c1781610b8b565b6060919091015292915050565b803561ffff81168114610c3657600080fd5b919050565b803560ff81168114610c3657600080fd5b6000818303610160811215610c6057600080fd5b610c68610ae6565b83358152915060c0601f1982011215610c8057600080fd5b50610c89610ae6565b610c9560208401610c24565b8152610ca360408401610c3b565b6020820152610cb460608401610c3b565b6040820152610cc560808401610c24565b6060820152610cd660a08401610c3b565b6080820152610ce760c08401610c3b565b60a08201526020820152610cfd60e08301610c3b565b6040820152610d0f6101008301610c3b565b6060820152610d216101208301610c3b565b6080820152610d336101408301610c3b565b60a082015292915050565b80358015158114610c3657600080fd5b600060e08284031215610d6057600080fd5b610d68610b0f565b9050813563ffffffff81168114610d7e57600080fd5b8152610d8c60208301610c24565b6020820152610d9d60408301610c24565b6040820152610dae60608301610d3e565b6060820152610dbf60808301610d3e565b6080820152610dd060a08301610d3e565b60a082015260c09182013591810191909152919050565b80356001600160a01b0381168114610c3657600080fd5b600060208284031215610e1057600080fd5b813567ffffffffffffffff811115610e2757600080fd5b82016103208185031215610e3a57600080fd5b610e42610ae6565b813567ffffffffffffffff811115610e5957600080fd5b8201601f81018613610e6a57600080fd5b8035610e7d610e7882610b63565b610b32565b818152876020838501011115610e9257600080fd5b81602084016020830137600060209282018301528352838101359083015250610ebe8560408401610b9b565b6040820152610ed08560c08401610c4c565b6060820152610ee3856102208401610d4e565b6080820152610ef56103008301610de7565b60a0820152949350505050565b60005b83811015610f1d578181015183820152602001610f05565b50506000910152565b60008151808452610f3e816020860160208601610f02565b601f01601f19169290920160200192915050565b6020815260006106a56020830184610f26565b634e487b7160e01b600052602160045260246000fd5b60048110610b9857634e487b7160e01b600052602160045260246000fd5b80518252602081015161ffff815116602084015260ff602082015116604084015260ff604082015116606084015261ffff606082015116608084015260ff60808201511660a084015260ff60a08201511660c084015250604081015161100460e084018260ff169052565b50606081015160ff9081166101008401526080820151811661012084015260a0909101511661014090910152565b63ffffffff815116825261ffff602082015116602083015261ffff604082015116604083015260608101511515606083015260808101511515608083015260a081015161108360a084018215159052565b5060c090810151910152565b602081526000825161032060208401526110ad610340840182610f26565b905060208401516040840152604084015180516110c981610f7b565b606085015260208101516110dc81610f7b565b608085015260408101516110ef81610f7b565b60a08501526060015161110181610f7b565b60c0840152606084015161111860e0850182610f99565b50608084015161112c610240850182611032565b5060a08401516001600160a01b038116610320850152610284565b60006020828403121561115957600080fd5b815167ffffffffffffffff81111561117057600080fd5b8201601f8101841361118157600080fd5b805161118f610e7882610b63565b8181528560208385010111156111a457600080fd5b6111b5826020830160208601610f02565b95945050505050565b600081516111d0818560208601610f02565b9290920192915050565b693d913730b6b2911d101160b11b8152845160009061120081600a850160208a01610f02565b61202360f01b600a91840191820152855161122281600c840160208a01610f02565b600a818301019150507f222c226465736372697074696f6e223a20224120756e6971756520737061636560028201527f7368697020696e207468652057617270666c6f7720756e6976657273652e204560228201527f61636820736869702068617320756e69717565207472616974732c206571756960428201527f706d656e742c20616e6420737461747320746861742064657465726d696e652060628201527f697473206361706162696c697469657320696e20626174746c652e222c20226160828201526c747472696275746573223a205b60981b60a282015261134161133361132d61131560af8501896111be565b6b2e961134b6b0b3b2911d101160a11b8152600c0190565b866111be565b61227d60f01b815260020190565b979650505050505050565b7f646174613a6170706c69636174696f6e2f6a736f6e3b6261736536342c00000081526000825161138481601d850160208701610f02565b91909101601d0192915050565b600084516113a3818460208901610f02565b600b60fa1b90830190815284516113c1816001840160208901610f02565b600b60fa1b6001929091019182015283516113e3816002840160208801610f02565b0160020195945050505050565b7f7b2274726169745f74797065223a202253657269616c204e756d626572222c20815269113b30b63ab2911d101160b11b60208201526000865161143b81602a850160208b01610f02565b62089f4b60ea1b602a918401918201527f7b2274726169745f74797065223a202256617269616e74222c202276616c7565602d82015263111d101160e11b604d8201528651611491816051840160208b01610f02565b602a8183010191505062089f4b60ea1b602782015261157e61157161132d61153e61150161153861150f6115016114fb602a8a017f7b2274726169745f74797065223a20224163637572616379222c202276616c75815263032911d160e51b602082015260240190565b8e6111be565b611f4b60f21b815260020190565b7f7b2274726169745f74797065223a202248756c6c222c202276616c7565223a20815260200190565b8a6111be565b7f7b2274726169745f74797065223a20225370656564222c202276616c7565223a8152600160fd1b602082015260210190565b607d60f81b815260010190565b98975050505050505050565b7f7b2274726169745f74797065223a20225368696e79222c202276616c7565223a815261101160f11b6020820152600084516115cd816022850160208901610f02565b62089f4b60ea1b6022918401918201527f7b2274726169745f74797065223a202253686970732044657374726f7965642260258201526a01610113b30b63ab2911d160ad1b6045820152845161162a816050840160208901610f02565b602281830101915050611f4b60f21b602e8201527f7b2274726169745f74797065223a2022436f7374222c202276616c7565223a20603082015261167461157160508301866111be565b9695505050505050565b7f7b2274726169745f74797065223a20224d61696e20576561706f6e222c20227681526730b63ab2911d101160c11b6020820152600085516116c7816028850160208a01610f02565b62089f4b60ea1b6028918401918201527f7b2274726169745f74797065223a202241726d6f72222c202276616c7565223a602b82015261101160f11b604b820152855161171b81604d840160208a01610f02565b60288183010191505062089f4b60ea1b602582015261134161133361132d61178b61177c611538602887017f7b2274726169745f74797065223a2022536869656c6473222c202276616c7565815263111d101160e11b602082015260240190565b62089f4b60ea1b815260030190565b7f7b2274726169745f74797065223a20225370656369616c222c202276616c7565815263111d101160e11b602082015260240190565b634e487b7160e01b600052601160045260246000fd5b80820281158282048414176102f7576102f76117c1565b808201808211156102f7576102f76117c1565b60008261181e57634e487b7160e01b600052601260045260246000fd5b50049056fe4142434445464748494a4b4c4d4e4f505152535455565758595a6162636465666768696a6b6c6d6e6f707172737475767778797a303132333435363738392b2fa264697066735822122052bcbe56671dce47f65f75f777417e7947f96a9bd188f9ef01c02844c342ad4664736f6c634300081c0033",
  "linkReferences": {},
  "deployedLinkReferences": {}
}