{
  "_format": "hh-sol-artifact-1",
  "contractName": "Game",
  "sourceName": "contracts/Game.sol",
  "abi": [
    {
      "inputs": [
        {
          "internalType": "address",
          "name": "_ships",
          "type": "address"
        },
        {
          "internalType": "address",
          "name": "_shipAttributes",
          "type": "address"
        }
      ],
      "stateMutability": "nonpayable",
      "type": "constructor"
    },
    {
      "inputs": [],
      "name": "ActionRequired",
      "type": "error"
    },
    {
      "inputs": [],
      "name": "GameAlreadyEnded",
      "type": "error"
    },
    {
      "inputs": [],
      "name": "GameNotFound",
      "type": "error"
    },
    {
      "inputs": [],
      "name": "InvalidAttributesVersion",
      "type": "error"
    },
    {
      "inputs": [],
      "name": "InvalidMove",
      "type": "error"
    },
    {
      "inputs": [],
      "name": "InvalidPosition",
      "type": "error"
    },
    {
      "inputs": [],
      "name": "MovementExceeded",
      "type": "error"
    },
    {
      "inputs": [],
      "name": "NotInGame",
      "type": "error"
    },
    {
      "inputs": [],
      "name": "NotLobbiesContract",
      "type": "error"
    },
    {
      "inputs": [],
      "name": "NotYourTurn",
      "type": "error"
    },
    {
      "inputs": [
        {
          "internalType": "address",
          "name": "owner",
          "type": "address"
        }
      ],
      "name": "OwnableInvalidOwner",
      "type": "error"
    },
    {
      "inputs": [
        {
          "internalType": "address",
          "name": "account",
          "type": "address"
        }
      ],
      "name": "OwnableUnauthorizedAccount",
      "type": "error"
    },
    {
      "inputs": [],
      "name": "PositionOccupied",
      "type": "error"
    },
    {
      "inputs": [],
      "name": "ShipAlreadyMoved",
      "type": "error"
    },
    {
      "inputs": [],
      "name": "ShipDestroyed",
      "type": "error"
    },
    {
      "inputs": [],
      "name": "ShipNotFound",
      "type": "error"
    },
    {
      "inputs": [],
      "name": "ShipNotOwned",
      "type": "error"
    },
    {
      "inputs": [],
      "name": "TurnTimeoutExceeded",
      "type": "error"
    },
    {
      "inputs": [],
      "name": "TurnTimeoutNotReached",
      "type": "error"
    },
    {
      "anonymous": false,
      "inputs": [
        {
          "indexed": true,
          "internalType": "uint256",
          "name": "gameId",
          "type": "uint256"
        },
        {
          "indexed": true,
          "internalType": "uint256",
          "name": "lobbyId",
          "type": "uint256"
        },
        {
          "indexed": false,
          "internalType": "address",
          "name": "creator",
          "type": "address"
        },
        {
          "indexed": false,
          "internalType": "address",
          "name": "joiner",
          "type": "address"
        }
      ],
      "name": "GameStarted",
      "type": "event"
    },
    {
      "anonymous": false,
      "inputs": [
        {
          "indexed": true,
          "internalType": "address",
          "name": "previousOwner",
          "type": "address"
        },
        {
          "indexed": true,
          "internalType": "address",
          "name": "newOwner",
          "type": "address"
        }
      ],
      "name": "OwnershipTransferred",
      "type": "event"
    },
    {
      "inputs": [],
      "name": "GRID_HEIGHT",
      "outputs": [
        {
          "internalType": "int16",
          "name": "",
          "type": "int16"
        }
      ],
      "stateMutability": "view",
      "type": "function"
    },
    {
      "inputs": [],
      "name": "GRID_WIDTH",
      "outputs": [
        {
          "internalType": "int16",
          "name": "",
          "type": "int16"
        }
      ],
      "stateMutability": "view",
      "type": "function"
    },
    {
      "inputs": [
        {
          "internalType": "uint256",
          "name": "_gameId",
          "type": "uint256"
        },
        {
          "internalType": "uint256[]",
          "name": "_shipIds",
          "type": "uint256[]"
        }
      ],
      "name": "calculateFleetAttributes",
      "outputs": [],
      "stateMutability": "nonpayable",
      "type": "function"
    },
    {
      "inputs": [
        {
          "internalType": "uint256",
          "name": "_gameId",
          "type": "uint256"
        },
        {
          "internalType": "uint256",
          "name": "_shipId",
          "type": "uint256"
        }
      ],
      "name": "calculateShipAttributes",
      "outputs": [],
      "stateMutability": "nonpayable",
      "type": "function"
    },
    {
      "inputs": [
        {
          "internalType": "uint256",
          "name": "_gameId",
          "type": "uint256"
        },
        {
          "internalType": "uint256",
          "name": "_shipId",
          "type": "uint256"
        }
      ],
      "name": "debugDestroyShip",
      "outputs": [],
      "stateMutability": "nonpayable",
      "type": "function"
    },
    {
      "inputs": [
        {
          "internalType": "uint256",
          "name": "_gameId",
          "type": "uint256"
        },
        {
          "internalType": "uint256",
          "name": "_shipId",
          "type": "uint256"
        }
      ],
      "name": "debugMarkShipAsMoved",
      "outputs": [],
      "stateMutability": "nonpayable",
      "type": "function"
    },
    {
      "inputs": [
        {
          "internalType": "uint256",
          "name": "_gameId",
          "type": "uint256"
        },
        {
          "internalType": "uint256",
          "name": "_shipId",
          "type": "uint256"
        }
      ],
      "name": "debugSetHullPointsToZero",
      "outputs": [],
      "stateMutability": "nonpayable",
      "type": "function"
    },
    {
      "inputs": [
        {
          "internalType": "uint256",
          "name": "_gameId",
          "type": "uint256"
        },
        {
          "internalType": "uint256",
          "name": "_shipId",
          "type": "uint256"
        },
        {
          "internalType": "uint8",
          "name": "_timer",
          "type": "uint8"
        }
      ],
      "name": "debugSetReactorCriticalTimer",
      "outputs": [],
      "stateMutability": "nonpayable",
      "type": "function"
    },
    {
      "inputs": [
        {
          "internalType": "uint256",
          "name": "_gameId",
          "type": "uint256"
        },
        {
          "internalType": "uint256",
          "name": "_shipId",
          "type": "uint256"
        },
        {
          "internalType": "int16",
          "name": "_row",
          "type": "int16"
        },
        {
          "internalType": "int16",
          "name": "_col",
          "type": "int16"
        }
      ],
      "name": "debugSetShipPosition",
      "outputs": [],
      "stateMutability": "nonpayable",
      "type": "function"
    },
    {
      "inputs": [
        {
          "internalType": "uint256",
          "name": "_gameId",
          "type": "uint256"
        }
      ],
      "name": "flee",
      "outputs": [],
      "stateMutability": "nonpayable",
      "type": "function"
    },
    {
      "inputs": [],
      "name": "fleets",
      "outputs": [
        {
          "internalType": "contract IFleets",
          "name": "",
          "type": "address"
        }
      ],
      "stateMutability": "view",
      "type": "function"
    },
    {
      "inputs": [
        {
          "internalType": "uint256",
          "name": "_gameId",
          "type": "uint256"
        }
      ],
      "name": "forceMoveOnTimeout",
      "outputs": [],
      "stateMutability": "nonpayable",
      "type": "function"
    },
    {
      "inputs": [],
      "name": "gameCount",
      "outputs": [
        {
          "internalType": "uint256",
          "name": "",
          "type": "uint256"
        }
      ],
      "stateMutability": "view",
      "type": "function"
    },
    {
      "inputs": [],
      "name": "gameResults",
      "outputs": [
        {
          "internalType": "contract IGameResults",
          "name": "",
          "type": "address"
        }
      ],
      "stateMutability": "view",
      "type": "function"
    },
    {
      "inputs": [
        {
          "internalType": "uint256",
          "name": "",
          "type": "uint256"
        }
      ],
      "name": "games",
      "outputs": [
        {
          "components": [
            {
              "internalType": "uint256",
              "name": "gameId",
              "type": "uint256"
            },
            {
              "internalType": "uint256",
              "name": "lobbyId",
              "type": "uint256"
            },
            {
              "internalType": "address",
              "name": "creator",
              "type": "address"
            },
            {
              "internalType": "address",
              "name": "joiner",
              "type": "address"
            },
            {
              "internalType": "uint256",
              "name": "creatorFleetId",
              "type": "uint256"
            },
            {
              "internalType": "uint256",
              "name": "joinerFleetId",
              "type": "uint256"
            },
            {
              "internalType": "bool",
              "name": "creatorGoesFirst",
              "type": "bool"
            },
            {
              "internalType": "uint256",
              "name": "startedAt",
              "type": "uint256"
            },
            {
              "internalType": "address",
              "name": "winner",
              "type": "address"
            }
          ],
          "internalType": "struct GameMetadata",
          "name": "metadata",
          "type": "tuple"
        },
        {
          "components": [
            {
              "internalType": "address",
              "name": "currentTurn",
              "type": "address"
            },
            {
              "internalType": "uint256",
              "name": "turnTime",
              "type": "uint256"
            },
            {
              "internalType": "uint256",
              "name": "turnStartTime",
              "type": "uint256"
            },
            {
              "internalType": "uint256",
              "name": "currentRound",
              "type": "uint256"
            }
          ],
          "internalType": "struct GameTurnState",
          "name": "turnState",
          "type": "tuple"
        },
        {
          "components": [
            {
              "internalType": "int16",
              "name": "gridWidth",
              "type": "int16"
            },
            {
              "internalType": "int16",
              "name": "gridHeight",
              "type": "int16"
            }
          ],
          "internalType": "struct GameGridDimensions",
          "name": "gridDimensions",
          "type": "tuple"
        },
        {
          "internalType": "uint256",
          "name": "maxScore",
          "type": "uint256"
        },
        {
          "internalType": "uint256",
          "name": "creatorScore",
          "type": "uint256"
        },
        {
          "internalType": "uint256",
          "name": "joinerScore",
          "type": "uint256"
        }
      ],
      "stateMutability": "view",
      "type": "function"
    },
    {
      "inputs": [
        {
          "internalType": "uint256",
          "name": "_gameId",
          "type": "uint256"
        }
      ],
      "name": "getAllShipPositions",
      "outputs": [
        {
          "components": [
            {
              "internalType": "uint256",
              "name": "shipId",
              "type": "uint256"
            },
            {
              "components": [
                {
                  "internalType": "int16",
                  "name": "row",
                  "type": "int16"
                },
                {
                  "internalType": "int16",
                  "name": "col",
                  "type": "int16"
                }
              ],
              "internalType": "struct Position",
              "name": "position",
              "type": "tuple"
            },
            {
              "internalType": "bool",
              "name": "isCreator",
              "type": "bool"
            }
          ],
          "internalType": "struct ShipPosition[]",
          "name": "",
          "type": "tuple[]"
        }
      ],
      "stateMutability": "view",
      "type": "function"
    },
    {
      "inputs": [
        {
          "internalType": "uint256",
          "name": "_gameId",
          "type": "uint256"
        },
        {
          "internalType": "uint256[]",
          "name": "_creatorShipIds",
          "type": "uint256[]"
        },
        {
          "internalType": "uint256[]",
          "name": "_joinerShipIds",
          "type": "uint256[]"
        }
      ],
      "name": "getGame",
      "outputs": [
        {
          "components": [
            {
              "components": [
                {
                  "internalType": "uint256",
                  "name": "gameId",
                  "type": "uint256"
                },
                {
                  "internalType": "uint256",
                  "name": "lobbyId",
                  "type": "uint256"
                },
                {
                  "internalType": "address",
                  "name": "creator",
                  "type": "address"
                },
                {
                  "internalType": "address",
                  "name": "joiner",
                  "type": "address"
                },
                {
                  "internalType": "uint256",
                  "name": "creatorFleetId",
                  "type": "uint256"
                },
                {
                  "internalType": "uint256",
                  "name": "joinerFleetId",
                  "type": "uint256"
                },
                {
                  "internalType": "bool",
                  "name": "creatorGoesFirst",
                  "type": "bool"
                },
                {
                  "internalType": "uint256",
                  "name": "startedAt",
                  "type": "uint256"
                },
                {
                  "internalType": "address",
                  "name": "winner",
                  "type": "address"
                }
              ],
              "internalType": "struct GameMetadata",
              "name": "metadata",
              "type": "tuple"
            },
            {
              "components": [
                {
                  "internalType": "address",
                  "name": "currentTurn",
                  "type": "address"
                },
                {
                  "internalType": "uint256",
                  "name": "turnTime",
                  "type": "uint256"
                },
                {
                  "internalType": "uint256",
                  "name": "turnStartTime",
                  "type": "uint256"
                },
                {
                  "internalType": "uint256",
                  "name": "currentRound",
                  "type": "uint256"
                }
              ],
              "internalType": "struct GameTurnState",
              "name": "turnState",
              "type": "tuple"
            },
            {
              "components": [
                {
                  "internalType": "int16",
                  "name": "gridWidth",
                  "type": "int16"
                },
                {
                  "internalType": "int16",
                  "name": "gridHeight",
                  "type": "int16"
                }
              ],
              "internalType": "struct GameGridDimensions",
              "name": "gridDimensions",
              "type": "tuple"
            },
            {
              "internalType": "uint256",
              "name": "maxScore",
              "type": "uint256"
            },
            {
              "internalType": "uint256",
              "name": "creatorScore",
              "type": "uint256"
            },
            {
              "internalType": "uint256",
              "name": "joinerScore",
              "type": "uint256"
            },
            {
              "components": [
                {
                  "internalType": "uint16",
                  "name": "version",
                  "type": "uint16"
                },
                {
                  "internalType": "uint8",
                  "name": "range",
                  "type": "uint8"
                },
                {
                  "internalType": "uint8",
                  "name": "gunDamage",
                  "type": "uint8"
                },
                {
                  "internalType": "uint8",
                  "name": "hullPoints",
                  "type": "uint8"
                },
                {
                  "internalType": "uint8",
                  "name": "maxHullPoints",
                  "type": "uint8"
                },
                {
                  "internalType": "uint8",
                  "name": "movement",
                  "type": "uint8"
                },
                {
                  "internalType": "uint8",
                  "name": "damageReduction",
                  "type": "uint8"
                },
                {
                  "internalType": "uint8",
                  "name": "reactorCriticalTimer",
                  "type": "uint8"
                },
                {
                  "internalType": "uint8[]",
                  "name": "statusEffects",
                  "type": "uint8[]"
                }
              ],
              "internalType": "struct Attributes[]",
              "name": "shipAttributes",
              "type": "tuple[]"
            },
            {
              "components": [
                {
                  "internalType": "uint256",
                  "name": "shipId",
                  "type": "uint256"
                },
                {
                  "components": [
                    {
                      "internalType": "int16",
                      "name": "row",
                      "type": "int16"
                    },
                    {
                      "internalType": "int16",
                      "name": "col",
                      "type": "int16"
                    }
                  ],
                  "internalType": "struct Position",
                  "name": "position",
                  "type": "tuple"
                },
                {
                  "internalType": "bool",
                  "name": "isCreator",
                  "type": "bool"
                }
              ],
              "internalType": "struct ShipPosition[]",
              "name": "shipPositions",
              "type": "tuple[]"
            },
            {
              "internalType": "uint256[]",
              "name": "creatorActiveShipIds",
              "type": "uint256[]"
            },
            {
              "internalType": "uint256[]",
              "name": "joinerActiveShipIds",
              "type": "uint256[]"
            }
          ],
          "internalType": "struct GameDataView",
          "name": "",
          "type": "tuple"
        }
      ],
      "stateMutability": "view",
      "type": "function"
    },
    {
      "inputs": [
        {
          "internalType": "uint256",
          "name": "_gameId",
          "type": "uint256"
        },
        {
          "internalType": "uint256",
          "name": "_shipId",
          "type": "uint256"
        }
      ],
      "name": "getShipAttributes",
      "outputs": [
        {
          "components": [
            {
              "internalType": "uint16",
              "name": "version",
              "type": "uint16"
            },
            {
              "internalType": "uint8",
              "name": "range",
              "type": "uint8"
            },
            {
              "internalType": "uint8",
              "name": "gunDamage",
              "type": "uint8"
            },
            {
              "internalType": "uint8",
              "name": "hullPoints",
              "type": "uint8"
            },
            {
              "internalType": "uint8",
              "name": "maxHullPoints",
              "type": "uint8"
            },
            {
              "internalType": "uint8",
              "name": "movement",
              "type": "uint8"
            },
            {
              "internalType": "uint8",
              "name": "damageReduction",
              "type": "uint8"
            },
            {
              "internalType": "uint8",
              "name": "reactorCriticalTimer",
              "type": "uint8"
            },
            {
              "internalType": "uint8[]",
              "name": "statusEffects",
              "type": "uint8[]"
            }
          ],
          "internalType": "struct Attributes",
          "name": "",
          "type": "tuple"
        }
      ],
      "stateMutability": "view",
      "type": "function"
    },
    {
      "inputs": [
        {
          "internalType": "uint256",
          "name": "target",
          "type": "uint256"
        }
      ],
      "name": "lastDamage",
      "outputs": [
        {
          "internalType": "uint256",
          "name": "lastDamager",
          "type": "uint256"
        }
      ],
      "stateMutability": "view",
      "type": "function"
    },
    {
      "inputs": [],
      "name": "lobbiesAddress",
      "outputs": [
        {
          "internalType": "address",
          "name": "",
          "type": "address"
        }
      ],
      "stateMutability": "view",
      "type": "function"
    },
    {
      "inputs": [],
      "name": "maps",
      "outputs": [
        {
          "internalType": "contract IMaps",
          "name": "",
          "type": "address"
        }
      ],
      "stateMutability": "view",
      "type": "function"
    },
    {
      "inputs": [
        {
          "internalType": "uint256",
          "name": "_gameId",
          "type": "uint256"
        },
        {
          "internalType": "uint256",
          "name": "_shipId",
          "type": "uint256"
        },
        {
          "internalType": "int16",
          "name": "_newRow",
          "type": "int16"
        },
        {
          "internalType": "int16",
          "name": "_newCol",
          "type": "int16"
        },
        {
          "internalType": "enum ActionType",
          "name": "actionType",
          "type": "uint8"
        },
        {
          "internalType": "uint256",
          "name": "targetShipId",
          "type": "uint256"
        }
      ],
      "name": "moveShip",
      "outputs": [],
      "stateMutability": "nonpayable",
      "type": "function"
    },
    {
      "inputs": [],
      "name": "owner",
      "outputs": [
        {
          "internalType": "address",
          "name": "",
          "type": "address"
        }
      ],
      "stateMutability": "view",
      "type": "function"
    },
    {
      "inputs": [],
      "name": "renounceOwnership",
      "outputs": [],
      "stateMutability": "nonpayable",
      "type": "function"
    },
    {
      "inputs": [
        {
          "internalType": "address",
          "name": "_mapsAddress",
          "type": "address"
        },
        {
          "internalType": "address",
          "name": "_lobbiesAddress",
          "type": "address"
        },
        {
          "internalType": "address",
          "name": "_fleetsAddress",
          "type": "address"
        },
        {
          "internalType": "address",
          "name": "_gameResultsAddress",
          "type": "address"
        },
        {
          "internalType": "address",
          "name": "_shipAttributesAddress",
          "type": "address"
        }
      ],
      "name": "setAddresses",
      "outputs": [],
      "stateMutability": "nonpayable",
      "type": "function"
    },
    {
      "inputs": [],
      "name": "shipAttributes",
      "outputs": [
        {
          "internalType": "contract IShipAttributes",
          "name": "",
          "type": "address"
        }
      ],
      "stateMutability": "view",
      "type": "function"
    },
    {
      "inputs": [],
      "name": "ships",
      "outputs": [
        {
          "internalType": "contract IShips",
          "name": "",
          "type": "address"
        }
      ],
      "stateMutability": "view",
      "type": "function"
    },
    {
      "inputs": [
        {
          "internalType": "uint256",
          "name": "_lobbyId",
          "type": "uint256"
        },
        {
          "internalType": "address",
          "name": "_creator",
          "type": "address"
        },
        {
          "internalType": "address",
          "name": "_joiner",
          "type": "address"
        },
        {
          "internalType": "uint256",
          "name": "_creatorFleetId",
          "type": "uint256"
        },
        {
          "internalType": "uint256",
          "name": "_joinerFleetId",
          "type": "uint256"
        },
        {
          "internalType": "bool",
          "name": "_creatorGoesFirst",
          "type": "bool"
        },
        {
          "internalType": "uint256",
          "name": "_turnTime",
          "type": "uint256"
        },
        {
          "internalType": "uint256",
          "name": "_selectedMapId",
          "type": "uint256"
        },
        {
          "internalType": "uint256",
          "name": "_maxScore",
          "type": "uint256"
        }
      ],
      "name": "startGame",
      "outputs": [],
      "stateMutability": "nonpayable",
      "type": "function"
    },
    {
      "inputs": [
        {
          "internalType": "address",
          "name": "newOwner",
          "type": "address"
        }
      ],
      "name": "transferOwnership",
      "outputs": [],
      "stateMutability": "nonpayable",
      "type": "function"
    }
  ],
  "bytecode": "0x608060405234801561001057600080fd5b50604051615f57380380615f5783398101604081905261002f916100fc565b338061005557604051631e4fbdf760e01b81526000600482015260240160405180910390fd5b61005e81610090565b50600180546001600160a01b039384166001600160a01b0319918216179091556003805492909316911617905561012f565b600080546001600160a01b038381166001600160a01b0319831681178455604051919092169283917f8be0079c531659141344cd1fd0a4f28419497f9722a3daafe3b4186f6b6457e09190a35050565b80516001600160a01b03811681146100f757600080fd5b919050565b6000806040838503121561010f57600080fd5b610118836100e0565b9150610126602084016100e0565b90509250929050565b615e198061013e6000396000f3fe608060405234801561001057600080fd5b50600436106101cf5760003560e01c80635dd68acd11610104578063bbf8218a116100a2578063e8d64aee11610071578063e8d64aee146104f7578063ecd1406d1461050a578063edf59b3c1461051d578063f2fde38b1461053057600080fd5b8063bbf8218a146104ab578063beaa8fa4146104be578063ce720bca146104d1578063d78ffe58146104e457600080fd5b806384cb37ea116100de57806384cb37ea146104545780638da5cb5b1461046757806390de1d9b146104785780639c91fe671461049857600080fd5b80635dd68acd14610426578063715018a6146104395780637c767cb91461044157600080fd5b806341f5f5e9116101715780634bf11ad21161014b5780634bf11ad2146103d45780634d1975b4146103dc57806355cebda8146103f3578063566adcd01461040657600080fd5b806341f5f5e91461038e578063423bb46f146103a157806348915d91146103c157600080fd5b806318d7261d116101ad57806318d7261d14610322578063235e78eb14610335578063336d7d7b146103505780633deaec2b1461037b57600080fd5b8063100017cb146101d4578063117a5b90146101e9578063179c031814610302575b600080fd5b6101e76101e2366004614de7565b610543565b005b6102e76101f7366004614e09565b600760208181526000928352604092839020835161012081018552815481526001808301548285015260028301546001600160a01b0390811683880152600384015481166060808501919091526004850154608080860191909152600586015460a0860152600686015460ff16151560c08601529685015460e0850152600885015482166101008501528751968701885260098501549091168652600a84015486860152600b84015486880152600c840154908601528551808701909652600d83015480820b8752620100009004900b92850192909252600e810154600f82015460109092015492949290919086565b6040516102f996959493929190614ea2565b60405180910390f35b61031561031036600461505e565b610559565b6040516102f991906152c0565b6101e7610330366004614de7565b610cd5565b61033d606481565b60405160019190910b81526020016102f9565b600554610363906001600160a01b031681565b6040516001600160a01b0390911681526020016102f9565b600454610363906001600160a01b031681565b600354610363906001600160a01b031681565b6103b46103af366004614de7565b610d29565b6040516102f991906153c3565b600254610363906001600160a01b031681565b61033d603281565b6103e560085481565b6040519081526020016102f9565b6101e7610401366004614de7565b610ea0565b610419610414366004614e09565b611013565b6040516102f991906153d6565b6101e76104343660046153fe565b61120e565b6101e7611275565b6101e761044f366004615486565b611289565b6101e7610462366004614e09565b61132b565b6000546001600160a01b0316610363565b6103e5610486366004614e09565b60096020526000908152604090205481565b6101e76104a63660046154cc565b61142f565b600154610363906001600160a01b031681565b6101e76104cc366004615512565b611466565b600654610363906001600160a01b031681565b6101e76104f2366004614e09565b6119fe565b6101e7610505366004615587565b611ade565b6101e761051836600461561c565b611ccd565b6101e761052b366004614de7565b611d15565b6101e761053e366004615655565b611d52565b61054b611d95565b6105558282611dc2565b5050565b610627604080516102608101825260006101408201818152610160830182905261018083018290526101a083018290526101c083018290526101e083018290526102008301829052610220830182905261024083018290528252825160808101845281815260208082018390528185018390526060820183905280840191909152835180850185528281529081019190915290918201908152602001600081526020016000815260200160008152602001606081526020016060815260200160608152602001606081525090565b6000848152600760205260408120549003610655576040516309b3c62760e21b815260040160405180910390fd5b6000848152600760205260408120835185519192916106749190615688565b90506000816001600160401b0381111561069057610690614f1b565b6040519080825280602002602001820160405280156106c957816020015b6106b6614c7b565b8152602001906001900390816106ae5790505b50905060005b865181101561081d578360110160008883815181106106f0576106f061569b565b6020908102919091018101518252818101929092526040908101600020815161012081018352815461ffff8116825260ff62010000820481168387015263010000008204811683860152600160201b820481166060840152600160281b820481166080840152600160301b8204811660a0840152600160381b8204811660c0840152600160401b9091041660e0820152600182018054845181870281018701909552808552919492936101008601939092908301828280156107ef57602002820191906000526020600020906000905b825461010083900a900460ff168152602060019283018181049485019490930390920291018084116107c05790505b50505050508152505082828151811061080a5761080a61569b565b60209081029190910101526001016106cf565b5060005b855181101561097b578360110160008783815181106108425761084261569b565b6020908102919091018101518252818101929092526040908101600020815161012081018352815461ffff8116825260ff62010000820481168387015263010000008204811683860152600160201b820481166060840152600160281b820481166080840152600160301b8204811660a0840152600160381b8204811660c0840152600160401b9091041660e08201526001820180548451818702810187019095528085529194929361010086019390929083018282801561094157602002820191906000526020600020906000905b825461010083900a900460ff168152602060019283018181049485019490930390920291018084116109125790505b505050505081525050828289516109589190615688565b815181106109685761096861569b565b6020908102919091010152600101610821565b50600061098788611013565b60028501546001600160a01b0390811660009081526015870160205260408082206003890154909316825281209293509091906109c3836120c9565b6001600160401b038111156109da576109da614f1b565b604051908082528060200260200182016040528015610a03578160200160208202803683370190505b5090506000610a11836120c9565b6001600160401b03811115610a2857610a28614f1b565b604051908082528060200260200182016040528015610a51578160200160208202803683370190505b5090506000610a5f856120c9565b905060005b81811015610a9b57610a7686826120d3565b848281518110610a8857610a8861569b565b6020908102919091010152600101610a64565b506000610aa7856120c9565b905060005b81811015610ae357610abe86826120d3565b848281518110610ad057610ad061569b565b6020908102919091010152600101610aac565b506040518061014001604052808b6000016040518061012001604052908160008201548152602001600182015481526020016002820160009054906101000a90046001600160a01b03166001600160a01b03166001600160a01b031681526020016003820160009054906101000a90046001600160a01b03166001600160a01b03166001600160a01b0316815260200160048201548152602001600582015481526020016006820160009054906101000a900460ff16151515158152602001600782015481526020016008820160009054906101000a90046001600160a01b03166001600160a01b03166001600160a01b03168152505081526020018b6009016040518060800160405290816000820160009054906101000a90046001600160a01b03166001600160a01b03166001600160a01b03168152602001600182015481526020016002820154815260200160038201548152505081526020018b600d016040518060400160405290816000820160009054906101000a900460010b60010b60010b81526020016000820160029054906101000a900460010b60010b60010b8152505081526020018b600e015481526020018b600f015481526020018b601001548152602001898152602001888152602001858152602001848152509a50505050505050505050509392505050565b610cdd611d95565b6000918252600760209081526040808420838552601181018352818520805460ff60201b19169055600c810154855260140182528084209284529190529020805460ff19166001179055565b610d31614c7b565b6000838152600760205260408120549003610d5f576040516309b3c62760e21b815260040160405180910390fd5b600083815260076020908152604080832085845260110190915281208054909161ffff9091169003610da4576040516303c113ad60e61b815260040160405180910390fd5b6040805161012081018252825461ffff8116825260ff620100008204811660208085019190915263010000008304821684860152600160201b830482166060850152600160281b830482166080850152600160301b8304821660a0850152600160381b8304821660c0850152600160401b9092041660e083015260018401805484518184028101840190955280855292938593610100860193919291830182828015610e8d57602002820191906000526020600020906000905b825461010083900a900460ff16815260206001928301818104948501949093039092029101808411610e5e5790505b5050505050815250509150505b92915050565b600082815260076020908152604080832084845260118101909252808320600354915163e197c62760e01b8152600481018690529293909290916001600160a01b03169063e197c62790602401600060405180830381865afa158015610f0a573d6000803e3d6000fd5b505050506040513d6000823e601f3d908101601f19168201604052610f329190810190615735565b8051835460208084015160408501516060860151608087015160a088015160c089015160ff908116600160381b0267ff0000000000000019928216600160301b0266ff00000000000019948316600160281b029490941666ffff000000000019958316600160201b0260ff60201b199784166301000000029790971664ffff0000001993909816620100000262ffffff19909a1661ffff909b169a909a179890981716949094179290921716949094179390931792909216178455610100820151805192935061100b9260018601929190910190614cc9565b505050505050565b60008181526007602052604081205460609103611043576040516309b3c62760e21b815260040160405180910390fd5b600082815260076020526040812090805b6032600182900b12156110cc5760005b6064600182900b12156110c357600182810b600090815260128601602090815260408083209385900b8352929052205480158015906110a757506110a7816120e6565b156110ba57836110b68161582f565b9450505b50600101611064565b50600101611054565b506000816001600160401b038111156110e7576110e7614f1b565b60405190808252806020026020018201604052801561112057816020015b61110d614d6f565b8152602001906001900390816111055790505b5090506000805b6032600182900b12156112035760005b6064600182900b12156111fa57600182810b600090815260128801602090815260408083209385900b83529290522054801580159061117a575061117a816120e6565b156111f157600061118b8a8361215b565b9050604051806060016040528083815260200160405180604001604052808760010b81526020018660010b81525081526020018215158152508686815181106111d6576111d661569b565b602002602001018190525084806111ec9061582f565b955050505b50600101611137565b50600101611127565b509095945050505050565b611216611d95565b600480546001600160a01b03199081166001600160a01b03978816179091556005805482169587169590951790945560028054851693861693909317909255600680548416918516919091179055600380549092169216919091179055565b61127d611d95565b6112876000612197565b565b611291611d95565b6000938452600760209081526040808620858752601381018084528288208054600181810b8b526012909401808752858b206201000092839004860b8c528752858b208b90558551808701875298850b808a529790940b8887018181528a8c5293875297518254935161ffff90811690920263ffffffff199094169116179190911790559286529181528185209285529190915290912055565b6000818152600760205260408120549003611359576040516309b3c62760e21b815260040160405180910390fd5b600081815260076020526040902060088101546001600160a01b0316156113935760405163246450af60e21b815260040160405180910390fd5b60028101546001600160a01b031633148015906113bd575060038101546001600160a01b03163314155b156113db5760405163218286cb60e11b815260040160405180910390fd5b60028101546000906001600160a01b031633146114055760028201546001600160a01b0316611414565b60038201546001600160a01b03165b90506114218382336121e7565b61142a83612289565b505050565b60005b815181101561142a5761145e838383815181106114515761145161569b565b6020026020010151610ea0565b600101611432565b6000868152600760205260408120549003611494576040516309b3c62760e21b815260040160405180910390fd5b600086815260076020526040902060088101546001600160a01b0316156114ce5760405163246450af60e21b815260040160405180910390fd5b60098101546001600160a01b031633146114fb57604051631cc191eb60e31b815260040160405180910390fd5b600154604051634025b22d60e01b8152600481018890526000916001600160a01b031690634025b22d90602401600060405180830381865afa158015611545573d6000803e3d6000fd5b505050506040513d6000823e601f3d908101601f1916820160405261156d9190810190615a88565b90508060200151600003611594576040516303c113ad60e61b815260040160405180910390fd5b60a08101516001600160a01b031633146115c157604051630b18e5d760e21b815260040160405180910390fd5b608081015160c00151156115e8576040516398586ca160e01b815260040160405180910390fd5b6000878152601183016020526040812080549091600160201b90910460ff169003611626576040516398586ca160e01b815260040160405180910390fd5b60025460048481015460405162b5e41160e51b815291820152602481018a90526001600160a01b03909116906316bc822090604401602060405180830381865afa158015611678573d6000803e3d6000fd5b505050506040513d601f19601f8201168201806040525081019061169c9190615bb9565b1580156117245750600254600584015460405162b5e41160e51b81526001600160a01b03909216916316bc8220916116e1918c90600401918252602082015260400190565b602060405180830381865afa1580156116fe573d6000803e3d6000fd5b505050506040513d601f19601f820116820180604052508101906117229190615bb9565b155b15611742576040516303c113ad60e61b815260040160405180910390fd5b600c830154600090815260148401602090815260408083208b845290915290205460ff161561178457604051637d64fb5d60e01b815260040160405180910390fd5b60008881526013840160205260408120805490919060018a810b91900b1480156117bb57508154600189810b62010000909204900b145b9050806118c7576040805180820182528354600181810b835262010000909104810b60208084019190915283518085019094528c820b8452908b900b9083015260009161180891906122d9565b60008c8152601188016020526040902080549192509060ff600160301b9091048116908316111561184c57604051635ef4723d60e01b815260040160405180910390fd5b603260018c900b1215806118655750606460018b900b12155b156118835760405163673f032f60e11b815260040160405180910390fd5b60018b810b60009081526012890160209081526040808320938e900b83529290522054156118c457604051638243205760e01b815260040160405180910390fd5b50505b8061198957604080518082019091528254600181810b835262010000909104900b6020820152611989908c908c908c8c60009485526007602090815260408087208551600190810b895260128201808552838a2097850151820b8a5296845282892089905594850b8089529583528188209390940b8088529282528087208690558051808201825294855284820192835294865260139092019091529190922091518254915161ffff908116620100000263ffffffff19909316911617179055565b600c850154600090815260148601602090815260408083208d84529091529020805460ff191660011790556119c3858c8c8c8c8c8c61236d565b6119cc8b61283f565b156119df576119da8b612856565b6119e8565b6119e88b6128e1565b505042600b909301929092555050505050505050565b6000818152600760205260408120549003611a2c576040516309b3c62760e21b815260040160405180910390fd5b611a35816129a9565b611a525760405163023e733b60e61b815260040160405180910390fd5b600081815260076020526040902060098101546001600160a01b03163303611a8d57604051631cc191eb60e31b815260040160405180910390fd5b60028101546001600160a01b03163314801590611ab7575060038101546001600160a01b03163314155b15611ad55760405163218286cb60e11b815260040160405180910390fd5b610555826129d4565b6005546001600160a01b03163314611b0957604051638671306560e01b815260040160405180910390fd5b60088054906000611b198361582f565b90915550506008546000818152600760208190526040909120918255600182018b90556002820180546001600160a01b03808d166001600160a01b031992831617909255600384018054928c1692909116919091179055600482018890556005820187905560068201805487151560ff19909116179055429082015584611ba05787611ba2565b885b6009820180546001600160a01b0319166001600160a01b0392909216919091179055600a810184905542600b8201556001600c820155600d8101805463ffffffff191662320064179055600e81018290558215611c5e5760048054600854604051636a5257fd60e11b815292830152602482018590526001600160a01b03169063d4a4affa90604401600060405180830381600087803b158015611c4557600080fd5b505af1158015611c59573d6000803e3d6000fd5b505050505b611c6b6008548888612a64565b611c786008548888612c2c565b600854604080516001600160a01b03808d1682528b1660208201528c92917f9f0b80476ce7b05cfe8b0800d21f0b0f2704c8eb948fa5d5e87997ec901f96d1910160405180910390a350505050505050505050565b611cd5611d95565b6000928352600760209081526040808520938552601190930190529120805460ff909216600160401b0268ff000000000000000019909216919091179055565b611d1d611d95565b6000918252600760209081526040808420600c810154855260140182528084209284529190529020805460ff19166001179055565b611d5a611d95565b6001600160a01b038116611d8957604051631e4fbdf760e01b8152600060048201526024015b60405180910390fd5b611d9281612197565b50565b6000546001600160a01b031633146112875760405163118cdaa760e01b8152336004820152602401611d80565b6000828152600760205260408120549003611df0576040516309b3c62760e21b815260040160405180910390fd5b6000828152600760205260408082206001549151634025b22d60e01b8152600481018590529092916001600160a01b031690634025b22d90602401600060405180830381865afa158015611e48573d6000803e3d6000fd5b505050506040513d6000823e601f3d908101601f19168201604052611e709190810190615a88565b90508060200151600003611e97576040516303c113ad60e61b815260040160405180910390fd5b60025460048381015460405162b5e41160e51b815291820152602481018590526000916001600160a01b0316906316bc822090604401602060405180830381865afa158015611eea573d6000803e3d6000fd5b505050506040513d601f19601f82011682018060405250810190611f0e9190615bb9565b600254600585015460405162b5e41160e51b81529293506000926001600160a01b03909216916316bc822091611f51918990600401918252602082015260400190565b602060405180830381865afa158015611f6e573d6000803e3d6000fd5b505050506040513d601f19601f82011682018060405250810190611f929190615bb9565b905081158015611fa0575080155b15611fbe576040516303c113ad60e61b815260040160405180910390fd5b608083015160c0015115611fe5576040516398586ca160e01b815260040160405180910390fd5b600085815260138501602090815260408083208054600181810b865260128a01855283862062010000909204810b8652908452828520859055600c89015485526014890184528285208a86528452828520805460ff191682179055546009909352928190205490516311a960cd60e01b81526004810189905260248101919091526001600160a01b03909116906311a960cd90604401600060405180830381600087803b15801561209557600080fd5b505af11580156120a9573d6000803e3d6000fd5b505050506120b78787612d37565b6120c087612d9b565b50505050505050565b6000610e9a825490565b60006120df8383612e27565b9392505050565b600154604051639596010160e01b8152600481018390526000916001600160a01b031690639596010190602401602060405180830381865afa158015612130573d6000803e3d6000fd5b505050506040513d601f19601f820116820180604052508101906121549190615bb9565b1592915050565b600082815260076020908152604080832060028101546001600160a01b0316845260158101909252822061218f9084612e51565b949350505050565b600080546001600160a01b038381166001600160a01b0319831681178455604051919092169283917f8be0079c531659141344cd1fd0a4f28419497f9722a3daafe3b4186f6b6457e09190a35050565b600083815260076020526040902060080180546001600160a01b0319166001600160a01b0384811691909117909155600654161561142a5760065460405163d6c6eb9f60e01b8152600481018590526001600160a01b03848116602483015283811660448301529091169063d6c6eb9f90606401600060405180830381600087803b15801561227557600080fd5b505af11580156120c0573d6000803e3d6000fd5b6000818152600760205260409020600281015460048201546122b89184916001600160a01b0390911690612e69565b600381015460058201546105559184916001600160a01b0390911690612e69565b600080826000015160010b846000015160010b1361230457835183516122ff9190615bd6565b612312565b825184516123129190615bd6565b90506000836020015160010b856020015160010b13612344578460200151846020015161233f9190615bd6565b612358565b836020015185602001516123589190615bd6565b90506123648183615bf9565b95945050505050565b600082600581111561238157612381615c12565b146120c057600182600581111561239a5761239a615c12565b0361278d57600154604051634025b22d60e01b8152600481018390526000916001600160a01b031690634025b22d90602401600060405180830381865afa1580156123e9573d6000803e3d6000fd5b505050506040513d6000823e601f3d908101601f191682016040526124119190810190615a88565b90508060200151600003612438576040516303c113ad60e61b815260040160405180910390fd5b608081015160c001511561245f576040516398586ca160e01b815260040160405180910390fd5b600154604051634025b22d60e01b8152600481018890526000916001600160a01b031690634025b22d90602401600060405180830381865afa1580156124a9573d6000803e3d6000fd5b505050506040513d6000823e601f3d908101601f191682016040526124d19190810190615a88565b90508060a001516001600160a01b03168260a001516001600160a01b03160361250d576040516321e08b4d60e21b815260040160405180910390fd5b604080518082018252600188810b825287810b602080840191909152600087815260138e0182528481208551808701909652805480850b875262010000900490930b9185019190915291929091906125669084906122d9565b60008b815260118e016020526040902080549192509060ff62010000909104811690831611156125a9576040516321e08b4d60e21b815260040160405180910390fd5b60018260ff1611801561264e5750600480548454604051638383c99560e01b81529283018f905260018d810b60248501528c810b604485015281810b606485015262010000909104900b60848301526001600160a01b031690638383c9959060a401602060405180830381865afa158015612628573d6000803e3d6000fd5b505050506040513d601f19601f8201168201806040525081019061264c9190615bb9565b155b1561266c576040516321e08b4d60e21b815260040160405180910390fd5b600087815260118e016020526040812080549091600160201b90910460ff1690036126ce578054600160401b900460ff168160086126a983615c28565b91906101000a81548160ff021916908360ff16021790555050505050505050506120c0565b8154815460ff6301000000909204821691600160381b90910416600060646126f68385615c47565b6127009190615c64565b61270d9060ff8516615c96565b8454909150600160201b900460ff1661ffff82161061274757835460ff60201b1916845560008b81526009602052604090208f905561277e565b835481908590600490612765908490600160201b900460ff16615cb0565b92506101000a81548160ff021916908360ff1602179055505b505050505050505050506120c0565b60028260058111156127a1576127a1615c12565b036127b5576127b08686612f26565b6120c0565b60038260058111156127c9576127c9615c12565b036127db576127b086868686856132de565b60048260058111156127ef576127ef615c12565b03612801576127b08686868685613553565b600582600581111561281557612815615c12565b03612826576127b0868686866136e5565b6040516321e08b4d60e21b815260040160405180910390fd5b60008061284e8361391961396d565b159392505050565b600081815260076020526040902061286d82613a5c565b600c8101805490600061287f8361582f565b919050555061288d82613c24565b600681015460ff166128ac5760038101546001600160a01b03166128bb565b60028101546001600160a01b03165b60099190910180546001600160a01b0319166001600160a01b0390921691909117905550565b6000818152600760205260409020600281015460098201546001600160a01b0391821691160361295a5760038101546000906129279084906001600160a01b0316613db2565b9050801561142a5760038201546009830180546001600160a01b0319166001600160a01b03909216919091179055505050565b60028101546000906129769084906001600160a01b0316613db2565b9050801561142a5760028201546009830180546001600160a01b0319166001600160a01b03909216919091179055505050565b6000818152600760205260408120600a810154600b8201546129cb9190615688565b42119392505050565b6000818152600760205260409020600281015460098201546001600160a01b03918216911603612a1c576002810154612a179083906001600160a01b0316613e5d565b612a35565b6003810154612a359083906001600160a01b0316613e5d565b612a3e8261283f565b15612a5157612a4c82612856565b612a5a565b612a5a826128e1565b42600b9091015550565b6000838152600760205260408082206002549151634ce29c2760e11b8152600481018690529092916001600160a01b0316906399c5384e90602401600060405180830381865afa158015612abc573d6000803e3d6000fd5b505050506040513d6000823e601f3d908101601f19168201604052612ae49190810190615cc9565b905060005b8151811015612b555760028301546001600160a01b0316600090815260158401602052604090208251612b369190849084908110612b2957612b2961569b565b6020026020010151613f1a565b50612b4d868383815181106114515761145161569b565b600101612ae9565b50600254604051634ce29c2760e11b8152600481018590526000916001600160a01b0316906399c5384e90602401600060405180830381865afa158015612ba0573d6000803e3d6000fd5b505050506040513d6000823e601f3d908101601f19168201604052612bc89190810190615cc9565b905060005b81518110156120c05760038401546001600160a01b0316600090815260158501602052604090208251612c0d9190849084908110612b2957612b2961569b565b50612c24878383815181106114515761145161569b565b600101612bcd565b600083815260076020908152604080832060028101546001600160a01b031684526015810190925282209091612c61826120c9565b905060005b81811015612ca2576000612c7a84836120d3565b90506000612c89836002615d5e565b9050612c988983836000613f26565b5050600101612c66565b5060038301546001600160a01b03166000908152601584016020526040812090612ccb826120c9565b905060005b81811015612d2c576000612ce484836120d3565b90506000612cf3836002615d5e565b612cff60016032615bd6565b612d099190615bd6565b9050612d228b8383612d1d60016064615bd6565b613f26565b5050600101612cd0565b505050505050505050565b600082815260076020908152604080832060028101546001600160a01b0316845260158101909252909120612d6c9083614016565b5060038101546001600160a01b031660009081526015820160205260409020612d959083614016565b50505050565b60008181526007602052604090206002810154612dc29083906001600160a01b0316614022565b612de857600381015460028201546105559184916001600160a01b0391821691166121e7565b6003810154612e019083906001600160a01b0316614022565b61055557600281015460038201546105559184916001600160a01b0391821691166121e7565b6000826000018281548110612e3e57612e3e61569b565b9060005260206000200154905092915050565b600081815260018301602052604081205415156120df565b60008381526007602090815260408083206001600160a01b03861684526015810190925282209091612e9a826120c9565b905060005b818110156120c0576000612eb384836120d3565b6002546040516327ffe52160e01b815260048101899052602481018390529192506001600160a01b0316906327ffe52190604401600060405180830381600087803b158015612f0157600080fd5b505af1158015612f15573d6000803e3d6000fd5b505060019093019250612e9f915050565b6000828152600760205260408120549003612f54576040516309b3c62760e21b815260040160405180910390fd5b6000828152600760205260408082206001549151634025b22d60e01b8152600481018590529092916001600160a01b031690634025b22d90602401600060405180830381865afa158015612fac573d6000803e3d6000fd5b505050506040513d6000823e601f3d908101601f19168201604052612fd49190810190615a88565b90508060200151600003612ffb576040516303c113ad60e61b815260040160405180910390fd5b60025460048381015460405162b5e41160e51b815291820152602481018590526000916001600160a01b0316906316bc822090604401602060405180830381865afa15801561304e573d6000803e3d6000fd5b505050506040513d601f19601f820116820180604052508101906130729190615bb9565b600254600585015460405162b5e41160e51b81529293506000926001600160a01b03909216916316bc8220916130b5918990600401918252602082015260400190565b602060405180830381865afa1580156130d2573d6000803e3d6000fd5b505050506040513d601f19601f820116820180604052508101906130f69190615bb9565b905081158015613104575080155b15613122576040516303c113ad60e61b815260040160405180910390fd5b608083015160c0015115613149576040516398586ca160e01b815260040160405180910390fd5b600085815260138501602090815260408083208054600181810b865260128a01855283862062010000909204810b8652908452828520859055600c89015485526014890184528285208a86529093529220805460ff191690911790558215613218576002546004868101546040516327ffe52160e01b815291820152602481018890526001600160a01b03909116906327ffe52190604401600060405180830381600087803b1580156131fb57600080fd5b505af115801561320f573d6000803e3d6000fd5b50505050613289565b60025460058601546040516327ffe52160e01b81526001600160a01b03909216916327ffe52191613256918a90600401918252602082015260400190565b600060405180830381600087803b15801561327057600080fd5b505af1158015613284573d6000803e3d6000fd5b505050505b60008681526011860160205260408120805468ffffffffffffffffff19168155906132b76001830182614db1565b505060008681526013860160205260409020805463ffffffff191690556120b78787612d37565b600085815260076020526040812054900361330c576040516309b3c62760e21b815260040160405180910390fd5b6000858152600760205260408082206001549151634025b22d60e01b8152600481018590529092916001600160a01b031690634025b22d90602401600060405180830381865afa158015613364573d6000803e3d6000fd5b505050506040513d6000823e601f3d908101601f1916820160405261338c9190810190615a88565b905080602001516000036133b3576040516303c113ad60e61b815260040160405180910390fd5b608081015160c00151156133da576040516398586ca160e01b815260040160405180910390fd5b600154604051634025b22d60e01b8152600481018890526000916001600160a01b031690634025b22d90602401600060405180830381865afa158015613424573d6000803e3d6000fd5b505050506040513d6000823e601f3d908101601f1916820160405261344c9190810190615a88565b90508060a001516001600160a01b03168260a001516001600160a01b031614613488576040516321e08b4d60e21b815260040160405180910390fd5b600084815260118401602052604090208054600160201b900460ff16156134c2576040516321e08b4d60e21b815260040160405180910390fd5b600085815260138501602090815260408083208151808301835260018c810b82528b810b828601528351808501909452825480820b8552620100009004900b9383019390935292906135159083906122d9565b90508060ff1660011461353b576040516321e08b4d60e21b815260040160405180910390fd5b6135458c89612f26565b505050505050505050505050565b600154604051634025b22d60e01b8152600481018390526000916001600160a01b031690634025b22d90602401600060405180830381865afa15801561359d573d6000803e3d6000fd5b505050506040513d6000823e601f3d908101601f191682016040526135c59190810190615a88565b905080602001516000036135ec576040516303c113ad60e61b815260040160405180910390fd5b608081015160c0015115613613576040516398586ca160e01b815260040160405180910390fd5b600154604051634025b22d60e01b8152600481018790526000916001600160a01b031690634025b22d90602401600060405180830381865afa15801561365d573d6000803e3d6000fd5b505050506040513d6000823e601f3d908101601f191682016040526136859190810190615a88565b9050600081604001516060015160038111156136a3576136a3615c12565b036136c1576040516321e08b4d60e21b815260040160405180910390fd5b6136cf878686868587614093565b6120c0878787878786604001516060015161419d565b6000848152600760205260408082206001549151634025b22d60e01b8152600481018790529092916001600160a01b031690634025b22d90602401600060405180830381865afa15801561373d573d6000803e3d6000fd5b505050506040513d6000823e601f3d908101601f191682016040526137659190810190615a88565b60048054604051630349370d60e41b8152918201899052600187810b602484015286900b60448301529192506000916001600160a01b03169063349370d0906064016020604051808303816000875af11580156137c6573d6000803e3d6000fd5b505050506040513d601f19601f820116820180604052508101906137ea9190615d75565b905060ff8116156120c057600283015460a08301516001600160a01b03918216911603613833578060ff1683600f0160008282546138289190615688565b9091555061386c9050565b600383015460a08301516001600160a01b0391821691160361386c578060ff168360100160008282546138669190615688565b90915550505b82600e015483600f015410158061388b575082600e0154836010015410155b156120c0576000836010015484600f015410156138b55760038401546001600160a01b03166138c4565b60028401546001600160a01b03165b60028501549091506000906001600160a01b038084169116146138f45760028501546001600160a01b0316613903565b60038501546001600160a01b03165b90506139108983836121e7565b612d2c89612289565b60008281526007602052604081206139318484614208565b61393f576000915050610e9a565b600c810154600090815260149091016020908152604080832085845290915290205460ff1615905092915050565b600082815260076020908152604080832060028101546001600160a01b0390811685526015820190935281842060038201549093168452908320909190836139b4836120c9565b905060005b818110156139fa5760006139cd85836120d3565b90506139dd89828a63ffffffff16565b156139f15760019650505050505050610e9a565b506001016139b9565b506000613a06836120c9565b905060005b81811015613a4d576000613a1f85836120d3565b9050613a2f8a828b63ffffffff16565b15613a44576001975050505050505050610e9a565b50600101613a0b565b50600098975050505050505050565b60008181526007602052604080822081516064808252610ca0820190935290929181602001602082028036833750505060028301546001600160a01b0316600090815260158401602052604081209192509081613ab8826120c9565b905060005b81811015613b3e576000613ad184836120d3565b9050613adc816120e6565b8015613b04575060008181526011880160205260409020546003600160401b90910460ff1610155b15613b355780868681518110613b1c57613b1c61569b565b602090810291909101015284613b318161582f565b9550505b50600101613abd565b5060038501546001600160a01b03166000908152601586016020526040812090613b67826120c9565b905060005b81811015613bed576000613b8084836120d3565b9050613b8b816120e6565b8015613bb35750600081815260118a0160205260409020546003600160401b90910460ff1610155b15613be45780888881518110613bcb57613bcb61569b565b602090810291909101015286613be08161582f565b9750505b50600101613b6c565b5060005b85811015612d2c57613c1c89888381518110613c0f57613c0f61569b565b6020026020010151611dc2565b600101613bf1565b600081815260076020908152604080832060028101546001600160a01b031684526015810190925282209091613c59826120c9565b905060005b81811015613cf1576000613c7284836120d3565b9050613c7d816120e6565b8015613ca157506000818152601186016020526040902054600160201b900460ff16155b15613ce857600081815260118601602052604090208054600160401b900460ff16906008613cce83615c28565b91906101000a81548160ff021916908360ff160217905550505b50600101613c5e565b5060038301546001600160a01b03166000908152601584016020526040812090613d1a826120c9565b905060005b818110156120c0576000613d3384836120d3565b9050613d3e816120e6565b8015613d6257506000818152601188016020526040902054600160201b900460ff16155b15613da957600081815260118801602052604090208054600160401b900460ff16906008613d8f83615c28565b91906101000a81548160ff021916908360ff160217905550505b50600101613d1f565b60008281526007602090815260408083206001600160a01b038516845260158101909252822082613de2826120c9565b905060005b81811015613e50576000613dfb84836120d3565b9050613e078882614208565b8015613e345750600c8501546000908152601486016020908152604080832084845290915290205460ff16155b15613e4757600195505050505050610e9a565b50600101613de7565b5060009695505050505050565b60008281526007602090815260408083206001600160a01b03851684526015810190925282209091613e8e826120c9565b905060005b8181101561100b576000613ea784836120d3565b9050613eb38782614208565b8015613ee05750600c8501546000908152601486016020908152604080832084845290915290205460ff16155b15613f1157600c850154600090815260148601602090815260408083208484529091529020805460ff191660011790555b50600101613e93565b60006120df83836142df565b60008481526007602052604090206032600184900b121580613f4d57506064600183900b12155b15613f6b5760405163673f032f60e11b815260040160405180910390fd5b600183810b600090815260128301602090815260408083209386900b8352929052205415613fac57604051638243205760e01b815260040160405180910390fd5b600192830b600081815260128301602090815260408083209590960b8083529481528582208790558551808701875292835282810194855295815260139092019094529190912091518254915161ffff908116620100000263ffffffff1990931691161717905550565b60006120df838361432e565b60008281526007602090815260408083206001600160a01b038516845260158101909252822082614052826120c9565b905060005b81811015613e5057600061406b84836120d3565b90506140778882614208565b1561408a57600195505050505050610e9a565b50600101614057565b600282604001516060015160038111156140af576140af615c12565b03614108578160a001516001600160a01b03168160a001516001600160a01b0316146140ee576040516321e08b4d60e21b815260040160405180910390fd5b61410386868686866040015160600151614428565b61100b565b6001826040015160600151600381111561412457614124615c12565b03614163578160a001516001600160a01b03168160a001516001600160a01b0316036140ee576040516321e08b4d60e21b815260040160405180910390fd5b6003826040015160600151600381111561417f5761417f615c12565b1461100b576040516321e08b4d60e21b815260040160405180910390fd5b60028160038111156141b1576141b1615c12565b036141c057614103868361453b565b60018160038111156141d4576141d4615c12565b036141e3576141038683614648565b60038160038111156141f7576141f7615c12565b03612826576141038686868661472c565b6000828152600760205260408082206001549151634025b22d60e01b815260048101859052909183916001600160a01b0390911690634025b22d90602401600060405180830381865afa158015614263573d6000803e3d6000fd5b505050506040513d6000823e601f3d908101601f1916820160405261428b9190810190615a88565b9050806080015160c001516000146142a857600092505050610e9a565b6000848152601183016020526040812054600160201b900460ff1690036142d457600092505050610e9a565b506001949350505050565b600081815260018301602052604081205461432657508154600181810184556000848152602080822090930184905584548482528286019093526040902091909155610e9a565b506000610e9a565b60008181526001830160205260408120548015614417576000614352600183615d92565b855490915060009061436690600190615d92565b90508082146143cb5760008660000182815481106143865761438661569b565b90600052602060002001549050808760000184815481106143a9576143a961569b565b6000918252602080832090910192909255918252600188019052604090208390555b85548690806143dc576143dc615da5565b600190038181906000526020600020016000905590558560010160008681526020019081526020016000206000905560019350505050610e9a565b6000915050610e9a565b5092915050565b60008581526007602090815260408083208584526013810183528184208251808401845260018a810b825289900b948101949094526003549251636759d30960e11b8152919490939290916001600160a01b039091169063ceb3a61290614493908890600401615dbb565b602060405180830381865afa1580156144b0573d6000803e3d6000fd5b505050506040513d601f19601f820116820180604052508101906144d49190615d75565b604080518082019091528454600181810b835262010000909104900b60208201529091506000906145069084906122d9565b90508160ff168160ff16111561452f576040516321e08b4d60e21b815260040160405180910390fd5b50505050505050505050565b6000828152600760209081526040808320848452601181019092528083206003549151633387d11760e11b81529293909290916001600160a01b03169063670fa22e9061458d90600290600401615dbb565b602060405180830381865afa1580156145aa573d6000803e3d6000fd5b505050506040513d601f19601f820116820180604052508101906145ce9190615d75565b82549091506000906145eb908390600160201b900460ff16615bf9565b835490915060ff600160281b90910481169082161115614628578254600160201b60ff600160281b8304160260ff60201b1990911617835561100b565b825460ff8216600160201b0260ff60201b19909116178355505050505050565b6000828152600760209081526040808320848452601181019092528083206003549151633387d11760e11b81529293909290916001600160a01b03169063670fa22e9061469a90600190600401615dbb565b602060405180830381865afa1580156146b7573d6000803e3d6000fd5b505050506040513d601f19601f820116820180604052508101906146db9190615d75565b600085815260096020526040902085905582549091508190839060089061470d908490600160401b900460ff16615bf9565b92506101000a81548160ff021916908360ff1602179055505050505050565b600084815260076020526040808220600380549251636759d30960e11b81529193926001600160a01b03169163ceb3a6129161476a91600401615dbb565b602060405180830381865afa158015614787573d6000803e3d6000fd5b505050506040513d601f19601f820116820180604052508101906147ab9190615d75565b60038054604051633387d11760e11b81529293506000926001600160a01b039091169163670fa22e916147e19190600401615dbb565b602060405180830381865afa1580156147fe573d6000803e3d6000fd5b505050506040513d601f19601f820116820180604052508101906148229190615d75565b60028401546001600160a01b03908116600090815260158601602052604080822060038801549093168252812092935090919061485e836120c9565b905060005b81811015614a7b57600061487785836120d3565b600154604051634025b22d60e01b8152600481018390529192506000916001600160a01b0390911690634025b22d90602401600060405180830381865afa1580156148c6573d6000803e3d6000fd5b505050506040513d6000823e601f3d908101601f191682016040526148ee9190810190615a88565b9050806080015160c00151600014614907575050614a73565b600082815260118a016020526040812054600160201b900460ff16900361492f575050614a73565b60008960130160008481526020019081526020016000209050600060405180604001604052808e60010b81526020018d60010b815250905060006149b882846040518060400160405290816000820160009054906101000a900460010b60010b60010b81526020016000820160029054906101000a900460010b60010b60010b815250506122d9565b90508a60ff168160ff16111580156149d057508e8514155b15614a6d578e600960008781526020019081526020016000208190555060008c601101600087815260200190815260200160002090508060000160049054906101000a900460ff1660ff168b60ff1610614a3457805460ff60201b19168155614a6b565b80548b908290600490614a52908490600160201b900460ff16615cb0565b92506101000a81548160ff021916908360ff1602179055505b505b50505050505b600101614863565b506000614a87836120c9565b905060005b81811015613545576000614aa085836120d3565b600154604051634025b22d60e01b8152600481018390529192506000916001600160a01b0390911690634025b22d90602401600060405180830381865afa158015614aef573d6000803e3d6000fd5b505050506040513d6000823e601f3d908101601f19168201604052614b179190810190615a88565b9050806080015160c00151600014614b30575050614c73565b600082815260118b016020526040812054600160201b900460ff169003614b58575050614c73565b60008a60130160008481526020019081526020016000209050600060405180604001604052808f60010b81526020018e60010b81525090506000614be182846040518060400160405290816000820160009054906101000a900460010b60010b60010b81526020016000820160029054906101000a900460010b60010b60010b815250506122d9565b90508b60ff168160ff1611158015614bf957508f8514155b15614c6d57600085815260118e0160205260409020805460ff600160201b9091048116908d1610614c3457805460ff60201b19168155614c6b565b80548c908290600490614c52908490600160201b900460ff16615cb0565b92506101000a81548160ff021916908360ff1602179055505b505b50505050505b600101614a8c565b604080516101208101825260008082526020820181905291810182905260608082018390526080820183905260a0820183905260c0820183905260e082019290925261010081019190915290565b82805482825590600052602060002090601f01602090048101928215614d5f5791602002820160005b83821115614d3057835183826101000a81548160ff021916908360ff1602179055509260200192600101602081600001049283019260010302614cf2565b8015614d5d5782816101000a81549060ff0219169055600101602081600001049283019260010302614d30565b505b50614d6b929150614dd2565b5090565b604051806060016040528060008152602001614da46040518060400160405280600060010b8152602001600060010b81525090565b8152600060209091015290565b50805460008255601f016020900490600052602060002090810190611d9291905b5b80821115614d6b5760008155600101614dd3565b60008060408385031215614dfa57600080fd5b50508035926020909101359150565b600060208284031215614e1b57600080fd5b5035919050565b805182526020810151602083015260018060a01b03604082015116604083015260018060a01b0360608201511660608301526080810151608083015260a081015160a083015260c0810151614e7b60c084018215159052565b5060e081015160e083015261010081015161142a6101008401826001600160a01b03169052565b6102408101614eb18289614e22565b86516001600160a01b031661012083015260208088015161014084015260408801516101608401526060909701516101808301528551600190810b6101a0840152959096015190940b6101c08501526101e084019290925261020083015261022090910152919050565b634e487b7160e01b600052604160045260246000fd5b60405161012081016001600160401b0381118282101715614f5457614f54614f1b565b60405290565b60405160c081016001600160401b0381118282101715614f5457614f54614f1b565b60405160e081016001600160401b0381118282101715614f5457614f54614f1b565b604051601f8201601f191681016001600160401b0381118282101715614fc657614fc6614f1b565b604052919050565b60006001600160401b03821115614fe757614fe7614f1b565b5060051b60200190565b600082601f83011261500257600080fd5b813561501561501082614fce565b614f9e565b8082825260208201915060208360051b86010192508583111561503757600080fd5b602085015b8381101561505457803583526020928301920161503c565b5095945050505050565b60008060006060848603121561507357600080fd5b8335925060208401356001600160401b0381111561509057600080fd5b61509c86828701614ff1565b92505060408401356001600160401b038111156150b857600080fd5b6150c486828701614ff1565b9150509250925092565b600081518084526020840193506020830160005b8281101561510357815160ff168652602095860195909101906001016150e2565b5093949350505050565b805161ffff1682526000602082015161512b602085018260ff169052565b506040820151615140604085018260ff169052565b506060820151615155606085018260ff169052565b50608082015161516a608085018260ff169052565b5060a082015161517f60a085018260ff169052565b5060c082015161519460c085018260ff169052565b5060e08201516151a960e085018260ff169052565b5061010082015161012061010085015261218f6101208501826150ce565b600082825180855260208501945060208160051b8301016020850160005b8381101561521757601f1985840301885261520183835161510d565b60209889019890935091909101906001016151e5565b50909695505050505050565b600081518084526020840193506020830160005b82811015615103578151600081518852602082015161526c60208a0182805160010b8252602081015160010b60208301525050565b5050604001511515606087015260809095019460209190910190600101615237565b600081518084526020840193506020830160005b828110156151035781518652602095860195909101906001016152a2565b602081526152d2602082018351614e22565b60208281015180516001600160a01b0316610140840152808201516101608401526040808201516101808501526060918201516101a08501528401518051600190810b6101c086015292015190910b6101e0830152820151610200820152608082015161022082015260a082015161024082015260c08201516102c06102608301526000906153656102e08401826151c7565b905060e0840151601f19848303016102808501526153838282615223565b915050610100840151601f19848303016102a08501526153a3828261528e565b915050610120840151601f19848303016102c0850152612364828261528e565b6020815260006120df602083018461510d565b6020815260006120df6020830184615223565b6001600160a01b0381168114611d9257600080fd5b600080600080600060a0868803121561541657600080fd5b8535615421816153e9565b94506020860135615431816153e9565b93506040860135615441816153e9565b92506060860135615451816153e9565b91506080860135615461816153e9565b809150509295509295909350565b8035600181900b811461548157600080fd5b919050565b6000806000806080858703121561549c57600080fd5b84359350602085013592506154b36040860161546f565b91506154c16060860161546f565b905092959194509250565b600080604083850312156154df57600080fd5b8235915060208301356001600160401b038111156154fc57600080fd5b61550885828601614ff1565b9150509250929050565b60008060008060008060c0878903121561552b57600080fd5b86359550602087013594506155426040880161546f565b93506155506060880161546f565b925060808701356006811061556457600080fd5b9598949750929591949360a090920135925050565b8015158114611d9257600080fd5b60008060008060008060008060006101208a8c0312156155a657600080fd5b8935985060208a01356155b8816153e9565b975060408a01356155c8816153e9565b965060608a0135955060808a0135945060a08a01356155e681615579565b989b979a5095989497939693955050505060c08201359160e0810135916101009091013590565b60ff81168114611d9257600080fd5b60008060006060848603121561563157600080fd5b8335925060208401359150604084013561564a8161560d565b809150509250925092565b60006020828403121561566757600080fd5b81356120df816153e9565b634e487b7160e01b600052601160045260246000fd5b80820180821115610e9a57610e9a615672565b634e487b7160e01b600052603260045260246000fd5b805161ffff8116811461548157600080fd5b80516154818161560d565b600082601f8301126156df57600080fd5b81516156ed61501082614fce565b8082825260208201915060208360051b86010192508583111561570f57600080fd5b602085015b838110156150545780516157278161560d565b835260209283019201615714565b60006020828403121561574757600080fd5b81516001600160401b0381111561575d57600080fd5b8201610120818503121561577057600080fd5b615778614f31565b615781826156b1565b815261578f602083016156c3565b60208201526157a0604083016156c3565b60408201526157b1606083016156c3565b60608201526157c2608083016156c3565b60808201526157d360a083016156c3565b60a08201526157e460c083016156c3565b60c08201526157f560e083016156c3565b60e08201526101008201516001600160401b0381111561581457600080fd5b615820868285016156ce565b61010083015250949350505050565b60006001820161584157615841615672565b5060010190565b60048110611d9257600080fd5b60006080828403121561586757600080fd5b604051608081016001600160401b038111828210171561588957615889614f1b565b8060405250809150825161589c81615848565b815260208301516158ac81615848565b602082015260408301516158bf81615848565b604082015260608301516158d281615848565b6060919091015292915050565b60008183036101608112156158f357600080fd5b6158fb614f5a565b83518152915060c0601f198201121561591357600080fd5b5061591c614f5a565b615928602084016156b1565b815260408301516159388161560d565b6020820152606083015161594b8161560d565b604082015261595c608084016156b1565b606082015260a083015161596f8161560d565b608082015260c08301516159828161560d565b60a0820152602082015261599860e083016156c3565b60408201526159aa61010083016156c3565b60608201526159bc61012083016156c3565b60808201526159ce61014083016156c3565b60a082015292915050565b805161548181615579565b600060e082840312156159f657600080fd5b6159fe614f7c565b9050815163ffffffff81168114615a1457600080fd5b8152615a22602083016156b1565b6020820152615a33604083016156b1565b6040820152615a44606083016159d9565b6060820152615a55608083016159d9565b6080820152615a6660a083016159d9565b60a082015260c09182015191810191909152919050565b8051615481816153e9565b600060208284031215615a9a57600080fd5b81516001600160401b03811115615ab057600080fd5b82016103208185031215615ac357600080fd5b615acb614f5a565b81516001600160401b03811115615ae157600080fd5b8201601f81018613615af257600080fd5b80516001600160401b03811115615b0b57615b0b614f1b565b615b1e601f8201601f1916602001614f9e565b818152876020838501011115615b3357600080fd5b60005b82811015615b5257602081850181015183830182015201615b36565b50600060209282018301528352838101519083015250615b758560408401615855565b6040820152615b878560c084016158df565b6060820152615b9a8561022084016159e4565b6080820152615bac6103008301615a7d565b60a0820152949350505050565b600060208284031215615bcb57600080fd5b81516120df81615579565b600182810b9082900b03617fff198112617fff82131715610e9a57610e9a615672565b60ff8181168382160190811115610e9a57610e9a615672565b634e487b7160e01b600052602160045260246000fd5b600060ff821660ff8103615c3e57615c3e615672565b60010192915050565b61ffff818116838216029081169081811461442157614421615672565b600061ffff831680615c8657634e487b7160e01b600052601260045260246000fd5b8061ffff84160491505092915050565b61ffff8281168282160390811115610e9a57610e9a615672565b60ff8281168282160390811115610e9a57610e9a615672565b600060208284031215615cdb57600080fd5b81516001600160401b03811115615cf157600080fd5b8201601f81018413615d0257600080fd5b8051615d1061501082614fce565b8082825260208201915060208360051b850101925086831115615d3257600080fd5b6020840193505b82841015615d54578351825260209384019390910190615d39565b9695505050505050565b8082028115828204841417610e9a57610e9a615672565b600060208284031215615d8757600080fd5b81516120df8161560d565b81810381811115610e9a57610e9a615672565b634e487b7160e01b600052603160045260246000fd5b6020810160048310615ddd57634e487b7160e01b600052602160045260246000fd5b9190529056fea2646970667358221220216e9972b32adb56f23c277294aec2e4c8f9c5cdf9df56045ef0646d6e4d3a5f64736f6c634300081c0033",
  "linkReferences": {},
  "deployedLinkReferences": {}
}