{
  "_format": "hh-sol-artifact-1",
  "contractName": "MockOnchainRandomShipNames",
  "sourceName": "contracts/mocks/MockOnchainRandomShipNames.sol",
  "abi": [
    {
      "inputs": [
        {
          "internalType": "bytes32",
          "name": "",
          "type": "bytes32"
        }
      ],
      "name": "getRandomShipName",
      "outputs": [
        {
          "internalType": "string",
          "name": "",
          "type": "string"
        }
      ],
      "stateMutability": "pure",
      "type": "function"
    },
    {
      "inputs": [
        {
          "internalType": "uint256",
          "name": "",
          "type": "uint256"
        }
      ],
      "name": "getRandomness",
      "outputs": [
        {
          "internalType": "uint256",
          "name": "",
          "type": "uint256"
        }
      ],
      "stateMutability": "pure",
      "type": "function"
    },
    {
      "inputs": [],
      "name": "requestRandomness",
      "outputs": [
        {
          "internalType": "uint256",
          "name": "",
          "type": "uint256"
        }
      ],
      "stateMutability": "pure",
      "type": "function"
    }
  ],
  "bytecode": "0x6080604052348015600f57600080fd5b506101508061001f6000396000f3fe608060405234801561001057600080fd5b50600436106100415760003560e01c8063453f4f6214610046578063549188c61461006d578063f8413b07146100ac575b600080fd5b61005a6100543660046100b3565b50600190565b6040519081526020015b60405180910390f35b61009f61007b3660046100b3565b5060408051808201909152600981526804d6f636b20536869760bc1b602082015290565b60405161006491906100cc565b600161005a565b6000602082840312156100c557600080fd5b5035919050565b602081526000825180602084015260005b818110156100fa57602081860181015160408684010152016100dd565b506000604082850101526040601f19601f8301168401019150509291505056fea2646970667358221220219a6bd491da0ece4a3fcb5acd6aecf7281b2ac7841e3f3aebcf54175cee438664736f6c634300081c0033",
  "linkReferences": {},
  "deployedLinkReferences": {}
}