{
  "_format": "hh-sol-artifact-1",
  "contractName": "Ships",
  "sourceName": "contracts/Ships.sol",
  "abi": [
    {
      "inputs": [
        {
          "internalType": "address",
          "name": "_renderer",
          "type": "address"
        }
      ],
      "stateMutability": "nonpayable",
      "type": "constructor"
    },
    {
      "inputs": [],
      "name": "ArrayLengthMismatch",
      "type": "error"
    },
    {
      "inputs": [
        {
          "internalType": "uint256",
          "name": "",
          "type": "uint256"
        }
      ],
      "name": "CannotRecycleFreeShip",
      "type": "error"
    },
    {
      "inputs": [],
      "name": "ClaimCooldownNotPassed",
      "type": "error"
    },
    {
      "inputs": [
        {
          "internalType": "address",
          "name": "sender",
          "type": "address"
        },
        {
          "internalType": "uint256",
          "name": "tokenId",
          "type": "uint256"
        },
        {
          "internalType": "address",
          "name": "owner",
          "type": "address"
        }
      ],
      "name": "ERC721IncorrectOwner",
      "type": "error"
    },
    {
      "inputs": [
        {
          "internalType": "address",
          "name": "operator",
          "type": "address"
        },
        {
          "internalType": "uint256",
          "name": "tokenId",
          "type": "uint256"
        }
      ],
      "name": "ERC721InsufficientApproval",
      "type": "error"
    },
    {
      "inputs": [
        {
          "internalType": "address",
          "name": "approver",
          "type": "address"
        }
      ],
      "name": "ERC721InvalidApprover",
      "type": "error"
    },
    {
      "inputs": [
        {
          "internalType": "address",
          "name": "operator",
          "type": "address"
        }
      ],
      "name": "ERC721InvalidOperator",
      "type": "error"
    },
    {
      "inputs": [
        {
          "internalType": "address",
          "name": "owner",
          "type": "address"
        }
      ],
      "name": "ERC721InvalidOwner",
      "type": "error"
    },
    {
      "inputs": [
        {
          "internalType": "address",
          "name": "receiver",
          "type": "address"
        }
      ],
      "name": "ERC721InvalidReceiver",
      "type": "error"
    },
    {
      "inputs": [
        {
          "internalType": "address",
          "name": "sender",
          "type": "address"
        }
      ],
      "name": "ERC721InvalidSender",
      "type": "error"
    },
    {
      "inputs": [
        {
          "internalType": "uint256",
          "name": "tokenId",
          "type": "uint256"
        }
      ],
      "name": "ERC721NonexistentToken",
      "type": "error"
    },
    {
      "inputs": [
        {
          "internalType": "address",
          "name": "",
          "type": "address"
        }
      ],
      "name": "InsufficientPurchases",
      "type": "error"
    },
    {
      "inputs": [
        {
          "internalType": "uint256",
          "name": "_tier",
          "type": "uint256"
        },
        {
          "internalType": "uint256",
          "name": "_amount",
          "type": "uint256"
        }
      ],
      "name": "InvalidPurchase",
      "type": "error"
    },
    {
      "inputs": [
        {
          "internalType": "uint16",
          "name": "",
          "type": "uint16"
        }
      ],
      "name": "InvalidVariant",
      "type": "error"
    },
    {
      "inputs": [],
      "name": "MintPaused",
      "type": "error"
    },
    {
      "inputs": [
        {
          "internalType": "address",
          "name": "",
          "type": "address"
        }
      ],
      "name": "NotAuthorized",
      "type": "error"
    },
    {
      "inputs": [
        {
          "internalType": "uint256",
          "name": "",
          "type": "uint256"
        }
      ],
      "name": "NotYourShip",
      "type": "error"
    },
    {
      "inputs": [
        {
          "internalType": "address",
          "name": "owner",
          "type": "address"
        }
      ],
      "name": "OwnableInvalidOwner",
      "type": "error"
    },
    {
      "inputs": [
        {
          "internalType": "address",
          "name": "account",
          "type": "address"
        }
      ],
      "name": "OwnableUnauthorizedAccount",
      "type": "error"
    },
    {
      "inputs": [],
      "name": "ReentrancyGuardReentrantCall",
      "type": "error"
    },
    {
      "inputs": [],
      "name": "ReferralTransferFailed",
      "type": "error"
    },
    {
      "inputs": [
        {
          "internalType": "uint256",
          "name": "",
          "type": "uint256"
        }
      ],
      "name": "ShipAlreadyDestroyed",
      "type": "error"
    },
    {
      "inputs": [
        {
          "internalType": "uint256",
          "name": "",
          "type": "uint256"
        }
      ],
      "name": "ShipConstructed",
      "type": "error"
    },
    {
      "inputs": [],
      "name": "ShipDestroyed",
      "type": "error"
    },
    {
      "inputs": [
        {
          "internalType": "uint256",
          "name": "",
          "type": "uint256"
        }
      ],
      "name": "ShipInFleet",
      "type": "error"
    },
    {
      "inputs": [],
      "name": "WithdrawalFailed",
      "type": "error"
    },
    {
      "anonymous": false,
      "inputs": [
        {
          "indexed": true,
          "internalType": "address",
          "name": "owner",
          "type": "address"
        },
        {
          "indexed": true,
          "internalType": "address",
          "name": "approved",
          "type": "address"
        },
        {
          "indexed": true,
          "internalType": "uint256",
          "name": "tokenId",
          "type": "uint256"
        }
      ],
      "name": "Approval",
      "type": "event"
    },
    {
      "anonymous": false,
      "inputs": [
        {
          "indexed": true,
          "internalType": "address",
          "name": "owner",
          "type": "address"
        },
        {
          "indexed": true,
          "internalType": "address",
          "name": "operator",
          "type": "address"
        },
        {
          "indexed": false,
          "internalType": "bool",
          "name": "approved",
          "type": "bool"
        }
      ],
      "name": "ApprovalForAll",
      "type": "event"
    },
    {
      "anonymous": false,
      "inputs": [
        {
          "indexed": false,
          "internalType": "uint256",
          "name": "tokenId",
          "type": "uint256"
        }
      ],
      "name": "Locked",
      "type": "event"
    },
    {
      "anonymous": false,
      "inputs": [
        {
          "indexed": false,
          "internalType": "uint256",
          "name": "_tokenId",
          "type": "uint256"
        }
      ],
      "name": "MetadataUpdate",
      "type": "event"
    },
    {
      "anonymous": false,
      "inputs": [
        {
          "indexed": true,
          "internalType": "address",
          "name": "previousOwner",
          "type": "address"
        },
        {
          "indexed": true,
          "internalType": "address",
          "name": "newOwner",
          "type": "address"
        }
      ],
      "name": "OwnershipTransferred",
      "type": "event"
    },
    {
      "anonymous": false,
      "inputs": [
        {
          "indexed": true,
          "internalType": "address",
          "name": "from",
          "type": "address"
        },
        {
          "indexed": true,
          "internalType": "address",
          "name": "to",
          "type": "address"
        },
        {
          "indexed": true,
          "internalType": "uint256",
          "name": "tokenId",
          "type": "uint256"
        }
      ],
      "name": "Transfer",
      "type": "event"
    },
    {
      "anonymous": false,
      "inputs": [
        {
          "indexed": false,
          "internalType": "uint256",
          "name": "tokenId",
          "type": "uint256"
        }
      ],
      "name": "Unlocked",
      "type": "event"
    },
    {
      "inputs": [
        {
          "internalType": "address",
          "name": "",
          "type": "address"
        }
      ],
      "name": "amountPurchased",
      "outputs": [
        {
          "internalType": "uint256",
          "name": "",
          "type": "uint256"
        }
      ],
      "stateMutability": "view",
      "type": "function"
    },
    {
      "inputs": [
        {
          "internalType": "address",
          "name": "to",
          "type": "address"
        },
        {
          "internalType": "uint256",
          "name": "tokenId",
          "type": "uint256"
        }
      ],
      "name": "approve",
      "outputs": [],
      "stateMutability": "nonpayable",
      "type": "function"
    },
    {
      "inputs": [
        {
          "internalType": "address",
          "name": "owner",
          "type": "address"
        }
      ],
      "name": "balanceOf",
      "outputs": [
        {
          "internalType": "uint256",
          "name": "",
          "type": "uint256"
        }
      ],
      "stateMutability": "view",
      "type": "function"
    },
    {
      "inputs": [],
      "name": "claimCooldownPeriod",
      "outputs": [
        {
          "internalType": "uint256",
          "name": "",
          "type": "uint256"
        }
      ],
      "stateMutability": "view",
      "type": "function"
    },
    {
      "inputs": [
        {
          "internalType": "uint16",
          "name": "_variant",
          "type": "uint16"
        }
      ],
      "name": "claimFreeShips",
      "outputs": [],
      "stateMutability": "nonpayable",
      "type": "function"
    },
    {
      "inputs": [],
      "name": "config",
      "outputs": [
        {
          "internalType": "address",
          "name": "gameAddress",
          "type": "address"
        },
        {
          "internalType": "address",
          "name": "lobbyAddress",
          "type": "address"
        },
        {
          "internalType": "address",
          "name": "fleetsAddress",
          "type": "address"
        },
        {
          "internalType": "contract IRenderMetadata",
          "name": "metadataRenderer",
          "type": "address"
        },
        {
          "internalType": "contract IRandomManager",
          "name": "randomManager",
          "type": "address"
        },
        {
          "internalType": "contract IGenerateNewShip",
          "name": "shipGenerator",
          "type": "address"
        },
        {
          "internalType": "contract IShipAttributes",
          "name": "shipAttributes",
          "type": "address"
        }
      ],
      "stateMutability": "view",
      "type": "function"
    },
    {
      "inputs": [],
      "name": "constructAllMyShips",
      "outputs": [],
      "stateMutability": "nonpayable",
      "type": "function"
    },
    {
      "inputs": [
        {
          "internalType": "uint256",
          "name": "_id",
          "type": "uint256"
        }
      ],
      "name": "constructShip",
      "outputs": [],
      "stateMutability": "nonpayable",
      "type": "function"
    },
    {
      "inputs": [
        {
          "internalType": "uint256[]",
          "name": "_ids",
          "type": "uint256[]"
        }
      ],
      "name": "constructShips",
      "outputs": [],
      "stateMutability": "nonpayable",
      "type": "function"
    },
    {
      "inputs": [
        {
          "internalType": "address",
          "name": "_to",
          "type": "address"
        },
        {
          "internalType": "uint256",
          "name": "_amount",
          "type": "uint256"
        },
        {
          "internalType": "uint16",
          "name": "_variant",
          "type": "uint16"
        },
        {
          "internalType": "uint8",
          "name": "_tier",
          "type": "uint8"
        }
      ],
      "name": "createShips",
      "outputs": [],
      "stateMutability": "nonpayable",
      "type": "function"
    },
    {
      "inputs": [
        {
          "internalType": "address",
          "name": "_to",
          "type": "address"
        },
        {
          "components": [
            {
              "internalType": "string",
              "name": "name",
              "type": "string"
            },
            {
              "internalType": "uint256",
              "name": "id",
              "type": "uint256"
            },
            {
              "components": [
                {
                  "internalType": "enum MainWeapon",
                  "name": "mainWeapon",
                  "type": "uint8"
                },
                {
                  "internalType": "enum Armor",
                  "name": "armor",
                  "type": "uint8"
                },
                {
                  "internalType": "enum Shields",
                  "name": "shields",
                  "type": "uint8"
                },
                {
                  "internalType": "enum Special",
                  "name": "special",
                  "type": "uint8"
                }
              ],
              "internalType": "struct Equipment",
              "name": "equipment",
              "type": "tuple"
            },
            {
              "components": [
                {
                  "internalType": "uint256",
                  "name": "serialNumber",
                  "type": "uint256"
                },
                {
                  "components": [
                    {
                      "internalType": "uint16",
                      "name": "h1",
                      "type": "uint16"
                    },
                    {
                      "internalType": "uint8",
                      "name": "s1",
                      "type": "uint8"
                    },
                    {
                      "internalType": "uint8",
                      "name": "l1",
                      "type": "uint8"
                    },
                    {
                      "internalType": "uint16",
                      "name": "h2",
                      "type": "uint16"
                    },
                    {
                      "internalType": "uint8",
                      "name": "s2",
                      "type": "uint8"
                    },
                    {
                      "internalType": "uint8",
                      "name": "l2",
                      "type": "uint8"
                    },
                    {
                      "internalType": "uint16",
                      "name": "h3",
                      "type": "uint16"
                    },
                    {
                      "internalType": "uint8",
                      "name": "s3",
                      "type": "uint8"
                    },
                    {
                      "internalType": "uint8",
                      "name": "l3",
                      "type": "uint8"
                    }
                  ],
                  "internalType": "struct Colors",
                  "name": "colors",
                  "type": "tuple"
                },
                {
                  "internalType": "uint16",
                  "name": "variant",
                  "type": "uint16"
                },
                {
                  "internalType": "uint8",
                  "name": "accuracy",
                  "type": "uint8"
                },
                {
                  "internalType": "uint8",
                  "name": "hull",
                  "type": "uint8"
                },
                {
                  "internalType": "uint8",
                  "name": "speed",
                  "type": "uint8"
                }
              ],
              "internalType": "struct Traits",
              "name": "traits",
              "type": "tuple"
            },
            {
              "components": [
                {
                  "internalType": "uint32",
                  "name": "shipsDestroyed",
                  "type": "uint32"
                },
                {
                  "internalType": "uint16",
                  "name": "costsVersion",
                  "type": "uint16"
                },
                {
                  "internalType": "uint16",
                  "name": "cost",
                  "type": "uint16"
                },
                {
                  "internalType": "uint16",
                  "name": "modified",
                  "type": "uint16"
                },
                {
                  "internalType": "bool",
                  "name": "shiny",
                  "type": "bool"
                },
                {
                  "internalType": "bool",
                  "name": "constructed",
                  "type": "bool"
                },
                {
                  "internalType": "bool",
                  "name": "inFleet",
                  "type": "bool"
                },
                {
                  "internalType": "bool",
                  "name": "isFreeShip",
                  "type": "bool"
                },
                {
                  "internalType": "uint256",
                  "name": "timestampDestroyed",
                  "type": "uint256"
                }
              ],
              "internalType": "struct ShipData",
              "name": "shipData",
              "type": "tuple"
            },
            {
              "internalType": "address",
              "name": "owner",
              "type": "address"
            }
          ],
          "internalType": "struct Ship",
          "name": "_ship",
          "type": "tuple"
        }
      ],
      "name": "createSpecificShip",
      "outputs": [
        {
          "internalType": "uint256",
          "name": "",
          "type": "uint256"
        }
      ],
      "stateMutability": "nonpayable",
      "type": "function"
    },
    {
      "inputs": [
        {
          "internalType": "uint256",
          "name": "_id",
          "type": "uint256"
        },
        {
          "components": [
            {
              "internalType": "string",
              "name": "name",
              "type": "string"
            },
            {
              "internalType": "uint256",
              "name": "id",
              "type": "uint256"
            },
            {
              "components": [
                {
                  "internalType": "enum MainWeapon",
                  "name": "mainWeapon",
                  "type": "uint8"
                },
                {
                  "internalType": "enum Armor",
                  "name": "armor",
                  "type": "uint8"
                },
                {
                  "internalType": "enum Shields",
                  "name": "shields",
                  "type": "uint8"
                },
                {
                  "internalType": "enum Special",
                  "name": "special",
                  "type": "uint8"
                }
              ],
              "internalType": "struct Equipment",
              "name": "equipment",
              "type": "tuple"
            },
            {
              "components": [
                {
                  "internalType": "uint256",
                  "name": "serialNumber",
                  "type": "uint256"
                },
                {
                  "components": [
                    {
                      "internalType": "uint16",
                      "name": "h1",
                      "type": "uint16"
                    },
                    {
                      "internalType": "uint8",
                      "name": "s1",
                      "type": "uint8"
                    },
                    {
                      "internalType": "uint8",
                      "name": "l1",
                      "type": "uint8"
                    },
                    {
                      "internalType": "uint16",
                      "name": "h2",
                      "type": "uint16"
                    },
                    {
                      "internalType": "uint8",
                      "name": "s2",
                      "type": "uint8"
                    },
                    {
                      "internalType": "uint8",
                      "name": "l2",
                      "type": "uint8"
                    },
                    {
                      "internalType": "uint16",
                      "name": "h3",
                      "type": "uint16"
                    },
                    {
                      "internalType": "uint8",
                      "name": "s3",
                      "type": "uint8"
                    },
                    {
                      "internalType": "uint8",
                      "name": "l3",
                      "type": "uint8"
                    }
                  ],
                  "internalType": "struct Colors",
                  "name": "colors",
                  "type": "tuple"
                },
                {
                  "internalType": "uint16",
                  "name": "variant",
                  "type": "uint16"
                },
                {
                  "internalType": "uint8",
                  "name": "accuracy",
                  "type": "uint8"
                },
                {
                  "internalType": "uint8",
                  "name": "hull",
                  "type": "uint8"
                },
                {
                  "internalType": "uint8",
                  "name": "speed",
                  "type": "uint8"
                }
              ],
              "internalType": "struct Traits",
              "name": "traits",
              "type": "tuple"
            },
            {
              "components": [
                {
                  "internalType": "uint32",
                  "name": "shipsDestroyed",
                  "type": "uint32"
                },
                {
                  "internalType": "uint16",
                  "name": "costsVersion",
                  "type": "uint16"
                },
                {
                  "internalType": "uint16",
                  "name": "cost",
                  "type": "uint16"
                },
                {
                  "internalType": "uint16",
                  "name": "modified",
                  "type": "uint16"
                },
                {
                  "internalType": "bool",
                  "name": "shiny",
                  "type": "bool"
                },
                {
                  "internalType": "bool",
                  "name": "constructed",
                  "type": "bool"
                },
                {
                  "internalType": "bool",
                  "name": "inFleet",
                  "type": "bool"
                },
                {
                  "internalType": "bool",
                  "name": "isFreeShip",
                  "type": "bool"
                },
                {
                  "internalType": "uint256",
                  "name": "timestampDestroyed",
                  "type": "uint256"
                }
              ],
              "internalType": "struct ShipData",
              "name": "shipData",
              "type": "tuple"
            },
            {
              "internalType": "address",
              "name": "owner",
              "type": "address"
            }
          ],
          "internalType": "struct Ship",
          "name": "_ship",
          "type": "tuple"
        }
      ],
      "name": "customizeShip",
      "outputs": [],
      "stateMutability": "nonpayable",
      "type": "function"
    },
    {
      "inputs": [
        {
          "internalType": "uint256",
          "name": "tokenId",
          "type": "uint256"
        }
      ],
      "name": "getApproved",
      "outputs": [
        {
          "internalType": "address",
          "name": "",
          "type": "address"
        }
      ],
      "stateMutability": "view",
      "type": "function"
    },
    {
      "inputs": [],
      "name": "getPurchaseInfo",
      "outputs": [
        {
          "internalType": "uint8[]",
          "name": "_tierShips",
          "type": "uint8[]"
        },
        {
          "internalType": "uint256[]",
          "name": "_tierPrices",
          "type": "uint256[]"
        }
      ],
      "stateMutability": "view",
      "type": "function"
    },
    {
      "inputs": [
        {
          "internalType": "uint256",
          "name": "_id",
          "type": "uint256"
        }
      ],
      "name": "getShip",
      "outputs": [
        {
          "components": [
            {
              "internalType": "string",
              "name": "name",
              "type": "string"
            },
            {
              "internalType": "uint256",
              "name": "id",
              "type": "uint256"
            },
            {
              "components": [
                {
                  "internalType": "enum MainWeapon",
                  "name": "mainWeapon",
                  "type": "uint8"
                },
                {
                  "internalType": "enum Armor",
                  "name": "armor",
                  "type": "uint8"
                },
                {
                  "internalType": "enum Shields",
                  "name": "shields",
                  "type": "uint8"
                },
                {
                  "internalType": "enum Special",
                  "name": "special",
                  "type": "uint8"
                }
              ],
              "internalType": "struct Equipment",
              "name": "equipment",
              "type": "tuple"
            },
            {
              "components": [
                {
                  "internalType": "uint256",
                  "name": "serialNumber",
                  "type": "uint256"
                },
                {
                  "components": [
                    {
                      "internalType": "uint16",
                      "name": "h1",
                      "type": "uint16"
                    },
                    {
                      "internalType": "uint8",
                      "name": "s1",
                      "type": "uint8"
                    },
                    {
                      "internalType": "uint8",
                      "name": "l1",
                      "type": "uint8"
                    },
                    {
                      "internalType": "uint16",
                      "name": "h2",
                      "type": "uint16"
                    },
                    {
                      "internalType": "uint8",
                      "name": "s2",
                      "type": "uint8"
                    },
                    {
                      "internalType": "uint8",
                      "name": "l2",
                      "type": "uint8"
                    },
                    {
                      "internalType": "uint16",
                      "name": "h3",
                      "type": "uint16"
                    },
                    {
                      "internalType": "uint8",
                      "name": "s3",
                      "type": "uint8"
                    },
                    {
                      "internalType": "uint8",
                      "name": "l3",
                      "type": "uint8"
                    }
                  ],
                  "internalType": "struct Colors",
                  "name": "colors",
                  "type": "tuple"
                },
                {
                  "internalType": "uint16",
                  "name": "variant",
                  "type": "uint16"
                },
                {
                  "internalType": "uint8",
                  "name": "accuracy",
                  "type": "uint8"
                },
                {
                  "internalType": "uint8",
                  "name": "hull",
                  "type": "uint8"
                },
                {
                  "internalType": "uint8",
                  "name": "speed",
                  "type": "uint8"
                }
              ],
              "internalType": "struct Traits",
              "name": "traits",
              "type": "tuple"
            },
            {
              "components": [
                {
                  "internalType": "uint32",
                  "name": "shipsDestroyed",
                  "type": "uint32"
                },
                {
                  "internalType": "uint16",
                  "name": "costsVersion",
                  "type": "uint16"
                },
                {
                  "internalType": "uint16",
                  "name": "cost",
                  "type": "uint16"
                },
                {
                  "internalType": "uint16",
                  "name": "modified",
                  "type": "uint16"
                },
                {
                  "internalType": "bool",
                  "name": "shiny",
                  "type": "bool"
                },
                {
                  "internalType": "bool",
                  "name": "constructed",
                  "type": "bool"
                },
                {
                  "internalType": "bool",
                  "name": "inFleet",
                  "type": "bool"
                },
                {
                  "internalType": "bool",
                  "name": "isFreeShip",
                  "type": "bool"
                },
                {
                  "internalType": "uint256",
                  "name": "timestampDestroyed",
                  "type": "uint256"
                }
              ],
              "internalType": "struct ShipData",
              "name": "shipData",
              "type": "tuple"
            },
            {
              "internalType": "address",
              "name": "owner",
              "type": "address"
            }
          ],
          "internalType": "struct Ship",
          "name": "",
          "type": "tuple"
        }
      ],
      "stateMutability": "view",
      "type": "function"
    },
    {
      "inputs": [
        {
          "internalType": "address",
          "name": "_owner",
          "type": "address"
        }
      ],
      "name": "getShipIdsOwned",
      "outputs": [
        {
          "internalType": "uint256[]",
          "name": "",
          "type": "uint256[]"
        }
      ],
      "stateMutability": "view",
      "type": "function"
    },
    {
      "inputs": [
        {
          "internalType": "uint256[]",
          "name": "_ids",
          "type": "uint256[]"
        }
      ],
      "name": "getShipsByIds",
      "outputs": [
        {
          "components": [
            {
              "internalType": "string",
              "name": "name",
              "type": "string"
            },
            {
              "internalType": "uint256",
              "name": "id",
              "type": "uint256"
            },
            {
              "components": [
                {
                  "internalType": "enum MainWeapon",
                  "name": "mainWeapon",
                  "type": "uint8"
                },
                {
                  "internalType": "enum Armor",
                  "name": "armor",
                  "type": "uint8"
                },
                {
                  "internalType": "enum Shields",
                  "name": "shields",
                  "type": "uint8"
                },
                {
                  "internalType": "enum Special",
                  "name": "special",
                  "type": "uint8"
                }
              ],
              "internalType": "struct Equipment",
              "name": "equipment",
              "type": "tuple"
            },
            {
              "components": [
                {
                  "internalType": "uint256",
                  "name": "serialNumber",
                  "type": "uint256"
                },
                {
                  "components": [
                    {
                      "internalType": "uint16",
                      "name": "h1",
                      "type": "uint16"
                    },
                    {
                      "internalType": "uint8",
                      "name": "s1",
                      "type": "uint8"
                    },
                    {
                      "internalType": "uint8",
                      "name": "l1",
                      "type": "uint8"
                    },
                    {
                      "internalType": "uint16",
                      "name": "h2",
                      "type": "uint16"
                    },
                    {
                      "internalType": "uint8",
                      "name": "s2",
                      "type": "uint8"
                    },
                    {
                      "internalType": "uint8",
                      "name": "l2",
                      "type": "uint8"
                    },
                    {
                      "internalType": "uint16",
                      "name": "h3",
                      "type": "uint16"
                    },
                    {
                      "internalType": "uint8",
                      "name": "s3",
                      "type": "uint8"
                    },
                    {
                      "internalType": "uint8",
                      "name": "l3",
                      "type": "uint8"
                    }
                  ],
                  "internalType": "struct Colors",
                  "name": "colors",
                  "type": "tuple"
                },
                {
                  "internalType": "uint16",
                  "name": "variant",
                  "type": "uint16"
                },
                {
                  "internalType": "uint8",
                  "name": "accuracy",
                  "type": "uint8"
                },
                {
                  "internalType": "uint8",
                  "name": "hull",
                  "type": "uint8"
                },
                {
                  "internalType": "uint8",
                  "name": "speed",
                  "type": "uint8"
                }
              ],
              "internalType": "struct Traits",
              "name": "traits",
              "type": "tuple"
            },
            {
              "components": [
                {
                  "internalType": "uint32",
                  "name": "shipsDestroyed",
                  "type": "uint32"
                },
                {
                  "internalType": "uint16",
                  "name": "costsVersion",
                  "type": "uint16"
                },
                {
                  "internalType": "uint16",
                  "name": "cost",
                  "type": "uint16"
                },
                {
                  "internalType": "uint16",
                  "name": "modified",
                  "type": "uint16"
                },
                {
                  "internalType": "bool",
                  "name": "shiny",
                  "type": "bool"
                },
                {
                  "internalType": "bool",
                  "name": "constructed",
                  "type": "bool"
                },
                {
                  "internalType": "bool",
                  "name": "inFleet",
                  "type": "bool"
                },
                {
                  "internalType": "bool",
                  "name": "isFreeShip",
                  "type": "bool"
                },
                {
                  "internalType": "uint256",
                  "name": "timestampDestroyed",
                  "type": "uint256"
                }
              ],
              "internalType": "struct ShipData",
              "name": "shipData",
              "type": "tuple"
            },
            {
              "internalType": "address",
              "name": "owner",
              "type": "address"
            }
          ],
          "internalType": "struct Ship[]",
          "name": "",
          "type": "tuple[]"
        }
      ],
      "stateMutability": "view",
      "type": "function"
    },
    {
      "inputs": [
        {
          "internalType": "uint256",
          "name": "_trait",
          "type": "uint256"
        }
      ],
      "name": "getTierOfTrait",
      "outputs": [
        {
          "internalType": "uint8",
          "name": "",
          "type": "uint8"
        }
      ],
      "stateMutability": "pure",
      "type": "function"
    },
    {
      "inputs": [
        {
          "internalType": "address",
          "name": "",
          "type": "address"
        }
      ],
      "name": "isAllowedToCreateShips",
      "outputs": [
        {
          "internalType": "bool",
          "name": "",
          "type": "bool"
        }
      ],
      "stateMutability": "view",
      "type": "function"
    },
    {
      "inputs": [
        {
          "internalType": "address",
          "name": "owner",
          "type": "address"
        },
        {
          "internalType": "address",
          "name": "operator",
          "type": "address"
        }
      ],
      "name": "isApprovedForAll",
      "outputs": [
        {
          "internalType": "bool",
          "name": "",
          "type": "bool"
        }
      ],
      "stateMutability": "view",
      "type": "function"
    },
    {
      "inputs": [
        {
          "internalType": "uint256",
          "name": "_id",
          "type": "uint256"
        }
      ],
      "name": "isShipDestroyed",
      "outputs": [
        {
          "internalType": "bool",
          "name": "",
          "type": "bool"
        }
      ],
      "stateMutability": "view",
      "type": "function"
    },
    {
      "inputs": [
        {
          "internalType": "address",
          "name": "",
          "type": "address"
        }
      ],
      "name": "lastClaimTimestamp",
      "outputs": [
        {
          "internalType": "uint256",
          "name": "",
          "type": "uint256"
        }
      ],
      "stateMutability": "view",
      "type": "function"
    },
    {
      "inputs": [],
      "name": "maxVariant",
      "outputs": [
        {
          "internalType": "uint16",
          "name": "",
          "type": "uint16"
        }
      ],
      "stateMutability": "view",
      "type": "function"
    },
    {
      "inputs": [],
      "name": "name",
      "outputs": [
        {
          "internalType": "string",
          "name": "",
          "type": "string"
        }
      ],
      "stateMutability": "view",
      "type": "function"
    },
    {
      "inputs": [],
      "name": "owner",
      "outputs": [
        {
          "internalType": "address",
          "name": "",
          "type": "address"
        }
      ],
      "stateMutability": "view",
      "type": "function"
    },
    {
      "inputs": [
        {
          "internalType": "uint256",
          "name": "tokenId",
          "type": "uint256"
        }
      ],
      "name": "ownerOf",
      "outputs": [
        {
          "internalType": "address",
          "name": "",
          "type": "address"
        }
      ],
      "stateMutability": "view",
      "type": "function"
    },
    {
      "inputs": [],
      "name": "paused",
      "outputs": [
        {
          "internalType": "bool",
          "name": "",
          "type": "bool"
        }
      ],
      "stateMutability": "view",
      "type": "function"
    },
    {
      "inputs": [
        {
          "internalType": "address",
          "name": "_to",
          "type": "address"
        },
        {
          "internalType": "uint8",
          "name": "_tier",
          "type": "uint8"
        },
        {
          "internalType": "address",
          "name": "_referral",
          "type": "address"
        },
        {
          "internalType": "uint16",
          "name": "_variant",
          "type": "uint16"
        }
      ],
      "name": "purchaseWithFlow",
      "outputs": [],
      "stateMutability": "payable",
      "type": "function"
    },
    {
      "inputs": [],
      "name": "recycleReward",
      "outputs": [
        {
          "internalType": "uint256",
          "name": "",
          "type": "uint256"
        }
      ],
      "stateMutability": "view",
      "type": "function"
    },
    {
      "inputs": [
        {
          "internalType": "address",
          "name": "",
          "type": "address"
        }
      ],
      "name": "referralCount",
      "outputs": [
        {
          "internalType": "uint256",
          "name": "",
          "type": "uint256"
        }
      ],
      "stateMutability": "view",
      "type": "function"
    },
    {
      "inputs": [],
      "name": "renounceOwnership",
      "outputs": [],
      "stateMutability": "nonpayable",
      "type": "function"
    },
    {
      "inputs": [
        {
          "internalType": "address",
          "name": "from",
          "type": "address"
        },
        {
          "internalType": "address",
          "name": "to",
          "type": "address"
        },
        {
          "internalType": "uint256",
          "name": "tokenId",
          "type": "uint256"
        }
      ],
      "name": "safeTransferFrom",
      "outputs": [],
      "stateMutability": "nonpayable",
      "type": "function"
    },
    {
      "inputs": [
        {
          "internalType": "address",
          "name": "from",
          "type": "address"
        },
        {
          "internalType": "address",
          "name": "to",
          "type": "address"
        },
        {
          "internalType": "uint256",
          "name": "tokenId",
          "type": "uint256"
        },
        {
          "internalType": "bytes",
          "name": "data",
          "type": "bytes"
        }
      ],
      "name": "safeTransferFrom",
      "outputs": [],
      "stateMutability": "nonpayable",
      "type": "function"
    },
    {
      "inputs": [
        {
          "internalType": "address",
          "name": "operator",
          "type": "address"
        },
        {
          "internalType": "bool",
          "name": "approved",
          "type": "bool"
        }
      ],
      "name": "setApprovalForAll",
      "outputs": [],
      "stateMutability": "nonpayable",
      "type": "function"
    },
    {
      "inputs": [
        {
          "internalType": "uint256",
          "name": "_newCooldownPeriod",
          "type": "uint256"
        }
      ],
      "name": "setClaimCooldownPeriod",
      "outputs": [],
      "stateMutability": "nonpayable",
      "type": "function"
    },
    {
      "inputs": [
        {
          "internalType": "address",
          "name": "_gameAddress",
          "type": "address"
        },
        {
          "internalType": "address",
          "name": "_lobbyAddress",
          "type": "address"
        },
        {
          "internalType": "address",
          "name": "_fleetsAddress",
          "type": "address"
        },
        {
          "internalType": "address",
          "name": "_shipGenerator",
          "type": "address"
        },
        {
          "internalType": "address",
          "name": "_randomManager",
          "type": "address"
        },
        {
          "internalType": "address",
          "name": "_metadataRenderer",
          "type": "address"
        },
        {
          "internalType": "address",
          "name": "_shipAttributes",
          "type": "address"
        },
        {
          "internalType": "address",
          "name": "_universalCredits",
          "type": "address"
        }
      ],
      "name": "setConfig",
      "outputs": [],
      "stateMutability": "nonpayable",
      "type": "function"
    },
    {
      "inputs": [
        {
          "internalType": "uint256",
          "name": "_id",
          "type": "uint256"
        }
      ],
      "name": "setCostOfShip",
      "outputs": [],
      "stateMutability": "nonpayable",
      "type": "function"
    },
    {
      "inputs": [
        {
          "internalType": "uint256",
          "name": "_id",
          "type": "uint256"
        },
        {
          "internalType": "bool",
          "name": "_inFleet",
          "type": "bool"
        }
      ],
      "name": "setInFleet",
      "outputs": [],
      "stateMutability": "nonpayable",
      "type": "function"
    },
    {
      "inputs": [
        {
          "internalType": "address",
          "name": "_address",
          "type": "address"
        },
        {
          "internalType": "bool",
          "name": "_isAllowed",
          "type": "bool"
        }
      ],
      "name": "setIsAllowedToCreateShips",
      "outputs": [],
      "stateMutability": "nonpayable",
      "type": "function"
    },
    {
      "inputs": [
        {
          "internalType": "uint16",
          "name": "_maxVariant",
          "type": "uint16"
        }
      ],
      "name": "setMaxVariant",
      "outputs": [],
      "stateMutability": "nonpayable",
      "type": "function"
    },
    {
      "inputs": [
        {
          "internalType": "bool",
          "name": "_paused",
          "type": "bool"
        }
      ],
      "name": "setPaused",
      "outputs": [],
      "stateMutability": "nonpayable",
      "type": "function"
    },
    {
      "inputs": [
        {
          "internalType": "uint8[]",
          "name": "_tierShips",
          "type": "uint8[]"
        },
        {
          "internalType": "uint256[]",
          "name": "_tierPrices",
          "type": "uint256[]"
        }
      ],
      "name": "setPurchaseInfo",
      "outputs": [],
      "stateMutability": "nonpayable",
      "type": "function"
    },
    {
      "inputs": [
        {
          "internalType": "uint256",
          "name": "_newReward",
          "type": "uint256"
        }
      ],
      "name": "setRecycleReward",
      "outputs": [],
      "stateMutability": "nonpayable",
      "type": "function"
    },
    {
      "inputs": [
        {
          "internalType": "uint256",
          "name": "_id",
          "type": "uint256"
        },
        {
          "internalType": "uint256",
          "name": "_destroyerId",
          "type": "uint256"
        }
      ],
      "name": "setTimestampDestroyed",
      "outputs": [],
      "stateMutability": "nonpayable",
      "type": "function"
    },
    {
      "inputs": [
        {
          "internalType": "uint256[]",
          "name": "_shipIds",
          "type": "uint256[]"
        }
      ],
      "name": "shipBreaker",
      "outputs": [],
      "stateMutability": "nonpayable",
      "type": "function"
    },
    {
      "inputs": [],
      "name": "shipCount",
      "outputs": [
        {
          "internalType": "uint256",
          "name": "",
          "type": "uint256"
        }
      ],
      "stateMutability": "view",
      "type": "function"
    },
    {
      "inputs": [
        {
          "internalType": "uint256",
          "name": "",
          "type": "uint256"
        }
      ],
      "name": "ships",
      "outputs": [
        {
          "internalType": "string",
          "name": "name",
          "type": "string"
        },
        {
          "internalType": "uint256",
          "name": "id",
          "type": "uint256"
        },
        {
          "components": [
            {
              "internalType": "enum MainWeapon",
              "name": "mainWeapon",
              "type": "uint8"
            },
            {
              "internalType": "enum Armor",
              "name": "armor",
              "type": "uint8"
            },
            {
              "internalType": "enum Shields",
              "name": "shields",
              "type": "uint8"
            },
            {
              "internalType": "enum Special",
              "name": "special",
              "type": "uint8"
            }
          ],
          "internalType": "struct Equipment",
          "name": "equipment",
          "type": "tuple"
        },
        {
          "components": [
            {
              "internalType": "uint256",
              "name": "serialNumber",
              "type": "uint256"
            },
            {
              "components": [
                {
                  "internalType": "uint16",
                  "name": "h1",
                  "type": "uint16"
                },
                {
                  "internalType": "uint8",
                  "name": "s1",
                  "type": "uint8"
                },
                {
                  "internalType": "uint8",
                  "name": "l1",
                  "type": "uint8"
                },
                {
                  "internalType": "uint16",
                  "name": "h2",
                  "type": "uint16"
                },
                {
                  "internalType": "uint8",
                  "name": "s2",
                  "type": "uint8"
                },
                {
                  "internalType": "uint8",
                  "name": "l2",
                  "type": "uint8"
                },
                {
                  "internalType": "uint16",
                  "name": "h3",
                  "type": "uint16"
                },
                {
                  "internalType": "uint8",
                  "name": "s3",
                  "type": "uint8"
                },
                {
                  "internalType": "uint8",
                  "name": "l3",
                  "type": "uint8"
                }
              ],
              "internalType": "struct Colors",
              "name": "colors",
              "type": "tuple"
            },
            {
              "internalType": "uint16",
              "name": "variant",
              "type": "uint16"
            },
            {
              "internalType": "uint8",
              "name": "accuracy",
              "type": "uint8"
            },
            {
              "internalType": "uint8",
              "name": "hull",
              "type": "uint8"
            },
            {
              "internalType": "uint8",
              "name": "speed",
              "type": "uint8"
            }
          ],
          "internalType": "struct Traits",
          "name": "traits",
          "type": "tuple"
        },
        {
          "components": [
            {
              "internalType": "uint32",
              "name": "shipsDestroyed",
              "type": "uint32"
            },
            {
              "internalType": "uint16",
              "name": "costsVersion",
              "type": "uint16"
            },
            {
              "internalType": "uint16",
              "name": "cost",
              "type": "uint16"
            },
            {
              "internalType": "uint16",
              "name": "modified",
              "type": "uint16"
            },
            {
              "internalType": "bool",
              "name": "shiny",
              "type": "bool"
            },
            {
              "internalType": "bool",
              "name": "constructed",
              "type": "bool"
            },
            {
              "internalType": "bool",
              "name": "inFleet",
              "type": "bool"
            },
            {
              "internalType": "bool",
              "name": "isFreeShip",
              "type": "bool"
            },
            {
              "internalType": "uint256",
              "name": "timestampDestroyed",
              "type": "uint256"
            }
          ],
          "internalType": "struct ShipData",
          "name": "shipData",
          "type": "tuple"
        },
        {
          "internalType": "address",
          "name": "owner",
          "type": "address"
        }
      ],
      "stateMutability": "view",
      "type": "function"
    },
    {
      "inputs": [
        {
          "internalType": "bytes4",
          "name": "interfaceId",
          "type": "bytes4"
        }
      ],
      "name": "supportsInterface",
      "outputs": [
        {
          "internalType": "bool",
          "name": "",
          "type": "bool"
        }
      ],
      "stateMutability": "view",
      "type": "function"
    },
    {
      "inputs": [],
      "name": "symbol",
      "outputs": [
        {
          "internalType": "string",
          "name": "",
          "type": "string"
        }
      ],
      "stateMutability": "view",
      "type": "function"
    },
    {
      "inputs": [
        {
          "internalType": "uint256[]",
          "name": "_ids",
          "type": "uint256[]"
        }
      ],
      "name": "syncShipCosts",
      "outputs": [],
      "stateMutability": "nonpayable",
      "type": "function"
    },
    {
      "inputs": [
        {
          "internalType": "uint256",
          "name": "",
          "type": "uint256"
        }
      ],
      "name": "tierPrices",
      "outputs": [
        {
          "internalType": "uint256",
          "name": "",
          "type": "uint256"
        }
      ],
      "stateMutability": "view",
      "type": "function"
    },
    {
      "inputs": [
        {
          "internalType": "uint256",
          "name": "",
          "type": "uint256"
        }
      ],
      "name": "tierShips",
      "outputs": [
        {
          "internalType": "uint8",
          "name": "",
          "type": "uint8"
        }
      ],
      "stateMutability": "view",
      "type": "function"
    },
    {
      "inputs": [
        {
          "internalType": "uint256",
          "name": "_id",
          "type": "uint256"
        }
      ],
      "name": "tokenURI",
      "outputs": [
        {
          "internalType": "string",
          "name": "",
          "type": "string"
        }
      ],
      "stateMutability": "view",
      "type": "function"
    },
    {
      "inputs": [
        {
          "internalType": "address",
          "name": "from",
          "type": "address"
        },
        {
          "internalType": "address",
          "name": "to",
          "type": "address"
        },
        {
          "internalType": "uint256",
          "name": "tokenId",
          "type": "uint256"
        }
      ],
      "name": "transferFrom",
      "outputs": [],
      "stateMutability": "nonpayable",
      "type": "function"
    },
    {
      "inputs": [
        {
          "internalType": "address",
          "name": "newOwner",
          "type": "address"
        }
      ],
      "name": "transferOwnership",
      "outputs": [],
      "stateMutability": "nonpayable",
      "type": "function"
    },
    {
      "inputs": [],
      "name": "universalCredits",
      "outputs": [
        {
          "internalType": "contract IUniversalCredits",
          "name": "",
          "type": "address"
        }
      ],
      "stateMutability": "view",
      "type": "function"
    },
    {
      "inputs": [],
      "name": "withdraw",
      "outputs": [],
      "stateMutability": "nonpayable",
      "type": "function"
    }
  ],
  "bytecode": "0x60806040526224ea00600d556018805462ffff00191661010017905567016345785d8a0000601b5534801561003357600080fd5b5060405161639f38038061639f83398101604081905261005291610304565b3360405180604001604052806012815260200171566f6964205461637469637320536869707360701b815250604051806040016040528060048152602001630534849560e41b81525081600090816100aa91906103d3565b5060016100b782826103d3565b5050506001600160a01b0381166100e857604051631e4fbdf760e01b81526000600482015260240160405180910390fd5b6100f1816101b1565b506001600755601280546001600160a01b0319166001600160a01b0383161790556040805160a0810182526005808252600b6020830152601692820183905260286060830152603c6080830152610149929190610203565b506040805160a0810182526745400a8fd53300008152678aa39c121a27000060208201526801156abf16a40f0000918101919091526801e595739d72eb000060608201526802b5c0282441c7000060808201526101aa9060179060056102a9565b5050610491565b600680546001600160a01b038381166001600160a01b0319831681179093556040519116919082907f8be0079c531659141344cd1fd0a4f28419497f9722a3daafe3b4186f6b6457e090600090a35050565b82805482825590600052602060002090601f016020900481019282156102995791602002820160005b8382111561026a57835183826101000a81548160ff021916908360ff160217905550926020019260010160208160000104928301926001030261022c565b80156102975782816101000a81549060ff021916905560010160208160000104928301926001030261026a565b505b506102a59291506102ef565b5090565b828054828255906000526020600020908101928215610299579160200282015b8281111561029957825182906001600160481b03169055916020019190600101906102c9565b5b808211156102a557600081556001016102f0565b60006020828403121561031657600080fd5b81516001600160a01b038116811461032d57600080fd5b9392505050565b634e487b7160e01b600052604160045260246000fd5b600181811c9082168061035e57607f821691505b60208210810361037e57634e487b7160e01b600052602260045260246000fd5b50919050565b601f8211156103ce57806000526020600020601f840160051c810160208510156103ab5750805b601f840160051c820191505b818110156103cb57600081556001016103b7565b50505b505050565b81516001600160401b038111156103ec576103ec610334565b610400816103fa845461034a565b84610384565b6020601f821160018114610434576000831561041c5750848201515b600019600385901b1c1916600184901b1784556103cb565b600084815260208120601f198516915b828110156104645787850151825560209485019460019092019101610444565b50848210156104825786840151600019600387901b60f8161c191681555b50505050600190811b01905550565b615eff806104a06000396000f3fe6080604052600436106102855760003560e01c8062dbc7381461028a57806301ffc9a7146102ac57806306fdde03146102e1578063074ba79d14610303578063081812fc1461033e578063095ea7b31461036b57806311a960cd1461038b57806316c38b3c146103ab57806317225941146103cb5780631a0111aa146103eb5780631ca0df9e1461040b57806323b872dd1461042b578063300eccab1461044b5780633ccfd60b1461046b5780634025b22d1461048057806342842e0e146104ad5780634346b150146104cd578063446c00f7146104ed57806348cfc19e1461050d5780634d4e8dfa14610530578063514c2ece1461056257806359e651e0146105825780635b91bbca146105af5780635c975abb146105cf578063600917ff146105e957806361212431146105fc578063614008f11461062e5780636352211e1461064e57806368382aad1461066e5780636e0f7a48146106a157806370a08231146106c1578063710cbc44146106e1578063715018a6146106f757806375bfe4201461070c57806378fa901c1461073c57806379502c551461075c5780637d9e9d30146107ea5780637eebe99d1461080a5780638163997c1461082a5780638c79d7e31461083f5780638da5cb5b1461085f578063959601011461087457806395d89b41146108a6578063977216c2146108bb578063a22cb465146108db578063b4e847a0146108fb578063b88d4fde14610911578063bd9d518b14610931578063c87b56dd1461095e578063d08acd931461097e578063db74559b14610994578063dd770712146109c1578063dd81d5bf146109e1578063e6b5c33514610a01578063e985e9c514610a21578063f25a034214610a41578063f2fde38b14610a6e575b600080fd5b34801561029657600080fd5b506102aa6102a536600461436c565b610a8e565b005b3480156102b857600080fd5b506102cc6102c736600461442b565b610b24565b60405190151581526020015b60405180910390f35b3480156102ed57600080fd5b506102f6610b76565b6040516102d89190614498565b34801561030f57600080fd5b5061033061031e3660046144ab565b600c6020526000908152604090205481565b6040519081526020016102d8565b34801561034a57600080fd5b5061035e6103593660046144c8565b610c08565b6040516102d891906144e1565b34801561037757600080fd5b506102aa6103863660046144f5565b610c1d565b34801561039757600080fd5b506102aa6103a6366004614521565b610c2c565b3480156103b757600080fd5b506102aa6103c636600461455c565b610dee565b3480156103d757600080fd5b50601a5461035e906001600160a01b031681565b3480156103f757600080fd5b506102aa6104063660046145c4565b610e09565b34801561041757600080fd5b506102aa610426366004614633565b610e51565b34801561043757600080fd5b506102aa610446366004614674565b610e8a565b34801561045757600080fd5b506103306104663660046144c8565b610f15565b34801561047757600080fd5b506102aa610f36565b34801561048c57600080fd5b506104a061049b3660046144c8565b610fbc565b6040516102d89190614928565b3480156104b957600080fd5b506102aa6104c8366004614674565b61145b565b3480156104d957600080fd5b506102aa6104e8366004614633565b611476565b3480156104f957600080fd5b506102aa6105083660046144c8565b6115fd565b34801561051957600080fd5b5061052261165a565b6040516102d8929190614977565b34801561053c57600080fd5b5061055061054b3660046144c8565b61172b565b6040516102d8969594939291906149c8565b34801561056e57600080fd5b506102aa61057d3660046144c8565b611b91565b34801561058e57600080fd5b506105a261059d3660046144ab565b611b9e565b6040516102d89190614a2a565b3480156105bb57600080fd5b506102aa6105ca366004614a58565b611bc2565b3480156105db57600080fd5b506018546102cc9060ff1681565b6102aa6105f7366004614a8f565b611c5b565b34801561060857600080fd5b5061061c6106173660046144c8565b611dc7565b60405160ff90911681526020016102d8565b34801561063a57600080fd5b50610330610649366004614b04565b611dfb565b34801561065a57600080fd5b5061035e6106693660046144c8565b611e6e565b34801561067a57600080fd5b5060185461068e90610100900461ffff1681565b60405161ffff90911681526020016102d8565b3480156106ad57600080fd5b5061061c6106bc3660046144c8565b611e79565b3480156106cd57600080fd5b506103306106dc3660046144ab565b611ea1565b3480156106ed57600080fd5b50610330600d5481565b34801561070357600080fd5b506102aa611ee9565b34801561071857600080fd5b506102cc6107273660046144ab565b60196020526000908152604090205460ff1681565b34801561074857600080fd5b506102aa610757366004614b53565b611efd565b34801561076857600080fd5b50600f546010546011546012546013546014546015546107a1966001600160a01b03908116968116958116948116938116928116911687565b604080516001600160a01b039889168152968816602088015294871694860194909452918516606085015284166080840152831660a083015290911660c082015260e0016102d8565b3480156107f657600080fd5b506102aa610805366004614633565b611fcb565b34801561081657600080fd5b506102aa610825366004614b9b565b611fff565b34801561083657600080fd5b506102aa6120d1565b34801561084b57600080fd5b506102aa61085a366004614bcb565b612165565b34801561086b57600080fd5b5061035e612198565b34801561088057600080fd5b506102cc61088f3660046144c8565b600090815260086020526040902060070154151590565b3480156108b257600080fd5b506102f66121a7565b3480156108c757600080fd5b506102aa6108d63660046144c8565b6121b6565b3480156108e757600080fd5b506102aa6108f6366004614bcb565b6121c3565b34801561090757600080fd5b5061033060095481565b34801561091d57600080fd5b506102aa61092c366004614d11565b6121ce565b34801561093d57600080fd5b5061033061094c3660046144ab565b600b6020526000908152604090205481565b34801561096a57600080fd5b506102f66109793660046144c8565b6121e6565b34801561098a57600080fd5b50610330601b5481565b3480156109a057600080fd5b506103306109af3660046144ab565b600e6020526000908152604090205481565b3480156109cd57600080fd5b506102aa6109dc366004614d90565b61226a565b3480156109ed57600080fd5b506102aa6109fc3660046144c8565b6122b5565b348015610a0d57600080fd5b506102aa610a1c366004614a58565b612773565b348015610a2d57600080fd5b506102cc610a3c366004614dc0565b612799565b348015610a4d57600080fd5b50610a61610a5c366004614633565b6127c7565b6040516102d89190614dee565b348015610a7a57600080fd5b506102aa610a893660046144ab565b612cfd565b610a96612d38565b600f80546001600160a01b03199081166001600160a01b039a8b1617909155601080548216988a1698909817909755601180548816968916969096179095556014805487169488169490941790935560138054861692871692909217909155601280548516918616919091179055601580548416918516919091179055601a80549092169216919091179055565b60006001600160e01b031982166380ac58cd60e01b1480610b5557506001600160e01b03198216635b5e139f60e01b145b80610b7057506301ffc9a760e01b6001600160e01b03198316145b92915050565b606060008054610b8590614e53565b80601f0160208091040260200160405190810160405280929190818152602001828054610bb190614e53565b8015610bfe5780601f10610bd357610100808354040283529160200191610bfe565b820191906000526020600020905b815481529060010190602001808311610be157829003601f168201915b5050505050905090565b6000610c1382612d6a565b50610b7082612da2565b610c28828233612dbd565b5050565b610c34612198565b6001600160a01b0316336001600160a01b031614158015610c605750600f546001600160a01b03163314155b15610c895733604051634a0bfec160e01b8152600401610c8091906144e1565b60405180910390fd5b60008281526008602052604090206007015415610cbc5760405163163fe02b60e11b815260048101839052602401610c80565b600082815260086020526040908190204260079091015551600080516020615e8a83398151915290610cf19084815260200190565b60405180910390a16000818152600860205260408120600601805463ffffffff1691610d1c83614e9d565b825463ffffffff9182166101009390930a928302919092021990911617905550600081815260086020819052604090912001546001600160a01b03168015610dc857601a54601b546040516340c10f1960e01b81526001600160a01b03909216916340c10f1991610d9591859160021c90600401614ec2565b600060405180830381600087803b158015610daf57600080fd5b505af1158015610dc3573d6000803e3d6000fd5b505050505b604051838152600080516020615eaa8339815191529060200160405180910390a1505050565b610df6612d38565b6018805460ff1916911515919091179055565b610e11612d38565b828114610e315760405163512509d360e11b815260040160405180910390fd5b610e3d60168585614130565b50610e4a601783836141d9565b5050505050565b60005b81811015610e8557610e7d838383818110610e7157610e71614edb565b90506020020135612dca565b600101610e54565b505050565b6001600160a01b038216610eb4576000604051633250574960e11b8152600401610c8091906144e1565b6000610ec1838333612f31565b9050836001600160a01b0316816001600160a01b031614610f0f576040516364283d7b60e01b81526001600160a01b0380861660048301526024820184905282166044820152606401610c80565b50505050565b60178181548110610f2557600080fd5b600091825260209091200154905081565b610f3e612d38565b6000610f48612198565b6001600160a01b03164760405160006040518083038185875af1925050503d8060008114610f92576040519150601f19603f3d011682016040523d82523d6000602084013e610f97565b606091505b5050905080610fb9576040516327fcd9d160e01b815260040160405180910390fd5b50565b610fc4614214565b60008281526008602052604090819020815160c08101909252805482908290610fec90614e53565b80601f016020809104026020016040519081016040528092919081815260200182805461101890614e53565b80156110655780601f1061103a57610100808354040283529160200191611065565b820191906000526020600020905b81548152906001019060200180831161104857829003601f168201915b5050509183525050600182015460208201526040805160808101825260028401805492909301929091829060ff1660078111156110a4576110a46146b5565b60078111156110b5576110b56146b5565b81528154602090910190610100900460ff1660078111156110d8576110d86146b5565b60078111156110e9576110e96146b5565b8152815460209091019062010000900460ff16600781111561110d5761110d6146b5565b600781111561111e5761111e6146b5565b815281546020909101906301000000900460ff166007811115611143576111436146b5565b6007811115611154576111546146b5565b815250508152602001600382016040518060c00160405290816000820154815260200160018201604051806101200160405290816000820160009054906101000a900461ffff1661ffff1661ffff1681526020016000820160029054906101000a900460ff1660ff1660ff1681526020016000820160039054906101000a900460ff1660ff1660ff1681526020016000820160049054906101000a900461ffff1661ffff1661ffff1681526020016000820160069054906101000a900460ff1660ff1660ff1681526020016000820160079054906101000a900460ff1660ff1660ff1681526020016000820160089054906101000a900461ffff1661ffff1661ffff16815260200160008201600a9054906101000a900460ff1660ff1660ff16815260200160008201600b9054906101000a900460ff1660ff1660ff168152505081526020016002820160009054906101000a900461ffff1661ffff1661ffff1681526020016002820160029054906101000a900460ff1660ff1660ff1681526020016002820160039054906101000a900460ff1660ff1660ff1681526020016002820160049054906101000a900460ff1660ff1660ff1681525050815260200160068201604051806101200160405290816000820160009054906101000a900463ffffffff1663ffffffff1663ffffffff1681526020016000820160049054906101000a900461ffff1661ffff1661ffff1681526020016000820160069054906101000a900461ffff1661ffff1661ffff1681526020016000820160089054906101000a900461ffff1661ffff1661ffff16815260200160008201600a9054906101000a900460ff1615151515815260200160008201600b9054906101000a900460ff1615151515815260200160008201600c9054906101000a900460ff1615151515815260200160008201600d9054906101000a900460ff1615151515815260200160018201548152505081526020016008820160009054906101000a90046001600160a01b03166001600160a01b03166001600160a01b0316815250509050919050565b610e85838383604051806020016040528060008152506121ce565b61147e6130ff565b6000805b8281101561158657600084848381811061149e5761149e614edb565b60209081029290920135600081815260089384905260409020928301549093506001600160a01b0316331490506114ea5760405162dd34af60e41b815260048101839052602401610c80565b6006810154600160681b900460ff161561151a5760405163c4d9079d60e01b815260048101839052602401610c80565b6007810154151560008161153057601b54611537565b601b5460011c5b426007850155604051858152909150600080516020615e8a8339815191529060200160405180910390a161156a84613129565b6115748187614ef1565b95505060019093019250611482915050565b5080156115f257601a546040516340c10f1960e01b81526001600160a01b03909116906340c10f19906115bf9033908590600401614ec2565b600060405180830381600087803b1580156115d957600080fd5b505af11580156115ed573d6000803e3d6000fd5b505050505b50610c286001600755565b611605612198565b6001600160a01b0316336001600160a01b0316141580156116315750600f546001600160a01b03163314155b156116515733604051634a0bfec160e01b8152600401610c8091906144e1565b610fb981612dca565b60608060166017818054806020026020016040519081016040528092919081815260200182805480156116ca57602002820191906000526020600020906000905b825461010083900a900460ff1681526020600192830181810494850194909303909202910180841161169b5790505b505050505091508080548060200260200160405190810160405280929190818152602001828054801561171c57602002820191906000526020600020905b815481526020019060010190808311611708575b50505050509050915091509091565b60086020526000908152604090208054819061174690614e53565b80601f016020809104026020016040519081016040528092919081815260200182805461177290614e53565b80156117bf5780601f10611794576101008083540402835291602001916117bf565b820191906000526020600020905b8154815290600101906020018083116117a257829003601f168201915b505050505090806001015490806002016040518060800160405290816000820160009054906101000a900460ff1660078111156117fe576117fe6146b5565b600781111561180f5761180f6146b5565b81528154602090910190610100900460ff166007811115611832576118326146b5565b6007811115611843576118436146b5565b8152815460209091019062010000900460ff166007811115611867576118676146b5565b6007811115611878576118786146b5565b815281546020909101906301000000900460ff16600781111561189d5761189d6146b5565b60078111156118ae576118ae6146b5565b8152505090806003016040518060c00160405290816000820154815260200160018201604051806101200160405290816000820160009054906101000a900461ffff1661ffff1661ffff1681526020016000820160029054906101000a900460ff1660ff1660ff1681526020016000820160039054906101000a900460ff1660ff1660ff1681526020016000820160049054906101000a900461ffff1661ffff1661ffff1681526020016000820160069054906101000a900460ff1660ff1660ff1681526020016000820160079054906101000a900460ff1660ff1660ff1681526020016000820160089054906101000a900461ffff1661ffff1661ffff16815260200160008201600a9054906101000a900460ff1660ff1660ff16815260200160008201600b9054906101000a900460ff1660ff1660ff168152505081526020016002820160009054906101000a900461ffff1661ffff1661ffff1681526020016002820160029054906101000a900460ff1660ff1660ff1681526020016002820160039054906101000a900460ff1660ff1660ff1681526020016002820160049054906101000a900460ff1660ff1660ff16815250509080600601604051806101200160405290816000820160009054906101000a900463ffffffff1663ffffffff1663ffffffff1681526020016000820160049054906101000a900461ffff1661ffff1661ffff1681526020016000820160069054906101000a900461ffff1661ffff1661ffff1681526020016000820160089054906101000a900461ffff1661ffff1661ffff16815260200160008201600a9054906101000a900460ff1615151515815260200160008201600b9054906101000a900460ff1615151515815260200160008201600c9054906101000a900460ff1615151515815260200160008201600d9054906101000a900460ff16151515158152602001600182015481525050908060080160009054906101000a90046001600160a01b0316905086565b611b99612d38565b600d55565b6001600160a01b0381166000908152600a60205260409020606090610b7090613164565b336000908152600b6020526040902054600d544290611be19083614ef1565b811015611c01576040516337a193d360e21b815260040160405180910390fd5b60005b600a811015611c4657611c1933856000613178565b6009546000908152600860205260409020600601805460ff60681b1916600160681b179055600101611c04565b50336000908152600b60205260409020555050565b611c636130ff565b60178360ff1681548110611c7957611c79614edb565b90600052602060002001543414611cae576040516312a1605d60e31b815260ff84166004820152346024820152604401610c80565b600060168460ff1681548110611cc657611cc6614edb565b60009182526020808320908204015460ff601f9092166101000a9004169150611cf0856001614f04565b905060005b82811015611d52578160ff16811015611d3e57600081611d16886001614f04565b60ff16611d239190614f1d565b9050611d388886611d3384613309565b613178565b50611d4a565b611d4a87856000613178565b600101611cf5565b506001600160a01b03841615611d8d57611d8d848360178860ff1681548110611d7d57611d7d614edb565b9060005260206000200154613374565b6001600160a01b0386166000908152600c602052604081208054849290611db5908490614ef1565b9091555050600160075550610f0f9050565b60168181548110611dd757600080fd5b9060005260206000209060209182820401919006915054906101000a900460ff1681565b3360009081526019602052604081205460ff16611e2d5733604051634a0bfec160e01b8152600401610c8091906144e1565b611e4a83611e4361022085016102008601614a58565b6000613178565b6009546000818152600860205260409020611e6681838661349f565b509392505050565b6000610b7082612d6a565b600060328210611e995760508210611e92576002610b70565b6001610b70565b600092915050565b60006001600160a01b038216611ecd5760006040516322718ad960e21b8152600401610c8091906144e1565b506001600160a01b031660009081526003602052604090205490565b611ef1612d38565b611efb6000613742565b565b3360009081526019602052604090205460ff16611f2f5733604051634a0bfec160e01b8152600401610c8091906144e1565b6000611f3c826001614f04565b905060005b84811015611f96578160ff16811015611f8257600081611f62856001614f04565b611f6c9190614f30565b9050611f7c8786611d3384613309565b50611f8e565b611f8e86856000613178565b600101611f41565b506001600160a01b0385166000908152600c602052604081208054869290611fbf908490614ef1565b90915550505050505050565b60005b81811015610e8557611ff7838383818110611feb57611feb614edb565b905060200201356122b5565b600101611fce565b6010546001600160a01b031633148015906120255750600f546001600160a01b03163314155b801561203c57506011546001600160a01b03163314155b1561205c5733604051634a0bfec160e01b8152600401610c8091906144e1565b6000828152600860205260409020600601805482158015600160601b0260ff60601b19909216919091179091556120b357604051828152600080516020615e8a833981519152906020015b60405180910390a15050565b604051828152600080516020615e6a833981519152906020016120a7565b336000908152600a602052604081206120e990613164565b905060005b8151811015610c28576008600083838151811061210d5761210d614edb565b60200260200101518152602001908152602001600020600601600001600b9054906101000a900460ff1661215d5761215d82828151811061215057612150614edb565b60200260200101516122b5565b6001016120ee565b61216d612d38565b6001600160a01b03919091166000908152601960205260409020805460ff1916911515919091179055565b6006546001600160a01b031690565b606060018054610b8590614e53565b6121be612d38565b601b55565b610c28338383613794565b6121d9848484610e8a565b610f0f338585858561382a565b601254600082815260086020526040908190209051637c1d0bcb60e01b81526060926001600160a01b031691637c1d0bcb9161222591906004016151ab565b600060405180830381865afa158015612242573d6000803e3d6000fd5b505050506040513d6000823e601f3d908101601f19168201604052610b709190810190615203565b3360009081526019602052604090205460ff1661229c5733604051634a0bfec160e01b8152600401610c8091906144e1565b6000828152600860205260409020610e8581848461349f565b604051818152600080516020615eaa8339815191529060200160405180910390a16000818152600860208190526040909120908101546001600160a01b031633146123155760405162dd34af60e41b815260048101839052602401610c80565b6006810154600160581b900460ff161561234557604051635331ce1f60e11b815260048101839052602401610c80565b6013546003820154604051632f09b60960e21b815260048101919091526000916001600160a01b03169063bc26d824906024016020604051808303816000875af1158015612397573d6000803e3d6000fd5b505050506040513d601f19601f820116820180604052508101906123bb9190615237565b60145460038401546005850154604051637017ac9560e11b81526004810188905260248101929092526001600160401b038416604483015261ffff1660648201529192506000916001600160a01b039091169063e02f592a90608401600060405180830381865afa158015612434573d6000803e3d6000fd5b505050506040513d6000823e601f3d908101601f1916820160405261245c9190810190615492565b8051909150839061246d908261560d565b508060600151836003016000820151816000015560208201518160010160008201518160000160006101000a81548161ffff021916908361ffff16021790555060208201518160000160026101000a81548160ff021916908360ff16021790555060408201518160000160036101000a81548160ff021916908360ff16021790555060608201518160000160046101000a81548161ffff021916908361ffff16021790555060808201518160000160066101000a81548160ff021916908360ff16021790555060a08201518160000160076101000a81548160ff021916908360ff16021790555060c08201518160000160086101000a81548161ffff021916908361ffff16021790555060e082015181600001600a6101000a81548160ff021916908360ff16021790555061010082015181600001600b6101000a81548160ff021916908360ff160217905550505060408201518160020160006101000a81548161ffff021916908361ffff16021790555060608201518160020160026101000a81548160ff021916908360ff16021790555060808201518160020160036101000a81548160ff021916908360ff16021790555060a08201518160020160046101000a81548160ff021916908360ff16021790555090505080604001518360020160008201518160000160006101000a81548160ff02191690836007811115612678576126786146b5565b021790555060208201518154829061ff0019166101008360078111156126a0576126a06146b5565b021790555060408201518154829062ff00001916620100008360078111156126ca576126ca6146b5565b021790555060608201518154829063ff000000191663010000008360078111156126f6576126f66146b5565b021790555050506080808201510151600684018054911515600160501b0260ff60501b198316811790915563ffffffff9081169116176000036127555760808101515160068401805463ffffffff191663ffffffff9092169190911790555b60068301805460ff60581b1916600160581b179055610f0f84612dca565b61277b612d38565b6018805461ffff9092166101000262ffff0019909216919091179055565b6001600160a01b03918216600090815260056020908152604080832093909416825291909152205460ff1690565b60606000826001600160401b038111156127e3576127e3614bf9565b60405190808252806020026020018201604052801561281c57816020015b612809614214565b8152602001906001900390816128015790505b50905060005b83811015611e66576008600086868481811061284057612840614edb565b9050602002013581526020019081526020016000206040518060c001604052908160008201805461287090614e53565b80601f016020809104026020016040519081016040528092919081815260200182805461289c90614e53565b80156128e95780601f106128be576101008083540402835291602001916128e9565b820191906000526020600020905b8154815290600101906020018083116128cc57829003601f168201915b5050509183525050600182015460208201526040805160808101825260028401805492909301929091829060ff166007811115612928576129286146b5565b6007811115612939576129396146b5565b81528154602090910190610100900460ff16600781111561295c5761295c6146b5565b600781111561296d5761296d6146b5565b8152815460209091019062010000900460ff166007811115612991576129916146b5565b60078111156129a2576129a26146b5565b815281546020909101906301000000900460ff1660078111156129c7576129c76146b5565b60078111156129d8576129d86146b5565b815250508152602001600382016040518060c00160405290816000820154815260200160018201604051806101200160405290816000820160009054906101000a900461ffff1661ffff1661ffff1681526020016000820160029054906101000a900460ff1660ff1660ff1681526020016000820160039054906101000a900460ff1660ff1660ff1681526020016000820160049054906101000a900461ffff1661ffff1661ffff1681526020016000820160069054906101000a900460ff1660ff1660ff1681526020016000820160079054906101000a900460ff1660ff1660ff1681526020016000820160089054906101000a900461ffff1661ffff1661ffff16815260200160008201600a9054906101000a900460ff1660ff1660ff16815260200160008201600b9054906101000a900460ff1660ff1660ff168152505081526020016002820160009054906101000a900461ffff1661ffff1661ffff1681526020016002820160029054906101000a900460ff1660ff1660ff1681526020016002820160039054906101000a900460ff1660ff1660ff1681526020016002820160049054906101000a900460ff1660ff1660ff1681525050815260200160068201604051806101200160405290816000820160009054906101000a900463ffffffff1663ffffffff1663ffffffff1681526020016000820160049054906101000a900461ffff1661ffff1661ffff1681526020016000820160069054906101000a900461ffff1661ffff1661ffff1681526020016000820160089054906101000a900461ffff1661ffff1661ffff16815260200160008201600a9054906101000a900460ff1615151515815260200160008201600b9054906101000a900460ff1615151515815260200160008201600c9054906101000a900460ff1615151515815260200160008201600d9054906101000a900460ff1615151515815260200160018201548152505081526020016008820160009054906101000a90046001600160a01b03166001600160a01b03166001600160a01b031681525050828281518110612cea57612cea614edb565b6020908102919091010152600101612822565b612d05612d38565b6001600160a01b038116612d2f576000604051631e4fbdf760e01b8152600401610c8091906144e1565b610fb981613742565b33612d41612198565b6001600160a01b031614611efb573360405163118cdaa760e01b8152600401610c8091906144e1565b600080612d7683613942565b90506001600160a01b038116610b7057604051637e27328960e01b815260048101849052602401610c80565b6000908152600460205260409020546001600160a01b031690565b610e85838383600161395d565b60008181526008602052604090206006810154600160601b900460ff1615612e085760405163128379f760e11b815260048101839052602401610c80565b601554604080516318987be760e11b815290516001600160a01b0390921691633130f7ce916004808201926020929091908290030181865afa158015612e52573d6000803e3d6000fd5b505050506040513d601f19601f82011682018060405250810190612e7691906156c5565b60068201805461ffff92909216600160201b0261ffff60201b1990921691909117905560155460405163863bea7f60e01b81526001600160a01b039091169063863bea7f90612ec99084906004016151ab565b602060405180830381865afa158015612ee6573d6000803e3d6000fd5b505050506040513d601f19601f82011682018060405250810190612f0a91906156c5565b6006909101805461ffff92909216600160301b0261ffff60301b1990921691909117905550565b60008281526008602081905260408220908101546001600160a01b0390811690861615612f7b57600782015415612f7b576040516398586ca160e01b815260040160405180910390fd5b6006820154600160601b900460ff1615612fab5760405163128379f760e11b815260048101869052602401610c80565b6001600160a01b0381161561306a576001600160a01b0381166000908152600c6020526040902054600a1115612ff65780604051637c0df70b60e11b8152600401610c8091906144e1565b6001600160a01b0386161580159061302657506001600160a01b0386166000908152600c6020526040902054600a115b156130465785604051637c0df70b60e11b8152600401610c8091906144e1565b6001600160a01b0381166000908152600a602052604090206130689086613a5a565b505b6001600160a01b038616156130ba576001600160a01b0386166000908152600a6020526040902061309b9086613a66565b506008820180546001600160a01b0319166001600160a01b0388161790555b6001600160a01b0386166130ea57604051858152600080516020615e8a8339815191529060200160405180910390a15b6130f5868686613a72565b9695505050505050565b60026007540361312257604051633ee5aeb560e01b815260040160405180910390fd5b6002600755565b60006131386000836000612f31565b90506001600160a01b038116610c2857604051637e27328960e01b815260048101839052602401610c80565b6060600061317183613b66565b9392505050565b60185460ff161561319c57604051636be9245d60e11b815260040160405180910390fd5b60185461ffff610100909104811690831611806131bb575061ffff8216155b156131df57604051633a6d207560e11b815261ffff83166004820152602401610c80565b600980549060006131ef836156e2565b909155505060095460008181526008602090815260408083206001810194909455601354815163f8413b0760e01b815291516001600160a01b039091169363f8413b07936004848101949193929183900301908290875af1158015613258573d6000803e3d6000fd5b505050506040513d601f19601f8201168201806040525081019061327c91906156fb565b600382015560058101805461ffff191661ffff858116919091179091558216156132b65760068101805463ffffffff191661ffff84161790555b6132c284600954613bc2565b6008810180546001600160a01b0319166001600160a01b038616179055600954604051908152600080516020615e6a8339815191529060200160405180910390a150505050565b600060068260ff161061331f57506103e8919050565b8160ff16600503613333575061012c919050565b8160ff1660040361334657506064919050565b8160ff166003036133595750601e919050565b8160ff1660020361336c5750600a919050565b506001919050565b6001600160a01b0383166000908152600e60205260408120805484929061339c908490614ef1565b90915550506001600160a01b0383166000908152600e6020526040812054620186a081106133cd5760329150613408565b61c35081106133df5760239150613408565b61271081106133f15760149150613408565b6103e8811061340357600a9150613408565b600091505b600060646134168486615714565b613420919061572b565b90506000866001600160a01b03168260405160006040518083038185875af1925050503d806000811461346f576040519150601f19603f3d011682016040523d82523d6000602084013e613474565b606091505b5050905080613496576040516387df070960e01b815260040160405180910390fd5b50505050505050565b604051828152600080516020615eaa8339815191529060200160405180910390a16007830154156134e3576040516398586ca160e01b815260040160405180910390fd5b6006830154600160601b900460ff16156135135760405163128379f760e11b815260048101839052602401610c80565b60006135278461352284615991565b613bdc565b90506135338280615a33565b8591613540919083615a79565b5061355361024083016102208401615b32565b60058501805460ff92909216620100000262ff00001990921691909117905561358461026083016102408401615b32565b60058501805460ff9290921663010000000263ff000000199092169190911790556135b761028083016102608401615b32565b60058501805460ff92909216600160201b0260ff60201b199092169190911790556135ea61022083016102008401614a58565b60058501805461ffff191661ffff9290921691909117905560e08201600485016136148282615ba8565b505060408201600285016136288282615d10565b5061363d90506102a083016102808401615db4565b60068501805463ffffffff191663ffffffff9290921691909117905561366b6103808301610360840161455c565b600685018054911515600160681b0260ff60681b1990921691909117905561369b6103208301610300840161455c565b600685018054911515600160501b0260ff60501b199092169190911790819055600160581b900460ff161561370b576006840180548291906008906136ec908490600160401b900461ffff16615dd1565b92506101000a81548161ffff021916908361ffff160217905550613739565b60068401805460ff60581b1961ffff8416600160401b021663ff00ffff60401b1990911617600160581b1790555b610f0f83612dca565b600680546001600160a01b038381166001600160a01b0319831681179093556040519116919082907f8be0079c531659141344cd1fd0a4f28419497f9722a3daafe3b4186f6b6457e090600090a35050565b6001600160a01b0382166137bd5781604051630b61174360e31b8152600401610c8091906144e1565b6001600160a01b03838116600081815260056020908152604080832094871680845294825291829020805460ff191686151590811790915591519182527f17307eab39ab6107e8899845ad3d59bd9653f200f220920489ca2b5937696c31910160405180910390a3505050565b6001600160a01b0383163b15610e4a57604051630a85bd0160e11b81526001600160a01b0384169063150b7a029061386c908890889087908790600401615deb565b6020604051808303816000875af19250505080156138a7575060408051601f3d908101601f191682019092526138a491810190615e1e565b60015b613907573d8080156138d5576040519150601f19603f3d011682016040523d82523d6000602084013e6138da565b606091505b5080516000036138ff5783604051633250574960e11b8152600401610c8091906144e1565b805181602001fd5b6001600160e01b03198116630a85bd0160e11b1461393a5783604051633250574960e11b8152600401610c8091906144e1565b505050505050565b6000908152600260205260409020546001600160a01b031690565b808061397157506001600160a01b03821615155b15613a2a57600061398184612d6a565b90506001600160a01b038316158015906139ad5750826001600160a01b0316816001600160a01b031614155b80156139c057506139be8184612799565b155b156139e0578260405163a9fbf51f60e01b8152600401610c8091906144e1565b8115613a285783856001600160a01b0316826001600160a01b03167f8c5be1e5ebec7d5bd14f71427d1e84f3dd0314c0f7b2291e5b200ac8c7c3b92560405160405180910390a45b505b5050600090815260046020526040902080546001600160a01b0319166001600160a01b0392909216919091179055565b60006131718383613eb5565b60006131718383613fa8565b600080613a7e84613942565b90506001600160a01b03831615613a9a57613a9a818486613ff7565b6001600160a01b03811615613ad857613ab760008560008061395d565b6001600160a01b038116600090815260036020526040902080546000190190555b6001600160a01b03851615613b07576001600160a01b0385166000908152600360205260409020805460010190555b60008481526002602052604080822080546001600160a01b0319166001600160a01b0389811691821790925591518793918516917fddf252ad1be2c89b69c2b068fc378daa952ba7f163c4a11628f55a4df523b3ef91a4949350505050565b606081600001805480602002602001604051908101604052809291908181526020018280548015613bb657602002820191906000526020600020905b815481526020019060010190808311613ba2575b50505050509050919050565b610c2882826040518060200160405280600081525061404d565b60408101515160009081906007811115613bf857613bf86146b5565b600285015460ff166007811115613c1157613c116146b5565b14613c245780613c2081615e3b565b9150505b8260400151602001516007811115613c3e57613c3e6146b5565b6002850154610100900460ff166007811115613c5c57613c5c6146b5565b14613c6f5780613c6b81615e3b565b9150505b8260400151604001516007811115613c8957613c896146b5565b600285015462010000900460ff166007811115613ca857613ca86146b5565b14613cbb5780613cb781615e3b565b9150505b8260400151606001516007811115613cd557613cd56146b5565b60028501546301000000900460ff166007811115613cf557613cf56146b5565b14613d085780613d0481615e3b565b9150505b6005840154606080850151015160009160ff620100009091048116911611613d4f5760608481015101516005860154613d4a919062010000900460ff16614f30565b613d6f565b60058501546060858101510151613d6f9162010000900460ff1690614f30565b600586015460608601516080015191925060009160ff63010000009092048216911611613dbd576060850151608001516005870154613db891906301000000900460ff16614f30565b613ddf565b6005860154606086015160800151613ddf916301000000900460ff1690614f30565b6005870154606087015160a0015191925060009160ff600160201b9092048216911611613e2d57606086015160a001516005880154613e289190600160201b900460ff16614f30565b613e4f565b6005870154606087015160a00151613e4f91600160201b900460ff1690614f30565b905080613e5c8385614f04565b613e669190614f04565b613e739060ff1685615dd1565b9350856080015160800151151587600601600001600a9054906101000a900460ff16151514613eaa57613ea7600385615dd1565b93505b509195945050505050565b60008181526001830160205260408120548015613f9e576000613ed9600183614f1d565b8554909150600090613eed90600190614f1d565b9050808214613f52576000866000018281548110613f0d57613f0d614edb565b9060005260206000200154905080876000018481548110613f3057613f30614edb565b6000918252602080832090910192909255918252600188019052604090208390555b8554869080613f6357613f63615e53565b600190038181906000526020600020016000905590558560010160008681526020019081526020016000206000905560019350505050610b70565b6000915050610b70565b6000818152600183016020526040812054613fef57508154600181810184556000848152602080822090930184905584548482528286019093526040902091909155610b70565b506000610b70565b614002838383614065565b610e85576001600160a01b03831661403057604051637e27328960e01b815260048101829052602401610c80565b818160405163177e802f60e01b8152600401610c80929190614ec2565b61405783836140cb565b610e8533600085858561382a565b60006001600160a01b038316158015906140c35750826001600160a01b0316846001600160a01b0316148061409f575061409f8484612799565b806140c35750826001600160a01b03166140b883612da2565b6001600160a01b0316145b949350505050565b6001600160a01b0382166140f5576000604051633250574960e11b8152600401610c8091906144e1565b600061410383836000612f31565b90506001600160a01b03811615610e855760006040516339e3563760e11b8152600401610c8091906144e1565b82805482825590600052602060002090601f016020900481019282156141c95791602002820160005b8382111561419a57833560ff1683826101000a81548160ff021916908360ff1602179055509260200192600101602081600001049283019260010302614159565b80156141c75782816101000a81549060ff021916905560010160208160000104928301926001030261419a565b505b506141d5929150614332565b5090565b8280548282559060005260206000209081019282156141c9579160200282015b828111156141c95782358255916020019190600101906141f9565b6040518060c0016040528060608152602001600081526020016142586040805160808101909152806000815260200160008152602001600081526020016000905290565b81526020016142d96040805160c0808201835260008083528351610120810185528181526020818101839052948101829052606081018290526080810182905260a0810182905291820181905260e0820181905261010082015290918201908152600060208201819052604082018190526060820181905260809091015290565b8152604080516101208101825260008082526020828101829052928201819052606082018190526080820181905260a0820181905260c0820181905260e082018190526101008201529101908152600060209091015290565b5b808211156141d55760008155600101614333565b6001600160a01b0381168114610fb957600080fd5b803561436781614347565b919050565b600080600080600080600080610100898b03121561438957600080fd5b883561439481614347565b975060208901356143a481614347565b965060408901356143b481614347565b955060608901356143c481614347565b945060808901356143d481614347565b935060a08901356143e481614347565b925060c08901356143f481614347565b915060e089013561440481614347565b809150509295985092959890939650565b6001600160e01b031981168114610fb957600080fd5b60006020828403121561443d57600080fd5b813561317181614415565b60005b8381101561446357818101518382015260200161444b565b50506000910152565b60008151808452614484816020860160208601614448565b601f01601f19169290920160200192915050565b602081526000613171602083018461446c565b6000602082840312156144bd57600080fd5b813561317181614347565b6000602082840312156144da57600080fd5b5035919050565b6001600160a01b0391909116815260200190565b6000806040838503121561450857600080fd5b823561451381614347565b946020939093013593505050565b6000806040838503121561453457600080fd5b50508035926020909101359150565b8015158114610fb957600080fd5b803561436781614543565b60006020828403121561456e57600080fd5b813561317181614543565b60008083601f84011261458b57600080fd5b5081356001600160401b038111156145a257600080fd5b6020830191508360208260051b85010111156145bd57600080fd5b9250929050565b600080600080604085870312156145da57600080fd5b84356001600160401b038111156145f057600080fd5b6145fc87828801614579565b90955093505060208501356001600160401b0381111561461b57600080fd5b61462787828801614579565b95989497509550505050565b6000806020838503121561464657600080fd5b82356001600160401b0381111561465c57600080fd5b61466885828601614579565b90969095509350505050565b60008060006060848603121561468957600080fd5b833561469481614347565b925060208401356146a481614347565b929592945050506040919091013590565b634e487b7160e01b600052602160045260246000fd5b60088110610fb957634e487b7160e01b600052602160045260246000fd5b80516146f4816146cb565b82526020810151614704816146cb565b60208301526040810151614717816146cb565b6040830152606081015161472a816146cb565b806060840152505050565b80518252602081015161ffff815116602084015260ff6020820151166040840152604081015161476a606085018260ff169052565b50606081015161ffff8116608085015250608081015160ff811660a08501525060a081015160ff811660c08501525060c081015161ffff811660e08501525060e081015160ff811661010085015250610100015160ff811661012084015250604081015161ffff811661014084015250606081015160ff811661016084015250608081015160ff81166101808401525060a0015160ff166101a09190910152565b63ffffffff815116825261ffff60208201511660208301526040810151614838604084018261ffff169052565b50606081015161484e606084018261ffff169052565b506080810151614862608084018215159052565b5060a081015161487660a084018215159052565b5060c081015161488a60c084018215159052565b5060e081015161489e60e084018215159052565b5061010090810151910152565b600081516103c084526148c26103c085018261446c565b90506020830151602085015260408301516148e060408601826146e9565b5060608301516148f360c0860182614735565b50608083015161490761028086018261480b565b5060a092909201516001600160a01b03166103a09390930192909252919050565b60208152600061317160208301846148ab565b600081518084526020840193506020830160005b8281101561496d57815186526020958601959091019060010161494f565b5093949350505050565b6040808252835190820181905260009060208501906060840190835b818110156149b457835160ff16835260209384019390920191600101614993565b505083810360208501526130f5818661493b565b6103c0815260006149dd6103c083018961446c565b90508660208301526149f260408301876146e9565b6149ff60c0830186614735565b614a0d61028083018561480b565b6001600160a01b03929092166103a0919091015295945050505050565b602081526000613171602083018461493b565b61ffff81168114610fb957600080fd5b803561436781614a3d565b600060208284031215614a6a57600080fd5b813561317181614a3d565b60ff81168114610fb957600080fd5b803561436781614a75565b60008060008060808587031215614aa557600080fd5b8435614ab081614347565b93506020850135614ac081614a75565b92506040850135614ad081614347565b91506060850135614ae081614a3d565b939692955090935050565b60006103c08284031215614afe57600080fd5b50919050565b60008060408385031215614b1757600080fd5b8235614b2281614347565b915060208301356001600160401b03811115614b3d57600080fd5b614b4985828601614aeb565b9150509250929050565b60008060008060808587031215614b6957600080fd5b8435614b7481614347565b9350602085013592506040850135614b8b81614a3d565b91506060850135614ae081614a75565b60008060408385031215614bae57600080fd5b823591506020830135614bc081614543565b809150509250929050565b60008060408385031215614bde57600080fd5b8235614be981614347565b91506020830135614bc081614543565b634e487b7160e01b600052604160045260246000fd5b60405160c081016001600160401b0381118282101715614c3157614c31614bf9565b60405290565b60405161012081016001600160401b0381118282101715614c3157614c31614bf9565b604051608081016001600160401b0381118282101715614c3157614c31614bf9565b604051601f8201601f191681016001600160401b0381118282101715614ca457614ca4614bf9565b604052919050565b60006001600160401b03821115614cc557614cc5614bf9565b50601f01601f191660200190565b6000614ce6614ce184614cac565b614c7c565b9050828152838383011115614cfa57600080fd5b828260208301376000602084830101529392505050565b60008060008060808587031215614d2757600080fd5b8435614d3281614347565b93506020850135614d4281614347565b92506040850135915060608501356001600160401b03811115614d6457600080fd5b8501601f81018713614d7557600080fd5b614d8487823560208401614cd3565b91505092959194509250565b60008060408385031215614da357600080fd5b8235915060208301356001600160401b03811115614b3d57600080fd5b60008060408385031215614dd357600080fd5b8235614dde81614347565b91506020830135614bc081614347565b6000602082016020835280845180835260408501915060408160051b86010192506020860160005b82811015614e4757603f19878603018452614e328583516148ab565b94506020938401939190910190600101614e16565b50929695505050505050565b600181811c90821680614e6757607f821691505b602082108103614afe57634e487b7160e01b600052602260045260246000fd5b634e487b7160e01b600052601160045260246000fd5b600063ffffffff821663ffffffff8103614eb957614eb9614e87565b60010192915050565b6001600160a01b03929092168252602082015260400190565b634e487b7160e01b600052603260045260246000fd5b80820180821115610b7057610b70614e87565b60ff8181168382160190811115610b7057610b70614e87565b81810381811115610b7057610b70614e87565b60ff8281168282160390811115610b7057610b70614e87565b805460ff8116614f58816146cb565b8352600881901c60ff16614f6b816146cb565b6020840152601081901c60ff16614f81816146cb565b604084015260181c60ff1661472a816146cb565b805463ffffffff81168352602081811c61ffff1690840152603081901c61ffff166040840152604081901c61ffff166060840152614fdd6080840160ff8360501c1615159052565b614ff160a0840160ff8360581c1615159052565b61500560c0840160ff8360601c1615159052565b61501960e0840160ff8360681c1615159052565b50600101546101009190910152565b6103c08252600080825461503b81614e53565b806103c0870152600182166000811461505b5760018114615079576150af565b60ff1983166103e08801526103e082151560051b88010193506150af565b85600052602060002060005b838110156150a55781548982016103e00152600190910190602001615085565b88016103e0019450505b505050600183015460208501526150cc6040850160028501614f49565b600383015460c0850152600483015461ffff80821660e087015260ff601083811c8216610100890152601884811c83166101208a0152602085811c85166101408b0152603086901c84166101608b0152603886901c84166101808b0152604086901c85166101a08b0152605086901c84166101c08b015260589590951c83166101e08a015260058801549384166102008a01529083901c821661022089015282901c8116610240880152911c16610260850152615190610280850160068501614f95565b60088301546001600160a01b03166103a08501819052611e66565b6020815260006131716020830184615028565b600082601f8301126151cf57600080fd5b81516151dd614ce182614cac565b8181528460208386010111156151f257600080fd5b6140c3826020830160208701614448565b60006020828403121561521557600080fd5b81516001600160401b0381111561522b57600080fd5b6140c3848285016151be565b60006020828403121561524957600080fd5b81516001600160401b038116811461317157600080fd5b60088110610fb957600080fd5b805161436781614a3d565b805161436781614a75565b60008183036101c081121561529757600080fd5b61529f614c0f565b835181529150610120601f19820112156152b857600080fd5b506152c1614c37565b6152cd6020840161526d565b81526152db60408401615278565b60208201526152ec60608401615278565b60408201526152fd6080840161526d565b606082015261530e60a08401615278565b608082015261531f60c08401615278565b60a082015261533060e0840161526d565b60c08201526153426101008401615278565b60e08201526153546101208401615278565b610100820152602082015261536c610140830161526d565b604082015261537e6101608301615278565b60608201526153906101808301615278565b60808201526153a26101a08301615278565b60a082015292915050565b63ffffffff81168114610fb957600080fd5b8051614367816153ad565b805161436781614543565b600061012082840312156153e857600080fd5b6153f0614c37565b90506153fb826153bf565b81526154096020830161526d565b602082015261541a6040830161526d565b604082015261542b6060830161526d565b606082015261543c608083016153ca565b608082015261544d60a083016153ca565b60a082015261545e60c083016153ca565b60c082015261546f60e083016153ca565b60e08201526101009182015191810191909152919050565b805161436781614347565b6000602082840312156154a457600080fd5b81516001600160401b038111156154ba57600080fd5b82018084036103c08112156154ce57600080fd5b6154d6614c0f565b82516001600160401b038111156154ec57600080fd5b6154f8878286016151be565b825250602083810151908201526080603f198301121561551757600080fd5b61551f614c5a565b9150604083015161552f81615260565b8252606083015161553f81615260565b6020830152608083015161555281615260565b604083015260a083015161556581615260565b60608301526040810182905261557e8660c08501615283565b60608201526155918661028085016153d5565b60808201526155a36103a08401615487565b60a082015295945050505050565b601f821115610e8557806000526020600020601f840160051c810160208510156155d85750805b601f840160051c820191505b81811015610e4a57600081556001016155e4565b600019600383901b1c191660019190911b1790565b81516001600160401b0381111561562657615626614bf9565b61563a816156348454614e53565b846155b1565b6020601f82116001811461566857600083156156565750848201515b61566084826155f8565b855550610e4a565b600084815260208120601f198516915b828110156156985787850151825560209485019460019092019101615678565b50848210156156b65786840151600019600387901b60f8161c191681555b50505050600190811b01905550565b6000602082840312156156d757600080fd5b815161317181614a3d565b6000600182016156f4576156f4614e87565b5060010190565b60006020828403121561570d57600080fd5b5051919050565b8082028115828204841417610b7057610b70614e87565b60008261574857634e487b7160e01b600052601260045260246000fd5b500490565b60006080828403121561575f57600080fd5b615767614c5a565b9050813561577481615260565b8152602082013561578481615260565b6020820152604082013561579781615260565b604082015260608201356157aa81615260565b606082015292915050565b60008183036101c08112156157c957600080fd5b6157d1614c0f565b833581529150610120601f19820112156157ea57600080fd5b506157f3614c37565b6157ff60208401614a4d565b815261580d60408401614a84565b602082015261581e60608401614a84565b604082015261582f60808401614a4d565b606082015261584060a08401614a84565b608082015261585160c08401614a84565b60a082015261586260e08401614a4d565b60c08201526158746101008401614a84565b60e08201526158866101208401614a84565b610100820152602082015261589e6101408301614a4d565b60408201526158b06101608301614a84565b60608201526158c26101808301614a84565b60808201526153a26101a08301614a84565b8035614367816153ad565b600061012082840312156158f257600080fd5b6158fa614c37565b9050615905826158d4565b815261591360208301614a4d565b602082015261592460408301614a4d565b604082015261593560608301614a4d565b606082015261594660808301614551565b608082015261595760a08301614551565b60a082015261596860c08301614551565b60c082015261597960e08301614551565b60e08201526101009182013591810191909152919050565b60006103c082360312156159a457600080fd5b6159ac614c0f565b82356001600160401b038111156159c257600080fd5b830136601f8201126159d357600080fd5b6159e236823560208401614cd3565b825250602083810135908201526159fc366040850161574d565b6040820152615a0e3660c085016157b5565b6060820152615a213661028085016158df565b60808201526153a26103a0840161435c565b6000808335601e19843603018112615a4a57600080fd5b8301803591506001600160401b03821115615a6457600080fd5b6020019150368190038213156145bd57600080fd5b6001600160401b03831115615a9057615a90614bf9565b615aa483615a9e8354614e53565b836155b1565b6000601f841160018114615ad25760008515615ac05750838201355b615aca86826155f8565b845550610e4a565b600083815260209020601f19861690835b82811015615b035786850135825560209485019460019092019101615ae3565b5086821015615b205760001960f88860031b161c19848701351681555b505060018560011b0183555050505050565b600060208284031215615b4457600080fd5b813561317181614a75565b60008135610b7081614a3d565b60008135610b7081614a75565b62ff0000191660109190911b62ff0000161790565b63ff000000191660189190911b63ff000000161790565b615ba360ff83168254615b7e565b905550565b8135615bb381614a3d565b61ffff811661ffff198354161782555060006020830135615bd381614a75565b809150615be460ff82168454615b69565b83555050615bfd615bf760408401615b5c565b82615b95565b615c2c615c0c60608401615b4f565b82805461ffff60201b191660209290921b61ffff60201b16919091179055565b615c59615c3b60808401615b5c565b82805460ff60301b191660309290921b60ff60301b16919091179055565b615c86615c6860a08401615b5c565b82805460ff60381b191660389290921b60ff60381b16919091179055565b615cb5615c9560c08401615b4f565b82805461ffff60401b191660409290921b61ffff60401b16919091179055565b615ce2615cc460e08401615b5c565b82805460ff60501b191660509290921b60ff60501b16919091179055565b610c28615cf26101008401615b5c565b82805460ff60581b191660589290921b60ff60581b16919091179055565b8135615d1b81615260565b615d24816146cb565b815460ff821691508160ff1982161783556020840135615d4381615260565b615d4c816146cb565b61ff008160081b168361ffff1984161717925050508082556040830135615d7281615260565b615d7b816146cb565b615d858183615b69565b9150508082556060830135615d9981615260565b615da2816146cb565b615dac8183615b7e565b835550505050565b600060208284031215615dc657600080fd5b8135613171816153ad565b61ffff8181168382160190811115610b7057610b70614e87565b6001600160a01b03858116825284166020820152604081018390526080606082018190526000906130f59083018461446c565b600060208284031215615e3057600080fd5b815161317181614415565b600061ffff821661ffff8103614eb957614eb9614e87565b634e487b7160e01b600052603160045260246000fdfef27b6ce5b2f5e68ddb2fd95a8a909d4ecf1daaac270935fff052feacb24f1842032bc66be43dbccb7487781d168eb7bda224628a3b2c3388bdf69b532a3a1611f8e1a15aba9398e019f0b49df1a4fde98ee17ae345cb5f6b5e2c27f5033e8ce7a264697066735822122034a05e6793c9392519639b5f7c5ab02e302142f6323c18ef6a70cbc130c4fb7b64736f6c634300081c0033",
  "linkReferences": {},
  "deployedLinkReferences": {}
}