{
  "_format": "hh-sol-artifact-1",
  "contractName": "Lobbies",
  "sourceName": "contracts/Lobbies.sol",
  "abi": [
    {
      "inputs": [
        {
          "internalType": "address",
          "name": "_ships",
          "type": "address"
        }
      ],
      "stateMutability": "nonpayable",
      "type": "constructor"
    },
    {
      "inputs": [],
      "name": "CannotLeaveStartedGame",
      "type": "error"
    },
    {
      "inputs": [],
      "name": "CreatorTimeoutNotReached",
      "type": "error"
    },
    {
      "inputs": [],
      "name": "FleetAlreadyCreated",
      "type": "error"
    },
    {
      "inputs": [],
      "name": "InsufficientFee",
      "type": "error"
    },
    {
      "inputs": [],
      "name": "InvalidFleetCost",
      "type": "error"
    },
    {
      "inputs": [],
      "name": "InvalidShipCount",
      "type": "error"
    },
    {
      "inputs": [],
      "name": "InvalidTurnTime",
      "type": "error"
    },
    {
      "inputs": [],
      "name": "LobbyAlreadyStarted",
      "type": "error"
    },
    {
      "inputs": [],
      "name": "LobbyCreationPaused",
      "type": "error"
    },
    {
      "inputs": [],
      "name": "LobbyFull",
      "type": "error"
    },
    {
      "inputs": [],
      "name": "LobbyNotFound",
      "type": "error"
    },
    {
      "inputs": [],
      "name": "LobbyNotOpen",
      "type": "error"
    },
    {
      "inputs": [],
      "name": "NotInLobby",
      "type": "error"
    },
    {
      "inputs": [],
      "name": "NotLobbyCreator",
      "type": "error"
    },
    {
      "inputs": [],
      "name": "NotLobbyJoiner",
      "type": "error"
    },
    {
      "inputs": [
        {
          "internalType": "address",
          "name": "owner",
          "type": "address"
        }
      ],
      "name": "OwnableInvalidOwner",
      "type": "error"
    },
    {
      "inputs": [
        {
          "internalType": "address",
          "name": "account",
          "type": "address"
        }
      ],
      "name": "OwnableUnauthorizedAccount",
      "type": "error"
    },
    {
      "inputs": [],
      "name": "PlayerAlreadyInLobby",
      "type": "error"
    },
    {
      "inputs": [],
      "name": "PlayerInTimeout",
      "type": "error"
    },
    {
      "inputs": [],
      "name": "ReentrancyGuardReentrantCall",
      "type": "error"
    },
    {
      "inputs": [],
      "name": "ShipAlreadyInFleet",
      "type": "error"
    },
    {
      "inputs": [],
      "name": "ShipCostVersionMismatch",
      "type": "error"
    },
    {
      "inputs": [],
      "name": "ShipNotOwned",
      "type": "error"
    },
    {
      "inputs": [],
      "name": "TimeoutNotReached",
      "type": "error"
    },
    {
      "anonymous": false,
      "inputs": [
        {
          "indexed": true,
          "internalType": "uint256",
          "name": "lobbyId",
          "type": "uint256"
        },
        {
          "indexed": true,
          "internalType": "address",
          "name": "player",
          "type": "address"
        },
        {
          "indexed": false,
          "internalType": "uint256",
          "name": "fleetId",
          "type": "uint256"
        }
      ],
      "name": "FleetCreated",
      "type": "event"
    },
    {
      "anonymous": false,
      "inputs": [
        {
          "indexed": true,
          "internalType": "uint256",
          "name": "lobbyId",
          "type": "uint256"
        }
      ],
      "name": "GameStarted",
      "type": "event"
    },
    {
      "anonymous": false,
      "inputs": [
        {
          "indexed": true,
          "internalType": "uint256",
          "name": "lobbyId",
          "type": "uint256"
        },
        {
          "indexed": true,
          "internalType": "address",
          "name": "player",
          "type": "address"
        }
      ],
      "name": "LobbyAbandoned",
      "type": "event"
    },
    {
      "anonymous": false,
      "inputs": [
        {
          "indexed": true,
          "internalType": "uint256",
          "name": "lobbyId",
          "type": "uint256"
        },
        {
          "indexed": true,
          "internalType": "address",
          "name": "creator",
          "type": "address"
        },
        {
          "indexed": false,
          "internalType": "uint256",
          "name": "costLimit",
          "type": "uint256"
        },
        {
          "indexed": false,
          "internalType": "uint256",
          "name": "turnTime",
          "type": "uint256"
        },
        {
          "indexed": false,
          "internalType": "bool",
          "name": "creatorGoesFirst",
          "type": "bool"
        },
        {
          "indexed": false,
          "internalType": "uint256",
          "name": "selectedMapId",
          "type": "uint256"
        },
        {
          "indexed": false,
          "internalType": "uint256",
          "name": "maxScore",
          "type": "uint256"
        }
      ],
      "name": "LobbyCreated",
      "type": "event"
    },
    {
      "anonymous": false,
      "inputs": [
        {
          "indexed": true,
          "internalType": "uint256",
          "name": "lobbyId",
          "type": "uint256"
        },
        {
          "indexed": true,
          "internalType": "address",
          "name": "newCreator",
          "type": "address"
        }
      ],
      "name": "LobbyReset",
      "type": "event"
    },
    {
      "anonymous": false,
      "inputs": [
        {
          "indexed": true,
          "internalType": "uint256",
          "name": "lobbyId",
          "type": "uint256"
        }
      ],
      "name": "LobbyTerminated",
      "type": "event"
    },
    {
      "anonymous": false,
      "inputs": [
        {
          "indexed": true,
          "internalType": "address",
          "name": "previousOwner",
          "type": "address"
        },
        {
          "indexed": true,
          "internalType": "address",
          "name": "newOwner",
          "type": "address"
        }
      ],
      "name": "OwnershipTransferred",
      "type": "event"
    },
    {
      "anonymous": false,
      "inputs": [
        {
          "indexed": true,
          "internalType": "uint256",
          "name": "lobbyId",
          "type": "uint256"
        },
        {
          "indexed": true,
          "internalType": "address",
          "name": "joiner",
          "type": "address"
        }
      ],
      "name": "PlayerJoinedLobby",
      "type": "event"
    },
    {
      "inputs": [],
      "name": "KICK_PENALTY_PER_HOUR",
      "outputs": [
        {
          "internalType": "uint256",
          "name": "",
          "type": "uint256"
        }
      ],
      "stateMutability": "view",
      "type": "function"
    },
    {
      "inputs": [],
      "name": "MAX_TURN_TIME",
      "outputs": [
        {
          "internalType": "uint256",
          "name": "",
          "type": "uint256"
        }
      ],
      "stateMutability": "view",
      "type": "function"
    },
    {
      "inputs": [],
      "name": "MIN_TIMEOUT",
      "outputs": [
        {
          "internalType": "uint256",
          "name": "",
          "type": "uint256"
        }
      ],
      "stateMutability": "view",
      "type": "function"
    },
    {
      "inputs": [],
      "name": "MIN_TURN_TIME",
      "outputs": [
        {
          "internalType": "uint256",
          "name": "",
          "type": "uint256"
        }
      ],
      "stateMutability": "view",
      "type": "function"
    },
    {
      "inputs": [],
      "name": "additionalLobbyFee",
      "outputs": [
        {
          "internalType": "uint256",
          "name": "",
          "type": "uint256"
        }
      ],
      "stateMutability": "view",
      "type": "function"
    },
    {
      "inputs": [
        {
          "internalType": "uint256",
          "name": "_lobbyId",
          "type": "uint256"
        },
        {
          "internalType": "uint256[]",
          "name": "_shipIds",
          "type": "uint256[]"
        },
        {
          "components": [
            {
              "internalType": "int16",
              "name": "row",
              "type": "int16"
            },
            {
              "internalType": "int16",
              "name": "col",
              "type": "int16"
            }
          ],
          "internalType": "struct Position[]",
          "name": "_startingPositions",
          "type": "tuple[]"
        }
      ],
      "name": "createFleet",
      "outputs": [],
      "stateMutability": "nonpayable",
      "type": "function"
    },
    {
      "inputs": [
        {
          "internalType": "uint256",
          "name": "_costLimit",
          "type": "uint256"
        },
        {
          "internalType": "uint256",
          "name": "_turnTime",
          "type": "uint256"
        },
        {
          "internalType": "bool",
          "name": "_creatorGoesFirst",
          "type": "bool"
        },
        {
          "internalType": "uint256",
          "name": "_selectedMapId",
          "type": "uint256"
        },
        {
          "internalType": "uint256",
          "name": "_maxScore",
          "type": "uint256"
        }
      ],
      "name": "createLobby",
      "outputs": [],
      "stateMutability": "payable",
      "type": "function"
    },
    {
      "inputs": [],
      "name": "fleets",
      "outputs": [
        {
          "internalType": "contract IFleets",
          "name": "",
          "type": "address"
        }
      ],
      "stateMutability": "view",
      "type": "function"
    },
    {
      "inputs": [],
      "name": "freeGamesPerAddress",
      "outputs": [
        {
          "internalType": "uint256",
          "name": "",
          "type": "uint256"
        }
      ],
      "stateMutability": "view",
      "type": "function"
    },
    {
      "inputs": [],
      "name": "game",
      "outputs": [
        {
          "internalType": "contract Game",
          "name": "",
          "type": "address"
        }
      ],
      "stateMutability": "view",
      "type": "function"
    },
    {
      "inputs": [
        {
          "internalType": "address",
          "name": "_player",
          "type": "address"
        }
      ],
      "name": "getAllLobbiesForPlayerWithDupes",
      "outputs": [
        {
          "components": [
            {
              "components": [
                {
                  "internalType": "uint256",
                  "name": "id",
                  "type": "uint256"
                },
                {
                  "internalType": "address",
                  "name": "creator",
                  "type": "address"
                },
                {
                  "internalType": "uint256",
                  "name": "costLimit",
                  "type": "uint256"
                },
                {
                  "internalType": "uint256",
                  "name": "createdAt",
                  "type": "uint256"
                }
              ],
              "internalType": "struct LobbyBasic",
              "name": "basic",
              "type": "tuple"
            },
            {
              "components": [
                {
                  "internalType": "address",
                  "name": "joiner",
                  "type": "address"
                },
                {
                  "internalType": "uint256",
                  "name": "creatorFleetId",
                  "type": "uint256"
                },
                {
                  "internalType": "uint256",
                  "name": "joinerFleetId",
                  "type": "uint256"
                },
                {
                  "internalType": "uint256",
                  "name": "joinedAt",
                  "type": "uint256"
                },
                {
                  "internalType": "uint256",
                  "name": "joinerFleetSetAt",
                  "type": "uint256"
                }
              ],
              "internalType": "struct LobbyPlayers",
              "name": "players",
              "type": "tuple"
            },
            {
              "components": [
                {
                  "internalType": "bool",
                  "name": "creatorGoesFirst",
                  "type": "bool"
                },
                {
                  "internalType": "uint256",
                  "name": "turnTime",
                  "type": "uint256"
                },
                {
                  "internalType": "uint256",
                  "name": "selectedMapId",
                  "type": "uint256"
                },
                {
                  "internalType": "uint256",
                  "name": "maxScore",
                  "type": "uint256"
                }
              ],
              "internalType": "struct LobbyGameConfig",
              "name": "gameConfig",
              "type": "tuple"
            },
            {
              "components": [
                {
                  "internalType": "enum LobbyStatus",
                  "name": "status",
                  "type": "uint8"
                },
                {
                  "internalType": "uint256",
                  "name": "gameStartedAt",
                  "type": "uint256"
                }
              ],
              "internalType": "struct LobbyState",
              "name": "state",
              "type": "tuple"
            }
          ],
          "internalType": "struct Lobby[]",
          "name": "",
          "type": "tuple[]"
        }
      ],
      "stateMutability": "view",
      "type": "function"
    },
    {
      "inputs": [
        {
          "internalType": "uint256[]",
          "name": "_lobbyIds",
          "type": "uint256[]"
        }
      ],
      "name": "getLobbiesFromIds",
      "outputs": [
        {
          "components": [
            {
              "components": [
                {
                  "internalType": "uint256",
                  "name": "id",
                  "type": "uint256"
                },
                {
                  "internalType": "address",
                  "name": "creator",
                  "type": "address"
                },
                {
                  "internalType": "uint256",
                  "name": "costLimit",
                  "type": "uint256"
                },
                {
                  "internalType": "uint256",
                  "name": "createdAt",
                  "type": "uint256"
                }
              ],
              "internalType": "struct LobbyBasic",
              "name": "basic",
              "type": "tuple"
            },
            {
              "components": [
                {
                  "internalType": "address",
                  "name": "joiner",
                  "type": "address"
                },
                {
                  "internalType": "uint256",
                  "name": "creatorFleetId",
                  "type": "uint256"
                },
                {
                  "internalType": "uint256",
                  "name": "joinerFleetId",
                  "type": "uint256"
                },
                {
                  "internalType": "uint256",
                  "name": "joinedAt",
                  "type": "uint256"
                },
                {
                  "internalType": "uint256",
                  "name": "joinerFleetSetAt",
                  "type": "uint256"
                }
              ],
              "internalType": "struct LobbyPlayers",
              "name": "players",
              "type": "tuple"
            },
            {
              "components": [
                {
                  "internalType": "bool",
                  "name": "creatorGoesFirst",
                  "type": "bool"
                },
                {
                  "internalType": "uint256",
                  "name": "turnTime",
                  "type": "uint256"
                },
                {
                  "internalType": "uint256",
                  "name": "selectedMapId",
                  "type": "uint256"
                },
                {
                  "internalType": "uint256",
                  "name": "maxScore",
                  "type": "uint256"
                }
              ],
              "internalType": "struct LobbyGameConfig",
              "name": "gameConfig",
              "type": "tuple"
            },
            {
              "components": [
                {
                  "internalType": "enum LobbyStatus",
                  "name": "status",
                  "type": "uint8"
                },
                {
                  "internalType": "uint256",
                  "name": "gameStartedAt",
                  "type": "uint256"
                }
              ],
              "internalType": "struct LobbyState",
              "name": "state",
              "type": "tuple"
            }
          ],
          "internalType": "struct Lobby[]",
          "name": "",
          "type": "tuple[]"
        }
      ],
      "stateMutability": "view",
      "type": "function"
    },
    {
      "inputs": [
        {
          "internalType": "uint256",
          "name": "_lobbyId",
          "type": "uint256"
        }
      ],
      "name": "getLobby",
      "outputs": [
        {
          "components": [
            {
              "components": [
                {
                  "internalType": "uint256",
                  "name": "id",
                  "type": "uint256"
                },
                {
                  "internalType": "address",
                  "name": "creator",
                  "type": "address"
                },
                {
                  "internalType": "uint256",
                  "name": "costLimit",
                  "type": "uint256"
                },
                {
                  "internalType": "uint256",
                  "name": "createdAt",
                  "type": "uint256"
                }
              ],
              "internalType": "struct LobbyBasic",
              "name": "basic",
              "type": "tuple"
            },
            {
              "components": [
                {
                  "internalType": "address",
                  "name": "joiner",
                  "type": "address"
                },
                {
                  "internalType": "uint256",
                  "name": "creatorFleetId",
                  "type": "uint256"
                },
                {
                  "internalType": "uint256",
                  "name": "joinerFleetId",
                  "type": "uint256"
                },
                {
                  "internalType": "uint256",
                  "name": "joinedAt",
                  "type": "uint256"
                },
                {
                  "internalType": "uint256",
                  "name": "joinerFleetSetAt",
                  "type": "uint256"
                }
              ],
              "internalType": "struct LobbyPlayers",
              "name": "players",
              "type": "tuple"
            },
            {
              "components": [
                {
                  "internalType": "bool",
                  "name": "creatorGoesFirst",
                  "type": "bool"
                },
                {
                  "internalType": "uint256",
                  "name": "turnTime",
                  "type": "uint256"
                },
                {
                  "internalType": "uint256",
                  "name": "selectedMapId",
                  "type": "uint256"
                },
                {
                  "internalType": "uint256",
                  "name": "maxScore",
                  "type": "uint256"
                }
              ],
              "internalType": "struct LobbyGameConfig",
              "name": "gameConfig",
              "type": "tuple"
            },
            {
              "components": [
                {
                  "internalType": "enum LobbyStatus",
                  "name": "status",
                  "type": "uint8"
                },
                {
                  "internalType": "uint256",
                  "name": "gameStartedAt",
                  "type": "uint256"
                }
              ],
              "internalType": "struct LobbyState",
              "name": "state",
              "type": "tuple"
            }
          ],
          "internalType": "struct Lobby",
          "name": "",
          "type": "tuple"
        }
      ],
      "stateMutability": "view",
      "type": "function"
    },
    {
      "inputs": [],
      "name": "getOpenLobbies",
      "outputs": [
        {
          "internalType": "uint256[]",
          "name": "",
          "type": "uint256[]"
        }
      ],
      "stateMutability": "view",
      "type": "function"
    },
    {
      "inputs": [],
      "name": "getOpenLobbyCount",
      "outputs": [
        {
          "internalType": "uint256",
          "name": "",
          "type": "uint256"
        }
      ],
      "stateMutability": "view",
      "type": "function"
    },
    {
      "inputs": [
        {
          "internalType": "address",
          "name": "_player",
          "type": "address"
        }
      ],
      "name": "getPlayerLobbies",
      "outputs": [
        {
          "internalType": "uint256[]",
          "name": "",
          "type": "uint256[]"
        }
      ],
      "stateMutability": "view",
      "type": "function"
    },
    {
      "inputs": [
        {
          "internalType": "address",
          "name": "_player",
          "type": "address"
        }
      ],
      "name": "getPlayerLobbyCount",
      "outputs": [
        {
          "internalType": "uint256",
          "name": "",
          "type": "uint256"
        }
      ],
      "stateMutability": "view",
      "type": "function"
    },
    {
      "inputs": [
        {
          "internalType": "address",
          "name": "_player",
          "type": "address"
        }
      ],
      "name": "getPlayerState",
      "outputs": [
        {
          "components": [
            {
              "internalType": "uint256",
              "name": "activeLobbyId",
              "type": "uint256"
            },
            {
              "internalType": "uint256",
              "name": "activeLobbiesCount",
              "type": "uint256"
            },
            {
              "internalType": "bool",
              "name": "hasActiveLobby",
              "type": "bool"
            },
            {
              "internalType": "uint256",
              "name": "kickCount",
              "type": "uint256"
            },
            {
              "internalType": "uint256",
              "name": "lastKickTime",
              "type": "uint256"
            }
          ],
          "internalType": "struct PlayerLobbyState",
          "name": "",
          "type": "tuple"
        }
      ],
      "stateMutability": "view",
      "type": "function"
    },
    {
      "inputs": [
        {
          "internalType": "address",
          "name": "_player",
          "type": "address"
        }
      ],
      "name": "getPlayerTimeoutEnd",
      "outputs": [
        {
          "internalType": "uint256",
          "name": "",
          "type": "uint256"
        }
      ],
      "stateMutability": "view",
      "type": "function"
    },
    {
      "inputs": [
        {
          "internalType": "uint256",
          "name": "_lobbyId",
          "type": "uint256"
        }
      ],
      "name": "isLobbyOpen",
      "outputs": [
        {
          "internalType": "bool",
          "name": "",
          "type": "bool"
        }
      ],
      "stateMutability": "view",
      "type": "function"
    },
    {
      "inputs": [
        {
          "internalType": "uint256",
          "name": "_id",
          "type": "uint256"
        }
      ],
      "name": "isLobbyOpenForJoining",
      "outputs": [
        {
          "internalType": "bool",
          "name": "",
          "type": "bool"
        }
      ],
      "stateMutability": "view",
      "type": "function"
    },
    {
      "inputs": [
        {
          "internalType": "address",
          "name": "_player",
          "type": "address"
        },
        {
          "internalType": "uint256",
          "name": "_lobbyId",
          "type": "uint256"
        }
      ],
      "name": "isPlayerInLobby",
      "outputs": [
        {
          "internalType": "bool",
          "name": "",
          "type": "bool"
        }
      ],
      "stateMutability": "view",
      "type": "function"
    },
    {
      "inputs": [
        {
          "internalType": "uint256",
          "name": "_lobbyId",
          "type": "uint256"
        }
      ],
      "name": "joinLobby",
      "outputs": [],
      "stateMutability": "nonpayable",
      "type": "function"
    },
    {
      "inputs": [
        {
          "internalType": "uint256",
          "name": "_lobbyId",
          "type": "uint256"
        }
      ],
      "name": "leaveLobby",
      "outputs": [],
      "stateMutability": "nonpayable",
      "type": "function"
    },
    {
      "inputs": [
        {
          "internalType": "uint256",
          "name": "",
          "type": "uint256"
        }
      ],
      "name": "lobbies",
      "outputs": [
        {
          "components": [
            {
              "internalType": "uint256",
              "name": "id",
              "type": "uint256"
            },
            {
              "internalType": "address",
              "name": "creator",
              "type": "address"
            },
            {
              "internalType": "uint256",
              "name": "costLimit",
              "type": "uint256"
            },
            {
              "internalType": "uint256",
              "name": "createdAt",
              "type": "uint256"
            }
          ],
          "internalType": "struct LobbyBasic",
          "name": "basic",
          "type": "tuple"
        },
        {
          "components": [
            {
              "internalType": "address",
              "name": "joiner",
              "type": "address"
            },
            {
              "internalType": "uint256",
              "name": "creatorFleetId",
              "type": "uint256"
            },
            {
              "internalType": "uint256",
              "name": "joinerFleetId",
              "type": "uint256"
            },
            {
              "internalType": "uint256",
              "name": "joinedAt",
              "type": "uint256"
            },
            {
              "internalType": "uint256",
              "name": "joinerFleetSetAt",
              "type": "uint256"
            }
          ],
          "internalType": "struct LobbyPlayers",
          "name": "players",
          "type": "tuple"
        },
        {
          "components": [
            {
              "internalType": "bool",
              "name": "creatorGoesFirst",
              "type": "bool"
            },
            {
              "internalType": "uint256",
              "name": "turnTime",
              "type": "uint256"
            },
            {
              "internalType": "uint256",
              "name": "selectedMapId",
              "type": "uint256"
            },
            {
              "internalType": "uint256",
              "name": "maxScore",
              "type": "uint256"
            }
          ],
          "internalType": "struct LobbyGameConfig",
          "name": "gameConfig",
          "type": "tuple"
        },
        {
          "components": [
            {
              "internalType": "enum LobbyStatus",
              "name": "status",
              "type": "uint8"
            },
            {
              "internalType": "uint256",
              "name": "gameStartedAt",
              "type": "uint256"
            }
          ],
          "internalType": "struct LobbyState",
          "name": "state",
          "type": "tuple"
        }
      ],
      "stateMutability": "view",
      "type": "function"
    },
    {
      "inputs": [],
      "name": "lobbyCount",
      "outputs": [
        {
          "internalType": "uint256",
          "name": "",
          "type": "uint256"
        }
      ],
      "stateMutability": "view",
      "type": "function"
    },
    {
      "inputs": [],
      "name": "owner",
      "outputs": [
        {
          "internalType": "address",
          "name": "",
          "type": "address"
        }
      ],
      "stateMutability": "view",
      "type": "function"
    },
    {
      "inputs": [],
      "name": "paused",
      "outputs": [
        {
          "internalType": "bool",
          "name": "",
          "type": "bool"
        }
      ],
      "stateMutability": "view",
      "type": "function"
    },
    {
      "inputs": [
        {
          "internalType": "address",
          "name": "",
          "type": "address"
        }
      ],
      "name": "playerStates",
      "outputs": [
        {
          "internalType": "uint256",
          "name": "activeLobbyId",
          "type": "uint256"
        },
        {
          "internalType": "uint256",
          "name": "activeLobbiesCount",
          "type": "uint256"
        },
        {
          "internalType": "bool",
          "name": "hasActiveLobby",
          "type": "bool"
        },
        {
          "internalType": "uint256",
          "name": "kickCount",
          "type": "uint256"
        },
        {
          "internalType": "uint256",
          "name": "lastKickTime",
          "type": "uint256"
        }
      ],
      "stateMutability": "view",
      "type": "function"
    },
    {
      "inputs": [
        {
          "internalType": "uint256",
          "name": "_lobbyId",
          "type": "uint256"
        }
      ],
      "name": "quitWithPenalty",
      "outputs": [],
      "stateMutability": "nonpayable",
      "type": "function"
    },
    {
      "inputs": [],
      "name": "renounceOwnership",
      "outputs": [],
      "stateMutability": "nonpayable",
      "type": "function"
    },
    {
      "inputs": [
        {
          "internalType": "uint256",
          "name": "_fee",
          "type": "uint256"
        }
      ],
      "name": "setAdditionalLobbyFee",
      "outputs": [],
      "stateMutability": "nonpayable",
      "type": "function"
    },
    {
      "inputs": [
        {
          "internalType": "address",
          "name": "_fleetsAddress",
          "type": "address"
        }
      ],
      "name": "setFleetsAddress",
      "outputs": [],
      "stateMutability": "nonpayable",
      "type": "function"
    },
    {
      "inputs": [
        {
          "internalType": "uint256",
          "name": "_count",
          "type": "uint256"
        }
      ],
      "name": "setFreeGamesPerAddress",
      "outputs": [],
      "stateMutability": "nonpayable",
      "type": "function"
    },
    {
      "inputs": [
        {
          "internalType": "address",
          "name": "_gameAddress",
          "type": "address"
        }
      ],
      "name": "setGameAddress",
      "outputs": [],
      "stateMutability": "nonpayable",
      "type": "function"
    },
    {
      "inputs": [
        {
          "internalType": "bool",
          "name": "_paused",
          "type": "bool"
        }
      ],
      "name": "setPaused",
      "outputs": [],
      "stateMutability": "nonpayable",
      "type": "function"
    },
    {
      "inputs": [],
      "name": "ships",
      "outputs": [
        {
          "internalType": "contract Ships",
          "name": "",
          "type": "address"
        }
      ],
      "stateMutability": "view",
      "type": "function"
    },
    {
      "inputs": [
        {
          "internalType": "uint256",
          "name": "_lobbyId",
          "type": "uint256"
        }
      ],
      "name": "timeoutJoiner",
      "outputs": [],
      "stateMutability": "nonpayable",
      "type": "function"
    },
    {
      "inputs": [
        {
          "internalType": "address",
          "name": "newOwner",
          "type": "address"
        }
      ],
      "name": "transferOwnership",
      "outputs": [],
      "stateMutability": "nonpayable",
      "type": "function"
    },
    {
      "inputs": [],
      "name": "withdraw",
      "outputs": [],
      "stateMutability": "nonpayable",
      "type": "function"
    }
  ],
  "bytecode": "0x60806040526001600655670de0b6b3a764000060075534801561002157600080fd5b50604051612f32380380612f32833981016040819052610040916100e9565b338061006657604051631e4fbdf760e01b81526000600482015260240160405180910390fd5b61006f81610099565b5060018055600280546001600160a01b0319166001600160a01b0392909216919091179055610119565b600080546001600160a01b038381166001600160a01b0319831681178455604051919092169283917f8be0079c531659141344cd1fd0a4f28419497f9722a3daafe3b4186f6b6457e09190a35050565b6000602082840312156100fb57600080fd5b81516001600160a01b038116811461011257600080fd5b9392505050565b612e0a806101286000396000f3fe60806040526004361061023b5760003560e01c8063948428f01161012e578063cd335414116100ab578063eff3d3061161006f578063eff3d3061461073a578063f25205f314610750578063f2fde38b14610770578063faa5bf8914610790578063ff465523146107a557600080fd5b8063cd3354141461063d578063d15e55b71461065d578063dc273b3f146106da578063e9173b3a146106fa578063ea1ad1f61461071a57600080fd5b8063bbf8218a116100f2578063bbf8218a1461056c578063c01ca43f1461058c578063c3fe3e28146105f0578063c623130b14610610578063ca1df1701461062757600080fd5b8063948428f0146104e15780639ed4ce1414610501578063a875cae514610516578063b6d810881461052c578063b83e5c7e1461054c57600080fd5b80634e12b6f9116101bc5780636e8fb4c6116101805780636e8fb4c61461043e578063711953ef1461046e578063715018a61461048e57806374262da2146104a35780638da5cb5b146104c357600080fd5b80634e12b6f9146103ab578063543ad1df146103cb5780635c975abb146103e1578063618e6fa71461040b578063669bcb0e1461041e57600080fd5b80632eaeb161116102035780632eaeb161146102fb57806330fff6b0146103115780633ccfd60b14610331578063452c09f41461034657806348915d911461037357600080fd5b806308a314dc1461024057806316c38b3c146102765780631fba1bdf146102985780632681cbb8146102c65780632aa9c679146102e6575b600080fd5b34801561024c57600080fd5b5061026061025b366004612808565b6107d2565b60405161026d9190612945565b60405180910390f35b34801561028257600080fd5b506102966102913660046129a9565b6109a9565b005b3480156102a457600080fd5b506102b86102b33660046129db565b6109c4565b60405190815260200161026d565b3480156102d257600080fd5b506102966102e13660046129f6565b610a18565b3480156102f257600080fd5b506102b8603c81565b34801561030757600080fd5b506102b8610e1081565b34801561031d57600080fd5b5061029661032c366004612aa6565b610ef5565b34801561033d57600080fd5b5061029661117f565b34801561035257600080fd5b506103666103613660046129db565b611223565b60405161026d9190612abf565b34801561037f57600080fd5b50600454610393906001600160a01b031681565b6040516001600160a01b03909116815260200161026d565b3480156103b757600080fd5b506102966103c6366004612aa6565b611247565b3480156103d757600080fd5b506102b861012c81565b3480156103ed57600080fd5b506008546103fb9060ff1681565b604051901515815260200161026d565b610296610419366004612af7565b611254565b34801561042a57600080fd5b50610296610439366004612aa6565b61145e565b34801561044a57600080fd5b5061045e610459366004612aa6565b61146b565b60405161026d9493929190612b3e565b34801561047a57600080fd5b506102966104893660046129db565b611573565b34801561049a57600080fd5b5061029661159d565b3480156104af57600080fd5b506102966104be366004612aa6565b6115b1565b3480156104cf57600080fd5b506000546001600160a01b0316610393565b3480156104ed57600080fd5b506102966104fc366004612aa6565b6117af565b34801561050d57600080fd5b506102b8611b25565b34801561052257600080fd5b506102b860075481565b34801561053857600080fd5b506103fb610547366004612aa6565b611b36565b34801561055857600080fd5b506102966105673660046129db565b611b43565b34801561057857600080fd5b50600254610393906001600160a01b031681565b34801561059857600080fd5b506105ac6105a73660046129db565b611b6d565b60405161026d9190600060a0820190508251825260208301516020830152604083015115156040830152606083015160608301526080830151608083015292915050565b3480156105fc57600080fd5b50600354610393906001600160a01b031681565b34801561061c57600080fd5b506102b86201518081565b34801561063357600080fd5b506102b860065481565b34801561064957600080fd5b506102b86106583660046129db565b611bfe565b34801561066957600080fd5b506106ab6106783660046129db565b600a60205260009081526040902080546001820154600283015460038401546004909401549293919260ff909116919085565b60405161026d959493929190948552602085019390935290151560408401526060830152608082015260a00190565b3480156106e657600080fd5b506103fb6106f5366004612beb565b611c1f565b34801561070657600080fd5b50610296610715366004612aa6565b611c41565b34801561072657600080fd5b506102606107353660046129db565b611e32565b34801561074657600080fd5b506102b860055481565b34801561075c57600080fd5b506103fb61076b366004612aa6565b6121b3565b34801561077c57600080fd5b5061029661078b3660046129db565b6121f7565b34801561079c57600080fd5b50610366612232565b3480156107b157600080fd5b506107c56107c0366004612aa6565b61223e565b60405161026d9190612c15565b606060008267ffffffffffffffff8111156107ef576107ef612c24565b60405190808252806020026020018201604052801561082857816020015b6108156126f9565b81526020019060019003908161080d5790505b50905060005b8381101561099f576009600086868481811061084c5761084c612c3a565b602090810292909201358352508181019290925260409081016000208151610100810183528154608080830191825260018401546001600160a01b0390811660a08086019190915260028087015460c0870152600387015460e0870152938552865190810187526004860154909116815260058501548188015260068501548187015260078501546060808301919091526008860154828401528488019190915285519182018652600985015460ff90811615158352600a86015497830197909752600b85015482870152600c85015482820152838601919091528451808601909552600d84018054939694959187019491939092849291909116908111156109575761095761284a565b60028111156109685761096861284a565b81526020016001820154815250508152505082828151811061098c5761098c612c3a565b602090810291909101015260010161082e565b5090505b92915050565b6109b1612367565b6008805460ff1916911515919091179055565b6001600160a01b0381166000908152600a60205260408120600381015482036109f05750600092915050565b610e108160030154610a029190612c66565b8160040154610a119190612c7d565b9392505050565b610a20612394565b60008581526009602052604081208054909103610a50576040516374315adb60e01b815260040160405180910390fd5b6001600d82015460ff166002811115610a6b57610a6b61284a565b14610a89576040516374f165fb60e11b815260040160405180910390fd5b60018101546001600160a01b03163314801590610ab3575060048101546001600160a01b03163314155b15610ad1576040516353507d5160e11b815260040160405180910390fd5b60018101546001600160a01b031633148015610af05750600581015415155b15610b0e576040516304d3525b60e51b815260040160405180910390fd5b60048101546001600160a01b031633148015610b2d5750600681015415155b15610b4b576040516304d3525b60e51b815260040160405180910390fd5b600181015460048054600284015460405163063ed7e960e21b8152336001600160a01b039586168114956000959416936318fb5fa493610b99938e93928e928e928e928e92918d9101612ca2565b6020604051808303816000875af1158015610bb8573d6000803e3d6000fd5b505050506040513d601f19601f82011682018060405250810190610bdc9190612d62565b60018401549091506001600160a01b03163303610c1b57600583018190556006830154600003610c165760098301805460ff191660011790555b610c42565b600683018190556005830154600003610c3b5760098301805460ff191690555b4260088401555b604051818152339089907f72a1a8c971b9d32d9472c3451f6e01ccb95e97125322e3cf3386a3fed86ee6589060200160405180910390a3600583015415801590610c8f5750600683015415155b15610ee257600d8301805460ff1916600217905542600e84015560405188907f50ad08f58a27f2851d7e3a1b3a6a46b290f2ce677e99642d30ff639721e7779090600090a26001830154610cec906001600160a01b0316896123be565b6004830154610d04906001600160a01b0316896123be565b610d0d886123e5565b6001808401546001600160a01b039081166000908152600a60205260408082206004880154909316825290209181015490919015610d5d57600182018054906000610d5783612d7b565b91905055505b600181015415610d7f57600181018054906000610d7983612d7b565b91905055505b6002808301805460ff199081169091556000808555918301805490911690558155610da98a6123f4565b600360009054906101000a90046001600160a01b03166001600160a01b031663e8d64aee8b8760000160010160009054906101000a90046001600160a01b03168860040160000160009054906101000a90046001600160a01b031689600401600101548a600401600201548b60090160000160009054906101000a900460ff168c600901600101548d600901600201548e600901600301546040518a63ffffffff1660e01b8152600401610ead999897969594939291909889526001600160a01b0397881660208a015295909616604088015260608701939093526080860191909152151560a085015260c084015260e08301919091526101008201526101200190565b600060405180830381600087803b158015610ec757600080fd5b505af1158015610edb573d6000803e3d6000fd5b5050505050505b505050610eee60018055565b5050505050565b610efd612394565b60008181526009602052604081208054909103610f2d576040516374315adb60e01b815260040160405180910390fd5b60048101546001600160a01b03163314610f5a57604051639d2663a360e01b815260040160405180910390fd5b6001600d82015460ff166002811115610f7557610f7561284a565b14610f93576040516374f165fb60e11b815260040160405180910390fd5b6006810154600003610fb8576040516353507d5160e11b815260040160405180910390fd5b600581015415610fdb576040516304d3525b60e51b815260040160405180910390fd5b600a8101546008820154610fef9190612c7d565b42101561100f576040516322fce56360e11b815260040160405180910390fd5b600480546006830154604051630f2bf13b60e41b8152928301526001600160a01b03169063f2bf13b090602401600060405180830381600087803b15801561105657600080fd5b505af115801561106a573d6000803e3d6000fd5b5050505060018101546001600160a01b03166000908152600a60205260408120600381018054919261109b83612d92565b9091555050426004808301919091556002808301805460ff199081169091556000808555928501546001600160a01b039081168452600a602052604084209283018054909216909155918155600184015490916110f99116856123be565b6004830154611111906001600160a01b0316856123be565b61111a84612461565b6004830180546001600160a01b0319169055600d8301805460ff191690556000600584018190556006840181905560405185917fcb7662b1678001afa152fed432f46cdaa4318053fa7acba681da4b416a59123c91a250505061117c60018055565b50565b611187612367565b600080546040516001600160a01b039091169047908381818185875af1925050503d80600081146111d4576040519150601f19603f3d011682016040523d82523d6000602084013e6111d9565b606091505b505090508061117c5760405162461bcd60e51b815260206004820152601160248201527015da5d1a191c985dd85b0819985a5b1959607a1b60448201526064015b60405180910390fd5b6001600160a01b0381166000908152600b602052604090206060906109a39061246c565b61124f612367565b600755565b61125c612394565b60085460ff161561128057604051635083854f60e11b815260040160405180910390fd5b61012c84108061129257506201518084115b156112b05760405163079900bb60e31b815260040160405180910390fd5b336000908152600a60205260409020600381015415611311576000610e1082600301546112dd9190612c66565b82600401546112ec9190612c7d565b90508042101561130f5760405163c56b424b60e01b815260040160405180910390fd5b505b600654816001015410611340576007543410156113405760405162976f7560e21b815260040160405180910390fd5b6005805490600061135083612d92565b90915550506005805460008181526009602081905260408220928355600180840180546001600160a01b0319163317905560028085018c9055600d8501805460ff1990811690915542600387015592850180548b1515908516179055600a85018b9055600b8501899055600c850188905586018054909216811790915592548455918301805491926113e183612d92565b91905055506113f233600554612479565b6113fd600554612461565b600554604080518981526020810189905287151581830152606081018790526080810186905290513392917fc0594b072d40bf82c20f44fa41a55144b097ebd9b07f9a37ba466d40e1f43aab919081900360a00190a35050610eee60018055565b611466612367565b600655565b6009602081815260009283526040928390208351608080820186528254825260018301546001600160a01b0390811683860152600280850154848901526003850154606080860191909152885160a081018a52600487015490931683526005860154838801526006860154838a0152600786015483820152600886015483850152885193840189529685015460ff90811615158452600a86015496840196909652600b85015483890152600c850154968301969096528651808801909752600d84018054939791969295919390928492919091169081111561154f5761154f61284a565b60028111156115605761156061284a565b8152602001600182015481525050905084565b61157b612367565b600380546001600160a01b0319166001600160a01b0392909216919091179055565b6115a5612367565b6115af600061249b565b565b6115b9612394565b600081815260096020526040812080549091036115e9576040516374315adb60e01b815260040160405180910390fd5b60018101546001600160a01b03163314611616576040516386e3479160e01b815260040160405180910390fd5b6001600d82015460ff1660028111156116315761163161284a565b1461164f576040516374f165fb60e11b815260040160405180910390fd5b60048101546001600160a01b031661167a576040516374315adb60e01b815260040160405180910390fd5b60068101541561169d576040516304d3525b60e51b815260040160405180910390fd5b600a81015460078201546116b19190612c7d565b4210156116d1576040516326c015ab60e21b815260040160405180910390fd5b60048101546001600160a01b03166000908152600a6020526040812060038101805491926116fe83612d92565b90915550504260048083019190915560028201805460ff1916905560008255820154611733906001600160a01b0316846123be565b61173c83612461565b6004820180546001600160a01b0319169055600d8201805460ff191690556000600583018190556006830181905560018301546040516001600160a01b039091169185917fee8b079adb6e971a80670fe597ec6fd06cb3699ea8771fe1b5554c79a7c0b8fd9190a3505061117c60018055565b6117b7612394565b600081815260096020526040812080549091036117e7576040516374315adb60e01b815260040160405180910390fd5b60018101546001600160a01b03163314801590611811575060048101546001600160a01b03163314155b1561182f576040516353507d5160e11b815260040160405180910390fd5b6002600d82015460ff16600281111561184a5761184a61284a565b036118685760405163604163d360e11b815260040160405180910390fd5b336000908152600a6020526040902080548314611898576040516353507d5160e11b815260040160405180910390fd5b60018201546001600160a01b03163303611a185760058201541561191d57600480546005840154604051630f2bf13b60e41b8152928301526001600160a01b03169063f2bf13b090602401600060405180830381600087803b1580156118fd57600080fd5b505af1158015611911573d6000803e3d6000fd5b50506000600585015550505b60048201546001600160a01b0316156119dd57600482018054600180850180546001600160a01b0384166001600160a01b03199182168117909255909216909255600d8401805460ff199081169091556000828152600a6020526040902060028101805490921690931790558482559061199733866123be565b6119a085612461565b6040516001600160a01b0383169086907fee8b079adb6e971a80670fe597ec6fd06cb3699ea8771fe1b5554c79a7c0b8fd90600090a35050611ae8565b6119e6836123f4565b604051339084907f9b5e662ea3d6238d43ff6f148df4451e32553992239658d2fbca40e78f0cb5d790600090a3611ae8565b600682015415611a8957600480546006840154604051630f2bf13b60e41b8152928301526001600160a01b03169063f2bf13b090602401600060405180830381600087803b158015611a6957600080fd5b505af1158015611a7d573d6000803e3d6000fd5b50506000600685015550505b6004820180546001600160a01b0319169055600d8201805460ff19169055611ab133846123be565b611aba83612461565b604051339084907f9b5e662ea3d6238d43ff6f148df4451e32553992239658d2fbca40e78f0cb5d790600090a35b60028101805460ff1916905560008155600181015415611b1a57600181018054906000611b1483612d7b565b91905055505b505061117c60018055565b6000611b31600c6124eb565b905090565b60006109a3600c836124f5565b611b4b612367565b600480546001600160a01b0319166001600160a01b0392909216919091179055565b611ba16040518060a00160405280600081526020016000815260200160001515815260200160008152602001600081525090565b506001600160a01b03166000908152600a6020908152604091829020825160a08101845281548152600182015492810192909252600281015460ff1615159282019290925260038201546060820152600490910154608082015290565b6001600160a01b0381166000908152600b602052604081206109a3906124eb565b6001600160a01b0382166000908152600b60205260408120610a1190836124f5565b611c49612394565b60008181526009602052604081208054909103611c79576040516374315adb60e01b815260040160405180910390fd5b6000600d82015460ff166002811115611c9457611c9461284a565b14611cb2576040516374f165fb60e11b815260040160405180910390fd5b6001810154336001600160a01b0390911603611ce15760405163e24fd63160e01b815260040160405180910390fd5b60048101546001600160a01b031615611d0d5760405163be02dee760e01b815260040160405180910390fd5b336000908152600a60205260409020600281015460ff1615611d425760405163e24fd63160e01b815260040160405180910390fd5b600381015415611d94576000610e108260030154611d609190612c66565b8260040154611d6f9190612c7d565b905080421015611d925760405163c56b424b60e01b815260040160405180910390fd5b505b6004820180546001600160a01b03191633179055600d8201805460ff1990811660019081179092554260078501556002830180549091168217905583825581018054906000611de283612d92565b9190505550611df13384612479565b611dfa836123e5565b604051339084907f9b8e9742090654a785c549aefcfcd7cc7f18215ee64c50e9d93f4b153a0e56e490600090a3505061117c60018055565b6001600160a01b0381166000908152600b60205260408120606091600c90611e59826124eb565b611e62846124eb565b611e6c9190612c7d565b67ffffffffffffffff811115611e8457611e84612c24565b604051908082528060200260200182016040528015611ebd57816020015b611eaa6126f9565b815260200190600190039081611ea25790505b50905060005b611ecc846124eb565b81101561202b5760096000611ee1868461250d565b815260208082019290925260409081016000208151610100810183528154608080830191825260018401546001600160a01b0390811660a08086019190915260028087015460c0870152600387015460e0870152938552865190810187526004860154909116815260058501548188015260068501548187015260078501546060808301919091526008860154828401528488019190915285519182018652600985015460ff90811615158352600a86015497830197909752600b85015482870152600c85015482820152838601919091528451808601909552600d8401805493969495918701949193909284929190911690811115611fe357611fe361284a565b6002811115611ff457611ff461284a565b81526020016001820154815250508152505082828151811061201857612018612c3a565b6020908102919091010152600101611ec3565b5060005b612038836124eb565b8110156121aa576009600061204d858461250d565b815260208082019290925260409081016000208151610100810183528154608080830191825260018401546001600160a01b0390811660a08086019190915260028087015460c0870152600387015460e0870152938552865190810187526004860154909116815260058501548188015260068501548187015260078501546060808301919091526008860154828401528488019190915285519182018652600985015460ff90811615158352600a86015497830197909752600b85015482870152600c85015482820152838601919091528451808601909552600d840180549396949591870194919390928492919091169081111561214f5761214f61284a565b60028111156121605761216061284a565b815260200160018201548152505081525050828261217d876124eb565b6121879190612c7d565b8151811061219757612197612c3a565b602090810291909101015260010161202f565b50949350505050565b600081815260096020526040812081600d82015460ff1660028111156121db576121db61284a565b148015610a115750600401546001600160a01b03161592915050565b6121ff612367565b6001600160a01b03811661222957604051631e4fbdf760e01b81526000600482015260240161121a565b61117c8161249b565b6060611b31600c61246c565b6122466126f9565b6000828152600960208181526040928390208351610100810185528154608080830191825260018401546001600160a01b0390811660a08086019190915260028087015460c0870152600387015460e08701529385528851908101895260048601549091168152600585015481870152600685015481890152600785015460608083019190915260088601548284015284870191909152875191820188529584015460ff90811615158252600a85015495820195909552600b84015481880152600c84015481870152828701528551808701909652600d83018054929693958701949092849291169081111561233e5761233e61284a565b600281111561234f5761234f61284a565b81526001919091015460209091015290525092915050565b6000546001600160a01b031633146115af5760405163118cdaa760e01b815233600482015260240161121a565b6002600154036123b757604051633ee5aeb560e01b815260040160405180910390fd5b6002600155565b6001600160a01b0382166000908152600b602052604090206123e09082612519565b505050565b6123f0600c82612519565b5050565b600081815260096020526040902060018101546001600160a01b03161561242d57600181015461242d906001600160a01b0316836123be565b60048101546001600160a01b031615612458576004810154612458906001600160a01b0316836123be565b6123f0826123e5565b6123f0600c82612525565b60606000610a1183612531565b6001600160a01b0382166000908152600b602052604090206123e09082612525565b600080546001600160a01b038381166001600160a01b0319831681178455604051919092169283917f8be0079c531659141344cd1fd0a4f28419497f9722a3daafe3b4186f6b6457e09190a35050565b60006109a3825490565b60008181526001830160205260408120541515610a11565b6000610a11838361258d565b6000610a1183836125b7565b6000610a1183836126aa565b60608160000180548060200260200160405190810160405280929190818152602001828054801561258157602002820191906000526020600020905b81548152602001906001019080831161256d575b50505050509050919050565b60008260000182815481106125a4576125a4612c3a565b9060005260206000200154905092915050565b600081815260018301602052604081205480156126a05760006125db600183612dab565b85549091506000906125ef90600190612dab565b905080821461265457600086600001828154811061260f5761260f612c3a565b906000526020600020015490508087600001848154811061263257612632612c3a565b6000918252602080832090910192909255918252600188019052604090208390555b855486908061266557612665612dbe565b6001900381819060005260206000200160009055905585600101600086815260200190815260200160002060009055600193505050506109a3565b60009150506109a3565b60008181526001830160205260408120546126f1575081546001818101845560008481526020808220909301849055845484825282860190935260409020919091556109a3565b5060006109a3565b60408051610100810190915260006080820181815260a0830182905260c0830182905260e0830191909152819081526020016127666040518060a0016040528060006001600160a01b03168152602001600081526020016000815260200160008152602001600081525090565b815260200161279860405180608001604052806000151581526020016000815260200160008152602001600081525090565b81526020016127b7604080518082019091526000808252602082015290565b905290565b60008083601f8401126127ce57600080fd5b50813567ffffffffffffffff8111156127e657600080fd5b6020830191508360208260051b850101111561280157600080fd5b9250929050565b6000806020838503121561281b57600080fd5b823567ffffffffffffffff81111561283257600080fd5b61283e858286016127bc565b90969095509350505050565b634e487b7160e01b600052602160045260246000fd5b80516003811061288057634e487b7160e01b600052602160045260246000fd5b8252602090810151910152565b6128bf828251805182526020808201516001600160a01b03169083015260408082015190830152606090810151910152565b6020810151612902608084018280516001600160a01b03168252602080820151908301526040808201519083015260608082015190830152608090810151910152565b50604081810151805115156101208501526020810151610140850152908101516101608401526060908101516101808401528101516123e06101a0840182612860565b602080825282518282018190526000918401906040840190835b818110156129895761297283855161288d565b602093909301926101e0929092019160010161295f565b509095945050505050565b803580151581146129a457600080fd5b919050565b6000602082840312156129bb57600080fd5b610a1182612994565b80356001600160a01b03811681146129a457600080fd5b6000602082840312156129ed57600080fd5b610a11826129c4565b600080600080600060608688031215612a0e57600080fd5b85359450602086013567ffffffffffffffff811115612a2c57600080fd5b612a38888289016127bc565b909550935050604086013567ffffffffffffffff811115612a5857600080fd5b8601601f81018813612a6957600080fd5b803567ffffffffffffffff811115612a8057600080fd5b8860208260061b8401011115612a9557600080fd5b959894975092955050506020019190565b600060208284031215612ab857600080fd5b5035919050565b602080825282518282018190526000918401906040840190835b81811015612989578351835260209384019390920191600101612ad9565b600080600080600060a08688031215612b0f57600080fd5b8535945060208601359350612b2660408701612994565b94979396509394606081013594506080013592915050565b845181526020808601516001600160a01b03169082015260408086015190820152606080860151908201526101e0810184516001600160a01b0316608083810191909152602086015160a0840152604086015160c0840152606086015160e084015285015161010083015283511515610120830152602084015161014083015260408401516101608301526060840151610180830152612be26101a0830184612860565b95945050505050565b60008060408385031215612bfe57600080fd5b612c07836129c4565b946020939093013593505050565b6101e081016109a3828461288d565b634e487b7160e01b600052604160045260246000fd5b634e487b7160e01b600052603260045260246000fd5b634e487b7160e01b600052601160045260246000fd5b80820281158282048414176109a3576109a3612c50565b808201808211156109a3576109a3612c50565b8035600181900b81146129a457600080fd5b8881526001600160a01b038816602082015260c060408201819052810186905260006001600160fb1b03871115612cd857600080fd5b8660051b808960e0850137820182810360e0908101606085015281018690528690600090610100015b87821015612d3c57612d1283612c90565b60010b8152612d2360208401612c90565b600190810b602083015260409384019392019101612d01565b6080850187905285151560a08601529250612d55915050565b9998505050505050505050565b600060208284031215612d7457600080fd5b5051919050565b600081612d8a57612d8a612c50565b506000190190565b600060018201612da457612da4612c50565b5060010190565b818103818111156109a3576109a3612c50565b634e487b7160e01b600052603160045260246000fdfea2646970667358221220a8a25f464be29163fb182a9003c55abf61b7acaae55eb406cfe1e430d1600cf664736f6c634300081c0033",
  "linkReferences": {},
  "deployedLinkReferences": {}
}