{
  "_format": "hh-sol-artifact-1",
  "contractName": "RenderBody",
  "sourceName": "contracts/Renderers/RenderBody.sol",
  "abi": [
    {
      "inputs": [
        {
          "internalType": "address[]",
          "name": "renderers",
          "type": "address[]"
        }
      ],
      "stateMutability": "nonpayable",
      "type": "constructor"
    },
    {
      "inputs": [
        {
          "components": [
            {
              "internalType": "string",
              "name": "name",
              "type": "string"
            },
            {
              "internalType": "uint256",
              "name": "id",
              "type": "uint256"
            },
            {
              "components": [
                {
                  "internalType": "enum MainWeapon",
                  "name": "mainWeapon",
                  "type": "uint8"
                },
                {
                  "internalType": "enum Armor",
                  "name": "armor",
                  "type": "uint8"
                },
                {
                  "internalType": "enum Shields",
                  "name": "shields",
                  "type": "uint8"
                },
                {
                  "internalType": "enum Special",
                  "name": "special",
                  "type": "uint8"
                }
              ],
              "internalType": "struct Equipment",
              "name": "equipment",
              "type": "tuple"
            },
            {
              "components": [
                {
                  "internalType": "uint256",
                  "name": "serialNumber",
                  "type": "uint256"
                },
                {
                  "components": [
                    {
                      "internalType": "uint16",
                      "name": "h1",
                      "type": "uint16"
                    },
                    {
                      "internalType": "uint8",
                      "name": "s1",
                      "type": "uint8"
                    },
                    {
                      "internalType": "uint8",
                      "name": "l1",
                      "type": "uint8"
                    },
                    {
                      "internalType": "uint16",
                      "name": "h2",
                      "type": "uint16"
                    },
                    {
                      "internalType": "uint8",
                      "name": "s2",
                      "type": "uint8"
                    },
                    {
                      "internalType": "uint8",
                      "name": "l2",
                      "type": "uint8"
                    }
                  ],
                  "internalType": "struct Colors",
                  "name": "colors",
                  "type": "tuple"
                },
                {
                  "internalType": "uint8",
                  "name": "variant",
                  "type": "uint8"
                },
                {
                  "internalType": "uint8",
                  "name": "accuracy",
                  "type": "uint8"
                },
                {
                  "internalType": "uint8",
                  "name": "hull",
                  "type": "uint8"
                },
                {
                  "internalType": "uint8",
                  "name": "speed",
                  "type": "uint8"
                }
              ],
              "internalType": "struct Traits",
              "name": "traits",
              "type": "tuple"
            },
            {
              "components": [
                {
                  "internalType": "uint32",
                  "name": "shipsDestroyed",
                  "type": "uint32"
                },
                {
                  "internalType": "uint16",
                  "name": "costsVersion",
                  "type": "uint16"
                },
                {
                  "internalType": "uint16",
                  "name": "cost",
                  "type": "uint16"
                },
                {
                  "internalType": "bool",
                  "name": "shiny",
                  "type": "bool"
                },
                {
                  "internalType": "bool",
                  "name": "constructed",
                  "type": "bool"
                },
                {
                  "internalType": "bool",
                  "name": "inFleet",
                  "type": "bool"
                },
                {
                  "internalType": "uint256",
                  "name": "timestampDestroyed",
                  "type": "uint256"
                }
              ],
              "internalType": "struct ShipData",
              "name": "shipData",
              "type": "tuple"
            },
            {
              "internalType": "address",
              "name": "owner",
              "type": "address"
            }
          ],
          "internalType": "struct Ship",
          "name": "ship",
          "type": "tuple"
        }
      ],
      "name": "render",
      "outputs": [
        {
          "internalType": "string",
          "name": "",
          "type": "string"
        }
      ],
      "stateMutability": "view",
      "type": "function"
    },
    {
      "inputs": [],
      "name": "renderArmor1",
      "outputs": [
        {
          "internalType": "contract IReturnSVG",
          "name": "",
          "type": "address"
        }
      ],
      "stateMutability": "view",
      "type": "function"
    },
    {
      "inputs": [],
      "name": "renderArmor2",
      "outputs": [
        {
          "internalType": "contract IReturnSVG",
          "name": "",
          "type": "address"
        }
      ],
      "stateMutability": "view",
      "type": "function"
    },
    {
      "inputs": [],
      "name": "renderArmor3",
      "outputs": [
        {
          "internalType": "contract IReturnSVG",
          "name": "",
          "type": "address"
        }
      ],
      "stateMutability": "view",
      "type": "function"
    },
    {
      "inputs": [],
      "name": "renderBaseBody",
      "outputs": [
        {
          "internalType": "contract IReturnSVG",
          "name": "",
          "type": "address"
        }
      ],
      "stateMutability": "view",
      "type": "function"
    },
    {
      "inputs": [],
      "name": "renderShield1",
      "outputs": [
        {
          "internalType": "contract IReturnSVG",
          "name": "",
          "type": "address"
        }
      ],
      "stateMutability": "view",
      "type": "function"
    },
    {
      "inputs": [],
      "name": "renderShield2",
      "outputs": [
        {
          "internalType": "contract IReturnSVG",
          "name": "",
          "type": "address"
        }
      ],
      "stateMutability": "view",
      "type": "function"
    },
    {
      "inputs": [],
      "name": "renderShield3",
      "outputs": [
        {
          "internalType": "contract IReturnSVG",
          "name": "",
          "type": "address"
        }
      ],
      "stateMutability": "view",
      "type": "function"
    }
  ],
  "bytecode": "0x61016060405234801561001157600080fd5b506040516110a93803806110a983398101604081905261003091610230565b80516007146100935760405162461bcd60e51b815260206004820152602560248201527f496e76616c69642072656e64657265727320617272617920696e2052656e646560448201526472426f647960d81b606482015260840160405180910390fd5b806000815181106100a6576100a66102ff565b60200260200101516001600160a01b03166080816001600160a01b031681525050806001815181106100da576100da6102ff565b60200260200101516001600160a01b031660a0816001600160a01b0316815250508060028151811061010e5761010e6102ff565b60200260200101516001600160a01b031660c0816001600160a01b03168152505080600381518110610142576101426102ff565b60200260200101516001600160a01b031660e0816001600160a01b03168152505080600481518110610176576101766102ff565b60200260200101516001600160a01b0316610100816001600160a01b031681525050806005815181106101ab576101ab6102ff565b60200260200101516001600160a01b0316610120816001600160a01b031681525050806005815181106101e0576101e06102ff565b60209081029190910101516001600160a01b03166101405250610315565b634e487b7160e01b600052604160045260246000fd5b80516001600160a01b038116811461022b57600080fd5b919050565b60006020828403121561024257600080fd5b81516001600160401b0381111561025857600080fd5b8201601f8101841361026957600080fd5b80516001600160401b03811115610282576102826101fe565b604051600582901b90603f8201601f191681016001600160401b03811182821017156102b0576102b06101fe565b6040529182526020818401810192908101878411156102ce57600080fd5b6020850194505b838510156102f4576102e685610214565b8152602094850194016102d5565b509695505050505050565b634e487b7160e01b600052603260045260246000fd5b60805160a05160c05160e051610100516101205161014051610d056103a460003960008181610172015261055601526000818160d601526104e90152600081816092015261047c01526000818161012401526103ee0152600081816101b9015261038101526000818161014b015261031401526000818160fd0152818161023b01526105a20152610d056000f3fe608060405234801561001057600080fd5b50600436106100885760003560e01c80636a415c651161005b5780636a415c6514610146578063bf68c7111461016d578063d01c7c8414610194578063f7245db4146101b457600080fd5b8063151760c71461008d5780634c9d978d146100d15780634f7de19b146100f857806358fa534e1461011f575b600080fd5b6100b47f000000000000000000000000000000000000000000000000000000000000000081565b6040516001600160a01b0390911681526020015b60405180910390f35b6100b47f000000000000000000000000000000000000000000000000000000000000000081565b6100b47f000000000000000000000000000000000000000000000000000000000000000081565b6100b47f000000000000000000000000000000000000000000000000000000000000000081565b6100b47f000000000000000000000000000000000000000000000000000000000000000081565b6100b47f000000000000000000000000000000000000000000000000000000000000000081565b6101a76101a2366004610905565b6101db565b6040516100c89190610a59565b6100b47f000000000000000000000000000000000000000000000000000000000000000081565b6060600082604001516040015160038111156101f9576101f9610a73565b14801561021f57506000826040015160200151600381111561021d5761021d610a73565b145b156102bb576040516334071f2160e21b81526001600160a01b037f0000000000000000000000000000000000000000000000000000000000000000169063d01c7c8490610270908590600401610b9d565b600060405180830381865afa15801561028d573d6000803e3d6000fd5b505050506040513d6000823e601f3d908101601f191682016040526102b59190810190610c58565b92915050565b600082604001516040015160038111156102d7576102d7610a73565b1461042357600182604001516040015160038111156102f8576102f8610a73565b03610349576040516334071f2160e21b81526001600160a01b037f0000000000000000000000000000000000000000000000000000000000000000169063d01c7c8490610270908590600401610b9d565b6002826040015160400151600381111561036557610365610a73565b036103b6576040516334071f2160e21b81526001600160a01b037f0000000000000000000000000000000000000000000000000000000000000000169063d01c7c8490610270908590600401610b9d565b600382604001516040015160038111156103d2576103d2610a73565b03610423576040516334071f2160e21b81526001600160a01b037f0000000000000000000000000000000000000000000000000000000000000000169063d01c7c8490610270908590600401610b9d565b6000826040015160200151600381111561043f5761043f610a73565b1461058b576001826040015160200151600381111561046057610460610a73565b036104b1576040516334071f2160e21b81526001600160a01b037f0000000000000000000000000000000000000000000000000000000000000000169063d01c7c8490610270908590600401610b9d565b600282604001516020015160038111156104cd576104cd610a73565b0361051e576040516334071f2160e21b81526001600160a01b037f0000000000000000000000000000000000000000000000000000000000000000169063d01c7c8490610270908590600401610b9d565b6003826040015160200151600381111561053a5761053a610a73565b0361058b576040516334071f2160e21b81526001600160a01b037f0000000000000000000000000000000000000000000000000000000000000000169063d01c7c8490610270908590600401610b9d565b6040516334071f2160e21b81526001600160a01b037f0000000000000000000000000000000000000000000000000000000000000000169063d01c7c8490610270908590600401610b9d565b634e487b7160e01b600052604160045260246000fd5b60405160c0810167ffffffffffffffff81118282101715610610576106106105d7565b60405290565b60405160e0810167ffffffffffffffff81118282101715610610576106106105d7565b604051601f8201601f1916810167ffffffffffffffff81118282101715610662576106626105d7565b604052919050565b600067ffffffffffffffff821115610684576106846105d7565b50601f01601f191660200190565b6004811061069f57600080fd5b50565b6000608082840312156106b457600080fd5b6040516080810167ffffffffffffffff811182821017156106d7576106d76105d7565b60405290508082356106e881610692565b815260208301356106f881610692565b6020820152604083013561070b81610692565b6040820152606083013561071e81610692565b6060919091015292915050565b803561ffff8116811461073d57600080fd5b919050565b803560ff8116811461073d57600080fd5b600081830361016081121561076757600080fd5b61076f6105ed565b83358152915060c0601f198201121561078757600080fd5b506107906105ed565b61079c6020840161072b565b81526107aa60408401610742565b60208201526107bb60608401610742565b60408201526107cc6080840161072b565b60608201526107dd60a08401610742565b60808201526107ee60c08401610742565b60a0820152602082015261080460e08301610742565b60408201526108166101008301610742565b60608201526108286101208301610742565b608082015261083a6101408301610742565b60a082015292915050565b8035801515811461073d57600080fd5b600060e0828403121561086757600080fd5b61086f610616565b9050813563ffffffff8116811461088557600080fd5b81526108936020830161072b565b60208201526108a46040830161072b565b60408201526108b560608301610845565b60608201526108c660808301610845565b60808201526108d760a08301610845565b60a082015260c09182013591810191909152919050565b80356001600160a01b038116811461073d57600080fd5b60006020828403121561091757600080fd5b813567ffffffffffffffff81111561092e57600080fd5b8201610320818503121561094157600080fd5b6109496105ed565b813567ffffffffffffffff81111561096057600080fd5b8201601f8101861361097157600080fd5b803561098461097f8261066a565b610639565b81815287602083850101111561099957600080fd5b816020840160208301376000602092820183015283528381013590830152506109c585604084016106a2565b60408201526109d78560c08401610753565b60608201526109ea856102208401610855565b60808201526109fc61030083016108ee565b60a0820152949350505050565b60005b83811015610a24578181015183820152602001610a0c565b50506000910152565b60008151808452610a45816020860160208601610a09565b601f01601f19169290920160200192915050565b602081526000610a6c6020830184610a2d565b9392505050565b634e487b7160e01b600052602160045260246000fd5b6004811061069f57634e487b7160e01b600052602160045260246000fd5b80518252602081015161ffff815116602084015260ff602082015116604084015260ff604082015116606084015261ffff606082015116608084015260ff60808201511660a084015260ff60a08201511660c0840152506040810151610b1260e084018260ff169052565b50606081015160ff9081166101008401526080820151811661012084015260a0909101511661014090910152565b63ffffffff815116825261ffff602082015116602083015261ffff604082015116604083015260608101511515606083015260808101511515608083015260a0810151610b9160a084018215159052565b5060c090810151910152565b60208152600082516103206020840152610bbb610340840182610a2d565b90506020840151604084015260408401518051610bd781610a89565b60608501526020810151610bea81610a89565b60808501526040810151610bfd81610a89565b60a085015260600151610c0f81610a89565b60c08401526060840151610c2660e0850182610aa7565b506080840151610c3a610240850182610b40565b5060a08401516001600160a01b038116610320850152509392505050565b600060208284031215610c6a57600080fd5b815167ffffffffffffffff811115610c8157600080fd5b8201601f81018413610c9257600080fd5b8051610ca061097f8261066a565b818152856020838501011115610cb557600080fd5b610cc6826020830160208601610a09565b9594505050505056fea2646970667358221220c4a13d1fbc5589e09b46d68ffad6cf7f284a98b8c34d6c22eb120d7a1097468b64736f6c634300081c0033",
  "linkReferences": {},
  "deployedLinkReferences": {}
}