{
  "_format": "hh-sol-artifact-1",
  "contractName": "ShipPurchaser",
  "sourceName": "contracts/ShipPurchaser.sol",
  "abi": [
    {
      "inputs": [
        {
          "internalType": "address",
          "name": "_ships",
          "type": "address"
        },
        {
          "internalType": "address",
          "name": "_universalCredits",
          "type": "address"
        }
      ],
      "stateMutability": "nonpayable",
      "type": "constructor"
    },
    {
      "inputs": [],
      "name": "ArrayLengthMismatch",
      "type": "error"
    },
    {
      "inputs": [
        {
          "internalType": "uint256",
          "name": "_required",
          "type": "uint256"
        },
        {
          "internalType": "uint256",
          "name": "_available",
          "type": "uint256"
        }
      ],
      "name": "InsufficientFunds",
      "type": "error"
    },
    {
      "inputs": [
        {
          "internalType": "uint256",
          "name": "_tier",
          "type": "uint256"
        },
        {
          "internalType": "uint256",
          "name": "_amount",
          "type": "uint256"
        }
      ],
      "name": "InvalidPurchase",
      "type": "error"
    },
    {
      "inputs": [],
      "name": "InvalidReferral",
      "type": "error"
    },
    {
      "inputs": [
        {
          "internalType": "address",
          "name": "",
          "type": "address"
        }
      ],
      "name": "NotAuthorized",
      "type": "error"
    },
    {
      "inputs": [
        {
          "internalType": "address",
          "name": "owner",
          "type": "address"
        }
      ],
      "name": "OwnableInvalidOwner",
      "type": "error"
    },
    {
      "inputs": [
        {
          "internalType": "address",
          "name": "account",
          "type": "address"
        }
      ],
      "name": "OwnableUnauthorizedAccount",
      "type": "error"
    },
    {
      "inputs": [],
      "name": "ReentrancyGuardReentrantCall",
      "type": "error"
    },
    {
      "anonymous": false,
      "inputs": [
        {
          "indexed": true,
          "internalType": "address",
          "name": "previousOwner",
          "type": "address"
        },
        {
          "indexed": true,
          "internalType": "address",
          "name": "newOwner",
          "type": "address"
        }
      ],
      "name": "OwnershipTransferred",
      "type": "event"
    },
    {
      "inputs": [],
      "name": "getPurchaseInfo",
      "outputs": [
        {
          "internalType": "uint8[]",
          "name": "",
          "type": "uint8[]"
        },
        {
          "internalType": "uint8[]",
          "name": "",
          "type": "uint8[]"
        },
        {
          "internalType": "uint256[]",
          "name": "",
          "type": "uint256[]"
        }
      ],
      "stateMutability": "view",
      "type": "function"
    },
    {
      "inputs": [
        {
          "internalType": "address",
          "name": "",
          "type": "address"
        }
      ],
      "name": "isAllowedToCreateShips",
      "outputs": [
        {
          "internalType": "bool",
          "name": "",
          "type": "bool"
        }
      ],
      "stateMutability": "view",
      "type": "function"
    },
    {
      "inputs": [],
      "name": "owner",
      "outputs": [
        {
          "internalType": "address",
          "name": "",
          "type": "address"
        }
      ],
      "stateMutability": "view",
      "type": "function"
    },
    {
      "inputs": [
        {
          "internalType": "uint256",
          "name": "",
          "type": "uint256"
        }
      ],
      "name": "purchaseTiers",
      "outputs": [
        {
          "internalType": "uint8",
          "name": "",
          "type": "uint8"
        }
      ],
      "stateMutability": "view",
      "type": "function"
    },
    {
      "inputs": [
        {
          "internalType": "address",
          "name": "_to",
          "type": "address"
        },
        {
          "internalType": "uint256",
          "name": "_tier",
          "type": "uint256"
        },
        {
          "internalType": "address",
          "name": "_referral",
          "type": "address"
        }
      ],
      "name": "purchaseWithUC",
      "outputs": [],
      "stateMutability": "nonpayable",
      "type": "function"
    },
    {
      "inputs": [
        {
          "internalType": "address",
          "name": "",
          "type": "address"
        }
      ],
      "name": "referralCount",
      "outputs": [
        {
          "internalType": "uint256",
          "name": "",
          "type": "uint256"
        }
      ],
      "stateMutability": "view",
      "type": "function"
    },
    {
      "inputs": [
        {
          "internalType": "uint256",
          "name": "",
          "type": "uint256"
        }
      ],
      "name": "referralPercentages",
      "outputs": [
        {
          "internalType": "uint8",
          "name": "",
          "type": "uint8"
        }
      ],
      "stateMutability": "view",
      "type": "function"
    },
    {
      "inputs": [
        {
          "internalType": "uint256",
          "name": "",
          "type": "uint256"
        }
      ],
      "name": "referralStages",
      "outputs": [
        {
          "internalType": "uint32",
          "name": "",
          "type": "uint32"
        }
      ],
      "stateMutability": "view",
      "type": "function"
    },
    {
      "inputs": [],
      "name": "renounceOwnership",
      "outputs": [],
      "stateMutability": "nonpayable",
      "type": "function"
    },
    {
      "inputs": [
        {
          "internalType": "uint8[]",
          "name": "_purchaseTiers",
          "type": "uint8[]"
        },
        {
          "internalType": "uint8[]",
          "name": "_tierShips",
          "type": "uint8[]"
        },
        {
          "internalType": "uint256[]",
          "name": "_tierPrices",
          "type": "uint256[]"
        }
      ],
      "name": "setPurchaseInfo",
      "outputs": [],
      "stateMutability": "nonpayable",
      "type": "function"
    },
    {
      "inputs": [],
      "name": "ships",
      "outputs": [
        {
          "internalType": "contract IShips",
          "name": "",
          "type": "address"
        }
      ],
      "stateMutability": "view",
      "type": "function"
    },
    {
      "inputs": [
        {
          "internalType": "uint256",
          "name": "",
          "type": "uint256"
        }
      ],
      "name": "tierPrices",
      "outputs": [
        {
          "internalType": "uint256",
          "name": "",
          "type": "uint256"
        }
      ],
      "stateMutability": "view",
      "type": "function"
    },
    {
      "inputs": [
        {
          "internalType": "uint256",
          "name": "",
          "type": "uint256"
        }
      ],
      "name": "tierShips",
      "outputs": [
        {
          "internalType": "uint8",
          "name": "",
          "type": "uint8"
        }
      ],
      "stateMutability": "view",
      "type": "function"
    },
    {
      "inputs": [
        {
          "internalType": "address",
          "name": "newOwner",
          "type": "address"
        }
      ],
      "name": "transferOwnership",
      "outputs": [],
      "stateMutability": "nonpayable",
      "type": "function"
    },
    {
      "inputs": [],
      "name": "universalCredits",
      "outputs": [
        {
          "internalType": "contract IERC20",
          "name": "",
          "type": "address"
        }
      ],
      "stateMutability": "view",
      "type": "function"
    },
    {
      "inputs": [],
      "name": "withdrawUC",
      "outputs": [],
      "stateMutability": "nonpayable",
      "type": "function"
    }
  ],
  "bytecode": "0x610160604052600060c0908152600a60e052601461010052602361012052603261014052610031906002906005610214565b506040805160a081018252606481526103e860208201526127109181019190915261c3506060820152620186a060808201526100719060039060056102ba565b5034801561007e57600080fd5b506040516115da3803806115da83398101604081905261009d916103cd565b33806100c357604051631e4fbdf760e01b81526000600482015260240160405180910390fd5b6100cc816101c4565b5060018080556001600160a01b03808416608090815290831660a0908152604080519182018152928152600260208201526003928101929092526004606083018190526005918301829052610122929091610214565b506040805160a0810182526005808252600b6020830152601c92820192909252603c6060820152607d608082015261015b919081610214565b506040805160a0810182526745400a8fd53300008152678aa39c121a270000602082015268015ace5098e9030000918101919091526802b5c0282441c70000606082015268056ba3d73af34f000060808201526101bc906006906005610356565b505050610400565b600080546001600160a01b038381166001600160a01b0319831681178455604051919092169283917f8be0079c531659141344cd1fd0a4f28419497f9722a3daafe3b4186f6b6457e09190a35050565b82805482825590600052602060002090601f016020900481019282156102aa5791602002820160005b8382111561027b57835183826101000a81548160ff021916908360ff160217905550926020019260010160208160000104928301926001030261023d565b80156102a85782816101000a81549060ff021916905560010160208160000104928301926001030261027b565b505b506102b692915061039c565b5090565b828054828255906000526020600020906007016008900481019282156102aa5791602002820160005b8382111561032657835183826101000a81548163ffffffff021916908362ffffff16021790555092602001926004016020816003010492830192600103026102e3565b80156102a85782816101000a81549063ffffffff0219169055600401602081600301049283019260010302610326565b8280548282559060005260206000209081019282156102aa579160200282015b828111156102aa57825182906001600160481b0316905591602001919060010190610376565b5b808211156102b6576000815560010161039d565b80516001600160a01b03811681146103c857600080fd5b919050565b600080604083850312156103e057600080fd5b6103e9836103b1565b91506103f7602084016103b1565b90509250929050565b60805160a05161118b61044f6000396000818161012701528181610364015281816103db01528181610738015281816107f90152610ba701526000818161024d01526108d5015261118b6000f3fe608060405234801561001057600080fd5b50600436106101005760003560e01c806375bfe42011610097578063bbf8218a11610066578063bbf8218a14610248578063cfca9a7f1461026f578063db74559b14610297578063f2fde38b146102b757600080fd5b806375bfe420146101de578063823e3e89146102115780638da5cb5b14610224578063b662abf51461023557600080fd5b80633f0bc9a5116100d35780633f0bc9a51461018757806348cfc19e146101ac57806361212431146101c3578063715018a6146101d657600080fd5b8063053f5bbf1461010557806312ac049e1461011a5780631722594114610122578063300eccab14610166575b600080fd5b610118610113366004610e46565b6102ca565b005b610118610344565b6101497f000000000000000000000000000000000000000000000000000000000000000081565b6040516001600160a01b0390911681526020015b60405180910390f35b610179610174366004610f35565b6104d6565b60405190815260200161015d565b61019a610195366004610f35565b6104f7565b60405160ff909116815260200161015d565b6101b461052b565b60405161015d93929190610f8d565b61019a6101d1366004610f35565b610673565b610118610683565b6102016101ec366004611014565b60086020526000908152604090205460ff1681565b604051901515815260200161015d565b61011861021f366004611036565b610697565b6000546001600160a01b0316610149565b61019a610243366004610f35565b61094d565b6101497f000000000000000000000000000000000000000000000000000000000000000081565b61028261027d366004610f35565b61095d565b60405163ffffffff909116815260200161015d565b6101796102a5366004611014565b60076020526000908152604090205481565b6101186102c5366004611014565b610997565b6102d26109d2565b815183511415806102e557508051825114155b156103035760405163512509d360e11b815260040160405180910390fd5b8251610316906004906020860190610c69565b50815161032a906005906020850190610c69565b50805161033e906006906020840190610d0f565b50505050565b61034c6109d2565b6040516370a0823160e01b81523060048201526000907f00000000000000000000000000000000000000000000000000000000000000006001600160a01b0316906370a0823190602401602060405180830381865afa1580156103b3573d6000803e3d6000fd5b505050506040513d601f19601f820116820180604052508101906103d79190611072565b90507f00000000000000000000000000000000000000000000000000000000000000006001600160a01b031663a9059cbb61041a6000546001600160a01b031690565b6040516001600160e01b031960e084901b1681526001600160a01b039091166004820152602481018490526044016020604051808303816000875af1158015610467573d6000803e3d6000fd5b505050506040513d601f19601f8201168201806040525081019061048b919061108b565b6104d35760405162461bcd60e51b81526020600482015260146024820152731550c81dda5d1a191c985dd85b0819985a5b195960621b60448201526064015b60405180910390fd5b50565b600681815481106104e657600080fd5b600091825260209091200154905081565b6004818154811061050757600080fd5b9060005260206000209060209182820401919006915054906101000a900460ff1681565b60608060606004600560068280548060200260200160405190810160405280929190818152602001828054801561059f57602002820191906000526020600020906000905b825461010083900a900460ff168152602060019283018181049485019490930390920291018084116105705790505b505050505092508180548060200260200160405190810160405280929190818152602001828054801561060f57602002820191906000526020600020906000905b825461010083900a900460ff168152602060019283018181049485019490930390920291018084116105e05790505b505050505091508080548060200260200160405190810160405280929190818152602001828054801561066157602002820191906000526020600020905b81548152602001906001019080831161064d575b50505050509050925092509250909192565b6005818154811061050757600080fd5b61068b6109d2565b61069560006109ff565b565b61069f610a4f565b6001600160a01b0381166106c65760405163119833d760e11b815260040160405180910390fd5b6000600583815481106106db576106db6110ad565b90600052602060002090602091828204019190069054906101000a900460ff1660ff169050600060068481548110610715576107156110ad565b60009182526020822001546040516370a0823160e01b81523360048201529092507f00000000000000000000000000000000000000000000000000000000000000006001600160a01b0316906370a0823190602401602060405180830381865afa158015610787573d6000803e3d6000fd5b505050506040513d601f19601f820116820180604052508101906107ab9190611072565b9050818110156107d75760405162fae2d560e21b815260048101839052602481018290526044016104ca565b6040516323b872dd60e01b8152336004820152306024820152604481018390527f00000000000000000000000000000000000000000000000000000000000000006001600160a01b0316906323b872dd906064016020604051808303816000875af115801561084a573d6000803e3d6000fd5b505050506040513d601f19601f8201168201806040525081019061086e919061108b565b6108af5760405162461bcd60e51b81526020600482015260126024820152711550c81d1c985b9cd9995c8819985a5b195960721b60448201526064016104ca565b60405163e653ca7f60e01b81526001600160a01b038781166004830152602482018590527f0000000000000000000000000000000000000000000000000000000000000000169063e653ca7f90604401600060405180830381600087803b15801561091957600080fd5b505af115801561092d573d6000803e3d6000fd5b5050505061093c848484610a79565b50505061094860018055565b505050565b6002818154811061050757600080fd5b6003818154811061096d57600080fd5b9060005260206000209060089182820401919006600402915054906101000a900463ffffffff1681565b61099f6109d2565b6001600160a01b0381166109c957604051631e4fbdf760e01b8152600060048201526024016104ca565b6104d3816109ff565b6000546001600160a01b031633146106955760405163118cdaa760e01b81523360048201526024016104ca565b600080546001600160a01b038381166001600160a01b0319831681178455604051919092169283917f8be0079c531659141344cd1fd0a4f28419497f9722a3daafe3b4186f6b6457e09190a35050565b600260015403610a7257604051633ee5aeb560e01b815260040160405180910390fd5b6002600155565b6001600160a01b03831660009081526007602052604081208054849290610aa19084906110d9565b90915550506003546001905b8015610b65576003610ac06001836110f2565b81548110610ad057610ad06110ad565b600091825260208083206008830401546001600160a01b038916845260079182905260409093205491166004026101000a90910463ffffffff1611610b53576002610b1c6001836110f2565b81548110610b2c57610b2c6110ad565b60009182526020918290209181049091015460ff601f9092166101000a9004169150610b65565b80610b5d81611105565b915050610aad565b5060006064610b74838561111c565b610b7e9190611133565b60405163a9059cbb60e01b81526001600160a01b038781166004830152602482018390529192507f00000000000000000000000000000000000000000000000000000000000000009091169063a9059cbb906044016020604051808303816000875af1158015610bf2573d6000803e3d6000fd5b505050506040513d601f19601f82011682018060405250810190610c16919061108b565b610c625760405162461bcd60e51b815260206004820152601860248201527f526566657272616c207472616e73666572206661696c6564000000000000000060448201526064016104ca565b5050505050565b82805482825590600052602060002090601f01602090048101928215610cff5791602002820160005b83821115610cd057835183826101000a81548160ff021916908360ff1602179055509260200192600101602081600001049283019260010302610c92565b8015610cfd5782816101000a81549060ff0219169055600101602081600001049283019260010302610cd0565b505b50610d0b929150610d4a565b5090565b828054828255906000526020600020908101928215610cff579160200282015b82811115610cff578251825591602001919060010190610d2f565b5b80821115610d0b5760008155600101610d4b565b634e487b7160e01b600052604160045260246000fd5b604051601f8201601f1916810167ffffffffffffffff81118282101715610d9e57610d9e610d5f565b604052919050565b600067ffffffffffffffff821115610dc057610dc0610d5f565b5060051b60200190565b600082601f830112610ddb57600080fd5b8135610dee610de982610da6565b610d75565b8082825260208201915060208360051b860101925085831115610e1057600080fd5b602085015b83811015610e3c57803560ff81168114610e2e57600080fd5b835260209283019201610e15565b5095945050505050565b600080600060608486031215610e5b57600080fd5b833567ffffffffffffffff811115610e7257600080fd5b610e7e86828701610dca565b935050602084013567ffffffffffffffff811115610e9b57600080fd5b610ea786828701610dca565b925050604084013567ffffffffffffffff811115610ec457600080fd5b8401601f81018613610ed557600080fd5b8035610ee3610de982610da6565b8082825260208201915060208360051b850101925088831115610f0557600080fd5b6020840193505b82841015610f27578335825260209384019390910190610f0c565b809450505050509250925092565b600060208284031215610f4757600080fd5b5035919050565b600081518084526020840193506020830160005b82811015610f8357815160ff16865260209586019590910190600101610f62565b5093949350505050565b606081526000610fa06060830186610f4e565b8281036020840152610fb28186610f4e565b83810360408501528451808252602080870193509091019060005b81811015610feb578351835260209384019390920191600101610fcd565b5090979650505050505050565b80356001600160a01b038116811461100f57600080fd5b919050565b60006020828403121561102657600080fd5b61102f82610ff8565b9392505050565b60008060006060848603121561104b57600080fd5b61105484610ff8565b92506020840135915061106960408501610ff8565b90509250925092565b60006020828403121561108457600080fd5b5051919050565b60006020828403121561109d57600080fd5b8151801515811461102f57600080fd5b634e487b7160e01b600052603260045260246000fd5b634e487b7160e01b600052601160045260246000fd5b808201808211156110ec576110ec6110c3565b92915050565b818103818111156110ec576110ec6110c3565b600081611114576111146110c3565b506000190190565b80820281158282048414176110ec576110ec6110c3565b60008261115057634e487b7160e01b600052601260045260246000fd5b50049056fea26469706673582212207ea3f29ed0749543744b6f2dd5da0187a5a927f1b5a316746027c48dcae2463f64736f6c634300081c0033",
  "linkReferences": {},
  "deployedLinkReferences": {}
}