{
  "_format": "hh-sol-artifact-1",
  "contractName": "ShipAttributes",
  "sourceName": "contracts/ShipAttributes.sol",
  "abi": [
    {
      "inputs": [
        {
          "internalType": "address",
          "name": "_ships",
          "type": "address"
        }
      ],
      "stateMutability": "nonpayable",
      "type": "constructor"
    },
    {
      "inputs": [],
      "name": "InvalidAttributesVersion",
      "type": "error"
    },
    {
      "inputs": [],
      "name": "InvalidCostsVersion",
      "type": "error"
    },
    {
      "inputs": [
        {
          "internalType": "address",
          "name": "owner",
          "type": "address"
        }
      ],
      "name": "OwnableInvalidOwner",
      "type": "error"
    },
    {
      "inputs": [
        {
          "internalType": "address",
          "name": "account",
          "type": "address"
        }
      ],
      "name": "OwnableUnauthorizedAccount",
      "type": "error"
    },
    {
      "inputs": [],
      "name": "ShipNotFound",
      "type": "error"
    },
    {
      "anonymous": false,
      "inputs": [
        {
          "indexed": true,
          "internalType": "address",
          "name": "previousOwner",
          "type": "address"
        },
        {
          "indexed": true,
          "internalType": "address",
          "name": "newOwner",
          "type": "address"
        }
      ],
      "name": "OwnershipTransferred",
      "type": "event"
    },
    {
      "inputs": [
        {
          "internalType": "uint16",
          "name": "",
          "type": "uint16"
        }
      ],
      "name": "attributesVersions",
      "outputs": [
        {
          "internalType": "uint16",
          "name": "version",
          "type": "uint16"
        },
        {
          "internalType": "uint8",
          "name": "baseHull",
          "type": "uint8"
        },
        {
          "internalType": "uint8",
          "name": "baseSpeed",
          "type": "uint8"
        }
      ],
      "stateMutability": "view",
      "type": "function"
    },
    {
      "inputs": [
        {
          "components": [
            {
              "internalType": "string",
              "name": "name",
              "type": "string"
            },
            {
              "internalType": "uint256",
              "name": "id",
              "type": "uint256"
            },
            {
              "components": [
                {
                  "internalType": "enum MainWeapon",
                  "name": "mainWeapon",
                  "type": "uint8"
                },
                {
                  "internalType": "enum Armor",
                  "name": "armor",
                  "type": "uint8"
                },
                {
                  "internalType": "enum Shields",
                  "name": "shields",
                  "type": "uint8"
                },
                {
                  "internalType": "enum Special",
                  "name": "special",
                  "type": "uint8"
                }
              ],
              "internalType": "struct Equipment",
              "name": "equipment",
              "type": "tuple"
            },
            {
              "components": [
                {
                  "internalType": "uint256",
                  "name": "serialNumber",
                  "type": "uint256"
                },
                {
                  "components": [
                    {
                      "internalType": "uint16",
                      "name": "h1",
                      "type": "uint16"
                    },
                    {
                      "internalType": "uint8",
                      "name": "s1",
                      "type": "uint8"
                    },
                    {
                      "internalType": "uint8",
                      "name": "l1",
                      "type": "uint8"
                    },
                    {
                      "internalType": "uint16",
                      "name": "h2",
                      "type": "uint16"
                    },
                    {
                      "internalType": "uint8",
                      "name": "s2",
                      "type": "uint8"
                    },
                    {
                      "internalType": "uint8",
                      "name": "l2",
                      "type": "uint8"
                    }
                  ],
                  "internalType": "struct Colors",
                  "name": "colors",
                  "type": "tuple"
                },
                {
                  "internalType": "uint8",
                  "name": "variant",
                  "type": "uint8"
                },
                {
                  "internalType": "uint8",
                  "name": "accuracy",
                  "type": "uint8"
                },
                {
                  "internalType": "uint8",
                  "name": "hull",
                  "type": "uint8"
                },
                {
                  "internalType": "uint8",
                  "name": "speed",
                  "type": "uint8"
                }
              ],
              "internalType": "struct Traits",
              "name": "traits",
              "type": "tuple"
            },
            {
              "components": [
                {
                  "internalType": "uint32",
                  "name": "shipsDestroyed",
                  "type": "uint32"
                },
                {
                  "internalType": "uint16",
                  "name": "costsVersion",
                  "type": "uint16"
                },
                {
                  "internalType": "uint16",
                  "name": "cost",
                  "type": "uint16"
                },
                {
                  "internalType": "bool",
                  "name": "shiny",
                  "type": "bool"
                },
                {
                  "internalType": "bool",
                  "name": "constructed",
                  "type": "bool"
                },
                {
                  "internalType": "bool",
                  "name": "inFleet",
                  "type": "bool"
                },
                {
                  "internalType": "uint256",
                  "name": "timestampDestroyed",
                  "type": "uint256"
                }
              ],
              "internalType": "struct ShipData",
              "name": "shipData",
              "type": "tuple"
            },
            {
              "internalType": "address",
              "name": "owner",
              "type": "address"
            }
          ],
          "internalType": "struct Ship",
          "name": "_ship",
          "type": "tuple"
        }
      ],
      "name": "calculateShipAttributes",
      "outputs": [
        {
          "components": [
            {
              "internalType": "uint16",
              "name": "version",
              "type": "uint16"
            },
            {
              "internalType": "uint8",
              "name": "range",
              "type": "uint8"
            },
            {
              "internalType": "uint8",
              "name": "gunDamage",
              "type": "uint8"
            },
            {
              "internalType": "uint8",
              "name": "hullPoints",
              "type": "uint8"
            },
            {
              "internalType": "uint8",
              "name": "maxHullPoints",
              "type": "uint8"
            },
            {
              "internalType": "uint8",
              "name": "movement",
              "type": "uint8"
            },
            {
              "internalType": "uint8",
              "name": "damageReduction",
              "type": "uint8"
            },
            {
              "internalType": "uint8",
              "name": "reactorCriticalTimer",
              "type": "uint8"
            },
            {
              "internalType": "uint8[]",
              "name": "statusEffects",
              "type": "uint8[]"
            }
          ],
          "internalType": "struct Attributes",
          "name": "",
          "type": "tuple"
        }
      ],
      "stateMutability": "view",
      "type": "function"
    },
    {
      "inputs": [
        {
          "internalType": "uint256",
          "name": "_shipId",
          "type": "uint256"
        }
      ],
      "name": "calculateShipAttributesById",
      "outputs": [
        {
          "components": [
            {
              "internalType": "uint16",
              "name": "version",
              "type": "uint16"
            },
            {
              "internalType": "uint8",
              "name": "range",
              "type": "uint8"
            },
            {
              "internalType": "uint8",
              "name": "gunDamage",
              "type": "uint8"
            },
            {
              "internalType": "uint8",
              "name": "hullPoints",
              "type": "uint8"
            },
            {
              "internalType": "uint8",
              "name": "maxHullPoints",
              "type": "uint8"
            },
            {
              "internalType": "uint8",
              "name": "movement",
              "type": "uint8"
            },
            {
              "internalType": "uint8",
              "name": "damageReduction",
              "type": "uint8"
            },
            {
              "internalType": "uint8",
              "name": "reactorCriticalTimer",
              "type": "uint8"
            },
            {
              "internalType": "uint8[]",
              "name": "statusEffects",
              "type": "uint8[]"
            }
          ],
          "internalType": "struct Attributes",
          "name": "",
          "type": "tuple"
        }
      ],
      "stateMutability": "view",
      "type": "function"
    },
    {
      "inputs": [
        {
          "internalType": "uint256[]",
          "name": "_shipIds",
          "type": "uint256[]"
        }
      ],
      "name": "calculateShipAttributesByIds",
      "outputs": [
        {
          "components": [
            {
              "internalType": "uint16",
              "name": "version",
              "type": "uint16"
            },
            {
              "internalType": "uint8",
              "name": "range",
              "type": "uint8"
            },
            {
              "internalType": "uint8",
              "name": "gunDamage",
              "type": "uint8"
            },
            {
              "internalType": "uint8",
              "name": "hullPoints",
              "type": "uint8"
            },
            {
              "internalType": "uint8",
              "name": "maxHullPoints",
              "type": "uint8"
            },
            {
              "internalType": "uint8",
              "name": "movement",
              "type": "uint8"
            },
            {
              "internalType": "uint8",
              "name": "damageReduction",
              "type": "uint8"
            },
            {
              "internalType": "uint8",
              "name": "reactorCriticalTimer",
              "type": "uint8"
            },
            {
              "internalType": "uint8[]",
              "name": "statusEffects",
              "type": "uint8[]"
            }
          ],
          "internalType": "struct Attributes[]",
          "name": "",
          "type": "tuple[]"
        }
      ],
      "stateMutability": "view",
      "type": "function"
    },
    {
      "inputs": [
        {
          "components": [
            {
              "internalType": "string",
              "name": "name",
              "type": "string"
            },
            {
              "internalType": "uint256",
              "name": "id",
              "type": "uint256"
            },
            {
              "components": [
                {
                  "internalType": "enum MainWeapon",
                  "name": "mainWeapon",
                  "type": "uint8"
                },
                {
                  "internalType": "enum Armor",
                  "name": "armor",
                  "type": "uint8"
                },
                {
                  "internalType": "enum Shields",
                  "name": "shields",
                  "type": "uint8"
                },
                {
                  "internalType": "enum Special",
                  "name": "special",
                  "type": "uint8"
                }
              ],
              "internalType": "struct Equipment",
              "name": "equipment",
              "type": "tuple"
            },
            {
              "components": [
                {
                  "internalType": "uint256",
                  "name": "serialNumber",
                  "type": "uint256"
                },
                {
                  "components": [
                    {
                      "internalType": "uint16",
                      "name": "h1",
                      "type": "uint16"
                    },
                    {
                      "internalType": "uint8",
                      "name": "s1",
                      "type": "uint8"
                    },
                    {
                      "internalType": "uint8",
                      "name": "l1",
                      "type": "uint8"
                    },
                    {
                      "internalType": "uint16",
                      "name": "h2",
                      "type": "uint16"
                    },
                    {
                      "internalType": "uint8",
                      "name": "s2",
                      "type": "uint8"
                    },
                    {
                      "internalType": "uint8",
                      "name": "l2",
                      "type": "uint8"
                    }
                  ],
                  "internalType": "struct Colors",
                  "name": "colors",
                  "type": "tuple"
                },
                {
                  "internalType": "uint8",
                  "name": "variant",
                  "type": "uint8"
                },
                {
                  "internalType": "uint8",
                  "name": "accuracy",
                  "type": "uint8"
                },
                {
                  "internalType": "uint8",
                  "name": "hull",
                  "type": "uint8"
                },
                {
                  "internalType": "uint8",
                  "name": "speed",
                  "type": "uint8"
                }
              ],
              "internalType": "struct Traits",
              "name": "traits",
              "type": "tuple"
            },
            {
              "components": [
                {
                  "internalType": "uint32",
                  "name": "shipsDestroyed",
                  "type": "uint32"
                },
                {
                  "internalType": "uint16",
                  "name": "costsVersion",
                  "type": "uint16"
                },
                {
                  "internalType": "uint16",
                  "name": "cost",
                  "type": "uint16"
                },
                {
                  "internalType": "bool",
                  "name": "shiny",
                  "type": "bool"
                },
                {
                  "internalType": "bool",
                  "name": "constructed",
                  "type": "bool"
                },
                {
                  "internalType": "bool",
                  "name": "inFleet",
                  "type": "bool"
                },
                {
                  "internalType": "uint256",
                  "name": "timestampDestroyed",
                  "type": "uint256"
                }
              ],
              "internalType": "struct ShipData",
              "name": "shipData",
              "type": "tuple"
            },
            {
              "internalType": "address",
              "name": "owner",
              "type": "address"
            }
          ],
          "internalType": "struct Ship",
          "name": "ship",
          "type": "tuple"
        }
      ],
      "name": "calculateShipCost",
      "outputs": [
        {
          "internalType": "uint16",
          "name": "",
          "type": "uint16"
        }
      ],
      "stateMutability": "view",
      "type": "function"
    },
    {
      "inputs": [],
      "name": "costs",
      "outputs": [
        {
          "internalType": "uint16",
          "name": "version",
          "type": "uint16"
        },
        {
          "internalType": "uint8",
          "name": "baseCost",
          "type": "uint8"
        }
      ],
      "stateMutability": "view",
      "type": "function"
    },
    {
      "inputs": [
        {
          "internalType": "uint256",
          "name": "num",
          "type": "uint256"
        }
      ],
      "name": "countDigits",
      "outputs": [
        {
          "internalType": "uint256",
          "name": "",
          "type": "uint256"
        }
      ],
      "stateMutability": "pure",
      "type": "function"
    },
    {
      "inputs": [],
      "name": "currentAttributesVersion",
      "outputs": [
        {
          "internalType": "uint16",
          "name": "",
          "type": "uint16"
        }
      ],
      "stateMutability": "view",
      "type": "function"
    },
    {
      "inputs": [
        {
          "internalType": "enum Armor",
          "name": "_armor",
          "type": "uint8"
        }
      ],
      "name": "getArmorData",
      "outputs": [
        {
          "components": [
            {
              "internalType": "uint8",
              "name": "damageReduction",
              "type": "uint8"
            },
            {
              "internalType": "int8",
              "name": "movement",
              "type": "int8"
            }
          ],
          "internalType": "struct ArmorData",
          "name": "",
          "type": "tuple"
        }
      ],
      "stateMutability": "view",
      "type": "function"
    },
    {
      "inputs": [
        {
          "internalType": "uint16",
          "name": "_version",
          "type": "uint16"
        }
      ],
      "name": "getAttributesVersionBase",
      "outputs": [
        {
          "internalType": "uint16",
          "name": "version",
          "type": "uint16"
        },
        {
          "internalType": "uint8",
          "name": "baseHull",
          "type": "uint8"
        },
        {
          "internalType": "uint8",
          "name": "baseSpeed",
          "type": "uint8"
        }
      ],
      "stateMutability": "view",
      "type": "function"
    },
    {
      "inputs": [],
      "name": "getCosts",
      "outputs": [
        {
          "internalType": "uint256",
          "name": "",
          "type": "uint256"
        },
        {
          "components": [
            {
              "internalType": "uint16",
              "name": "version",
              "type": "uint16"
            },
            {
              "internalType": "uint8",
              "name": "baseCost",
              "type": "uint8"
            },
            {
              "internalType": "uint8[]",
              "name": "accuracy",
              "type": "uint8[]"
            },
            {
              "internalType": "uint8[]",
              "name": "hull",
              "type": "uint8[]"
            },
            {
              "internalType": "uint8[]",
              "name": "speed",
              "type": "uint8[]"
            },
            {
              "internalType": "uint8[]",
              "name": "mainWeapon",
              "type": "uint8[]"
            },
            {
              "internalType": "uint8[]",
              "name": "armor",
              "type": "uint8[]"
            },
            {
              "internalType": "uint8[]",
              "name": "shields",
              "type": "uint8[]"
            },
            {
              "internalType": "uint8[]",
              "name": "special",
              "type": "uint8[]"
            }
          ],
          "internalType": "struct Costs",
          "name": "",
          "type": "tuple"
        }
      ],
      "stateMutability": "view",
      "type": "function"
    },
    {
      "inputs": [],
      "name": "getCurrentAttributesVersion",
      "outputs": [
        {
          "internalType": "uint16",
          "name": "",
          "type": "uint16"
        }
      ],
      "stateMutability": "view",
      "type": "function"
    },
    {
      "inputs": [],
      "name": "getCurrentCostsVersion",
      "outputs": [
        {
          "internalType": "uint16",
          "name": "",
          "type": "uint16"
        }
      ],
      "stateMutability": "view",
      "type": "function"
    },
    {
      "inputs": [
        {
          "internalType": "enum MainWeapon",
          "name": "_weapon",
          "type": "uint8"
        }
      ],
      "name": "getGunData",
      "outputs": [
        {
          "components": [
            {
              "internalType": "uint8",
              "name": "range",
              "type": "uint8"
            },
            {
              "internalType": "uint8",
              "name": "damage",
              "type": "uint8"
            },
            {
              "internalType": "int8",
              "name": "movement",
              "type": "int8"
            }
          ],
          "internalType": "struct GunData",
          "name": "",
          "type": "tuple"
        }
      ],
      "stateMutability": "view",
      "type": "function"
    },
    {
      "inputs": [
        {
          "internalType": "uint256",
          "name": "_shipsDestroyed",
          "type": "uint256"
        }
      ],
      "name": "getRank",
      "outputs": [
        {
          "internalType": "uint8",
          "name": "",
          "type": "uint8"
        }
      ],
      "stateMutability": "pure",
      "type": "function"
    },
    {
      "inputs": [
        {
          "internalType": "enum Shields",
          "name": "_shields",
          "type": "uint8"
        }
      ],
      "name": "getShieldData",
      "outputs": [
        {
          "components": [
            {
              "internalType": "uint8",
              "name": "damageReduction",
              "type": "uint8"
            },
            {
              "internalType": "int8",
              "name": "movement",
              "type": "int8"
            }
          ],
          "internalType": "struct ShieldData",
          "name": "",
          "type": "tuple"
        }
      ],
      "stateMutability": "view",
      "type": "function"
    },
    {
      "inputs": [
        {
          "internalType": "enum Special",
          "name": "_special",
          "type": "uint8"
        }
      ],
      "name": "getSpecialData",
      "outputs": [
        {
          "components": [
            {
              "internalType": "uint8",
              "name": "range",
              "type": "uint8"
            },
            {
              "internalType": "uint8",
              "name": "strength",
              "type": "uint8"
            },
            {
              "internalType": "int8",
              "name": "movement",
              "type": "int8"
            }
          ],
          "internalType": "struct SpecialData",
          "name": "",
          "type": "tuple"
        }
      ],
      "stateMutability": "view",
      "type": "function"
    },
    {
      "inputs": [
        {
          "internalType": "enum Special",
          "name": "_special",
          "type": "uint8"
        }
      ],
      "name": "getSpecialRange",
      "outputs": [
        {
          "internalType": "uint8",
          "name": "",
          "type": "uint8"
        }
      ],
      "stateMutability": "view",
      "type": "function"
    },
    {
      "inputs": [
        {
          "internalType": "enum Special",
          "name": "_special",
          "type": "uint8"
        }
      ],
      "name": "getSpecialStrength",
      "outputs": [
        {
          "internalType": "uint8",
          "name": "",
          "type": "uint8"
        }
      ],
      "stateMutability": "view",
      "type": "function"
    },
    {
      "inputs": [],
      "name": "owner",
      "outputs": [
        {
          "internalType": "address",
          "name": "",
          "type": "address"
        }
      ],
      "stateMutability": "view",
      "type": "function"
    },
    {
      "inputs": [],
      "name": "renounceOwnership",
      "outputs": [],
      "stateMutability": "nonpayable",
      "type": "function"
    },
    {
      "inputs": [
        {
          "internalType": "uint8",
          "name": "_baseHull",
          "type": "uint8"
        },
        {
          "internalType": "uint8",
          "name": "_baseSpeed",
          "type": "uint8"
        },
        {
          "components": [
            {
              "internalType": "uint8",
              "name": "range",
              "type": "uint8"
            },
            {
              "internalType": "uint8",
              "name": "damage",
              "type": "uint8"
            },
            {
              "internalType": "int8",
              "name": "movement",
              "type": "int8"
            }
          ],
          "internalType": "struct GunData[]",
          "name": "_guns",
          "type": "tuple[]"
        },
        {
          "components": [
            {
              "internalType": "uint8",
              "name": "damageReduction",
              "type": "uint8"
            },
            {
              "internalType": "int8",
              "name": "movement",
              "type": "int8"
            }
          ],
          "internalType": "struct ArmorData[]",
          "name": "_armors",
          "type": "tuple[]"
        },
        {
          "components": [
            {
              "internalType": "uint8",
              "name": "damageReduction",
              "type": "uint8"
            },
            {
              "internalType": "int8",
              "name": "movement",
              "type": "int8"
            }
          ],
          "internalType": "struct ShieldData[]",
          "name": "_shields",
          "type": "tuple[]"
        },
        {
          "components": [
            {
              "internalType": "uint8",
              "name": "range",
              "type": "uint8"
            },
            {
              "internalType": "uint8",
              "name": "strength",
              "type": "uint8"
            },
            {
              "internalType": "int8",
              "name": "movement",
              "type": "int8"
            }
          ],
          "internalType": "struct SpecialData[]",
          "name": "_specials",
          "type": "tuple[]"
        },
        {
          "internalType": "uint8[]",
          "name": "_foreAccuracy",
          "type": "uint8[]"
        },
        {
          "internalType": "uint8[]",
          "name": "_hull",
          "type": "uint8[]"
        },
        {
          "internalType": "uint8[]",
          "name": "_engineSpeeds",
          "type": "uint8[]"
        }
      ],
      "name": "setAllAttributes",
      "outputs": [],
      "stateMutability": "nonpayable",
      "type": "function"
    },
    {
      "inputs": [
        {
          "components": [
            {
              "internalType": "uint16",
              "name": "version",
              "type": "uint16"
            },
            {
              "internalType": "uint8",
              "name": "baseCost",
              "type": "uint8"
            },
            {
              "internalType": "uint8[]",
              "name": "accuracy",
              "type": "uint8[]"
            },
            {
              "internalType": "uint8[]",
              "name": "hull",
              "type": "uint8[]"
            },
            {
              "internalType": "uint8[]",
              "name": "speed",
              "type": "uint8[]"
            },
            {
              "internalType": "uint8[]",
              "name": "mainWeapon",
              "type": "uint8[]"
            },
            {
              "internalType": "uint8[]",
              "name": "armor",
              "type": "uint8[]"
            },
            {
              "internalType": "uint8[]",
              "name": "shields",
              "type": "uint8[]"
            },
            {
              "internalType": "uint8[]",
              "name": "special",
              "type": "uint8[]"
            }
          ],
          "internalType": "struct Costs",
          "name": "_costs",
          "type": "tuple"
        }
      ],
      "name": "setCosts",
      "outputs": [],
      "stateMutability": "nonpayable",
      "type": "function"
    },
    {
      "inputs": [
        {
          "internalType": "uint16",
          "name": "_version",
          "type": "uint16"
        }
      ],
      "name": "setCurrentAttributesVersion",
      "outputs": [],
      "stateMutability": "nonpayable",
      "type": "function"
    },
    {
      "inputs": [
        {
          "internalType": "address",
          "name": "_ships",
          "type": "address"
        }
      ],
      "name": "setShipsAddress",
      "outputs": [],
      "stateMutability": "nonpayable",
      "type": "function"
    },
    {
      "inputs": [],
      "name": "ships",
      "outputs": [
        {
          "internalType": "contract IShips",
          "name": "",
          "type": "address"
        }
      ],
      "stateMutability": "view",
      "type": "function"
    },
    {
      "inputs": [
        {
          "internalType": "address",
          "name": "newOwner",
          "type": "address"
        }
      ],
      "name": "transferOwnership",
      "outputs": [],
      "stateMutability": "nonpayable",
      "type": "function"
    }
  ],
  "bytecode": "0x608060405234801561001057600080fd5b5060405161406738038061406783398101604081905261002f91611024565b338061005557604051631e4fbdf760e01b81526000600482015260240160405180910390fd5b61005e81610f19565b50600180546001600160a01b0319166001600160a01b0383161781556003805461ffff191690911781556004805462ffffff1916623200011790556040805160608101825260008152600a60208201526019918101919091526100c49160059190610f69565b506040805160608101825260008152600a60208201526019918101919091526100f1906006906003610f69565b506040805160608101825260008152600a602082015260199181019190915261011e906007906003610f69565b506040805160808101825260198152601e602082015260289181018290526060810191909152610152906008906004610f69565b50604080516080810182526000815260056020820152600a91810191909152600f6060820152610186906009906004610f69565b506040805160808101825260008152600a60208201819052601492820192909252601e60608201526101ba91906004610f69565b506040805160808101825260008152600a6020820152601491810191909152600f60608201526101ee90600b906004610f69565b50600060026000600161ffff168152602001908152602001600020905060018160000160006101000a81548161ffff021916908361ffff16021790555060648160000160026101000a81548160ff021916908360ff16021790555060038160000160036101000a81548160ff021916908360ff16021790555080600101600090806001815401808255809150506001900390600052602060002090602091828204019190069091909190916101000a81548160ff021916908360ff16021790555080600101601990806001815401808255809150506001900390600052602060002090602091828204019190069091909190916101000a81548160ff021916908360ff16021790555080600101603290806001815401808255809150506001900390600052602060002090602091828204019190069091909190916101000a81548160ff021916908360ff16021790555080600201600090806001815401808255809150506001900390600052602060002090602091828204019190069091909190916101000a81548160ff021916908360ff16021790555080600201600a90806001815401808255809150506001900390600052602060002090602091828204019190069091909190916101000a81548160ff021916908360ff16021790555080600201601490806001815401808255809150506001900390600052602060002090602091828204019190069091909190916101000a81548160ff021916908360ff16021790555080600301600090806001815401808255809150506001900390600052602060002090602091828204019190069091909190916101000a81548160ff021916908360ff16021790555080600301600190806001815401808255809150506001900390600052602060002090602091828204019190069091909190916101000a81548160ff021916908360ff16021790555080600301600290806001815401808255809150506001900390600052602060002090602091828204019190069091909190916101000a81548160ff021916908360ff160217905550806004016040518060600160405280600360ff168152602001603260ff1681526020016000800b8152509080600181540180825580915050600190039060005260206000200160009091909190915060008201518160000160006101000a81548160ff021916908360ff16021790555060208201518160000160016101000a81548160ff021916908360ff16021790555060408201518160000160026101000a81548160ff021916908360000b60ff1602179055505050806004016040518060600160405280600660ff168152602001602860ff1681526020016000800b8152509080600181540180825580915050600190039060005260206000200160009091909190915060008201518160000160006101000a81548160ff021916908360ff16021790555060208201518160000160016101000a81548160ff021916908360ff16021790555060408201518160000160026101000a81548160ff021916908360000b60ff1602179055505050806004016040518060600160405280600460ff168152602001603c60ff16815260200160001960000b8152509080600181540180825580915050600190039060005260206000200160009091909190915060008201518160000160006101000a81548160ff021916908360ff16021790555060208201518160000160016101000a81548160ff021916908360ff16021790555060408201518160000160026101000a81548160ff021916908360000b60ff1602179055505050806004016040518060600160405280600260ff168152602001605060ff1681526020016000800b8152509080600181540180825580915050600190039060005260206000200160009091909190915060008201518160000160006101000a81548160ff021916908360ff16021790555060208201518160000160016101000a81548160ff021916908360ff16021790555060408201518160000160026101000a81548160ff021916908360000b60ff1602179055505050806005016040518060400160405280600060ff168152602001600160000b8152509080600181540180825580915050600190039060005260206000200160009091909190915060008201518160000160006101000a81548160ff021916908360ff16021790555060208201518160000160016101000a81548160ff021916908360000b60ff1602179055505050806005016040518060400160405280600f60ff1681526020016000800b8152509080600181540180825580915050600190039060005260206000200160009091909190915060008201518160000160006101000a81548160ff021916908360ff16021790555060208201518160000160016101000a81548160ff021916908360000b60ff1602179055505050806005016040518060400160405280601e60ff16815260200160001960000b8152509080600181540180825580915050600190039060005260206000200160009091909190915060008201518160000160006101000a81548160ff021916908360ff16021790555060208201518160000160016101000a81548160ff021916908360000b60ff1602179055505050806005016040518060400160405280602d60ff16815260200160011960000b8152509080600181540180825580915050600190039060005260206000200160009091909190915060008201518160000160006101000a81548160ff021916908360ff16021790555060208201518160000160016101000a81548160ff021916908360000b60ff1602179055505050806006016040518060400160405280600060ff168152602001600160000b8152509080600181540180825580915050600190039060005260206000200160009091909190915060008201518160000160006101000a81548160ff021916908360ff16021790555060208201518160000160016101000a81548160ff021916908360000b60ff1602179055505050806006016040518060400160405280600f60ff168152602001600160000b8152509080600181540180825580915050600190039060005260206000200160009091909190915060008201518160000160006101000a81548160ff021916908360ff16021790555060208201518160000160016101000a81548160ff021916908360000b60ff1602179055505050806006016040518060400160405280601e60ff1681526020016000800b8152509080600181540180825580915050600190039060005260206000200160009091909190915060008201518160000160006101000a81548160ff021916908360ff16021790555060208201518160000160016101000a81548160ff021916908360000b60ff1602179055505050806006016040518060400160405280602d60ff16815260200160001960000b8152509080600181540180825580915050600190039060005260206000200160009091909190915060008201518160000160006101000a81548160ff021916908360ff16021790555060208201518160000160016101000a81548160ff021916908360000b60ff1602179055505050806007016040518060600160405280600060ff168152602001600060ff1681526020016000800b8152509080600181540180825580915050600190039060005260206000200160009091909190915060008201518160000160006101000a81548160ff021916908360ff16021790555060208201518160000160016101000a81548160ff021916908360ff16021790555060408201518160000160026101000a81548160ff021916908360000b60ff1602179055505050806007016040518060600160405280600160ff168152602001600160ff1681526020016000800b8152509080600181540180825580915050600190039060005260206000200160009091909190915060008201518160000160006101000a81548160ff021916908360ff16021790555060208201518160000160016101000a81548160ff021916908360ff16021790555060408201518160000160026101000a81548160ff021916908360000b60ff1602179055505050806007016040518060600160405280600360ff168152602001602860ff1681526020016000800b8152509080600181540180825580915050600190039060005260206000200160009091909190915060008201518160000160006101000a81548160ff021916908360ff16021790555060208201518160000160016101000a81548160ff021916908360ff16021790555060408201518160000160026101000a81548160ff021916908360000b60ff1602179055505050806007016040518060600160405280600360ff168152602001601e60ff1681526020016000800b8152509080600181540180825580915050600190039060005260206000200160009091909190915060008201518160000160006101000a81548160ff021916908360ff16021790555060208201518160000160016101000a81548160ff021916908360ff16021790555060408201518160000160026101000a81548160ff021916908360000b60ff16021790555050505050611054565b600080546001600160a01b038381166001600160a01b0319831681178455604051919092169283917f8be0079c531659141344cd1fd0a4f28419497f9722a3daafe3b4186f6b6457e09190a35050565b82805482825590600052602060002090601f01602090048101928215610fff5791602002820160005b83821115610fd057835183826101000a81548160ff021916908360ff1602179055509260200192600101602081600001049283019260010302610f92565b8015610ffd5782816101000a81549060ff0219169055600101602081600001049283019260010302610fd0565b505b5061100b92915061100f565b5090565b5b8082111561100b5760008155600101611010565b60006020828403121561103657600080fd5b81516001600160a01b038116811461104d57600080fd5b9392505050565b613004806110636000396000f3fe608060405234801561001057600080fd5b50600436106101a95760003560e01c80639636c762116100f9578063ceb3a61211610097578063e7fae62511610071578063e7fae6251461045e578063f2fde38b14610471578063fe367db314610484578063ff758d021461049757600080fd5b8063ceb3a61214610425578063d5d233f814610438578063e197c6271461044b57600080fd5b8063a918e521116100d3578063a918e521146103bf578063ab67a783146103df578063bbf8218a146103f2578063c5b64b7a1461040557600080fd5b80639636c7621461034e578063a5099bae1461036f578063a89a24f81461038257600080fd5b80634792235f11610166578063776d62f611610140578063776d62f6146102c65780637e0b245f146102fb5780638da5cb5b1461031b5780638e1b4a831461034057600080fd5b80634792235f14610286578063670fa22e14610299578063715018a6146102be57600080fd5b806303075018146101ae5780630f0bba00146101cd57806311fa2bae1461022a5780631d727ba5146102455780633130f7ce1461025a578063321eed3514610266575b600080fd5b6101b66104aa565b6040516101c4929190611ea4565b60405180910390f35b6102066101db366004611fd2565b60026020526000908152604090205461ffff81169060ff620100008204811691630100000090041683565b6040805161ffff909416845260ff92831660208501529116908201526060016101c4565b60035461ffff165b60405161ffff90911681526020016101c4565b610258610253366004612177565b610871565b005b60045461ffff16610232565b61027961027436600461230d565b61099f565b6040516101c49190612452565b61025861029436600461264b565b610af6565b6102ac6102a73660046127b6565b610f44565b60405160ff90911681526020016101c4565b610258610fa0565b6004546102df9061ffff81169062010000900460ff1682565b6040805161ffff909316835260ff9091166020830152016101c4565b61030e6103093660046127b6565b610fb4565b6040516101c491906127d3565b6000546001600160a01b03165b6040516001600160a01b0390911681526020016101c4565b6003546102329061ffff1681565b61036161035c3660046127f0565b611038565b6040519081526020016101c4565b6102ac61037d3660046127f0565b611079565b610206610390366004611fd2565b61ffff9081166000908152600260205260409020549081169160ff620100008304811692630100000090041690565b6103d26103cd3660046127b6565b611084565b6040516101c49190612809565b6102326103ed366004612aa5565b611120565b600154610328906001600160a01b031681565b610418610413366004612aa5565b611388565b6040516101c49190612ba2565b6102ac6104333660046127b6565b61170d565b610258610446366004612bb5565b611764565b6104186104593660046127f0565b61178e565b6103d261046c3660046127b6565b61183f565b61025861047f366004612bb5565b611887565b61030e6104923660046127b6565b6118ca565b6102586104a5366004611fd2565b611909565b6000610502604051806101200160405280600061ffff168152602001600060ff168152602001606081526020016060815260200160608152602001606081526020016060815260200160608152602001606081525090565b60048054604080516101208101825261ffff83168082526201000090930460ff1660208083019190915260058054845181840281018401865281815295969593948694908601939092919083018282801561059a57602002820191906000526020600020906000905b825461010083900a900460ff1681526020600192830181810494850194909303909202910180841161056b5790505b505050505081526020016002820180548060200260200160405190810160405280929190818152602001828054801561061057602002820191906000526020600020906000905b825461010083900a900460ff168152602060019283018181049485019490930390920291018084116105e15790505b505050505081526020016003820180548060200260200160405190810160405280929190818152602001828054801561068657602002820191906000526020600020906000905b825461010083900a900460ff168152602060019283018181049485019490930390920291018084116106575790505b50505050508152602001600482018054806020026020016040519081016040528092919081815260200182805480156106fc57602002820191906000526020600020906000905b825461010083900a900460ff168152602060019283018181049485019490930390920291018084116106cd5790505b505050505081526020016005820180548060200260200160405190810160405280929190818152602001828054801561077257602002820191906000526020600020906000905b825461010083900a900460ff168152602060019283018181049485019490930390920291018084116107435790505b50505050508152602001600682018054806020026020016040519081016040528092919081815260200182805480156107e857602002820191906000526020600020906000905b825461010083900a900460ff168152602060019283018181049485019490930390920291018084116107b95790505b505050505081526020016007820180548060200260200160405190810160405280929190818152602001828054801561085e57602002820191906000526020600020906000905b825461010083900a900460ff1681526020600192830181810494850194909303909202910180841161082f5790505b5050505050815250509050915091509091565b610879611929565b6004805461ffff1690600061088d83612be8565b82546101009290920a61ffff8181021990931691831602179091558251600480546020808701519390941662ffffff19909116176201000060ff909316929092029190911781556040840151805185945091926108f09260059290910190611cca565b506060820151805161090c916002840191602090910190611cca565b5060808201518051610928916003840191602090910190611cca565b5060a08201518051610944916004840191602090910190611cca565b5060c08201518051610960916005840191602090910190611cca565b5060e0820151805161097c916006840191602090910190611cca565b506101008201518051610999916007840191602090910190611cca565b50505050565b6060600082516001600160401b038111156109bc576109bc611fef565b6040519080825280602002602001820160405280156109f557816020015b6109e2611d70565b8152602001906001900390816109da5790505b50905060005b8351811015610aef5760015484516000916001600160a01b031690634025b22d90879085908110610a2e57610a2e612c09565b60200260200101516040518263ffffffff1660e01b8152600401610a5491815260200190565b600060405180830381865afa158015610a71573d6000803e3d6000fd5b505050506040513d6000823e601f3d908101601f19168201604052610a999190810190612e26565b90508060200151600003610ac0576040516303c113ad60e61b815260040160405180910390fd5b610ac981611388565b838381518110610adb57610adb612c09565b6020908102919091010152506001016109fb565b5092915050565b610afe611929565b6003805461ffff16906000610b1283612be8565b91906101000a81548161ffff021916908361ffff160217905550506000600360009054906101000a900461ffff1690506000600260008361ffff1661ffff1681526020019081526020016000209050818160000160006101000a81548161ffff021916908361ffff1602179055508a8160000160026101000a81548160ff021916908360ff160217905550898160000160036101000a81548160ff021916908360ff160217905550806004016000610bca9190611dbe565b60005b8951811015610c4d57816004018a8281518110610bec57610bec612c09565b6020908102919091018101518254600181810185556000948552938390208251910180549383015160409093015160ff908116620100000262ff0000199482166101000261ffff199096169190931617939093179190911617905501610bcd565b50610c5c600582016000611ddc565b60005b8851811015610cc35781600501898281518110610c7e57610c7e612c09565b602090810291909101810151825460018181018555600094855293839020825191018054929093015160ff9081166101000261ffff1990931691161717905501610c5f565b50610cd2600682016000611ddc565b60005b8751811015610d395781600601888281518110610cf457610cf4612c09565b602090810291909101810151825460018181018555600094855293839020825191018054929093015160ff9081166101000261ffff1990931691161717905501610cd5565b50610d48600782016000611dbe565b60005b8651811015610dcb5781600701878281518110610d6a57610d6a612c09565b6020908102919091018101518254600181810185556000948552938390208251910180549383015160409093015160ff908116620100000262ff0000199482166101000261ffff199096169190931617939093179190911617905501610d4b565b50610dda600182016000611dfa565b60005b8551811015610e445781600101868281518110610dfc57610dfc612c09565b602090810291909101810151825460018181018555600094855293839020928104909201805460ff928316601f9094166101000a938402929093021990921617905501610ddd565b50610e53600282016000611dfa565b60005b8451811015610ebd5781600201858281518110610e7557610e75612c09565b602090810291909101810151825460018181018555600094855293839020928104909201805460ff928316601f9094166101000a938402929093021990921617905501610e56565b50610ecc600382016000611dfa565b60005b8351811015610f365781600301848281518110610eee57610eee612c09565b602090810291909101810151825460018181018555600094855293839020928104909201805460ff928316601f9094166101000a938402929093021990921617905501610ecf565b505050505050505050505050565b6003805461ffff16600090815260026020526040812090916007909101908390811115610f7357610f73612f2c565b60ff1681548110610f8657610f86612c09565b600091825260209091200154610100900460ff1692915050565b610fa8611929565b610fb26000611956565b565b60408051808201909152600080825260208201526003805461ffff166000908152600260205260409020600501908390811115610ff357610ff3612f2c565b60ff168154811061100657611006612c09565b600091825260208083206040805180820190915292015460ff81168352610100900490920b9181019190915292915050565b60008160000361104a57506001919050565b60005b8215611073578061105d81612f42565b915061106c9050600a84612f5b565b925061104d565b92915050565b600061107382611038565b60408051606081018252600080825260208201819052918101919091526003805461ffff1660009081526002602052604090206004019083908111156110cc576110cc612f2c565b60ff16815481106110df576110df612c09565b6000918252602080832060408051606081018252919093015460ff8082168352610100820416928201929092526201000090910490920b9082015292915050565b6000806004600701836040015160600151600381111561114257611142612f2c565b60ff168154811061115557611155612c09565b90600052602060002090602091828204019190069054906101000a900460ff166004600601846040015160400151600381111561119457611194612f2c565b60ff16815481106111a7576111a7612c09565b90600052602060002090602091828204019190069054906101000a900460ff16600460050185604001516020015160038111156111e6576111e6612f2c565b60ff16815481106111f9576111f9612c09565b90600052602060002090602091828204019190069054906101000a900460ff1660048001866040015160000151600381111561123757611237612f2c565b60ff168154811061124a5761124a612c09565b90600052602060002090602091828204019190069054906101000a900460ff166004600301876060015160a0015160ff168154811061128b5761128b612c09565b90600052602060002090602091828204019190069054906101000a900460ff16600460020188606001516080015160ff16815481106112cc576112cc612c09565b90600052602060002090602091828204019190069054906101000a900460ff16600460010189606001516060015160ff168154811061130d5761130d612c09565b60009182526020918290209181049091015460045461134292601f166101000a90910460ff9081169162010000900416612f7d565b61134c9190612f7d565b6113569190612f7d565b6113609190612f7d565b61136a9190612f7d565b6113749190612f7d565b61137e9190612f7d565b60ff169392505050565b611390611d70565b81602001516000036113b5576040516303c113ad60e61b815260040160405180910390fd5b60006113ce83608001516000015163ffffffff16611079565b905060008160ff166001036113e557506000611440565b8160ff166002036113f85750600a611440565b8160ff1660030361140b57506014611440565b8160ff1660040361141e5750601e611440565b8160ff1660050361143157506028611440565b60068260ff1610611440575060325b611448611d70565b6003805461ffff1680835260009081526002602052604090819020908701515160049091019181111561147d5761147d612f2c565b60ff168154811061149057611490612c09565b600091825260208083209091015460ff9081169184018290526064916114b891861690612f96565b6114c29190612f5b565b905080826020018181516114d69190612f7d565b60ff90811690915260035461ffff16600090815260026020526040812060608a810151015160019091018054929450921690811061151657611516612c09565b600091825260209182902082820401549185015160ff601f9092166101000a9092048116925060649161154b91849116612f96565b6115559190612f5b565b915081836020018181516115699190612f7d565b60ff169052506003805461ffff166000908152600260205260409081902090890151516004909101918111156115a1576115a1612f2c565b60ff16815481106115b4576115b4612c09565b60009182526020909120015460ff6101009091048116604085018190526064916115e19190871690612f96565b6115eb9190612f5b565b915081836040018181516115ff9190612f7d565b60ff1690525061160e876119a6565b60ff9081166060850181905260649161162a9190871690612f96565b6116349190612f5b565b915081836060018181516116489190612f7d565b60ff90811690915260608501511660808501525061166587611a25565b60ff90811660a085018190526064916116819190871690612f96565b61168b9190612f5b565b9150818360a00181815161169f9190612f7d565b60ff169052506116ae87611c0e565b60ff90811660c085018190526064916116ca9190871690612f96565b6116d49190612f5b565b9150818360c0018181516116e89190612f7d565b60ff169052505060408051600081526020810190915261010083015250949350505050565b6003805461ffff1660009081526002602052604081209091600790910190839081111561173c5761173c612f2c565b60ff168154811061174f5761174f612c09565b60009182526020909120015460ff1692915050565b61176c611929565b600180546001600160a01b0319166001600160a01b0392909216919091179055565b611796611d70565b600154604051634025b22d60e01b8152600481018490526000916001600160a01b031690634025b22d90602401600060405180830381865afa1580156117e0573d6000803e3d6000fd5b505050506040513d6000823e601f3d908101601f191682016040526118089190810190612e26565b9050806020015160000361182f576040516303c113ad60e61b815260040160405180910390fd5b61183881611388565b9392505050565b60408051606081018252600080825260208201819052918101919091526003805461ffff1660009081526002602052604090206007019083908111156110cc576110cc612f2c565b61188f611929565b6001600160a01b0381166118be57604051631e4fbdf760e01b8152600060048201526024015b60405180910390fd5b6118c781611956565b50565b60408051808201909152600080825260208201526003805461ffff166000908152600260205260409020600601908390811115610ff357610ff3612f2c565b611911611929565b6003805461ffff191661ffff92909216919091179055565b6000546001600160a01b03163314610fb25760405163118cdaa760e01b81523360048201526024016118b5565b600080546001600160a01b038381166001600160a01b0319831681178455604051919092169283917f8be0079c531659141344cd1fd0a4f28419497f9722a3daafe3b4186f6b6457e09190a35050565b60035461ffff166000908152600260208190526040822080546060850151608001519282018054929360ff620100009093048316938693919091169081106119f0576119f0612c09565b60009182526020918290209181049091015460ff601f9092166101000a9004169050611a1c8183612f7d565b95945050505050565b6003805461ffff1660009081526002602052604081208054606085015160a00151938201805493949293630100000090920460ff9081169391929116908110611a7057611a70612c09565b90600052602060002090602091828204019190069054906101000a900460ff1681611a9b9190612fad565b90506000826004018560400151600001516003811115611abd57611abd612f2c565b60ff1681548110611ad057611ad0612c09565b9060005260206000200160000160029054906101000a900460000b90506000836005018660400151602001516003811115611b0d57611b0d612f2c565b60ff1681548110611b2057611b20612c09565b60009182526020822001546040808901510151610100909104820b925060068601906003811115611b5357611b53612f2c565b60ff1681548110611b6657611b66612c09565b6000918252602082200154604089015160600151610100909104820b925060078701906003811115611b9a57611b9a612f2c565b60ff1681548110611bad57611bad612c09565b6000918252602082200154620100009004900b90508082611bce8587612fad565b611bd89190612fad565b611be29190612fad565b611bec9086612fad565b945060008560000b13611c00576000611c02565b845b98975050505050505050565b6003805461ffff1660009081526002602090815260408083209085015190910151919290918391600584019190811115611c4a57611c4a612f2c565b60ff1681548110611c5d57611c5d612c09565b600091825260209091200154611c769060ff1682612f7d565b9050816006018460400151604001516003811115611c9657611c96612f2c565b60ff1681548110611ca957611ca9612c09565b600091825260209091200154611cc29060ff1682612f7d565b949350505050565b82805482825590600052602060002090601f01602090048101928215611d605791602002820160005b83821115611d3157835183826101000a81548160ff021916908360ff1602179055509260200192600101602081600001049283019260010302611cf3565b8015611d5e5782816101000a81549060ff0219169055600101602081600001049283019260010302611d31565b505b50611d6c929150611e1b565b5090565b604080516101208101825260008082526020820181905291810182905260608082018390526080820183905260a0820183905260c0820183905260e082019290925261010081019190915290565b50805460008255906000526020600020908101906118c79190611e30565b50805460008255906000526020600020908101906118c79190611e4b565b50805460008255601f0160209004906000526020600020908101906118c791905b5b80821115611d6c5760008155600101611e1c565b5b80821115611d6c57805462ffffff19168155600101611e31565b5b80821115611d6c57805461ffff19168155600101611e4c565b600081518084526020840193506020830160005b82811015611e9a57815160ff16865260209586019590910190600101611e79565b5093949350505050565b82815260406020820152611ebf60408201835161ffff169052565b60006020830151611ed5606084018260ff169052565b5060408301516101206080840152611ef1610160840182611e65565b90506060840151603f198483030160a0850152611f0e8282611e65565b9150506080840151603f198483030160c0850152611f2c8282611e65565b91505060a0840151603f198483030160e0850152611f4a8282611e65565b91505060c0840151603f1984830301610100850152611f698282611e65565b91505060e0840151603f1984830301610120850152611f888282611e65565b915050610100840151603f1984830301610140850152611fa88282611e65565b9695505050505050565b61ffff811681146118c757600080fd5b8035611fcd81611fb2565b919050565b600060208284031215611fe457600080fd5b813561183881611fb2565b634e487b7160e01b600052604160045260246000fd5b60405161012081016001600160401b038111828210171561202857612028611fef565b60405290565b604051608081016001600160401b038111828210171561202857612028611fef565b60405160c081016001600160401b038111828210171561202857612028611fef565b60405160e081016001600160401b038111828210171561202857612028611fef565b604051601f8201601f191681016001600160401b03811182821017156120bc576120bc611fef565b604052919050565b60ff811681146118c757600080fd5b8035611fcd816120c4565b60006001600160401b038211156120f7576120f7611fef565b5060051b60200190565b600082601f83011261211257600080fd5b8135612125612120826120de565b612094565b8082825260208201915060208360051b86010192508583111561214757600080fd5b602085015b8381101561216d57803561215f816120c4565b83526020928301920161214c565b5095945050505050565b60006020828403121561218957600080fd5b81356001600160401b0381111561219f57600080fd5b820161012081850312156121b257600080fd5b6121ba612005565b6121c382611fc2565b81526121d1602083016120d3565b602082015260408201356001600160401b038111156121ef57600080fd5b6121fb86828501612101565b60408301525060608201356001600160401b0381111561221a57600080fd5b61222686828501612101565b60608301525060808201356001600160401b0381111561224557600080fd5b61225186828501612101565b60808301525060a08201356001600160401b0381111561227057600080fd5b61227c86828501612101565b60a08301525060c08201356001600160401b0381111561229b57600080fd5b6122a786828501612101565b60c08301525060e08201356001600160401b038111156122c657600080fd5b6122d286828501612101565b60e0830152506101008201356001600160401b038111156122f257600080fd5b6122fe86828501612101565b61010083015250949350505050565b60006020828403121561231f57600080fd5b81356001600160401b0381111561233557600080fd5b8201601f8101841361234657600080fd5b8035612354612120826120de565b8082825260208201915060208360051b85010192508683111561237657600080fd5b6020840193505b82841015611fa857833582526020938401939091019061237d565b805161ffff168252600060208201516123b6602085018260ff169052565b5060408201516123cb604085018260ff169052565b5060608201516123e0606085018260ff169052565b5060808201516123f5608085018260ff169052565b5060a082015161240a60a085018260ff169052565b5060c082015161241f60c085018260ff169052565b5060e082015161243460e085018260ff169052565b50610100820151610120610100850152611cc2610120850182611e65565b6000602082016020835280845180835260408501915060408160051b86010192506020860160005b828110156124ab57603f19878603018452612496858351612398565b9450602093840193919091019060010161247a565b50929695505050505050565b8035600081900b8114611fcd57600080fd5b600082601f8301126124da57600080fd5b81356020830160006124ee612120846120de565b83815260609093028201929050602081018684111561250c57600080fd5b8383101561216d57600060608489031215612525578081fd5b604051606081016001600160401b038111828210171561254757612547611fef565b60405284359150612557826120c4565b908152602084013590612569826120c4565b81602082015261257b604086016124b7565b60408201528252506060929092019160200161250c565b600082601f8301126125a357600080fd5b81356020830160006125b7612120846120de565b83815260069390931b820192905060208101868411156125d657600080fd5b8383101561216d576000604084890312156125ef578081fd5b604080519081016001600160401b038111828210171561261157612611611fef565b60405284359150612621826120c4565b818152612630602086016124b7565b602082015280835250506020810190506040830192506125d6565b60008060008060008060008060006101208a8c03121561266a57600080fd5b6126738a6120d3565b985061268160208b016120d3565b975060408a01356001600160401b0381111561269c57600080fd5b6126a88c828d016124c9565b97505060608a01356001600160401b038111156126c457600080fd5b6126d08c828d01612592565b96505060808a01356001600160401b038111156126ec57600080fd5b6126f88c828d01612592565b95505060a08a01356001600160401b0381111561271457600080fd5b6127208c828d016124c9565b94505060c08a01356001600160401b0381111561273c57600080fd5b6127488c828d01612101565b93505060e08a01356001600160401b0381111561276457600080fd5b6127708c828d01612101565b9250506101008a01356001600160401b0381111561278d57600080fd5b6127998c828d01612101565b9150509295985092959850929598565b600481106118c757600080fd5b6000602082840312156127c857600080fd5b8135611838816127a9565b815160ff16815260208083015160000b9082015260408101611073565b60006020828403121561280257600080fd5b5035919050565b60608101611073828460ff815116825260ff6020820151166020830152604081015160000b60408301525050565b60006001600160401b0382111561285057612850611fef565b50601f01601f191660200190565b60006080828403121561287057600080fd5b61287861202e565b90508135612885816127a9565b81526020820135612895816127a9565b602082015260408201356128a8816127a9565b604082015260608201356128bb816127a9565b606082015292915050565b60008183036101608112156128da57600080fd5b6128e2612050565b83358152915060c0601f19820112156128fa57600080fd5b50612903612050565b602083013561291181611fb2565b81526040830135612921816120c4565b60208201526060830135612934816120c4565b6040820152608083013561294781611fb2565b606082015260a083013561295a816120c4565b608082015260c083013561296d816120c4565b60a0820152602082015261298360e083016120d3565b604082015261299561010083016120d3565b60608201526129a761012083016120d3565b60808201526129b961014083016120d3565b60a082015292915050565b63ffffffff811681146118c757600080fd5b80151581146118c757600080fd5b8035611fcd816129d6565b600060e08284031215612a0157600080fd5b612a09612072565b90508135612a16816129c4565b81526020820135612a2681611fb2565b60208201526040820135612a3981611fb2565b60408201526060820135612a4c816129d6565b6060820152612a5d608083016129e4565b6080820152612a6e60a083016129e4565b60a082015260c09182013591810191909152919050565b6001600160a01b03811681146118c757600080fd5b8035611fcd81612a85565b600060208284031215612ab757600080fd5b81356001600160401b03811115612acd57600080fd5b82016103208185031215612ae057600080fd5b612ae8612050565b81356001600160401b03811115612afe57600080fd5b8201601f81018613612b0f57600080fd5b8035612b1d61212082612837565b818152876020838501011115612b3257600080fd5b81602084016020830137600060209282018301528352838101359083015250612b5e856040840161285e565b6040820152612b708560c084016128c6565b6060820152612b838561022084016129ef565b6080820152612b956103008301612a9a565b60a0820152949350505050565b6020815260006118386020830184612398565b600060208284031215612bc757600080fd5b813561183881612a85565b634e487b7160e01b600052601160045260246000fd5b600061ffff821661ffff8103612c0057612c00612bd2565b60010192915050565b634e487b7160e01b600052603260045260246000fd5b600060808284031215612c3157600080fd5b612c3961202e565b90508151612c46816127a9565b81526020820151612c56816127a9565b60208201526040820151612c69816127a9565b604082015260608201516128bb816127a9565b8051611fcd816120c4565b6000818303610160811215612c9b57600080fd5b612ca3612050565b83518152915060c0601f1982011215612cbb57600080fd5b50612cc4612050565b6020830151612cd281611fb2565b81526040830151612ce2816120c4565b60208201526060830151612cf5816120c4565b60408201526080830151612d0881611fb2565b606082015260a0830151612d1b816120c4565b608082015260c0830151612d2e816120c4565b60a08201526020820152612d4460e08301612c7c565b6040820152612d566101008301612c7c565b6060820152612d686101208301612c7c565b60808201526129b96101408301612c7c565b8051611fcd816129d6565b600060e08284031215612d9757600080fd5b612d9f612072565b90508151612dac816129c4565b81526020820151612dbc81611fb2565b60208201526040820151612dcf81611fb2565b60408201526060820151612de2816129d6565b6060820152612df360808301612d7a565b6080820152612e0460a08301612d7a565b60a082015260c09182015191810191909152919050565b8051611fcd81612a85565b600060208284031215612e3857600080fd5b81516001600160401b03811115612e4e57600080fd5b82016103208185031215612e6157600080fd5b612e69612050565b81516001600160401b03811115612e7f57600080fd5b8201601f81018613612e9057600080fd5b8051612e9e61212082612837565b818152876020838501011115612eb357600080fd5b60005b82811015612ed257602081850181015183830182015201612eb6565b50600060209282018301528352838101519083015250612ef58560408401612c1f565b6040820152612f078560c08401612c87565b6060820152612f1a856102208401612d85565b6080820152612b956103008301612e1b565b634e487b7160e01b600052602160045260246000fd5b600060018201612f5457612f54612bd2565b5060010190565b600082612f7857634e487b7160e01b600052601260045260246000fd5b500490565b60ff818116838216019081111561107357611073612bd2565b808202811582820484141761107357611073612bd2565b600081810b9083900b01607f8113607f198212171561107357611073612bd256fea264697066735822122088c87ad209fd84b2f91f3fdd199eadf317c2fc21b51848c80acef38a4399f90864736f6c634300081c0033",
  "linkReferences": {},
  "deployedLinkReferences": {}
}