{
  "_format": "hh-sol-artifact-1",
  "contractName": "Game",
  "sourceName": "contracts/Game.sol",
  "abi": [
    {
      "inputs": [
        {
          "internalType": "address",
          "name": "_ships",
          "type": "address"
        },
        {
          "internalType": "address",
          "name": "_shipAttributes",
          "type": "address"
        }
      ],
      "stateMutability": "nonpayable",
      "type": "constructor"
    },
    {
      "inputs": [],
      "name": "ActionRequired",
      "type": "error"
    },
    {
      "inputs": [],
      "name": "GameNotFound",
      "type": "error"
    },
    {
      "inputs": [],
      "name": "InvalidMove",
      "type": "error"
    },
    {
      "inputs": [],
      "name": "InvalidPosition",
      "type": "error"
    },
    {
      "inputs": [],
      "name": "NotInGame",
      "type": "error"
    },
    {
      "inputs": [],
      "name": "NotLobbiesContract",
      "type": "error"
    },
    {
      "inputs": [],
      "name": "NotYourTurn",
      "type": "error"
    },
    {
      "inputs": [
        {
          "internalType": "address",
          "name": "owner",
          "type": "address"
        }
      ],
      "name": "OwnableInvalidOwner",
      "type": "error"
    },
    {
      "inputs": [
        {
          "internalType": "address",
          "name": "account",
          "type": "address"
        }
      ],
      "name": "OwnableUnauthorizedAccount",
      "type": "error"
    },
    {
      "inputs": [],
      "name": "PositionOccupied",
      "type": "error"
    },
    {
      "inputs": [],
      "name": "ShipAlreadyMoved",
      "type": "error"
    },
    {
      "inputs": [],
      "name": "ShipDestroyed",
      "type": "error"
    },
    {
      "inputs": [],
      "name": "ShipNotFound",
      "type": "error"
    },
    {
      "inputs": [],
      "name": "ShipNotOwned",
      "type": "error"
    },
    {
      "inputs": [],
      "name": "TurnTimeoutExceeded",
      "type": "error"
    },
    {
      "inputs": [],
      "name": "TurnTimeoutNotReached",
      "type": "error"
    },
    {
      "anonymous": false,
      "inputs": [
        {
          "indexed": true,
          "internalType": "uint256",
          "name": "gameId",
          "type": "uint256"
        },
        {
          "indexed": true,
          "internalType": "uint256",
          "name": "lobbyId",
          "type": "uint256"
        },
        {
          "indexed": false,
          "internalType": "address",
          "name": "creator",
          "type": "address"
        },
        {
          "indexed": false,
          "internalType": "address",
          "name": "joiner",
          "type": "address"
        }
      ],
      "name": "GameStarted",
      "type": "event"
    },
    {
      "anonymous": false,
      "inputs": [
        {
          "indexed": true,
          "internalType": "uint256",
          "name": "gameId",
          "type": "uint256"
        }
      ],
      "name": "GameUpdate",
      "type": "event"
    },
    {
      "anonymous": false,
      "inputs": [
        {
          "indexed": true,
          "internalType": "uint256",
          "name": "gameId",
          "type": "uint256"
        },
        {
          "indexed": false,
          "internalType": "uint256",
          "name": "shipId",
          "type": "uint256"
        },
        {
          "indexed": false,
          "internalType": "int16",
          "name": "oldRow",
          "type": "int16"
        },
        {
          "indexed": false,
          "internalType": "int16",
          "name": "oldCol",
          "type": "int16"
        },
        {
          "indexed": false,
          "internalType": "int16",
          "name": "newRow",
          "type": "int16"
        },
        {
          "indexed": false,
          "internalType": "int16",
          "name": "newCol",
          "type": "int16"
        },
        {
          "indexed": false,
          "internalType": "enum ActionType",
          "name": "actionType",
          "type": "uint8"
        },
        {
          "indexed": false,
          "internalType": "uint256",
          "name": "targetShipId",
          "type": "uint256"
        }
      ],
      "name": "Move",
      "type": "event"
    },
    {
      "anonymous": false,
      "inputs": [
        {
          "indexed": true,
          "internalType": "address",
          "name": "previousOwner",
          "type": "address"
        },
        {
          "indexed": true,
          "internalType": "address",
          "name": "newOwner",
          "type": "address"
        }
      ],
      "name": "OwnershipTransferred",
      "type": "event"
    },
    {
      "inputs": [],
      "name": "GRID_HEIGHT",
      "outputs": [
        {
          "internalType": "int16",
          "name": "",
          "type": "int16"
        }
      ],
      "stateMutability": "view",
      "type": "function"
    },
    {
      "inputs": [],
      "name": "GRID_WIDTH",
      "outputs": [
        {
          "internalType": "int16",
          "name": "",
          "type": "int16"
        }
      ],
      "stateMutability": "view",
      "type": "function"
    },
    {
      "inputs": [
        {
          "internalType": "uint256",
          "name": "_gameId",
          "type": "uint256"
        }
      ],
      "name": "_getShipsWithZeroHP",
      "outputs": [
        {
          "internalType": "uint256[]",
          "name": "",
          "type": "uint256[]"
        }
      ],
      "stateMutability": "view",
      "type": "function"
    },
    {
      "inputs": [
        {
          "internalType": "uint256",
          "name": "_gameId",
          "type": "uint256"
        },
        {
          "internalType": "uint256[]",
          "name": "_shipIds",
          "type": "uint256[]"
        }
      ],
      "name": "calculateFleetAttributes",
      "outputs": [],
      "stateMutability": "nonpayable",
      "type": "function"
    },
    {
      "inputs": [
        {
          "internalType": "uint256",
          "name": "_gameId",
          "type": "uint256"
        },
        {
          "internalType": "uint256",
          "name": "_shipId",
          "type": "uint256"
        }
      ],
      "name": "calculateShipAttributes",
      "outputs": [],
      "stateMutability": "nonpayable",
      "type": "function"
    },
    {
      "inputs": [
        {
          "internalType": "uint256",
          "name": "_gameId",
          "type": "uint256"
        },
        {
          "internalType": "uint256",
          "name": "_shipId",
          "type": "uint256"
        }
      ],
      "name": "debugDestroyShip",
      "outputs": [],
      "stateMutability": "nonpayable",
      "type": "function"
    },
    {
      "inputs": [
        {
          "internalType": "uint256",
          "name": "_gameId",
          "type": "uint256"
        }
      ],
      "name": "debugIncrementReactorCriticalTimerForZeroHPShips",
      "outputs": [],
      "stateMutability": "nonpayable",
      "type": "function"
    },
    {
      "inputs": [
        {
          "internalType": "uint256",
          "name": "_gameId",
          "type": "uint256"
        },
        {
          "internalType": "uint256",
          "name": "_shipId",
          "type": "uint256"
        }
      ],
      "name": "debugMarkShipAsMoved",
      "outputs": [],
      "stateMutability": "nonpayable",
      "type": "function"
    },
    {
      "inputs": [
        {
          "internalType": "uint256",
          "name": "_gameId",
          "type": "uint256"
        },
        {
          "internalType": "uint256",
          "name": "_shipId",
          "type": "uint256"
        }
      ],
      "name": "debugSetHullPointsToZero",
      "outputs": [],
      "stateMutability": "nonpayable",
      "type": "function"
    },
    {
      "inputs": [
        {
          "internalType": "uint256",
          "name": "_gameId",
          "type": "uint256"
        },
        {
          "internalType": "uint256",
          "name": "_shipId",
          "type": "uint256"
        },
        {
          "internalType": "uint8",
          "name": "_timer",
          "type": "uint8"
        }
      ],
      "name": "debugSetReactorCriticalTimer",
      "outputs": [],
      "stateMutability": "nonpayable",
      "type": "function"
    },
    {
      "inputs": [
        {
          "internalType": "uint256",
          "name": "_gameId",
          "type": "uint256"
        },
        {
          "internalType": "uint256",
          "name": "_shipId",
          "type": "uint256"
        },
        {
          "internalType": "int16",
          "name": "_row",
          "type": "int16"
        },
        {
          "internalType": "int16",
          "name": "_col",
          "type": "int16"
        }
      ],
      "name": "debugSetShipPosition",
      "outputs": [],
      "stateMutability": "nonpayable",
      "type": "function"
    },
    {
      "inputs": [
        {
          "internalType": "uint256",
          "name": "_gameId",
          "type": "uint256"
        }
      ],
      "name": "endGameOnTimeout",
      "outputs": [],
      "stateMutability": "nonpayable",
      "type": "function"
    },
    {
      "inputs": [
        {
          "internalType": "uint256",
          "name": "_gameId",
          "type": "uint256"
        }
      ],
      "name": "flee",
      "outputs": [],
      "stateMutability": "nonpayable",
      "type": "function"
    },
    {
      "inputs": [],
      "name": "fleets",
      "outputs": [
        {
          "internalType": "contract IFleets",
          "name": "",
          "type": "address"
        }
      ],
      "stateMutability": "view",
      "type": "function"
    },
    {
      "inputs": [],
      "name": "gameCount",
      "outputs": [
        {
          "internalType": "uint256",
          "name": "",
          "type": "uint256"
        }
      ],
      "stateMutability": "view",
      "type": "function"
    },
    {
      "inputs": [],
      "name": "gameResults",
      "outputs": [
        {
          "internalType": "contract IGameResults",
          "name": "",
          "type": "address"
        }
      ],
      "stateMutability": "view",
      "type": "function"
    },
    {
      "inputs": [
        {
          "internalType": "uint256",
          "name": "_gameId",
          "type": "uint256"
        }
      ],
      "name": "getAllShipPositions",
      "outputs": [
        {
          "components": [
            {
              "internalType": "uint256",
              "name": "shipId",
              "type": "uint256"
            },
            {
              "components": [
                {
                  "internalType": "int16",
                  "name": "row",
                  "type": "int16"
                },
                {
                  "internalType": "int16",
                  "name": "col",
                  "type": "int16"
                }
              ],
              "internalType": "struct Position",
              "name": "position",
              "type": "tuple"
            },
            {
              "internalType": "bool",
              "name": "isCreator",
              "type": "bool"
            }
          ],
          "internalType": "struct ShipPosition[]",
          "name": "",
          "type": "tuple[]"
        }
      ],
      "stateMutability": "view",
      "type": "function"
    },
    {
      "inputs": [
        {
          "internalType": "uint256",
          "name": "_gameId",
          "type": "uint256"
        }
      ],
      "name": "getGame",
      "outputs": [
        {
          "components": [
            {
              "components": [
                {
                  "internalType": "uint256",
                  "name": "gameId",
                  "type": "uint256"
                },
                {
                  "internalType": "uint256",
                  "name": "lobbyId",
                  "type": "uint256"
                },
                {
                  "internalType": "address",
                  "name": "creator",
                  "type": "address"
                },
                {
                  "internalType": "address",
                  "name": "joiner",
                  "type": "address"
                },
                {
                  "internalType": "uint256",
                  "name": "creatorFleetId",
                  "type": "uint256"
                },
                {
                  "internalType": "uint256",
                  "name": "joinerFleetId",
                  "type": "uint256"
                },
                {
                  "internalType": "bool",
                  "name": "creatorGoesFirst",
                  "type": "bool"
                },
                {
                  "internalType": "uint256",
                  "name": "startedAt",
                  "type": "uint256"
                },
                {
                  "internalType": "address",
                  "name": "winner",
                  "type": "address"
                }
              ],
              "internalType": "struct GameMetadata",
              "name": "metadata",
              "type": "tuple"
            },
            {
              "components": [
                {
                  "internalType": "address",
                  "name": "currentTurn",
                  "type": "address"
                },
                {
                  "internalType": "uint256",
                  "name": "turnTime",
                  "type": "uint256"
                },
                {
                  "internalType": "uint256",
                  "name": "turnStartTime",
                  "type": "uint256"
                },
                {
                  "internalType": "uint256",
                  "name": "currentRound",
                  "type": "uint256"
                }
              ],
              "internalType": "struct GameTurnState",
              "name": "turnState",
              "type": "tuple"
            },
            {
              "components": [
                {
                  "internalType": "int16",
                  "name": "gridWidth",
                  "type": "int16"
                },
                {
                  "internalType": "int16",
                  "name": "gridHeight",
                  "type": "int16"
                }
              ],
              "internalType": "struct GameGridDimensions",
              "name": "gridDimensions",
              "type": "tuple"
            },
            {
              "internalType": "uint256",
              "name": "maxScore",
              "type": "uint256"
            },
            {
              "internalType": "uint256",
              "name": "creatorScore",
              "type": "uint256"
            },
            {
              "internalType": "uint256",
              "name": "joinerScore",
              "type": "uint256"
            },
            {
              "components": [
                {
                  "internalType": "uint256",
                  "name": "shipId",
                  "type": "uint256"
                },
                {
                  "internalType": "int16",
                  "name": "oldRow",
                  "type": "int16"
                },
                {
                  "internalType": "int16",
                  "name": "oldCol",
                  "type": "int16"
                },
                {
                  "internalType": "int16",
                  "name": "newRow",
                  "type": "int16"
                },
                {
                  "internalType": "int16",
                  "name": "newCol",
                  "type": "int16"
                },
                {
                  "internalType": "enum ActionType",
                  "name": "actionType",
                  "type": "uint8"
                },
                {
                  "internalType": "uint256",
                  "name": "targetShipId",
                  "type": "uint256"
                },
                {
                  "internalType": "uint256",
                  "name": "timestamp",
                  "type": "uint256"
                }
              ],
              "internalType": "struct LastMove",
              "name": "lastMove",
              "type": "tuple"
            },
            {
              "internalType": "uint256[]",
              "name": "shipIds",
              "type": "uint256[]"
            },
            {
              "components": [
                {
                  "internalType": "uint16",
                  "name": "version",
                  "type": "uint16"
                },
                {
                  "internalType": "uint8",
                  "name": "range",
                  "type": "uint8"
                },
                {
                  "internalType": "uint8",
                  "name": "gunDamage",
                  "type": "uint8"
                },
                {
                  "internalType": "uint8",
                  "name": "hullPoints",
                  "type": "uint8"
                },
                {
                  "internalType": "uint8",
                  "name": "maxHullPoints",
                  "type": "uint8"
                },
                {
                  "internalType": "uint8",
                  "name": "movement",
                  "type": "uint8"
                },
                {
                  "internalType": "uint8",
                  "name": "damageReduction",
                  "type": "uint8"
                },
                {
                  "internalType": "uint8",
                  "name": "reactorCriticalTimer",
                  "type": "uint8"
                },
                {
                  "internalType": "uint8[]",
                  "name": "statusEffects",
                  "type": "uint8[]"
                }
              ],
              "internalType": "struct Attributes[]",
              "name": "shipAttributes",
              "type": "tuple[]"
            },
            {
              "components": [
                {
                  "internalType": "uint256",
                  "name": "shipId",
                  "type": "uint256"
                },
                {
                  "components": [
                    {
                      "internalType": "int16",
                      "name": "row",
                      "type": "int16"
                    },
                    {
                      "internalType": "int16",
                      "name": "col",
                      "type": "int16"
                    }
                  ],
                  "internalType": "struct Position",
                  "name": "position",
                  "type": "tuple"
                },
                {
                  "internalType": "bool",
                  "name": "isCreator",
                  "type": "bool"
                }
              ],
              "internalType": "struct ShipPosition[]",
              "name": "shipPositions",
              "type": "tuple[]"
            },
            {
              "internalType": "uint256[]",
              "name": "creatorActiveShipIds",
              "type": "uint256[]"
            },
            {
              "internalType": "uint256[]",
              "name": "joinerActiveShipIds",
              "type": "uint256[]"
            },
            {
              "internalType": "uint256[]",
              "name": "creatorMovedShipIds",
              "type": "uint256[]"
            },
            {
              "internalType": "uint256[]",
              "name": "joinerMovedShipIds",
              "type": "uint256[]"
            }
          ],
          "internalType": "struct GameDataView",
          "name": "",
          "type": "tuple"
        }
      ],
      "stateMutability": "view",
      "type": "function"
    },
    {
      "inputs": [
        {
          "internalType": "address",
          "name": "_player",
          "type": "address"
        }
      ],
      "name": "getGamesForPlayer",
      "outputs": [
        {
          "components": [
            {
              "components": [
                {
                  "internalType": "uint256",
                  "name": "gameId",
                  "type": "uint256"
                },
                {
                  "internalType": "uint256",
                  "name": "lobbyId",
                  "type": "uint256"
                },
                {
                  "internalType": "address",
                  "name": "creator",
                  "type": "address"
                },
                {
                  "internalType": "address",
                  "name": "joiner",
                  "type": "address"
                },
                {
                  "internalType": "uint256",
                  "name": "creatorFleetId",
                  "type": "uint256"
                },
                {
                  "internalType": "uint256",
                  "name": "joinerFleetId",
                  "type": "uint256"
                },
                {
                  "internalType": "bool",
                  "name": "creatorGoesFirst",
                  "type": "bool"
                },
                {
                  "internalType": "uint256",
                  "name": "startedAt",
                  "type": "uint256"
                },
                {
                  "internalType": "address",
                  "name": "winner",
                  "type": "address"
                }
              ],
              "internalType": "struct GameMetadata",
              "name": "metadata",
              "type": "tuple"
            },
            {
              "components": [
                {
                  "internalType": "address",
                  "name": "currentTurn",
                  "type": "address"
                },
                {
                  "internalType": "uint256",
                  "name": "turnTime",
                  "type": "uint256"
                },
                {
                  "internalType": "uint256",
                  "name": "turnStartTime",
                  "type": "uint256"
                },
                {
                  "internalType": "uint256",
                  "name": "currentRound",
                  "type": "uint256"
                }
              ],
              "internalType": "struct GameTurnState",
              "name": "turnState",
              "type": "tuple"
            },
            {
              "components": [
                {
                  "internalType": "int16",
                  "name": "gridWidth",
                  "type": "int16"
                },
                {
                  "internalType": "int16",
                  "name": "gridHeight",
                  "type": "int16"
                }
              ],
              "internalType": "struct GameGridDimensions",
              "name": "gridDimensions",
              "type": "tuple"
            },
            {
              "internalType": "uint256",
              "name": "maxScore",
              "type": "uint256"
            },
            {
              "internalType": "uint256",
              "name": "creatorScore",
              "type": "uint256"
            },
            {
              "internalType": "uint256",
              "name": "joinerScore",
              "type": "uint256"
            },
            {
              "components": [
                {
                  "internalType": "uint256",
                  "name": "shipId",
                  "type": "uint256"
                },
                {
                  "internalType": "int16",
                  "name": "oldRow",
                  "type": "int16"
                },
                {
                  "internalType": "int16",
                  "name": "oldCol",
                  "type": "int16"
                },
                {
                  "internalType": "int16",
                  "name": "newRow",
                  "type": "int16"
                },
                {
                  "internalType": "int16",
                  "name": "newCol",
                  "type": "int16"
                },
                {
                  "internalType": "enum ActionType",
                  "name": "actionType",
                  "type": "uint8"
                },
                {
                  "internalType": "uint256",
                  "name": "targetShipId",
                  "type": "uint256"
                },
                {
                  "internalType": "uint256",
                  "name": "timestamp",
                  "type": "uint256"
                }
              ],
              "internalType": "struct LastMove",
              "name": "lastMove",
              "type": "tuple"
            },
            {
              "internalType": "uint256[]",
              "name": "shipIds",
              "type": "uint256[]"
            },
            {
              "components": [
                {
                  "internalType": "uint16",
                  "name": "version",
                  "type": "uint16"
                },
                {
                  "internalType": "uint8",
                  "name": "range",
                  "type": "uint8"
                },
                {
                  "internalType": "uint8",
                  "name": "gunDamage",
                  "type": "uint8"
                },
                {
                  "internalType": "uint8",
                  "name": "hullPoints",
                  "type": "uint8"
                },
                {
                  "internalType": "uint8",
                  "name": "maxHullPoints",
                  "type": "uint8"
                },
                {
                  "internalType": "uint8",
                  "name": "movement",
                  "type": "uint8"
                },
                {
                  "internalType": "uint8",
                  "name": "damageReduction",
                  "type": "uint8"
                },
                {
                  "internalType": "uint8",
                  "name": "reactorCriticalTimer",
                  "type": "uint8"
                },
                {
                  "internalType": "uint8[]",
                  "name": "statusEffects",
                  "type": "uint8[]"
                }
              ],
              "internalType": "struct Attributes[]",
              "name": "shipAttributes",
              "type": "tuple[]"
            },
            {
              "components": [
                {
                  "internalType": "uint256",
                  "name": "shipId",
                  "type": "uint256"
                },
                {
                  "components": [
                    {
                      "internalType": "int16",
                      "name": "row",
                      "type": "int16"
                    },
                    {
                      "internalType": "int16",
                      "name": "col",
                      "type": "int16"
                    }
                  ],
                  "internalType": "struct Position",
                  "name": "position",
                  "type": "tuple"
                },
                {
                  "internalType": "bool",
                  "name": "isCreator",
                  "type": "bool"
                }
              ],
              "internalType": "struct ShipPosition[]",
              "name": "shipPositions",
              "type": "tuple[]"
            },
            {
              "internalType": "uint256[]",
              "name": "creatorActiveShipIds",
              "type": "uint256[]"
            },
            {
              "internalType": "uint256[]",
              "name": "joinerActiveShipIds",
              "type": "uint256[]"
            },
            {
              "internalType": "uint256[]",
              "name": "creatorMovedShipIds",
              "type": "uint256[]"
            },
            {
              "internalType": "uint256[]",
              "name": "joinerMovedShipIds",
              "type": "uint256[]"
            }
          ],
          "internalType": "struct GameDataView[]",
          "name": "",
          "type": "tuple[]"
        }
      ],
      "stateMutability": "view",
      "type": "function"
    },
    {
      "inputs": [
        {
          "internalType": "uint256[]",
          "name": "_gameIds",
          "type": "uint256[]"
        }
      ],
      "name": "getGamesFromIds",
      "outputs": [
        {
          "components": [
            {
              "components": [
                {
                  "internalType": "uint256",
                  "name": "gameId",
                  "type": "uint256"
                },
                {
                  "internalType": "uint256",
                  "name": "lobbyId",
                  "type": "uint256"
                },
                {
                  "internalType": "address",
                  "name": "creator",
                  "type": "address"
                },
                {
                  "internalType": "address",
                  "name": "joiner",
                  "type": "address"
                },
                {
                  "internalType": "uint256",
                  "name": "creatorFleetId",
                  "type": "uint256"
                },
                {
                  "internalType": "uint256",
                  "name": "joinerFleetId",
                  "type": "uint256"
                },
                {
                  "internalType": "bool",
                  "name": "creatorGoesFirst",
                  "type": "bool"
                },
                {
                  "internalType": "uint256",
                  "name": "startedAt",
                  "type": "uint256"
                },
                {
                  "internalType": "address",
                  "name": "winner",
                  "type": "address"
                }
              ],
              "internalType": "struct GameMetadata",
              "name": "metadata",
              "type": "tuple"
            },
            {
              "components": [
                {
                  "internalType": "address",
                  "name": "currentTurn",
                  "type": "address"
                },
                {
                  "internalType": "uint256",
                  "name": "turnTime",
                  "type": "uint256"
                },
                {
                  "internalType": "uint256",
                  "name": "turnStartTime",
                  "type": "uint256"
                },
                {
                  "internalType": "uint256",
                  "name": "currentRound",
                  "type": "uint256"
                }
              ],
              "internalType": "struct GameTurnState",
              "name": "turnState",
              "type": "tuple"
            },
            {
              "components": [
                {
                  "internalType": "int16",
                  "name": "gridWidth",
                  "type": "int16"
                },
                {
                  "internalType": "int16",
                  "name": "gridHeight",
                  "type": "int16"
                }
              ],
              "internalType": "struct GameGridDimensions",
              "name": "gridDimensions",
              "type": "tuple"
            },
            {
              "internalType": "uint256",
              "name": "maxScore",
              "type": "uint256"
            },
            {
              "internalType": "uint256",
              "name": "creatorScore",
              "type": "uint256"
            },
            {
              "internalType": "uint256",
              "name": "joinerScore",
              "type": "uint256"
            },
            {
              "components": [
                {
                  "internalType": "uint256",
                  "name": "shipId",
                  "type": "uint256"
                },
                {
                  "internalType": "int16",
                  "name": "oldRow",
                  "type": "int16"
                },
                {
                  "internalType": "int16",
                  "name": "oldCol",
                  "type": "int16"
                },
                {
                  "internalType": "int16",
                  "name": "newRow",
                  "type": "int16"
                },
                {
                  "internalType": "int16",
                  "name": "newCol",
                  "type": "int16"
                },
                {
                  "internalType": "enum ActionType",
                  "name": "actionType",
                  "type": "uint8"
                },
                {
                  "internalType": "uint256",
                  "name": "targetShipId",
                  "type": "uint256"
                },
                {
                  "internalType": "uint256",
                  "name": "timestamp",
                  "type": "uint256"
                }
              ],
              "internalType": "struct LastMove",
              "name": "lastMove",
              "type": "tuple"
            },
            {
              "internalType": "uint256[]",
              "name": "shipIds",
              "type": "uint256[]"
            },
            {
              "components": [
                {
                  "internalType": "uint16",
                  "name": "version",
                  "type": "uint16"
                },
                {
                  "internalType": "uint8",
                  "name": "range",
                  "type": "uint8"
                },
                {
                  "internalType": "uint8",
                  "name": "gunDamage",
                  "type": "uint8"
                },
                {
                  "internalType": "uint8",
                  "name": "hullPoints",
                  "type": "uint8"
                },
                {
                  "internalType": "uint8",
                  "name": "maxHullPoints",
                  "type": "uint8"
                },
                {
                  "internalType": "uint8",
                  "name": "movement",
                  "type": "uint8"
                },
                {
                  "internalType": "uint8",
                  "name": "damageReduction",
                  "type": "uint8"
                },
                {
                  "internalType": "uint8",
                  "name": "reactorCriticalTimer",
                  "type": "uint8"
                },
                {
                  "internalType": "uint8[]",
                  "name": "statusEffects",
                  "type": "uint8[]"
                }
              ],
              "internalType": "struct Attributes[]",
              "name": "shipAttributes",
              "type": "tuple[]"
            },
            {
              "components": [
                {
                  "internalType": "uint256",
                  "name": "shipId",
                  "type": "uint256"
                },
                {
                  "components": [
                    {
                      "internalType": "int16",
                      "name": "row",
                      "type": "int16"
                    },
                    {
                      "internalType": "int16",
                      "name": "col",
                      "type": "int16"
                    }
                  ],
                  "internalType": "struct Position",
                  "name": "position",
                  "type": "tuple"
                },
                {
                  "internalType": "bool",
                  "name": "isCreator",
                  "type": "bool"
                }
              ],
              "internalType": "struct ShipPosition[]",
              "name": "shipPositions",
              "type": "tuple[]"
            },
            {
              "internalType": "uint256[]",
              "name": "creatorActiveShipIds",
              "type": "uint256[]"
            },
            {
              "internalType": "uint256[]",
              "name": "joinerActiveShipIds",
              "type": "uint256[]"
            },
            {
              "internalType": "uint256[]",
              "name": "creatorMovedShipIds",
              "type": "uint256[]"
            },
            {
              "internalType": "uint256[]",
              "name": "joinerMovedShipIds",
              "type": "uint256[]"
            }
          ],
          "internalType": "struct GameDataView[]",
          "name": "",
          "type": "tuple[]"
        }
      ],
      "stateMutability": "view",
      "type": "function"
    },
    {
      "inputs": [
        {
          "internalType": "address",
          "name": "_player",
          "type": "address"
        }
      ],
      "name": "getPlayerGameIds",
      "outputs": [
        {
          "internalType": "uint256[]",
          "name": "",
          "type": "uint256[]"
        }
      ],
      "stateMutability": "view",
      "type": "function"
    },
    {
      "inputs": [
        {
          "internalType": "uint256",
          "name": "_gameId",
          "type": "uint256"
        },
        {
          "internalType": "uint256",
          "name": "_shipId",
          "type": "uint256"
        }
      ],
      "name": "getShipAttributes",
      "outputs": [
        {
          "components": [
            {
              "internalType": "uint16",
              "name": "version",
              "type": "uint16"
            },
            {
              "internalType": "uint8",
              "name": "range",
              "type": "uint8"
            },
            {
              "internalType": "uint8",
              "name": "gunDamage",
              "type": "uint8"
            },
            {
              "internalType": "uint8",
              "name": "hullPoints",
              "type": "uint8"
            },
            {
              "internalType": "uint8",
              "name": "maxHullPoints",
              "type": "uint8"
            },
            {
              "internalType": "uint8",
              "name": "movement",
              "type": "uint8"
            },
            {
              "internalType": "uint8",
              "name": "damageReduction",
              "type": "uint8"
            },
            {
              "internalType": "uint8",
              "name": "reactorCriticalTimer",
              "type": "uint8"
            },
            {
              "internalType": "uint8[]",
              "name": "statusEffects",
              "type": "uint8[]"
            }
          ],
          "internalType": "struct Attributes",
          "name": "",
          "type": "tuple"
        }
      ],
      "stateMutability": "view",
      "type": "function"
    },
    {
      "inputs": [
        {
          "internalType": "uint256",
          "name": "target",
          "type": "uint256"
        }
      ],
      "name": "lastDamage",
      "outputs": [
        {
          "internalType": "uint256",
          "name": "lastDamager",
          "type": "uint256"
        }
      ],
      "stateMutability": "view",
      "type": "function"
    },
    {
      "inputs": [],
      "name": "lobbiesAddress",
      "outputs": [
        {
          "internalType": "address",
          "name": "",
          "type": "address"
        }
      ],
      "stateMutability": "view",
      "type": "function"
    },
    {
      "inputs": [],
      "name": "maps",
      "outputs": [
        {
          "internalType": "contract IMaps",
          "name": "",
          "type": "address"
        }
      ],
      "stateMutability": "view",
      "type": "function"
    },
    {
      "inputs": [
        {
          "internalType": "uint256",
          "name": "_gameId",
          "type": "uint256"
        },
        {
          "internalType": "uint256",
          "name": "_shipId",
          "type": "uint256"
        },
        {
          "internalType": "int16",
          "name": "_newRow",
          "type": "int16"
        },
        {
          "internalType": "int16",
          "name": "_newCol",
          "type": "int16"
        },
        {
          "internalType": "enum ActionType",
          "name": "actionType",
          "type": "uint8"
        },
        {
          "internalType": "uint256",
          "name": "targetShipId",
          "type": "uint256"
        }
      ],
      "name": "moveShip",
      "outputs": [],
      "stateMutability": "nonpayable",
      "type": "function"
    },
    {
      "inputs": [],
      "name": "owner",
      "outputs": [
        {
          "internalType": "address",
          "name": "",
          "type": "address"
        }
      ],
      "stateMutability": "view",
      "type": "function"
    },
    {
      "inputs": [
        {
          "internalType": "address",
          "name": "",
          "type": "address"
        },
        {
          "internalType": "uint256",
          "name": "",
          "type": "uint256"
        }
      ],
      "name": "playerGames",
      "outputs": [
        {
          "internalType": "uint256",
          "name": "",
          "type": "uint256"
        }
      ],
      "stateMutability": "view",
      "type": "function"
    },
    {
      "inputs": [],
      "name": "renounceOwnership",
      "outputs": [],
      "stateMutability": "nonpayable",
      "type": "function"
    },
    {
      "inputs": [
        {
          "internalType": "address",
          "name": "_mapsAddress",
          "type": "address"
        },
        {
          "internalType": "address",
          "name": "_lobbiesAddress",
          "type": "address"
        },
        {
          "internalType": "address",
          "name": "_fleetsAddress",
          "type": "address"
        },
        {
          "internalType": "address",
          "name": "_gameResultsAddress",
          "type": "address"
        },
        {
          "internalType": "address",
          "name": "_shipAttributesAddress",
          "type": "address"
        }
      ],
      "name": "setAddresses",
      "outputs": [],
      "stateMutability": "nonpayable",
      "type": "function"
    },
    {
      "inputs": [],
      "name": "shipAttributes",
      "outputs": [
        {
          "internalType": "contract IShipAttributes",
          "name": "",
          "type": "address"
        }
      ],
      "stateMutability": "view",
      "type": "function"
    },
    {
      "inputs": [],
      "name": "ships",
      "outputs": [
        {
          "internalType": "contract IShips",
          "name": "",
          "type": "address"
        }
      ],
      "stateMutability": "view",
      "type": "function"
    },
    {
      "inputs": [
        {
          "internalType": "uint256",
          "name": "_lobbyId",
          "type": "uint256"
        },
        {
          "internalType": "address",
          "name": "_creator",
          "type": "address"
        },
        {
          "internalType": "address",
          "name": "_joiner",
          "type": "address"
        },
        {
          "internalType": "uint256",
          "name": "_creatorFleetId",
          "type": "uint256"
        },
        {
          "internalType": "uint256",
          "name": "_joinerFleetId",
          "type": "uint256"
        },
        {
          "internalType": "bool",
          "name": "_creatorGoesFirst",
          "type": "bool"
        },
        {
          "internalType": "uint256",
          "name": "_turnTime",
          "type": "uint256"
        },
        {
          "internalType": "uint256",
          "name": "_selectedMapId",
          "type": "uint256"
        },
        {
          "internalType": "uint256",
          "name": "_maxScore",
          "type": "uint256"
        }
      ],
      "name": "startGame",
      "outputs": [],
      "stateMutability": "nonpayable",
      "type": "function"
    },
    {
      "inputs": [
        {
          "internalType": "address",
          "name": "newOwner",
          "type": "address"
        }
      ],
      "name": "transferOwnership",
      "outputs": [],
      "stateMutability": "nonpayable",
      "type": "function"
    }
  ],
  "bytecode": "0x608060405234801561001057600080fd5b506040516160ab3803806160ab83398101604081905261002f916100fc565b338061005557604051631e4fbdf760e01b81526000600482015260240160405180910390fd5b61005e81610090565b50600180546001600160a01b039384166001600160a01b0319918216179091556003805492909316911617905561012f565b600080546001600160a01b038381166001600160a01b0319831681178455604051919092169283917f8be0079c531659141344cd1fd0a4f28419497f9722a3daafe3b4186f6b6457e09190a35050565b80516001600160a01b03811681146100f757600080fd5b919050565b6000806040838503121561010f57600080fd5b610118836100e0565b9150610126602084016100e0565b90509250929050565b615f6d8061013e6000396000f3fe608060405234801561001057600080fd5b50600436106102065760003560e01c80636eb0f9d21161011a578063a2f77bcc116100ad578063e88f1c3e1161007c578063e88f1c3e14610493578063e8d64aee146104a6578063ecd1406d146104b9578063edf59b3c146104cc578063f2fde38b146104df57600080fd5b8063a2f77bcc1461043a578063bbf8218a1461045a578063beaa8fa41461046d578063ce720bca1461048057600080fd5b806384cb37ea116100e957806384cb37ea146103e35780638da5cb5b146103f657806390de1d9b146104075780639c91fe671461042757600080fd5b80636eb0f9d2146103a2578063715018a6146103b55780637b2fe23b146103bd5780637c767cb9146103d057600080fd5b80633e7d96881161019d5780634bf11ad21161016c5780634bf11ad21461034b5780634d1975b41461035357806355cebda81461035c578063566adcd01461036f5780635dd68acd1461038f57600080fd5b80633e7d9688146102e557806341f5f5e914610305578063423bb46f1461031857806348915d911461033857600080fd5b80631b8c9e90116101d95780631b8c9e9014610279578063235e78eb1461028c578063336d7d7b146102a75780633deaec2b146102d257600080fd5b80630a5694c21461020b5780630aa1b26614610231578063100017cb1461025157806318d7261d14610266575b600080fd5b61021e610219366004614bf4565b6104f2565b6040519081526020015b60405180910390f35b61024461023f366004614c20565b610523565b604051610228919061509a565b61026461025f3660046150ff565b610542565b005b6102646102743660046150ff565b610558565b610264610287366004615121565b61058b565b610294601181565b60405160019190910b8152602001610228565b6005546102ba906001600160a01b031681565b6040516001600160a01b039091168152602001610228565b6004546102ba906001600160a01b031681565b6102f86102f3366004615121565b610687565b604051610228919061513a565b6003546102ba906001600160a01b031681565b61032b6103263660046150ff565b6106aa565b6040516102289190615172565b6002546102ba906001600160a01b031681565b610294600b81565b61021e60085481565b61026461036a3660046150ff565b6107fb565b61038261037d366004615121565b61096f565b6040516102289190615185565b61026461039d366004615198565b610b45565b6102446103b036600461536e565b610bac565b610264610c5f565b6102f86103cb366004614c20565b610c73565b6102646103de3660046153b1565b610cdf565b6102646103f1366004615121565b610d81565b6000546001600160a01b03166102ba565b61021e610415366004615121565b600a6020526000908152604090205481565b6102646104353660046153fb565b610e79565b61044d610448366004615121565b610eb5565b6040516102289190615441565b6001546102ba906001600160a01b031681565b61026461047b366004615454565b61161f565b6006546102ba906001600160a01b031681565b6102646104a1366004615121565b611d8c565b6102646104b43660046154cd565b611da0565b6102646104c7366004615562565b612048565b6102646104da3660046150ff565b61208b565b6102646104ed366004614c20565b6120ae565b6009602052816000526040600020818154811061050e57600080fd5b90600052602060002001600091509150505481565b6060600061053083610c73565b905061053b81610bac565b9392505050565b61054a6120ee565b610554828261211b565b5050565b6105606120ee565b60008281526007602052604090206105788383612127565b6105858160180183612162565b50505050565b6105948161216e565b61059d8161219c565b6105ba5760405163023e733b60e61b815260040160405180910390fd5b600081815260076020526040902060098101546001600160a01b031633036105f557604051631cc191eb60e31b815260040160405180910390fd5b60028101546001600160a01b0316331480159061061f575060038101546001600160a01b03163314155b1561063d5760405163218286cb60e11b815260040160405180910390fd5b600981015461065890839033906001600160a01b03166121c7565b60405182907f6a3ca207a2adb9eea136eff413ec2c22f745a146fe60eed5f593fbacb99347d390600090a25050565b60008181526007602052604090206060906106a490601a016122b1565b92915050565b6106b2614828565b6106bb8361216e565b600083815260076020908152604080832085845260150190915281208054909161ffff9091169003610700576040516303c113ad60e61b815260040160405180910390fd5b6040805161012081018252825461ffff8116825260ff620100008204811660208085019190915263010000008304821684860152600160201b830482166060850152600160281b830482166080850152600160301b8304821660a0850152600160381b8304821660c0850152600160401b9092041660e0830152600184018054845181840281018401909552808552929385936101008601939192918301828280156107e957602002820191906000526020600020906000905b825461010083900a900460ff168152602060019283018181049485019490930390920291018084116107ba5790505b50505050508152505091505092915050565b600082815260076020908152604080832084845260158101909252808320600354915163e197c62760e01b8152600481018690529293909290916001600160a01b03169063e197c62790602401600060405180830381865afa158015610865573d6000803e3d6000fd5b505050506040513d6000823e601f3d908101601f1916820160405261088d9190810190615624565b8051835460208084015160408501516060860151608087015160a088015160c089015160ff908116600160381b0267ff0000000000000019928216600160301b0266ff00000000000019948316600160281b029490941666ffff000000000019958316600160201b0264ff00000000199784166301000000029790971664ffff0000001993909816620100000262ffffff19909a1661ffff909b169a909a17989098171694909417929092171694909417939093179290921617845561010082015180519293506109679260018601929190910190614876565b505050505050565b606061097a8261216e565b600082815260076020526040812090805b600b600182900b1215610a035760005b6011600182900b12156109fa57600182810b600090815260168601602090815260408083209385900b8352929052205480158015906109de57506109de81612348565b156109f157836109ed81615734565b9450505b5060010161099b565b5060010161098b565b506000816001600160401b03811115610a1e57610a1e615209565b604051908082528060200260200182016040528015610a5757816020015b610a4461491c565b815260200190600190039081610a3c5790505b5090506000805b600b600182900b1215610b3a5760005b6011600182900b1215610b3157600182810b600090815260168801602090815260408083209385900b835292905220548015801590610ab15750610ab181612348565b15610b28576000610ac28a836123bd565b9050604051806060016040528083815260200160405180604001604052808760010b81526020018660010b8152508152602001821515815250868681518110610b0d57610b0d61574d565b60200260200101819052508480610b2390615734565b955050505b50600101610a6e565b50600101610a5e565b509095945050505050565b610b4d6120ee565b600480546001600160a01b03199081166001600160a01b03978816179091556005805482169587169590951790945560028054851693861693909317909255600680548416918516919091179055600380549092169216919091179055565b6060600082516001600160401b03811115610bc957610bc9615209565b604051908082528060200260200182016040528015610c0257816020015b610bef61495e565b815260200190600190039081610be75790505b50905060005b8351811015610c5857610c33848281518110610c2657610c2661574d565b6020026020010151610eb5565b828281518110610c4557610c4561574d565b6020908102919091010152600101610c08565b5092915050565b610c676120ee565b610c7160006123f9565b565b6001600160a01b038116600090815260096020908152604091829020805483518184028101840190945280845260609392830182828015610cd357602002820191906000526020600020905b815481526020019060010190808311610cbf575b50505050509050919050565b610ce76120ee565b6000938452600760209081526040808620858752601781018084528288208054600181810b8b526016909401808752858b206201000092839004860b8c528752858b208b90558551808701875298850b808a529790940b8887018181528a8c5293875297518254935161ffff90811690920263ffffffff199094169116179190911790559286529181528185209285529190915290912055565b600081815260076020526040902060088101546001600160a01b031615610dbb576040516321e08b4d60e21b815260040160405180910390fd5b60028101546001600160a01b03163314801590610de5575060038101546001600160a01b03163314155b15610e035760405163218286cb60e11b815260040160405180910390fd5b60028101546000906001600160a01b03163314610e2d5760028201546001600160a01b0316610e3c565b60038201546001600160a01b03165b9050610e498382336121c7565b60405183907f6a3ca207a2adb9eea136eff413ec2c22f745a146fe60eed5f593fbacb99347d390600090a2505050565b60005b8151811015610eb057610ea883838381518110610e9b57610e9b61574d565b60200260200101516107fb565b600101610e7c565b505050565b610ebd61495e565b610ec68261216e565b600082815260076020908152604080832060028101546001600160a01b039081168552601c8201909352818420600382015490931684529083209092610f0b836122b1565b90506000610f18836122b1565b9050600081518351610f2a9190615763565b90506000816001600160401b03811115610f4657610f46615209565b604051908082528060200260200182016040528015610f7f57816020015b610f6c614828565b815260200190600190039081610f645790505b5090506000826001600160401b03811115610f9c57610f9c615209565b604051908082528060200260200182016040528015610fc5578160200160208202803683370190505b50905060005b855181101561115057886015016000878381518110610fec57610fec61574d565b6020908102919091018101518252818101929092526040908101600020815161012081018352815461ffff8116825260ff62010000820481168387015263010000008204811683860152600160201b820481166060840152600160281b820481166080840152600160301b8204811660a0840152600160381b8204811660c0840152600160401b9091041660e0820152600182018054845181870281018701909552808552919492936101008601939092908301828280156110eb57602002820191906000526020600020906000905b825461010083900a900460ff168152602060019283018181049485019490930390920291018084116110bc5790505b5050505050815250508382815181106111065761110661574d565b60200260200101819052508581815181106111235761112361574d565b602002602001015182828151811061113d5761113d61574d565b6020908102919091010152600101610fcb565b5060005b84518110156112f1578860150160008683815181106111755761117561574d565b6020908102919091018101518252818101929092526040908101600020815161012081018352815461ffff8116825260ff62010000820481168387015263010000008204811683860152600160201b820481166060840152600160281b820481166080840152600160301b8204811660a0840152600160381b8204811660c0840152600160401b9091041660e08201526001820180548451818702810187019095528085529194929361010086019390929083018282801561127457602002820191906000526020600020906000905b825461010083900a900460ff168152602060019283018181049485019490930390920291018084116112455790505b5050505050815250508382885161128b9190615763565b8151811061129b5761129b61574d565b60200260200101819052508481815181106112b8576112b861574d565b6020026020010151828288516112ce9190615763565b815181106112de576112de61574d565b6020908102919091010152600101611154565b5060006112fd8b61096f565b60028a015490915060009061131c908d906001600160a01b0316612449565b60038b015490915060009061133b908e906001600160a01b0316612449565b9050604051806101c001604052808c6000016040518061012001604052908160008201548152602001600182015481526020016002820160009054906101000a90046001600160a01b03166001600160a01b03166001600160a01b031681526020016003820160009054906101000a90046001600160a01b03166001600160a01b03166001600160a01b0316815260200160048201548152602001600582015481526020016006820160009054906101000a900460ff16151515158152602001600782015481526020016008820160009054906101000a90046001600160a01b03166001600160a01b03166001600160a01b03168152505081526020018c6009016040518060800160405290816000820160009054906101000a90046001600160a01b03166001600160a01b03166001600160a01b03168152602001600182015481526020016002820154815260200160038201548152505081526020018c600d016040518060400160405290816000820160009054906101000a900460010b60010b60010b81526020016000820160029054906101000a900460010b60010b60010b8152505081526020018c600e015481526020018c600f015481526020018c6010015481526020018c60110160405180610100016040529081600082015481526020016001820160009054906101000a900460010b60010b60010b81526020016001820160029054906101000a900460010b60010b60010b81526020016001820160049054906101000a900460010b60010b60010b81526020016001820160069054906101000a900460010b60010b60010b81526020016001820160089054906101000a900460ff1660058111156115b7576115b7614cbd565b60058111156115c8576115c8614cbd565b8152602001600282015481526020016003820154815250508152602001858152602001868152602001848152602001898152602001888152602001838152602001828152509b505050505050505050505050919050565b6116288661216e565b600086815260076020526040902060088101546001600160a01b031615611662576040516321e08b4d60e21b815260040160405180910390fd5b60098101546001600160a01b0316331461168f57604051631cc191eb60e31b815260040160405180910390fd5b600061169a87612576565b60a08101519091506001600160a01b031633146116ca57604051630b18e5d760e21b815260040160405180910390fd5b6000878152601583016020526040902060028560058111156116ee576116ee614cbd565b1415801561170557508054600160201b900460ff16155b15611723576040516398586ca160e01b815260040160405180910390fd5b60025460048481015460405162b5e41160e51b815291820152602481018a90526001600160a01b03909116906316bc822090604401602060405180830381865afa158015611775573d6000803e3d6000fd5b505050506040513d601f19601f820116820180604052508101906117999190615781565b1580156118215750600254600584015460405162b5e41160e51b81526001600160a01b03909216916316bc8220916117de918c90600401918252602082015260400190565b602060405180830381865afa1580156117fb573d6000803e3d6000fd5b505050506040513d601f19601f8201168201806040525081019061181f9190615781565b155b1561183f576040516303c113ad60e61b815260040160405180910390fd5b600285600581111561185357611853614cbd565b141580156118695750611869836018018961263f565b1561188757604051637d64fb5d60e01b815260040160405180910390fd5b600088815260178401602052604090208054600181810b91620100009004900b60028860058111156118bb576118bb614cbd565b14611b2b57825460009060018c810b91900b1480156118e75750835460018b810b62010000909204900b145b905080611a05576040805180820182528554600181810b835262010000909104810b60208084019190915283518085019094528e820b8452908d900b908301526000916119349190612657565b60008e815260158a016020526040902080549192509060ff600160301b90910481169083161115611978576040516321e08b4d60e21b815260040160405180910390fd5b600b60018e900b1215806119915750601160018d900b12155b156119af5760405163673f032f60e11b815260040160405180910390fd5b8860160160008e60010b60010b815260200190815260200160002060008d60010b60010b815260200190815260200160002054600014611a0257604051638243205760e01b815260040160405180910390fd5b50505b80611b1b5760008760160160008660000160009054906101000a900460010b60010b60010b815260200190815260200160002060008660000160029054906101000a900460010b60010b60010b8152602001908152602001600020819055508b8760160160008d60010b60010b815260200190815260200160002060008c60010b60010b81526020019081526020016000208190555060405180604001604052808c60010b81526020018b60010b8152508760170160008e815260200190815260200160002060008201518160000160006101000a81548161ffff021916908360010b61ffff16021790555060208201518160000160026101000a81548161ffff021916908360010b61ffff1602179055509050505b611b28876018018d6126eb565b50505b611b3a868d8d8d8d8d8d6126f7565b611b438c612836565b15611b5657611b518c61288e565b611b5f565b611b5f8c612c3e565b42600b87015560408051610100810182528c8152600184810b602083015283900b918101919091526060810160028a6005811115611b9f57611b9f614cbd565b14611baa578b611bae565b6000195b60010b815260200160028a6005811115611bca57611bca614cbd565b14611bd5578a611bd9565b6000195b60010b8152602001896005811115611bf357611bf3614cbd565b815260208082018a905242604092830152825160118a019081559083015160128a018054938501516060860151608087015161ffff908116600160301b0267ffff00000000000019928216600160201b029290921667ffffffff0000000019938216620100000263ffffffff1990981691909516179590951716919091179290921780835560a084015191929060ff60401b1916600160401b836005811115611c9e57611c9e614cbd565b021790555060c0820151816002015560e082015181600301559050508b7f8616d884e76378dabf68f6048a294fb93ec62a579068ada00ef52b7b88511c528c848460026005811115611cf257611cf2614cbd565b8d6005811115611d0457611d04614cbd565b14611d0f578e611d13565b6000195b60028e6005811115611d2757611d27614cbd565b14611d32578e611d36565b6000195b8e8e604051611d4b979695949392919061579e565b60405180910390a26040518c907f6a3ca207a2adb9eea136eff413ec2c22f745a146fe60eed5f593fbacb99347d390600090a2505050505050505050505050565b611d946120ee565b611d9d81612d58565b50565b6005546001600160a01b03163314611dcb57604051638671306560e01b815260040160405180910390fd5b60088054906000611ddb83615734565b90915550506008546000818152600760208190526040909120918255600182018b90556002820180546001600160a01b03808d166001600160a01b031992831617909255600384018054928c1692909116919091179055600482018890556005820187905560068201805487151560ff19909116179055429082015584611e625787611e64565b885b6009820180546001600160a01b0319166001600160a01b0392909216919091179055600a810184905542600b8201556001600c820155600d8101805463ffffffff1916620b0011179055600e81018290558215611f205760048054600854604051636a5257fd60e11b815292830152602482018590526001600160a01b03169063d4a4affa90604401600060405180830381600087803b158015611f0757600080fd5b505af1158015611f1b573d6000803e3d6000fd5b505050505b611f2d6008548888612e5b565b611f3a600854888861302e565b600854600090815260076020908152604080832060038101546001600160a01b03168452601c8101909252909120611f71906131ef565b60028201546001600160a01b03166000908152601c830160205260409020611f98906131ef565b611fa29190615763565b601d8201556000601e82018190556001600160a01b038b8116808352600960209081526040808520600880548254600180820185559389528589200155948f16808752828720865481549384018255908852968490209091019590955592548351928352908201939093528d92917f9f0b80476ce7b05cfe8b0800d21f0b0f2704c8eb948fa5d5e87997ec901f96d1910160405180910390a35050505050505050505050565b6120506120ee565b6000928352600760209081526040808520938552601590930190529120805460ff909216600160401b0260ff60401b19909216919091179055565b6120936120ee565b600082815260076020526040902061058560188201836126eb565b6120b66120ee565b6001600160a01b0381166120e557604051631e4fbdf760e01b8152600060048201526024015b60405180910390fd5b611d9d816123f9565b6000546001600160a01b03163314610c715760405163118cdaa760e01b81523360048201526024016120dc565b610554828260006131f9565b6000828152600760208181526040808420858552601581018352908420805464ff00000000191690559285905252610eb090601a01826126eb565b600061053b8383613598565b6000818152600760205260408120549003611d9d576040516309b3c62760e21b815260040160405180910390fd5b6000818152600760205260408120600a810154600b8201546121be9190615763565b42119392505050565b60008381526007602052604090206008810180546001600160a01b0319166001600160a01b0385811691909117909155600654161561226f5760065460405163d6c6eb9f60e01b8152600481018690526001600160a01b03858116602483015284811660448301529091169063d6c6eb9f90606401600060405180830381600087803b15801561225657600080fd5b505af115801561226a573d6000803e3d6000fd5b505050505b600281015460048201546122909186916001600160a01b039091169061368b565b600381015460058201546105859186916001600160a01b039091169061368b565b606060006122be836131ef565b90506000816001600160401b038111156122da576122da615209565b604051908082528060200260200182016040528015612303578160200160208202803683370190505b50905060005b828110156123405761231b8582613748565b82828151811061232d5761232d61574d565b6020908102919091010152600101612309565b509392505050565b600154604051639596010160e01b8152600481018390526000916001600160a01b031690639596010190602401602060405180830381865afa158015612392573d6000803e3d6000fd5b505050506040513d601f19601f820116820180604052508101906123b69190615781565b1592915050565b600082815260076020908152604080832060028101546001600160a01b03168452601c810190925282206123f1908461263f565b949350505050565b600080546001600160a01b038381166001600160a01b0319831681178455604051919092169283917f8be0079c531659141344cd1fd0a4f28419497f9722a3daafe3b4186f6b6457e09190a35050565b60008281526007602090815260408083206001600160a01b0385168452601c810190925282206060928061247c836131ef565b905060005b818110156124c05760006124958583613748565b90506124a4866018018261263f565b156124b757836124b381615734565b9450505b50600101612481565b506000826001600160401b038111156124db576124db615209565b604051908082528060200260200182016040528015612504578160200160208202803683370190505b5090506000805b8381101561256857600061251f8783613748565b905061252e886018018261263f565b1561255f57808484815181106125465761254661574d565b60209081029190910101528261255b81615734565b9350505b5060010161250b565b509098975050505050505050565b61257e614a8b565b600154604051634025b22d60e01b8152600481018490526000916001600160a01b031690634025b22d90602401600060405180830381865afa1580156125c8573d6000803e3d6000fd5b505050506040513d6000823e601f3d908101601f191682016040526125f09190810190615a56565b90508060200151600003612617576040516303c113ad60e61b815260040160405180910390fd5b60808101516101000151156106a4576040516398586ca160e01b815260040160405180910390fd5b6000818152600183016020526040812054151561053b565b600080826000015160010b846000015160010b13612682578351835161267d9190615b87565b612690565b825184516126909190615b87565b90506000836020015160010b856020015160010b136126c257846020015184602001516126bd9190615b87565b6126d6565b836020015185602001516126d69190615b87565b90506126e28183615baa565b95945050505050565b600061053b8383613754565b600154604051634025b22d60e01b8152600481018790526000916001600160a01b031690634025b22d90602401600060405180830381865afa158015612741573d6000803e3d6000fd5b505050506040513d6000823e601f3d908101601f191682016040526127699190810190615a56565b9050600083600581111561277f5761277f614cbd565b1461282c57600183600581111561279857612798614cbd565b036127b1576127ac888888888887876137a3565b61282c565b60028360058111156127c5576127c5614cbd565b036127d4576127ac8787613a91565b60038360058111156127e8576127e8614cbd565b03612806576040516321e08b4d60e21b815260040160405180910390fd5b600483600581111561281a5761281a614cbd565b0361282c5761282c8787878786613a9d565b5050505050505050565b600081815260076020526040812081612851601883016131ef565b9050600061286183601a016131ef565b905082601d015483601e015482846128799190615763565b6128839190615763565b101595945050505050565b60008181526007602052604080822060048054925163d0bc9bbb60e01b81529081018590529092916001600160a01b03169063d0bc9bbb90602401600060405180830381865afa1580156128e6573d6000803e3d6000fd5b505050506040513d6000823e601f3d908101601f1916820160405261290e9190810190615c5d565b8051909250905060005b81811015612b025760008382815181106129345761293461574d565b6020908102919091018101518051600190810b600090815260168901845260408082208486015190930b82529190935282205490925090819003612979575050612afa565b6000818152601587016020526040812054600160201b900460ff1690036129a1575050612afa565b6004805483516020850151604051630349370d60e41b81529384018b9052600191820b6024850152900b60448301526000916001600160a01b039091169063349370d0906064016020604051808303816000875af1158015612a07573d6000803e3d6000fd5b505050506040513d601f19601f82011682018060405250810190612a2b9190615d7e565b90508060ff16600003612a4057505050612afa565b612a4a88836123bd565b15612aa9578060ff1687600f016000828254612a669190615763565b9091555050600e870154600f88015410612aa45760028701546003880154612a9c918a916001600160a01b0391821691166121c7565b505050612b02565b612af6565b8060ff16876010016000828254612ac09190615763565b9091555050600e870154601088015410612af65760038701546002880154612a9c918a916001600160a01b0391821691166121c7565b5050505b600101612918565b50600c83018054906000612b1583615734565b9190505550612b2683601801613ba4565b6000601e840181905560038401546001600160a01b03168152601c840160205260409020612b53906131ef565b60028401546001600160a01b03166000908152601c850160205260409020612b7a906131ef565b612b849190615763565b601d840155612b9284612d58565b600683015460009060ff16612bb45760038401546001600160a01b0316612bc3565b60028401546001600160a01b03165b600685015490915060009060ff16612be85760028501546001600160a01b0316612bf7565b60038501546001600160a01b03165b90508460090160030154600116600114612c115780612c13565b815b60099590950180546001600160a01b0319166001600160a01b03909616959095179094555050505050565b6000818152600760205260409020600281015460098201546001600160a01b03918216911603612ce0576003810154600090612c849084906001600160a01b0316613bad565b6002830154909150600090612ca39085906001600160a01b0316613c41565b90508180612caf575080155b156105855760038301546009840180546001600160a01b0319166001600160a01b0390921691909117905550505050565b6002810154600090612cfc9084906001600160a01b0316613bad565b6003830154909150600090612d1b9085906001600160a01b0316613c41565b90508180612d27575080155b156105855760028301546009840180546001600160a01b0319166001600160a01b0390921691909117905550505050565b600081815260076020526040812090612d73601a83016131ef565b905060005b81811015610585576000612d8f84601a0183613748565b9050612d9a81612348565b8015612dbe57506000818152601585016020526040902054600160201b900460ff16155b15612e4857600081815260158501602052604090208054600160401b900460ff16906008612deb83615d9b565b82546101009290920a60ff81810219909316918316021790915560008381526015870160205260409020546003600160401b909104909116109050612e4857612e34858261211b565b612e4084601a016131ef565b925050612d78565b81612e5281615734565b92505050612d78565b60008381526007602052604080822060025491516348eef38560e11b8152600481018690529092916001600160a01b0316906391dde70a90602401600060405180830381865afa158015612eb3573d6000803e3d6000fd5b505050506040513d6000823e601f3d908101601f19168201604052612edb9190810190615dba565b50905060005b8151811015612f4d5760028301546001600160a01b03166000908152601c8401602052604090208251612f2e9190849084908110612f2157612f2161574d565b60200260200101516126eb565b50612f4586838381518110610e9b57610e9b61574d565b600101612ee1565b506002546040516348eef38560e11b8152600481018590526000916001600160a01b0316906391dde70a90602401600060405180830381865afa158015612f98573d6000803e3d6000fd5b505050506040513d6000823e601f3d908101601f19168201604052612fc09190810190615dba565b50905060005b81518110156130255760038401546001600160a01b03166000908152601c85016020526040902082516130069190849084908110612f2157612f2161574d565b5061301d87838381518110610e9b57610e9b61574d565b600101612fc6565b50505050505050565b6002546040516348eef38560e11b81526004810184905260009182916001600160a01b03909116906391dde70a90602401600060405180830381865afa15801561307c573d6000803e3d6000fd5b505050506040513d6000823e601f3d908101601f191682016040526130a49190810190615dba565b9150915060005b825181101561310e5760008382815181106130c8576130c861574d565b6020026020010151905060008383815181106130e6576130e661574d565b60200260200101519050613104888383600001518460200151613cb2565b50506001016130ab565b506002546040516348eef38560e11b81526004810185905260009182916001600160a01b03909116906391dde70a90602401600060405180830381865afa15801561315d573d6000803e3d6000fd5b505050506040513d6000823e601f3d908101601f191682016040526131859190810190615dba565b9150915060005b825181101561282c5760008382815181106131a9576131a961574d565b6020026020010151905060008383815181106131c7576131c761574d565b602002602001015190506131e58a8383600001518460200151613cb2565b505060010161318c565b60006106a4825490565b6132028361216e565b60008381526007602052604081209061321a84612576565b60025460048481015460405162b5e41160e51b815291820152602481018790529192506000916001600160a01b03909116906316bc822090604401602060405180830381865afa158015613272573d6000803e3d6000fd5b505050506040513d601f19601f820116820180604052508101906132969190615781565b600254600585015460405162b5e41160e51b81529293506000926001600160a01b03909216916316bc8220916132d9918a90600401918252602082015260400190565b602060405180830381865afa1580156132f6573d6000803e3d6000fd5b505050506040513d601f19601f8201168201806040525081019061331a9190615781565b905081158015613328575080155b15613346576040516303c113ad60e61b815260040160405180910390fd5b608083015161010001511561336e576040516398586ca160e01b815260040160405180910390fd5b600086815260178501602090815260408083208054600181810b865260168a01855283862062010000909204900b85529092528220919091556133b46018860188612162565b506133c285601a0188612162565b50601e850180549060006133d583615734565b9190505550821561344d576002546004868101546040516327ffe52160e01b815291820152602481018990526001600160a01b03909116906327ffe52190604401600060405180830381600087803b15801561343057600080fd5b505af1158015613444573d6000803e3d6000fd5b505050506134be565b60025460058601546040516327ffe52160e01b81526001600160a01b03909216916327ffe5219161348b918b90600401918252602082015260400190565b600060405180830381600087803b1580156134a557600080fd5b505af11580156134b9573d6000803e3d6000fd5b505050505b60008781526015860160205260408120805468ffffffffffffffffff19168155906134ec6001830182614ba9565b505060008781526017860160205260409020805463ffffffff1916905585613585576001546000888152600a6020526040908190205490516311a960cd60e01b8152600481018a905260248101919091526001600160a01b03909116906311a960cd90604401600060405180830381600087803b15801561356c57600080fd5b505af1158015613580573d6000803e3d6000fd5b505050505b61358f8888613da2565b61282c88613e00565b600081815260018301602052604081205480156136815760006135bc600183615e72565b85549091506000906135d090600190615e72565b90508082146136355760008660000182815481106135f0576135f061574d565b90600052602060002001549050808760000184815481106136135761361361574d565b6000918252602080832090910192909255918252600188019052604090208390555b855486908061364657613646615e85565b6001900381819060005260206000200160009055905585600101600086815260200190815260200160002060009055600193505050506106a4565b60009150506106a4565b60008381526007602090815260408083206001600160a01b0386168452601c8101909252822090916136bc826131ef565b905060005b818110156130255760006136d58483613748565b6002546040516327ffe52160e01b815260048101899052602481018390529192506001600160a01b0316906327ffe52190604401600060405180830381600087803b15801561372357600080fd5b505af1158015613737573d6000803e3d6000fd5b5050600190930192506136c1915050565b600061053b8383613e8c565b600081815260018301602052604081205461379b575081546001818101845560008481526020808220909301849055845484825282860190935260409020919091556106a4565b5060006106a4565b60006137ae83612576565b90508160a001516001600160a01b03168160a001516001600160a01b0316036137ea576040516321e08b4d60e21b815260040160405180910390fd5b604080518082018252600187810b825286810b602080840191909152600087815260178d0182528481208551808701909652805480850b875262010000900490930b918501919091529192909190613843908490612657565b60008a815260158d016020526040902080549192509060ff6201000090910481169083161115613886576040516321e08b4d60e21b815260040160405180910390fd5b60018260ff1611801561392b5750600480548454604051638383c99560e01b81529283018e905260018c810b60248501528b810b604485015281810b606485015262010000909104900b60848301526001600160a01b031690638383c9959060a401602060405180830381865afa158015613905573d6000803e3d6000fd5b505050506040513d601f19601f820116820180604052508101906139299190615781565b155b15613949576040516321e08b4d60e21b815260040160405180910390fd5b600087815260158d016020526040812080549091600160201b90910460ff1690036139d0578054600160401b900460ff1681600861398683615d9b565b91906101000a81548160ff021916908360ff1602179055505060038160000160089054906101000a900460ff1660ff16106139c5576139c58c8961211b565b505050505050613025565b8154815460ff6301000000909204821691600160381b90910416600060646139f88385615e9b565b613a029190615eb8565b613a0f9060ff8516615eea565b8454909150600160201b900460ff1661ffff821610613a4857613a328f8c612127565b60008b8152600a602052604090208e9055613a7f565b835481908590600490613a66908490600160201b900460ff16615f04565b92506101000a81548160ff021916908360ff1602179055505b50505050505050505050505050505050565b610554828260016131f9565b600154604051634025b22d60e01b8152600481018690526000916001600160a01b031690634025b22d90602401600060405180830381865afa158015613ae7573d6000803e3d6000fd5b505050506040513d6000823e601f3d908101601f19168201604052613b0f9190810190615a56565b905060008160400151606001516007811115613b2d57613b2d614cbd565b03613b4b576040516321e08b4d60e21b815260040160405180910390fd5b613b53614a8b565b60038260400151606001516007811115613b6f57613b6f614cbd565b14613b8057613b7d83612576565b90505b613b8e878686868686613eb6565b6130258787878787876040015160600151613fc8565b611d9d81614039565b60008281526007602090815260408083206001600160a01b0385168452601c8101909252822082613bdd826131ef565b905060005b81811015613c34576000613bf68483613748565b9050613c02888261409b565b8015613c185750613c16856018018261263f565b155b15613c2b576001955050505050506106a4565b50600101613be2565b5060009695505050505050565b60008281526007602090815260408083206001600160a01b0385168452601c8101909252822082613c71826131ef565b905060005b81811015613c34576000613c8a8483613748565b9050613c96888261409b565b15613ca9576001955050505050506106a4565b50600101613c76565b6000848152600760205260409020600b600184900b121580613cd957506011600183900b12155b15613cf75760405163673f032f60e11b815260040160405180910390fd5b600183810b600090815260168301602090815260408083209386900b8352929052205415613d3857604051638243205760e01b815260040160405180910390fd5b600192830b600081815260168301602090815260408083209590960b8083529481528582208790558551808701875292835282810194855295815260179092019094529190912091518254915161ffff908116620100000263ffffffff1990931691161717905550565b600082815260076020908152604080832060028101546001600160a01b03168452601c8101909252909120613dd79083612162565b5060038101546001600160a01b03166000908152601c8201602052604090206105859083612162565b60008181526007602052604090206002810154613e279083906001600160a01b0316614173565b613e4d57600381015460028201546105549184916001600160a01b0391821691166121c7565b6003810154613e669083906001600160a01b0316614173565b61055457600281015460038201546105549184916001600160a01b0391821691166121c7565b6000826000018281548110613ea357613ea361574d565b9060005260206000200154905092915050565b6040820151606001516002816007811115613ed357613ed3614cbd565b03613f17578260a001516001600160a01b03168260a001516001600160a01b031614613f12576040516321e08b4d60e21b815260040160405180910390fd5b613fa2565b6001816007811115613f2b57613f2b614cbd565b03613f6a578260a001516001600160a01b03168260a001516001600160a01b031603613f12576040516321e08b4d60e21b815260040160405180910390fd5b6003816007811115613f7e57613f7e614cbd565b03613f895750610967565b6040516321e08b4d60e21b815260040160405180910390fd5b6003816007811115613fb657613fb6614cbd565b146130255761302587878787856141e4565b6002816007811115613fdc57613fdc614cbd565b03613ff057613feb86836142f7565b610967565b600181600781111561400457614004614cbd565b0361401457613feb86868461441b565b600381600781111561402857614028614cbd565b03613f8957613feb8686868661451e565b6000614043825490565b905060005b818110156140935782600101600084600001838154811061406b5761406b61574d565b9060005260206000200154815260200190815260200160002060009055806001019050614048565b505060009055565b6000828152600760205260408082206001549151634025b22d60e01b815260048101859052909183916001600160a01b0390911690634025b22d90602401600060405180830381865afa1580156140f6573d6000803e3d6000fd5b505050506040513d6000823e601f3d908101601f1916820160405261411e9190810190615a56565b90508060800151610100015160001461413c576000925050506106a4565b6000848152601583016020526040812054600160201b900460ff169003614168576000925050506106a4565b506001949350505050565b60008281526007602090815260408083206001600160a01b0385168452601c81019092528220826141a3826131ef565b905060005b81811015613c345760006141bc8483613748565b90506141c8888261409b565b156141db576001955050505050506106a4565b506001016141a8565b60008581526007602090815260408083208584526017810183528184208251808401845260018a810b825289900b948101949094526003549251636759d30960e11b8152919490939290916001600160a01b039091169063ceb3a6129061424f908890600401615f1d565b602060405180830381865afa15801561426c573d6000803e3d6000fd5b505050506040513d601f19601f820116820180604052508101906142909190615d7e565b604080518082019091528454600181810b835262010000909104900b60208201529091506000906142c2908490612657565b90508160ff168160ff1611156142eb576040516321e08b4d60e21b815260040160405180910390fd5b50505050505050505050565b6000828152600760209081526040808320848452601581019092528083206003549151633387d11760e11b81529293909290916001600160a01b03169063670fa22e9061434990600290600401615f1d565b602060405180830381865afa158015614366573d6000803e3d6000fd5b505050506040513d601f19601f8201168201806040525081019061438a9190615d7e565b82549091506000906143a7908390600160201b900460ff16615baa565b835490915060ff600160281b909104811690821611156143e5578254600160201b60ff600160281b8304160264ff00000000199091161783556143fd565b825464ff000000001916600160201b60ff8316021783555b8254600160201b900460ff16156109675761302584601a0186612162565b6000838152600760209081526040808320848452601581019092528083206003549151633387d11760e11b81529293909290916001600160a01b03169063670fa22e9061446d90600190600401615f1d565b602060405180830381865afa15801561448a573d6000803e3d6000fd5b505050506040513d601f19601f820116820180604052508101906144ae9190615d7e565b6000858152600a602052604090208690558254909150819083906008906144e0908490600160401b900460ff16615baa565b92506101000a81548160ff021916908360ff16021790555060038260000160089054906101000a900460ff1660ff161061096757610967868561211b565b600084815260076020526040808220600380549251636759d30960e11b81529193926001600160a01b03169163ceb3a6129161455c91600401615f1d565b602060405180830381865afa158015614579573d6000803e3d6000fd5b505050506040513d601f19601f8201168201806040525081019061459d9190615d7e565b60038054604051633387d11760e11b81529293506000926001600160a01b039091169163670fa22e916145d39190600401615f1d565b602060405180830381865afa1580156145f0573d6000803e3d6000fd5b505050506040513d601f19601f820116820180604052508101906146149190615d7e565b60028401546001600160a01b03166000908152601c85016020526040902090915061464a90889088908890889087908790614679565b60038301546001600160a01b03166000908152601c840160205260409020613025908890889088908890879087905b600087815260076020526040812090614691836131ef565b60408051808201909152600189810b825288900b602082015290915060005b8281101561481b5760006146c48683613748565b6000818152601787016020908152604080832081518083019092528054600181810b845262010000909104900b9282019290925292935091614707908690612657565b90508960ff168160ff161115801561471f57508c8314155b15614810578c600a600085815260200190815260200160002081905550600087601501600085815260200190815260200160002060000160079054906101000a900460ff16905060648160ff168b60ff1661477a9190615e9b565b6147849190615eb8565b6147919060ff8c16615eea565b600085815260158a016020526040902054909a5060ff600160201b9091048116908b16106147c8576147c38f85612127565b61480e565b6000848152601589016020526040902080548b91906004906147f5908490600160201b900460ff16615f04565b92506101000a81548160ff021916908360ff1602179055505b505b5050506001016146b0565b5050505050505050505050565b604080516101208101825260008082526020820181905291810182905260608082018390526080820183905260a0820183905260c0820183905260e082019290925261010081019190915290565b82805482825590600052602060002090601f0160209004810192821561490c5791602002820160005b838211156148dd57835183826101000a81548160ff021916908360ff160217905550926020019260010160208160000104928301926001030261489f565b801561490a5782816101000a81549060ff02191690556001016020816000010492830192600103026148dd565b505b50614918929150614bca565b5090565b6040518060600160405280600081526020016149516040518060400160405280600060010b8152602001600060010b81525090565b8152600060209091015290565b604080516102e08101825260006101c082018181526101e08301829052610200830182905261022083018290526102408301829052610260830182905261028083018290526102a083018290526102c083018290528252825160808101845281815260208082018390528185018390526060820183905280840191909152835180850185528281529081019190915290918201908152602001600081526020016000815260200160008152602001614a54604080516101008101825260008082526020820181905291810182905260608101829052608081018290529060a0820190815260200160008152602001600081525090565b8152602001606081526020016060815260200160608152602001606081526020016060815260200160608152602001606081525090565b6040518060c001604052806060815260200160008152602001614acf6040805160808101909152806000815260200160008152602001600081526020016000905290565b8152602001614b506040805160c0808201835260008083528351610120810185528181526020818101839052948101829052606081018290526080810182905260a0810182905291820181905260e0820181905261010082015290918201908152600060208201819052604082018190526060820181905260809091015290565b8152604080516101208101825260008082526020828101829052928201819052606082018190526080820181905260a0820181905260c0820181905260e082018190526101008201529101908152600060209091015290565b50805460008255601f016020900490600052602060002090810190611d9d91905b5b808211156149185760008155600101614bcb565b6001600160a01b0381168114611d9d57600080fd5b60008060408385031215614c0757600080fd5b8235614c1281614bdf565b946020939093013593505050565b600060208284031215614c3257600080fd5b813561053b81614bdf565b805182526020810151602083015260018060a01b03604082015116604083015260018060a01b0360608201511660608301526080810151608083015260a081015160a083015260c0810151614c9660c084018215159052565b5060e081015160e0830152610100810151610eb06101008401826001600160a01b03169052565b634e487b7160e01b600052602160045260246000fd5b60068110614ce357614ce3614cbd565b9052565b80518252602081015160010b6020830152604081015160010b6040830152606081015160010b60608301526080810151614d26608084018260010b9052565b5060a0810151614d3960a0840182614cd3565b5060c0818101519083015260e090810151910152565b600081518084526020840193506020830160005b82811015614d81578151865260209586019590910190600101614d63565b5093949350505050565b600081518084526020840193506020830160005b82811015614d8157815160ff16865260209586019590910190600101614d9f565b805161ffff16825260006020820151614dde602085018260ff169052565b506040820151614df3604085018260ff169052565b506060820151614e08606085018260ff169052565b506080820151614e1d608085018260ff169052565b5060a0820151614e3260a085018260ff169052565b5060c0820151614e4760c085018260ff169052565b5060e0820151614e5c60e085018260ff169052565b506101008201516101206101008501526123f1610120850182614d8b565b600082825180855260208501945060208160051b8301016020850160005b83811015614eca57601f19858403018852614eb4838351614dc0565b6020988901989093509190910190600101614e98565b50909695505050505050565b600081518084526020840193506020830160005b82811015614d815781516000815188526020820151614f1f60208a0182805160010b8252602081015160010b60208301525050565b5050604001511515606087015260809095019460209190910190600101614eea565b614f4c828251614c3d565b60208181015180516001600160a01b0316610120850152808201516101408501526040808201516101608601526060918201516101808601528301518051600190810b6101a087015292015190910b6101c08401528101516101e0830152608081015161020083015260a081015161022083015260c0810151600090614fd6610240850182614ce7565b5060e0820151610420610340850152614ff3610420850182614d4f565b905061010083015184820361036086015261500e8282614e7a565b91505061012083015184820361038086015261502a8282614ed6565b9150506101408301518482036103a08601526150468282614d4f565b9150506101608301518482036103c08601526150628282614d4f565b9150506101808301518482036103e086015261507e8282614d4f565b9150506101a08301518482036104008601526126e28282614d4f565b6000602082016020835280845180835260408501915060408160051b86010192506020860160005b828110156150f357603f198786030184526150de858351614f41565b945060209384019391909101906001016150c2565b50929695505050505050565b6000806040838503121561511257600080fd5b50508035926020909101359150565b60006020828403121561513357600080fd5b5035919050565b602080825282518282018190526000918401906040840190835b81811015610b3a578351835260209384019390920191600101615154565b60208152600061053b6020830184614dc0565b60208152600061053b6020830184614ed6565b600080600080600060a086880312156151b057600080fd5b85356151bb81614bdf565b945060208601356151cb81614bdf565b935060408601356151db81614bdf565b925060608601356151eb81614bdf565b915060808601356151fb81614bdf565b809150509295509295909350565b634e487b7160e01b600052604160045260246000fd5b60405161012081016001600160401b038111828210171561524257615242615209565b60405290565b604051608081016001600160401b038111828210171561524257615242615209565b60405160c081016001600160401b038111828210171561524257615242615209565b604080519081016001600160401b038111828210171561524257615242615209565b604051601f8201601f191681016001600160401b03811182821017156152d6576152d6615209565b604052919050565b60006001600160401b038211156152f7576152f7615209565b5060051b60200190565b600082601f83011261531257600080fd5b8135615325615320826152de565b6152ae565b8082825260208201915060208360051b86010192508583111561534757600080fd5b602085015b8381101561536457803583526020928301920161534c565b5095945050505050565b60006020828403121561538057600080fd5b81356001600160401b0381111561539657600080fd5b6123f184828501615301565b8060010b8114611d9d57600080fd5b600080600080608085870312156153c757600080fd5b843593506020850135925060408501356153e0816153a2565b915060608501356153f0816153a2565b939692955090935050565b6000806040838503121561540e57600080fd5b8235915060208301356001600160401b0381111561542b57600080fd5b61543785828601615301565b9150509250929050565b60208152600061053b6020830184614f41565b60008060008060008060c0878903121561546d57600080fd5b86359550602087013594506040870135615486816153a2565b93506060870135615496816153a2565b92506080870135600681106154aa57600080fd5b9598949750929591949360a090920135925050565b8015158114611d9d57600080fd5b60008060008060008060008060006101208a8c0312156154ec57600080fd5b8935985060208a01356154fe81614bdf565b975060408a013561550e81614bdf565b965060608a0135955060808a0135945060a08a013561552c816154bf565b989b979a5095989497939693955050505060c08201359160e0810135916101009091013590565b60ff81168114611d9d57600080fd5b60008060006060848603121561557757600080fd5b8335925060208401359150604084013561559081615553565b809150509250925092565b805161ffff811681146155ad57600080fd5b919050565b80516155ad81615553565b600082601f8301126155ce57600080fd5b81516155dc615320826152de565b8082825260208201915060208360051b8601019250858311156155fe57600080fd5b602085015b8381101561536457805161561681615553565b835260209283019201615603565b60006020828403121561563657600080fd5b81516001600160401b0381111561564c57600080fd5b8201610120818503121561565f57600080fd5b61566761521f565b6156708261559b565b815261567e602083016155b2565b602082015261568f604083016155b2565b60408201526156a0606083016155b2565b60608201526156b1608083016155b2565b60808201526156c260a083016155b2565b60a08201526156d360c083016155b2565b60c08201526156e460e083016155b2565b60e08201526101008201516001600160401b0381111561570357600080fd5b61570f868285016155bd565b61010083015250949350505050565b634e487b7160e01b600052601160045260246000fd5b6000600182016157465761574661571e565b5060010190565b634e487b7160e01b600052603260045260246000fd5b808201808211156106a4576106a461571e565b80516155ad816154bf565b60006020828403121561579357600080fd5b815161053b816154bf565b878152600187810b602083015286810b604083015285810b606083015284900b608082015260e081016157d460a0830185614cd3565b8260c083015298975050505050505050565b60088110611d9d57600080fd5b60006080828403121561580557600080fd5b61580d615248565b9050815161581a816157e6565b8152602082015161582a816157e6565b6020820152604082015161583d816157e6565b60408201526060820151615850816157e6565b606082015292915050565b60008183036101c081121561586f57600080fd5b61587761526a565b835181529150610120601f198201121561589057600080fd5b5061589961521f565b6158a56020840161559b565b81526158b3604084016155b2565b60208201526158c4606084016155b2565b60408201526158d56080840161559b565b60608201526158e660a084016155b2565b60808201526158f760c084016155b2565b60a082015261590860e0840161559b565b60c082015261591a61010084016155b2565b60e082015261592c61012084016155b2565b6101008201526020820152615944610140830161559b565b604082015261595661016083016155b2565b606082015261596861018083016155b2565b608082015261597a6101a083016155b2565b60a082015292915050565b805163ffffffff811681146155ad57600080fd5b600061012082840312156159ac57600080fd5b6159b461521f565b90506159bf82615985565b81526159cd6020830161559b565b60208201526159de6040830161559b565b60408201526159ef6060830161559b565b6060820152615a0060808301615776565b6080820152615a1160a08301615776565b60a0820152615a2260c08301615776565b60c0820152615a3360e08301615776565b60e08201526101009182015191810191909152919050565b80516155ad81614bdf565b600060208284031215615a6857600080fd5b81516001600160401b03811115615a7e57600080fd5b82016103c08185031215615a9157600080fd5b615a9961526a565b81516001600160401b03811115615aaf57600080fd5b8201601f81018613615ac057600080fd5b80516001600160401b03811115615ad957615ad9615209565b615aec601f8201601f19166020016152ae565b818152876020838501011115615b0157600080fd5b60005b82811015615b2057602081850181015183830182015201615b04565b50600060209282018301528352838101519083015250615b4385604084016157f3565b6040820152615b558560c0840161585b565b6060820152615b68856102808401615999565b6080820152615b7a6103a08301615a4b565b60a0820152949350505050565b600182810b9082900b03617fff198112617fff821317156106a4576106a461571e565b60ff81811683821601908111156106a4576106a461571e565b600082601f830112615bd457600080fd5b8151615be2615320826152de565b8082825260208201915060208360061b860101925085831115615c0457600080fd5b602085015b838110156153645760408188031215615c2157600080fd5b615c2961528c565b8151615c34816153a2565b81526020820151615c44816153a2565b6020828101919091529084529290920191604001615c09565b60008060408385031215615c7057600080fd5b82516001600160401b03811115615c8657600080fd5b615c9285828601615bc3565b92505060208301516001600160401b03811115615cae57600080fd5b8301601f81018513615cbf57600080fd5b8051615ccd615320826152de565b8082825260208201915060208360071b850101925087831115615cef57600080fd5b6020840193505b82841015615d705760808489031215615d0e57600080fd5b615d16615248565b8451615d21816153a2565b81526020850151615d31816153a2565b60208201526040850151615d4481615553565b60408201526060850151615d57816154bf565b6060820152825260809390930192602090910190615cf6565b809450505050509250929050565b600060208284031215615d9057600080fd5b815161053b81615553565b600060ff821660ff8103615db157615db161571e565b60010192915050565b60008060408385031215615dcd57600080fd5b82516001600160401b03811115615de357600080fd5b8301601f81018513615df457600080fd5b8051615e02615320826152de565b8082825260208201915060208360051b850101925087831115615e2457600080fd5b6020840193505b82841015615e46578351825260209384019390910190615e2b565b8095505050505060208301516001600160401b03811115615e6657600080fd5b61543785828601615bc3565b818103818111156106a4576106a461571e565b634e487b7160e01b600052603160045260246000fd5b61ffff8181168382160290811690818114610c5857610c5861571e565b600061ffff831680615eda57634e487b7160e01b600052601260045260246000fd5b8061ffff84160491505092915050565b61ffff82811682821603908111156106a4576106a461571e565b60ff82811682821603908111156106a4576106a461571e565b6020810160088310615f3157615f31614cbd565b9190529056fea2646970667358221220a45b200162800623135bf7e903529c47cc5d6d7a10641ad8988e01c979c4a8ef64736f6c634300081c0033",
  "linkReferences": {},
  "deployedLinkReferences": {}
}