{
  "_format": "hh-sol-artifact-1",
  "contractName": "Fleets",
  "sourceName": "contracts/Fleets.sol",
  "abi": [
    {
      "inputs": [
        {
          "internalType": "address",
          "name": "_ships",
          "type": "address"
        }
      ],
      "stateMutability": "nonpayable",
      "type": "constructor"
    },
    {
      "inputs": [],
      "name": "ArrayLengthMismatch",
      "type": "error"
    },
    {
      "inputs": [],
      "name": "DuplicatePosition",
      "type": "error"
    },
    {
      "inputs": [],
      "name": "FleetNotFound",
      "type": "error"
    },
    {
      "inputs": [],
      "name": "InvalidFleetCost",
      "type": "error"
    },
    {
      "inputs": [],
      "name": "InvalidPosition",
      "type": "error"
    },
    {
      "inputs": [],
      "name": "NotLobbiesContract",
      "type": "error"
    },
    {
      "inputs": [
        {
          "internalType": "address",
          "name": "owner",
          "type": "address"
        }
      ],
      "name": "OwnableInvalidOwner",
      "type": "error"
    },
    {
      "inputs": [
        {
          "internalType": "address",
          "name": "account",
          "type": "address"
        }
      ],
      "name": "OwnableUnauthorizedAccount",
      "type": "error"
    },
    {
      "inputs": [],
      "name": "ShipAlreadyInFleet",
      "type": "error"
    },
    {
      "inputs": [],
      "name": "ShipCostVersionMismatch",
      "type": "error"
    },
    {
      "inputs": [],
      "name": "ShipNotFound",
      "type": "error"
    },
    {
      "inputs": [],
      "name": "ShipNotOwned",
      "type": "error"
    },
    {
      "anonymous": false,
      "inputs": [
        {
          "indexed": true,
          "internalType": "uint256",
          "name": "fleetId",
          "type": "uint256"
        }
      ],
      "name": "FleetCleared",
      "type": "event"
    },
    {
      "anonymous": false,
      "inputs": [
        {
          "indexed": true,
          "internalType": "uint256",
          "name": "fleetId",
          "type": "uint256"
        },
        {
          "indexed": true,
          "internalType": "uint256",
          "name": "lobbyId",
          "type": "uint256"
        },
        {
          "indexed": true,
          "internalType": "address",
          "name": "owner",
          "type": "address"
        }
      ],
      "name": "FleetCreated",
      "type": "event"
    },
    {
      "anonymous": false,
      "inputs": [
        {
          "indexed": true,
          "internalType": "address",
          "name": "previousOwner",
          "type": "address"
        },
        {
          "indexed": true,
          "internalType": "address",
          "name": "newOwner",
          "type": "address"
        }
      ],
      "name": "OwnershipTransferred",
      "type": "event"
    },
    {
      "inputs": [
        {
          "internalType": "uint256",
          "name": "_fleetId",
          "type": "uint256"
        }
      ],
      "name": "clearFleet",
      "outputs": [],
      "stateMutability": "nonpayable",
      "type": "function"
    },
    {
      "inputs": [
        {
          "internalType": "uint256",
          "name": "_lobbyId",
          "type": "uint256"
        },
        {
          "internalType": "address",
          "name": "_owner",
          "type": "address"
        },
        {
          "internalType": "uint256[]",
          "name": "_shipIds",
          "type": "uint256[]"
        },
        {
          "components": [
            {
              "internalType": "int16",
              "name": "row",
              "type": "int16"
            },
            {
              "internalType": "int16",
              "name": "col",
              "type": "int16"
            }
          ],
          "internalType": "struct Position[]",
          "name": "_startingPositions",
          "type": "tuple[]"
        },
        {
          "internalType": "uint256",
          "name": "_costLimit",
          "type": "uint256"
        },
        {
          "internalType": "bool",
          "name": "_isCreator",
          "type": "bool"
        }
      ],
      "name": "createFleet",
      "outputs": [
        {
          "internalType": "uint256",
          "name": "",
          "type": "uint256"
        }
      ],
      "stateMutability": "nonpayable",
      "type": "function"
    },
    {
      "inputs": [],
      "name": "fleetCount",
      "outputs": [
        {
          "internalType": "uint256",
          "name": "",
          "type": "uint256"
        }
      ],
      "stateMutability": "view",
      "type": "function"
    },
    {
      "inputs": [
        {
          "internalType": "uint256",
          "name": "",
          "type": "uint256"
        }
      ],
      "name": "fleets",
      "outputs": [
        {
          "internalType": "uint256",
          "name": "id",
          "type": "uint256"
        },
        {
          "internalType": "uint256",
          "name": "lobbyId",
          "type": "uint256"
        },
        {
          "internalType": "address",
          "name": "owner",
          "type": "address"
        },
        {
          "internalType": "uint256",
          "name": "totalCost",
          "type": "uint256"
        },
        {
          "internalType": "bool",
          "name": "isComplete",
          "type": "bool"
        }
      ],
      "stateMutability": "view",
      "type": "function"
    },
    {
      "inputs": [],
      "name": "gameAddress",
      "outputs": [
        {
          "internalType": "address",
          "name": "",
          "type": "address"
        }
      ],
      "stateMutability": "view",
      "type": "function"
    },
    {
      "inputs": [
        {
          "internalType": "uint256",
          "name": "_fleetId",
          "type": "uint256"
        }
      ],
      "name": "getFleet",
      "outputs": [
        {
          "components": [
            {
              "internalType": "uint256",
              "name": "id",
              "type": "uint256"
            },
            {
              "internalType": "uint256",
              "name": "lobbyId",
              "type": "uint256"
            },
            {
              "internalType": "address",
              "name": "owner",
              "type": "address"
            },
            {
              "internalType": "uint256[]",
              "name": "shipIds",
              "type": "uint256[]"
            },
            {
              "components": [
                {
                  "internalType": "int16",
                  "name": "row",
                  "type": "int16"
                },
                {
                  "internalType": "int16",
                  "name": "col",
                  "type": "int16"
                }
              ],
              "internalType": "struct Position[]",
              "name": "startingPositions",
              "type": "tuple[]"
            },
            {
              "internalType": "uint256",
              "name": "totalCost",
              "type": "uint256"
            },
            {
              "internalType": "bool",
              "name": "isComplete",
              "type": "bool"
            }
          ],
          "internalType": "struct Fleet",
          "name": "",
          "type": "tuple"
        }
      ],
      "stateMutability": "view",
      "type": "function"
    },
    {
      "inputs": [
        {
          "internalType": "uint256",
          "name": "_fleetId",
          "type": "uint256"
        }
      ],
      "name": "getFleetShipIdsAndPositions",
      "outputs": [
        {
          "internalType": "uint256[]",
          "name": "shipIds",
          "type": "uint256[]"
        },
        {
          "components": [
            {
              "internalType": "int16",
              "name": "row",
              "type": "int16"
            },
            {
              "internalType": "int16",
              "name": "col",
              "type": "int16"
            }
          ],
          "internalType": "struct Position[]",
          "name": "startingPositions",
          "type": "tuple[]"
        }
      ],
      "stateMutability": "view",
      "type": "function"
    },
    {
      "inputs": [
        {
          "internalType": "uint256",
          "name": "_fleetId",
          "type": "uint256"
        },
        {
          "internalType": "uint256",
          "name": "_shipId",
          "type": "uint256"
        }
      ],
      "name": "isShipInFleet",
      "outputs": [
        {
          "internalType": "bool",
          "name": "",
          "type": "bool"
        }
      ],
      "stateMutability": "view",
      "type": "function"
    },
    {
      "inputs": [],
      "name": "lobbiesAddress",
      "outputs": [
        {
          "internalType": "address",
          "name": "",
          "type": "address"
        }
      ],
      "stateMutability": "view",
      "type": "function"
    },
    {
      "inputs": [],
      "name": "owner",
      "outputs": [
        {
          "internalType": "address",
          "name": "",
          "type": "address"
        }
      ],
      "stateMutability": "view",
      "type": "function"
    },
    {
      "inputs": [
        {
          "internalType": "uint256",
          "name": "_fleetId",
          "type": "uint256"
        },
        {
          "internalType": "uint256",
          "name": "_shipId",
          "type": "uint256"
        }
      ],
      "name": "removeShipFromFleet",
      "outputs": [],
      "stateMutability": "nonpayable",
      "type": "function"
    },
    {
      "inputs": [],
      "name": "renounceOwnership",
      "outputs": [],
      "stateMutability": "nonpayable",
      "type": "function"
    },
    {
      "inputs": [
        {
          "internalType": "address",
          "name": "_gameAddress",
          "type": "address"
        }
      ],
      "name": "setGameAddress",
      "outputs": [],
      "stateMutability": "nonpayable",
      "type": "function"
    },
    {
      "inputs": [
        {
          "internalType": "address",
          "name": "_lobbiesAddress",
          "type": "address"
        }
      ],
      "name": "setLobbiesAddress",
      "outputs": [],
      "stateMutability": "nonpayable",
      "type": "function"
    },
    {
      "inputs": [],
      "name": "ships",
      "outputs": [
        {
          "internalType": "contract Ships",
          "name": "",
          "type": "address"
        }
      ],
      "stateMutability": "view",
      "type": "function"
    },
    {
      "inputs": [
        {
          "internalType": "address",
          "name": "newOwner",
          "type": "address"
        }
      ],
      "name": "transferOwnership",
      "outputs": [],
      "stateMutability": "nonpayable",
      "type": "function"
    }
  ],
  "bytecode": "0x608060405234801561001057600080fd5b50604051611d38380380611d3883398101604081905261002f916100d4565b338061005557604051631e4fbdf760e01b81526000600482015260240160405180910390fd5b61005e81610084565b50600180546001600160a01b0319166001600160a01b0392909216919091179055610104565b600080546001600160a01b038381166001600160a01b0319831681178455604051919092169283917f8be0079c531659141344cd1fd0a4f28419497f9722a3daafe3b4186f6b6457e09190a35050565b6000602082840312156100e657600080fd5b81516001600160a01b03811681146100fd57600080fd5b9392505050565b611c25806101136000396000f3fe608060405234801561001057600080fd5b50600436106101005760003560e01c806391dde70a11610097578063eab56f7e11610066578063eab56f7e1461028c578063f2bf13b01461029f578063f2fde38b146102b2578063f9740c75146102c557600080fd5b806391dde70a146101c3578063a168d873146101e4578063b8b4b173146101f7578063bbf8218a1461027957600080fd5b80634f245eda116100d35780634f245eda1461018e578063711953ef14610197578063715018a6146101aa5780638da5cb5b146101b257600080fd5b806316bc82201461010557806318fb5fa41461012d57806327ffe5211461014e578063336d7d7b14610163575b600080fd5b6101186101133660046112c9565b6102e5565b60405190151581526020015b60405180910390f35b61014061013b36600461136a565b610483565b604051908152602001610124565b61016161015c3660046112c9565b610a5a565b005b600254610176906001600160a01b031681565b6040516001600160a01b039091168152602001610124565b61014060055481565b6101616101a5366004611449565b610cc6565b610161610cf0565b6000546001600160a01b0316610176565b6101d66101d136600461146d565b610d04565b604051610124929190611486565b600354610176906001600160a01b031681565b61024161020536600461146d565b60046020526000908152604090208054600182015460028301546005840154600690940154929391926001600160a01b03909116919060ff1685565b6040805195865260208601949094526001600160a01b039092169284019290925260608301919091521515608082015260a001610124565b600154610176906001600160a01b031681565b61016161029a366004611449565b610e67565b6101616102ad36600461146d565b610e91565b6101616102c0366004611449565b610fd8565b6102d86102d336600461146d565b61101b565b6040516101249190611564565b600082815260046020526040812054810361031357604051631524e51160e01b815260040160405180910390fd5b6000838152600460209081526040808320815160e0810183528154815260018201548185015260028201546001600160a01b03168184015260038201805484518187028101870190955280855291949293606086019390929083018282801561039b57602002820191906000526020600020905b815481526020019060010190808311610387575b5050505050815260200160048201805480602002602001604051908101604052809291908181526020016000905b8282101561040b5760008481526020908190206040805180820190915290840154600181810b835262010000909104810b8284015290835290920191016103c9565b505050908252506005820154602082015260069091015460ff161515604090910152905060005b81606001515181101561047657838260600151828151811061045657610456611620565b60200260200101510361046e5760019250505061047d565b600101610432565b5060009150505b92915050565b6002546000906001600160a01b031633146104b157604051638671306560e01b815260040160405180910390fd5b8584146104d15760405163512509d360e11b815260040160405180910390fd5b60005b848110156105cd5760008686838181106104f0576104f0611620565b90506040020180360381019061050691906116d8565b9050831561054e576000816020015160010b128061052b57506004816020015160010b135b156105495760405163673f032f60e11b815260040160405180910390fd5b610589565b6014816020015160010b128061056b57506018816020015160010b135b156105895760405163673f032f60e11b815260040160405180910390fd5b6000816000015160010b12806105a65750600c816000015160010b135b156105c45760405163673f032f60e11b815260040160405180910390fd5b506001016104d4565b5060058054600091826105df8361174f565b90915550506005546000818152600460205260409020818155600181018c90556002810180546001600160a01b0319166001600160a01b038d1617905561062a600382018b8b611231565b5060005b87811015610682578160040189898381811061064c5761064c611620565b835460018101855560009485526020909420604090910292909201929190910190506106788282611768565b505060010161062e565b5060005b898110156108495760008b8b838181106106a2576106a2611620565b600154604051634025b22d60e01b815260209290920293909301356004820181905293506000926001600160a01b03169150634025b22d90602401600060405180830381865afa1580156106fa573d6000803e3d6000fd5b505050506040513d6000823e601f3d908101601f191682016040526107229190810190611a0f565b90508d6001600160a01b03168160a001516001600160a01b03161461075a57604051630b18e5d760e21b815260040160405180910390fd5b806080015160a00151156107805760405162f2f12360e21b815260040160405180910390fd5b600160009054906101000a90046001600160a01b03166001600160a01b0316633130f7ce6040518163ffffffff1660e01b8152600401602060405180830381865afa1580156107d3573d6000803e3d6000fd5b505050506040513d601f19601f820116820180604052508101906107f79190611b43565b61ffff1681608001516020015161ffff16146108265760405163524ca82960e11b815260040160405180910390fd5b60808101516040015161083d9061ffff1687611b5e565b95505050600101610686565b508583111561086b57604051639451e34760e01b815260040160405180910390fd5b6005810183905560068101805460ff1916600117905561088961127c565b60005b888110156109755760008a8a838181106108a8576108a8611620565b9050604002018036038101906108be91906116d8565b90506000816020015160010b826000015160010b60196108de9190611b71565b6108e89190611b5e565b905060006108f861010083611b9e565b9050600061090861010084611bb2565b90506001811b86836002811061092057610920611620565b602002015116156109445760405163e13355df60e01b815260040160405180910390fd5b6001811b86836002811061095a5761095a611620565b602002018051909117905250506001909201915061088c9050565b5060005b8a811015610a10576001546001600160a01b0316637eebe99d8d8d848181106109a4576109a4611620565b6040516001600160e01b031960e086901b1681526020909102929092013560048301525060016024820152604401600060405180830381600087803b1580156109ec57600080fd5b505af1158015610a00573d6000803e3d6000fd5b5050600190920191506109799050565b508b6001600160a01b03168d847fc230eb2bb5e08173bc7b7883549c1a71bce5365714bd5bf519f908239dbe801060405160405180910390a450909b9a5050505050505050505050565b6002546001600160a01b03163314801590610a8057506003546001600160a01b03163314155b15610a9e57604051638671306560e01b815260040160405180910390fd5b60008281526004602052604081208054909103610ace57604051631524e51160e01b815260040160405180910390fd5b60005b6003820154811015610cac5782826003018281548110610af357610af3611620565b906000526020600020015403610ca457805b6003830154610b1690600190611bc6565b811015610b705760038301610b2c826001611b5e565b81548110610b3c57610b3c611620565b9060005260206000200154836003018281548110610b5c57610b5c611620565b600091825260209091200155600101610b05565b5081600301805480610b8457610b84611bd9565b6000828152602081206000199083018101829055909101909155600154604051637eebe99d60e01b81526004810186905260248101929092526001600160a01b031690637eebe99d90604401600060405180830381600087803b158015610bea57600080fd5b505af1158015610bfe573d6000803e3d6000fd5b5050600154604051634025b22d60e01b815260048101879052600093506001600160a01b039091169150634025b22d90602401600060405180830381865afa158015610c4e573d6000803e3d6000fd5b505050506040513d6000823e601f3d908101601f19168201604052610c769190810190611a0f565b905080608001516040015161ffff16836005016000828254610c989190611bc6565b90915550505050505050565b600101610ad1565b506040516303c113ad60e61b815260040160405180910390fd5b610cce6111b4565b600380546001600160a01b0319166001600160a01b0392909216919091179055565b610cf86111b4565b610d0260006111e1565b565b60008181526004602052604081205460609182919003610d3757604051631524e51160e01b815260040160405180910390fd5b6000838152600460209081526040808320815160e0810183528154815260018201548185015260028201546001600160a01b031681840152600382018054845181870281018701909552808552919492936060860193909290830182828015610dbf57602002820191906000526020600020905b815481526020019060010190808311610dab575b5050505050815260200160048201805480602002602001604051908101604052809291908181526020016000905b82821015610e2f5760008481526020908190206040805180820190915290840154600181810b835262010000909104810b828401529083529092019101610ded565b505050908252506005820154602082015260069091015460ff1615156040909101526060810151608090910151909590945092505050565b610e6f6111b4565b600280546001600160a01b0319166001600160a01b0392909216919091179055565b6002546001600160a01b03163314610ebc57604051638671306560e01b815260040160405180910390fd5b60008181526004602052604081208054909103610eec57604051631524e51160e01b815260040160405180910390fd5b60005b6003820154811015610f9a576001546003830180546001600160a01b0390921691637eebe99d919084908110610f2757610f27611620565b906000526020600020015460006040518363ffffffff1660e01b8152600401610f5c9291909182521515602082015260400190565b600060405180830381600087803b158015610f7657600080fd5b505af1158015610f8a573d6000803e3d6000fd5b505060019092019150610eef9050565b50610fa960038201600061129a565b60405182907f9ff71619d0e9826e43962fb25978600608f9e12936460c6181abde88a4fdbcfc90600090a25050565b610fe06111b4565b6001600160a01b03811661100f57604051631e4fbdf760e01b8152600060048201526024015b60405180910390fd5b611018816111e1565b50565b6110666040518060e00160405280600081526020016000815260200160006001600160a01b031681526020016060815260200160608152602001600081526020016000151581525090565b600082815260046020526040812054900361109457604051631524e51160e01b815260040160405180910390fd5b600082815260046020908152604091829020825160e0810184528154815260018201548184015260028201546001600160a01b031681850152600382018054855181860281018601909652808652919492936060860193929083018282801561111c57602002820191906000526020600020905b815481526020019060010190808311611108575b5050505050815260200160048201805480602002602001604051908101604052809291908181526020016000905b8282101561118c5760008481526020908190206040805180820190915290840154600181810b835262010000909104810b82840152908352909201910161114a565b505050908252506005820154602082015260069091015460ff16151560409091015292915050565b6000546001600160a01b03163314610d025760405163118cdaa760e01b8152336004820152602401611006565b600080546001600160a01b038381166001600160a01b0319831681178455604051919092169283917f8be0079c531659141344cd1fd0a4f28419497f9722a3daafe3b4186f6b6457e09190a35050565b82805482825590600052602060002090810192821561126c579160200282015b8281111561126c578235825591602001919060010190611251565b506112789291506112b4565b5090565b60405180604001604052806002906020820280368337509192915050565b508054600082559060005260206000209081019061101891905b5b8082111561127857600081556001016112b5565b600080604083850312156112dc57600080fd5b50508035926020909101359150565b6001600160a01b038116811461101857600080fd5b60008083601f84011261131257600080fd5b50813567ffffffffffffffff81111561132a57600080fd5b6020830191508360208260061b850101111561134557600080fd5b9250929050565b801515811461101857600080fd5b80356113658161134c565b919050565b60008060008060008060008060c0898b03121561138657600080fd5b883597506020890135611398816112eb565b9650604089013567ffffffffffffffff8111156113b457600080fd5b8901601f81018b136113c557600080fd5b803567ffffffffffffffff8111156113dc57600080fd5b8b60208260051b84010111156113f157600080fd5b60209190910196509450606089013567ffffffffffffffff81111561141557600080fd5b6114218b828c01611300565b9095509350506080890135915061143a60a08a0161135a565b90509295985092959890939650565b60006020828403121561145b57600080fd5b8135611466816112eb565b9392505050565b60006020828403121561147f57600080fd5b5035919050565b6040808252835190820181905260009060208501906060840190835b818110156114c05783518352602093840193909201916001016114a2565b50508381036020808601919091528551808352918101925085019060005b8181101561150c5782518051600190810b8652602091820151810b82870152604090950194930192016114de565b50919695505050505050565b600081518084526020840193506020830160005b8281101561155a5781518051600190810b8852602091820151810b828901526040909701969201910161152c565b5093949350505050565b6020815260006101008201835160208401526020840151604084015260018060a01b036040850151166060840152606084015160e0608085015281815180845261012086019150602083019350600092505b808310156115d957835182526020820191506020840193506001830192506115b6565b506080860151858203601f190160a087015292506115f78184611518565b9250505060a084015160c084015260c084015161161860e085018215159052565b509392505050565b634e487b7160e01b600052603260045260246000fd5b634e487b7160e01b600052604160045260246000fd5b60405160c0810167ffffffffffffffff8111828210171561166f5761166f611636565b60405290565b60405160e0810167ffffffffffffffff8111828210171561166f5761166f611636565b604051601f8201601f1916810167ffffffffffffffff811182821017156116c1576116c1611636565b604052919050565b8060010b811461101857600080fd5b600060408284031280156116eb57600080fd5b506040805190810167ffffffffffffffff8111828210171561170f5761170f611636565b604052823561171d816116c9565b8152602083013561172d816116c9565b60208201529392505050565b634e487b7160e01b600052601160045260246000fd5b60006001820161176157611761611739565b5060010190565b8135611773816116c9565b815461ffff19811661ffff83161783556020840135611791816116c9565b8060101b63ffff00001661ffff841663ffffffff198416171784555050505050565b6004811061101857600080fd5b6000608082840312156117d257600080fd5b6040516080810167ffffffffffffffff811182821017156117f5576117f5611636565b80604052508091508251611808816117b3565b81526020830151611818816117b3565b6020820152604083015161182b816117b3565b6040820152606083015161183e816117b3565b6060919091015292915050565b805161ffff8116811461136557600080fd5b805160ff8116811461136557600080fd5b600081830361016081121561188257600080fd5b61188a61164c565b83518152915060c0601f19820112156118a257600080fd5b506118ab61164c565b6118b76020840161184b565b81526118c56040840161185d565b60208201526118d66060840161185d565b60408201526118e76080840161184b565b60608201526118f860a0840161185d565b608082015261190960c0840161185d565b60a0820152602082015261191f60e0830161185d565b6040820152611931610100830161185d565b6060820152611943610120830161185d565b6080820152611955610140830161185d565b60a082015292915050565b80516113658161134c565b600060e0828403121561197d57600080fd5b611985611675565b9050815163ffffffff8116811461199b57600080fd5b81526119a96020830161184b565b60208201526119ba6040830161184b565b60408201526119cb60608301611960565b60608201526119dc60808301611960565b60808201526119ed60a08301611960565b60a082015260c09182015191810191909152919050565b8051611365816112eb565b600060208284031215611a2157600080fd5b815167ffffffffffffffff811115611a3857600080fd5b82016103208185031215611a4b57600080fd5b611a5361164c565b815167ffffffffffffffff811115611a6a57600080fd5b8201601f81018613611a7b57600080fd5b805167ffffffffffffffff811115611a9557611a95611636565b611aa8601f8201601f1916602001611698565b818152876020838501011115611abd57600080fd5b60005b82811015611adc57602081850181015183830182015201611ac0565b50600060209282018301528352838101519083015250611aff85604084016117c0565b6040820152611b118560c0840161186e565b6060820152611b2485610220840161196b565b6080820152611b366103008301611a04565b60a0820152949350505050565b600060208284031215611b5557600080fd5b6114668261184b565b8082018082111561047d5761047d611739565b808202811582820484141761047d5761047d611739565b634e487b7160e01b600052601260045260246000fd5b600082611bad57611bad611b88565b500490565b600082611bc157611bc1611b88565b500690565b8181038181111561047d5761047d611739565b634e487b7160e01b600052603160045260246000fdfea264697066735822122098213d8ecec06bc1da0d8b6b3bec486b3ed824401772452cbadcd4b308869cdc64736f6c634300081c0033",
  "linkReferences": {},
  "deployedLinkReferences": {}
}