{
  "_format": "hh-sol-artifact-1",
  "contractName": "ShipAttributes",
  "sourceName": "contracts/ShipAttributes.sol",
  "abi": [
    {
      "inputs": [
        {
          "internalType": "address",
          "name": "_ships",
          "type": "address"
        }
      ],
      "stateMutability": "nonpayable",
      "type": "constructor"
    },
    {
      "inputs": [],
      "name": "InvalidAttributesVersion",
      "type": "error"
    },
    {
      "inputs": [],
      "name": "InvalidCostsVersion",
      "type": "error"
    },
    {
      "inputs": [
        {
          "internalType": "address",
          "name": "owner",
          "type": "address"
        }
      ],
      "name": "OwnableInvalidOwner",
      "type": "error"
    },
    {
      "inputs": [
        {
          "internalType": "address",
          "name": "account",
          "type": "address"
        }
      ],
      "name": "OwnableUnauthorizedAccount",
      "type": "error"
    },
    {
      "inputs": [],
      "name": "ShipNotFound",
      "type": "error"
    },
    {
      "anonymous": false,
      "inputs": [
        {
          "indexed": true,
          "internalType": "address",
          "name": "previousOwner",
          "type": "address"
        },
        {
          "indexed": true,
          "internalType": "address",
          "name": "newOwner",
          "type": "address"
        }
      ],
      "name": "OwnershipTransferred",
      "type": "event"
    },
    {
      "inputs": [
        {
          "internalType": "uint16",
          "name": "",
          "type": "uint16"
        }
      ],
      "name": "attributesVersions",
      "outputs": [
        {
          "internalType": "uint16",
          "name": "version",
          "type": "uint16"
        },
        {
          "internalType": "uint8",
          "name": "baseHull",
          "type": "uint8"
        },
        {
          "internalType": "uint8",
          "name": "baseSpeed",
          "type": "uint8"
        }
      ],
      "stateMutability": "view",
      "type": "function"
    },
    {
      "inputs": [
        {
          "components": [
            {
              "internalType": "string",
              "name": "name",
              "type": "string"
            },
            {
              "internalType": "uint256",
              "name": "id",
              "type": "uint256"
            },
            {
              "components": [
                {
                  "internalType": "enum MainWeapon",
                  "name": "mainWeapon",
                  "type": "uint8"
                },
                {
                  "internalType": "enum Armor",
                  "name": "armor",
                  "type": "uint8"
                },
                {
                  "internalType": "enum Shields",
                  "name": "shields",
                  "type": "uint8"
                },
                {
                  "internalType": "enum Special",
                  "name": "special",
                  "type": "uint8"
                }
              ],
              "internalType": "struct Equipment",
              "name": "equipment",
              "type": "tuple"
            },
            {
              "components": [
                {
                  "internalType": "uint256",
                  "name": "serialNumber",
                  "type": "uint256"
                },
                {
                  "components": [
                    {
                      "internalType": "uint16",
                      "name": "h1",
                      "type": "uint16"
                    },
                    {
                      "internalType": "uint8",
                      "name": "s1",
                      "type": "uint8"
                    },
                    {
                      "internalType": "uint8",
                      "name": "l1",
                      "type": "uint8"
                    },
                    {
                      "internalType": "uint16",
                      "name": "h2",
                      "type": "uint16"
                    },
                    {
                      "internalType": "uint8",
                      "name": "s2",
                      "type": "uint8"
                    },
                    {
                      "internalType": "uint8",
                      "name": "l2",
                      "type": "uint8"
                    }
                  ],
                  "internalType": "struct Colors",
                  "name": "colors",
                  "type": "tuple"
                },
                {
                  "internalType": "uint8",
                  "name": "variant",
                  "type": "uint8"
                },
                {
                  "internalType": "uint8",
                  "name": "accuracy",
                  "type": "uint8"
                },
                {
                  "internalType": "uint8",
                  "name": "hull",
                  "type": "uint8"
                },
                {
                  "internalType": "uint8",
                  "name": "speed",
                  "type": "uint8"
                }
              ],
              "internalType": "struct Traits",
              "name": "traits",
              "type": "tuple"
            },
            {
              "components": [
                {
                  "internalType": "uint32",
                  "name": "shipsDestroyed",
                  "type": "uint32"
                },
                {
                  "internalType": "uint16",
                  "name": "costsVersion",
                  "type": "uint16"
                },
                {
                  "internalType": "uint16",
                  "name": "cost",
                  "type": "uint16"
                },
                {
                  "internalType": "bool",
                  "name": "shiny",
                  "type": "bool"
                },
                {
                  "internalType": "bool",
                  "name": "constructed",
                  "type": "bool"
                },
                {
                  "internalType": "bool",
                  "name": "inFleet",
                  "type": "bool"
                },
                {
                  "internalType": "uint256",
                  "name": "timestampDestroyed",
                  "type": "uint256"
                }
              ],
              "internalType": "struct ShipData",
              "name": "shipData",
              "type": "tuple"
            },
            {
              "internalType": "address",
              "name": "owner",
              "type": "address"
            }
          ],
          "internalType": "struct Ship",
          "name": "_ship",
          "type": "tuple"
        }
      ],
      "name": "calculateShipAttributes",
      "outputs": [
        {
          "components": [
            {
              "internalType": "uint16",
              "name": "version",
              "type": "uint16"
            },
            {
              "internalType": "uint8",
              "name": "range",
              "type": "uint8"
            },
            {
              "internalType": "uint8",
              "name": "gunDamage",
              "type": "uint8"
            },
            {
              "internalType": "uint8",
              "name": "hullPoints",
              "type": "uint8"
            },
            {
              "internalType": "uint8",
              "name": "maxHullPoints",
              "type": "uint8"
            },
            {
              "internalType": "uint8",
              "name": "movement",
              "type": "uint8"
            },
            {
              "internalType": "uint8",
              "name": "damageReduction",
              "type": "uint8"
            },
            {
              "internalType": "uint8",
              "name": "reactorCriticalTimer",
              "type": "uint8"
            },
            {
              "internalType": "uint8[]",
              "name": "statusEffects",
              "type": "uint8[]"
            }
          ],
          "internalType": "struct Attributes",
          "name": "",
          "type": "tuple"
        }
      ],
      "stateMutability": "view",
      "type": "function"
    },
    {
      "inputs": [
        {
          "internalType": "uint256",
          "name": "_shipId",
          "type": "uint256"
        }
      ],
      "name": "calculateShipAttributesById",
      "outputs": [
        {
          "components": [
            {
              "internalType": "uint16",
              "name": "version",
              "type": "uint16"
            },
            {
              "internalType": "uint8",
              "name": "range",
              "type": "uint8"
            },
            {
              "internalType": "uint8",
              "name": "gunDamage",
              "type": "uint8"
            },
            {
              "internalType": "uint8",
              "name": "hullPoints",
              "type": "uint8"
            },
            {
              "internalType": "uint8",
              "name": "maxHullPoints",
              "type": "uint8"
            },
            {
              "internalType": "uint8",
              "name": "movement",
              "type": "uint8"
            },
            {
              "internalType": "uint8",
              "name": "damageReduction",
              "type": "uint8"
            },
            {
              "internalType": "uint8",
              "name": "reactorCriticalTimer",
              "type": "uint8"
            },
            {
              "internalType": "uint8[]",
              "name": "statusEffects",
              "type": "uint8[]"
            }
          ],
          "internalType": "struct Attributes",
          "name": "",
          "type": "tuple"
        }
      ],
      "stateMutability": "view",
      "type": "function"
    },
    {
      "inputs": [
        {
          "internalType": "uint256[]",
          "name": "_shipIds",
          "type": "uint256[]"
        }
      ],
      "name": "calculateShipAttributesByIds",
      "outputs": [
        {
          "components": [
            {
              "internalType": "uint16",
              "name": "version",
              "type": "uint16"
            },
            {
              "internalType": "uint8",
              "name": "range",
              "type": "uint8"
            },
            {
              "internalType": "uint8",
              "name": "gunDamage",
              "type": "uint8"
            },
            {
              "internalType": "uint8",
              "name": "hullPoints",
              "type": "uint8"
            },
            {
              "internalType": "uint8",
              "name": "maxHullPoints",
              "type": "uint8"
            },
            {
              "internalType": "uint8",
              "name": "movement",
              "type": "uint8"
            },
            {
              "internalType": "uint8",
              "name": "damageReduction",
              "type": "uint8"
            },
            {
              "internalType": "uint8",
              "name": "reactorCriticalTimer",
              "type": "uint8"
            },
            {
              "internalType": "uint8[]",
              "name": "statusEffects",
              "type": "uint8[]"
            }
          ],
          "internalType": "struct Attributes[]",
          "name": "",
          "type": "tuple[]"
        }
      ],
      "stateMutability": "view",
      "type": "function"
    },
    {
      "inputs": [
        {
          "components": [
            {
              "internalType": "string",
              "name": "name",
              "type": "string"
            },
            {
              "internalType": "uint256",
              "name": "id",
              "type": "uint256"
            },
            {
              "components": [
                {
                  "internalType": "enum MainWeapon",
                  "name": "mainWeapon",
                  "type": "uint8"
                },
                {
                  "internalType": "enum Armor",
                  "name": "armor",
                  "type": "uint8"
                },
                {
                  "internalType": "enum Shields",
                  "name": "shields",
                  "type": "uint8"
                },
                {
                  "internalType": "enum Special",
                  "name": "special",
                  "type": "uint8"
                }
              ],
              "internalType": "struct Equipment",
              "name": "equipment",
              "type": "tuple"
            },
            {
              "components": [
                {
                  "internalType": "uint256",
                  "name": "serialNumber",
                  "type": "uint256"
                },
                {
                  "components": [
                    {
                      "internalType": "uint16",
                      "name": "h1",
                      "type": "uint16"
                    },
                    {
                      "internalType": "uint8",
                      "name": "s1",
                      "type": "uint8"
                    },
                    {
                      "internalType": "uint8",
                      "name": "l1",
                      "type": "uint8"
                    },
                    {
                      "internalType": "uint16",
                      "name": "h2",
                      "type": "uint16"
                    },
                    {
                      "internalType": "uint8",
                      "name": "s2",
                      "type": "uint8"
                    },
                    {
                      "internalType": "uint8",
                      "name": "l2",
                      "type": "uint8"
                    }
                  ],
                  "internalType": "struct Colors",
                  "name": "colors",
                  "type": "tuple"
                },
                {
                  "internalType": "uint8",
                  "name": "variant",
                  "type": "uint8"
                },
                {
                  "internalType": "uint8",
                  "name": "accuracy",
                  "type": "uint8"
                },
                {
                  "internalType": "uint8",
                  "name": "hull",
                  "type": "uint8"
                },
                {
                  "internalType": "uint8",
                  "name": "speed",
                  "type": "uint8"
                }
              ],
              "internalType": "struct Traits",
              "name": "traits",
              "type": "tuple"
            },
            {
              "components": [
                {
                  "internalType": "uint32",
                  "name": "shipsDestroyed",
                  "type": "uint32"
                },
                {
                  "internalType": "uint16",
                  "name": "costsVersion",
                  "type": "uint16"
                },
                {
                  "internalType": "uint16",
                  "name": "cost",
                  "type": "uint16"
                },
                {
                  "internalType": "bool",
                  "name": "shiny",
                  "type": "bool"
                },
                {
                  "internalType": "bool",
                  "name": "constructed",
                  "type": "bool"
                },
                {
                  "internalType": "bool",
                  "name": "inFleet",
                  "type": "bool"
                },
                {
                  "internalType": "uint256",
                  "name": "timestampDestroyed",
                  "type": "uint256"
                }
              ],
              "internalType": "struct ShipData",
              "name": "shipData",
              "type": "tuple"
            },
            {
              "internalType": "address",
              "name": "owner",
              "type": "address"
            }
          ],
          "internalType": "struct Ship",
          "name": "ship",
          "type": "tuple"
        }
      ],
      "name": "calculateShipCost",
      "outputs": [
        {
          "internalType": "uint16",
          "name": "",
          "type": "uint16"
        }
      ],
      "stateMutability": "view",
      "type": "function"
    },
    {
      "inputs": [],
      "name": "costs",
      "outputs": [
        {
          "internalType": "uint16",
          "name": "version",
          "type": "uint16"
        },
        {
          "internalType": "uint8",
          "name": "baseCost",
          "type": "uint8"
        }
      ],
      "stateMutability": "view",
      "type": "function"
    },
    {
      "inputs": [
        {
          "internalType": "uint256",
          "name": "num",
          "type": "uint256"
        }
      ],
      "name": "countDigits",
      "outputs": [
        {
          "internalType": "uint256",
          "name": "",
          "type": "uint256"
        }
      ],
      "stateMutability": "pure",
      "type": "function"
    },
    {
      "inputs": [],
      "name": "currentAttributesVersion",
      "outputs": [
        {
          "internalType": "uint16",
          "name": "",
          "type": "uint16"
        }
      ],
      "stateMutability": "view",
      "type": "function"
    },
    {
      "inputs": [
        {
          "internalType": "enum Armor",
          "name": "_armor",
          "type": "uint8"
        }
      ],
      "name": "getArmorData",
      "outputs": [
        {
          "components": [
            {
              "internalType": "uint8",
              "name": "damageReduction",
              "type": "uint8"
            },
            {
              "internalType": "int8",
              "name": "movement",
              "type": "int8"
            }
          ],
          "internalType": "struct ArmorData",
          "name": "",
          "type": "tuple"
        }
      ],
      "stateMutability": "view",
      "type": "function"
    },
    {
      "inputs": [
        {
          "internalType": "uint16",
          "name": "_version",
          "type": "uint16"
        }
      ],
      "name": "getAttributesVersionBase",
      "outputs": [
        {
          "internalType": "uint16",
          "name": "version",
          "type": "uint16"
        },
        {
          "internalType": "uint8",
          "name": "baseHull",
          "type": "uint8"
        },
        {
          "internalType": "uint8",
          "name": "baseSpeed",
          "type": "uint8"
        }
      ],
      "stateMutability": "view",
      "type": "function"
    },
    {
      "inputs": [],
      "name": "getCosts",
      "outputs": [
        {
          "internalType": "uint256",
          "name": "",
          "type": "uint256"
        },
        {
          "components": [
            {
              "internalType": "uint16",
              "name": "version",
              "type": "uint16"
            },
            {
              "internalType": "uint8",
              "name": "baseCost",
              "type": "uint8"
            },
            {
              "internalType": "uint8[]",
              "name": "accuracy",
              "type": "uint8[]"
            },
            {
              "internalType": "uint8[]",
              "name": "hull",
              "type": "uint8[]"
            },
            {
              "internalType": "uint8[]",
              "name": "speed",
              "type": "uint8[]"
            },
            {
              "internalType": "uint8[]",
              "name": "mainWeapon",
              "type": "uint8[]"
            },
            {
              "internalType": "uint8[]",
              "name": "armor",
              "type": "uint8[]"
            },
            {
              "internalType": "uint8[]",
              "name": "shields",
              "type": "uint8[]"
            },
            {
              "internalType": "uint8[]",
              "name": "special",
              "type": "uint8[]"
            }
          ],
          "internalType": "struct Costs",
          "name": "",
          "type": "tuple"
        }
      ],
      "stateMutability": "view",
      "type": "function"
    },
    {
      "inputs": [],
      "name": "getCurrentAttributesVersion",
      "outputs": [
        {
          "internalType": "uint16",
          "name": "",
          "type": "uint16"
        }
      ],
      "stateMutability": "view",
      "type": "function"
    },
    {
      "inputs": [],
      "name": "getCurrentCostsVersion",
      "outputs": [
        {
          "internalType": "uint16",
          "name": "",
          "type": "uint16"
        }
      ],
      "stateMutability": "view",
      "type": "function"
    },
    {
      "inputs": [
        {
          "internalType": "enum MainWeapon",
          "name": "_weapon",
          "type": "uint8"
        }
      ],
      "name": "getGunData",
      "outputs": [
        {
          "components": [
            {
              "internalType": "uint8",
              "name": "range",
              "type": "uint8"
            },
            {
              "internalType": "uint8",
              "name": "damage",
              "type": "uint8"
            },
            {
              "internalType": "int8",
              "name": "movement",
              "type": "int8"
            }
          ],
          "internalType": "struct GunData",
          "name": "",
          "type": "tuple"
        }
      ],
      "stateMutability": "view",
      "type": "function"
    },
    {
      "inputs": [
        {
          "internalType": "uint256",
          "name": "_shipsDestroyed",
          "type": "uint256"
        }
      ],
      "name": "getRank",
      "outputs": [
        {
          "internalType": "uint8",
          "name": "",
          "type": "uint8"
        }
      ],
      "stateMutability": "pure",
      "type": "function"
    },
    {
      "inputs": [
        {
          "internalType": "enum Shields",
          "name": "_shields",
          "type": "uint8"
        }
      ],
      "name": "getShieldData",
      "outputs": [
        {
          "components": [
            {
              "internalType": "uint8",
              "name": "damageReduction",
              "type": "uint8"
            },
            {
              "internalType": "int8",
              "name": "movement",
              "type": "int8"
            }
          ],
          "internalType": "struct ShieldData",
          "name": "",
          "type": "tuple"
        }
      ],
      "stateMutability": "view",
      "type": "function"
    },
    {
      "inputs": [
        {
          "internalType": "enum Special",
          "name": "_special",
          "type": "uint8"
        }
      ],
      "name": "getSpecialData",
      "outputs": [
        {
          "components": [
            {
              "internalType": "uint8",
              "name": "range",
              "type": "uint8"
            },
            {
              "internalType": "uint8",
              "name": "strength",
              "type": "uint8"
            },
            {
              "internalType": "int8",
              "name": "movement",
              "type": "int8"
            }
          ],
          "internalType": "struct SpecialData",
          "name": "",
          "type": "tuple"
        }
      ],
      "stateMutability": "view",
      "type": "function"
    },
    {
      "inputs": [
        {
          "internalType": "enum Special",
          "name": "_special",
          "type": "uint8"
        }
      ],
      "name": "getSpecialRange",
      "outputs": [
        {
          "internalType": "uint8",
          "name": "",
          "type": "uint8"
        }
      ],
      "stateMutability": "view",
      "type": "function"
    },
    {
      "inputs": [
        {
          "internalType": "enum Special",
          "name": "_special",
          "type": "uint8"
        }
      ],
      "name": "getSpecialStrength",
      "outputs": [
        {
          "internalType": "uint8",
          "name": "",
          "type": "uint8"
        }
      ],
      "stateMutability": "view",
      "type": "function"
    },
    {
      "inputs": [],
      "name": "owner",
      "outputs": [
        {
          "internalType": "address",
          "name": "",
          "type": "address"
        }
      ],
      "stateMutability": "view",
      "type": "function"
    },
    {
      "inputs": [],
      "name": "renounceOwnership",
      "outputs": [],
      "stateMutability": "nonpayable",
      "type": "function"
    },
    {
      "inputs": [
        {
          "internalType": "uint8",
          "name": "_baseHull",
          "type": "uint8"
        },
        {
          "internalType": "uint8",
          "name": "_baseSpeed",
          "type": "uint8"
        },
        {
          "components": [
            {
              "internalType": "uint8",
              "name": "range",
              "type": "uint8"
            },
            {
              "internalType": "uint8",
              "name": "damage",
              "type": "uint8"
            },
            {
              "internalType": "int8",
              "name": "movement",
              "type": "int8"
            }
          ],
          "internalType": "struct GunData[]",
          "name": "_guns",
          "type": "tuple[]"
        },
        {
          "components": [
            {
              "internalType": "uint8",
              "name": "damageReduction",
              "type": "uint8"
            },
            {
              "internalType": "int8",
              "name": "movement",
              "type": "int8"
            }
          ],
          "internalType": "struct ArmorData[]",
          "name": "_armors",
          "type": "tuple[]"
        },
        {
          "components": [
            {
              "internalType": "uint8",
              "name": "damageReduction",
              "type": "uint8"
            },
            {
              "internalType": "int8",
              "name": "movement",
              "type": "int8"
            }
          ],
          "internalType": "struct ShieldData[]",
          "name": "_shields",
          "type": "tuple[]"
        },
        {
          "components": [
            {
              "internalType": "uint8",
              "name": "range",
              "type": "uint8"
            },
            {
              "internalType": "uint8",
              "name": "strength",
              "type": "uint8"
            },
            {
              "internalType": "int8",
              "name": "movement",
              "type": "int8"
            }
          ],
          "internalType": "struct SpecialData[]",
          "name": "_specials",
          "type": "tuple[]"
        },
        {
          "internalType": "uint8[]",
          "name": "_foreAccuracy",
          "type": "uint8[]"
        },
        {
          "internalType": "uint8[]",
          "name": "_engineSpeeds",
          "type": "uint8[]"
        }
      ],
      "name": "setAllAttributes",
      "outputs": [],
      "stateMutability": "nonpayable",
      "type": "function"
    },
    {
      "inputs": [
        {
          "components": [
            {
              "internalType": "uint16",
              "name": "version",
              "type": "uint16"
            },
            {
              "internalType": "uint8",
              "name": "baseCost",
              "type": "uint8"
            },
            {
              "internalType": "uint8[]",
              "name": "accuracy",
              "type": "uint8[]"
            },
            {
              "internalType": "uint8[]",
              "name": "hull",
              "type": "uint8[]"
            },
            {
              "internalType": "uint8[]",
              "name": "speed",
              "type": "uint8[]"
            },
            {
              "internalType": "uint8[]",
              "name": "mainWeapon",
              "type": "uint8[]"
            },
            {
              "internalType": "uint8[]",
              "name": "armor",
              "type": "uint8[]"
            },
            {
              "internalType": "uint8[]",
              "name": "shields",
              "type": "uint8[]"
            },
            {
              "internalType": "uint8[]",
              "name": "special",
              "type": "uint8[]"
            }
          ],
          "internalType": "struct Costs",
          "name": "_costs",
          "type": "tuple"
        }
      ],
      "name": "setCosts",
      "outputs": [],
      "stateMutability": "nonpayable",
      "type": "function"
    },
    {
      "inputs": [
        {
          "internalType": "uint16",
          "name": "_version",
          "type": "uint16"
        }
      ],
      "name": "setCurrentAttributesVersion",
      "outputs": [],
      "stateMutability": "nonpayable",
      "type": "function"
    },
    {
      "inputs": [
        {
          "internalType": "address",
          "name": "_ships",
          "type": "address"
        }
      ],
      "name": "setShipsAddress",
      "outputs": [],
      "stateMutability": "nonpayable",
      "type": "function"
    },
    {
      "inputs": [],
      "name": "ships",
      "outputs": [
        {
          "internalType": "contract IShips",
          "name": "",
          "type": "address"
        }
      ],
      "stateMutability": "view",
      "type": "function"
    },
    {
      "inputs": [
        {
          "internalType": "address",
          "name": "newOwner",
          "type": "address"
        }
      ],
      "name": "transferOwnership",
      "outputs": [],
      "stateMutability": "nonpayable",
      "type": "function"
    }
  ],
  "bytecode": "0x608060405234801561001057600080fd5b50604051613cbb380380613cbb83398101604081905261002f91610e0c565b338061005557604051631e4fbdf760e01b81526000600482015260240160405180910390fd5b61005e81610d01565b50600180546001600160a01b0319166001600160a01b0383161781556003805461ffff191690911781556004805462ffffff1916623200011790556040805160608101825260008152600a60208201526019918101919091526100c49160059190610d51565b506040805160608101825260008152600a60208201526019918101919091526100f1906006906003610d51565b506040805160608101825260008152600a602082015260199181019190915261011e906007906003610d51565b506040805160808101825260198152601e602082015260289181018290526060810191909152610152906008906004610d51565b50604080516080810182526000815260056020820152600a91810191909152600f6060820152610186906009906004610d51565b506040805160808101825260008152600a60208201819052601492820192909252601e60608201526101ba91906004610d51565b506040805160808101825260008152600a6020820152601491810191909152600f60608201526101ee90600b906004610d51565b50600060026000600161ffff168152602001908152602001600020905060018160000160006101000a81548161ffff021916908361ffff16021790555060648160000160026101000a81548160ff021916908360ff16021790555060038160000160036101000a81548160ff021916908360ff16021790555080600101600090806001815401808255809150506001900390600052602060002090602091828204019190069091909190916101000a81548160ff021916908360ff16021790555080600101607d90806001815401808255809150506001900390600052602060002090602091828204019190069091909190916101000a81548160ff021916908360ff16021790555080600101609690806001815401808255809150506001900390600052602060002090602091828204019190069091909190916101000a81548160ff021916908360ff16021790555080600201600090806001815401808255809150506001900390600052602060002090602091828204019190069091909190916101000a81548160ff021916908360ff16021790555080600201600190806001815401808255809150506001900390600052602060002090602091828204019190069091909190916101000a81548160ff021916908360ff16021790555080600201600290806001815401808255809150506001900390600052602060002090602091828204019190069091909190916101000a81548160ff021916908360ff160217905550806003016040518060600160405280600660ff168152602001601960ff1681526020016000800b8152509080600181540180825580915050600190039060005260206000200160009091909190915060008201518160000160006101000a81548160ff021916908360ff16021790555060208201518160000160016101000a81548160ff021916908360ff16021790555060408201518160000160026101000a81548160ff021916908360000b60ff1602179055505050806003016040518060600160405280600a60ff168152602001601460ff1681526020016000800b8152509080600181540180825580915050600190039060005260206000200160009091909190915060008201518160000160006101000a81548160ff021916908360ff16021790555060208201518160000160016101000a81548160ff021916908360ff16021790555060408201518160000160026101000a81548160ff021916908360000b60ff1602179055505050806003016040518060600160405280600860ff168152602001601e60ff16815260200160001960000b8152509080600181540180825580915050600190039060005260206000200160009091909190915060008201518160000160006101000a81548160ff021916908360ff16021790555060208201518160000160016101000a81548160ff021916908360ff16021790555060408201518160000160026101000a81548160ff021916908360000b60ff1602179055505050806003016040518060600160405280600360ff168152602001602860ff1681526020016000800b8152509080600181540180825580915050600190039060005260206000200160009091909190915060008201518160000160006101000a81548160ff021916908360ff16021790555060208201518160000160016101000a81548160ff021916908360ff16021790555060408201518160000160026101000a81548160ff021916908360000b60ff1602179055505050806004016040518060400160405280600060ff168152602001600160000b8152509080600181540180825580915050600190039060005260206000200160009091909190915060008201518160000160006101000a81548160ff021916908360ff16021790555060208201518160000160016101000a81548160ff021916908360000b60ff1602179055505050806004016040518060400160405280600f60ff1681526020016000800b8152509080600181540180825580915050600190039060005260206000200160009091909190915060008201518160000160006101000a81548160ff021916908360ff16021790555060208201518160000160016101000a81548160ff021916908360000b60ff1602179055505050806004016040518060400160405280601e60ff16815260200160001960000b8152509080600181540180825580915050600190039060005260206000200160009091909190915060008201518160000160006101000a81548160ff021916908360ff16021790555060208201518160000160016101000a81548160ff021916908360000b60ff1602179055505050806004016040518060400160405280602d60ff16815260200160011960000b8152509080600181540180825580915050600190039060005260206000200160009091909190915060008201518160000160006101000a81548160ff021916908360ff16021790555060208201518160000160016101000a81548160ff021916908360000b60ff1602179055505050806005016040518060400160405280600060ff168152602001600160000b8152509080600181540180825580915050600190039060005260206000200160009091909190915060008201518160000160006101000a81548160ff021916908360ff16021790555060208201518160000160016101000a81548160ff021916908360000b60ff1602179055505050806005016040518060400160405280600f60ff168152602001600160000b8152509080600181540180825580915050600190039060005260206000200160009091909190915060008201518160000160006101000a81548160ff021916908360ff16021790555060208201518160000160016101000a81548160ff021916908360000b60ff1602179055505050806005016040518060400160405280601e60ff1681526020016000800b8152509080600181540180825580915050600190039060005260206000200160009091909190915060008201518160000160006101000a81548160ff021916908360ff16021790555060208201518160000160016101000a81548160ff021916908360000b60ff1602179055505050806005016040518060400160405280602d60ff16815260200160001960000b8152509080600181540180825580915050600190039060005260206000200160009091909190915060008201518160000160006101000a81548160ff021916908360ff16021790555060208201518160000160016101000a81548160ff021916908360000b60ff1602179055505050806006016040518060600160405280600060ff168152602001600060ff1681526020016000800b8152509080600181540180825580915050600190039060005260206000200160009091909190915060008201518160000160006101000a81548160ff021916908360ff160217905550602082810151825460409485015162ffff001990911661010060ff938416810262ff000019908116929092176201000093851684021790955585516060808201885260018083528287018181526000848b0181815260069c8d01805480860182558184528b84209751908801805495519351918c1661ffff1996871617938c168e02939093178916908b168a02179091558b518086018d529c8d5260148d8b019081528d8d01838152825480870184558385529e519e88018054925191519f8c1692861692909217908b168d021788169d8a1689029d909d17909c558a519384018b5260048452600f9884019889529983018a81528b549283018c559a90995290519101805495519851918516959097169490941796831690940295909517909216911690920291909117905550610e3c565b600080546001600160a01b038381166001600160a01b0319831681178455604051919092169283917f8be0079c531659141344cd1fd0a4f28419497f9722a3daafe3b4186f6b6457e09190a35050565b82805482825590600052602060002090601f01602090048101928215610de75791602002820160005b83821115610db857835183826101000a81548160ff021916908360ff1602179055509260200192600101602081600001049283019260010302610d7a565b8015610de55782816101000a81549060ff0219169055600101602081600001049283019260010302610db8565b505b50610df3929150610df7565b5090565b5b80821115610df35760008155600101610df8565b600060208284031215610e1e57600080fd5b81516001600160a01b0381168114610e3557600080fd5b9392505050565b612e7080610e4b6000396000f3fe608060405234801561001057600080fd5b50600436106101a95760003560e01c80639636c762116100f9578063ceb3a61211610097578063e7fae62511610071578063e7fae6251461045e578063f2fde38b14610471578063fe367db314610484578063ff758d021461049757600080fd5b8063ceb3a61214610425578063d5d233f814610438578063e197c6271461044b57600080fd5b8063a918e521116100d3578063a918e521146103bf578063ab67a783146103df578063bbf8218a146103f2578063c5b64b7a1461040557600080fd5b80639636c7621461034e578063a5099bae1461036f578063a89a24f81461038257600080fd5b80634f5e1e0611610166578063776d62f611610140578063776d62f6146102c65780637e0b245f146102fb5780638da5cb5b1461031b5780638e1b4a831461034057600080fd5b80634f5e1e0614610286578063670fa22e14610299578063715018a6146102be57600080fd5b806303075018146101ae5780630f0bba00146101cd57806311fa2bae1461022a5780631d727ba5146102455780633130f7ce1461025a578063321eed3514610266575b600080fd5b6101b66104aa565b6040516101c4929190611d1f565b60405180910390f35b6102066101db366004611e4d565b60026020526000908152604090205461ffff81169060ff620100008204811691630100000090041683565b6040805161ffff909416845260ff92831660208501529116908201526060016101c4565b60035461ffff165b60405161ffff90911681526020016101c4565b610258610253366004611ff2565b610871565b005b60045461ffff16610232565b610279610274366004612188565b61099f565b6040516101c491906122cd565b6102586102943660046124c6565b610af6565b6102ac6102a7366004612606565b610eca565b60405160ff90911681526020016101c4565b610258610f26565b6004546102df9061ffff81169062010000900460ff1682565b6040805161ffff909316835260ff9091166020830152016101c4565b61030e610309366004612606565b610f3a565b6040516101c49190612623565b6000546001600160a01b03165b6040516001600160a01b0390911681526020016101c4565b6003546102329061ffff1681565b61036161035c366004612640565b610fbe565b6040519081526020016101c4565b6102ac61037d366004612640565b610fff565b610206610390366004611e4d565b61ffff9081166000908152600260205260409020549081169160ff620100008304811692630100000090041690565b6103d26103cd366004612606565b61100a565b6040516101c49190612659565b6102326103ed3660046128f5565b6110a5565b600154610328906001600160a01b031681565b6104186104133660046128f5565b61130d565b6040516101c491906129f2565b6102ac610433366004612606565b6115fa565b610258610446366004612a05565b611651565b610418610459366004612640565b61167b565b6103d261046c366004612606565b61172c565b61025861047f366004612a05565b611774565b61030e610492366004612606565b6117b7565b6102586104a5366004611e4d565b6117f6565b6000610502604051806101200160405280600061ffff168152602001600060ff168152602001606081526020016060815260200160608152602001606081526020016060815260200160608152602001606081525090565b60048054604080516101208101825261ffff83168082526201000090930460ff1660208083019190915260058054845181840281018401865281815295969593948694908601939092919083018282801561059a57602002820191906000526020600020906000905b825461010083900a900460ff1681526020600192830181810494850194909303909202910180841161056b5790505b505050505081526020016002820180548060200260200160405190810160405280929190818152602001828054801561061057602002820191906000526020600020906000905b825461010083900a900460ff168152602060019283018181049485019490930390920291018084116105e15790505b505050505081526020016003820180548060200260200160405190810160405280929190818152602001828054801561068657602002820191906000526020600020906000905b825461010083900a900460ff168152602060019283018181049485019490930390920291018084116106575790505b50505050508152602001600482018054806020026020016040519081016040528092919081815260200182805480156106fc57602002820191906000526020600020906000905b825461010083900a900460ff168152602060019283018181049485019490930390920291018084116106cd5790505b505050505081526020016005820180548060200260200160405190810160405280929190818152602001828054801561077257602002820191906000526020600020906000905b825461010083900a900460ff168152602060019283018181049485019490930390920291018084116107435790505b50505050508152602001600682018054806020026020016040519081016040528092919081815260200182805480156107e857602002820191906000526020600020906000905b825461010083900a900460ff168152602060019283018181049485019490930390920291018084116107b95790505b505050505081526020016007820180548060200260200160405190810160405280929190818152602001828054801561085e57602002820191906000526020600020906000905b825461010083900a900460ff1681526020600192830181810494850194909303909202910180841161082f5790505b5050505050815250509050915091509091565b610879611816565b6004805461ffff1690600061088d83612a38565b82546101009290920a61ffff8181021990931691831602179091558251600480546020808701519390941662ffffff19909116176201000060ff909316929092029190911781556040840151805185945091926108f09260059290910190611b45565b506060820151805161090c916002840191602090910190611b45565b5060808201518051610928916003840191602090910190611b45565b5060a08201518051610944916004840191602090910190611b45565b5060c08201518051610960916005840191602090910190611b45565b5060e0820151805161097c916006840191602090910190611b45565b506101008201518051610999916007840191602090910190611b45565b50505050565b6060600082516001600160401b038111156109bc576109bc611e6a565b6040519080825280602002602001820160405280156109f557816020015b6109e2611beb565b8152602001906001900390816109da5790505b50905060005b8351811015610aef5760015484516000916001600160a01b031690634025b22d90879085908110610a2e57610a2e612a59565b60200260200101516040518263ffffffff1660e01b8152600401610a5491815260200190565b600060405180830381865afa158015610a71573d6000803e3d6000fd5b505050506040513d6000823e601f3d908101601f19168201604052610a999190810190612c76565b90508060200151600003610ac0576040516303c113ad60e61b815260040160405180910390fd5b610ac98161130d565b838381518110610adb57610adb612a59565b6020908102919091010152506001016109fb565b5092915050565b610afe611816565b6003805461ffff16906000610b1283612a38565b91906101000a81548161ffff021916908361ffff160217905550506000600360009054906101000a900461ffff1690506000600260008361ffff1661ffff1681526020019081526020016000209050818160000160006101000a81548161ffff021916908361ffff160217905550898160000160026101000a81548160ff021916908360ff160217905550888160000160036101000a81548160ff021916908360ff160217905550806003016000610bca9190611c39565b60005b8851811015610c4d5781600301898281518110610bec57610bec612a59565b6020908102919091018101518254600181810185556000948552938390208251910180549383015160409093015160ff908116620100000262ff0000199482166101000261ffff199096169190931617939093179190911617905501610bcd565b50610c5c600482016000611c57565b60005b8751811015610cc35781600401888281518110610c7e57610c7e612a59565b602090810291909101810151825460018181018555600094855293839020825191018054929093015160ff9081166101000261ffff1990931691161717905501610c5f565b50610cd2600582016000611c57565b60005b8651811015610d395781600501878281518110610cf457610cf4612a59565b602090810291909101810151825460018181018555600094855293839020825191018054929093015160ff9081166101000261ffff1990931691161717905501610cd5565b50610d48600682016000611c39565b60005b8551811015610dcb5781600601868281518110610d6a57610d6a612a59565b6020908102919091018101518254600181810185556000948552938390208251910180549383015160409093015160ff908116620100000262ff0000199482166101000261ffff199096169190931617939093179190911617905501610d4b565b50610dda600182016000611c75565b60005b8451811015610e445781600101858281518110610dfc57610dfc612a59565b602090810291909101810151825460018181018555600094855293839020928104909201805460ff928316601f9094166101000a938402929093021990921617905501610ddd565b50610e53600282016000611c75565b60005b8351811015610ebd5781600201848281518110610e7557610e75612a59565b602090810291909101810151825460018181018555600094855293839020928104909201805460ff928316601f9094166101000a938402929093021990921617905501610e56565b5050505050505050505050565b6003805461ffff16600090815260026020526040812090916006909101908390811115610ef957610ef9612d7c565b60ff1681548110610f0c57610f0c612a59565b600091825260209091200154610100900460ff1692915050565b610f2e611816565b610f386000611843565b565b60408051808201909152600080825260208201526003805461ffff166000908152600260205260409020600401908390811115610f7957610f79612d7c565b60ff1681548110610f8c57610f8c612a59565b600091825260208083206040805180820190915292015460ff81168352610100900490920b9181019190915292915050565b600081600003610fd057506001919050565b60005b8215610ff95780610fe381612d92565b9150610ff29050600a84612dab565b9250610fd3565b92915050565b6000610ff982610fbe565b60408051606081018252600080825260208201819052918101919091526003805461ffff166000908152600260205260409020810190839081111561105157611051612d7c565b60ff168154811061106457611064612a59565b6000918252602080832060408051606081018252919093015460ff8082168352610100820416928201929092526201000090910490920b9082015292915050565b600080600460070183604001516060015160038111156110c7576110c7612d7c565b60ff16815481106110da576110da612a59565b90600052602060002090602091828204019190069054906101000a900460ff166004600601846040015160400151600381111561111957611119612d7c565b60ff168154811061112c5761112c612a59565b90600052602060002090602091828204019190069054906101000a900460ff166004600501856040015160200151600381111561116b5761116b612d7c565b60ff168154811061117e5761117e612a59565b90600052602060002090602091828204019190069054906101000a900460ff166004800186604001516000015160038111156111bc576111bc612d7c565b60ff16815481106111cf576111cf612a59565b90600052602060002090602091828204019190069054906101000a900460ff166004600301876060015160a0015160ff168154811061121057611210612a59565b90600052602060002090602091828204019190069054906101000a900460ff16600460020188606001516080015160ff168154811061125157611251612a59565b90600052602060002090602091828204019190069054906101000a900460ff16600460010189606001516060015160ff168154811061129257611292612a59565b6000918252602091829020918104909101546004546112c792601f166101000a90910460ff9081169162010000900416612dcd565b6112d19190612dcd565b6112db9190612dcd565b6112e59190612dcd565b6112ef9190612dcd565b6112f99190612dcd565b6113039190612dcd565b60ff169392505050565b611315611beb565b816020015160000361133a576040516303c113ad60e61b815260040160405180910390fd5b600061135383608001516000015163ffffffff16610fff565b905060008160ff1660010361136a575060006113c5565b8160ff1660020361137d5750600a6113c5565b8160ff16600303611390575060146113c5565b8160ff166004036113a35750601e6113c5565b8160ff166005036113b6575060286113c5565b60068260ff16106113c5575060325b6113cd611beb565b6003805461ffff168083526000908152600260205260409081902090870151519082019181111561140057611400612d7c565b60ff168154811061141357611413612a59565b600091825260208083209091015460ff90811691840182905260649161143b91861690612de6565b6114459190612dab565b905080826020018181516114599190612dcd565b60ff169052506003805461ffff166000908152600260205260409081902090880151519082019181111561148f5761148f612d7c565b60ff16815481106114a2576114a2612a59565b60009182526020909120015460ff6101009091048116604084018190526064916114cf9190861690612de6565b6114d99190612dab565b905080826040018181516114ed9190612dcd565b60ff169052506114fc86611893565b60ff908116606084018190526064916115189190861690612de6565b6115229190612dab565b905080826060018181516115369190612dcd565b60ff908116909152606084015116608084015250611553866118e0565b60ff90811660a0840181905260649161156f9190861690612de6565b6115799190612dab565b9050808260a00181815161158d9190612dcd565b60ff1690525061159c86611a89565b60ff90811660c084018190526064916115b89190861690612de6565b6115c29190612dab565b9050808260c0018181516115d69190612dcd565b60ff1690525050604080516000815260208101909152610100820152949350505050565b6003805461ffff1660009081526002602052604081209091600690910190839081111561162957611629612d7c565b60ff168154811061163c5761163c612a59565b60009182526020909120015460ff1692915050565b611659611816565b600180546001600160a01b0319166001600160a01b0392909216919091179055565b611683611beb565b600154604051634025b22d60e01b8152600481018490526000916001600160a01b031690634025b22d90602401600060405180830381865afa1580156116cd573d6000803e3d6000fd5b505050506040513d6000823e601f3d908101601f191682016040526116f59190810190612c76565b9050806020015160000361171c576040516303c113ad60e61b815260040160405180910390fd5b6117258161130d565b9392505050565b60408051606081018252600080825260208201819052918101919091526003805461ffff16600090815260026020526040902060060190839081111561105157611051612d7c565b61177c611816565b6001600160a01b0381166117ab57604051631e4fbdf760e01b8152600060048201526024015b60405180910390fd5b6117b481611843565b50565b60408051808201909152600080825260208201526003805461ffff166000908152600260205260409020600501908390811115610f7957610f79612d7c565b6117fe611816565b6003805461ffff191661ffff92909216919091179055565b6000546001600160a01b03163314610f385760405163118cdaa760e01b81523360048201526024016117a2565b600080546001600160a01b038381166001600160a01b0319831681178455604051919092169283917f8be0079c531659141344cd1fd0a4f28419497f9722a3daafe3b4186f6b6457e09190a35050565b60035461ffff16600090815260026020526040812080546060840151608001516201000090910460ff169083906118cb90600a612dfd565b90506118d78183612dcd565b95945050505050565b60035461ffff1660009081526002602052604081208054606084015160a00151630100000090910460ff16906119169082612e19565b9050600082600301856040015160000151600381111561193857611938612d7c565b60ff168154811061194b5761194b612a59565b9060005260206000200160000160029054906101000a900460000b9050600083600401866040015160200151600381111561198857611988612d7c565b60ff168154811061199b5761199b612a59565b60009182526020822001546040808901510151610100909104820b9250600586019060038111156119ce576119ce612d7c565b60ff16815481106119e1576119e1612a59565b6000918252602082200154604089015160600151610100909104820b925060068701906003811115611a1557611a15612d7c565b60ff1681548110611a2857611a28612a59565b6000918252602082200154620100009004900b90508082611a498587612e19565b611a539190612e19565b611a5d9190612e19565b611a679086612e19565b945060008560000b13611a7b576000611a7d565b845b98975050505050505050565b6003805461ffff1660009081526002602090815260408083209085015190910151919290918391600484019190811115611ac557611ac5612d7c565b60ff1681548110611ad857611ad8612a59565b600091825260209091200154611af19060ff1682612dcd565b9050816005018460400151604001516003811115611b1157611b11612d7c565b60ff1681548110611b2457611b24612a59565b600091825260209091200154611b3d9060ff1682612dcd565b949350505050565b82805482825590600052602060002090601f01602090048101928215611bdb5791602002820160005b83821115611bac57835183826101000a81548160ff021916908360ff1602179055509260200192600101602081600001049283019260010302611b6e565b8015611bd95782816101000a81549060ff0219169055600101602081600001049283019260010302611bac565b505b50611be7929150611c96565b5090565b604080516101208101825260008082526020820181905291810182905260608082018390526080820183905260a0820183905260c0820183905260e082019290925261010081019190915290565b50805460008255906000526020600020908101906117b49190611cab565b50805460008255906000526020600020908101906117b49190611cc6565b50805460008255601f0160209004906000526020600020908101906117b491905b5b80821115611be75760008155600101611c97565b5b80821115611be757805462ffffff19168155600101611cac565b5b80821115611be757805461ffff19168155600101611cc7565b600081518084526020840193506020830160005b82811015611d1557815160ff16865260209586019590910190600101611cf4565b5093949350505050565b82815260406020820152611d3a60408201835161ffff169052565b60006020830151611d50606084018260ff169052565b5060408301516101206080840152611d6c610160840182611ce0565b90506060840151603f198483030160a0850152611d898282611ce0565b9150506080840151603f198483030160c0850152611da78282611ce0565b91505060a0840151603f198483030160e0850152611dc58282611ce0565b91505060c0840151603f1984830301610100850152611de48282611ce0565b91505060e0840151603f1984830301610120850152611e038282611ce0565b915050610100840151603f1984830301610140850152611e238282611ce0565b9695505050505050565b61ffff811681146117b457600080fd5b8035611e4881611e2d565b919050565b600060208284031215611e5f57600080fd5b813561172581611e2d565b634e487b7160e01b600052604160045260246000fd5b60405161012081016001600160401b0381118282101715611ea357611ea3611e6a565b60405290565b604051608081016001600160401b0381118282101715611ea357611ea3611e6a565b60405160c081016001600160401b0381118282101715611ea357611ea3611e6a565b60405160e081016001600160401b0381118282101715611ea357611ea3611e6a565b604051601f8201601f191681016001600160401b0381118282101715611f3757611f37611e6a565b604052919050565b60ff811681146117b457600080fd5b8035611e4881611f3f565b60006001600160401b03821115611f7257611f72611e6a565b5060051b60200190565b600082601f830112611f8d57600080fd5b8135611fa0611f9b82611f59565b611f0f565b8082825260208201915060208360051b860101925085831115611fc257600080fd5b602085015b83811015611fe8578035611fda81611f3f565b835260209283019201611fc7565b5095945050505050565b60006020828403121561200457600080fd5b81356001600160401b0381111561201a57600080fd5b8201610120818503121561202d57600080fd5b612035611e80565b61203e82611e3d565b815261204c60208301611f4e565b602082015260408201356001600160401b0381111561206a57600080fd5b61207686828501611f7c565b60408301525060608201356001600160401b0381111561209557600080fd5b6120a186828501611f7c565b60608301525060808201356001600160401b038111156120c057600080fd5b6120cc86828501611f7c565b60808301525060a08201356001600160401b038111156120eb57600080fd5b6120f786828501611f7c565b60a08301525060c08201356001600160401b0381111561211657600080fd5b61212286828501611f7c565b60c08301525060e08201356001600160401b0381111561214157600080fd5b61214d86828501611f7c565b60e0830152506101008201356001600160401b0381111561216d57600080fd5b61217986828501611f7c565b61010083015250949350505050565b60006020828403121561219a57600080fd5b81356001600160401b038111156121b057600080fd5b8201601f810184136121c157600080fd5b80356121cf611f9b82611f59565b8082825260208201915060208360051b8501019250868311156121f157600080fd5b6020840193505b82841015611e235783358252602093840193909101906121f8565b805161ffff16825260006020820151612231602085018260ff169052565b506040820151612246604085018260ff169052565b50606082015161225b606085018260ff169052565b506080820151612270608085018260ff169052565b5060a082015161228560a085018260ff169052565b5060c082015161229a60c085018260ff169052565b5060e08201516122af60e085018260ff169052565b50610100820151610120610100850152611b3d610120850182611ce0565b6000602082016020835280845180835260408501915060408160051b86010192506020860160005b8281101561232657603f19878603018452612311858351612213565b945060209384019391909101906001016122f5565b50929695505050505050565b8035600081900b8114611e4857600080fd5b600082601f83011261235557600080fd5b8135602083016000612369611f9b84611f59565b83815260609093028201929050602081018684111561238757600080fd5b83831015611fe8576000606084890312156123a0578081fd5b604051606081016001600160401b03811182821017156123c2576123c2611e6a565b604052843591506123d282611f3f565b9081526020840135906123e482611f3f565b8160208201526123f660408601612332565b604082015282525060609290920191602001612387565b600082601f83011261241e57600080fd5b8135602083016000612432611f9b84611f59565b83815260069390931b8201929050602081018684111561245157600080fd5b83831015611fe85760006040848903121561246a578081fd5b604080519081016001600160401b038111828210171561248c5761248c611e6a565b6040528435915061249c82611f3f565b8181526124ab60208601612332565b60208201528083525050602081019050604083019250612451565b600080600080600080600080610100898b0312156124e357600080fd5b6124ec89611f4e565b97506124fa60208a01611f4e565b965060408901356001600160401b0381111561251557600080fd5b6125218b828c01612344565b96505060608901356001600160401b0381111561253d57600080fd5b6125498b828c0161240d565b95505060808901356001600160401b0381111561256557600080fd5b6125718b828c0161240d565b94505060a08901356001600160401b0381111561258d57600080fd5b6125998b828c01612344565b93505060c08901356001600160401b038111156125b557600080fd5b6125c18b828c01611f7c565b92505060e08901356001600160401b038111156125dd57600080fd5b6125e98b828c01611f7c565b9150509295985092959890939650565b600481106117b457600080fd5b60006020828403121561261857600080fd5b8135611725816125f9565b815160ff16815260208083015160000b9082015260408101610ff9565b60006020828403121561265257600080fd5b5035919050565b60608101610ff9828460ff815116825260ff6020820151166020830152604081015160000b60408301525050565b60006001600160401b038211156126a0576126a0611e6a565b50601f01601f191660200190565b6000608082840312156126c057600080fd5b6126c8611ea9565b905081356126d5816125f9565b815260208201356126e5816125f9565b602082015260408201356126f8816125f9565b6040820152606082013561270b816125f9565b606082015292915050565b600081830361016081121561272a57600080fd5b612732611ecb565b83358152915060c0601f198201121561274a57600080fd5b50612753611ecb565b602083013561276181611e2d565b8152604083013561277181611f3f565b6020820152606083013561278481611f3f565b6040820152608083013561279781611e2d565b606082015260a08301356127aa81611f3f565b608082015260c08301356127bd81611f3f565b60a082015260208201526127d360e08301611f4e565b60408201526127e56101008301611f4e565b60608201526127f76101208301611f4e565b60808201526128096101408301611f4e565b60a082015292915050565b63ffffffff811681146117b457600080fd5b80151581146117b457600080fd5b8035611e4881612826565b600060e0828403121561285157600080fd5b612859611eed565b9050813561286681612814565b8152602082013561287681611e2d565b6020820152604082013561288981611e2d565b6040820152606082013561289c81612826565b60608201526128ad60808301612834565b60808201526128be60a08301612834565b60a082015260c09182013591810191909152919050565b6001600160a01b03811681146117b457600080fd5b8035611e48816128d5565b60006020828403121561290757600080fd5b81356001600160401b0381111561291d57600080fd5b8201610320818503121561293057600080fd5b612938611ecb565b81356001600160401b0381111561294e57600080fd5b8201601f8101861361295f57600080fd5b803561296d611f9b82612687565b81815287602083850101111561298257600080fd5b816020840160208301376000602092820183015283528381013590830152506129ae85604084016126ae565b60408201526129c08560c08401612716565b60608201526129d385610220840161283f565b60808201526129e561030083016128ea565b60a0820152949350505050565b6020815260006117256020830184612213565b600060208284031215612a1757600080fd5b8135611725816128d5565b634e487b7160e01b600052601160045260246000fd5b600061ffff821661ffff8103612a5057612a50612a22565b60010192915050565b634e487b7160e01b600052603260045260246000fd5b600060808284031215612a8157600080fd5b612a89611ea9565b90508151612a96816125f9565b81526020820151612aa6816125f9565b60208201526040820151612ab9816125f9565b6040820152606082015161270b816125f9565b8051611e4881611f3f565b6000818303610160811215612aeb57600080fd5b612af3611ecb565b83518152915060c0601f1982011215612b0b57600080fd5b50612b14611ecb565b6020830151612b2281611e2d565b81526040830151612b3281611f3f565b60208201526060830151612b4581611f3f565b60408201526080830151612b5881611e2d565b606082015260a0830151612b6b81611f3f565b608082015260c0830151612b7e81611f3f565b60a08201526020820152612b9460e08301612acc565b6040820152612ba66101008301612acc565b6060820152612bb86101208301612acc565b60808201526128096101408301612acc565b8051611e4881612826565b600060e08284031215612be757600080fd5b612bef611eed565b90508151612bfc81612814565b81526020820151612c0c81611e2d565b60208201526040820151612c1f81611e2d565b60408201526060820151612c3281612826565b6060820152612c4360808301612bca565b6080820152612c5460a08301612bca565b60a082015260c09182015191810191909152919050565b8051611e48816128d5565b600060208284031215612c8857600080fd5b81516001600160401b03811115612c9e57600080fd5b82016103208185031215612cb157600080fd5b612cb9611ecb565b81516001600160401b03811115612ccf57600080fd5b8201601f81018613612ce057600080fd5b8051612cee611f9b82612687565b818152876020838501011115612d0357600080fd5b60005b82811015612d2257602081850181015183830182015201612d06565b50600060209282018301528352838101519083015250612d458560408401612a6f565b6040820152612d578560c08401612ad7565b6060820152612d6a856102208401612bd5565b60808201526129e56103008301612c6b565b634e487b7160e01b600052602160045260246000fd5b600060018201612da457612da4612a22565b5060010190565b600082612dc857634e487b7160e01b600052601260045260246000fd5b500490565b60ff8181168382160190811115610ff957610ff9612a22565b8082028115828204841417610ff957610ff9612a22565b60ff8181168382160290811690818114610aef57610aef612a22565b600081810b9083900b01607f8113607f1982121715610ff957610ff9612a2256fea264697066735822122028da0c092c7578106419cff6f018243d458f6650f7fb3891227228edf27b71a964736f6c634300081c0033",
  "linkReferences": {},
  "deployedLinkReferences": {}
}