{
  "_format": "hh-sol-artifact-1",
  "contractName": "ShipPurchaser",
  "sourceName": "contracts/ShipPurchaser.sol",
  "abi": [
    {
      "inputs": [
        {
          "internalType": "address",
          "name": "_ships",
          "type": "address"
        },
        {
          "internalType": "address",
          "name": "_universalCredits",
          "type": "address"
        }
      ],
      "stateMutability": "nonpayable",
      "type": "constructor"
    },
    {
      "inputs": [],
      "name": "ArrayLengthMismatch",
      "type": "error"
    },
    {
      "inputs": [
        {
          "internalType": "uint256",
          "name": "_required",
          "type": "uint256"
        },
        {
          "internalType": "uint256",
          "name": "_available",
          "type": "uint256"
        }
      ],
      "name": "InsufficientFunds",
      "type": "error"
    },
    {
      "inputs": [
        {
          "internalType": "uint256",
          "name": "_tier",
          "type": "uint256"
        },
        {
          "internalType": "uint256",
          "name": "_amount",
          "type": "uint256"
        }
      ],
      "name": "InvalidPurchase",
      "type": "error"
    },
    {
      "inputs": [],
      "name": "InvalidReferral",
      "type": "error"
    },
    {
      "inputs": [
        {
          "internalType": "address",
          "name": "",
          "type": "address"
        }
      ],
      "name": "NotAuthorized",
      "type": "error"
    },
    {
      "inputs": [
        {
          "internalType": "address",
          "name": "owner",
          "type": "address"
        }
      ],
      "name": "OwnableInvalidOwner",
      "type": "error"
    },
    {
      "inputs": [
        {
          "internalType": "address",
          "name": "account",
          "type": "address"
        }
      ],
      "name": "OwnableUnauthorizedAccount",
      "type": "error"
    },
    {
      "inputs": [],
      "name": "ReentrancyGuardReentrantCall",
      "type": "error"
    },
    {
      "anonymous": false,
      "inputs": [
        {
          "indexed": true,
          "internalType": "address",
          "name": "previousOwner",
          "type": "address"
        },
        {
          "indexed": true,
          "internalType": "address",
          "name": "newOwner",
          "type": "address"
        }
      ],
      "name": "OwnershipTransferred",
      "type": "event"
    },
    {
      "inputs": [],
      "name": "getPurchaseInfo",
      "outputs": [
        {
          "internalType": "uint8[]",
          "name": "",
          "type": "uint8[]"
        },
        {
          "internalType": "uint256[]",
          "name": "",
          "type": "uint256[]"
        }
      ],
      "stateMutability": "view",
      "type": "function"
    },
    {
      "inputs": [
        {
          "internalType": "address",
          "name": "",
          "type": "address"
        }
      ],
      "name": "isAllowedToCreateShips",
      "outputs": [
        {
          "internalType": "bool",
          "name": "",
          "type": "bool"
        }
      ],
      "stateMutability": "view",
      "type": "function"
    },
    {
      "inputs": [],
      "name": "owner",
      "outputs": [
        {
          "internalType": "address",
          "name": "",
          "type": "address"
        }
      ],
      "stateMutability": "view",
      "type": "function"
    },
    {
      "inputs": [
        {
          "internalType": "address",
          "name": "_to",
          "type": "address"
        },
        {
          "internalType": "uint256",
          "name": "_tier",
          "type": "uint256"
        }
      ],
      "name": "purchaseUTCWithFlow",
      "outputs": [],
      "stateMutability": "payable",
      "type": "function"
    },
    {
      "inputs": [
        {
          "internalType": "address",
          "name": "_to",
          "type": "address"
        },
        {
          "internalType": "uint8",
          "name": "_tier",
          "type": "uint8"
        },
        {
          "internalType": "address",
          "name": "_referral",
          "type": "address"
        },
        {
          "internalType": "uint16",
          "name": "_variant",
          "type": "uint16"
        }
      ],
      "name": "purchaseWithUC",
      "outputs": [],
      "stateMutability": "nonpayable",
      "type": "function"
    },
    {
      "inputs": [
        {
          "internalType": "address",
          "name": "",
          "type": "address"
        }
      ],
      "name": "referralCount",
      "outputs": [
        {
          "internalType": "uint256",
          "name": "",
          "type": "uint256"
        }
      ],
      "stateMutability": "view",
      "type": "function"
    },
    {
      "inputs": [
        {
          "internalType": "uint256",
          "name": "",
          "type": "uint256"
        }
      ],
      "name": "referralPercentages",
      "outputs": [
        {
          "internalType": "uint8",
          "name": "",
          "type": "uint8"
        }
      ],
      "stateMutability": "view",
      "type": "function"
    },
    {
      "inputs": [
        {
          "internalType": "uint256",
          "name": "",
          "type": "uint256"
        }
      ],
      "name": "referralStages",
      "outputs": [
        {
          "internalType": "uint32",
          "name": "",
          "type": "uint32"
        }
      ],
      "stateMutability": "view",
      "type": "function"
    },
    {
      "inputs": [],
      "name": "renounceOwnership",
      "outputs": [],
      "stateMutability": "nonpayable",
      "type": "function"
    },
    {
      "inputs": [
        {
          "internalType": "uint8[]",
          "name": "_tierShips",
          "type": "uint8[]"
        },
        {
          "internalType": "uint256[]",
          "name": "_tierPrices",
          "type": "uint256[]"
        }
      ],
      "name": "setPurchaseInfo",
      "outputs": [],
      "stateMutability": "nonpayable",
      "type": "function"
    },
    {
      "inputs": [],
      "name": "ships",
      "outputs": [
        {
          "internalType": "contract IShips",
          "name": "",
          "type": "address"
        }
      ],
      "stateMutability": "view",
      "type": "function"
    },
    {
      "inputs": [
        {
          "internalType": "uint256",
          "name": "",
          "type": "uint256"
        }
      ],
      "name": "tierPrices",
      "outputs": [
        {
          "internalType": "uint256",
          "name": "",
          "type": "uint256"
        }
      ],
      "stateMutability": "view",
      "type": "function"
    },
    {
      "inputs": [
        {
          "internalType": "uint256",
          "name": "",
          "type": "uint256"
        }
      ],
      "name": "tierShips",
      "outputs": [
        {
          "internalType": "uint8",
          "name": "",
          "type": "uint8"
        }
      ],
      "stateMutability": "view",
      "type": "function"
    },
    {
      "inputs": [
        {
          "internalType": "address",
          "name": "newOwner",
          "type": "address"
        }
      ],
      "name": "transferOwnership",
      "outputs": [],
      "stateMutability": "nonpayable",
      "type": "function"
    },
    {
      "inputs": [],
      "name": "universalCredits",
      "outputs": [
        {
          "internalType": "contract IERC20",
          "name": "",
          "type": "address"
        }
      ],
      "stateMutability": "view",
      "type": "function"
    },
    {
      "inputs": [],
      "name": "universalCreditsMintable",
      "outputs": [
        {
          "internalType": "contract IUniversalCredits",
          "name": "",
          "type": "address"
        }
      ],
      "stateMutability": "view",
      "type": "function"
    },
    {
      "inputs": [],
      "name": "withdrawFlow",
      "outputs": [],
      "stateMutability": "nonpayable",
      "type": "function"
    },
    {
      "inputs": [],
      "name": "withdrawUC",
      "outputs": [],
      "stateMutability": "nonpayable",
      "type": "function"
    }
  ],
  "bytecode": "0x610180604052600060e0908152600a610100526014610120526023610140526032610160526100329060029060056101dc565b50604080516080810182526103e88152612710602082015261c35091810191909152620186a0606082015261006b906003906004610282565b5034801561007857600080fd5b506040516117e63803806117e683398101604081905261009791610395565b33806100bd57604051631e4fbdf760e01b81526000600482015260240160405180910390fd5b6100c68161018c565b50600180556001600160a01b03808316608090815290821660a081815260c0919091526040805191820181526005808352600b602084015260169183019190915260286060830152603c9282019290925261012491600491906101dc565b506040805160a0810182526745400a8fd53300008152678aa39c121a27000060208201526801156abf16a40f0000918101919091526801e595739d72eb000060608201526802b5c0282441c700006080820152610184906005908161031e565b5050506103c8565b600080546001600160a01b038381166001600160a01b0319831681178455604051919092169283917f8be0079c531659141344cd1fd0a4f28419497f9722a3daafe3b4186f6b6457e09190a35050565b82805482825590600052602060002090601f016020900481019282156102725791602002820160005b8382111561024357835183826101000a81548160ff021916908360ff1602179055509260200192600101602081600001049283019260010302610205565b80156102705782816101000a81549060ff0219169055600101602081600001049283019260010302610243565b505b5061027e929150610364565b5090565b828054828255906000526020600020906007016008900481019282156102725791602002820160005b838211156102ee57835183826101000a81548163ffffffff021916908362ffffff16021790555092602001926004016020816003010492830192600103026102ab565b80156102705782816101000a81549063ffffffff02191690556004016020816003010492830192600103026102ee565b828054828255906000526020600020908101928215610272579160200282015b8281111561027257825182906001600160481b031690559160200191906001019061033e565b5b8082111561027e5760008155600101610365565b80516001600160a01b038116811461039057600080fd5b919050565b600080604083850312156103a857600080fd5b6103b183610379565b91506103bf60208401610379565b90509250929050565b60805160a05160c0516113be610428600039600081816101200152610b12015260008181610188015281816103fe0152818161047501528181610688015281816107490152610d8801526000818161033a015261083801526113be6000f3fe6080604052600436106101095760003560e01c806375bfe42011610095578063b662abf511610064578063b662abf514610308578063bbf8218a14610328578063cfca9a7f1461035c578063db74559b14610391578063f2fde38b146103be57600080fd5b806375bfe420146102825780637fb0acfa146102c25780638da5cb5b146102d7578063ad15d107146102f557600080fd5b8063300eccab116100dc578063300eccab146101ca57806343e66ab1146101f857806348cfc19e14610218578063612124311461023b578063715018a61461026d57600080fd5b80630de858661461010e57806312ac049e1461015f57806317225941146101765780631a0111aa146101aa575b600080fd5b34801561011a57600080fd5b506101427f000000000000000000000000000000000000000000000000000000000000000081565b6040516001600160a01b0390911681526020015b60405180910390f35b34801561016b57600080fd5b506101746103de565b005b34801561018257600080fd5b506101427f000000000000000000000000000000000000000000000000000000000000000081565b3480156101b657600080fd5b506101746101c536600461107e565b610570565b3480156101d657600080fd5b506101ea6101e5366004611147565b6105c6565b604051908152602001610156565b34801561020457600080fd5b50610174610213366004611177565b6105e7565b34801561022457600080fd5b5061022d6108b1565b6040516101569291906111d4565b34801561024757600080fd5b5061025b610256366004611147565b610982565b60405160ff9091168152602001610156565b34801561027957600080fd5b506101746109b6565b34801561028e57600080fd5b506102b261029d366004611259565b60076020526000908152604090205460ff1681565b6040519015158152602001610156565b3480156102ce57600080fd5b506101746109ca565b3480156102e357600080fd5b506000546001600160a01b0316610142565b61017461030336600461127b565b610a6e565b34801561031457600080fd5b5061025b610323366004611147565b610b7c565b34801561033457600080fd5b506101427f000000000000000000000000000000000000000000000000000000000000000081565b34801561036857600080fd5b5061037c610377366004611147565b610b8c565b60405163ffffffff9091168152602001610156565b34801561039d57600080fd5b506101ea6103ac366004611259565b60066020526000908152604090205481565b3480156103ca57600080fd5b506101746103d9366004611259565b610bc6565b6103e6610c01565b6040516370a0823160e01b81523060048201526000907f00000000000000000000000000000000000000000000000000000000000000006001600160a01b0316906370a0823190602401602060405180830381865afa15801561044d573d6000803e3d6000fd5b505050506040513d601f19601f8201168201806040525081019061047191906112a5565b90507f00000000000000000000000000000000000000000000000000000000000000006001600160a01b031663a9059cbb6104b46000546001600160a01b031690565b6040516001600160e01b031960e084901b1681526001600160a01b039091166004820152602481018490526044016020604051808303816000875af1158015610501573d6000803e3d6000fd5b505050506040513d601f19601f8201168201806040525081019061052591906112be565b61056d5760405162461bcd60e51b81526020600482015260146024820152731550c81dda5d1a191c985dd85b0819985a5b195960621b60448201526064015b60405180910390fd5b50565b610578610c01565b805182511461059a5760405163512509d360e11b815260040160405180910390fd5b81516105ad906004906020850190610e9a565b5080516105c1906005906020840190610f40565b505050565b600581815481106105d657600080fd5b600091825260209091200154905081565b6105ef610c2e565b6001600160a01b0382166106165760405163119833d760e11b815260040160405180910390fd5b600060048460ff168154811061062e5761062e6112e0565b6000918252602080832090820401546005805460ff601f9094166101000a90920483169450918716908110610665576106656112e0565b60009182526020822001546040516370a0823160e01b81523360048201529092507f00000000000000000000000000000000000000000000000000000000000000006001600160a01b0316906370a0823190602401602060405180830381865afa1580156106d7573d6000803e3d6000fd5b505050506040513d601f19601f820116820180604052508101906106fb91906112a5565b9050818110156107275760405162fae2d560e21b81526004810183905260248101829052604401610564565b6040516323b872dd60e01b8152336004820152306024820152604481018390527f00000000000000000000000000000000000000000000000000000000000000006001600160a01b0316906323b872dd906064016020604051808303816000875af115801561079a573d6000803e3d6000fd5b505050506040513d601f19601f820116820180604052508101906107be91906112be565b6107ff5760405162461bcd60e51b81526020600482015260126024820152711550c81d1c985b9cd9995c8819985a5b195960721b6044820152606401610564565b604051631e3ea40760e21b81526001600160a01b0388811660048301526024820185905261ffff8616604483015260ff881660648301527f000000000000000000000000000000000000000000000000000000000000000016906378fa901c90608401600060405180830381600087803b15801561087c57600080fd5b505af1158015610890573d6000803e3d6000fd5b5050505061089f858484610c58565b5050506108ab60018055565b50505050565b606080600460058180548060200260200160405190810160405280929190818152602001828054801561092157602002820191906000526020600020906000905b825461010083900a900460ff168152602060019283018181049485019490930390920291018084116108f25790505b505050505091508080548060200260200160405190810160405280929190818152602001828054801561097357602002820191906000526020600020905b81548152602001906001019080831161095f575b50505050509050915091509091565b6004818154811061099257600080fd5b9060005260206000209060209182820401919006915054906101000a900460ff1681565b6109be610c01565b6109c86000610e4a565b565b6109d2610c01565b600080546040516001600160a01b039091169047908381818185875af1925050503d8060008114610a1f576040519150601f19603f3d011682016040523d82523d6000602084013e610a24565b606091505b505090508061056d5760405162461bcd60e51b8152602060048201526016602482015275119313d5c81dda5d1a191c985dd85b0819985a5b195960521b6044820152606401610564565b610a76610c2e565b6005548110610aa1576040516312a1605d60e31b815260048101829052346024820152604401610564565b600060058281548110610ab657610ab66112e0565b90600052602060002001549050803414610aec576040516312a1605d60e31b815260048101839052346024820152604401610564565b6040516340c10f1960e01b81526001600160a01b038481166004830152602482018390527f000000000000000000000000000000000000000000000000000000000000000016906340c10f1990604401600060405180830381600087803b158015610b5657600080fd5b505af1158015610b6a573d6000803e3d6000fd5b5050505050610b7860018055565b5050565b6002818154811061099257600080fd5b60038181548110610b9c57600080fd5b9060005260206000209060089182820401919006600402915054906101000a900463ffffffff1681565b610bce610c01565b6001600160a01b038116610bf857604051631e4fbdf760e01b815260006004820152602401610564565b61056d81610e4a565b6000546001600160a01b031633146109c85760405163118cdaa760e01b8152336004820152602401610564565b600260015403610c5157604051633ee5aeb560e01b815260040160405180910390fd5b6002600155565b6001600160a01b03831660009081526006602052604081208054849290610c8090849061130c565b90915550506003546000905b8015610d46576003610c9f600183611325565b81548110610caf57610caf6112e0565b600091825260208083206008830401546001600160a01b0389168452600690915260409092205460079091166004026101000a90910463ffffffff1611610d34576002610cfd600183611325565b81548110610d0d57610d0d6112e0565b60009182526020918290209181049091015460ff601f9092166101000a9004169150610d46565b80610d3e81611338565b915050610c8c565b5060006064610d55838561134f565b610d5f9190611366565b60405163a9059cbb60e01b81526001600160a01b038781166004830152602482018390529192507f00000000000000000000000000000000000000000000000000000000000000009091169063a9059cbb906044016020604051808303816000875af1158015610dd3573d6000803e3d6000fd5b505050506040513d601f19601f82011682018060405250810190610df791906112be565b610e435760405162461bcd60e51b815260206004820152601860248201527f526566657272616c207472616e73666572206661696c656400000000000000006044820152606401610564565b5050505050565b600080546001600160a01b038381166001600160a01b0319831681178455604051919092169283917f8be0079c531659141344cd1fd0a4f28419497f9722a3daafe3b4186f6b6457e09190a35050565b82805482825590600052602060002090601f01602090048101928215610f305791602002820160005b83821115610f0157835183826101000a81548160ff021916908360ff1602179055509260200192600101602081600001049283019260010302610ec3565b8015610f2e5782816101000a81549060ff0219169055600101602081600001049283019260010302610f01565b505b50610f3c929150610f7b565b5090565b828054828255906000526020600020908101928215610f30579160200282015b82811115610f30578251825591602001919060010190610f60565b5b80821115610f3c5760008155600101610f7c565b634e487b7160e01b600052604160045260246000fd5b604051601f8201601f1916810167ffffffffffffffff81118282101715610fcf57610fcf610f90565b604052919050565b600067ffffffffffffffff821115610ff157610ff1610f90565b5060051b60200190565b803560ff8116811461100c57600080fd5b919050565b600082601f83011261102257600080fd5b813561103561103082610fd7565b610fa6565b8082825260208201915060208360051b86010192508583111561105757600080fd5b602085015b8381101561107457803583526020928301920161105c565b5095945050505050565b6000806040838503121561109157600080fd5b823567ffffffffffffffff8111156110a857600080fd5b8301601f810185136110b957600080fd5b80356110c761103082610fd7565b8082825260208201915060208360051b8501019250878311156110e957600080fd5b6020840193505b828410156111125761110184610ffb565b8252602093840193909101906110f0565b9450505050602083013567ffffffffffffffff81111561113157600080fd5b61113d85828601611011565b9150509250929050565b60006020828403121561115957600080fd5b5035919050565b80356001600160a01b038116811461100c57600080fd5b6000806000806080858703121561118d57600080fd5b61119685611160565b93506111a460208601610ffb565b92506111b260408601611160565b9150606085013561ffff811681146111c957600080fd5b939692955090935050565b6040808252835190820181905260009060208501906060840190835b8181101561121157835160ff168352602093840193909201916001016111f0565b50508381036020808601919091528551808352918101925085019060005b8181101561124d57825184526020938401939092019160010161122f565b50919695505050505050565b60006020828403121561126b57600080fd5b61127482611160565b9392505050565b6000806040838503121561128e57600080fd5b61129783611160565b946020939093013593505050565b6000602082840312156112b757600080fd5b5051919050565b6000602082840312156112d057600080fd5b8151801515811461127457600080fd5b634e487b7160e01b600052603260045260246000fd5b634e487b7160e01b600052601160045260246000fd5b8082018082111561131f5761131f6112f6565b92915050565b8181038181111561131f5761131f6112f6565b600081611347576113476112f6565b506000190190565b808202811582820484141761131f5761131f6112f6565b60008261138357634e487b7160e01b600052601260045260246000fd5b50049056fea26469706673582212206cb134248b38aa7d1ea987067c901da8717ac5948e5e00f9ca4a153ae6569c0964736f6c634300081c0033",
  "linkReferences": {},
  "deployedLinkReferences": {}
}