{
  "_format": "hh-sol-artifact-1",
  "contractName": "Maps",
  "sourceName": "contracts/Maps.sol",
  "abi": [
    {
      "inputs": [],
      "stateMutability": "nonpayable",
      "type": "constructor"
    },
    {
      "inputs": [],
      "name": "InvalidPosition",
      "type": "error"
    },
    {
      "inputs": [],
      "name": "MapNotFound",
      "type": "error"
    },
    {
      "inputs": [],
      "name": "NotGameContract",
      "type": "error"
    },
    {
      "inputs": [
        {
          "internalType": "address",
          "name": "owner",
          "type": "address"
        }
      ],
      "name": "OwnableInvalidOwner",
      "type": "error"
    },
    {
      "inputs": [
        {
          "internalType": "address",
          "name": "account",
          "type": "address"
        }
      ],
      "name": "OwnableUnauthorizedAccount",
      "type": "error"
    },
    {
      "anonymous": false,
      "inputs": [
        {
          "indexed": true,
          "internalType": "address",
          "name": "previousOwner",
          "type": "address"
        },
        {
          "indexed": true,
          "internalType": "address",
          "name": "newOwner",
          "type": "address"
        }
      ],
      "name": "OwnershipTransferred",
      "type": "event"
    },
    {
      "inputs": [],
      "name": "GRID_HEIGHT",
      "outputs": [
        {
          "internalType": "int16",
          "name": "",
          "type": "int16"
        }
      ],
      "stateMutability": "view",
      "type": "function"
    },
    {
      "inputs": [],
      "name": "GRID_WIDTH",
      "outputs": [
        {
          "internalType": "int16",
          "name": "",
          "type": "int16"
        }
      ],
      "stateMutability": "view",
      "type": "function"
    },
    {
      "inputs": [
        {
          "internalType": "uint256",
          "name": "_gameId",
          "type": "uint256"
        },
        {
          "internalType": "uint256",
          "name": "_mapId",
          "type": "uint256"
        }
      ],
      "name": "applyPresetMapToGame",
      "outputs": [],
      "stateMutability": "nonpayable",
      "type": "function"
    },
    {
      "inputs": [
        {
          "internalType": "uint256",
          "name": "_gameId",
          "type": "uint256"
        },
        {
          "internalType": "uint256",
          "name": "_mapId",
          "type": "uint256"
        }
      ],
      "name": "applyPresetScoringMapToGame",
      "outputs": [],
      "stateMutability": "nonpayable",
      "type": "function"
    },
    {
      "inputs": [
        {
          "internalType": "uint256",
          "name": "",
          "type": "uint256"
        },
        {
          "internalType": "int16",
          "name": "",
          "type": "int16"
        },
        {
          "internalType": "int16",
          "name": "",
          "type": "int16"
        }
      ],
      "name": "blockedTiles",
      "outputs": [
        {
          "internalType": "bool",
          "name": "",
          "type": "bool"
        }
      ],
      "stateMutability": "view",
      "type": "function"
    },
    {
      "inputs": [
        {
          "components": [
            {
              "internalType": "int16",
              "name": "row",
              "type": "int16"
            },
            {
              "internalType": "int16",
              "name": "col",
              "type": "int16"
            }
          ],
          "internalType": "struct Position[]",
          "name": "_blockedPositions",
          "type": "tuple[]"
        },
        {
          "components": [
            {
              "internalType": "int16",
              "name": "row",
              "type": "int16"
            },
            {
              "internalType": "int16",
              "name": "col",
              "type": "int16"
            },
            {
              "internalType": "uint8",
              "name": "points",
              "type": "uint8"
            },
            {
              "internalType": "bool",
              "name": "onlyOnce",
              "type": "bool"
            }
          ],
          "internalType": "struct ScoringPosition[]",
          "name": "_scoringPositions",
          "type": "tuple[]"
        }
      ],
      "name": "createPresetMap",
      "outputs": [],
      "stateMutability": "nonpayable",
      "type": "function"
    },
    {
      "inputs": [
        {
          "components": [
            {
              "internalType": "int16",
              "name": "row",
              "type": "int16"
            },
            {
              "internalType": "int16",
              "name": "col",
              "type": "int16"
            }
          ],
          "internalType": "struct Position[]",
          "name": "_blockedPositions",
          "type": "tuple[]"
        }
      ],
      "name": "createPresetMap",
      "outputs": [],
      "stateMutability": "nonpayable",
      "type": "function"
    },
    {
      "inputs": [
        {
          "components": [
            {
              "internalType": "int16",
              "name": "row",
              "type": "int16"
            },
            {
              "internalType": "int16",
              "name": "col",
              "type": "int16"
            },
            {
              "internalType": "uint8",
              "name": "points",
              "type": "uint8"
            },
            {
              "internalType": "bool",
              "name": "onlyOnce",
              "type": "bool"
            }
          ],
          "internalType": "struct ScoringPosition[]",
          "name": "_scoringPositions",
          "type": "tuple[]"
        }
      ],
      "name": "createPresetScoringMap",
      "outputs": [],
      "stateMutability": "nonpayable",
      "type": "function"
    },
    {
      "inputs": [],
      "name": "gameAddress",
      "outputs": [
        {
          "internalType": "address",
          "name": "",
          "type": "address"
        }
      ],
      "stateMutability": "view",
      "type": "function"
    },
    {
      "inputs": [],
      "name": "getAllPresetMapIds",
      "outputs": [
        {
          "internalType": "uint256[]",
          "name": "mapIds",
          "type": "uint256[]"
        }
      ],
      "stateMutability": "view",
      "type": "function"
    },
    {
      "inputs": [],
      "name": "getAllPresetMaps",
      "outputs": [
        {
          "internalType": "uint256[]",
          "name": "mapIds",
          "type": "uint256[]"
        },
        {
          "components": [
            {
              "internalType": "int16",
              "name": "row",
              "type": "int16"
            },
            {
              "internalType": "int16",
              "name": "col",
              "type": "int16"
            }
          ],
          "internalType": "struct Position[][]",
          "name": "blockedPositions",
          "type": "tuple[][]"
        },
        {
          "components": [
            {
              "internalType": "int16",
              "name": "row",
              "type": "int16"
            },
            {
              "internalType": "int16",
              "name": "col",
              "type": "int16"
            },
            {
              "internalType": "uint8",
              "name": "points",
              "type": "uint8"
            },
            {
              "internalType": "bool",
              "name": "onlyOnce",
              "type": "bool"
            }
          ],
          "internalType": "struct ScoringPosition[][]",
          "name": "scoringPositions",
          "type": "tuple[][]"
        }
      ],
      "stateMutability": "view",
      "type": "function"
    },
    {
      "inputs": [
        {
          "internalType": "uint256",
          "name": "_gameId",
          "type": "uint256"
        }
      ],
      "name": "getGameMapState",
      "outputs": [
        {
          "components": [
            {
              "internalType": "int16",
              "name": "row",
              "type": "int16"
            },
            {
              "internalType": "int16",
              "name": "col",
              "type": "int16"
            }
          ],
          "internalType": "struct Position[]",
          "name": "blockedPositions",
          "type": "tuple[]"
        },
        {
          "components": [
            {
              "internalType": "int16",
              "name": "row",
              "type": "int16"
            },
            {
              "internalType": "int16",
              "name": "col",
              "type": "int16"
            },
            {
              "internalType": "uint8",
              "name": "points",
              "type": "uint8"
            },
            {
              "internalType": "bool",
              "name": "onlyOnce",
              "type": "bool"
            }
          ],
          "internalType": "struct ScoringPosition[]",
          "name": "scoringPositions",
          "type": "tuple[]"
        }
      ],
      "stateMutability": "view",
      "type": "function"
    },
    {
      "inputs": [
        {
          "internalType": "uint256",
          "name": "_mapId",
          "type": "uint256"
        }
      ],
      "name": "getPresetMap",
      "outputs": [
        {
          "components": [
            {
              "internalType": "int16",
              "name": "row",
              "type": "int16"
            },
            {
              "internalType": "int16",
              "name": "col",
              "type": "int16"
            }
          ],
          "internalType": "struct Position[]",
          "name": "",
          "type": "tuple[]"
        }
      ],
      "stateMutability": "view",
      "type": "function"
    },
    {
      "inputs": [
        {
          "internalType": "uint256",
          "name": "_mapId",
          "type": "uint256"
        }
      ],
      "name": "getPresetScoringMap",
      "outputs": [
        {
          "components": [
            {
              "internalType": "int16",
              "name": "row",
              "type": "int16"
            },
            {
              "internalType": "int16",
              "name": "col",
              "type": "int16"
            },
            {
              "internalType": "uint8",
              "name": "points",
              "type": "uint8"
            },
            {
              "internalType": "bool",
              "name": "onlyOnce",
              "type": "bool"
            }
          ],
          "internalType": "struct ScoringPosition[]",
          "name": "",
          "type": "tuple[]"
        }
      ],
      "stateMutability": "view",
      "type": "function"
    },
    {
      "inputs": [
        {
          "internalType": "uint256",
          "name": "_gameId",
          "type": "uint256"
        },
        {
          "internalType": "int16",
          "name": "_row",
          "type": "int16"
        },
        {
          "internalType": "int16",
          "name": "_col",
          "type": "int16"
        }
      ],
      "name": "getScoreAndZeroOut",
      "outputs": [
        {
          "internalType": "uint8",
          "name": "",
          "type": "uint8"
        }
      ],
      "stateMutability": "nonpayable",
      "type": "function"
    },
    {
      "inputs": [
        {
          "internalType": "uint256",
          "name": "_gameId",
          "type": "uint256"
        },
        {
          "internalType": "int16",
          "name": "_row0",
          "type": "int16"
        },
        {
          "internalType": "int16",
          "name": "_col0",
          "type": "int16"
        },
        {
          "internalType": "int16",
          "name": "_row1",
          "type": "int16"
        },
        {
          "internalType": "int16",
          "name": "_col1",
          "type": "int16"
        }
      ],
      "name": "hasMaps",
      "outputs": [
        {
          "internalType": "bool",
          "name": "",
          "type": "bool"
        }
      ],
      "stateMutability": "view",
      "type": "function"
    },
    {
      "inputs": [
        {
          "internalType": "uint256",
          "name": "_gameId",
          "type": "uint256"
        },
        {
          "internalType": "int16",
          "name": "_row",
          "type": "int16"
        },
        {
          "internalType": "int16",
          "name": "_col",
          "type": "int16"
        }
      ],
      "name": "isTileBlocked",
      "outputs": [
        {
          "internalType": "bool",
          "name": "",
          "type": "bool"
        }
      ],
      "stateMutability": "view",
      "type": "function"
    },
    {
      "inputs": [
        {
          "internalType": "uint256",
          "name": "_gameId",
          "type": "uint256"
        },
        {
          "internalType": "int16",
          "name": "_row",
          "type": "int16"
        },
        {
          "internalType": "int16",
          "name": "_col",
          "type": "int16"
        }
      ],
      "name": "isTileScoring",
      "outputs": [
        {
          "internalType": "uint8",
          "name": "",
          "type": "uint8"
        }
      ],
      "stateMutability": "view",
      "type": "function"
    },
    {
      "inputs": [
        {
          "internalType": "uint256",
          "name": "_gameId",
          "type": "uint256"
        },
        {
          "internalType": "int16",
          "name": "_row",
          "type": "int16"
        },
        {
          "internalType": "int16",
          "name": "_col",
          "type": "int16"
        }
      ],
      "name": "isTileScoringSafe",
      "outputs": [
        {
          "internalType": "uint8",
          "name": "",
          "type": "uint8"
        }
      ],
      "stateMutability": "view",
      "type": "function"
    },
    {
      "inputs": [],
      "name": "mapCount",
      "outputs": [
        {
          "internalType": "uint256",
          "name": "",
          "type": "uint256"
        }
      ],
      "stateMutability": "view",
      "type": "function"
    },
    {
      "inputs": [
        {
          "internalType": "uint256",
          "name": "_mapId",
          "type": "uint256"
        }
      ],
      "name": "mapExists",
      "outputs": [
        {
          "internalType": "bool",
          "name": "",
          "type": "bool"
        }
      ],
      "stateMutability": "view",
      "type": "function"
    },
    {
      "inputs": [
        {
          "internalType": "uint256",
          "name": "",
          "type": "uint256"
        },
        {
          "internalType": "int16",
          "name": "",
          "type": "int16"
        },
        {
          "internalType": "int16",
          "name": "",
          "type": "int16"
        }
      ],
      "name": "onlyOnceTiles",
      "outputs": [
        {
          "internalType": "bool",
          "name": "",
          "type": "bool"
        }
      ],
      "stateMutability": "view",
      "type": "function"
    },
    {
      "inputs": [],
      "name": "owner",
      "outputs": [
        {
          "internalType": "address",
          "name": "",
          "type": "address"
        }
      ],
      "stateMutability": "view",
      "type": "function"
    },
    {
      "inputs": [
        {
          "internalType": "uint256",
          "name": "",
          "type": "uint256"
        },
        {
          "internalType": "int16",
          "name": "",
          "type": "int16"
        },
        {
          "internalType": "int16",
          "name": "",
          "type": "int16"
        }
      ],
      "name": "presetBlockedMaps",
      "outputs": [
        {
          "internalType": "bool",
          "name": "",
          "type": "bool"
        }
      ],
      "stateMutability": "view",
      "type": "function"
    },
    {
      "inputs": [
        {
          "internalType": "uint256",
          "name": "",
          "type": "uint256"
        },
        {
          "internalType": "int16",
          "name": "",
          "type": "int16"
        },
        {
          "internalType": "int16",
          "name": "",
          "type": "int16"
        }
      ],
      "name": "presetOnlyOnceMaps",
      "outputs": [
        {
          "internalType": "bool",
          "name": "",
          "type": "bool"
        }
      ],
      "stateMutability": "view",
      "type": "function"
    },
    {
      "inputs": [
        {
          "internalType": "uint256",
          "name": "",
          "type": "uint256"
        },
        {
          "internalType": "int16",
          "name": "",
          "type": "int16"
        },
        {
          "internalType": "int16",
          "name": "",
          "type": "int16"
        }
      ],
      "name": "presetScoringMaps",
      "outputs": [
        {
          "internalType": "uint8",
          "name": "",
          "type": "uint8"
        }
      ],
      "stateMutability": "view",
      "type": "function"
    },
    {
      "inputs": [],
      "name": "renounceOwnership",
      "outputs": [],
      "stateMutability": "nonpayable",
      "type": "function"
    },
    {
      "inputs": [
        {
          "internalType": "uint256",
          "name": "",
          "type": "uint256"
        },
        {
          "internalType": "int16",
          "name": "",
          "type": "int16"
        },
        {
          "internalType": "int16",
          "name": "",
          "type": "int16"
        }
      ],
      "name": "scoringTiles",
      "outputs": [
        {
          "internalType": "uint8",
          "name": "",
          "type": "uint8"
        }
      ],
      "stateMutability": "view",
      "type": "function"
    },
    {
      "inputs": [
        {
          "internalType": "uint256",
          "name": "_gameId",
          "type": "uint256"
        },
        {
          "internalType": "int16",
          "name": "_row",
          "type": "int16"
        },
        {
          "internalType": "int16",
          "name": "_col",
          "type": "int16"
        },
        {
          "internalType": "bool",
          "name": "_blocked",
          "type": "bool"
        }
      ],
      "name": "setBlockedTile",
      "outputs": [],
      "stateMutability": "nonpayable",
      "type": "function"
    },
    {
      "inputs": [
        {
          "internalType": "address",
          "name": "_gameAddress",
          "type": "address"
        }
      ],
      "name": "setGameAddress",
      "outputs": [],
      "stateMutability": "nonpayable",
      "type": "function"
    },
    {
      "inputs": [
        {
          "internalType": "uint256",
          "name": "_gameId",
          "type": "uint256"
        },
        {
          "internalType": "int16",
          "name": "_row",
          "type": "int16"
        },
        {
          "internalType": "int16",
          "name": "_col",
          "type": "int16"
        },
        {
          "internalType": "uint8",
          "name": "_points",
          "type": "uint8"
        }
      ],
      "name": "setScoringTile",
      "outputs": [],
      "stateMutability": "nonpayable",
      "type": "function"
    },
    {
      "inputs": [
        {
          "internalType": "address",
          "name": "newOwner",
          "type": "address"
        }
      ],
      "name": "transferOwnership",
      "outputs": [],
      "stateMutability": "nonpayable",
      "type": "function"
    },
    {
      "inputs": [
        {
          "internalType": "uint256",
          "name": "_mapId",
          "type": "uint256"
        },
        {
          "components": [
            {
              "internalType": "int16",
              "name": "row",
              "type": "int16"
            },
            {
              "internalType": "int16",
              "name": "col",
              "type": "int16"
            }
          ],
          "internalType": "struct Position[]",
          "name": "_blockedPositions",
          "type": "tuple[]"
        }
      ],
      "name": "updatePresetMap",
      "outputs": [],
      "stateMutability": "nonpayable",
      "type": "function"
    },
    {
      "inputs": [
        {
          "internalType": "uint256",
          "name": "_mapId",
          "type": "uint256"
        },
        {
          "components": [
            {
              "internalType": "int16",
              "name": "row",
              "type": "int16"
            },
            {
              "internalType": "int16",
              "name": "col",
              "type": "int16"
            }
          ],
          "internalType": "struct Position[]",
          "name": "_blockedPositions",
          "type": "tuple[]"
        },
        {
          "components": [
            {
              "internalType": "int16",
              "name": "row",
              "type": "int16"
            },
            {
              "internalType": "int16",
              "name": "col",
              "type": "int16"
            },
            {
              "internalType": "uint8",
              "name": "points",
              "type": "uint8"
            },
            {
              "internalType": "bool",
              "name": "onlyOnce",
              "type": "bool"
            }
          ],
          "internalType": "struct ScoringPosition[]",
          "name": "_scoringPositions",
          "type": "tuple[]"
        }
      ],
      "name": "updatePresetMap",
      "outputs": [],
      "stateMutability": "nonpayable",
      "type": "function"
    },
    {
      "inputs": [
        {
          "internalType": "uint256",
          "name": "_mapId",
          "type": "uint256"
        },
        {
          "components": [
            {
              "internalType": "int16",
              "name": "row",
              "type": "int16"
            },
            {
              "internalType": "int16",
              "name": "col",
              "type": "int16"
            },
            {
              "internalType": "uint8",
              "name": "points",
              "type": "uint8"
            },
            {
              "internalType": "bool",
              "name": "onlyOnce",
              "type": "bool"
            }
          ],
          "internalType": "struct ScoringPosition[]",
          "name": "_scoringPositions",
          "type": "tuple[]"
        }
      ],
      "name": "updatePresetScoringMap",
      "outputs": [],
      "stateMutability": "nonpayable",
      "type": "function"
    }
  ],
  "bytecode": "0x6080604052348015600f57600080fd5b503380603557604051631e4fbdf760e01b81526000600482015260240160405180910390fd5b603c816041565b506091565b600080546001600160a01b038381166001600160a01b0319831681178455604051919092169283917f8be0079c531659141344cd1fd0a4f28419497f9722a3daafe3b4186f6b6457e09190a35050565b6130af806100a06000396000f3fe608060405234801561001057600080fd5b50600436106102115760003560e01c80638da5cb5b11610125578063d4a4affa116100ad578063f2fde38b1161007c578063f2fde38b14610543578063f342d00214610556578063f5ea3dc91461058a578063fae435b4146105a1578063fd844b6e146105c157600080fd5b8063d4a4affa146104f7578063dc32d63b1461050a578063dd91835e1461051d578063edc6e5551461053057600080fd5b8063c95eeaad116100f4578063c95eeaad1461043b578063c99655371461046f578063ccc0e352146104a3578063ce4693f8146104b6578063d0bc9bbb146104d657600080fd5b80638da5cb5b146103d957806396c95ece146103fe578063a168d87314610415578063a2ec85bc1461042857600080fd5b806357406856116101a8578063709faade11610177578063709faade14610385578063711953ef14610398578063715018a6146103ab5780638383c995146103b357806386e8a1a0146103c657600080fd5b806357406856146103185780635a1114e31461032b57806363228ab71461033e5780636858bd401461037257600080fd5b80633bf0684b116101e45780633bf0684b146102d35780633fa0bb06146102e857806341779f5b146102fb5780634bf11ad21461031057600080fd5b8063046e8d0b146102165780630a312b881461025f578063235e78eb14610293578063349370d0146102ae575b600080fd5b61024a61022436600461276f565b600160209081526000938452604080852082529284528284209052825290205460ff1681565b60405190151581526020015b60405180910390f35b61024a61026d36600461276f565b600560209081526000938452604080852082529284528284209052825290205460ff1681565b61029b601981565b60405160019190910b8152602001610256565b6102c16102bc36600461276f565b6105d4565b60405160ff9091168152602001610256565b6102e66102e13660046127ab565b610665565b005b6102e66102f6366004612a6f565b6107f3565b610303610809565b6040516102569190612b12565b61029b600d81565b6102e6610326366004612b25565b61089c565b61024a610339366004612b93565b610a8f565b6102c161034c36600461276f565b600360209081526000938452604080852082529284528284209052825290205460ff1681565b61024a61038036600461276f565b610aa8565b6102e6610393366004612bac565b610b29565b6102e66103a6366004612bf9565b610bc0565b6102e6610bea565b61024a6103c1366004612c22565b610bfe565b6102e66103d4366004612c80565b610cf1565b6000546001600160a01b03165b6040516001600160a01b039091168152602001610256565b610406610e5f565b60405161025693929190612d42565b6008546103e6906001600160a01b031681565b6102c161043636600461276f565b610ff8565b61024a61044936600461276f565b600660209081526000938452604080852082529284528284209052825290205460ff1681565b61024a61047d36600461276f565b600260209081526000938452604080852082529284528284209052825290205460ff1681565b6102e66104b1366004612e15565b611069565b6104c96104c4366004612b93565b6110bb565b6040516102569190612e51565b6104e96104e4366004612b93565b611273565b604051610256929190612e64565b6102e6610505366004612c80565b6115a6565b6102c161051836600461276f565b611784565b6102e661052b366004612e89565b6117d8565b6102e661053e366004612ebd565b611836565b6102e6610551366004612bf9565b6118ca565b6102c161056436600461276f565b600460209081526000938452604080852082529284528284209052825290205460ff1681565b61059360075481565b604051908152602001610256565b6105b46105af366004612b93565b61190a565b6040516102569190612eff565b6102e66105cf366004612f12565b611b18565b6000838152600360209081526040808320600186810b8086529184528285209086900b808652908452828520548886526005855283862092865291845282852090855290925282205460ff91821691161561065b576000858152600360209081526040808320600188810b85529083528184209087900b84529091529020805460ff191690555b90505b9392505050565b61066d611e4d565b82158061067b575060075483115b1561069957604051639ff5bfb960e01b815260040160405180910390fd5b60006106a484611e7a565b905060005b81518110156107125760008282815181106106c6576106c6612f82565b60209081029190910181015160008881526002835260408082208351600190810b845290855281832093850151810b83529290935291909120805460ff191690559190910190506106a9565b5060005b828110156107ec57600084848381811061073257610732612f82565b9050604002018036038101906107489190612f98565b90506000816000015160010b128061076857508051600d60019190910b12155b8061077a57506000816020015160010b125b806107905750601960010b816020015160010b12155b156107ae5760405163673f032f60e11b815260040160405180910390fd5b60008681526002602090815260408083208451600190810b855290835281842094830151810b8452939091529020805460ff19168217905501610716565b5050505050565b6107fb611e4d565b6108058282612028565b5050565b600754606090806001600160401b038111156108275761082761282a565b604051908082528060200260200182016040528015610850578160200160208202803683370190505b50915060015b81811161089757808361086a600183612fca565b8151811061087a5761087a612f82565b60209081029190910101528061088f81612fdd565b915050610856565b505090565b6108a4611e4d565b8215806108b2575060075483115b156108d057604051639ff5bfb960e01b815260040160405180910390fd5b60006108db84612225565b905060005b81518110156109735760008282815181106108fd576108fd612f82565b60209081029190910181015160008881526004835260408082208351600190810b84529085528183208486018051830b8552908652828420805460ff199081169091558c8552600687528385209551830b85529486528284209051820b84529094529020805490911690559190910190506108e0565b5060005b828110156107ec57600084848381811061099357610993612f82565b9050608002018036038101906109a99190612ff6565b90506000816000015160010b12806109c957508051600d60019190910b12155b806109db57506000816020015160010b125b806109f15750601960010b816020015160010b12155b15610a0f5760405163673f032f60e11b815260040160405180910390fd5b6040808201516000888152600460209081528382208551600190810b84529082528483208287018051830b8552908352858420805460ff90961660ff1996871617905560608701518c8552600684528685209751830b85529683528584209051820b84529091529290208054931515939091169290921790915501610977565b60008082118015610aa257506007548211155b92915050565b6000808360010b1280610ac05750600d600184900b12155b80610ace575060008260010b125b80610ade57506019600183900b12155b15610afc5760405163673f032f60e11b815260040160405180910390fd5b50600092835260016020818152604080862094830b86529381528385209290910b84525290205460ff1690565b610b31611e4d565b60008360010b1280610b485750600d600184900b12155b80610b56575060008260010b125b80610b6657506019600183900b12155b15610b845760405163673f032f60e11b815260040160405180910390fd5b6000938452600360209081526040808620600195860b875282528086209390940b8552919091529120805460ff191660ff909216919091179055565b610bc8611e4d565b600880546001600160a01b0319166001600160a01b0392909216919091179055565b610bf2611e4d565b610bfc6000612433565b565b6000808560010b1280610c165750600d600186900b12155b80610c24575060008460010b125b80610c3457506019600185900b12155b80610c42575060008360010b125b80610c525750600d600184900b12155b80610c60575060008260010b125b80610c7057506019600183900b12155b15610c8e5760405163673f032f60e11b815260040160405180910390fd5b610c99868686612483565b15610ca657506000610ce8565b8260010b8560010b148015610cc057508160010b8460010b145b15610cd857610cd0868484612483565b159050610ce8565b610ce586868686866124c6565b90505b95945050505050565b6008546001600160a01b03163314801590610d1757506000546001600160a01b03163314155b15610d3557604051636aff438160e11b815260040160405180910390fd5b801580610d43575060075481115b15610d6157604051639ff5bfb960e01b815260040160405180910390fd5b6000610d6c82612225565b905060005b8151811015610e59576000828281518110610d8e57610d8e612f82565b60209081029190910181015160008681526004835260408082208351600190810b84529085528183208486018051830b8552908652828420548b8552600387528385208651840b865287528385208251840b86528752838520805460ff1990811660ff938416179091558b8652600688528486208751850b875288528486208351850b87528852848620548d8752600589528587209751850b87529688528486209251840b865291909652919092208054939094161515921691909117909155919091019050610d71565b50505050565b606080606060006007549050806001600160401b03811115610e8357610e8361282a565b604051908082528060200260200182016040528015610eac578160200160208202803683370190505b509350806001600160401b03811115610ec757610ec761282a565b604051908082528060200260200182016040528015610efa57816020015b6060815260200190600190039081610ee55790505b509250806001600160401b03811115610f1557610f1561282a565b604051908082528060200260200182016040528015610f4857816020015b6060815260200190600190039081610f335790505b50915060015b818111610ff1578085610f62600183612fca565b81518110610f7257610f72612f82565b602002602001018181525050610f8781611e7a565b84610f93600184612fca565b81518110610fa357610fa3612f82565b6020026020010181905250610fb781612225565b83610fc3600184612fca565b81518110610fd357610fd3612f82565b60200260200101819052508080610fe990612fdd565b915050610f4e565b5050909192565b6000808360010b12806110105750600d600184900b12155b8061101e575060008260010b125b8061102e57506019600183900b12155b1561103b5750600061065e565b506000928352600360209081526040808520600194850b865282528085209290930b84525290205460ff1690565b611071611e4d565b604080516000808252602082019092526110b8916110b1565b604080518082019091526000808252602082015281526020019060019003908161108a5790505b5082612028565b50565b60608115806110cb575060075482115b156110e957604051639ff5bfb960e01b815260040160405180910390fd5b6000805b600d600182900b121561115b5760005b6019600182900b1215611152576000858152600260209081526040808320600186810b85529083528184209085900b845290915290205460ff161561114a578261114681612fdd565b9350505b6001016110fd565b506001016110ed565b506000816001600160401b038111156111765761117661282a565b6040519080825280602002602001820160405280156111bb57816020015b60408051808201909152600080825260208201528152602001906001900390816111945790505b5090506000805b600d600182900b12156112695760005b6019600182900b1215611260576000878152600260209081526040808320600186810b85529083528184209085900b845290915290205460ff16156112585760405180604001604052808360010b81526020018260010b81525084848151811061123e5761123e612f82565b6020026020010181905250828061125490612fdd565b9350505b6001016111d2565b506001016111c2565b5090949350505050565b6060806000805b600d600182900b12156112e55760005b6019600182900b12156112dc57600086815260016020818152604080842086840b855282528084209285900b845291905290205460ff16156112d457826112d081612fdd565b9350505b60010161128a565b5060010161127a565b506000805b600d600182900b12156113585760005b6019600182900b121561134f576000878152600360209081526040808320600186810b85529083528184209085900b845290915290205460ff1615611347578261134381612fdd565b9350505b6001016112fa565b506001016112ea565b50816001600160401b038111156113715761137161282a565b6040519080825280602002602001820160405280156113b657816020015b604080518082019091526000808252602082015281526020019060019003908161138f5790505b509350806001600160401b038111156113d1576113d161282a565b60405190808252806020026020018201604052801561142357816020015b6040805160808101825260008082526020808301829052928201819052606082015282526000199092019101816113ef5790505b50925060008060005b600d600182900b121561159c5760005b6019600182900b121561159357600089815260016020818152604080842086840b855282528084209285900b845291905290205460ff16156114bf5760405180604001604052808360010b81526020018260010b8152508885815181106114a5576114a5612f82565b602002602001018190525083806114bb90612fdd565b9450505b6000898152600360209081526040808320600186810b85529083528184209085900b845290915290205460ff161561158b5760408051608081018252600184810b8083529084900b602080840182905260008e815260038252858120848252825285812083825282528581205460ff908116868801528f825260058352868220948252938252858120928152919052929092205490911615156060820152875188908590811061157157611571612f82565b6020026020010181905250828061158790612fdd565b9350505b60010161143c565b5060010161142c565b5050505050915091565b6008546001600160a01b031633148015906115cc57506000546001600160a01b03163314155b156115ea57604051636aff438160e11b815260040160405180910390fd5b8015806115f8575060075481115b1561161657604051639ff5bfb960e01b815260040160405180910390fd5b600061162182611e7a565b905060005b815181101561168b57600082828151811061164357611643612f82565b6020908102919091018101516000878152600180845260408083208451830b8452855280832093850151820b83529290935220805460ff191682179055919091019050611626565b50600061169783612225565b905060005b81518110156107ec5760008282815181106116b9576116b9612f82565b60209081029190910181015160008781526004835260408082208351600190810b84529085528183208486018051830b8552908652828420548c8552600387528385208651840b865287528385208251840b86528752838520805460ff1990811660ff938416179091558c8652600688528486208751850b875288528486208351850b87528852848620548e8752600589528587209751850b87529688528486209251840b86529190965291909220805493909416151592169190911790915591909101905061169c565b6000808360010b128061179c5750600d600184900b12155b806117aa575060008260010b125b806117ba57506019600183900b12155b1561103b5760405163673f032f60e11b815260040160405180910390fd5b6117e0611e4d565b604080516000808252602082019092526110b891839190611830565b6040805160808101825260008082526020808301829052928201819052606082015282526000199092019101816117fc5790505b50612028565b61183e611e4d565b60008360010b12806118555750600d600184900b12155b80611863575060008260010b125b8061187357506019600183900b12155b156118915760405163673f032f60e11b815260040160405180910390fd5b600093845260016020818152604080872095830b87529481528486209390910b8552919091529120805460ff1916911515919091179055565b6118d2611e4d565b6001600160a01b03811661190157604051631e4fbdf760e01b8152600060048201526024015b60405180910390fd5b6110b881612433565b606081158061191a575060075482115b1561193857604051639ff5bfb960e01b815260040160405180910390fd5b6000805b600d600182900b12156119aa5760005b6019600182900b12156119a1576000858152600460209081526040808320600186810b85529083528184209085900b845290915290205460ff1615611999578261199581612fdd565b9350505b60010161194c565b5060010161193c565b506000816001600160401b038111156119c5576119c561282a565b604051908082528060200260200182016040528015611a1757816020015b6040805160808101825260008082526020808301829052928201819052606082015282526000199092019101816119e35790505b5090506000805b600d600182900b12156112695760005b6019600182900b1215611b0f576000878152600460209081526040808320600186810b85529083528184209085900b845290915290205460ff1615611b075760408051608081018252600184810b8083529084900b602080840182905260008c815260048252858120848252825285812083825282528581205460ff908116868801528d8252600683528682209482529382528581209281529190529290922054909116151560608201528451859085908110611aed57611aed612f82565b60200260200101819052508280611b0390612fdd565b9350505b600101611a2e565b50600101611a1e565b611b20611e4d565b821580611b2e575060075483115b15611b4c57604051639ff5bfb960e01b815260040160405180910390fd5b6000611b5784611e7a565b905060005b8151811015611bc5576000828281518110611b7957611b79612f82565b60209081029190910181015160008881526002835260408082208351600190810b845290855281832093850151810b83529290935291909120805460ff19169055919091019050611b5c565b506000611bd185612225565b905060005b8151811015611c69576000828281518110611bf357611bf3612f82565b60209081029190910181015160008981526004835260408082208351600190810b84529085528183208486018051830b8552908652828420805460ff199081169091558d8552600687528385209551830b85529486528284209051820b8452909452902080549091169055919091019050611bd6565b5060005b8451811015611d36576000858281518110611c8a57611c8a612f82565b602002602001015190506000816000015160010b1280611cb257508051600d60019190910b12155b80611cc457506000816020015160010b125b80611cda5750601960010b816020015160010b12155b15611cf85760405163673f032f60e11b815260040160405180910390fd5b60008781526002602090815260408083208451600190810b855290835281842094830151810b8452939091529020805460ff19168217905501611c6d565b5060005b8351811015611e45576000848281518110611d5757611d57612f82565b602002602001015190506000816000015160010b1280611d7f57508051600d60019190910b12155b80611d9157506000816020015160010b125b80611da75750601960010b816020015160010b12155b15611dc55760405163673f032f60e11b815260040160405180910390fd5b6040808201516000898152600460209081528382208551600190810b84529082528483208287018051830b8552908352858420805460ff90961660ff1996871617905560608701518d8552600684528685209751830b85529683528584209051820b84529091529290208054931515939091169290921790915501611d3a565b505050505050565b6000546001600160a01b03163314610bfc5760405163118cdaa760e01b81523360048201526024016118f8565b6060811580611e8a575060075482115b15611ea857604051639ff5bfb960e01b815260040160405180910390fd5b6000805b600d600182900b1215611f1a5760005b6019600182900b1215611f11576000858152600260209081526040808320600186810b85529083528184209085900b845290915290205460ff1615611f095782611f0581612fdd565b9350505b600101611ebc565b50600101611eac565b506000816001600160401b03811115611f3557611f3561282a565b604051908082528060200260200182016040528015611f7a57816020015b6040805180820190915260008082526020820152815260200190600190039081611f535790505b5090506000805b600d600182900b12156112695760005b6019600182900b121561201f576000878152600260209081526040808320600186810b85529083528184209085900b845290915290205460ff16156120175760405180604001604052808360010b81526020018260010b815250848481518110611ffd57611ffd612f82565b6020026020010181905250828061201390612fdd565b9350505b600101611f91565b50600101611f81565b6007805490600061203883612fdd565b919050555060005b825181101561210c57600083828151811061205d5761205d612f82565b602002602001015190506000816000015160010b128061208557508051600d60019190910b12155b8061209757506000816020015160010b125b806120ad5750601960010b816020015160010b12155b156120cb5760405163673f032f60e11b815260040160405180910390fd5b60075460009081526002602090815260408083208451600190810b855290835281842094830151810b8452939091529020805460ff19168217905501612040565b5060005b815181101561222057600082828151811061212d5761212d612f82565b602002602001015190506000816000015160010b128061215557508051600d60019190910b12155b8061216757506000816020015160010b125b8061217d5750601960010b816020015160010b12155b1561219b5760405163673f032f60e11b815260040160405180910390fd5b604080820151600780546000908152600460209081528482208651600190810b84529082528583208288018051830b8552908352868420805460ff90971660ff19978816179055606088015194548452600683528684209751820b84529682528583209651810b83529590529290922080549215159290911691909117905501612110565b505050565b6060811580612235575060075482115b1561225357604051639ff5bfb960e01b815260040160405180910390fd5b6000805b600d600182900b12156122c55760005b6019600182900b12156122bc576000858152600460209081526040808320600186810b85529083528184209085900b845290915290205460ff16156122b457826122b081612fdd565b9350505b600101612267565b50600101612257565b506000816001600160401b038111156122e0576122e061282a565b60405190808252806020026020018201604052801561233257816020015b6040805160808101825260008082526020808301829052928201819052606082015282526000199092019101816122fe5790505b5090506000805b600d600182900b12156112695760005b6019600182900b121561242a576000878152600460209081526040808320600186810b85529083528184209085900b845290915290205460ff16156124225760408051608081018252600184810b8083529084900b602080840182905260008c815260048252858120848252825285812083825282528581205460ff908116868801528d825260068352868220948252938252858120928152919052929092205490911615156060820152845185908590811061240857612408612f82565b6020026020010181905250828061241e90612fdd565b9350505b600101612349565b50600101612339565b600080546001600160a01b038381166001600160a01b0319831681178455604051919092169283917f8be0079c531659141344cd1fd0a4f28419497f9722a3daafe3b4186f6b6457e09190a35050565b6000808360010b128061249b5750600d600184900b12155b806124a9575060008260010b125b806124b957506019600183900b12155b15610afc5750600161065e565b6000808560010b8460010b136124e5576124e08487613012565b6124ef565b6124ef8685613012565b905060008560010b8460010b1361250f5761250a8487613012565b612519565b6125198685613012565b905060008760010b8660010b13612546578760010b8660010b1261253e576000612549565b600019612549565b60015b905060008760010b8660010b13612576578760010b8660010b1261256e576000612579565b600019612579565b60015b905060006125878585613012565b905089895b8960010b8260010b1480156125a657508860010b8160010b145b156125c5576125b68d8383612483565b15975050505050505050610ce8565b600183810b811b9081900b600003612695576125eb8e846125e68886613035565b612483565b801561260657506126068e6126008886613035565b84612483565b1561261c57600098505050505050505050610ce8565b6126268583613035565b91506126328885613012565b935061263e8684613035565b925061264a8785613035565b93508a60010b8360010b14158061266757508960010b8260010b14155b801561267957506126798e8484612483565b1561268f57600098505050505050505050610ce8565b5061258c565b61269e88613058565b60010b8160010b1315612706576126b58885613012565b93506126c18583613035565b91508a60010b8360010b1415806126de57508960010b8260010b14155b80156126f057506126f08e8484612483565b1561270657600098505050505050505050610ce8565b8660010b8160010b121561268f5761271e8785613035565b935061272a8684613035565b92508a60010b8360010b14158061266757508960010b8260010b1415801561267957506126798e8484612483565b8035600181900b811461276a57600080fd5b919050565b60008060006060848603121561278457600080fd5b8335925061279460208501612758565b91506127a260408501612758565b90509250925092565b6000806000604084860312156127c057600080fd5b8335925060208401356001600160401b038111156127dd57600080fd5b8401601f810186136127ee57600080fd5b80356001600160401b0381111561280457600080fd5b8660208260061b840101111561281957600080fd5b939660209190910195509293505050565b634e487b7160e01b600052604160045260246000fd5b604051601f8201601f191681016001600160401b03811182821017156128685761286861282a565b604052919050565b60006001600160401b038211156128895761288961282a565b5060051b60200190565b6000604082840312156128a557600080fd5b604080519081016001600160401b03811182821017156128c7576128c761282a565b6040529050806128d683612758565b81526128e460208401612758565b60208201525092915050565b600082601f83011261290157600080fd5b813561291461290f82612870565b612840565b8082825260208201915060208360061b86010192508583111561293657600080fd5b602085015b8381101561295d5761294d8782612893565b835260209092019160400161293b565b5095945050505050565b803560ff8116811461276a57600080fd5b8035801515811461276a57600080fd5b60006080828403121561299a57600080fd5b604051608081016001600160401b03811182821017156129bc576129bc61282a565b6040529050806129cb83612758565b81526129d960208401612758565b60208201526129ea60408401612967565b60408201526129fb60608401612978565b60608201525092915050565b600082601f830112612a1857600080fd5b8135612a2661290f82612870565b8082825260208201915060208360071b860101925085831115612a4857600080fd5b602085015b8381101561295d57612a5f8782612988565b8352602090920191608001612a4d565b60008060408385031215612a8257600080fd5b82356001600160401b03811115612a9857600080fd5b612aa4858286016128f0565b92505060208301356001600160401b03811115612ac057600080fd5b612acc85828601612a07565b9150509250929050565b600081518084526020840193506020830160005b82811015612b08578151865260209586019590910190600101612aea565b5093949350505050565b60208152600061065e6020830184612ad6565b600080600060408486031215612b3a57600080fd5b8335925060208401356001600160401b03811115612b5757600080fd5b8401601f81018613612b6857600080fd5b80356001600160401b03811115612b7e57600080fd5b8660208260071b840101111561281957600080fd5b600060208284031215612ba557600080fd5b5035919050565b60008060008060808587031215612bc257600080fd5b84359350612bd260208601612758565b9250612be060408601612758565b9150612bee60608601612967565b905092959194509250565b600060208284031215612c0b57600080fd5b81356001600160a01b038116811461065e57600080fd5b600080600080600060a08688031215612c3a57600080fd5b85359450612c4a60208701612758565b9350612c5860408701612758565b9250612c6660608701612758565b9150612c7460808701612758565b90509295509295909350565b60008060408385031215612c9357600080fd5b50508035926020909101359150565b600081518084526020840193506020830160005b82811015612b085781518051600190810b8852602091820151810b8289015260409097019692019101612cb6565b600081518084526020840193506020830160005b82811015612b085781518051600190810b8852602080830151820b818a015260408084015160ff16908a015260609283015115159289019290925260809097019692019101612cf8565b606081526000612d556060830186612ad6565b828103602084015280855180835260208301915060208160051b8401016020880160005b83811015612dab57601f19868403018552612d95838351612ca2565b6020958601959093509190910190600101612d79565b50508581036040870152865180825260208083019550909350600584901b820181019250870160005b84811015612e0657601f19838503018652612df0848351612ce4565b6020968701969094509190910190600101612dd4565b50919998505050505050505050565b600060208284031215612e2757600080fd5b81356001600160401b03811115612e3d57600080fd5b612e4984828501612a07565b949350505050565b60208152600061065e6020830184612ca2565b604081526000612e776040830185612ca2565b8281036020840152610ce88185612ce4565b600060208284031215612e9b57600080fd5b81356001600160401b03811115612eb157600080fd5b612e49848285016128f0565b60008060008060808587031215612ed357600080fd5b84359350612ee360208601612758565b9250612ef160408601612758565b9150612bee60608601612978565b60208152600061065e6020830184612ce4565b600080600060608486031215612f2757600080fd5b8335925060208401356001600160401b03811115612f4457600080fd5b612f50868287016128f0565b92505060408401356001600160401b03811115612f6c57600080fd5b612f7886828701612a07565b9150509250925092565b634e487b7160e01b600052603260045260246000fd5b600060408284031215612faa57600080fd5b61065e8383612893565b634e487b7160e01b600052601160045260246000fd5b81810381811115610aa257610aa2612fb4565b600060018201612fef57612fef612fb4565b5060010190565b60006080828403121561300857600080fd5b61065e8383612988565b600182810b9082900b03617fff198112617fff82131715610aa257610aa2612fb4565b600181810b9083900b01617fff8113617fff1982121715610aa257610aa2612fb4565b60008160010b617fff19810361307057613070612fb4565b6000039291505056fea2646970667358221220de2a25dda24f4d718bd1a6746dfb9d91a6bdea8bb2db4a18f38149c635fe889064736f6c634300081c0033",
  "linkReferences": {},
  "deployedLinkReferences": {}
}